{"abi":[{"type":"constructor","inputs":[{"name":"governor","type":"address","internalType":"address"}],"stateMutability":"nonpayable"},{"type":"function","name":"COMMANDER_ROLE","inputs":[],"outputs":[{"name":"","type":"bytes32","internalType":"bytes32"}],"stateMutability":"view"},{"type":"function","name":"DEFAULT_ADMIN_ROLE","inputs":[],"outputs":[{"name":"","type":"bytes32","internalType":"bytes32"}],"stateMutability":"view"},{"type":"function","name":"GOVERNOR_ROLE","inputs":[],"outputs":[{"name":"","type":"bytes32","internalType":"bytes32"}],"stateMutability":"view"},{"type":"function","name":"KEEPER_ROLE","inputs":[],"outputs":[{"name":"","type":"bytes32","internalType":"bytes32"}],"stateMutability":"view"},{"type":"function","name":"getRoleAdmin","inputs":[{"name":"role","type":"bytes32","internalType":"bytes32"}],"outputs":[{"name":"","type":"bytes32","internalType":"bytes32"}],"stateMutability":"view"},{"type":"function","name":"grantAdminRole","inputs":[{"name":"account","type":"address","internalType":"address"}],"outputs":[],"stateMutability":"nonpayable"},{"type":"function","name":"grantCommanderRole","inputs":[{"name":"account","type":"address","internalType":"address"}],"outputs":[],"stateMutability":"nonpayable"},{"type":"function","name":"grantGovernorRole","inputs":[{"name":"account","type":"address","internalType":"address"}],"outputs":[],"stateMutability":"nonpayable"},{"type":"function","name":"grantKeeperRole","inputs":[{"name":"account","type":"address","internalType":"address"}],"outputs":[],"stateMutability":"nonpayable"},{"type":"function","name":"grantRole","inputs":[{"name":"role","type":"bytes32","internalType":"bytes32"},{"name":"account","type":"address","internalType":"address"}],"outputs":[],"stateMutability":"nonpayable"},{"type":"function","name":"hasRole","inputs":[{"name":"role","type":"bytes32","internalType":"bytes32"},{"name":"account","type":"address","internalType":"address"}],"outputs":[{"name":"","type":"bool","internalType":"bool"}],"stateMutability":"view"},{"type":"function","name":"renounceRole","inputs":[{"name":"role","type":"bytes32","internalType":"bytes32"},{"name":"callerConfirmation","type":"address","internalType":"address"}],"outputs":[],"stateMutability":"nonpayable"},{"type":"function","name":"revokeAdminRole","inputs":[{"name":"account","type":"address","internalType":"address"}],"outputs":[],"stateMutability":"nonpayable"},{"type":"function","name":"revokeCommanderRole","inputs":[{"name":"account","type":"address","internalType":"address"}],"outputs":[],"stateMutability":"nonpayable"},{"type":"function","name":"revokeGovernorRole","inputs":[{"name":"account","type":"address","internalType":"address"}],"outputs":[],"stateMutability":"nonpayable"},{"type":"function","name":"revokeKeeperRole","inputs":[{"name":"account","type":"address","internalType":"address"}],"outputs":[],"stateMutability":"nonpayable"},{"type":"function","name":"revokeRole","inputs":[{"name":"role","type":"bytes32","internalType":"bytes32"},{"name":"account","type":"address","internalType":"address"}],"outputs":[],"stateMutability":"nonpayable"},{"type":"function","name":"supportsInterface","inputs":[{"name":"interfaceId","type":"bytes4","internalType":"bytes4"}],"outputs":[{"name":"","type":"bool","internalType":"bool"}],"stateMutability":"view"},{"type":"event","name":"RoleAdminChanged","inputs":[{"name":"role","type":"bytes32","indexed":true,"internalType":"bytes32"},{"name":"previousAdminRole","type":"bytes32","indexed":true,"internalType":"bytes32"},{"name":"newAdminRole","type":"bytes32","indexed":true,"internalType":"bytes32"}],"anonymous":false},{"type":"event","name":"RoleGranted","inputs":[{"name":"role","type":"bytes32","indexed":true,"internalType":"bytes32"},{"name":"account","type":"address","indexed":true,"internalType":"address"},{"name":"sender","type":"address","indexed":true,"internalType":"address"}],"anonymous":false},{"type":"event","name":"RoleRevoked","inputs":[{"name":"role","type":"bytes32","indexed":true,"internalType":"bytes32"},{"name":"account","type":"address","indexed":true,"internalType":"address"},{"name":"sender","type":"address","indexed":true,"internalType":"address"}],"anonymous":false},{"type":"error","name":"AccessControlBadConfirmation","inputs":[]},{"type":"error","name":"AccessControlUnauthorizedAccount","inputs":[{"name":"account","type":"address","internalType":"address"},{"name":"neededRole","type":"bytes32","internalType":"bytes32"}]},{"type":"error","name":"CallerIsNotAdmin","inputs":[{"name":"caller","type":"address","internalType":"address"}]},{"type":"error","name":"CallerIsNotRoleAdmin","inputs":[{"name":"caller","type":"address","internalType":"address"}]}],"bytecode":{"object":"0x608060405234801561001057600080fd5b50604051610a59380380610a5983398101604081905261002f91610118565b61003a60008261006c565b506100657f7935bd0ae54bc31f548c14dba4d37c5c64b3f8ca900cb468fb8abd54d5894f558261006c565b5050610148565b6000828152602081815260408083206001600160a01b038516845290915281205460ff1661010e576000838152602081815260408083206001600160a01b03861684529091529020805460ff191660011790556100c63390565b6001600160a01b0316826001600160a01b0316847f2f8788117e7eff1d82e926ec794901d17c78024a50270940304540a733656f0d60405160405180910390a4506001610112565b5060005b92915050565b60006020828403121561012a57600080fd5b81516001600160a01b038116811461014157600080fd5b9392505050565b610902806101576000396000f3fe608060405234801561001057600080fd5b50600436106101165760003560e01c80639403e41f116100a2578063cc1f071a11610071578063cc1f071a14610264578063ccc5749014610277578063d547741f1461028c578063e4dd1dca1461029f578063fb914c39146102b257600080fd5b80639403e41f146102235780639a19c7b014610236578063a217fddf14610249578063c634b78e1461025157600080fd5b806336568abe116100e957806336568abe146101b05780634106d274146101c357806345b817bb146101d657806381d3ce26146101fd57806391d148541461021057600080fd5b806301ffc9a71461011b578063248a9ca3146101435780632f2ff15d14610174578063364bc15a14610189575b600080fd5b61012e6101293660046107ff565b6102c5565b60405190151581526020015b60405180910390f35b610166610151366004610830565b60009081526020819052604090206001015490565b60405190815260200161013a565b610187610182366004610865565b6102fc565b005b6101667ffc8737ab85eb45125971625a9ebdb75cc78e01d5c1fa80c4c6e5203f47bc4fab81565b6101876101be366004610865565b610327565b6101876101d1366004610891565b61035f565b6101667f4d30e780ddaa8d94b73282aef7f15ebc8bd13895bbcc2ae410396cabb542d27c81565b61018761020b366004610891565b6103dd565b61012e61021e366004610865565b610453565b610187610231366004610891565b61047c565b610187610244366004610891565b6104f2565b610166600081565b61018761025f366004610891565b610527565b610187610272366004610891565b61055c565b6101666000805160206108ad83398151915281565b61018761029a366004610865565b6105ce565b6101876102ad366004610891565b6105f3565b6101876102c0366004610891565b610657565b60006001600160e01b03198216637965db0b60e01b14806102f657506301ffc9a760e01b6001600160e01b03198316145b92915050565b600082815260208190526040902060010154610317816106bb565b61032183836106c5565b50505050565b6001600160a01b03811633146103505760405163334bd91960e11b815260040160405180910390fd5b61035a8282610757565b505050565b61036a600033610453565b158061038b57506103896000805160206108ad83398151915233610453565b155b156103b0576040516366ea5d8760e01b81523360048201526024015b60405180910390fd5b6103da7ffc8737ab85eb45125971625a9ebdb75cc78e01d5c1fa80c4c6e5203f47bc4fab826102fc565b50565b6103e8600033610453565b158061040957506104076000805160206108ad83398151915233610453565b155b15610429576040516366ea5d8760e01b81523360048201526024016103a7565b6103da7f4d30e780ddaa8d94b73282aef7f15ebc8bd13895bbcc2ae410396cabb542d27c826105ce565b6000918252602082815260408084206001600160a01b0393909316845291905290205460ff1690565b610487600033610453565b15806104a857506104a66000805160206108ad83398151915233610453565b155b156104c8576040516366ea5d8760e01b81523360048201526024016103a7565b6103da7f4d30e780ddaa8d94b73282aef7f15ebc8bd13895bbcc2ae410396cabb542d27c826102fc565b6104fd600033610453565b61051c576040516376660ab760e11b81523360048201526024016103a7565b6103da6000826105ce565b610532600033610453565b610551576040516376660ab760e11b81523360048201526024016103a7565b6103da6000826102fc565b610567600033610453565b158061058857506105866000805160206108ad83398151915233610453565b155b156105a8576040516366ea5d8760e01b81523360048201526024016103a7565b6103da7ffc8737ab85eb45125971625a9ebdb75cc78e01d5c1fa80c4c6e5203f47bc4fab825b6000828152602081905260409020600101546105e9816106bb565b6103218383610757565b6105fe600033610453565b158061061f575061061d6000805160206108ad83398151915233610453565b155b1561063f576040516366ea5d8760e01b81523360048201526024016103a7565b6103da6000805160206108ad833981519152826102fc565b610662600033610453565b158061068357506106816000805160206108ad83398151915233610453565b155b156106a3576040516366ea5d8760e01b81523360048201526024016103a7565b6103da6000805160206108ad833981519152826105ce565b6103da81336107c2565b60006106d18383610453565b61074f576000838152602081815260408083206001600160a01b03861684529091529020805460ff191660011790556107073390565b6001600160a01b0316826001600160a01b0316847f2f8788117e7eff1d82e926ec794901d17c78024a50270940304540a733656f0d60405160405180910390a45060016102f6565b5060006102f6565b60006107638383610453565b1561074f576000838152602081815260408083206001600160a01b0386168085529252808320805460ff1916905551339286917ff6391f5c32d9c69d2a47ea670b442974b53935d1edc7fd64eb21e047a839171b9190a45060016102f6565b6107cc8282610453565b6107fb5760405163e2517d3f60e01b81526001600160a01b0382166004820152602481018390526044016103a7565b5050565b60006020828403121561081157600080fd5b81356001600160e01b03198116811461082957600080fd5b9392505050565b60006020828403121561084257600080fd5b5035919050565b80356001600160a01b038116811461086057600080fd5b919050565b6000806040838503121561087857600080fd5b8235915061088860208401610849565b90509250929050565b6000602082840312156108a357600080fd5b6108298261084956fe7935bd0ae54bc31f548c14dba4d37c5c64b3f8ca900cb468fb8abd54d5894f55a264697066735822122042ae549869ae89eb1d40bed9b81e1aa537cd1d44c686eec9e5cba0cdee48304f64736f6c634300081a0033","linkReferences":{}},"methodIdentifiers":{"COMMANDER_ROLE()":"45b817bb","DEFAULT_ADMIN_ROLE()":"a217fddf","GOVERNOR_ROLE()":"ccc57490","KEEPER_ROLE()":"364bc15a","getRoleAdmin(bytes32)":"248a9ca3","grantAdminRole(address)":"c634b78e","grantCommanderRole(address)":"9403e41f","grantGovernorRole(address)":"e4dd1dca","grantKeeperRole(address)":"4106d274","grantRole(bytes32,address)":"2f2ff15d","hasRole(bytes32,address)":"91d14854","renounceRole(bytes32,address)":"36568abe","revokeAdminRole(address)":"9a19c7b0","revokeCommanderRole(address)":"81d3ce26","revokeGovernorRole(address)":"fb914c39","revokeKeeperRole(address)":"cc1f071a","revokeRole(bytes32,address)":"d547741f","supportsInterface(bytes4)":"01ffc9a7"},"id":40}