{"abi":[{"type":"constructor","inputs":[{"name":"params","type":"tuple","internalType":"struct IFleetCommander.FleetCommanderParams","components":[{"name":"governor","type":"address","internalType":"address"},{"name":"initialArks","type":"tuple[]","internalType":"struct IFleetCommander.ArkConfiguration[]","components":[{"name":"maxAllocation","type":"uint256","internalType":"Percentage"}]},{"name":"initialFundsQueueBalance","type":"uint256","internalType":"uint256"},{"name":"initialRebalanceCooldown","type":"uint256","internalType":"uint256"},{"name":"asset","type":"address","internalType":"address"},{"name":"name","type":"string","internalType":"string"},{"name":"symbol","type":"string","internalType":"string"}]}],"stateMutability":"nonpayable"},{"type":"function","name":"DEFAULT_ADMIN_ROLE","inputs":[],"outputs":[{"name":"","type":"bytes32","internalType":"bytes32"}],"stateMutability":"view"},{"type":"function","name":"GOVERNOR_ROLE","inputs":[],"outputs":[{"name":"","type":"bytes32","internalType":"bytes32"}],"stateMutability":"view"},{"type":"function","name":"KEEPER_ROLE","inputs":[],"outputs":[{"name":"","type":"bytes32","internalType":"bytes32"}],"stateMutability":"view"},{"type":"function","name":"addArk","inputs":[{"name":"ark","type":"address","internalType":"address"},{"name":"maxAllocation","type":"uint256","internalType":"uint256"}],"outputs":[],"stateMutability":"nonpayable"},{"type":"function","name":"allowance","inputs":[{"name":"owner","type":"address","internalType":"address"},{"name":"spender","type":"address","internalType":"address"}],"outputs":[{"name":"","type":"uint256","internalType":"uint256"}],"stateMutability":"view"},{"type":"function","name":"approve","inputs":[{"name":"spender","type":"address","internalType":"address"},{"name":"value","type":"uint256","internalType":"uint256"}],"outputs":[{"name":"","type":"bool","internalType":"bool"}],"stateMutability":"nonpayable"},{"type":"function","name":"arks","inputs":[{"name":"_address","type":"address","internalType":"address"}],"outputs":[{"name":"","type":"tuple","internalType":"struct IFleetCommander.ArkConfiguration","components":[{"name":"maxAllocation","type":"uint256","internalType":"Percentage"}]}],"stateMutability":"view"},{"type":"function","name":"asset","inputs":[],"outputs":[{"name":"","type":"address","internalType":"address"}],"stateMutability":"view"},{"type":"function","name":"balanceOf","inputs":[{"name":"account","type":"address","internalType":"address"}],"outputs":[{"name":"","type":"uint256","internalType":"uint256"}],"stateMutability":"view"},{"type":"function","name":"commitFundsQueue","inputs":[{"name":"data","type":"bytes","internalType":"bytes"}],"outputs":[],"stateMutability":"nonpayable"},{"type":"function","name":"convertToAssets","inputs":[{"name":"shares","type":"uint256","internalType":"uint256"}],"outputs":[{"name":"","type":"uint256","internalType":"uint256"}],"stateMutability":"view"},{"type":"function","name":"convertToShares","inputs":[{"name":"assets","type":"uint256","internalType":"uint256"}],"outputs":[{"name":"","type":"uint256","internalType":"uint256"}],"stateMutability":"view"},{"type":"function","name":"decimals","inputs":[],"outputs":[{"name":"","type":"uint8","internalType":"uint8"}],"stateMutability":"view"},{"type":"function","name":"deposit","inputs":[{"name":"assets","type":"uint256","internalType":"uint256"},{"name":"receiver","type":"address","internalType":"address"}],"outputs":[{"name":"","type":"uint256","internalType":"uint256"}],"stateMutability":"nonpayable"},{"type":"function","name":"emergencyShutdown","inputs":[],"outputs":[],"stateMutability":"nonpayable"},{"type":"function","name":"forceRebalance","inputs":[{"name":"data","type":"bytes","internalType":"bytes"}],"outputs":[],"stateMutability":"nonpayable"},{"type":"function","name":"forceWithdraw","inputs":[{"name":"assets","type":"uint256","internalType":"uint256"},{"name":"receiver","type":"address","internalType":"address"},{"name":"owner","type":"address","internalType":"address"}],"outputs":[{"name":"","type":"uint256","internalType":"uint256"}],"stateMutability":"nonpayable"},{"type":"function","name":"fundsQueueBalance","inputs":[],"outputs":[{"name":"","type":"uint256","internalType":"uint256"}],"stateMutability":"view"},{"type":"function","name":"getRoleAdmin","inputs":[{"name":"role","type":"bytes32","internalType":"bytes32"}],"outputs":[{"name":"","type":"bytes32","internalType":"bytes32"}],"stateMutability":"view"},{"type":"function","name":"grantAdminRole","inputs":[{"name":"account","type":"address","internalType":"address"}],"outputs":[],"stateMutability":"nonpayable"},{"type":"function","name":"grantGovernorRole","inputs":[{"name":"account","type":"address","internalType":"address"}],"outputs":[],"stateMutability":"nonpayable"},{"type":"function","name":"grantKeeperRole","inputs":[{"name":"account","type":"address","internalType":"address"}],"outputs":[],"stateMutability":"nonpayable"},{"type":"function","name":"grantRole","inputs":[{"name":"role","type":"bytes32","internalType":"bytes32"},{"name":"account","type":"address","internalType":"address"}],"outputs":[],"stateMutability":"nonpayable"},{"type":"function","name":"hasRole","inputs":[{"name":"role","type":"bytes32","internalType":"bytes32"},{"name":"account","type":"address","internalType":"address"}],"outputs":[{"name":"","type":"bool","internalType":"bool"}],"stateMutability":"view"},{"type":"function","name":"lastRebalanceTime","inputs":[],"outputs":[{"name":"","type":"uint256","internalType":"uint256"}],"stateMutability":"view"},{"type":"function","name":"maxDeposit","inputs":[{"name":"","type":"address","internalType":"address"}],"outputs":[{"name":"","type":"uint256","internalType":"uint256"}],"stateMutability":"view"},{"type":"function","name":"maxMint","inputs":[{"name":"","type":"address","internalType":"address"}],"outputs":[{"name":"","type":"uint256","internalType":"uint256"}],"stateMutability":"view"},{"type":"function","name":"maxRedeem","inputs":[{"name":"owner","type":"address","internalType":"address"}],"outputs":[{"name":"","type":"uint256","internalType":"uint256"}],"stateMutability":"view"},{"type":"function","name":"maxWithdraw","inputs":[{"name":"owner","type":"address","internalType":"address"}],"outputs":[{"name":"","type":"uint256","internalType":"uint256"}],"stateMutability":"view"},{"type":"function","name":"minFundsQueueBalance","inputs":[],"outputs":[{"name":"","type":"uint256","internalType":"uint256"}],"stateMutability":"view"},{"type":"function","name":"mint","inputs":[{"name":"shares","type":"uint256","internalType":"uint256"},{"name":"receiver","type":"address","internalType":"address"}],"outputs":[{"name":"","type":"uint256","internalType":"uint256"}],"stateMutability":"nonpayable"},{"type":"function","name":"mintSharesAsFees","inputs":[],"outputs":[],"stateMutability":"nonpayable"},{"type":"function","name":"name","inputs":[],"outputs":[{"name":"","type":"string","internalType":"string"}],"stateMutability":"view"},{"type":"function","name":"previewDeposit","inputs":[{"name":"assets","type":"uint256","internalType":"uint256"}],"outputs":[{"name":"","type":"uint256","internalType":"uint256"}],"stateMutability":"view"},{"type":"function","name":"previewMint","inputs":[{"name":"shares","type":"uint256","internalType":"uint256"}],"outputs":[{"name":"","type":"uint256","internalType":"uint256"}],"stateMutability":"view"},{"type":"function","name":"previewRedeem","inputs":[{"name":"shares","type":"uint256","internalType":"uint256"}],"outputs":[{"name":"","type":"uint256","internalType":"uint256"}],"stateMutability":"view"},{"type":"function","name":"previewWithdraw","inputs":[{"name":"assets","type":"uint256","internalType":"uint256"}],"outputs":[{"name":"","type":"uint256","internalType":"uint256"}],"stateMutability":"view"},{"type":"function","name":"rebalance","inputs":[{"name":"data","type":"bytes","internalType":"bytes"}],"outputs":[],"stateMutability":"nonpayable"},{"type":"function","name":"rebalanceCooldown","inputs":[],"outputs":[{"name":"","type":"uint256","internalType":"uint256"}],"stateMutability":"view"},{"type":"function","name":"redeem","inputs":[{"name":"shares","type":"uint256","internalType":"uint256"},{"name":"receiver","type":"address","internalType":"address"},{"name":"owner","type":"address","internalType":"address"}],"outputs":[{"name":"","type":"uint256","internalType":"uint256"}],"stateMutability":"nonpayable"},{"type":"function","name":"refillFundsQueue","inputs":[{"name":"data","type":"bytes","internalType":"bytes"}],"outputs":[],"stateMutability":"nonpayable"},{"type":"function","name":"renounceRole","inputs":[{"name":"role","type":"bytes32","internalType":"bytes32"},{"name":"callerConfirmation","type":"address","internalType":"address"}],"outputs":[],"stateMutability":"nonpayable"},{"type":"function","name":"revokeAdminRole","inputs":[{"name":"account","type":"address","internalType":"address"}],"outputs":[],"stateMutability":"nonpayable"},{"type":"function","name":"revokeGovernorRole","inputs":[{"name":"account","type":"address","internalType":"address"}],"outputs":[],"stateMutability":"nonpayable"},{"type":"function","name":"revokeKeeperRole","inputs":[{"name":"account","type":"address","internalType":"address"}],"outputs":[],"stateMutability":"nonpayable"},{"type":"function","name":"revokeRole","inputs":[{"name":"role","type":"bytes32","internalType":"bytes32"},{"name":"account","type":"address","internalType":"address"}],"outputs":[],"stateMutability":"nonpayable"},{"type":"function","name":"setDepositCap","inputs":[{"name":"newCap","type":"uint256","internalType":"uint256"}],"outputs":[],"stateMutability":"nonpayable"},{"type":"function","name":"setFeeAddress","inputs":[{"name":"newAddress","type":"address","internalType":"address"}],"outputs":[],"stateMutability":"nonpayable"},{"type":"function","name":"setMinFundsQueueBalance","inputs":[{"name":"newBalance","type":"uint256","internalType":"uint256"}],"outputs":[],"stateMutability":"nonpayable"},{"type":"function","name":"supportsInterface","inputs":[{"name":"interfaceId","type":"bytes4","internalType":"bytes4"}],"outputs":[{"name":"","type":"bool","internalType":"bool"}],"stateMutability":"view"},{"type":"function","name":"symbol","inputs":[],"outputs":[{"name":"","type":"string","internalType":"string"}],"stateMutability":"view"},{"type":"function","name":"totalAssets","inputs":[],"outputs":[{"name":"","type":"uint256","internalType":"uint256"}],"stateMutability":"view"},{"type":"function","name":"totalSupply","inputs":[],"outputs":[{"name":"","type":"uint256","internalType":"uint256"}],"stateMutability":"view"},{"type":"function","name":"transfer","inputs":[{"name":"","type":"address","internalType":"address"},{"name":"","type":"uint256","internalType":"uint256"}],"outputs":[{"name":"","type":"bool","internalType":"bool"}],"stateMutability":"pure"},{"type":"function","name":"transferFrom","inputs":[{"name":"from","type":"address","internalType":"address"},{"name":"to","type":"address","internalType":"address"},{"name":"value","type":"uint256","internalType":"uint256"}],"outputs":[{"name":"","type":"bool","internalType":"bool"}],"stateMutability":"nonpayable"},{"type":"function","name":"updateRebalanceCooldown","inputs":[{"name":"newCooldown","type":"uint256","internalType":"uint256"}],"outputs":[],"stateMutability":"nonpayable"},{"type":"function","name":"withdraw","inputs":[{"name":"assets","type":"uint256","internalType":"uint256"},{"name":"receiver","type":"address","internalType":"address"},{"name":"owner","type":"address","internalType":"address"}],"outputs":[{"name":"","type":"uint256","internalType":"uint256"}],"stateMutability":"nonpayable"},{"type":"event","name":"Approval","inputs":[{"name":"owner","type":"address","indexed":true,"internalType":"address"},{"name":"spender","type":"address","indexed":true,"internalType":"address"},{"name":"value","type":"uint256","indexed":false,"internalType":"uint256"}],"anonymous":false},{"type":"event","name":"ArkAdded","inputs":[{"name":"ark","type":"address","indexed":true,"internalType":"address"},{"name":"maxAllocation","type":"uint256","indexed":false,"internalType":"uint256"}],"anonymous":false},{"type":"event","name":"Deposit","inputs":[{"name":"sender","type":"address","indexed":true,"internalType":"address"},{"name":"owner","type":"address","indexed":true,"internalType":"address"},{"name":"assets","type":"uint256","indexed":false,"internalType":"uint256"},{"name":"shares","type":"uint256","indexed":false,"internalType":"uint256"}],"anonymous":false},{"type":"event","name":"DepositCapUpdated","inputs":[{"name":"newCap","type":"uint256","indexed":false,"internalType":"uint256"}],"anonymous":false},{"type":"event","name":"FeeAddressUpdated","inputs":[{"name":"newAddress","type":"address","indexed":false,"internalType":"address"}],"anonymous":false},{"type":"event","name":"FundsQueueBalanceUpdated","inputs":[{"name":"user","type":"address","indexed":true,"internalType":"address"},{"name":"prevBalance","type":"uint256","indexed":false,"internalType":"uint256"},{"name":"newBalance","type":"uint256","indexed":false,"internalType":"uint256"}],"anonymous":false},{"type":"event","name":"FundsQueueRefilled","inputs":[{"name":"keeper","type":"address","indexed":true,"internalType":"address"},{"name":"prevBalance","type":"uint256","indexed":false,"internalType":"uint256"},{"name":"newBalance","type":"uint256","indexed":false,"internalType":"uint256"}],"anonymous":false},{"type":"event","name":"MinFundsQueueBalanceUpdated","inputs":[{"name":"keeper","type":"address","indexed":true,"internalType":"address"},{"name":"newBalance","type":"uint256","indexed":false,"internalType":"uint256"}],"anonymous":false},{"type":"event","name":"QueuedFundsCommitted","inputs":[{"name":"keeper","type":"address","indexed":true,"internalType":"address"},{"name":"prevBalance","type":"uint256","indexed":false,"internalType":"uint256"},{"name":"newBalance","type":"uint256","indexed":false,"internalType":"uint256"}],"anonymous":false},{"type":"event","name":"Rebalanced","inputs":[{"name":"keeper","type":"address","indexed":true,"internalType":"address"},{"name":"rebalances","type":"tuple[]","indexed":false,"internalType":"struct IFleetCommander.RebalanceEventData[]","components":[{"name":"fromArk","type":"address","internalType":"address"},{"name":"toArk","type":"address","internalType":"address"},{"name":"amount","type":"uint256","internalType":"uint256"}]}],"anonymous":false},{"type":"event","name":"RoleAdminChanged","inputs":[{"name":"role","type":"bytes32","indexed":true,"internalType":"bytes32"},{"name":"previousAdminRole","type":"bytes32","indexed":true,"internalType":"bytes32"},{"name":"newAdminRole","type":"bytes32","indexed":true,"internalType":"bytes32"}],"anonymous":false},{"type":"event","name":"RoleGranted","inputs":[{"name":"role","type":"bytes32","indexed":true,"internalType":"bytes32"},{"name":"account","type":"address","indexed":true,"internalType":"address"},{"name":"sender","type":"address","indexed":true,"internalType":"address"}],"anonymous":false},{"type":"event","name":"RoleRevoked","inputs":[{"name":"role","type":"bytes32","indexed":true,"internalType":"bytes32"},{"name":"account","type":"address","indexed":true,"internalType":"address"},{"name":"sender","type":"address","indexed":true,"internalType":"address"}],"anonymous":false},{"type":"event","name":"Transfer","inputs":[{"name":"from","type":"address","indexed":true,"internalType":"address"},{"name":"to","type":"address","indexed":true,"internalType":"address"},{"name":"value","type":"uint256","indexed":false,"internalType":"uint256"}],"anonymous":false},{"type":"event","name":"Withdraw","inputs":[{"name":"sender","type":"address","indexed":true,"internalType":"address"},{"name":"receiver","type":"address","indexed":true,"internalType":"address"},{"name":"owner","type":"address","indexed":true,"internalType":"address"},{"name":"assets","type":"uint256","indexed":false,"internalType":"uint256"},{"name":"shares","type":"uint256","indexed":false,"internalType":"uint256"}],"anonymous":false},{"type":"error","name":"AccessControlBadConfirmation","inputs":[]},{"type":"error","name":"AccessControlUnauthorizedAccount","inputs":[{"name":"account","type":"address","internalType":"address"},{"name":"neededRole","type":"bytes32","internalType":"bytes32"}]},{"type":"error","name":"AddressEmptyCode","inputs":[{"name":"target","type":"address","internalType":"address"}]},{"type":"error","name":"AddressInsufficientBalance","inputs":[{"name":"account","type":"address","internalType":"address"}]},{"type":"error","name":"CallerIsNotAdmin","inputs":[{"name":"caller","type":"address","internalType":"address"}]},{"type":"error","name":"CallerIsNotGovernor","inputs":[{"name":"caller","type":"address","internalType":"address"}]},{"type":"error","name":"CallerIsNotKeeper","inputs":[{"name":"caller","type":"address","internalType":"address"}]},{"type":"error","name":"CallerIsNotRoleAdmin","inputs":[{"name":"caller","type":"address","internalType":"address"}]},{"type":"error","name":"ERC20InsufficientAllowance","inputs":[{"name":"spender","type":"address","internalType":"address"},{"name":"allowance","type":"uint256","internalType":"uint256"},{"name":"needed","type":"uint256","internalType":"uint256"}]},{"type":"error","name":"ERC20InsufficientBalance","inputs":[{"name":"sender","type":"address","internalType":"address"},{"name":"balance","type":"uint256","internalType":"uint256"},{"name":"needed","type":"uint256","internalType":"uint256"}]},{"type":"error","name":"ERC20InvalidApprover","inputs":[{"name":"approver","type":"address","internalType":"address"}]},{"type":"error","name":"ERC20InvalidReceiver","inputs":[{"name":"receiver","type":"address","internalType":"address"}]},{"type":"error","name":"ERC20InvalidSender","inputs":[{"name":"sender","type":"address","internalType":"address"}]},{"type":"error","name":"ERC20InvalidSpender","inputs":[{"name":"spender","type":"address","internalType":"address"}]},{"type":"error","name":"ERC4626ExceededMaxDeposit","inputs":[{"name":"receiver","type":"address","internalType":"address"},{"name":"assets","type":"uint256","internalType":"uint256"},{"name":"max","type":"uint256","internalType":"uint256"}]},{"type":"error","name":"ERC4626ExceededMaxMint","inputs":[{"name":"receiver","type":"address","internalType":"address"},{"name":"shares","type":"uint256","internalType":"uint256"},{"name":"max","type":"uint256","internalType":"uint256"}]},{"type":"error","name":"ERC4626ExceededMaxRedeem","inputs":[{"name":"owner","type":"address","internalType":"address"},{"name":"shares","type":"uint256","internalType":"uint256"},{"name":"max","type":"uint256","internalType":"uint256"}]},{"type":"error","name":"ERC4626ExceededMaxWithdraw","inputs":[{"name":"owner","type":"address","internalType":"address"},{"name":"assets","type":"uint256","internalType":"uint256"},{"name":"max","type":"uint256","internalType":"uint256"}]},{"type":"error","name":"FailedInnerCall","inputs":[]},{"type":"error","name":"FleetCommanderTransfersDisabled","inputs":[]},{"type":"error","name":"MathOverflowedMulDiv","inputs":[]},{"type":"error","name":"SafeERC20FailedOperation","inputs":[{"name":"token","type":"address","internalType":"address"}]}],"bytecode":{"object":"0x60c060405234801561001057600080fd5b506040516124a33803806124a383398101604081905261002f91610440565b6080810151815160a083015160c0840151600361004c83826105c4565b50600461005982826105c4565b50610069915060009050826100dd565b506100947f7935bd0ae54bc31f548c14dba4d37c5c64b3f8ca900cb468fb8abd54d5894f55826100dd565b5060009050806100a38361018d565b91509150816100b35760126100b5565b805b60ff1660a05250506001600160a01b0316608052604081015160085560600151600a556106b7565b60008281526005602090815260408083206001600160a01b038516845290915281205460ff166101835760008381526005602090815260408083206001600160a01b03861684529091529020805460ff1916600117905561013b3390565b6001600160a01b0316826001600160a01b0316847f2f8788117e7eff1d82e926ec794901d17c78024a50270940304540a733656f0d60405160405180910390a4506001610187565b5060005b92915050565b60408051600481526024810182526020810180516001600160e01b031663313ce56760e01b17905290516000918291829182916001600160a01b038716916101d491610682565b600060405180830381855afa9150503d806000811461020f576040519150601f19603f3d011682016040523d82523d6000602084013e610214565b606091505b509150915081801561022857506020815110155b1561025c57600081806020019051810190610243919061069e565b905060ff811161025a576001969095509350505050565b505b5060009485945092505050565b634e487b7160e01b600052604160045260246000fd5b604051602081016001600160401b03811182821017156102a1576102a1610269565b60405290565b60405160e081016001600160401b03811182821017156102a1576102a1610269565b604051601f8201601f191681016001600160401b03811182821017156102f1576102f1610269565b604052919050565b80516001600160a01b038116811461031057600080fd5b919050565b600082601f83011261032657600080fd5b81516001600160401b0381111561033f5761033f610269565b8060051b61034f602082016102c9565b9182526020818501810192908101908684111561036b57600080fd5b6020860192505b838310156103a7576020838803121561038a57600080fd5b61039261027f565b83518152825260209283019290910190610372565b9695505050505050565b60005b838110156103cc5781810151838201526020016103b4565b50506000910152565b600082601f8301126103e657600080fd5b81516001600160401b038111156103ff576103ff610269565b610412601f8201601f19166020016102c9565b81815284602083860101111561042757600080fd5b6104388260208301602087016103b1565b949350505050565b60006020828403121561045257600080fd5b81516001600160401b0381111561046857600080fd5b820160e0818503121561047a57600080fd5b6104826102a7565b61048b826102f9565b815260208201516001600160401b038111156104a657600080fd5b6104b286828501610315565b60208301525060408281015190820152606080830151908201526104d8608083016102f9565b608082015260a08201516001600160401b038111156104f657600080fd5b610502868285016103d5565b60a08301525060c08201516001600160401b0381111561052157600080fd5b61052d868285016103d5565b60c083015250949350505050565b600181811c9082168061054f57607f821691505b60208210810361056f57634e487b7160e01b600052602260045260246000fd5b50919050565b601f8211156105bf57806000526020600020601f840160051c8101602085101561059c5750805b601f840160051c820191505b818110156105bc57600081556001016105a8565b50505b505050565b81516001600160401b038111156105dd576105dd610269565b6105f1816105eb845461053b565b84610575565b6020601f821160018114610625576000831561060d5750848201515b600019600385901b1c1916600184901b1784556105bc565b600084815260208120601f198516915b828110156106555787850151825560209485019460019092019101610635565b50848210156106735786840151600019600387901b60f8161c191681555b50505050600190811b01905550565b600082516106948184602087016103b1565b9190910192915050565b6000602082840312156106b057600080fd5b5051919050565b60805160a051611db26106f16000396000610a3d0152600081816104f7015281816107c00152818161115701526112620152611db26000f3fe608060405234801561001057600080fd5b50600436106103835760003560e01c806391d14854116101de578063c63d75b61161010f578063d905777e116100ad578063e4dd1dca1161007c578063e4dd1dca14610779578063ef8b30f7146106b5578063f71b395b1461078c578063fb914c391461079557600080fd5b8063d905777e14610724578063d9ca21d514610737578063dc9de0a814610431578063dd62ed3e1461074057600080fd5b8063cc1f071a116100e9578063cc1f071a146106d6578063ccc57490146106e9578063ce96cb77146106fe578063d547741f1461071157600080fd5b8063c63d75b614610521578063c6e6f592146106b5578063c7be7258146106c857600080fd5b8063b269add31161017c578063b460af9411610156578063b460af941461067c578063ba0876521461068f578063bf4d8bbc1461047a578063c634b78e146106a257600080fd5b8063b269add31461047a578063b3d7f6b914610660578063b3de272d1461067357600080fd5b806395d89b41116101b857806395d89b411461062a5780639a19c7b014610632578063a217fddf14610645578063a9059cbb1461064d57600080fd5b806391d148541461060457806394bf804d14610617578063952f14831461042757600080fd5b80633403c2fc116102b85780634f644d19116102565780637943fdc2116102305780637943fdc21461058e57806386651203146104315780638705fcd4146105a557806388b21872146105b357600080fd5b80634f644d19146105495780636e553f651461055257806370a082311461056557600080fd5b806338d52e0f1161029257806338d52e0f146104ea578063402d267d146105215780634106d274146105365780634cdad506146103db57600080fd5b80633403c2fc146104ba578063364bc15a146104c257806336568abe146104d757600080fd5b806318160ddd11610325578063248a9ca3116102ff578063248a9ca3146104575780632b3c8bf31461047a5780632f2ff15d1461048d578063313ce567146104a057600080fd5b806318160ddd1461042957806318ff34a71461043157806323b872dd1461044457600080fd5b806307a2d13a1161036157806307a2d13a146103db578063095ea7b3146103ee5780630a28a477146104015780630d79aac01461041457600080fd5b806301e1d1141461038857806301ffc9a7146103a357806306fdde03146103c6575b600080fd5b6103906107a8565b6040519081526020015b60405180910390f35b6103b66103b13660046118a5565b610838565b604051901515815260200161039a565b6103ce61086f565b60405161039a91906118f3565b6103906103e9366004611926565b610901565b6103b66103fc36600461195b565b61090e565b61039061040f366004611926565b610926565b610427610422366004611985565b610933565b005b600254610390565b61042761043f366004611926565b610973565b6103b66104523660046119f9565b6109ad565b610390610465366004611926565b60009081526005602052604090206001015490565b610427610488366004611985565b6109d3565b61042761049b366004611a36565b610a0a565b6104a8610a35565b60405160ff909116815260200161039a565b610427610a61565b610390600080516020611d3d83398151915281565b6104276104e5366004611a36565b610a9a565b6040516001600160a01b037f000000000000000000000000000000000000000000000000000000000000000016815260200161039a565b61039061052f366004611a62565b5060001990565b610427610544366004611a62565b610ad2565b61039060085481565b610390610560366004611a36565b610b36565b610390610573366004611a62565b6001600160a01b031660009081526020819052604090205490565b61039061059c366004611a7d565b60009392505050565b61042761043f366004611a62565b6105f56105c1366004611a62565b60408051602080820183526000918290526001600160a01b0393909316815260068352819020815192830190915254815290565b6040519051815260200161039a565b6103b6610612366004611a36565b610b9e565b610390610625366004611a36565b610bc9565b6103ce610bef565b610427610640366004611a62565b610bfe565b610390600081565b6103b661065b36600461195b565b610c33565b61039061066e366004611926565b610c4e565b610390600a5481565b61039061068a366004611a7d565b610c5b565b61039061069d366004611a7d565b610cc5565b6104276106b0366004611a62565b610d1d565b6103906106c3366004611926565b610d52565b61042761042236600461195b565b6104276106e4366004611a62565b610d5f565b610390600080516020611d5d83398151915281565b61039061070c366004611a62565b610dc3565b61042761071f366004611a36565b610de7565b610390610732366004611a62565b610e0c565b61039060095481565b61039061074e366004611ab9565b6001600160a01b03918216600090815260016020908152604080832093909416825291909152205490565b610427610787366004611a62565b610e2a565b61039060075481565b6104276107a3366004611a62565b610e8e565b6040516370a0823160e01b81523060048201526000907f00000000000000000000000000000000000000000000000000000000000000006001600160a01b0316906370a0823190602401602060405180830381865afa15801561080f573d6000803e3d6000fd5b505050506040513d601f19601f820116820180604052508101906108339190611ae3565b905090565b60006001600160e01b03198216637965db0b60e01b148061086957506301ffc9a760e01b6001600160e01b03198316145b92915050565b60606003805461087e90611afc565b80601f01602080910402602001604051908101604052809291908181526020018280546108aa90611afc565b80156108f75780601f106108cc576101008083540402835291602001916108f7565b820191906000526020600020905b8154815290600101906020018083116108da57829003601f168201915b5050505050905090565b6000610869826000610ef2565b60003361091c818585610f2c565b5060019392505050565b6000610869826001610f39565b61094b600080516020611d5d83398151915233610b9e565b61096f57604051630ea7d7ed60e21b81523360048201526024015b60405180910390fd5b5050565b61098b600080516020611d5d83398151915233610b9e565b6109aa57604051630ea7d7ed60e21b8152336004820152602401610966565b50565b6000336109bb858285610f69565b6109c6858585610fce565b60019150505b9392505050565b6109eb600080516020611d3d83398151915233610b9e565b61096f576040516329068e8160e21b8152336004820152602401610966565b600082815260056020526040902060010154610a258161102d565b610a2f8383611037565b50505050565b6000610833817f0000000000000000000000000000000000000000000000000000000000000000611b4c565b610a79600080516020611d5d83398151915233610b9e565b610a9857604051630ea7d7ed60e21b8152336004820152602401610966565b565b6001600160a01b0381163314610ac35760405163334bd91960e11b815260040160405180910390fd5b610acd82826110cb565b505050565b610add600033610b9e565b1580610afe5750610afc600080516020611d5d83398151915233610b9e565b155b15610b1e576040516366ea5d8760e01b8152336004820152602401610966565b6109aa600080516020611d3d83398151915282610a0a565b6000610b428383611138565b50600754610b508482611b65565b600781905560405133917f61753ac426499bb7f32d2d815ae56f45b7a327d6e647fe164f3492e1a5b2138e91610b8e91858252602082015260400190565b60405180910390a2509192915050565b60009182526005602090815260408084206001600160a01b0393909316845291905290205460ff1690565b60006000196000610bd985610c4e565b9050610be733858388611152565b949350505050565b60606004805461087e90611afc565b610c09600033610b9e565b610c28576040516376660ab760e11b8152336004820152602401610966565b6109aa600082610de7565b600060405163ec47ea8b60e01b815260040160405180910390fd5b6000610869826001610ef2565b6000610c688484846111e4565b506007546000610c788683611b99565b6007819055604080518481526020810183905291925033917f61753ac426499bb7f32d2d815ae56f45b7a327d6e647fe164f3492e1a5b2138e910160405180910390a25093949350505050565b600080610cd183610e0c565b905080851115610cfa57828582604051632e52afbb60e21b815260040161096693929190611b78565b6000610d0586610901565b9050610d14338686848a61122f565b95945050505050565b610d28600033610b9e565b610d47576040516376660ab760e11b8152336004820152602401610966565b6109aa600082610a0a565b6000610869826000610f39565b610d6a600033610b9e565b1580610d8b5750610d89600080516020611d5d83398151915233610b9e565b155b15610dab576040516366ea5d8760e01b8152336004820152602401610966565b6109aa600080516020611d3d83398151915282610de7565b6001600160a01b038116600090815260208190526040812054610869906000610ef2565b600082815260056020526040902060010154610e028161102d565b610a2f83836110cb565b6001600160a01b038116600090815260208190526040812054610869565b610e35600033610b9e565b1580610e565750610e54600080516020611d5d83398151915233610b9e565b155b15610e76576040516366ea5d8760e01b8152336004820152602401610966565b6109aa600080516020611d5d83398151915282610a0a565b610e99600033610b9e565b1580610eba5750610eb8600080516020611d5d83398151915233610b9e565b155b15610eda576040516366ea5d8760e01b8152336004820152602401610966565b6109aa600080516020611d5d83398151915282610de7565b60006109cc610eff6107a8565b610f0a906001611b65565b610f166000600a611c93565b600254610f239190611b65565b859190856112ef565b610acd838383600161133e565b60006109cc610f4982600a611c93565b600254610f569190611b65565b610f5e6107a8565b610f23906001611b65565b6001600160a01b038381166000908152600160209081526040808320938616835292905220546000198114610a2f5781811015610fbf57828183604051637dc7a0d960e11b815260040161096693929190611b78565b610a2f8484848403600061133e565b6001600160a01b038316610ff857604051634b637e8f60e11b815260006004820152602401610966565b6001600160a01b0382166110225760405163ec442f0560e01b815260006004820152602401610966565b610acd838383611405565b6109aa813361151c565b60006110438383610b9e565b6110c35760008381526005602090815260408083206001600160a01b03861684529091529020805460ff1916600117905561107b3390565b6001600160a01b0316826001600160a01b0316847f2f8788117e7eff1d82e926ec794901d17c78024a50270940304540a733656f0d60405160405180910390a4506001610869565b506000610869565b60006110d78383610b9e565b156110c35760008381526005602090815260408083206001600160a01b0386168085529252808320805460ff1916905551339286917ff6391f5c32d9c69d2a47ea670b442974b53935d1edc7fd64eb21e047a839171b9190a4506001610869565b6000600019600061114885610d52565b9050610be7338587845b61117e7f0000000000000000000000000000000000000000000000000000000000000000853085611555565b61118883826115bc565b826001600160a01b0316846001600160a01b03167fdcbc1c05240f31ff3ad067ef1ee35ce4997762752e3a095284754544f4c709d784846040516111d6929190918252602082015260400190565b60405180910390a350505050565b6000806111f083610dc3565b90508085111561121957828582604051633fa733bb60e21b815260040161096693929190611b78565b600061122486610926565b9050610d1433868689855b826001600160a01b0316856001600160a01b03161461125357611253838683610f69565b61125d83826115f2565b6112887f00000000000000000000000000000000000000000000000000000000000000008584611628565b826001600160a01b0316846001600160a01b0316866001600160a01b03167ffbde797d201c681b91056529119e0b02407c7bb96a4a2c75c01fc9667232c8db85856040516112e0929190918252602082015260400190565b60405180910390a45050505050565b6000806112fd868686611659565b90506113088361171d565b801561132457506000848061131f5761131f611ca2565b868809115b15610d1457611334600182611b65565b9695505050505050565b6001600160a01b0384166113685760405163e602df0560e01b815260006004820152602401610966565b6001600160a01b03831661139257604051634a1406b160e11b815260006004820152602401610966565b6001600160a01b0380851660009081526001602090815260408083209387168352929052208290558015610a2f57826001600160a01b0316846001600160a01b03167f8c5be1e5ebec7d5bd14f71427d1e84f3dd0314c0f7b2291e5b200ac8c7c3b925846040516111d691815260200190565b6001600160a01b0383166114305780600260008282546114259190611b65565b9091555061148f9050565b6001600160a01b038316600090815260208190526040902054818110156114705783818360405163391434e360e21b815260040161096693929190611b78565b6001600160a01b03841660009081526020819052604090209082900390555b6001600160a01b0382166114ab576002805482900390556114ca565b6001600160a01b03821660009081526020819052604090208054820190555b816001600160a01b0316836001600160a01b03167fddf252ad1be2c89b69c2b068fc378daa952ba7f163c4a11628f55a4df523b3ef8360405161150f91815260200190565b60405180910390a3505050565b6115268282610b9e565b61096f5760405163e2517d3f60e01b81526001600160a01b038216600482015260248101839052604401610966565b6040516001600160a01b038481166024830152838116604483015260648201839052610a2f9186918216906323b872dd906084015b604051602081830303815290604052915060e01b6020820180516001600160e01b03838183161783525050505061174a565b6001600160a01b0382166115e65760405163ec442f0560e01b815260006004820152602401610966565b61096f60008383611405565b6001600160a01b03821661161c57604051634b637e8f60e11b815260006004820152602401610966565b61096f82600083611405565b6040516001600160a01b03838116602483015260448201839052610acd91859182169063a9059cbb9060640161158a565b60008383028160001985870982811083820303915050806000036116905783828161168657611686611ca2565b04925050506109cc565b8084116116b05760405163227bc15360e01b815260040160405180910390fd5b6000848688096000868103871696879004966002600389028118808a02820302808a02820302808a02820302808a02820302808a02820302808a02909103029181900381900460010186841190950394909402919094039290920491909117919091029150509392505050565b6000600282600381111561173357611733611cb8565b61173d9190611cce565b60ff166001149050919050565b600061175f6001600160a01b038416836117ad565b905080516000141580156117845750808060200190518101906117829190611cfe565b155b15610acd57604051635274afe760e01b81526001600160a01b0384166004820152602401610966565b60606109cc8383600084600080856001600160a01b031684866040516117d39190611d20565b60006040518083038185875af1925050503d8060008114611810576040519150601f19603f3d011682016040523d82523d6000602084013e611815565b606091505b5091509150611334868383606082611835576118308261187c565b6109cc565b815115801561184c57506001600160a01b0384163b155b1561187557604051639996b31560e01b81526001600160a01b0385166004820152602401610966565b50806109cc565b80511561188c5780518082602001fd5b604051630a12f52160e11b815260040160405180910390fd5b6000602082840312156118b757600080fd5b81356001600160e01b0319811681146109cc57600080fd5b60005b838110156118ea5781810151838201526020016118d2565b50506000910152565b60208152600082518060208401526119128160408501602087016118cf565b601f01601f19169190910160400192915050565b60006020828403121561193857600080fd5b5035919050565b80356001600160a01b038116811461195657600080fd5b919050565b6000806040838503121561196e57600080fd5b6119778361193f565b946020939093013593505050565b6000806020838503121561199857600080fd5b823567ffffffffffffffff8111156119af57600080fd5b8301601f810185136119c057600080fd5b803567ffffffffffffffff8111156119d757600080fd5b8560208284010111156119e957600080fd5b6020919091019590945092505050565b600080600060608486031215611a0e57600080fd5b611a178461193f565b9250611a256020850161193f565b929592945050506040919091013590565b60008060408385031215611a4957600080fd5b82359150611a596020840161193f565b90509250929050565b600060208284031215611a7457600080fd5b6109cc8261193f565b600080600060608486031215611a9257600080fd5b83359250611aa26020850161193f565b9150611ab06040850161193f565b90509250925092565b60008060408385031215611acc57600080fd5b611ad58361193f565b9150611a596020840161193f565b600060208284031215611af557600080fd5b5051919050565b600181811c90821680611b1057607f821691505b602082108103611b3057634e487b7160e01b600052602260045260246000fd5b50919050565b634e487b7160e01b600052601160045260246000fd5b60ff818116838216019081111561086957610869611b36565b8082018082111561086957610869611b36565b6001600160a01b039390931683526020830191909152604082015260600190565b8181038181111561086957610869611b36565b6001815b6001841115611be757808504811115611bcb57611bcb611b36565b6001841615611bd957908102905b60019390931c928002611bb0565b935093915050565b600082611bfe57506001610869565b81611c0b57506000610869565b8160018114611c215760028114611c2b57611c47565b6001915050610869565b60ff841115611c3c57611c3c611b36565b50506001821b610869565b5060208310610133831016604e8410600b8410161715611c6a575081810a610869565b611c776000198484611bac565b8060001904821115611c8b57611c8b611b36565b029392505050565b60006109cc60ff841683611bef565b634e487b7160e01b600052601260045260246000fd5b634e487b7160e01b600052602160045260246000fd5b600060ff831680611cef57634e487b7160e01b600052601260045260246000fd5b8060ff84160691505092915050565b600060208284031215611d1057600080fd5b815180151581146109cc57600080fd5b60008251611d328184602087016118cf565b919091019291505056fefc8737ab85eb45125971625a9ebdb75cc78e01d5c1fa80c4c6e5203f47bc4fab7935bd0ae54bc31f548c14dba4d37c5c64b3f8ca900cb468fb8abd54d5894f55a2646970667358221220545f4e1bce55225749d40fb18e7b1438e72abfb4cbfef85361ab0bdfc1814ce864736f6c634300081a0033","linkReferences":{}},"methodIdentifiers":{"DEFAULT_ADMIN_ROLE()":"a217fddf","GOVERNOR_ROLE()":"ccc57490","KEEPER_ROLE()":"364bc15a","addArk(address,uint256)":"c7be7258","allowance(address,address)":"dd62ed3e","approve(address,uint256)":"095ea7b3","arks(address)":"88b21872","asset()":"38d52e0f","balanceOf(address)":"70a08231","commitFundsQueue(bytes)":"bf4d8bbc","convertToAssets(uint256)":"07a2d13a","convertToShares(uint256)":"c6e6f592","decimals()":"313ce567","deposit(uint256,address)":"6e553f65","emergencyShutdown()":"3403c2fc","forceRebalance(bytes)":"0d79aac0","forceWithdraw(uint256,address,address)":"7943fdc2","fundsQueueBalance()":"f71b395b","getRoleAdmin(bytes32)":"248a9ca3","grantAdminRole(address)":"c634b78e","grantGovernorRole(address)":"e4dd1dca","grantKeeperRole(address)":"4106d274","grantRole(bytes32,address)":"2f2ff15d","hasRole(bytes32,address)":"91d14854","lastRebalanceTime()":"d9ca21d5","maxDeposit(address)":"402d267d","maxMint(address)":"c63d75b6","maxRedeem(address)":"d905777e","maxWithdraw(address)":"ce96cb77","minFundsQueueBalance()":"4f644d19","mint(uint256,address)":"94bf804d","mintSharesAsFees()":"952f1483","name()":"06fdde03","previewDeposit(uint256)":"ef8b30f7","previewMint(uint256)":"b3d7f6b9","previewRedeem(uint256)":"4cdad506","previewWithdraw(uint256)":"0a28a477","rebalance(bytes)":"b269add3","rebalanceCooldown()":"b3de272d","redeem(uint256,address,address)":"ba087652","refillFundsQueue(bytes)":"2b3c8bf3","renounceRole(bytes32,address)":"36568abe","revokeAdminRole(address)":"9a19c7b0","revokeGovernorRole(address)":"fb914c39","revokeKeeperRole(address)":"cc1f071a","revokeRole(bytes32,address)":"d547741f","setDepositCap(uint256)":"86651203","setFeeAddress(address)":"8705fcd4","setMinFundsQueueBalance(uint256)":"18ff34a7","supportsInterface(bytes4)":"01ffc9a7","symbol()":"95d89b41","totalAssets()":"01e1d114","totalSupply()":"18160ddd","transfer(address,uint256)":"a9059cbb","transferFrom(address,address,uint256)":"23b872dd","updateRebalanceCooldown(uint256)":"dc9de0a8","withdraw(uint256,address,address)":"b460af94"},"id":42}