{"abi":[{"type":"constructor","inputs":[{"name":"_litePsm","type":"address","internalType":"address"},{"name":"_usds","type":"address","internalType":"address"},{"name":"_stakedUsds","type":"address","internalType":"address"},{"name":"_params","type":"tuple","internalType":"struct ArkParams","components":[{"name":"name","type":"string","internalType":"string"},{"name":"details","type":"string","internalType":"string"},{"name":"accessManager","type":"address","internalType":"address"},{"name":"configurationManager","type":"address","internalType":"address"},{"name":"asset","type":"address","internalType":"address"},{"name":"depositCap","type":"uint256","internalType":"uint256"},{"name":"maxRebalanceOutflow","type":"uint256","internalType":"uint256"},{"name":"maxRebalanceInflow","type":"uint256","internalType":"uint256"},{"name":"requiresKeeperData","type":"bool","internalType":"bool"},{"name":"maxDepositPercentageOfTVL","type":"uint256","internalType":"Percentage"}]}],"stateMutability":"nonpayable"},{"type":"function","name":"TO_18_DECIMALS_CONVERSION_FACTOR","inputs":[],"outputs":[{"name":"","type":"uint256","internalType":"uint256"}],"stateMutability":"view"},{"type":"function","name":"asset","inputs":[],"outputs":[{"name":"","type":"address","internalType":"contract IERC20"}],"stateMutability":"view"},{"type":"function","name":"board","inputs":[{"name":"amount","type":"uint256","internalType":"uint256"},{"name":"boardData","type":"bytes","internalType":"bytes"}],"outputs":[],"stateMutability":"nonpayable"},{"type":"function","name":"commander","inputs":[],"outputs":[{"name":"","type":"address","internalType":"address"}],"stateMutability":"view"},{"type":"function","name":"config","inputs":[],"outputs":[{"name":"commander","type":"address","internalType":"address"},{"name":"raft","type":"address","internalType":"address"},{"name":"asset","type":"address","internalType":"contract IERC20"},{"name":"depositCap","type":"uint256","internalType":"uint256"},{"name":"maxRebalanceOutflow","type":"uint256","internalType":"uint256"},{"name":"maxRebalanceInflow","type":"uint256","internalType":"uint256"},{"name":"name","type":"string","internalType":"string"},{"name":"details","type":"string","internalType":"string"},{"name":"requiresKeeperData","type":"bool","internalType":"bool"},{"name":"maxDepositPercentageOfTVL","type":"uint256","internalType":"Percentage"}],"stateMutability":"view"},{"type":"function","name":"configurationManager","inputs":[],"outputs":[{"name":"","type":"address","internalType":"contract IConfigurationManager"}],"stateMutability":"view"},{"type":"function","name":"depositCap","inputs":[],"outputs":[{"name":"","type":"uint256","internalType":"uint256"}],"stateMutability":"view"},{"type":"function","name":"disembark","inputs":[{"name":"amount","type":"uint256","internalType":"uint256"},{"name":"disembarkData","type":"bytes","internalType":"bytes"}],"outputs":[],"stateMutability":"nonpayable"},{"type":"function","name":"fleetCommanderRewardsManagerFactory","inputs":[],"outputs":[{"name":"","type":"address","internalType":"address"}],"stateMutability":"view"},{"type":"function","name":"generateRole","inputs":[{"name":"roleName","type":"uint8","internalType":"enum ContractSpecificRoles"},{"name":"roleTargetContract","type":"address","internalType":"address"}],"outputs":[{"name":"","type":"bytes32","internalType":"bytes32"}],"stateMutability":"pure"},{"type":"function","name":"getConfig","inputs":[],"outputs":[{"name":"","type":"tuple","internalType":"struct ArkConfig","components":[{"name":"commander","type":"address","internalType":"address"},{"name":"raft","type":"address","internalType":"address"},{"name":"asset","type":"address","internalType":"contract IERC20"},{"name":"depositCap","type":"uint256","internalType":"uint256"},{"name":"maxRebalanceOutflow","type":"uint256","internalType":"uint256"},{"name":"maxRebalanceInflow","type":"uint256","internalType":"uint256"},{"name":"name","type":"string","internalType":"string"},{"name":"details","type":"string","internalType":"string"},{"name":"requiresKeeperData","type":"bool","internalType":"bool"},{"name":"maxDepositPercentageOfTVL","type":"uint256","internalType":"Percentage"}]}],"stateMutability":"view"},{"type":"function","name":"harborCommand","inputs":[],"outputs":[{"name":"","type":"address","internalType":"address"}],"stateMutability":"view"},{"type":"function","name":"harvest","inputs":[{"name":"additionalData","type":"bytes","internalType":"bytes"}],"outputs":[{"name":"rewardTokens","type":"address[]","internalType":"address[]"},{"name":"rewardAmounts","type":"uint256[]","internalType":"uint256[]"}],"stateMutability":"nonpayable"},{"type":"function","name":"hasAdmiralsQuartersRole","inputs":[{"name":"account","type":"address","internalType":"address"}],"outputs":[{"name":"","type":"bool","internalType":"bool"}],"stateMutability":"view"},{"type":"function","name":"litePsm","inputs":[],"outputs":[{"name":"","type":"address","internalType":"contract ILitePSM"}],"stateMutability":"view"},{"type":"function","name":"maxDepositPercentageOfTVL","inputs":[],"outputs":[{"name":"","type":"uint256","internalType":"Percentage"}],"stateMutability":"view"},{"type":"function","name":"maxRebalanceInflow","inputs":[],"outputs":[{"name":"","type":"uint256","internalType":"uint256"}],"stateMutability":"view"},{"type":"function","name":"maxRebalanceOutflow","inputs":[],"outputs":[{"name":"","type":"uint256","internalType":"uint256"}],"stateMutability":"view"},{"type":"function","name":"move","inputs":[{"name":"amount","type":"uint256","internalType":"uint256"},{"name":"receiverArk","type":"address","internalType":"address"},{"name":"boardData","type":"bytes","internalType":"bytes"},{"name":"disembarkData","type":"bytes","internalType":"bytes"}],"outputs":[],"stateMutability":"nonpayable"},{"type":"function","name":"name","inputs":[],"outputs":[{"name":"","type":"string","internalType":"string"}],"stateMutability":"view"},{"type":"function","name":"raft","inputs":[],"outputs":[{"name":"","type":"address","internalType":"address"}],"stateMutability":"view"},{"type":"function","name":"registerFleetCommander","inputs":[],"outputs":[],"stateMutability":"nonpayable"},{"type":"function","name":"requiresKeeperData","inputs":[],"outputs":[{"name":"","type":"bool","internalType":"bool"}],"stateMutability":"view"},{"type":"function","name":"setDepositCap","inputs":[{"name":"newDepositCap","type":"uint256","internalType":"uint256"}],"outputs":[],"stateMutability":"nonpayable"},{"type":"function","name":"setMaxDepositPercentageOfTVL","inputs":[{"name":"newMaxDepositPercentageOfTVL","type":"uint256","internalType":"Percentage"}],"outputs":[],"stateMutability":"nonpayable"},{"type":"function","name":"setMaxRebalanceInflow","inputs":[{"name":"newMaxRebalanceInflow","type":"uint256","internalType":"uint256"}],"outputs":[],"stateMutability":"nonpayable"},{"type":"function","name":"setMaxRebalanceOutflow","inputs":[{"name":"newMaxRebalanceOutflow","type":"uint256","internalType":"uint256"}],"outputs":[],"stateMutability":"nonpayable"},{"type":"function","name":"stakedUsds","inputs":[],"outputs":[{"name":"","type":"address","internalType":"contract IERC4626"}],"stateMutability":"view"},{"type":"function","name":"sweep","inputs":[{"name":"tokens","type":"address[]","internalType":"address[]"}],"outputs":[{"name":"sweptTokens","type":"address[]","internalType":"address[]"},{"name":"sweptAmounts","type":"uint256[]","internalType":"uint256[]"}],"stateMutability":"nonpayable"},{"type":"function","name":"tipJar","inputs":[],"outputs":[{"name":"","type":"address","internalType":"address"}],"stateMutability":"view"},{"type":"function","name":"totalAssets","inputs":[],"outputs":[{"name":"","type":"uint256","internalType":"uint256"}],"stateMutability":"view"},{"type":"function","name":"treasury","inputs":[],"outputs":[{"name":"","type":"address","internalType":"address"}],"stateMutability":"view"},{"type":"function","name":"unregisterFleetCommander","inputs":[],"outputs":[],"stateMutability":"nonpayable"},{"type":"function","name":"usds","inputs":[],"outputs":[{"name":"","type":"address","internalType":"contract IERC20"}],"stateMutability":"view"},{"type":"event","name":"ArkHarvested","inputs":[{"name":"rewardTokens","type":"address[]","indexed":true,"internalType":"address[]"},{"name":"rewardAmounts","type":"uint256[]","indexed":true,"internalType":"uint256[]"}],"anonymous":false},{"type":"event","name":"ArkPoked","inputs":[{"name":"currentPrice","type":"uint256","indexed":false,"internalType":"uint256"},{"name":"timestamp","type":"uint256","indexed":false,"internalType":"uint256"}],"anonymous":false},{"type":"event","name":"ArkSwept","inputs":[{"name":"sweptTokens","type":"address[]","indexed":true,"internalType":"address[]"},{"name":"sweptAmounts","type":"uint256[]","indexed":true,"internalType":"uint256[]"}],"anonymous":false},{"type":"event","name":"Boarded","inputs":[{"name":"commander","type":"address","indexed":true,"internalType":"address"},{"name":"token","type":"address","indexed":false,"internalType":"address"},{"name":"amount","type":"uint256","indexed":false,"internalType":"uint256"}],"anonymous":false},{"type":"event","name":"DepositCapUpdated","inputs":[{"name":"newCap","type":"uint256","indexed":false,"internalType":"uint256"}],"anonymous":false},{"type":"event","name":"Disembarked","inputs":[{"name":"commander","type":"address","indexed":true,"internalType":"address"},{"name":"token","type":"address","indexed":false,"internalType":"address"},{"name":"amount","type":"uint256","indexed":false,"internalType":"uint256"}],"anonymous":false},{"type":"event","name":"FleetCommanderRegistered","inputs":[{"name":"commander","type":"address","indexed":false,"internalType":"address"}],"anonymous":false},{"type":"event","name":"FleetCommanderUnregistered","inputs":[{"name":"commander","type":"address","indexed":false,"internalType":"address"}],"anonymous":false},{"type":"event","name":"MaxDepositPercentageOfTVLUpdated","inputs":[{"name":"newMaxDepositPercentageOfTVL","type":"uint256","indexed":false,"internalType":"Percentage"}],"anonymous":false},{"type":"event","name":"MaxRebalanceInflowUpdated","inputs":[{"name":"newMaxInflow","type":"uint256","indexed":false,"internalType":"uint256"}],"anonymous":false},{"type":"event","name":"MaxRebalanceOutflowUpdated","inputs":[{"name":"newMaxOutflow","type":"uint256","indexed":false,"internalType":"uint256"}],"anonymous":false},{"type":"event","name":"Moved","inputs":[{"name":"from","type":"address","indexed":true,"internalType":"address"},{"name":"to","type":"address","indexed":true,"internalType":"address"},{"name":"token","type":"address","indexed":false,"internalType":"address"},{"name":"amount","type":"uint256","indexed":false,"internalType":"uint256"}],"anonymous":false},{"type":"event","name":"RaftUpdated","inputs":[{"name":"newRaft","type":"address","indexed":false,"internalType":"address"}],"anonymous":false},{"type":"error","name":"CallerIsNotAdmin","inputs":[{"name":"caller","type":"address","internalType":"address"}]},{"type":"error","name":"CallerIsNotAuthorizedToBoard","inputs":[{"name":"caller","type":"address","internalType":"address"}]},{"type":"error","name":"CallerIsNotCommander","inputs":[{"name":"caller","type":"address","internalType":"address"}]},{"type":"error","name":"CallerIsNotContractSpecificRole","inputs":[{"name":"caller","type":"address","internalType":"address"},{"name":"role","type":"bytes32","internalType":"bytes32"}]},{"type":"error","name":"CallerIsNotCurator","inputs":[{"name":"caller","type":"address","internalType":"address"}]},{"type":"error","name":"CallerIsNotDecayController","inputs":[{"name":"caller","type":"address","internalType":"address"}]},{"type":"error","name":"CallerIsNotGovernor","inputs":[{"name":"caller","type":"address","internalType":"address"}]},{"type":"error","name":"CallerIsNotGuardian","inputs":[{"name":"caller","type":"address","internalType":"address"}]},{"type":"error","name":"CallerIsNotGuardianOrGovernor","inputs":[{"name":"caller","type":"address","internalType":"address"}]},{"type":"error","name":"CallerIsNotKeeper","inputs":[{"name":"caller","type":"address","internalType":"address"}]},{"type":"error","name":"CallerIsNotRaft","inputs":[{"name":"caller","type":"address","internalType":"address"}]},{"type":"error","name":"CallerIsNotRaftOrCommander","inputs":[{"name":"caller","type":"address","internalType":"address"}]},{"type":"error","name":"CallerIsNotSuperKeeper","inputs":[{"name":"caller","type":"address","internalType":"address"}]},{"type":"error","name":"CannotAddCommanderToArkWithCommander","inputs":[]},{"type":"error","name":"CannotDeployArkWithEmptyName","inputs":[]},{"type":"error","name":"CannotDeployArkWithoutConfigurationManager","inputs":[]},{"type":"error","name":"CannotDeployArkWithoutRaft","inputs":[]},{"type":"error","name":"CannotDeployArkWithoutToken","inputs":[]},{"type":"error","name":"CannotRemoveCommanderFromArkWithAssets","inputs":[]},{"type":"error","name":"CannotUseKeeperDataWhenNotRequired","inputs":[]},{"type":"error","name":"ConfigurationManagerZeroAddress","inputs":[]},{"type":"error","name":"DirectGrantIsDisabled","inputs":[{"name":"caller","type":"address","internalType":"address"}]},{"type":"error","name":"DirectRevokeIsDisabled","inputs":[{"name":"caller","type":"address","internalType":"address"}]},{"type":"error","name":"ERC4626AssetMismatch","inputs":[]},{"type":"error","name":"InvalidAccessManagerAddress","inputs":[{"name":"invalidAddress","type":"address","internalType":"address"}]},{"type":"error","name":"InvalidBoardData","inputs":[]},{"type":"error","name":"InvalidDisembarkData","inputs":[]},{"type":"error","name":"InvalidVaultAddress","inputs":[]},{"type":"error","name":"KeeperDataRequired","inputs":[]},{"type":"error","name":"ReentrancyGuardReentrantCall","inputs":[]},{"type":"error","name":"SafeERC20FailedOperation","inputs":[{"name":"token","type":"address","internalType":"address"}]}],"bytecode":{"object":"0x610120604052348015610010575f5ffd5b5060405161312438038061312483398101604081905261002f916104fe565b6060810151604082015182918291806001600160a01b03811661006c576040516347bd7c1d60e01b81525f60048201526024015b60405180910390fd5b6040516301ffc9a760e01b81526338c7ccdb60e01b60048201526001600160a01b038216906301ffc9a790602401602060405180830381865afa1580156100b5573d5f5f3e3d5ffd5b505050506040513d601f19601f820116820180604052508101906100d99190610636565b610101576040516347bd7c1d60e01b81526001600160a01b0382166004820152602401610063565b5f80546001600160a01b0319166001600160a01b039283161790558216905061013d5760405163f1634df960e01b815260040160405180910390fd5b6001600160a01b0390811660805260608201511661016e5760405163b53c493160e01b815260040160405180910390fd5b60808101516001600160a01b031661019c576040516001620a810f60e11b0319815260040160405180910390fd5b8051515f036101be5760405163268c072960e01b815260040160405180910390fd5b5f6101c76103a6565b6001600160a01b0316036101ee57604051633a4f9cdb60e21b815260040160405180910390fd5b6040805161014081019091525f8152602081016102096103a6565b6001600160a01b039081168252608080850151821660208085019190915260a08087015160408087019190915260c08089015160608089019190915260e0808b0151878a01528a51858a01528a860151838a0152610100808c01511515918a01919091526101208b01519801979097528751600180549188166001600160a01b031992831617815594890151600280549189169183169190911790559188015160038054919097169216919091179094559385015160045590840151600555918301516006558201516007906102df90826106da565b5060e082015160078201906102f490826106da565b5061010082015160088201805460ff19169115159190911790556101209091015160099091015550506001600160a01b03841660c081905260408051634010f77760e01b81529051634010f777916004808201926020929091908290030181865afa158015610365573d5f5f3e3d5ffd5b505050506040513d601f19601f820116820180604052508101906103899190610794565b60a052506001600160a01b0391821660e0521661010052506107c4565b5f6080516001600160a01b031663117d8ae06040518163ffffffff1660e01b8152600401602060405180830381865afa1580156103e5573d5f5f3e3d5ffd5b505050506040513d601f19601f8201168201806040525081019061040991906107ab565b905090565b80516001600160a01b0381168114610424575f5ffd5b919050565b634e487b7160e01b5f52604160045260245ffd5b60405161014081016001600160401b038111828210171561046057610460610429565b60405290565b5f82601f830112610475575f5ffd5b81516001600160401b0381111561048e5761048e610429565b604051601f8201601f19908116603f011681016001600160401b03811182821017156104bc576104bc610429565b6040528181528382016020018510156104d3575f5ffd5b8160208501602083015e5f918101602001919091529392505050565b80518015158114610424575f5ffd5b5f5f5f5f60808587031215610511575f5ffd5b61051a8561040e565b93506105286020860161040e565b92506105366040860161040e565b60608601519092506001600160401b03811115610551575f5ffd5b85016101408188031215610563575f5ffd5b61056b61043d565b81516001600160401b03811115610580575f5ffd5b61058c89828501610466565b82525060208201516001600160401b038111156105a7575f5ffd5b6105b389828501610466565b6020830152506105c56040830161040e565b60408201526105d66060830161040e565b60608201526105e76080830161040e565b608082015260a0828101519082015260c0808301519082015260e0808301519082015261061761010083016104ef565b6101008201526101209182015191810191909152939692955090935050565b5f60208284031215610646575f5ffd5b61064f826104ef565b9392505050565b600181811c9082168061066a57607f821691505b60208210810361068857634e487b7160e01b5f52602260045260245ffd5b50919050565b601f8211156106d557805f5260205f20601f840160051c810160208510156106b35750805b601f840160051c820191505b818110156106d2575f81556001016106bf565b50505b505050565b81516001600160401b038111156106f3576106f3610429565b610707816107018454610656565b8461068e565b6020601f821160018114610739575f83156107225750848201515b5f19600385901b1c1916600184901b1784556106d2565b5f84815260208120601f198516915b828110156107685787850151825560209485019460019092019101610748565b508482101561078557868401515f19600387901b60f8161c191681555b50505050600190811b01905550565b5f602082840312156107a4575f5ffd5b5051919050565b5f602082840312156107bb575f5ffd5b61064f8261040e565b60805160a05160c05160e051610100516128ac6108785f395f818161048f015281816104f201528181611a9301528181611e750152611efc01525f81816102bf01528181611b1d0152611e4801525f818161032f01528181611b4a01528181611bcc01528181611d330152611db701525f81816103b8015281816104c80152611a4801525f818161042a01528181610600015281816109b001528181610a0d015281816111d1015261188e01526128ac5ff3fe608060405234801561000f575f5ffd5b50600436106101fd575f3560e01c806379502c5511610114578063c38a6f0b116100a9578063dbd5edc711610079578063dbd5edc71461045f578063ebc136d014610467578063ebf311311461047a578063f7e533ec14610482578063fc4e84591461048a575f5ffd5b8063c38a6f0b146103fd578063c3f909d414610410578063c9c667e314610425578063ce5c7f611461044c575f5ffd5b80638ef47be6116100e45780638ef47be6146103b357806392f5e832146103da578063ad5a356f146103ed578063bdcdd882146103f5575f5ffd5b806379502c55146103725780637aaceb951461039057806386651203146103985780638a8b9976146103ab575f5ffd5b806338d52e0f1161019557806361d027b31161016557806361d027b3146102fc57806361f5cd8b1461030457806369b3054b146103175780636c88ec691461032a578063780469bb14610351575f5ffd5b806338d52e0f146102a95780634cf282fb146102ba5780634fc7fac3146102e15780635b0f83f3146102f4575f5ffd5b80632db6d399116101d05780632db6d39914610266578063303dbaf3146102795780633194549e146102905780633727093614610298575f5ffd5b806301e1d1141461020157806306fdde031461021c578063117d8ae01461023157806313c408f814610251575b5f5ffd5b6102096104b1565b6040519081526020015b60405180910390f35b61022461056a565b604051610213919061214b565b6102396105fd565b6040516001600160a01b039091168152602001610213565b61026461025f3660046121a2565b61067e565b005b6102646102743660046121a2565b610748565b60095460ff165b6040519015158152602001610213565b600554610209565b6001546001600160a01b0316610239565b6003546001600160a01b0316610239565b6102397f000000000000000000000000000000000000000000000000000000000000000081565b6102646102ef3660046121ea565b61095f565b6102396109ad565b610239610a0a565b6102646103123660046121ea565b610a67565b610209610325366004612218565b610aae565b6102397f000000000000000000000000000000000000000000000000000000000000000081565b61036461035f366004612297565b610ae1565b60405161021392919061234b565b61037a611077565b6040516102139a999897969594939291906123d4565b6102396111ce565b6102646103a63660046121ea565b61122b565b610264611272565b6102097f000000000000000000000000000000000000000000000000000000000000000081565b6102646103e83660046121ea565b6112cf565b600654610209565b600a54610209565b61026461040b36600461244b565b611316565b610418611465565b60405161021391906124d6565b6102397f000000000000000000000000000000000000000000000000000000000000000081565b61036461045a3660046125a7565b61165e565b600454610209565b6102806104753660046125e6565b611758565b610264611839565b61023961188b565b6102397f000000000000000000000000000000000000000000000000000000000000000081565b60405163ce96cb7760e01b81523060048201525f907f0000000000000000000000000000000000000000000000000000000000000000906001600160a01b037f0000000000000000000000000000000000000000000000000000000000000000169063ce96cb7790602401602060405180830381865afa158015610537573d5f5f3e3d5ffd5b505050506040513d601f19601f8201168201806040525081019061055b9190612601565b6105659190612618565b905090565b60606001600601805461057c90612637565b80601f01602080910402602001604051908101604052809291908181526020018280546105a890612637565b80156105f35780601f106105ca576101008083540402835291602001916105f3565b820191905f5260205f20905b8154815290600101906020018083116105d657829003601f168201915b5050505050905090565b5f7f00000000000000000000000000000000000000000000000000000000000000006001600160a01b031663117d8ae06040518163ffffffff1660e01b8152600401602060405180830381865afa15801561065a573d5f5f3e3d5ffd5b505050506040513d601f19601f82011682018060405250810190610565919061266f565b6106866118e8565b6106b657335b604051631564c0e160e11b81526001600160a01b0390911660048201526024015b60405180910390fd5b6106be611971565b81816106ca82826119e0565b336106d6868686611a42565b6003546106ed906001600160a01b03168288611c4a565b6003546040516001600160a01b03838116927fd5e872c5ecfb1bb8820b2e6a20e31b883682282da886621541f71e31ec11947e9261073092909116908a9061268a565b60405180910390a2505050610743611ca2565b505050565b610750611971565b306001600160a01b031663372709366040518163ffffffff1660e01b8152600401602060405180830381865afa15801561078c573d5f5f3e3d5ffd5b505050506040513d601f19601f820116820180604052508101906107b0919061266f565b6107b86118e8565b6108d7575f3390505f306001600160a01b031663117d8ae06040518163ffffffff1660e01b8152600401602060405180830381865afa1580156107fd573d5f5f3e3d5ffd5b505050506040513d601f19601f82011682018060405250810190610821919061266f565b6001600160a01b0316826001600160a01b0316149050806108d45760405163d25dd10160e01b81526001600160a01b0383811660048301525f919085169063d25dd10190602401602060405180830381865afa158015610883573d5f5f3e3d5ffd5b505050506040513d601f19601f820116820180604052508101906108a791906126a3565b9050806108d257604051638f7a567d60e01b81526001600160a01b03841660048201526024016106ad565b505b50505b82826108e382826119e0565b60035433906108fd906001600160a01b031682308a611ccc565b610908878787611d0b565b6003546040516001600160a01b03838116927fcbaa1442ac205415c9d69643e7b60ec73d1de35dbc807c21ec288c70ddc4207b9261094b92909116908b9061268a565b60405180910390a250505050610743611ca2565b6109676118e8565b610971573361068c565b600a8190556040518181527fd3c6d0ab315f2f1352f036cd9f401b49e38e1b90907e195225e8105f9a0b6f02906020015b60405180910390a150565b5f7f00000000000000000000000000000000000000000000000000000000000000006001600160a01b0316635b0f83f36040518163ffffffff1660e01b8152600401602060405180830381865afa15801561065a573d5f5f3e3d5ffd5b5f7f00000000000000000000000000000000000000000000000000000000000000006001600160a01b03166361d027b36040518163ffffffff1660e01b8152600401602060405180830381865afa15801561065a573d5f5f3e3d5ffd5b610a6f6118e8565b610a79573361068c565b60058190556040518181527ffbe2d5c01ea8ba5596d6c4e6c82c6d4a0a0ee1128689993a4a5ba0169273d69f906020016109a2565b5f8282604051602001610ac29291906126c2565b6040516020818303038152906040528051906020012090505b92915050565b606080306001600160a01b031663117d8ae06040518163ffffffff1660e01b8152600401602060405180830381865afa158015610b20573d5f5f3e3d5ffd5b505050506040513d601f19601f82011682018060405250810190610b44919061266f565b6001600160a01b0316336001600160a01b031614610b8357335b604051631184b31b60e21b81526001600160a01b0390911660048201526024016106ad565b610b8b611971565b825167ffffffffffffffff811115610ba557610ba5612252565b604051908082528060200260200182016040528015610bce578160200160208202803683370190505b509150825167ffffffffffffffff811115610beb57610beb612252565b604051908082528060200260200182016040528015610c14578160200160208202803683370190505b506003546040516370a0823160e01b81523060048201529192505f916001600160a01b03909116906370a0823190602401602060405180830381865afa158015610c60573d5f5f3e3d5ffd5b505050506040513d601f19601f82011682018060405250810190610c849190612601565b1115610e4857600154604080516330fe427560e21b815290515f926001600160a01b03169163c3f909d49160048083019260a09291908290030181865afa158015610cd1573d5f5f3e3d5ffd5b505050506040513d601f19601f82011682018060405250810190610cf59190612705565b516003546040516370a0823160e01b8152306004820152919250610d7a9183916001600160a01b0316906370a0823190602401602060405180830381865afa158015610d43573d5f5f3e3d5ffd5b505050506040513d601f19601f82011682018060405250810190610d679190612601565b6003546001600160a01b03169190611f33565b6003546040516370a0823160e01b81523060048201526001600160a01b0383811692632db6d399929116906370a0823190602401602060405180830381865afa158015610dc9573d5f5f3e3d5ffd5b505050506040513d601f19601f82011682018060405250810190610ded9190612601565b60405180602001604052805f8152506040518363ffffffff1660e01b8152600401610e19929190612782565b5f604051808303815f87803b158015610e30575f5ffd5b505af1158015610e42573d5f5f3e3d5ffd5b50505050505b5f5b8351811015611016575f848281518110610e6657610e666127a2565b60209081029190910101516040516370a0823160e01b81523060048201526001600160a01b03909116906370a0823190602401602060405180830381865afa158015610eb4573d5f5f3e3d5ffd5b505050506040513d601f19601f82011682018060405250810190610ed89190612601565b9050801561100d57610fa1610eeb6105fd565b868481518110610efd57610efd6127a2565b60209081029190910101516040516370a0823160e01b81523060048201526001600160a01b03909116906370a0823190602401602060405180830381865afa158015610f4b573d5f5f3e3d5ffd5b505050506040513d601f19601f82011682018060405250810190610f6f9190612601565b878581518110610f8157610f816127a2565b60200260200101516001600160a01b0316611c4a9092919063ffffffff16565b848281518110610fb357610fb36127a2565b6020026020010151848381518110610fcd57610fcd6127a2565b60200260200101906001600160a01b031690816001600160a01b03168152505080838381518110611000576110006127a2565b6020026020010181815250505b50600101610e4a565b508060405161102591906127b6565b60405180910390208260405161103b91906127eb565b604051908190038120907f46b8771620f6acf56cb03d3e835ea8024c7dcbcf05fcc3f6ade9e19d1a3e212b905f90a3611072611ca2565b915091565b60018054600254600354600454600554600654600780546001600160a01b039788169896881697909516959394929391926110b190612637565b80601f01602080910402602001604051908101604052809291908181526020018280546110dd90612637565b80156111285780601f106110ff57610100808354040283529160200191611128565b820191905f5260205f20905b81548152906001019060200180831161110b57829003601f168201915b50505050509080600701805461113d90612637565b80601f016020809104026020016040519081016040528092919081815260200182805461116990612637565b80156111b45780601f1061118b576101008083540402835291602001916111b4565b820191905f5260205f20905b81548152906001019060200180831161119757829003601f168201915b505050506008830154600990930154919260ff169190508a565b5f7f00000000000000000000000000000000000000000000000000000000000000006001600160a01b0316637aaceb956040518163ffffffff1660e01b8152600401602060405180830381865afa15801561065a573d5f5f3e3d5ffd5b6112336118e8565b61123d573361068c565b60048190556040518181527f333b26cca69716ad4680ddb07663f5bfb4f06045671f336af9a83690a3ae00f9906020016109a2565b61127a6118e8565b611284573361068c565b600180546001600160a01b031916339081179091556040519081527f55489ce0259bd691120d8860861be1c401c7c16a3cd268d21045756af4ecc5ca906020015b60405180910390a1565b6112d76118e8565b6112e1573361068c565b60068190556040518181527fb6ac66853c4e59c71e118d25ab494bb847c4e5eb0c8894898c5343e6f61afc12906020016109a2565b61131e6118e8565b611328573361068c565b818161133482826119e0565b61133f888585611a42565b60035460405163095ea7b360e01b81526001600160a01b039091169063095ea7b390611371908a908c9060040161268a565b6020604051808303815f875af115801561138d573d5f5f3e3d5ffd5b505050506040513d601f19601f820116820180604052508101906113b191906126a3565b50604051632db6d39960e01b81526001600160a01b03881690632db6d399906113e2908b908a908a9060040161281e565b5f604051808303815f87803b1580156113f9575f5ffd5b505af115801561140b573d5f5f3e3d5ffd5b50506003546040516001600160a01b03808c1694503093507f9f784fc02a186f1c98b2d9f15fda084da27cdd291a3785d978f91911d880516b92611453929116908d9061268a565b60405180910390a35050505050505050565b6114d06040518061014001604052805f6001600160a01b031681526020015f6001600160a01b031681526020015f6001600160a01b031681526020015f81526020015f81526020015f815260200160608152602001606081526020015f151581526020015f81525090565b6040805161014081018252600180546001600160a01b0390811683526002548116602084015260035416928201929092526004546060820152600554608082015260065460a08201526007805491929160c08401919061152f90612637565b80601f016020809104026020016040519081016040528092919081815260200182805461155b90612637565b80156115a65780601f1061157d576101008083540402835291602001916115a6565b820191905f5260205f20905b81548152906001019060200180831161158957829003601f168201915b505050505081526020016007820180546115bf90612637565b80601f01602080910402602001604051908101604052809291908181526020018280546115eb90612637565b80156116365780601f1061160d57610100808354040283529160200191611636565b820191905f5260205f20905b81548152906001019060200180831161161957829003601f168201915b5050509183525050600882015460ff1615156020820152600990910154604090910152919050565b606080306001600160a01b031663117d8ae06040518163ffffffff1660e01b8152600401602060405180830381865afa15801561169d573d5f5f3e3d5ffd5b505050506040513d601f19601f820116820180604052508101906116c1919061266f565b6001600160a01b0316336001600160a01b0316146116df5733610b5e565b6116e7611971565b6116f18484611fc3565b60405191935091506117049082906127b6565b60405180910390208260405161171a91906127eb565b604051908190038120907f3e3e7958121b3e39c7a49392d1aa9cdce870c2a059744f9e15cf66fff7865455905f90a3611751611ca2565b9250929050565b5f80546040805163a89f38a360e01b815290516001600160a01b03909216916391d1485491839163a89f38a3916004808201926020929091908290030181865afa1580156117a8573d5f5f3e3d5ffd5b505050506040513d601f19601f820116820180604052508101906117cc9190612601565b6040516001600160e01b031960e084901b16815260048101919091526001600160a01b0385166024820152604401602060405180830381865afa158015611815573d5f5f3e3d5ffd5b505050506040513d601f19601f82011682018060405250810190610adb91906126a3565b6118416118e8565b61184b573361068c565b600180546001600160a01b03191690556040513381527f7cb941d7b1708e5b3bcd35ca960d6c6311188cec18886e5b67630552676b0487906020016112c5565b5f7f00000000000000000000000000000000000000000000000000000000000000006001600160a01b031663f7e533ec6040518163ffffffff1660e01b8152600401602060405180830381865afa15801561065a573d5f5f3e3d5ffd5b5f80546001600160a01b03166391d14854611904600230610aae565b336040516001600160e01b031960e085901b16815260048101929092526001600160a01b03166024820152604401602060405180830381865afa15801561194d573d5f5f3e3d5ffd5b505050506040513d601f19601f8201168201806040525081019061056591906126a3565b7f9b779b17422d0df92223018b32b4d1fa46e071723d6817e2486d003becc55f005c156119b157604051633ee5aeb560e01b815260040160405180910390fd5b6119de60017f9b779b17422d0df92223018b32b4d1fa46e071723d6817e2486d003becc55f005b90612061565b565b80158015906119f2575060095460ff16155b15611a1057604051630cd0fdf960e01b815260040160405180910390fd5b80158015611a20575060095460ff165b15611a3e5760405163332863a960e11b815260040160405180910390fd5b5050565b5f611a6d7f000000000000000000000000000000000000000000000000000000000000000085612853565b604051632d182be560e21b815260048101829052306024820181905260448201529091507f00000000000000000000000000000000000000000000000000000000000000006001600160a01b03169063b460af94906064016020604051808303815f875af1158015611ae1573d5f5f3e3d5ffd5b505050506040513d601f19601f82011682018060405250810190611b059190612601565b5060405163095ea7b360e01b81526001600160a01b037f0000000000000000000000000000000000000000000000000000000000000000169063095ea7b390611b74907f000000000000000000000000000000000000000000000000000000000000000090859060040161268a565b6020604051808303815f875af1158015611b90573d5f5f3e3d5ffd5b505050506040513d601f19601f82011682018060405250810190611bb491906126a3565b50604051638d7ef9bb60e01b81526001600160a01b037f00000000000000000000000000000000000000000000000000000000000000001690638d7ef9bb90611c03903090889060040161268a565b6020604051808303815f875af1158015611c1f573d5f5f3e3d5ffd5b505050506040513d601f19601f82011682018060405250810190611c439190612601565b5050505050565b61074383846001600160a01b031663a9059cbb8585604051602401611c7092919061268a565b604051602081830303815290604052915060e01b6020820180516001600160e01b038381831617835250505050612068565b6119de5f7f9b779b17422d0df92223018b32b4d1fa46e071723d6817e2486d003becc55f006119d8565b6040516001600160a01b038481166024830152838116604483015260648201839052611d059186918216906323b872dd90608401611c70565b50505050565b60035460405163095ea7b360e01b81526001600160a01b039091169063095ea7b390611d5d907f000000000000000000000000000000000000000000000000000000000000000090879060040161268a565b6020604051808303815f875af1158015611d79573d5f5f3e3d5ffd5b505050506040513d601f19601f82011682018060405250810190611d9d91906126a3565b50604051634acc893b60e11b81525f906001600160a01b037f00000000000000000000000000000000000000000000000000000000000000001690639599127690611dee903090889060040161268a565b6020604051808303815f875af1158015611e0a573d5f5f3e3d5ffd5b505050506040513d601f19601f82011682018060405250810190611e2e9190612601565b60405163095ea7b360e01b81529091506001600160a01b037f0000000000000000000000000000000000000000000000000000000000000000169063095ea7b390611e9f907f000000000000000000000000000000000000000000000000000000000000000090859060040161268a565b6020604051808303815f875af1158015611ebb573d5f5f3e3d5ffd5b505050506040513d601f19601f82011682018060405250810190611edf91906126a3565b50604051636e553f6560e01b8152600481018290523060248201527f00000000000000000000000000000000000000000000000000000000000000006001600160a01b031690636e553f6590604401611c03565b5f836001600160a01b031663095ea7b38484604051602401611f5692919061268a565b604051602081830303815290604052915060e01b6020820180516001600160e01b0383818316178352505050509050611f8f84826120d4565b611d0557611fb984856001600160a01b031663095ea7b3865f604051602401611c7092919061268a565b611d058482612068565b6040805160018082528183019092526060918291906020808301908036833750506040805160018082528183019092529294509050602080830190803683370190505090505f825f8151811061201b5761201b6127a2565b60200260200101906001600160a01b031690816001600160a01b0316815250505f815f8151811061204e5761204e6127a2565b6020026020010181815250509250929050565b80825d5050565b5f5f60205f8451602086015f885af180612087576040513d5f823e3d81fd5b50505f513d9150811561209e5780600114156120ab565b6001600160a01b0384163b155b15611d0557604051635274afe760e01b81526001600160a01b03851660048201526024016106ad565b5f5f5f5f60205f8651602088015f8a5af192503d91505f519050828015612113575081156121055780600114612113565b5f866001600160a01b03163b115b9695505050505050565b5f81518084528060208401602086015e5f602082860101526020601f19601f83011685010191505092915050565b602081525f61215d602083018461211d565b9392505050565b5f5f83601f840112612174575f5ffd5b50813567ffffffffffffffff81111561218b575f5ffd5b602083019150836020828501011115611751575f5ffd5b5f5f5f604084860312156121b4575f5ffd5b83359250602084013567ffffffffffffffff8111156121d1575f5ffd5b6121dd86828701612164565b9497909650939450505050565b5f602082840312156121fa575f5ffd5b5035919050565b6001600160a01b0381168114612215575f5ffd5b50565b5f5f60408385031215612229575f5ffd5b823560038110612237575f5ffd5b9150602083013561224781612201565b809150509250929050565b634e487b7160e01b5f52604160045260245ffd5b604051601f8201601f1916810167ffffffffffffffff8111828210171561228f5761228f612252565b604052919050565b5f602082840312156122a7575f5ffd5b813567ffffffffffffffff8111156122bd575f5ffd5b8201601f810184136122cd575f5ffd5b803567ffffffffffffffff8111156122e7576122e7612252565b8060051b6122f760208201612266565b91825260208184018101929081019087841115612312575f5ffd5b6020850194505b83851015612340578435925061232e83612201565b82825260209485019490910190612319565b979650505050505050565b604080825283519082018190525f9060208501906060840190835b8181101561238d5783516001600160a01b0316835260209384019390920191600101612366565b5050838103602080860191909152855180835291810192508501905f5b818110156123c85782518452602093840193909201916001016123aa565b50919695505050505050565b6001600160a01b038b811682528a8116602083015289166040820152606081018890526080810187905260a0810186905261014060c082018190525f9061241d9083018761211d565b82810360e084015261242f818761211d565b9415156101008401525050610120015298975050505050505050565b5f5f5f5f5f5f60808789031215612460575f5ffd5b86359550602087013561247281612201565b9450604087013567ffffffffffffffff81111561248d575f5ffd5b61249989828a01612164565b909550935050606087013567ffffffffffffffff8111156124b8575f5ffd5b6124c489828a01612164565b979a9699509497509295939492505050565b602081526124f06020820183516001600160a01b03169052565b5f602083015161250b60408401826001600160a01b03169052565b5060408301516001600160a01b03811660608401525060608301516080830152608083015160a083015260a083015160c083015260c083015161014060e084015261255a61016084018261211d565b905060e0840151601f1984830301610100850152612578828261211d565b91505061010084015161259061012085018215159052565b506101208401516101408401528091505092915050565b5f5f602083850312156125b8575f5ffd5b823567ffffffffffffffff8111156125ce575f5ffd5b6125da85828601612164565b90969095509350505050565b5f602082840312156125f6575f5ffd5b813561215d81612201565b5f60208284031215612611575f5ffd5b5051919050565b5f8261263257634e487b7160e01b5f52601260045260245ffd5b500490565b600181811c9082168061264b57607f821691505b60208210810361266957634e487b7160e01b5f52602260045260245ffd5b50919050565b5f6020828403121561267f575f5ffd5b815161215d81612201565b6001600160a01b03929092168252602082015260400190565b5f602082840312156126b3575f5ffd5b8151801515811461215d575f5ffd5b5f600384106126df57634e487b7160e01b5f52602160045260245ffd5b5060f89290921b825260601b6bffffffffffffffffffffffff1916600182015260150190565b5f60a0828403128015612716575f5ffd5b5060405160a0810167ffffffffffffffff8111828210171561273a5761273a612252565b604052825161274881612201565b8152602083810151908201526040808401519082015260608084015190820152608083015161277681612201565b60808201529392505050565b828152604060208201525f61279a604083018461211d565b949350505050565b634e487b7160e01b5f52603260045260245ffd5b81515f90829060208501835b828110156127e05781518452602093840193909101906001016127c2565b509195945050505050565b81515f90829060208501835b828110156127e05781516001600160a01b03168452602093840193909101906001016127f7565b83815260406020820152816040820152818360608301375f818301606090810191909152601f909201601f1916010192915050565b8082028115828204841417610adb57634e487b7160e01b5f52601160045260245ffdfea2646970667358221220044b3ead2f8c586aa68de99fb12e3e08b879e7f3ee4bbae0a6b12c3867eb1af764736f6c634300081c0033","linkReferences":{}},"methodIdentifiers":{"TO_18_DECIMALS_CONVERSION_FACTOR()":"8ef47be6","asset()":"38d52e0f","board(uint256,bytes)":"2db6d399","commander()":"37270936","config()":"79502c55","configurationManager()":"c9c667e3","depositCap()":"dbd5edc7","disembark(uint256,bytes)":"13c408f8","fleetCommanderRewardsManagerFactory()":"f7e533ec","generateRole(uint8,address)":"69b3054b","getConfig()":"c3f909d4","harborCommand()":"5b0f83f3","harvest(bytes)":"ce5c7f61","hasAdmiralsQuartersRole(address)":"ebc136d0","litePsm()":"6c88ec69","maxDepositPercentageOfTVL()":"bdcdd882","maxRebalanceInflow()":"ad5a356f","maxRebalanceOutflow()":"3194549e","move(uint256,address,bytes,bytes)":"c38a6f0b","name()":"06fdde03","raft()":"117d8ae0","registerFleetCommander()":"8a8b9976","requiresKeeperData()":"303dbaf3","setDepositCap(uint256)":"86651203","setMaxDepositPercentageOfTVL(uint256)":"4fc7fac3","setMaxRebalanceInflow(uint256)":"92f5e832","setMaxRebalanceOutflow(uint256)":"61f5cd8b","stakedUsds()":"fc4e8459","sweep(address[])":"780469bb","tipJar()":"7aaceb95","totalAssets()":"01e1d114","treasury()":"61d027b3","unregisterFleetCommander()":"ebf31131","usds()":"4cf282fb"},"id":216}