{"abi":[{"type":"constructor","inputs":[{"name":"_aaveV3Pool","type":"address","internalType":"address"},{"name":"_params","type":"tuple","internalType":"struct ArkParams","components":[{"name":"accessManager","type":"address","internalType":"address"},{"name":"configurationManager","type":"address","internalType":"address"},{"name":"token","type":"address","internalType":"address"},{"name":"maxAllocation","type":"uint256","internalType":"uint256"}]}],"stateMutability":"nonpayable"},{"type":"function","name":"DEFAULT_ADMIN_ROLE","inputs":[],"outputs":[{"name":"","type":"bytes32","internalType":"bytes32"}],"stateMutability":"view"},{"type":"function","name":"RAY","inputs":[],"outputs":[{"name":"","type":"uint256","internalType":"uint256"}],"stateMutability":"view"},{"type":"function","name":"SECONDS_PER_YEAR","inputs":[],"outputs":[{"name":"","type":"uint256","internalType":"uint256"}],"stateMutability":"view"},{"type":"function","name":"WAD","inputs":[],"outputs":[{"name":"","type":"uint256","internalType":"uint256"}],"stateMutability":"view"},{"type":"function","name":"aToken","inputs":[],"outputs":[{"name":"","type":"address","internalType":"address"}],"stateMutability":"view"},{"type":"function","name":"aaveV3DataProvider","inputs":[],"outputs":[{"name":"","type":"address","internalType":"contract IPoolDataProvider"}],"stateMutability":"view"},{"type":"function","name":"aaveV3Pool","inputs":[],"outputs":[{"name":"","type":"address","internalType":"contract IPoolV3"}],"stateMutability":"view"},{"type":"function","name":"board","inputs":[{"name":"amount","type":"uint256","internalType":"uint256"}],"outputs":[],"stateMutability":"nonpayable"},{"type":"function","name":"commander","inputs":[],"outputs":[{"name":"","type":"address","internalType":"address"}],"stateMutability":"view"},{"type":"function","name":"disembark","inputs":[{"name":"amount","type":"uint256","internalType":"uint256"}],"outputs":[],"stateMutability":"nonpayable"},{"type":"function","name":"getRoleAdmin","inputs":[{"name":"role","type":"bytes32","internalType":"bytes32"}],"outputs":[{"name":"","type":"bytes32","internalType":"bytes32"}],"stateMutability":"view"},{"type":"function","name":"grantCommanderRole","inputs":[{"name":"account","type":"address","internalType":"address"}],"outputs":[],"stateMutability":"nonpayable"},{"type":"function","name":"grantRole","inputs":[{"name":"role","type":"bytes32","internalType":"bytes32"},{"name":"account","type":"address","internalType":"address"}],"outputs":[],"stateMutability":"view"},{"type":"function","name":"harvest","inputs":[],"outputs":[],"stateMutability":"nonpayable"},{"type":"function","name":"hasRole","inputs":[{"name":"role","type":"bytes32","internalType":"bytes32"},{"name":"account","type":"address","internalType":"address"}],"outputs":[{"name":"","type":"bool","internalType":"bool"}],"stateMutability":"view"},{"type":"function","name":"maxAllocation","inputs":[],"outputs":[{"name":"","type":"uint256","internalType":"uint256"}],"stateMutability":"view"},{"type":"function","name":"move","inputs":[{"name":"amount","type":"uint256","internalType":"uint256"},{"name":"receiverArk","type":"address","internalType":"address"}],"outputs":[],"stateMutability":"nonpayable"},{"type":"function","name":"poke","inputs":[],"outputs":[],"stateMutability":"nonpayable"},{"type":"function","name":"raft","inputs":[],"outputs":[{"name":"","type":"address","internalType":"address"}],"stateMutability":"view"},{"type":"function","name":"rate","inputs":[],"outputs":[{"name":"","type":"uint256","internalType":"uint256"}],"stateMutability":"view"},{"type":"function","name":"renounceRole","inputs":[{"name":"role","type":"bytes32","internalType":"bytes32"},{"name":"callerConfirmation","type":"address","internalType":"address"}],"outputs":[],"stateMutability":"nonpayable"},{"type":"function","name":"revokeCommanderRole","inputs":[{"name":"account","type":"address","internalType":"address"}],"outputs":[],"stateMutability":"nonpayable"},{"type":"function","name":"revokeRole","inputs":[{"name":"role","type":"bytes32","internalType":"bytes32"},{"name":"account","type":"address","internalType":"address"}],"outputs":[],"stateMutability":"view"},{"type":"function","name":"setMaxAllocation","inputs":[{"name":"newMaxAllocation","type":"uint256","internalType":"uint256"}],"outputs":[],"stateMutability":"nonpayable"},{"type":"function","name":"setRaft","inputs":[{"name":"newRaft","type":"address","internalType":"address"}],"outputs":[],"stateMutability":"nonpayable"},{"type":"function","name":"supportsInterface","inputs":[{"name":"interfaceId","type":"bytes4","internalType":"bytes4"}],"outputs":[{"name":"","type":"bool","internalType":"bool"}],"stateMutability":"view"},{"type":"function","name":"token","inputs":[],"outputs":[{"name":"","type":"address","internalType":"contract IERC20"}],"stateMutability":"view"},{"type":"function","name":"totalAssets","inputs":[],"outputs":[{"name":"","type":"uint256","internalType":"uint256"}],"stateMutability":"view"},{"type":"event","name":"ArkPoked","inputs":[{"name":"totalAssets","type":"uint256","indexed":false,"internalType":"uint256"},{"name":"timestamp","type":"uint256","indexed":false,"internalType":"uint256"}],"anonymous":false},{"type":"event","name":"ArkPokedNoChange","inputs":[],"anonymous":false},{"type":"event","name":"ArkPokedTooSoon","inputs":[],"anonymous":false},{"type":"event","name":"Boarded","inputs":[{"name":"commander","type":"address","indexed":true,"internalType":"address"},{"name":"token","type":"address","indexed":false,"internalType":"address"},{"name":"amount","type":"uint256","indexed":false,"internalType":"uint256"}],"anonymous":false},{"type":"event","name":"DepositCapUpdated","inputs":[{"name":"newCap","type":"uint256","indexed":false,"internalType":"uint256"}],"anonymous":false},{"type":"event","name":"Disembarked","inputs":[{"name":"commander","type":"address","indexed":true,"internalType":"address"},{"name":"token","type":"address","indexed":false,"internalType":"address"},{"name":"amount","type":"uint256","indexed":false,"internalType":"uint256"}],"anonymous":false},{"type":"event","name":"Harvested","inputs":[{"name":"amount","type":"uint256","indexed":false,"internalType":"uint256"}],"anonymous":false},{"type":"event","name":"MaxAllocationUpdated","inputs":[{"name":"newMaxAllocation","type":"uint256","indexed":false,"internalType":"uint256"}],"anonymous":false},{"type":"event","name":"Moved","inputs":[{"name":"from","type":"address","indexed":true,"internalType":"address"},{"name":"to","type":"address","indexed":true,"internalType":"address"},{"name":"token","type":"address","indexed":false,"internalType":"address"},{"name":"amount","type":"uint256","indexed":false,"internalType":"uint256"}],"anonymous":false},{"type":"event","name":"RaftUpdated","inputs":[{"name":"newRaft","type":"address","indexed":false,"internalType":"address"}],"anonymous":false},{"type":"event","name":"RoleAdminChanged","inputs":[{"name":"role","type":"bytes32","indexed":true,"internalType":"bytes32"},{"name":"previousAdminRole","type":"bytes32","indexed":true,"internalType":"bytes32"},{"name":"newAdminRole","type":"bytes32","indexed":true,"internalType":"bytes32"}],"anonymous":false},{"type":"event","name":"RoleGranted","inputs":[{"name":"role","type":"bytes32","indexed":true,"internalType":"bytes32"},{"name":"account","type":"address","indexed":true,"internalType":"address"},{"name":"sender","type":"address","indexed":true,"internalType":"address"}],"anonymous":false},{"type":"event","name":"RoleRevoked","inputs":[{"name":"role","type":"bytes32","indexed":true,"internalType":"bytes32"},{"name":"account","type":"address","indexed":true,"internalType":"address"},{"name":"sender","type":"address","indexed":true,"internalType":"address"}],"anonymous":false},{"type":"error","name":"AccessControlBadConfirmation","inputs":[]},{"type":"error","name":"AccessControlUnauthorizedAccount","inputs":[{"name":"account","type":"address","internalType":"address"},{"name":"neededRole","type":"bytes32","internalType":"bytes32"}]},{"type":"error","name":"AddressEmptyCode","inputs":[{"name":"target","type":"address","internalType":"address"}]},{"type":"error","name":"AddressInsufficientBalance","inputs":[{"name":"account","type":"address","internalType":"address"}]},{"type":"error","name":"CallerIsNotCommander","inputs":[{"name":"caller","type":"address","internalType":"address"}]},{"type":"error","name":"CallerIsNotCommanderOrArk","inputs":[{"name":"caller","type":"address","internalType":"address"}]},{"type":"error","name":"CallerIsNotGovernor","inputs":[{"name":"caller","type":"address","internalType":"address"}]},{"type":"error","name":"CannotAddCommanderToArkWithCommander","inputs":[]},{"type":"error","name":"CannotRemoveCommanderFromArkWithAssets","inputs":[]},{"type":"error","name":"DirectGrantIsDisabled","inputs":[{"name":"caller","type":"address","internalType":"address"}]},{"type":"error","name":"DirectRevokeIsDisabled","inputs":[{"name":"caller","type":"address","internalType":"address"}]},{"type":"error","name":"FailedInnerCall","inputs":[]},{"type":"error","name":"InvalidAccessManagerAddress","inputs":[{"name":"invalidAddress","type":"address","internalType":"address"}]},{"type":"error","name":"InvalidVaultAddress","inputs":[]},{"type":"error","name":"SafeERC20FailedOperation","inputs":[{"name":"token","type":"address","internalType":"address"}]}],"bytecode":{"object":"0x608060405234801561000f575f80fd5b50604051611abe380380611abe83398101604081905261002e91610396565b80518190806001600160a01b038116610061576040516347bd7c1d60e01b81525f60048201526024015b60405180910390fd5b6040516301ffc9a760e01b815263ce78f4a360e01b60048201526001600160a01b038216906301ffc9a790602401602060405180830381865afa1580156100aa573d5f803e3d5ffd5b505050506040513d601f19601f820116820180604052508101906100ce9190610441565b6100f6576040516347bd7c1d60e01b81526001600160a01b0382166004820152602401610058565b5f80546001600160a01b0319166001600160a01b03928316178155602084810151606086015160035560408051628bec5760e51b815290519195509385169363117d8ae093600480830194939283900301908290875af115801561015c573d5f803e3d5ffd5b505050506040513d601f19601f820116820180604052508101906101809190610467565b600280546001600160a01b03199081166001600160a01b0393841617909155604093840151600480548316918416919091178155600680549092169287169283179091558351630150a5d760e21b815293515f94929350630542975c9280830192602092918290030181865afa1580156101fc573d5f803e3d5ffd5b505050506040513d601f19601f820116820180604052508101906102209190610467565b9050806001600160a01b031663e860accb6040518163ffffffff1660e01b8152600401602060405180830381865afa15801561025e573d5f803e3d5ffd5b505050506040513d601f19601f820116820180604052508101906102829190610467565b600780546001600160a01b0319166001600160a01b03928316179055600654600480546040516335ea6a7560e01b8152908416918101919091525f9291909116906335ea6a75906024016101e060405180830381865afa1580156102e8573d5f803e3d5ffd5b505050506040513d601f19601f8201168201806040525081019061030c9190610508565b6101000151600880546001600160a01b0319166001600160a01b039092169190911790555061063292505050565b6001600160a01b038116811461034e575f80fd5b50565b805161035c8161033a565b919050565b6040516101e081016001600160401b038111828210171561039057634e487b7160e01b5f52604160045260245ffd5b60405290565b5f8082840360a08112156103a8575f80fd5b83516103b38161033a565b92506080601f19820112156103c6575f80fd5b50604051608081016001600160401b03811182821017156103f557634e487b7160e01b5f52604160045260245ffd5b60405260208401516104068161033a565b815260408401516104168161033a565b602082015260608401516104298161033a565b60408201526080939093015160608401525092909150565b5f60208284031215610451575f80fd5b81518015158114610460575f80fd5b9392505050565b5f60208284031215610477575f80fd5b81516104608161033a565b5f60208284031215610492575f80fd5b604051602081016001600160401b03811182821017156104c057634e487b7160e01b5f52604160045260245ffd5b6040529151825250919050565b80516001600160801b038116811461035c575f80fd5b805164ffffffffff8116811461035c575f80fd5b805161ffff8116811461035c575f80fd5b5f6101e082840312801561051a575f80fd5b50610523610361565b61052d8484610482565b815261053b602084016104cd565b602082015261054c604084016104cd565b604082015261055d606084016104cd565b606082015261056e608084016104cd565b608082015261057f60a084016104cd565b60a082015261059060c084016104e3565b60c08201526105a160e084016104f7565b60e08201526105b36101008401610351565b6101008201526105c66101208401610351565b6101208201526105d96101408401610351565b6101408201526105ec6101608401610351565b6101608201526105ff61018084016104cd565b6101808201526106126101a084016104cd565b6101a08201526106256101c084016104cd565b6101c08201529392505050565b61147f8061063f5f395ff3fe608060405234801561000f575f80fd5b50600436106101bb575f3560e01c80636a146024116100f3578063a0c1f15e11610093578063d547741f1161006e578063d547741f1461037c578063d8a8e03a1461038f578063e6a69ab8146103a2578063fc0c546a146103ad575f80fd5b8063a0c1f15e1461034f578063a217fddf14610362578063cce47e5514610369575f80fd5b806386a06ff0116100ce57806386a06ff01461030d57806391d14854146103205780639403e41f146103335780639b3ba79f14610346575f80fd5b80636a146024146102d857806372f12344146102e757806381d3ce26146102fa575f80fd5b80632f2ff15d1161015e57806344ee06051161013957806344ee0605146102a15780634641257d146102285780634dd47eba146102b2578063552033c4146102c5575f80fd5b80632f2ff15d1461026857806336568abe1461027b578063372709361461028e575f80fd5b806318178358116101995780631817835814610228578063248a9ca31461022a57806328ed6e3f1461024d5780632c4e722e14610260575f80fd5b806301e1d114146101bf57806301ffc9a7146101da578063117d8ae0146101fd575b5f80fd5b6101c76103c0565b6040519081526020015b60405180910390f35b6101ed6101e8366004611295565b61042f565b60405190151581526020016101d1565b600254610210906001600160a01b031681565b6040516001600160a01b0390911681526020016101d1565b005b6101c76102383660046112bc565b5f908152600160208190526040909120015490565b61022861025b3660046112bc565b610465565b6101c7610589565b6102286102763660046112ee565b610611565b6102286102893660046112ee565b61062c565b600554610210906001600160a01b031681565b6102286102af366004611318565b50565b6102286102c03660046112bc565b610664565b6101c76b033b2e3c9fd0803ce800000081565b6101c7670de0b6b3a764000081565b6102286102f53660046112bc565b6106f3565b610228610308366004611318565b610755565b600654610210906001600160a01b031681565b6101ed61032e3660046112ee565b6108ca565b610228610341366004611318565b6108f4565b6101c760035481565b600854610210906001600160a01b031681565b6101c75f81565b600754610210906001600160a01b031681565b61022861038a3660046112ee565b610a65565b61022861039d3660046112ee565b610a80565b6101c76301e1338081565b600454610210906001600160a01b031681565b6008546040516370a0823160e01b81523060048201525f916001600160a01b0316906370a0823190602401602060405180830381865afa158015610406573d5f803e3d5ffd5b505050506040513d601f19601f8201168201806040525081019061042a9190611331565b905090565b5f6001600160e01b03198216637965db0b60e01b148061045f57506301ffc9a760e01b6001600160e01b03198316145b92915050565b61046d610bcc565b610517575f3360055460405163d25dd10160e01b81526001600160a01b0380841660048301529293505f929091169063d25dd10190602401602060405180830381865afa1580156104c0573d5f803e3d5ffd5b505050506040513d601f19601f820116820180604052508101906104e49190611348565b9050806105145760405163033edcb360e01b81526001600160a01b03831660048201526024015b60405180910390fd5b50505b6004543390610531906001600160a01b0316823085610c3f565b61053a82610cac565b600454604080516001600160a01b03928316815260208101859052918316917fcbaa1442ac205415c9d69643e7b60ec73d1de35dbc807c21ec288c70ddc4207b91015b60405180910390a25050565b600754600480546040516335ea6a7560e01b81526001600160a01b03918216928101929092525f9283929116906335ea6a759060240161018060405180830381865afa1580156105db573d5f803e3d5ffd5b505050506040513d601f19601f820116820180604052508101906105ff9190611367565b50949c9b505050505050505050505050565b604051630e15200f60e21b815233600482015260240161050b565b6001600160a01b03811633146106555760405163334bd91960e11b815260040160405180910390fd5b61065f8282610d9b565b505050565b61066c610bcc565b61068b57604051631564c0e160e11b815233600482015260240161050b565b3361069582610e0d565b6004546106ac906001600160a01b03168284610e8d565b600454604080516001600160a01b03928316815260208101859052918316917fd5e872c5ecfb1bb8820b2e6a20e31b883682282da886621541f71e31ec11947e910161057d565b6106fb610bcc565b61071a57604051631564c0e160e11b815233600482015260240161050b565b60038190556040518181527ff71dfae69e41913414884e69a96ee28ef3f1ce5593bee0fb570cf9404e41a8089060200160405180910390a150565b5f5460408051630ccc574960e41b815290516001600160a01b03909216916391d1485491839163ccc57490916004808201926020929091908290030181865afa1580156107a4573d5f803e3d5ffd5b505050506040513d601f19601f820116820180604052508101906107c89190611331565b6040516001600160e01b031960e084901b1681526004810191909152336024820152604401602060405180830381865afa158015610808573d5f803e3d5ffd5b505050506040513d601f19601f8201168201806040525081019061082c9190611348565b61084b57604051630ea7d7ed60e21b815233600482015260240161050b565b61085481610ebe565b5f54604080516345b817bb60e01b815290516108c6926001600160a01b0316916345b817bb9160048083019260209291908290030181865afa15801561089c573d5f803e3d5ffd5b505050506040513d601f19601f820116820180604052508101906108c09190611331565b82610d9b565b5050565b5f9182526001602090815260408084206001600160a01b0393909316845291905290205460ff1690565b5f5460408051630ccc574960e41b815290516001600160a01b03909216916391d1485491839163ccc57490916004808201926020929091908290030181865afa158015610943573d5f803e3d5ffd5b505050506040513d601f19601f820116820180604052508101906109679190611331565b6040516001600160e01b031960e084901b1681526004810191909152336024820152604401602060405180830381865afa1580156109a7573d5f803e3d5ffd5b505050506040513d601f19601f820116820180604052508101906109cb9190611348565b6109ea57604051630ea7d7ed60e21b815233600482015260240161050b565b6109f381610f51565b5f54604080516345b817bb60e01b815290516108c6926001600160a01b0316916345b817bb9160048083019260209291908290030181865afa158015610a3b573d5f803e3d5ffd5b505050506040513d601f19601f82011682018060405250810190610a5f9190611331565b82611093565b604051636344978560e11b815233600482015260240161050b565b610a88610bcc565b610aa757604051631564c0e160e11b815233600482015260240161050b565b610ab082610e0d565b6004805460405163095ea7b360e01b81526001600160a01b03848116938201939093526024810185905291169063095ea7b3906044016020604051808303815f875af1158015610b02573d5f803e3d5ffd5b505050506040513d601f19601f82011682018060405250810190610b269190611348565b506040516328ed6e3f60e01b8152600481018390526001600160a01b038216906328ed6e3f906024015f604051808303815f87803b158015610b66575f80fd5b505af1158015610b78573d5f803e3d5ffd5b5050600454604080516001600160a01b0392831681526020810187905291851693503092507f9f784fc02a186f1c98b2d9f15fda084da27cdd291a3785d978f91911d880516b910160405180910390a35050565b5f8054604080516345b817bb60e01b8152905161042a926001600160a01b0316916345b817bb9160048083019260209291908290030181865afa158015610c15573d5f803e3d5ffd5b505050506040513d601f19601f82011682018060405250810190610c399190611331565b336108ca565b6040516001600160a01b038481166024830152838116604483015260648201839052610ca69186918216906323b872dd906084015b604051602081830303815290604052915060e01b6020820180516001600160e01b038381831617835250505050611102565b50505050565b6004805460065460405163095ea7b360e01b81526001600160a01b039182169381019390935260248301849052169063095ea7b3906044016020604051808303815f875af1158015610d00573d5f803e3d5ffd5b505050506040513d601f19601f82011682018060405250810190610d249190611348565b506006546004805460405163617ba03760e01b81526001600160a01b0391821692810192909252602482018490523060448301525f60648301529091169063617ba037906084015f604051808303815f87803b158015610d82575f80fd5b505af1158015610d94573d5f803e3d5ffd5b5050505050565b5f610da683836108ca565b15610e06575f8381526001602090815260408083206001600160a01b0386168085529252808320805460ff1916905551339286917ff6391f5c32d9c69d2a47ea670b442974b53935d1edc7fd64eb21e047a839171b9190a450600161045f565b505f61045f565b60065460048054604051631a4ca37b60e21b81526001600160a01b039182169281019290925260248201849052306044830152909116906369328dec906064016020604051808303815f875af1158015610e69573d5f803e3d5ffd5b505050506040513d601f19601f820116820180604052508101906108c69190611331565b6040516001600160a01b0383811660248301526044820183905261065f91859182169063a9059cbb90606401610c74565b5f306001600160a01b03166301e1d1146040518163ffffffff1660e01b8152600401602060405180830381865afa158015610efb573d5f803e3d5ffd5b505050506040513d601f19601f82011682018060405250810190610f1f9190611331565b1115610f3e576040516373a075f360e01b815260040160405180910390fd5b50600580546001600160a01b0319169055565b5f5460408051630ccc574960e41b815290516001600160a01b03909216916391d1485491839163ccc57490916004808201926020929091908290030181865afa158015610fa0573d5f803e3d5ffd5b505050506040513d601f19601f82011682018060405250810190610fc49190611331565b6040516001600160e01b031960e084901b1681526004810191909152336024820152604401602060405180830381865afa158015611004573d5f803e3d5ffd5b505050506040513d601f19601f820116820180604052508101906110289190611348565b61104757604051630ea7d7ed60e21b815233600482015260240161050b565b6005546001600160a01b0316156110715760405163d32184ed60e01b815260040160405180910390fd5b600580546001600160a01b0319166001600160a01b0392909216919091179055565b5f61109e83836108ca565b610e06575f8381526001602081815260408084206001600160a01b0387168086529252808420805460ff19169093179092559051339286917f2f8788117e7eff1d82e926ec794901d17c78024a50270940304540a733656f0d9190a450600161045f565b5f6111166001600160a01b03841683611163565b905080515f1415801561113a5750808060200190518101906111389190611348565b155b1561065f57604051635274afe760e01b81526001600160a01b038416600482015260240161050b565b606061117083835f611177565b9392505050565b60608147101561119c5760405163cd78605960e01b815230600482015260240161050b565b5f80856001600160a01b031684866040516111b79190611433565b5f6040518083038185875af1925050503d805f81146111f1576040519150601f19603f3d011682016040523d82523d5f602084013e6111f6565b606091505b5091509150611206868383611210565b9695505050505050565b606082611225576112208261126c565b611170565b815115801561123c57506001600160a01b0384163b155b1561126557604051639996b31560e01b81526001600160a01b038516600482015260240161050b565b5080611170565b80511561127c5780518082602001fd5b604051630a12f52160e11b815260040160405180910390fd5b5f602082840312156112a5575f80fd5b81356001600160e01b031981168114611170575f80fd5b5f602082840312156112cc575f80fd5b5035919050565b80356001600160a01b03811681146112e9575f80fd5b919050565b5f80604083850312156112ff575f80fd5b8235915061130f602084016112d3565b90509250929050565b5f60208284031215611328575f80fd5b611170826112d3565b5f60208284031215611341575f80fd5b5051919050565b5f60208284031215611358575f80fd5b81518015158114611170575f80fd5b5f805f805f805f805f805f806101808d8f031215611383575f80fd5b5f8d519050809c50505f60208e01519050809b50505f60408e01519050809a50505f60608e01519050809950505f60808e01519050809850505f60a08e01519050809750505f60c08e01519050809650505f60e08e01519050809550505f6101008e01519050809450505f6101208e01519050809350505f6101408e01519050809250506101608d015164ffffffffff8116811461141f575f80fd5b809150509295989b509295989b509295989b565b5f82518060208501845e5f92019182525091905056fea26469706673582212207be184b538b2b9b60dd782a7b2dc5c089559dabdf83cd11675e4ab23af2660e764736f6c634300081a0033","linkReferences":{}},"methodIdentifiers":{"DEFAULT_ADMIN_ROLE()":"a217fddf","RAY()":"552033c4","SECONDS_PER_YEAR()":"e6a69ab8","WAD()":"6a146024","aToken()":"a0c1f15e","aaveV3DataProvider()":"cce47e55","aaveV3Pool()":"86a06ff0","board(uint256)":"28ed6e3f","commander()":"37270936","disembark(uint256)":"4dd47eba","getRoleAdmin(bytes32)":"248a9ca3","grantCommanderRole(address)":"9403e41f","grantRole(bytes32,address)":"2f2ff15d","harvest()":"4641257d","hasRole(bytes32,address)":"91d14854","maxAllocation()":"9b3ba79f","move(uint256,address)":"d8a8e03a","poke()":"18178358","raft()":"117d8ae0","rate()":"2c4e722e","renounceRole(bytes32,address)":"36568abe","revokeCommanderRole(address)":"81d3ce26","revokeRole(bytes32,address)":"d547741f","setMaxAllocation(uint256)":"72f12344","setRaft(address)":"44ee0605","supportsInterface(bytes4)":"01ffc9a7","token()":"fc0c546a","totalAssets()":"01e1d114"},"id":65}