{"abi":[{"type":"constructor","inputs":[{"name":"_comet","type":"address","internalType":"address"},{"name":"_cometRewards","type":"address","internalType":"address"},{"name":"_params","type":"tuple","internalType":"struct ArkParams","components":[{"name":"name","type":"string","internalType":"string"},{"name":"accessManager","type":"address","internalType":"address"},{"name":"configurationManager","type":"address","internalType":"address"},{"name":"token","type":"address","internalType":"address"},{"name":"depositCap","type":"uint256","internalType":"uint256"},{"name":"maxRebalanceOutflow","type":"uint256","internalType":"uint256"},{"name":"maxRebalanceInflow","type":"uint256","internalType":"uint256"}]}],"stateMutability":"nonpayable"},{"type":"function","name":"DEFAULT_ADMIN_ROLE","inputs":[],"outputs":[{"name":"","type":"bytes32","internalType":"bytes32"}],"stateMutability":"view"},{"type":"function","name":"MAX_UINT256","inputs":[],"outputs":[{"name":"","type":"uint256","internalType":"uint256"}],"stateMutability":"view"},{"type":"function","name":"RAY","inputs":[],"outputs":[{"name":"","type":"uint256","internalType":"uint256"}],"stateMutability":"view"},{"type":"function","name":"SECONDS_PER_DAY","inputs":[],"outputs":[{"name":"","type":"uint256","internalType":"uint256"}],"stateMutability":"view"},{"type":"function","name":"SECONDS_PER_YEAR","inputs":[],"outputs":[{"name":"","type":"uint256","internalType":"uint256"}],"stateMutability":"view"},{"type":"function","name":"WAD","inputs":[],"outputs":[{"name":"","type":"uint256","internalType":"uint256"}],"stateMutability":"view"},{"type":"function","name":"WAD_TO_RAY","inputs":[],"outputs":[{"name":"","type":"uint256","internalType":"uint256"}],"stateMutability":"view"},{"type":"function","name":"board","inputs":[{"name":"amount","type":"uint256","internalType":"uint256"}],"outputs":[],"stateMutability":"nonpayable"},{"type":"function","name":"comet","inputs":[],"outputs":[{"name":"","type":"address","internalType":"contract IComet"}],"stateMutability":"view"},{"type":"function","name":"cometRewards","inputs":[],"outputs":[{"name":"","type":"address","internalType":"contract ICometRewards"}],"stateMutability":"view"},{"type":"function","name":"commander","inputs":[],"outputs":[{"name":"","type":"address","internalType":"address"}],"stateMutability":"view"},{"type":"function","name":"config","inputs":[],"outputs":[{"name":"commander","type":"address","internalType":"address"},{"name":"raft","type":"address","internalType":"address"},{"name":"token","type":"address","internalType":"contract IERC20"},{"name":"depositCap","type":"uint256","internalType":"uint256"},{"name":"maxRebalanceOutflow","type":"uint256","internalType":"uint256"},{"name":"maxRebalanceInflow","type":"uint256","internalType":"uint256"},{"name":"name","type":"string","internalType":"string"}],"stateMutability":"view"},{"type":"function","name":"depositCap","inputs":[],"outputs":[{"name":"","type":"uint256","internalType":"uint256"}],"stateMutability":"view"},{"type":"function","name":"disembark","inputs":[{"name":"amount","type":"uint256","internalType":"uint256"}],"outputs":[],"stateMutability":"nonpayable"},{"type":"function","name":"getRoleAdmin","inputs":[{"name":"role","type":"bytes32","internalType":"bytes32"}],"outputs":[{"name":"","type":"bytes32","internalType":"bytes32"}],"stateMutability":"view"},{"type":"function","name":"grantCommanderRole","inputs":[{"name":"account","type":"address","internalType":"address"}],"outputs":[],"stateMutability":"nonpayable"},{"type":"function","name":"grantRole","inputs":[{"name":"","type":"bytes32","internalType":"bytes32"},{"name":"","type":"address","internalType":"address"}],"outputs":[],"stateMutability":"view"},{"type":"function","name":"harvest","inputs":[{"name":"rewardToken","type":"address","internalType":"address"},{"name":"additionalData","type":"bytes","internalType":"bytes"}],"outputs":[{"name":"","type":"uint256","internalType":"uint256"}],"stateMutability":"nonpayable"},{"type":"function","name":"hasRole","inputs":[{"name":"role","type":"bytes32","internalType":"bytes32"},{"name":"account","type":"address","internalType":"address"}],"outputs":[{"name":"","type":"bool","internalType":"bool"}],"stateMutability":"view"},{"type":"function","name":"manager","inputs":[],"outputs":[{"name":"","type":"address","internalType":"contract IConfigurationManager"}],"stateMutability":"view"},{"type":"function","name":"maxRebalanceInflow","inputs":[],"outputs":[{"name":"","type":"uint256","internalType":"uint256"}],"stateMutability":"view"},{"type":"function","name":"maxRebalanceOutflow","inputs":[],"outputs":[{"name":"","type":"uint256","internalType":"uint256"}],"stateMutability":"view"},{"type":"function","name":"move","inputs":[{"name":"amount","type":"uint256","internalType":"uint256"},{"name":"receiverArk","type":"address","internalType":"address"}],"outputs":[],"stateMutability":"nonpayable"},{"type":"function","name":"name","inputs":[],"outputs":[{"name":"","type":"string","internalType":"string"}],"stateMutability":"view"},{"type":"function","name":"poke","inputs":[],"outputs":[],"stateMutability":"nonpayable"},{"type":"function","name":"raft","inputs":[],"outputs":[{"name":"","type":"address","internalType":"address"}],"stateMutability":"view"},{"type":"function","name":"rate","inputs":[],"outputs":[{"name":"","type":"uint256","internalType":"uint256"}],"stateMutability":"view"},{"type":"function","name":"renounceRole","inputs":[{"name":"role","type":"bytes32","internalType":"bytes32"},{"name":"callerConfirmation","type":"address","internalType":"address"}],"outputs":[],"stateMutability":"nonpayable"},{"type":"function","name":"revokeCommanderRole","inputs":[{"name":"account","type":"address","internalType":"address"}],"outputs":[],"stateMutability":"nonpayable"},{"type":"function","name":"revokeRole","inputs":[{"name":"","type":"bytes32","internalType":"bytes32"},{"name":"","type":"address","internalType":"address"}],"outputs":[],"stateMutability":"view"},{"type":"function","name":"setDepositCap","inputs":[{"name":"newDepositCap","type":"uint256","internalType":"uint256"}],"outputs":[],"stateMutability":"nonpayable"},{"type":"function","name":"setMaxRebalanceInflow","inputs":[{"name":"newMaxRebalanceInflow","type":"uint256","internalType":"uint256"}],"outputs":[],"stateMutability":"nonpayable"},{"type":"function","name":"setMaxRebalanceOutflow","inputs":[{"name":"newMaxRebalanceOutflow","type":"uint256","internalType":"uint256"}],"outputs":[],"stateMutability":"nonpayable"},{"type":"function","name":"supportsInterface","inputs":[{"name":"interfaceId","type":"bytes4","internalType":"bytes4"}],"outputs":[{"name":"","type":"bool","internalType":"bool"}],"stateMutability":"view"},{"type":"function","name":"token","inputs":[],"outputs":[{"name":"","type":"address","internalType":"contract IERC20"}],"stateMutability":"view"},{"type":"function","name":"totalAssets","inputs":[],"outputs":[{"name":"suppliedAssets","type":"uint256","internalType":"uint256"}],"stateMutability":"view"},{"type":"event","name":"ArkPoked","inputs":[{"name":"currentPrice","type":"uint256","indexed":false,"internalType":"uint256"},{"name":"timestamp","type":"uint256","indexed":false,"internalType":"uint256"}],"anonymous":false},{"type":"event","name":"ArkPokedNoChange","inputs":[],"anonymous":false},{"type":"event","name":"ArkPokedTooSoon","inputs":[],"anonymous":false},{"type":"event","name":"Boarded","inputs":[{"name":"commander","type":"address","indexed":true,"internalType":"address"},{"name":"token","type":"address","indexed":false,"internalType":"address"},{"name":"amount","type":"uint256","indexed":false,"internalType":"uint256"}],"anonymous":false},{"type":"event","name":"DepositCapUpdated","inputs":[{"name":"newCap","type":"uint256","indexed":false,"internalType":"uint256"}],"anonymous":false},{"type":"event","name":"Disembarked","inputs":[{"name":"commander","type":"address","indexed":true,"internalType":"address"},{"name":"token","type":"address","indexed":false,"internalType":"address"},{"name":"amount","type":"uint256","indexed":false,"internalType":"uint256"}],"anonymous":false},{"type":"event","name":"Harvested","inputs":[{"name":"amount","type":"uint256","indexed":false,"internalType":"uint256"}],"anonymous":false},{"type":"event","name":"MaxRebalanceInflowUpdated","inputs":[{"name":"newMaxInflow","type":"uint256","indexed":false,"internalType":"uint256"}],"anonymous":false},{"type":"event","name":"MaxRebalanceOutflowUpdated","inputs":[{"name":"newMaxOutflow","type":"uint256","indexed":false,"internalType":"uint256"}],"anonymous":false},{"type":"event","name":"Moved","inputs":[{"name":"from","type":"address","indexed":true,"internalType":"address"},{"name":"to","type":"address","indexed":true,"internalType":"address"},{"name":"token","type":"address","indexed":false,"internalType":"address"},{"name":"amount","type":"uint256","indexed":false,"internalType":"uint256"}],"anonymous":false},{"type":"event","name":"RaftUpdated","inputs":[{"name":"newRaft","type":"address","indexed":false,"internalType":"address"}],"anonymous":false},{"type":"event","name":"RoleAdminChanged","inputs":[{"name":"role","type":"bytes32","indexed":true,"internalType":"bytes32"},{"name":"previousAdminRole","type":"bytes32","indexed":true,"internalType":"bytes32"},{"name":"newAdminRole","type":"bytes32","indexed":true,"internalType":"bytes32"}],"anonymous":false},{"type":"event","name":"RoleGranted","inputs":[{"name":"role","type":"bytes32","indexed":true,"internalType":"bytes32"},{"name":"account","type":"address","indexed":true,"internalType":"address"},{"name":"sender","type":"address","indexed":true,"internalType":"address"}],"anonymous":false},{"type":"event","name":"RoleRevoked","inputs":[{"name":"role","type":"bytes32","indexed":true,"internalType":"bytes32"},{"name":"account","type":"address","indexed":true,"internalType":"address"},{"name":"sender","type":"address","indexed":true,"internalType":"address"}],"anonymous":false},{"type":"error","name":"AccessControlBadConfirmation","inputs":[]},{"type":"error","name":"AccessControlUnauthorizedAccount","inputs":[{"name":"account","type":"address","internalType":"address"},{"name":"neededRole","type":"bytes32","internalType":"bytes32"}]},{"type":"error","name":"AddressEmptyCode","inputs":[{"name":"target","type":"address","internalType":"address"}]},{"type":"error","name":"AddressInsufficientBalance","inputs":[{"name":"account","type":"address","internalType":"address"}]},{"type":"error","name":"CallerIsNotAuthorizedToBoard","inputs":[{"name":"caller","type":"address","internalType":"address"}]},{"type":"error","name":"CallerIsNotCommander","inputs":[{"name":"caller","type":"address","internalType":"address"}]},{"type":"error","name":"CallerIsNotGovernor","inputs":[{"name":"caller","type":"address","internalType":"address"}]},{"type":"error","name":"CannotAddCommanderToArkWithCommander","inputs":[]},{"type":"error","name":"CannotDeployArkWithEmptyName","inputs":[]},{"type":"error","name":"CannotDeployArkWithoutConfigurationManager","inputs":[]},{"type":"error","name":"CannotDeployArkWithoutRaft","inputs":[]},{"type":"error","name":"CannotDeployArkWithoutToken","inputs":[]},{"type":"error","name":"CannotRemoveCommanderFromArkWithAssets","inputs":[]},{"type":"error","name":"DirectGrantIsDisabled","inputs":[{"name":"caller","type":"address","internalType":"address"}]},{"type":"error","name":"DirectRevokeIsDisabled","inputs":[{"name":"caller","type":"address","internalType":"address"}]},{"type":"error","name":"FailedInnerCall","inputs":[]},{"type":"error","name":"InvalidAccessManagerAddress","inputs":[{"name":"invalidAddress","type":"address","internalType":"address"}]},{"type":"error","name":"SafeERC20FailedOperation","inputs":[{"name":"token","type":"address","internalType":"address"}]}],"bytecode":{"object":"0x608060405234801561000f575f80fd5b5060405161202b38038061202b83398101604081905261002e9161048b565b60208101518190806001600160a01b038116610064576040516347bd7c1d60e01b81525f60048201526024015b60405180910390fd5b6040516301ffc9a760e01b815263f87138b560e01b60048201526001600160a01b038216906301ffc9a790602401602060405180830381865afa1580156100ad573d5f803e3d5ffd5b505050506040513d601f19601f820116820180604052508101906100d1919061056c565b6100f9576040516347bd7c1d60e01b81526001600160a01b038216600482015260240161005b565b5f80546001600160a01b0319166001600160a01b0392831617905560408301511690506101395760405163b53c493160e01b815260040160405180910390fd5b60608101516001600160a01b0316610167576040516001620a810f60e11b0319815260040160405180910390fd5b8051515f036101895760405163268c072960e01b815260040160405180910390fd5b604081810151600980546001600160a01b0319166001600160a01b0390921691821790558151628bec5760e51b815291515f9263117d8ae0916004808301926020929190829003018187875af11580156101e5573d5f803e3d5ffd5b505050506040513d601f19601f820116820180604052508101906102099190610592565b6001600160a01b03160361023057604051633a4f9cdb60e21b815260040160405180910390fd5b6040518060e001604052805f6001600160a01b0316815260200160095f9054906101000a90046001600160a01b03166001600160a01b031663117d8ae06040518163ffffffff1660e01b81526004016020604051808303815f875af115801561029b573d5f803e3d5ffd5b505050506040513d601f19601f820116820180604052508101906102bf9190610592565b6001600160a01b039081168252606080850151821660208085019190915260808087015160408087019190915260a0808901518588015260c0808a0151848901528951978201979097528751600280549188166001600160a01b0319928316178155948901516003805491891691831691909117905591880151600480549190971692169190911790945591850151600555908401516006559083015160075590820151600890610370908261062f565b5050600a80546001600160a01b039687166001600160a01b031991821617909155600b805495909616941693909317909355506106e9915050565b80516001600160a01b03811681146103c1575f80fd5b919050565b634e487b7160e01b5f52604160045260245ffd5b60405160e081016001600160401b03811182821017156103fc576103fc6103c6565b60405290565b5f82601f830112610411575f80fd5b81516001600160401b0381111561042a5761042a6103c6565b604051601f8201601f19908116603f011681016001600160401b0381118282101715610458576104586103c6565b60405281815283820160200185101561046f575f80fd5b8160208501602083015e5f918101602001919091529392505050565b5f805f6060848603121561049d575f80fd5b6104a6846103ab565b92506104b4602085016103ab565b60408501519092506001600160401b038111156104cf575f80fd5b840160e081870312156104e0575f80fd5b6104e86103da565b81516001600160401b038111156104fd575f80fd5b61050988828501610402565b825250610518602083016103ab565b6020820152610529604083016103ab565b604082015261053a606083016103ab565b60608201526080828101519082015260a0808301519082015260c0918201519181019190915292959194509192509050565b5f6020828403121561057c575f80fd5b8151801515811461058b575f80fd5b9392505050565b5f602082840312156105a2575f80fd5b61058b826103ab565b600181811c908216806105bf57607f821691505b6020821081036105dd57634e487b7160e01b5f52602260045260245ffd5b50919050565b601f82111561062a57805f5260205f20601f840160051c810160208510156106085750805b601f840160051c820191505b81811015610627575f8155600101610614565b50505b505050565b81516001600160401b03811115610648576106486103c6565b61065c8161065684546105ab565b846105e3565b6020601f82116001811461068e575f83156106775750848201515b5f19600385901b1c1916600184901b178455610627565b5f84815260208120601f198516915b828110156106bd578785015182556020948501946001909201910161069d565b50848210156106da57868401515f19600387901b60f8161c191681555b50505050600190811b01905550565b611935806106f65f395ff3fe608060405234801561000f575f80fd5b5060043610610213575f3560e01c806361f5cd8b1161011f5780639403e41f116100a9578063d547741f11610079578063d547741f14610446578063d8a8e03a14610459578063dbd5edc71461046c578063e6a69ab814610474578063fc0c546a1461047f575f80fd5b80639403e41f14610411578063a217fddf14610424578063ad5a356f1461042b578063ba3e9c1214610433575f80fd5b806379502c55116100ef57806379502c55146103aa57806381d3ce26146103c557806386651203146103d857806391d14854146103eb57806392f5e832146103fe575f80fd5b806361f5cd8b1461036b5780636a1460241461037e5780637399bfe81461038d57806374f0314f146103a0575f80fd5b80632f2ff15d116101a057806336568abe1161017057806336568abe1461030e5780633727093614610321578063481c6a75146103325780634dd47eba14610345578063552033c414610358575f80fd5b80632f2ff15d146102d85780633194549e146102eb57806332315972146102f357806333a581d214610306575f80fd5b8063163c8381116101e6578063163c83811461028f578063181783581461029a578063248a9ca31461029c57806328ed6e3f146102bf5780632c4e722e146102d2575f80fd5b806301e1d1141461021757806301ffc9a71461023257806306fdde0314610255578063117d8ae01461026a575b5f80fd5b61021f610490565b6040519081526020015b60405180910390f35b6102456102403660046116b0565b6104ff565b6040519015158152602001610229565b61025d610535565b6040516102299190611705565b6003546001600160a01b03165b6040516001600160a01b039091168152602001610229565b61021f633b9aca0081565b005b61021f6102aa366004611717565b5f908152600160208190526040909120015490565b61029a6102cd366004611717565b6105c8565b5f61021f565b61029a6102e6366004611742565b610772565b60065461021f565b600b54610277906001600160a01b031681565b61021f5f1981565b61029a61031c366004611742565b61078d565b6002546001600160a01b0316610277565b600954610277906001600160a01b031681565b61029a610353366004611717565b6107c5565b61021f6b033b2e3c9fd0803ce800000081565b61029a610379366004611717565b61085b565b61021f670de0b6b3a764000081565b61021f61039b366004611770565b6108be565b61021f6201518081565b6103b261094f565b60405161022997969594939291906117f0565b61029a6103d3366004611845565b610a0a565b61029a6103e6366004611717565b610b7f565b6102456103f9366004611742565b610bdb565b61029a61040c366004611717565b610c05565b61029a61041f366004611845565b610c61565b61021f5f81565b60075461021f565b600a54610277906001600160a01b031681565b61029a610454366004611742565b610dd2565b61029a610467366004611742565b610ded565b60055461021f565b61021f6301e1338081565b6004546001600160a01b0316610277565b600a546040516370a0823160e01b81523060048201525f916001600160a01b0316906370a0823190602401602060405180830381865afa1580156104d6573d5f803e3d5ffd5b505050506040513d601f19601f820116820180604052508101906104fa9190611860565b905090565b5f6001600160e01b03198216637965db0b60e01b148061052f57506301ffc9a760e01b6001600160e01b03198316145b92915050565b60606002600601805461054790611877565b80601f016020809104026020016040519081016040528092919081815260200182805461057390611877565b80156105be5780601f10610595576101008083540402835291602001916105be565b820191905f5260205f20905b8154815290600101906020018083116105a157829003601f168201915b5050505050905090565b6002546001600160a01b03166105dc610f39565b610700575f3390505f306001600160a01b031663117d8ae06040518163ffffffff1660e01b8152600401602060405180830381865afa158015610621573d5f803e3d5ffd5b505050506040513d601f19601f8201168201806040525081019061064591906118af565b6001600160a01b0316826001600160a01b0316149050806106fd5760405163d25dd10160e01b81526001600160a01b0383811660048301525f919085169063d25dd10190602401602060405180830381865afa1580156106a7573d5f803e3d5ffd5b505050506040513d601f19601f820116820180604052508101906106cb91906118ca565b9050806106fb57604051638f7a567d60e01b81526001600160a01b03841660048201526024015b60405180910390fd5b505b50505b600454339061071a906001600160a01b0316823086610fac565b61072383611019565b600454604080516001600160a01b03928316815260208101869052918316917fcbaa1442ac205415c9d69643e7b60ec73d1de35dbc807c21ec288c70ddc4207b910160405180910390a2505050565b604051630e15200f60e21b81523360048201526024016106f2565b6001600160a01b03811633146107b65760405163334bd91960e11b815260040160405180910390fd5b6107c082826110fd565b505050565b6107cd610f39565b6107ec57604051631564c0e160e11b81523360048201526024016106f2565b336107f68261116f565b60045461080d906001600160a01b031682846111ae565b600454604080516001600160a01b03928316815260208101859052918316917fd5e872c5ecfb1bb8820b2e6a20e31b883682282da886621541f71e31ec11947e910160405180910390a25050565b610863610f39565b61088257604051631564c0e160e11b81523360048201526024016106f2565b60068190556040518181527ffbe2d5c01ea8ba5596d6c4e6c82c6d4a0a0ee1128689993a4a5ba0169273d69f906020015b60405180910390a150565b5f61093a60095f9054906101000a90046001600160a01b03166001600160a01b031663117d8ae06040518163ffffffff1660e01b81526004016020604051808303815f875af1158015610913573d5f803e3d5ffd5b505050506040513d601f19601f8201168201806040525081019061093791906118af565b50565b6109458484846111df565b90505b9392505050565b60028054600354600454600554600654600754600880546001600160a01b0397881698968816979095169593949293919261098990611877565b80601f01602080910402602001604051908101604052809291908181526020018280546109b590611877565b8015610a005780601f106109d757610100808354040283529160200191610a00565b820191905f5260205f20905b8154815290600101906020018083116109e357829003601f168201915b5050505050905087565b5f5460408051630ccc574960e41b815290516001600160a01b03909216916391d1485491839163ccc57490916004808201926020929091908290030181865afa158015610a59573d5f803e3d5ffd5b505050506040513d601f19601f82011682018060405250810190610a7d9190611860565b6040516001600160e01b031960e084901b1681526004810191909152336024820152604401602060405180830381865afa158015610abd573d5f803e3d5ffd5b505050506040513d601f19601f82011682018060405250810190610ae191906118ca565b610b0057604051630ea7d7ed60e21b81523360048201526024016106f2565b610b0981611309565b5f54604080516345b817bb60e01b81529051610b7b926001600160a01b0316916345b817bb9160048083019260209291908290030181865afa158015610b51573d5f803e3d5ffd5b505050506040513d601f19601f82011682018060405250810190610b759190611860565b826110fd565b5050565b610b87610f39565b610ba657604051631564c0e160e11b81523360048201526024016106f2565b60058190556040518181527f333b26cca69716ad4680ddb07663f5bfb4f06045671f336af9a83690a3ae00f9906020016108b3565b5f9182526001602090815260408084206001600160a01b0393909316845291905290205460ff1690565b610c0d610f39565b610c2c57604051631564c0e160e11b81523360048201526024016106f2565b60078190556040518181527fb6ac66853c4e59c71e118d25ab494bb847c4e5eb0c8894898c5343e6f61afc12906020016108b3565b5f5460408051630ccc574960e41b815290516001600160a01b03909216916391d1485491839163ccc57490916004808201926020929091908290030181865afa158015610cb0573d5f803e3d5ffd5b505050506040513d601f19601f82011682018060405250810190610cd49190611860565b6040516001600160e01b031960e084901b1681526004810191909152336024820152604401602060405180830381865afa158015610d14573d5f803e3d5ffd5b505050506040513d601f19601f82011682018060405250810190610d3891906118ca565b610d5757604051630ea7d7ed60e21b81523360048201526024016106f2565b610d608161139c565b5f54604080516345b817bb60e01b81529051610b7b926001600160a01b0316916345b817bb9160048083019260209291908290030181865afa158015610da8573d5f803e3d5ffd5b505050506040513d601f19601f82011682018060405250810190610dcc9190611860565b826114de565b604051636344978560e11b81523360048201526024016106f2565b610df5610f39565b610e1457604051631564c0e160e11b81523360048201526024016106f2565b610e1d8261116f565b6004805460405163095ea7b360e01b81526001600160a01b03848116938201939093526024810185905291169063095ea7b3906044016020604051808303815f875af1158015610e6f573d5f803e3d5ffd5b505050506040513d601f19601f82011682018060405250810190610e9391906118ca565b506040516328ed6e3f60e01b8152600481018390526001600160a01b038216906328ed6e3f906024015f604051808303815f87803b158015610ed3575f80fd5b505af1158015610ee5573d5f803e3d5ffd5b5050600454604080516001600160a01b0392831681526020810187905291851693503092507f9f784fc02a186f1c98b2d9f15fda084da27cdd291a3785d978f91911d880516b910160405180910390a35050565b5f8054604080516345b817bb60e01b815290516104fa926001600160a01b0316916345b817bb9160048083019260209291908290030181865afa158015610f82573d5f803e3d5ffd5b505050506040513d601f19601f82011682018060405250810190610fa69190611860565b33610bdb565b6040516001600160a01b0384811660248301528381166044830152606482018390526110139186918216906323b872dd906084015b604051602081830303815290604052915060e01b6020820180516001600160e01b03838183161783525050505061154d565b50505050565b60048054600a5460405163095ea7b360e01b81526001600160a01b039182169381019390935260248301849052169063095ea7b3906044016020604051808303815f875af115801561106d573d5f803e3d5ffd5b505050506040513d601f19601f8201168201806040525081019061109191906118ca565b50600a5460048054604051631e573fb760e31b81526001600160a01b0391821692810192909252602482018490529091169063f2b9fdb8906044015b5f604051808303815f87803b1580156110e4575f80fd5b505af11580156110f6573d5f803e3d5ffd5b5050505050565b5f6111088383610bdb565b15611168575f8381526001602090815260408083206001600160a01b0386168085529252808320805460ff1916905551339286917ff6391f5c32d9c69d2a47ea670b442974b53935d1edc7fd64eb21e047a839171b9190a450600161052f565b505f61052f565b600a546004805460405163f3fef3a360e01b81526001600160a01b0391821692810192909252602482018490529091169063f3fef3a3906044016110cd565b6040516001600160a01b038381166024830152604482018390526107c091859182169063a9059cbb90606401610fe1565b600b54600a54604051635b81a7bf60e11b81526001600160a01b039182166004820152306024820152600160448201525f92919091169063b7034f7e906064015f604051808303815f87803b158015611236575f80fd5b505af1158015611248573d5f803e3d5ffd5b50506040516370a0823160e01b81523060048201526001600160a01b03871692506370a082319150602401602060405180830381865afa15801561128e573d5f803e3d5ffd5b505050506040513d601f19601f820116820180604052508101906112b29190611860565b6003549091506112cf906001600160a01b038681169116836111ae565b6040518181527f8e55ccfc9778ff8eba1646d765cf1982537ce0f9257054a17b48aad7452501839060200160405180910390a19392505050565b5f306001600160a01b03166301e1d1146040518163ffffffff1660e01b8152600401602060405180830381865afa158015611346573d5f803e3d5ffd5b505050506040513d601f19601f8201168201806040525081019061136a9190611860565b1115611389576040516373a075f360e01b815260040160405180910390fd5b50600280546001600160a01b0319169055565b5f5460408051630ccc574960e41b815290516001600160a01b03909216916391d1485491839163ccc57490916004808201926020929091908290030181865afa1580156113eb573d5f803e3d5ffd5b505050506040513d601f19601f8201168201806040525081019061140f9190611860565b6040516001600160e01b031960e084901b1681526004810191909152336024820152604401602060405180830381865afa15801561144f573d5f803e3d5ffd5b505050506040513d601f19601f8201168201806040525081019061147391906118ca565b61149257604051630ea7d7ed60e21b81523360048201526024016106f2565b6002546001600160a01b0316156114bc5760405163d32184ed60e01b815260040160405180910390fd5b600280546001600160a01b0319166001600160a01b0392909216919091179055565b5f6114e98383610bdb565b611168575f8381526001602081815260408084206001600160a01b0387168086529252808420805460ff19169093179092559051339286917f2f8788117e7eff1d82e926ec794901d17c78024a50270940304540a733656f0d9190a450600161052f565b5f6115616001600160a01b038416836115ae565b905080515f1415801561158557508080602001905181019061158391906118ca565b155b156107c057604051635274afe760e01b81526001600160a01b03841660048201526024016106f2565b606061094883835f845f80856001600160a01b031684866040516115d291906118e9565b5f6040518083038185875af1925050503d805f811461160c576040519150601f19603f3d011682016040523d82523d5f602084013e611611565b606091505b509150915061162186838361162b565b9695505050505050565b6060826116405761163b82611687565b610948565b815115801561165757506001600160a01b0384163b155b1561168057604051639996b31560e01b81526001600160a01b03851660048201526024016106f2565b5080610948565b8051156116975780518082602001fd5b604051630a12f52160e11b815260040160405180910390fd5b5f602082840312156116c0575f80fd5b81356001600160e01b031981168114610948575f80fd5b5f81518084528060208401602086015e5f602082860101526020601f19601f83011685010191505092915050565b602081525f61094860208301846116d7565b5f60208284031215611727575f80fd5b5035919050565b6001600160a01b0381168114610937575f80fd5b5f8060408385031215611753575f80fd5b8235915060208301356117658161172e565b809150509250929050565b5f805f60408486031215611782575f80fd5b833561178d8161172e565b9250602084013567ffffffffffffffff8111156117a8575f80fd5b8401601f810186136117b8575f80fd5b803567ffffffffffffffff8111156117ce575f80fd5b8660208284010111156117df575f80fd5b939660209190910195509293505050565b6001600160a01b038881168252878116602083015286166040820152606081018590526080810184905260a0810183905260e060c082018190525f90611838908301846116d7565b9998505050505050505050565b5f60208284031215611855575f80fd5b81356109488161172e565b5f60208284031215611870575f80fd5b5051919050565b600181811c9082168061188b57607f821691505b6020821081036118a957634e487b7160e01b5f52602260045260245ffd5b50919050565b5f602082840312156118bf575f80fd5b81516109488161172e565b5f602082840312156118da575f80fd5b81518015158114610948575f80fd5b5f82518060208501845e5f92019182525091905056fea26469706673582212201e67401130514f01e8a97337a2c9a4c00129924baf64daf7e41c04e38b2fbcdd64736f6c634300081a0033","linkReferences":{}},"methodIdentifiers":{"DEFAULT_ADMIN_ROLE()":"a217fddf","MAX_UINT256()":"33a581d2","RAY()":"552033c4","SECONDS_PER_DAY()":"74f0314f","SECONDS_PER_YEAR()":"e6a69ab8","WAD()":"6a146024","WAD_TO_RAY()":"163c8381","board(uint256)":"28ed6e3f","comet()":"ba3e9c12","cometRewards()":"32315972","commander()":"37270936","config()":"79502c55","depositCap()":"dbd5edc7","disembark(uint256)":"4dd47eba","getRoleAdmin(bytes32)":"248a9ca3","grantCommanderRole(address)":"9403e41f","grantRole(bytes32,address)":"2f2ff15d","harvest(address,bytes)":"7399bfe8","hasRole(bytes32,address)":"91d14854","manager()":"481c6a75","maxRebalanceInflow()":"ad5a356f","maxRebalanceOutflow()":"3194549e","move(uint256,address)":"d8a8e03a","name()":"06fdde03","poke()":"18178358","raft()":"117d8ae0","rate()":"2c4e722e","renounceRole(bytes32,address)":"36568abe","revokeCommanderRole(address)":"81d3ce26","revokeRole(bytes32,address)":"d547741f","setDepositCap(uint256)":"86651203","setMaxRebalanceInflow(uint256)":"92f5e832","setMaxRebalanceOutflow(uint256)":"61f5cd8b","supportsInterface(bytes4)":"01ffc9a7","token()":"fc0c546a","totalAssets()":"01e1d114"},"id":147}