{"abi":[{"type":"constructor","inputs":[{"name":"_comet","type":"address","internalType":"address"},{"name":"_cometRewards","type":"address","internalType":"address"},{"name":"_params","type":"tuple","internalType":"struct ArkParams","components":[{"name":"name","type":"string","internalType":"string"},{"name":"accessManager","type":"address","internalType":"address"},{"name":"configurationManager","type":"address","internalType":"address"},{"name":"token","type":"address","internalType":"address"},{"name":"depositCap","type":"uint256","internalType":"uint256"},{"name":"maxRebalanceOutflow","type":"uint256","internalType":"uint256"},{"name":"maxRebalanceInflow","type":"uint256","internalType":"uint256"},{"name":"requiresKeeperData","type":"bool","internalType":"bool"}]}],"stateMutability":"nonpayable"},{"type":"function","name":"board","inputs":[{"name":"amount","type":"uint256","internalType":"uint256"},{"name":"boardData","type":"bytes","internalType":"bytes"}],"outputs":[],"stateMutability":"nonpayable"},{"type":"function","name":"comet","inputs":[],"outputs":[{"name":"","type":"address","internalType":"contract IComet"}],"stateMutability":"view"},{"type":"function","name":"cometRewards","inputs":[],"outputs":[{"name":"","type":"address","internalType":"contract ICometRewards"}],"stateMutability":"view"},{"type":"function","name":"commander","inputs":[],"outputs":[{"name":"","type":"address","internalType":"address"}],"stateMutability":"view"},{"type":"function","name":"config","inputs":[],"outputs":[{"name":"commander","type":"address","internalType":"address"},{"name":"raft","type":"address","internalType":"address"},{"name":"token","type":"address","internalType":"contract IERC20"},{"name":"depositCap","type":"uint256","internalType":"uint256"},{"name":"maxRebalanceOutflow","type":"uint256","internalType":"uint256"},{"name":"maxRebalanceInflow","type":"uint256","internalType":"uint256"},{"name":"name","type":"string","internalType":"string"},{"name":"requiresKeeperData","type":"bool","internalType":"bool"}],"stateMutability":"view"},{"type":"function","name":"configurationManager","inputs":[],"outputs":[{"name":"","type":"address","internalType":"contract IConfigurationManager"}],"stateMutability":"view"},{"type":"function","name":"depositCap","inputs":[],"outputs":[{"name":"","type":"uint256","internalType":"uint256"}],"stateMutability":"view"},{"type":"function","name":"disembark","inputs":[{"name":"amount","type":"uint256","internalType":"uint256"},{"name":"disembarkData","type":"bytes","internalType":"bytes"}],"outputs":[],"stateMutability":"nonpayable"},{"type":"function","name":"generateRole","inputs":[{"name":"roleName","type":"uint8","internalType":"enum ContractSpecificRoles"},{"name":"roleTargetContract","type":"address","internalType":"address"}],"outputs":[{"name":"","type":"bytes32","internalType":"bytes32"}],"stateMutability":"pure"},{"type":"function","name":"getConfig","inputs":[],"outputs":[{"name":"","type":"tuple","internalType":"struct ArkConfig","components":[{"name":"commander","type":"address","internalType":"address"},{"name":"raft","type":"address","internalType":"address"},{"name":"token","type":"address","internalType":"contract IERC20"},{"name":"depositCap","type":"uint256","internalType":"uint256"},{"name":"maxRebalanceOutflow","type":"uint256","internalType":"uint256"},{"name":"maxRebalanceInflow","type":"uint256","internalType":"uint256"},{"name":"name","type":"string","internalType":"string"},{"name":"requiresKeeperData","type":"bool","internalType":"bool"}]}],"stateMutability":"view"},{"type":"function","name":"harborCommand","inputs":[],"outputs":[{"name":"","type":"address","internalType":"address"}],"stateMutability":"view"},{"type":"function","name":"harvest","inputs":[{"name":"additionalData","type":"bytes","internalType":"bytes"}],"outputs":[{"name":"rewardTokens","type":"address[]","internalType":"address[]"},{"name":"rewardAmounts","type":"uint256[]","internalType":"uint256[]"}],"stateMutability":"nonpayable"},{"type":"function","name":"maxRebalanceInflow","inputs":[],"outputs":[{"name":"","type":"uint256","internalType":"uint256"}],"stateMutability":"view"},{"type":"function","name":"maxRebalanceOutflow","inputs":[],"outputs":[{"name":"","type":"uint256","internalType":"uint256"}],"stateMutability":"view"},{"type":"function","name":"move","inputs":[{"name":"amount","type":"uint256","internalType":"uint256"},{"name":"receiverArk","type":"address","internalType":"address"},{"name":"boardData","type":"bytes","internalType":"bytes"},{"name":"disembarkData","type":"bytes","internalType":"bytes"}],"outputs":[],"stateMutability":"nonpayable"},{"type":"function","name":"name","inputs":[],"outputs":[{"name":"","type":"string","internalType":"string"}],"stateMutability":"view"},{"type":"function","name":"raft","inputs":[],"outputs":[{"name":"","type":"address","internalType":"address"}],"stateMutability":"view"},{"type":"function","name":"registerFleetCommander","inputs":[],"outputs":[],"stateMutability":"nonpayable"},{"type":"function","name":"requiresKeeperData","inputs":[],"outputs":[{"name":"","type":"bool","internalType":"bool"}],"stateMutability":"view"},{"type":"function","name":"setDepositCap","inputs":[{"name":"newDepositCap","type":"uint256","internalType":"uint256"}],"outputs":[],"stateMutability":"nonpayable"},{"type":"function","name":"setMaxRebalanceInflow","inputs":[{"name":"newMaxRebalanceInflow","type":"uint256","internalType":"uint256"}],"outputs":[],"stateMutability":"nonpayable"},{"type":"function","name":"setMaxRebalanceOutflow","inputs":[{"name":"newMaxRebalanceOutflow","type":"uint256","internalType":"uint256"}],"outputs":[],"stateMutability":"nonpayable"},{"type":"function","name":"sweep","inputs":[{"name":"tokens","type":"address[]","internalType":"address[]"}],"outputs":[{"name":"sweptTokens","type":"address[]","internalType":"address[]"},{"name":"sweptAmounts","type":"uint256[]","internalType":"uint256[]"}],"stateMutability":"nonpayable"},{"type":"function","name":"tipJar","inputs":[],"outputs":[{"name":"","type":"address","internalType":"address"}],"stateMutability":"view"},{"type":"function","name":"token","inputs":[],"outputs":[{"name":"","type":"address","internalType":"contract IERC20"}],"stateMutability":"view"},{"type":"function","name":"totalAssets","inputs":[],"outputs":[{"name":"suppliedAssets","type":"uint256","internalType":"uint256"}],"stateMutability":"view"},{"type":"function","name":"treasury","inputs":[],"outputs":[{"name":"","type":"address","internalType":"address"}],"stateMutability":"view"},{"type":"function","name":"unregisterFleetCommander","inputs":[],"outputs":[],"stateMutability":"nonpayable"},{"type":"event","name":"ArkHarvested","inputs":[{"name":"rewardTokens","type":"address[]","indexed":true,"internalType":"address[]"},{"name":"rewardAmounts","type":"uint256[]","indexed":true,"internalType":"uint256[]"}],"anonymous":false},{"type":"event","name":"ArkPoked","inputs":[{"name":"currentPrice","type":"uint256","indexed":false,"internalType":"uint256"},{"name":"timestamp","type":"uint256","indexed":false,"internalType":"uint256"}],"anonymous":false},{"type":"event","name":"ArkSwept","inputs":[{"name":"sweptTokens","type":"address[]","indexed":true,"internalType":"address[]"},{"name":"sweptAmounts","type":"uint256[]","indexed":true,"internalType":"uint256[]"}],"anonymous":false},{"type":"event","name":"Boarded","inputs":[{"name":"commander","type":"address","indexed":true,"internalType":"address"},{"name":"token","type":"address","indexed":false,"internalType":"address"},{"name":"amount","type":"uint256","indexed":false,"internalType":"uint256"}],"anonymous":false},{"type":"event","name":"DepositCapUpdated","inputs":[{"name":"newCap","type":"uint256","indexed":false,"internalType":"uint256"}],"anonymous":false},{"type":"event","name":"Disembarked","inputs":[{"name":"commander","type":"address","indexed":true,"internalType":"address"},{"name":"token","type":"address","indexed":false,"internalType":"address"},{"name":"amount","type":"uint256","indexed":false,"internalType":"uint256"}],"anonymous":false},{"type":"event","name":"FleetCommanderRegistered","inputs":[{"name":"commander","type":"address","indexed":false,"internalType":"address"}],"anonymous":false},{"type":"event","name":"FleetCommanderUnregistered","inputs":[{"name":"commander","type":"address","indexed":false,"internalType":"address"}],"anonymous":false},{"type":"event","name":"MaxRebalanceInflowUpdated","inputs":[{"name":"newMaxInflow","type":"uint256","indexed":false,"internalType":"uint256"}],"anonymous":false},{"type":"event","name":"MaxRebalanceOutflowUpdated","inputs":[{"name":"newMaxOutflow","type":"uint256","indexed":false,"internalType":"uint256"}],"anonymous":false},{"type":"event","name":"Moved","inputs":[{"name":"from","type":"address","indexed":true,"internalType":"address"},{"name":"to","type":"address","indexed":true,"internalType":"address"},{"name":"token","type":"address","indexed":false,"internalType":"address"},{"name":"amount","type":"uint256","indexed":false,"internalType":"uint256"}],"anonymous":false},{"type":"event","name":"RaftUpdated","inputs":[{"name":"newRaft","type":"address","indexed":false,"internalType":"address"}],"anonymous":false},{"type":"error","name":"CallerIsNotAdmin","inputs":[{"name":"caller","type":"address","internalType":"address"}]},{"type":"error","name":"CallerIsNotAuthorizedToBoard","inputs":[{"name":"caller","type":"address","internalType":"address"}]},{"type":"error","name":"CallerIsNotCommander","inputs":[{"name":"caller","type":"address","internalType":"address"}]},{"type":"error","name":"CallerIsNotContractSpecificRole","inputs":[{"name":"caller","type":"address","internalType":"address"},{"name":"role","type":"bytes32","internalType":"bytes32"}]},{"type":"error","name":"CallerIsNotCurator","inputs":[{"name":"caller","type":"address","internalType":"address"}]},{"type":"error","name":"CallerIsNotGovernor","inputs":[{"name":"caller","type":"address","internalType":"address"}]},{"type":"error","name":"CallerIsNotGuardian","inputs":[{"name":"caller","type":"address","internalType":"address"}]},{"type":"error","name":"CallerIsNotGuardianOrGovernor","inputs":[{"name":"caller","type":"address","internalType":"address"}]},{"type":"error","name":"CallerIsNotKeeper","inputs":[{"name":"caller","type":"address","internalType":"address"}]},{"type":"error","name":"CallerIsNotRaft","inputs":[{"name":"caller","type":"address","internalType":"address"}]},{"type":"error","name":"CallerIsNotRaftOrCommander","inputs":[{"name":"caller","type":"address","internalType":"address"}]},{"type":"error","name":"CallerIsNotSuperKeeper","inputs":[{"name":"caller","type":"address","internalType":"address"}]},{"type":"error","name":"CannotAddCommanderToArkWithCommander","inputs":[]},{"type":"error","name":"CannotDeployArkWithEmptyName","inputs":[]},{"type":"error","name":"CannotDeployArkWithoutConfigurationManager","inputs":[]},{"type":"error","name":"CannotDeployArkWithoutRaft","inputs":[]},{"type":"error","name":"CannotDeployArkWithoutToken","inputs":[]},{"type":"error","name":"CannotRemoveCommanderFromArkWithAssets","inputs":[]},{"type":"error","name":"CannotUseKeeperDataWhenNotRequired","inputs":[]},{"type":"error","name":"ConfigurationManagerZeroAddress","inputs":[]},{"type":"error","name":"DirectGrantIsDisabled","inputs":[{"name":"caller","type":"address","internalType":"address"}]},{"type":"error","name":"DirectRevokeIsDisabled","inputs":[{"name":"caller","type":"address","internalType":"address"}]},{"type":"error","name":"ERC4626AssetMismatch","inputs":[]},{"type":"error","name":"InvalidAccessManagerAddress","inputs":[{"name":"invalidAddress","type":"address","internalType":"address"}]},{"type":"error","name":"InvalidBoardData","inputs":[]},{"type":"error","name":"InvalidDisembarkData","inputs":[]},{"type":"error","name":"InvalidVaultAddress","inputs":[]},{"type":"error","name":"KeeperDataRequired","inputs":[]},{"type":"error","name":"SafeERC20FailedOperation","inputs":[{"name":"token","type":"address","internalType":"address"}]}],"bytecode":{"object":"0x60a060405234801561000f575f5ffd5b506040516126cf3803806126cf83398101604081905261002e91610471565b6040810151602082015182918291806001600160a01b03811661006b576040516347bd7c1d60e01b81525f60048201526024015b60405180910390fd5b6040516301ffc9a760e01b815263a237592160e01b60048201526001600160a01b038216906301ffc9a790602401602060405180830381865afa1580156100b4573d5f5f3e3d5ffd5b505050506040513d601f19601f820116820180604052508101906100d89190610561565b610100576040516347bd7c1d60e01b81526001600160a01b0382166004820152602401610062565b5f80546001600160a01b0319166001600160a01b039283161790558216905061013c5760405163f1634df960e01b815260040160405180910390fd5b6001600160a01b0390811660805260408201511661016d5760405163b53c493160e01b815260040160405180910390fd5b60608101516001600160a01b031661019b576040516001620a810f60e11b0319815260040160405180910390fd5b8051515f036101bd5760405163268c072960e01b815260040160405180910390fd5b5f6101c6610319565b6001600160a01b0316036101ed57604051633a4f9cdb60e21b815260040160405180910390fd5b6040805161010081019091525f815260208101610208610319565b6001600160a01b039081168252606080850151821660208085019190915260808087015160408087019190915260a0808901518588015260c0808a01518489015289518289015260e08a01511515978101979097528751600180549188166001600160a01b03199283161781559489015160028054918916918316919091179055918801516003805491909716921691909117909455918501516004559084015160055590830151600655908201516007906102c49082610605565b5060e091909101516007909101805460ff19169115159190911790555050600980546001600160a01b03199081166001600160a01b0395861617909155600a80549091169290931691909117909155506106d8565b5f6080516001600160a01b031663117d8ae06040518163ffffffff1660e01b8152600401602060405180830381865afa158015610358573d5f5f3e3d5ffd5b505050506040513d601f19601f8201168201806040525081019061037c91906106bf565b905090565b80516001600160a01b0381168114610397575f5ffd5b919050565b634e487b7160e01b5f52604160045260245ffd5b60405161010081016001600160401b03811182821017156103d3576103d361039c565b60405290565b5f82601f8301126103e8575f5ffd5b81516001600160401b038111156104015761040161039c565b604051601f8201601f19908116603f011681016001600160401b038111828210171561042f5761042f61039c565b604052818152838201602001851015610446575f5ffd5b8160208501602083015e5f918101602001919091529392505050565b80518015158114610397575f5ffd5b5f5f5f60608486031215610483575f5ffd5b61048c84610381565b925061049a60208501610381565b60408501519092506001600160401b038111156104b5575f5ffd5b840161010081870312156104c7575f5ffd5b6104cf6103b0565b81516001600160401b038111156104e4575f5ffd5b6104f0888285016103d9565b8252506104ff60208301610381565b602082015261051060408301610381565b604082015261052160608301610381565b60608201526080828101519082015260a0808301519082015260c0808301519082015261055060e08301610462565b60e082015280925050509250925092565b5f60208284031215610571575f5ffd5b61057a82610462565b9392505050565b600181811c9082168061059557607f821691505b6020821081036105b357634e487b7160e01b5f52602260045260245ffd5b50919050565b601f82111561060057805f5260205f20601f840160051c810160208510156105de5750805b601f840160051c820191505b818110156105fd575f81556001016105ea565b50505b505050565b81516001600160401b0381111561061e5761061e61039c565b6106328161062c8454610581565b846105b9565b6020601f821160018114610664575f831561064d5750848201515b5f19600385901b1c1916600184901b1784556105fd565b5f84815260208120601f198516915b828110156106935787850151825560209485019460019092019101610673565b50848210156106b057868401515f19600387901b60f8161c191681555b50505050600190811b01905550565b5f602082840312156106cf575f5ffd5b61057a82610381565b608051611fc361070c5f395f818161036a015281816104c50152818161080a015281816108670152610ebb0152611fc35ff3fe608060405234801561000f575f5ffd5b50600436106101bb575f3560e01c806379502c55116100f3578063c38a6f0b11610093578063ce5c7f611161006e578063ce5c7f611461038c578063dbd5edc71461039f578063ebf31131146103a7578063fc0c546a146103af575f5ffd5b8063c38a6f0b1461033d578063c3f909d414610350578063c9c667e314610365575f5ffd5b80638a8b9976116100ce5780638a8b99761461030757806392f5e8321461030f578063ad5a356f14610322578063ba3e9c121461032a575f5ffd5b806379502c55146102d05780637aaceb95146102ec57806386651203146102f4575f5ffd5b8063323159721161015e57806361d027b31161013957806361d027b31461028157806361f5cd8b1461028957806369b3054b1461029c578063780469bb146102af575f5ffd5b8063323159721461025557806337270936146102685780635b0f83f314610279575f5ffd5b806313c408f81161019957806313c408f81461020f5780632db6d39914610224578063303dbaf3146102375780633194549e1461024d575f5ffd5b806301e1d114146101bf57806306fdde03146101da578063117d8ae0146101ef575b5f5ffd5b6101c76103c0565b6040519081526020015b60405180910390f35b6101e261042f565b6040516101d19190611908565b6101f76104c2565b6040516001600160a01b0390911681526020016101d1565b61022261021d366004611966565b610543565b005b610222610232366004611966565b6105fc565b60085460ff1660405190151581526020016101d1565b6005546101c7565b600a546101f7906001600160a01b031681565b6001546001600160a01b03166101f7565b6101f7610807565b6101f7610864565b6102226102973660046119ae565b6108c1565b6101c76102aa3660046119dc565b61090f565b6102c26102bd366004611a5b565b610941565b6040516101d1929190611b0f565b6102d8610df4565b6040516101d1989796959493929190611b98565b6101f7610eb8565b6102226103023660046119ae565b610f15565b610222610f5c565b61022261031d3660046119ae565b610fb9565b6006546101c7565b6009546101f7906001600160a01b031681565b61022261034b366004611bf8565b611000565b610358611151565b6040516101d19190611c83565b6101f77f000000000000000000000000000000000000000000000000000000000000000081565b6102c261039a366004611d19565b611285565b6004546101c7565b61022261136f565b6003546001600160a01b03166101f7565b6009546040516370a0823160e01b81523060048201525f916001600160a01b0316906370a0823190602401602060405180830381865afa158015610406573d5f5f3e3d5ffd5b505050506040513d601f19601f8201168201806040525081019061042a9190611d58565b905090565b60606001600601805461044190611d6f565b80601f016020809104026020016040519081016040528092919081815260200182805461046d90611d6f565b80156104b85780601f1061048f576101008083540402835291602001916104b8565b820191905f5260205f20905b81548152906001019060200180831161049b57829003601f168201915b5050505050905090565b5f7f00000000000000000000000000000000000000000000000000000000000000006001600160a01b031663117d8ae06040518163ffffffff1660e01b8152600401602060405180830381865afa15801561051f573d5f5f3e3d5ffd5b505050506040513d601f19601f8201168201806040525081019061042a9190611da7565b61054b6113c1565b61057b57335b604051631564c0e160e11b81526001600160a01b0390911660048201526024015b60405180910390fd5b8181610587828261144a565b336105938686866114ac565b6003546105aa906001600160a01b03168288611515565b600354604080516001600160a01b03928316815260208101899052918316917fd5e872c5ecfb1bb8820b2e6a20e31b883682282da886621541f71e31ec11947e910160405180910390a2505050505050565b306001600160a01b031663372709366040518163ffffffff1660e01b8152600401602060405180830381865afa158015610638573d5f5f3e3d5ffd5b505050506040513d601f19601f8201168201806040525081019061065c9190611da7565b6106646113c1565b610783575f3390505f306001600160a01b031663117d8ae06040518163ffffffff1660e01b8152600401602060405180830381865afa1580156106a9573d5f5f3e3d5ffd5b505050506040513d601f19601f820116820180604052508101906106cd9190611da7565b6001600160a01b0316826001600160a01b0316149050806107805760405163d25dd10160e01b81526001600160a01b0383811660048301525f919085169063d25dd10190602401602060405180830381865afa15801561072f573d5f5f3e3d5ffd5b505050506040513d601f19601f820116820180604052508101906107539190611dc2565b90508061077e57604051638f7a567d60e01b81526001600160a01b0384166004820152602401610572565b505b50505b828261078f828261144a565b60035433906107a9906001600160a01b031682308a611579565b6107b48787876115b8565b600354604080516001600160a01b039283168152602081018a9052918316917fcbaa1442ac205415c9d69643e7b60ec73d1de35dbc807c21ec288c70ddc4207b910160405180910390a250505050505050565b5f7f00000000000000000000000000000000000000000000000000000000000000006001600160a01b0316635b0f83f36040518163ffffffff1660e01b8152600401602060405180830381865afa15801561051f573d5f5f3e3d5ffd5b5f7f00000000000000000000000000000000000000000000000000000000000000006001600160a01b03166361d027b36040518163ffffffff1660e01b8152600401602060405180830381865afa15801561051f573d5f5f3e3d5ffd5b6108c96113c1565b6108d35733610551565b60058190556040518181527ffbe2d5c01ea8ba5596d6c4e6c82c6d4a0a0ee1128689993a4a5ba0169273d69f906020015b60405180910390a150565b5f8282604051602001610923929190611de1565b60405160208183030381529060405280519060200120905092915050565b606080306001600160a01b031663117d8ae06040518163ffffffff1660e01b8152600401602060405180830381865afa158015610980573d5f5f3e3d5ffd5b505050506040513d601f19601f820116820180604052508101906109a49190611da7565b6001600160a01b0316336001600160a01b0316146109e357335b604051631184b31b60e21b81526001600160a01b039091166004820152602401610572565b825167ffffffffffffffff8111156109fd576109fd611a16565b604051908082528060200260200182016040528015610a26578160200160208202803683370190505b509150825167ffffffffffffffff811115610a4357610a43611a16565b604051908082528060200260200182016040528015610a6c578160200160208202803683370190505b506003546040516370a0823160e01b81523060048201529192505f916001600160a01b03909116906370a0823190602401602060405180830381865afa158015610ab8573d5f5f3e3d5ffd5b505050506040513d601f19601f82011682018060405250810190610adc9190611d58565b1115610bcd57600154604080516330fe427560e21b81529051610bcd926001600160a01b03169163c3f909d49160048083019260809291908290030181865afa158015610b2b573d5f5f3e3d5ffd5b505050506040513d601f19601f82011682018060405250810190610b4f9190611e24565b516003546040516370a0823160e01b81523060048201526001600160a01b03909116906370a0823190602401602060405180830381865afa158015610b96573d5f5f3e3d5ffd5b505050506040513d601f19601f82011682018060405250810190610bba9190611d58565b6003546001600160a01b03169190611515565b5f5b8351811015610d9b575f848281518110610beb57610beb611e90565b60209081029190910101516040516370a0823160e01b81523060048201526001600160a01b03909116906370a0823190602401602060405180830381865afa158015610c39573d5f5f3e3d5ffd5b505050506040513d601f19601f82011682018060405250810190610c5d9190611d58565b90508015610d9257610d26610c706104c2565b868481518110610c8257610c82611e90565b60209081029190910101516040516370a0823160e01b81523060048201526001600160a01b03909116906370a0823190602401602060405180830381865afa158015610cd0573d5f5f3e3d5ffd5b505050506040513d601f19601f82011682018060405250810190610cf49190611d58565b878581518110610d0657610d06611e90565b60200260200101516001600160a01b03166115159092919063ffffffff16565b848281518110610d3857610d38611e90565b6020026020010151848381518110610d5257610d52611e90565b60200260200101906001600160a01b031690816001600160a01b03168152505080838381518110610d8557610d85611e90565b6020026020010181815250505b50600101610bcf565b5080604051610daa9190611ea4565b604051809103902082604051610dc09190611ed9565b604051908190038120907f46b8771620f6acf56cb03d3e835ea8024c7dcbcf05fcc3f6ade9e19d1a3e212b905f90a3915091565b60018054600254600354600454600554600654600780546001600160a01b03978816989688169790951695939492939192610e2e90611d6f565b80601f0160208091040260200160405190810160405280929190818152602001828054610e5a90611d6f565b8015610ea55780601f10610e7c57610100808354040283529160200191610ea5565b820191905f5260205f20905b815481529060010190602001808311610e8857829003601f168201915b5050506007909301549192505060ff1688565b5f7f00000000000000000000000000000000000000000000000000000000000000006001600160a01b0316637aaceb956040518163ffffffff1660e01b8152600401602060405180830381865afa15801561051f573d5f5f3e3d5ffd5b610f1d6113c1565b610f275733610551565b60048190556040518181527f333b26cca69716ad4680ddb07663f5bfb4f06045671f336af9a83690a3ae00f990602001610904565b610f646113c1565b610f6e5733610551565b600180546001600160a01b031916339081179091556040519081527f55489ce0259bd691120d8860861be1c401c7c16a3cd268d21045756af4ecc5ca906020015b60405180910390a1565b610fc16113c1565b610fcb5733610551565b60068190556040518181527fb6ac66853c4e59c71e118d25ab494bb847c4e5eb0c8894898c5343e6f61afc1290602001610904565b6110086113c1565b6110125733610551565b818161101e828261144a565b6110298885856114ac565b60035460405163095ea7b360e01b81526001600160a01b038981166004830152602482018b90529091169063095ea7b3906044016020604051808303815f875af1158015611079573d5f5f3e3d5ffd5b505050506040513d601f19601f8201168201806040525081019061109d9190611dc2565b50604051632db6d39960e01b81526001600160a01b03881690632db6d399906110ce908b908a908a90600401611f0c565b5f604051808303815f87803b1580156110e5575f5ffd5b505af11580156110f7573d5f5f3e3d5ffd5b5050600354604080516001600160a01b039283168152602081018d9052918b1693503092507f9f784fc02a186f1c98b2d9f15fda084da27cdd291a3785d978f91911d880516b910160405180910390a35050505050505050565b60408051610100810182525f8082526020820181905291810182905260608082018390526080820183905260a0820183905260c082015260e08101919091526040805161010081018252600180546001600160a01b0390811683526002548116602084015260035416928201929092526004546060820152600554608082015260065460a08201526007805491929160c0840191906111ef90611d6f565b80601f016020809104026020016040519081016040528092919081815260200182805461121b90611d6f565b80156112665780601f1061123d57610100808354040283529160200191611266565b820191905f5260205f20905b81548152906001019060200180831161124957829003601f168201915b50505091835250506007919091015460ff161515602090910152919050565b606080306001600160a01b031663117d8ae06040518163ffffffff1660e01b8152600401602060405180830381865afa1580156112c4573d5f5f3e3d5ffd5b505050506040513d601f19601f820116820180604052508101906112e89190611da7565b6001600160a01b0316336001600160a01b03161461130657336109be565b611310848461166a565b6040519193509150611323908290611ea4565b6040518091039020826040516113399190611ed9565b604051908190038120907f3e3e7958121b3e39c7a49392d1aa9cdce870c2a059744f9e15cf66fff7865455905f90a39250929050565b6113776113c1565b6113815733610551565b600180546001600160a01b03191690556040513381527f7cb941d7b1708e5b3bcd35ca960d6c6311188cec18886e5b67630552676b048790602001610faf565b5f80546001600160a01b03166391d148546113dd60023061090f565b336040516001600160e01b031960e085901b16815260048101929092526001600160a01b03166024820152604401602060405180830381865afa158015611426573d5f5f3e3d5ffd5b505050506040513d601f19601f8201168201806040525081019061042a9190611dc2565b801580159061145c575060085460ff16155b1561147a57604051630cd0fdf960e01b815260040160405180910390fd5b8015801561148a575060085460ff165b156114a85760405163332863a960e11b815260040160405180910390fd5b5050565b60095460035460405163f3fef3a360e01b81526001600160a01b0391821660048201526024810186905291169063f3fef3a3906044015b5f604051808303815f87803b1580156114fa575f5ffd5b505af115801561150c573d5f5f3e3d5ffd5b50505050505050565b6040516001600160a01b0383811660248301526044820183905261157491859182169063a9059cbb906064015b604051602081830303815290604052915060e01b6020820180516001600160e01b03838183161783525050505061186e565b505050565b6040516001600160a01b0384811660248301528381166044830152606482018390526115b29186918216906323b872dd90608401611542565b50505050565b60035460095460405163095ea7b360e01b81526001600160a01b0391821660048201526024810186905291169063095ea7b3906044016020604051808303815f875af115801561160a573d5f5f3e3d5ffd5b505050506040513d601f19601f8201168201806040525081019061162e9190611dc2565b50600954600354604051631e573fb760e31b81526001600160a01b0391821660048201526024810186905291169063f2b9fdb8906044016114e3565b6040805160018082528183019092526060918291906020808301908036833750506040805160018082528183019092529294509050602080830190803683370190505090505f6116bc84860186611f41565b9050805f0151835f815181106116d4576116d4611e90565b6001600160a01b039283166020918202929092010152600a54600954604051635b81a7bf60e11b815290831660048201523060248201526001604482015291169063b7034f7e906064015f604051808303815f87803b158015611735575f5ffd5b505af1158015611747573d5f5f3e3d5ffd5b505082516040516370a0823160e01b81523060048201526001600160a01b0390911692506370a082319150602401602060405180830381865afa158015611790573d5f5f3e3d5ffd5b505050506040513d601f19601f820116820180604052508101906117b49190611d58565b825f815181106117c6576117c6611e90565b6020026020010181815250506118136117dd6104c2565b835f815181106117ef576117ef611e90565b6020026020010151835f01516001600160a01b03166115159092919063ffffffff16565b816040516118219190611ea4565b6040518091039020836040516118379190611ed9565b604051908190038120907f3e3e7958121b3e39c7a49392d1aa9cdce870c2a059744f9e15cf66fff7865455905f90a3509250929050565b5f5f60205f8451602086015f885af18061188d576040513d5f823e3d81fd5b50505f513d915081156118a45780600114156118b1565b6001600160a01b0384163b155b156115b257604051635274afe760e01b81526001600160a01b0385166004820152602401610572565b5f81518084528060208401602086015e5f602082860101526020601f19601f83011685010191505092915050565b602081525f61191a60208301846118da565b9392505050565b5f5f83601f840112611931575f5ffd5b50813567ffffffffffffffff811115611948575f5ffd5b60208301915083602082850101111561195f575f5ffd5b9250929050565b5f5f5f60408486031215611978575f5ffd5b83359250602084013567ffffffffffffffff811115611995575f5ffd5b6119a186828701611921565b9497909650939450505050565b5f602082840312156119be575f5ffd5b5035919050565b6001600160a01b03811681146119d9575f5ffd5b50565b5f5f604083850312156119ed575f5ffd5b8235600381106119fb575f5ffd5b91506020830135611a0b816119c5565b809150509250929050565b634e487b7160e01b5f52604160045260245ffd5b604051601f8201601f1916810167ffffffffffffffff81118282101715611a5357611a53611a16565b604052919050565b5f60208284031215611a6b575f5ffd5b813567ffffffffffffffff811115611a81575f5ffd5b8201601f81018413611a91575f5ffd5b803567ffffffffffffffff811115611aab57611aab611a16565b8060051b611abb60208201611a2a565b91825260208184018101929081019087841115611ad6575f5ffd5b6020850194505b83851015611b045784359250611af2836119c5565b82825260209485019490910190611add565b979650505050505050565b604080825283519082018190525f9060208501906060840190835b81811015611b515783516001600160a01b0316835260209384019390920191600101611b2a565b5050838103602080860191909152855180835291810192508501905f5b81811015611b8c578251845260209384019390920191600101611b6e565b50919695505050505050565b6001600160a01b038981168252888116602083015287166040820152606081018690526080810185905260a0810184905261010060c082018190525f90611be1908301856118da565b905082151560e08301529998505050505050505050565b5f5f5f5f5f5f60808789031215611c0d575f5ffd5b863595506020870135611c1f816119c5565b9450604087013567ffffffffffffffff811115611c3a575f5ffd5b611c4689828a01611921565b909550935050606087013567ffffffffffffffff811115611c65575f5ffd5b611c7189828a01611921565b979a9699509497509295939492505050565b602080825282516001600160a01b039081168383015290830151166040808301919091528201515f90611cc160608401826001600160a01b03169052565b5060608301516080830152608083015160a083015260a083015160c083015260c083015161010060e0840152611cfb6101208401826118da565b905060e0840151611d1161010085018215159052565b509392505050565b5f5f60208385031215611d2a575f5ffd5b823567ffffffffffffffff811115611d40575f5ffd5b611d4c85828601611921565b90969095509350505050565b5f60208284031215611d68575f5ffd5b5051919050565b600181811c90821680611d8357607f821691505b602082108103611da157634e487b7160e01b5f52602260045260245ffd5b50919050565b5f60208284031215611db7575f5ffd5b815161191a816119c5565b5f60208284031215611dd2575f5ffd5b8151801515811461191a575f5ffd5b5f60038410611dfe57634e487b7160e01b5f52602160045260245ffd5b5060f89290921b825260601b6bffffffffffffffffffffffff1916600182015260150190565b5f6080828403128015611e35575f5ffd5b506040516080810167ffffffffffffffff81118282101715611e5957611e59611a16565b6040528251611e67816119c5565b815260208381015190820152604080840151908201526060928301519281019290925250919050565b634e487b7160e01b5f52603260045260245ffd5b81515f90829060208501835b82811015611ece578151845260209384019390910190600101611eb0565b509195945050505050565b81515f90829060208501835b82811015611ece5781516001600160a01b0316845260209384019390910190600101611ee5565b83815260406020820152816040820152818360608301375f818301606090810191909152601f909201601f1916010192915050565b5f6020828403128015611f52575f5ffd5b506040516020810167ffffffffffffffff81118282101715611f7657611f76611a16565b6040528235611f84816119c5565b8152939250505056fea26469706673582212209d5651f3a711fbd809c0676e7a63b2c69be798bd6d7e7b3ce6284ec22a8c7f9164736f6c634300081b0033","linkReferences":{}},"methodIdentifiers":{"board(uint256,bytes)":"2db6d399","comet()":"ba3e9c12","cometRewards()":"32315972","commander()":"37270936","config()":"79502c55","configurationManager()":"c9c667e3","depositCap()":"dbd5edc7","disembark(uint256,bytes)":"13c408f8","generateRole(uint8,address)":"69b3054b","getConfig()":"c3f909d4","harborCommand()":"5b0f83f3","harvest(bytes)":"ce5c7f61","maxRebalanceInflow()":"ad5a356f","maxRebalanceOutflow()":"3194549e","move(uint256,address,bytes,bytes)":"c38a6f0b","name()":"06fdde03","raft()":"117d8ae0","registerFleetCommander()":"8a8b9976","requiresKeeperData()":"303dbaf3","setDepositCap(uint256)":"86651203","setMaxRebalanceInflow(uint256)":"92f5e832","setMaxRebalanceOutflow(uint256)":"61f5cd8b","sweep(address[])":"780469bb","tipJar()":"7aaceb95","token()":"fc0c546a","totalAssets()":"01e1d114","treasury()":"61d027b3","unregisterFleetCommander()":"ebf31131"},"id":169}