{"abi":[{"type":"constructor","inputs":[{"name":"_comet","type":"address","internalType":"address"},{"name":"_cometRewards","type":"address","internalType":"address"},{"name":"_params","type":"tuple","internalType":"struct ArkParams","components":[{"name":"name","type":"string","internalType":"string"},{"name":"details","type":"string","internalType":"string"},{"name":"accessManager","type":"address","internalType":"address"},{"name":"configurationManager","type":"address","internalType":"address"},{"name":"asset","type":"address","internalType":"address"},{"name":"depositCap","type":"uint256","internalType":"uint256"},{"name":"maxRebalanceOutflow","type":"uint256","internalType":"uint256"},{"name":"maxRebalanceInflow","type":"uint256","internalType":"uint256"},{"name":"requiresKeeperData","type":"bool","internalType":"bool"},{"name":"maxDepositPercentageOfTVL","type":"uint256","internalType":"Percentage"}]}],"stateMutability":"nonpayable"},{"type":"function","name":"asset","inputs":[],"outputs":[{"name":"","type":"address","internalType":"contract IERC20"}],"stateMutability":"view"},{"type":"function","name":"board","inputs":[{"name":"amount","type":"uint256","internalType":"uint256"},{"name":"boardData","type":"bytes","internalType":"bytes"}],"outputs":[],"stateMutability":"nonpayable"},{"type":"function","name":"comet","inputs":[],"outputs":[{"name":"","type":"address","internalType":"contract IComet"}],"stateMutability":"view"},{"type":"function","name":"cometRewards","inputs":[],"outputs":[{"name":"","type":"address","internalType":"contract ICometRewards"}],"stateMutability":"view"},{"type":"function","name":"commander","inputs":[],"outputs":[{"name":"","type":"address","internalType":"address"}],"stateMutability":"view"},{"type":"function","name":"config","inputs":[],"outputs":[{"name":"commander","type":"address","internalType":"address"},{"name":"raft","type":"address","internalType":"address"},{"name":"asset","type":"address","internalType":"contract IERC20"},{"name":"depositCap","type":"uint256","internalType":"uint256"},{"name":"maxRebalanceOutflow","type":"uint256","internalType":"uint256"},{"name":"maxRebalanceInflow","type":"uint256","internalType":"uint256"},{"name":"name","type":"string","internalType":"string"},{"name":"details","type":"string","internalType":"string"},{"name":"requiresKeeperData","type":"bool","internalType":"bool"},{"name":"maxDepositPercentageOfTVL","type":"uint256","internalType":"Percentage"}],"stateMutability":"view"},{"type":"function","name":"configurationManager","inputs":[],"outputs":[{"name":"","type":"address","internalType":"contract IConfigurationManager"}],"stateMutability":"view"},{"type":"function","name":"depositCap","inputs":[],"outputs":[{"name":"","type":"uint256","internalType":"uint256"}],"stateMutability":"view"},{"type":"function","name":"disembark","inputs":[{"name":"amount","type":"uint256","internalType":"uint256"},{"name":"disembarkData","type":"bytes","internalType":"bytes"}],"outputs":[],"stateMutability":"nonpayable"},{"type":"function","name":"fleetCommanderRewardsManagerFactory","inputs":[],"outputs":[{"name":"","type":"address","internalType":"address"}],"stateMutability":"view"},{"type":"function","name":"generateRole","inputs":[{"name":"roleName","type":"uint8","internalType":"enum ContractSpecificRoles"},{"name":"roleTargetContract","type":"address","internalType":"address"}],"outputs":[{"name":"","type":"bytes32","internalType":"bytes32"}],"stateMutability":"pure"},{"type":"function","name":"getConfig","inputs":[],"outputs":[{"name":"","type":"tuple","internalType":"struct ArkConfig","components":[{"name":"commander","type":"address","internalType":"address"},{"name":"raft","type":"address","internalType":"address"},{"name":"asset","type":"address","internalType":"contract IERC20"},{"name":"depositCap","type":"uint256","internalType":"uint256"},{"name":"maxRebalanceOutflow","type":"uint256","internalType":"uint256"},{"name":"maxRebalanceInflow","type":"uint256","internalType":"uint256"},{"name":"name","type":"string","internalType":"string"},{"name":"details","type":"string","internalType":"string"},{"name":"requiresKeeperData","type":"bool","internalType":"bool"},{"name":"maxDepositPercentageOfTVL","type":"uint256","internalType":"Percentage"}]}],"stateMutability":"view"},{"type":"function","name":"harborCommand","inputs":[],"outputs":[{"name":"","type":"address","internalType":"address"}],"stateMutability":"view"},{"type":"function","name":"harvest","inputs":[{"name":"additionalData","type":"bytes","internalType":"bytes"}],"outputs":[{"name":"rewardTokens","type":"address[]","internalType":"address[]"},{"name":"rewardAmounts","type":"uint256[]","internalType":"uint256[]"}],"stateMutability":"nonpayable"},{"type":"function","name":"maxDepositPercentageOfTVL","inputs":[],"outputs":[{"name":"","type":"uint256","internalType":"Percentage"}],"stateMutability":"view"},{"type":"function","name":"maxRebalanceInflow","inputs":[],"outputs":[{"name":"","type":"uint256","internalType":"uint256"}],"stateMutability":"view"},{"type":"function","name":"maxRebalanceOutflow","inputs":[],"outputs":[{"name":"","type":"uint256","internalType":"uint256"}],"stateMutability":"view"},{"type":"function","name":"move","inputs":[{"name":"amount","type":"uint256","internalType":"uint256"},{"name":"receiverArk","type":"address","internalType":"address"},{"name":"boardData","type":"bytes","internalType":"bytes"},{"name":"disembarkData","type":"bytes","internalType":"bytes"}],"outputs":[],"stateMutability":"nonpayable"},{"type":"function","name":"name","inputs":[],"outputs":[{"name":"","type":"string","internalType":"string"}],"stateMutability":"view"},{"type":"function","name":"raft","inputs":[],"outputs":[{"name":"","type":"address","internalType":"address"}],"stateMutability":"view"},{"type":"function","name":"registerFleetCommander","inputs":[],"outputs":[],"stateMutability":"nonpayable"},{"type":"function","name":"requiresKeeperData","inputs":[],"outputs":[{"name":"","type":"bool","internalType":"bool"}],"stateMutability":"view"},{"type":"function","name":"setDepositCap","inputs":[{"name":"newDepositCap","type":"uint256","internalType":"uint256"}],"outputs":[],"stateMutability":"nonpayable"},{"type":"function","name":"setMaxDepositPercentageOfTVL","inputs":[{"name":"newMaxDepositPercentageOfTVL","type":"uint256","internalType":"Percentage"}],"outputs":[],"stateMutability":"nonpayable"},{"type":"function","name":"setMaxRebalanceInflow","inputs":[{"name":"newMaxRebalanceInflow","type":"uint256","internalType":"uint256"}],"outputs":[],"stateMutability":"nonpayable"},{"type":"function","name":"setMaxRebalanceOutflow","inputs":[{"name":"newMaxRebalanceOutflow","type":"uint256","internalType":"uint256"}],"outputs":[],"stateMutability":"nonpayable"},{"type":"function","name":"sweep","inputs":[{"name":"tokens","type":"address[]","internalType":"address[]"}],"outputs":[{"name":"sweptTokens","type":"address[]","internalType":"address[]"},{"name":"sweptAmounts","type":"uint256[]","internalType":"uint256[]"}],"stateMutability":"nonpayable"},{"type":"function","name":"tipJar","inputs":[],"outputs":[{"name":"","type":"address","internalType":"address"}],"stateMutability":"view"},{"type":"function","name":"totalAssets","inputs":[],"outputs":[{"name":"suppliedAssets","type":"uint256","internalType":"uint256"}],"stateMutability":"view"},{"type":"function","name":"treasury","inputs":[],"outputs":[{"name":"","type":"address","internalType":"address"}],"stateMutability":"view"},{"type":"function","name":"unregisterFleetCommander","inputs":[],"outputs":[],"stateMutability":"nonpayable"},{"type":"event","name":"ArkHarvested","inputs":[{"name":"rewardTokens","type":"address[]","indexed":true,"internalType":"address[]"},{"name":"rewardAmounts","type":"uint256[]","indexed":true,"internalType":"uint256[]"}],"anonymous":false},{"type":"event","name":"ArkPoked","inputs":[{"name":"currentPrice","type":"uint256","indexed":false,"internalType":"uint256"},{"name":"timestamp","type":"uint256","indexed":false,"internalType":"uint256"}],"anonymous":false},{"type":"event","name":"ArkSwept","inputs":[{"name":"sweptTokens","type":"address[]","indexed":true,"internalType":"address[]"},{"name":"sweptAmounts","type":"uint256[]","indexed":true,"internalType":"uint256[]"}],"anonymous":false},{"type":"event","name":"Boarded","inputs":[{"name":"commander","type":"address","indexed":true,"internalType":"address"},{"name":"token","type":"address","indexed":false,"internalType":"address"},{"name":"amount","type":"uint256","indexed":false,"internalType":"uint256"}],"anonymous":false},{"type":"event","name":"DepositCapUpdated","inputs":[{"name":"newCap","type":"uint256","indexed":false,"internalType":"uint256"}],"anonymous":false},{"type":"event","name":"Disembarked","inputs":[{"name":"commander","type":"address","indexed":true,"internalType":"address"},{"name":"token","type":"address","indexed":false,"internalType":"address"},{"name":"amount","type":"uint256","indexed":false,"internalType":"uint256"}],"anonymous":false},{"type":"event","name":"FleetCommanderRegistered","inputs":[{"name":"commander","type":"address","indexed":false,"internalType":"address"}],"anonymous":false},{"type":"event","name":"FleetCommanderUnregistered","inputs":[{"name":"commander","type":"address","indexed":false,"internalType":"address"}],"anonymous":false},{"type":"event","name":"MaxDepositPercentageOfTVLUpdated","inputs":[{"name":"newMaxDepositPercentageOfTVL","type":"uint256","indexed":false,"internalType":"Percentage"}],"anonymous":false},{"type":"event","name":"MaxRebalanceInflowUpdated","inputs":[{"name":"newMaxInflow","type":"uint256","indexed":false,"internalType":"uint256"}],"anonymous":false},{"type":"event","name":"MaxRebalanceOutflowUpdated","inputs":[{"name":"newMaxOutflow","type":"uint256","indexed":false,"internalType":"uint256"}],"anonymous":false},{"type":"event","name":"Moved","inputs":[{"name":"from","type":"address","indexed":true,"internalType":"address"},{"name":"to","type":"address","indexed":true,"internalType":"address"},{"name":"token","type":"address","indexed":false,"internalType":"address"},{"name":"amount","type":"uint256","indexed":false,"internalType":"uint256"}],"anonymous":false},{"type":"event","name":"RaftUpdated","inputs":[{"name":"newRaft","type":"address","indexed":false,"internalType":"address"}],"anonymous":false},{"type":"error","name":"CallerIsNotAdmin","inputs":[{"name":"caller","type":"address","internalType":"address"}]},{"type":"error","name":"CallerIsNotAuthorizedToBoard","inputs":[{"name":"caller","type":"address","internalType":"address"}]},{"type":"error","name":"CallerIsNotCommander","inputs":[{"name":"caller","type":"address","internalType":"address"}]},{"type":"error","name":"CallerIsNotContractSpecificRole","inputs":[{"name":"caller","type":"address","internalType":"address"},{"name":"role","type":"bytes32","internalType":"bytes32"}]},{"type":"error","name":"CallerIsNotCurator","inputs":[{"name":"caller","type":"address","internalType":"address"}]},{"type":"error","name":"CallerIsNotDecayController","inputs":[{"name":"caller","type":"address","internalType":"address"}]},{"type":"error","name":"CallerIsNotGovernor","inputs":[{"name":"caller","type":"address","internalType":"address"}]},{"type":"error","name":"CallerIsNotGuardian","inputs":[{"name":"caller","type":"address","internalType":"address"}]},{"type":"error","name":"CallerIsNotGuardianOrGovernor","inputs":[{"name":"caller","type":"address","internalType":"address"}]},{"type":"error","name":"CallerIsNotKeeper","inputs":[{"name":"caller","type":"address","internalType":"address"}]},{"type":"error","name":"CallerIsNotRaft","inputs":[{"name":"caller","type":"address","internalType":"address"}]},{"type":"error","name":"CallerIsNotRaftOrCommander","inputs":[{"name":"caller","type":"address","internalType":"address"}]},{"type":"error","name":"CallerIsNotSuperKeeper","inputs":[{"name":"caller","type":"address","internalType":"address"}]},{"type":"error","name":"CannotAddCommanderToArkWithCommander","inputs":[]},{"type":"error","name":"CannotDeployArkWithEmptyName","inputs":[]},{"type":"error","name":"CannotDeployArkWithoutConfigurationManager","inputs":[]},{"type":"error","name":"CannotDeployArkWithoutRaft","inputs":[]},{"type":"error","name":"CannotDeployArkWithoutToken","inputs":[]},{"type":"error","name":"CannotRemoveCommanderFromArkWithAssets","inputs":[]},{"type":"error","name":"CannotUseKeeperDataWhenNotRequired","inputs":[]},{"type":"error","name":"ConfigurationManagerZeroAddress","inputs":[]},{"type":"error","name":"DirectGrantIsDisabled","inputs":[{"name":"caller","type":"address","internalType":"address"}]},{"type":"error","name":"DirectRevokeIsDisabled","inputs":[{"name":"caller","type":"address","internalType":"address"}]},{"type":"error","name":"ERC4626AssetMismatch","inputs":[]},{"type":"error","name":"InvalidAccessManagerAddress","inputs":[{"name":"invalidAddress","type":"address","internalType":"address"}]},{"type":"error","name":"InvalidBoardData","inputs":[]},{"type":"error","name":"InvalidDisembarkData","inputs":[]},{"type":"error","name":"InvalidVaultAddress","inputs":[]},{"type":"error","name":"KeeperDataRequired","inputs":[]},{"type":"error","name":"ReentrancyGuardReentrantCall","inputs":[]},{"type":"error","name":"SafeERC20FailedOperation","inputs":[{"name":"token","type":"address","internalType":"address"}]}],"bytecode":{"object":"0x60a060405234801561000f575f5ffd5b50604051612c96380380612c9683398101604081905261002e916104ab565b6060810151604082015182918291806001600160a01b03811661006b576040516347bd7c1d60e01b81525f60048201526024015b60405180910390fd5b6040516301ffc9a760e01b8152639bd1803160e01b60048201526001600160a01b038216906301ffc9a790602401602060405180830381865afa1580156100b4573d5f5f3e3d5ffd5b505050506040513d601f19601f820116820180604052508101906100d891906105d5565b610100576040516347bd7c1d60e01b81526001600160a01b0382166004820152602401610062565b5f80546001600160a01b0319166001600160a01b039283161790558216905061013c5760405163f1634df960e01b815260040160405180910390fd5b6001600160a01b0390811660805260608201511661016d5760405163b53c493160e01b815260040160405180910390fd5b60808101516001600160a01b031661019b576040516001620a810f60e11b0319815260040160405180910390fd5b8051515f036101bd5760405163268c072960e01b815260040160405180910390fd5b5f6101c6610353565b6001600160a01b0316036101ed57604051633a4f9cdb60e21b815260040160405180910390fd5b6040805161014081019091525f815260208101610208610353565b6001600160a01b039081168252608080850151821660208085019190915260a08087015160408087019190915260c08089015160608089019190915260e0808b0151878a01528a51858a01528a860151838a0152610100808c01511515918a01919091526101208b01519801979097528751600180549188166001600160a01b031992831617815594890151600280549189169183169190911790559188015160038054919097169216919091179094559385015160045590840151600555918301516006558201516007906102de9082610679565b5060e082015160078201906102f39082610679565b5061010082015160088201805460ff1916911515919091179055610120909101516009909101555050600b80546001600160a01b03199081166001600160a01b0395861617909155600c805490911692909316919091179091555061074c565b5f6080516001600160a01b031663117d8ae06040518163ffffffff1660e01b8152600401602060405180830381865afa158015610392573d5f5f3e3d5ffd5b505050506040513d601f19601f820116820180604052508101906103b69190610733565b905090565b80516001600160a01b03811681146103d1575f5ffd5b919050565b634e487b7160e01b5f52604160045260245ffd5b60405161014081016001600160401b038111828210171561040d5761040d6103d6565b60405290565b5f82601f830112610422575f5ffd5b81516001600160401b0381111561043b5761043b6103d6565b604051601f8201601f19908116603f011681016001600160401b0381118282101715610469576104696103d6565b604052818152838201602001851015610480575f5ffd5b8160208501602083015e5f918101602001919091529392505050565b805180151581146103d1575f5ffd5b5f5f5f606084860312156104bd575f5ffd5b6104c6846103bb565b92506104d4602085016103bb565b60408501519092506001600160401b038111156104ef575f5ffd5b84016101408187031215610501575f5ffd5b6105096103ea565b81516001600160401b0381111561051e575f5ffd5b61052a88828501610413565b82525060208201516001600160401b03811115610545575f5ffd5b61055188828501610413565b602083015250610563604083016103bb565b6040820152610574606083016103bb565b6060820152610585608083016103bb565b608082015260a0828101519082015260c0808301519082015260e080830151908201526105b5610100830161049c565b610100820152610120918201519181019190915292959194509192509050565b5f602082840312156105e5575f5ffd5b6105ee8261049c565b9392505050565b600181811c9082168061060957607f821691505b60208210810361062757634e487b7160e01b5f52602260045260245ffd5b50919050565b601f82111561067457805f5260205f20601f840160051c810160208510156106525750805b601f840160051c820191505b81811015610671575f815560010161065e565b50505b505050565b81516001600160401b03811115610692576106926103d6565b6106a6816106a084546105f5565b8461062d565b6020601f8211600181146106d8575f83156106c15750848201515b5f19600385901b1c1916600184901b178455610671565b5f84815260208120601f198516915b8281101561070757878501518255602094850194600190920191016106e7565b508482101561072457868401515f19600387901b60f8161c191681555b50505050600190811b01905550565b5f60208284031215610743575f5ffd5b6105ee826103bb565b60805161250f6107875f395f81816103b90152818161050b015281816108bb01528181610918015281816110db01526116b7015261250f5ff3fe608060405234801561000f575f5ffd5b50600436106101dc575f3560e01c8063780469bb11610109578063bdcdd8821161009e578063ce5c7f611161006e578063ce5c7f61146103db578063dbd5edc7146103ee578063ebf31131146103f6578063f7e533ec146103fe575f5ffd5b8063bdcdd88214610384578063c38a6f0b1461038c578063c3f909d41461039f578063c9c667e3146103b4575f5ffd5b80638a8b9976116100d95780638a8b99761461034e57806392f5e83214610356578063ad5a356f14610369578063ba3e9c1214610371575f5ffd5b8063780469bb146102f457806379502c55146103155780637aaceb9514610333578063866512031461033b575f5ffd5b8063323159721161017f5780635b0f83f31161014f5780635b0f83f3146102be57806361d027b3146102c657806361f5cd8b146102ce57806369b3054b146102e1575f5ffd5b80633231597214610276578063372709361461028957806338d52e0f1461029a5780634fc7fac3146102ab575f5ffd5b806313c408f8116101ba57806313c408f8146102305780632db6d39914610245578063303dbaf3146102585780633194549e1461026e575f5ffd5b806301e1d114146101e057806306fdde03146101fb578063117d8ae014610210575b5f5ffd5b6101e8610406565b6040519081526020015b60405180910390f35b610203610475565b6040516101f29190611dbf565b610218610508565b6040516001600160a01b0390911681526020016101f2565b61024361023e366004611e16565b610589565b005b610243610253366004611e16565b610653565b60095460ff1660405190151581526020016101f2565b6005546101e8565b600c54610218906001600160a01b031681565b6001546001600160a01b0316610218565b6003546001600160a01b0316610218565b6102436102b9366004611e5e565b61086a565b6102186108b8565b610218610915565b6102436102dc366004611e5e565b610972565b6101e86102ef366004611e8c565b6109b9565b610307610302366004611f0b565b6109eb565b6040516101f2929190611fbf565b61031d610f81565b6040516101f29a99989796959493929190612048565b6102186110d8565b610243610349366004611e5e565b611135565b61024361117c565b610243610364366004611e5e565b6111d9565b6006546101e8565b600b54610218906001600160a01b031681565b600a546101e8565b61024361039a3660046120bf565b611220565b6103a761136f565b6040516101f2919061214a565b6102187f000000000000000000000000000000000000000000000000000000000000000081565b6103076103e936600461221b565b611568565b6004546101e8565b610243611662565b6102186116b4565b600b546040516370a0823160e01b81523060048201525f916001600160a01b0316906370a0823190602401602060405180830381865afa15801561044c573d5f5f3e3d5ffd5b505050506040513d601f19601f82011682018060405250810190610470919061225a565b905090565b60606001600601805461048790612271565b80601f01602080910402602001604051908101604052809291908181526020018280546104b390612271565b80156104fe5780601f106104d5576101008083540402835291602001916104fe565b820191905f5260205f20905b8154815290600101906020018083116104e157829003601f168201915b5050505050905090565b5f7f00000000000000000000000000000000000000000000000000000000000000006001600160a01b031663117d8ae06040518163ffffffff1660e01b8152600401602060405180830381865afa158015610565573d5f5f3e3d5ffd5b505050506040513d601f19601f8201168201806040525081019061047091906122a9565b610591611711565b6105c157335b604051631564c0e160e11b81526001600160a01b0390911660048201526024015b60405180910390fd5b6105c961179a565b81816105d58282611809565b336105e186868661186b565b6003546105f8906001600160a01b031682886118d3565b6003546040516001600160a01b03838116927fd5e872c5ecfb1bb8820b2e6a20e31b883682282da886621541f71e31ec11947e9261063b92909116908a906122c4565b60405180910390a250505061064e61192b565b505050565b61065b61179a565b306001600160a01b031663372709366040518163ffffffff1660e01b8152600401602060405180830381865afa158015610697573d5f5f3e3d5ffd5b505050506040513d601f19601f820116820180604052508101906106bb91906122a9565b6106c3611711565b6107e2575f3390505f306001600160a01b031663117d8ae06040518163ffffffff1660e01b8152600401602060405180830381865afa158015610708573d5f5f3e3d5ffd5b505050506040513d601f19601f8201168201806040525081019061072c91906122a9565b6001600160a01b0316826001600160a01b0316149050806107df5760405163d25dd10160e01b81526001600160a01b0383811660048301525f919085169063d25dd10190602401602060405180830381865afa15801561078e573d5f5f3e3d5ffd5b505050506040513d601f19601f820116820180604052508101906107b291906122dd565b9050806107dd57604051638f7a567d60e01b81526001600160a01b03841660048201526024016105b8565b505b50505b82826107ee8282611809565b6003543390610808906001600160a01b031682308a611955565b610813878787611994565b6003546040516001600160a01b03838116927fcbaa1442ac205415c9d69643e7b60ec73d1de35dbc807c21ec288c70ddc4207b9261085692909116908b906122c4565b60405180910390a25050505061064e61192b565b610872611711565b61087c5733610597565b600a8190556040518181527fd3c6d0ab315f2f1352f036cd9f401b49e38e1b90907e195225e8105f9a0b6f02906020015b60405180910390a150565b5f7f00000000000000000000000000000000000000000000000000000000000000006001600160a01b0316635b0f83f36040518163ffffffff1660e01b8152600401602060405180830381865afa158015610565573d5f5f3e3d5ffd5b5f7f00000000000000000000000000000000000000000000000000000000000000006001600160a01b03166361d027b36040518163ffffffff1660e01b8152600401602060405180830381865afa158015610565573d5f5f3e3d5ffd5b61097a611711565b6109845733610597565b60058190556040518181527ffbe2d5c01ea8ba5596d6c4e6c82c6d4a0a0ee1128689993a4a5ba0169273d69f906020016108ad565b5f82826040516020016109cd9291906122fc565b60405160208183030381529060405280519060200120905092915050565b606080306001600160a01b031663117d8ae06040518163ffffffff1660e01b8152600401602060405180830381865afa158015610a2a573d5f5f3e3d5ffd5b505050506040513d601f19601f82011682018060405250810190610a4e91906122a9565b6001600160a01b0316336001600160a01b031614610a8d57335b604051631184b31b60e21b81526001600160a01b0390911660048201526024016105b8565b610a9561179a565b825167ffffffffffffffff811115610aaf57610aaf611ec6565b604051908082528060200260200182016040528015610ad8578160200160208202803683370190505b509150825167ffffffffffffffff811115610af557610af5611ec6565b604051908082528060200260200182016040528015610b1e578160200160208202803683370190505b506003546040516370a0823160e01b81523060048201529192505f916001600160a01b03909116906370a0823190602401602060405180830381865afa158015610b6a573d5f5f3e3d5ffd5b505050506040513d601f19601f82011682018060405250810190610b8e919061225a565b1115610d5257600154604080516330fe427560e21b815290515f926001600160a01b03169163c3f909d49160048083019260a09291908290030181865afa158015610bdb573d5f5f3e3d5ffd5b505050506040513d601f19601f82011682018060405250810190610bff919061233f565b516003546040516370a0823160e01b8152306004820152919250610c849183916001600160a01b0316906370a0823190602401602060405180830381865afa158015610c4d573d5f5f3e3d5ffd5b505050506040513d601f19601f82011682018060405250810190610c71919061225a565b6003546001600160a01b03169190611a41565b6003546040516370a0823160e01b81523060048201526001600160a01b0383811692632db6d399929116906370a0823190602401602060405180830381865afa158015610cd3573d5f5f3e3d5ffd5b505050506040513d601f19601f82011682018060405250810190610cf7919061225a565b60405180602001604052805f8152506040518363ffffffff1660e01b8152600401610d239291906123bc565b5f604051808303815f87803b158015610d3a575f5ffd5b505af1158015610d4c573d5f5f3e3d5ffd5b50505050505b5f5b8351811015610f20575f848281518110610d7057610d706123dc565b60209081029190910101516040516370a0823160e01b81523060048201526001600160a01b03909116906370a0823190602401602060405180830381865afa158015610dbe573d5f5f3e3d5ffd5b505050506040513d601f19601f82011682018060405250810190610de2919061225a565b90508015610f1757610eab610df5610508565b868481518110610e0757610e076123dc565b60209081029190910101516040516370a0823160e01b81523060048201526001600160a01b03909116906370a0823190602401602060405180830381865afa158015610e55573d5f5f3e3d5ffd5b505050506040513d601f19601f82011682018060405250810190610e79919061225a565b878581518110610e8b57610e8b6123dc565b60200260200101516001600160a01b03166118d39092919063ffffffff16565b848281518110610ebd57610ebd6123dc565b6020026020010151848381518110610ed757610ed76123dc565b60200260200101906001600160a01b031690816001600160a01b03168152505080838381518110610f0a57610f0a6123dc565b6020026020010181815250505b50600101610d54565b5080604051610f2f91906123f0565b604051809103902082604051610f459190612425565b604051908190038120907f46b8771620f6acf56cb03d3e835ea8024c7dcbcf05fcc3f6ade9e19d1a3e212b905f90a3610f7c61192b565b915091565b60018054600254600354600454600554600654600780546001600160a01b03978816989688169790951695939492939192610fbb90612271565b80601f0160208091040260200160405190810160405280929190818152602001828054610fe790612271565b80156110325780601f1061100957610100808354040283529160200191611032565b820191905f5260205f20905b81548152906001019060200180831161101557829003601f168201915b50505050509080600701805461104790612271565b80601f016020809104026020016040519081016040528092919081815260200182805461107390612271565b80156110be5780601f10611095576101008083540402835291602001916110be565b820191905f5260205f20905b8154815290600101906020018083116110a157829003601f168201915b505050506008830154600990930154919260ff169190508a565b5f7f00000000000000000000000000000000000000000000000000000000000000006001600160a01b0316637aaceb956040518163ffffffff1660e01b8152600401602060405180830381865afa158015610565573d5f5f3e3d5ffd5b61113d611711565b6111475733610597565b60048190556040518181527f333b26cca69716ad4680ddb07663f5bfb4f06045671f336af9a83690a3ae00f9906020016108ad565b611184611711565b61118e5733610597565b600180546001600160a01b031916339081179091556040519081527f55489ce0259bd691120d8860861be1c401c7c16a3cd268d21045756af4ecc5ca906020015b60405180910390a1565b6111e1611711565b6111eb5733610597565b60068190556040518181527fb6ac66853c4e59c71e118d25ab494bb847c4e5eb0c8894898c5343e6f61afc12906020016108ad565b611228611711565b6112325733610597565b818161123e8282611809565b61124988858561186b565b60035460405163095ea7b360e01b81526001600160a01b039091169063095ea7b39061127b908a908c906004016122c4565b6020604051808303815f875af1158015611297573d5f5f3e3d5ffd5b505050506040513d601f19601f820116820180604052508101906112bb91906122dd565b50604051632db6d39960e01b81526001600160a01b03881690632db6d399906112ec908b908a908a90600401612458565b5f604051808303815f87803b158015611303575f5ffd5b505af1158015611315573d5f5f3e3d5ffd5b50506003546040516001600160a01b03808c1694503093507f9f784fc02a186f1c98b2d9f15fda084da27cdd291a3785d978f91911d880516b9261135d929116908d906122c4565b60405180910390a35050505050505050565b6113da6040518061014001604052805f6001600160a01b031681526020015f6001600160a01b031681526020015f6001600160a01b031681526020015f81526020015f81526020015f815260200160608152602001606081526020015f151581526020015f81525090565b6040805161014081018252600180546001600160a01b0390811683526002548116602084015260035416928201929092526004546060820152600554608082015260065460a08201526007805491929160c08401919061143990612271565b80601f016020809104026020016040519081016040528092919081815260200182805461146590612271565b80156114b05780601f10611487576101008083540402835291602001916114b0565b820191905f5260205f20905b81548152906001019060200180831161149357829003601f168201915b505050505081526020016007820180546114c990612271565b80601f01602080910402602001604051908101604052809291908181526020018280546114f590612271565b80156115405780601f1061151757610100808354040283529160200191611540565b820191905f5260205f20905b81548152906001019060200180831161152357829003601f168201915b5050509183525050600882015460ff1615156020820152600990910154604090910152919050565b606080306001600160a01b031663117d8ae06040518163ffffffff1660e01b8152600401602060405180830381865afa1580156115a7573d5f5f3e3d5ffd5b505050506040513d601f19601f820116820180604052508101906115cb91906122a9565b6001600160a01b0316336001600160a01b0316146115e95733610a68565b6115f161179a565b6115fb8484611ad1565b604051919350915061160e9082906123f0565b6040518091039020826040516116249190612425565b604051908190038120907f3e3e7958121b3e39c7a49392d1aa9cdce870c2a059744f9e15cf66fff7865455905f90a361165b61192b565b9250929050565b61166a611711565b6116745733610597565b600180546001600160a01b03191690556040513381527f7cb941d7b1708e5b3bcd35ca960d6c6311188cec18886e5b67630552676b0487906020016111cf565b5f7f00000000000000000000000000000000000000000000000000000000000000006001600160a01b031663f7e533ec6040518163ffffffff1660e01b8152600401602060405180830381865afa158015610565573d5f5f3e3d5ffd5b5f80546001600160a01b03166391d1485461172d6002306109b9565b336040516001600160e01b031960e085901b16815260048101929092526001600160a01b03166024820152604401602060405180830381865afa158015611776573d5f5f3e3d5ffd5b505050506040513d601f19601f8201168201806040525081019061047091906122dd565b7f9b779b17422d0df92223018b32b4d1fa46e071723d6817e2486d003becc55f005c156117da57604051633ee5aeb560e01b815260040160405180910390fd5b61180760017f9b779b17422d0df92223018b32b4d1fa46e071723d6817e2486d003becc55f005b90611cd5565b565b801580159061181b575060095460ff16155b1561183957604051630cd0fdf960e01b815260040160405180910390fd5b80158015611849575060095460ff165b156118675760405163332863a960e11b815260040160405180910390fd5b5050565b600b5460035460405163f3fef3a360e01b81526001600160a01b039283169263f3fef3a3926118a19291169087906004016122c4565b5f604051808303815f87803b1580156118b8575f5ffd5b505af11580156118ca573d5f5f3e3d5ffd5b50505050505050565b61064e83846001600160a01b031663a9059cbb85856040516024016118f99291906122c4565b604051602081830303815290604052915060e01b6020820180516001600160e01b038381831617835250505050611cdc565b6118075f7f9b779b17422d0df92223018b32b4d1fa46e071723d6817e2486d003becc55f00611801565b6040516001600160a01b03848116602483015283811660448301526064820183905261198e9186918216906323b872dd906084016118f9565b50505050565b600354600b5460405163095ea7b360e01b81526001600160a01b039283169263095ea7b3926119ca9291169087906004016122c4565b6020604051808303815f875af11580156119e6573d5f5f3e3d5ffd5b505050506040513d601f19601f82011682018060405250810190611a0a91906122dd565b50600b54600354604051631e573fb760e31b81526001600160a01b039283169263f2b9fdb8926118a19291169087906004016122c4565b5f836001600160a01b031663095ea7b38484604051602401611a649291906122c4565b604051602081830303815290604052915060e01b6020820180516001600160e01b0383818316178352505050509050611a9d8482611d48565b61198e57611ac784856001600160a01b031663095ea7b3865f6040516024016118f99291906122c4565b61198e8482611cdc565b6040805160018082528183019092526060918291906020808301908036833750506040805160018082528183019092529294509050602080830190803683370190505090505f611b238486018661248d565b9050805f0151835f81518110611b3b57611b3b6123dc565b6001600160a01b039283166020918202929092010152600c54600b54604051635b81a7bf60e11b815290831660048201523060248201526001604482015291169063b7034f7e906064015f604051808303815f87803b158015611b9c575f5ffd5b505af1158015611bae573d5f5f3e3d5ffd5b505082516040516370a0823160e01b81523060048201526001600160a01b0390911692506370a082319150602401602060405180830381865afa158015611bf7573d5f5f3e3d5ffd5b505050506040513d601f19601f82011682018060405250810190611c1b919061225a565b825f81518110611c2d57611c2d6123dc565b602002602001018181525050611c7a611c44610508565b835f81518110611c5657611c566123dc565b6020026020010151835f01516001600160a01b03166118d39092919063ffffffff16565b81604051611c8891906123f0565b604051809103902083604051611c9e9190612425565b604051908190038120907f3e3e7958121b3e39c7a49392d1aa9cdce870c2a059744f9e15cf66fff7865455905f90a3509250929050565b80825d5050565b5f5f60205f8451602086015f885af180611cfb576040513d5f823e3d81fd5b50505f513d91508115611d12578060011415611d1f565b6001600160a01b0384163b155b1561198e57604051635274afe760e01b81526001600160a01b03851660048201526024016105b8565b5f5f5f5f60205f8651602088015f8a5af192503d91505f519050828015611d8757508115611d795780600114611d87565b5f866001600160a01b03163b115b9695505050505050565b5f81518084528060208401602086015e5f602082860101526020601f19601f83011685010191505092915050565b602081525f611dd16020830184611d91565b9392505050565b5f5f83601f840112611de8575f5ffd5b50813567ffffffffffffffff811115611dff575f5ffd5b60208301915083602082850101111561165b575f5ffd5b5f5f5f60408486031215611e28575f5ffd5b83359250602084013567ffffffffffffffff811115611e45575f5ffd5b611e5186828701611dd8565b9497909650939450505050565b5f60208284031215611e6e575f5ffd5b5035919050565b6001600160a01b0381168114611e89575f5ffd5b50565b5f5f60408385031215611e9d575f5ffd5b823560038110611eab575f5ffd5b91506020830135611ebb81611e75565b809150509250929050565b634e487b7160e01b5f52604160045260245ffd5b604051601f8201601f1916810167ffffffffffffffff81118282101715611f0357611f03611ec6565b604052919050565b5f60208284031215611f1b575f5ffd5b813567ffffffffffffffff811115611f31575f5ffd5b8201601f81018413611f41575f5ffd5b803567ffffffffffffffff811115611f5b57611f5b611ec6565b8060051b611f6b60208201611eda565b91825260208184018101929081019087841115611f86575f5ffd5b6020850194505b83851015611fb45784359250611fa283611e75565b82825260209485019490910190611f8d565b979650505050505050565b604080825283519082018190525f9060208501906060840190835b818110156120015783516001600160a01b0316835260209384019390920191600101611fda565b5050838103602080860191909152855180835291810192508501905f5b8181101561203c57825184526020938401939092019160010161201e565b50919695505050505050565b6001600160a01b038b811682528a8116602083015289166040820152606081018890526080810187905260a0810186905261014060c082018190525f9061209190830187611d91565b82810360e08401526120a38187611d91565b9415156101008401525050610120015298975050505050505050565b5f5f5f5f5f5f608087890312156120d4575f5ffd5b8635955060208701356120e681611e75565b9450604087013567ffffffffffffffff811115612101575f5ffd5b61210d89828a01611dd8565b909550935050606087013567ffffffffffffffff81111561212c575f5ffd5b61213889828a01611dd8565b979a9699509497509295939492505050565b602081526121646020820183516001600160a01b03169052565b5f602083015161217f60408401826001600160a01b03169052565b5060408301516001600160a01b03811660608401525060608301516080830152608083015160a083015260a083015160c083015260c083015161014060e08401526121ce610160840182611d91565b905060e0840151601f19848303016101008501526121ec8282611d91565b91505061010084015161220461012085018215159052565b506101208401516101408401528091505092915050565b5f5f6020838503121561222c575f5ffd5b823567ffffffffffffffff811115612242575f5ffd5b61224e85828601611dd8565b90969095509350505050565b5f6020828403121561226a575f5ffd5b5051919050565b600181811c9082168061228557607f821691505b6020821081036122a357634e487b7160e01b5f52602260045260245ffd5b50919050565b5f602082840312156122b9575f5ffd5b8151611dd181611e75565b6001600160a01b03929092168252602082015260400190565b5f602082840312156122ed575f5ffd5b81518015158114611dd1575f5ffd5b5f6003841061231957634e487b7160e01b5f52602160045260245ffd5b5060f89290921b825260601b6bffffffffffffffffffffffff1916600182015260150190565b5f60a0828403128015612350575f5ffd5b5060405160a0810167ffffffffffffffff8111828210171561237457612374611ec6565b604052825161238281611e75565b815260208381015190820152604080840151908201526060808401519082015260808301516123b081611e75565b60808201529392505050565b828152604060208201525f6123d46040830184611d91565b949350505050565b634e487b7160e01b5f52603260045260245ffd5b81515f90829060208501835b8281101561241a5781518452602093840193909101906001016123fc565b509195945050505050565b81515f90829060208501835b8281101561241a5781516001600160a01b0316845260209384019390910190600101612431565b83815260406020820152816040820152818360608301375f818301606090810191909152601f909201601f1916010192915050565b5f602082840312801561249e575f5ffd5b506040516020810167ffffffffffffffff811182821017156124c2576124c2611ec6565b60405282356124d081611e75565b8152939250505056fea2646970667358221220d0b252f846fcfe24c8aa6378c83b149da014a83a606cb072d2a5fdf84eb2f36664736f6c634300081c0033","linkReferences":{}},"methodIdentifiers":{"asset()":"38d52e0f","board(uint256,bytes)":"2db6d399","comet()":"ba3e9c12","cometRewards()":"32315972","commander()":"37270936","config()":"79502c55","configurationManager()":"c9c667e3","depositCap()":"dbd5edc7","disembark(uint256,bytes)":"13c408f8","fleetCommanderRewardsManagerFactory()":"f7e533ec","generateRole(uint8,address)":"69b3054b","getConfig()":"c3f909d4","harborCommand()":"5b0f83f3","harvest(bytes)":"ce5c7f61","maxDepositPercentageOfTVL()":"bdcdd882","maxRebalanceInflow()":"ad5a356f","maxRebalanceOutflow()":"3194549e","move(uint256,address,bytes,bytes)":"c38a6f0b","name()":"06fdde03","raft()":"117d8ae0","registerFleetCommander()":"8a8b9976","requiresKeeperData()":"303dbaf3","setDepositCap(uint256)":"86651203","setMaxDepositPercentageOfTVL(uint256)":"4fc7fac3","setMaxRebalanceInflow(uint256)":"92f5e832","setMaxRebalanceOutflow(uint256)":"61f5cd8b","sweep(address[])":"780469bb","tipJar()":"7aaceb95","totalAssets()":"01e1d114","treasury()":"61d027b3","unregisterFleetCommander()":"ebf31131"},"id":206}