{"abi":[{"type":"constructor","inputs":[{"name":"_comet","type":"address","internalType":"address"},{"name":"_cometRewards","type":"address","internalType":"address"},{"name":"_params","type":"tuple","internalType":"struct ArkParams","components":[{"name":"name","type":"string","internalType":"string"},{"name":"accessManager","type":"address","internalType":"address"},{"name":"configurationManager","type":"address","internalType":"address"},{"name":"token","type":"address","internalType":"address"},{"name":"depositCap","type":"uint256","internalType":"uint256"},{"name":"maxRebalanceOutflow","type":"uint256","internalType":"uint256"},{"name":"maxRebalanceInflow","type":"uint256","internalType":"uint256"},{"name":"requiresKeeperData","type":"bool","internalType":"bool"},{"name":"maxDepositPercentageOfTVL","type":"uint256","internalType":"Percentage"}]}],"stateMutability":"nonpayable"},{"type":"function","name":"board","inputs":[{"name":"amount","type":"uint256","internalType":"uint256"},{"name":"boardData","type":"bytes","internalType":"bytes"}],"outputs":[],"stateMutability":"nonpayable"},{"type":"function","name":"comet","inputs":[],"outputs":[{"name":"","type":"address","internalType":"contract IComet"}],"stateMutability":"view"},{"type":"function","name":"cometRewards","inputs":[],"outputs":[{"name":"","type":"address","internalType":"contract ICometRewards"}],"stateMutability":"view"},{"type":"function","name":"commander","inputs":[],"outputs":[{"name":"","type":"address","internalType":"address"}],"stateMutability":"view"},{"type":"function","name":"config","inputs":[],"outputs":[{"name":"commander","type":"address","internalType":"address"},{"name":"raft","type":"address","internalType":"address"},{"name":"token","type":"address","internalType":"contract IERC20"},{"name":"depositCap","type":"uint256","internalType":"uint256"},{"name":"maxRebalanceOutflow","type":"uint256","internalType":"uint256"},{"name":"maxRebalanceInflow","type":"uint256","internalType":"uint256"},{"name":"name","type":"string","internalType":"string"},{"name":"requiresKeeperData","type":"bool","internalType":"bool"},{"name":"maxDepositPercentageOfTVL","type":"uint256","internalType":"Percentage"}],"stateMutability":"view"},{"type":"function","name":"configurationManager","inputs":[],"outputs":[{"name":"","type":"address","internalType":"contract IConfigurationManager"}],"stateMutability":"view"},{"type":"function","name":"depositCap","inputs":[],"outputs":[{"name":"","type":"uint256","internalType":"uint256"}],"stateMutability":"view"},{"type":"function","name":"disembark","inputs":[{"name":"amount","type":"uint256","internalType":"uint256"},{"name":"disembarkData","type":"bytes","internalType":"bytes"}],"outputs":[],"stateMutability":"nonpayable"},{"type":"function","name":"generateRole","inputs":[{"name":"roleName","type":"uint8","internalType":"enum ContractSpecificRoles"},{"name":"roleTargetContract","type":"address","internalType":"address"}],"outputs":[{"name":"","type":"bytes32","internalType":"bytes32"}],"stateMutability":"pure"},{"type":"function","name":"getConfig","inputs":[],"outputs":[{"name":"","type":"tuple","internalType":"struct ArkConfig","components":[{"name":"commander","type":"address","internalType":"address"},{"name":"raft","type":"address","internalType":"address"},{"name":"token","type":"address","internalType":"contract IERC20"},{"name":"depositCap","type":"uint256","internalType":"uint256"},{"name":"maxRebalanceOutflow","type":"uint256","internalType":"uint256"},{"name":"maxRebalanceInflow","type":"uint256","internalType":"uint256"},{"name":"name","type":"string","internalType":"string"},{"name":"requiresKeeperData","type":"bool","internalType":"bool"},{"name":"maxDepositPercentageOfTVL","type":"uint256","internalType":"Percentage"}]}],"stateMutability":"view"},{"type":"function","name":"harborCommand","inputs":[],"outputs":[{"name":"","type":"address","internalType":"address"}],"stateMutability":"view"},{"type":"function","name":"harvest","inputs":[{"name":"additionalData","type":"bytes","internalType":"bytes"}],"outputs":[{"name":"rewardTokens","type":"address[]","internalType":"address[]"},{"name":"rewardAmounts","type":"uint256[]","internalType":"uint256[]"}],"stateMutability":"nonpayable"},{"type":"function","name":"maxDepositPercentageOfTVL","inputs":[],"outputs":[{"name":"","type":"uint256","internalType":"Percentage"}],"stateMutability":"view"},{"type":"function","name":"maxRebalanceInflow","inputs":[],"outputs":[{"name":"","type":"uint256","internalType":"uint256"}],"stateMutability":"view"},{"type":"function","name":"maxRebalanceOutflow","inputs":[],"outputs":[{"name":"","type":"uint256","internalType":"uint256"}],"stateMutability":"view"},{"type":"function","name":"move","inputs":[{"name":"amount","type":"uint256","internalType":"uint256"},{"name":"receiverArk","type":"address","internalType":"address"},{"name":"boardData","type":"bytes","internalType":"bytes"},{"name":"disembarkData","type":"bytes","internalType":"bytes"}],"outputs":[],"stateMutability":"nonpayable"},{"type":"function","name":"name","inputs":[],"outputs":[{"name":"","type":"string","internalType":"string"}],"stateMutability":"view"},{"type":"function","name":"raft","inputs":[],"outputs":[{"name":"","type":"address","internalType":"address"}],"stateMutability":"view"},{"type":"function","name":"registerFleetCommander","inputs":[],"outputs":[],"stateMutability":"nonpayable"},{"type":"function","name":"requiresKeeperData","inputs":[],"outputs":[{"name":"","type":"bool","internalType":"bool"}],"stateMutability":"view"},{"type":"function","name":"setDepositCap","inputs":[{"name":"newDepositCap","type":"uint256","internalType":"uint256"}],"outputs":[],"stateMutability":"nonpayable"},{"type":"function","name":"setMaxDepositPercentageOfTVL","inputs":[{"name":"newMaxDepositPercentageOfTVL","type":"uint256","internalType":"Percentage"}],"outputs":[],"stateMutability":"nonpayable"},{"type":"function","name":"setMaxRebalanceInflow","inputs":[{"name":"newMaxRebalanceInflow","type":"uint256","internalType":"uint256"}],"outputs":[],"stateMutability":"nonpayable"},{"type":"function","name":"setMaxRebalanceOutflow","inputs":[{"name":"newMaxRebalanceOutflow","type":"uint256","internalType":"uint256"}],"outputs":[],"stateMutability":"nonpayable"},{"type":"function","name":"sweep","inputs":[{"name":"tokens","type":"address[]","internalType":"address[]"}],"outputs":[{"name":"sweptTokens","type":"address[]","internalType":"address[]"},{"name":"sweptAmounts","type":"uint256[]","internalType":"uint256[]"}],"stateMutability":"nonpayable"},{"type":"function","name":"tipJar","inputs":[],"outputs":[{"name":"","type":"address","internalType":"address"}],"stateMutability":"view"},{"type":"function","name":"token","inputs":[],"outputs":[{"name":"","type":"address","internalType":"contract IERC20"}],"stateMutability":"view"},{"type":"function","name":"totalAssets","inputs":[],"outputs":[{"name":"suppliedAssets","type":"uint256","internalType":"uint256"}],"stateMutability":"view"},{"type":"function","name":"treasury","inputs":[],"outputs":[{"name":"","type":"address","internalType":"address"}],"stateMutability":"view"},{"type":"function","name":"unregisterFleetCommander","inputs":[],"outputs":[],"stateMutability":"nonpayable"},{"type":"event","name":"ArkHarvested","inputs":[{"name":"rewardTokens","type":"address[]","indexed":true,"internalType":"address[]"},{"name":"rewardAmounts","type":"uint256[]","indexed":true,"internalType":"uint256[]"}],"anonymous":false},{"type":"event","name":"ArkPoked","inputs":[{"name":"currentPrice","type":"uint256","indexed":false,"internalType":"uint256"},{"name":"timestamp","type":"uint256","indexed":false,"internalType":"uint256"}],"anonymous":false},{"type":"event","name":"ArkSwept","inputs":[{"name":"sweptTokens","type":"address[]","indexed":true,"internalType":"address[]"},{"name":"sweptAmounts","type":"uint256[]","indexed":true,"internalType":"uint256[]"}],"anonymous":false},{"type":"event","name":"Boarded","inputs":[{"name":"commander","type":"address","indexed":true,"internalType":"address"},{"name":"token","type":"address","indexed":false,"internalType":"address"},{"name":"amount","type":"uint256","indexed":false,"internalType":"uint256"}],"anonymous":false},{"type":"event","name":"DepositCapUpdated","inputs":[{"name":"newCap","type":"uint256","indexed":false,"internalType":"uint256"}],"anonymous":false},{"type":"event","name":"Disembarked","inputs":[{"name":"commander","type":"address","indexed":true,"internalType":"address"},{"name":"token","type":"address","indexed":false,"internalType":"address"},{"name":"amount","type":"uint256","indexed":false,"internalType":"uint256"}],"anonymous":false},{"type":"event","name":"FleetCommanderRegistered","inputs":[{"name":"commander","type":"address","indexed":false,"internalType":"address"}],"anonymous":false},{"type":"event","name":"FleetCommanderUnregistered","inputs":[{"name":"commander","type":"address","indexed":false,"internalType":"address"}],"anonymous":false},{"type":"event","name":"MaxDepositPercentageOfTVLUpdated","inputs":[{"name":"newMaxDepositPercentageOfTVL","type":"uint256","indexed":false,"internalType":"Percentage"}],"anonymous":false},{"type":"event","name":"MaxRebalanceInflowUpdated","inputs":[{"name":"newMaxInflow","type":"uint256","indexed":false,"internalType":"uint256"}],"anonymous":false},{"type":"event","name":"MaxRebalanceOutflowUpdated","inputs":[{"name":"newMaxOutflow","type":"uint256","indexed":false,"internalType":"uint256"}],"anonymous":false},{"type":"event","name":"Moved","inputs":[{"name":"from","type":"address","indexed":true,"internalType":"address"},{"name":"to","type":"address","indexed":true,"internalType":"address"},{"name":"token","type":"address","indexed":false,"internalType":"address"},{"name":"amount","type":"uint256","indexed":false,"internalType":"uint256"}],"anonymous":false},{"type":"event","name":"RaftUpdated","inputs":[{"name":"newRaft","type":"address","indexed":false,"internalType":"address"}],"anonymous":false},{"type":"error","name":"CallerIsNotAdmin","inputs":[{"name":"caller","type":"address","internalType":"address"}]},{"type":"error","name":"CallerIsNotAuthorizedToBoard","inputs":[{"name":"caller","type":"address","internalType":"address"}]},{"type":"error","name":"CallerIsNotCommander","inputs":[{"name":"caller","type":"address","internalType":"address"}]},{"type":"error","name":"CallerIsNotContractSpecificRole","inputs":[{"name":"caller","type":"address","internalType":"address"},{"name":"role","type":"bytes32","internalType":"bytes32"}]},{"type":"error","name":"CallerIsNotCurator","inputs":[{"name":"caller","type":"address","internalType":"address"}]},{"type":"error","name":"CallerIsNotGovernor","inputs":[{"name":"caller","type":"address","internalType":"address"}]},{"type":"error","name":"CallerIsNotGuardian","inputs":[{"name":"caller","type":"address","internalType":"address"}]},{"type":"error","name":"CallerIsNotGuardianOrGovernor","inputs":[{"name":"caller","type":"address","internalType":"address"}]},{"type":"error","name":"CallerIsNotKeeper","inputs":[{"name":"caller","type":"address","internalType":"address"}]},{"type":"error","name":"CallerIsNotRaft","inputs":[{"name":"caller","type":"address","internalType":"address"}]},{"type":"error","name":"CallerIsNotRaftOrCommander","inputs":[{"name":"caller","type":"address","internalType":"address"}]},{"type":"error","name":"CallerIsNotSuperKeeper","inputs":[{"name":"caller","type":"address","internalType":"address"}]},{"type":"error","name":"CannotAddCommanderToArkWithCommander","inputs":[]},{"type":"error","name":"CannotDeployArkWithEmptyName","inputs":[]},{"type":"error","name":"CannotDeployArkWithoutConfigurationManager","inputs":[]},{"type":"error","name":"CannotDeployArkWithoutRaft","inputs":[]},{"type":"error","name":"CannotDeployArkWithoutToken","inputs":[]},{"type":"error","name":"CannotRemoveCommanderFromArkWithAssets","inputs":[]},{"type":"error","name":"CannotUseKeeperDataWhenNotRequired","inputs":[]},{"type":"error","name":"ConfigurationManagerZeroAddress","inputs":[]},{"type":"error","name":"DirectGrantIsDisabled","inputs":[{"name":"caller","type":"address","internalType":"address"}]},{"type":"error","name":"DirectRevokeIsDisabled","inputs":[{"name":"caller","type":"address","internalType":"address"}]},{"type":"error","name":"ERC4626AssetMismatch","inputs":[]},{"type":"error","name":"InvalidAccessManagerAddress","inputs":[{"name":"invalidAddress","type":"address","internalType":"address"}]},{"type":"error","name":"InvalidBoardData","inputs":[]},{"type":"error","name":"InvalidDisembarkData","inputs":[]},{"type":"error","name":"InvalidVaultAddress","inputs":[]},{"type":"error","name":"KeeperDataRequired","inputs":[]},{"type":"error","name":"ReentrancyGuardReentrantCall","inputs":[]},{"type":"error","name":"SafeERC20FailedOperation","inputs":[{"name":"token","type":"address","internalType":"address"}]}],"bytecode":{"object":"0x60a060405234801561000f575f5ffd5b50604051612a57380380612a5783398101604081905261002e91610485565b6040810151602082015182918291806001600160a01b03811661006b576040516347bd7c1d60e01b81525f60048201526024015b60405180910390fd5b6040516301ffc9a760e01b815263fe1a291f60e01b60048201526001600160a01b038216906301ffc9a790602401602060405180830381865afa1580156100b4573d5f5f3e3d5ffd5b505050506040513d601f19601f820116820180604052508101906100d89190610583565b610100576040516347bd7c1d60e01b81526001600160a01b0382166004820152602401610062565b5f80546001600160a01b0319166001600160a01b039283161790558216905061013c5760405163f1634df960e01b815260040160405180910390fd5b6001600160a01b0390811660805260408201511661016d5760405163b53c493160e01b815260040160405180910390fd5b60608101516001600160a01b031661019b576040516001620a810f60e11b0319815260040160405180910390fd5b8051515f036101bd5760405163268c072960e01b815260040160405180910390fd5b5f6101c661032d565b6001600160a01b0316036101ed57604051633a4f9cdb60e21b815260040160405180910390fd5b6040805161012081019091525f81526020810161020861032d565b6001600160a01b039081168252606080850151821660208085019190915260808087015160408087019190915260a0808901518588015260c0808a01518489015289518289015260e0808b01511515828a01526101008b01519801979097528751600180549188166001600160a01b03199283161781559489015160028054918916918316919091179055918801516003805491909716921691909117909455918501516004559084015160055590830151600655908201516007906102ce9082610627565b5060e082015160078201805460ff1916911515919091179055610100909101516008909101555050600a80546001600160a01b03199081166001600160a01b0395861617909155600b80549091169290931691909117909155506106fa565b5f6080516001600160a01b031663117d8ae06040518163ffffffff1660e01b8152600401602060405180830381865afa15801561036c573d5f5f3e3d5ffd5b505050506040513d601f19601f8201168201806040525081019061039091906106e1565b905090565b80516001600160a01b03811681146103ab575f5ffd5b919050565b634e487b7160e01b5f52604160045260245ffd5b60405161012081016001600160401b03811182821017156103e7576103e76103b0565b60405290565b5f82601f8301126103fc575f5ffd5b81516001600160401b03811115610415576104156103b0565b604051601f8201601f19908116603f011681016001600160401b0381118282101715610443576104436103b0565b60405281815283820160200185101561045a575f5ffd5b8160208501602083015e5f918101602001919091529392505050565b805180151581146103ab575f5ffd5b5f5f5f60608486031215610497575f5ffd5b6104a084610395565b92506104ae60208501610395565b60408501519092506001600160401b038111156104c9575f5ffd5b840161012081870312156104db575f5ffd5b6104e36103c4565b81516001600160401b038111156104f8575f5ffd5b610504888285016103ed565b82525061051360208301610395565b602082015261052460408301610395565b604082015261053560608301610395565b60608201526080828101519082015260a0808301519082015260c0808301519082015261056460e08301610476565b60e0820152610100918201519181019190915292959194509192509050565b5f60208284031215610593575f5ffd5b61059c82610476565b9392505050565b600181811c908216806105b757607f821691505b6020821081036105d557634e487b7160e01b5f52602260045260245ffd5b50919050565b601f82111561062257805f5260205f20601f840160051c810160208510156106005750805b601f840160051c820191505b8181101561061f575f815560010161060c565b50505b505050565b81516001600160401b03811115610640576106406103b0565b6106548161064e84546105a3565b846105db565b6020601f821160018114610686575f831561066f5750848201515b5f19600385901b1c1916600184901b17845561061f565b5f84815260208120601f198516915b828110156106b55787850151825560209485019460019092019101610695565b50848210156106d257868401515f19600387901b60f8161c191681555b50505050600190811b01905550565b5f602082840312156106f1575f5ffd5b61059c82610395565b60805161232961072e5f395f818161039c015281816104f7015281816108a701528181610904015261103b01526123295ff3fe608060405234801561000f575f5ffd5b50600436106101d1575f3560e01c806379502c55116100fe578063bdcdd8821161009e578063ce5c7f611161006e578063ce5c7f61146103be578063dbd5edc7146103d1578063ebf31131146103d9578063fc0c546a146103e1575f5ffd5b8063bdcdd88214610367578063c38a6f0b1461036f578063c3f909d414610382578063c9c667e314610397575f5ffd5b80638a8b9976116100d95780638a8b99761461033157806392f5e83214610339578063ad5a356f1461034c578063ba3e9c1214610354575f5ffd5b806379502c55146102f95780637aaceb9514610316578063866512031461031e575f5ffd5b8063323159721161017457806361d027b31161014457806361d027b3146102aa57806361f5cd8b146102b257806369b3054b146102c5578063780469bb146102d8575f5ffd5b8063323159721461026b578063372709361461027e5780634fc7fac31461028f5780635b0f83f3146102a2575f5ffd5b806313c408f8116101af57806313c408f8146102255780632db6d3991461023a578063303dbaf31461024d5780633194549e14610263575f5ffd5b806301e1d114146101d557806306fdde03146101f0578063117d8ae014610205575b5f5ffd5b6101dd6103f2565b6040519081526020015b60405180910390f35b6101f8610461565b6040516101e79190611c0e565b61020d6104f4565b6040516001600160a01b0390911681526020016101e7565b610238610233366004611c65565b610575565b005b610238610248366004611c65565b61063f565b60085460ff1660405190151581526020016101e7565b6005546101dd565b600b5461020d906001600160a01b031681565b6001546001600160a01b031661020d565b61023861029d366004611cad565b610856565b61020d6108a4565b61020d610901565b6102386102c0366004611cad565b61095e565b6101dd6102d3366004611cdb565b6109a5565b6102eb6102e6366004611d5a565b6109d7565b6040516101e7929190611e0e565b610301610f6d565b6040516101e799989796959493929190611e97565b61020d611038565b61023861032c366004611cad565b611095565b6102386110dc565b610238610347366004611cad565b611139565b6006546101dd565b600a5461020d906001600160a01b031681565b6009546101dd565b61023861037d366004611ef9565b611180565b61038a6112cf565b6040516101e79190611f84565b61020d7f000000000000000000000000000000000000000000000000000000000000000081565b6102eb6103cc366004612035565b611414565b6004546101dd565b61023861150e565b6003546001600160a01b031661020d565b600a546040516370a0823160e01b81523060048201525f916001600160a01b0316906370a0823190602401602060405180830381865afa158015610438573d5f5f3e3d5ffd5b505050506040513d601f19601f8201168201806040525081019061045c9190612074565b905090565b6060600160060180546104739061208b565b80601f016020809104026020016040519081016040528092919081815260200182805461049f9061208b565b80156104ea5780601f106104c1576101008083540402835291602001916104ea565b820191905f5260205f20905b8154815290600101906020018083116104cd57829003601f168201915b5050505050905090565b5f7f00000000000000000000000000000000000000000000000000000000000000006001600160a01b031663117d8ae06040518163ffffffff1660e01b8152600401602060405180830381865afa158015610551573d5f5f3e3d5ffd5b505050506040513d601f19601f8201168201806040525081019061045c91906120c3565b61057d611560565b6105ad57335b604051631564c0e160e11b81526001600160a01b0390911660048201526024015b60405180910390fd5b6105b56115e9565b81816105c18282611658565b336105cd8686866116ba565b6003546105e4906001600160a01b03168288611722565b6003546040516001600160a01b03838116927fd5e872c5ecfb1bb8820b2e6a20e31b883682282da886621541f71e31ec11947e9261062792909116908a906120de565b60405180910390a250505061063a61177a565b505050565b6106476115e9565b306001600160a01b031663372709366040518163ffffffff1660e01b8152600401602060405180830381865afa158015610683573d5f5f3e3d5ffd5b505050506040513d601f19601f820116820180604052508101906106a791906120c3565b6106af611560565b6107ce575f3390505f306001600160a01b031663117d8ae06040518163ffffffff1660e01b8152600401602060405180830381865afa1580156106f4573d5f5f3e3d5ffd5b505050506040513d601f19601f8201168201806040525081019061071891906120c3565b6001600160a01b0316826001600160a01b0316149050806107cb5760405163d25dd10160e01b81526001600160a01b0383811660048301525f919085169063d25dd10190602401602060405180830381865afa15801561077a573d5f5f3e3d5ffd5b505050506040513d601f19601f8201168201806040525081019061079e91906120f7565b9050806107c957604051638f7a567d60e01b81526001600160a01b03841660048201526024016105a4565b505b50505b82826107da8282611658565b60035433906107f4906001600160a01b031682308a6117a4565b6107ff8787876117e3565b6003546040516001600160a01b03838116927fcbaa1442ac205415c9d69643e7b60ec73d1de35dbc807c21ec288c70ddc4207b9261084292909116908b906120de565b60405180910390a25050505061063a61177a565b61085e611560565b6108685733610583565b60098190556040518181527fd3c6d0ab315f2f1352f036cd9f401b49e38e1b90907e195225e8105f9a0b6f02906020015b60405180910390a150565b5f7f00000000000000000000000000000000000000000000000000000000000000006001600160a01b0316635b0f83f36040518163ffffffff1660e01b8152600401602060405180830381865afa158015610551573d5f5f3e3d5ffd5b5f7f00000000000000000000000000000000000000000000000000000000000000006001600160a01b03166361d027b36040518163ffffffff1660e01b8152600401602060405180830381865afa158015610551573d5f5f3e3d5ffd5b610966611560565b6109705733610583565b60058190556040518181527ffbe2d5c01ea8ba5596d6c4e6c82c6d4a0a0ee1128689993a4a5ba0169273d69f90602001610899565b5f82826040516020016109b9929190612116565b60405160208183030381529060405280519060200120905092915050565b606080306001600160a01b031663117d8ae06040518163ffffffff1660e01b8152600401602060405180830381865afa158015610a16573d5f5f3e3d5ffd5b505050506040513d601f19601f82011682018060405250810190610a3a91906120c3565b6001600160a01b0316336001600160a01b031614610a7957335b604051631184b31b60e21b81526001600160a01b0390911660048201526024016105a4565b610a816115e9565b825167ffffffffffffffff811115610a9b57610a9b611d15565b604051908082528060200260200182016040528015610ac4578160200160208202803683370190505b509150825167ffffffffffffffff811115610ae157610ae1611d15565b604051908082528060200260200182016040528015610b0a578160200160208202803683370190505b506003546040516370a0823160e01b81523060048201529192505f916001600160a01b03909116906370a0823190602401602060405180830381865afa158015610b56573d5f5f3e3d5ffd5b505050506040513d601f19601f82011682018060405250810190610b7a9190612074565b1115610d3e57600154604080516330fe427560e21b815290515f926001600160a01b03169163c3f909d49160048083019260a09291908290030181865afa158015610bc7573d5f5f3e3d5ffd5b505050506040513d601f19601f82011682018060405250810190610beb9190612159565b516003546040516370a0823160e01b8152306004820152919250610c709183916001600160a01b0316906370a0823190602401602060405180830381865afa158015610c39573d5f5f3e3d5ffd5b505050506040513d601f19601f82011682018060405250810190610c5d9190612074565b6003546001600160a01b03169190611890565b6003546040516370a0823160e01b81523060048201526001600160a01b0383811692632db6d399929116906370a0823190602401602060405180830381865afa158015610cbf573d5f5f3e3d5ffd5b505050506040513d601f19601f82011682018060405250810190610ce39190612074565b60405180602001604052805f8152506040518363ffffffff1660e01b8152600401610d0f9291906121d6565b5f604051808303815f87803b158015610d26575f5ffd5b505af1158015610d38573d5f5f3e3d5ffd5b50505050505b5f5b8351811015610f0c575f848281518110610d5c57610d5c6121f6565b60209081029190910101516040516370a0823160e01b81523060048201526001600160a01b03909116906370a0823190602401602060405180830381865afa158015610daa573d5f5f3e3d5ffd5b505050506040513d601f19601f82011682018060405250810190610dce9190612074565b90508015610f0357610e97610de16104f4565b868481518110610df357610df36121f6565b60209081029190910101516040516370a0823160e01b81523060048201526001600160a01b03909116906370a0823190602401602060405180830381865afa158015610e41573d5f5f3e3d5ffd5b505050506040513d601f19601f82011682018060405250810190610e659190612074565b878581518110610e7757610e776121f6565b60200260200101516001600160a01b03166117229092919063ffffffff16565b848281518110610ea957610ea96121f6565b6020026020010151848381518110610ec357610ec36121f6565b60200260200101906001600160a01b031690816001600160a01b03168152505080838381518110610ef657610ef66121f6565b6020026020010181815250505b50600101610d40565b5080604051610f1b919061220a565b604051809103902082604051610f31919061223f565b604051908190038120907f46b8771620f6acf56cb03d3e835ea8024c7dcbcf05fcc3f6ade9e19d1a3e212b905f90a3610f6861177a565b915091565b60018054600254600354600454600554600654600780546001600160a01b03978816989688169790951695939492939192610fa79061208b565b80601f0160208091040260200160405190810160405280929190818152602001828054610fd39061208b565b801561101e5780601f10610ff55761010080835404028352916020019161101e565b820191905f5260205f20905b81548152906001019060200180831161100157829003601f168201915b505050506007830154600890930154919260ff1691905089565b5f7f00000000000000000000000000000000000000000000000000000000000000006001600160a01b0316637aaceb956040518163ffffffff1660e01b8152600401602060405180830381865afa158015610551573d5f5f3e3d5ffd5b61109d611560565b6110a75733610583565b60048190556040518181527f333b26cca69716ad4680ddb07663f5bfb4f06045671f336af9a83690a3ae00f990602001610899565b6110e4611560565b6110ee5733610583565b600180546001600160a01b031916339081179091556040519081527f55489ce0259bd691120d8860861be1c401c7c16a3cd268d21045756af4ecc5ca906020015b60405180910390a1565b611141611560565b61114b5733610583565b60068190556040518181527fb6ac66853c4e59c71e118d25ab494bb847c4e5eb0c8894898c5343e6f61afc1290602001610899565b611188611560565b6111925733610583565b818161119e8282611658565b6111a98885856116ba565b60035460405163095ea7b360e01b81526001600160a01b039091169063095ea7b3906111db908a908c906004016120de565b6020604051808303815f875af11580156111f7573d5f5f3e3d5ffd5b505050506040513d601f19601f8201168201806040525081019061121b91906120f7565b50604051632db6d39960e01b81526001600160a01b03881690632db6d3999061124c908b908a908a90600401612272565b5f604051808303815f87803b158015611263575f5ffd5b505af1158015611275573d5f5f3e3d5ffd5b50506003546040516001600160a01b03808c1694503093507f9f784fc02a186f1c98b2d9f15fda084da27cdd291a3785d978f91911d880516b926112bd929116908d906120de565b60405180910390a35050505050505050565b60408051610120810182525f8082526020820181905291810182905260608082018390526080820183905260a0820183905260c082015260e081018290526101008101919091526040805161012081018252600180546001600160a01b0390811683526002548116602084015260035416928201929092526004546060820152600554608082015260065460a08201526007805491929160c0840191906113759061208b565b80601f01602080910402602001604051908101604052809291908181526020018280546113a19061208b565b80156113ec5780601f106113c3576101008083540402835291602001916113ec565b820191905f5260205f20905b8154815290600101906020018083116113cf57829003601f168201915b5050509183525050600782015460ff1615156020820152600890910154604090910152919050565b606080306001600160a01b031663117d8ae06040518163ffffffff1660e01b8152600401602060405180830381865afa158015611453573d5f5f3e3d5ffd5b505050506040513d601f19601f8201168201806040525081019061147791906120c3565b6001600160a01b0316336001600160a01b0316146114955733610a54565b61149d6115e9565b6114a78484611920565b60405191935091506114ba90829061220a565b6040518091039020826040516114d0919061223f565b604051908190038120907f3e3e7958121b3e39c7a49392d1aa9cdce870c2a059744f9e15cf66fff7865455905f90a361150761177a565b9250929050565b611516611560565b6115205733610583565b600180546001600160a01b03191690556040513381527f7cb941d7b1708e5b3bcd35ca960d6c6311188cec18886e5b67630552676b04879060200161112f565b5f80546001600160a01b03166391d1485461157c6002306109a5565b336040516001600160e01b031960e085901b16815260048101929092526001600160a01b03166024820152604401602060405180830381865afa1580156115c5573d5f5f3e3d5ffd5b505050506040513d601f19601f8201168201806040525081019061045c91906120f7565b7f9b779b17422d0df92223018b32b4d1fa46e071723d6817e2486d003becc55f005c1561162957604051633ee5aeb560e01b815260040160405180910390fd5b61165660017f9b779b17422d0df92223018b32b4d1fa46e071723d6817e2486d003becc55f005b90611b24565b565b801580159061166a575060085460ff16155b1561168857604051630cd0fdf960e01b815260040160405180910390fd5b80158015611698575060085460ff165b156116b65760405163332863a960e11b815260040160405180910390fd5b5050565b600a5460035460405163f3fef3a360e01b81526001600160a01b039283169263f3fef3a3926116f09291169087906004016120de565b5f604051808303815f87803b158015611707575f5ffd5b505af1158015611719573d5f5f3e3d5ffd5b50505050505050565b61063a83846001600160a01b031663a9059cbb85856040516024016117489291906120de565b604051602081830303815290604052915060e01b6020820180516001600160e01b038381831617835250505050611b2b565b6116565f7f9b779b17422d0df92223018b32b4d1fa46e071723d6817e2486d003becc55f00611650565b6040516001600160a01b0384811660248301528381166044830152606482018390526117dd9186918216906323b872dd90608401611748565b50505050565b600354600a5460405163095ea7b360e01b81526001600160a01b039283169263095ea7b3926118199291169087906004016120de565b6020604051808303815f875af1158015611835573d5f5f3e3d5ffd5b505050506040513d601f19601f8201168201806040525081019061185991906120f7565b50600a54600354604051631e573fb760e31b81526001600160a01b039283169263f2b9fdb8926116f09291169087906004016120de565b5f836001600160a01b031663095ea7b384846040516024016118b39291906120de565b604051602081830303815290604052915060e01b6020820180516001600160e01b03838183161783525050505090506118ec8482611b97565b6117dd5761191684856001600160a01b031663095ea7b3865f6040516024016117489291906120de565b6117dd8482611b2b565b6040805160018082528183019092526060918291906020808301908036833750506040805160018082528183019092529294509050602080830190803683370190505090505f611972848601866122a7565b9050805f0151835f8151811061198a5761198a6121f6565b6001600160a01b039283166020918202929092010152600b54600a54604051635b81a7bf60e11b815290831660048201523060248201526001604482015291169063b7034f7e906064015f604051808303815f87803b1580156119eb575f5ffd5b505af11580156119fd573d5f5f3e3d5ffd5b505082516040516370a0823160e01b81523060048201526001600160a01b0390911692506370a082319150602401602060405180830381865afa158015611a46573d5f5f3e3d5ffd5b505050506040513d601f19601f82011682018060405250810190611a6a9190612074565b825f81518110611a7c57611a7c6121f6565b602002602001018181525050611ac9611a936104f4565b835f81518110611aa557611aa56121f6565b6020026020010151835f01516001600160a01b03166117229092919063ffffffff16565b81604051611ad7919061220a565b604051809103902083604051611aed919061223f565b604051908190038120907f3e3e7958121b3e39c7a49392d1aa9cdce870c2a059744f9e15cf66fff7865455905f90a3509250929050565b80825d5050565b5f5f60205f8451602086015f885af180611b4a576040513d5f823e3d81fd5b50505f513d91508115611b61578060011415611b6e565b6001600160a01b0384163b155b156117dd57604051635274afe760e01b81526001600160a01b03851660048201526024016105a4565b5f5f5f5f60205f8651602088015f8a5af192503d91505f519050828015611bd657508115611bc85780600114611bd6565b5f866001600160a01b03163b115b9695505050505050565b5f81518084528060208401602086015e5f602082860101526020601f19601f83011685010191505092915050565b602081525f611c206020830184611be0565b9392505050565b5f5f83601f840112611c37575f5ffd5b50813567ffffffffffffffff811115611c4e575f5ffd5b602083019150836020828501011115611507575f5ffd5b5f5f5f60408486031215611c77575f5ffd5b83359250602084013567ffffffffffffffff811115611c94575f5ffd5b611ca086828701611c27565b9497909650939450505050565b5f60208284031215611cbd575f5ffd5b5035919050565b6001600160a01b0381168114611cd8575f5ffd5b50565b5f5f60408385031215611cec575f5ffd5b823560038110611cfa575f5ffd5b91506020830135611d0a81611cc4565b809150509250929050565b634e487b7160e01b5f52604160045260245ffd5b604051601f8201601f1916810167ffffffffffffffff81118282101715611d5257611d52611d15565b604052919050565b5f60208284031215611d6a575f5ffd5b813567ffffffffffffffff811115611d80575f5ffd5b8201601f81018413611d90575f5ffd5b803567ffffffffffffffff811115611daa57611daa611d15565b8060051b611dba60208201611d29565b91825260208184018101929081019087841115611dd5575f5ffd5b6020850194505b83851015611e035784359250611df183611cc4565b82825260209485019490910190611ddc565b979650505050505050565b604080825283519082018190525f9060208501906060840190835b81811015611e505783516001600160a01b0316835260209384019390920191600101611e29565b5050838103602080860191909152855180835291810192508501905f5b81811015611e8b578251845260209384019390920191600101611e6d565b50919695505050505050565b6001600160a01b038a81168252898116602083015288166040820152606081018790526080810186905260a0810185905261012060c082018190525f90611ee090830186611be0565b93151560e0830152506101000152979650505050505050565b5f5f5f5f5f5f60808789031215611f0e575f5ffd5b863595506020870135611f2081611cc4565b9450604087013567ffffffffffffffff811115611f3b575f5ffd5b611f4789828a01611c27565b909550935050606087013567ffffffffffffffff811115611f66575f5ffd5b611f7289828a01611c27565b979a9699509497509295939492505050565b60208152611f9e6020820183516001600160a01b03169052565b5f6020830151611fb960408401826001600160a01b03169052565b5060408301516001600160a01b03811660608401525060608301516080830152608083015160a083015260a083015160c083015260c083015161012060e0840152612008610140840182611be0565b905060e084015161201e61010085018215159052565b506101008401516101208401528091505092915050565b5f5f60208385031215612046575f5ffd5b823567ffffffffffffffff81111561205c575f5ffd5b61206885828601611c27565b90969095509350505050565b5f60208284031215612084575f5ffd5b5051919050565b600181811c9082168061209f57607f821691505b6020821081036120bd57634e487b7160e01b5f52602260045260245ffd5b50919050565b5f602082840312156120d3575f5ffd5b8151611c2081611cc4565b6001600160a01b03929092168252602082015260400190565b5f60208284031215612107575f5ffd5b81518015158114611c20575f5ffd5b5f6003841061213357634e487b7160e01b5f52602160045260245ffd5b5060f89290921b825260601b6bffffffffffffffffffffffff1916600182015260150190565b5f60a082840312801561216a575f5ffd5b5060405160a0810167ffffffffffffffff8111828210171561218e5761218e611d15565b604052825161219c81611cc4565b815260208381015190820152604080840151908201526060808401519082015260808301516121ca81611cc4565b60808201529392505050565b828152604060208201525f6121ee6040830184611be0565b949350505050565b634e487b7160e01b5f52603260045260245ffd5b81515f90829060208501835b82811015612234578151845260209384019390910190600101612216565b509195945050505050565b81515f90829060208501835b828110156122345781516001600160a01b031684526020938401939091019060010161224b565b83815260406020820152816040820152818360608301375f818301606090810191909152601f909201601f1916010192915050565b5f60208284031280156122b8575f5ffd5b506040516020810167ffffffffffffffff811182821017156122dc576122dc611d15565b60405282356122ea81611cc4565b8152939250505056fea2646970667358221220d7d7026583cde8f714eaa79792fbe194b2f41dd39c7caa53cb82d974181d07c064736f6c634300081c0033","linkReferences":{}},"methodIdentifiers":{"board(uint256,bytes)":"2db6d399","comet()":"ba3e9c12","cometRewards()":"32315972","commander()":"37270936","config()":"79502c55","configurationManager()":"c9c667e3","depositCap()":"dbd5edc7","disembark(uint256,bytes)":"13c408f8","generateRole(uint8,address)":"69b3054b","getConfig()":"c3f909d4","harborCommand()":"5b0f83f3","harvest(bytes)":"ce5c7f61","maxDepositPercentageOfTVL()":"bdcdd882","maxRebalanceInflow()":"ad5a356f","maxRebalanceOutflow()":"3194549e","move(uint256,address,bytes,bytes)":"c38a6f0b","name()":"06fdde03","raft()":"117d8ae0","registerFleetCommander()":"8a8b9976","requiresKeeperData()":"303dbaf3","setDepositCap(uint256)":"86651203","setMaxDepositPercentageOfTVL(uint256)":"4fc7fac3","setMaxRebalanceInflow(uint256)":"92f5e832","setMaxRebalanceOutflow(uint256)":"61f5cd8b","sweep(address[])":"780469bb","tipJar()":"7aaceb95","token()":"fc0c546a","totalAssets()":"01e1d114","treasury()":"61d027b3","unregisterFleetCommander()":"ebf31131"},"id":201}