{"abi":[{"type":"constructor","inputs":[{"name":"_comet","type":"address","internalType":"address"},{"name":"_cometRewards","type":"address","internalType":"address"},{"name":"_params","type":"tuple","internalType":"struct ArkParams","components":[{"name":"accessManager","type":"address","internalType":"address"},{"name":"configurationManager","type":"address","internalType":"address"},{"name":"token","type":"address","internalType":"address"},{"name":"maxAllocation","type":"uint256","internalType":"uint256"}]}],"stateMutability":"nonpayable"},{"type":"function","name":"DEFAULT_ADMIN_ROLE","inputs":[],"outputs":[{"name":"","type":"bytes32","internalType":"bytes32"}],"stateMutability":"view"},{"type":"function","name":"SECONDS_PER_YEAR","inputs":[],"outputs":[{"name":"","type":"uint256","internalType":"uint256"}],"stateMutability":"view"},{"type":"function","name":"WAD_TO_RAY","inputs":[],"outputs":[{"name":"","type":"uint256","internalType":"uint256"}],"stateMutability":"view"},{"type":"function","name":"board","inputs":[{"name":"amount","type":"uint256","internalType":"uint256"}],"outputs":[],"stateMutability":"nonpayable"},{"type":"function","name":"comet","inputs":[],"outputs":[{"name":"","type":"address","internalType":"contract IComet"}],"stateMutability":"view"},{"type":"function","name":"cometRewards","inputs":[],"outputs":[{"name":"","type":"address","internalType":"contract ICometRewards"}],"stateMutability":"view"},{"type":"function","name":"commander","inputs":[],"outputs":[{"name":"","type":"address","internalType":"address"}],"stateMutability":"view"},{"type":"function","name":"disembark","inputs":[{"name":"amount","type":"uint256","internalType":"uint256"}],"outputs":[],"stateMutability":"nonpayable"},{"type":"function","name":"getRoleAdmin","inputs":[{"name":"role","type":"bytes32","internalType":"bytes32"}],"outputs":[{"name":"","type":"bytes32","internalType":"bytes32"}],"stateMutability":"view"},{"type":"function","name":"grantCommanderRole","inputs":[{"name":"account","type":"address","internalType":"address"}],"outputs":[],"stateMutability":"nonpayable"},{"type":"function","name":"grantRole","inputs":[{"name":"","type":"bytes32","internalType":"bytes32"},{"name":"","type":"address","internalType":"address"}],"outputs":[],"stateMutability":"view"},{"type":"function","name":"harvest","inputs":[{"name":"rewardToken","type":"address","internalType":"address"},{"name":"additionalData","type":"bytes","internalType":"bytes"}],"outputs":[{"name":"","type":"uint256","internalType":"uint256"}],"stateMutability":"nonpayable"},{"type":"function","name":"hasRole","inputs":[{"name":"role","type":"bytes32","internalType":"bytes32"},{"name":"account","type":"address","internalType":"address"}],"outputs":[{"name":"","type":"bool","internalType":"bool"}],"stateMutability":"view"},{"type":"function","name":"manager","inputs":[],"outputs":[{"name":"","type":"address","internalType":"contract IConfigurationManager"}],"stateMutability":"view"},{"type":"function","name":"maxAllocation","inputs":[],"outputs":[{"name":"","type":"uint256","internalType":"uint256"}],"stateMutability":"view"},{"type":"function","name":"move","inputs":[{"name":"amount","type":"uint256","internalType":"uint256"},{"name":"receiverArk","type":"address","internalType":"address"}],"outputs":[],"stateMutability":"nonpayable"},{"type":"function","name":"poke","inputs":[],"outputs":[],"stateMutability":"nonpayable"},{"type":"function","name":"raft","inputs":[],"outputs":[{"name":"","type":"address","internalType":"address"}],"stateMutability":"view"},{"type":"function","name":"rate","inputs":[],"outputs":[{"name":"supplyRate","type":"uint256","internalType":"uint256"}],"stateMutability":"view"},{"type":"function","name":"renounceRole","inputs":[{"name":"role","type":"bytes32","internalType":"bytes32"},{"name":"callerConfirmation","type":"address","internalType":"address"}],"outputs":[],"stateMutability":"nonpayable"},{"type":"function","name":"revokeCommanderRole","inputs":[{"name":"account","type":"address","internalType":"address"}],"outputs":[],"stateMutability":"nonpayable"},{"type":"function","name":"revokeRole","inputs":[{"name":"","type":"bytes32","internalType":"bytes32"},{"name":"","type":"address","internalType":"address"}],"outputs":[],"stateMutability":"view"},{"type":"function","name":"setMaxAllocation","inputs":[{"name":"newMaxAllocation","type":"uint256","internalType":"uint256"}],"outputs":[],"stateMutability":"nonpayable"},{"type":"function","name":"supportsInterface","inputs":[{"name":"interfaceId","type":"bytes4","internalType":"bytes4"}],"outputs":[{"name":"","type":"bool","internalType":"bool"}],"stateMutability":"view"},{"type":"function","name":"token","inputs":[],"outputs":[{"name":"","type":"address","internalType":"contract IERC20"}],"stateMutability":"view"},{"type":"function","name":"totalAssets","inputs":[],"outputs":[{"name":"suppliedAssets","type":"uint256","internalType":"uint256"}],"stateMutability":"view"},{"type":"event","name":"ArkPoked","inputs":[{"name":"currentPrice","type":"uint256","indexed":false,"internalType":"uint256"},{"name":"timestamp","type":"uint256","indexed":false,"internalType":"uint256"}],"anonymous":false},{"type":"event","name":"ArkPokedNoChange","inputs":[],"anonymous":false},{"type":"event","name":"ArkPokedTooSoon","inputs":[],"anonymous":false},{"type":"event","name":"Boarded","inputs":[{"name":"commander","type":"address","indexed":true,"internalType":"address"},{"name":"token","type":"address","indexed":false,"internalType":"address"},{"name":"amount","type":"uint256","indexed":false,"internalType":"uint256"}],"anonymous":false},{"type":"event","name":"DepositCapUpdated","inputs":[{"name":"newCap","type":"uint256","indexed":false,"internalType":"uint256"}],"anonymous":false},{"type":"event","name":"Disembarked","inputs":[{"name":"commander","type":"address","indexed":true,"internalType":"address"},{"name":"token","type":"address","indexed":false,"internalType":"address"},{"name":"amount","type":"uint256","indexed":false,"internalType":"uint256"}],"anonymous":false},{"type":"event","name":"Harvested","inputs":[{"name":"amount","type":"uint256","indexed":false,"internalType":"uint256"}],"anonymous":false},{"type":"event","name":"MaxAllocationUpdated","inputs":[{"name":"newMaxAllocation","type":"uint256","indexed":false,"internalType":"uint256"}],"anonymous":false},{"type":"event","name":"Moved","inputs":[{"name":"from","type":"address","indexed":true,"internalType":"address"},{"name":"to","type":"address","indexed":true,"internalType":"address"},{"name":"token","type":"address","indexed":false,"internalType":"address"},{"name":"amount","type":"uint256","indexed":false,"internalType":"uint256"}],"anonymous":false},{"type":"event","name":"RaftUpdated","inputs":[{"name":"newRaft","type":"address","indexed":false,"internalType":"address"}],"anonymous":false},{"type":"event","name":"RoleAdminChanged","inputs":[{"name":"role","type":"bytes32","indexed":true,"internalType":"bytes32"},{"name":"previousAdminRole","type":"bytes32","indexed":true,"internalType":"bytes32"},{"name":"newAdminRole","type":"bytes32","indexed":true,"internalType":"bytes32"}],"anonymous":false},{"type":"event","name":"RoleGranted","inputs":[{"name":"role","type":"bytes32","indexed":true,"internalType":"bytes32"},{"name":"account","type":"address","indexed":true,"internalType":"address"},{"name":"sender","type":"address","indexed":true,"internalType":"address"}],"anonymous":false},{"type":"event","name":"RoleRevoked","inputs":[{"name":"role","type":"bytes32","indexed":true,"internalType":"bytes32"},{"name":"account","type":"address","indexed":true,"internalType":"address"},{"name":"sender","type":"address","indexed":true,"internalType":"address"}],"anonymous":false},{"type":"error","name":"AccessControlBadConfirmation","inputs":[]},{"type":"error","name":"AccessControlUnauthorizedAccount","inputs":[{"name":"account","type":"address","internalType":"address"},{"name":"neededRole","type":"bytes32","internalType":"bytes32"}]},{"type":"error","name":"AddressEmptyCode","inputs":[{"name":"target","type":"address","internalType":"address"}]},{"type":"error","name":"AddressInsufficientBalance","inputs":[{"name":"account","type":"address","internalType":"address"}]},{"type":"error","name":"CallerIsNotAuthorizedToBoard","inputs":[{"name":"caller","type":"address","internalType":"address"}]},{"type":"error","name":"CallerIsNotCommander","inputs":[{"name":"caller","type":"address","internalType":"address"}]},{"type":"error","name":"CallerIsNotGovernor","inputs":[{"name":"caller","type":"address","internalType":"address"}]},{"type":"error","name":"CannotAddCommanderToArkWithCommander","inputs":[]},{"type":"error","name":"CannotRemoveCommanderFromArkWithAssets","inputs":[]},{"type":"error","name":"DirectGrantIsDisabled","inputs":[{"name":"caller","type":"address","internalType":"address"}]},{"type":"error","name":"DirectRevokeIsDisabled","inputs":[{"name":"caller","type":"address","internalType":"address"}]},{"type":"error","name":"FailedInnerCall","inputs":[]},{"type":"error","name":"InvalidAccessManagerAddress","inputs":[{"name":"invalidAddress","type":"address","internalType":"address"}]},{"type":"error","name":"InvalidVaultAddress","inputs":[]},{"type":"error","name":"SafeERC20FailedOperation","inputs":[{"name":"token","type":"address","internalType":"address"}]}],"bytecode":{"object":"0x608060405234801561000f575f80fd5b506040516119a73803806119a783398101604081905261002e91610205565b80518190806001600160a01b038116610061576040516347bd7c1d60e01b81525f60048201526024015b60405180910390fd5b6040516301ffc9a760e01b815263f87138b560e01b60048201526001600160a01b038216906301ffc9a790602401602060405180830381865afa1580156100aa573d5f803e3d5ffd5b505050506040513d601f19601f820116820180604052508101906100ce91906102ba565b6100f6576040516347bd7c1d60e01b81526001600160a01b0382166004820152602401610058565b5f80546001600160a01b03199081166001600160a01b03938416178255602085810151600680549093169416938417909155606085015160035560408051628bec5760e51b8152905193945063117d8ae093600480830194919283900301908290875af1158015610169573d5f803e3d5ffd5b505050506040513d601f19601f8201168201806040525081019061018d91906102e0565b600280546001600160a01b039283166001600160a01b0319918216179091556040909201516004805491831691841691909117905560078054958216958316959095179094556008805493909416921691909117909155506102f9565b80516001600160a01b0381168114610200575f80fd5b919050565b5f805f83850360c0811215610218575f80fd5b610221856101ea565b935061022f602086016101ea565b92506080603f1982011215610242575f80fd5b50604051608081016001600160401b038111828210171561027157634e487b7160e01b5f52604160045260245ffd5b8060405250610282604086016101ea565b8152610290606086016101ea565b60208201526102a1608086016101ea565b604082015260a094909401516060850152509093909250565b5f602082840312156102ca575f80fd5b815180151581146102d9575f80fd5b9392505050565b5f602082840312156102f0575f80fd5b6102d9826101ea565b6116a1806103065f395ff3fe608060405234801561000f575f80fd5b5060043610610187575f3560e01c80634dd47eba116100d95780639b3ba79f11610093578063d547741f1161006e578063d547741f14610333578063d8a8e03a14610346578063e6a69ab814610359578063fc0c546a14610364575f80fd5b80639b3ba79f14610310578063a217fddf14610319578063ba3e9c1214610320575f80fd5b80634dd47eba1461029e57806372f12344146102b15780637399bfe8146102c457806381d3ce26146102d757806391d14854146102ea5780639403e41f146102fd575f80fd5b806328ed6e3f11610144578063323159721161011f578063323159721461025257806336568abe146102655780633727093614610278578063481c6a751461028b575f80fd5b806328ed6e3f146102245780632c4e722e146102375780632f2ff15d1461023f575f80fd5b806301e1d1141461018b57806301ffc9a7146101a6578063117d8ae0146101c9578063163c8381146101f457806318178358146101ff578063248a9ca314610201575b5f80fd5b610193610377565b6040519081526020015b60405180910390f35b6101b96101b436600461149f565b6103e6565b604051901515815260200161019d565b6002546101dc906001600160a01b031681565b6040516001600160a01b03909116815260200161019d565b610193633b9aca0081565b005b61019361020f3660046114c6565b5f908152600160208190526040909120015490565b6101ff6102323660046114c6565b61041c565b6101936105bf565b6101ff61024d3660046114f1565b6106d5565b6008546101dc906001600160a01b031681565b6101ff6102733660046114f1565b6106f0565b6005546101dc906001600160a01b031681565b6006546101dc906001600160a01b031681565b6101ff6102ac3660046114c6565b610728565b6101ff6102bf3660046114c6565b6107be565b6101936102d236600461151f565b610820565b6101ff6102e536600461159f565b6108b1565b6101b96102f83660046114f1565b610a26565b6101ff61030b36600461159f565b610a50565b61019360035481565b6101935f81565b6007546101dc906001600160a01b031681565b6101ff6103413660046114f1565b610bc1565b6101ff6103543660046114f1565b610bdc565b6101936301e1338081565b6004546101dc906001600160a01b031681565b6007546040516370a0823160e01b81523060048201525f916001600160a01b0316906370a0823190602401602060405180830381865afa1580156103bd573d5f803e3d5ffd5b505050506040513d601f19601f820116820180604052508101906103e191906115ba565b905090565b5f6001600160e01b03198216637965db0b60e01b148061041657506301ffc9a760e01b6001600160e01b03198316145b92915050565b6005546001600160a01b0316610430610d28565b61054d575f3390505f306001600160a01b031663117d8ae06040518163ffffffff1660e01b8152600401602060405180830381865afa158015610475573d5f803e3d5ffd5b505050506040513d601f19601f8201168201806040525081019061049991906115d1565b60405163d25dd10160e01b81526001600160a01b038481166004830181905292811690921492505f9185169063d25dd10190602401602060405180830381865afa1580156104e9573d5f803e3d5ffd5b505050506040513d601f19601f8201168201806040525081019061050d91906115ec565b90508015801561051b575081155b1561054957604051638f7a567d60e01b81526001600160a01b03841660048201526024015b60405180910390fd5b5050505b6004543390610567906001600160a01b0316823086610d9b565b61057083610e08565b600454604080516001600160a01b03928316815260208101869052918316917fcbaa1442ac205415c9d69643e7b60ec73d1de35dbc807c21ec288c70ddc4207b910160405180910390a2505050565b5f8060075f9054906101000a90046001600160a01b03166001600160a01b0316637eb711316040518163ffffffff1660e01b8152600401602060405180830381865afa158015610611573d5f803e3d5ffd5b505050506040513d601f19601f8201168201806040525081019061063591906115ba565b60075460405163d955759d60e01b8152600481018390529192505f916001600160a01b039091169063d955759d90602401602060405180830381865afa158015610681573d5f803e3d5ffd5b505050506040513d601f19601f820116820180604052508101906106a5919061160b565b67ffffffffffffffff169050633b9aca006106c46301e1338083611632565b6106ce9190611632565b9250505090565b604051630e15200f60e21b8152336004820152602401610540565b6001600160a01b03811633146107195760405163334bd91960e11b815260040160405180910390fd5b6107238282610eec565b505050565b610730610d28565b61074f57604051631564c0e160e11b8152336004820152602401610540565b3361075982610f5e565b600454610770906001600160a01b03168284610f9d565b600454604080516001600160a01b03928316815260208101859052918316917fd5e872c5ecfb1bb8820b2e6a20e31b883682282da886621541f71e31ec11947e910160405180910390a25050565b6107c6610d28565b6107e557604051631564c0e160e11b8152336004820152602401610540565b60038190556040518181527ff71dfae69e41913414884e69a96ee28ef3f1ce5593bee0fb570cf9404e41a8089060200160405180910390a150565b5f61089c60065f9054906101000a90046001600160a01b03166001600160a01b031663117d8ae06040518163ffffffff1660e01b81526004016020604051808303815f875af1158015610875573d5f803e3d5ffd5b505050506040513d601f19601f8201168201806040525081019061089991906115d1565b50565b6108a7848484610fce565b90505b9392505050565b5f5460408051630ccc574960e41b815290516001600160a01b03909216916391d1485491839163ccc57490916004808201926020929091908290030181865afa158015610900573d5f803e3d5ffd5b505050506040513d601f19601f8201168201806040525081019061092491906115ba565b6040516001600160e01b031960e084901b1681526004810191909152336024820152604401602060405180830381865afa158015610964573d5f803e3d5ffd5b505050506040513d601f19601f8201168201806040525081019061098891906115ec565b6109a757604051630ea7d7ed60e21b8152336004820152602401610540565b6109b0816110f8565b5f54604080516345b817bb60e01b81529051610a22926001600160a01b0316916345b817bb9160048083019260209291908290030181865afa1580156109f8573d5f803e3d5ffd5b505050506040513d601f19601f82011682018060405250810190610a1c91906115ba565b82610eec565b5050565b5f9182526001602090815260408084206001600160a01b0393909316845291905290205460ff1690565b5f5460408051630ccc574960e41b815290516001600160a01b03909216916391d1485491839163ccc57490916004808201926020929091908290030181865afa158015610a9f573d5f803e3d5ffd5b505050506040513d601f19601f82011682018060405250810190610ac391906115ba565b6040516001600160e01b031960e084901b1681526004810191909152336024820152604401602060405180830381865afa158015610b03573d5f803e3d5ffd5b505050506040513d601f19601f82011682018060405250810190610b2791906115ec565b610b4657604051630ea7d7ed60e21b8152336004820152602401610540565b610b4f8161118b565b5f54604080516345b817bb60e01b81529051610a22926001600160a01b0316916345b817bb9160048083019260209291908290030181865afa158015610b97573d5f803e3d5ffd5b505050506040513d601f19601f82011682018060405250810190610bbb91906115ba565b826112cd565b604051636344978560e11b8152336004820152602401610540565b610be4610d28565b610c0357604051631564c0e160e11b8152336004820152602401610540565b610c0c82610f5e565b6004805460405163095ea7b360e01b81526001600160a01b03848116938201939093526024810185905291169063095ea7b3906044016020604051808303815f875af1158015610c5e573d5f803e3d5ffd5b505050506040513d601f19601f82011682018060405250810190610c8291906115ec565b506040516328ed6e3f60e01b8152600481018390526001600160a01b038216906328ed6e3f906024015f604051808303815f87803b158015610cc2575f80fd5b505af1158015610cd4573d5f803e3d5ffd5b5050600454604080516001600160a01b0392831681526020810187905291851693503092507f9f784fc02a186f1c98b2d9f15fda084da27cdd291a3785d978f91911d880516b910160405180910390a35050565b5f8054604080516345b817bb60e01b815290516103e1926001600160a01b0316916345b817bb9160048083019260209291908290030181865afa158015610d71573d5f803e3d5ffd5b505050506040513d601f19601f82011682018060405250810190610d9591906115ba565b33610a26565b6040516001600160a01b038481166024830152838116604483015260648201839052610e029186918216906323b872dd906084015b604051602081830303815290604052915060e01b6020820180516001600160e01b03838183161783525050505061133c565b50505050565b6004805460075460405163095ea7b360e01b81526001600160a01b039182169381019390935260248301849052169063095ea7b3906044016020604051808303815f875af1158015610e5c573d5f803e3d5ffd5b505050506040513d601f19601f82011682018060405250810190610e8091906115ec565b5060075460048054604051631e573fb760e31b81526001600160a01b0391821692810192909252602482018490529091169063f2b9fdb8906044015b5f604051808303815f87803b158015610ed3575f80fd5b505af1158015610ee5573d5f803e3d5ffd5b5050505050565b5f610ef78383610a26565b15610f57575f8381526001602090815260408083206001600160a01b0386168085529252808320805460ff1916905551339286917ff6391f5c32d9c69d2a47ea670b442974b53935d1edc7fd64eb21e047a839171b9190a4506001610416565b505f610416565b6007546004805460405163f3fef3a360e01b81526001600160a01b0391821692810192909252602482018490529091169063f3fef3a390604401610ebc565b6040516001600160a01b0383811660248301526044820183905261072391859182169063a9059cbb90606401610dd0565b600854600754604051635b81a7bf60e11b81526001600160a01b039182166004820152306024820152600160448201525f92919091169063b7034f7e906064015f604051808303815f87803b158015611025575f80fd5b505af1158015611037573d5f803e3d5ffd5b50506040516370a0823160e01b81523060048201526001600160a01b03871692506370a082319150602401602060405180830381865afa15801561107d573d5f803e3d5ffd5b505050506040513d601f19601f820116820180604052508101906110a191906115ba565b6002549091506110be906001600160a01b03868116911683610f9d565b6040518181527f8e55ccfc9778ff8eba1646d765cf1982537ce0f9257054a17b48aad7452501839060200160405180910390a19392505050565b5f306001600160a01b03166301e1d1146040518163ffffffff1660e01b8152600401602060405180830381865afa158015611135573d5f803e3d5ffd5b505050506040513d601f19601f8201168201806040525081019061115991906115ba565b1115611178576040516373a075f360e01b815260040160405180910390fd5b50600580546001600160a01b0319169055565b5f5460408051630ccc574960e41b815290516001600160a01b03909216916391d1485491839163ccc57490916004808201926020929091908290030181865afa1580156111da573d5f803e3d5ffd5b505050506040513d601f19601f820116820180604052508101906111fe91906115ba565b6040516001600160e01b031960e084901b1681526004810191909152336024820152604401602060405180830381865afa15801561123e573d5f803e3d5ffd5b505050506040513d601f19601f8201168201806040525081019061126291906115ec565b61128157604051630ea7d7ed60e21b8152336004820152602401610540565b6005546001600160a01b0316156112ab5760405163d32184ed60e01b815260040160405180910390fd5b600580546001600160a01b0319166001600160a01b0392909216919091179055565b5f6112d88383610a26565b610f57575f8381526001602081815260408084206001600160a01b0387168086529252808420805460ff19169093179092559051339286917f2f8788117e7eff1d82e926ec794901d17c78024a50270940304540a733656f0d9190a4506001610416565b5f6113506001600160a01b0384168361139d565b905080515f1415801561137457508080602001905181019061137291906115ec565b155b1561072357604051635274afe760e01b81526001600160a01b0384166004820152602401610540565b60606108aa83835f845f80856001600160a01b031684866040516113c19190611655565b5f6040518083038185875af1925050503d805f81146113fb576040519150601f19603f3d011682016040523d82523d5f602084013e611400565b606091505b509150915061141086838361141a565b9695505050505050565b60608261142f5761142a82611476565b6108aa565b815115801561144657506001600160a01b0384163b155b1561146f57604051639996b31560e01b81526001600160a01b0385166004820152602401610540565b50806108aa565b8051156114865780518082602001fd5b604051630a12f52160e11b815260040160405180910390fd5b5f602082840312156114af575f80fd5b81356001600160e01b0319811681146108aa575f80fd5b5f602082840312156114d6575f80fd5b5035919050565b6001600160a01b0381168114610899575f80fd5b5f8060408385031215611502575f80fd5b823591506020830135611514816114dd565b809150509250929050565b5f805f60408486031215611531575f80fd5b833561153c816114dd565b9250602084013567ffffffffffffffff811115611557575f80fd5b8401601f81018613611567575f80fd5b803567ffffffffffffffff81111561157d575f80fd5b86602082840101111561158e575f80fd5b939660209190910195509293505050565b5f602082840312156115af575f80fd5b81356108aa816114dd565b5f602082840312156115ca575f80fd5b5051919050565b5f602082840312156115e1575f80fd5b81516108aa816114dd565b5f602082840312156115fc575f80fd5b815180151581146108aa575f80fd5b5f6020828403121561161b575f80fd5b815167ffffffffffffffff811681146108aa575f80fd5b808202811582820484141761041657634e487b7160e01b5f52601160045260245ffd5b5f82518060208501845e5f92019182525091905056fea26469706673582212208e5b3aa4831b581db2cb5b92689129fa0beda3f7fe6084d378d5d71de16cbd0864736f6c634300081a0033","linkReferences":{}},"methodIdentifiers":{"DEFAULT_ADMIN_ROLE()":"a217fddf","SECONDS_PER_YEAR()":"e6a69ab8","WAD_TO_RAY()":"163c8381","board(uint256)":"28ed6e3f","comet()":"ba3e9c12","cometRewards()":"32315972","commander()":"37270936","disembark(uint256)":"4dd47eba","getRoleAdmin(bytes32)":"248a9ca3","grantCommanderRole(address)":"9403e41f","grantRole(bytes32,address)":"2f2ff15d","harvest(address,bytes)":"7399bfe8","hasRole(bytes32,address)":"91d14854","manager()":"481c6a75","maxAllocation()":"9b3ba79f","move(uint256,address)":"d8a8e03a","poke()":"18178358","raft()":"117d8ae0","rate()":"2c4e722e","renounceRole(bytes32,address)":"36568abe","revokeCommanderRole(address)":"81d3ce26","revokeRole(bytes32,address)":"d547741f","setMaxAllocation(uint256)":"72f12344","supportsInterface(bytes4)":"01ffc9a7","token()":"fc0c546a","totalAssets()":"01e1d114"},"id":70}