{"abi":[{"type":"function","name":"getCurrentPrice","inputs":[{"name":"auction","type":"tuple","internalType":"struct DutchAuctionLibrary.Auction","components":[{"name":"config","type":"tuple","internalType":"struct DutchAuctionLibrary.AuctionConfig","components":[{"name":"auctionToken","type":"IERC20","internalType":"contract IERC20"},{"name":"paymentToken","type":"IERC20","internalType":"contract IERC20"},{"name":"startTime","type":"uint40","internalType":"uint40"},{"name":"endTime","type":"uint40","internalType":"uint40"},{"name":"auctionTokenDecimals","type":"uint8","internalType":"uint8"},{"name":"paymentTokenDecimals","type":"uint8","internalType":"uint8"},{"name":"auctionKicker","type":"address","internalType":"address"},{"name":"unsoldTokensRecipient","type":"address","internalType":"address"},{"name":"id","type":"uint40","internalType":"uint40"},{"name":"decayType","type":"DecayFunctions.DecayType","internalType":"enum DecayFunctions.DecayType"},{"name":"startPrice","type":"uint256","internalType":"uint256"},{"name":"endPrice","type":"uint256","internalType":"uint256"},{"name":"totalTokens","type":"uint256","internalType":"uint256"},{"name":"kickerRewardAmount","type":"uint256","internalType":"uint256"}]},{"name":"state","type":"tuple","internalType":"struct DutchAuctionLibrary.AuctionState","components":[{"name":"remainingTokens","type":"uint256","internalType":"uint256"},{"name":"isFinalized","type":"bool","internalType":"bool"}]}]}],"outputs":[{"name":"","type":"uint256","internalType":"uint256"}],"stateMutability":"view"},{"type":"event","name":"AuctionCreated","inputs":[{"name":"auctionId","type":"uint256","indexed":true,"internalType":"uint256"},{"name":"auctionKicker","type":"address","indexed":true,"internalType":"address"},{"name":"totalTokens","type":"uint256","indexed":false,"internalType":"uint256"},{"name":"kickerRewardAmount","type":"uint256","indexed":false,"internalType":"uint256"}],"anonymous":false},{"type":"event","name":"KickerRewardClaimed","inputs":[{"name":"auctionId","type":"uint256","indexed":true,"internalType":"uint256"},{"name":"kicker","type":"address","indexed":true,"internalType":"address"},{"name":"amount","type":"uint256","indexed":false,"internalType":"uint256"}],"anonymous":false},{"type":"error","name":"InvalidAuctionToken","inputs":[]},{"type":"error","name":"InvalidDecayType","inputs":[]},{"type":"error","name":"InvalidDuration","inputs":[]},{"type":"error","name":"InvalidKickerRewardPercentage","inputs":[]},{"type":"error","name":"InvalidPaymentToken","inputs":[]},{"type":"error","name":"InvalidPrices","inputs":[]},{"type":"error","name":"InvalidTokenAmount","inputs":[]},{"type":"error","name":"PRBMath_MulDiv18_Overflow","inputs":[{"name":"x","type":"uint256","internalType":"uint256"},{"name":"y","type":"uint256","internalType":"uint256"}]},{"type":"error","name":"PRBMath_MulDiv_Overflow","inputs":[{"name":"x","type":"uint256","internalType":"uint256"},{"name":"y","type":"uint256","internalType":"uint256"},{"name":"denominator","type":"uint256","internalType":"uint256"}]},{"type":"error","name":"PRBMath_UD60x18_Convert_Overflow","inputs":[{"name":"x","type":"uint256","internalType":"uint256"}]},{"type":"error","name":"SafeERC20FailedOperation","inputs":[{"name":"token","type":"address","internalType":"address"}]}],"bytecode":{"object":"0x611236610034600b8282823980515f1a607314602857634e487b7160e01b5f525f60045260245ffd5b305f52607381538281f3fe730000000000000000000000000000000000000000301460806040526004361061003f575f3560e01c806337ab217214610043578063e1b0a64214610078575b5f5ffd5b81801561004e575f5ffd5b5061006261005d366004610c65565b610099565b60405161006f9190610d53565b60405180910390f35b61008b610086366004610ef3565b61034d565b60405190815260200161006f565b6100a1610af2565b816060015164ffffffffff165f036100cc57604051637616640160e01b815260040160405180910390fd5b8160a001518260800151116100f45760405163104272fb60e11b815260040160405180910390fd5b8160c001515f0361011857604051632160733960e01b815260040160405180910390fd5b6101258260e001516103c4565b61014257604051635116b39560e11b815260040160405180910390fd5b60208201516001600160a01b031661016d57604051633d69997b60e11b815260040160405180910390fd5b60408201516001600160a01b0316610198576040516356e7ec5f60e01b815260040160405180910390fd5b5f6101b48360e001518460c001516103eb90919063ffffffff16565b90505f818460c001516101c7919061102d565b9050604051806101c0016040528085602001516001600160a01b0316815260200185604001516001600160a01b031681526020014264ffffffffff168152602001856060015164ffffffffff164261021f9190611040565b64ffffffffff16815260200161024186602001516001600160a01b031661041e565b60ff16815260200161025f86604001516001600160a01b031661041e565b60ff1681526020018561010001516001600160a01b031681526020018561012001516001600160a01b03168152602001855f015164ffffffffff16815260200185610140015160018111156102b6576102b6610d1f565b8152602001856080015181526020018560a00151815260200182815260200183815250835f018190525060405180604001604052808281526020015f15158152508360200181905250610308836104d7565b835160408051838152602081018590523392917fc9050d42180a61cb0d9ebb8ad118b62fe6eab12cf12ff752c4a0cc7da9ddf627910160405180910390a35050919050565b8051604001515f9081906103689064ffffffffff164261102d565b835160408101516060909101519192505f916103849190611053565b845161012081015161014082015161016083015160a09093015164ffffffffff9490941694506103bc9391929091869086908061056a565b949350505050565b5f6103e5826103d56012600a611153565b6103e090606461115e565b101590565b92915050565b5f6103f86012600a611153565b61040390606461115e565b61040d838561115e565b6104179190611189565b9392505050565b60408051600481526024810182526020810180516001600160e01b031663313ce56760e01b17905290515f91829182916001600160a01b0386169161046391906111a8565b5f60405180830381855afa9150503d805f811461049b576040519150601f19603f3d011682016040523d82523d5f602084013e6104a0565b606091505b50915091508180156104b457506020815110155b156104cd57808060200190518101906103bc91906111be565b5060129392505050565b80516101a001515f036104e75750565b805160c08101516101a0820151915161050c926001600160a01b0390911691906105f1565b805160c08101516101008201516101a0909201516040519081526001600160a01b039091169164ffffffffff16907f8c64a72d516a852e54dd27d4394b8d1e8cd1247bfdbb29d75e60d3d6efba1ec29060200160405180910390a350565b5f8385106105795750846105e6565b5f88600181111561058c5761058c610d1f565b036105a65761059f878787878787610648565b90506105e6565b60018860018111156105ba576105ba610d1f565b036105cd5761059f8787878787876106ce565b6040516346b2fddf60e11b815260040160405180910390fd5b979650505050505050565b604080516001600160a01b038416602482015260448082018490528251808303909101815260649091019091526020810180516001600160e01b031663a9059cbb60e01b179052610643908490610773565b505050565b5f8061065488856107ea565b90505f61066188866107ea565b90505f610674610671838561102d565b90565b90505f61068089610850565b90505f61068c89610850565b90505f6106a38261069d8686610895565b906108a3565b90505f6106b0828861102d565b90506106bc818a6108ba565b9e9d5050505050505050505050505050565b5f806106da88856107ea565b90505f6106e788866107ea565b90505f6106f7610671838561102d565b90505f61070c6107078a8a61102d565b610850565b90505f61071889610850565b90505f610726836002610919565b90505f610734836002610919565b90505f6107458261069d8886610895565b90505f6107528289611040565b905061075e818c6108ba565b99505050505050505050509695505050505050565b5f5f60205f8451602086015f885af180610792576040513d5f823e3d81fd5b50505f513d915081156107a95780600114156107b6565b6001600160a01b0384163b155b156107e457604051635274afe760e01b81526001600160a01b03851660048201526024015b60405180910390fd5b50505050565b5f8160ff166012036107fd5750816103e5565b60128260ff161115610830576108146012836111d9565b61081f90600a6111f2565b6108299084611189565b90506103e5565b61083b8260126111d9565b61084690600a6111f2565b610417908461115e565b5f610864670de0b6b3a76400005f19611189565b82111561088757604051631cd951a760e01b8152600481018390526024016107db565b50670de0b6b3a76400000290565b5f6104176106718484610972565b5f61041761067184670de0b6b3a764000085610a24565b5f8160ff166012036108cd5750816103e5565b60128260ff1611156108f9576108e46012836111d9565b6108ef90600a6111f2565b610829908461115e565b6109048260126111d9565b61090f90600a6111f2565b6104179084611189565b5f82816001841661093257670de0b6b3a7640000610934565b815b9050600184901c93505b83156103bc5761094e8283610972565b91506001841615610966576109638183610972565b90505b600184901c935061093e565b5f80805f19848609848602925082811083820303915050805f036109a35750670de0b6b3a7640000900490506103e5565b670de0b6b3a764000081106109d557604051635173648d60e01b815260048101869052602481018590526044016107db565b5f670de0b6b3a764000085870962040000818503049310909103600160ee1b02919091177faccb18165bd6fe31ae1cf318dc5b51eee0e1ba569b88cd74c1773b91fac106690291505092915050565b5f80805f19858709858702925082811083820303915050805f03610a5b57838281610a5157610a51611175565b0492505050610417565b838110610a8c57604051630c740aef60e31b81526004810187905260248101869052604481018590526064016107db565b5f84868809600260036001881981018916988990049182028318808302840302808302840302808302840302808302840302808302840302918202909203025f889003889004909101858311909403939093029303949094049190911702949350505050565b6040518060400160405280610b6c604080516101c0810182525f80825260208201819052918101829052606081018290526080810182905260a0810182905260c0810182905260e0810182905261010081018290529061012082019081526020015f81526020015f81526020015f81526020015f81525090565b8152602001610b8e60405180604001604052805f81526020015f151581525090565b905290565b604051610160810167ffffffffffffffff81118282101715610bc357634e487b7160e01b5f52604160045260245ffd5b60405290565b6040805190810167ffffffffffffffff81118282101715610bc357634e487b7160e01b5f52604160045260245ffd5b6040516101c0810167ffffffffffffffff81118282101715610bc357634e487b7160e01b5f52604160045260245ffd5b80356001600160a01b0381168114610c3e575f5ffd5b919050565b803564ffffffffff81168114610c3e575f5ffd5b803560028110610c3e575f5ffd5b5f610160828403128015610c77575f5ffd5b50610c80610b93565b82358152610c9060208401610c28565b6020820152610ca160408401610c28565b6040820152610cb260608401610c43565b60608201526080838101359082015260a0808401359082015260c0808401359082015260e08084013590820152610cec6101008401610c28565b610100820152610cff6101208401610c28565b610120820152610d126101408401610c57565b6101408201529392505050565b634e487b7160e01b5f52602160045260245ffd5b60028110610d4f57634e487b7160e01b5f52602160045260245ffd5b9052565b815180516001600160a01b031682526102008201906020810151610d8260208501826001600160a01b03169052565b506040810151610d9b604085018264ffffffffff169052565b506060810151610db4606085018264ffffffffff169052565b506080810151610dc9608085018260ff169052565b5060a0810151610dde60a085018260ff169052565b5060c0810151610df960c08501826001600160a01b03169052565b5060e0810151610e1460e08501826001600160a01b03169052565b50610100810151610e2f61010085018264ffffffffff169052565b50610120810151610e44610120850182610d33565b506101408101516101408401526101608101516101608401526101808101516101808401526101a08101516101a0840152506020830151610e956101c0840182805182526020908101511515910152565b5092915050565b60ff81168114610eaa575f5ffd5b50565b8035610c3e81610e9c565b5f60408284031215610ec8575f5ffd5b610ed0610bc9565b82358152905060208201358015158114610ee8575f5ffd5b602082015292915050565b5f81830361020081128015610f06575f5ffd5b50610f0f610bc9565b6101c0821215610f1d575f5ffd5b610f25610bf8565b9150610f3084610c28565b8252610f3e60208501610c28565b6020830152610f4f60408501610c43565b6040830152610f6060608501610c43565b6060830152610f7160808501610ead565b6080830152610f8260a08501610ead565b60a0830152610f9360c08501610c28565b60c0830152610fa460e08501610c28565b60e0830152610fb66101008501610c43565b610100830152610fc96101208501610c57565b6101208301526101408481013590830152610160808501359083015261018080850135908301526101a0808501359083015281815261100c856101c08601610eb8565b6020820152949350505050565b634e487b7160e01b5f52601160045260245ffd5b818103818111156103e5576103e5611019565b808201808211156103e5576103e5611019565b64ffffffffff82811682821603908111156103e5576103e5611019565b6001815b60018411156110ab5780850481111561108f5761108f611019565b600184161561109d57908102905b60019390931c928002611074565b935093915050565b5f826110c1575060016103e5565b816110cd57505f6103e5565b81600181146110e357600281146110ed57611109565b60019150506103e5565b60ff8411156110fe576110fe611019565b50506001821b6103e5565b5060208310610133831016604e8410600b841016171561112c575081810a6103e5565b6111385f198484611070565b805f190482111561114b5761114b611019565b029392505050565b5f61041783836110b3565b80820281158282048414176103e5576103e5611019565b634e487b7160e01b5f52601260045260245ffd5b5f826111a357634e487b7160e01b5f52601260045260245ffd5b500490565b5f82518060208501845e5f920191825250919050565b5f602082840312156111ce575f5ffd5b815161041781610e9c565b60ff82811682821603908111156103e5576103e5611019565b5f61041760ff8416836110b356fea2646970667358221220b27934287ddb3300fcc6af4249eb2b5f78e3ea15c43d258ca98833bcb6f3281864736f6c634300081b0033","linkReferences":{}},"methodIdentifiers":{"createAuction(DutchAuctionLibrary.AuctionParams)":"37ab2172","getCurrentPrice(DutchAuctionLibrary.Auction)":"e1b0a642"},"id":139}