{"abi":[{"type":"function","name":"getCurrentPrice","inputs":[{"name":"auction","type":"tuple","internalType":"struct DutchAuctionLibrary.Auction","components":[{"name":"config","type":"tuple","internalType":"struct DutchAuctionLibrary.AuctionConfig","components":[{"name":"auctionToken","type":"IERC20","internalType":"contract IERC20"},{"name":"paymentToken","type":"IERC20","internalType":"contract IERC20"},{"name":"startTime","type":"uint40","internalType":"uint40"},{"name":"endTime","type":"uint40","internalType":"uint40"},{"name":"auctionTokenDecimals","type":"uint8","internalType":"uint8"},{"name":"paymentTokenDecimals","type":"uint8","internalType":"uint8"},{"name":"auctionKicker","type":"address","internalType":"address"},{"name":"unsoldTokensRecipient","type":"address","internalType":"address"},{"name":"id","type":"uint40","internalType":"uint40"},{"name":"decayType","type":"DecayFunctions.DecayType","internalType":"enum DecayFunctions.DecayType"},{"name":"startPrice","type":"uint256","internalType":"uint256"},{"name":"endPrice","type":"uint256","internalType":"uint256"},{"name":"totalTokens","type":"uint256","internalType":"uint256"},{"name":"kickerRewardAmount","type":"uint256","internalType":"uint256"}]},{"name":"state","type":"tuple","internalType":"struct DutchAuctionLibrary.AuctionState","components":[{"name":"remainingTokens","type":"uint256","internalType":"uint256"},{"name":"isFinalized","type":"bool","internalType":"bool"}]}]}],"outputs":[{"name":"","type":"uint256","internalType":"uint256"}],"stateMutability":"view"},{"type":"event","name":"AuctionCreated","inputs":[{"name":"auctionId","type":"uint256","indexed":true,"internalType":"uint256"},{"name":"auctionKicker","type":"address","indexed":true,"internalType":"address"},{"name":"totalTokens","type":"uint256","indexed":false,"internalType":"uint256"},{"name":"kickerRewardAmount","type":"uint256","indexed":false,"internalType":"uint256"}],"anonymous":false},{"type":"event","name":"KickerRewardClaimed","inputs":[{"name":"auctionId","type":"uint256","indexed":true,"internalType":"uint256"},{"name":"kicker","type":"address","indexed":true,"internalType":"address"},{"name":"amount","type":"uint256","indexed":false,"internalType":"uint256"}],"anonymous":false},{"type":"error","name":"AddressEmptyCode","inputs":[{"name":"target","type":"address","internalType":"address"}]},{"type":"error","name":"AddressInsufficientBalance","inputs":[{"name":"account","type":"address","internalType":"address"}]},{"type":"error","name":"FailedInnerCall","inputs":[]},{"type":"error","name":"InvalidAuctionToken","inputs":[]},{"type":"error","name":"InvalidDuration","inputs":[]},{"type":"error","name":"InvalidKickerRewardPercentage","inputs":[]},{"type":"error","name":"InvalidPaymentToken","inputs":[]},{"type":"error","name":"InvalidPrices","inputs":[]},{"type":"error","name":"InvalidTokenAmount","inputs":[]},{"type":"error","name":"PRBMath_MulDiv18_Overflow","inputs":[{"name":"x","type":"uint256","internalType":"uint256"},{"name":"y","type":"uint256","internalType":"uint256"}]},{"type":"error","name":"PRBMath_MulDiv_Overflow","inputs":[{"name":"x","type":"uint256","internalType":"uint256"},{"name":"y","type":"uint256","internalType":"uint256"},{"name":"denominator","type":"uint256","internalType":"uint256"}]},{"type":"error","name":"PRBMath_UD60x18_Convert_Overflow","inputs":[{"name":"x","type":"uint256","internalType":"uint256"}]},{"type":"error","name":"SafeERC20FailedOperation","inputs":[{"name":"token","type":"address","internalType":"address"}]}],"bytecode":{"object":"0x611342610034600b8282823980515f1a607314602857634e487b7160e01b5f525f60045260245ffd5b305f52607381538281f3fe730000000000000000000000000000000000000000301460806040526004361061003f575f3560e01c806337ab217214610043578063e1b0a64214610078575b5f80fd5b81801561004e575f80fd5b5061006261005d366004610d50565b610099565b60405161006f9190610e3e565b60405180910390f35b61008b610086366004610fe4565b61034d565b60405190815260200161006f565b6100a1610bdd565b816060015164ffffffffff165f036100cc57604051637616640160e01b815260040160405180910390fd5b8160a001518260800151116100f45760405163104272fb60e11b815260040160405180910390fd5b8160c001515f0361011857604051632160733960e01b815260040160405180910390fd5b6101258260e001516103c4565b61014257604051635116b39560e11b815260040160405180910390fd5b60208201516001600160a01b031661016d57604051633d69997b60e11b815260040160405180910390fd5b60408201516001600160a01b0316610198576040516356e7ec5f60e01b815260040160405180910390fd5b5f6101b48360e001518460c001516103eb90919063ffffffff16565b90505f818460c001516101c7919061111e565b9050604051806101c0016040528085602001516001600160a01b0316815260200185604001516001600160a01b031681526020014264ffffffffff168152602001856060015164ffffffffff164261021f9190611131565b64ffffffffff16815260200161024186602001516001600160a01b031661041e565b60ff16815260200161025f86604001516001600160a01b031661041e565b60ff1681526020018561010001516001600160a01b031681526020018561012001516001600160a01b03168152602001855f015164ffffffffff16815260200185610140015160018111156102b6576102b6610e0a565b8152602001856080015181526020018560a00151815260200182815260200183815250835f018190525060405180604001604052808281526020015f15158152508360200181905250610308836104d7565b835160408051838152602081018590523392917fc9050d42180a61cb0d9ebb8ad118b62fe6eab12cf12ff752c4a0cc7da9ddf627910160405180910390a35050919050565b8051604001515f9081906103689064ffffffffff164261111e565b835160408101516060909101519192505f916103849190611144565b845161012081015161014082015161016083015160a09093015164ffffffffff9490941694506103bc9391929091869086908061056a565b949350505050565b5f6103e5826103d56012600a611244565b6103e090606461124f565b101590565b92915050565b5f6103f86012600a611244565b61040390606461124f565b61040d838561124f565b610417919061127a565b9392505050565b60408051600481526024810182526020810180516001600160e01b031663313ce56760e01b17905290515f91829182916001600160a01b038616916104639190611299565b5f60405180830381855afa9150503d805f811461049b576040519150601f19603f3d011682016040523d82523d5f602084013e6104a0565b606091505b50915091508180156104b457506020815110155b156104cd57808060200190518101906103bc91906112af565b5060129392505050565b80516101a001515f036104e75750565b805160c08101516101a0820151915161050c926001600160a01b0390911691906105bf565b805160c08101516101008201516101a0909201516040519081526001600160a01b039091169164ffffffffff16907f8c64a72d516a852e54dd27d4394b8d1e8cd1247bfdbb29d75e60d3d6efba1ec29060200160405180910390a350565b5f8385106105795750846105b4565b5f88600181111561058c5761058c610e0a565b036105a65761059f878787878787610616565b90506105b4565b61059f87878787878761069c565b979650505050505050565b604080516001600160a01b038416602482015260448082018490528251808303909101815260649091019091526020810180516001600160e01b031663a9059cbb60e01b179052610611908490610741565b505050565b5f8061062288856107a7565b90505f61062f88866107a7565b90505f61064261063f838561111e565b90565b90505f61064e8961080d565b90505f61065a8961080d565b90505f6106718261066b8686610852565b90610860565b90505f61067e828861111e565b905061068a818a610877565b9e9d5050505050505050505050505050565b5f806106a888856107a7565b90505f6106b588866107a7565b90505f6106c561063f838561111e565b90505f6106da6106d58a8a61111e565b61080d565b90505f6106e68961080d565b90505f6106f48360026108d6565b90505f6107028360026108d6565b90505f6107138261066b8886610852565b90505f6107208289611131565b905061072c818c610877565b99505050505050505050509695505050505050565b5f6107556001600160a01b0384168361092f565b905080515f1415801561077957508080602001905181019061077791906112ca565b155b1561061157604051635274afe760e01b81526001600160a01b03841660048201526024015b60405180910390fd5b5f8160ff166012036107ba5750816103e5565b60128260ff1611156107ed576107d16012836112e5565b6107dc90600a6112fe565b6107e6908461127a565b90506103e5565b6107f88260126112e5565b61080390600a6112fe565b610417908461124f565b5f610821670de0b6b3a76400005f1961127a565b82111561084457604051631cd951a760e01b81526004810183905260240161079e565b50670de0b6b3a76400000290565b5f61041761063f848461093c565b5f61041761063f84670de0b6b3a7640000856109ee565b5f8160ff1660120361088a5750816103e5565b60128260ff1611156108b6576108a16012836112e5565b6108ac90600a6112fe565b6107e6908461124f565b6108c18260126112e5565b6108cc90600a6112fe565b610417908461127a565b5f8281600184166108ef57670de0b6b3a76400006108f1565b815b9050600184901c93505b83156103bc5761090b828361093c565b9150600184161561092357610920818361093c565b90505b600184901c93506108fb565b606061041783835f610abc565b5f80805f19848609848602925082811083820303915050805f0361096d5750670de0b6b3a7640000900490506103e5565b670de0b6b3a7640000811061099f57604051635173648d60e01b8152600481018690526024810185905260440161079e565b5f670de0b6b3a764000085870962040000818503049310909103600160ee1b02919091177faccb18165bd6fe31ae1cf318dc5b51eee0e1ba569b88cd74c1773b91fac106690291505092915050565b5f80805f19858709858702925082811083820303915050805f03610a2557838281610a1b57610a1b611266565b0492505050610417565b838110610a5657604051630c740aef60e31b815260048101879052602481018690526044810185905260640161079e565b5f84868809600260036001881981018916988990049182028318808302840302808302840302808302840302808302840302808302840302918202909203025f889003889004909101858311909403939093029303949094049190911702949350505050565b606081471015610ae15760405163cd78605960e01b815230600482015260240161079e565b5f80856001600160a01b03168486604051610afc9190611299565b5f6040518083038185875af1925050503d805f8114610b36576040519150601f19603f3d011682016040523d82523d5f602084013e610b3b565b606091505b5091509150610b4b868383610b55565b9695505050505050565b606082610b6a57610b6582610bb1565b610417565b8151158015610b8157506001600160a01b0384163b155b15610baa57604051639996b31560e01b81526001600160a01b038516600482015260240161079e565b5080610417565b805115610bc15780518082602001fd5b604051630a12f52160e11b815260040160405180910390fd5b50565b6040518060400160405280610c57604080516101c0810182525f80825260208201819052918101829052606081018290526080810182905260a0810182905260c0810182905260e0810182905261010081018290529061012082019081526020015f81526020015f81526020015f81526020015f81525090565b8152602001610c7960405180604001604052805f81526020015f151581525090565b905290565b604051610160810167ffffffffffffffff81118282101715610cae57634e487b7160e01b5f52604160045260245ffd5b60405290565b6040805190810167ffffffffffffffff81118282101715610cae57634e487b7160e01b5f52604160045260245ffd5b6040516101c0810167ffffffffffffffff81118282101715610cae57634e487b7160e01b5f52604160045260245ffd5b80356001600160a01b0381168114610d29575f80fd5b919050565b803564ffffffffff81168114610d29575f80fd5b803560028110610d29575f80fd5b5f610160828403128015610d62575f80fd5b50610d6b610c7e565b82358152610d7b60208401610d13565b6020820152610d8c60408401610d13565b6040820152610d9d60608401610d2e565b60608201526080838101359082015260a0808401359082015260c0808401359082015260e08084013590820152610dd76101008401610d13565b610100820152610dea6101208401610d13565b610120820152610dfd6101408401610d42565b6101408201529392505050565b634e487b7160e01b5f52602160045260245ffd5b60028110610e3a57634e487b7160e01b5f52602160045260245ffd5b9052565b815180516001600160a01b031682526102008201906020810151610e6d60208501826001600160a01b03169052565b506040810151610e86604085018264ffffffffff169052565b506060810151610e9f606085018264ffffffffff169052565b506080810151610eb4608085018260ff169052565b5060a0810151610ec960a085018260ff169052565b5060c0810151610ee460c08501826001600160a01b03169052565b5060e0810151610eff60e08501826001600160a01b03169052565b50610100810151610f1a61010085018264ffffffffff169052565b50610120810151610f2f610120850182610e1e565b506101408101516101408401526101608101516101608401526101808101516101808401526101a08101516101a0840152506020830151610f806101c0840182805182526020908101511515910152565b5092915050565b60ff81168114610bda575f80fd5b8035610d2981610f87565b8015158114610bda575f80fd5b5f60408284031215610fbd575f80fd5b610fc5610cb4565b8235815290506020820135610fd981610fa0565b602082015292915050565b5f81830361020081128015610ff7575f80fd5b50611000610cb4565b6101c082121561100e575f80fd5b611016610ce3565b915061102184610d13565b825261102f60208501610d13565b602083015261104060408501610d2e565b604083015261105160608501610d2e565b606083015261106260808501610f95565b608083015261107360a08501610f95565b60a083015261108460c08501610d13565b60c083015261109560e08501610d13565b60e08301526110a76101008501610d2e565b6101008301526110ba6101208501610d42565b6101208301526101408481013590830152610160808501359083015261018080850135908301526101a080850135908301528181526110fd856101c08601610fad565b6020820152949350505050565b634e487b7160e01b5f52601160045260245ffd5b818103818111156103e5576103e561110a565b808201808211156103e5576103e561110a565b64ffffffffff82811682821603908111156103e5576103e561110a565b6001815b600184111561119c578085048111156111805761118061110a565b600184161561118e57908102905b60019390931c928002611165565b935093915050565b5f826111b2575060016103e5565b816111be57505f6103e5565b81600181146111d457600281146111de576111fa565b60019150506103e5565b60ff8411156111ef576111ef61110a565b50506001821b6103e5565b5060208310610133831016604e8410600b841016171561121d575081810a6103e5565b6112295f198484611161565b805f190482111561123c5761123c61110a565b029392505050565b5f61041783836111a4565b80820281158282048414176103e5576103e561110a565b634e487b7160e01b5f52601260045260245ffd5b5f8261129457634e487b7160e01b5f52601260045260245ffd5b500490565b5f82518060208501845e5f920191825250919050565b5f602082840312156112bf575f80fd5b815161041781610f87565b5f602082840312156112da575f80fd5b815161041781610fa0565b60ff82811682821603908111156103e5576103e561110a565b5f61041760ff8416836111a456fea26469706673582212205176dc8e134fac447b863f8b01f9f307233c7809670183f59e06f3995b4dee2a64736f6c634300081a0033","linkReferences":{}},"methodIdentifiers":{"createAuction(DutchAuctionLibrary.AuctionParams)":"37ab2172","getCurrentPrice(DutchAuctionLibrary.Auction)":"e1b0a642"},"id":123}