{"abi":[{"type":"constructor","inputs":[{"name":"params","type":"tuple","internalType":"struct FleetCommanderParams","components":[{"name":"name","type":"string","internalType":"string"},{"name":"details","type":"string","internalType":"string"},{"name":"symbol","type":"string","internalType":"string"},{"name":"configurationManager","type":"address","internalType":"address"},{"name":"accessManager","type":"address","internalType":"address"},{"name":"asset","type":"address","internalType":"address"},{"name":"initialMinimumBufferBalance","type":"uint256","internalType":"uint256"},{"name":"initialRebalanceCooldown","type":"uint256","internalType":"uint256"},{"name":"depositCap","type":"uint256","internalType":"uint256"},{"name":"initialTipRate","type":"uint256","internalType":"Percentage"}]}],"stateMutability":"nonpayable"},{"type":"function","name":"INITIAL_MINIMUM_PAUSE_TIME","inputs":[],"outputs":[{"name":"","type":"uint256","internalType":"uint256"}],"stateMutability":"view"},{"type":"function","name":"MAX_REBALANCE_OPERATIONS","inputs":[],"outputs":[{"name":"","type":"uint256","internalType":"uint256"}],"stateMutability":"view"},{"type":"function","name":"addArk","inputs":[{"name":"ark","type":"address","internalType":"address"}],"outputs":[],"stateMutability":"nonpayable"},{"type":"function","name":"addArks","inputs":[{"name":"_arkAddresses","type":"address[]","internalType":"address[]"}],"outputs":[],"stateMutability":"nonpayable"},{"type":"function","name":"arks","inputs":[{"name":"index","type":"uint256","internalType":"uint256"}],"outputs":[{"name":"","type":"address","internalType":"address"}],"stateMutability":"view"},{"type":"function","name":"bufferArk","inputs":[],"outputs":[{"name":"","type":"address","internalType":"address"}],"stateMutability":"view"},{"type":"function","name":"config","inputs":[],"outputs":[{"name":"bufferArk","type":"address","internalType":"contract IArk"},{"name":"minimumBufferBalance","type":"uint256","internalType":"uint256"},{"name":"depositCap","type":"uint256","internalType":"uint256"},{"name":"maxRebalanceOperations","type":"uint256","internalType":"uint256"},{"name":"stakingRewardsManager","type":"address","internalType":"address"}],"stateMutability":"view"},{"type":"function","name":"configurationManager","inputs":[],"outputs":[{"name":"","type":"address","internalType":"contract IConfigurationManager"}],"stateMutability":"view"},{"type":"function","name":"details","inputs":[],"outputs":[{"name":"","type":"string","internalType":"string"}],"stateMutability":"view"},{"type":"function","name":"fleetCommanderRewardsManagerFactory","inputs":[],"outputs":[{"name":"","type":"address","internalType":"address"}],"stateMutability":"view"},{"type":"function","name":"generateRole","inputs":[{"name":"roleName","type":"uint8","internalType":"enum ContractSpecificRoles"},{"name":"roleTargetContract","type":"address","internalType":"address"}],"outputs":[{"name":"","type":"bytes32","internalType":"bytes32"}],"stateMutability":"pure"},{"type":"function","name":"getArks","inputs":[],"outputs":[{"name":"","type":"address[]","internalType":"address[]"}],"stateMutability":"view"},{"type":"function","name":"getConfig","inputs":[],"outputs":[{"name":"","type":"tuple","internalType":"struct FleetConfig","components":[{"name":"bufferArk","type":"address","internalType":"contract IArk"},{"name":"minimumBufferBalance","type":"uint256","internalType":"uint256"},{"name":"depositCap","type":"uint256","internalType":"uint256"},{"name":"maxRebalanceOperations","type":"uint256","internalType":"uint256"},{"name":"stakingRewardsManager","type":"address","internalType":"address"}]}],"stateMutability":"view"},{"type":"function","name":"harborCommand","inputs":[],"outputs":[{"name":"","type":"address","internalType":"address"}],"stateMutability":"view"},{"type":"function","name":"isArkActive","inputs":[{"name":"arkAddress","type":"address","internalType":"address"}],"outputs":[{"name":"","type":"bool","internalType":"bool"}],"stateMutability":"view"},{"type":"function","name":"isArkWithdrawable","inputs":[{"name":"ark","type":"address","internalType":"address"}],"outputs":[{"name":"isWithdrawable","type":"bool","internalType":"bool"}],"stateMutability":"view"},{"type":"function","name":"minimumPauseTime","inputs":[],"outputs":[{"name":"","type":"uint256","internalType":"uint256"}],"stateMutability":"view"},{"type":"function","name":"pauseStartTime","inputs":[],"outputs":[{"name":"","type":"uint256","internalType":"uint256"}],"stateMutability":"view"},{"type":"function","name":"paused","inputs":[],"outputs":[{"name":"","type":"bool","internalType":"bool"}],"stateMutability":"view"},{"type":"function","name":"raft","inputs":[],"outputs":[{"name":"","type":"address","internalType":"address"}],"stateMutability":"view"},{"type":"function","name":"removeArk","inputs":[{"name":"ark","type":"address","internalType":"address"}],"outputs":[],"stateMutability":"nonpayable"},{"type":"function","name":"setArkDepositCap","inputs":[{"name":"ark","type":"address","internalType":"address"},{"name":"newDepositCap","type":"uint256","internalType":"uint256"}],"outputs":[],"stateMutability":"nonpayable"},{"type":"function","name":"setArkMaxDepositPercentageOfTVL","inputs":[{"name":"ark","type":"address","internalType":"address"},{"name":"newMaxDepositPercentageOfTVL","type":"uint256","internalType":"Percentage"}],"outputs":[],"stateMutability":"nonpayable"},{"type":"function","name":"setArkMaxRebalanceInflow","inputs":[{"name":"ark","type":"address","internalType":"address"},{"name":"newMaxRebalanceInflow","type":"uint256","internalType":"uint256"}],"outputs":[],"stateMutability":"nonpayable"},{"type":"function","name":"setArkMaxRebalanceOutflow","inputs":[{"name":"ark","type":"address","internalType":"address"},{"name":"newMaxRebalanceOutflow","type":"uint256","internalType":"uint256"}],"outputs":[],"stateMutability":"nonpayable"},{"type":"function","name":"setFleetDepositCap","inputs":[{"name":"newCap","type":"uint256","internalType":"uint256"}],"outputs":[],"stateMutability":"nonpayable"},{"type":"function","name":"setMaxRebalanceOperations","inputs":[{"name":"newMaxRebalanceOperations","type":"uint256","internalType":"uint256"}],"outputs":[],"stateMutability":"nonpayable"},{"type":"function","name":"setMinimumBufferBalance","inputs":[{"name":"newMinimumBalance","type":"uint256","internalType":"uint256"}],"outputs":[],"stateMutability":"nonpayable"},{"type":"function","name":"setStakingRewardsManager","inputs":[{"name":"newStakingRewardsManager","type":"address","internalType":"address"}],"outputs":[],"stateMutability":"nonpayable"},{"type":"function","name":"tipJar","inputs":[],"outputs":[{"name":"","type":"address","internalType":"address"}],"stateMutability":"view"},{"type":"function","name":"treasury","inputs":[],"outputs":[{"name":"","type":"address","internalType":"address"}],"stateMutability":"view"},{"type":"event","name":"ArkAdded","inputs":[{"name":"ark","type":"address","indexed":true,"internalType":"address"}],"anonymous":false},{"type":"event","name":"ArkRemoved","inputs":[{"name":"ark","type":"address","indexed":true,"internalType":"address"}],"anonymous":false},{"type":"event","name":"FleetCommanderDepositCapUpdated","inputs":[{"name":"newCap","type":"uint256","indexed":false,"internalType":"uint256"}],"anonymous":false},{"type":"event","name":"FleetCommanderMaxRebalanceOperationsUpdated","inputs":[{"name":"newMaxRebalanceOperations","type":"uint256","indexed":false,"internalType":"uint256"}],"anonymous":false},{"type":"event","name":"FleetCommanderStakingRewardsUpdated","inputs":[{"name":"newStakingRewards","type":"address","indexed":false,"internalType":"address"}],"anonymous":false},{"type":"event","name":"FleetCommanderminimumBufferBalanceUpdated","inputs":[{"name":"newBalance","type":"uint256","indexed":false,"internalType":"uint256"}],"anonymous":false},{"type":"event","name":"MinimumPauseTimeUpdated","inputs":[{"name":"newMinimumPauseTime","type":"uint256","indexed":false,"internalType":"uint256"}],"anonymous":false},{"type":"event","name":"Paused","inputs":[{"name":"account","type":"address","indexed":false,"internalType":"address"}],"anonymous":false},{"type":"event","name":"Unpaused","inputs":[{"name":"account","type":"address","indexed":false,"internalType":"address"}],"anonymous":false},{"type":"error","name":"CallerIsNotAdmin","inputs":[{"name":"caller","type":"address","internalType":"address"}]},{"type":"error","name":"CallerIsNotAuthorizedToBoard","inputs":[{"name":"caller","type":"address","internalType":"address"}]},{"type":"error","name":"CallerIsNotCommander","inputs":[{"name":"caller","type":"address","internalType":"address"}]},{"type":"error","name":"CallerIsNotContractSpecificRole","inputs":[{"name":"caller","type":"address","internalType":"address"},{"name":"role","type":"bytes32","internalType":"bytes32"}]},{"type":"error","name":"CallerIsNotCurator","inputs":[{"name":"caller","type":"address","internalType":"address"}]},{"type":"error","name":"CallerIsNotDecayController","inputs":[{"name":"caller","type":"address","internalType":"address"}]},{"type":"error","name":"CallerIsNotGovernor","inputs":[{"name":"caller","type":"address","internalType":"address"}]},{"type":"error","name":"CallerIsNotGuardian","inputs":[{"name":"caller","type":"address","internalType":"address"}]},{"type":"error","name":"CallerIsNotGuardianOrGovernor","inputs":[{"name":"caller","type":"address","internalType":"address"}]},{"type":"error","name":"CallerIsNotKeeper","inputs":[{"name":"caller","type":"address","internalType":"address"}]},{"type":"error","name":"CallerIsNotRaft","inputs":[{"name":"caller","type":"address","internalType":"address"}]},{"type":"error","name":"CallerIsNotRaftOrCommander","inputs":[{"name":"caller","type":"address","internalType":"address"}]},{"type":"error","name":"CallerIsNotSuperKeeper","inputs":[{"name":"caller","type":"address","internalType":"address"}]},{"type":"error","name":"ConfigurationManagerZeroAddress","inputs":[]},{"type":"error","name":"DirectGrantIsDisabled","inputs":[{"name":"caller","type":"address","internalType":"address"}]},{"type":"error","name":"DirectRevokeIsDisabled","inputs":[{"name":"caller","type":"address","internalType":"address"}]},{"type":"error","name":"EnforcedPause","inputs":[]},{"type":"error","name":"ExpectedPause","inputs":[]},{"type":"error","name":"FleetCommanderArkAlreadyExists","inputs":[{"name":"ark","type":"address","internalType":"address"}]},{"type":"error","name":"FleetCommanderArkAlreadyHasCommander","inputs":[]},{"type":"error","name":"FleetCommanderArkAssetsNotZero","inputs":[{"name":"ark","type":"address","internalType":"address"}]},{"type":"error","name":"FleetCommanderArkDepositCapGreaterThanZero","inputs":[{"name":"ark","type":"address","internalType":"address"}]},{"type":"error","name":"FleetCommanderArkNotFound","inputs":[{"name":"ark","type":"address","internalType":"address"}]},{"type":"error","name":"FleetCommanderInvalidArkAddress","inputs":[]},{"type":"error","name":"FleetCommanderInvalidStakingRewardsManager","inputs":[]},{"type":"error","name":"FleetCommanderPausableMinimumPauseTimeNotElapsed","inputs":[]},{"type":"error","name":"InvalidAccessManagerAddress","inputs":[{"name":"invalidAddress","type":"address","internalType":"address"}]}],"bytecode":{"object":"0x60a060405234801561000f575f5ffd5b5060405161528c38038061528c83398101604081905261002e91610507565b606081015160808201516201fa40906001600160a01b03811661006b576040516347bd7c1d60e01b81525f60048201526024015b60405180910390fd5b6040516301ffc9a760e01b8152639bd1803160e01b60048201526001600160a01b038216906301ffc9a790602401602060405180830381865afa1580156100b4573d5f5f3e3d5ffd5b505050506040513d601f19601f820116820180604052508101906100d89190610625565b610100576040516347bd7c1d60e01b81526001600160a01b0382166004820152602401610062565b5f80546001600160a81b0319166001600160a01b0392831617905560019190915581166101405760405163f1634df960e01b815260040160405180910390fd5b806001600160a01b03166080816001600160a01b031681525050505f6040518061014001604052806040518060400160405280600981526020016842756666657241726b60b81b81525081526020016040518060400160405280601181526020017042756666657241726b2064657461696c7360781b815250815260200183608001516001600160a01b0316815260200183606001516001600160a01b031681526020018360a001516001600160a01b031681526020015f1981526020015f1981526020015f1981526020015f151581526020016012600a6102229190610744565b61022d90606461074f565b8152503060405161023d90610419565b610248929190610794565b604051809103905ff080158015610261573d5f5f3e3d5ffd5b5090506103746040518060a00160405280836001600160a01b031681526020018460c0015181526020018461010001518152602001600a81526020016102ab6103b160201b60201c565b5f54604051630f07f82960e01b81526001600160a01b039182166004820152306024820152911690630f07f829906044016020604051808303815f875af11580156102f8573d5f5f3e3d5ffd5b505050506040513d601f19601f8201168201806040525081019061031c919061086e565b6001600160a01b031690528051600380546001600160a01b03199081166001600160a01b0393841617909155602083015160045560408301516005556060830151600655608090920151600780549093169116179055565b6001600160a01b0381165f908152600b60209081526040909120805460ff191660011790558201516008906103a9908261090b565b5050506109c5565b5f6080516001600160a01b031663f7e533ec6040518163ffffffff1660e01b8152600401602060405180830381865afa1580156103f0573d5f5f3e3d5ffd5b505050506040513d601f19601f82011682018060405250810190610414919061086e565b905090565b612895806129f783390190565b634e487b7160e01b5f52604160045260245ffd5b60405161014081016001600160401b038111828210171561045d5761045d610426565b60405290565b5f82601f830112610472575f5ffd5b81516001600160401b0381111561048b5761048b610426565b604051601f8201601f19908116603f011681016001600160401b03811182821017156104b9576104b9610426565b6040528181528382016020018510156104d0575f5ffd5b8160208501602083015e5f918101602001919091529392505050565b80516001600160a01b0381168114610502575f5ffd5b919050565b5f60208284031215610517575f5ffd5b81516001600160401b0381111561052c575f5ffd5b8201610140818503121561053e575f5ffd5b61054661043a565b81516001600160401b0381111561055b575f5ffd5b61056786828501610463565b82525060208201516001600160401b03811115610582575f5ffd5b61058e86828501610463565b60208301525060408201516001600160401b038111156105ac575f5ffd5b6105b886828501610463565b6040830152506105ca606083016104ec565b60608201526105db608083016104ec565b60808201526105ec60a083016104ec565b60a082015260c0828101519082015260e08083015190820152610100808301519082015261012091820151918101919091529392505050565b5f60208284031215610635575f5ffd5b81518015158114610644575f5ffd5b9392505050565b634e487b7160e01b5f52601160045260245ffd5b6001815b600184111561069a5780850481111561067e5761067e61064b565b600184161561068c57908102905b60019390931c928002610663565b935093915050565b5f826106b05750600161073e565b816106bc57505f61073e565b81600181146106d257600281146106dc576106f8565b600191505061073e565b60ff8411156106ed576106ed61064b565b50506001821b61073e565b5060208310610133831016604e8410600b841016171561071b575081810a61073e565b6107275f19848461065f565b805f190482111561073a5761073a61064b565b0290505b92915050565b5f61064483836106a2565b808202811582820484141761073e5761073e61064b565b5f81518084528060208401602086015e5f602082860101526020601f19601f83011685010191505092915050565b604081525f835161014060408401526107b1610180840182610766565b90506020850151603f198483030160608501526107ce8282610766565b91505060408501516107eb60808501826001600160a01b03169052565b5060608501516001600160a01b03811660a08501525060808501516001600160a01b03811660c08501525060a085015160e084015260c085015161010084015260e085015161012084015261010085015161084b61014085018215159052565b506101208501516101608401526001600160a01b03841660208401529050610644565b5f6020828403121561087e575f5ffd5b610644826104ec565b600181811c9082168061089b57607f821691505b6020821081036108b957634e487b7160e01b5f52602260045260245ffd5b50919050565b601f82111561090657805f5260205f20601f840160051c810160208510156108e45750805b601f840160051c820191505b81811015610903575f81556001016108f0565b50505b505050565b81516001600160401b0381111561092457610924610426565b610938816109328454610887565b846108bf565b6020601f82116001811461096a575f83156109535750848201515b5f19600385901b1c1916600184901b178455610903565b5f84815260208120601f198516915b828110156109995787850151825560209485019460019092019101610979565b50848210156109b657868401515f19600387901b60f8161c191681555b50505050600190811b01905550565b608051611ff7610a005f395f81816103ef015281816104b6015281816108eb01528181610aea01528181610b7a01526114090152611ff75ff3fe608060405234801561000f575f5ffd5b50600436106101dc575f3560e01c806394d7eaa411610109578063d25dd1011161009e578063f1cd665b1161006e578063f1cd665b14610470578063f3ba553e14610485578063f7e533ec14610498578063ff32a42a146104a0575f5ffd5b8063d25dd10114610424578063d45a07a114610437578063d902d41a1461044a578063e37d5b7f1461045d575f5ffd5b8063c3f909d4116100d9578063c3f909d414610388578063c8169aa1146103d9578063c9c667e3146103ea578063cc5b1e5514610411575f5ffd5b806394d7eaa41461034f57806396c25a3814610358578063a0506f0b1461036b578063b637766c14610375575f5ffd5b80635c975abb1161017f578063680e57ab1161014f578063680e57ab146102d157806369b3054b146102da57806379502c55146102ed5780637aaceb9514610347575f5ffd5b80635c975abb1461028f5780635e5a9ea9146102a05780635ed975e5146102b357806361d027b3146102c9575f5ffd5b80634daecb9c116101ba5780634daecb9c1461022d5780635340c01214610240578063565974d3146102725780635b0f83f314610287575f5ffd5b8063117d8ae0146101e0578063133ab57914610205578063340505601461021a575b5f5ffd5b6101e86104b3565b6040516001600160a01b0390911681526020015b60405180910390f35b610218610213366004611af0565b610539565b005b610218610228366004611b1b565b61062f565b61021861023b366004611af0565b610773565b61026261024e366004611b45565b600b6020525f908152604090205460ff1681565b60405190151581526020016101fc565b61027a61085c565b6040516101fc9190611b60565b6101e86108e8565b5f54600160a01b900460ff16610262565b6102186102ae366004611b45565b610945565b6102bb600a81565b6040519081526020016101fc565b6101e8610ae7565b6102bb60015481565b6102bb6102e8366004611b95565b610b44565b600354600454600554600654600754610313946001600160a01b03908116949392911685565b604080516001600160a01b03968716815260208101959095528401929092526060830152909116608082015260a0016101fc565b6101e8610b77565b6102bb60025481565b610218610366366004611b45565b610bd4565b6102bb6201fa4081565b610218610383366004611b1b565b610cde565b610390610df3565b6040516101fc919081516001600160a01b039081168252602080840151908301526040808401519083015260608084015190830152608092830151169181019190915260a00190565b6003546001600160a01b03166101e8565b6101e87f000000000000000000000000000000000000000000000000000000000000000081565b61021861041f366004611bcf565b610e75565b610262610432366004611b45565b610fb9565b610218610445366004611b1b565b610fe0565b610218610458366004611af0565b6110f5565b61021861046b366004611b45565b6111de565b6104786112e5565b6040516101fc9190611c40565b610218610493366004611b1b565b6112f1565b6101e8611406565b6101e86104ae366004611af0565b611463565b5f7f00000000000000000000000000000000000000000000000000000000000000006001600160a01b031663117d8ae06040518163ffffffff1660e01b8152600401602060405180830381865afa158015610510573d5f5f3e3d5ffd5b505050506040513d601f19601f820116820180604052508101906105349190611c9b565b905090565b308015806105c557505f80546001600160a01b0316906391d148549061055f9084610b44565b6040516001600160e01b031960e084901b1681526004810191909152336024820152604401602060405180830381865afa15801561059f573d5f5f3e3d5ffd5b505050506040513d601f19601f820116820180604052508101906105c39190611cc5565b155b156105ea576040516363b52ed760e11b81523360048201526024015b60405180910390fd5b6105f261146f565b60068290556040518281527f4f4bedc5354096786a0fb857b12fdd6488cc973b2348cedb78088bdceaa906b5906020015b60405180910390a15050565b308015806106bb57505f80546001600160a01b0316906391d14854906106559084610b44565b6040516001600160e01b031960e084901b1681526004810191909152336024820152604401602060405180830381865afa158015610695573d5f5f3e3d5ffd5b505050506040513d601f19601f820116820180604052508101906106b99190611cc5565b155b156106db576040516363b52ed760e11b81523360048201526024016105e1565b826106e760098261149b565b61070f57604051632767039f60e01b81526001600160a01b03821660048201526024016105e1565b61071761146f565b604051638665120360e01b8152600481018490526001600160a01b038516906386651203906024015b5f604051808303815f87803b158015610757575f5ffd5b505af1158015610769573d5f5f3e3d5ffd5b5050505050505050565b308015806107ff57505f80546001600160a01b0316906391d14854906107999084610b44565b6040516001600160e01b031960e084901b1681526004810191909152336024820152604401602060405180830381865afa1580156107d9573d5f5f3e3d5ffd5b505050506040513d601f19601f820116820180604052508101906107fd9190611cc5565b155b1561081f576040516363b52ed760e11b81523360048201526024016105e1565b61082761146f565b60048290556040518281527f3ba130ec8df44f0a71243af1b7f9f4239616bafda97ae766b3c40a9d202b21a490602001610623565b6008805461086990611cde565b80601f016020809104026020016040519081016040528092919081815260200182805461089590611cde565b80156108e05780601f106108b7576101008083540402835291602001916108e0565b820191905f5260205f20905b8154815290600101906020018083116108c357829003601f168201915b505050505081565b5f7f00000000000000000000000000000000000000000000000000000000000000006001600160a01b0316635b0f83f36040518163ffffffff1660e01b8152600401602060405180830381865afa158015610510573d5f5f3e3d5ffd5b308015806109d157505f80546001600160a01b0316906391d148549061096b9084610b44565b6040516001600160e01b031960e084901b1681526004810191909152336024820152604401602060405180830381865afa1580156109ab573d5f5f3e3d5ffd5b505050506040513d601f19601f820116820180604052508101906109cf9190611cc5565b155b156109f1576040516363b52ed760e11b81523360048201526024016105e1565b6109f961146f565b6001600160a01b038216610a205760405163a0394e6160e01b815260040160405180910390fd5b610a28611406565b5f54604051630f07f82960e01b81526001600160a01b039182166004820152306024820152911690630f07f829906044016020604051808303815f875af1158015610a75573d5f5f3e3d5ffd5b505050506040513d601f19601f82011682018060405250810190610a999190611c9b565b600780546001600160a01b0319166001600160a01b0392831617905560405190831681527f8f407169a2fff9de40408b8d482b293eff9e2dbc448da0593fa9a39d428a410490602001610623565b5f7f00000000000000000000000000000000000000000000000000000000000000006001600160a01b03166361d027b36040518163ffffffff1660e01b8152600401602060405180830381865afa158015610510573d5f5f3e3d5ffd5b5f8282604051602001610b58929190611d16565b6040516020818303038152906040528051906020012090505b92915050565b5f7f00000000000000000000000000000000000000000000000000000000000000006001600160a01b0316637aaceb956040518163ffffffff1660e01b8152600401602060405180830381865afa158015610510573d5f5f3e3d5ffd5b5f5460408051630ccc574960e41b815290516001600160a01b03909216916391d1485491839163ccc57490916004808201926020929091908290030181865afa158015610c23573d5f5f3e3d5ffd5b505050506040513d601f19601f82011682018060405250810190610c479190611d59565b6040516001600160e01b031960e084901b1681526004810191909152336024820152604401602060405180830381865afa158015610c87573d5f5f3e3d5ffd5b505050506040513d601f19601f82011682018060405250810190610cab9190611cc5565b610cca57604051630ea7d7ed60e21b81523360048201526024016105e1565b610cd261146f565b610cdb816114bf565b50565b30801580610d6a57505f80546001600160a01b0316906391d1485490610d049084610b44565b6040516001600160e01b031960e084901b1681526004810191909152336024820152604401602060405180830381865afa158015610d44573d5f5f3e3d5ffd5b505050506040513d601f19601f82011682018060405250810190610d689190611cc5565b155b15610d8a576040516363b52ed760e11b81523360048201526024016105e1565b82610d9660098261149b565b610dbe57604051632767039f60e01b81526001600160a01b03821660048201526024016105e1565b610dc661146f565b6040516361f5cd8b60e01b8152600481018490526001600160a01b038516906361f5cd8b90602401610740565b610e326040518060a001604052805f6001600160a01b031681526020015f81526020015f81526020015f81526020015f6001600160a01b031681525090565b506040805160a0810182526003546001600160a01b0390811682526004546020830152600554928201929092526006546060820152600754909116608082015290565b5f5460408051630ccc574960e41b815290516001600160a01b03909216916391d1485491839163ccc57490916004808201926020929091908290030181865afa158015610ec4573d5f5f3e3d5ffd5b505050506040513d601f19601f82011682018060405250810190610ee89190611d59565b6040516001600160e01b031960e084901b1681526004810191909152336024820152604401602060405180830381865afa158015610f28573d5f5f3e3d5ffd5b505050506040513d601f19601f82011682018060405250810190610f4c9190611cc5565b610f6b57604051630ea7d7ed60e21b81523360048201526024016105e1565b610f7361146f565b5f5b81811015610fb457610fac838383818110610f9257610f92611d70565b9050602002016020810190610fa79190611b45565b6115e8565b600101610f75565b505050565b5f610fc560098361149b565b80610b715750506003546001600160a01b0390811691161490565b3080158061106c57505f80546001600160a01b0316906391d14854906110069084610b44565b6040516001600160e01b031960e084901b1681526004810191909152336024820152604401602060405180830381865afa158015611046573d5f5f3e3d5ffd5b505050506040513d601f19601f8201168201806040525081019061106a9190611cc5565b155b1561108c576040516363b52ed760e11b81523360048201526024016105e1565b8261109860098261149b565b6110c057604051632767039f60e01b81526001600160a01b03821660048201526024016105e1565b6110c861146f565b60405163497af41960e11b8152600481018490526001600160a01b038516906392f5e83290602401610740565b3080158061118157505f80546001600160a01b0316906391d148549061111b9084610b44565b6040516001600160e01b031960e084901b1681526004810191909152336024820152604401602060405180830381865afa15801561115b573d5f5f3e3d5ffd5b505050506040513d601f19601f8201168201806040525081019061117f9190611cc5565b155b156111a1576040516363b52ed760e11b81523360048201526024016105e1565b6111a961146f565b60058290556040518281527f4faeac5aec9fa2e6f82ae7ccfef27a03ca3ff9d8c5356fea9acb2caad1c4c34490602001610623565b5f5460408051630ccc574960e41b815290516001600160a01b03909216916391d1485491839163ccc57490916004808201926020929091908290030181865afa15801561122d573d5f5f3e3d5ffd5b505050506040513d601f19601f820116820180604052508101906112519190611d59565b6040516001600160e01b031960e084901b1681526004810191909152336024820152604401602060405180830381865afa158015611291573d5f5f3e3d5ffd5b505050506040513d601f19601f820116820180604052508101906112b59190611cc5565b6112d457604051630ea7d7ed60e21b81523360048201526024016105e1565b6112dc61146f565b610cdb816115e8565b606061053460096117e7565b3080158061137d57505f80546001600160a01b0316906391d14854906113179084610b44565b6040516001600160e01b031960e084901b1681526004810191909152336024820152604401602060405180830381865afa158015611357573d5f5f3e3d5ffd5b505050506040513d601f19601f8201168201806040525081019061137b9190611cc5565b155b1561139d576040516363b52ed760e11b81523360048201526024016105e1565b826113a960098261149b565b6113d157604051632767039f60e01b81526001600160a01b03821660048201526024016105e1565b6113d961146f565b604051634fc7fac360e01b8152600481018490526001600160a01b03851690634fc7fac390602401610740565b5f7f00000000000000000000000000000000000000000000000000000000000000006001600160a01b031663f7e533ec6040518163ffffffff1660e01b8152600401602060405180830381865afa158015610510573d5f5f3e3d5ffd5b5f610b716009836117f3565b5f54600160a01b900460ff16156114995760405163d93c066560e01b815260040160405180910390fd5b565b6001600160a01b0381165f90815260018301602052604081205415155b9392505050565b6114c881610fb9565b6114f057604051632767039f60e01b81526001600160a01b03821660048201526024016105e1565b6114f9816117fe565b61150460098261191a565b50806001600160a01b031663ebf311316040518163ffffffff1660e01b81526004015f604051808303815f87803b15801561153d575f5ffd5b505af115801561154f573d5f5f3e3d5ffd5b50505f5460405163d55dd62b60e01b81526001600160a01b03909116925063d55dd62b9150611585906002908590600401611d84565b5f604051808303815f87803b15801561159c575f5ffd5b505af11580156115ae573d5f5f3e3d5ffd5b50506040516001600160a01b03841692507f66d72a91b52f63fb063c4f672763d7ef15ce4d7c9a268a7f9b5133e41c1709a591505f90a250565b6001600160a01b03811661160f5760405163210e96cb60e01b815260040160405180910390fd5b61161881610fb9565b1561164157604051637eadea0960e11b81526001600160a01b03821660048201526024016105e1565b806001600160a01b031663303dbaf36040518163ffffffff1660e01b8152600401602060405180830381865afa15801561167d573d5f5f3e3d5ffd5b505050506040513d601f19601f820116820180604052508101906116a19190611cc5565b6001600160a01b0382165f818152600b6020526040808220805460ff191694159490941790935582516330fe427560e21b81529251909263c3f909d491600480830192869291908290030181865afa1580156116ff573d5f5f3e3d5ffd5b505050506040513d5f823e601f3d908101601f191682016040526117269190810190611e85565b516001600160a01b03161461174e57604051631089e45f60e21b815260040160405180910390fd5b806001600160a01b0316638a8b99766040518163ffffffff1660e01b81526004015f604051808303815f87803b158015611786575f5ffd5b505af1158015611798573d5f5f3e3d5ffd5b505050506117b081600961192e90919063ffffffff16565b506040516001600160a01b038216907fcb4a29d359e86f179111dcba8714def1a859612f729f2d224d13efeac51b36bc905f90a250565b60605f6114b883611942565b5f6114b8838361199b565b5f8190505f816001600160a01b031663dbd5edc76040518163ffffffff1660e01b8152600401602060405180830381865afa15801561183f573d5f5f3e3d5ffd5b505050506040513d601f19601f820116820180604052508101906118639190611d59565b111561188d57604051632a4d8fbb60e01b81526001600160a01b03831660048201526024016105e1565b806001600160a01b03166301e1d1146040518163ffffffff1660e01b8152600401602060405180830381865afa1580156118c9573d5f5f3e3d5ffd5b505050506040513d601f19601f820116820180604052508101906118ed9190611d59565b156119165760405163ca4a18b360e01b81526001600160a01b03831660048201526024016105e1565b5050565b5f6114b8836001600160a01b0384166119c1565b5f6114b8836001600160a01b038416611aa4565b6060815f0180548060200260200160405190810160405280929190818152602001828054801561198f57602002820191905f5260205f20905b81548152602001906001019080831161197b575b50505050509050919050565b5f825f0182815481106119b0576119b0611d70565b905f5260205f200154905092915050565b5f8181526001830160205260408120548015611a9b575f6119e3600183611f8e565b85549091505f906119f690600190611f8e565b9050808214611a55575f865f018281548110611a1457611a14611d70565b905f5260205f200154905080875f018481548110611a3457611a34611d70565b5f918252602080832090910192909255918252600188019052604090208390555b8554869080611a6657611a66611fad565b600190038181905f5260205f20015f90559055856001015f8681526020019081526020015f205f905560019350505050610b71565b5f915050610b71565b5f818152600183016020526040812054611ae957508154600181810184555f848152602080822090930184905584548482528286019093526040902091909155610b71565b505f610b71565b5f60208284031215611b00575f5ffd5b5035919050565b6001600160a01b0381168114610cdb575f5ffd5b5f5f60408385031215611b2c575f5ffd5b8235611b3781611b07565b946020939093013593505050565b5f60208284031215611b55575f5ffd5b81356114b881611b07565b602081525f82518060208401528060208501604085015e5f604082850101526040601f19601f83011684010191505092915050565b5f5f60408385031215611ba6575f5ffd5b823560038110611bb4575f5ffd5b91506020830135611bc481611b07565b809150509250929050565b5f5f60208385031215611be0575f5ffd5b823567ffffffffffffffff811115611bf6575f5ffd5b8301601f81018513611c06575f5ffd5b803567ffffffffffffffff811115611c1c575f5ffd5b8560208260051b8401011115611c30575f5ffd5b6020919091019590945092505050565b602080825282518282018190525f918401906040840190835b81811015611c805783516001600160a01b0316835260209384019390920191600101611c59565b509095945050505050565b8051611c9681611b07565b919050565b5f60208284031215611cab575f5ffd5b81516114b881611b07565b80518015158114611c96575f5ffd5b5f60208284031215611cd5575f5ffd5b6114b882611cb6565b600181811c90821680611cf257607f821691505b602082108103611d1057634e487b7160e01b5f52602260045260245ffd5b50919050565b5f60038410611d3357634e487b7160e01b5f52602160045260245ffd5b5060f89290921b825260601b6bffffffffffffffffffffffff1916600182015260150190565b5f60208284031215611d69575f5ffd5b5051919050565b634e487b7160e01b5f52603260045260245ffd5b6040810160038410611da457634e487b7160e01b5f52602160045260245ffd5b9281526001600160a01b039190911660209091015290565b634e487b7160e01b5f52604160045260245ffd5b604051610140810167ffffffffffffffff81118282101715611df457611df4611dbc565b60405290565b5f82601f830112611e09575f5ffd5b815167ffffffffffffffff811115611e2357611e23611dbc565b604051601f8201601f19908116603f0116810167ffffffffffffffff81118282101715611e5257611e52611dbc565b604052818152838201602001851015611e69575f5ffd5b8160208501602083015e5f918101602001919091529392505050565b5f60208284031215611e95575f5ffd5b815167ffffffffffffffff811115611eab575f5ffd5b82016101408185031215611ebd575f5ffd5b611ec5611dd0565b611ece82611c8b565b8152611edc60208301611c8b565b6020820152611eed60408301611c8b565b6040820152606082810151908201526080808301519082015260a0808301519082015260c082015167ffffffffffffffff811115611f29575f5ffd5b611f3586828501611dfa565b60c08301525060e082015167ffffffffffffffff811115611f54575f5ffd5b611f6086828501611dfa565b60e083015250611f736101008301611cb6565b61010082015261012091820151918101919091529392505050565b81810381811115610b7157634e487b7160e01b5f52601160045260245ffd5b634e487b7160e01b5f52603160045260245ffdfea2646970667358221220ac20e93c6ff96c493b13bfd535a3de32396cc12e61accba8ce561b58cb5431f264736f6c634300081c003360a060405234801561000f575f5ffd5b5060405161289538038061289583398101604081905261002e9161049a565b6060820151604083015183918291806001600160a01b03811661006b576040516347bd7c1d60e01b81525f60048201526024015b60405180910390fd5b6040516301ffc9a760e01b8152639bd1803160e01b60048201526001600160a01b038216906301ffc9a790602401602060405180830381865afa1580156100b4573d5f5f3e3d5ffd5b505050506040513d601f19601f820116820180604052508101906100d891906105b1565b610100576040516347bd7c1d60e01b81526001600160a01b0382166004820152602401610062565b5f80546001600160a01b0319166001600160a01b039283161790558216905061013c5760405163f1634df960e01b815260040160405180910390fd5b6001600160a01b0390811660805260608201511661016d5760405163b53c493160e01b815260040160405180910390fd5b60808101516001600160a01b031661019b576040516001620a810f60e11b0319815260040160405180910390fd5b8051515f036101bd5760405163268c072960e01b815260040160405180910390fd5b5f6101c6610342565b6001600160a01b0316036101ed57604051633a4f9cdb60e21b815260040160405180910390fd5b6040805161014081019091525f815260208101610208610342565b6001600160a01b039081168252608080850151821660208085019190915260a08087015160408087019190915260c08089015160608089019190915260e0808b0151878a01528a51858a01528a860151838a0152610100808c01511515918a01919091526101208b01519801979097528751600180549188166001600160a01b031992831617815594890151600280549189169183169190911790559188015160038054919097169216919091179094559385015160045590840151600555918301516006558201516007906102de9082610655565b5060e082015160078201906102f39082610655565b5061010082015160088201805460ff1916911515919091179055610120909101516009909101555050600180546001600160a01b0319166001600160a01b039290921691909117905550610728565b5f6080516001600160a01b031663117d8ae06040518163ffffffff1660e01b8152600401602060405180830381865afa158015610381573d5f5f3e3d5ffd5b505050506040513d601f19601f820116820180604052508101906103a5919061070f565b905090565b634e487b7160e01b5f52604160045260245ffd5b60405161014081016001600160401b03811182821017156103e1576103e16103aa565b60405290565b5f82601f8301126103f6575f5ffd5b81516001600160401b0381111561040f5761040f6103aa565b604051601f8201601f19908116603f011681016001600160401b038111828210171561043d5761043d6103aa565b604052818152838201602001851015610454575f5ffd5b8160208501602083015e5f918101602001919091529392505050565b80516001600160a01b0381168114610486575f5ffd5b919050565b80518015158114610486575f5ffd5b5f5f604083850312156104ab575f5ffd5b82516001600160401b038111156104c0575f5ffd5b830161014081860312156104d2575f5ffd5b6104da6103be565b81516001600160401b038111156104ef575f5ffd5b6104fb878285016103e7565b82525060208201516001600160401b03811115610516575f5ffd5b610522878285016103e7565b60208301525061053460408301610470565b604082015261054560608301610470565b606082015261055660808301610470565b608082015260a0828101519082015260c0808301519082015260e08083015190820152610586610100830161048b565b610100820152610120918201519181019190915291506105a860208401610470565b90509250929050565b5f602082840312156105c1575f5ffd5b6105ca8261048b565b9392505050565b600181811c908216806105e557607f821691505b60208210810361060357634e487b7160e01b5f52602260045260245ffd5b50919050565b601f82111561065057805f5260205f20601f840160051c8101602085101561062e5750805b601f840160051c820191505b8181101561064d575f815560010161063a565b50505b505050565b81516001600160401b0381111561066e5761066e6103aa565b6106828161067c84546105d1565b84610609565b6020601f8211600181146106b4575f831561069d5750848201515b5f19600385901b1c1916600184901b17845561064d565b5f84815260208120601f198516915b828110156106e357878501518255602094850194600190920191016106c3565b508482101561070057868401515f19600387901b60f8161c191681555b50505050600190811b01905550565b5f6020828403121561071f575f5ffd5b6105ca82610470565b6080516121326107635f395f818161037d015281816104cf01528181610867015281816108c401528181611087015261165201526121325ff3fe608060405234801561000f575f5ffd5b50600436106101c6575f3560e01c8063780469bb116100fe578063bdcdd8821161009e578063ce5c7f611161006e578063ce5c7f611461039f578063dbd5edc7146103b2578063ebf31131146103ba578063f7e533ec146103c2575f5ffd5b8063bdcdd88214610348578063c38a6f0b14610350578063c3f909d414610363578063c9c667e314610378575f5ffd5b806386651203116100d957806386651203146103125780638a8b99761461032557806392f5e8321461032d578063ad5a356f14610340575f5ffd5b8063780469bb146102cb57806379502c55146102ec5780637aaceb951461030a575f5ffd5b806337270936116101695780635b0f83f3116101445780635b0f83f31461029557806361d027b31461029d57806361f5cd8b146102a557806369b3054b146102b8575f5ffd5b8063372709361461026057806338d52e0f146102715780634fc7fac314610282575f5ffd5b806313c408f8116101a457806313c408f81461021a5780632db6d3991461022f578063303dbaf3146102425780633194549e14610258575f5ffd5b806301e1d114146101ca57806306fdde03146101e5578063117d8ae0146101fa575b5f5ffd5b6101d26103ca565b6040519081526020015b60405180910390f35b6101ed610439565b6040516101dc9190611a47565b6102026104cc565b6040516001600160a01b0390911681526020016101dc565b61022d610228366004611a9e565b61054d565b005b61022d61023d366004611a9e565b61060b565b60095460ff1660405190151581526020016101dc565b6005546101d2565b6001546001600160a01b0316610202565b6003546001600160a01b0316610202565b61022d610290366004611ae6565b610816565b610202610864565b6102026108c1565b61022d6102b3366004611ae6565b61091e565b6101d26102c6366004611b14565b610965565b6102de6102d9366004611b93565b610997565b6040516101dc929190611c47565b6102f4610f2d565b6040516101dc9a99989796959493929190611cd0565b610202611084565b61022d610320366004611ae6565b6110e1565b61022d611128565b61022d61033b366004611ae6565b611185565b6006546101d2565b600a546101d2565b61022d61035e366004611d47565b6111cc565b61036b611312565b6040516101dc9190611dd2565b6102027f000000000000000000000000000000000000000000000000000000000000000081565b6102de6103ad366004611ea3565b61150b565b6004546101d2565b61022d6115fd565b61020261164f565b6003546040516370a0823160e01b81523060048201525f916001600160a01b0316906370a0823190602401602060405180830381865afa158015610410573d5f5f3e3d5ffd5b505050506040513d601f19601f820116820180604052508101906104349190611ee2565b905090565b60606001600601805461044b90611ef9565b80601f016020809104026020016040519081016040528092919081815260200182805461047790611ef9565b80156104c25780601f10610499576101008083540402835291602001916104c2565b820191905f5260205f20905b8154815290600101906020018083116104a557829003601f168201915b5050505050905090565b5f7f00000000000000000000000000000000000000000000000000000000000000006001600160a01b031663117d8ae06040518163ffffffff1660e01b8152600401602060405180830381865afa158015610529573d5f5f3e3d5ffd5b505050506040513d601f19601f820116820180604052508101906104349190611f31565b6105556116ac565b61058557335b604051631564c0e160e11b81526001600160a01b0390911660048201526024015b60405180910390fd5b61058d611735565b818161059982826117a4565b336003546105b1906001600160a01b03168288611806565b600354604080516001600160a01b03928316815260208101899052918316917fd5e872c5ecfb1bb8820b2e6a20e31b883682282da886621541f71e31ec11947e910160405180910390a2505050610606611865565b505050565b610613611735565b306001600160a01b031663372709366040518163ffffffff1660e01b8152600401602060405180830381865afa15801561064f573d5f5f3e3d5ffd5b505050506040513d601f19601f820116820180604052508101906106739190611f31565b61067b6116ac565b61079a575f3390505f306001600160a01b031663117d8ae06040518163ffffffff1660e01b8152600401602060405180830381865afa1580156106c0573d5f5f3e3d5ffd5b505050506040513d601f19601f820116820180604052508101906106e49190611f31565b6001600160a01b0316826001600160a01b0316149050806107975760405163d25dd10160e01b81526001600160a01b0383811660048301525f919085169063d25dd10190602401602060405180830381865afa158015610746573d5f5f3e3d5ffd5b505050506040513d601f19601f8201168201806040525081019061076a9190611f4c565b90508061079557604051638f7a567d60e01b81526001600160a01b038416600482015260240161057c565b505b50505b82826107a682826117a4565b60035433906107c0906001600160a01b031682308a61188f565b600354604080516001600160a01b039283168152602081018a9052918316917fcbaa1442ac205415c9d69643e7b60ec73d1de35dbc807c21ec288c70ddc4207b910160405180910390a250505050610606611865565b61081e6116ac565b610828573361055b565b600a8190556040518181527fd3c6d0ab315f2f1352f036cd9f401b49e38e1b90907e195225e8105f9a0b6f02906020015b60405180910390a150565b5f7f00000000000000000000000000000000000000000000000000000000000000006001600160a01b0316635b0f83f36040518163ffffffff1660e01b8152600401602060405180830381865afa158015610529573d5f5f3e3d5ffd5b5f7f00000000000000000000000000000000000000000000000000000000000000006001600160a01b03166361d027b36040518163ffffffff1660e01b8152600401602060405180830381865afa158015610529573d5f5f3e3d5ffd5b6109266116ac565b610930573361055b565b60058190556040518181527ffbe2d5c01ea8ba5596d6c4e6c82c6d4a0a0ee1128689993a4a5ba0169273d69f90602001610859565b5f8282604051602001610979929190611f6b565b60405160208183030381529060405280519060200120905092915050565b606080306001600160a01b031663117d8ae06040518163ffffffff1660e01b8152600401602060405180830381865afa1580156109d6573d5f5f3e3d5ffd5b505050506040513d601f19601f820116820180604052508101906109fa9190611f31565b6001600160a01b0316336001600160a01b031614610a3957335b604051631184b31b60e21b81526001600160a01b03909116600482015260240161057c565b610a41611735565b825167ffffffffffffffff811115610a5b57610a5b611b4e565b604051908082528060200260200182016040528015610a84578160200160208202803683370190505b509150825167ffffffffffffffff811115610aa157610aa1611b4e565b604051908082528060200260200182016040528015610aca578160200160208202803683370190505b506003546040516370a0823160e01b81523060048201529192505f916001600160a01b03909116906370a0823190602401602060405180830381865afa158015610b16573d5f5f3e3d5ffd5b505050506040513d601f19601f82011682018060405250810190610b3a9190611ee2565b1115610cfe57600154604080516330fe427560e21b815290515f926001600160a01b03169163c3f909d49160048083019260a09291908290030181865afa158015610b87573d5f5f3e3d5ffd5b505050506040513d601f19601f82011682018060405250810190610bab9190611fae565b516003546040516370a0823160e01b8152306004820152919250610c309183916001600160a01b0316906370a0823190602401602060405180830381865afa158015610bf9573d5f5f3e3d5ffd5b505050506040513d601f19601f82011682018060405250810190610c1d9190611ee2565b6003546001600160a01b031691906118ce565b6003546040516370a0823160e01b81523060048201526001600160a01b0383811692632db6d399929116906370a0823190602401602060405180830381865afa158015610c7f573d5f5f3e3d5ffd5b505050506040513d601f19601f82011682018060405250810190610ca39190611ee2565b60405180602001604052805f8152506040518363ffffffff1660e01b8152600401610ccf92919061202b565b5f604051808303815f87803b158015610ce6575f5ffd5b505af1158015610cf8573d5f5f3e3d5ffd5b50505050505b5f5b8351811015610ecc575f848281518110610d1c57610d1c61204b565b60209081029190910101516040516370a0823160e01b81523060048201526001600160a01b03909116906370a0823190602401602060405180830381865afa158015610d6a573d5f5f3e3d5ffd5b505050506040513d601f19601f82011682018060405250810190610d8e9190611ee2565b90508015610ec357610e57610da16104cc565b868481518110610db357610db361204b565b60209081029190910101516040516370a0823160e01b81523060048201526001600160a01b03909116906370a0823190602401602060405180830381865afa158015610e01573d5f5f3e3d5ffd5b505050506040513d601f19601f82011682018060405250810190610e259190611ee2565b878581518110610e3757610e3761204b565b60200260200101516001600160a01b03166118069092919063ffffffff16565b848281518110610e6957610e6961204b565b6020026020010151848381518110610e8357610e8361204b565b60200260200101906001600160a01b031690816001600160a01b03168152505080838381518110610eb657610eb661204b565b6020026020010181815250505b50600101610d00565b5080604051610edb919061205f565b604051809103902082604051610ef19190612094565b604051908190038120907f46b8771620f6acf56cb03d3e835ea8024c7dcbcf05fcc3f6ade9e19d1a3e212b905f90a3610f28611865565b915091565b60018054600254600354600454600554600654600780546001600160a01b03978816989688169790951695939492939192610f6790611ef9565b80601f0160208091040260200160405190810160405280929190818152602001828054610f9390611ef9565b8015610fde5780601f10610fb557610100808354040283529160200191610fde565b820191905f5260205f20905b815481529060010190602001808311610fc157829003601f168201915b505050505090806007018054610ff390611ef9565b80601f016020809104026020016040519081016040528092919081815260200182805461101f90611ef9565b801561106a5780601f106110415761010080835404028352916020019161106a565b820191905f5260205f20905b81548152906001019060200180831161104d57829003601f168201915b505050506008830154600990930154919260ff169190508a565b5f7f00000000000000000000000000000000000000000000000000000000000000006001600160a01b0316637aaceb956040518163ffffffff1660e01b8152600401602060405180830381865afa158015610529573d5f5f3e3d5ffd5b6110e96116ac565b6110f3573361055b565b60048190556040518181527f333b26cca69716ad4680ddb07663f5bfb4f06045671f336af9a83690a3ae00f990602001610859565b6111306116ac565b61113a573361055b565b600180546001600160a01b031916339081179091556040519081527f55489ce0259bd691120d8860861be1c401c7c16a3cd268d21045756af4ecc5ca906020015b60405180910390a1565b61118d6116ac565b611197573361055b565b60068190556040518181527fb6ac66853c4e59c71e118d25ab494bb847c4e5eb0c8894898c5343e6f61afc1290602001610859565b6111d46116ac565b6111de573361055b565b81816111ea82826117a4565b60035460405163095ea7b360e01b81526001600160a01b038981166004830152602482018b90529091169063095ea7b3906044016020604051808303815f875af115801561123a573d5f5f3e3d5ffd5b505050506040513d601f19601f8201168201806040525081019061125e9190611f4c565b50604051632db6d39960e01b81526001600160a01b03881690632db6d3999061128f908b908a908a906004016120c7565b5f604051808303815f87803b1580156112a6575f5ffd5b505af11580156112b8573d5f5f3e3d5ffd5b5050600354604080516001600160a01b039283168152602081018d9052918b1693503092507f9f784fc02a186f1c98b2d9f15fda084da27cdd291a3785d978f91911d880516b910160405180910390a35050505050505050565b61137d6040518061014001604052805f6001600160a01b031681526020015f6001600160a01b031681526020015f6001600160a01b031681526020015f81526020015f81526020015f815260200160608152602001606081526020015f151581526020015f81525090565b6040805161014081018252600180546001600160a01b0390811683526002548116602084015260035416928201929092526004546060820152600554608082015260065460a08201526007805491929160c0840191906113dc90611ef9565b80601f016020809104026020016040519081016040528092919081815260200182805461140890611ef9565b80156114535780601f1061142a57610100808354040283529160200191611453565b820191905f5260205f20905b81548152906001019060200180831161143657829003601f168201915b5050505050815260200160078201805461146c90611ef9565b80601f016020809104026020016040519081016040528092919081815260200182805461149890611ef9565b80156114e35780601f106114ba576101008083540402835291602001916114e3565b820191905f5260205f20905b8154815290600101906020018083116114c657829003601f168201915b5050509183525050600882015460ff1615156020820152600990910154604090910152919050565b606080306001600160a01b031663117d8ae06040518163ffffffff1660e01b8152600401602060405180830381865afa15801561154a573d5f5f3e3d5ffd5b505050506040513d601f19601f8201168201806040525081019061156e9190611f31565b6001600160a01b0316336001600160a01b03161461158c5733610a14565b611594611735565b505060405160609081906115a990829061205f565b6040518091039020826040516115bf9190612094565b604051908190038120907f3e3e7958121b3e39c7a49392d1aa9cdce870c2a059744f9e15cf66fff7865455905f90a36115f6611865565b9250929050565b6116056116ac565b61160f573361055b565b600180546001600160a01b03191690556040513381527f7cb941d7b1708e5b3bcd35ca960d6c6311188cec18886e5b67630552676b04879060200161117b565b5f7f00000000000000000000000000000000000000000000000000000000000000006001600160a01b031663f7e533ec6040518163ffffffff1660e01b8152600401602060405180830381865afa158015610529573d5f5f3e3d5ffd5b5f80546001600160a01b03166391d148546116c8600230610965565b336040516001600160e01b031960e085901b16815260048101929092526001600160a01b03166024820152604401602060405180830381865afa158015611711573d5f5f3e3d5ffd5b505050506040513d601f19601f820116820180604052508101906104349190611f4c565b7f9b779b17422d0df92223018b32b4d1fa46e071723d6817e2486d003becc55f005c1561177557604051633ee5aeb560e01b815260040160405180910390fd5b6117a260017f9b779b17422d0df92223018b32b4d1fa46e071723d6817e2486d003becc55f005b9061195d565b565b80158015906117b6575060095460ff16155b156117d457604051630cd0fdf960e01b815260040160405180910390fd5b801580156117e4575060095460ff165b156118025760405163332863a960e11b815260040160405180910390fd5b5050565b6040516001600160a01b0383811660248301526044820183905261060691859182169063a9059cbb906064015b604051602081830303815290604052915060e01b6020820180516001600160e01b038381831617835250505050611964565b6117a25f7f9b779b17422d0df92223018b32b4d1fa46e071723d6817e2486d003becc55f0061179c565b6040516001600160a01b0384811660248301528381166044830152606482018390526118c89186918216906323b872dd90608401611833565b50505050565b604080516001600160a01b038416602482015260448082018490528251808303909101815260649091019091526020810180516001600160e01b031663095ea7b360e01b17905261191f84826119d0565b6118c8576040516001600160a01b0384811660248301525f604483015261195391869182169063095ea7b390606401611833565b6118c88482611964565b80825d5050565b5f5f60205f8451602086015f885af180611983576040513d5f823e3d81fd5b50505f513d9150811561199a5780600114156119a7565b6001600160a01b0384163b155b156118c857604051635274afe760e01b81526001600160a01b038516600482015260240161057c565b5f5f5f5f60205f8651602088015f8a5af192503d91505f519050828015611a0f57508115611a015780600114611a0f565b5f866001600160a01b03163b115b9695505050505050565b5f81518084528060208401602086015e5f602082860101526020601f19601f83011685010191505092915050565b602081525f611a596020830184611a19565b9392505050565b5f5f83601f840112611a70575f5ffd5b50813567ffffffffffffffff811115611a87575f5ffd5b6020830191508360208285010111156115f6575f5ffd5b5f5f5f60408486031215611ab0575f5ffd5b83359250602084013567ffffffffffffffff811115611acd575f5ffd5b611ad986828701611a60565b9497909650939450505050565b5f60208284031215611af6575f5ffd5b5035919050565b6001600160a01b0381168114611b11575f5ffd5b50565b5f5f60408385031215611b25575f5ffd5b823560038110611b33575f5ffd5b91506020830135611b4381611afd565b809150509250929050565b634e487b7160e01b5f52604160045260245ffd5b604051601f8201601f1916810167ffffffffffffffff81118282101715611b8b57611b8b611b4e565b604052919050565b5f60208284031215611ba3575f5ffd5b813567ffffffffffffffff811115611bb9575f5ffd5b8201601f81018413611bc9575f5ffd5b803567ffffffffffffffff811115611be357611be3611b4e565b8060051b611bf360208201611b62565b91825260208184018101929081019087841115611c0e575f5ffd5b6020850194505b83851015611c3c5784359250611c2a83611afd565b82825260209485019490910190611c15565b979650505050505050565b604080825283519082018190525f9060208501906060840190835b81811015611c895783516001600160a01b0316835260209384019390920191600101611c62565b5050838103602080860191909152855180835291810192508501905f5b81811015611cc4578251845260209384019390920191600101611ca6565b50919695505050505050565b6001600160a01b038b811682528a8116602083015289166040820152606081018890526080810187905260a0810186905261014060c082018190525f90611d1990830187611a19565b82810360e0840152611d2b8187611a19565b9415156101008401525050610120015298975050505050505050565b5f5f5f5f5f5f60808789031215611d5c575f5ffd5b863595506020870135611d6e81611afd565b9450604087013567ffffffffffffffff811115611d89575f5ffd5b611d9589828a01611a60565b909550935050606087013567ffffffffffffffff811115611db4575f5ffd5b611dc089828a01611a60565b979a9699509497509295939492505050565b60208152611dec6020820183516001600160a01b03169052565b5f6020830151611e0760408401826001600160a01b03169052565b5060408301516001600160a01b03811660608401525060608301516080830152608083015160a083015260a083015160c083015260c083015161014060e0840152611e56610160840182611a19565b905060e0840151601f1984830301610100850152611e748282611a19565b915050610100840151611e8c61012085018215159052565b506101208401516101408401528091505092915050565b5f5f60208385031215611eb4575f5ffd5b823567ffffffffffffffff811115611eca575f5ffd5b611ed685828601611a60565b90969095509350505050565b5f60208284031215611ef2575f5ffd5b5051919050565b600181811c90821680611f0d57607f821691505b602082108103611f2b57634e487b7160e01b5f52602260045260245ffd5b50919050565b5f60208284031215611f41575f5ffd5b8151611a5981611afd565b5f60208284031215611f5c575f5ffd5b81518015158114611a59575f5ffd5b5f60038410611f8857634e487b7160e01b5f52602160045260245ffd5b5060f89290921b825260601b6bffffffffffffffffffffffff1916600182015260150190565b5f60a0828403128015611fbf575f5ffd5b5060405160a0810167ffffffffffffffff81118282101715611fe357611fe3611b4e565b6040528251611ff181611afd565b8152602083810151908201526040808401519082015260608084015190820152608083015161201f81611afd565b60808201529392505050565b828152604060208201525f6120436040830184611a19565b949350505050565b634e487b7160e01b5f52603260045260245ffd5b81515f90829060208501835b8281101561208957815184526020938401939091019060010161206b565b509195945050505050565b81515f90829060208501835b828110156120895781516001600160a01b03168452602093840193909101906001016120a0565b83815260406020820152816040820152818360608301375f818301606090810191909152601f909201601f191601019291505056fea2646970667358221220ffa19ab329298b86316e3c389d1c6efa5e6af714a2583f3a82360ba88064a95464736f6c634300081c0033","linkReferences":{}},"methodIdentifiers":{"INITIAL_MINIMUM_PAUSE_TIME()":"a0506f0b","MAX_REBALANCE_OPERATIONS()":"5ed975e5","addArk(address)":"e37d5b7f","addArks(address[])":"cc5b1e55","arks(uint256)":"ff32a42a","bufferArk()":"c8169aa1","config()":"79502c55","configurationManager()":"c9c667e3","details()":"565974d3","fleetCommanderRewardsManagerFactory()":"f7e533ec","generateRole(uint8,address)":"69b3054b","getArks()":"f1cd665b","getConfig()":"c3f909d4","harborCommand()":"5b0f83f3","isArkActive(address)":"d25dd101","isArkWithdrawable(address)":"5340c012","minimumPauseTime()":"680e57ab","pauseStartTime()":"94d7eaa4","paused()":"5c975abb","raft()":"117d8ae0","removeArk(address)":"96c25a38","setArkDepositCap(address,uint256)":"34050560","setArkMaxDepositPercentageOfTVL(address,uint256)":"f3ba553e","setArkMaxRebalanceInflow(address,uint256)":"d45a07a1","setArkMaxRebalanceOutflow(address,uint256)":"b637766c","setFleetDepositCap(uint256)":"d902d41a","setMaxRebalanceOperations(uint256)":"133ab579","setMinimumBufferBalance(uint256)":"4daecb9c","setStakingRewardsManager(address)":"5e5a9ea9","tipJar()":"7aaceb95","treasury()":"61d027b3"},"id":195}