{"abi":[{"type":"constructor","inputs":[{"name":"params","type":"tuple","internalType":"struct FleetCommanderParams","components":[{"name":"name","type":"string","internalType":"string"},{"name":"symbol","type":"string","internalType":"string"},{"name":"configurationManager","type":"address","internalType":"address"},{"name":"accessManager","type":"address","internalType":"address"},{"name":"asset","type":"address","internalType":"address"},{"name":"initialMinimumBufferBalance","type":"uint256","internalType":"uint256"},{"name":"initialRebalanceCooldown","type":"uint256","internalType":"uint256"},{"name":"depositCap","type":"uint256","internalType":"uint256"},{"name":"initialTipRate","type":"uint256","internalType":"Percentage"}]}],"stateMutability":"nonpayable"},{"type":"function","name":"INITIAL_MINIMUM_PAUSE_TIME","inputs":[],"outputs":[{"name":"","type":"uint256","internalType":"uint256"}],"stateMutability":"view"},{"type":"function","name":"MAX_REBALANCE_OPERATIONS","inputs":[],"outputs":[{"name":"","type":"uint256","internalType":"uint256"}],"stateMutability":"view"},{"type":"function","name":"addArk","inputs":[{"name":"ark","type":"address","internalType":"address"}],"outputs":[],"stateMutability":"nonpayable"},{"type":"function","name":"addArks","inputs":[{"name":"_arkAddresses","type":"address[]","internalType":"address[]"}],"outputs":[],"stateMutability":"nonpayable"},{"type":"function","name":"arks","inputs":[{"name":"","type":"uint256","internalType":"uint256"}],"outputs":[{"name":"","type":"address","internalType":"address"}],"stateMutability":"view"},{"type":"function","name":"bufferArk","inputs":[],"outputs":[{"name":"","type":"address","internalType":"address"}],"stateMutability":"view"},{"type":"function","name":"config","inputs":[],"outputs":[{"name":"bufferArk","type":"address","internalType":"contract IArk"},{"name":"minimumBufferBalance","type":"uint256","internalType":"uint256"},{"name":"depositCap","type":"uint256","internalType":"uint256"},{"name":"maxRebalanceOperations","type":"uint256","internalType":"uint256"}],"stateMutability":"view"},{"type":"function","name":"generateRole","inputs":[{"name":"roleName","type":"uint8","internalType":"enum ContractSpecificRoles"},{"name":"roleTargetContract","type":"address","internalType":"address"}],"outputs":[{"name":"","type":"bytes32","internalType":"bytes32"}],"stateMutability":"pure"},{"type":"function","name":"getArks","inputs":[],"outputs":[{"name":"","type":"address[]","internalType":"address[]"}],"stateMutability":"view"},{"type":"function","name":"getConfig","inputs":[],"outputs":[{"name":"","type":"tuple","internalType":"struct FleetConfig","components":[{"name":"bufferArk","type":"address","internalType":"contract IArk"},{"name":"minimumBufferBalance","type":"uint256","internalType":"uint256"},{"name":"depositCap","type":"uint256","internalType":"uint256"},{"name":"maxRebalanceOperations","type":"uint256","internalType":"uint256"}]}],"stateMutability":"view"},{"type":"function","name":"isArkActive","inputs":[{"name":"","type":"address","internalType":"address"}],"outputs":[{"name":"","type":"bool","internalType":"bool"}],"stateMutability":"view"},{"type":"function","name":"isArkWithdrawable","inputs":[{"name":"","type":"address","internalType":"address"}],"outputs":[{"name":"","type":"bool","internalType":"bool"}],"stateMutability":"view"},{"type":"function","name":"minimumPauseTime","inputs":[],"outputs":[{"name":"","type":"uint256","internalType":"uint256"}],"stateMutability":"view"},{"type":"function","name":"pauseStartTime","inputs":[],"outputs":[{"name":"","type":"uint256","internalType":"uint256"}],"stateMutability":"view"},{"type":"function","name":"paused","inputs":[],"outputs":[{"name":"","type":"bool","internalType":"bool"}],"stateMutability":"view"},{"type":"function","name":"removeArk","inputs":[{"name":"ark","type":"address","internalType":"address"}],"outputs":[],"stateMutability":"nonpayable"},{"type":"function","name":"setArkDepositCap","inputs":[{"name":"ark","type":"address","internalType":"address"},{"name":"newDepositCap","type":"uint256","internalType":"uint256"}],"outputs":[],"stateMutability":"nonpayable"},{"type":"function","name":"setArkMaxRebalanceInflow","inputs":[{"name":"ark","type":"address","internalType":"address"},{"name":"newMaxRebalanceInflow","type":"uint256","internalType":"uint256"}],"outputs":[],"stateMutability":"nonpayable"},{"type":"function","name":"setArkMaxRebalanceOutflow","inputs":[{"name":"ark","type":"address","internalType":"address"},{"name":"newMaxRebalanceOutflow","type":"uint256","internalType":"uint256"}],"outputs":[],"stateMutability":"nonpayable"},{"type":"function","name":"setFleetDepositCap","inputs":[{"name":"newCap","type":"uint256","internalType":"uint256"}],"outputs":[],"stateMutability":"nonpayable"},{"type":"function","name":"setMaxRebalanceOperations","inputs":[{"name":"newMaxRebalanceOperations","type":"uint256","internalType":"uint256"}],"outputs":[],"stateMutability":"nonpayable"},{"type":"function","name":"setMinimumBufferBalance","inputs":[{"name":"newMinimumBalance","type":"uint256","internalType":"uint256"}],"outputs":[],"stateMutability":"nonpayable"},{"type":"event","name":"ArkAdded","inputs":[{"name":"ark","type":"address","indexed":true,"internalType":"address"}],"anonymous":false},{"type":"event","name":"ArkRemoved","inputs":[{"name":"ark","type":"address","indexed":true,"internalType":"address"}],"anonymous":false},{"type":"event","name":"FleetCommanderDepositCapUpdated","inputs":[{"name":"newCap","type":"uint256","indexed":false,"internalType":"uint256"}],"anonymous":false},{"type":"event","name":"FleetCommanderMaxRebalanceOperationsUpdated","inputs":[{"name":"newMaxRebalanceOperations","type":"uint256","indexed":false,"internalType":"uint256"}],"anonymous":false},{"type":"event","name":"FleetCommanderminimumBufferBalanceUpdated","inputs":[{"name":"newBalance","type":"uint256","indexed":false,"internalType":"uint256"}],"anonymous":false},{"type":"event","name":"MinimumPauseTimeUpdated","inputs":[{"name":"newMinimumPauseTime","type":"uint256","indexed":false,"internalType":"uint256"}],"anonymous":false},{"type":"event","name":"Paused","inputs":[{"name":"account","type":"address","indexed":false,"internalType":"address"}],"anonymous":false},{"type":"event","name":"Unpaused","inputs":[{"name":"account","type":"address","indexed":false,"internalType":"address"}],"anonymous":false},{"type":"error","name":"CallerIsNotAdmin","inputs":[{"name":"caller","type":"address","internalType":"address"}]},{"type":"error","name":"CallerIsNotAuthorizedToBoard","inputs":[{"name":"caller","type":"address","internalType":"address"}]},{"type":"error","name":"CallerIsNotCommander","inputs":[{"name":"caller","type":"address","internalType":"address"}]},{"type":"error","name":"CallerIsNotContractSpecificRole","inputs":[{"name":"caller","type":"address","internalType":"address"},{"name":"role","type":"bytes32","internalType":"bytes32"}]},{"type":"error","name":"CallerIsNotCurator","inputs":[{"name":"caller","type":"address","internalType":"address"}]},{"type":"error","name":"CallerIsNotGovernor","inputs":[{"name":"caller","type":"address","internalType":"address"}]},{"type":"error","name":"CallerIsNotGuardian","inputs":[{"name":"caller","type":"address","internalType":"address"}]},{"type":"error","name":"CallerIsNotGuardianOrGovernor","inputs":[{"name":"caller","type":"address","internalType":"address"}]},{"type":"error","name":"CallerIsNotKeeper","inputs":[{"name":"caller","type":"address","internalType":"address"}]},{"type":"error","name":"CallerIsNotRaft","inputs":[{"name":"caller","type":"address","internalType":"address"}]},{"type":"error","name":"CallerIsNotRaftOrCommander","inputs":[{"name":"caller","type":"address","internalType":"address"}]},{"type":"error","name":"CallerIsNotSuperKeeper","inputs":[{"name":"caller","type":"address","internalType":"address"}]},{"type":"error","name":"DirectGrantIsDisabled","inputs":[{"name":"caller","type":"address","internalType":"address"}]},{"type":"error","name":"DirectRevokeIsDisabled","inputs":[{"name":"caller","type":"address","internalType":"address"}]},{"type":"error","name":"EnforcedPause","inputs":[]},{"type":"error","name":"ExpectedPause","inputs":[]},{"type":"error","name":"FleetCommanderArkAlreadyExists","inputs":[{"name":"ark","type":"address","internalType":"address"}]},{"type":"error","name":"FleetCommanderArkAlreadyHasCommander","inputs":[]},{"type":"error","name":"FleetCommanderArkAssetsNotZero","inputs":[{"name":"ark","type":"address","internalType":"address"}]},{"type":"error","name":"FleetCommanderArkDepositCapGreaterThanZero","inputs":[{"name":"ark","type":"address","internalType":"address"}]},{"type":"error","name":"FleetCommanderArkNotFound","inputs":[{"name":"ark","type":"address","internalType":"address"}]},{"type":"error","name":"FleetCommanderInvalidArkAddress","inputs":[]},{"type":"error","name":"FleetCommanderPausableMinimumPauseTimeNotElapsed","inputs":[]},{"type":"error","name":"InvalidAccessManagerAddress","inputs":[{"name":"invalidAddress","type":"address","internalType":"address"}]}],"bytecode":{"object":"0x608060405234801561000f575f5ffd5b5060405161404338038061404383398101604081905261002e91610363565b60608101516201fa40906001600160a01b038116610066576040516347bd7c1d60e01b81525f60048201526024015b60405180910390fd5b6040516301ffc9a760e01b815263a237592160e01b60048201526001600160a01b038216906301ffc9a790602401602060405180830381865afa1580156100af573d5f5f3e3d5ffd5b505050506040513d601f19601f820116820180604052508101906100d39190610456565b6100fb576040516347bd7c1d60e01b81526001600160a01b038216600482015260240161005d565b5f80546001600160a81b0319166001600160a01b039283161781556001929092556040805161014081018252600961010082019081526842756666657241726b60b81b61012083015281526060808601518416602083015285830151841682840152608080870151909416908201525f1992810183905260a0810183905260c081019290925260e0820183905251309061019490610275565b61019f92919061047c565b604051809103905ff0801580156101b8573d5f5f3e3d5ffd5b5090506101fc6040518060800160405280836001600160a01b031681526020018460a0015181526020018460e001518152602001600a81525061023b60201b60201c565b6001600160a01b03165f9081526008602090815260408083208054600160ff199182168117909255600990935292208054909116909117905550610545565b8051600380546001600160a01b0319166001600160a01b039092169190911790556020810151600455604081015160055560600151600655565b6122bf80611d8483390190565b634e487b7160e01b5f52604160045260245ffd5b60405161012081016001600160401b03811182821017156102b9576102b9610282565b60405290565b5f82601f8301126102ce575f5ffd5b81516001600160401b038111156102e7576102e7610282565b604051601f8201601f19908116603f011681016001600160401b038111828210171561031557610315610282565b60405281815283820160200185101561032c575f5ffd5b8160208501602083015e5f918101602001919091529392505050565b80516001600160a01b038116811461035e575f5ffd5b919050565b5f60208284031215610373575f5ffd5b81516001600160401b03811115610388575f5ffd5b8201610120818503121561039a575f5ffd5b6103a2610296565b81516001600160401b038111156103b7575f5ffd5b6103c3868285016102bf565b82525060208201516001600160401b038111156103de575f5ffd5b6103ea868285016102bf565b6020830152506103fc60408301610348565b604082015261040d60608301610348565b606082015261041e60808301610348565b608082015260a0828101519082015260c0808301519082015260e0808301519082015261010091820151918101919091529392505050565b5f60208284031215610466575f5ffd5b81518015158114610475575f5ffd5b9392505050565b604081525f83516101006040840152805180610140850152806020830161016086015e5f848201610160015260208601516001600160a01b0381166060860152915060408601516001600160a01b0381166080860152915060608601516001600160a01b03811660a08601529150608086015160c085015260a086015160e085015260c086015161010085015260e0860151915061051f61012085018315159052565b601f01601f19168301610160019150610475905060208301846001600160a01b03169052565b611832806105525f395ff3fe608060405234801561000f575f5ffd5b506004361061013d575f3560e01c8063a0506f0b116100b4578063d25dd10111610079578063d25dd101146102f4578063d45a07a114610316578063d902d41a14610329578063e37d5b7f1461033c578063f1cd665b1461034f578063ff32a42a14610364575f5ffd5b8063a0506f0b1461025b578063b637766c14610265578063c3f909d414610278578063c8169aa1146102bc578063cc5b1e55146102e1575f5ffd5b80635ed975e5116101055780635ed975e5146101c4578063680e57ab146101da57806369b3054b146101e357806379502c55146101f657806394d7eaa41461023f57806396c25a3814610248575f5ffd5b8063133ab5791461014157806334050560146101565780634daecb9c146101695780635340c0121461017c5780635c975abb146101b3575b5f5ffd5b61015461014f3660046113e6565b610377565b005b610154610164366004611411565b610460565b6101546101773660046113e6565b6105a5565b61019e61018a36600461143b565b60096020525f908152604090205460ff1681565b60405190151581526020015b60405180910390f35b5f54600160a01b900460ff1661019e565b6101cc600a81565b6040519081526020016101aa565b6101cc60015481565b6101cc6101f136600461145d565b610682565b600354600454600554600654610215936001600160a01b031692919084565b604080516001600160a01b03909516855260208501939093529183015260608201526080016101aa565b6101cc60025481565b61015461025636600461143b565b6106b5565b6101cc6201fa4081565b610154610273366004611411565b6107bf565b6102806108d7565b6040516101aa919081516001600160a01b0316815260208083015190820152604080830151908201526060918201519181019190915260800190565b6003546001600160a01b03165b6040516001600160a01b0390911681526020016101aa565b6101546102ef366004611497565b61093d565b61019e61030236600461143b565b60086020525f908152604090205460ff1681565b610154610324366004611411565b610a81565b6101546103373660046113e6565b610b99565b61015461034a36600461143b565b610c76565b610357610d7d565b6040516101aa9190611508565b6102c96103723660046113e6565b610ddd565b5f80546001600160a01b0316906391d14854906103949030610682565b6040516001600160e01b031960e084901b1681526004810191909152336024820152604401602060405180830381865afa1580156103d4573d5f5f3e3d5ffd5b505050506040513d601f19601f820116820180604052508101906103f89190611567565b61041c576040516363b52ed760e11b81523360048201526024015b60405180910390fd5b610424610e05565b60068190556040518181527f4f4bedc5354096786a0fb857b12fdd6488cc973b2348cedb78088bdceaa906b5906020015b60405180910390a150565b5f80546001600160a01b0316906391d148549061047d9030610682565b6040516001600160e01b031960e084901b1681526004810191909152336024820152604401602060405180830381865afa1580156104bd573d5f5f3e3d5ffd5b505050506040513d601f19601f820116820180604052508101906104e19190611567565b610500576040516363b52ed760e11b8152336004820152602401610413565b610508610e05565b6001600160a01b0382165f9081526008602052604090205460ff1661054b57604051632767039f60e01b81526001600160a01b0383166004820152602401610413565b604051638665120360e01b8152600481018290526001600160a01b038316906386651203906024015b5f604051808303815f87803b15801561058b575f5ffd5b505af115801561059d573d5f5f3e3d5ffd5b505050505050565b5f80546001600160a01b0316906391d14854906105c29030610682565b6040516001600160e01b031960e084901b1681526004810191909152336024820152604401602060405180830381865afa158015610602573d5f5f3e3d5ffd5b505050506040513d601f19601f820116820180604052508101906106269190611567565b610645576040516363b52ed760e11b8152336004820152602401610413565b61064d610e05565b60048190556040518181527f3ba130ec8df44f0a71243af1b7f9f4239616bafda97ae766b3c40a9d202b21a490602001610455565b5f8282604051602001610696929190611580565b6040516020818303038152906040528051906020012090505b92915050565b5f5460408051630ccc574960e41b815290516001600160a01b03909216916391d1485491839163ccc57490916004808201926020929091908290030181865afa158015610704573d5f5f3e3d5ffd5b505050506040513d601f19601f8201168201806040525081019061072891906115c3565b6040516001600160e01b031960e084901b1681526004810191909152336024820152604401602060405180830381865afa158015610768573d5f5f3e3d5ffd5b505050506040513d601f19601f8201168201806040525081019061078c9190611567565b6107ab57604051630ea7d7ed60e21b8152336004820152602401610413565b6107b3610e05565b6107bc81610e31565b50565b5f80546001600160a01b0316906391d14854906107dc9030610682565b6040516001600160e01b031960e084901b1681526004810191909152336024820152604401602060405180830381865afa15801561081c573d5f5f3e3d5ffd5b505050506040513d601f19601f820116820180604052508101906108409190611567565b61085f576040516363b52ed760e11b8152336004820152602401610413565b610867610e05565b6001600160a01b0382165f9081526008602052604090205460ff166108aa57604051632767039f60e01b81526001600160a01b0383166004820152602401610413565b6040516361f5cd8b60e01b8152600481018290526001600160a01b038316906361f5cd8b90602401610574565b61090760405180608001604052805f6001600160a01b031681526020015f81526020015f81526020015f81525090565b50604080516080810182526003546001600160a01b03168152600454602082015260055491810191909152600654606082015290565b5f5460408051630ccc574960e41b815290516001600160a01b03909216916391d1485491839163ccc57490916004808201926020929091908290030181865afa15801561098c573d5f5f3e3d5ffd5b505050506040513d601f19601f820116820180604052508101906109b091906115c3565b6040516001600160e01b031960e084901b1681526004810191909152336024820152604401602060405180830381865afa1580156109f0573d5f5f3e3d5ffd5b505050506040513d601f19601f82011682018060405250810190610a149190611567565b610a3357604051630ea7d7ed60e21b8152336004820152602401610413565b610a3b610e05565b5f5b81811015610a7c57610a74838383818110610a5a57610a5a6115da565b9050602002016020810190610a6f919061143b565b611070565b600101610a3d565b505050565b5f80546001600160a01b0316906391d1485490610a9e9030610682565b6040516001600160e01b031960e084901b1681526004810191909152336024820152604401602060405180830381865afa158015610ade573d5f5f3e3d5ffd5b505050506040513d601f19601f82011682018060405250810190610b029190611567565b610b21576040516363b52ed760e11b8152336004820152602401610413565b610b29610e05565b6001600160a01b0382165f9081526008602052604090205460ff16610b6c57604051632767039f60e01b81526001600160a01b0383166004820152602401610413565b60405163497af41960e11b8152600481018290526001600160a01b038316906392f5e83290602401610574565b5f80546001600160a01b0316906391d1485490610bb69030610682565b6040516001600160e01b031960e084901b1681526004810191909152336024820152604401602060405180830381865afa158015610bf6573d5f5f3e3d5ffd5b505050506040513d601f19601f82011682018060405250810190610c1a9190611567565b610c39576040516363b52ed760e11b8152336004820152602401610413565b610c41610e05565b60058190556040518181527f4faeac5aec9fa2e6f82ae7ccfef27a03ca3ff9d8c5356fea9acb2caad1c4c34490602001610455565b5f5460408051630ccc574960e41b815290516001600160a01b03909216916391d1485491839163ccc57490916004808201926020929091908290030181865afa158015610cc5573d5f5f3e3d5ffd5b505050506040513d601f19601f82011682018060405250810190610ce991906115c3565b6040516001600160e01b031960e084901b1681526004810191909152336024820152604401602060405180830381865afa158015610d29573d5f5f3e3d5ffd5b505050506040513d601f19601f82011682018060405250810190610d4d9190611567565b610d6c57604051630ea7d7ed60e21b8152336004820152602401610413565b610d74610e05565b6107bc81611070565b60606007805480602002602001604051908101604052809291908181526020018280548015610dd357602002820191905f5260205f20905b81546001600160a01b03168152600190910190602001808311610db5575b5050505050905090565b60078181548110610dec575f80fd5b5f918252602090912001546001600160a01b0316905081565b5f54600160a01b900460ff1615610e2f5760405163d93c066560e01b815260040160405180910390fd5b565b6001600160a01b0381165f9081526008602052604090205460ff16610e7457604051632767039f60e01b81526001600160a01b0382166004820152602401610413565b5f5b600754811015610f7357816001600160a01b031660078281548110610e9d57610e9d6115da565b5f918252602090912001546001600160a01b031603610f6b57610ebf826112ca565b60078054610ecf906001906115ee565b81548110610edf57610edf6115da565b5f91825260209091200154600780546001600160a01b039092169183908110610f0a57610f0a6115da565b905f5260205f20015f6101000a8154816001600160a01b0302191690836001600160a01b031602179055506007805480610f4657610f4661160d565b5f8281526020902081015f1990810180546001600160a01b0319169055019055610f73565b600101610e76565b506001600160a01b0381165f81815260086020526040808220805460ff19169055805163ebf3113160e01b8152905163ebf311319260048084019391929182900301818387803b158015610fc5575f5ffd5b505af1158015610fd7573d5f5f3e3d5ffd5b50505f5460405163d55dd62b60e01b81526001600160a01b03909116925063d55dd62b915061100d906002908590600401611621565b5f604051808303815f87803b158015611024575f5ffd5b505af1158015611036573d5f5f3e3d5ffd5b50506040516001600160a01b03841692507f66d72a91b52f63fb063c4f672763d7ef15ce4d7c9a268a7f9b5133e41c1709a591505f90a250565b6001600160a01b0381166110975760405163210e96cb60e01b815260040160405180910390fd5b6001600160a01b0381165f9081526008602052604090205460ff16156110db57604051637eadea0960e11b81526001600160a01b0382166004820152602401610413565b6001600160a01b0381165f81815260086020908152604091829020805460ff19166001179055815163303dbaf360e01b8152915163303dbaf39260048082019392918290030181865afa158015611134573d5f5f3e3d5ffd5b505050506040513d601f19601f820116820180604052508101906111589190611567565b6001600160a01b0382165f81815260096020526040808220805460ff191694159490941790935582516330fe427560e21b81529251909263c3f909d491600480830192869291908290030181865afa1580156111b6573d5f5f3e3d5ffd5b505050506040513d5f823e601f3d908101601f191682016040526111dd919081019061172d565b516001600160a01b03161461120557604051631089e45f60e21b815260040160405180910390fd5b806001600160a01b0316638a8b99766040518163ffffffff1660e01b81526004015f604051808303815f87803b15801561123d575f5ffd5b505af115801561124f573d5f5f3e3d5ffd5b5050600780546001810182555f9182527fa66cc928b5edb82af9bd49922954155ab7b0942694bea4ce44661d9a8736c6880180546001600160a01b0319166001600160a01b0386169081179091556040519093507fcb4a29d359e86f179111dcba8714def1a859612f729f2d224d13efeac51b36bc9250a250565b5f8190505f816001600160a01b031663dbd5edc76040518163ffffffff1660e01b8152600401602060405180830381865afa15801561130b573d5f5f3e3d5ffd5b505050506040513d601f19601f8201168201806040525081019061132f91906115c3565b111561135957604051632a4d8fbb60e01b81526001600160a01b0383166004820152602401610413565b806001600160a01b03166301e1d1146040518163ffffffff1660e01b8152600401602060405180830381865afa158015611395573d5f5f3e3d5ffd5b505050506040513d601f19601f820116820180604052508101906113b991906115c3565b156113e25760405163ca4a18b360e01b81526001600160a01b0383166004820152602401610413565b5050565b5f602082840312156113f6575f5ffd5b5035919050565b6001600160a01b03811681146107bc575f5ffd5b5f5f60408385031215611422575f5ffd5b823561142d816113fd565b946020939093013593505050565b5f6020828403121561144b575f5ffd5b8135611456816113fd565b9392505050565b5f5f6040838503121561146e575f5ffd5b82356003811061147c575f5ffd5b9150602083013561148c816113fd565b809150509250929050565b5f5f602083850312156114a8575f5ffd5b823567ffffffffffffffff8111156114be575f5ffd5b8301601f810185136114ce575f5ffd5b803567ffffffffffffffff8111156114e4575f5ffd5b8560208260051b84010111156114f8575f5ffd5b6020919091019590945092505050565b602080825282518282018190525f918401906040840190835b818110156115485783516001600160a01b0316835260209384019390920191600101611521565b509095945050505050565b80518015158114611562575f5ffd5b919050565b5f60208284031215611577575f5ffd5b61145682611553565b5f6003841061159d57634e487b7160e01b5f52602160045260245ffd5b5060f89290921b825260601b6bffffffffffffffffffffffff1916600182015260150190565b5f602082840312156115d3575f5ffd5b5051919050565b634e487b7160e01b5f52603260045260245ffd5b818103818111156106af57634e487b7160e01b5f52601160045260245ffd5b634e487b7160e01b5f52603160045260245ffd5b604081016003841061164157634e487b7160e01b5f52602160045260245ffd5b9281526001600160a01b039190911660209091015290565b634e487b7160e01b5f52604160045260245ffd5b604051610100810167ffffffffffffffff8111828210171561169157611691611659565b60405290565b8051611562816113fd565b5f82601f8301126116b1575f5ffd5b815167ffffffffffffffff8111156116cb576116cb611659565b604051601f8201601f19908116603f0116810167ffffffffffffffff811182821017156116fa576116fa611659565b604052818152838201602001851015611711575f5ffd5b8160208501602083015e5f918101602001919091529392505050565b5f6020828403121561173d575f5ffd5b815167ffffffffffffffff811115611753575f5ffd5b82016101008185031215611765575f5ffd5b61176d61166d565b61177682611697565b815261178460208301611697565b602082015261179560408301611697565b6040820152606082810151908201526080808301519082015260a0808301519082015260c082015167ffffffffffffffff8111156117d1575f5ffd5b6117dd868285016116a2565b60c0830152506117ef60e08301611553565b60e082015294935050505056fea264697066735822122079fa0cb161c9fd2e1945f1f9d1798d366a876b0b5a54c75a77b960346a9b202e64736f6c634300081b003360a060405234801561000f575f5ffd5b506040516122bf3803806122bf83398101604081905261002e91610460565b6040820151602083015183918291806001600160a01b03811661006b576040516347bd7c1d60e01b81525f60048201526024015b60405180910390fd5b6040516301ffc9a760e01b815263a237592160e01b60048201526001600160a01b038216906301ffc9a790602401602060405180830381865afa1580156100b4573d5f5f3e3d5ffd5b505050506040513d601f19601f820116820180604052508101906100d8919061053f565b610100576040516347bd7c1d60e01b81526001600160a01b0382166004820152602401610062565b5f80546001600160a01b0319166001600160a01b039283161790558216905061013c5760405163f1634df960e01b815260040160405180910390fd5b6001600160a01b0390811660805260408201511661016d5760405163b53c493160e01b815260040160405180910390fd5b60608101516001600160a01b031661019b576040516001620a810f60e11b0319815260040160405180910390fd5b8051515f036101bd5760405163268c072960e01b815260040160405180910390fd5b5f6101c6610308565b6001600160a01b0316036101ed57604051633a4f9cdb60e21b815260040160405180910390fd5b6040805161010081019091525f815260208101610208610308565b6001600160a01b039081168252606080850151821660208085019190915260808087015160408087019190915260a0808901518588015260c0808a01518489015289518289015260e08a01511515978101979097528751600180549188166001600160a01b03199283161781559489015160028054918916918316919091179055918801516003805491909716921691909117909455918501516004559084015160055590830151600655908201516007906102c490826105e3565b5060e091909101516007909101805460ff19169115159190911790555050600180546001600160a01b0319166001600160a01b0392909216919091179055506106b6565b5f6080516001600160a01b031663117d8ae06040518163ffffffff1660e01b8152600401602060405180830381865afa158015610347573d5f5f3e3d5ffd5b505050506040513d601f19601f8201168201806040525081019061036b919061069d565b905090565b634e487b7160e01b5f52604160045260245ffd5b60405161010081016001600160401b03811182821017156103a7576103a7610370565b60405290565b5f82601f8301126103bc575f5ffd5b81516001600160401b038111156103d5576103d5610370565b604051601f8201601f19908116603f011681016001600160401b038111828210171561040357610403610370565b60405281815283820160200185101561041a575f5ffd5b8160208501602083015e5f918101602001919091529392505050565b80516001600160a01b038116811461044c575f5ffd5b919050565b8051801515811461044c575f5ffd5b5f5f60408385031215610471575f5ffd5b82516001600160401b03811115610486575f5ffd5b83016101008186031215610498575f5ffd5b6104a0610384565b81516001600160401b038111156104b5575f5ffd5b6104c1878285016103ad565b8252506104d060208301610436565b60208201526104e160408301610436565b60408201526104f260608301610436565b60608201526080828101519082015260a0808301519082015260c0808301519082015261052160e08301610451565b60e08201529250610536905060208401610436565b90509250929050565b5f6020828403121561054f575f5ffd5b61055882610451565b9392505050565b600181811c9082168061057357607f821691505b60208210810361059157634e487b7160e01b5f52602260045260245ffd5b50919050565b601f8211156105de57805f5260205f20601f840160051c810160208510156105bc5750805b601f840160051c820191505b818110156105db575f81556001016105c8565b50505b505050565b81516001600160401b038111156105fc576105fc610370565b6106108161060a845461055f565b84610597565b6020601f821160018114610642575f831561062b5750848201515b5f19600385901b1c1916600184901b1784556105db565b5f84815260208120601f198516915b828110156106715787850151825560209485019460019092019101610651565b508482101561068e57868401515f19600387901b60f8161c191681555b50505050600190811b01905550565b5f602082840312156106ad575f5ffd5b61055882610436565b608051611bd56106ea5f395f81816103100152818161046b0152818161079a015281816107f70152610e4b0152611bd55ff3fe608060405234801561000f575f5ffd5b5060043610610187575f3560e01c806379502c55116100d9578063c38a6f0b11610093578063ce5c7f611161006e578063ce5c7f6114610332578063dbd5edc714610345578063ebf311311461034d578063fc0c546a14610355575f5ffd5b8063c38a6f0b146102e3578063c3f909d4146102f6578063c9c667e31461030b575f5ffd5b806379502c55146102895780637aaceb95146102a557806386651203146102ad5780638a8b9976146102c057806392f5e832146102c8578063ad5a356f146102db575f5ffd5b80633194549e1161014457806361d027b31161011f57806361d027b31461023a57806361f5cd8b1461024257806369b3054b14610255578063780469bb14610268575f5ffd5b80633194549e1461021957806337270936146102215780635b0f83f314610232575f5ffd5b806301e1d1141461018b57806306fdde03146101a6578063117d8ae0146101bb57806313c408f8146101db5780632db6d399146101f0578063303dbaf314610203575b5f5ffd5b610193610366565b6040519081526020015b60405180910390f35b6101ae6103d5565b60405161019d9190611566565b6101c3610468565b6040516001600160a01b03909116815260200161019d565b6101ee6101e93660046115c4565b6104e9565b005b6101ee6101fe3660046115c4565b610597565b60085460ff16604051901515815260200161019d565b600554610193565b6001546001600160a01b03166101c3565b6101c3610797565b6101c36107f4565b6101ee61025036600461160c565b610851565b61019361026336600461163a565b61089f565b61027b6102763660046116b9565b6108d1565b60405161019d92919061176d565b610291610d84565b60405161019d9897969594939291906117f6565b6101c3610e48565b6101ee6102bb36600461160c565b610ea5565b6101ee610eec565b6101ee6102d636600461160c565b610f49565b600654610193565b6101ee6102f1366004611856565b610f90565b6102fe6110d6565b60405161019d91906118e1565b6101c37f000000000000000000000000000000000000000000000000000000000000000081565b61027b610340366004611977565b61120a565b600454610193565b6101ee6112ec565b6003546001600160a01b03166101c3565b6003546040516370a0823160e01b81523060048201525f916001600160a01b0316906370a0823190602401602060405180830381865afa1580156103ac573d5f5f3e3d5ffd5b505050506040513d601f19601f820116820180604052508101906103d091906119b6565b905090565b6060600160060180546103e7906119cd565b80601f0160208091040260200160405190810160405280929190818152602001828054610413906119cd565b801561045e5780601f106104355761010080835404028352916020019161045e565b820191905f5260205f20905b81548152906001019060200180831161044157829003601f168201915b5050505050905090565b5f7f00000000000000000000000000000000000000000000000000000000000000006001600160a01b031663117d8ae06040518163ffffffff1660e01b8152600401602060405180830381865afa1580156104c5573d5f5f3e3d5ffd5b505050506040513d601f19601f820116820180604052508101906103d09190611a05565b6104f161133e565b61052157335b604051631564c0e160e11b81526001600160a01b0390911660048201526024015b60405180910390fd5b818161052d82826113c7565b33600354610545906001600160a01b0316828861142e565b600354604080516001600160a01b03928316815260208101899052918316917fd5e872c5ecfb1bb8820b2e6a20e31b883682282da886621541f71e31ec11947e910160405180910390a2505050505050565b306001600160a01b031663372709366040518163ffffffff1660e01b8152600401602060405180830381865afa1580156105d3573d5f5f3e3d5ffd5b505050506040513d601f19601f820116820180604052508101906105f79190611a05565b6105ff61133e565b61071e575f3390505f306001600160a01b031663117d8ae06040518163ffffffff1660e01b8152600401602060405180830381865afa158015610644573d5f5f3e3d5ffd5b505050506040513d601f19601f820116820180604052508101906106689190611a05565b6001600160a01b0316826001600160a01b03161490508061071b5760405163d25dd10160e01b81526001600160a01b0383811660048301525f919085169063d25dd10190602401602060405180830381865afa1580156106ca573d5f5f3e3d5ffd5b505050506040513d601f19601f820116820180604052508101906106ee9190611a20565b90508061071957604051638f7a567d60e01b81526001600160a01b0384166004820152602401610518565b505b50505b828261072a82826113c7565b6003543390610744906001600160a01b031682308a61148d565b600354604080516001600160a01b039283168152602081018a9052918316917fcbaa1442ac205415c9d69643e7b60ec73d1de35dbc807c21ec288c70ddc4207b910160405180910390a250505050505050565b5f7f00000000000000000000000000000000000000000000000000000000000000006001600160a01b0316635b0f83f36040518163ffffffff1660e01b8152600401602060405180830381865afa1580156104c5573d5f5f3e3d5ffd5b5f7f00000000000000000000000000000000000000000000000000000000000000006001600160a01b03166361d027b36040518163ffffffff1660e01b8152600401602060405180830381865afa1580156104c5573d5f5f3e3d5ffd5b61085961133e565b61086357336104f7565b60058190556040518181527ffbe2d5c01ea8ba5596d6c4e6c82c6d4a0a0ee1128689993a4a5ba0169273d69f906020015b60405180910390a150565b5f82826040516020016108b3929190611a3f565b60405160208183030381529060405280519060200120905092915050565b606080306001600160a01b031663117d8ae06040518163ffffffff1660e01b8152600401602060405180830381865afa158015610910573d5f5f3e3d5ffd5b505050506040513d601f19601f820116820180604052508101906109349190611a05565b6001600160a01b0316336001600160a01b03161461097357335b604051631184b31b60e21b81526001600160a01b039091166004820152602401610518565b825167ffffffffffffffff81111561098d5761098d611674565b6040519080825280602002602001820160405280156109b6578160200160208202803683370190505b509150825167ffffffffffffffff8111156109d3576109d3611674565b6040519080825280602002602001820160405280156109fc578160200160208202803683370190505b506003546040516370a0823160e01b81523060048201529192505f916001600160a01b03909116906370a0823190602401602060405180830381865afa158015610a48573d5f5f3e3d5ffd5b505050506040513d601f19601f82011682018060405250810190610a6c91906119b6565b1115610b5d57600154604080516330fe427560e21b81529051610b5d926001600160a01b03169163c3f909d49160048083019260809291908290030181865afa158015610abb573d5f5f3e3d5ffd5b505050506040513d601f19601f82011682018060405250810190610adf9190611a82565b516003546040516370a0823160e01b81523060048201526001600160a01b03909116906370a0823190602401602060405180830381865afa158015610b26573d5f5f3e3d5ffd5b505050506040513d601f19601f82011682018060405250810190610b4a91906119b6565b6003546001600160a01b0316919061142e565b5f5b8351811015610d2b575f848281518110610b7b57610b7b611aee565b60209081029190910101516040516370a0823160e01b81523060048201526001600160a01b03909116906370a0823190602401602060405180830381865afa158015610bc9573d5f5f3e3d5ffd5b505050506040513d601f19601f82011682018060405250810190610bed91906119b6565b90508015610d2257610cb6610c00610468565b868481518110610c1257610c12611aee565b60209081029190910101516040516370a0823160e01b81523060048201526001600160a01b03909116906370a0823190602401602060405180830381865afa158015610c60573d5f5f3e3d5ffd5b505050506040513d601f19601f82011682018060405250810190610c8491906119b6565b878581518110610c9657610c96611aee565b60200260200101516001600160a01b031661142e9092919063ffffffff16565b848281518110610cc857610cc8611aee565b6020026020010151848381518110610ce257610ce2611aee565b60200260200101906001600160a01b031690816001600160a01b03168152505080838381518110610d1557610d15611aee565b6020026020010181815250505b50600101610b5f565b5080604051610d3a9190611b02565b604051809103902082604051610d509190611b37565b604051908190038120907f46b8771620f6acf56cb03d3e835ea8024c7dcbcf05fcc3f6ade9e19d1a3e212b905f90a3915091565b60018054600254600354600454600554600654600780546001600160a01b03978816989688169790951695939492939192610dbe906119cd565b80601f0160208091040260200160405190810160405280929190818152602001828054610dea906119cd565b8015610e355780601f10610e0c57610100808354040283529160200191610e35565b820191905f5260205f20905b815481529060010190602001808311610e1857829003601f168201915b5050506007909301549192505060ff1688565b5f7f00000000000000000000000000000000000000000000000000000000000000006001600160a01b0316637aaceb956040518163ffffffff1660e01b8152600401602060405180830381865afa1580156104c5573d5f5f3e3d5ffd5b610ead61133e565b610eb757336104f7565b60048190556040518181527f333b26cca69716ad4680ddb07663f5bfb4f06045671f336af9a83690a3ae00f990602001610894565b610ef461133e565b610efe57336104f7565b600180546001600160a01b031916339081179091556040519081527f55489ce0259bd691120d8860861be1c401c7c16a3cd268d21045756af4ecc5ca906020015b60405180910390a1565b610f5161133e565b610f5b57336104f7565b60068190556040518181527fb6ac66853c4e59c71e118d25ab494bb847c4e5eb0c8894898c5343e6f61afc1290602001610894565b610f9861133e565b610fa257336104f7565b8181610fae82826113c7565b60035460405163095ea7b360e01b81526001600160a01b038981166004830152602482018b90529091169063095ea7b3906044016020604051808303815f875af1158015610ffe573d5f5f3e3d5ffd5b505050506040513d601f19601f820116820180604052508101906110229190611a20565b50604051632db6d39960e01b81526001600160a01b03881690632db6d39990611053908b908a908a90600401611b6a565b5f604051808303815f87803b15801561106a575f5ffd5b505af115801561107c573d5f5f3e3d5ffd5b5050600354604080516001600160a01b039283168152602081018d9052918b1693503092507f9f784fc02a186f1c98b2d9f15fda084da27cdd291a3785d978f91911d880516b910160405180910390a35050505050505050565b60408051610100810182525f8082526020820181905291810182905260608082018390526080820183905260a0820183905260c082015260e08101919091526040805161010081018252600180546001600160a01b0390811683526002548116602084015260035416928201929092526004546060820152600554608082015260065460a08201526007805491929160c084019190611174906119cd565b80601f01602080910402602001604051908101604052809291908181526020018280546111a0906119cd565b80156111eb5780601f106111c2576101008083540402835291602001916111eb565b820191905f5260205f20905b8154815290600101906020018083116111ce57829003601f168201915b50505091835250506007919091015460ff161515602090910152919050565b606080306001600160a01b031663117d8ae06040518163ffffffff1660e01b8152600401602060405180830381865afa158015611249573d5f5f3e3d5ffd5b505050506040513d601f19601f8201168201806040525081019061126d9190611a05565b6001600160a01b0316336001600160a01b03161461128b573361094e565b505060405160609081906112a0908290611b02565b6040518091039020826040516112b69190611b37565b604051908190038120907f3e3e7958121b3e39c7a49392d1aa9cdce870c2a059744f9e15cf66fff7865455905f90a39250929050565b6112f461133e565b6112fe57336104f7565b600180546001600160a01b03191690556040513381527f7cb941d7b1708e5b3bcd35ca960d6c6311188cec18886e5b67630552676b048790602001610f3f565b5f80546001600160a01b03166391d1485461135a60023061089f565b336040516001600160e01b031960e085901b16815260048101929092526001600160a01b03166024820152604401602060405180830381865afa1580156113a3573d5f5f3e3d5ffd5b505050506040513d601f19601f820116820180604052508101906103d09190611a20565b80158015906113d9575060085460ff16155b156113f757604051630cd0fdf960e01b815260040160405180910390fd5b80158015611407575060085460ff165b156114255760405163332863a960e11b815260040160405180910390fd5b5050565b505050565b6040516001600160a01b0383811660248301526044820183905261142991859182169063a9059cbb906064015b604051602081830303815290604052915060e01b6020820180516001600160e01b0383818316178352505050506114cc565b6040516001600160a01b0384811660248301528381166044830152606482018390526114c69186918216906323b872dd9060840161145b565b50505050565b5f5f60205f8451602086015f885af1806114eb576040513d5f823e3d81fd5b50505f513d9150811561150257806001141561150f565b6001600160a01b0384163b155b156114c657604051635274afe760e01b81526001600160a01b0385166004820152602401610518565b5f81518084528060208401602086015e5f602082860101526020601f19601f83011685010191505092915050565b602081525f6115786020830184611538565b9392505050565b5f5f83601f84011261158f575f5ffd5b50813567ffffffffffffffff8111156115a6575f5ffd5b6020830191508360208285010111156115bd575f5ffd5b9250929050565b5f5f5f604084860312156115d6575f5ffd5b83359250602084013567ffffffffffffffff8111156115f3575f5ffd5b6115ff8682870161157f565b9497909650939450505050565b5f6020828403121561161c575f5ffd5b5035919050565b6001600160a01b0381168114611637575f5ffd5b50565b5f5f6040838503121561164b575f5ffd5b823560038110611659575f5ffd5b9150602083013561166981611623565b809150509250929050565b634e487b7160e01b5f52604160045260245ffd5b604051601f8201601f1916810167ffffffffffffffff811182821017156116b1576116b1611674565b604052919050565b5f602082840312156116c9575f5ffd5b813567ffffffffffffffff8111156116df575f5ffd5b8201601f810184136116ef575f5ffd5b803567ffffffffffffffff81111561170957611709611674565b8060051b61171960208201611688565b91825260208184018101929081019087841115611734575f5ffd5b6020850194505b83851015611762578435925061175083611623565b8282526020948501949091019061173b565b979650505050505050565b604080825283519082018190525f9060208501906060840190835b818110156117af5783516001600160a01b0316835260209384019390920191600101611788565b5050838103602080860191909152855180835291810192508501905f5b818110156117ea5782518452602093840193909201916001016117cc565b50919695505050505050565b6001600160a01b038981168252888116602083015287166040820152606081018690526080810185905260a0810184905261010060c082018190525f9061183f90830185611538565b905082151560e08301529998505050505050505050565b5f5f5f5f5f5f6080878903121561186b575f5ffd5b86359550602087013561187d81611623565b9450604087013567ffffffffffffffff811115611898575f5ffd5b6118a489828a0161157f565b909550935050606087013567ffffffffffffffff8111156118c3575f5ffd5b6118cf89828a0161157f565b979a9699509497509295939492505050565b602080825282516001600160a01b039081168383015290830151166040808301919091528201515f9061191f60608401826001600160a01b03169052565b5060608301516080830152608083015160a083015260a083015160c083015260c083015161010060e0840152611959610120840182611538565b905060e084015161196f61010085018215159052565b509392505050565b5f5f60208385031215611988575f5ffd5b823567ffffffffffffffff81111561199e575f5ffd5b6119aa8582860161157f565b90969095509350505050565b5f602082840312156119c6575f5ffd5b5051919050565b600181811c908216806119e157607f821691505b6020821081036119ff57634e487b7160e01b5f52602260045260245ffd5b50919050565b5f60208284031215611a15575f5ffd5b815161157881611623565b5f60208284031215611a30575f5ffd5b81518015158114611578575f5ffd5b5f60038410611a5c57634e487b7160e01b5f52602160045260245ffd5b5060f89290921b825260601b6bffffffffffffffffffffffff1916600182015260150190565b5f6080828403128015611a93575f5ffd5b506040516080810167ffffffffffffffff81118282101715611ab757611ab7611674565b6040528251611ac581611623565b815260208381015190820152604080840151908201526060928301519281019290925250919050565b634e487b7160e01b5f52603260045260245ffd5b81515f90829060208501835b82811015611b2c578151845260209384019390910190600101611b0e565b509195945050505050565b81515f90829060208501835b82811015611b2c5781516001600160a01b0316845260209384019390910190600101611b43565b83815260406020820152816040820152818360608301375f818301606090810191909152601f909201601f191601019291505056fea26469706673582212209f6079c606119d5e88d7e8160dbb1253e841c646cdf5de3a99780afd7b9c271364736f6c634300081b0033","linkReferences":{}},"methodIdentifiers":{"INITIAL_MINIMUM_PAUSE_TIME()":"a0506f0b","MAX_REBALANCE_OPERATIONS()":"5ed975e5","addArk(address)":"e37d5b7f","addArks(address[])":"cc5b1e55","arks(uint256)":"ff32a42a","bufferArk()":"c8169aa1","config()":"79502c55","generateRole(uint8,address)":"69b3054b","getArks()":"f1cd665b","getConfig()":"c3f909d4","isArkActive(address)":"d25dd101","isArkWithdrawable(address)":"5340c012","minimumPauseTime()":"680e57ab","pauseStartTime()":"94d7eaa4","paused()":"5c975abb","removeArk(address)":"96c25a38","setArkDepositCap(address,uint256)":"34050560","setArkMaxRebalanceInflow(address,uint256)":"d45a07a1","setArkMaxRebalanceOutflow(address,uint256)":"b637766c","setFleetDepositCap(uint256)":"d902d41a","setMaxRebalanceOperations(uint256)":"133ab579","setMinimumBufferBalance(uint256)":"4daecb9c"},"id":157}