{"abi":[{"type":"constructor","inputs":[{"name":"params","type":"tuple","internalType":"struct FleetCommanderParams","components":[{"name":"name","type":"string","internalType":"string"},{"name":"symbol","type":"string","internalType":"string"},{"name":"configurationManager","type":"address","internalType":"address"},{"name":"accessManager","type":"address","internalType":"address"},{"name":"asset","type":"address","internalType":"address"},{"name":"initialMinimumBufferBalance","type":"uint256","internalType":"uint256"},{"name":"initialRebalanceCooldown","type":"uint256","internalType":"uint256"},{"name":"depositCap","type":"uint256","internalType":"uint256"},{"name":"initialTipRate","type":"uint256","internalType":"Percentage"}]}],"stateMutability":"nonpayable"},{"type":"function","name":"INITIAL_MINIMUM_PAUSE_TIME","inputs":[],"outputs":[{"name":"","type":"uint256","internalType":"uint256"}],"stateMutability":"view"},{"type":"function","name":"MAX_REBALANCE_OPERATIONS","inputs":[],"outputs":[{"name":"","type":"uint256","internalType":"uint256"}],"stateMutability":"view"},{"type":"function","name":"addArk","inputs":[{"name":"ark","type":"address","internalType":"address"}],"outputs":[],"stateMutability":"nonpayable"},{"type":"function","name":"addArks","inputs":[{"name":"_arkAddresses","type":"address[]","internalType":"address[]"}],"outputs":[],"stateMutability":"nonpayable"},{"type":"function","name":"arks","inputs":[{"name":"index","type":"uint256","internalType":"uint256"}],"outputs":[{"name":"","type":"address","internalType":"address"}],"stateMutability":"view"},{"type":"function","name":"bufferArk","inputs":[],"outputs":[{"name":"","type":"address","internalType":"address"}],"stateMutability":"view"},{"type":"function","name":"config","inputs":[],"outputs":[{"name":"bufferArk","type":"address","internalType":"contract IArk"},{"name":"minimumBufferBalance","type":"uint256","internalType":"uint256"},{"name":"depositCap","type":"uint256","internalType":"uint256"},{"name":"maxRebalanceOperations","type":"uint256","internalType":"uint256"},{"name":"stakingRewardsManager","type":"address","internalType":"contract IFleetStakingRewardsManager"}],"stateMutability":"view"},{"type":"function","name":"generateRole","inputs":[{"name":"roleName","type":"uint8","internalType":"enum ContractSpecificRoles"},{"name":"roleTargetContract","type":"address","internalType":"address"}],"outputs":[{"name":"","type":"bytes32","internalType":"bytes32"}],"stateMutability":"pure"},{"type":"function","name":"getArks","inputs":[],"outputs":[{"name":"","type":"address[]","internalType":"address[]"}],"stateMutability":"view"},{"type":"function","name":"getConfig","inputs":[],"outputs":[{"name":"","type":"tuple","internalType":"struct FleetConfig","components":[{"name":"bufferArk","type":"address","internalType":"contract IArk"},{"name":"minimumBufferBalance","type":"uint256","internalType":"uint256"},{"name":"depositCap","type":"uint256","internalType":"uint256"},{"name":"maxRebalanceOperations","type":"uint256","internalType":"uint256"},{"name":"stakingRewardsManager","type":"address","internalType":"contract IFleetStakingRewardsManager"}]}],"stateMutability":"view"},{"type":"function","name":"isArkActive","inputs":[{"name":"arkAddress","type":"address","internalType":"address"}],"outputs":[{"name":"","type":"bool","internalType":"bool"}],"stateMutability":"view"},{"type":"function","name":"isArkWithdrawable","inputs":[{"name":"ark","type":"address","internalType":"address"}],"outputs":[{"name":"isWithdrawable","type":"bool","internalType":"bool"}],"stateMutability":"view"},{"type":"function","name":"minimumPauseTime","inputs":[],"outputs":[{"name":"","type":"uint256","internalType":"uint256"}],"stateMutability":"view"},{"type":"function","name":"pauseStartTime","inputs":[],"outputs":[{"name":"","type":"uint256","internalType":"uint256"}],"stateMutability":"view"},{"type":"function","name":"paused","inputs":[],"outputs":[{"name":"","type":"bool","internalType":"bool"}],"stateMutability":"view"},{"type":"function","name":"removeArk","inputs":[{"name":"ark","type":"address","internalType":"address"}],"outputs":[],"stateMutability":"nonpayable"},{"type":"function","name":"setArkDepositCap","inputs":[{"name":"ark","type":"address","internalType":"address"},{"name":"newDepositCap","type":"uint256","internalType":"uint256"}],"outputs":[],"stateMutability":"nonpayable"},{"type":"function","name":"setArkMaxDepositPercentageOfTVL","inputs":[{"name":"ark","type":"address","internalType":"address"},{"name":"newMaxDepositPercentageOfTVL","type":"uint256","internalType":"Percentage"}],"outputs":[],"stateMutability":"nonpayable"},{"type":"function","name":"setArkMaxRebalanceInflow","inputs":[{"name":"ark","type":"address","internalType":"address"},{"name":"newMaxRebalanceInflow","type":"uint256","internalType":"uint256"}],"outputs":[],"stateMutability":"nonpayable"},{"type":"function","name":"setArkMaxRebalanceOutflow","inputs":[{"name":"ark","type":"address","internalType":"address"},{"name":"newMaxRebalanceOutflow","type":"uint256","internalType":"uint256"}],"outputs":[],"stateMutability":"nonpayable"},{"type":"function","name":"setFleetDepositCap","inputs":[{"name":"newCap","type":"uint256","internalType":"uint256"}],"outputs":[],"stateMutability":"nonpayable"},{"type":"function","name":"setMaxRebalanceOperations","inputs":[{"name":"newMaxRebalanceOperations","type":"uint256","internalType":"uint256"}],"outputs":[],"stateMutability":"nonpayable"},{"type":"function","name":"setMinimumBufferBalance","inputs":[{"name":"newMinimumBalance","type":"uint256","internalType":"uint256"}],"outputs":[],"stateMutability":"nonpayable"},{"type":"function","name":"setStakingRewardsManager","inputs":[{"name":"newStakingRewardsManager","type":"address","internalType":"address"}],"outputs":[],"stateMutability":"nonpayable"},{"type":"event","name":"ArkAdded","inputs":[{"name":"ark","type":"address","indexed":true,"internalType":"address"}],"anonymous":false},{"type":"event","name":"ArkRemoved","inputs":[{"name":"ark","type":"address","indexed":true,"internalType":"address"}],"anonymous":false},{"type":"event","name":"FleetCommanderDepositCapUpdated","inputs":[{"name":"newCap","type":"uint256","indexed":false,"internalType":"uint256"}],"anonymous":false},{"type":"event","name":"FleetCommanderMaxRebalanceOperationsUpdated","inputs":[{"name":"newMaxRebalanceOperations","type":"uint256","indexed":false,"internalType":"uint256"}],"anonymous":false},{"type":"event","name":"FleetCommanderStakingRewardsUpdated","inputs":[{"name":"newStakingRewards","type":"address","indexed":false,"internalType":"address"}],"anonymous":false},{"type":"event","name":"FleetCommanderminimumBufferBalanceUpdated","inputs":[{"name":"newBalance","type":"uint256","indexed":false,"internalType":"uint256"}],"anonymous":false},{"type":"event","name":"MinimumPauseTimeUpdated","inputs":[{"name":"newMinimumPauseTime","type":"uint256","indexed":false,"internalType":"uint256"}],"anonymous":false},{"type":"event","name":"Paused","inputs":[{"name":"account","type":"address","indexed":false,"internalType":"address"}],"anonymous":false},{"type":"event","name":"Unpaused","inputs":[{"name":"account","type":"address","indexed":false,"internalType":"address"}],"anonymous":false},{"type":"error","name":"CallerIsNotAdmin","inputs":[{"name":"caller","type":"address","internalType":"address"}]},{"type":"error","name":"CallerIsNotAuthorizedToBoard","inputs":[{"name":"caller","type":"address","internalType":"address"}]},{"type":"error","name":"CallerIsNotCommander","inputs":[{"name":"caller","type":"address","internalType":"address"}]},{"type":"error","name":"CallerIsNotContractSpecificRole","inputs":[{"name":"caller","type":"address","internalType":"address"},{"name":"role","type":"bytes32","internalType":"bytes32"}]},{"type":"error","name":"CallerIsNotCurator","inputs":[{"name":"caller","type":"address","internalType":"address"}]},{"type":"error","name":"CallerIsNotGovernor","inputs":[{"name":"caller","type":"address","internalType":"address"}]},{"type":"error","name":"CallerIsNotGuardian","inputs":[{"name":"caller","type":"address","internalType":"address"}]},{"type":"error","name":"CallerIsNotGuardianOrGovernor","inputs":[{"name":"caller","type":"address","internalType":"address"}]},{"type":"error","name":"CallerIsNotKeeper","inputs":[{"name":"caller","type":"address","internalType":"address"}]},{"type":"error","name":"CallerIsNotRaft","inputs":[{"name":"caller","type":"address","internalType":"address"}]},{"type":"error","name":"CallerIsNotRaftOrCommander","inputs":[{"name":"caller","type":"address","internalType":"address"}]},{"type":"error","name":"CallerIsNotSuperKeeper","inputs":[{"name":"caller","type":"address","internalType":"address"}]},{"type":"error","name":"DirectGrantIsDisabled","inputs":[{"name":"caller","type":"address","internalType":"address"}]},{"type":"error","name":"DirectRevokeIsDisabled","inputs":[{"name":"caller","type":"address","internalType":"address"}]},{"type":"error","name":"EnforcedPause","inputs":[]},{"type":"error","name":"ExpectedPause","inputs":[]},{"type":"error","name":"FleetCommanderArkAlreadyExists","inputs":[{"name":"ark","type":"address","internalType":"address"}]},{"type":"error","name":"FleetCommanderArkAlreadyHasCommander","inputs":[]},{"type":"error","name":"FleetCommanderArkAssetsNotZero","inputs":[{"name":"ark","type":"address","internalType":"address"}]},{"type":"error","name":"FleetCommanderArkDepositCapGreaterThanZero","inputs":[{"name":"ark","type":"address","internalType":"address"}]},{"type":"error","name":"FleetCommanderArkNotFound","inputs":[{"name":"ark","type":"address","internalType":"address"}]},{"type":"error","name":"FleetCommanderInvalidArkAddress","inputs":[]},{"type":"error","name":"FleetCommanderInvalidStakingRewardsManager","inputs":[]},{"type":"error","name":"FleetCommanderPausableMinimumPauseTimeNotElapsed","inputs":[]},{"type":"error","name":"InvalidAccessManagerAddress","inputs":[{"name":"invalidAddress","type":"address","internalType":"address"}]}],"bytecode":{"object":"0x608060405234801561000f575f5ffd5b50604051617dfe380380617dfe83398101604081905261002e916103d6565b60608101516201fa40906001600160a01b038116610066576040516347bd7c1d60e01b81525f60048201526024015b60405180910390fd5b6040516301ffc9a760e01b815263fe1a291f60e01b60048201526001600160a01b038216906301ffc9a790602401602060405180830381865afa1580156100af573d5f5f3e3d5ffd5b505050506040513d601f19601f820116820180604052508101906100d391906104c9565b6100fb576040516347bd7c1d60e01b81526001600160a01b038216600482015260240161005d565b5f80546001600160a81b0319166001600160a01b039283161781556001929092556040805161016081018252600961012082019081526842756666657241726b60b81b61014083015281526060808601518416602083015285830151841692820192909252608080860151909316918101919091525f1991810182905260a0810182905260c081019190915260e08101829052610100810161019f6012600a6105e8565b6101aa9060646105f3565b815250306040516101ba906102db565b6101c5929190610638565b604051809103905ff0801580156101de573d5f5f3e3d5ffd5b5090506102b46040518060a00160405280836001600160a01b031681526020018460a0015181526020018460e001518152602001600a815260200184606001513060405161022b906102e8565b6001600160a01b03928316815291166020820152604001604051809103905ff08015801561025b573d5f5f3e3d5ffd5b506001600160a01b031690528051600380546001600160a01b03199081166001600160a01b0393841617909155602083015160045560408301516005556060830151600655608090920151600780549093169116179055565b6001600160a01b03165f908152600a60205260409020805460ff19166001179055506106f2565b61265680613cfb83390190565b611aad8061635183390190565b634e487b7160e01b5f52604160045260245ffd5b60405161012081016001600160401b038111828210171561032c5761032c6102f5565b60405290565b5f82601f830112610341575f5ffd5b81516001600160401b0381111561035a5761035a6102f5565b604051601f8201601f19908116603f011681016001600160401b0381118282101715610388576103886102f5565b60405281815283820160200185101561039f575f5ffd5b8160208501602083015e5f918101602001919091529392505050565b80516001600160a01b03811681146103d1575f5ffd5b919050565b5f602082840312156103e6575f5ffd5b81516001600160401b038111156103fb575f5ffd5b8201610120818503121561040d575f5ffd5b610415610309565b81516001600160401b0381111561042a575f5ffd5b61043686828501610332565b82525060208201516001600160401b03811115610451575f5ffd5b61045d86828501610332565b60208301525061046f604083016103bb565b6040820152610480606083016103bb565b6060820152610491608083016103bb565b608082015260a0828101519082015260c0808301519082015260e0808301519082015261010091820151918101919091529392505050565b5f602082840312156104d9575f5ffd5b815180151581146104e8575f5ffd5b9392505050565b634e487b7160e01b5f52601160045260245ffd5b6001815b600184111561053e57808504811115610522576105226104ef565b600184161561053057908102905b60019390931c928002610507565b935093915050565b5f82610554575060016105e2565b8161056057505f6105e2565b816001811461057657600281146105805761059c565b60019150506105e2565b60ff841115610591576105916104ef565b50506001821b6105e2565b5060208310610133831016604e8410600b84101617156105bf575081810a6105e2565b6105cb5f198484610503565b805f19048211156105de576105de6104ef565b0290505b92915050565b5f6104e88383610546565b80820281158282048414176105e2576105e26104ef565b5f81518084528060208401602086015e5f602082860101526020601f19601f83011685010191505092915050565b604081525f8351610120604084015261065561016084018261060a565b9050602085015161067160608501826001600160a01b03169052565b5060408501516001600160a01b03811660808501525060608501516001600160a01b03811660a085015250608085015160c084015260a085015160e084015260c085015161010084015260e08501516106cf61012085018215159052565b506101008501516101408401526001600160a01b038416602084015290506104e8565b6135fc806106ff5f395ff3fe608060405234801561000f575f5ffd5b5060043610610153575f3560e01c8063a0506f0b116100bf578063d45a07a111610079578063d45a07a11461034e578063d902d41a14610361578063e37d5b7f14610374578063f1cd665b14610387578063f3ba553e1461039c578063ff32a42a146103af575f5ffd5b8063a0506f0b14610295578063b637766c1461029f578063c3f909d4146102b2578063c8169aa114610303578063cc5b1e5514610328578063d25dd1011461033b575f5ffd5b80635ed975e5116101105780635ed975e5146101ed578063680e57ab1461020357806369b3054b1461020c57806379502c551461021f57806394d7eaa41461027957806396c25a3814610282575f5ffd5b8063133ab57914610157578063340505601461016c5780634daecb9c1461017f5780635340c012146101925780635c975abb146101c95780635e5a9ea9146101da575b5f5ffd5b61016a6101653660046116fd565b6103c2565b005b61016a61017a366004611728565b6104ab565b61016a61018d3660046116fd565b6105e2565b6101b46101a0366004611752565b600a6020525f908152604090205460ff1681565b60405190151581526020015b60405180910390f35b5f54600160a01b900460ff166101b4565b61016a6101e8366004611752565b6106bf565b6101f5600a81565b6040519081526020016101c0565b6101f560015481565b6101f561021a36600461176d565b610829565b600354600454600554600654600754610245946001600160a01b03908116949392911685565b604080516001600160a01b03968716815260208101959095528401929092526060830152909116608082015260a0016101c0565b6101f560025481565b61016a610290366004611752565b61085c565b6101f56201fa4081565b61016a6102ad366004611728565b610966565b6102ba610a6f565b6040516101c0919081516001600160a01b039081168252602080840151908301526040808401519083015260608084015190830152608092830151169181019190915260a00190565b6003546001600160a01b03165b6040516001600160a01b0390911681526020016101c0565b61016a6103363660046117a7565b610af1565b6101b4610349366004611752565b610c35565b61016a61035c366004611728565b610c5c565b61016a61036f3660046116fd565b610d65565b61016a610382366004611752565b610e42565b61038f610f49565b6040516101c09190611818565b61016a6103aa366004611728565b610f5a565b6103106103bd3660046116fd565b611063565b5f80546001600160a01b0316906391d14854906103df9030610829565b6040516001600160e01b031960e084901b1681526004810191909152336024820152604401602060405180830381865afa15801561041f573d5f5f3e3d5ffd5b505050506040513d601f19601f820116820180604052508101906104439190611877565b610467576040516363b52ed760e11b81523360048201526024015b60405180910390fd5b61046f61106f565b60068190556040518181527f4f4bedc5354096786a0fb857b12fdd6488cc973b2348cedb78088bdceaa906b5906020015b60405180910390a150565b5f80546001600160a01b0316906391d14854906104c89030610829565b6040516001600160e01b031960e084901b1681526004810191909152336024820152604401602060405180830381865afa158015610508573d5f5f3e3d5ffd5b505050506040513d601f19601f8201168201806040525081019061052c9190611877565b61054b576040516363b52ed760e11b815233600482015260240161045e565b8161055760088261109b565b61057f57604051632767039f60e01b81526001600160a01b038216600482015260240161045e565b61058761106f565b604051638665120360e01b8152600481018390526001600160a01b038416906386651203906024015b5f604051808303815f87803b1580156105c7575f5ffd5b505af11580156105d9573d5f5f3e3d5ffd5b50505050505050565b5f80546001600160a01b0316906391d14854906105ff9030610829565b6040516001600160e01b031960e084901b1681526004810191909152336024820152604401602060405180830381865afa15801561063f573d5f5f3e3d5ffd5b505050506040513d601f19601f820116820180604052508101906106639190611877565b610682576040516363b52ed760e11b815233600482015260240161045e565b61068a61106f565b60048190556040518181527f3ba130ec8df44f0a71243af1b7f9f4239616bafda97ae766b3c40a9d202b21a4906020016104a0565b5f80546001600160a01b0316906391d14854906106dc9030610829565b6040516001600160e01b031960e084901b1681526004810191909152336024820152604401602060405180830381865afa15801561071c573d5f5f3e3d5ffd5b505050506040513d601f19601f820116820180604052508101906107409190611877565b61075f576040516363b52ed760e11b815233600482015260240161045e565b61076761106f565b6001600160a01b03811661078e5760405163a0394e6160e01b815260040160405180910390fd5b5f546040516001600160a01b039091169030906107aa906116f0565b6001600160a01b03928316815291166020820152604001604051809103905ff0801580156107da573d5f5f3e3d5ffd5b50600780546001600160a01b0319166001600160a01b0392831617905560405190821681527f8f407169a2fff9de40408b8d482b293eff9e2dbc448da0593fa9a39d428a4104906020016104a0565b5f828260405160200161083d929190611890565b6040516020818303038152906040528051906020012090505b92915050565b5f5460408051630ccc574960e41b815290516001600160a01b03909216916391d1485491839163ccc57490916004808201926020929091908290030181865afa1580156108ab573d5f5f3e3d5ffd5b505050506040513d601f19601f820116820180604052508101906108cf91906118d3565b6040516001600160e01b031960e084901b1681526004810191909152336024820152604401602060405180830381865afa15801561090f573d5f5f3e3d5ffd5b505050506040513d601f19601f820116820180604052508101906109339190611877565b61095257604051630ea7d7ed60e21b815233600482015260240161045e565b61095a61106f565b610963816110bf565b50565b5f80546001600160a01b0316906391d14854906109839030610829565b6040516001600160e01b031960e084901b1681526004810191909152336024820152604401602060405180830381865afa1580156109c3573d5f5f3e3d5ffd5b505050506040513d601f19601f820116820180604052508101906109e79190611877565b610a06576040516363b52ed760e11b815233600482015260240161045e565b81610a1260088261109b565b610a3a57604051632767039f60e01b81526001600160a01b038216600482015260240161045e565b610a4261106f565b6040516361f5cd8b60e01b8152600481018390526001600160a01b038416906361f5cd8b906024016105b0565b610aae6040518060a001604052805f6001600160a01b031681526020015f81526020015f81526020015f81526020015f6001600160a01b031681525090565b506040805160a0810182526003546001600160a01b0390811682526004546020830152600554928201929092526006546060820152600754909116608082015290565b5f5460408051630ccc574960e41b815290516001600160a01b03909216916391d1485491839163ccc57490916004808201926020929091908290030181865afa158015610b40573d5f5f3e3d5ffd5b505050506040513d601f19601f82011682018060405250810190610b6491906118d3565b6040516001600160e01b031960e084901b1681526004810191909152336024820152604401602060405180830381865afa158015610ba4573d5f5f3e3d5ffd5b505050506040513d601f19601f82011682018060405250810190610bc89190611877565b610be757604051630ea7d7ed60e21b815233600482015260240161045e565b610bef61106f565b5f5b81811015610c3057610c28838383818110610c0e57610c0e6118ea565b9050602002016020810190610c239190611752565b6111e8565b600101610bf1565b505050565b5f610c4160088361109b565b806108565750506003546001600160a01b0390811691161490565b5f80546001600160a01b0316906391d1485490610c799030610829565b6040516001600160e01b031960e084901b1681526004810191909152336024820152604401602060405180830381865afa158015610cb9573d5f5f3e3d5ffd5b505050506040513d601f19601f82011682018060405250810190610cdd9190611877565b610cfc576040516363b52ed760e11b815233600482015260240161045e565b81610d0860088261109b565b610d3057604051632767039f60e01b81526001600160a01b038216600482015260240161045e565b610d3861106f565b60405163497af41960e11b8152600481018390526001600160a01b038416906392f5e832906024016105b0565b5f80546001600160a01b0316906391d1485490610d829030610829565b6040516001600160e01b031960e084901b1681526004810191909152336024820152604401602060405180830381865afa158015610dc2573d5f5f3e3d5ffd5b505050506040513d601f19601f82011682018060405250810190610de69190611877565b610e05576040516363b52ed760e11b815233600482015260240161045e565b610e0d61106f565b60058190556040518181527f4faeac5aec9fa2e6f82ae7ccfef27a03ca3ff9d8c5356fea9acb2caad1c4c344906020016104a0565b5f5460408051630ccc574960e41b815290516001600160a01b03909216916391d1485491839163ccc57490916004808201926020929091908290030181865afa158015610e91573d5f5f3e3d5ffd5b505050506040513d601f19601f82011682018060405250810190610eb591906118d3565b6040516001600160e01b031960e084901b1681526004810191909152336024820152604401602060405180830381865afa158015610ef5573d5f5f3e3d5ffd5b505050506040513d601f19601f82011682018060405250810190610f199190611877565b610f3857604051630ea7d7ed60e21b815233600482015260240161045e565b610f4061106f565b610963816111e8565b6060610f5560086113e7565b905090565b5f80546001600160a01b0316906391d1485490610f779030610829565b6040516001600160e01b031960e084901b1681526004810191909152336024820152604401602060405180830381865afa158015610fb7573d5f5f3e3d5ffd5b505050506040513d601f19601f82011682018060405250810190610fdb9190611877565b610ffa576040516363b52ed760e11b815233600482015260240161045e565b8161100660088261109b565b61102e57604051632767039f60e01b81526001600160a01b038216600482015260240161045e565b61103661106f565b604051634fc7fac360e01b8152600481018390526001600160a01b03841690634fc7fac3906024016105b0565b5f6108566008836113f3565b5f54600160a01b900460ff16156110995760405163d93c066560e01b815260040160405180910390fd5b565b6001600160a01b0381165f90815260018301602052604081205415155b9392505050565b6110c881610c35565b6110f057604051632767039f60e01b81526001600160a01b038216600482015260240161045e565b6110f9816113fe565b61110460088261151a565b50806001600160a01b031663ebf311316040518163ffffffff1660e01b81526004015f604051808303815f87803b15801561113d575f5ffd5b505af115801561114f573d5f5f3e3d5ffd5b50505f5460405163d55dd62b60e01b81526001600160a01b03909116925063d55dd62b91506111859060029085906004016118fe565b5f604051808303815f87803b15801561119c575f5ffd5b505af11580156111ae573d5f5f3e3d5ffd5b50506040516001600160a01b03841692507f66d72a91b52f63fb063c4f672763d7ef15ce4d7c9a268a7f9b5133e41c1709a591505f90a250565b6001600160a01b03811661120f5760405163210e96cb60e01b815260040160405180910390fd5b61121881610c35565b1561124157604051637eadea0960e11b81526001600160a01b038216600482015260240161045e565b806001600160a01b031663303dbaf36040518163ffffffff1660e01b8152600401602060405180830381865afa15801561127d573d5f5f3e3d5ffd5b505050506040513d601f19601f820116820180604052508101906112a19190611877565b6001600160a01b0382165f818152600a6020526040808220805460ff191694159490941790935582516330fe427560e21b81529251909263c3f909d491600480830192869291908290030181865afa1580156112ff573d5f5f3e3d5ffd5b505050506040513d5f823e601f3d908101601f191682016040526113269190810190611a0a565b516001600160a01b03161461134e57604051631089e45f60e21b815260040160405180910390fd5b806001600160a01b0316638a8b99766040518163ffffffff1660e01b81526004015f604051808303815f87803b158015611386575f5ffd5b505af1158015611398573d5f5f3e3d5ffd5b505050506113b081600861152e90919063ffffffff16565b506040516001600160a01b038216907fcb4a29d359e86f179111dcba8714def1a859612f729f2d224d13efeac51b36bc905f90a250565b60605f6110b883611542565b5f6110b8838361159b565b5f8190505f816001600160a01b031663dbd5edc76040518163ffffffff1660e01b8152600401602060405180830381865afa15801561143f573d5f5f3e3d5ffd5b505050506040513d601f19601f8201168201806040525081019061146391906118d3565b111561148d57604051632a4d8fbb60e01b81526001600160a01b038316600482015260240161045e565b806001600160a01b03166301e1d1146040518163ffffffff1660e01b8152600401602060405180830381865afa1580156114c9573d5f5f3e3d5ffd5b505050506040513d601f19601f820116820180604052508101906114ed91906118d3565b156115165760405163ca4a18b360e01b81526001600160a01b038316600482015260240161045e565b5050565b5f6110b8836001600160a01b0384166115c1565b5f6110b8836001600160a01b0384166116a4565b6060815f0180548060200260200160405190810160405280929190818152602001828054801561158f57602002820191905f5260205f20905b81548152602001906001019080831161157b575b50505050509050919050565b5f825f0182815481106115b0576115b06118ea565b905f5260205f200154905092915050565b5f818152600183016020526040812054801561169b575f6115e3600183611ae6565b85549091505f906115f690600190611ae6565b9050808214611655575f865f018281548110611614576116146118ea565b905f5260205f200154905080875f018481548110611634576116346118ea565b5f918252602080832090910192909255918252600188019052604090208390555b855486908061166657611666611b05565b600190038181905f5260205f20015f90559055856001015f8681526020019081526020015f205f905560019350505050610856565b5f915050610856565b5f8181526001830160205260408120546116e957508154600181810184555f848152602080822090930184905584548482528286019093526040902091909155610856565b505f610856565b611aad80611b1a83390190565b5f6020828403121561170d575f5ffd5b5035919050565b6001600160a01b0381168114610963575f5ffd5b5f5f60408385031215611739575f5ffd5b823561174481611714565b946020939093013593505050565b5f60208284031215611762575f5ffd5b81356110b881611714565b5f5f6040838503121561177e575f5ffd5b82356003811061178c575f5ffd5b9150602083013561179c81611714565b809150509250929050565b5f5f602083850312156117b8575f5ffd5b823567ffffffffffffffff8111156117ce575f5ffd5b8301601f810185136117de575f5ffd5b803567ffffffffffffffff8111156117f4575f5ffd5b8560208260051b8401011115611808575f5ffd5b6020919091019590945092505050565b602080825282518282018190525f918401906040840190835b818110156118585783516001600160a01b0316835260209384019390920191600101611831565b509095945050505050565b80518015158114611872575f5ffd5b919050565b5f60208284031215611887575f5ffd5b6110b882611863565b5f600384106118ad57634e487b7160e01b5f52602160045260245ffd5b5060f89290921b825260601b6bffffffffffffffffffffffff1916600182015260150190565b5f602082840312156118e3575f5ffd5b5051919050565b634e487b7160e01b5f52603260045260245ffd5b604081016003841061191e57634e487b7160e01b5f52602160045260245ffd5b9281526001600160a01b039190911660209091015290565b634e487b7160e01b5f52604160045260245ffd5b604051610120810167ffffffffffffffff8111828210171561196e5761196e611936565b60405290565b805161187281611714565b5f82601f83011261198e575f5ffd5b815167ffffffffffffffff8111156119a8576119a8611936565b604051601f8201601f19908116603f0116810167ffffffffffffffff811182821017156119d7576119d7611936565b6040528181528382016020018510156119ee575f5ffd5b8160208501602083015e5f918101602001919091529392505050565b5f60208284031215611a1a575f5ffd5b815167ffffffffffffffff811115611a30575f5ffd5b82016101208185031215611a42575f5ffd5b611a4a61194a565b611a5382611974565b8152611a6160208301611974565b6020820152611a7260408301611974565b6040820152606082810151908201526080808301519082015260a0808301519082015260c082015167ffffffffffffffff811115611aae575f5ffd5b611aba8682850161197f565b60c083015250611acc60e08301611863565b60e082015261010091820151918101919091529392505050565b8181038181111561085657634e487b7160e01b5f52601160045260245ffd5b634e487b7160e01b5f52603160045260245ffdfe608060405234801561000f575f5ffd5b50604051611aad380380611aad83398101604081905261002e916101a0565b81806001600160a01b03811661005e576040516347bd7c1d60e01b81525f60048201526024015b60405180910390fd5b6040516301ffc9a760e01b815263fe1a291f60e01b60048201526001600160a01b038216906301ffc9a790602401602060405180830381865afa1580156100a7573d5f5f3e3d5ffd5b505050506040513d601f19601f820116820180604052508101906100cb91906101d1565b6100f3576040516347bd7c1d60e01b81526001600160a01b0382166004820152602401610055565b5f80546001600160a01b039283166001600160a01b03199182161790915560098054928516929091168217905561012a9150610131565b50506101f7565b600380546001600160a01b0319166001600160a01b0383169081179091556040519081527ffbed9b88bd11cf6ebffbe6fe489ac5bf7a88b31de62cf9bbc5e63e6eb01760039060200160405180910390a150565b80516001600160a01b038116811461019b575f5ffd5b919050565b5f5f604083850312156101b1575f5ffd5b6101ba83610185565b91506101c860208401610185565b90509250929050565b5f602082840312156101e1575f5ffd5b815180151581146101f0575f5ffd5b9392505050565b6118a9806102045f395ff3fe608060405234801561000f575f5ffd5b5060043610610132575f3560e01c80637035ab98116100b4578063a694fc3a11610079578063a694fc3a146102e9578063bcd11014146102fc578063e24bf4fe1461030f578063e70b9e2714610322578063e9fad8ee1461034c578063f122977714610354575f5ffd5b80637035ab981461024657806370a082311461027057806372f702f3146102985780637bb7bed1146102c3578063a3cd8ac4146102d6575f5ffd5b80633d509c97116100fa5780633d509c9714610195578063460b5ee2146101a857806348e5d9f8146101bb578063638634ee1461022057806369b3054b14610233575f5ffd5b806318160ddd14610136578063211dc32d146101525780632378bea6146101655780632e1a7d4d1461017a5780633d18b9121461018d575b5f5ffd5b61013f60075481565b6040519081526020015b60405180910390f35b61013f61016036600461167e565b610367565b6101786101733660046116b5565b6103ff565b005b6101786101883660046116df565b61057d565b610178610652565b6101786101a33660046116f6565b6107fd565b6101786101b63660046116b5565b610a68565b6101f86101c93660046116f6565b600460208190525f91825260409091208054600182015460028301546003840154939094015491939092909185565b604080519586526020860194909452928401919091526060830152608082015260a001610149565b61013f61022e3660046116f6565b610b40565b61013f610241366004611711565b610b82565b61013f61025436600461167e565b600560209081525f928352604080842090915290825290205481565b61013f61027e3660046116f6565b6001600160a01b03165f9081526008602052604090205490565b6003546102ab906001600160a01b031681565b6040516001600160a01b039091168152602001610149565b6102ab6102d13660046116df565b610bb4565b6101786102e4366004611730565b610bf1565b6101786102f73660046116df565b610fe3565b61013f61030a3660046116f6565b6110b5565b6009546102ab906001600160a01b031681565b61013f61033036600461167e565b600660209081525f928352604080842090915290825290205481565b6101786110e1565b61013f6103623660046116f6565b611101565b6001600160a01b038082165f818152600660209081526040808320948716808452948252808320549383526005825280832094835293905291822054670de0b6b3a7640000906103b685611101565b6103c09190611776565b6001600160a01b0386165f908152600860205260409020546103e29190611789565b6103ec91906117a0565b6103f691906117bf565b90505b92915050565b5f5460408051630ccc574960e41b815290516001600160a01b03909216916391d1485491839163ccc57490916004808201926020929091908290030181865afa15801561044e573d5f5f3e3d5ffd5b505050506040513d601f19601f8201168201806040525081019061047291906117d2565b6040516001600160e01b031960e084901b1681526004810191909152336024820152604401602060405180830381865afa1580156104b2573d5f5f3e3d5ffd5b505050506040513d601f19601f820116820180604052508101906104d691906117e9565b6104fa57604051630ea7d7ed60e21b81523360048201526024015b60405180910390fd5b6001600160a01b0382165f908152600460205260409020805442116105325760405163d9ba1add60e01b815260040160405180910390fd5b600281018290556040518281526001600160a01b038416907fad2f86b01ed93b4b3a150d448c61a4f5d8d38075d3c0c64cc0a26fd6e1f49545906020015b60405180910390a2505050565b335f61058960016111ae565b90505f5b81811015610643575f6105a16001836111b7565b6001600160a01b0381165f90815260046020526040902090915081906105c682611101565b60048201556105d482610b40565b60038201556001600160a01b03861615610638576105f28683610367565b6001600160a01b038084165f818152600660209081526040808320948c168084529482528083209590955560048601549282526005815284822093825292909252919020555b50505060010161058d565b5061064d836111c2565b505050565b61065a61126a565b335f61066660016111ae565b90505f5b81811015610720575f61067e6001836111b7565b6001600160a01b0381165f90815260046020526040902090915081906106a382611101565b60048201556106b182610b40565b60038201556001600160a01b03861615610715576106cf8683610367565b6001600160a01b038084165f818152600660209081526040808320948c168084529482528083209590955560048601549282526005815284822093825292909252919020555b50505060010161066a565b505f61072c60016111ae565b90505f5b818110156107ef575f6107446001836111b7565b6001600160a01b0381165f908152600660209081526040808320338452909152902054909150819080156107e4576001600160a01b0382165f8181526006602090815260408083203380855292528220919091556107a39190836112d7565b6040518181526001600160a01b0383169033907f540798df468d7b23d11f156fdb954cb19ad414d150722a7b6d55ba369dea792e9060200160405180910390a35b505050600101610730565b505050506107fb611336565b565b5f5460408051630ccc574960e41b815290516001600160a01b03909216916391d1485491839163ccc57490916004808201926020929091908290030181865afa15801561084c573d5f5f3e3d5ffd5b505050506040513d601f19601f8201168201806040525081019061087091906117d2565b6040516001600160e01b031960e084901b1681526004810191909152336024820152604401602060405180830381865afa1580156108b0573d5f5f3e3d5ffd5b505050506040513d601f19601f820116820180604052508101906108d491906117e9565b6108f357604051630ea7d7ed60e21b81523360048201526024016104f1565b6001600160a01b0381165f90815260046020526040812060020154900361092d5760405163064fed9960e31b815260040160405180910390fd5b6001600160a01b0381165f9081526004602052604090205442116109645760405163d9ba1add60e01b815260040160405180910390fd5b6040516370a0823160e01b81523060048201525f906001600160a01b038316906370a0823190602401602060405180830381865afa1580156109a8573d5f5f3e3d5ffd5b505050506040513d601f19601f820116820180604052508101906109cc91906117d2565b905080156109f057604051633007cea360e01b8152600481018290526024016104f1565b6109fb600183611360565b506001600160a01b0382165f81815260046020818152604080842084815560018101859055600281018590556003810185905590920192909255519182527f66257bcef574219c04f7c05f7a1c78d599da10491294c92a5805c48b4cdf5009910160405180910390a15050565b815f610a7460016111ae565b90505f5b81811015610b2e575f610a8c6001836111b7565b6001600160a01b0381165f9081526004602052604090209091508190610ab182611101565b6004820155610abf82610b40565b60038201556001600160a01b03861615610b2357610add8683610367565b6001600160a01b038084165f818152600660209081526040808320948c168084529482528083209590955560048601549282526005815284822093825292909252919020555b505050600101610a78565b50610b3a338585611374565b50505050565b6001600160a01b0381165f908152600460205260408120544210610b7b576001600160a01b0382165f908152600460205260409020546103f9565b4292915050565b5f8282604051602001610b96929190611808565b60405160208183030381529060405280519060200120905092915050565b5f610bbf60016111ae565b8210610bde57604051634e23d03560e01b815260040160405180910390fd5b5f610bea6001846111b7565b9392505050565b5f5460408051630ccc574960e41b815290516001600160a01b03909216916391d1485491839163ccc57490916004808201926020929091908290030181865afa158015610c40573d5f5f3e3d5ffd5b505050506040513d601f19601f82011682018060405250810190610c6491906117d2565b6040516001600160e01b031960e084901b1681526004810191909152336024820152604401602060405180830381865afa158015610ca4573d5f5f3e3d5ffd5b505050506040513d601f19601f82011682018060405250810190610cc891906117e9565b610ce757604051630ea7d7ed60e21b81523360048201526024016104f1565b5f5f610cf360016111ae565b90505f5b81811015610dad575f610d0b6001836111b7565b6001600160a01b0381165f9081526004602052604090209091508190610d3082611101565b6004820155610d3e82610b40565b60038201556001600160a01b03861615610da257610d5c8683610367565b6001600160a01b038084165f818152600660209081526040808320948c168084529482528083209590955560048601549282526005815284822093825292909252919020555b505050600101610cf7565b506001600160a01b0385165f9081526004602052604081206002810154909103610e4e57835f03610df45760405160016203036160e11b0319815260040160405180910390fd5b610dff600187611452565b5060028101849055604080516001600160a01b0388168152602081018690527f68e3e9397770d9dfa88c0953a34e1a70a05416b3895957f5b689787a920791c4910160405180910390a1610e7f565b5f84118015610e61575080600201548414155b15610e7f576040516333fec8c760e21b815260040160405180910390fd5b80544210610ea0576002810154610e9690866117a0565b6001820155610ee6565b80545f90610eaf904290611776565b90505f826001015482610ec29190611789565b6002840154909150610ed482896117bf565b610ede91906117a0565b600184015550505b6040516370a0823160e01b81523060048201525f906001600160a01b038816906370a0823190602401602060405180830381865afa158015610f2a573d5f5f3e3d5ffd5b505050506040513d601f19601f82011682018060405250810190610f4e91906117d2565b9050816002015481610f6091906117a0565b82600101541115610f845760405163010ee96f60e31b815260040160405180910390fd5b42600383018190556002830154610f9a916117bf565b82556040518681526001600160a01b038816907fac24935fd910bc682b5ccb1a07b718cadf8cf2f6d1404c4f3ddc3662dae40e299060200160405180910390a250505050505050565b335f610fef60016111ae565b90505f5b818110156110a9575f6110076001836111b7565b6001600160a01b0381165f908152600460205260409020909150819061102c82611101565b600482015561103a82610b40565b60038201556001600160a01b0386161561109e576110588683610367565b6001600160a01b038084165f818152600660209081526040808320948c168084529482528083209590955560048601549282526005815284822093825292909252919020555b505050600101610ff3565b5061064d333385611374565b6001600160a01b0381165f90815260046020526040812060028101546001909101546103f99190611789565b6110e9610652565b335f908152600860205260409020546107fb906111c2565b5f6007545f0361112a57506001600160a01b03165f908152600460208190526040909120015490565b6007546001600160a01b0383165f908152600460205260409020600181015460039091015461115885610b40565b6111629190611776565b61116c9190611789565b61117e90670de0b6b3a7640000611789565b61118891906117a0565b6001600160a01b0383165f90815260046020819052604090912001546103f991906117bf565b5f6103f9825490565b5f6103f68383611466565b805f036111e25760405163061bb89b60e51b815260040160405180910390fd5b8060075f8282546111f39190611776565b9091555050335f9081526008602052604081208054839290611216908490611776565b9091555050600354611232906001600160a01b031633836112d7565b60405181815233907f7084f5476618d8e60b11ef0d7d3f06914655adb8793e28ff7f018d4c76d505d59060200160405180910390a250565b7f9b779b17422d0df92223018b32b4d1fa46e071723d6817e2486d003becc55f005c156112aa57604051633ee5aeb560e01b815260040160405180910390fd5b6107fb60017f9b779b17422d0df92223018b32b4d1fa46e071723d6817e2486d003becc55f005b9061148c565b6040516001600160a01b0383811660248301526044820183905261064d91859182169063a9059cbb906064015b604051602081830303815290604052915060e01b6020820180516001600160e01b038381831617835250505050611493565b6107fb5f7f9b779b17422d0df92223018b32b4d1fa46e071723d6817e2486d003becc55f006112d1565b5f6103f6836001600160a01b0384166114ff565b805f0361139457604051636a76ff9f60e01b815260040160405180910390fd5b6003546001600160a01b03166113bd5760405163417198d360e01b815260040160405180910390fd5b8060075f8282546113ce91906117bf565b90915550506001600160a01b0382165f90815260086020526040812080548392906113fa9084906117bf565b9091555050600354611417906001600160a01b03168430846115e2565b816001600160a01b03167f9e71bc8eea02a63969f509818f2dafb9254532904319f9dbda79b67bd34a5f3d8260405161057091815260200190565b5f6103f6836001600160a01b03841661161b565b5f825f01828154811061147b5761147b61184b565b905f5260205f200154905092915050565b80825d5050565b5f5f60205f8451602086015f885af1806114b2576040513d5f823e3d81fd5b50505f513d915081156114c95780600114156114d6565b6001600160a01b0384163b155b15610b3a57604051635274afe760e01b81526001600160a01b03851660048201526024016104f1565b5f81815260018301602052604081205480156115d9575f611521600183611776565b85549091505f9061153490600190611776565b9050808214611593575f865f0182815481106115525761155261184b565b905f5260205f200154905080875f0184815481106115725761157261184b565b5f918252602080832090910192909255918252600188019052604090208390555b85548690806115a4576115a461185f565b600190038181905f5260205f20015f90559055856001015f8681526020019081526020015f205f9055600193505050506103f9565b5f9150506103f9565b6040516001600160a01b038481166024830152838116604483015260648201839052610b3a9186918216906323b872dd90608401611304565b5f81815260018301602052604081205461166057508154600181810184555f8481526020808220909301849055845484825282860190935260409020919091556103f9565b505f6103f9565b6001600160a01b038116811461167b575f5ffd5b50565b5f5f6040838503121561168f575f5ffd5b823561169a81611667565b915060208301356116aa81611667565b809150509250929050565b5f5f604083850312156116c6575f5ffd5b82356116d181611667565b946020939093013593505050565b5f602082840312156116ef575f5ffd5b5035919050565b5f60208284031215611706575f5ffd5b8135610bea81611667565b5f5f60408385031215611722575f5ffd5b82356003811061169a575f5ffd5b5f5f5f60608486031215611742575f5ffd5b833561174d81611667565b95602085013595506040909401359392505050565b634e487b7160e01b5f52601160045260245ffd5b818103818111156103f9576103f9611762565b80820281158282048414176103f9576103f9611762565b5f826117ba57634e487b7160e01b5f52601260045260245ffd5b500490565b808201808211156103f9576103f9611762565b5f602082840312156117e2575f5ffd5b5051919050565b5f602082840312156117f9575f5ffd5b81518015158114610bea575f5ffd5b5f6003841061182557634e487b7160e01b5f52602160045260245ffd5b5060f89290921b825260601b6bffffffffffffffffffffffff1916600182015260150190565b634e487b7160e01b5f52603260045260245ffd5b634e487b7160e01b5f52603160045260245ffdfea2646970667358221220b973fa74d37cba50823d2585d23ab0df5d2bd01a5ca059a79d63645e6030929b64736f6c634300081c0033a2646970667358221220863b7790f125c88e3d7c37a4bdccd7caece5e7926b4730df7d4c21a705a36f2d64736f6c634300081c003360a060405234801561000f575f5ffd5b5060405161265638038061265683398101604081905261002e91610474565b6040820151602083015183918291806001600160a01b03811661006b576040516347bd7c1d60e01b81525f60048201526024015b60405180910390fd5b6040516301ffc9a760e01b815263fe1a291f60e01b60048201526001600160a01b038216906301ffc9a790602401602060405180830381865afa1580156100b4573d5f5f3e3d5ffd5b505050506040513d601f19601f820116820180604052508101906100d8919061055f565b610100576040516347bd7c1d60e01b81526001600160a01b0382166004820152602401610062565b5f80546001600160a01b0319166001600160a01b039283161790558216905061013c5760405163f1634df960e01b815260040160405180910390fd5b6001600160a01b0390811660805260408201511661016d5760405163b53c493160e01b815260040160405180910390fd5b60608101516001600160a01b031661019b576040516001620a810f60e11b0319815260040160405180910390fd5b8051515f036101bd5760405163268c072960e01b815260040160405180910390fd5b5f6101c661031c565b6001600160a01b0316036101ed57604051633a4f9cdb60e21b815260040160405180910390fd5b6040805161012081019091525f81526020810161020861031c565b6001600160a01b039081168252606080850151821660208085019190915260808087015160408087019190915260a0808901518588015260c0808a01518489015289518289015260e0808b01511515828a01526101008b01519801979097528751600180549188166001600160a01b03199283161781559489015160028054918916918316919091179055918801516003805491909716921691909117909455918501516004559084015160055590830151600655908201516007906102ce9082610603565b5060e082015160078201805460ff1916911515919091179055610100909101516008909101555050600180546001600160a01b0319166001600160a01b0392909216919091179055506106d6565b5f6080516001600160a01b031663117d8ae06040518163ffffffff1660e01b8152600401602060405180830381865afa15801561035b573d5f5f3e3d5ffd5b505050506040513d601f19601f8201168201806040525081019061037f91906106bd565b905090565b634e487b7160e01b5f52604160045260245ffd5b60405161012081016001600160401b03811182821017156103bb576103bb610384565b60405290565b5f82601f8301126103d0575f5ffd5b81516001600160401b038111156103e9576103e9610384565b604051601f8201601f19908116603f011681016001600160401b038111828210171561041757610417610384565b60405281815283820160200185101561042e575f5ffd5b8160208501602083015e5f918101602001919091529392505050565b80516001600160a01b0381168114610460575f5ffd5b919050565b80518015158114610460575f5ffd5b5f5f60408385031215610485575f5ffd5b82516001600160401b0381111561049a575f5ffd5b830161012081860312156104ac575f5ffd5b6104b4610398565b81516001600160401b038111156104c9575f5ffd5b6104d5878285016103c1565b8252506104e46020830161044a565b60208201526104f56040830161044a565b60408201526105066060830161044a565b60608201526080828101519082015260a0808301519082015260c0808301519082015261053560e08301610465565b60e0820152610100918201519181019190915291506105566020840161044a565b90509250929050565b5f6020828403121561056f575f5ffd5b61057882610465565b9392505050565b600181811c9082168061059357607f821691505b6020821081036105b157634e487b7160e01b5f52602260045260245ffd5b50919050565b601f8211156105fe57805f5260205f20601f840160051c810160208510156105dc5750805b601f840160051c820191505b818110156105fb575f81556001016105e8565b50505b505050565b81516001600160401b0381111561061c5761061c610384565b6106308161062a845461057f565b846105b7565b6020601f821160018114610662575f831561064b5750848201515b5f19600385901b1c1916600184901b1784556105fb565b5f84815260208120601f198516915b828110156106915787850151825560209485019460019092019101610671565b50848210156106ae57868401515f19600387901b60f8161c191681555b50505050600190811b01905550565b5f602082840312156106cd575f5ffd5b6105788261044a565b608051611f4c61070a5f395f8181610360015281816104bb01528181610853015281816108b00152610fe70152611f4c5ff3fe608060405234801561000f575f5ffd5b50600436106101bb575f3560e01c806379502c55116100f3578063c38a6f0b11610093578063ce5c7f611161006e578063ce5c7f6114610382578063dbd5edc714610395578063ebf311311461039d578063fc0c546a146103a5575f5ffd5b8063c38a6f0b14610333578063c3f909d414610346578063c9c667e31461035b575f5ffd5b80638a8b9976116100ce5780638a8b99761461030857806392f5e83214610310578063ad5a356f14610323578063bdcdd8821461032b575f5ffd5b806379502c55146102d05780637aaceb95146102ed57806386651203146102f5575f5ffd5b8063372709361161015e57806361d027b31161013957806361d027b31461028157806361f5cd8b1461028957806369b3054b1461029c578063780469bb146102af575f5ffd5b806337270936146102555780634fc7fac3146102665780635b0f83f314610279575f5ffd5b806313c408f81161019957806313c408f81461020f5780632db6d39914610224578063303dbaf3146102375780633194549e1461024d575f5ffd5b806301e1d114146101bf57806306fdde03146101da578063117d8ae0146101ef575b5f5ffd5b6101c76103b6565b6040519081526020015b60405180910390f35b6101e2610425565b6040516101d19190611896565b6101f76104b8565b6040516001600160a01b0390911681526020016101d1565b61022261021d3660046118ed565b610539565b005b6102226102323660046118ed565b6105f7565b60085460ff1660405190151581526020016101d1565b6005546101c7565b6001546001600160a01b03166101f7565b610222610274366004611935565b610802565b6101f7610850565b6101f76108ad565b610222610297366004611935565b61090a565b6101c76102aa366004611963565b610951565b6102c26102bd3660046119e2565b610983565b6040516101d1929190611a96565b6102d8610f19565b6040516101d199989796959493929190611b1f565b6101f7610fe4565b610222610303366004611935565b611041565b610222611088565b61022261031e366004611935565b6110e5565b6006546101c7565b6009546101c7565b610222610341366004611b81565b61112c565b61034e611272565b6040516101d19190611c0c565b6101f77f000000000000000000000000000000000000000000000000000000000000000081565b6102c2610390366004611cbd565b6113b7565b6004546101c7565b6102226114a9565b6003546001600160a01b03166101f7565b6003546040516370a0823160e01b81523060048201525f916001600160a01b0316906370a0823190602401602060405180830381865afa1580156103fc573d5f5f3e3d5ffd5b505050506040513d601f19601f820116820180604052508101906104209190611cfc565b905090565b60606001600601805461043790611d13565b80601f016020809104026020016040519081016040528092919081815260200182805461046390611d13565b80156104ae5780601f10610485576101008083540402835291602001916104ae565b820191905f5260205f20905b81548152906001019060200180831161049157829003601f168201915b5050505050905090565b5f7f00000000000000000000000000000000000000000000000000000000000000006001600160a01b031663117d8ae06040518163ffffffff1660e01b8152600401602060405180830381865afa158015610515573d5f5f3e3d5ffd5b505050506040513d601f19601f820116820180604052508101906104209190611d4b565b6105416114fb565b61057157335b604051631564c0e160e11b81526001600160a01b0390911660048201526024015b60405180910390fd5b610579611584565b818161058582826115f3565b3360035461059d906001600160a01b03168288611655565b600354604080516001600160a01b03928316815260208101899052918316917fd5e872c5ecfb1bb8820b2e6a20e31b883682282da886621541f71e31ec11947e910160405180910390a25050506105f26116b4565b505050565b6105ff611584565b306001600160a01b031663372709366040518163ffffffff1660e01b8152600401602060405180830381865afa15801561063b573d5f5f3e3d5ffd5b505050506040513d601f19601f8201168201806040525081019061065f9190611d4b565b6106676114fb565b610786575f3390505f306001600160a01b031663117d8ae06040518163ffffffff1660e01b8152600401602060405180830381865afa1580156106ac573d5f5f3e3d5ffd5b505050506040513d601f19601f820116820180604052508101906106d09190611d4b565b6001600160a01b0316826001600160a01b0316149050806107835760405163d25dd10160e01b81526001600160a01b0383811660048301525f919085169063d25dd10190602401602060405180830381865afa158015610732573d5f5f3e3d5ffd5b505050506040513d601f19601f820116820180604052508101906107569190611d66565b90508061078157604051638f7a567d60e01b81526001600160a01b0384166004820152602401610568565b505b50505b828261079282826115f3565b60035433906107ac906001600160a01b031682308a6116de565b600354604080516001600160a01b039283168152602081018a9052918316917fcbaa1442ac205415c9d69643e7b60ec73d1de35dbc807c21ec288c70ddc4207b910160405180910390a2505050506105f26116b4565b61080a6114fb565b6108145733610547565b60098190556040518181527fd3c6d0ab315f2f1352f036cd9f401b49e38e1b90907e195225e8105f9a0b6f02906020015b60405180910390a150565b5f7f00000000000000000000000000000000000000000000000000000000000000006001600160a01b0316635b0f83f36040518163ffffffff1660e01b8152600401602060405180830381865afa158015610515573d5f5f3e3d5ffd5b5f7f00000000000000000000000000000000000000000000000000000000000000006001600160a01b03166361d027b36040518163ffffffff1660e01b8152600401602060405180830381865afa158015610515573d5f5f3e3d5ffd5b6109126114fb565b61091c5733610547565b60058190556040518181527ffbe2d5c01ea8ba5596d6c4e6c82c6d4a0a0ee1128689993a4a5ba0169273d69f90602001610845565b5f8282604051602001610965929190611d85565b60405160208183030381529060405280519060200120905092915050565b606080306001600160a01b031663117d8ae06040518163ffffffff1660e01b8152600401602060405180830381865afa1580156109c2573d5f5f3e3d5ffd5b505050506040513d601f19601f820116820180604052508101906109e69190611d4b565b6001600160a01b0316336001600160a01b031614610a2557335b604051631184b31b60e21b81526001600160a01b039091166004820152602401610568565b610a2d611584565b825167ffffffffffffffff811115610a4757610a4761199d565b604051908082528060200260200182016040528015610a70578160200160208202803683370190505b509150825167ffffffffffffffff811115610a8d57610a8d61199d565b604051908082528060200260200182016040528015610ab6578160200160208202803683370190505b506003546040516370a0823160e01b81523060048201529192505f916001600160a01b03909116906370a0823190602401602060405180830381865afa158015610b02573d5f5f3e3d5ffd5b505050506040513d601f19601f82011682018060405250810190610b269190611cfc565b1115610cea57600154604080516330fe427560e21b815290515f926001600160a01b03169163c3f909d49160048083019260a09291908290030181865afa158015610b73573d5f5f3e3d5ffd5b505050506040513d601f19601f82011682018060405250810190610b979190611dc8565b516003546040516370a0823160e01b8152306004820152919250610c1c9183916001600160a01b0316906370a0823190602401602060405180830381865afa158015610be5573d5f5f3e3d5ffd5b505050506040513d601f19601f82011682018060405250810190610c099190611cfc565b6003546001600160a01b0316919061171d565b6003546040516370a0823160e01b81523060048201526001600160a01b0383811692632db6d399929116906370a0823190602401602060405180830381865afa158015610c6b573d5f5f3e3d5ffd5b505050506040513d601f19601f82011682018060405250810190610c8f9190611cfc565b60405180602001604052805f8152506040518363ffffffff1660e01b8152600401610cbb929190611e45565b5f604051808303815f87803b158015610cd2575f5ffd5b505af1158015610ce4573d5f5f3e3d5ffd5b50505050505b5f5b8351811015610eb8575f848281518110610d0857610d08611e65565b60209081029190910101516040516370a0823160e01b81523060048201526001600160a01b03909116906370a0823190602401602060405180830381865afa158015610d56573d5f5f3e3d5ffd5b505050506040513d601f19601f82011682018060405250810190610d7a9190611cfc565b90508015610eaf57610e43610d8d6104b8565b868481518110610d9f57610d9f611e65565b60209081029190910101516040516370a0823160e01b81523060048201526001600160a01b03909116906370a0823190602401602060405180830381865afa158015610ded573d5f5f3e3d5ffd5b505050506040513d601f19601f82011682018060405250810190610e119190611cfc565b878581518110610e2357610e23611e65565b60200260200101516001600160a01b03166116559092919063ffffffff16565b848281518110610e5557610e55611e65565b6020026020010151848381518110610e6f57610e6f611e65565b60200260200101906001600160a01b031690816001600160a01b03168152505080838381518110610ea257610ea2611e65565b6020026020010181815250505b50600101610cec565b5080604051610ec79190611e79565b604051809103902082604051610edd9190611eae565b604051908190038120907f46b8771620f6acf56cb03d3e835ea8024c7dcbcf05fcc3f6ade9e19d1a3e212b905f90a3610f146116b4565b915091565b60018054600254600354600454600554600654600780546001600160a01b03978816989688169790951695939492939192610f5390611d13565b80601f0160208091040260200160405190810160405280929190818152602001828054610f7f90611d13565b8015610fca5780601f10610fa157610100808354040283529160200191610fca565b820191905f5260205f20905b815481529060010190602001808311610fad57829003601f168201915b505050506007830154600890930154919260ff1691905089565b5f7f00000000000000000000000000000000000000000000000000000000000000006001600160a01b0316637aaceb956040518163ffffffff1660e01b8152600401602060405180830381865afa158015610515573d5f5f3e3d5ffd5b6110496114fb565b6110535733610547565b60048190556040518181527f333b26cca69716ad4680ddb07663f5bfb4f06045671f336af9a83690a3ae00f990602001610845565b6110906114fb565b61109a5733610547565b600180546001600160a01b031916339081179091556040519081527f55489ce0259bd691120d8860861be1c401c7c16a3cd268d21045756af4ecc5ca906020015b60405180910390a1565b6110ed6114fb565b6110f75733610547565b60068190556040518181527fb6ac66853c4e59c71e118d25ab494bb847c4e5eb0c8894898c5343e6f61afc1290602001610845565b6111346114fb565b61113e5733610547565b818161114a82826115f3565b60035460405163095ea7b360e01b81526001600160a01b038981166004830152602482018b90529091169063095ea7b3906044016020604051808303815f875af115801561119a573d5f5f3e3d5ffd5b505050506040513d601f19601f820116820180604052508101906111be9190611d66565b50604051632db6d39960e01b81526001600160a01b03881690632db6d399906111ef908b908a908a90600401611ee1565b5f604051808303815f87803b158015611206575f5ffd5b505af1158015611218573d5f5f3e3d5ffd5b5050600354604080516001600160a01b039283168152602081018d9052918b1693503092507f9f784fc02a186f1c98b2d9f15fda084da27cdd291a3785d978f91911d880516b910160405180910390a35050505050505050565b60408051610120810182525f8082526020820181905291810182905260608082018390526080820183905260a0820183905260c082015260e081018290526101008101919091526040805161012081018252600180546001600160a01b0390811683526002548116602084015260035416928201929092526004546060820152600554608082015260065460a08201526007805491929160c08401919061131890611d13565b80601f016020809104026020016040519081016040528092919081815260200182805461134490611d13565b801561138f5780601f106113665761010080835404028352916020019161138f565b820191905f5260205f20905b81548152906001019060200180831161137257829003601f168201915b5050509183525050600782015460ff1615156020820152600890910154604090910152919050565b606080306001600160a01b031663117d8ae06040518163ffffffff1660e01b8152600401602060405180830381865afa1580156113f6573d5f5f3e3d5ffd5b505050506040513d601f19601f8201168201806040525081019061141a9190611d4b565b6001600160a01b0316336001600160a01b0316146114385733610a00565b611440611584565b50506040516060908190611455908290611e79565b60405180910390208260405161146b9190611eae565b604051908190038120907f3e3e7958121b3e39c7a49392d1aa9cdce870c2a059744f9e15cf66fff7865455905f90a36114a26116b4565b9250929050565b6114b16114fb565b6114bb5733610547565b600180546001600160a01b03191690556040513381527f7cb941d7b1708e5b3bcd35ca960d6c6311188cec18886e5b67630552676b0487906020016110db565b5f80546001600160a01b03166391d14854611517600230610951565b336040516001600160e01b031960e085901b16815260048101929092526001600160a01b03166024820152604401602060405180830381865afa158015611560573d5f5f3e3d5ffd5b505050506040513d601f19601f820116820180604052508101906104209190611d66565b7f9b779b17422d0df92223018b32b4d1fa46e071723d6817e2486d003becc55f005c156115c457604051633ee5aeb560e01b815260040160405180910390fd5b6115f160017f9b779b17422d0df92223018b32b4d1fa46e071723d6817e2486d003becc55f005b906117ac565b565b8015801590611605575060085460ff16155b1561162357604051630cd0fdf960e01b815260040160405180910390fd5b80158015611633575060085460ff165b156116515760405163332863a960e11b815260040160405180910390fd5b5050565b6040516001600160a01b038381166024830152604482018390526105f291859182169063a9059cbb906064015b604051602081830303815290604052915060e01b6020820180516001600160e01b0383818316178352505050506117b3565b6115f15f7f9b779b17422d0df92223018b32b4d1fa46e071723d6817e2486d003becc55f006115eb565b6040516001600160a01b0384811660248301528381166044830152606482018390526117179186918216906323b872dd90608401611682565b50505050565b604080516001600160a01b038416602482015260448082018490528251808303909101815260649091019091526020810180516001600160e01b031663095ea7b360e01b17905261176e848261181f565b611717576040516001600160a01b0384811660248301525f60448301526117a291869182169063095ea7b390606401611682565b61171784826117b3565b80825d5050565b5f5f60205f8451602086015f885af1806117d2576040513d5f823e3d81fd5b50505f513d915081156117e95780600114156117f6565b6001600160a01b0384163b155b1561171757604051635274afe760e01b81526001600160a01b0385166004820152602401610568565b5f5f5f5f60205f8651602088015f8a5af192503d91505f51905082801561185e57508115611850578060011461185e565b5f866001600160a01b03163b115b9695505050505050565b5f81518084528060208401602086015e5f602082860101526020601f19601f83011685010191505092915050565b602081525f6118a86020830184611868565b9392505050565b5f5f83601f8401126118bf575f5ffd5b50813567ffffffffffffffff8111156118d6575f5ffd5b6020830191508360208285010111156114a2575f5ffd5b5f5f5f604084860312156118ff575f5ffd5b83359250602084013567ffffffffffffffff81111561191c575f5ffd5b611928868287016118af565b9497909650939450505050565b5f60208284031215611945575f5ffd5b5035919050565b6001600160a01b0381168114611960575f5ffd5b50565b5f5f60408385031215611974575f5ffd5b823560038110611982575f5ffd5b915060208301356119928161194c565b809150509250929050565b634e487b7160e01b5f52604160045260245ffd5b604051601f8201601f1916810167ffffffffffffffff811182821017156119da576119da61199d565b604052919050565b5f602082840312156119f2575f5ffd5b813567ffffffffffffffff811115611a08575f5ffd5b8201601f81018413611a18575f5ffd5b803567ffffffffffffffff811115611a3257611a3261199d565b8060051b611a42602082016119b1565b91825260208184018101929081019087841115611a5d575f5ffd5b6020850194505b83851015611a8b5784359250611a798361194c565b82825260209485019490910190611a64565b979650505050505050565b604080825283519082018190525f9060208501906060840190835b81811015611ad85783516001600160a01b0316835260209384019390920191600101611ab1565b5050838103602080860191909152855180835291810192508501905f5b81811015611b13578251845260209384019390920191600101611af5565b50919695505050505050565b6001600160a01b038a81168252898116602083015288166040820152606081018790526080810186905260a0810185905261012060c082018190525f90611b6890830186611868565b93151560e0830152506101000152979650505050505050565b5f5f5f5f5f5f60808789031215611b96575f5ffd5b863595506020870135611ba88161194c565b9450604087013567ffffffffffffffff811115611bc3575f5ffd5b611bcf89828a016118af565b909550935050606087013567ffffffffffffffff811115611bee575f5ffd5b611bfa89828a016118af565b979a9699509497509295939492505050565b60208152611c266020820183516001600160a01b03169052565b5f6020830151611c4160408401826001600160a01b03169052565b5060408301516001600160a01b03811660608401525060608301516080830152608083015160a083015260a083015160c083015260c083015161012060e0840152611c90610140840182611868565b905060e0840151611ca661010085018215159052565b506101008401516101208401528091505092915050565b5f5f60208385031215611cce575f5ffd5b823567ffffffffffffffff811115611ce4575f5ffd5b611cf0858286016118af565b90969095509350505050565b5f60208284031215611d0c575f5ffd5b5051919050565b600181811c90821680611d2757607f821691505b602082108103611d4557634e487b7160e01b5f52602260045260245ffd5b50919050565b5f60208284031215611d5b575f5ffd5b81516118a88161194c565b5f60208284031215611d76575f5ffd5b815180151581146118a8575f5ffd5b5f60038410611da257634e487b7160e01b5f52602160045260245ffd5b5060f89290921b825260601b6bffffffffffffffffffffffff1916600182015260150190565b5f60a0828403128015611dd9575f5ffd5b5060405160a0810167ffffffffffffffff81118282101715611dfd57611dfd61199d565b6040528251611e0b8161194c565b81526020838101519082015260408084015190820152606080840151908201526080830151611e398161194c565b60808201529392505050565b828152604060208201525f611e5d6040830184611868565b949350505050565b634e487b7160e01b5f52603260045260245ffd5b81515f90829060208501835b82811015611ea3578151845260209384019390910190600101611e85565b509195945050505050565b81515f90829060208501835b82811015611ea35781516001600160a01b0316845260209384019390910190600101611eba565b83815260406020820152816040820152818360608301375f818301606090810191909152601f909201601f191601019291505056fea264697066735822122034287c2bd9e4093ba106511801bda85fcd339fa01e5d164d2f976e032e57c78164736f6c634300081c0033608060405234801561000f575f5ffd5b50604051611aad380380611aad83398101604081905261002e916101a0565b81806001600160a01b03811661005e576040516347bd7c1d60e01b81525f60048201526024015b60405180910390fd5b6040516301ffc9a760e01b815263fe1a291f60e01b60048201526001600160a01b038216906301ffc9a790602401602060405180830381865afa1580156100a7573d5f5f3e3d5ffd5b505050506040513d601f19601f820116820180604052508101906100cb91906101d1565b6100f3576040516347bd7c1d60e01b81526001600160a01b0382166004820152602401610055565b5f80546001600160a01b039283166001600160a01b03199182161790915560098054928516929091168217905561012a9150610131565b50506101f7565b600380546001600160a01b0319166001600160a01b0383169081179091556040519081527ffbed9b88bd11cf6ebffbe6fe489ac5bf7a88b31de62cf9bbc5e63e6eb01760039060200160405180910390a150565b80516001600160a01b038116811461019b575f5ffd5b919050565b5f5f604083850312156101b1575f5ffd5b6101ba83610185565b91506101c860208401610185565b90509250929050565b5f602082840312156101e1575f5ffd5b815180151581146101f0575f5ffd5b9392505050565b6118a9806102045f395ff3fe608060405234801561000f575f5ffd5b5060043610610132575f3560e01c80637035ab98116100b4578063a694fc3a11610079578063a694fc3a146102e9578063bcd11014146102fc578063e24bf4fe1461030f578063e70b9e2714610322578063e9fad8ee1461034c578063f122977714610354575f5ffd5b80637035ab981461024657806370a082311461027057806372f702f3146102985780637bb7bed1146102c3578063a3cd8ac4146102d6575f5ffd5b80633d509c97116100fa5780633d509c9714610195578063460b5ee2146101a857806348e5d9f8146101bb578063638634ee1461022057806369b3054b14610233575f5ffd5b806318160ddd14610136578063211dc32d146101525780632378bea6146101655780632e1a7d4d1461017a5780633d18b9121461018d575b5f5ffd5b61013f60075481565b6040519081526020015b60405180910390f35b61013f61016036600461167e565b610367565b6101786101733660046116b5565b6103ff565b005b6101786101883660046116df565b61057d565b610178610652565b6101786101a33660046116f6565b6107fd565b6101786101b63660046116b5565b610a68565b6101f86101c93660046116f6565b600460208190525f91825260409091208054600182015460028301546003840154939094015491939092909185565b604080519586526020860194909452928401919091526060830152608082015260a001610149565b61013f61022e3660046116f6565b610b40565b61013f610241366004611711565b610b82565b61013f61025436600461167e565b600560209081525f928352604080842090915290825290205481565b61013f61027e3660046116f6565b6001600160a01b03165f9081526008602052604090205490565b6003546102ab906001600160a01b031681565b6040516001600160a01b039091168152602001610149565b6102ab6102d13660046116df565b610bb4565b6101786102e4366004611730565b610bf1565b6101786102f73660046116df565b610fe3565b61013f61030a3660046116f6565b6110b5565b6009546102ab906001600160a01b031681565b61013f61033036600461167e565b600660209081525f928352604080842090915290825290205481565b6101786110e1565b61013f6103623660046116f6565b611101565b6001600160a01b038082165f818152600660209081526040808320948716808452948252808320549383526005825280832094835293905291822054670de0b6b3a7640000906103b685611101565b6103c09190611776565b6001600160a01b0386165f908152600860205260409020546103e29190611789565b6103ec91906117a0565b6103f691906117bf565b90505b92915050565b5f5460408051630ccc574960e41b815290516001600160a01b03909216916391d1485491839163ccc57490916004808201926020929091908290030181865afa15801561044e573d5f5f3e3d5ffd5b505050506040513d601f19601f8201168201806040525081019061047291906117d2565b6040516001600160e01b031960e084901b1681526004810191909152336024820152604401602060405180830381865afa1580156104b2573d5f5f3e3d5ffd5b505050506040513d601f19601f820116820180604052508101906104d691906117e9565b6104fa57604051630ea7d7ed60e21b81523360048201526024015b60405180910390fd5b6001600160a01b0382165f908152600460205260409020805442116105325760405163d9ba1add60e01b815260040160405180910390fd5b600281018290556040518281526001600160a01b038416907fad2f86b01ed93b4b3a150d448c61a4f5d8d38075d3c0c64cc0a26fd6e1f49545906020015b60405180910390a2505050565b335f61058960016111ae565b90505f5b81811015610643575f6105a16001836111b7565b6001600160a01b0381165f90815260046020526040902090915081906105c682611101565b60048201556105d482610b40565b60038201556001600160a01b03861615610638576105f28683610367565b6001600160a01b038084165f818152600660209081526040808320948c168084529482528083209590955560048601549282526005815284822093825292909252919020555b50505060010161058d565b5061064d836111c2565b505050565b61065a61126a565b335f61066660016111ae565b90505f5b81811015610720575f61067e6001836111b7565b6001600160a01b0381165f90815260046020526040902090915081906106a382611101565b60048201556106b182610b40565b60038201556001600160a01b03861615610715576106cf8683610367565b6001600160a01b038084165f818152600660209081526040808320948c168084529482528083209590955560048601549282526005815284822093825292909252919020555b50505060010161066a565b505f61072c60016111ae565b90505f5b818110156107ef575f6107446001836111b7565b6001600160a01b0381165f908152600660209081526040808320338452909152902054909150819080156107e4576001600160a01b0382165f8181526006602090815260408083203380855292528220919091556107a39190836112d7565b6040518181526001600160a01b0383169033907f540798df468d7b23d11f156fdb954cb19ad414d150722a7b6d55ba369dea792e9060200160405180910390a35b505050600101610730565b505050506107fb611336565b565b5f5460408051630ccc574960e41b815290516001600160a01b03909216916391d1485491839163ccc57490916004808201926020929091908290030181865afa15801561084c573d5f5f3e3d5ffd5b505050506040513d601f19601f8201168201806040525081019061087091906117d2565b6040516001600160e01b031960e084901b1681526004810191909152336024820152604401602060405180830381865afa1580156108b0573d5f5f3e3d5ffd5b505050506040513d601f19601f820116820180604052508101906108d491906117e9565b6108f357604051630ea7d7ed60e21b81523360048201526024016104f1565b6001600160a01b0381165f90815260046020526040812060020154900361092d5760405163064fed9960e31b815260040160405180910390fd5b6001600160a01b0381165f9081526004602052604090205442116109645760405163d9ba1add60e01b815260040160405180910390fd5b6040516370a0823160e01b81523060048201525f906001600160a01b038316906370a0823190602401602060405180830381865afa1580156109a8573d5f5f3e3d5ffd5b505050506040513d601f19601f820116820180604052508101906109cc91906117d2565b905080156109f057604051633007cea360e01b8152600481018290526024016104f1565b6109fb600183611360565b506001600160a01b0382165f81815260046020818152604080842084815560018101859055600281018590556003810185905590920192909255519182527f66257bcef574219c04f7c05f7a1c78d599da10491294c92a5805c48b4cdf5009910160405180910390a15050565b815f610a7460016111ae565b90505f5b81811015610b2e575f610a8c6001836111b7565b6001600160a01b0381165f9081526004602052604090209091508190610ab182611101565b6004820155610abf82610b40565b60038201556001600160a01b03861615610b2357610add8683610367565b6001600160a01b038084165f818152600660209081526040808320948c168084529482528083209590955560048601549282526005815284822093825292909252919020555b505050600101610a78565b50610b3a338585611374565b50505050565b6001600160a01b0381165f908152600460205260408120544210610b7b576001600160a01b0382165f908152600460205260409020546103f9565b4292915050565b5f8282604051602001610b96929190611808565b60405160208183030381529060405280519060200120905092915050565b5f610bbf60016111ae565b8210610bde57604051634e23d03560e01b815260040160405180910390fd5b5f610bea6001846111b7565b9392505050565b5f5460408051630ccc574960e41b815290516001600160a01b03909216916391d1485491839163ccc57490916004808201926020929091908290030181865afa158015610c40573d5f5f3e3d5ffd5b505050506040513d601f19601f82011682018060405250810190610c6491906117d2565b6040516001600160e01b031960e084901b1681526004810191909152336024820152604401602060405180830381865afa158015610ca4573d5f5f3e3d5ffd5b505050506040513d601f19601f82011682018060405250810190610cc891906117e9565b610ce757604051630ea7d7ed60e21b81523360048201526024016104f1565b5f5f610cf360016111ae565b90505f5b81811015610dad575f610d0b6001836111b7565b6001600160a01b0381165f9081526004602052604090209091508190610d3082611101565b6004820155610d3e82610b40565b60038201556001600160a01b03861615610da257610d5c8683610367565b6001600160a01b038084165f818152600660209081526040808320948c168084529482528083209590955560048601549282526005815284822093825292909252919020555b505050600101610cf7565b506001600160a01b0385165f9081526004602052604081206002810154909103610e4e57835f03610df45760405160016203036160e11b0319815260040160405180910390fd5b610dff600187611452565b5060028101849055604080516001600160a01b0388168152602081018690527f68e3e9397770d9dfa88c0953a34e1a70a05416b3895957f5b689787a920791c4910160405180910390a1610e7f565b5f84118015610e61575080600201548414155b15610e7f576040516333fec8c760e21b815260040160405180910390fd5b80544210610ea0576002810154610e9690866117a0565b6001820155610ee6565b80545f90610eaf904290611776565b90505f826001015482610ec29190611789565b6002840154909150610ed482896117bf565b610ede91906117a0565b600184015550505b6040516370a0823160e01b81523060048201525f906001600160a01b038816906370a0823190602401602060405180830381865afa158015610f2a573d5f5f3e3d5ffd5b505050506040513d601f19601f82011682018060405250810190610f4e91906117d2565b9050816002015481610f6091906117a0565b82600101541115610f845760405163010ee96f60e31b815260040160405180910390fd5b42600383018190556002830154610f9a916117bf565b82556040518681526001600160a01b038816907fac24935fd910bc682b5ccb1a07b718cadf8cf2f6d1404c4f3ddc3662dae40e299060200160405180910390a250505050505050565b335f610fef60016111ae565b90505f5b818110156110a9575f6110076001836111b7565b6001600160a01b0381165f908152600460205260409020909150819061102c82611101565b600482015561103a82610b40565b60038201556001600160a01b0386161561109e576110588683610367565b6001600160a01b038084165f818152600660209081526040808320948c168084529482528083209590955560048601549282526005815284822093825292909252919020555b505050600101610ff3565b5061064d333385611374565b6001600160a01b0381165f90815260046020526040812060028101546001909101546103f99190611789565b6110e9610652565b335f908152600860205260409020546107fb906111c2565b5f6007545f0361112a57506001600160a01b03165f908152600460208190526040909120015490565b6007546001600160a01b0383165f908152600460205260409020600181015460039091015461115885610b40565b6111629190611776565b61116c9190611789565b61117e90670de0b6b3a7640000611789565b61118891906117a0565b6001600160a01b0383165f90815260046020819052604090912001546103f991906117bf565b5f6103f9825490565b5f6103f68383611466565b805f036111e25760405163061bb89b60e51b815260040160405180910390fd5b8060075f8282546111f39190611776565b9091555050335f9081526008602052604081208054839290611216908490611776565b9091555050600354611232906001600160a01b031633836112d7565b60405181815233907f7084f5476618d8e60b11ef0d7d3f06914655adb8793e28ff7f018d4c76d505d59060200160405180910390a250565b7f9b779b17422d0df92223018b32b4d1fa46e071723d6817e2486d003becc55f005c156112aa57604051633ee5aeb560e01b815260040160405180910390fd5b6107fb60017f9b779b17422d0df92223018b32b4d1fa46e071723d6817e2486d003becc55f005b9061148c565b6040516001600160a01b0383811660248301526044820183905261064d91859182169063a9059cbb906064015b604051602081830303815290604052915060e01b6020820180516001600160e01b038381831617835250505050611493565b6107fb5f7f9b779b17422d0df92223018b32b4d1fa46e071723d6817e2486d003becc55f006112d1565b5f6103f6836001600160a01b0384166114ff565b805f0361139457604051636a76ff9f60e01b815260040160405180910390fd5b6003546001600160a01b03166113bd5760405163417198d360e01b815260040160405180910390fd5b8060075f8282546113ce91906117bf565b90915550506001600160a01b0382165f90815260086020526040812080548392906113fa9084906117bf565b9091555050600354611417906001600160a01b03168430846115e2565b816001600160a01b03167f9e71bc8eea02a63969f509818f2dafb9254532904319f9dbda79b67bd34a5f3d8260405161057091815260200190565b5f6103f6836001600160a01b03841661161b565b5f825f01828154811061147b5761147b61184b565b905f5260205f200154905092915050565b80825d5050565b5f5f60205f8451602086015f885af1806114b2576040513d5f823e3d81fd5b50505f513d915081156114c95780600114156114d6565b6001600160a01b0384163b155b15610b3a57604051635274afe760e01b81526001600160a01b03851660048201526024016104f1565b5f81815260018301602052604081205480156115d9575f611521600183611776565b85549091505f9061153490600190611776565b9050808214611593575f865f0182815481106115525761155261184b565b905f5260205f200154905080875f0184815481106115725761157261184b565b5f918252602080832090910192909255918252600188019052604090208390555b85548690806115a4576115a461185f565b600190038181905f5260205f20015f90559055856001015f8681526020019081526020015f205f9055600193505050506103f9565b5f9150506103f9565b6040516001600160a01b038481166024830152838116604483015260648201839052610b3a9186918216906323b872dd90608401611304565b5f81815260018301602052604081205461166057508154600181810184555f8481526020808220909301849055845484825282860190935260409020919091556103f9565b505f6103f9565b6001600160a01b038116811461167b575f5ffd5b50565b5f5f6040838503121561168f575f5ffd5b823561169a81611667565b915060208301356116aa81611667565b809150509250929050565b5f5f604083850312156116c6575f5ffd5b82356116d181611667565b946020939093013593505050565b5f602082840312156116ef575f5ffd5b5035919050565b5f60208284031215611706575f5ffd5b8135610bea81611667565b5f5f60408385031215611722575f5ffd5b82356003811061169a575f5ffd5b5f5f5f60608486031215611742575f5ffd5b833561174d81611667565b95602085013595506040909401359392505050565b634e487b7160e01b5f52601160045260245ffd5b818103818111156103f9576103f9611762565b80820281158282048414176103f9576103f9611762565b5f826117ba57634e487b7160e01b5f52601260045260245ffd5b500490565b808201808211156103f9576103f9611762565b5f602082840312156117e2575f5ffd5b5051919050565b5f602082840312156117f9575f5ffd5b81518015158114610bea575f5ffd5b5f6003841061182557634e487b7160e01b5f52602160045260245ffd5b5060f89290921b825260601b6bffffffffffffffffffffffff1916600182015260150190565b634e487b7160e01b5f52603260045260245ffd5b634e487b7160e01b5f52603160045260245ffdfea2646970667358221220b973fa74d37cba50823d2585d23ab0df5d2bd01a5ca059a79d63645e6030929b64736f6c634300081c0033","linkReferences":{}},"methodIdentifiers":{"INITIAL_MINIMUM_PAUSE_TIME()":"a0506f0b","MAX_REBALANCE_OPERATIONS()":"5ed975e5","addArk(address)":"e37d5b7f","addArks(address[])":"cc5b1e55","arks(uint256)":"ff32a42a","bufferArk()":"c8169aa1","config()":"79502c55","generateRole(uint8,address)":"69b3054b","getArks()":"f1cd665b","getConfig()":"c3f909d4","isArkActive(address)":"d25dd101","isArkWithdrawable(address)":"5340c012","minimumPauseTime()":"680e57ab","pauseStartTime()":"94d7eaa4","paused()":"5c975abb","removeArk(address)":"96c25a38","setArkDepositCap(address,uint256)":"34050560","setArkMaxDepositPercentageOfTVL(address,uint256)":"f3ba553e","setArkMaxRebalanceInflow(address,uint256)":"d45a07a1","setArkMaxRebalanceOutflow(address,uint256)":"b637766c","setFleetDepositCap(uint256)":"d902d41a","setMaxRebalanceOperations(uint256)":"133ab579","setMinimumBufferBalance(uint256)":"4daecb9c","setStakingRewardsManager(address)":"5e5a9ea9"},"id":187}