{"abi":[{"type":"constructor","inputs":[{"name":"accessManager","type":"address","internalType":"address"}],"stateMutability":"nonpayable"},{"type":"function","name":"generateRole","inputs":[{"name":"roleName","type":"uint8","internalType":"enum ContractSpecificRoles"},{"name":"roleTargetContract","type":"address","internalType":"address"}],"outputs":[{"name":"","type":"bytes32","internalType":"bytes32"}],"stateMutability":"pure"},{"type":"error","name":"CallerIsNotAdmin","inputs":[{"name":"caller","type":"address","internalType":"address"}]},{"type":"error","name":"CallerIsNotAuthorizedToBoard","inputs":[{"name":"caller","type":"address","internalType":"address"}]},{"type":"error","name":"CallerIsNotCommander","inputs":[{"name":"caller","type":"address","internalType":"address"}]},{"type":"error","name":"CallerIsNotContractSpecificRole","inputs":[{"name":"caller","type":"address","internalType":"address"},{"name":"role","type":"bytes32","internalType":"bytes32"}]},{"type":"error","name":"CallerIsNotCurator","inputs":[{"name":"caller","type":"address","internalType":"address"}]},{"type":"error","name":"CallerIsNotGovernor","inputs":[{"name":"caller","type":"address","internalType":"address"}]},{"type":"error","name":"CallerIsNotGuardian","inputs":[{"name":"caller","type":"address","internalType":"address"}]},{"type":"error","name":"CallerIsNotGuardianOrGovernor","inputs":[{"name":"caller","type":"address","internalType":"address"}]},{"type":"error","name":"CallerIsNotKeeper","inputs":[{"name":"caller","type":"address","internalType":"address"}]},{"type":"error","name":"CallerIsNotRaft","inputs":[{"name":"caller","type":"address","internalType":"address"}]},{"type":"error","name":"CallerIsNotRaftOrCommander","inputs":[{"name":"caller","type":"address","internalType":"address"}]},{"type":"error","name":"CallerIsNotSuperKeeper","inputs":[{"name":"caller","type":"address","internalType":"address"}]},{"type":"error","name":"DirectGrantIsDisabled","inputs":[{"name":"caller","type":"address","internalType":"address"}]},{"type":"error","name":"DirectRevokeIsDisabled","inputs":[{"name":"caller","type":"address","internalType":"address"}]},{"type":"error","name":"InvalidAccessManagerAddress","inputs":[{"name":"invalidAddress","type":"address","internalType":"address"}]}],"bytecode":{"object":"0x608060405234801561000f575f5ffd5b506040516102b03803806102b083398101604081905261002e91610115565b6001600160a01b03811661005c576040516347bd7c1d60e01b81525f60048201526024015b60405180910390fd5b6040516301ffc9a760e01b815263a237592160e01b60048201526001600160a01b038216906301ffc9a790602401602060405180830381865afa1580156100a5573d5f5f3e3d5ffd5b505050506040513d601f19601f820116820180604052508101906100c99190610142565b6100f1576040516347bd7c1d60e01b81526001600160a01b0382166004820152602401610053565b5f80546001600160a01b0319166001600160a01b0392909216919091179055610161565b5f60208284031215610125575f5ffd5b81516001600160a01b038116811461013b575f5ffd5b9392505050565b5f60208284031215610152575f5ffd5b8151801515811461013b575f5ffd5b6101428061016e5f395ff3fe608060405234801561000f575f5ffd5b5060043610610029575f3560e01c806369b3054b1461002d575b5f5ffd5b61004061003b366004610084565b610052565b60405190815260200160405180910390f35b5f82826040516020016100669291906100c9565b60405160208183030381529060405280519060200120905092915050565b5f5f60408385031215610095575f5ffd5b8235600381106100a3575f5ffd5b915060208301356001600160a01b03811681146100be575f5ffd5b809150509250929050565b5f600384106100e657634e487b7160e01b5f52602160045260245ffd5b5060f89290921b825260601b6bffffffffffffffffffffffff191660018201526015019056fea2646970667358221220d0f094a04cc94c3532d3484962c7405fbef6c8fa3fc4e7d1a49d17f8afc9fc4e64736f6c634300081b0033","linkReferences":{}},"methodIdentifiers":{"generateRole(uint8,address)":"69b3054b"},"id":161}