{"abi":[{"type":"constructor","inputs":[{"name":"_params","type":"tuple","internalType":"struct ArkParams","components":[{"name":"name","type":"string","internalType":"string"},{"name":"details","type":"string","internalType":"string"},{"name":"accessManager","type":"address","internalType":"address"},{"name":"configurationManager","type":"address","internalType":"address"},{"name":"asset","type":"address","internalType":"address"},{"name":"depositCap","type":"uint256","internalType":"uint256"},{"name":"maxRebalanceOutflow","type":"uint256","internalType":"uint256"},{"name":"maxRebalanceInflow","type":"uint256","internalType":"uint256"},{"name":"requiresKeeperData","type":"bool","internalType":"bool"},{"name":"maxDepositPercentageOfTVL","type":"uint256","internalType":"Percentage"}]},{"name":"_pendlePtArkConstructorParams","type":"tuple","internalType":"struct PendlePtOracleArk.PendlePtArkConstructorParams","components":[{"name":"market","type":"address","internalType":"address"},{"name":"oracle","type":"address","internalType":"address"},{"name":"router","type":"address","internalType":"address"}]},{"name":"_curveSwapArkConstructorParams","type":"tuple","internalType":"struct PendlePtOracleArk.CurveSwapArkConstructorParams","components":[{"name":"curvePool","type":"address","internalType":"address"},{"name":"basePrice","type":"uint256","internalType":"uint256"},{"name":"lowerPercentageRange","type":"uint256","internalType":"Percentage"},{"name":"upperPercentageRange","type":"uint256","internalType":"Percentage"}]}],"stateMutability":"nonpayable"},{"type":"function","name":"MAX_SLIPPAGE_PERCENTAGE","inputs":[],"outputs":[{"name":"","type":"uint256","internalType":"Percentage"}],"stateMutability":"view"},{"type":"function","name":"MIN_ORACLE_DURATION","inputs":[],"outputs":[{"name":"","type":"uint256","internalType":"uint256"}],"stateMutability":"view"},{"type":"function","name":"PT","inputs":[],"outputs":[{"name":"","type":"address","internalType":"contract IPPrincipalToken"}],"stateMutability":"view"},{"type":"function","name":"SY","inputs":[],"outputs":[{"name":"","type":"address","internalType":"contract IStandardizedYield"}],"stateMutability":"view"},{"type":"function","name":"YT","inputs":[],"outputs":[{"name":"","type":"address","internalType":"contract IPYieldToken"}],"stateMutability":"view"},{"type":"function","name":"asset","inputs":[],"outputs":[{"name":"","type":"address","internalType":"contract IERC20"}],"stateMutability":"view"},{"type":"function","name":"basePrice","inputs":[],"outputs":[{"name":"","type":"uint256","internalType":"uint256"}],"stateMutability":"view"},{"type":"function","name":"baseToken","inputs":[],"outputs":[{"name":"","type":"address","internalType":"address"}],"stateMutability":"view"},{"type":"function","name":"board","inputs":[{"name":"amount","type":"uint256","internalType":"uint256"},{"name":"boardData","type":"bytes","internalType":"bytes"}],"outputs":[],"stateMutability":"nonpayable"},{"type":"function","name":"commander","inputs":[],"outputs":[{"name":"","type":"address","internalType":"address"}],"stateMutability":"view"},{"type":"function","name":"config","inputs":[],"outputs":[{"name":"commander","type":"address","internalType":"address"},{"name":"raft","type":"address","internalType":"address"},{"name":"asset","type":"address","internalType":"contract IERC20"},{"name":"depositCap","type":"uint256","internalType":"uint256"},{"name":"maxRebalanceOutflow","type":"uint256","internalType":"uint256"},{"name":"maxRebalanceInflow","type":"uint256","internalType":"uint256"},{"name":"name","type":"string","internalType":"string"},{"name":"details","type":"string","internalType":"string"},{"name":"requiresKeeperData","type":"bool","internalType":"bool"},{"name":"maxDepositPercentageOfTVL","type":"uint256","internalType":"Percentage"}],"stateMutability":"view"},{"type":"function","name":"configTokenDecimals","inputs":[],"outputs":[{"name":"","type":"uint8","internalType":"uint8"}],"stateMutability":"view"},{"type":"function","name":"configurationManager","inputs":[],"outputs":[{"name":"","type":"address","internalType":"contract IConfigurationManager"}],"stateMutability":"view"},{"type":"function","name":"curveSwap","inputs":[],"outputs":[{"name":"","type":"address","internalType":"contract ICurveSwap"}],"stateMutability":"view"},{"type":"function","name":"depositCap","inputs":[],"outputs":[{"name":"","type":"uint256","internalType":"uint256"}],"stateMutability":"view"},{"type":"function","name":"disembark","inputs":[{"name":"amount","type":"uint256","internalType":"uint256"},{"name":"disembarkData","type":"bytes","internalType":"bytes"}],"outputs":[],"stateMutability":"nonpayable"},{"type":"function","name":"emptySwap","inputs":[],"outputs":[{"name":"swapType","type":"uint8","internalType":"enum SwapType"},{"name":"extRouter","type":"address","internalType":"address"},{"name":"extCalldata","type":"bytes","internalType":"bytes"},{"name":"needScale","type":"bool","internalType":"bool"}],"stateMutability":"view"},{"type":"function","name":"fleetCommanderRewardsManagerFactory","inputs":[],"outputs":[{"name":"","type":"address","internalType":"address"}],"stateMutability":"view"},{"type":"function","name":"generateRole","inputs":[{"name":"roleName","type":"uint8","internalType":"enum ContractSpecificRoles"},{"name":"roleTargetContract","type":"address","internalType":"address"}],"outputs":[{"name":"","type":"bytes32","internalType":"bytes32"}],"stateMutability":"pure"},{"type":"function","name":"getConfig","inputs":[],"outputs":[{"name":"","type":"tuple","internalType":"struct ArkConfig","components":[{"name":"commander","type":"address","internalType":"address"},{"name":"raft","type":"address","internalType":"address"},{"name":"asset","type":"address","internalType":"contract IERC20"},{"name":"depositCap","type":"uint256","internalType":"uint256"},{"name":"maxRebalanceOutflow","type":"uint256","internalType":"uint256"},{"name":"maxRebalanceInflow","type":"uint256","internalType":"uint256"},{"name":"name","type":"string","internalType":"string"},{"name":"details","type":"string","internalType":"string"},{"name":"requiresKeeperData","type":"bool","internalType":"bool"},{"name":"maxDepositPercentageOfTVL","type":"uint256","internalType":"Percentage"}]}],"stateMutability":"view"},{"type":"function","name":"getExchangeRate","inputs":[],"outputs":[{"name":"price","type":"uint256","internalType":"uint256"}],"stateMutability":"view"},{"type":"function","name":"getExchangeRateEma","inputs":[],"outputs":[{"name":"price","type":"uint256","internalType":"uint256"}],"stateMutability":"view"},{"type":"function","name":"getLowerBound","inputs":[],"outputs":[{"name":"","type":"uint256","internalType":"uint256"}],"stateMutability":"view"},{"type":"function","name":"getSafeExchangeRate","inputs":[],"outputs":[{"name":"price","type":"uint256","internalType":"uint256"}],"stateMutability":"view"},{"type":"function","name":"getSafeExchangeRateEma","inputs":[],"outputs":[{"name":"price","type":"uint256","internalType":"uint256"}],"stateMutability":"view"},{"type":"function","name":"getUpperBound","inputs":[],"outputs":[{"name":"","type":"uint256","internalType":"uint256"}],"stateMutability":"view"},{"type":"function","name":"harborCommand","inputs":[],"outputs":[{"name":"","type":"address","internalType":"address"}],"stateMutability":"view"},{"type":"function","name":"harvest","inputs":[{"name":"additionalData","type":"bytes","internalType":"bytes"}],"outputs":[{"name":"rewardTokens","type":"address[]","internalType":"address[]"},{"name":"rewardAmounts","type":"uint256[]","internalType":"uint256[]"}],"stateMutability":"nonpayable"},{"type":"function","name":"hasAdmiralsQuartersRole","inputs":[{"name":"account","type":"address","internalType":"address"}],"outputs":[{"name":"","type":"bool","internalType":"bool"}],"stateMutability":"view"},{"type":"function","name":"isMarketExpired","inputs":[],"outputs":[{"name":"","type":"bool","internalType":"bool"}],"stateMutability":"view"},{"type":"function","name":"lowerPercentageRange","inputs":[],"outputs":[{"name":"","type":"uint256","internalType":"Percentage"}],"stateMutability":"view"},{"type":"function","name":"market","inputs":[],"outputs":[{"name":"","type":"address","internalType":"address"}],"stateMutability":"view"},{"type":"function","name":"marketAsset","inputs":[],"outputs":[{"name":"","type":"address","internalType":"address"}],"stateMutability":"view"},{"type":"function","name":"marketAssetDecimals","inputs":[],"outputs":[{"name":"","type":"uint8","internalType":"uint8"}],"stateMutability":"view"},{"type":"function","name":"marketExpiry","inputs":[],"outputs":[{"name":"","type":"uint256","internalType":"uint256"}],"stateMutability":"view"},{"type":"function","name":"maxDepositPercentageOfTVL","inputs":[],"outputs":[{"name":"","type":"uint256","internalType":"Percentage"}],"stateMutability":"view"},{"type":"function","name":"maxRebalanceInflow","inputs":[],"outputs":[{"name":"","type":"uint256","internalType":"uint256"}],"stateMutability":"view"},{"type":"function","name":"maxRebalanceOutflow","inputs":[],"outputs":[{"name":"","type":"uint256","internalType":"uint256"}],"stateMutability":"view"},{"type":"function","name":"move","inputs":[{"name":"amount","type":"uint256","internalType":"uint256"},{"name":"receiverArk","type":"address","internalType":"address"},{"name":"boardData","type":"bytes","internalType":"bytes"},{"name":"disembarkData","type":"bytes","internalType":"bytes"}],"outputs":[],"stateMutability":"nonpayable"},{"type":"function","name":"name","inputs":[],"outputs":[{"name":"","type":"string","internalType":"string"}],"stateMutability":"view"},{"type":"function","name":"nextMarket","inputs":[],"outputs":[{"name":"","type":"address","internalType":"address"}],"stateMutability":"view"},{"type":"function","name":"oracle","inputs":[],"outputs":[{"name":"","type":"address","internalType":"address"}],"stateMutability":"view"},{"type":"function","name":"oracleDuration","inputs":[],"outputs":[{"name":"","type":"uint32","internalType":"uint32"}],"stateMutability":"view"},{"type":"function","name":"ptDecimals","inputs":[],"outputs":[{"name":"","type":"uint8","internalType":"uint8"}],"stateMutability":"view"},{"type":"function","name":"raft","inputs":[],"outputs":[{"name":"","type":"address","internalType":"address"}],"stateMutability":"view"},{"type":"function","name":"registerFleetCommander","inputs":[],"outputs":[],"stateMutability":"nonpayable"},{"type":"function","name":"requiresKeeperData","inputs":[],"outputs":[{"name":"","type":"bool","internalType":"bool"}],"stateMutability":"view"},{"type":"function","name":"rolloverIfNeeded","inputs":[],"outputs":[],"stateMutability":"nonpayable"},{"type":"function","name":"router","inputs":[],"outputs":[{"name":"","type":"address","internalType":"address"}],"stateMutability":"view"},{"type":"function","name":"routerParams","inputs":[],"outputs":[{"name":"guessMin","type":"uint256","internalType":"uint256"},{"name":"guessMax","type":"uint256","internalType":"uint256"},{"name":"guessOffchain","type":"uint256","internalType":"uint256"},{"name":"maxIteration","type":"uint256","internalType":"uint256"},{"name":"eps","type":"uint256","internalType":"uint256"}],"stateMutability":"view"},{"type":"function","name":"setBasePrice","inputs":[{"name":"_basePrice","type":"uint256","internalType":"uint256"}],"outputs":[],"stateMutability":"nonpayable"},{"type":"function","name":"setDepositCap","inputs":[{"name":"newDepositCap","type":"uint256","internalType":"uint256"}],"outputs":[],"stateMutability":"nonpayable"},{"type":"function","name":"setEmaRange","inputs":[{"name":"_lowerPercentageRange","type":"uint256","internalType":"Percentage"},{"name":"_upperPercentageRange","type":"uint256","internalType":"Percentage"}],"outputs":[],"stateMutability":"nonpayable"},{"type":"function","name":"setMaxDepositPercentageOfTVL","inputs":[{"name":"newMaxDepositPercentageOfTVL","type":"uint256","internalType":"Percentage"}],"outputs":[],"stateMutability":"nonpayable"},{"type":"function","name":"setMaxRebalanceInflow","inputs":[{"name":"newMaxRebalanceInflow","type":"uint256","internalType":"uint256"}],"outputs":[],"stateMutability":"nonpayable"},{"type":"function","name":"setMaxRebalanceOutflow","inputs":[{"name":"newMaxRebalanceOutflow","type":"uint256","internalType":"uint256"}],"outputs":[],"stateMutability":"nonpayable"},{"type":"function","name":"setNextMarket","inputs":[{"name":"_nextMarket","type":"address","internalType":"address"}],"outputs":[],"stateMutability":"nonpayable"},{"type":"function","name":"setOracleDuration","inputs":[{"name":"_oracleDuration","type":"uint32","internalType":"uint32"}],"outputs":[],"stateMutability":"nonpayable"},{"type":"function","name":"setSlippagePercentage","inputs":[{"name":"_slippagePercentage","type":"uint256","internalType":"Percentage"}],"outputs":[],"stateMutability":"nonpayable"},{"type":"function","name":"slippagePercentage","inputs":[],"outputs":[{"name":"","type":"uint256","internalType":"Percentage"}],"stateMutability":"view"},{"type":"function","name":"sweep","inputs":[{"name":"tokens","type":"address[]","internalType":"address[]"}],"outputs":[{"name":"sweptTokens","type":"address[]","internalType":"address[]"},{"name":"sweptAmounts","type":"uint256[]","internalType":"uint256[]"}],"stateMutability":"nonpayable"},{"type":"function","name":"tipJar","inputs":[],"outputs":[{"name":"","type":"address","internalType":"address"}],"stateMutability":"view"},{"type":"function","name":"totalAssets","inputs":[],"outputs":[{"name":"","type":"uint256","internalType":"uint256"}],"stateMutability":"view"},{"type":"function","name":"totalAssetsNoSlippage","inputs":[],"outputs":[{"name":"","type":"uint256","internalType":"uint256"}],"stateMutability":"view"},{"type":"function","name":"treasury","inputs":[],"outputs":[{"name":"","type":"address","internalType":"address"}],"stateMutability":"view"},{"type":"function","name":"unregisterFleetCommander","inputs":[],"outputs":[],"stateMutability":"nonpayable"},{"type":"function","name":"upperPercentageRange","inputs":[],"outputs":[{"name":"","type":"uint256","internalType":"Percentage"}],"stateMutability":"view"},{"type":"function","name":"validateAndDecodeSwapForPtParams","inputs":[{"name":"params","type":"bytes","internalType":"bytes"}],"outputs":[{"name":"receiver","type":"address","internalType":"address"},{"name":"swapMarket","type":"address","internalType":"address"},{"name":"minPtOut","type":"uint256","internalType":"uint256"},{"name":"guessPtOut","type":"tuple","internalType":"struct ApproxParams","components":[{"name":"guessMin","type":"uint256","internalType":"uint256"},{"name":"guessMax","type":"uint256","internalType":"uint256"},{"name":"guessOffchain","type":"uint256","internalType":"uint256"},{"name":"maxIteration","type":"uint256","internalType":"uint256"},{"name":"eps","type":"uint256","internalType":"uint256"}]},{"name":"input","type":"tuple","internalType":"struct TokenInput","components":[{"name":"tokenIn","type":"address","internalType":"address"},{"name":"netTokenIn","type":"uint256","internalType":"uint256"},{"name":"tokenMintSy","type":"address","internalType":"address"},{"name":"pendleSwap","type":"address","internalType":"address"},{"name":"swapData","type":"tuple","internalType":"struct SwapData","components":[{"name":"swapType","type":"uint8","internalType":"enum SwapType"},{"name":"extRouter","type":"address","internalType":"address"},{"name":"extCalldata","type":"bytes","internalType":"bytes"},{"name":"needScale","type":"bool","internalType":"bool"}]}]},{"name":"limit","type":"tuple","internalType":"struct LimitOrderData","components":[{"name":"limitRouter","type":"address","internalType":"address"},{"name":"epsSkipMarket","type":"uint256","internalType":"uint256"},{"name":"normalFills","type":"tuple[]","internalType":"struct FillOrderParams[]","components":[{"name":"order","type":"tuple","internalType":"struct Order","components":[{"name":"salt","type":"uint256","internalType":"uint256"},{"name":"expiry","type":"uint256","internalType":"uint256"},{"name":"nonce","type":"uint256","internalType":"uint256"},{"name":"orderType","type":"uint8","internalType":"enum IPLimitOrderType.OrderType"},{"name":"token","type":"address","internalType":"address"},{"name":"YT","type":"address","internalType":"address"},{"name":"maker","type":"address","internalType":"address"},{"name":"receiver","type":"address","internalType":"address"},{"name":"makingAmount","type":"uint256","internalType":"uint256"},{"name":"lnImpliedRate","type":"uint256","internalType":"uint256"},{"name":"failSafeRate","type":"uint256","internalType":"uint256"},{"name":"permit","type":"bytes","internalType":"bytes"}]},{"name":"signature","type":"bytes","internalType":"bytes"},{"name":"makingAmount","type":"uint256","internalType":"uint256"}]},{"name":"flashFills","type":"tuple[]","internalType":"struct FillOrderParams[]","components":[{"name":"order","type":"tuple","internalType":"struct Order","components":[{"name":"salt","type":"uint256","internalType":"uint256"},{"name":"expiry","type":"uint256","internalType":"uint256"},{"name":"nonce","type":"uint256","internalType":"uint256"},{"name":"orderType","type":"uint8","internalType":"enum IPLimitOrderType.OrderType"},{"name":"token","type":"address","internalType":"address"},{"name":"YT","type":"address","internalType":"address"},{"name":"maker","type":"address","internalType":"address"},{"name":"receiver","type":"address","internalType":"address"},{"name":"makingAmount","type":"uint256","internalType":"uint256"},{"name":"lnImpliedRate","type":"uint256","internalType":"uint256"},{"name":"failSafeRate","type":"uint256","internalType":"uint256"},{"name":"permit","type":"bytes","internalType":"bytes"}]},{"name":"signature","type":"bytes","internalType":"bytes"},{"name":"makingAmount","type":"uint256","internalType":"uint256"}]},{"name":"optData","type":"bytes","internalType":"bytes"}]}],"stateMutability":"pure"},{"type":"function","name":"validateAndDecodeSwapPtForTokenParams","inputs":[{"name":"params","type":"bytes","internalType":"bytes"}],"outputs":[{"name":"receiver","type":"address","internalType":"address"},{"name":"swapMarket","type":"address","internalType":"address"},{"name":"exactPtIn","type":"uint256","internalType":"uint256"},{"name":"output","type":"tuple","internalType":"struct TokenOutput","components":[{"name":"tokenOut","type":"address","internalType":"address"},{"name":"minTokenOut","type":"uint256","internalType":"uint256"},{"name":"tokenRedeemSy","type":"address","internalType":"address"},{"name":"pendleSwap","type":"address","internalType":"address"},{"name":"swapData","type":"tuple","internalType":"struct SwapData","components":[{"name":"swapType","type":"uint8","internalType":"enum SwapType"},{"name":"extRouter","type":"address","internalType":"address"},{"name":"extCalldata","type":"bytes","internalType":"bytes"},{"name":"needScale","type":"bool","internalType":"bool"}]}]},{"name":"limit","type":"tuple","internalType":"struct LimitOrderData","components":[{"name":"limitRouter","type":"address","internalType":"address"},{"name":"epsSkipMarket","type":"uint256","internalType":"uint256"},{"name":"normalFills","type":"tuple[]","internalType":"struct FillOrderParams[]","components":[{"name":"order","type":"tuple","internalType":"struct Order","components":[{"name":"salt","type":"uint256","internalType":"uint256"},{"name":"expiry","type":"uint256","internalType":"uint256"},{"name":"nonce","type":"uint256","internalType":"uint256"},{"name":"orderType","type":"uint8","internalType":"enum IPLimitOrderType.OrderType"},{"name":"token","type":"address","internalType":"address"},{"name":"YT","type":"address","internalType":"address"},{"name":"maker","type":"address","internalType":"address"},{"name":"receiver","type":"address","internalType":"address"},{"name":"makingAmount","type":"uint256","internalType":"uint256"},{"name":"lnImpliedRate","type":"uint256","internalType":"uint256"},{"name":"failSafeRate","type":"uint256","internalType":"uint256"},{"name":"permit","type":"bytes","internalType":"bytes"}]},{"name":"signature","type":"bytes","internalType":"bytes"},{"name":"makingAmount","type":"uint256","internalType":"uint256"}]},{"name":"flashFills","type":"tuple[]","internalType":"struct FillOrderParams[]","components":[{"name":"order","type":"tuple","internalType":"struct Order","components":[{"name":"salt","type":"uint256","internalType":"uint256"},{"name":"expiry","type":"uint256","internalType":"uint256"},{"name":"nonce","type":"uint256","internalType":"uint256"},{"name":"orderType","type":"uint8","internalType":"enum IPLimitOrderType.OrderType"},{"name":"token","type":"address","internalType":"address"},{"name":"YT","type":"address","internalType":"address"},{"name":"maker","type":"address","internalType":"address"},{"name":"receiver","type":"address","internalType":"address"},{"name":"makingAmount","type":"uint256","internalType":"uint256"},{"name":"lnImpliedRate","type":"uint256","internalType":"uint256"},{"name":"failSafeRate","type":"uint256","internalType":"uint256"},{"name":"permit","type":"bytes","internalType":"bytes"}]},{"name":"signature","type":"bytes","internalType":"bytes"},{"name":"makingAmount","type":"uint256","internalType":"uint256"}]},{"name":"optData","type":"bytes","internalType":"bytes"}]}],"stateMutability":"pure"},{"type":"function","name":"withdrawExpiredMarket","inputs":[],"outputs":[],"stateMutability":"nonpayable"},{"type":"event","name":"ArkHarvested","inputs":[{"name":"rewardTokens","type":"address[]","indexed":true,"internalType":"address[]"},{"name":"rewardAmounts","type":"uint256[]","indexed":true,"internalType":"uint256[]"}],"anonymous":false},{"type":"event","name":"ArkPoked","inputs":[{"name":"currentPrice","type":"uint256","indexed":false,"internalType":"uint256"},{"name":"timestamp","type":"uint256","indexed":false,"internalType":"uint256"}],"anonymous":false},{"type":"event","name":"ArkSwept","inputs":[{"name":"sweptTokens","type":"address[]","indexed":true,"internalType":"address[]"},{"name":"sweptAmounts","type":"uint256[]","indexed":true,"internalType":"uint256[]"}],"anonymous":false},{"type":"event","name":"BasePriceUpdated","inputs":[{"name":"basePrice","type":"uint256","indexed":false,"internalType":"uint256"}],"anonymous":false},{"type":"event","name":"Boarded","inputs":[{"name":"commander","type":"address","indexed":true,"internalType":"address"},{"name":"token","type":"address","indexed":false,"internalType":"address"},{"name":"amount","type":"uint256","indexed":false,"internalType":"uint256"}],"anonymous":false},{"type":"event","name":"DepositCapUpdated","inputs":[{"name":"newCap","type":"uint256","indexed":false,"internalType":"uint256"}],"anonymous":false},{"type":"event","name":"Disembarked","inputs":[{"name":"commander","type":"address","indexed":true,"internalType":"address"},{"name":"token","type":"address","indexed":false,"internalType":"address"},{"name":"amount","type":"uint256","indexed":false,"internalType":"uint256"}],"anonymous":false},{"type":"event","name":"EmaRangeUpdated","inputs":[{"name":"lowerPercentageRange","type":"uint256","indexed":false,"internalType":"Percentage"},{"name":"upperPercentageRange","type":"uint256","indexed":false,"internalType":"Percentage"}],"anonymous":false},{"type":"event","name":"FleetCommanderRegistered","inputs":[{"name":"commander","type":"address","indexed":false,"internalType":"address"}],"anonymous":false},{"type":"event","name":"FleetCommanderUnregistered","inputs":[{"name":"commander","type":"address","indexed":false,"internalType":"address"}],"anonymous":false},{"type":"event","name":"MarketRolledOver","inputs":[{"name":"newMarket","type":"address","indexed":false,"internalType":"address"}],"anonymous":false},{"type":"event","name":"MaxDepositPercentageOfTVLUpdated","inputs":[{"name":"newMaxDepositPercentageOfTVL","type":"uint256","indexed":false,"internalType":"Percentage"}],"anonymous":false},{"type":"event","name":"MaxRebalanceInflowUpdated","inputs":[{"name":"newMaxInflow","type":"uint256","indexed":false,"internalType":"uint256"}],"anonymous":false},{"type":"event","name":"MaxRebalanceOutflowUpdated","inputs":[{"name":"newMaxOutflow","type":"uint256","indexed":false,"internalType":"uint256"}],"anonymous":false},{"type":"event","name":"Moved","inputs":[{"name":"from","type":"address","indexed":true,"internalType":"address"},{"name":"to","type":"address","indexed":true,"internalType":"address"},{"name":"token","type":"address","indexed":false,"internalType":"address"},{"name":"amount","type":"uint256","indexed":false,"internalType":"uint256"}],"anonymous":false},{"type":"event","name":"OracleDurationUpdated","inputs":[{"name":"oracleDuration","type":"uint32","indexed":false,"internalType":"uint32"}],"anonymous":false},{"type":"event","name":"RaftUpdated","inputs":[{"name":"newRaft","type":"address","indexed":false,"internalType":"address"}],"anonymous":false},{"type":"event","name":"SlippageUpdated","inputs":[{"name":"slippagePercentage","type":"uint256","indexed":false,"internalType":"Percentage"}],"anonymous":false},{"type":"error","name":"CallerIsNotAdmin","inputs":[{"name":"caller","type":"address","internalType":"address"}]},{"type":"error","name":"CallerIsNotAuthorizedToBoard","inputs":[{"name":"caller","type":"address","internalType":"address"}]},{"type":"error","name":"CallerIsNotCommander","inputs":[{"name":"caller","type":"address","internalType":"address"}]},{"type":"error","name":"CallerIsNotContractSpecificRole","inputs":[{"name":"caller","type":"address","internalType":"address"},{"name":"role","type":"bytes32","internalType":"bytes32"}]},{"type":"error","name":"CallerIsNotCurator","inputs":[{"name":"caller","type":"address","internalType":"address"}]},{"type":"error","name":"CallerIsNotDecayController","inputs":[{"name":"caller","type":"address","internalType":"address"}]},{"type":"error","name":"CallerIsNotGovernor","inputs":[{"name":"caller","type":"address","internalType":"address"}]},{"type":"error","name":"CallerIsNotGuardian","inputs":[{"name":"caller","type":"address","internalType":"address"}]},{"type":"error","name":"CallerIsNotGuardianOrGovernor","inputs":[{"name":"caller","type":"address","internalType":"address"}]},{"type":"error","name":"CallerIsNotKeeper","inputs":[{"name":"caller","type":"address","internalType":"address"}]},{"type":"error","name":"CallerIsNotRaft","inputs":[{"name":"caller","type":"address","internalType":"address"}]},{"type":"error","name":"CallerIsNotRaftOrCommander","inputs":[{"name":"caller","type":"address","internalType":"address"}]},{"type":"error","name":"CallerIsNotSuperKeeper","inputs":[{"name":"caller","type":"address","internalType":"address"}]},{"type":"error","name":"CannotAddCommanderToArkWithCommander","inputs":[]},{"type":"error","name":"CannotDeployArkWithEmptyName","inputs":[]},{"type":"error","name":"CannotDeployArkWithoutConfigurationManager","inputs":[]},{"type":"error","name":"CannotDeployArkWithoutRaft","inputs":[]},{"type":"error","name":"CannotDeployArkWithoutToken","inputs":[]},{"type":"error","name":"CannotRemoveCommanderFromArkWithAssets","inputs":[]},{"type":"error","name":"CannotUseKeeperDataWhenNotRequired","inputs":[]},{"type":"error","name":"ConfigurationManagerZeroAddress","inputs":[]},{"type":"error","name":"DirectGrantIsDisabled","inputs":[{"name":"caller","type":"address","internalType":"address"}]},{"type":"error","name":"DirectRevokeIsDisabled","inputs":[{"name":"caller","type":"address","internalType":"address"}]},{"type":"error","name":"ERC4626AssetMismatch","inputs":[]},{"type":"error","name":"EmaOutOfRange","inputs":[]},{"type":"error","name":"EmaRangeTooHigh","inputs":[{"name":"emaRange","type":"uint256","internalType":"Percentage"}]},{"type":"error","name":"InsufficientOutputAmount","inputs":[]},{"type":"error","name":"InvalidAccessManagerAddress","inputs":[{"name":"invalidAddress","type":"address","internalType":"address"}]},{"type":"error","name":"InvalidAssetForSY","inputs":[]},{"type":"error","name":"InvalidBaseToken","inputs":[{"name":"baseToken","type":"address","internalType":"address"}]},{"type":"error","name":"InvalidBoardData","inputs":[]},{"type":"error","name":"InvalidDisembarkData","inputs":[]},{"type":"error","name":"InvalidFunctionSelector","inputs":[]},{"type":"error","name":"InvalidMarket","inputs":[]},{"type":"error","name":"InvalidMarketExpiry","inputs":[]},{"type":"error","name":"InvalidNextMarket","inputs":[]},{"type":"error","name":"InvalidParamsLength","inputs":[]},{"type":"error","name":"InvalidReceiver","inputs":[]},{"type":"error","name":"InvalidSwapType","inputs":[]},{"type":"error","name":"InvalidVaultAddress","inputs":[]},{"type":"error","name":"KeeperDataRequired","inputs":[]},{"type":"error","name":"LowerEmaNotLessThanUpperEma","inputs":[]},{"type":"error","name":"MarketExpirationTooClose","inputs":[]},{"type":"error","name":"MarketExpired","inputs":[]},{"type":"error","name":"OracleDurationTooLow","inputs":[{"name":"oracleDuration","type":"uint32","internalType":"uint32"},{"name":"minOracleDuration","type":"uint256","internalType":"uint256"}]},{"type":"error","name":"ReentrancyGuardReentrantCall","inputs":[]},{"type":"error","name":"SafeERC20FailedOperation","inputs":[{"name":"token","type":"address","internalType":"address"}]},{"type":"error","name":"SlippagePercentageTooHigh","inputs":[{"name":"slippagePercentage","type":"uint256","internalType":"Percentage"},{"name":"maxSlippagePercentage","type":"uint256","internalType":"Percentage"}]},{"type":"error","name":"UpperEmaNotGreaterThanLowerEma","inputs":[]}],"bytecode":{"object":"0x60c060405234801561000f575f5ffd5b5060405161712438038061712483398101604081905261002e91610c8c565b8051825161003b90610490565b8260400151836060015184602001518282828a8080606001518160400151805f6001600160a01b0316816001600160a01b031603610093576040516347bd7c1d60e01b81525f60048201526024015b60405180910390fd5b6040516301ffc9a760e01b81526338c7ccdb60e01b60048201526001600160a01b038216906301ffc9a790602401602060405180830381865afa1580156100dc573d5f5f3e3d5ffd5b505050506040513d601f19601f820116820180604052508101906101009190610db5565b610128576040516347bd7c1d60e01b81526001600160a01b038216600482015260240161008a565b5f80546001600160a01b0319166001600160a01b03928316179055821690506101645760405163f1634df960e01b815260040160405180910390fd5b6001600160a01b039081166080526060820151166101955760405163b53c493160e01b815260040160405180910390fd5b60808101516001600160a01b03166101c3576040516001620a810f60e11b0319815260040160405180910390fd5b8051515f036101e55760405163268c072960e01b815260040160405180910390fd5b5f6101ee61055f565b6001600160a01b03160361021557604051633a4f9cdb60e21b815260040160405180910390fd5b6040805161014081019091525f81526020810161023061055f565b6001600160a01b039081168252608080850151821660208085019190915260a08087015160408087019190915260c08089015160608089019190915260e0808b0151878a01528a51858a01528a860151838a0152610100808c01511515918a01919091526101208b01519801979097528751600180549188166001600160a01b031992831617815594890151600280549189169183169190911790559188015160038054919097169216919091179094559385015160045590840151600555918301516006558201516007906103069082610e52565b5060e0820151600782019061031b9082610e52565b5061010082015160088201805460ff1916911515919091179055610120909101516009909101555061034f905083836105c7565b600d555050600e80546001600160a01b0319166001600160a01b0387811691909117909155841661039e5760405163dbea379360e01b81526001600160a01b038516600482015260240161008a565b5050600f80546001600160a01b03199081166001600160a01b039485161790915560408601516012805483169185169190911790556020860151831660a05285516011805490921693169290921790915550506013805463ffffffff60b81b191660e160bb1b179055610414603261271061067f565b6017558051600e80546001600160a01b0319166001600160a01b03909216919091179055815161044390610490565b601080546001600160a01b0319166001600160a01b039290921691909117905561046b6106b5565b601154610480906001600160a01b03166106d9565b610488610a39565b50505061112f565b5f5f826001600160a01b0316632c8ce6bc6040518163ffffffff1660e01b8152600401606060405180830381865afa1580156104ce573d5f5f3e3d5ffd5b505050506040513d601f19601f820116820180604052508101906104f29190610f0c565b50509050806001600160a01b031663a40bee506040518163ffffffff1660e01b8152600401606060405180830381865afa158015610532573d5f5f3e3d5ffd5b505050506040513d601f19601f820116820180604052508101906105569190610f66565b50949350505050565b5f6080516001600160a01b031663117d8ae06040518163ffffffff1660e01b8152600401602060405180830381865afa15801561059e573d5f5f3e3d5ffd5b505050506040513d601f19601f820116820180604052508101906105c29190610fa5565b905090565b6105e6826105d76012600a6110be565b6105e29060646110c9565b1090565b156106075760405163da02d69560e01b81526004810183905260240161008a565b610617816105d76012600a6110be565b156106385760405163da02d69560e01b81526004810182905260240161008a565b600b829055600c81905560408051838152602081018390527f8168a7fb0f1fff0693e7681fbfd2a2dbfe563344325f1db3a88498c76a6efeeb910160405180910390a15050565b5f8161068d6012600a6110be565b61069790856110c9565b6106a29060646110c9565b6106ac91906110e0565b90505b92915050565b5f19601a55610100601c556106d46103e8670de0b6b3a76400006110e0565b601d55565b601180546001600160a01b0319166001600160a01b03831690811790915560408051630b2339af60e21b81529051632c8ce6bc916004808201926060929091908290030181865afa158015610730573d5f5f3e3d5ffd5b505050506040513d601f19601f820116820180604052508101906107549190610f0c565b601680546001600160a01b03199081166001600160a01b03938416179091556015805482169383169390931790925560148054909216928116928317909155601054604051637d2d278360e11b81529116600482015263fa5a4f0690602401602060405180830381865afa1580156107ce573d5f5f3e3d5ffd5b505050506040513d601f19601f820116820180604052508101906107f29190610db5565b15806108695750601454601054604051633c21b3eb60e11b81526001600160a01b03918216600482015291169063784367d690602401602060405180830381865afa158015610843573d5f5f3e3d5ffd5b505050506040513d601f19601f820116820180604052508101906108679190610db5565b155b1561088757604051631bda904d60e31b815260040160405180910390fd5b6003546040805163313ce56760e01b815290516001600160a01b039092169163313ce567916004808201926020929091908290030181865afa1580156108cf573d5f5f3e3d5ffd5b505050506040513d601f19601f820116820180604052508101906108f391906110ff565b601360146101000a81548160ff021916908360ff16021790555060105f9054906101000a90046001600160a01b03166001600160a01b031663313ce5676040518163ffffffff1660e01b8152600401602060405180830381865afa15801561095d573d5f5f3e3d5ffd5b505050506040513d601f19601f8201168201806040525081019061098191906110ff565b601360156101000a81548160ff021916908360ff16021790555060155f9054906101000a90046001600160a01b03166001600160a01b031663313ce5676040518163ffffffff1660e01b8152600401602060405180830381865afa1580156109eb573d5f5f3e3d5ffd5b505050506040513d601f19601f82011682018060405250810190610a0f91906110ff565b6013805460ff92909216600160b01b0260ff60b01b19909216919091179055610a36610a39565b50565b60115f9054906101000a90046001600160a01b03166001600160a01b031663e184c9be6040518163ffffffff1660e01b8152600401602060405180830381865afa158015610a89573d5f5f3e3d5ffd5b505050506040513d601f19601f82011682018060405250810190610aad9190611118565b601855565b634e487b7160e01b5f52604160045260245ffd5b60405161014081016001600160401b0381118282101715610ae957610ae9610ab2565b60405290565b5f82601f830112610afe575f5ffd5b81516001600160401b03811115610b1757610b17610ab2565b604051601f8201601f19908116603f011681016001600160401b0381118282101715610b4557610b45610ab2565b604052818152838201602001851015610b5c575f5ffd5b8160208501602083015e5f918101602001919091529392505050565b6001600160a01b0381168114610a36575f5ffd5b8051610b9781610b78565b919050565b80518015158114610b97575f5ffd5b5f60608284031215610bbb575f5ffd5b604051606081016001600160401b0381118282101715610bdd57610bdd610ab2565b80604052508091508251610bf081610b78565b81526020830151610c0081610b78565b60208201526040830151610c1381610b78565b6040919091015292915050565b5f60808284031215610c30575f5ffd5b604051608081016001600160401b0381118282101715610c5257610c52610ab2565b80604052508091508251610c6581610b78565b81526020838101519082015260408084015190820152606092830151920191909152919050565b5f5f5f6101008486031215610c9f575f5ffd5b83516001600160401b03811115610cb4575f5ffd5b84016101408187031215610cc6575f5ffd5b610cce610ac6565b81516001600160401b03811115610ce3575f5ffd5b610cef88828501610aef565b82525060208201516001600160401b03811115610d0a575f5ffd5b610d1688828501610aef565b602083015250610d2860408301610b8c565b6040820152610d3960608301610b8c565b6060820152610d4a60808301610b8c565b608082015260a0828101519082015260c0808301519082015260e08083015190820152610d7a6101008301610b9c565b61010082015261012091820151918101919091529250610d9d8560208601610bab565b9150610dac8560808601610c20565b90509250925092565b5f60208284031215610dc5575f5ffd5b6106ac82610b9c565b600181811c90821680610de257607f821691505b602082108103610e0057634e487b7160e01b5f52602260045260245ffd5b50919050565b601f821115610e4d57805f5260205f20601f840160051c81016020851015610e2b5750805b601f840160051c820191505b81811015610e4a575f8155600101610e37565b50505b505050565b81516001600160401b03811115610e6b57610e6b610ab2565b610e7f81610e798454610dce565b84610e06565b6020601f821160018114610eb1575f8315610e9a5750848201515b5f19600385901b1c1916600184901b178455610e4a565b5f84815260208120601f198516915b82811015610ee05787850151825560209485019460019092019101610ec0565b5084821015610efd57868401515f19600387901b60f8161c191681555b50505050600190811b01905550565b5f5f5f60608486031215610f1e575f5ffd5b8351610f2981610b78565b6020850151909350610f3a81610b78565b6040850151909250610f4b81610b78565b809150509250925092565b805160ff81168114610b97575f5ffd5b5f5f5f60608486031215610f78575f5ffd5b835160028110610f86575f5ffd5b6020850151909350610f9781610b78565b9150610dac60408501610f56565b5f60208284031215610fb5575f5ffd5b8151610fc081610b78565b9392505050565b634e487b7160e01b5f52601160045260245ffd5b6001815b600184111561101657808504811115610ffa57610ffa610fc7565b600184161561100857908102905b60019390931c928002610fdf565b935093915050565b5f8261102c575060016106af565b8161103857505f6106af565b816001811461104e576002811461105857611074565b60019150506106af565b60ff84111561106957611069610fc7565b50506001821b6106af565b5060208310610133831016604e8410600b8410161715611097575081810a6106af565b6110a35f198484610fdb565b805f19048211156110b6576110b6610fc7565b029392505050565b5f6106ac838361101e565b80820281158282048414176106af576106af610fc7565b5f826110fa57634e487b7160e01b5f52601260045260245ffd5b500490565b5f6020828403121561110f575f5ffd5b6106ac82610f56565b5f60208284031215611128575f5ffd5b5051919050565b60805160a051615fa36111815f395f818161068d015281816133fb0152613b3a01525f81816107ca01528181610b6b0152818161129d015281816112fa01528181611e7b015261293f0152615fa35ff3fe608060405234801561000f575f5ffd5b5060043610610401575f3560e01c80638a8b997611610216578063c7876ea41161012a578063de4b3262116100b4578063ebf3113111610084578063ebf31131146108aa578063ec213865146108b2578063f66a7749146108c5578063f7e533ec146108dd578063f887ea40146108e5575f5ffd5b8063de4b326214610869578063e6aa216c1461087c578063ea1af6e014610884578063ebc136d014610897575f5ffd5b8063cf4685c6116100fa578063cf4685c61461082b578063d70ec14a14610833578063d8fca1ac1461083b578063d94073d41461084e578063dbd5edc714610861575f5ffd5b8063c7876ea4146107bc578063c9c667e3146107c5578063ce5c7f61146107ec578063cefba474146107ff575f5ffd5b8063afd27bf5116101ab578063c05bd92d1161017b578063c05bd92d1461075a578063c38a6f0b1461076d578063c3f909d414610780578063c55dae6314610795578063c64f9f0e146107a8575f5ffd5b8063afd27bf51461072e578063b31c329014610741578063ba3f4fb214610749578063bdcdd88214610752575f5ffd5b8063955c7bc0116101e6578063955c7bc014610701578063a377d6a514610709578063a968a7761461071d578063ad5a356f14610726575f5ffd5b80638a8b9976146106d55780638f1d3f00146106dd57806392f5e832146106e6578063930ec277146106f9575f5ffd5b80634318a7261161031857806369b3054b116102a257806379502c551161027257806379502c55146106625780637aaceb95146106805780637dc0d1d01461068857806380f55605146106af57806386651203146106c2575f5ffd5b806369b3054b146106085780636df441001461061b578063780469bb1461062e578063781c18db1461064f575f5ffd5b8063552d2e59116102e8578063552d2e59146105b95780635b0f83f3146105dd57806361d027b3146105e557806361f5cd8b146105ed57806364c8d8ef14610600575f5ffd5b80634318a726146105825780634452d81c1461058a5780634c283265146105935780634fc7fac3146105a6575f5ffd5b806322c180b511610399578063303dbaf311610369578063303dbaf3146105285780633194549e14610533578063326c488e1461053b578063372709361461056057806338d52e0f14610571575f5ffd5b806322c180b5146104b457806322dcc85f146104bc578063256d8a23146104d35780632db6d39914610515575f5ffd5b8063117d8ae0116103d4578063117d8ae01461047057806313c408f8146104905780631de0f095146104a35780631deae8c6146104ab575f5ffd5b806301a7c58c1461040557806301e1d1141461043057806303baf0661461044657806306fdde031461045b575b5f5ffd5b60135461041990600160b01b900460ff1681565b60405160ff90911681526020015b60405180910390f35b6104386108f8565b604051908152602001610427565b61045961045436600461429e565b61097e565b005b610463610ad5565b60405161042791906142e3565b610478610b68565b6040516001600160a01b039091168152602001610427565b61045961049e366004614332565b610be9565b610438610cb8565b61043861038481565b610438610cd0565b6018544210155b6040519015158152602001610427565b601954601a54601b54601c54601d546104ed949392919085565b604080519586526020860194909452928401919091526060830152608082015260a001610427565b610459610523366004614332565b610ce8565b60095460ff166104c3565b600554610438565b61054e610549366004614379565b610f09565b60405161042796959493929190614637565b6001546001600160a01b0316610478565b6003546001600160a01b0316610478565b610438611016565b61043860175481565b6104596105a13660046146bd565b6110ad565b6104596105b436600461429e565b61116e565b6105cc6105c7366004614379565b6111bc565b6040516104279594939291906146dd565b61047861129a565b6104786112f7565b6104596105fb36600461429e565b611354565b61045961139b565b610438610616366004614751565b611642565b61045961062936600461478b565b611675565b61064161063c36600461489b565b61178d565b60405161042792919061492f565b601654610478906001600160a01b031681565b61066a611d21565b6040516104279a999897969594939291906149b8565b610478611e78565b6104787f000000000000000000000000000000000000000000000000000000000000000081565b601154610478906001600160a01b031681565b6104596106d036600461429e565b611ed5565b610459611f1c565b61043860185481565b6104596106f436600461429e565b611f79565b610438611fc0565b610438611fda565b60135461041990600160a81b900460ff1681565b610438600b5481565b600654610438565b601454610478906001600160a01b031681565b610459611fee565b610438600c5481565b600a54610438565b610459610768366004614a2f565b611ff6565b61045961077b366004614a52565b61213a565b610788612293565b6040516104279190614adb565b600f54610478906001600160a01b031681565b60135461041990600160a01b900460ff1681565b610438600d5481565b6104787f000000000000000000000000000000000000000000000000000000000000000081565b6106416107fa366004614379565b61248c565b60135461081690600160b81b900463ffffffff1681565b60405163ffffffff9091168152602001610427565b610438612586565b61043861265d565b600e54610478906001600160a01b031681565b601554610478906001600160a01b031681565b600454610438565b61045961087736600461429e565b612666565b610438612726565b601054610478906001600160a01b031681565b6104c36108a536600461478b565b612757565b610459612838565b601354610478906001600160a01b031681565b6108cd61288a565b6040516104279493929190614bac565b61047861293c565b601254610478906001600160a01b031681565b5f306001600160a01b03166322dcc85f6040518163ffffffff1660e01b8152600401602060405180830381865afa158015610935573d5f5f3e3d5ffd5b505050506040513d601f19601f820116820180604052508101906109599190614bfe565b6109765761097160175461096b612586565b90612999565b905090565b610971612586565b6001546001600160a01b0316801580610a1557505f80546001600160a01b0316906391d14854906109af9084611642565b6040516001600160e01b031960e084901b1681526004810191909152336024820152604401602060405180830381865afa1580156109ef573d5f5f3e3d5ffd5b505050506040513d601f19601f82011682018060405250810190610a139190614bfe565b155b15610a3a576040516363b52ed760e11b81523360048201526024015b60405180910390fd5b610a5982610a4a6012600a614d10565b610a55906064614d1b565b1090565b15610a985781610a6b6012600a614d10565b610a76906064614d1b565b6040516328e9045960e11b815260048101929092526024820152604401610a31565b60178290556040518281527ff5a802650e0a86db227cc342f06327d2ca0ff5cf2b12e0084fc5d8a7db2c54fd906020015b60405180910390a15050565b606060016006018054610ae790614d32565b80601f0160208091040260200160405190810160405280929190818152602001828054610b1390614d32565b8015610b5e5780601f10610b3557610100808354040283529160200191610b5e565b820191905f5260205f20905b815481529060010190602001808311610b4157829003601f168201915b5050505050905090565b5f7f00000000000000000000000000000000000000000000000000000000000000006001600160a01b031663117d8ae06040518163ffffffff1660e01b8152600401602060405180830381865afa158015610bc5573d5f5f3e3d5ffd5b505050506040513d601f19601f820116820180604052508101906109719190614d75565b610bf16129ca565b610c1c57335b604051631564c0e160e11b81526001600160a01b039091166004820152602401610a31565b610c24612a53565b8181610c308282612ac0565b610c3a828261163d565b33610c46868686612b1e565b600354610c5d906001600160a01b03168288612b9d565b6003546040516001600160a01b03838116927fd5e872c5ecfb1bb8820b2e6a20e31b883682282da886621541f71e31ec11947e92610ca092909116908a90614d90565b60405180910390a2505050610cb3612bf5565b505050565b5f610971600b54600d5461299990919063ffffffff16565b5f610971600c54600d54612c1f90919063ffffffff16565b610cf0612a53565b306001600160a01b031663372709366040518163ffffffff1660e01b8152600401602060405180830381865afa158015610d2c573d5f5f3e3d5ffd5b505050506040513d601f19601f82011682018060405250810190610d509190614d75565b610d586129ca565b610e77575f3390505f306001600160a01b031663117d8ae06040518163ffffffff1660e01b8152600401602060405180830381865afa158015610d9d573d5f5f3e3d5ffd5b505050506040513d601f19601f82011682018060405250810190610dc19190614d75565b6001600160a01b0316826001600160a01b031614905080610e745760405163d25dd10160e01b81526001600160a01b0383811660048301525f919085169063d25dd10190602401602060405180830381865afa158015610e23573d5f5f3e3d5ffd5b505050506040513d601f19601f82011682018060405250810190610e479190614bfe565b905080610e7257604051638f7a567d60e01b81526001600160a01b0384166004820152602401610a31565b505b50505b8282610e838282612ac0565b610e8d828261163d565b6003543390610ea7906001600160a01b031682308a612c44565b610eb2878787612c83565b6003546040516001600160a01b03838116927fcbaa1442ac205415c9d69643e7b60ec73d1de35dbc807c21ec288c70ddc4207b92610ef592909116908b90614d90565b60405180910390a250505050610cb3612bf5565b5f5f5f610f396040518060a001604052805f81526020015f81526020015f81526020015f81526020015f81525090565b610f41614231565b610f7a6040518060a001604052805f6001600160a01b031681526020015f81526020016060815260200160608152602001606081525090565b6004871015610f9c57604051633e5431b160e21b815260040160405180910390fd5b5f610faa6004828a8c614da9565b610fb391614dd0565b90506001600160e01b0319811663640fc23d60e11b14610fe6576040516342868c9b60e01b815260040160405180910390fd5b610ff3886004818c614da9565b81019061100091906151ff565b949e939d50919b50995097509095509350505050565b600e546040516390d2083760e01b81525f60048201819052916001600160a01b0316906390d20837906024015b602060405180830381865afa15801561105e573d5f5f3e3d5ffd5b505050506040513d601f19601f8201168201806040525081019061108291906152e2565b905061108c612c96565b156110aa57610971816ec097ce7bc90715b34b9f10000000006152f9565b90565b6001546001600160a01b031680158061114457505f80546001600160a01b0316906391d14854906110de9084611642565b6040516001600160e01b031960e084901b1681526004810191909152336024820152604401602060405180830381865afa15801561111e573d5f5f3e3d5ffd5b505050506040513d601f19601f820116820180604052508101906111429190614bfe565b155b15611164576040516363b52ed760e11b8152336004820152602401610a31565b610cb38383612d18565b6111766129ca565b6111805733610bf7565b600a8190556040518181527fd3c6d0ab315f2f1352f036cd9f401b49e38e1b90907e195225e8105f9a0b6f02906020015b60405180910390a150565b5f5f5f6111c7614231565b6112006040518060a001604052805f6001600160a01b031681526020015f81526020016060815260200160608152602001606081525090565b600486101561122257604051633e5431b160e21b815260040160405180910390fd5b5f611230600482898b614da9565b61123991614dd0565b90506001600160e01b03198116631652a23360e21b1461126c576040516342868c9b60e01b815260040160405180910390fd5b611279876004818b614da9565b8101906112869190615318565b939c929b5090995097509095509350505050565b5f7f00000000000000000000000000000000000000000000000000000000000000006001600160a01b0316635b0f83f36040518163ffffffff1660e01b8152600401602060405180830381865afa158015610bc5573d5f5f3e3d5ffd5b5f7f00000000000000000000000000000000000000000000000000000000000000006001600160a01b03166361d027b36040518163ffffffff1660e01b8152600401602060405180830381865afa158015610bc5573d5f5f3e3d5ffd5b61135c6129ca565b6113665733610bf7565b60058190556040518181527ffbe2d5c01ea8ba5596d6c4e6c82c6d4a0a0ee1128689993a4a5ba0169273d69f906020016111b1565b5f5460408051630ccc574960e41b815290516001600160a01b03909216916391d1485491839163ccc57490916004808201926020929091908290030181865afa1580156113ea573d5f5f3e3d5ffd5b505050506040513d601f19601f8201168201806040525081019061140e91906152e2565b6040516001600160e01b031960e084901b1681526004810191909152336024820152604401602060405180830381865afa15801561144e573d5f5f3e3d5ffd5b505050506040513d601f19601f820116820180604052508101906114729190614bfe565b61149157604051630ea7d7ed60e21b8152336004820152602401610a31565b306001600160a01b03166322dcc85f6040518163ffffffff1660e01b8152600401602060405180830381865afa1580156114cd573d5f5f3e3d5ffd5b505050506040513d601f19601f820116820180604052508101906114f19190614bfe565b15611640576015546040516370a0823160e01b81523060048201525f916001600160a01b0316906370a0823190602401602060405180830381865afa15801561153c573d5f5f3e3d5ffd5b505050506040513d601f19601f8201168201806040525081019061156091906152e2565b905061156c8182612dba565b6010546040516370a0823160e01b81523060048201526001600160a01b039091169063a9059cbb90339083906370a0823190602401602060405180830381865afa1580156115bc573d5f5f3e3d5ffd5b505050506040513d601f19601f820116820180604052508101906115e091906152e2565b6040518363ffffffff1660e01b81526004016115fd929190614d90565b6020604051808303815f875af1158015611619573d5f5f3e3d5ffd5b505050506040513d601f19601f8201168201806040525081019061163d9190614bfe565b50505b565b5f82826040516020016116569291906153a8565b6040516020818303038152906040528051906020012090505b92915050565b5f5460408051630ccc574960e41b815290516001600160a01b03909216916391d1485491839163ccc57490916004808201926020929091908290030181865afa1580156116c4573d5f5f3e3d5ffd5b505050506040513d601f19601f820116820180604052508101906116e891906152e2565b6040516001600160e01b031960e084901b1681526004810191909152336024820152604401602060405180830381865afa158015611728573d5f5f3e3d5ffd5b505050506040513d601f19601f8201168201806040525081019061174c9190614bfe565b61176b57604051630ea7d7ed60e21b8152336004820152602401610a31565b601380546001600160a01b0319166001600160a01b0392909216919091179055565b606080306001600160a01b031663117d8ae06040518163ffffffff1660e01b8152600401602060405180830381865afa1580156117cc573d5f5f3e3d5ffd5b505050506040513d601f19601f820116820180604052508101906117f09190614d75565b6001600160a01b0316336001600160a01b03161461182f57335b604051631184b31b60e21b81526001600160a01b039091166004820152602401610a31565b611837612a53565b82516001600160401b03811115611850576118506147a6565b604051908082528060200260200182016040528015611879578160200160208202803683370190505b50915082516001600160401b03811115611895576118956147a6565b6040519080825280602002602001820160405280156118be578160200160208202803683370190505b506003546040516370a0823160e01b81523060048201529192505f916001600160a01b03909116906370a0823190602401602060405180830381865afa15801561190a573d5f5f3e3d5ffd5b505050506040513d601f19601f8201168201806040525081019061192e91906152e2565b1115611af257600154604080516330fe427560e21b815290515f926001600160a01b03169163c3f909d49160048083019260a09291908290030181865afa15801561197b573d5f5f3e3d5ffd5b505050506040513d601f19601f8201168201806040525081019061199f91906153df565b516003546040516370a0823160e01b8152306004820152919250611a249183916001600160a01b0316906370a0823190602401602060405180830381865afa1580156119ed573d5f5f3e3d5ffd5b505050506040513d601f19601f82011682018060405250810190611a1191906152e2565b6003546001600160a01b03169190613038565b6003546040516370a0823160e01b81523060048201526001600160a01b0383811692632db6d399929116906370a0823190602401602060405180830381865afa158015611a73573d5f5f3e3d5ffd5b505050506040513d601f19601f82011682018060405250810190611a9791906152e2565b60405180602001604052805f8152506040518363ffffffff1660e01b8152600401611ac392919061543e565b5f604051808303815f87803b158015611ada575f5ffd5b505af1158015611aec573d5f5f3e3d5ffd5b50505050505b5f5b8351811015611cc0575f848281518110611b1057611b10615456565b60209081029190910101516040516370a0823160e01b81523060048201526001600160a01b03909116906370a0823190602401602060405180830381865afa158015611b5e573d5f5f3e3d5ffd5b505050506040513d601f19601f82011682018060405250810190611b8291906152e2565b90508015611cb757611c4b611b95610b68565b868481518110611ba757611ba7615456565b60209081029190910101516040516370a0823160e01b81523060048201526001600160a01b03909116906370a0823190602401602060405180830381865afa158015611bf5573d5f5f3e3d5ffd5b505050506040513d601f19601f82011682018060405250810190611c1991906152e2565b878581518110611c2b57611c2b615456565b60200260200101516001600160a01b0316612b9d9092919063ffffffff16565b848281518110611c5d57611c5d615456565b6020026020010151848381518110611c7757611c77615456565b60200260200101906001600160a01b031690816001600160a01b03168152505080838381518110611caa57611caa615456565b6020026020010181815250505b50600101611af4565b5080604051611ccf919061546a565b604051809103902082604051611ce5919061549f565b604051908190038120907f46b8771620f6acf56cb03d3e835ea8024c7dcbcf05fcc3f6ade9e19d1a3e212b905f90a3611d1c612bf5565b915091565b60018054600254600354600454600554600654600780546001600160a01b03978816989688169790951695939492939192611d5b90614d32565b80601f0160208091040260200160405190810160405280929190818152602001828054611d8790614d32565b8015611dd25780601f10611da957610100808354040283529160200191611dd2565b820191905f5260205f20905b815481529060010190602001808311611db557829003601f168201915b505050505090806007018054611de790614d32565b80601f0160208091040260200160405190810160405280929190818152602001828054611e1390614d32565b8015611e5e5780601f10611e3557610100808354040283529160200191611e5e565b820191905f5260205f20905b815481529060010190602001808311611e4157829003601f168201915b505050506008830154600990930154919260ff169190508a565b5f7f00000000000000000000000000000000000000000000000000000000000000006001600160a01b0316637aaceb956040518163ffffffff1660e01b8152600401602060405180830381865afa158015610bc5573d5f5f3e3d5ffd5b611edd6129ca565b611ee75733610bf7565b60048190556040518181527f333b26cca69716ad4680ddb07663f5bfb4f06045671f336af9a83690a3ae00f9906020016111b1565b611f246129ca565b611f2e5733610bf7565b600180546001600160a01b031916339081179091556040519081527f55489ce0259bd691120d8860861be1c401c7c16a3cd268d21045756af4ecc5ca906020015b60405180910390a1565b611f816129ca565b611f8b5733610bf7565b60068190556040518181527fb6ac66853c4e59c71e118d25ab494bb847c4e5eb0c8894898c5343e6f61afc12906020016111b1565b611fcc6012600a614d10565b611fd7906064614d1b565b81565b5f611fe3612726565b9050610971816130c8565b611640613105565b6001546001600160a01b031680158061208d57505f80546001600160a01b0316906391d14854906120279084611642565b6040516001600160e01b031960e084901b1681526004810191909152336024820152604401602060405180830381865afa158015612067573d5f5f3e3d5ffd5b505050506040513d601f19601f8201168201806040525081019061208b9190614bfe565b155b156120ad576040516363b52ed760e11b8152336004820152602401610a31565b6103848263ffffffff1610156120e657604051630d33f2b360e21b815263ffffffff831660048201526103846024820152604401610a31565b6013805463ffffffff60b81b1916600160b81b63ffffffff8516908102919091179091556040519081527f4b3aa5c9fb94258bcc25dd74639341b3baf9771cfb27c62dbc11af634747aa4d90602001610ac9565b6121426129ca565b61214c5733610bf7565b81816121588282612ac0565b612162828261163d565b61216d888585612b1e565b60035460405163095ea7b360e01b81526001600160a01b039091169063095ea7b39061219f908a908c90600401614d90565b6020604051808303815f875af11580156121bb573d5f5f3e3d5ffd5b505050506040513d601f19601f820116820180604052508101906121df9190614bfe565b50604051632db6d39960e01b81526001600160a01b03881690632db6d39990612210908b908a908a906004016154d2565b5f604051808303815f87803b158015612227575f5ffd5b505af1158015612239573d5f5f3e3d5ffd5b50506003546040516001600160a01b03808c1694503093507f9f784fc02a186f1c98b2d9f15fda084da27cdd291a3785d978f91911d880516b92612281929116908d90614d90565b60405180910390a35050505050505050565b6122fe6040518061014001604052805f6001600160a01b031681526020015f6001600160a01b031681526020015f6001600160a01b031681526020015f81526020015f81526020015f815260200160608152602001606081526020015f151581526020015f81525090565b6040805161014081018252600180546001600160a01b0390811683526002548116602084015260035416928201929092526004546060820152600554608082015260065460a08201526007805491929160c08401919061235d90614d32565b80601f016020809104026020016040519081016040528092919081815260200182805461238990614d32565b80156123d45780601f106123ab576101008083540402835291602001916123d4565b820191905f5260205f20905b8154815290600101906020018083116123b757829003601f168201915b505050505081526020016007820180546123ed90614d32565b80601f016020809104026020016040519081016040528092919081815260200182805461241990614d32565b80156124645780601f1061243b57610100808354040283529160200191612464565b820191905f5260205f20905b81548152906001019060200180831161244757829003601f168201915b5050509183525050600882015460ff1615156020820152600990910154604090910152919050565b606080306001600160a01b031663117d8ae06040518163ffffffff1660e01b8152600401602060405180830381865afa1580156124cb573d5f5f3e3d5ffd5b505050506040513d601f19601f820116820180604052508101906124ef9190614d75565b6001600160a01b0316336001600160a01b03161461250d573361180a565b612515612a53565b61251f8484613286565b604051919350915061253290829061546a565b604051809103902082604051612548919061549f565b604051908190038120907f3e3e7958121b3e39c7a49392d1aa9cdce870c2a059744f9e15cf66fff7865455905f90a361257f612bf5565b9250929050565b5f5f670de0b6b3a76400006125996133c1565b6015546040516370a0823160e01b81523060048201526001600160a01b03909116906370a0823190602401602060405180830381865afa1580156125df573d5f5f3e3d5ffd5b505050506040513d601f19601f8201168201806040525081019061260391906152e2565b61260d9190614d1b565b61261791906152f9565b90505f61262261265d565b6013549091505f90829061264190600160a01b900460ff16600a615507565b61264b9085614d1b565b61265591906152f9565b949350505050565b5f611fe3611016565b6001546001600160a01b03168015806126fd57505f80546001600160a01b0316906391d14854906126979084611642565b6040516001600160e01b031960e084901b1681526004810191909152336024820152604401602060405180830381865afa1580156126d7573d5f5f3e3d5ffd5b505050506040513d601f19601f820116820180604052508101906126fb9190614bfe565b155b1561271d576040516363b52ed760e11b8152336004820152602401610a31565b61163d82613464565b600e54604051631c98d5a960e11b81525f60048201819052916001600160a01b031690633931ab5290602401611043565b5f80546040805163a89f38a360e01b815290516001600160a01b03909216916391d1485491839163a89f38a3916004808201926020929091908290030181865afa1580156127a7573d5f5f3e3d5ffd5b505050506040513d601f19601f820116820180604052508101906127cb91906152e2565b6040516001600160e01b031960e084901b16815260048101919091526001600160a01b0385166024820152604401602060405180830381865afa158015612814573d5f5f3e3d5ffd5b505050506040513d601f19601f8201168201806040525081019061166f9190614bfe565b6128406129ca565b61284a5733610bf7565b600180546001600160a01b03191690556040513381527f7cb941d7b1708e5b3bcd35ca960d6c6311188cec18886e5b67630552676b048790602001611f6f565b602380546024805460ff8316936101009093046001600160a01b03169291906128b290614d32565b80601f01602080910402602001604051908101604052809291908181526020018280546128de90614d32565b80156129295780601f1061290057610100808354040283529160200191612929565b820191905f5260205f20905b81548152906001019060200180831161290c57829003601f168201915b5050506002909301549192505060ff1684565b5f7f00000000000000000000000000000000000000000000000000000000000000006001600160a01b031663f7e533ec6040518163ffffffff1660e01b8152600401602060405180830381865afa158015610bc5573d5f5f3e3d5ffd5b5f6129c3836129be6129ad6012600a614d10565b6129b8906064614d1b565b85613499565b6134a4565b9392505050565b5f80546001600160a01b03166391d148546129e6600230611642565b336040516001600160e01b031960e085901b16815260048101929092526001600160a01b03166024820152604401602060405180830381865afa158015612a2f573d5f5f3e3d5ffd5b505050506040513d601f19601f820116820180604052508101906109719190614bfe565b7f9b779b17422d0df92223018b32b4d1fa46e071723d6817e2486d003becc55f005c15612a9357604051633ee5aeb560e01b815260040160405180910390fd5b61164060017f9b779b17422d0df92223018b32b4d1fa46e071723d6817e2486d003becc55f005b906134d0565b8015801590612ad2575060095460ff16155b15612af057604051630cd0fdf960e01b815260040160405180910390fd5b80158015612b00575060095460ff165b1561163d5760405163332863a960e11b815260040160405180910390fd5b612b266134d7565b612b2e613105565b306001600160a01b03166322dcc85f6040518163ffffffff1660e01b8152600401602060405180830381865afa158015612b6a573d5f5f3e3d5ffd5b505050506040513d601f19601f82011682018060405250810190612b8e9190614bfe565b610cb357610cb3838383613514565b610cb383846001600160a01b031663a9059cbb8585604051602401612bc3929190614d90565b604051602081830303815290604052915060e01b6020820180516001600160e01b03838183161783525050505061379b565b6116405f7f9b779b17422d0df92223018b32b4d1fa46e071723d6817e2486d003becc55f00612aba565b5f6129c3836129be612c336012600a614d10565b612c3e906064614d1b565b85613807565b6040516001600160a01b038481166024830152838116604483015260648201839052612c7d9186918216906323b872dd90608401612bc3565b50505050565b612c8b613105565b610cb3838383613812565b600f54600e5460405163c661065760e01b8152600160048201525f926001600160a01b0390811692169063c661065790602401602060405180830381865afa158015612ce4573d5f5f3e3d5ffd5b505050506040513d601f19601f82011682018060405250810190612d089190614d75565b6001600160a01b03161415905090565b612d2882610a4a6012600a614d10565b15612d495760405163da02d69560e01b815260048101839052602401610a31565b612d5981610a4a6012600a614d10565b15612d7a5760405163da02d69560e01b815260048101829052602401610a31565b600b829055600c81905560408051838152602081018390527f8168a7fb0f1fff0693e7681fbfd2a2dbfe563344325f1db3a88498c76a6efeeb9101610ac9565b8115612ebc5760155460125460405163095ea7b360e01b81526001600160a01b039283169263095ea7b392612df6929116908690600401614d90565b6020604051808303815f875af1158015612e12573d5f5f3e3d5ffd5b505050506040513d601f19601f82011682018060405250810190612e369190614bfe565b5060125460165460405163339748cb60e01b81523060048201526001600160a01b039182166024820152604481018590526064810184905291169063339748cb906084016020604051808303815f875af1158015612e96573d5f5f3e3d5ffd5b505050506040513d601f19601f82011682018060405250810190612eba91906152e2565b505b6014546040516370a0823160e01b81523060048201525f916001600160a01b0316906370a0823190602401602060405180830381865afa158015612f02573d5f5f3e3d5ffd5b505050506040513d601f19601f82011682018060405250810190612f2691906152e2565b90508015610cb35760145460105460405163cbe52ae360e01b81525f926001600160a01b039081169263cbe52ae392612f6792909116908690600401614d90565b602060405180830381865afa158015612f82573d5f5f3e3d5ffd5b505050506040513d601f19601f82011682018060405250810190612fa691906152e2565b60145460105460405163769f8e5d60e01b8152306004820152602481018690526001600160a01b039182166044820152606481018490525f6084820152929350169063769f8e5d9060a4016020604051808303815f875af115801561300d573d5f5f3e3d5ffd5b505050506040513d601f19601f8201168201806040525081019061303191906152e2565b5050505050565b5f836001600160a01b031663095ea7b3848460405160240161305b929190614d90565b604051602081830303815290604052915060e01b6020820180516001600160e01b03838183161783525050505090506130948482613ab7565b612c7d576130be84856001600160a01b031663095ea7b3865f604051602401612bc3929190614d90565b612c7d848261379b565b5f5f6130d2610cb8565b90505f6130dd610cd0565b9050818410156130ee575092915050565b808411156130fd579392505050565b509192915050565b60185442101561311157565b5f306001600160a01b031663ec2138656040518163ffffffff1660e01b8152600401602060405180830381865afa15801561314e573d5f5f3e3d5ffd5b505050506040513d601f19601f820116820180604052508101906131729190614d75565b90506001600160a01b038116158061319757506011546001600160a01b038281169116145b156131b5576040516301fb70bf60e21b815260040160405180910390fd5b6131be81613b00565b6131c55750565b6015546040516370a0823160e01b81523060048201525f916001600160a01b0316906370a0823190602401602060405180830381865afa15801561320b573d5f5f3e3d5ffd5b505050506040513d601f19601f8201168201806040525081019061322f91906152e2565b905061323b8182612dba565b61324482613bb8565b61324d81613f13565b6040516001600160a01b03831681527f3b7aba7495f95b008f26fc1548021f2fb059ad26ef38f422178347e2b585989890602001610ac9565b60608060115f9054906101000a90046001600160a01b03166001600160a01b031663c4f59f9b6040518163ffffffff1660e01b81526004015f60405180830381865afa1580156132d8573d5f5f3e3d5ffd5b505050506040513d5f823e601f3d908101601f191682016040526132ff9190810190615515565b601154604051639262187b60e01b81523060048201529193506001600160a01b031690639262187b906024015f604051808303815f875af1158015613346573d5f5f3e3d5ffd5b505050506040513d5f823e601f3d908101601f1916820160405261336d91908101906155a4565b90505f5b82518110156133b9576133b1613385610b68565b83838151811061339757613397615456565b6020026020010151858481518110611c2b57611c2b615456565b600101613371565b509250929050565b60115460135460405163abca0eab60e01b81526001600160a01b039283166004820152600160b81b90910463ffffffff1660248201525f917f0000000000000000000000000000000000000000000000000000000000000000169063abca0eab90604401602060405180830381865afa158015613440573d5f5f3e3d5ffd5b505050506040513d601f19601f8201168201806040525081019061097191906152e2565b600d8190556040518181527ffab5bcbec79a8b5888e114fd4b378427aa58d9b237d85056f0ee5b3ea57df8c5906020016111b1565b5f6129c3828461562a565b5f6134b16012600a614d10565b6134bc906064614d1b565b6134c68385614d1b565b6129c391906152f9565b80825d5050565b6134f76134e2611016565b6134ea610cb8565b6134f2610cd0565b614152565b61164057604051638de5208960e01b815260040160405180910390fd5b5f613521828401846156a0565b9050306001600160a01b03166322dcc85f6040518163ffffffff1660e01b8152600401602060405180830381865afa15801561355f573d5f5f3e3d5ffd5b505050506040513d601f19601f820116820180604052508101906135839190614bfe565b156135a15760405163b2094b5960e01b815260040160405180910390fd5b805160405163552d2e5960e01b81525f918291829182918291309163552d2e59916135ce916004016142e3565b5f60405180830381865afa1580156135e8573d5f5f3e3d5ffd5b505050506040513d5f823e601f3d908101601f1916820160405261360f9190810190615a6d565b94509450945094509450306001600160a01b0316856001600160a01b03161461364b57604051631e4ec46b60e01b815260040160405180910390fd5b6011546001600160a01b0385811691161461367957604051639db8d5b160e01b815260040160405180910390fd5b816020015189101561369e576040516342301c2360e01b815260040160405180910390fd5b60155460125460405163095ea7b360e01b81526001600160a01b039283169263095ea7b3926136d4929116908790600401614d90565b6020604051808303815f875af11580156136f0573d5f5f3e3d5ffd5b505050506040513d601f19601f820116820180604052508101906137149190614bfe565b50601254604051631652a23360e21b81526001600160a01b039091169063594a88cc9061374d90889088908890889088906004016146dd565b6060604051808303815f875af1158015613769573d5f5f3e3d5ffd5b505050506040513d601f19601f8201168201806040525081019061378d9190615af2565b505050505050505050505050565b5f5f60205f8451602086015f885af1806137ba576040513d5f823e3d81fd5b50505f513d915081156137d15780600114156137de565b6001600160a01b0384163b155b15612c7d57604051635274afe760e01b81526001600160a01b0385166004820152602401610a31565b5f6129c38284615b1d565b61381a6134d7565b61382742621a5e00615b1d565b601854116138485760405163eb86c49b60e01b815260040160405180910390fd5b5f613855828401846156a0565b9050306001600160a01b03166322dcc85f6040518163ffffffff1660e01b8152600401602060405180830381865afa158015613893573d5f5f3e3d5ffd5b505050506040513d601f19601f820116820180604052508101906138b79190614bfe565b156138d55760405163b2094b5960e01b815260040160405180910390fd5b5f5f5f5f5f5f306001600160a01b031663326c488e885f01516040518263ffffffff1660e01b815260040161390a91906142e3565b5f60405180830381865afa158015613924573d5f5f3e3d5ffd5b505050506040513d5f823e601f3d908101601f1916820160405261394b9190810190615b30565b955095509550955095509550306001600160a01b0316866001600160a01b03161461398957604051631e4ec46b60e01b815260040160405180910390fd5b6011546001600160a01b038681169116146139b757604051639db8d5b160e01b815260040160405180910390fd5b60035460125460405163095ea7b360e01b81526001600160a01b039283169263095ea7b3926139ed929116908e90600401614d90565b6020604051808303815f875af1158015613a09573d5f5f3e3d5ffd5b505050506040513d601f19601f82011682018060405250810190613a2d9190614bfe565b5060125460405163640fc23d60e11b81526001600160a01b039091169063c81f847a90613a6890899089908990899089908990600401614637565b6060604051808303815f875af1158015613a84573d5f5f3e3d5ffd5b505050506040513d601f19601f82011682018060405250810190613aa89190615af2565b50505050505050505050505050565b5f5f5f5f60205f8651602088015f8a5af192503d91505f519050828015613af657508115613ae85780600114613af6565b5f866001600160a01b03163b115b9695505050505050565b60135460405162439f4b60e91b81526001600160a01b038381166004830152600160b81b90920463ffffffff1660248201525f91829182917f0000000000000000000000000000000000000000000000000000000000000000169063873e960090604401606060405180830381865afa158015613b7f573d5f5f3e3d5ffd5b505050506040513d601f19601f82011682018060405250810190613ba39190615c09565b92505091508115801561265557509392505050565b601180546001600160a01b0319166001600160a01b03831690811790915560408051630b2339af60e21b81529051632c8ce6bc916004808201926060929091908290030181865afa158015613c0f573d5f5f3e3d5ffd5b505050506040513d601f19601f82011682018060405250810190613c339190615c59565b601680546001600160a01b03199081166001600160a01b03938416179091556015805482169383169390931790925560148054909216928116928317909155601054604051637d2d278360e11b81529116600482015263fa5a4f0690602401602060405180830381865afa158015613cad573d5f5f3e3d5ffd5b505050506040513d601f19601f82011682018060405250810190613cd19190614bfe565b1580613d485750601454601054604051633c21b3eb60e11b81526001600160a01b03918216600482015291169063784367d690602401602060405180830381865afa158015613d22573d5f5f3e3d5ffd5b505050506040513d601f19601f82011682018060405250810190613d469190614bfe565b155b15613d6657604051631bda904d60e31b815260040160405180910390fd5b6003546040805163313ce56760e01b815290516001600160a01b039092169163313ce567916004808201926020929091908290030181865afa158015613dae573d5f5f3e3d5ffd5b505050506040513d601f19601f82011682018060405250810190613dd29190615c98565b601360146101000a81548160ff021916908360ff16021790555060105f9054906101000a90046001600160a01b03166001600160a01b031663313ce5676040518163ffffffff1660e01b8152600401602060405180830381865afa158015613e3c573d5f5f3e3d5ffd5b505050506040513d601f19601f82011682018060405250810190613e609190615c98565b601360156101000a81548160ff021916908360ff16021790555060155f9054906101000a90046001600160a01b03166001600160a01b031663313ce5676040518163ffffffff1660e01b8152600401602060405180830381865afa158015613eca573d5f5f3e3d5ffd5b505050506040513d601f19601f82011682018060405250810190613eee9190615c98565b601360166101000a81548160ff021916908360ff160217905550613f10614168565b50565b5f613f2360175461096b846141e1565b6040805160a0810182526010546001600160a01b031680825260208201869052818301525f60608201819052825160808181019094526023805495965091949293840192909190829060ff166003811115613f8057613f806143b7565b6003811115613f9157613f916143b7565b8152815461010090046001600160a01b03166020820152600182018054604090920191613fbd90614d32565b80601f0160208091040260200160405190810160405280929190818152602001828054613fe990614d32565b80156140345780601f1061400b57610100808354040283529160200191614034565b820191905f5260205f20905b81548152906001019060200180831161401757829003601f168201915b50505091835250506002919091015460ff161515602090910152905260105460125460405163095ea7b360e01b81529293506001600160a01b039182169263095ea7b3926140889216908790600401614d90565b6020604051808303815f875af11580156140a4573d5f5f3e3d5ffd5b505050506040513d601f19601f820116820180604052508101906140c89190614bfe565b5060125460115460405163640fc23d60e11b81526001600160a01b039283169263c81f847a9261410a9230929091169087906019908890601e90600401615ec5565b6060604051808303815f875af1158015614126573d5f5f3e3d5ffd5b505050506040513d601f19601f8201168201806040525081019061414a9190615af2565b505050505050565b5f82841015801561265557505090911115919050565b60115f9054906101000a90046001600160a01b03166001600160a01b031663e184c9be6040518163ffffffff1660e01b8152600401602060405180830381865afa1580156141b8573d5f5f3e3d5ffd5b505050506040513d601f19601f820116820180604052508101906141dc91906152e2565b601855565b6013545f90819060ff600160a81b820481169161420891600160b01b909104166012615f3b565b6142129190615f54565b61421d90600a615507565b90506142276133c1565b6134c68285614d1b565b6040518060a001604052805f6001600160a01b031681526020015f81526020015f6001600160a01b031681526020015f6001600160a01b031681526020016142996040805160808101909152805f81525f602082018190526060604083018190529091015290565b905290565b5f602082840312156142ae575f5ffd5b5035919050565b5f81518084528060208401602086015e5f602082860101526020601f19601f83011685010191505092915050565b602081525f6129c360208301846142b5565b5f5f83601f840112614305575f5ffd5b5081356001600160401b0381111561431b575f5ffd5b60208301915083602082850101111561257f575f5ffd5b5f5f5f60408486031215614344575f5ffd5b8335925060208401356001600160401b03811115614360575f5ffd5b61436c868287016142f5565b9497909650939450505050565b5f5f6020838503121561438a575f5ffd5b82356001600160401b0381111561439f575f5ffd5b6143ab858286016142f5565b90969095509350505050565b634e487b7160e01b5f52602160045260245ffd5b60048110613f1057613f106143b7565b60018060a01b0381511682526020810151602083015260018060a01b03604082015116604083015260018060a01b0360608201511660608301525f608082015160a06080850152805161442d816143cb565b60a085015260208101516001600160a01b031660c08501526040810151608060e086015261445f6101208601826142b5565b905060608201511515610100860152809250505092915050565b614482816143cb565b9052565b5f82825180855260208501945060208160051b830101602085015f5b838110156145bf57848303601f1901885281518051606080865281518187015260208201516080870152604082015160a08701528101516144e660c0870182614479565b5060808101516001600160a01b03811660e08701525060a08101516001600160a01b0381166101008701525060c08101516001600160a01b0381166101208701525060e08101516001600160a01b038116610140870152506101008101516101608601526101208101516101808601526101408101516101a086015261016081015190506101806101c08601526145816101e08601826142b5565b90506020820151858203602087015261459a82826142b5565b60409384015196909301959095525060209889019890935091909101906001016144a2565b50909695505050505050565b60018060a01b038151168252602081015160208301525f604082015160a060408501526145fb60a0850182614486565b9050606083015184820360608601526146148282614486565b9150506080830151848203608086015261462e82826142b5565b95945050505050565b60018060a01b038716815260018060a01b03861660208201528460408201528351606082015260208401516080820152604084015160a0820152606084015160c0820152608084015160e08201526101406101008201525f61469d6101408301856143db565b8281036101208401526146b081856145cb565b9998505050505050505050565b5f5f604083850312156146ce575f5ffd5b50508035926020909101359150565b6001600160a01b038681168252851660208201526040810184905260a0606082018190525f9061470f908301856143db565b828103608084015261472181856145cb565b98975050505050505050565b6001600160a01b0381168114613f10575f5ffd5b803561474c8161472d565b919050565b5f5f60408385031215614762575f5ffd5b823560038110614770575f5ffd5b915060208301356147808161472d565b809150509250929050565b5f6020828403121561479b575f5ffd5b81356129c38161472d565b634e487b7160e01b5f52604160045260245ffd5b60405160a081016001600160401b03811182821017156147dc576147dc6147a6565b60405290565b604051608081016001600160401b03811182821017156147dc576147dc6147a6565b604051606081016001600160401b03811182821017156147dc576147dc6147a6565b60405161018081016001600160401b03811182821017156147dc576147dc6147a6565b604051601f8201601f191681016001600160401b0381118282101715614871576148716147a6565b604052919050565b5f6001600160401b03821115614891576148916147a6565b5060051b60200190565b5f602082840312156148ab575f5ffd5b81356001600160401b038111156148c0575f5ffd5b8201601f810184136148d0575f5ffd5b80356148e36148de82614879565b614849565b8082825260208201915060208360051b850101925086831115614904575f5ffd5b6020840193505b82841015613af657833561491e8161472d565b82526020938401939091019061490b565b604080825283519082018190525f9060208501906060840190835b818110156149715783516001600160a01b031683526020938401939092019160010161494a565b5050838103602080860191909152855180835291810192508501905f5b818110156149ac57825184526020938401939092019160010161498e565b50919695505050505050565b6001600160a01b038b811682528a8116602083015289166040820152606081018890526080810187905260a0810186905261014060c082018190525f90614a01908301876142b5565b82810360e0840152614a1381876142b5565b9415156101008401525050610120015298975050505050505050565b5f60208284031215614a3f575f5ffd5b813563ffffffff811681146129c3575f5ffd5b5f5f5f5f5f5f60808789031215614a67575f5ffd5b863595506020870135614a798161472d565b945060408701356001600160401b03811115614a93575f5ffd5b614a9f89828a016142f5565b90955093505060608701356001600160401b03811115614abd575f5ffd5b614ac989828a016142f5565b979a9699509497509295939492505050565b60208152614af56020820183516001600160a01b03169052565b5f6020830151614b1060408401826001600160a01b03169052565b5060408301516001600160a01b03811660608401525060608301516080830152608083015160a083015260a083015160c083015260c083015161014060e0840152614b5f6101608401826142b5565b905060e0840151601f1984830301610100850152614b7d82826142b5565b915050610100840151614b9561012085018215159052565b506101208401516101408401528091505092915050565b614bb5856143cb565b8481526001600160a01b03841660208201526080604082018190525f90614bde908301856142b5565b9050821515606083015295945050505050565b8015158114613f10575f5ffd5b5f60208284031215614c0e575f5ffd5b81516129c381614bf1565b634e487b7160e01b5f52601160045260245ffd5b6001815b6001841115614c6857808504811115614c4c57614c4c614c19565b6001841615614c5a57908102905b60019390931c928002614c31565b935093915050565b5f82614c7e5750600161166f565b81614c8a57505f61166f565b8160018114614ca05760028114614caa57614cc6565b600191505061166f565b60ff841115614cbb57614cbb614c19565b50506001821b61166f565b5060208310610133831016604e8410600b8410161715614ce9575081810a61166f565b614cf55f198484614c2d565b805f1904821115614d0857614d08614c19565b029392505050565b5f6129c38383614c70565b808202811582820484141761166f5761166f614c19565b600181811c90821680614d4657607f821691505b602082108103614d6457634e487b7160e01b5f52602260045260245ffd5b50919050565b805161474c8161472d565b5f60208284031215614d85575f5ffd5b81516129c38161472d565b6001600160a01b03929092168252602082015260400190565b5f5f85851115614db7575f5ffd5b83861115614dc3575f5ffd5b5050820193919092039150565b80356001600160e01b03198116906004841015614e01576001600160e01b0319600485900360031b81901b82161691505b5092915050565b60048110613f10575f5ffd5b803561474c81614e08565b5f6001600160401b03821115614e3757614e376147a6565b50601f01601f191660200190565b5f82601f830112614e54575f5ffd5b8135614e626148de82614e1f565b818152846020838601011115614e76575f5ffd5b816020850160208301375f918101602001919091529392505050565b5f60a08284031215614ea2575f5ffd5b614eaa6147ba565b90508135614eb78161472d565b8152602082810135908201526040820135614ed18161472d565b60408201526060820135614ee48161472d565b606082015260808201356001600160401b03811115614f01575f5ffd5b820160808185031215614f12575f5ffd5b614f1a6147e2565b8135614f2581614e08565b81526020820135614f358161472d565b602082015260408201356001600160401b03811115614f52575f5ffd5b614f5e86828501614e45565b60408301525060608201359150614f7482614bf1565b6060810191909152608082015292915050565b5f82601f830112614f96575f5ffd5b8135614fa46148de82614879565b8082825260208201915060208360051b860101925085831115614fc5575f5ffd5b602085015b838110156151425780356001600160401b03811115614fe7575f5ffd5b86016060818903601f19011215614ffc575f5ffd5b615004614804565b60208201356001600160401b0381111561501c575f5ffd5b6020818401019050610180818b031215615034575f5ffd5b61503c614826565b81358152602080830135908201526040808301359082015261506060608301614e14565b606082015261507160808301614741565b608082015261508260a08301614741565b60a082015261509360c08301614741565b60c08201526150a460e08301614741565b60e08201526101008281013590820152610120808301359082015261014080830135908201526101608201356001600160401b038111156150e3575f5ffd5b6150ef8c828501614e45565b6101608301525082525060408201356001600160401b03811115615111575f5ffd5b6151208a602083860101614e45565b6020838101919091526060939093013560408301525084529283019201614fca565b5095945050505050565b5f60a0828403121561515c575f5ffd5b6151646147ba565b905061516f82614741565b81526020828101359082015260408201356001600160401b03811115615193575f5ffd5b61519f84828501614f87565b60408301525060608201356001600160401b038111156151bd575f5ffd5b6151c984828501614f87565b60608301525060808201356001600160401b038111156151e7575f5ffd5b6151f384828501614e45565b60808301525092915050565b5f5f5f5f5f5f868803610140811215615216575f5ffd5b87356152218161472d565b965060208801356152318161472d565b95506040880135945060a0605f198201121561524b575f5ffd5b506152546147ba565b60608881013582526080808a0135602084015260a08a0135604084015260c08a01359183019190915260e08901359082015292506101008701356001600160401b038111156152a1575f5ffd5b6152ad89828a01614e92565b9250506101208701356001600160401b038111156152c9575f5ffd5b6152d589828a0161514c565b9150509295509295509295565b5f602082840312156152f2575f5ffd5b5051919050565b5f8261531357634e487b7160e01b5f52601260045260245ffd5b500490565b5f5f5f5f5f60a0868803121561532c575f5ffd5b85356153378161472d565b945060208601356153478161472d565b93506040860135925060608601356001600160401b03811115615368575f5ffd5b61537488828901614e92565b92505060808601356001600160401b0381111561538f575f5ffd5b61539b8882890161514c565b9150509295509295909350565b5f600384106153b9576153b96143b7565b5060f89290921b825260601b6bffffffffffffffffffffffff1916600182015260150190565b5f60a08284031280156153f0575f5ffd5b506153f96147ba565b82516154048161472d565b815260208381015190820152604080840151908201526060808401519082015260808301516154328161472d565b60808201529392505050565b828152604060208201525f61265560408301846142b5565b634e487b7160e01b5f52603260045260245ffd5b81515f90829060208501835b82811015615494578151845260209384019390910190600101615476565b509195945050505050565b81515f90829060208501835b828110156154945781516001600160a01b03168452602093840193909101906001016154ab565b83815260406020820152816040820152818360608301375f818301606090810191909152601f909201601f1916010192915050565b5f6129c360ff841683614c70565b5f60208284031215615525575f5ffd5b81516001600160401b0381111561553a575f5ffd5b8201601f8101841361554a575f5ffd5b80516155586148de82614879565b8082825260208201915060208360051b850101925086831115615579575f5ffd5b6020840193505b82841015613af65783516155938161472d565b825260209384019390910190615580565b5f602082840312156155b4575f5ffd5b81516001600160401b038111156155c9575f5ffd5b8201601f810184136155d9575f5ffd5b80516155e76148de82614879565b8082825260208201915060208360051b850101925086831115615608575f5ffd5b6020840193505b82841015613af657835182526020938401939091019061560f565b8181038181111561166f5761166f614c19565b5f6020828403121561564d575f5ffd5b604051602081016001600160401b038111828210171561566f5761566f6147a6565b60405290508082356001600160401b0381111561568a575f5ffd5b61569685828601614e45565b8252505092915050565b5f602082840312156156b0575f5ffd5b81356001600160401b038111156156c5575f5ffd5b6126558482850161563d565b805161474c81614e08565b5f82601f8301126156eb575f5ffd5b81516156f96148de82614e1f565b81815284602083860101111561570d575f5ffd5b8160208501602083015e5f918101602001919091529392505050565b5f60a08284031215615739575f5ffd5b6157416147ba565b9050815161574e8161472d565b81526020828101519082015260408201516157688161472d565b6040820152606082015161577b8161472d565b606082015260808201516001600160401b03811115615798575f5ffd5b8201608081850312156157a9575f5ffd5b6157b16147e2565b81516157bc81614e08565b815260208201516157cc8161472d565b602082015260408201516001600160401b038111156157e9575f5ffd5b6157f5868285016156dc565b60408301525060608201519150614f7482614bf1565b5f82601f83011261581a575f5ffd5b81516158286148de82614879565b8082825260208201915060208360051b860101925085831115615849575f5ffd5b602085015b838110156151425780516001600160401b0381111561586b575f5ffd5b86016060818903601f19011215615880575f5ffd5b615888614804565b60208201516001600160401b038111156158a0575f5ffd5b6020818401019050610180818b0312156158b8575f5ffd5b6158c0614826565b8151815260208083015190820152604080830151908201526158e4606083016156d1565b60608201526158f560808301614d6a565b608082015261590660a08301614d6a565b60a082015261591760c08301614d6a565b60c082015261592860e08301614d6a565b60e08201526101008281015190820152610120808301519082015261014080830151908201526101608201516001600160401b03811115615967575f5ffd5b6159738c8285016156dc565b6101608301525082525060408201516001600160401b03811115615995575f5ffd5b6159a48a6020838601016156dc565b602083810191909152606093909301516040830152508452928301920161584e565b5f60a082840312156159d6575f5ffd5b6159de6147ba565b90506159e982614d6a565b81526020828101519082015260408201516001600160401b03811115615a0d575f5ffd5b615a198482850161580b565b60408301525060608201516001600160401b03811115615a37575f5ffd5b615a438482850161580b565b60608301525060808201516001600160401b03811115615a61575f5ffd5b6151f3848285016156dc565b5f5f5f5f5f60a08688031215615a81575f5ffd5b8551615a8c8161472d565b6020870151909550615a9d8161472d565b6040870151606088015191955093506001600160401b03811115615abf575f5ffd5b615acb88828901615729565b92505060808601516001600160401b03811115615ae6575f5ffd5b61539b888289016159c6565b5f5f5f60608486031215615b04575f5ffd5b5050815160208301516040909301519094929350919050565b8082018082111561166f5761166f614c19565b5f5f5f5f5f5f868803610140811215615b47575f5ffd5b8751615b528161472d565b6020890151909750615b638161472d565b6040890151909650945060a0605f1982011215615b7e575f5ffd5b50615b876147ba565b60608881015182526080808a0151602084015260a08a0151604084015260c08a01519183019190915260e0890151908201526101008801519093506001600160401b03811115615bd5575f5ffd5b615be189828a01615729565b9250506101208701516001600160401b03811115615bfd575f5ffd5b6152d589828a016159c6565b5f5f5f60608486031215615c1b575f5ffd5b8351615c2681614bf1565b602085015190935061ffff81168114615c3d575f5ffd5b6040850151909250615c4e81614bf1565b809150509250925092565b5f5f5f60608486031215615c6b575f5ffd5b8351615c768161472d565b6020850151909350615c878161472d565b6040850151909250615c4e8161472d565b5f60208284031215615ca8575f5ffd5b815160ff811681146129c3575f5ffd5b80545f90600181811c90821680615cd057607f821691505b602082108103615cee57634e487b7160e01b5f52602260045260245ffd5b81865260208601818015615d095760018114615d1f57615d4b565b60ff198516825283151560051b82019550615d4b565b5f878152602090205f5b85811015615d4557815484820152600190910190602001615d29565b83019650505b505050505092915050565b5f82825480855260208501945060208160051b830101845f5260205f205f5b838110156145bf57601f19858403018852606083528154606084015260018201546080840152600282015460a08401526003820154615dba60c0850160ff8316614479565b6001600160a01b03600891821c811660e0860152600484015481166101008601526005840154811661012086015260068401541661014085015260078301546101608501528201546101808085019190915260098301546101a08501526101c0840152615e2e6101e08401600a8401615cb8565b8381036020850152615e4381600b8501615cb8565b600c840154604095909501949094525060209790970196600d90910190600101615d75565b80546001600160a01b031682526001810154602083015260a0604083018190525f90615e9990840160028401615d56565b8381036060850152615eae8160038501615d56565b905083810360808501526126558160048501615cb8565b6001600160a01b03878116825286166020820152604081018590528354606082015260018401546080820152600284015460a0820152600384015460c0820152600484015460e082015261014061010082018190525f90615f28908301856143db565b8281036101208401526146b08185615e68565b60ff818116838216019081111561166f5761166f614c19565b60ff828116828216039081111561166f5761166f614c1956fea2646970667358221220e444bc0d6626e9adecef4099ef796d88873cb46fe7503e4e7d7b67bb9e5c0b6464736f6c634300081c0033","linkReferences":{}},"methodIdentifiers":{"MAX_SLIPPAGE_PERCENTAGE()":"930ec277","MIN_ORACLE_DURATION()":"1deae8c6","PT()":"d94073d4","SY()":"afd27bf5","YT()":"781c18db","asset()":"38d52e0f","basePrice()":"c7876ea4","baseToken()":"c55dae63","board(uint256,bytes)":"2db6d399","commander()":"37270936","config()":"79502c55","configTokenDecimals()":"c64f9f0e","configurationManager()":"c9c667e3","curveSwap()":"d8fca1ac","depositCap()":"dbd5edc7","disembark(uint256,bytes)":"13c408f8","emptySwap()":"f66a7749","fleetCommanderRewardsManagerFactory()":"f7e533ec","generateRole(uint8,address)":"69b3054b","getConfig()":"c3f909d4","getExchangeRate()":"e6aa216c","getExchangeRateEma()":"4318a726","getLowerBound()":"1de0f095","getSafeExchangeRate()":"955c7bc0","getSafeExchangeRateEma()":"d70ec14a","getUpperBound()":"22c180b5","harborCommand()":"5b0f83f3","harvest(bytes)":"ce5c7f61","hasAdmiralsQuartersRole(address)":"ebc136d0","isMarketExpired()":"22dcc85f","lowerPercentageRange()":"a968a776","market()":"80f55605","marketAsset()":"ea1af6e0","marketAssetDecimals()":"a377d6a5","marketExpiry()":"8f1d3f00","maxDepositPercentageOfTVL()":"bdcdd882","maxRebalanceInflow()":"ad5a356f","maxRebalanceOutflow()":"3194549e","move(uint256,address,bytes,bytes)":"c38a6f0b","name()":"06fdde03","nextMarket()":"ec213865","oracle()":"7dc0d1d0","oracleDuration()":"cefba474","ptDecimals()":"01a7c58c","raft()":"117d8ae0","registerFleetCommander()":"8a8b9976","requiresKeeperData()":"303dbaf3","rolloverIfNeeded()":"b31c3290","router()":"f887ea40","routerParams()":"256d8a23","setBasePrice(uint256)":"de4b3262","setDepositCap(uint256)":"86651203","setEmaRange(uint256,uint256)":"4c283265","setMaxDepositPercentageOfTVL(uint256)":"4fc7fac3","setMaxRebalanceInflow(uint256)":"92f5e832","setMaxRebalanceOutflow(uint256)":"61f5cd8b","setNextMarket(address)":"6df44100","setOracleDuration(uint32)":"c05bd92d","setSlippagePercentage(uint256)":"03baf066","slippagePercentage()":"4452d81c","sweep(address[])":"780469bb","tipJar()":"7aaceb95","totalAssets()":"01e1d114","totalAssetsNoSlippage()":"cf4685c6","treasury()":"61d027b3","unregisterFleetCommander()":"ebf31131","upperPercentageRange()":"ba3f4fb2","validateAndDecodeSwapForPtParams(bytes)":"326c488e","validateAndDecodeSwapPtForTokenParams(bytes)":"552d2e59","withdrawExpiredMarket()":"64c8d8ef"},"id":215}