{"abi":[{"type":"constructor","inputs":[{"name":"_params","type":"tuple","internalType":"struct ArkParams","components":[{"name":"name","type":"string","internalType":"string"},{"name":"details","type":"string","internalType":"string"},{"name":"accessManager","type":"address","internalType":"address"},{"name":"configurationManager","type":"address","internalType":"address"},{"name":"asset","type":"address","internalType":"address"},{"name":"depositCap","type":"uint256","internalType":"uint256"},{"name":"maxRebalanceOutflow","type":"uint256","internalType":"uint256"},{"name":"maxRebalanceInflow","type":"uint256","internalType":"uint256"},{"name":"requiresKeeperData","type":"bool","internalType":"bool"},{"name":"maxDepositPercentageOfTVL","type":"uint256","internalType":"Percentage"}]},{"name":"_pendlePtArkConstructorParams","type":"tuple","internalType":"struct PendlePtOracleArk.PendlePtArkConstructorParams","components":[{"name":"market","type":"address","internalType":"address"},{"name":"oracle","type":"address","internalType":"address"},{"name":"router","type":"address","internalType":"address"}]},{"name":"_curveSwapArkConstructorParams","type":"tuple","internalType":"struct PendlePtOracleArk.CurveSwapArkConstructorParams","components":[{"name":"curvePool","type":"address","internalType":"address"},{"name":"basePrice","type":"uint256","internalType":"uint256"},{"name":"lowerPercentageRange","type":"uint256","internalType":"Percentage"},{"name":"upperPercentageRange","type":"uint256","internalType":"Percentage"}]}],"stateMutability":"nonpayable"},{"type":"function","name":"MAX_SLIPPAGE_PERCENTAGE","inputs":[],"outputs":[{"name":"","type":"uint256","internalType":"Percentage"}],"stateMutability":"view"},{"type":"function","name":"MIN_ORACLE_DURATION","inputs":[],"outputs":[{"name":"","type":"uint256","internalType":"uint256"}],"stateMutability":"view"},{"type":"function","name":"PT","inputs":[],"outputs":[{"name":"","type":"address","internalType":"contract IPPrincipalToken"}],"stateMutability":"view"},{"type":"function","name":"SY","inputs":[],"outputs":[{"name":"","type":"address","internalType":"contract IStandardizedYield"}],"stateMutability":"view"},{"type":"function","name":"YT","inputs":[],"outputs":[{"name":"","type":"address","internalType":"contract IPYieldToken"}],"stateMutability":"view"},{"type":"function","name":"asset","inputs":[],"outputs":[{"name":"","type":"address","internalType":"contract IERC20"}],"stateMutability":"view"},{"type":"function","name":"basePrice","inputs":[],"outputs":[{"name":"","type":"uint256","internalType":"uint256"}],"stateMutability":"view"},{"type":"function","name":"baseToken","inputs":[],"outputs":[{"name":"","type":"address","internalType":"address"}],"stateMutability":"view"},{"type":"function","name":"board","inputs":[{"name":"amount","type":"uint256","internalType":"uint256"},{"name":"boardData","type":"bytes","internalType":"bytes"}],"outputs":[],"stateMutability":"nonpayable"},{"type":"function","name":"commander","inputs":[],"outputs":[{"name":"","type":"address","internalType":"address"}],"stateMutability":"view"},{"type":"function","name":"config","inputs":[],"outputs":[{"name":"commander","type":"address","internalType":"address"},{"name":"raft","type":"address","internalType":"address"},{"name":"asset","type":"address","internalType":"contract IERC20"},{"name":"depositCap","type":"uint256","internalType":"uint256"},{"name":"maxRebalanceOutflow","type":"uint256","internalType":"uint256"},{"name":"maxRebalanceInflow","type":"uint256","internalType":"uint256"},{"name":"name","type":"string","internalType":"string"},{"name":"details","type":"string","internalType":"string"},{"name":"requiresKeeperData","type":"bool","internalType":"bool"},{"name":"maxDepositPercentageOfTVL","type":"uint256","internalType":"Percentage"}],"stateMutability":"view"},{"type":"function","name":"configTokenDecimals","inputs":[],"outputs":[{"name":"","type":"uint8","internalType":"uint8"}],"stateMutability":"view"},{"type":"function","name":"configurationManager","inputs":[],"outputs":[{"name":"","type":"address","internalType":"contract IConfigurationManager"}],"stateMutability":"view"},{"type":"function","name":"curveSwap","inputs":[],"outputs":[{"name":"","type":"address","internalType":"contract ICurveSwap"}],"stateMutability":"view"},{"type":"function","name":"depositCap","inputs":[],"outputs":[{"name":"","type":"uint256","internalType":"uint256"}],"stateMutability":"view"},{"type":"function","name":"disembark","inputs":[{"name":"amount","type":"uint256","internalType":"uint256"},{"name":"disembarkData","type":"bytes","internalType":"bytes"}],"outputs":[],"stateMutability":"nonpayable"},{"type":"function","name":"emptySwap","inputs":[],"outputs":[{"name":"swapType","type":"uint8","internalType":"enum SwapType"},{"name":"extRouter","type":"address","internalType":"address"},{"name":"extCalldata","type":"bytes","internalType":"bytes"},{"name":"needScale","type":"bool","internalType":"bool"}],"stateMutability":"view"},{"type":"function","name":"fleetCommanderRewardsManagerFactory","inputs":[],"outputs":[{"name":"","type":"address","internalType":"address"}],"stateMutability":"view"},{"type":"function","name":"generateRole","inputs":[{"name":"roleName","type":"uint8","internalType":"enum ContractSpecificRoles"},{"name":"roleTargetContract","type":"address","internalType":"address"}],"outputs":[{"name":"","type":"bytes32","internalType":"bytes32"}],"stateMutability":"pure"},{"type":"function","name":"getConfig","inputs":[],"outputs":[{"name":"","type":"tuple","internalType":"struct ArkConfig","components":[{"name":"commander","type":"address","internalType":"address"},{"name":"raft","type":"address","internalType":"address"},{"name":"asset","type":"address","internalType":"contract IERC20"},{"name":"depositCap","type":"uint256","internalType":"uint256"},{"name":"maxRebalanceOutflow","type":"uint256","internalType":"uint256"},{"name":"maxRebalanceInflow","type":"uint256","internalType":"uint256"},{"name":"name","type":"string","internalType":"string"},{"name":"details","type":"string","internalType":"string"},{"name":"requiresKeeperData","type":"bool","internalType":"bool"},{"name":"maxDepositPercentageOfTVL","type":"uint256","internalType":"Percentage"}]}],"stateMutability":"view"},{"type":"function","name":"getExchangeRate","inputs":[],"outputs":[{"name":"price","type":"uint256","internalType":"uint256"}],"stateMutability":"view"},{"type":"function","name":"getExchangeRateEma","inputs":[],"outputs":[{"name":"price","type":"uint256","internalType":"uint256"}],"stateMutability":"view"},{"type":"function","name":"getLowerBound","inputs":[],"outputs":[{"name":"","type":"uint256","internalType":"uint256"}],"stateMutability":"view"},{"type":"function","name":"getSafeExchangeRate","inputs":[],"outputs":[{"name":"price","type":"uint256","internalType":"uint256"}],"stateMutability":"view"},{"type":"function","name":"getSafeExchangeRateEma","inputs":[],"outputs":[{"name":"price","type":"uint256","internalType":"uint256"}],"stateMutability":"view"},{"type":"function","name":"getUpperBound","inputs":[],"outputs":[{"name":"","type":"uint256","internalType":"uint256"}],"stateMutability":"view"},{"type":"function","name":"harborCommand","inputs":[],"outputs":[{"name":"","type":"address","internalType":"address"}],"stateMutability":"view"},{"type":"function","name":"harvest","inputs":[{"name":"additionalData","type":"bytes","internalType":"bytes"}],"outputs":[{"name":"rewardTokens","type":"address[]","internalType":"address[]"},{"name":"rewardAmounts","type":"uint256[]","internalType":"uint256[]"}],"stateMutability":"nonpayable"},{"type":"function","name":"isMarketExpired","inputs":[],"outputs":[{"name":"","type":"bool","internalType":"bool"}],"stateMutability":"view"},{"type":"function","name":"lowerPercentageRange","inputs":[],"outputs":[{"name":"","type":"uint256","internalType":"Percentage"}],"stateMutability":"view"},{"type":"function","name":"market","inputs":[],"outputs":[{"name":"","type":"address","internalType":"address"}],"stateMutability":"view"},{"type":"function","name":"marketAsset","inputs":[],"outputs":[{"name":"","type":"address","internalType":"address"}],"stateMutability":"view"},{"type":"function","name":"marketAssetDecimals","inputs":[],"outputs":[{"name":"","type":"uint8","internalType":"uint8"}],"stateMutability":"view"},{"type":"function","name":"marketExpiry","inputs":[],"outputs":[{"name":"","type":"uint256","internalType":"uint256"}],"stateMutability":"view"},{"type":"function","name":"maxDepositPercentageOfTVL","inputs":[],"outputs":[{"name":"","type":"uint256","internalType":"Percentage"}],"stateMutability":"view"},{"type":"function","name":"maxRebalanceInflow","inputs":[],"outputs":[{"name":"","type":"uint256","internalType":"uint256"}],"stateMutability":"view"},{"type":"function","name":"maxRebalanceOutflow","inputs":[],"outputs":[{"name":"","type":"uint256","internalType":"uint256"}],"stateMutability":"view"},{"type":"function","name":"move","inputs":[{"name":"amount","type":"uint256","internalType":"uint256"},{"name":"receiverArk","type":"address","internalType":"address"},{"name":"boardData","type":"bytes","internalType":"bytes"},{"name":"disembarkData","type":"bytes","internalType":"bytes"}],"outputs":[],"stateMutability":"nonpayable"},{"type":"function","name":"name","inputs":[],"outputs":[{"name":"","type":"string","internalType":"string"}],"stateMutability":"view"},{"type":"function","name":"nextMarket","inputs":[],"outputs":[{"name":"","type":"address","internalType":"address"}],"stateMutability":"view"},{"type":"function","name":"oracle","inputs":[],"outputs":[{"name":"","type":"address","internalType":"address"}],"stateMutability":"view"},{"type":"function","name":"oracleDuration","inputs":[],"outputs":[{"name":"","type":"uint32","internalType":"uint32"}],"stateMutability":"view"},{"type":"function","name":"ptDecimals","inputs":[],"outputs":[{"name":"","type":"uint8","internalType":"uint8"}],"stateMutability":"view"},{"type":"function","name":"raft","inputs":[],"outputs":[{"name":"","type":"address","internalType":"address"}],"stateMutability":"view"},{"type":"function","name":"registerFleetCommander","inputs":[],"outputs":[],"stateMutability":"nonpayable"},{"type":"function","name":"requiresKeeperData","inputs":[],"outputs":[{"name":"","type":"bool","internalType":"bool"}],"stateMutability":"view"},{"type":"function","name":"rolloverIfNeeded","inputs":[],"outputs":[],"stateMutability":"nonpayable"},{"type":"function","name":"router","inputs":[],"outputs":[{"name":"","type":"address","internalType":"address"}],"stateMutability":"view"},{"type":"function","name":"routerParams","inputs":[],"outputs":[{"name":"guessMin","type":"uint256","internalType":"uint256"},{"name":"guessMax","type":"uint256","internalType":"uint256"},{"name":"guessOffchain","type":"uint256","internalType":"uint256"},{"name":"maxIteration","type":"uint256","internalType":"uint256"},{"name":"eps","type":"uint256","internalType":"uint256"}],"stateMutability":"view"},{"type":"function","name":"setBasePrice","inputs":[{"name":"_basePrice","type":"uint256","internalType":"uint256"}],"outputs":[],"stateMutability":"nonpayable"},{"type":"function","name":"setDepositCap","inputs":[{"name":"newDepositCap","type":"uint256","internalType":"uint256"}],"outputs":[],"stateMutability":"nonpayable"},{"type":"function","name":"setEmaRange","inputs":[{"name":"_lowerPercentageRange","type":"uint256","internalType":"Percentage"},{"name":"_upperPercentageRange","type":"uint256","internalType":"Percentage"}],"outputs":[],"stateMutability":"nonpayable"},{"type":"function","name":"setMaxDepositPercentageOfTVL","inputs":[{"name":"newMaxDepositPercentageOfTVL","type":"uint256","internalType":"Percentage"}],"outputs":[],"stateMutability":"nonpayable"},{"type":"function","name":"setMaxRebalanceInflow","inputs":[{"name":"newMaxRebalanceInflow","type":"uint256","internalType":"uint256"}],"outputs":[],"stateMutability":"nonpayable"},{"type":"function","name":"setMaxRebalanceOutflow","inputs":[{"name":"newMaxRebalanceOutflow","type":"uint256","internalType":"uint256"}],"outputs":[],"stateMutability":"nonpayable"},{"type":"function","name":"setNextMarket","inputs":[{"name":"_nextMarket","type":"address","internalType":"address"}],"outputs":[],"stateMutability":"nonpayable"},{"type":"function","name":"setOracleDuration","inputs":[{"name":"_oracleDuration","type":"uint32","internalType":"uint32"}],"outputs":[],"stateMutability":"nonpayable"},{"type":"function","name":"setSlippagePercentage","inputs":[{"name":"_slippagePercentage","type":"uint256","internalType":"Percentage"}],"outputs":[],"stateMutability":"nonpayable"},{"type":"function","name":"slippagePercentage","inputs":[],"outputs":[{"name":"","type":"uint256","internalType":"Percentage"}],"stateMutability":"view"},{"type":"function","name":"sweep","inputs":[{"name":"tokens","type":"address[]","internalType":"address[]"}],"outputs":[{"name":"sweptTokens","type":"address[]","internalType":"address[]"},{"name":"sweptAmounts","type":"uint256[]","internalType":"uint256[]"}],"stateMutability":"nonpayable"},{"type":"function","name":"tipJar","inputs":[],"outputs":[{"name":"","type":"address","internalType":"address"}],"stateMutability":"view"},{"type":"function","name":"totalAssets","inputs":[],"outputs":[{"name":"","type":"uint256","internalType":"uint256"}],"stateMutability":"view"},{"type":"function","name":"totalAssetsNoSlippage","inputs":[],"outputs":[{"name":"","type":"uint256","internalType":"uint256"}],"stateMutability":"view"},{"type":"function","name":"treasury","inputs":[],"outputs":[{"name":"","type":"address","internalType":"address"}],"stateMutability":"view"},{"type":"function","name":"unregisterFleetCommander","inputs":[],"outputs":[],"stateMutability":"nonpayable"},{"type":"function","name":"upperPercentageRange","inputs":[],"outputs":[{"name":"","type":"uint256","internalType":"Percentage"}],"stateMutability":"view"},{"type":"function","name":"validateAndDecodeSwapForPtParams","inputs":[{"name":"params","type":"bytes","internalType":"bytes"}],"outputs":[{"name":"receiver","type":"address","internalType":"address"},{"name":"swapMarket","type":"address","internalType":"address"},{"name":"minPtOut","type":"uint256","internalType":"uint256"},{"name":"guessPtOut","type":"tuple","internalType":"struct ApproxParams","components":[{"name":"guessMin","type":"uint256","internalType":"uint256"},{"name":"guessMax","type":"uint256","internalType":"uint256"},{"name":"guessOffchain","type":"uint256","internalType":"uint256"},{"name":"maxIteration","type":"uint256","internalType":"uint256"},{"name":"eps","type":"uint256","internalType":"uint256"}]},{"name":"input","type":"tuple","internalType":"struct TokenInput","components":[{"name":"tokenIn","type":"address","internalType":"address"},{"name":"netTokenIn","type":"uint256","internalType":"uint256"},{"name":"tokenMintSy","type":"address","internalType":"address"},{"name":"pendleSwap","type":"address","internalType":"address"},{"name":"swapData","type":"tuple","internalType":"struct SwapData","components":[{"name":"swapType","type":"uint8","internalType":"enum SwapType"},{"name":"extRouter","type":"address","internalType":"address"},{"name":"extCalldata","type":"bytes","internalType":"bytes"},{"name":"needScale","type":"bool","internalType":"bool"}]}]},{"name":"limit","type":"tuple","internalType":"struct LimitOrderData","components":[{"name":"limitRouter","type":"address","internalType":"address"},{"name":"epsSkipMarket","type":"uint256","internalType":"uint256"},{"name":"normalFills","type":"tuple[]","internalType":"struct FillOrderParams[]","components":[{"name":"order","type":"tuple","internalType":"struct Order","components":[{"name":"salt","type":"uint256","internalType":"uint256"},{"name":"expiry","type":"uint256","internalType":"uint256"},{"name":"nonce","type":"uint256","internalType":"uint256"},{"name":"orderType","type":"uint8","internalType":"enum IPLimitOrderType.OrderType"},{"name":"token","type":"address","internalType":"address"},{"name":"YT","type":"address","internalType":"address"},{"name":"maker","type":"address","internalType":"address"},{"name":"receiver","type":"address","internalType":"address"},{"name":"makingAmount","type":"uint256","internalType":"uint256"},{"name":"lnImpliedRate","type":"uint256","internalType":"uint256"},{"name":"failSafeRate","type":"uint256","internalType":"uint256"},{"name":"permit","type":"bytes","internalType":"bytes"}]},{"name":"signature","type":"bytes","internalType":"bytes"},{"name":"makingAmount","type":"uint256","internalType":"uint256"}]},{"name":"flashFills","type":"tuple[]","internalType":"struct FillOrderParams[]","components":[{"name":"order","type":"tuple","internalType":"struct Order","components":[{"name":"salt","type":"uint256","internalType":"uint256"},{"name":"expiry","type":"uint256","internalType":"uint256"},{"name":"nonce","type":"uint256","internalType":"uint256"},{"name":"orderType","type":"uint8","internalType":"enum IPLimitOrderType.OrderType"},{"name":"token","type":"address","internalType":"address"},{"name":"YT","type":"address","internalType":"address"},{"name":"maker","type":"address","internalType":"address"},{"name":"receiver","type":"address","internalType":"address"},{"name":"makingAmount","type":"uint256","internalType":"uint256"},{"name":"lnImpliedRate","type":"uint256","internalType":"uint256"},{"name":"failSafeRate","type":"uint256","internalType":"uint256"},{"name":"permit","type":"bytes","internalType":"bytes"}]},{"name":"signature","type":"bytes","internalType":"bytes"},{"name":"makingAmount","type":"uint256","internalType":"uint256"}]},{"name":"optData","type":"bytes","internalType":"bytes"}]}],"stateMutability":"pure"},{"type":"function","name":"validateAndDecodeSwapPtForTokenParams","inputs":[{"name":"params","type":"bytes","internalType":"bytes"}],"outputs":[{"name":"receiver","type":"address","internalType":"address"},{"name":"swapMarket","type":"address","internalType":"address"},{"name":"exactPtIn","type":"uint256","internalType":"uint256"},{"name":"output","type":"tuple","internalType":"struct TokenOutput","components":[{"name":"tokenOut","type":"address","internalType":"address"},{"name":"minTokenOut","type":"uint256","internalType":"uint256"},{"name":"tokenRedeemSy","type":"address","internalType":"address"},{"name":"pendleSwap","type":"address","internalType":"address"},{"name":"swapData","type":"tuple","internalType":"struct SwapData","components":[{"name":"swapType","type":"uint8","internalType":"enum SwapType"},{"name":"extRouter","type":"address","internalType":"address"},{"name":"extCalldata","type":"bytes","internalType":"bytes"},{"name":"needScale","type":"bool","internalType":"bool"}]}]},{"name":"limit","type":"tuple","internalType":"struct LimitOrderData","components":[{"name":"limitRouter","type":"address","internalType":"address"},{"name":"epsSkipMarket","type":"uint256","internalType":"uint256"},{"name":"normalFills","type":"tuple[]","internalType":"struct FillOrderParams[]","components":[{"name":"order","type":"tuple","internalType":"struct Order","components":[{"name":"salt","type":"uint256","internalType":"uint256"},{"name":"expiry","type":"uint256","internalType":"uint256"},{"name":"nonce","type":"uint256","internalType":"uint256"},{"name":"orderType","type":"uint8","internalType":"enum IPLimitOrderType.OrderType"},{"name":"token","type":"address","internalType":"address"},{"name":"YT","type":"address","internalType":"address"},{"name":"maker","type":"address","internalType":"address"},{"name":"receiver","type":"address","internalType":"address"},{"name":"makingAmount","type":"uint256","internalType":"uint256"},{"name":"lnImpliedRate","type":"uint256","internalType":"uint256"},{"name":"failSafeRate","type":"uint256","internalType":"uint256"},{"name":"permit","type":"bytes","internalType":"bytes"}]},{"name":"signature","type":"bytes","internalType":"bytes"},{"name":"makingAmount","type":"uint256","internalType":"uint256"}]},{"name":"flashFills","type":"tuple[]","internalType":"struct FillOrderParams[]","components":[{"name":"order","type":"tuple","internalType":"struct Order","components":[{"name":"salt","type":"uint256","internalType":"uint256"},{"name":"expiry","type":"uint256","internalType":"uint256"},{"name":"nonce","type":"uint256","internalType":"uint256"},{"name":"orderType","type":"uint8","internalType":"enum IPLimitOrderType.OrderType"},{"name":"token","type":"address","internalType":"address"},{"name":"YT","type":"address","internalType":"address"},{"name":"maker","type":"address","internalType":"address"},{"name":"receiver","type":"address","internalType":"address"},{"name":"makingAmount","type":"uint256","internalType":"uint256"},{"name":"lnImpliedRate","type":"uint256","internalType":"uint256"},{"name":"failSafeRate","type":"uint256","internalType":"uint256"},{"name":"permit","type":"bytes","internalType":"bytes"}]},{"name":"signature","type":"bytes","internalType":"bytes"},{"name":"makingAmount","type":"uint256","internalType":"uint256"}]},{"name":"optData","type":"bytes","internalType":"bytes"}]}],"stateMutability":"pure"},{"type":"function","name":"withdrawExpiredMarket","inputs":[],"outputs":[],"stateMutability":"nonpayable"},{"type":"event","name":"ArkHarvested","inputs":[{"name":"rewardTokens","type":"address[]","indexed":true,"internalType":"address[]"},{"name":"rewardAmounts","type":"uint256[]","indexed":true,"internalType":"uint256[]"}],"anonymous":false},{"type":"event","name":"ArkPoked","inputs":[{"name":"currentPrice","type":"uint256","indexed":false,"internalType":"uint256"},{"name":"timestamp","type":"uint256","indexed":false,"internalType":"uint256"}],"anonymous":false},{"type":"event","name":"ArkSwept","inputs":[{"name":"sweptTokens","type":"address[]","indexed":true,"internalType":"address[]"},{"name":"sweptAmounts","type":"uint256[]","indexed":true,"internalType":"uint256[]"}],"anonymous":false},{"type":"event","name":"BasePriceUpdated","inputs":[{"name":"basePrice","type":"uint256","indexed":false,"internalType":"uint256"}],"anonymous":false},{"type":"event","name":"Boarded","inputs":[{"name":"commander","type":"address","indexed":true,"internalType":"address"},{"name":"token","type":"address","indexed":false,"internalType":"address"},{"name":"amount","type":"uint256","indexed":false,"internalType":"uint256"}],"anonymous":false},{"type":"event","name":"DepositCapUpdated","inputs":[{"name":"newCap","type":"uint256","indexed":false,"internalType":"uint256"}],"anonymous":false},{"type":"event","name":"Disembarked","inputs":[{"name":"commander","type":"address","indexed":true,"internalType":"address"},{"name":"token","type":"address","indexed":false,"internalType":"address"},{"name":"amount","type":"uint256","indexed":false,"internalType":"uint256"}],"anonymous":false},{"type":"event","name":"EmaRangeUpdated","inputs":[{"name":"lowerPercentageRange","type":"uint256","indexed":false,"internalType":"Percentage"},{"name":"upperPercentageRange","type":"uint256","indexed":false,"internalType":"Percentage"}],"anonymous":false},{"type":"event","name":"FleetCommanderRegistered","inputs":[{"name":"commander","type":"address","indexed":false,"internalType":"address"}],"anonymous":false},{"type":"event","name":"FleetCommanderUnregistered","inputs":[{"name":"commander","type":"address","indexed":false,"internalType":"address"}],"anonymous":false},{"type":"event","name":"MarketRolledOver","inputs":[{"name":"newMarket","type":"address","indexed":false,"internalType":"address"}],"anonymous":false},{"type":"event","name":"MaxDepositPercentageOfTVLUpdated","inputs":[{"name":"newMaxDepositPercentageOfTVL","type":"uint256","indexed":false,"internalType":"Percentage"}],"anonymous":false},{"type":"event","name":"MaxRebalanceInflowUpdated","inputs":[{"name":"newMaxInflow","type":"uint256","indexed":false,"internalType":"uint256"}],"anonymous":false},{"type":"event","name":"MaxRebalanceOutflowUpdated","inputs":[{"name":"newMaxOutflow","type":"uint256","indexed":false,"internalType":"uint256"}],"anonymous":false},{"type":"event","name":"Moved","inputs":[{"name":"from","type":"address","indexed":true,"internalType":"address"},{"name":"to","type":"address","indexed":true,"internalType":"address"},{"name":"token","type":"address","indexed":false,"internalType":"address"},{"name":"amount","type":"uint256","indexed":false,"internalType":"uint256"}],"anonymous":false},{"type":"event","name":"OracleDurationUpdated","inputs":[{"name":"oracleDuration","type":"uint32","indexed":false,"internalType":"uint32"}],"anonymous":false},{"type":"event","name":"RaftUpdated","inputs":[{"name":"newRaft","type":"address","indexed":false,"internalType":"address"}],"anonymous":false},{"type":"event","name":"SlippageUpdated","inputs":[{"name":"slippagePercentage","type":"uint256","indexed":false,"internalType":"Percentage"}],"anonymous":false},{"type":"error","name":"CallerIsNotAdmin","inputs":[{"name":"caller","type":"address","internalType":"address"}]},{"type":"error","name":"CallerIsNotAuthorizedToBoard","inputs":[{"name":"caller","type":"address","internalType":"address"}]},{"type":"error","name":"CallerIsNotCommander","inputs":[{"name":"caller","type":"address","internalType":"address"}]},{"type":"error","name":"CallerIsNotContractSpecificRole","inputs":[{"name":"caller","type":"address","internalType":"address"},{"name":"role","type":"bytes32","internalType":"bytes32"}]},{"type":"error","name":"CallerIsNotCurator","inputs":[{"name":"caller","type":"address","internalType":"address"}]},{"type":"error","name":"CallerIsNotDecayController","inputs":[{"name":"caller","type":"address","internalType":"address"}]},{"type":"error","name":"CallerIsNotGovernor","inputs":[{"name":"caller","type":"address","internalType":"address"}]},{"type":"error","name":"CallerIsNotGuardian","inputs":[{"name":"caller","type":"address","internalType":"address"}]},{"type":"error","name":"CallerIsNotGuardianOrGovernor","inputs":[{"name":"caller","type":"address","internalType":"address"}]},{"type":"error","name":"CallerIsNotKeeper","inputs":[{"name":"caller","type":"address","internalType":"address"}]},{"type":"error","name":"CallerIsNotRaft","inputs":[{"name":"caller","type":"address","internalType":"address"}]},{"type":"error","name":"CallerIsNotRaftOrCommander","inputs":[{"name":"caller","type":"address","internalType":"address"}]},{"type":"error","name":"CallerIsNotSuperKeeper","inputs":[{"name":"caller","type":"address","internalType":"address"}]},{"type":"error","name":"CannotAddCommanderToArkWithCommander","inputs":[]},{"type":"error","name":"CannotDeployArkWithEmptyName","inputs":[]},{"type":"error","name":"CannotDeployArkWithoutConfigurationManager","inputs":[]},{"type":"error","name":"CannotDeployArkWithoutRaft","inputs":[]},{"type":"error","name":"CannotDeployArkWithoutToken","inputs":[]},{"type":"error","name":"CannotRemoveCommanderFromArkWithAssets","inputs":[]},{"type":"error","name":"CannotUseKeeperDataWhenNotRequired","inputs":[]},{"type":"error","name":"ConfigurationManagerZeroAddress","inputs":[]},{"type":"error","name":"DirectGrantIsDisabled","inputs":[{"name":"caller","type":"address","internalType":"address"}]},{"type":"error","name":"DirectRevokeIsDisabled","inputs":[{"name":"caller","type":"address","internalType":"address"}]},{"type":"error","name":"ERC4626AssetMismatch","inputs":[]},{"type":"error","name":"EmaOutOfRange","inputs":[]},{"type":"error","name":"EmaRangeTooHigh","inputs":[{"name":"emaRange","type":"uint256","internalType":"Percentage"}]},{"type":"error","name":"InsufficientOutputAmount","inputs":[]},{"type":"error","name":"InvalidAccessManagerAddress","inputs":[{"name":"invalidAddress","type":"address","internalType":"address"}]},{"type":"error","name":"InvalidAssetForSY","inputs":[]},{"type":"error","name":"InvalidBaseToken","inputs":[{"name":"baseToken","type":"address","internalType":"address"}]},{"type":"error","name":"InvalidBoardData","inputs":[]},{"type":"error","name":"InvalidDisembarkData","inputs":[]},{"type":"error","name":"InvalidFunctionSelector","inputs":[]},{"type":"error","name":"InvalidMarket","inputs":[]},{"type":"error","name":"InvalidMarketExpiry","inputs":[]},{"type":"error","name":"InvalidNextMarket","inputs":[]},{"type":"error","name":"InvalidParamsLength","inputs":[]},{"type":"error","name":"InvalidReceiver","inputs":[]},{"type":"error","name":"InvalidSwapType","inputs":[]},{"type":"error","name":"InvalidVaultAddress","inputs":[]},{"type":"error","name":"KeeperDataRequired","inputs":[]},{"type":"error","name":"LowerEmaNotLessThanUpperEma","inputs":[]},{"type":"error","name":"MarketExpirationTooClose","inputs":[]},{"type":"error","name":"MarketExpired","inputs":[]},{"type":"error","name":"OracleDurationTooLow","inputs":[{"name":"oracleDuration","type":"uint32","internalType":"uint32"},{"name":"minOracleDuration","type":"uint256","internalType":"uint256"}]},{"type":"error","name":"ReentrancyGuardReentrantCall","inputs":[]},{"type":"error","name":"SafeERC20FailedOperation","inputs":[{"name":"token","type":"address","internalType":"address"}]},{"type":"error","name":"SlippagePercentageTooHigh","inputs":[{"name":"slippagePercentage","type":"uint256","internalType":"Percentage"},{"name":"maxSlippagePercentage","type":"uint256","internalType":"Percentage"}]},{"type":"error","name":"UpperEmaNotGreaterThanLowerEma","inputs":[]}],"bytecode":{"object":"0x60c060405234801561000f575f5ffd5b5060405161702538038061702583398101604081905261002e91610c8c565b8051825161003b90610490565b8260400151836060015184602001518282828a8080606001518160400151805f6001600160a01b0316816001600160a01b031603610093576040516347bd7c1d60e01b81525f60048201526024015b60405180910390fd5b6040516301ffc9a760e01b8152639bd1803160e01b60048201526001600160a01b038216906301ffc9a790602401602060405180830381865afa1580156100dc573d5f5f3e3d5ffd5b505050506040513d601f19601f820116820180604052508101906101009190610db5565b610128576040516347bd7c1d60e01b81526001600160a01b038216600482015260240161008a565b5f80546001600160a01b0319166001600160a01b03928316179055821690506101645760405163f1634df960e01b815260040160405180910390fd5b6001600160a01b039081166080526060820151166101955760405163b53c493160e01b815260040160405180910390fd5b60808101516001600160a01b03166101c3576040516001620a810f60e11b0319815260040160405180910390fd5b8051515f036101e55760405163268c072960e01b815260040160405180910390fd5b5f6101ee61055f565b6001600160a01b03160361021557604051633a4f9cdb60e21b815260040160405180910390fd5b6040805161014081019091525f81526020810161023061055f565b6001600160a01b039081168252608080850151821660208085019190915260a08087015160408087019190915260c08089015160608089019190915260e0808b0151878a01528a51858a01528a860151838a0152610100808c01511515918a01919091526101208b01519801979097528751600180549188166001600160a01b031992831617815594890151600280549189169183169190911790559188015160038054919097169216919091179094559385015160045590840151600555918301516006558201516007906103069082610e52565b5060e0820151600782019061031b9082610e52565b5061010082015160088201805460ff1916911515919091179055610120909101516009909101555061034f905083836105c7565b600d555050600e80546001600160a01b0319166001600160a01b0387811691909117909155841661039e5760405163dbea379360e01b81526001600160a01b038516600482015260240161008a565b5050600f80546001600160a01b03199081166001600160a01b039485161790915560408601516012805483169185169190911790556020860151831660a05285516011805490921693169290921790915550506013805463ffffffff60b81b191660e160bb1b179055610414603261271061067f565b6017558051600e80546001600160a01b0319166001600160a01b03909216919091179055815161044390610490565b601080546001600160a01b0319166001600160a01b039290921691909117905561046b6106b5565b601154610480906001600160a01b03166106d9565b610488610a39565b50505061112f565b5f5f826001600160a01b0316632c8ce6bc6040518163ffffffff1660e01b8152600401606060405180830381865afa1580156104ce573d5f5f3e3d5ffd5b505050506040513d601f19601f820116820180604052508101906104f29190610f0c565b50509050806001600160a01b031663a40bee506040518163ffffffff1660e01b8152600401606060405180830381865afa158015610532573d5f5f3e3d5ffd5b505050506040513d601f19601f820116820180604052508101906105569190610f66565b50949350505050565b5f6080516001600160a01b031663117d8ae06040518163ffffffff1660e01b8152600401602060405180830381865afa15801561059e573d5f5f3e3d5ffd5b505050506040513d601f19601f820116820180604052508101906105c29190610fa5565b905090565b6105e6826105d76012600a6110be565b6105e29060646110c9565b1090565b156106075760405163da02d69560e01b81526004810183905260240161008a565b610617816105d76012600a6110be565b156106385760405163da02d69560e01b81526004810182905260240161008a565b600b829055600c81905560408051838152602081018390527f8168a7fb0f1fff0693e7681fbfd2a2dbfe563344325f1db3a88498c76a6efeeb910160405180910390a15050565b5f8161068d6012600a6110be565b61069790856110c9565b6106a29060646110c9565b6106ac91906110e0565b90505b92915050565b5f19601a55610100601c556106d46103e8670de0b6b3a76400006110e0565b601d55565b601180546001600160a01b0319166001600160a01b03831690811790915560408051630b2339af60e21b81529051632c8ce6bc916004808201926060929091908290030181865afa158015610730573d5f5f3e3d5ffd5b505050506040513d601f19601f820116820180604052508101906107549190610f0c565b601680546001600160a01b03199081166001600160a01b03938416179091556015805482169383169390931790925560148054909216928116928317909155601054604051637d2d278360e11b81529116600482015263fa5a4f0690602401602060405180830381865afa1580156107ce573d5f5f3e3d5ffd5b505050506040513d601f19601f820116820180604052508101906107f29190610db5565b15806108695750601454601054604051633c21b3eb60e11b81526001600160a01b03918216600482015291169063784367d690602401602060405180830381865afa158015610843573d5f5f3e3d5ffd5b505050506040513d601f19601f820116820180604052508101906108679190610db5565b155b1561088757604051631bda904d60e31b815260040160405180910390fd5b6003546040805163313ce56760e01b815290516001600160a01b039092169163313ce567916004808201926020929091908290030181865afa1580156108cf573d5f5f3e3d5ffd5b505050506040513d601f19601f820116820180604052508101906108f391906110ff565b601360146101000a81548160ff021916908360ff16021790555060105f9054906101000a90046001600160a01b03166001600160a01b031663313ce5676040518163ffffffff1660e01b8152600401602060405180830381865afa15801561095d573d5f5f3e3d5ffd5b505050506040513d601f19601f8201168201806040525081019061098191906110ff565b601360156101000a81548160ff021916908360ff16021790555060155f9054906101000a90046001600160a01b03166001600160a01b031663313ce5676040518163ffffffff1660e01b8152600401602060405180830381865afa1580156109eb573d5f5f3e3d5ffd5b505050506040513d601f19601f82011682018060405250810190610a0f91906110ff565b6013805460ff92909216600160b01b0260ff60b01b19909216919091179055610a36610a39565b50565b60115f9054906101000a90046001600160a01b03166001600160a01b031663e184c9be6040518163ffffffff1660e01b8152600401602060405180830381865afa158015610a89573d5f5f3e3d5ffd5b505050506040513d601f19601f82011682018060405250810190610aad9190611118565b601855565b634e487b7160e01b5f52604160045260245ffd5b60405161014081016001600160401b0381118282101715610ae957610ae9610ab2565b60405290565b5f82601f830112610afe575f5ffd5b81516001600160401b03811115610b1757610b17610ab2565b604051601f8201601f19908116603f011681016001600160401b0381118282101715610b4557610b45610ab2565b604052818152838201602001851015610b5c575f5ffd5b8160208501602083015e5f918101602001919091529392505050565b6001600160a01b0381168114610a36575f5ffd5b8051610b9781610b78565b919050565b80518015158114610b97575f5ffd5b5f60608284031215610bbb575f5ffd5b604051606081016001600160401b0381118282101715610bdd57610bdd610ab2565b80604052508091508251610bf081610b78565b81526020830151610c0081610b78565b60208201526040830151610c1381610b78565b6040919091015292915050565b5f60808284031215610c30575f5ffd5b604051608081016001600160401b0381118282101715610c5257610c52610ab2565b80604052508091508251610c6581610b78565b81526020838101519082015260408084015190820152606092830151920191909152919050565b5f5f5f6101008486031215610c9f575f5ffd5b83516001600160401b03811115610cb4575f5ffd5b84016101408187031215610cc6575f5ffd5b610cce610ac6565b81516001600160401b03811115610ce3575f5ffd5b610cef88828501610aef565b82525060208201516001600160401b03811115610d0a575f5ffd5b610d1688828501610aef565b602083015250610d2860408301610b8c565b6040820152610d3960608301610b8c565b6060820152610d4a60808301610b8c565b608082015260a0828101519082015260c0808301519082015260e08083015190820152610d7a6101008301610b9c565b61010082015261012091820151918101919091529250610d9d8560208601610bab565b9150610dac8560808601610c20565b90509250925092565b5f60208284031215610dc5575f5ffd5b6106ac82610b9c565b600181811c90821680610de257607f821691505b602082108103610e0057634e487b7160e01b5f52602260045260245ffd5b50919050565b601f821115610e4d57805f5260205f20601f840160051c81016020851015610e2b5750805b601f840160051c820191505b81811015610e4a575f8155600101610e37565b50505b505050565b81516001600160401b03811115610e6b57610e6b610ab2565b610e7f81610e798454610dce565b84610e06565b6020601f821160018114610eb1575f8315610e9a5750848201515b5f19600385901b1c1916600184901b178455610e4a565b5f84815260208120601f198516915b82811015610ee05787850151825560209485019460019092019101610ec0565b5084821015610efd57868401515f19600387901b60f8161c191681555b50505050600190811b01905550565b5f5f5f60608486031215610f1e575f5ffd5b8351610f2981610b78565b6020850151909350610f3a81610b78565b6040850151909250610f4b81610b78565b809150509250925092565b805160ff81168114610b97575f5ffd5b5f5f5f60608486031215610f78575f5ffd5b835160028110610f86575f5ffd5b6020850151909350610f9781610b78565b9150610dac60408501610f56565b5f60208284031215610fb5575f5ffd5b8151610fc081610b78565b9392505050565b634e487b7160e01b5f52601160045260245ffd5b6001815b600184111561101657808504811115610ffa57610ffa610fc7565b600184161561100857908102905b60019390931c928002610fdf565b935093915050565b5f8261102c575060016106af565b8161103857505f6106af565b816001811461104e576002811461105857611074565b60019150506106af565b60ff84111561106957611069610fc7565b50506001821b6106af565b5060208310610133831016604e8410600b8410161715611097575081810a6106af565b6110a35f198484610fdb565b805f19048211156110b6576110b6610fc7565b029392505050565b5f6106ac838361101e565b80820281158282048414176106af576106af610fc7565b5f826110fa57634e487b7160e01b5f52601260045260245ffd5b500490565b5f6020828403121561110f575f5ffd5b6106ac82610f56565b5f60208284031215611128575f5ffd5b5051919050565b60805160a051615ea46111815f395f8181610682015281816132fc0152613a3b01525f81816107bf01528181610b4d0152818161127f015281816112dc01528181611e5d01526128400152615ea45ff3fe608060405234801561000f575f5ffd5b50600436106103f6575f3560e01c80638665120311610216578063c64f9f0e1161012a578063dbd5edc7116100b4578063ebf3113111610084578063ebf311311461088c578063ec21386514610894578063f66a7749146108a7578063f7e533ec146108bf578063f887ea40146108c7575f5ffd5b8063dbd5edc714610856578063de4b32621461085e578063e6aa216c14610871578063ea1af6e014610879575f5ffd5b8063cefba474116100fa578063cefba474146107f4578063cf4685c614610820578063d70ec14a14610828578063d8fca1ac14610830578063d94073d414610843575f5ffd5b8063c64f9f0e1461079d578063c7876ea4146107b1578063c9c667e3146107ba578063ce5c7f61146107e1575f5ffd5b8063ad5a356f116101ab578063bdcdd8821161017b578063bdcdd88214610747578063c05bd92d1461074f578063c38a6f0b14610762578063c3f909d414610775578063c55dae631461078a575f5ffd5b8063ad5a356f1461071b578063afd27bf514610723578063b31c329014610736578063ba3f4fb21461073e575f5ffd5b8063930ec277116101e6578063930ec277146106ee578063955c7bc0146106f6578063a377d6a5146106fe578063a968a77614610712575f5ffd5b806386651203146106b75780638a8b9976146106ca5780638f1d3f00146106d257806392f5e832146106db575f5ffd5b80634318a7261161030d57806364c8d8ef116102a2578063781c18db11610272578063781c18db1461064457806379502c55146106575780637aaceb95146106755780637dc0d1d01461067d57806380f55605146106a4575f5ffd5b806364c8d8ef146105f557806369b3054b146105fd5780636df4410014610610578063780469bb14610623575f5ffd5b8063552d2e59116102dd578063552d2e59146105ae5780635b0f83f3146105d257806361d027b3146105da57806361f5cd8b146105e2575f5ffd5b80634318a726146105775780634452d81c1461057f5780634c283265146105885780634fc7fac31461059b575f5ffd5b806322c180b51161038e578063303dbaf31161035e578063303dbaf31461051d5780633194549e14610528578063326c488e14610530578063372709361461055557806338d52e0f14610566575f5ffd5b806322c180b5146104a957806322dcc85f146104b1578063256d8a23146104c85780632db6d3991461050a575f5ffd5b8063117d8ae0116103c9578063117d8ae01461046557806313c408f8146104855780631de0f095146104985780631deae8c6146104a0575f5ffd5b806301a7c58c146103fa57806301e1d1141461042557806303baf0661461043b57806306fdde0314610450575b5f5ffd5b60135461040e90600160b01b900460ff1681565b60405160ff90911681526020015b60405180910390f35b61042d6108da565b60405190815260200161041c565b61044e61044936600461419f565b610960565b005b610458610ab7565b60405161041c91906141e4565b61046d610b4a565b6040516001600160a01b03909116815260200161041c565b61044e610493366004614233565b610bcb565b61042d610c9a565b61042d61038481565b61042d610cb2565b6018544210155b604051901515815260200161041c565b601954601a54601b54601c54601d546104e2949392919085565b604080519586526020860194909452928401919091526060830152608082015260a00161041c565b61044e610518366004614233565b610cca565b60095460ff166104b8565b60055461042d565b61054361053e36600461427a565b610eeb565b60405161041c96959493929190614538565b6001546001600160a01b031661046d565b6003546001600160a01b031661046d565b61042d610ff8565b61042d60175481565b61044e6105963660046145be565b61108f565b61044e6105a936600461419f565b611150565b6105c16105bc36600461427a565b61119e565b60405161041c9594939291906145de565b61046d61127c565b61046d6112d9565b61044e6105f036600461419f565b611336565b61044e61137d565b61042d61060b366004614652565b611624565b61044e61061e36600461468c565b611657565b61063661063136600461479c565b61176f565b60405161041c929190614830565b60165461046d906001600160a01b031681565b61065f611d03565b60405161041c9a999897969594939291906148b9565b61046d611e5a565b61046d7f000000000000000000000000000000000000000000000000000000000000000081565b60115461046d906001600160a01b031681565b61044e6106c536600461419f565b611eb7565b61044e611efe565b61042d60185481565b61044e6106e936600461419f565b611f5b565b61042d611fa2565b61042d611fbc565b60135461040e90600160a81b900460ff1681565b61042d600b5481565b60065461042d565b60145461046d906001600160a01b031681565b61044e611fd0565b61042d600c5481565b600a5461042d565b61044e61075d366004614930565b611fd8565b61044e610770366004614953565b61211c565b61077d612275565b60405161041c91906149dc565b600f5461046d906001600160a01b031681565b60135461040e90600160a01b900460ff1681565b61042d600d5481565b61046d7f000000000000000000000000000000000000000000000000000000000000000081565b6106366107ef36600461427a565b61246e565b60135461080b90600160b81b900463ffffffff1681565b60405163ffffffff909116815260200161041c565b61042d612568565b61042d61263f565b600e5461046d906001600160a01b031681565b60155461046d906001600160a01b031681565b60045461042d565b61044e61086c36600461419f565b612648565b61042d612708565b60105461046d906001600160a01b031681565b61044e612739565b60135461046d906001600160a01b031681565b6108af61278b565b60405161041c9493929190614aad565b61046d61283d565b60125461046d906001600160a01b031681565b5f306001600160a01b03166322dcc85f6040518163ffffffff1660e01b8152600401602060405180830381865afa158015610917573d5f5f3e3d5ffd5b505050506040513d601f19601f8201168201806040525081019061093b9190614aff565b6109585761095360175461094d612568565b9061289a565b905090565b610953612568565b6001546001600160a01b03168015806109f757505f80546001600160a01b0316906391d14854906109919084611624565b6040516001600160e01b031960e084901b1681526004810191909152336024820152604401602060405180830381865afa1580156109d1573d5f5f3e3d5ffd5b505050506040513d601f19601f820116820180604052508101906109f59190614aff565b155b15610a1c576040516363b52ed760e11b81523360048201526024015b60405180910390fd5b610a3b82610a2c6012600a614c11565b610a37906064614c1c565b1090565b15610a7a5781610a4d6012600a614c11565b610a58906064614c1c565b6040516328e9045960e11b815260048101929092526024820152604401610a13565b60178290556040518281527ff5a802650e0a86db227cc342f06327d2ca0ff5cf2b12e0084fc5d8a7db2c54fd906020015b60405180910390a15050565b606060016006018054610ac990614c33565b80601f0160208091040260200160405190810160405280929190818152602001828054610af590614c33565b8015610b405780601f10610b1757610100808354040283529160200191610b40565b820191905f5260205f20905b815481529060010190602001808311610b2357829003601f168201915b5050505050905090565b5f7f00000000000000000000000000000000000000000000000000000000000000006001600160a01b031663117d8ae06040518163ffffffff1660e01b8152600401602060405180830381865afa158015610ba7573d5f5f3e3d5ffd5b505050506040513d601f19601f820116820180604052508101906109539190614c76565b610bd36128cb565b610bfe57335b604051631564c0e160e11b81526001600160a01b039091166004820152602401610a13565b610c06612954565b8181610c1282826129c1565b610c1c828261161f565b33610c28868686612a1f565b600354610c3f906001600160a01b03168288612a9e565b6003546040516001600160a01b03838116927fd5e872c5ecfb1bb8820b2e6a20e31b883682282da886621541f71e31ec11947e92610c8292909116908a90614c91565b60405180910390a2505050610c95612af6565b505050565b5f610953600b54600d5461289a90919063ffffffff16565b5f610953600c54600d54612b2090919063ffffffff16565b610cd2612954565b306001600160a01b031663372709366040518163ffffffff1660e01b8152600401602060405180830381865afa158015610d0e573d5f5f3e3d5ffd5b505050506040513d601f19601f82011682018060405250810190610d329190614c76565b610d3a6128cb565b610e59575f3390505f306001600160a01b031663117d8ae06040518163ffffffff1660e01b8152600401602060405180830381865afa158015610d7f573d5f5f3e3d5ffd5b505050506040513d601f19601f82011682018060405250810190610da39190614c76565b6001600160a01b0316826001600160a01b031614905080610e565760405163d25dd10160e01b81526001600160a01b0383811660048301525f919085169063d25dd10190602401602060405180830381865afa158015610e05573d5f5f3e3d5ffd5b505050506040513d601f19601f82011682018060405250810190610e299190614aff565b905080610e5457604051638f7a567d60e01b81526001600160a01b0384166004820152602401610a13565b505b50505b8282610e6582826129c1565b610e6f828261161f565b6003543390610e89906001600160a01b031682308a612b45565b610e94878787612b84565b6003546040516001600160a01b03838116927fcbaa1442ac205415c9d69643e7b60ec73d1de35dbc807c21ec288c70ddc4207b92610ed792909116908b90614c91565b60405180910390a250505050610c95612af6565b5f5f5f610f1b6040518060a001604052805f81526020015f81526020015f81526020015f81526020015f81525090565b610f23614132565b610f5c6040518060a001604052805f6001600160a01b031681526020015f81526020016060815260200160608152602001606081525090565b6004871015610f7e57604051633e5431b160e21b815260040160405180910390fd5b5f610f8c6004828a8c614caa565b610f9591614cd1565b90506001600160e01b0319811663640fc23d60e11b14610fc8576040516342868c9b60e01b815260040160405180910390fd5b610fd5886004818c614caa565b810190610fe29190615100565b949e939d50919b50995097509095509350505050565b600e546040516390d2083760e01b81525f60048201819052916001600160a01b0316906390d20837906024015b602060405180830381865afa158015611040573d5f5f3e3d5ffd5b505050506040513d601f19601f8201168201806040525081019061106491906151e3565b905061106e612b97565b1561108c57610953816ec097ce7bc90715b34b9f10000000006151fa565b90565b6001546001600160a01b031680158061112657505f80546001600160a01b0316906391d14854906110c09084611624565b6040516001600160e01b031960e084901b1681526004810191909152336024820152604401602060405180830381865afa158015611100573d5f5f3e3d5ffd5b505050506040513d601f19601f820116820180604052508101906111249190614aff565b155b15611146576040516363b52ed760e11b8152336004820152602401610a13565b610c958383612c19565b6111586128cb565b6111625733610bd9565b600a8190556040518181527fd3c6d0ab315f2f1352f036cd9f401b49e38e1b90907e195225e8105f9a0b6f02906020015b60405180910390a150565b5f5f5f6111a9614132565b6111e26040518060a001604052805f6001600160a01b031681526020015f81526020016060815260200160608152602001606081525090565b600486101561120457604051633e5431b160e21b815260040160405180910390fd5b5f611212600482898b614caa565b61121b91614cd1565b90506001600160e01b03198116631652a23360e21b1461124e576040516342868c9b60e01b815260040160405180910390fd5b61125b876004818b614caa565b8101906112689190615219565b939c929b5090995097509095509350505050565b5f7f00000000000000000000000000000000000000000000000000000000000000006001600160a01b0316635b0f83f36040518163ffffffff1660e01b8152600401602060405180830381865afa158015610ba7573d5f5f3e3d5ffd5b5f7f00000000000000000000000000000000000000000000000000000000000000006001600160a01b03166361d027b36040518163ffffffff1660e01b8152600401602060405180830381865afa158015610ba7573d5f5f3e3d5ffd5b61133e6128cb565b6113485733610bd9565b60058190556040518181527ffbe2d5c01ea8ba5596d6c4e6c82c6d4a0a0ee1128689993a4a5ba0169273d69f90602001611193565b5f5460408051630ccc574960e41b815290516001600160a01b03909216916391d1485491839163ccc57490916004808201926020929091908290030181865afa1580156113cc573d5f5f3e3d5ffd5b505050506040513d601f19601f820116820180604052508101906113f091906151e3565b6040516001600160e01b031960e084901b1681526004810191909152336024820152604401602060405180830381865afa158015611430573d5f5f3e3d5ffd5b505050506040513d601f19601f820116820180604052508101906114549190614aff565b61147357604051630ea7d7ed60e21b8152336004820152602401610a13565b306001600160a01b03166322dcc85f6040518163ffffffff1660e01b8152600401602060405180830381865afa1580156114af573d5f5f3e3d5ffd5b505050506040513d601f19601f820116820180604052508101906114d39190614aff565b15611622576015546040516370a0823160e01b81523060048201525f916001600160a01b0316906370a0823190602401602060405180830381865afa15801561151e573d5f5f3e3d5ffd5b505050506040513d601f19601f8201168201806040525081019061154291906151e3565b905061154e8182612cbb565b6010546040516370a0823160e01b81523060048201526001600160a01b039091169063a9059cbb90339083906370a0823190602401602060405180830381865afa15801561159e573d5f5f3e3d5ffd5b505050506040513d601f19601f820116820180604052508101906115c291906151e3565b6040518363ffffffff1660e01b81526004016115df929190614c91565b6020604051808303815f875af11580156115fb573d5f5f3e3d5ffd5b505050506040513d601f19601f8201168201806040525081019061161f9190614aff565b50505b565b5f82826040516020016116389291906152a9565b6040516020818303038152906040528051906020012090505b92915050565b5f5460408051630ccc574960e41b815290516001600160a01b03909216916391d1485491839163ccc57490916004808201926020929091908290030181865afa1580156116a6573d5f5f3e3d5ffd5b505050506040513d601f19601f820116820180604052508101906116ca91906151e3565b6040516001600160e01b031960e084901b1681526004810191909152336024820152604401602060405180830381865afa15801561170a573d5f5f3e3d5ffd5b505050506040513d601f19601f8201168201806040525081019061172e9190614aff565b61174d57604051630ea7d7ed60e21b8152336004820152602401610a13565b601380546001600160a01b0319166001600160a01b0392909216919091179055565b606080306001600160a01b031663117d8ae06040518163ffffffff1660e01b8152600401602060405180830381865afa1580156117ae573d5f5f3e3d5ffd5b505050506040513d601f19601f820116820180604052508101906117d29190614c76565b6001600160a01b0316336001600160a01b03161461181157335b604051631184b31b60e21b81526001600160a01b039091166004820152602401610a13565b611819612954565b82516001600160401b03811115611832576118326146a7565b60405190808252806020026020018201604052801561185b578160200160208202803683370190505b50915082516001600160401b03811115611877576118776146a7565b6040519080825280602002602001820160405280156118a0578160200160208202803683370190505b506003546040516370a0823160e01b81523060048201529192505f916001600160a01b03909116906370a0823190602401602060405180830381865afa1580156118ec573d5f5f3e3d5ffd5b505050506040513d601f19601f8201168201806040525081019061191091906151e3565b1115611ad457600154604080516330fe427560e21b815290515f926001600160a01b03169163c3f909d49160048083019260a09291908290030181865afa15801561195d573d5f5f3e3d5ffd5b505050506040513d601f19601f8201168201806040525081019061198191906152e0565b516003546040516370a0823160e01b8152306004820152919250611a069183916001600160a01b0316906370a0823190602401602060405180830381865afa1580156119cf573d5f5f3e3d5ffd5b505050506040513d601f19601f820116820180604052508101906119f391906151e3565b6003546001600160a01b03169190612f39565b6003546040516370a0823160e01b81523060048201526001600160a01b0383811692632db6d399929116906370a0823190602401602060405180830381865afa158015611a55573d5f5f3e3d5ffd5b505050506040513d601f19601f82011682018060405250810190611a7991906151e3565b60405180602001604052805f8152506040518363ffffffff1660e01b8152600401611aa592919061533f565b5f604051808303815f87803b158015611abc575f5ffd5b505af1158015611ace573d5f5f3e3d5ffd5b50505050505b5f5b8351811015611ca2575f848281518110611af257611af2615357565b60209081029190910101516040516370a0823160e01b81523060048201526001600160a01b03909116906370a0823190602401602060405180830381865afa158015611b40573d5f5f3e3d5ffd5b505050506040513d601f19601f82011682018060405250810190611b6491906151e3565b90508015611c9957611c2d611b77610b4a565b868481518110611b8957611b89615357565b60209081029190910101516040516370a0823160e01b81523060048201526001600160a01b03909116906370a0823190602401602060405180830381865afa158015611bd7573d5f5f3e3d5ffd5b505050506040513d601f19601f82011682018060405250810190611bfb91906151e3565b878581518110611c0d57611c0d615357565b60200260200101516001600160a01b0316612a9e9092919063ffffffff16565b848281518110611c3f57611c3f615357565b6020026020010151848381518110611c5957611c59615357565b60200260200101906001600160a01b031690816001600160a01b03168152505080838381518110611c8c57611c8c615357565b6020026020010181815250505b50600101611ad6565b5080604051611cb1919061536b565b604051809103902082604051611cc791906153a0565b604051908190038120907f46b8771620f6acf56cb03d3e835ea8024c7dcbcf05fcc3f6ade9e19d1a3e212b905f90a3611cfe612af6565b915091565b60018054600254600354600454600554600654600780546001600160a01b03978816989688169790951695939492939192611d3d90614c33565b80601f0160208091040260200160405190810160405280929190818152602001828054611d6990614c33565b8015611db45780601f10611d8b57610100808354040283529160200191611db4565b820191905f5260205f20905b815481529060010190602001808311611d9757829003601f168201915b505050505090806007018054611dc990614c33565b80601f0160208091040260200160405190810160405280929190818152602001828054611df590614c33565b8015611e405780601f10611e1757610100808354040283529160200191611e40565b820191905f5260205f20905b815481529060010190602001808311611e2357829003601f168201915b505050506008830154600990930154919260ff169190508a565b5f7f00000000000000000000000000000000000000000000000000000000000000006001600160a01b0316637aaceb956040518163ffffffff1660e01b8152600401602060405180830381865afa158015610ba7573d5f5f3e3d5ffd5b611ebf6128cb565b611ec95733610bd9565b60048190556040518181527f333b26cca69716ad4680ddb07663f5bfb4f06045671f336af9a83690a3ae00f990602001611193565b611f066128cb565b611f105733610bd9565b600180546001600160a01b031916339081179091556040519081527f55489ce0259bd691120d8860861be1c401c7c16a3cd268d21045756af4ecc5ca906020015b60405180910390a1565b611f636128cb565b611f6d5733610bd9565b60068190556040518181527fb6ac66853c4e59c71e118d25ab494bb847c4e5eb0c8894898c5343e6f61afc1290602001611193565b611fae6012600a614c11565b611fb9906064614c1c565b81565b5f611fc5612708565b905061095381612fc9565b611622613006565b6001546001600160a01b031680158061206f57505f80546001600160a01b0316906391d14854906120099084611624565b6040516001600160e01b031960e084901b1681526004810191909152336024820152604401602060405180830381865afa158015612049573d5f5f3e3d5ffd5b505050506040513d601f19601f8201168201806040525081019061206d9190614aff565b155b1561208f576040516363b52ed760e11b8152336004820152602401610a13565b6103848263ffffffff1610156120c857604051630d33f2b360e21b815263ffffffff831660048201526103846024820152604401610a13565b6013805463ffffffff60b81b1916600160b81b63ffffffff8516908102919091179091556040519081527f4b3aa5c9fb94258bcc25dd74639341b3baf9771cfb27c62dbc11af634747aa4d90602001610aab565b6121246128cb565b61212e5733610bd9565b818161213a82826129c1565b612144828261161f565b61214f888585612a1f565b60035460405163095ea7b360e01b81526001600160a01b039091169063095ea7b390612181908a908c90600401614c91565b6020604051808303815f875af115801561219d573d5f5f3e3d5ffd5b505050506040513d601f19601f820116820180604052508101906121c19190614aff565b50604051632db6d39960e01b81526001600160a01b03881690632db6d399906121f2908b908a908a906004016153d3565b5f604051808303815f87803b158015612209575f5ffd5b505af115801561221b573d5f5f3e3d5ffd5b50506003546040516001600160a01b03808c1694503093507f9f784fc02a186f1c98b2d9f15fda084da27cdd291a3785d978f91911d880516b92612263929116908d90614c91565b60405180910390a35050505050505050565b6122e06040518061014001604052805f6001600160a01b031681526020015f6001600160a01b031681526020015f6001600160a01b031681526020015f81526020015f81526020015f815260200160608152602001606081526020015f151581526020015f81525090565b6040805161014081018252600180546001600160a01b0390811683526002548116602084015260035416928201929092526004546060820152600554608082015260065460a08201526007805491929160c08401919061233f90614c33565b80601f016020809104026020016040519081016040528092919081815260200182805461236b90614c33565b80156123b65780601f1061238d576101008083540402835291602001916123b6565b820191905f5260205f20905b81548152906001019060200180831161239957829003601f168201915b505050505081526020016007820180546123cf90614c33565b80601f01602080910402602001604051908101604052809291908181526020018280546123fb90614c33565b80156124465780601f1061241d57610100808354040283529160200191612446565b820191905f5260205f20905b81548152906001019060200180831161242957829003601f168201915b5050509183525050600882015460ff1615156020820152600990910154604090910152919050565b606080306001600160a01b031663117d8ae06040518163ffffffff1660e01b8152600401602060405180830381865afa1580156124ad573d5f5f3e3d5ffd5b505050506040513d601f19601f820116820180604052508101906124d19190614c76565b6001600160a01b0316336001600160a01b0316146124ef57336117ec565b6124f7612954565b6125018484613187565b604051919350915061251490829061536b565b60405180910390208260405161252a91906153a0565b604051908190038120907f3e3e7958121b3e39c7a49392d1aa9cdce870c2a059744f9e15cf66fff7865455905f90a3612561612af6565b9250929050565b5f5f670de0b6b3a764000061257b6132c2565b6015546040516370a0823160e01b81523060048201526001600160a01b03909116906370a0823190602401602060405180830381865afa1580156125c1573d5f5f3e3d5ffd5b505050506040513d601f19601f820116820180604052508101906125e591906151e3565b6125ef9190614c1c565b6125f991906151fa565b90505f61260461263f565b6013549091505f90829061262390600160a01b900460ff16600a615408565b61262d9085614c1c565b61263791906151fa565b949350505050565b5f611fc5610ff8565b6001546001600160a01b03168015806126df57505f80546001600160a01b0316906391d14854906126799084611624565b6040516001600160e01b031960e084901b1681526004810191909152336024820152604401602060405180830381865afa1580156126b9573d5f5f3e3d5ffd5b505050506040513d601f19601f820116820180604052508101906126dd9190614aff565b155b156126ff576040516363b52ed760e11b8152336004820152602401610a13565b61161f82613365565b600e54604051631c98d5a960e11b81525f60048201819052916001600160a01b031690633931ab5290602401611025565b6127416128cb565b61274b5733610bd9565b600180546001600160a01b03191690556040513381527f7cb941d7b1708e5b3bcd35ca960d6c6311188cec18886e5b67630552676b048790602001611f51565b602380546024805460ff8316936101009093046001600160a01b03169291906127b390614c33565b80601f01602080910402602001604051908101604052809291908181526020018280546127df90614c33565b801561282a5780601f106128015761010080835404028352916020019161282a565b820191905f5260205f20905b81548152906001019060200180831161280d57829003601f168201915b5050506002909301549192505060ff1684565b5f7f00000000000000000000000000000000000000000000000000000000000000006001600160a01b031663f7e533ec6040518163ffffffff1660e01b8152600401602060405180830381865afa158015610ba7573d5f5f3e3d5ffd5b5f6128c4836128bf6128ae6012600a614c11565b6128b9906064614c1c565b8561339a565b6133a5565b9392505050565b5f80546001600160a01b03166391d148546128e7600230611624565b336040516001600160e01b031960e085901b16815260048101929092526001600160a01b03166024820152604401602060405180830381865afa158015612930573d5f5f3e3d5ffd5b505050506040513d601f19601f820116820180604052508101906109539190614aff565b7f9b779b17422d0df92223018b32b4d1fa46e071723d6817e2486d003becc55f005c1561299457604051633ee5aeb560e01b815260040160405180910390fd5b61162260017f9b779b17422d0df92223018b32b4d1fa46e071723d6817e2486d003becc55f005b906133d1565b80158015906129d3575060095460ff16155b156129f157604051630cd0fdf960e01b815260040160405180910390fd5b80158015612a01575060095460ff165b1561161f5760405163332863a960e11b815260040160405180910390fd5b612a276133d8565b612a2f613006565b306001600160a01b03166322dcc85f6040518163ffffffff1660e01b8152600401602060405180830381865afa158015612a6b573d5f5f3e3d5ffd5b505050506040513d601f19601f82011682018060405250810190612a8f9190614aff565b610c9557610c95838383613415565b610c9583846001600160a01b031663a9059cbb8585604051602401612ac4929190614c91565b604051602081830303815290604052915060e01b6020820180516001600160e01b03838183161783525050505061369c565b6116225f7f9b779b17422d0df92223018b32b4d1fa46e071723d6817e2486d003becc55f006129bb565b5f6128c4836128bf612b346012600a614c11565b612b3f906064614c1c565b85613708565b6040516001600160a01b038481166024830152838116604483015260648201839052612b7e9186918216906323b872dd90608401612ac4565b50505050565b612b8c613006565b610c95838383613713565b600f54600e5460405163c661065760e01b8152600160048201525f926001600160a01b0390811692169063c661065790602401602060405180830381865afa158015612be5573d5f5f3e3d5ffd5b505050506040513d601f19601f82011682018060405250810190612c099190614c76565b6001600160a01b03161415905090565b612c2982610a2c6012600a614c11565b15612c4a5760405163da02d69560e01b815260048101839052602401610a13565b612c5a81610a2c6012600a614c11565b15612c7b5760405163da02d69560e01b815260048101829052602401610a13565b600b829055600c81905560408051838152602081018390527f8168a7fb0f1fff0693e7681fbfd2a2dbfe563344325f1db3a88498c76a6efeeb9101610aab565b8115612dbd5760155460125460405163095ea7b360e01b81526001600160a01b039283169263095ea7b392612cf7929116908690600401614c91565b6020604051808303815f875af1158015612d13573d5f5f3e3d5ffd5b505050506040513d601f19601f82011682018060405250810190612d379190614aff565b5060125460165460405163339748cb60e01b81523060048201526001600160a01b039182166024820152604481018590526064810184905291169063339748cb906084016020604051808303815f875af1158015612d97573d5f5f3e3d5ffd5b505050506040513d601f19601f82011682018060405250810190612dbb91906151e3565b505b6014546040516370a0823160e01b81523060048201525f916001600160a01b0316906370a0823190602401602060405180830381865afa158015612e03573d5f5f3e3d5ffd5b505050506040513d601f19601f82011682018060405250810190612e2791906151e3565b90508015610c955760145460105460405163cbe52ae360e01b81525f926001600160a01b039081169263cbe52ae392612e6892909116908690600401614c91565b602060405180830381865afa158015612e83573d5f5f3e3d5ffd5b505050506040513d601f19601f82011682018060405250810190612ea791906151e3565b60145460105460405163769f8e5d60e01b8152306004820152602481018690526001600160a01b039182166044820152606481018490525f6084820152929350169063769f8e5d9060a4016020604051808303815f875af1158015612f0e573d5f5f3e3d5ffd5b505050506040513d601f19601f82011682018060405250810190612f3291906151e3565b5050505050565b5f836001600160a01b031663095ea7b38484604051602401612f5c929190614c91565b604051602081830303815290604052915060e01b6020820180516001600160e01b0383818316178352505050509050612f9584826139b8565b612b7e57612fbf84856001600160a01b031663095ea7b3865f604051602401612ac4929190614c91565b612b7e848261369c565b5f5f612fd3610c9a565b90505f612fde610cb2565b905081841015612fef575092915050565b80841115612ffe579392505050565b509192915050565b60185442101561301257565b5f306001600160a01b031663ec2138656040518163ffffffff1660e01b8152600401602060405180830381865afa15801561304f573d5f5f3e3d5ffd5b505050506040513d601f19601f820116820180604052508101906130739190614c76565b90506001600160a01b038116158061309857506011546001600160a01b038281169116145b156130b6576040516301fb70bf60e21b815260040160405180910390fd5b6130bf81613a01565b6130c65750565b6015546040516370a0823160e01b81523060048201525f916001600160a01b0316906370a0823190602401602060405180830381865afa15801561310c573d5f5f3e3d5ffd5b505050506040513d601f19601f8201168201806040525081019061313091906151e3565b905061313c8182612cbb565b61314582613ab9565b61314e81613e14565b6040516001600160a01b03831681527f3b7aba7495f95b008f26fc1548021f2fb059ad26ef38f422178347e2b585989890602001610aab565b60608060115f9054906101000a90046001600160a01b03166001600160a01b031663c4f59f9b6040518163ffffffff1660e01b81526004015f60405180830381865afa1580156131d9573d5f5f3e3d5ffd5b505050506040513d5f823e601f3d908101601f191682016040526132009190810190615416565b601154604051639262187b60e01b81523060048201529193506001600160a01b031690639262187b906024015f604051808303815f875af1158015613247573d5f5f3e3d5ffd5b505050506040513d5f823e601f3d908101601f1916820160405261326e91908101906154a5565b90505f5b82518110156132ba576132b2613286610b4a565b83838151811061329857613298615357565b6020026020010151858481518110611c0d57611c0d615357565b600101613272565b509250929050565b60115460135460405163abca0eab60e01b81526001600160a01b039283166004820152600160b81b90910463ffffffff1660248201525f917f0000000000000000000000000000000000000000000000000000000000000000169063abca0eab90604401602060405180830381865afa158015613341573d5f5f3e3d5ffd5b505050506040513d601f19601f8201168201806040525081019061095391906151e3565b600d8190556040518181527ffab5bcbec79a8b5888e114fd4b378427aa58d9b237d85056f0ee5b3ea57df8c590602001611193565b5f6128c4828461552b565b5f6133b26012600a614c11565b6133bd906064614c1c565b6133c78385614c1c565b6128c491906151fa565b80825d5050565b6133f86133e3610ff8565b6133eb610c9a565b6133f3610cb2565b614053565b61162257604051638de5208960e01b815260040160405180910390fd5b5f613422828401846155a1565b9050306001600160a01b03166322dcc85f6040518163ffffffff1660e01b8152600401602060405180830381865afa158015613460573d5f5f3e3d5ffd5b505050506040513d601f19601f820116820180604052508101906134849190614aff565b156134a25760405163b2094b5960e01b815260040160405180910390fd5b805160405163552d2e5960e01b81525f918291829182918291309163552d2e59916134cf916004016141e4565b5f60405180830381865afa1580156134e9573d5f5f3e3d5ffd5b505050506040513d5f823e601f3d908101601f19168201604052613510919081019061596e565b94509450945094509450306001600160a01b0316856001600160a01b03161461354c57604051631e4ec46b60e01b815260040160405180910390fd5b6011546001600160a01b0385811691161461357a57604051639db8d5b160e01b815260040160405180910390fd5b816020015189101561359f576040516342301c2360e01b815260040160405180910390fd5b60155460125460405163095ea7b360e01b81526001600160a01b039283169263095ea7b3926135d5929116908790600401614c91565b6020604051808303815f875af11580156135f1573d5f5f3e3d5ffd5b505050506040513d601f19601f820116820180604052508101906136159190614aff565b50601254604051631652a23360e21b81526001600160a01b039091169063594a88cc9061364e90889088908890889088906004016145de565b6060604051808303815f875af115801561366a573d5f5f3e3d5ffd5b505050506040513d601f19601f8201168201806040525081019061368e91906159f3565b505050505050505050505050565b5f5f60205f8451602086015f885af1806136bb576040513d5f823e3d81fd5b50505f513d915081156136d25780600114156136df565b6001600160a01b0384163b155b15612b7e57604051635274afe760e01b81526001600160a01b0385166004820152602401610a13565b5f6128c48284615a1e565b61371b6133d8565b61372842621a5e00615a1e565b601854116137495760405163eb86c49b60e01b815260040160405180910390fd5b5f613756828401846155a1565b9050306001600160a01b03166322dcc85f6040518163ffffffff1660e01b8152600401602060405180830381865afa158015613794573d5f5f3e3d5ffd5b505050506040513d601f19601f820116820180604052508101906137b89190614aff565b156137d65760405163b2094b5960e01b815260040160405180910390fd5b5f5f5f5f5f5f306001600160a01b031663326c488e885f01516040518263ffffffff1660e01b815260040161380b91906141e4565b5f60405180830381865afa158015613825573d5f5f3e3d5ffd5b505050506040513d5f823e601f3d908101601f1916820160405261384c9190810190615a31565b955095509550955095509550306001600160a01b0316866001600160a01b03161461388a57604051631e4ec46b60e01b815260040160405180910390fd5b6011546001600160a01b038681169116146138b857604051639db8d5b160e01b815260040160405180910390fd5b60035460125460405163095ea7b360e01b81526001600160a01b039283169263095ea7b3926138ee929116908e90600401614c91565b6020604051808303815f875af115801561390a573d5f5f3e3d5ffd5b505050506040513d601f19601f8201168201806040525081019061392e9190614aff565b5060125460405163640fc23d60e11b81526001600160a01b039091169063c81f847a9061396990899089908990899089908990600401614538565b6060604051808303815f875af1158015613985573d5f5f3e3d5ffd5b505050506040513d601f19601f820116820180604052508101906139a991906159f3565b50505050505050505050505050565b5f5f5f5f60205f8651602088015f8a5af192503d91505f5190508280156139f7575081156139e957806001146139f7565b5f866001600160a01b03163b115b9695505050505050565b60135460405162439f4b60e91b81526001600160a01b038381166004830152600160b81b90920463ffffffff1660248201525f91829182917f0000000000000000000000000000000000000000000000000000000000000000169063873e960090604401606060405180830381865afa158015613a80573d5f5f3e3d5ffd5b505050506040513d601f19601f82011682018060405250810190613aa49190615b0a565b92505091508115801561263757509392505050565b601180546001600160a01b0319166001600160a01b03831690811790915560408051630b2339af60e21b81529051632c8ce6bc916004808201926060929091908290030181865afa158015613b10573d5f5f3e3d5ffd5b505050506040513d601f19601f82011682018060405250810190613b349190615b5a565b601680546001600160a01b03199081166001600160a01b03938416179091556015805482169383169390931790925560148054909216928116928317909155601054604051637d2d278360e11b81529116600482015263fa5a4f0690602401602060405180830381865afa158015613bae573d5f5f3e3d5ffd5b505050506040513d601f19601f82011682018060405250810190613bd29190614aff565b1580613c495750601454601054604051633c21b3eb60e11b81526001600160a01b03918216600482015291169063784367d690602401602060405180830381865afa158015613c23573d5f5f3e3d5ffd5b505050506040513d601f19601f82011682018060405250810190613c479190614aff565b155b15613c6757604051631bda904d60e31b815260040160405180910390fd5b6003546040805163313ce56760e01b815290516001600160a01b039092169163313ce567916004808201926020929091908290030181865afa158015613caf573d5f5f3e3d5ffd5b505050506040513d601f19601f82011682018060405250810190613cd39190615b99565b601360146101000a81548160ff021916908360ff16021790555060105f9054906101000a90046001600160a01b03166001600160a01b031663313ce5676040518163ffffffff1660e01b8152600401602060405180830381865afa158015613d3d573d5f5f3e3d5ffd5b505050506040513d601f19601f82011682018060405250810190613d619190615b99565b601360156101000a81548160ff021916908360ff16021790555060155f9054906101000a90046001600160a01b03166001600160a01b031663313ce5676040518163ffffffff1660e01b8152600401602060405180830381865afa158015613dcb573d5f5f3e3d5ffd5b505050506040513d601f19601f82011682018060405250810190613def9190615b99565b601360166101000a81548160ff021916908360ff160217905550613e11614069565b50565b5f613e2460175461094d846140e2565b6040805160a0810182526010546001600160a01b031680825260208201869052818301525f60608201819052825160808181019094526023805495965091949293840192909190829060ff166003811115613e8157613e816142b8565b6003811115613e9257613e926142b8565b8152815461010090046001600160a01b03166020820152600182018054604090920191613ebe90614c33565b80601f0160208091040260200160405190810160405280929190818152602001828054613eea90614c33565b8015613f355780601f10613f0c57610100808354040283529160200191613f35565b820191905f5260205f20905b815481529060010190602001808311613f1857829003601f168201915b50505091835250506002919091015460ff161515602090910152905260105460125460405163095ea7b360e01b81529293506001600160a01b039182169263095ea7b392613f899216908790600401614c91565b6020604051808303815f875af1158015613fa5573d5f5f3e3d5ffd5b505050506040513d601f19601f82011682018060405250810190613fc99190614aff565b5060125460115460405163640fc23d60e11b81526001600160a01b039283169263c81f847a9261400b9230929091169087906019908890601e90600401615dc6565b6060604051808303815f875af1158015614027573d5f5f3e3d5ffd5b505050506040513d601f19601f8201168201806040525081019061404b91906159f3565b505050505050565b5f82841015801561263757505090911115919050565b60115f9054906101000a90046001600160a01b03166001600160a01b031663e184c9be6040518163ffffffff1660e01b8152600401602060405180830381865afa1580156140b9573d5f5f3e3d5ffd5b505050506040513d601f19601f820116820180604052508101906140dd91906151e3565b601855565b6013545f90819060ff600160a81b820481169161410991600160b01b909104166012615e3c565b6141139190615e55565b61411e90600a615408565b90506141286132c2565b6133c78285614c1c565b6040518060a001604052805f6001600160a01b031681526020015f81526020015f6001600160a01b031681526020015f6001600160a01b0316815260200161419a6040805160808101909152805f81525f602082018190526060604083018190529091015290565b905290565b5f602082840312156141af575f5ffd5b5035919050565b5f81518084528060208401602086015e5f602082860101526020601f19601f83011685010191505092915050565b602081525f6128c460208301846141b6565b5f5f83601f840112614206575f5ffd5b5081356001600160401b0381111561421c575f5ffd5b602083019150836020828501011115612561575f5ffd5b5f5f5f60408486031215614245575f5ffd5b8335925060208401356001600160401b03811115614261575f5ffd5b61426d868287016141f6565b9497909650939450505050565b5f5f6020838503121561428b575f5ffd5b82356001600160401b038111156142a0575f5ffd5b6142ac858286016141f6565b90969095509350505050565b634e487b7160e01b5f52602160045260245ffd5b60048110613e1157613e116142b8565b60018060a01b0381511682526020810151602083015260018060a01b03604082015116604083015260018060a01b0360608201511660608301525f608082015160a06080850152805161432e816142cc565b60a085015260208101516001600160a01b031660c08501526040810151608060e08601526143606101208601826141b6565b905060608201511515610100860152809250505092915050565b614383816142cc565b9052565b5f82825180855260208501945060208160051b830101602085015f5b838110156144c057848303601f1901885281518051606080865281518187015260208201516080870152604082015160a08701528101516143e760c087018261437a565b5060808101516001600160a01b03811660e08701525060a08101516001600160a01b0381166101008701525060c08101516001600160a01b0381166101208701525060e08101516001600160a01b038116610140870152506101008101516101608601526101208101516101808601526101408101516101a086015261016081015190506101806101c08601526144826101e08601826141b6565b90506020820151858203602087015261449b82826141b6565b60409384015196909301959095525060209889019890935091909101906001016143a3565b50909695505050505050565b60018060a01b038151168252602081015160208301525f604082015160a060408501526144fc60a0850182614387565b9050606083015184820360608601526145158282614387565b9150506080830151848203608086015261452f82826141b6565b95945050505050565b60018060a01b038716815260018060a01b03861660208201528460408201528351606082015260208401516080820152604084015160a0820152606084015160c0820152608084015160e08201526101406101008201525f61459e6101408301856142dc565b8281036101208401526145b181856144cc565b9998505050505050505050565b5f5f604083850312156145cf575f5ffd5b50508035926020909101359150565b6001600160a01b038681168252851660208201526040810184905260a0606082018190525f90614610908301856142dc565b828103608084015261462281856144cc565b98975050505050505050565b6001600160a01b0381168114613e11575f5ffd5b803561464d8161462e565b919050565b5f5f60408385031215614663575f5ffd5b823560038110614671575f5ffd5b915060208301356146818161462e565b809150509250929050565b5f6020828403121561469c575f5ffd5b81356128c48161462e565b634e487b7160e01b5f52604160045260245ffd5b60405160a081016001600160401b03811182821017156146dd576146dd6146a7565b60405290565b604051608081016001600160401b03811182821017156146dd576146dd6146a7565b604051606081016001600160401b03811182821017156146dd576146dd6146a7565b60405161018081016001600160401b03811182821017156146dd576146dd6146a7565b604051601f8201601f191681016001600160401b0381118282101715614772576147726146a7565b604052919050565b5f6001600160401b03821115614792576147926146a7565b5060051b60200190565b5f602082840312156147ac575f5ffd5b81356001600160401b038111156147c1575f5ffd5b8201601f810184136147d1575f5ffd5b80356147e46147df8261477a565b61474a565b8082825260208201915060208360051b850101925086831115614805575f5ffd5b6020840193505b828410156139f757833561481f8161462e565b82526020938401939091019061480c565b604080825283519082018190525f9060208501906060840190835b818110156148725783516001600160a01b031683526020938401939092019160010161484b565b5050838103602080860191909152855180835291810192508501905f5b818110156148ad57825184526020938401939092019160010161488f565b50919695505050505050565b6001600160a01b038b811682528a8116602083015289166040820152606081018890526080810187905260a0810186905261014060c082018190525f90614902908301876141b6565b82810360e084015261491481876141b6565b9415156101008401525050610120015298975050505050505050565b5f60208284031215614940575f5ffd5b813563ffffffff811681146128c4575f5ffd5b5f5f5f5f5f5f60808789031215614968575f5ffd5b86359550602087013561497a8161462e565b945060408701356001600160401b03811115614994575f5ffd5b6149a089828a016141f6565b90955093505060608701356001600160401b038111156149be575f5ffd5b6149ca89828a016141f6565b979a9699509497509295939492505050565b602081526149f66020820183516001600160a01b03169052565b5f6020830151614a1160408401826001600160a01b03169052565b5060408301516001600160a01b03811660608401525060608301516080830152608083015160a083015260a083015160c083015260c083015161014060e0840152614a606101608401826141b6565b905060e0840151601f1984830301610100850152614a7e82826141b6565b915050610100840151614a9661012085018215159052565b506101208401516101408401528091505092915050565b614ab6856142cc565b8481526001600160a01b03841660208201526080604082018190525f90614adf908301856141b6565b9050821515606083015295945050505050565b8015158114613e11575f5ffd5b5f60208284031215614b0f575f5ffd5b81516128c481614af2565b634e487b7160e01b5f52601160045260245ffd5b6001815b6001841115614b6957808504811115614b4d57614b4d614b1a565b6001841615614b5b57908102905b60019390931c928002614b32565b935093915050565b5f82614b7f57506001611651565b81614b8b57505f611651565b8160018114614ba15760028114614bab57614bc7565b6001915050611651565b60ff841115614bbc57614bbc614b1a565b50506001821b611651565b5060208310610133831016604e8410600b8410161715614bea575081810a611651565b614bf65f198484614b2e565b805f1904821115614c0957614c09614b1a565b029392505050565b5f6128c48383614b71565b808202811582820484141761165157611651614b1a565b600181811c90821680614c4757607f821691505b602082108103614c6557634e487b7160e01b5f52602260045260245ffd5b50919050565b805161464d8161462e565b5f60208284031215614c86575f5ffd5b81516128c48161462e565b6001600160a01b03929092168252602082015260400190565b5f5f85851115614cb8575f5ffd5b83861115614cc4575f5ffd5b5050820193919092039150565b80356001600160e01b03198116906004841015614d02576001600160e01b0319600485900360031b81901b82161691505b5092915050565b60048110613e11575f5ffd5b803561464d81614d09565b5f6001600160401b03821115614d3857614d386146a7565b50601f01601f191660200190565b5f82601f830112614d55575f5ffd5b8135614d636147df82614d20565b818152846020838601011115614d77575f5ffd5b816020850160208301375f918101602001919091529392505050565b5f60a08284031215614da3575f5ffd5b614dab6146bb565b90508135614db88161462e565b8152602082810135908201526040820135614dd28161462e565b60408201526060820135614de58161462e565b606082015260808201356001600160401b03811115614e02575f5ffd5b820160808185031215614e13575f5ffd5b614e1b6146e3565b8135614e2681614d09565b81526020820135614e368161462e565b602082015260408201356001600160401b03811115614e53575f5ffd5b614e5f86828501614d46565b60408301525060608201359150614e7582614af2565b6060810191909152608082015292915050565b5f82601f830112614e97575f5ffd5b8135614ea56147df8261477a565b8082825260208201915060208360051b860101925085831115614ec6575f5ffd5b602085015b838110156150435780356001600160401b03811115614ee8575f5ffd5b86016060818903601f19011215614efd575f5ffd5b614f05614705565b60208201356001600160401b03811115614f1d575f5ffd5b6020818401019050610180818b031215614f35575f5ffd5b614f3d614727565b813581526020808301359082015260408083013590820152614f6160608301614d15565b6060820152614f7260808301614642565b6080820152614f8360a08301614642565b60a0820152614f9460c08301614642565b60c0820152614fa560e08301614642565b60e08201526101008281013590820152610120808301359082015261014080830135908201526101608201356001600160401b03811115614fe4575f5ffd5b614ff08c828501614d46565b6101608301525082525060408201356001600160401b03811115615012575f5ffd5b6150218a602083860101614d46565b6020838101919091526060939093013560408301525084529283019201614ecb565b5095945050505050565b5f60a0828403121561505d575f5ffd5b6150656146bb565b905061507082614642565b81526020828101359082015260408201356001600160401b03811115615094575f5ffd5b6150a084828501614e88565b60408301525060608201356001600160401b038111156150be575f5ffd5b6150ca84828501614e88565b60608301525060808201356001600160401b038111156150e8575f5ffd5b6150f484828501614d46565b60808301525092915050565b5f5f5f5f5f5f868803610140811215615117575f5ffd5b87356151228161462e565b965060208801356151328161462e565b95506040880135945060a0605f198201121561514c575f5ffd5b506151556146bb565b60608881013582526080808a0135602084015260a08a0135604084015260c08a01359183019190915260e08901359082015292506101008701356001600160401b038111156151a2575f5ffd5b6151ae89828a01614d93565b9250506101208701356001600160401b038111156151ca575f5ffd5b6151d689828a0161504d565b9150509295509295509295565b5f602082840312156151f3575f5ffd5b5051919050565b5f8261521457634e487b7160e01b5f52601260045260245ffd5b500490565b5f5f5f5f5f60a0868803121561522d575f5ffd5b85356152388161462e565b945060208601356152488161462e565b93506040860135925060608601356001600160401b03811115615269575f5ffd5b61527588828901614d93565b92505060808601356001600160401b03811115615290575f5ffd5b61529c8882890161504d565b9150509295509295909350565b5f600384106152ba576152ba6142b8565b5060f89290921b825260601b6bffffffffffffffffffffffff1916600182015260150190565b5f60a08284031280156152f1575f5ffd5b506152fa6146bb565b82516153058161462e565b815260208381015190820152604080840151908201526060808401519082015260808301516153338161462e565b60808201529392505050565b828152604060208201525f61263760408301846141b6565b634e487b7160e01b5f52603260045260245ffd5b81515f90829060208501835b82811015615395578151845260209384019390910190600101615377565b509195945050505050565b81515f90829060208501835b828110156153955781516001600160a01b03168452602093840193909101906001016153ac565b83815260406020820152816040820152818360608301375f818301606090810191909152601f909201601f1916010192915050565b5f6128c460ff841683614b71565b5f60208284031215615426575f5ffd5b81516001600160401b0381111561543b575f5ffd5b8201601f8101841361544b575f5ffd5b80516154596147df8261477a565b8082825260208201915060208360051b85010192508683111561547a575f5ffd5b6020840193505b828410156139f75783516154948161462e565b825260209384019390910190615481565b5f602082840312156154b5575f5ffd5b81516001600160401b038111156154ca575f5ffd5b8201601f810184136154da575f5ffd5b80516154e86147df8261477a565b8082825260208201915060208360051b850101925086831115615509575f5ffd5b6020840193505b828410156139f7578351825260209384019390910190615510565b8181038181111561165157611651614b1a565b5f6020828403121561554e575f5ffd5b604051602081016001600160401b0381118282101715615570576155706146a7565b60405290508082356001600160401b0381111561558b575f5ffd5b61559785828601614d46565b8252505092915050565b5f602082840312156155b1575f5ffd5b81356001600160401b038111156155c6575f5ffd5b6126378482850161553e565b805161464d81614d09565b5f82601f8301126155ec575f5ffd5b81516155fa6147df82614d20565b81815284602083860101111561560e575f5ffd5b8160208501602083015e5f918101602001919091529392505050565b5f60a0828403121561563a575f5ffd5b6156426146bb565b9050815161564f8161462e565b81526020828101519082015260408201516156698161462e565b6040820152606082015161567c8161462e565b606082015260808201516001600160401b03811115615699575f5ffd5b8201608081850312156156aa575f5ffd5b6156b26146e3565b81516156bd81614d09565b815260208201516156cd8161462e565b602082015260408201516001600160401b038111156156ea575f5ffd5b6156f6868285016155dd565b60408301525060608201519150614e7582614af2565b5f82601f83011261571b575f5ffd5b81516157296147df8261477a565b8082825260208201915060208360051b86010192508583111561574a575f5ffd5b602085015b838110156150435780516001600160401b0381111561576c575f5ffd5b86016060818903601f19011215615781575f5ffd5b615789614705565b60208201516001600160401b038111156157a1575f5ffd5b6020818401019050610180818b0312156157b9575f5ffd5b6157c1614727565b8151815260208083015190820152604080830151908201526157e5606083016155d2565b60608201526157f660808301614c6b565b608082015261580760a08301614c6b565b60a082015261581860c08301614c6b565b60c082015261582960e08301614c6b565b60e08201526101008281015190820152610120808301519082015261014080830151908201526101608201516001600160401b03811115615868575f5ffd5b6158748c8285016155dd565b6101608301525082525060408201516001600160401b03811115615896575f5ffd5b6158a58a6020838601016155dd565b602083810191909152606093909301516040830152508452928301920161574f565b5f60a082840312156158d7575f5ffd5b6158df6146bb565b90506158ea82614c6b565b81526020828101519082015260408201516001600160401b0381111561590e575f5ffd5b61591a8482850161570c565b60408301525060608201516001600160401b03811115615938575f5ffd5b6159448482850161570c565b60608301525060808201516001600160401b03811115615962575f5ffd5b6150f4848285016155dd565b5f5f5f5f5f60a08688031215615982575f5ffd5b855161598d8161462e565b602087015190955061599e8161462e565b6040870151606088015191955093506001600160401b038111156159c0575f5ffd5b6159cc8882890161562a565b92505060808601516001600160401b038111156159e7575f5ffd5b61529c888289016158c7565b5f5f5f60608486031215615a05575f5ffd5b5050815160208301516040909301519094929350919050565b8082018082111561165157611651614b1a565b5f5f5f5f5f5f868803610140811215615a48575f5ffd5b8751615a538161462e565b6020890151909750615a648161462e565b6040890151909650945060a0605f1982011215615a7f575f5ffd5b50615a886146bb565b60608881015182526080808a0151602084015260a08a0151604084015260c08a01519183019190915260e0890151908201526101008801519093506001600160401b03811115615ad6575f5ffd5b615ae289828a0161562a565b9250506101208701516001600160401b03811115615afe575f5ffd5b6151d689828a016158c7565b5f5f5f60608486031215615b1c575f5ffd5b8351615b2781614af2565b602085015190935061ffff81168114615b3e575f5ffd5b6040850151909250615b4f81614af2565b809150509250925092565b5f5f5f60608486031215615b6c575f5ffd5b8351615b778161462e565b6020850151909350615b888161462e565b6040850151909250615b4f8161462e565b5f60208284031215615ba9575f5ffd5b815160ff811681146128c4575f5ffd5b80545f90600181811c90821680615bd157607f821691505b602082108103615bef57634e487b7160e01b5f52602260045260245ffd5b81865260208601818015615c0a5760018114615c2057615c4c565b60ff198516825283151560051b82019550615c4c565b5f878152602090205f5b85811015615c4657815484820152600190910190602001615c2a565b83019650505b505050505092915050565b5f82825480855260208501945060208160051b830101845f5260205f205f5b838110156144c057601f19858403018852606083528154606084015260018201546080840152600282015460a08401526003820154615cbb60c0850160ff831661437a565b6001600160a01b03600891821c811660e0860152600484015481166101008601526005840154811661012086015260068401541661014085015260078301546101608501528201546101808085019190915260098301546101a08501526101c0840152615d2f6101e08401600a8401615bb9565b8381036020850152615d4481600b8501615bb9565b600c840154604095909501949094525060209790970196600d90910190600101615c76565b80546001600160a01b031682526001810154602083015260a0604083018190525f90615d9a90840160028401615c57565b8381036060850152615daf8160038501615c57565b905083810360808501526126378160048501615bb9565b6001600160a01b03878116825286166020820152604081018590528354606082015260018401546080820152600284015460a0820152600384015460c0820152600484015460e082015261014061010082018190525f90615e29908301856142dc565b8281036101208401526145b18185615d69565b60ff818116838216019081111561165157611651614b1a565b60ff828116828216039081111561165157611651614b1a56fea26469706673582212208d48301c3985ddd466bc96ddff06059cb3723243afc1848fac359a5b911f461064736f6c634300081c0033","linkReferences":{}},"methodIdentifiers":{"MAX_SLIPPAGE_PERCENTAGE()":"930ec277","MIN_ORACLE_DURATION()":"1deae8c6","PT()":"d94073d4","SY()":"afd27bf5","YT()":"781c18db","asset()":"38d52e0f","basePrice()":"c7876ea4","baseToken()":"c55dae63","board(uint256,bytes)":"2db6d399","commander()":"37270936","config()":"79502c55","configTokenDecimals()":"c64f9f0e","configurationManager()":"c9c667e3","curveSwap()":"d8fca1ac","depositCap()":"dbd5edc7","disembark(uint256,bytes)":"13c408f8","emptySwap()":"f66a7749","fleetCommanderRewardsManagerFactory()":"f7e533ec","generateRole(uint8,address)":"69b3054b","getConfig()":"c3f909d4","getExchangeRate()":"e6aa216c","getExchangeRateEma()":"4318a726","getLowerBound()":"1de0f095","getSafeExchangeRate()":"955c7bc0","getSafeExchangeRateEma()":"d70ec14a","getUpperBound()":"22c180b5","harborCommand()":"5b0f83f3","harvest(bytes)":"ce5c7f61","isMarketExpired()":"22dcc85f","lowerPercentageRange()":"a968a776","market()":"80f55605","marketAsset()":"ea1af6e0","marketAssetDecimals()":"a377d6a5","marketExpiry()":"8f1d3f00","maxDepositPercentageOfTVL()":"bdcdd882","maxRebalanceInflow()":"ad5a356f","maxRebalanceOutflow()":"3194549e","move(uint256,address,bytes,bytes)":"c38a6f0b","name()":"06fdde03","nextMarket()":"ec213865","oracle()":"7dc0d1d0","oracleDuration()":"cefba474","ptDecimals()":"01a7c58c","raft()":"117d8ae0","registerFleetCommander()":"8a8b9976","requiresKeeperData()":"303dbaf3","rolloverIfNeeded()":"b31c3290","router()":"f887ea40","routerParams()":"256d8a23","setBasePrice(uint256)":"de4b3262","setDepositCap(uint256)":"86651203","setEmaRange(uint256,uint256)":"4c283265","setMaxDepositPercentageOfTVL(uint256)":"4fc7fac3","setMaxRebalanceInflow(uint256)":"92f5e832","setMaxRebalanceOutflow(uint256)":"61f5cd8b","setNextMarket(address)":"6df44100","setOracleDuration(uint32)":"c05bd92d","setSlippagePercentage(uint256)":"03baf066","slippagePercentage()":"4452d81c","sweep(address[])":"780469bb","tipJar()":"7aaceb95","totalAssets()":"01e1d114","totalAssetsNoSlippage()":"cf4685c6","treasury()":"61d027b3","unregisterFleetCommander()":"ebf31131","upperPercentageRange()":"ba3f4fb2","validateAndDecodeSwapForPtParams(bytes)":"326c488e","validateAndDecodeSwapPtForTokenParams(bytes)":"552d2e59","withdrawExpiredMarket()":"64c8d8ef"},"id":212}