{"abi":[{"type":"constructor","inputs":[],"stateMutability":"nonpayable"},{"type":"function","name":"BLOCK_CYCLE_DENOMINATOR","inputs":[],"outputs":[{"name":"","type":"uint16","internalType":"uint16"}],"stateMutability":"view"},{"type":"function","name":"blockCycleNumerator","inputs":[],"outputs":[{"name":"","type":"uint16","internalType":"uint16"}],"stateMutability":"view"},{"type":"function","name":"claimOwnership","inputs":[],"outputs":[],"stateMutability":"nonpayable"},{"type":"function","name":"getLpToAssetRate","inputs":[{"name":"market","type":"address","internalType":"address"},{"name":"duration","type":"uint32","internalType":"uint32"}],"outputs":[{"name":"","type":"uint256","internalType":"uint256"}],"stateMutability":"view"},{"type":"function","name":"getLpToSyRate","inputs":[{"name":"market","type":"address","internalType":"address"},{"name":"duration","type":"uint32","internalType":"uint32"}],"outputs":[{"name":"","type":"uint256","internalType":"uint256"}],"stateMutability":"view"},{"type":"function","name":"getOracleState","inputs":[{"name":"market","type":"address","internalType":"address"},{"name":"duration","type":"uint32","internalType":"uint32"}],"outputs":[{"name":"increaseCardinalityRequired","type":"bool","internalType":"bool"},{"name":"cardinalityRequired","type":"uint16","internalType":"uint16"},{"name":"oldestObservationSatisfied","type":"bool","internalType":"bool"}],"stateMutability":"view"},{"type":"function","name":"getPtToAssetRate","inputs":[{"name":"market","type":"address","internalType":"address"},{"name":"duration","type":"uint32","internalType":"uint32"}],"outputs":[{"name":"","type":"uint256","internalType":"uint256"}],"stateMutability":"view"},{"type":"function","name":"getPtToSyRate","inputs":[{"name":"market","type":"address","internalType":"address"},{"name":"duration","type":"uint32","internalType":"uint32"}],"outputs":[{"name":"","type":"uint256","internalType":"uint256"}],"stateMutability":"view"},{"type":"function","name":"getYtToAssetRate","inputs":[{"name":"market","type":"address","internalType":"address"},{"name":"duration","type":"uint32","internalType":"uint32"}],"outputs":[{"name":"","type":"uint256","internalType":"uint256"}],"stateMutability":"view"},{"type":"function","name":"getYtToSyRate","inputs":[{"name":"market","type":"address","internalType":"address"},{"name":"duration","type":"uint32","internalType":"uint32"}],"outputs":[{"name":"","type":"uint256","internalType":"uint256"}],"stateMutability":"view"},{"type":"function","name":"initialize","inputs":[{"name":"_blockCycleNumerator","type":"uint16","internalType":"uint16"}],"outputs":[],"stateMutability":"nonpayable"},{"type":"function","name":"owner","inputs":[],"outputs":[{"name":"","type":"address","internalType":"address"}],"stateMutability":"view"},{"type":"function","name":"pendingOwner","inputs":[],"outputs":[{"name":"","type":"address","internalType":"address"}],"stateMutability":"view"},{"type":"function","name":"setBlockCycleNumerator","inputs":[{"name":"newBlockCycleNumerator","type":"uint16","internalType":"uint16"}],"outputs":[],"stateMutability":"nonpayable"},{"type":"function","name":"transferOwnership","inputs":[{"name":"newOwner","type":"address","internalType":"address"},{"name":"direct","type":"bool","internalType":"bool"},{"name":"renounce","type":"bool","internalType":"bool"}],"outputs":[],"stateMutability":"nonpayable"},{"type":"event","name":"Initialized","inputs":[{"name":"version","type":"uint64","indexed":false,"internalType":"uint64"}],"anonymous":false},{"type":"event","name":"OwnershipTransferred","inputs":[{"name":"previousOwner","type":"address","indexed":true,"internalType":"address"},{"name":"newOwner","type":"address","indexed":true,"internalType":"address"}],"anonymous":false},{"type":"event","name":"SetBlockCycleNumerator","inputs":[{"name":"newBlockCycleNumerator","type":"uint16","indexed":false,"internalType":"uint16"}],"anonymous":false},{"type":"error","name":"InvalidBlockRate","inputs":[{"name":"blockCycleNumerator","type":"uint256","internalType":"uint256"}]},{"type":"error","name":"InvalidInitialization","inputs":[]},{"type":"error","name":"MarketExchangeRateBelowOne","inputs":[{"name":"exchangeRate","type":"int256","internalType":"int256"}]},{"type":"error","name":"MarketExpired","inputs":[]},{"type":"error","name":"MarketProportionMustNotEqualOne","inputs":[]},{"type":"error","name":"MarketRateScalarBelowZero","inputs":[{"name":"rateScalar","type":"int256","internalType":"int256"}]},{"type":"error","name":"MarketZeroTotalPtOrTotalAsset","inputs":[{"name":"totalPt","type":"int256","internalType":"int256"},{"name":"totalAsset","type":"int256","internalType":"int256"}]},{"type":"error","name":"NotInitializing","inputs":[]},{"type":"error","name":"TwapDurationTooLarge","inputs":[{"name":"duration","type":"uint32","internalType":"uint32"},{"name":"cardinalityRequired","type":"uint32","internalType":"uint32"}]}],"bytecode":{"object":"0x6080604052348015600e575f80fd5b5060156019565b60c9565b7ff0c57e16840df040f15088dc2f81fe391c3923bec73e23a9662efc9c229c6a00805468010000000000000000900460ff161560685760405163f92ee8a960e01b815260040160405180910390fd5b80546001600160401b039081161460c65780546001600160401b0319166001600160401b0390811782556040519081527fc7f505b2f371ae2175ee4913f4499e1f2633a7b5936321eed1cdaeb6115181d29060200160405180910390a15b50565b612496806100d65f395ff3fe608060405234801561000f575f80fd5b50600436106100f0575f3560e01c8063873e960011610093578063bb0856fe11610063578063bb0856fe14610216578063e30c397814610229578063fa040f641461023c578063ffec440714610245575f80fd5b8063873e9600146101915780638da5cb5b146101c6578063a31426d1146101f0578063abca0eab14610203575f80fd5b80634d44ca89116100ce5780634d44ca891461012f5780634e71e0c81461015557806358f6e5a11461015d5780636cda98331461017e575f80fd5b8063078dfbe7146100f4578063137509461461010957806340f259511461011c575b5f80fd5b610107610102366004611dfb565b610258565b005b610107610117366004611e52565b610399565b61010761012a366004611e52565b6104af565b61014261013d366004611e7e565b610514565b6040519081526020015b60405180910390f35b610107610531565b60325461016b9061ffff1681565b60405161ffff909116815260200161014c565b61014261018c366004611e7e565b6105ec565b6101a461019f366004611e7e565b610600565b60408051931515845261ffff909216602084015215159082015260600161014c565b5f546101d8906001600160a01b031681565b6040516001600160a01b03909116815260200161014c565b6101426101fe366004611e7e565b6107aa565b610142610211366004611e7e565b6107be565b610142610224366004611e7e565b6107d2565b6001546101d8906001600160a01b031681565b61016b6103e881565b610142610253366004611e7e565b6107e6565b5f546001600160a01b031633146102b65760405162461bcd60e51b815260206004820181905260248201527f4f776e61626c653a2063616c6c6572206973206e6f7420746865206f776e657260448201526064015b60405180910390fd5b8115610377576001600160a01b0383161515806102d05750805b6103145760405162461bcd60e51b81526020600482015260156024820152744f776e61626c653a207a65726f206164647265737360581b60448201526064016102ad565b5f80546040516001600160a01b03808716939216917f8be0079c531659141344cd1fd0a4f28419497f9722a3daafe3b4186f6b6457e091a35f80546001600160a01b0385166001600160a01b031991821617909155600180549091169055505050565b600180546001600160a01b0385166001600160a01b0319909116179055505050565b7ff0c57e16840df040f15088dc2f81fe391c3923bec73e23a9662efc9c229c6a008054600160401b810460ff16159067ffffffffffffffff165f811580156103de5750825b90505f8267ffffffffffffffff1660011480156103fa5750303b155b905081158015610408575080155b156104265760405163f92ee8a960e01b815260040160405180910390fd5b845467ffffffffffffffff19166001178555831561045057845460ff60401b1916600160401b1785555b6104586107fa565b61046186610815565b83156104a757845460ff60401b19168555604051600181527fc7f505b2f371ae2175ee4913f4499e1f2633a7b5936321eed1cdaeb6115181d29060200160405180910390a15b505050505050565b5f546001600160a01b031633146105085760405162461bcd60e51b815260206004820181905260248201527f4f776e61626c653a2063616c6c6572206973206e6f7420746865206f776e657260448201526064016102ad565b61051181610815565b50565b5f6105286001600160a01b0384168361088c565b90505b92915050565b6001546001600160a01b031633811461058c5760405162461bcd60e51b815260206004820181905260248201527f4f776e61626c653a2063616c6c657220213d2070656e64696e67206f776e657260448201526064016102ad565b5f80546040516001600160a01b03808516939216917f8be0079c531659141344cd1fd0a4f28419497f9722a3daafe3b4186f6b6457e091a35f80546001600160a01b039092166001600160a01b0319928316179055600180549091169055565b5f6105286001600160a01b038416836108d8565b5f805f805f80876001600160a01b031663c3fb90d66040518163ffffffff1660e01b815260040160c060405180830381865afa158015610642573d5f803e3d5ffd5b505050506040513d601f19601f820116820180604052508101906106669190611ec6565b95509550955050505061067887610925565b61ffff80821690831610965094505f806001600160a01b038a1663252c09d7856106a3886001611f67565b6106ad9190611f95565b6040516001600160e01b031960e084901b16815261ffff9091166004820152602401606060405180830381865afa1580156106ea573d5f803e3d5ffd5b505050506040513d601f19601f8201168201806040525081019061070e9190611fce565b9250509150806107845760405163252c09d760e01b81525f60048201526001600160a01b038b169063252c09d790602401606060405180830381865afa15801561075a573d5f803e3d5ffd5b505050506040513d601f19601f8201168201806040525081019061077e9190611fce565b50909250505b61079463ffffffff8a1642612009565b8263ffffffff1610955050505050509250925092565b5f6105286001600160a01b038416836109a3565b5f6105286001600160a01b038416836109ed565b5f6105286001600160a01b03841683610a2e565b5f6105286001600160a01b03841683610a5b565b610802610a8e565b5f80546001600160a01b03191633179055565b6103e861ffff8216101561084257604051632204277360e21b815261ffff821660048201526024016102ad565b6032805461ffff191661ffff83169081179091556040519081527f30b0568b152eb73b8d1104ca045f37e64f7eae07b09ea9607ab1bdf475012c539060200160405180910390a150565b5f805f6108a1856001600160a01b0316610ad9565b915091505f6108b1868684610cfc565b90508183106108ce576108c48184610e87565b935050505061052b565b6108c48183610e87565b5f805f6108ed856001600160a01b0316610ad9565b915091505f6108fd868684610cfc565b905081831061091057925061052b915050565b8161091b848361201c565b6108c49190612033565b6032545f90819061ffff1660018161093f6103e887612046565b6109499190612065565b6109539190612081565b61095d919061209d565b610968906001612065565b905061ffff63ffffffff8216111561052b57604051632212b64b60e21b815263ffffffff8085166004830152821660248201526044016102ad565b5f805f6109af85610ad9565b915091508082106109d7576109ce826109c88787610eb5565b90610e87565b9250505061052b565b6109ce816109c88787610eb5565b505092915050565b5f805f6109f985610ad9565b91509150808210610a0e576109ce8585610eb5565b8082610a1a8787610eb5565b610a24919061201c565b6109ce9190612033565b5f805f610a3a85610ad9565b91509150808210610a4f576109ce8585610f7f565b8082610a1a8787610f7f565b5f805f610a6785610ad9565b91509150808210610a80576109ce826109c88787610f7f565b6109ce816109c88787610f7f565b7ff0c57e16840df040f15088dc2f81fe391c3923bec73e23a9662efc9c229c6a0054600160401b900460ff16610ad757604051631afcd79f60e31b815260040160405180910390fd5b565b5f805f80846001600160a01b0316632c8ce6bc6040518163ffffffff1660e01b8152600401606060405180830381865afa158015610b19573d5f803e3d5ffd5b505050506040513d601f19601f82011682018060405250810190610b3d91906120c4565b9250509150816001600160a01b0316633ba0b9a96040518163ffffffff1660e01b8152600401602060405180830381865afa158015610b7e573d5f803e3d5ffd5b505050506040513d601f19601f82011682018060405250810190610ba29190612103565b93505f816001600160a01b031663d2a3584e6040518163ffffffff1660e01b8152600401602060405180830381865afa158015610be1573d5f803e3d5ffd5b505050506040513d601f19601f82011682018060405250810190610c059190612103565b9050816001600160a01b031663516399df6040518163ffffffff1660e01b8152600401602060405180830381865afa158015610c43573d5f803e3d5ffd5b505050506040513d601f19601f82011682018060405250810190610c67919061211a565b8015610cda575043826001600160a01b03166360e0a9e16040518163ffffffff1660e01b8152600401602060405180830381865afa158015610cab573d5f803e3d5ffd5b505050506040513d601f19601f82011682018060405250810190610ccf9190612135565b6001600160801b0316145b15610ce757809350610cf4565b610cf18582610f9c565b93505b505050915091565b60405163794052f360e01b81525f600482018190529081906001600160a01b0386169063794052f39060240161012060405180830381865afa158015610d44573d5f803e3d5ffd5b505050506040513d601f19601f82011682018060405250810190610d6891906121d5565b90505f428260a0015111610d9757610d84848360200151610fb1565b8251610d909190612255565b9050610e5e565b5f610da3838642610ff2565b90505f80610db289868a6110ec565b915091505f610dda610dd5856040015185610dcd9190612274565b865190611158565b61117a565b90505f610e1e610dea838561158d565b610dfc90670de0b6b3a7640000612255565b88516020880151610e0e908690611158565b610e189190612274565b9061158d565b9050610e338482895f0151610e189190612255565b610e3d828561158d565b8660200151610e4c9190612274565b610e569190612255565b955050505050505b610e7d610e7883604001518361158d90919063ffffffff16565b6115b2565b9695505050505050565b5f80610e9b670de0b6b3a76400008561201c565b9050828181610eac57610eac611f81565b04949350505050565b5f80836001600160a01b031663e184c9be6040518163ffffffff1660e01b8152600401602060405180830381865afa158015610ef3573d5f803e3d5ffd5b505050506040513d601f19601f82011682018060405250810190610f179190612103565b9050428111610f3157670de0b6b3a764000091505061052b565b5f610f3c85856115c3565b90505f610f494284612009565b90505f610f59610e7884846116e2565b9050610f6d670de0b6b3a764000082610e87565b94505050505061052b565b5092915050565b5f610f8a8383610eb5565b61052890670de0b6b3a7640000612009565b5f818311610faa5781610528565b5090919050565b5f805f8312610fc1576001610fc4565b5f195b9050610fe0610fdb85610fd686611715565b611726565b611744565b610fea9082612293565b949350505050565b61101960405180608001604052805f81526020015f81526020015f81526020015f81525090565b60a0840151821061103d5760405163b2094b5960e01b815260040160405180910390fd5b5f828560a0015161104e9190612009565b905061105a8582611758565b8252602085015161106c908590610fb1565b60208301528451158061108157506020820151155b156110af578451602083015160405163b1c4aefb60e01b8152600481019290925260248201526044016102ad565b6110cb855f01518661010001518460200151855f0151856117b2565b604083015260c08501516110df90826116e2565b6060830152509392505050565b5f80806111026001600160a01b038716856115c3565b90505f428660a001516111159190612009565b905061112182826116e2565b93505f611133876101000151836116e2565b905060026111418683612255565b61114b91906122c2565b9350505050935093915050565b5f806111648385612293565b9050670de0b6b3a7640000815b05949350505050565b5f680238fd42c5cf03ffff19821215801561119e575068070c1cc73b00c800008213155b6111dd5760405162461bcd60e51b815260206004820152601060248201526f125b9d985b1a5908195e1c1bdb995b9d60821b60448201526064016102ad565b5f821215611213576111f0825f0361117a565b6a0c097ce7bc90715b34b9f160241b8161120c5761120c611f81565b0592915050565b5f6806f05b59d3b2000000831261125257506806f05b59d3b1ffffff1990910190770195e54c5dd42177f53a27172fa9ec630262827000000000611288565b6803782dace9d9000000831261128457506803782dace9d8ffffff19909101906b1425982cf597cd205cef7380611288565b5060015b6064929092029168056bc75e2d6310000068ad78ebc5ac6200000084126112d85768ad78ebc5ac61ffffff199093019268056bc75e2d631000006e01855144814a7ff805980ff008400082020590505b6856bc75e2d6310000008412611314576856bc75e2d630ffffff199093019268056bc75e2d631000006b02df0ab5a80a22c61ab5a70082020590505b682b5e3af16b18800000841261134e57682b5e3af16b187fffff199093019268056bc75e2d63100000693f1fce3da636ea5cf85082020590505b6815af1d78b58c4000008412611388576815af1d78b58c3fffff199093019268056bc75e2d63100000690127fa27722cc06cc5e282020590505b680ad78ebc5ac620000084126113c157680ad78ebc5ac61fffff199093019268056bc75e2d6310000068280e60114edb805d0382020590505b68056bc75e2d6310000084126113fa5768056bc75e2d630fffff199093019268056bc75e2d63100000680ebc5fb4174612111082020590505b6802b5e3af16b18800008412611433576802b5e3af16b187ffff199093019268056bc75e2d631000006808f00f760a4b2db55d82020590505b68015af1d78b58c40000841261146c5768015af1d78b58c3ffff199093019268056bc75e2d631000006806f5f177578893793782020590505b68056bc75e2d631000008481019085906002908280020505918201919050600368056bc75e2d631000008783020505918201919050600468056bc75e2d631000008783020505918201919050600568056bc75e2d631000008783020505918201919050600668056bc75e2d631000008783020505918201919050600768056bc75e2d631000008783020505918201919050600868056bc75e2d631000008783020505918201919050600968056bc75e2d631000008783020505918201919050600a68056bc75e2d631000008783020505918201919050600b68056bc75e2d631000008783020505918201919050600c68056bc75e2d631000008783020505918201919050606468056bc75e2d63100000848402058502059695505050505050565b5f806115a1670de0b6b3a764000085612293565b905082818161117157611171611f81565b5f808212156115bf575f80fd5b5090565b6040805160028082526060820183525f928392919060208301908036833701905050905082815f815181106115fa576115fa6122ee565b63ffffffff9092166020928302919091019091015260405163883bdbfd60e01b81525f906001600160a01b0386169063883bdbfd9061163d908590600401612302565b5f60405180830381865afa158015611657573d5f803e3d5ffd5b505050506040513d5f823e601f3d908101601f1916820160405261167e919081019061234a565b90508363ffffffff16815f81518110611699576116996122ee565b6020026020010151826001815181106116b4576116b46122ee565b60200260200101516116c691906123f9565b6116d09190612418565b6001600160d81b031695945050505050565b5f806116f36201518061016d61201c565b6116fd848661201c565b6117079190612033565b9050610fea610dd582611744565b5f8082136115bf5761052b82612446565b5f670de0b6b3a764000061173a848461201c565b6105289190612033565b5f6001600160ff1b038211156115bf575f80fd5b5f61176282611744565b611774610fdb6201518061016d61201c565b84608001516117839190612293565b61178d91906122c2565b90505f811361052b57604051630e520c3b60e11b8152600481018290526024016102ad565b5f806117be86846116e2565b9050670de0b6b3a76400008112156117ec5760405163329e322960e21b8152600481018290526024016102ad565b5f6118016117fa878a612255565b899061158d565b90505f61180d82611830565b9050611819818761158d565b6118239084612274565b9998505050505050505050565b5f670de0b6b3a764000082036118595760405163a9c8b14d60e01b815260040160405180910390fd5b5f61187661186f84670de0b6b3a7640000612274565b849061158d565b905061188181611888565b9392505050565b5f8082136118c85760405162461bcd60e51b815260206004820152600d60248201526c6f7574206f6620626f756e647360981b60448201526064016102ad565b670c7d713b49da0000821380156118e65750670f43fc2c04ee000082125b1561190a57670de0b6b3a76400006118fd83611918565b8161120c5761120c611f81565b61052b82611a35565b919050565b670de0b6b3a7640000025f806a0c097ce7bc90715b34b9f160241b808401906ec097ce7bc90715b34b9f0fffffffff198501028161195857611958611f81565b0590505f6a0c097ce7bc90715b34b9f160241b82800205905081806a0c097ce7bc90715b34b9f160241b81840205915060038205016a0c097ce7bc90715b34b9f160241b82840205915060058205016a0c097ce7bc90715b34b9f160241b82840205915060078205016a0c097ce7bc90715b34b9f160241b82840205915060098205016a0c097ce7bc90715b34b9f160241b828402059150600b8205016a0c097ce7bc90715b34b9f160241b828402059150600d8205016a0c097ce7bc90715b34b9f160241b828402059150600f82050160020295945050505050565b5f670de0b6b3a7640000821215611a7457611a6c826a0c097ce7bc90715b34b9f160241b81611a6657611a66611f81565b05611a35565b5f0392915050565b5f7e1600ef3172e58d2e933ec884fde10064c63b5372d805e203c00000000000008312611ac457770195e54c5dd42177f53a27172fa9ec630262827000000000830592506806f05b59d3b2000000015b73011798004d755d3c8bc8e03204cf44619e0000008312611afc576b1425982cf597cd205cef7380830592506803782dace9d9000000015b606492830292026e01855144814a7ff805980ff00840008312611b44576e01855144814a7ff805980ff008400068056bc75e2d63100000840205925068ad78ebc5ac62000000015b6b02df0ab5a80a22c61ab5a7008312611b7f576b02df0ab5a80a22c61ab5a70068056bc75e2d6310000084020592506856bc75e2d631000000015b693f1fce3da636ea5cf8508312611bb657693f1fce3da636ea5cf85068056bc75e2d631000008402059250682b5e3af16b18800000015b690127fa27722cc06cc5e28312611bed57690127fa27722cc06cc5e268056bc75e2d6310000084020592506815af1d78b58c400000015b68280e60114edb805d038312611c225768280e60114edb805d0368056bc75e2d631000008402059250680ad78ebc5ac6200000015b680ebc5fb417461211108312611c4d57680ebc5fb4174612111068056bc75e2d631000009384020592015b6808f00f760a4b2db55d8312611c82576808f00f760a4b2db55d68056bc75e2d6310000084020592506802b5e3af16b1880000015b6806f5f17757889379378312611cb7576806f5f177578893793768056bc75e2d63100000840205925068015af1d78b58c40000015b6806248f33704b2866038312611ceb576806248f33704b28660368056bc75e2d63100000840205925067ad78ebc5ac620000015b6805c548670b9510e7ac8312611d1f576805c548670b9510e7ac68056bc75e2d6310000084020592506756bc75e2d6310000015b5f68056bc75e2d63100000840168056bc75e2d631000008086030281611d4757611d47611f81565b0590505f68056bc75e2d63100000828002059050818068056bc75e2d63100000818402059150600382050168056bc75e2d63100000828402059150600582050168056bc75e2d63100000828402059150600782050168056bc75e2d63100000828402059150600982050168056bc75e2d63100000828402059150600b820501600202606485820105979650505050505050565b6001600160a01b0381168114610511575f80fd5b8015158114610511575f80fd5b5f805f60608486031215611e0d575f80fd5b8335611e1881611dda565b92506020840135611e2881611dee565b91506040840135611e3881611dee565b809150509250925092565b61ffff81168114610511575f80fd5b5f60208284031215611e62575f80fd5b813561188181611e43565b63ffffffff81168114610511575f80fd5b5f8060408385031215611e8f575f80fd5b8235611e9a81611dda565b91506020830135611eaa81611e6d565b809150509250929050565b8051600f81900b8114611913575f80fd5b5f805f805f8060c08789031215611edb575f80fd5b611ee487611eb5565b9550611ef260208801611eb5565b945060408701516bffffffffffffffffffffffff81168114611f12575f80fd5b6060880151909450611f2381611e43565b6080880151909350611f3481611e43565b60a0880151909250611f4581611e43565b809150509295509295509295565b634e487b7160e01b5f52601160045260245ffd5b61ffff818116838216019081111561052b5761052b611f53565b634e487b7160e01b5f52601260045260245ffd5b5f61ffff831680611fa857611fa8611f81565b8061ffff84160691505092915050565b80516001600160d81b0381168114611913575f80fd5b5f805f60608486031215611fe0575f80fd5b8351611feb81611e6d565b9250611ff960208501611fb8565b91506040840151611e3881611dee565b8181038181111561052b5761052b611f53565b808202811582820484141761052b5761052b611f53565b5f8261204157612041611f81565b500490565b63ffffffff8181168382160290811690818114610f7857610f78611f53565b63ffffffff818116838216019081111561052b5761052b611f53565b63ffffffff828116828216039081111561052b5761052b611f53565b5f63ffffffff8316806120b2576120b2611f81565b8063ffffffff84160491505092915050565b5f805f606084860312156120d6575f80fd5b83516120e181611dda565b60208501519093506120f281611dda565b6040850151909250611e3881611dda565b5f60208284031215612113575f80fd5b5051919050565b5f6020828403121561212a575f80fd5b815161188181611dee565b5f60208284031215612145575f80fd5b81516001600160801b0381168114611881575f80fd5b634e487b7160e01b5f52604160045260245ffd5b604051610120810167ffffffffffffffff811182821017156121935761219361215b565b60405290565b604051601f8201601f1916810167ffffffffffffffff811182821017156121c2576121c261215b565b604052919050565b805161191381611dda565b5f6101208284031280156121e7575f80fd5b506121f061216f565b825181526020808401519082015260408084015190820152612214606084016121ca565b60608201526080838101519082015260a0808401519082015260c0808401519082015260e08084015190820152610100928301519281019290925250919050565b8082018281125f8312801582168215821617156109e5576109e5611f53565b8181035f831280158383131683831282161715610f7857610f78611f53565b8082025f8212600160ff1b841416156122ae576122ae611f53565b818105831482151761052b5761052b611f53565b5f826122d0576122d0611f81565b600160ff1b82145f19841416156122e9576122e9611f53565b500590565b634e487b7160e01b5f52603260045260245ffd5b602080825282518282018190525f918401906040840190835b8181101561233f57835163ffffffff1683526020938401939092019160010161231b565b509095945050505050565b5f6020828403121561235a575f80fd5b815167ffffffffffffffff811115612370575f80fd5b8201601f81018413612380575f80fd5b805167ffffffffffffffff81111561239a5761239a61215b565b8060051b6123aa60208201612199565b918252602081840181019290810190878411156123c5575f80fd5b6020850194505b838510156123ee576123dd85611fb8565b8252602094850194909101906123cc565b979650505050505050565b6001600160d81b03828116828216039081111561052b5761052b611f53565b5f6001600160d81b0383168061243057612430611f81565b6001600160d81b03929092169190910492915050565b5f600160ff1b820161245a5761245a611f53565b505f039056fea2646970667358221220740f60ff388706ca7f8173cc4881b86a69bf7ea2e70c5d5446f15b65be81fe4164736f6c634300081a0033","linkReferences":{}},"methodIdentifiers":{"BLOCK_CYCLE_DENOMINATOR()":"fa040f64","blockCycleNumerator()":"58f6e5a1","claimOwnership()":"4e71e0c8","getLpToAssetRate(address,uint32)":"6cda9833","getLpToSyRate(address,uint32)":"4d44ca89","getOracleState(address,uint32)":"873e9600","getPtToAssetRate(address,uint32)":"abca0eab","getPtToSyRate(address,uint32)":"a31426d1","getYtToAssetRate(address,uint32)":"bb0856fe","getYtToSyRate(address,uint32)":"ffec4407","initialize(uint16)":"13750946","owner()":"8da5cb5b","pendingOwner()":"e30c3978","setBlockCycleNumerator(uint16)":"40f25951","transferOwnership(address,bool,bool)":"078dfbe7"},"id":93}