{"abi":[{"type":"constructor","inputs":[{"name":"_accessManager","type":"address","internalType":"address"},{"name":"defaultParameters","type":"tuple","internalType":"struct AuctionDefaultParameters","components":[{"name":"duration","type":"uint40","internalType":"uint40"},{"name":"startPrice","type":"uint256","internalType":"uint256"},{"name":"endPrice","type":"uint256","internalType":"uint256"},{"name":"kickerRewardPercentage","type":"uint256","internalType":"Percentage"},{"name":"decayType","type":"uint8","internalType":"enum DecayFunctions.DecayType"}]}],"stateMutability":"nonpayable"},{"type":"function","name":"auctionDefaultParameters","inputs":[],"outputs":[{"name":"duration","type":"uint40","internalType":"uint40"},{"name":"startPrice","type":"uint256","internalType":"uint256"},{"name":"endPrice","type":"uint256","internalType":"uint256"},{"name":"kickerRewardPercentage","type":"uint256","internalType":"Percentage"},{"name":"decayType","type":"uint8","internalType":"enum DecayFunctions.DecayType"}],"stateMutability":"view"},{"type":"function","name":"auctions","inputs":[{"name":"ark","type":"address","internalType":"address"},{"name":"rewardToken","type":"address","internalType":"address"}],"outputs":[{"name":"config","type":"tuple","internalType":"struct DutchAuctionLibrary.AuctionConfig","components":[{"name":"auctionToken","type":"address","internalType":"contract IERC20"},{"name":"paymentToken","type":"address","internalType":"contract IERC20"},{"name":"startTime","type":"uint40","internalType":"uint40"},{"name":"endTime","type":"uint40","internalType":"uint40"},{"name":"auctionTokenDecimals","type":"uint8","internalType":"uint8"},{"name":"paymentTokenDecimals","type":"uint8","internalType":"uint8"},{"name":"auctionKicker","type":"address","internalType":"address"},{"name":"unsoldTokensRecipient","type":"address","internalType":"address"},{"name":"id","type":"uint40","internalType":"uint40"},{"name":"decayType","type":"uint8","internalType":"enum DecayFunctions.DecayType"},{"name":"startPrice","type":"uint256","internalType":"uint256"},{"name":"endPrice","type":"uint256","internalType":"uint256"},{"name":"totalTokens","type":"uint256","internalType":"uint256"},{"name":"kickerRewardAmount","type":"uint256","internalType":"uint256"}]},{"name":"state","type":"tuple","internalType":"struct DutchAuctionLibrary.AuctionState","components":[{"name":"remainingTokens","type":"uint256","internalType":"uint256"},{"name":"isFinalized","type":"bool","internalType":"bool"}]}],"stateMutability":"view"},{"type":"function","name":"board","inputs":[{"name":"ark","type":"address","internalType":"address"},{"name":"rewardToken","type":"address","internalType":"address"},{"name":"data","type":"bytes","internalType":"bytes"}],"outputs":[],"stateMutability":"nonpayable"},{"type":"function","name":"buyTokens","inputs":[{"name":"ark","type":"address","internalType":"address"},{"name":"rewardToken","type":"address","internalType":"address"},{"name":"amount","type":"uint256","internalType":"uint256"}],"outputs":[{"name":"paymentAmount","type":"uint256","internalType":"uint256"}],"stateMutability":"nonpayable"},{"type":"function","name":"finalizeAuction","inputs":[{"name":"ark","type":"address","internalType":"address"},{"name":"rewardToken","type":"address","internalType":"address"}],"outputs":[],"stateMutability":"nonpayable"},{"type":"function","name":"generateRole","inputs":[{"name":"roleName","type":"uint8","internalType":"enum ContractSpecificRoles"},{"name":"roleTargetContract","type":"address","internalType":"address"}],"outputs":[{"name":"","type":"bytes32","internalType":"bytes32"}],"stateMutability":"pure"},{"type":"function","name":"getAuctionInfo","inputs":[{"name":"ark","type":"address","internalType":"address"},{"name":"rewardToken","type":"address","internalType":"address"}],"outputs":[{"name":"","type":"tuple","internalType":"struct DutchAuctionLibrary.Auction","components":[{"name":"config","type":"tuple","internalType":"struct DutchAuctionLibrary.AuctionConfig","components":[{"name":"auctionToken","type":"address","internalType":"contract IERC20"},{"name":"paymentToken","type":"address","internalType":"contract IERC20"},{"name":"startTime","type":"uint40","internalType":"uint40"},{"name":"endTime","type":"uint40","internalType":"uint40"},{"name":"auctionTokenDecimals","type":"uint8","internalType":"uint8"},{"name":"paymentTokenDecimals","type":"uint8","internalType":"uint8"},{"name":"auctionKicker","type":"address","internalType":"address"},{"name":"unsoldTokensRecipient","type":"address","internalType":"address"},{"name":"id","type":"uint40","internalType":"uint40"},{"name":"decayType","type":"uint8","internalType":"enum DecayFunctions.DecayType"},{"name":"startPrice","type":"uint256","internalType":"uint256"},{"name":"endPrice","type":"uint256","internalType":"uint256"},{"name":"totalTokens","type":"uint256","internalType":"uint256"},{"name":"kickerRewardAmount","type":"uint256","internalType":"uint256"}]},{"name":"state","type":"tuple","internalType":"struct DutchAuctionLibrary.AuctionState","components":[{"name":"remainingTokens","type":"uint256","internalType":"uint256"},{"name":"isFinalized","type":"bool","internalType":"bool"}]}]}],"stateMutability":"view"},{"type":"function","name":"getCurrentPrice","inputs":[{"name":"ark","type":"address","internalType":"address"},{"name":"rewardToken","type":"address","internalType":"address"}],"outputs":[{"name":"","type":"uint256","internalType":"uint256"}],"stateMutability":"view"},{"type":"function","name":"getObtainedTokens","inputs":[{"name":"ark","type":"address","internalType":"address"},{"name":"rewardToken","type":"address","internalType":"address"}],"outputs":[{"name":"","type":"uint256","internalType":"uint256"}],"stateMutability":"view"},{"type":"function","name":"harvest","inputs":[{"name":"ark","type":"address","internalType":"address"},{"name":"rewardData","type":"bytes","internalType":"bytes"}],"outputs":[],"stateMutability":"nonpayable"},{"type":"function","name":"harvestAndStartAuction","inputs":[{"name":"ark","type":"address","internalType":"address"},{"name":"paymentToken","type":"address","internalType":"address"},{"name":"rewardData","type":"bytes","internalType":"bytes"}],"outputs":[],"stateMutability":"nonpayable"},{"type":"function","name":"nextAuctionId","inputs":[],"outputs":[{"name":"","type":"uint256","internalType":"uint256"}],"stateMutability":"view"},{"type":"function","name":"obtainedTokens","inputs":[{"name":"ark","type":"address","internalType":"address"},{"name":"rewardToken","type":"address","internalType":"address"}],"outputs":[{"name":"harvestedAmount","type":"uint256","internalType":"uint256"}],"stateMutability":"view"},{"type":"function","name":"paymentTokensToBoard","inputs":[{"name":"ark","type":"address","internalType":"address"},{"name":"rewardToken","type":"address","internalType":"address"}],"outputs":[{"name":"paymentTokensToBoard","type":"uint256","internalType":"uint256"}],"stateMutability":"view"},{"type":"function","name":"startAuction","inputs":[{"name":"ark","type":"address","internalType":"address"},{"name":"rewardToken","type":"address","internalType":"address"},{"name":"paymentToken","type":"address","internalType":"address"}],"outputs":[],"stateMutability":"nonpayable"},{"type":"function","name":"sweep","inputs":[{"name":"ark","type":"address","internalType":"address"},{"name":"tokens","type":"address[]","internalType":"address[]"}],"outputs":[{"name":"sweptTokens","type":"address[]","internalType":"address[]"},{"name":"sweptAmounts","type":"uint256[]","internalType":"uint256[]"}],"stateMutability":"nonpayable"},{"type":"function","name":"sweepAndStartAuction","inputs":[{"name":"ark","type":"address","internalType":"address"},{"name":"tokens","type":"address[]","internalType":"address[]"},{"name":"paymentToken","type":"address","internalType":"address"}],"outputs":[],"stateMutability":"nonpayable"},{"type":"function","name":"unsoldTokens","inputs":[{"name":"ark","type":"address","internalType":"address"},{"name":"rewardToken","type":"address","internalType":"address"}],"outputs":[{"name":"remainingTokens","type":"uint256","internalType":"uint256"}],"stateMutability":"view"},{"type":"function","name":"updateAuctionDefaultParameters","inputs":[{"name":"newConfig","type":"tuple","internalType":"struct AuctionDefaultParameters","components":[{"name":"duration","type":"uint40","internalType":"uint40"},{"name":"startPrice","type":"uint256","internalType":"uint256"},{"name":"endPrice","type":"uint256","internalType":"uint256"},{"name":"kickerRewardPercentage","type":"uint256","internalType":"Percentage"},{"name":"decayType","type":"uint8","internalType":"enum DecayFunctions.DecayType"}]}],"outputs":[],"stateMutability":"nonpayable"},{"type":"event","name":"ArkHarvested","inputs":[{"name":"ark","type":"address","indexed":true,"internalType":"address"},{"name":"rewardTokens","type":"address[]","indexed":true,"internalType":"address[]"},{"name":"rewardAmounts","type":"uint256[]","indexed":true,"internalType":"uint256[]"}],"anonymous":false},{"type":"event","name":"ArkRewardTokenAuctionStarted","inputs":[{"name":"auctionId","type":"uint256","indexed":false,"internalType":"uint256"},{"name":"ark","type":"address","indexed":false,"internalType":"address"},{"name":"rewardToken","type":"address","indexed":false,"internalType":"address"},{"name":"amount","type":"uint256","indexed":false,"internalType":"uint256"}],"anonymous":false},{"type":"event","name":"AuctionDefaultParametersUpdated","inputs":[{"name":"newConfig","type":"tuple","indexed":false,"internalType":"struct AuctionDefaultParameters","components":[{"name":"duration","type":"uint40","internalType":"uint40"},{"name":"startPrice","type":"uint256","internalType":"uint256"},{"name":"endPrice","type":"uint256","internalType":"uint256"},{"name":"kickerRewardPercentage","type":"uint256","internalType":"Percentage"},{"name":"decayType","type":"uint8","internalType":"enum DecayFunctions.DecayType"}]}],"anonymous":false},{"type":"event","name":"AuctionFinalized","inputs":[{"name":"auctionId","type":"uint256","indexed":true,"internalType":"uint256"},{"name":"soldTokens","type":"uint256","indexed":false,"internalType":"uint256"},{"name":"unsoldTokens","type":"uint256","indexed":false,"internalType":"uint256"}],"anonymous":false},{"type":"event","name":"RewardBoarded","inputs":[{"name":"ark","type":"address","indexed":true,"internalType":"address"},{"name":"fromRewardToken","type":"address","indexed":true,"internalType":"address"},{"name":"toFleetToken","type":"address","indexed":true,"internalType":"address"},{"name":"amountReboarded","type":"uint256","indexed":false,"internalType":"uint256"}],"anonymous":false},{"type":"event","name":"TokensPurchased","inputs":[{"name":"auctionId","type":"uint256","indexed":true,"internalType":"uint256"},{"name":"buyer","type":"address","indexed":true,"internalType":"address"},{"name":"amount","type":"uint256","indexed":false,"internalType":"uint256"},{"name":"price","type":"uint256","indexed":false,"internalType":"uint256"}],"anonymous":false},{"type":"error","name":"AuctionAlreadyFinalized","inputs":[{"name":"auctionId","type":"uint256","internalType":"uint256"}]},{"type":"error","name":"AuctionNotActive","inputs":[{"name":"auctionId","type":"uint256","internalType":"uint256"}]},{"type":"error","name":"AuctionNotEnded","inputs":[{"name":"auctionId","type":"uint256","internalType":"uint256"}]},{"type":"error","name":"AuctionNotFound","inputs":[]},{"type":"error","name":"CallerIsNotAdmin","inputs":[{"name":"caller","type":"address","internalType":"address"}]},{"type":"error","name":"CallerIsNotAuthorizedToBoard","inputs":[{"name":"caller","type":"address","internalType":"address"}]},{"type":"error","name":"CallerIsNotCommander","inputs":[{"name":"caller","type":"address","internalType":"address"}]},{"type":"error","name":"CallerIsNotContractSpecificRole","inputs":[{"name":"caller","type":"address","internalType":"address"},{"name":"role","type":"bytes32","internalType":"bytes32"}]},{"type":"error","name":"CallerIsNotCurator","inputs":[{"name":"caller","type":"address","internalType":"address"}]},{"type":"error","name":"CallerIsNotDecayController","inputs":[{"name":"caller","type":"address","internalType":"address"}]},{"type":"error","name":"CallerIsNotGovernor","inputs":[{"name":"caller","type":"address","internalType":"address"}]},{"type":"error","name":"CallerIsNotGuardian","inputs":[{"name":"caller","type":"address","internalType":"address"}]},{"type":"error","name":"CallerIsNotGuardianOrGovernor","inputs":[{"name":"caller","type":"address","internalType":"address"}]},{"type":"error","name":"CallerIsNotKeeper","inputs":[{"name":"caller","type":"address","internalType":"address"}]},{"type":"error","name":"CallerIsNotRaft","inputs":[{"name":"caller","type":"address","internalType":"address"}]},{"type":"error","name":"CallerIsNotRaftOrCommander","inputs":[{"name":"caller","type":"address","internalType":"address"}]},{"type":"error","name":"CallerIsNotSuperKeeper","inputs":[{"name":"caller","type":"address","internalType":"address"}]},{"type":"error","name":"DirectGrantIsDisabled","inputs":[{"name":"caller","type":"address","internalType":"address"}]},{"type":"error","name":"DirectRevokeIsDisabled","inputs":[{"name":"caller","type":"address","internalType":"address"}]},{"type":"error","name":"InsufficientTokensAvailable","inputs":[]},{"type":"error","name":"InvalidAccessManagerAddress","inputs":[{"name":"invalidAddress","type":"address","internalType":"address"}]},{"type":"error","name":"InvalidDecayType","inputs":[]},{"type":"error","name":"PRBMath_MulDiv18_Overflow","inputs":[{"name":"x","type":"uint256","internalType":"uint256"},{"name":"y","type":"uint256","internalType":"uint256"}]},{"type":"error","name":"PRBMath_MulDiv_Overflow","inputs":[{"name":"x","type":"uint256","internalType":"uint256"},{"name":"y","type":"uint256","internalType":"uint256"},{"name":"denominator","type":"uint256","internalType":"uint256"}]},{"type":"error","name":"PRBMath_UD60x18_Convert_Overflow","inputs":[{"name":"x","type":"uint256","internalType":"uint256"}]},{"type":"error","name":"RaftArkDoesntRequireKeeperData","inputs":[{"name":"ark","type":"address","internalType":"address"}]},{"type":"error","name":"RaftArkRequiresKeeperData","inputs":[{"name":"ark","type":"address","internalType":"address"}]},{"type":"error","name":"RaftAuctionAlreadyRunning","inputs":[{"name":"ark","type":"address","internalType":"address"},{"name":"rewardToken","type":"address","internalType":"address"}]},{"type":"error","name":"SafeERC20FailedOperation","inputs":[{"name":"token","type":"address","internalType":"address"}]}],"bytecode":{"object":"0x608060405234801561000f575f5ffd5b5060405161388138038061388183398101604081905261002e916101a4565b8082806001600160a01b03811661005f576040516347bd7c1d60e01b81525f60048201526024015b60405180910390fd5b6040516301ffc9a760e01b8152639bd1803160e01b60048201526001600160a01b038216906301ffc9a790602401602060405180830381865afa1580156100a8573d5f5f3e3d5ffd5b505050506040513d601f19601f820116820180604052508101906100cc919061025c565b6100f4576040516347bd7c1d60e01b81526001600160a01b0382166004820152602401610056565b5f80546001600160a01b0319166001600160a01b03929092169190911790555080516001805464ffffffffff191664ffffffffff909216919091178155602082015160025560408201516003556060820151600455608082015160058054849392919060ff191683838181111561016d5761016d610282565b0217905550905050505050610296565b805164ffffffffff81168114610191575f5ffd5b919050565b805160028110610191575f5ffd5b5f5f82840360c08112156101b6575f5ffd5b83516001600160a01b03811681146101cc575f5ffd5b925060a0601f19820112156101df575f5ffd5b5060405160a081016001600160401b038111828210171561020e57634e487b7160e01b5f52604160045260245ffd5b60405261021d6020850161017d565b815260408481015160208301526060808601519183019190915260808501519082015261024c60a08501610196565b6080820152809150509250929050565b5f6020828403121561026c575f5ffd5b8151801515811461027b575f5ffd5b9392505050565b634e487b7160e01b5f52602160045260245ffd5b6135de806102a35f395ff3fe608060405234801561000f575f5ffd5b506004361061011c575f3560e01c80639b05e3c3116100a9578063d526b80b1161006e578063d526b80b146102d3578063db16a555146102e6578063dcefa538146102f9578063fc5284821461030c578063fe7f25b414610315575f5ffd5b80639b05e3c31461022e578063a11a912114610241578063a30215e114610254578063b3924cd01461027e578063c2f8b5261461029e575f5ffd5b80636e91edf8116100ef5780636e91edf8146101aa5780637399bfe8146101d45780638a179be4146101e75780638dc385a314610208578063953790b11461021b575f5ffd5b806318242941146101205780633beef0ce1461014a578063672d22641461018257806369b3054b14610197575b5f5ffd5b61013361012e3660046127ec565b61034d565b604051610141929190612969565b60405180910390f35b6101746101583660046127ec565b600960209081525f928352604080842090915290825290205481565b604051908152602001610141565b6101956101903660046129da565b610484565b005b6101746101a5366004612a3e565b6104d2565b6101746101b83660046127ec565b600760209081525f928352604080842090915290825290205481565b6101956101e2366004612a9b565b610505565b6101fa6101f5366004612aec565b610517565b604051610141929190612b30565b610195610216366004612bb9565b610531565b610195610229366004612c1a565b6106fa565b61019561023c3660046127ec565b610800565b61019561024f366004612c62565b61095f565b6101746102623660046127ec565b600a60209081525f928352604080842090915290825290205481565b61029161028c3660046127ec565b610a61565b6040516101419190612c7b565b6001546002546003546004546005546102c29464ffffffffff169392919060ff1685565b604051610141959493929190612cad565b6101956102e1366004612bb9565b610bb2565b6101746102f43660046127ec565b610cee565b610174610307366004612cdd565b610d24565b61017460065481565b6101746103233660046127ec565b6001600160a01b039182165f90815260076020908152604080832093909416825291909152205490565b600860209081525f928352604080842082529183529181902081516101c08101835281546001600160a01b0390811682526001808401548083169684019690965264ffffffffff600160a01b808804821696850196909652600160c81b8088048216606086015260ff600160f01b890481166080870152600160f81b909804881660a08601526002860154841660c0860152600386015493841660e08601529583041661010084015292949193859361012086019391909204169081111561041757610417612823565b600181111561042857610428612823565b8152600482015460208083019190915260058301546040808401919091526006840154606084015260079093015460809092019190915281518083019092526008840154825260099093015460ff161515928101929092529082565b5f610490858585610e69565b5090505f5b81518110156104ca576104c2868383815181106104b4576104b4612d1b565b60200260200101518561107f565b600101610495565b505050505050565b5f82826040516020016104e6929190612d2f565b6040516020818303038152906040528051906020012090505b92915050565b610510838383611414565b5050505050565b606080610525858585610e69565b90969095509350505050565b5f5460408051630ccc574960e41b815290516001600160a01b03909216916391d1485491839163ccc57490916004808201926020929091908290030181865afa158015610580573d5f5f3e3d5ffd5b505050506040513d601f19601f820116820180604052508101906105a49190612d66565b6040516001600160e01b031960e084901b1681526004810191909152336024820152604401602060405180830381865afa1580156105e4573d5f5f3e3d5ffd5b505050506040513d601f19601f820116820180604052508101906106089190612d91565b61062c57604051630ea7d7ed60e21b81523360048201526024015b60405180910390fd5b836001600160a01b031663303dbaf36040518163ffffffff1660e01b8152600401602060405180830381865afa158015610668573d5f5f3e3d5ffd5b505050506040513d601f19601f8201168201806040525081019061068c9190612d91565b6106b45760405163b616b3c160e01b81526001600160a01b0385166004820152602401610623565b6106f4838584848080601f0160208091040260200160405190810160405280939291908181526020018383808284375f9201919091525061159092505050565b50505050565b5f5460408051630ccc574960e41b815290516001600160a01b03909216916391d1485491839163ccc57490916004808201926020929091908290030181865afa158015610749573d5f5f3e3d5ffd5b505050506040513d601f19601f8201168201806040525081019061076d9190612d66565b6040516001600160e01b031960e084901b1681526004810191909152336024820152604401602060405180830381865afa1580156107ad573d5f5f3e3d5ffd5b505050506040513d601f19601f820116820180604052508101906107d19190612d91565b6107f057604051630ea7d7ed60e21b8152336004820152602401610623565b6107fb83838361107f565b505050565b6001600160a01b038083165f90815260086020908152604080832093851683529290522061082d816118ba565b604080516102008101825282546001600160a01b03908116928201928352600180850154808316606085015264ffffffffff600160a01b80830482166080870152600160c81b808404831660a088015260ff600160f01b8504811660c0890152600160f81b909404841660e08801526002890154861661010088015260038901549586166101208801529085049091166101408601526107fb95899589959094899486948693610160870193919004909116908111156108ef576108ef612823565b600181111561090057610900612823565b8152600482015460208083019190915260058301546040808401919091526006840154606084015260079093015460809092019190915291835280518082019091526008840154815260099093015460ff16151583820152015261196e565b5f5460408051630ccc574960e41b815290516001600160a01b03909216916391d1485491839163ccc57490916004808201926020929091908290030181865afa1580156109ae573d5f5f3e3d5ffd5b505050506040513d601f19601f820116820180604052508101906109d29190612d66565b6040516001600160e01b031960e084901b1681526004810191909152336024820152604401602060405180830381865afa158015610a12573d5f5f3e3d5ffd5b505050506040513d601f19601f82011682018060405250810190610a369190612d91565b610a5557604051630ea7d7ed60e21b8152336004820152602401610623565b610a5e81611a2d565b50565b610a69612737565b6001600160a01b038084165f90815260086020908152604080832086851684529091529081902081516102008101835281548416928101928352600180830154808616606084015264ffffffffff600160a01b80830482166080860152600160c81b808404831660a087015260ff600160f01b8504811660c0880152600160f81b909404841660e087015260028701548916610100870152600387015498891661012087015290880490911661014085015292959394869490938693610160870193919092041690811115610b4057610b40612823565b6001811115610b5157610b51612823565b8152600482015460208083019190915260058301546040808401919091526006840154606084015260079093015460809092019190915291835280518082019091526008840154815260099093015460ff1615158382015201529392505050565b5f5460408051630ccc574960e41b815290516001600160a01b03909216916391d1485491839163ccc57490916004808201926020929091908290030181865afa158015610c01573d5f5f3e3d5ffd5b505050506040513d601f19601f82011682018060405250810190610c259190612d66565b6040516001600160e01b031960e084901b1681526004810191909152336024820152604401602060405180830381865afa158015610c65573d5f5f3e3d5ffd5b505050506040513d601f19601f82011682018060405250810190610c899190612d91565b610ca857604051630ea7d7ed60e21b8152336004820152602401610623565b5f610cb4858484611414565b5090505f5b81518110156104ca57610ce686838381518110610cd857610cd8612d1b565b60200260200101518761107f565b600101610cb9565b6001600160a01b038083165f9081526008602090815260408083209385168352929052908120610d1d90611a77565b9392505050565b6001600160a01b038084165f9081526008602090815260408083209386168352929052908120610d548184611c11565b6001600160a01b038087165f908152600a60209081526040808320938916835292905290812080549294508492909190610d8f908490612dbe565b909155505060088101545f03610e6157604080516102008101825282546001600160a01b03908116928201928352600180850154808316606085015264ffffffffff600160a01b80830482166080870152600160c81b808404831660a088015260ff600160f01b8504811660c0890152600160f81b909404841660e0880152600289015486166101008801526003890154958616610120880152908504909116610140860152610e61958b958b959094899486948693610160870193919004909116908111156108ef576108ef612823565b509392505050565b5f5460408051630ccc574960e41b8152905160609283926001600160a01b03909116916391d1485491839163ccc57490916004808201926020929091908290030181865afa158015610ebd573d5f5f3e3d5ffd5b505050506040513d601f19601f82011682018060405250810190610ee19190612d66565b6040516001600160e01b031960e084901b1681526004810191909152336024820152604401602060405180830381865afa158015610f21573d5f5f3e3d5ffd5b505050506040513d601f19601f82011682018060405250810190610f459190612d91565b610f6457604051630ea7d7ed60e21b8152336004820152602401610623565b60405163780469bb60e01b81526001600160a01b0386169063780469bb90610f929087908790600401612dd1565b5f604051808303815f875af1158015610fad573d5f5f3e3d5ffd5b505050506040513d5f823e601f3d908101601f19168201604052610fd49190810190612f3d565b90925090505f5b825181101561107657818181518110610ff657610ff6612d1b565b602002602001015160075f886001600160a01b03166001600160a01b031681526020019081526020015f205f85848151811061103457611034612d1b565b60200260200101516001600160a01b03166001600160a01b031681526020019081526020015f205f8282546110699190612dbe565b9091555050600101610fdb565b50935093915050565b6001600160a01b038084165f908152600860209081526040808320868516845290915290208054909116158015906110bc5750600981015460ff16155b156110ed5760405163ef83e9dd60e01b81526001600160a01b03808616600483015284166024820152604401610623565b6001600160a01b038085165f8181526009602090815260408083209488168084529482528083205493835260078252808320948352939052918220546111339190612dbe565b90505f61114285858430611ef2565b90508060085f886001600160a01b03166001600160a01b031681526020019081526020015f205f876001600160a01b03166001600160a01b031681526020019081526020015f205f820151815f015f820151815f015f6101000a8154816001600160a01b0302191690836001600160a01b031602179055506020820151816001015f6101000a8154816001600160a01b0302191690836001600160a01b0316021790555060408201518160010160146101000a81548164ffffffffff021916908364ffffffffff16021790555060608201518160010160196101000a81548164ffffffffff021916908364ffffffffff160217905550608082015181600101601e6101000a81548160ff021916908360ff16021790555060a082015181600101601f6101000a81548160ff021916908360ff16021790555060c0820151816002015f6101000a8154816001600160a01b0302191690836001600160a01b0316021790555060e0820151816003015f6101000a8154816001600160a01b0302191690836001600160a01b031602179055506101008201518160030160146101000a81548164ffffffffff021916908364ffffffffff1602179055506101208201518160030160196101000a81548160ff0219169083600181111561132757611327612823565b02179055506101408201516004820155610160820151600582015561018082015160068201556101a090910151600791820155602092830151805160088401558301516009928301805460ff19169115159190911790556001600160a01b038981165f8181529285526040808420928b1680855292865280842084905581845293855283832082845285528383209290925584516101000151835164ffffffffff90911681529384019190915290820152606081018390527f5b66543d3d25b638d45065504e7ba2610119c2ce1a07781059cd1dfd67f483c69060800160405180910390a1505050505050565b606080846001600160a01b031663ce5c7f6185856040518363ffffffff1660e01b8152600401611445929190613004565b5f604051808303815f875af1158015611460573d5f5f3e3d5ffd5b505050506040513d5f823e601f3d908101601f191682016040526114879190810190612f3d565b90925090505f5b8251811015611529578181815181106114a9576114a9612d1b565b602002602001015160075f886001600160a01b03166001600160a01b031681526020019081526020015f205f8584815181106114e7576114e7612d1b565b60200260200101516001600160a01b03166001600160a01b031681526020019081526020015f205f82825461151c9190612dbe565b909155505060010161148e565b50806040516115389190613032565b60405180910390208260405161154e9190613067565b604051908190038120906001600160a01b038816907ff7904a549ceee39edb99c75ebe3dd4fef55faded4684ab7963232e23fcfd3f4c905f90a4935093915050565b6001600160a01b038083165f908152600860209081526040808320878516845290915280822081516102008101835281548516928101928352600180830154808716606084015264ffffffffff600160a01b80830482166080860152600160c81b808404831660a087015260ff600160f01b8504811660c0880152600160f81b909404841660e087015260028701548a166101008701526003870154998a16610120870152908904909116610140850152959692959394869490938693610160870193929091049091169081111561166a5761166a612823565b600181111561167b5761167b612823565b81526004820154602080830191909152600583015460408084019190915260068401546060840152600790930154608090920191909152918352805180820182526008850154815260099094015460ff161515848301529181019290925282518201516001600160a01b038088165f908152600a8552838120918a16815293529120549192509080156104ca57846001600160a01b031663303dbaf36040518163ffffffff1660e01b8152600401602060405180830381865afa158015611744573d5f5f3e3d5ffd5b505050506040513d601f19601f820116820180604052508101906117689190612d91565b5060405163095ea7b360e01b81526001600160a01b0386811660048301526024820183905283169063095ea7b3906044016020604051808303815f875af11580156117b5573d5f5f3e3d5ffd5b505050506040513d601f19601f820116820180604052508101906117d99190612d91565b50604051632db6d39960e01b81526001600160a01b03861690632db6d39990611808908490889060040161309a565b5f604051808303815f87803b15801561181f575f5ffd5b505af1158015611831573d5f5f3e3d5ffd5b50505050816001600160a01b0316866001600160a01b0316866001600160a01b03167f902a3a8d6e4938f8d990a89084a4ac52bd8d18e234aba1615f333643282fca988460405161188491815260200190565b60405180910390a4505050506001600160a01b039081165f908152600a6020908152604080832094909316825292909252812055565b80546001600160a01b03166118e2576040516307145c5f60e11b815260040160405180910390fd5b600981015460ff161561191d57600381015460405163d9e3dd8360e01b8152600160a01b90910464ffffffffff166004820152602401610623565b6001810154600160c81b900464ffffffffff1642101561196557600381015460405163e30e8d4760e01b8152600160a01b90910464ffffffffff166004820152602401610623565b610a5e81612016565b602080820151516001600160a01b038086165f90815260098452604080822092871682529190935282208054919290916119a9908490612dbe565b92505081905550826001600160a01b031663303dbaf36040518163ffffffff1660e01b8152600401602060405180830381865afa1580156119ec573d5f5f3e3d5ffd5b505050506040513d601f19601f82011682018060405250810190611a109190612d91565b6107fb576107fb828460405180602001604052805f815250611590565b806001611a3a82826130f4565b9050507fe9d5a90069e830741fa6df4fbb146dc3c0918e85d57eb372c70e743198179c7981604051611a6c919061316b565b60405180910390a150565b604080516102008101825282546001600160a01b03908116928201928352600180850154808316606085015264ffffffffff600160a01b80830482166080870152600160c81b808404831660a088015260ff600160f01b8504811660c0890152600160f81b909404841660e08801526002890154861661010088015260038901549586166101208801529085049091166101408601525f95879486949193869361016087019392041690811115611b3057611b30612823565b6001811115611b4157611b41612823565b8152600482810154602080840191909152600584015460408085019190915260068501546060850152600790940154608090930192909252928452815180830183526008860154815260099095015460ff161515858201529290920192909252516370d8532160e11b815273__$87c00a11f154e19488f2e9ac8cdbd9f046$__9263e1b0a64292611bd29201612c7b565b602060405180830381865af4158015611bed573d5f5f3e3d5ffd5b505050506040513d601f19601f820116820180604052508101906104ff9190612d66565b81545f906001600160a01b0316611c3b576040516307145c5f60e11b815260040160405180910390fd5b600983015460ff1615611c7657600383015460405163d9e3dd8360e01b8152600160a01b90910464ffffffffff166004820152602401610623565b6001830154600160c81b900464ffffffffff164210611cbd57600383015460405163aff5aad960e01b8152600160a01b90910464ffffffffff166004820152602401610623565b6008830154821115611ce257604051632783839d60e01b815260040160405180910390fd5b604080516102008101825284546001600160a01b03908116928201928352600180870154808316606085015264ffffffffff600160a01b80830482166080870152600160c81b808404831660a088015260ff600160f01b8504811660c0890152600160f81b909404841660e088015260028b0154861661010088015260038b01549586166101208801529085049091166101408601525f95611e1295948a94869492938693610160870193919091041690811115611da257611da2612823565b6001811115611db357611db3612823565b8152600482015460208083019190915260058301546040808401919091526006840154606084015260079093015460809092019190915291835280518082019091526008840154815260099093015460ff1615158382015201526120c3565b6001850154909150611e3c908290859060ff600160f81b8204811691600160f01b9004168161213a565b915082846008015f015f828254611e5391906131bc565b90915550506001840154611e72906001600160a01b0316333085612179565b8354611e88906001600160a01b031633856121e0565b600384015460408051858152602081018490523392600160a01b900464ffffffffff16917fe8d7e55108ae7ddb60173461d2950c7a8e22a7ac7f442825564fe84c8c6f9a38910160405180910390a360088401545f03611eeb57611eeb84612016565b5092915050565b611efa612737565b5f60405180610160016040528060065f8154611f15906131cf565b918290555081526001600160a01b03808916602083015287811660408301526001805464ffffffffff166060840152600254608084015260035460a084015260c0830188905260045460e0840152336101008401529086166101208301526005546101409092019160ff1690811115611f9057611f90612823565b9052604051631bd590b960e11b815290915073__$87c00a11f154e19488f2e9ac8cdbd9f046$__906337ab217290611fcc9084906004016131e7565b61020060405180830381865af4158015611fe8573d5f5f3e3d5ffd5b505050506040513d601f19601f8201168201806040525081019061200c9190613311565b9695505050505050565b600881015460068201545f9161202b916131bc565b60098301805460ff1916600117905560088301549091501561206b5760038201546008830154835461206b926001600160a01b03918216929116906121e0565b60038201546008830154604080518481526020810192909252600160a01b90920464ffffffffff16917fd11fb103f8d5c913b9e132f165c0cfa304fc230f10796a7a5d63bc3d8de4d3c3910160405180910390a25050565b8051604001515f9081906120de9064ffffffffff16426131bc565b835160408101516060909101519192505f916120fa9190613437565b845161012081015161014082015161016083015160a09093015164ffffffffff94909416945061213293919290918690869080612211565b949350505050565b5f806121468786612298565b90505f6121538786612298565b90505f61216083836122fe565b905061216c818661230f565b9998505050505050505050565b6040516001600160a01b0384811660248301528381166044830152606482018390526106f49186918216906323b872dd906084015b604051602081830303815290604052915060e01b6020820180516001600160e01b03838183161783525050505061236e565b6040516001600160a01b038381166024830152604482018390526107fb91859182169063a9059cbb906064016121ae565b5f83851061222057508461228d565b5f88600181111561223357612233612823565b0361224d576122468787878787876123da565b905061228d565b600188600181111561226157612261612823565b036122745761224687878787878761245d565b6040516346b2fddf60e11b815260040160405180910390fd5b979650505050505050565b5f8160ff166012036122ab5750816104ff565b60128260ff1611156122de576122c2601283613454565b6122cd90600a613550565b6122d79084613572565b90506104ff565b6122e9826012613454565b6122f490600a613550565b610d1d9084613591565b5f610d1d61230c8484612502565b90565b5f8160ff166012036123225750816104ff565b60128260ff16111561234e57612339601283613454565b61234490600a613550565b6122d79084613591565b612359826012613454565b61236490600a613550565b610d1d9084613572565b5f5f60205f8451602086015f885af18061238d576040513d5f823e3d81fd5b50505f513d915081156123a45780600114156123b1565b6001600160a01b0384163b155b156106f457604051635274afe760e01b81526001600160a01b0385166004820152602401610623565b5f806123e68885612298565b90505f6123f38886612298565b90505f61240361230c83856131bc565b90505f61240f896125b4565b90505f61241b896125b4565b90505f6124328261242c86866122fe565b906125f9565b90505f61243f82886131bc565b905061244b818a61230f565b9e9d5050505050505050505050505050565b5f806124698885612298565b90505f6124768886612298565b90505f61248661230c83856131bc565b90505f61249b6124968a8a6131bc565b6125b4565b90505f6124a7896125b4565b90505f6124b5836002612610565b90505f6124c3836002612610565b90505f6124d48261242c88866122fe565b90505f6124e18289612dbe565b90506124ed818c61230f565b99505050505050505050509695505050505050565b5f80805f19848609848602925082811083820303915050805f036125335750670de0b6b3a7640000900490506104ff565b670de0b6b3a7640000811061256557604051635173648d60e01b81526004810186905260248101859052604401610623565b5f670de0b6b3a764000085870962040000818503049310909103600160ee1b02919091177faccb18165bd6fe31ae1cf318dc5b51eee0e1ba569b88cd74c1773b91fac106690291505092915050565b5f6125c8670de0b6b3a76400005f19613572565b8211156125eb57604051631cd951a760e01b815260048101839052602401610623565b50670de0b6b3a76400000290565b5f610d1d61230c84670de0b6b3a764000085612669565b5f82816001841661262957670de0b6b3a764000061262b565b815b9050600184901c93505b8315612132576126458283612502565b9150600184161561265d5761265a8183612502565b90505b600184901c9350612635565b5f80805f19858709858702925082811083820303915050805f036126a0578382816126965761269661355e565b0492505050610d1d565b8381106126d157604051630c740aef60e31b8152600481018790526024810186905260448101859052606401610623565b5f84868809600260036001881981018916988990049182028318808302840302808302840302808302840302808302840302808302840302918202909203025f889003889004909101858311909403939093029303949094049190911702949350505050565b60405180604001604052806127b1604080516101c0810182525f80825260208201819052918101829052606081018290526080810182905260a0810182905260c0810182905260e0810182905261010081018290529061012082019081526020015f81526020015f81526020015f81526020015f81525090565b81526020016127d360405180604001604052805f81526020015f151581525090565b905290565b6001600160a01b0381168114610a5e575f5ffd5b5f5f604083850312156127fd575f5ffd5b8235612808816127d8565b91506020830135612818816127d8565b809150509250929050565b634e487b7160e01b5f52602160045260245ffd5b6002811061284757612847612823565b9052565b80516001600160a01b03168252602081015161287260208401826001600160a01b03169052565b50604081015161288b604084018264ffffffffff169052565b5060608101516128a4606084018264ffffffffff169052565b5060808101516128b9608084018260ff169052565b5060a08101516128ce60a084018260ff169052565b5060c08101516128e960c08401826001600160a01b03169052565b5060e081015161290460e08401826001600160a01b03169052565b5061010081015161291f61010084018264ffffffffff169052565b50610120810151612934610120840182612837565b506101408101516101408301526101608101516101608301526101808101516101808301526101a08101516101a08301525050565b6102008101612978828561284b565b82516101c0830152602083015115156101e0830152610d1d565b5f5f83601f8401126129a2575f5ffd5b50813567ffffffffffffffff8111156129b9575f5ffd5b6020830191508360208260051b85010111156129d3575f5ffd5b9250929050565b5f5f5f5f606085870312156129ed575f5ffd5b84356129f8816127d8565b9350602085013567ffffffffffffffff811115612a13575f5ffd5b612a1f87828801612992565b9094509250506040850135612a33816127d8565b939692955090935050565b5f5f60408385031215612a4f575f5ffd5b823560038110612808575f5ffd5b5f5f83601f840112612a6d575f5ffd5b50813567ffffffffffffffff811115612a84575f5ffd5b6020830191508360208285010111156129d3575f5ffd5b5f5f5f60408486031215612aad575f5ffd5b8335612ab8816127d8565b9250602084013567ffffffffffffffff811115612ad3575f5ffd5b612adf86828701612a5d565b9497909650939450505050565b5f5f5f60408486031215612afe575f5ffd5b8335612b09816127d8565b9250602084013567ffffffffffffffff811115612b24575f5ffd5b612adf86828701612992565b604080825283519082018190525f9060208501906060840190835b81811015612b725783516001600160a01b0316835260209384019390920191600101612b4b565b5050838103602080860191909152855180835291810192508501905f5b81811015612bad578251845260209384019390920191600101612b8f565b50919695505050505050565b5f5f5f5f60608587031215612bcc575f5ffd5b8435612bd7816127d8565b93506020850135612be7816127d8565b9250604085013567ffffffffffffffff811115612c02575f5ffd5b612c0e87828801612a5d565b95989497509550505050565b5f5f5f60608486031215612c2c575f5ffd5b8335612c37816127d8565b92506020840135612c47816127d8565b91506040840135612c57816127d8565b809150509250925092565b5f60a0828403128015612c73575f5ffd5b509092915050565b5f61020082019050612c8e82845161284b565b60208381015180516101c08501529081015115156101e0840152611eeb565b5f60a08201905064ffffffffff8716825285602083015284604083015283606083015261200c6080830184612837565b5f5f5f60608486031215612cef575f5ffd5b8335612cfa816127d8565b92506020840135612d0a816127d8565b929592945050506040919091013590565b634e487b7160e01b5f52603260045260245ffd5b5f60038410612d4057612d40612823565b5060f89290921b825260601b6bffffffffffffffffffffffff1916600182015260150190565b5f60208284031215612d76575f5ffd5b5051919050565b80518015158114612d8c575f5ffd5b919050565b5f60208284031215612da1575f5ffd5b610d1d82612d7d565b634e487b7160e01b5f52601160045260245ffd5b808201808211156104ff576104ff612daa565b602080825281018290525f8360408301825b85811015612e13578235612df6816127d8565b6001600160a01b0316825260209283019290910190600101612de3565b5095945050505050565b634e487b7160e01b5f52604160045260245ffd5b6040805190810167ffffffffffffffff81118282101715612e5457612e54612e1d565b60405290565b6040516101c0810167ffffffffffffffff81118282101715612e5457612e54612e1d565b604051601f8201601f1916810167ffffffffffffffff81118282101715612ea757612ea7612e1d565b604052919050565b5f67ffffffffffffffff821115612ec857612ec8612e1d565b5060051b60200190565b8051612d8c816127d8565b5f82601f830112612eec575f5ffd5b8151612eff612efa82612eaf565b612e7e565b8082825260208201915060208360051b860101925085831115612f20575f5ffd5b602085015b83811015612e13578051835260209283019201612f25565b5f5f60408385031215612f4e575f5ffd5b825167ffffffffffffffff811115612f64575f5ffd5b8301601f81018513612f74575f5ffd5b8051612f82612efa82612eaf565b8082825260208201915060208360051b850101925087831115612fa3575f5ffd5b6020840193505b82841015612fce578351612fbd816127d8565b825260209384019390910190612faa565b80955050505050602083015167ffffffffffffffff811115612fee575f5ffd5b612ffa85828601612edd565b9150509250929050565b60208152816020820152818360408301375f818301604090810191909152601f909201601f19160101919050565b81515f90829060208501835b8281101561305c57815184526020938401939091019060010161303e565b509195945050505050565b81515f90829060208501835b8281101561305c5781516001600160a01b0316845260209384019390910190600101613073565b828152604060208201525f82518060408401528060208501606085015e5f606082850101526060601f19601f8301168401019150509392505050565b64ffffffffff81168114610a5e575f5ffd5b60028110610a5e575f5ffd5b81356130ff816130d6565b815464ffffffffff191664ffffffffff91909116178155602082013560018201556040820135600282015560608201356003820155600481016080830135613146816130e8565b6002811061315657613156612823565b60ff1982541660ff8216811783555050505050565b60a08101823561317a816130d6565b64ffffffffff16825260208381013590830152604080840135908301526060808401359083015260808301356131af816130e8565b611eeb6080840182612837565b818103818111156104ff576104ff612daa565b5f600182016131e0576131e0612daa565b5060010190565b8151815260208083015161016083019161320b908401826001600160a01b03169052565b50604083015161322660408401826001600160a01b03169052565b50606083015161323f606084018264ffffffffff169052565b506080830151608083015260a083015160a083015260c083015160c083015260e083015160e08301526101008301516132846101008401826001600160a01b03169052565b506101208301516132a16101208401826001600160a01b03169052565b50610140830151611eeb610140840182612837565b8051612d8c816130d6565b805160ff81168114612d8c575f5ffd5b8051612d8c816130e8565b5f604082840312156132ec575f5ffd5b6132f4612e31565b82518152905061330660208301612d7d565b602082015292915050565b5f81830361020081128015613324575f5ffd5b5061332d612e31565b6101c082121561333b575f5ffd5b613343612e5a565b915061334e84612ed2565b825261335c60208501612ed2565b602083015261336d604085016132b6565b604083015261337e606085016132b6565b606083015261338f608085016132c1565b60808301526133a060a085016132c1565b60a08301526133b160c08501612ed2565b60c08301526133c260e08501612ed2565b60e08301526133d461010085016132b6565b6101008301526133e761012085016132d1565b6101208301526101408481015190830152610160808501519083015261018080850151908301526101a0808501519083015281815261342a856101c086016132dc565b6020820152949350505050565b64ffffffffff82811682821603908111156104ff576104ff612daa565b60ff82811682821603908111156104ff576104ff612daa565b6001815b60018411156134a85780850481111561348c5761348c612daa565b600184161561349a57908102905b60019390931c928002613471565b935093915050565b5f826134be575060016104ff565b816134ca57505f6104ff565b81600181146134e057600281146134ea57613506565b60019150506104ff565b60ff8411156134fb576134fb612daa565b50506001821b6104ff565b5060208310610133831016604e8410600b8410161715613529575081810a6104ff565b6135355f19848461346d565b805f190482111561354857613548612daa565b029392505050565b5f610d1d60ff8416836134b0565b634e487b7160e01b5f52601260045260245ffd5b5f8261358c57634e487b7160e01b5f52601260045260245ffd5b500490565b80820281158282048414176104ff576104ff612daa56fea26469706673582212205852570075aa83c3b05805f607af869fa755095dd13620a693efe1c943b88a3964736f6c634300081c0033","linkReferences":{"node_modules/@summerfi/dutch-auction/src/DutchAuctionLibrary.sol":{"DutchAuctionLibrary":[{"start":7761,"length":20},{"start":8775,"length":20}]}}},"methodIdentifiers":{"auctionDefaultParameters()":"c2f8b526","auctions(address,address)":"18242941","board(address,address,bytes)":"8dc385a3","buyTokens(address,address,uint256)":"dcefa538","finalizeAuction(address,address)":"9b05e3c3","generateRole(uint8,address)":"69b3054b","getAuctionInfo(address,address)":"b3924cd0","getCurrentPrice(address,address)":"db16a555","getObtainedTokens(address,address)":"fe7f25b4","harvest(address,bytes)":"7399bfe8","harvestAndStartAuction(address,address,bytes)":"d526b80b","nextAuctionId()":"fc528482","obtainedTokens(address,address)":"6e91edf8","paymentTokensToBoard(address,address)":"a30215e1","startAuction(address,address,address)":"953790b1","sweep(address,address[])":"8a179be4","sweepAndStartAuction(address,address[],address)":"672d2264","unsoldTokens(address,address)":"3beef0ce","updateAuctionDefaultParameters((uint40,uint256,uint256,uint256,uint8))":"a11a9121"},"id":200}