{"abi":[{"type":"constructor","inputs":[{"name":"_swapProvider_","type":"address","internalType":"address"},{"name":"accessManager","type":"address","internalType":"address"}],"stateMutability":"nonpayable"},{"type":"function","name":"DEFAULT_ADMIN_ROLE","inputs":[],"outputs":[{"name":"","type":"bytes32","internalType":"bytes32"}],"stateMutability":"view"},{"type":"function","name":"getHarvestedRewards","inputs":[{"name":"ark","type":"address","internalType":"address"},{"name":"rewardToken","type":"address","internalType":"address"}],"outputs":[{"name":"","type":"uint256","internalType":"uint256"}],"stateMutability":"view"},{"type":"function","name":"getRoleAdmin","inputs":[{"name":"role","type":"bytes32","internalType":"bytes32"}],"outputs":[{"name":"","type":"bytes32","internalType":"bytes32"}],"stateMutability":"view"},{"type":"function","name":"grantCommanderRole","inputs":[{"name":"account","type":"address","internalType":"address"}],"outputs":[],"stateMutability":"nonpayable"},{"type":"function","name":"grantRole","inputs":[{"name":"","type":"bytes32","internalType":"bytes32"},{"name":"","type":"address","internalType":"address"}],"outputs":[],"stateMutability":"view"},{"type":"function","name":"harvest","inputs":[{"name":"ark","type":"address","internalType":"address"},{"name":"rewardToken","type":"address","internalType":"address"},{"name":"extraHarvestData","type":"bytes","internalType":"bytes"}],"outputs":[],"stateMutability":"nonpayable"},{"type":"function","name":"harvestAndBoard","inputs":[{"name":"ark","type":"address","internalType":"address"},{"name":"rewardToken","type":"address","internalType":"address"},{"name":"swapData","type":"tuple","internalType":"struct SwapData","components":[{"name":"fromAsset","type":"address","internalType":"address"},{"name":"amount","type":"uint256","internalType":"uint256"},{"name":"receiveAtLeast","type":"uint256","internalType":"uint256"},{"name":"withData","type":"bytes","internalType":"bytes"}]},{"name":"extraHarvestData","type":"bytes","internalType":"bytes"}],"outputs":[],"stateMutability":"nonpayable"},{"type":"function","name":"harvestedRewards","inputs":[{"name":"ark","type":"address","internalType":"address"},{"name":"rewardToken","type":"address","internalType":"address"}],"outputs":[{"name":"harvestedAmount","type":"uint256","internalType":"uint256"}],"stateMutability":"view"},{"type":"function","name":"hasRole","inputs":[{"name":"role","type":"bytes32","internalType":"bytes32"},{"name":"account","type":"address","internalType":"address"}],"outputs":[{"name":"","type":"bool","internalType":"bool"}],"stateMutability":"view"},{"type":"function","name":"renounceRole","inputs":[{"name":"role","type":"bytes32","internalType":"bytes32"},{"name":"callerConfirmation","type":"address","internalType":"address"}],"outputs":[],"stateMutability":"nonpayable"},{"type":"function","name":"revokeCommanderRole","inputs":[{"name":"account","type":"address","internalType":"address"}],"outputs":[],"stateMutability":"nonpayable"},{"type":"function","name":"revokeRole","inputs":[{"name":"","type":"bytes32","internalType":"bytes32"},{"name":"","type":"address","internalType":"address"}],"outputs":[],"stateMutability":"view"},{"type":"function","name":"setSwapProvider","inputs":[{"name":"newProvider","type":"address","internalType":"address"}],"outputs":[],"stateMutability":"nonpayable"},{"type":"function","name":"supportsInterface","inputs":[{"name":"interfaceId","type":"bytes4","internalType":"bytes4"}],"outputs":[{"name":"","type":"bool","internalType":"bool"}],"stateMutability":"view"},{"type":"function","name":"swapAndBoard","inputs":[{"name":"ark","type":"address","internalType":"address"},{"name":"rewardToken","type":"address","internalType":"address"},{"name":"swapData","type":"tuple","internalType":"struct SwapData","components":[{"name":"fromAsset","type":"address","internalType":"address"},{"name":"amount","type":"uint256","internalType":"uint256"},{"name":"receiveAtLeast","type":"uint256","internalType":"uint256"},{"name":"withData","type":"bytes","internalType":"bytes"}]}],"outputs":[],"stateMutability":"nonpayable"},{"type":"function","name":"swapProvider","inputs":[],"outputs":[{"name":"","type":"address","internalType":"address"}],"stateMutability":"view"},{"type":"event","name":"ArkHarvested","inputs":[{"name":"ark","type":"address","indexed":true,"internalType":"address"},{"name":"rewardToken","type":"address","indexed":true,"internalType":"address"}],"anonymous":false},{"type":"event","name":"RewardBoarded","inputs":[{"name":"ark","type":"address","indexed":true,"internalType":"address"},{"name":"fromRewardToken","type":"address","indexed":true,"internalType":"address"},{"name":"toFleetToken","type":"address","indexed":true,"internalType":"address"},{"name":"amountReboarded","type":"uint256","indexed":false,"internalType":"uint256"}],"anonymous":false},{"type":"event","name":"RewardSwapped","inputs":[{"name":"rewardIn","type":"address","indexed":true,"internalType":"address"},{"name":"fleetTokenOut","type":"address","indexed":true,"internalType":"address"},{"name":"amountIn","type":"uint256","indexed":false,"internalType":"uint256"},{"name":"amountOut","type":"uint256","indexed":false,"internalType":"uint256"}],"anonymous":false},{"type":"event","name":"RoleAdminChanged","inputs":[{"name":"role","type":"bytes32","indexed":true,"internalType":"bytes32"},{"name":"previousAdminRole","type":"bytes32","indexed":true,"internalType":"bytes32"},{"name":"newAdminRole","type":"bytes32","indexed":true,"internalType":"bytes32"}],"anonymous":false},{"type":"event","name":"RoleGranted","inputs":[{"name":"role","type":"bytes32","indexed":true,"internalType":"bytes32"},{"name":"account","type":"address","indexed":true,"internalType":"address"},{"name":"sender","type":"address","indexed":true,"internalType":"address"}],"anonymous":false},{"type":"event","name":"RoleRevoked","inputs":[{"name":"role","type":"bytes32","indexed":true,"internalType":"bytes32"},{"name":"account","type":"address","indexed":true,"internalType":"address"},{"name":"sender","type":"address","indexed":true,"internalType":"address"}],"anonymous":false},{"type":"error","name":"AccessControlBadConfirmation","inputs":[]},{"type":"error","name":"AccessControlUnauthorizedAccount","inputs":[{"name":"account","type":"address","internalType":"address"},{"name":"neededRole","type":"bytes32","internalType":"bytes32"}]},{"type":"error","name":"CallerIsNotGovernor","inputs":[{"name":"caller","type":"address","internalType":"address"}]},{"type":"error","name":"CallerIsNotSuperKeeper","inputs":[{"name":"caller","type":"address","internalType":"address"}]},{"type":"error","name":"DirectGrantIsDisabled","inputs":[{"name":"caller","type":"address","internalType":"address"}]},{"type":"error","name":"DirectRevokeIsDisabled","inputs":[{"name":"caller","type":"address","internalType":"address"}]},{"type":"error","name":"InvalidAccessManagerAddress","inputs":[{"name":"invalidAddress","type":"address","internalType":"address"}]},{"type":"error","name":"ReceivedLess","inputs":[{"name":"receiveAtLeast","type":"uint256","internalType":"uint256"},{"name":"balance","type":"uint256","internalType":"uint256"}]},{"type":"error","name":"RewardsSwapFailed","inputs":[{"name":"caller","type":"address","internalType":"address"}]},{"type":"error","name":"SwapAmountExceedsHarvestedAmount","inputs":[{"name":"swapAmount","type":"uint256","internalType":"uint256"},{"name":"harvestedAmount","type":"uint256","internalType":"uint256"},{"name":"rewardToken","type":"address","internalType":"address"}]}],"bytecode":{"object":"0x608060405234801561000f575f80fd5b5060405161176338038061176383398101604081905261002e91610145565b80806001600160a01b03811661005e576040516347bd7c1d60e01b81525f60048201526024015b60405180910390fd5b6040516301ffc9a760e01b815263f87138b560e01b60048201526001600160a01b038216906301ffc9a790602401602060405180830381865afa1580156100a7573d5f803e3d5ffd5b505050506040513d601f19601f820116820180604052508101906100cb9190610176565b6100f3576040516347bd7c1d60e01b81526001600160a01b0382166004820152602401610055565b5f80546001600160a01b039283166001600160a01b03199182161790915560028054959092169416939093179092555061019c9050565b80516001600160a01b0381168114610140575f80fd5b919050565b5f8060408385031215610156575f80fd5b61015f8361012a565b915061016d6020840161012a565b90509250929050565b5f60208284031215610186575f80fd5b81518015158114610195575f80fd5b9392505050565b6115ba806101a95f395ff3fe608060405234801561000f575f80fd5b50600436106100fb575f3560e01c806391d1485411610093578063afd44dfe11610063578063afd44dfe1461020c578063b704479b14610244578063d547741f1461026e578063f08a8a3b14610281575f80fd5b806391d14854146101cc5780639403e41f146101df578063a217fddf146101f2578063a782a857146101f9575f80fd5b806336568abe116100ce57806336568abe1461018057806353448c9c1461019357806376cf4278146101a657806381d3ce26146101b9575f80fd5b8063012f072f146100ff57806301ffc9a714610114578063248a9ca31461013c5780632f2ff15d1461016d575b5f80fd5b61011261010d366004611260565b6102ac565b005b6101276101223660046112ef565b6103c5565b60405190151581526020015b60405180910390f35b61015f61014a36600461131d565b5f908152600160208190526040909120015490565b604051908152602001610133565b61011261017b366004611334565b6103fb565b61011261018e366004611334565b610416565b6101126101a1366004611362565b61044e565b6101126101b43660046113c0565b61054f565b6101126101c73660046113c0565b610667565b6101276101da366004611334565b6107d3565b6101126101ed3660046113c0565b6107fd565b61015f5f81565b6101126102073660046113db565b610965565b61015f61021a36600461143c565b6001600160a01b039182165f90815260036020908152604080832093909416825291909152205490565b61015f61025236600461143c565b600360209081525f928352604080842090915290825290205481565b61011261027c366004611334565b610977565b600254610294906001600160a01b031681565b6040516001600160a01b039091168152602001610133565b5f54604080516366e943f160e01b815290516001600160a01b03909216916391d148549183916366e943f1916004808201926020929091908290030181865afa1580156102fb573d5f803e3d5ffd5b505050506040513d601f19601f8201168201806040525081019061031f9190611468565b6040516001600160e01b031960e084901b1681526004810191909152336024820152604401602060405180830381865afa15801561035f573d5f803e3d5ffd5b505050506040513d601f19601f82011682018060405250810190610383919061147f565b6103a7576040516339ba1dbb60e11b81523360048201526024015b60405180910390fd5b6103b385858484610992565b6103be858585610a83565b5050505050565b5f6001600160e01b03198216637965db0b60e01b14806103f557506301ffc9a760e01b6001600160e01b03198316145b92915050565b604051630e15200f60e21b815233600482015260240161039e565b6001600160a01b038116331461043f5760405163334bd91960e11b815260040160405180910390fd5b6104498282610c43565b505050565b5f54604080516366e943f160e01b815290516001600160a01b03909216916391d148549183916366e943f1916004808201926020929091908290030181865afa15801561049d573d5f803e3d5ffd5b505050506040513d601f19601f820116820180604052508101906104c19190611468565b6040516001600160e01b031960e084901b1681526004810191909152336024820152604401602060405180830381865afa158015610501573d5f803e3d5ffd5b505050506040513d601f19601f82011682018060405250810190610525919061147f565b610544576040516339ba1dbb60e11b815233600482015260240161039e565b610449838383610a83565b5f54604080516366e943f160e01b815290516001600160a01b03909216916391d148549183916366e943f1916004808201926020929091908290030181865afa15801561059e573d5f803e3d5ffd5b505050506040513d601f19601f820116820180604052508101906105c29190611468565b6040516001600160e01b031960e084901b1681526004810191909152336024820152604401602060405180830381865afa158015610602573d5f803e3d5ffd5b505050506040513d601f19601f82011682018060405250810190610626919061147f565b610645576040516339ba1dbb60e11b815233600482015260240161039e565b600280546001600160a01b0319166001600160a01b0392909216919091179055565b5f5460408051630ccc574960e41b815290516001600160a01b03909216916391d1485491839163ccc57490916004808201926020929091908290030181865afa1580156106b6573d5f803e3d5ffd5b505050506040513d601f19601f820116820180604052508101906106da9190611468565b6040516001600160e01b031960e084901b1681526004810191909152336024820152604401602060405180830381865afa15801561071a573d5f803e3d5ffd5b505050506040513d601f19601f8201168201806040525081019061073e919061147f565b61075d57604051630ea7d7ed60e21b815233600482015260240161039e565b5f54604080516345b817bb60e01b815290516107cf926001600160a01b0316916345b817bb9160048083019260209291908290030181865afa1580156107a5573d5f803e3d5ffd5b505050506040513d601f19601f820116820180604052508101906107c99190611468565b82610c43565b5050565b5f9182526001602090815260408084206001600160a01b0393909316845291905290205460ff1690565b5f5460408051630ccc574960e41b815290516001600160a01b03909216916391d1485491839163ccc57490916004808201926020929091908290030181865afa15801561084c573d5f803e3d5ffd5b505050506040513d601f19601f820116820180604052508101906108709190611468565b6040516001600160e01b031960e084901b1681526004810191909152336024820152604401602060405180830381865afa1580156108b0573d5f803e3d5ffd5b505050506040513d601f19601f820116820180604052508101906108d4919061147f565b6108f357604051630ea7d7ed60e21b815233600482015260240161039e565b5f54604080516345b817bb60e01b815290516107cf926001600160a01b0316916345b817bb9160048083019260209291908290030181865afa15801561093b573d5f803e3d5ffd5b505050506040513d601f19601f8201168201806040525081019061095f9190611468565b82610cb8565b61097184848484610992565b50505050565b604051636344978560e11b815233600482015260240161039e565b604051630e7337fd60e31b81525f906001600160a01b03861690637399bfe8906109c49087908790879060040161149e565b6020604051808303815f875af11580156109e0573d5f803e3d5ffd5b505050506040513d601f19601f82011682018060405250810190610a049190611468565b6001600160a01b038087165f908152600360209081526040808320938916835292905290812080549293508392909190610a3f9084906114f1565b90915550506040516001600160a01b0380861691908716907f02125ba22aab71969d167ca8d45025c14cc2d88ed72b77766576b138037275fe905f90a35050505050565b6001600160a01b0383165f9081526003602090815260408220908290610aab908501856113c0565b6001600160a01b03166001600160a01b031681526020019081526020015f205490508082602001351115610b0e5760405163d337794b60e01b815260208301356004820152602481018290526001600160a01b038416604482015260640161039e565b6040516370a0823160e01b81523060048201525f906001600160a01b038516906370a0823190602401602060405180830381865afa158015610b52573d5f803e3d5ffd5b505050506040513d601f19601f82011682018060405250810190610b769190611468565b9050610b828584610d27565b6040516370a0823160e01b81523060048201525f906001600160a01b038616906370a0823190602401602060405180830381865afa158015610bc6573d5f803e3d5ffd5b505050506040513d601f19601f82011682018060405250810190610bea9190611468565b90505f610bf78383611504565b9050610c038787610ffe565b5f610c0e8286611504565b6001600160a01b039889165f9081526003602090815260408083209a909b168252989098529790962096909655505050505050565b5f610c4e83836107d3565b15610cae575f8381526001602090815260408083206001600160a01b0386168085529252808320805460ff1916905551339286917ff6391f5c32d9c69d2a47ea670b442974b53935d1edc7fd64eb21e047a839171b9190a45060016103f5565b505f6103f5565b50565b5f610cc383836107d3565b610cae575f8381526001602081815260408084206001600160a01b0387168086529252808420805460ff19169093179092559051339286917f2f8788117e7eff1d82e926ec794901d17c78024a50270940304540a733656f0d9190a45060016103f5565b610d3460208201826113c0565b60025460405163095ea7b360e01b81526001600160a01b0391821660048201526020840135602482015291169063095ea7b3906044016020604051808303815f875af1158015610d86573d5f803e3d5ffd5b505050506040513d601f19601f82011682018060405250810190610daa919061147f565b506002545f906001600160a01b0316610dc66060840184611517565b604051610dd492919061155a565b5f604051808303815f865af19150503d805f8114610e0d576040519150601f19603f3d011682016040523d82523d5f602084013e610e12565b606091505b5050905080610e3657604051630fdd6f5360e41b815233600482015260240161039e565b5f836001600160a01b031663fc0c546a6040518163ffffffff1660e01b8152600401602060405180830381865afa158015610e73573d5f803e3d5ffd5b505050506040513d601f19601f82011682018060405250810190610e979190611569565b6040516370a0823160e01b81523060048201526001600160a01b0391909116906370a0823190602401602060405180830381865afa158015610edb573d5f803e3d5ffd5b505050506040513d601f19601f82011682018060405250810190610eff9190611468565b90508260400135811015610f3357604080516324186c3f60e21b81529084013560048201526024810182905260440161039e565b836001600160a01b031663fc0c546a6040518163ffffffff1660e01b8152600401602060405180830381865afa158015610f6f573d5f803e3d5ffd5b505050506040513d601f19601f82011682018060405250810190610f939190611569565b6001600160a01b0316610fa960208501856113c0565b6001600160a01b03167fd7a92e1433dd48d645fafd643314017f87f86be06251b97c7159d0c8c0a82944856020013584604051610ff0929190918252602082015260400190565b60405180910390a350505050565b5f826001600160a01b031663fc0c546a6040518163ffffffff1660e01b8152600401602060405180830381865afa15801561103b573d5f803e3d5ffd5b505050506040513d601f19601f8201168201806040525081019061105f9190611569565b6040516370a0823160e01b81523060048201529091505f906001600160a01b038316906370a0823190602401602060405180830381865afa1580156110a6573d5f803e3d5ffd5b505050506040513d601f19601f820116820180604052508101906110ca9190611468565b60405163095ea7b360e01b81526001600160a01b038681166004830152602482018390529192509083169063095ea7b3906044016020604051808303815f875af115801561111a573d5f803e3d5ffd5b505050506040513d601f19601f8201168201806040525081019061113e919061147f565b506040516328ed6e3f60e01b8152600481018290526001600160a01b038516906328ed6e3f906024015f604051808303815f87803b15801561117e575f80fd5b505af1158015611190573d5f803e3d5ffd5b50505050816001600160a01b0316836001600160a01b0316856001600160a01b03167f902a3a8d6e4938f8d990a89084a4ac52bd8d18e234aba1615f333643282fca98846040516111e391815260200190565b60405180910390a450505050565b6001600160a01b0381168114610cb5575f80fd5b5f60808284031215611215575f80fd5b50919050565b5f8083601f84011261122b575f80fd5b50813567ffffffffffffffff811115611242575f80fd5b602083019150836020828501011115611259575f80fd5b9250929050565b5f805f805f60808688031215611274575f80fd5b853561127f816111f1565b9450602086013561128f816111f1565b9350604086013567ffffffffffffffff8111156112aa575f80fd5b6112b688828901611205565b935050606086013567ffffffffffffffff8111156112d2575f80fd5b6112de8882890161121b565b969995985093965092949392505050565b5f602082840312156112ff575f80fd5b81356001600160e01b031981168114611316575f80fd5b9392505050565b5f6020828403121561132d575f80fd5b5035919050565b5f8060408385031215611345575f80fd5b823591506020830135611357816111f1565b809150509250929050565b5f805f60608486031215611374575f80fd5b833561137f816111f1565b9250602084013561138f816111f1565b9150604084013567ffffffffffffffff8111156113aa575f80fd5b6113b686828701611205565b9150509250925092565b5f602082840312156113d0575f80fd5b8135611316816111f1565b5f805f80606085870312156113ee575f80fd5b84356113f9816111f1565b93506020850135611409816111f1565b9250604085013567ffffffffffffffff811115611424575f80fd5b6114308782880161121b565b95989497509550505050565b5f806040838503121561144d575f80fd5b8235611458816111f1565b91506020830135611357816111f1565b5f60208284031215611478575f80fd5b5051919050565b5f6020828403121561148f575f80fd5b81518015158114611316575f80fd5b6001600160a01b03841681526040602082018190528101829052818360608301375f818301606090810191909152601f909201601f1916010192915050565b634e487b7160e01b5f52601160045260245ffd5b808201808211156103f5576103f56114dd565b818103818111156103f5576103f56114dd565b5f808335601e1984360301811261152c575f80fd5b83018035915067ffffffffffffffff821115611546575f80fd5b602001915036819003821315611259575f80fd5b818382375f9101908152919050565b5f60208284031215611579575f80fd5b8151611316816111f156fea264697066735822122012ec7fe82a28d09bcdf1074684fe4a55cb19a4f850f867891c68afa1de7aba1b64736f6c634300081a0033","linkReferences":{}},"methodIdentifiers":{"DEFAULT_ADMIN_ROLE()":"a217fddf","getHarvestedRewards(address,address)":"afd44dfe","getRoleAdmin(bytes32)":"248a9ca3","grantCommanderRole(address)":"9403e41f","grantRole(bytes32,address)":"2f2ff15d","harvest(address,address,bytes)":"a782a857","harvestAndBoard(address,address,(address,uint256,uint256,bytes),bytes)":"012f072f","harvestedRewards(address,address)":"b704479b","hasRole(bytes32,address)":"91d14854","renounceRole(bytes32,address)":"36568abe","revokeCommanderRole(address)":"81d3ce26","revokeRole(bytes32,address)":"d547741f","setSwapProvider(address)":"76cf4278","supportsInterface(bytes4)":"01ffc9a7","swapAndBoard(address,address,(address,uint256,uint256,bytes))":"53448c9c","swapProvider()":"f08a8a3b"},"id":65}