{"abi":[{"type":"constructor","inputs":[{"name":"accessManager","type":"address","internalType":"address"},{"name":"defaultParameters","type":"tuple","internalType":"struct AuctionDefaultParameters","components":[{"name":"duration","type":"uint40","internalType":"uint40"},{"name":"startPrice","type":"uint256","internalType":"uint256"},{"name":"endPrice","type":"uint256","internalType":"uint256"},{"name":"kickerRewardPercentage","type":"uint256","internalType":"Percentage"},{"name":"decayType","type":"uint8","internalType":"enum DecayFunctions.DecayType"}]}],"stateMutability":"nonpayable"},{"type":"function","name":"DEFAULT_ADMIN_ROLE","inputs":[],"outputs":[{"name":"","type":"bytes32","internalType":"bytes32"}],"stateMutability":"view"},{"type":"function","name":"auctionDefaultParameters","inputs":[],"outputs":[{"name":"duration","type":"uint40","internalType":"uint40"},{"name":"startPrice","type":"uint256","internalType":"uint256"},{"name":"endPrice","type":"uint256","internalType":"uint256"},{"name":"kickerRewardPercentage","type":"uint256","internalType":"Percentage"},{"name":"decayType","type":"uint8","internalType":"enum DecayFunctions.DecayType"}],"stateMutability":"view"},{"type":"function","name":"auctions","inputs":[{"name":"ark","type":"address","internalType":"address"},{"name":"rewardToken","type":"address","internalType":"address"}],"outputs":[{"name":"config","type":"tuple","internalType":"struct DutchAuctionLibrary.AuctionConfig","components":[{"name":"auctionToken","type":"address","internalType":"contract IERC20"},{"name":"paymentToken","type":"address","internalType":"contract IERC20"},{"name":"startTime","type":"uint40","internalType":"uint40"},{"name":"endTime","type":"uint40","internalType":"uint40"},{"name":"auctionTokenDecimals","type":"uint8","internalType":"uint8"},{"name":"paymentTokenDecimals","type":"uint8","internalType":"uint8"},{"name":"auctionKicker","type":"address","internalType":"address"},{"name":"unsoldTokensRecipient","type":"address","internalType":"address"},{"name":"id","type":"uint40","internalType":"uint40"},{"name":"decayType","type":"uint8","internalType":"enum DecayFunctions.DecayType"},{"name":"startPrice","type":"uint256","internalType":"uint256"},{"name":"endPrice","type":"uint256","internalType":"uint256"},{"name":"totalTokens","type":"uint256","internalType":"uint256"},{"name":"kickerRewardAmount","type":"uint256","internalType":"uint256"}]},{"name":"state","type":"tuple","internalType":"struct DutchAuctionLibrary.AuctionState","components":[{"name":"remainingTokens","type":"uint256","internalType":"uint256"},{"name":"isFinalized","type":"bool","internalType":"bool"}]}],"stateMutability":"view"},{"type":"function","name":"buyTokens","inputs":[{"name":"ark","type":"address","internalType":"address"},{"name":"rewardToken","type":"address","internalType":"address"},{"name":"amount","type":"uint256","internalType":"uint256"}],"outputs":[{"name":"paymentAmount","type":"uint256","internalType":"uint256"}],"stateMutability":"nonpayable"},{"type":"function","name":"finalizeAuction","inputs":[{"name":"ark","type":"address","internalType":"address"},{"name":"rewardToken","type":"address","internalType":"address"}],"outputs":[],"stateMutability":"nonpayable"},{"type":"function","name":"getAuctionInfo","inputs":[{"name":"ark","type":"address","internalType":"address"},{"name":"rewardToken","type":"address","internalType":"address"}],"outputs":[{"name":"","type":"tuple","internalType":"struct DutchAuctionLibrary.Auction","components":[{"name":"config","type":"tuple","internalType":"struct DutchAuctionLibrary.AuctionConfig","components":[{"name":"auctionToken","type":"address","internalType":"contract IERC20"},{"name":"paymentToken","type":"address","internalType":"contract IERC20"},{"name":"startTime","type":"uint40","internalType":"uint40"},{"name":"endTime","type":"uint40","internalType":"uint40"},{"name":"auctionTokenDecimals","type":"uint8","internalType":"uint8"},{"name":"paymentTokenDecimals","type":"uint8","internalType":"uint8"},{"name":"auctionKicker","type":"address","internalType":"address"},{"name":"unsoldTokensRecipient","type":"address","internalType":"address"},{"name":"id","type":"uint40","internalType":"uint40"},{"name":"decayType","type":"uint8","internalType":"enum DecayFunctions.DecayType"},{"name":"startPrice","type":"uint256","internalType":"uint256"},{"name":"endPrice","type":"uint256","internalType":"uint256"},{"name":"totalTokens","type":"uint256","internalType":"uint256"},{"name":"kickerRewardAmount","type":"uint256","internalType":"uint256"}]},{"name":"state","type":"tuple","internalType":"struct DutchAuctionLibrary.AuctionState","components":[{"name":"remainingTokens","type":"uint256","internalType":"uint256"},{"name":"isFinalized","type":"bool","internalType":"bool"}]}]}],"stateMutability":"view"},{"type":"function","name":"getCurrentPrice","inputs":[{"name":"ark","type":"address","internalType":"address"},{"name":"rewardToken","type":"address","internalType":"address"}],"outputs":[{"name":"","type":"uint256","internalType":"uint256"}],"stateMutability":"view"},{"type":"function","name":"getHarvestedRewards","inputs":[{"name":"ark","type":"address","internalType":"address"},{"name":"rewardToken","type":"address","internalType":"address"}],"outputs":[{"name":"","type":"uint256","internalType":"uint256"}],"stateMutability":"view"},{"type":"function","name":"getRoleAdmin","inputs":[{"name":"role","type":"bytes32","internalType":"bytes32"}],"outputs":[{"name":"","type":"bytes32","internalType":"bytes32"}],"stateMutability":"view"},{"type":"function","name":"grantCommanderRole","inputs":[{"name":"account","type":"address","internalType":"address"}],"outputs":[],"stateMutability":"nonpayable"},{"type":"function","name":"grantRole","inputs":[{"name":"","type":"bytes32","internalType":"bytes32"},{"name":"","type":"address","internalType":"address"}],"outputs":[],"stateMutability":"view"},{"type":"function","name":"harvest","inputs":[{"name":"ark","type":"address","internalType":"address"},{"name":"rewardToken","type":"address","internalType":"address"},{"name":"extraHarvestData","type":"bytes","internalType":"bytes"}],"outputs":[],"stateMutability":"nonpayable"},{"type":"function","name":"harvestAndStartAuction","inputs":[{"name":"ark","type":"address","internalType":"address"},{"name":"rewardToken","type":"address","internalType":"address"},{"name":"paymentToken","type":"address","internalType":"address"},{"name":"extraHarvestData","type":"bytes","internalType":"bytes"}],"outputs":[],"stateMutability":"nonpayable"},{"type":"function","name":"harvestedRewards","inputs":[{"name":"ark","type":"address","internalType":"address"},{"name":"rewardToken","type":"address","internalType":"address"}],"outputs":[{"name":"harvestedAmount","type":"uint256","internalType":"uint256"}],"stateMutability":"view"},{"type":"function","name":"hasRole","inputs":[{"name":"role","type":"bytes32","internalType":"bytes32"},{"name":"account","type":"address","internalType":"address"}],"outputs":[{"name":"","type":"bool","internalType":"bool"}],"stateMutability":"view"},{"type":"function","name":"nextAuctionId","inputs":[],"outputs":[{"name":"","type":"uint256","internalType":"uint256"}],"stateMutability":"view"},{"type":"function","name":"paymentTokensToBoard","inputs":[{"name":"ark","type":"address","internalType":"address"},{"name":"rewardToken","type":"address","internalType":"address"}],"outputs":[{"name":"paymentTokensToBoard","type":"uint256","internalType":"uint256"}],"stateMutability":"view"},{"type":"function","name":"renounceRole","inputs":[{"name":"role","type":"bytes32","internalType":"bytes32"},{"name":"callerConfirmation","type":"address","internalType":"address"}],"outputs":[],"stateMutability":"nonpayable"},{"type":"function","name":"revokeCommanderRole","inputs":[{"name":"account","type":"address","internalType":"address"}],"outputs":[],"stateMutability":"nonpayable"},{"type":"function","name":"revokeRole","inputs":[{"name":"","type":"bytes32","internalType":"bytes32"},{"name":"","type":"address","internalType":"address"}],"outputs":[],"stateMutability":"view"},{"type":"function","name":"startAuction","inputs":[{"name":"ark","type":"address","internalType":"address"},{"name":"rewardToken","type":"address","internalType":"address"},{"name":"paymentToken","type":"address","internalType":"address"}],"outputs":[],"stateMutability":"nonpayable"},{"type":"function","name":"supportsInterface","inputs":[{"name":"interfaceId","type":"bytes4","internalType":"bytes4"}],"outputs":[{"name":"","type":"bool","internalType":"bool"}],"stateMutability":"view"},{"type":"function","name":"unsoldTokens","inputs":[{"name":"ark","type":"address","internalType":"address"},{"name":"rewardToken","type":"address","internalType":"address"}],"outputs":[{"name":"remainingTokens","type":"uint256","internalType":"uint256"}],"stateMutability":"view"},{"type":"function","name":"updateAuctionDefaultParameters","inputs":[{"name":"newConfig","type":"tuple","internalType":"struct AuctionDefaultParameters","components":[{"name":"duration","type":"uint40","internalType":"uint40"},{"name":"startPrice","type":"uint256","internalType":"uint256"},{"name":"endPrice","type":"uint256","internalType":"uint256"},{"name":"kickerRewardPercentage","type":"uint256","internalType":"Percentage"},{"name":"decayType","type":"uint8","internalType":"enum DecayFunctions.DecayType"}]}],"outputs":[],"stateMutability":"nonpayable"},{"type":"event","name":"ArkHarvested","inputs":[{"name":"ark","type":"address","indexed":true,"internalType":"address"},{"name":"rewardToken","type":"address","indexed":true,"internalType":"address"}],"anonymous":false},{"type":"event","name":"ArkRewardTokenAuctionStarted","inputs":[{"name":"auctionId","type":"uint256","indexed":false,"internalType":"uint256"},{"name":"ark","type":"address","indexed":false,"internalType":"address"},{"name":"rewardToken","type":"address","indexed":false,"internalType":"address"},{"name":"amount","type":"uint256","indexed":false,"internalType":"uint256"}],"anonymous":false},{"type":"event","name":"AuctionDefaultParametersUpdated","inputs":[{"name":"newConfig","type":"tuple","indexed":false,"internalType":"struct AuctionDefaultParameters","components":[{"name":"duration","type":"uint40","internalType":"uint40"},{"name":"startPrice","type":"uint256","internalType":"uint256"},{"name":"endPrice","type":"uint256","internalType":"uint256"},{"name":"kickerRewardPercentage","type":"uint256","internalType":"Percentage"},{"name":"decayType","type":"uint8","internalType":"enum DecayFunctions.DecayType"}]}],"anonymous":false},{"type":"event","name":"AuctionFinalized","inputs":[{"name":"auctionId","type":"uint256","indexed":true,"internalType":"uint256"},{"name":"soldTokens","type":"uint256","indexed":false,"internalType":"uint256"},{"name":"unsoldTokens","type":"uint256","indexed":false,"internalType":"uint256"}],"anonymous":false},{"type":"event","name":"RewardBoarded","inputs":[{"name":"ark","type":"address","indexed":true,"internalType":"address"},{"name":"fromRewardToken","type":"address","indexed":true,"internalType":"address"},{"name":"toFleetToken","type":"address","indexed":true,"internalType":"address"},{"name":"amountReboarded","type":"uint256","indexed":false,"internalType":"uint256"}],"anonymous":false},{"type":"event","name":"RoleAdminChanged","inputs":[{"name":"role","type":"bytes32","indexed":true,"internalType":"bytes32"},{"name":"previousAdminRole","type":"bytes32","indexed":true,"internalType":"bytes32"},{"name":"newAdminRole","type":"bytes32","indexed":true,"internalType":"bytes32"}],"anonymous":false},{"type":"event","name":"RoleGranted","inputs":[{"name":"role","type":"bytes32","indexed":true,"internalType":"bytes32"},{"name":"account","type":"address","indexed":true,"internalType":"address"},{"name":"sender","type":"address","indexed":true,"internalType":"address"}],"anonymous":false},{"type":"event","name":"RoleRevoked","inputs":[{"name":"role","type":"bytes32","indexed":true,"internalType":"bytes32"},{"name":"account","type":"address","indexed":true,"internalType":"address"},{"name":"sender","type":"address","indexed":true,"internalType":"address"}],"anonymous":false},{"type":"event","name":"TokensPurchased","inputs":[{"name":"auctionId","type":"uint256","indexed":true,"internalType":"uint256"},{"name":"buyer","type":"address","indexed":true,"internalType":"address"},{"name":"amount","type":"uint256","indexed":false,"internalType":"uint256"},{"name":"price","type":"uint256","indexed":false,"internalType":"uint256"}],"anonymous":false},{"type":"error","name":"AccessControlBadConfirmation","inputs":[]},{"type":"error","name":"AccessControlUnauthorizedAccount","inputs":[{"name":"account","type":"address","internalType":"address"},{"name":"neededRole","type":"bytes32","internalType":"bytes32"}]},{"type":"error","name":"AddressEmptyCode","inputs":[{"name":"target","type":"address","internalType":"address"}]},{"type":"error","name":"AddressInsufficientBalance","inputs":[{"name":"account","type":"address","internalType":"address"}]},{"type":"error","name":"AuctionAlreadyFinalized","inputs":[{"name":"auctionId","type":"uint256","internalType":"uint256"}]},{"type":"error","name":"AuctionNotActive","inputs":[{"name":"auctionId","type":"uint256","internalType":"uint256"}]},{"type":"error","name":"AuctionNotEnded","inputs":[{"name":"auctionId","type":"uint256","internalType":"uint256"}]},{"type":"error","name":"AuctionNotFound","inputs":[]},{"type":"error","name":"CallerIsNotGovernor","inputs":[{"name":"caller","type":"address","internalType":"address"}]},{"type":"error","name":"DirectGrantIsDisabled","inputs":[{"name":"caller","type":"address","internalType":"address"}]},{"type":"error","name":"DirectRevokeIsDisabled","inputs":[{"name":"caller","type":"address","internalType":"address"}]},{"type":"error","name":"FailedInnerCall","inputs":[]},{"type":"error","name":"InsufficientTokensAvailable","inputs":[]},{"type":"error","name":"InvalidAccessManagerAddress","inputs":[{"name":"invalidAddress","type":"address","internalType":"address"}]},{"type":"error","name":"PRBMath_MulDiv18_Overflow","inputs":[{"name":"x","type":"uint256","internalType":"uint256"},{"name":"y","type":"uint256","internalType":"uint256"}]},{"type":"error","name":"PRBMath_MulDiv_Overflow","inputs":[{"name":"x","type":"uint256","internalType":"uint256"},{"name":"y","type":"uint256","internalType":"uint256"},{"name":"denominator","type":"uint256","internalType":"uint256"}]},{"type":"error","name":"PRBMath_UD60x18_Convert_Overflow","inputs":[{"name":"x","type":"uint256","internalType":"uint256"}]},{"type":"error","name":"RaftAuctionAlreadyRunning","inputs":[{"name":"ark","type":"address","internalType":"address"},{"name":"rewardToken","type":"address","internalType":"address"}]},{"type":"error","name":"SafeERC20FailedOperation","inputs":[{"name":"token","type":"address","internalType":"address"}]}],"bytecode":{"object":"0x608060405234801561000f575f80fd5b506040516133cb3803806133cb83398101604081905261002e916101a5565b8082806001600160a01b03811661005f576040516347bd7c1d60e01b81525f60048201526024015b60405180910390fd5b6040516301ffc9a760e01b815263f87138b560e01b60048201526001600160a01b038216906301ffc9a790602401602060405180830381865afa1580156100a8573d5f803e3d5ffd5b505050506040513d601f19601f820116820180604052508101906100cc919061025d565b6100f4576040516347bd7c1d60e01b81526001600160a01b0382166004820152602401610056565b5f80546001600160a01b0319166001600160a01b03929092169190911790555080516002805464ffffffffff191664ffffffffff909216919091178155602082015160035560408201516004556060820151600555608082015160068054849392919060ff19166001838181111561016e5761016e610283565b0217905550905050505050610297565b805164ffffffffff81168114610192575f80fd5b919050565b805160028110610192575f80fd5b5f8082840360c08112156101b7575f80fd5b83516001600160a01b03811681146101cd575f80fd5b925060a0601f19820112156101e0575f80fd5b5060405160a081016001600160401b038111828210171561020f57634e487b7160e01b5f52604160045260245ffd5b60405261021e6020850161017e565b815260408481015160208301526060808601519183019190915260808501519082015261024d60a08501610197565b6080820152809150509250929050565b5f6020828403121561026d575f80fd5b8151801515811461027c575f80fd5b9392505050565b634e487b7160e01b5f52602160045260245ffd5b613127806102a45f395ff3fe608060405234801561000f575f80fd5b5060043610610153575f3560e01c8063a11a9121116100bf578063b704479b11610079578063b704479b14610344578063c2f8b5261461036e578063d547741f146103a3578063db16a555146103b6578063dcefa538146103c9578063fc528482146103dc575f80fd5b8063a11a912114610295578063a217fddf146102a8578063a30215e1146102af578063a782a857146102d9578063afd44dfe146102ec578063b3924cd014610324575f80fd5b80633beef0ce116101105780633beef0ce1461020c57806381d3ce261461023657806391d14854146102495780639403e41f1461025c578063953790b11461026f5780639b05e3c314610282575f80fd5b806301ffc9a714610157578063182429411461017f578063248a9ca3146101a05780632f2ff15d146101d15780633650a71c146101e657806336568abe146101f9575b5f80fd5b61016a610165366004612683565b6103e5565b60405190151581526020015b60405180910390f35b61019261018d3660046126be565b61041b565b604051610176929190612847565b6101c36101ae366004612870565b5f908152600160208190526040909120015490565b604051908152602001610176565b6101e46101df366004612887565b610552565b005b6101e46101f43660046128ef565b610572565b6101e4610207366004612887565b610686565b6101c361021a3660046126be565b600a60209081525f928352604080842090915290825290205481565b6101e4610244366004612966565b6106be565b61016a610257366004612887565b61082a565b6101e461026a366004612966565b610854565b6101e461027d366004612981565b6109bc565b6101e46102903660046126be565b610abd565b6101e46102a33660046129c9565b610c1c565b6101c35f81565b6101c36102bd3660046126be565b600b60209081525f928352604080842090915290825290205481565b6101e46102e73660046129e2565b610d1e565b6101c36102fa3660046126be565b6001600160a01b039182165f90815260086020908152604080832093909416825291909152205490565b6103376103323660046126be565b610d30565b6040516101769190612a43565b6101c36103523660046126be565b600860209081525f928352604080842090915290825290205481565b6002546003546004546005546006546103929464ffffffffff169392919060ff1685565b604051610176959493929190612a75565b6101e46103b1366004612887565b610e81565b6101c36103c43660046126be565b610e9c565b6101c36103d7366004612aa5565b610ed2565b6101c360075481565b5f6001600160e01b03198216637965db0b60e01b148061041557506301ffc9a760e01b6001600160e01b03198316145b92915050565b600960209081525f928352604080842082529183529181902081516101c08101835281546001600160a01b0390811682526001808401548083169684019690965264ffffffffff600160a01b808804821696850196909652600160c81b8088048216606086015260ff600160f01b890481166080870152600160f81b909804881660a08601526002860154841660c0860152600386015493841660e0860152958304166101008401529294919385936101208601939190920416908111156104e5576104e56126f5565b60018111156104f6576104f66126f5565b8152600482015460208083019190915260058301546040808401919091526006840154606084015260079093015460809092019190915281518083019092526008840154825260099093015460ff161515928101929092529082565b604051630e15200f60e21b81523360048201526024015b60405180910390fd5b5f5460408051630ccc574960e41b815290516001600160a01b03909216916391d1485491839163ccc57490916004808201926020929091908290030181865afa1580156105c1573d5f803e3d5ffd5b505050506040513d601f19601f820116820180604052508101906105e59190612ae3565b6040516001600160e01b031960e084901b1681526004810191909152336024820152604401602060405180830381865afa158015610625573d5f803e3d5ffd5b505050506040513d601f19601f820116820180604052508101906106499190612b0e565b61066857604051630ea7d7ed60e21b8152336004820152602401610569565b61067485858484611017565b61067f858585611108565b5050505050565b6001600160a01b03811633146106af5760405163334bd91960e11b815260040160405180910390fd5b6106b982826114a1565b505050565b5f5460408051630ccc574960e41b815290516001600160a01b03909216916391d1485491839163ccc57490916004808201926020929091908290030181865afa15801561070d573d5f803e3d5ffd5b505050506040513d601f19601f820116820180604052508101906107319190612ae3565b6040516001600160e01b031960e084901b1681526004810191909152336024820152604401602060405180830381865afa158015610771573d5f803e3d5ffd5b505050506040513d601f19601f820116820180604052508101906107959190612b0e565b6107b457604051630ea7d7ed60e21b8152336004820152602401610569565b5f54604080516345b817bb60e01b81529051610826926001600160a01b0316916345b817bb9160048083019260209291908290030181865afa1580156107fc573d5f803e3d5ffd5b505050506040513d601f19601f820116820180604052508101906108209190612ae3565b826114a1565b5050565b5f9182526001602090815260408084206001600160a01b0393909316845291905290205460ff1690565b5f5460408051630ccc574960e41b815290516001600160a01b03909216916391d1485491839163ccc57490916004808201926020929091908290030181865afa1580156108a3573d5f803e3d5ffd5b505050506040513d601f19601f820116820180604052508101906108c79190612ae3565b6040516001600160e01b031960e084901b1681526004810191909152336024820152604401602060405180830381865afa158015610907573d5f803e3d5ffd5b505050506040513d601f19601f8201168201806040525081019061092b9190612b0e565b61094a57604051630ea7d7ed60e21b8152336004820152602401610569565b5f54604080516345b817bb60e01b81529051610826926001600160a01b0316916345b817bb9160048083019260209291908290030181865afa158015610992573d5f803e3d5ffd5b505050506040513d601f19601f820116820180604052508101906109b69190612ae3565b82611513565b5f5460408051630ccc574960e41b815290516001600160a01b03909216916391d1485491839163ccc57490916004808201926020929091908290030181865afa158015610a0b573d5f803e3d5ffd5b505050506040513d601f19601f82011682018060405250810190610a2f9190612ae3565b6040516001600160e01b031960e084901b1681526004810191909152336024820152604401602060405180830381865afa158015610a6f573d5f803e3d5ffd5b505050506040513d601f19601f82011682018060405250810190610a939190612b0e565b610ab257604051630ea7d7ed60e21b8152336004820152602401610569565b6106b9838383611108565b6001600160a01b038083165f908152600960209081526040808320938516835292905220610aea81611582565b604080516102008101825282546001600160a01b03908116928201928352600180850154808316606085015264ffffffffff600160a01b80830482166080870152600160c81b808404831660a088015260ff600160f01b8504811660c0890152600160f81b909404841660e08801526002890154861661010088015260038901549586166101208801529085049091166101408601526106b99589958995909489948694869361016087019391900490911690811115610bac57610bac6126f5565b6001811115610bbd57610bbd6126f5565b8152600482015460208083019190915260058301546040808401919091526006840154606084015260079093015460809092019190915291835280518082019091526008840154815260099093015460ff161515838201520152611636565b5f5460408051630ccc574960e41b815290516001600160a01b03909216916391d1485491839163ccc57490916004808201926020929091908290030181865afa158015610c6b573d5f803e3d5ffd5b505050506040513d601f19601f82011682018060405250810190610c8f9190612ae3565b6040516001600160e01b031960e084901b1681526004810191909152336024820152604401602060405180830381865afa158015610ccf573d5f803e3d5ffd5b505050506040513d601f19601f82011682018060405250810190610cf39190612b0e565b610d1257604051630ea7d7ed60e21b8152336004820152602401610569565b610d1b816117f4565b50565b610d2a84848484611017565b50505050565b610d386125e2565b6001600160a01b038084165f90815260096020908152604080832086851684529091529081902081516102008101835281548416928101928352600180830154808616606084015264ffffffffff600160a01b80830482166080860152600160c81b808404831660a087015260ff600160f01b8504811660c0880152600160f81b909404841660e087015260028701548916610100870152600387015498891661012087015290880490911661014085015292959394869490938693610160870193919092041690811115610e0f57610e0f6126f5565b6001811115610e2057610e206126f5565b8152600482015460208083019190915260058301546040808401919091526006840154606084015260079093015460809092019190915291835280518082019091526008840154815260099093015460ff1615158382015201529392505050565b604051636344978560e11b8152336004820152602401610569565b6001600160a01b038083165f9081526009602090815260408083209385168352929052908120610ecb9061183e565b9392505050565b6001600160a01b038084165f9081526009602090815260408083209386168352929052908120610f0281846119d8565b6001600160a01b038087165f908152600b60209081526040808320938916835292905290812080549294508492909190610f3d908490612b3b565b909155505060088101545f0361100f57604080516102008101825282546001600160a01b03908116928201928352600180850154808316606085015264ffffffffff600160a01b80830482166080870152600160c81b808404831660a088015260ff600160f01b8504811660c0890152600160f81b909404841660e088015260028901548616610100880152600389015495861661012088015290850490911661014086015261100f958b958b95909489948694869361016087019391900490911690811115610bac57610bac6126f5565b509392505050565b604051630e7337fd60e31b81525f906001600160a01b03861690637399bfe89061104990879087908790600401612b4e565b6020604051808303815f875af1158015611065573d5f803e3d5ffd5b505050506040513d601f19601f820116820180604052508101906110899190612ae3565b6001600160a01b038087165f9081526008602090815260408083209389168352929052908120805492935083929091906110c4908490612b3b565b90915550506040516001600160a01b0380861691908716907f02125ba22aab71969d167ca8d45025c14cc2d88ed72b77766576b138037275fe905f90a35050505050565b6001600160a01b038084165f908152600960209081526040808320868516845290915290208054909116158015906111455750600981015460ff16155b156111765760405163ef83e9dd60e01b81526001600160a01b03808616600483015284166024820152604401610569565b6001600160a01b038085165f818152600a602090815260408083209488168084529482528083205493835260088252808320948352939052918220546111bc9190612b3b565b90505f6111cb85858430611cb9565b90508060095f886001600160a01b03166001600160a01b031681526020019081526020015f205f876001600160a01b03166001600160a01b031681526020019081526020015f205f820151815f015f820151815f015f6101000a8154816001600160a01b0302191690836001600160a01b031602179055506020820151816001015f6101000a8154816001600160a01b0302191690836001600160a01b0316021790555060408201518160010160146101000a81548164ffffffffff021916908364ffffffffff16021790555060608201518160010160196101000a81548164ffffffffff021916908364ffffffffff160217905550608082015181600101601e6101000a81548160ff021916908360ff16021790555060a082015181600101601f6101000a81548160ff021916908360ff16021790555060c0820151816002015f6101000a8154816001600160a01b0302191690836001600160a01b0316021790555060e0820151816003015f6101000a8154816001600160a01b0302191690836001600160a01b031602179055506101008201518160030160146101000a81548164ffffffffff021916908364ffffffffff1602179055506101208201518160030160196101000a81548160ff021916908360018111156113b0576113b06126f5565b02179055506101408201516004820155610160820151600582015561018082015160068201556101a0909101516007909101556020918201518051600883810191909155908301516009909201805460ff1916921515929092179091556001600160a01b038881165f8181529284526040808420928a16808552928552808420849055818452600a855280842083855285528084209390935584516101000151835164ffffffffff90911681529384015290820152606081018390527f5b66543d3d25b638d45065504e7ba2610119c2ce1a07781059cd1dfd67f483c69060800160405180910390a1505050505050565b5f6114ac838361082a565b1561150c575f8381526001602090815260408083206001600160a01b0386168085529252808320805460ff1916905551339286917ff6391f5c32d9c69d2a47ea670b442974b53935d1edc7fd64eb21e047a839171b9190a4506001610415565b505f610415565b5f61151e838361082a565b61150c575f8381526001602081815260408084206001600160a01b0387168086529252808420805460ff19169093179092559051339286917f2f8788117e7eff1d82e926ec794901d17c78024a50270940304540a733656f0d9190a4506001610415565b80546001600160a01b03166115aa576040516307145c5f60e11b815260040160405180910390fd5b600981015460ff16156115e557600381015460405163d9e3dd8360e01b8152600160a01b90910464ffffffffff166004820152602401610569565b6001810154600160c81b900464ffffffffff1642101561162d57600381015460405163e30e8d4760e01b8152600160a01b90910464ffffffffff166004820152602401610569565b610d1b81611ddc565b602080820151516001600160a01b038086165f908152600a845260408082209287168252919093528220805491929091611671908490612b3b565b909155505080516020908101516001600160a01b038086165f908152600b8452604080822092871682529190935290912054801561067f5760405163095ea7b360e01b81526001600160a01b0386811660048301526024820183905283169063095ea7b3906044016020604051808303815f875af11580156116f5573d5f803e3d5ffd5b505050506040513d601f19601f820116820180604052508101906117199190612b0e565b506040516328ed6e3f60e01b8152600481018290526001600160a01b038616906328ed6e3f906024015f604051808303815f87803b158015611759575f80fd5b505af115801561176b573d5f803e3d5ffd5b50505050816001600160a01b0316846001600160a01b0316866001600160a01b03167f902a3a8d6e4938f8d990a89084a4ac52bd8d18e234aba1615f333643282fca98846040516117be91815260200190565b60405180910390a46001600160a01b038086165f908152600b602090815260408083209388168352929052908120555050505050565b8060026118018282612bab565b9050507fe9d5a90069e830741fa6df4fbb146dc3c0918e85d57eb372c70e743198179c79816040516118339190612c2e565b60405180910390a150565b604080516102008101825282546001600160a01b03908116928201928352600180850154808316606085015264ffffffffff600160a01b80830482166080870152600160c81b808404831660a088015260ff600160f01b8504811660c0890152600160f81b909404841660e08801526002890154861661010088015260038901549586166101208801529085049091166101408601525f958794869491938693610160870193920416908111156118f7576118f76126f5565b6001811115611908576119086126f5565b8152600482810154602080840191909152600584015460408085019190915260068501546060850152600790940154608090930192909252928452815180830183526008860154815260099095015460ff161515858201529290920192909252516370d8532160e11b815273__$87c00a11f154e19488f2e9ac8cdbd9f046$__9263e1b0a642926119999201612a43565b602060405180830381865af41580156119b4573d5f803e3d5ffd5b505050506040513d601f19601f820116820180604052508101906104159190612ae3565b81545f906001600160a01b0316611a02576040516307145c5f60e11b815260040160405180910390fd5b600983015460ff1615611a3d57600383015460405163d9e3dd8360e01b8152600160a01b90910464ffffffffff166004820152602401610569565b6001830154600160c81b900464ffffffffff164210611a8457600383015460405163aff5aad960e01b8152600160a01b90910464ffffffffff166004820152602401610569565b6008830154821115611aa957604051632783839d60e01b815260040160405180910390fd5b604080516102008101825284546001600160a01b03908116928201928352600180870154808316606085015264ffffffffff600160a01b80830482166080870152600160c81b808404831660a088015260ff600160f01b8504811660c0890152600160f81b909404841660e088015260028b0154861661010088015260038b01549586166101208801529085049091166101408601525f95611bd995948a94869492938693610160870193919091041690811115611b6957611b696126f5565b6001811115611b7a57611b7a6126f5565b8152600482015460208083019190915260058301546040808401919091526006840154606084015260079093015460809092019190915291835280518082019091526008840154815260099093015460ff161515838201520152611e89565b6001850154909150611c03908290859060ff600160f81b8204811691600160f01b90041681611f00565b915082846008015f015f828254611c1a9190612c7f565b90915550506001840154611c39906001600160a01b0316333085611f3f565b8354611c4f906001600160a01b03163385611fa6565b600384015460408051858152602081018490523392600160a01b900464ffffffffff16917fe8d7e55108ae7ddb60173461d2950c7a8e22a7ac7f442825564fe84c8c6f9a38910160405180910390a360088401545f03611cb257611cb284611ddc565b5092915050565b611cc16125e2565b5f60405180610160016040528060075f8154611cdc90612c92565b918290555081526001600160a01b038089166020830152878116604083015260025464ffffffffff166060830152600354608083015260045460a083015260c0820187905260055460e08301523361010083015285166101208201526006546101409091019060ff166001811115611d5657611d566126f5565b9052604051631bd590b960e11b815290915073__$87c00a11f154e19488f2e9ac8cdbd9f046$__906337ab217290611d92908490600401612caa565b61020060405180830381865af4158015611dae573d5f803e3d5ffd5b505050506040513d601f19601f82011682018060405250810190611dd29190612e44565b9695505050505050565b600881015460068201545f91611df191612c7f565b60098301805460ff19166001179055600883015490915015611e3157600382015460088301548354611e31926001600160a01b0391821692911690611fa6565b60038201546008830154604080518481526020810192909252600160a01b90920464ffffffffff16917fd11fb103f8d5c913b9e132f165c0cfa304fc230f10796a7a5d63bc3d8de4d3c3910160405180910390a25050565b8051604001515f908190611ea49064ffffffffff1642612c7f565b835160408101516060909101519192505f91611ec09190612f6a565b845161012081015161014082015161016083015160a09093015164ffffffffff949094169450611ef893919290918690869080611fd7565b949350505050565b5f80611f0c878661202c565b90505f611f19878661202c565b90505f611f268383612092565b9050611f3281866120a3565b9998505050505050505050565b6040516001600160a01b038481166024830152838116604483015260648201839052610d2a9186918216906323b872dd906084015b604051602081830303815290604052915060e01b6020820180516001600160e01b038381831617835250505050612102565b6040516001600160a01b038381166024830152604482018390526106b991859182169063a9059cbb90606401611f74565b5f838510611fe6575084612021565b5f886001811115611ff957611ff96126f5565b036120135761200c878787878787612163565b9050612021565b61200c8787878787876121e6565b979650505050505050565b5f8160ff1660120361203f575081610415565b60128260ff16111561207257612056601283612f87565b61206190600a613083565b61206b90846130a5565b9050610415565b61207d826012612f87565b61208890600a613083565b610ecb90846130c4565b5f610ecb6120a0848461228b565b90565b5f8160ff166012036120b6575081610415565b60128260ff1611156120e2576120cd601283612f87565b6120d890600a613083565b61206b90846130c4565b6120ed826012612f87565b6120f890600a613083565b610ecb90846130a5565b5f6121166001600160a01b0384168361233d565b905080515f1415801561213a5750808060200190518101906121389190612b0e565b155b156106b957604051635274afe760e01b81526001600160a01b0384166004820152602401610569565b5f8061216f888561202c565b90505f61217c888661202c565b90505f61218c6120a08385612c7f565b90505f6121988961234a565b90505f6121a48961234a565b90505f6121bb826121b58686612092565b9061238f565b90505f6121c88288612c7f565b90506121d4818a6120a3565b9e9d5050505050505050505050505050565b5f806121f2888561202c565b90505f6121ff888661202c565b90505f61220f6120a08385612c7f565b90505f61222461221f8a8a612c7f565b61234a565b90505f6122308961234a565b90505f61223e8360026123a6565b90505f61224c8360026123a6565b90505f61225d826121b58886612092565b90505f61226a8289612b3b565b9050612276818c6120a3565b99505050505050505050509695505050505050565b5f80805f19848609848602925082811083820303915050805f036122bc5750670de0b6b3a764000090049050610415565b670de0b6b3a764000081106122ee57604051635173648d60e01b81526004810186905260248101859052604401610569565b5f670de0b6b3a764000085870962040000818503049310909103600160ee1b02919091177faccb18165bd6fe31ae1cf318dc5b51eee0e1ba569b88cd74c1773b91fac106690291505092915050565b6060610ecb83835f6123ff565b5f61235e670de0b6b3a76400005f196130a5565b82111561238157604051631cd951a760e01b815260048101839052602401610569565b50670de0b6b3a76400000290565b5f610ecb6120a084670de0b6b3a76400008561248e565b5f8281600184166123bf57670de0b6b3a76400006123c1565b815b9050600184901c93505b8315611ef8576123db828361228b565b915060018416156123f3576123f0818361228b565b90505b600184901c93506123cb565b6060814710156124245760405163cd78605960e01b8152306004820152602401610569565b5f80856001600160a01b0316848660405161243f91906130db565b5f6040518083038185875af1925050503d805f8114612479576040519150601f19603f3d011682016040523d82523d5f602084013e61247e565b606091505b5091509150611dd286838361255d565b5f80805f19858709858702925082811083820303915050805f036124c5578382816124bb576124bb613091565b0492505050610ecb565b8381106124f657604051630c740aef60e31b8152600481018790526024810186905260448101859052606401610569565b5f8486880960026001871981018816978890046003810283188082028403028082028403028082028403028082028403028082028403029081029092039091025f889003889004909101858311909403939093029303949094049190911702949350505050565b6060826125725761256d826125b9565b610ecb565b815115801561258957506001600160a01b0384163b155b156125b257604051639996b31560e01b81526001600160a01b0385166004820152602401610569565b5080610ecb565b8051156125c95780518082602001fd5b604051630a12f52160e11b815260040160405180910390fd5b604051806040016040528061265c604080516101c0810182525f80825260208201819052918101829052606081018290526080810182905260a0810182905260c0810182905260e0810182905261010081018290529061012082019081526020015f81526020015f81526020015f81526020015f81525090565b815260200161267e60405180604001604052805f81526020015f151581525090565b905290565b5f60208284031215612693575f80fd5b81356001600160e01b031981168114610ecb575f80fd5b6001600160a01b0381168114610d1b575f80fd5b5f80604083850312156126cf575f80fd5b82356126da816126aa565b915060208301356126ea816126aa565b809150509250929050565b634e487b7160e01b5f52602160045260245ffd5b6002811061272557634e487b7160e01b5f52602160045260245ffd5b9052565b80516001600160a01b03168252602081015161275060208401826001600160a01b03169052565b506040810151612769604084018264ffffffffff169052565b506060810151612782606084018264ffffffffff169052565b506080810151612797608084018260ff169052565b5060a08101516127ac60a084018260ff169052565b5060c08101516127c760c08401826001600160a01b03169052565b5060e08101516127e260e08401826001600160a01b03169052565b506101008101516127fd61010084018264ffffffffff169052565b50610120810151612812610120840182612709565b506101408101516101408301526101608101516101608301526101808101516101808301526101a08101516101a08301525050565b61020081016128568285612729565b82516101c0830152602083015115156101e0830152610ecb565b5f60208284031215612880575f80fd5b5035919050565b5f8060408385031215612898575f80fd5b8235915060208301356126ea816126aa565b5f8083601f8401126128ba575f80fd5b50813567ffffffffffffffff8111156128d1575f80fd5b6020830191508360208285010111156128e8575f80fd5b9250929050565b5f805f805f60808688031215612903575f80fd5b853561290e816126aa565b9450602086013561291e816126aa565b9350604086013561292e816126aa565b9250606086013567ffffffffffffffff811115612949575f80fd5b612955888289016128aa565b969995985093965092949392505050565b5f60208284031215612976575f80fd5b8135610ecb816126aa565b5f805f60608486031215612993575f80fd5b833561299e816126aa565b925060208401356129ae816126aa565b915060408401356129be816126aa565b809150509250925092565b5f60a08284031280156129da575f80fd5b509092915050565b5f805f80606085870312156129f5575f80fd5b8435612a00816126aa565b93506020850135612a10816126aa565b9250604085013567ffffffffffffffff811115612a2b575f80fd5b612a37878288016128aa565b95989497509550505050565b5f61020082019050612a56828451612729565b60208381015180516101c08501529081015115156101e0840152611cb2565b5f60a08201905064ffffffffff87168252856020830152846040830152836060830152611dd26080830184612709565b5f805f60608486031215612ab7575f80fd5b8335612ac2816126aa565b92506020840135612ad2816126aa565b929592945050506040919091013590565b5f60208284031215612af3575f80fd5b5051919050565b80518015158114612b09575f80fd5b919050565b5f60208284031215612b1e575f80fd5b610ecb82612afa565b634e487b7160e01b5f52601160045260245ffd5b8082018082111561041557610415612b27565b6001600160a01b03841681526040602082018190528101829052818360608301375f818301606090810191909152601f909201601f1916010192915050565b64ffffffffff81168114610d1b575f80fd5b60028110610d1b575f80fd5b8135612bb681612b8d565b815464ffffffffff191664ffffffffff91909116178155602082013560018201556040820135600282015560608201356003820155600481016080830135612bfd81612b9f565b60028110612c1957634e487b7160e01b5f52602160045260245ffd5b60ff1982541660ff8216811783555050505050565b60a081018235612c3d81612b8d565b64ffffffffff1682526020838101359083015260408084013590830152606080840135908301526080830135612c7281612b9f565b611cb26080840182612709565b8181038181111561041557610415612b27565b5f60018201612ca357612ca3612b27565b5060010190565b81518152602080830151610160830191612cce908401826001600160a01b03169052565b506040830151612ce960408401826001600160a01b03169052565b506060830151612d02606084018264ffffffffff169052565b506080830151608083015260a083015160a083015260c083015160c083015260e083015160e0830152610100830151612d476101008401826001600160a01b03169052565b50610120830151612d646101208401826001600160a01b03169052565b50610140830151611cb2610140840182612709565b6040805190810167ffffffffffffffff81118282101715612da857634e487b7160e01b5f52604160045260245ffd5b60405290565b6040516101c0810167ffffffffffffffff81118282101715612da857634e487b7160e01b5f52604160045260245ffd5b8051612b09816126aa565b8051612b0981612b8d565b805160ff81168114612b09575f80fd5b8051612b0981612b9f565b5f60408284031215612e1f575f80fd5b612e27612d79565b825181529050612e3960208301612afa565b602082015292915050565b5f81830361020081128015612e57575f80fd5b50612e60612d79565b6101c0821215612e6e575f80fd5b612e76612dae565b9150612e8184612dde565b8252612e8f60208501612dde565b6020830152612ea060408501612de9565b6040830152612eb160608501612de9565b6060830152612ec260808501612df4565b6080830152612ed360a08501612df4565b60a0830152612ee460c08501612dde565b60c0830152612ef560e08501612dde565b60e0830152612f076101008501612de9565b610100830152612f1a6101208501612e04565b6101208301526101408481015190830152610160808501519083015261018080850151908301526101a08085015190830152818152612f5d856101c08601612e0f565b6020820152949350505050565b64ffffffffff828116828216039081111561041557610415612b27565b60ff828116828216039081111561041557610415612b27565b6001815b6001841115612fdb57808504811115612fbf57612fbf612b27565b6001841615612fcd57908102905b60019390931c928002612fa4565b935093915050565b5f82612ff157506001610415565b81612ffd57505f610415565b8160018114613013576002811461301d57613039565b6001915050610415565b60ff84111561302e5761302e612b27565b50506001821b610415565b5060208310610133831016604e8410600b841016171561305c575081810a610415565b6130685f198484612fa0565b805f190482111561307b5761307b612b27565b029392505050565b5f610ecb60ff841683612fe3565b634e487b7160e01b5f52601260045260245ffd5b5f826130bf57634e487b7160e01b5f52601260045260245ffd5b500490565b808202811582820484141761041557610415612b27565b5f82518060208501845e5f92019182525091905056fea26469706673582212205dbd19f82663ca5d7ded297a4587fb3c4c0f4358852658c06163ae7f130eea6064736f6c634300081a0033","linkReferences":{"node_modules/@summerfi/dutch-auction/src/DutchAuctionLibrary.sol":{"DutchAuctionLibrary":[{"start":7193,"length":20},{"start":8206,"length":20}]}}},"methodIdentifiers":{"DEFAULT_ADMIN_ROLE()":"a217fddf","auctionDefaultParameters()":"c2f8b526","auctions(address,address)":"18242941","buyTokens(address,address,uint256)":"dcefa538","finalizeAuction(address,address)":"9b05e3c3","getAuctionInfo(address,address)":"b3924cd0","getCurrentPrice(address,address)":"db16a555","getHarvestedRewards(address,address)":"afd44dfe","getRoleAdmin(bytes32)":"248a9ca3","grantCommanderRole(address)":"9403e41f","grantRole(bytes32,address)":"2f2ff15d","harvest(address,address,bytes)":"a782a857","harvestAndStartAuction(address,address,address,bytes)":"3650a71c","harvestedRewards(address,address)":"b704479b","hasRole(bytes32,address)":"91d14854","nextAuctionId()":"fc528482","paymentTokensToBoard(address,address)":"a30215e1","renounceRole(bytes32,address)":"36568abe","revokeCommanderRole(address)":"81d3ce26","revokeRole(bytes32,address)":"d547741f","startAuction(address,address,address)":"953790b1","supportsInterface(bytes4)":"01ffc9a7","unsoldTokens(address,address)":"3beef0ce","updateAuctionDefaultParameters((uint40,uint256,uint256,uint256,uint8))":"a11a9121"},"id":140}