{"abi":[{"type":"constructor","inputs":[{"name":"_accessManager","type":"address","internalType":"address"},{"name":"defaultParameters","type":"tuple","internalType":"struct AuctionDefaultParameters","components":[{"name":"duration","type":"uint40","internalType":"uint40"},{"name":"startPrice","type":"uint256","internalType":"uint256"},{"name":"endPrice","type":"uint256","internalType":"uint256"},{"name":"kickerRewardPercentage","type":"uint256","internalType":"Percentage"},{"name":"decayType","type":"uint8","internalType":"enum DecayFunctions.DecayType"}]}],"stateMutability":"nonpayable"},{"type":"function","name":"auctionDefaultParameters","inputs":[],"outputs":[{"name":"duration","type":"uint40","internalType":"uint40"},{"name":"startPrice","type":"uint256","internalType":"uint256"},{"name":"endPrice","type":"uint256","internalType":"uint256"},{"name":"kickerRewardPercentage","type":"uint256","internalType":"Percentage"},{"name":"decayType","type":"uint8","internalType":"enum DecayFunctions.DecayType"}],"stateMutability":"view"},{"type":"function","name":"auctions","inputs":[{"name":"ark","type":"address","internalType":"address"},{"name":"rewardToken","type":"address","internalType":"address"}],"outputs":[{"name":"config","type":"tuple","internalType":"struct DutchAuctionLibrary.AuctionConfig","components":[{"name":"auctionToken","type":"address","internalType":"contract IERC20"},{"name":"paymentToken","type":"address","internalType":"contract IERC20"},{"name":"startTime","type":"uint40","internalType":"uint40"},{"name":"endTime","type":"uint40","internalType":"uint40"},{"name":"auctionTokenDecimals","type":"uint8","internalType":"uint8"},{"name":"paymentTokenDecimals","type":"uint8","internalType":"uint8"},{"name":"auctionKicker","type":"address","internalType":"address"},{"name":"unsoldTokensRecipient","type":"address","internalType":"address"},{"name":"id","type":"uint40","internalType":"uint40"},{"name":"decayType","type":"uint8","internalType":"enum DecayFunctions.DecayType"},{"name":"startPrice","type":"uint256","internalType":"uint256"},{"name":"endPrice","type":"uint256","internalType":"uint256"},{"name":"totalTokens","type":"uint256","internalType":"uint256"},{"name":"kickerRewardAmount","type":"uint256","internalType":"uint256"}]},{"name":"state","type":"tuple","internalType":"struct DutchAuctionLibrary.AuctionState","components":[{"name":"remainingTokens","type":"uint256","internalType":"uint256"},{"name":"isFinalized","type":"bool","internalType":"bool"}]}],"stateMutability":"view"},{"type":"function","name":"board","inputs":[{"name":"ark","type":"address","internalType":"address"},{"name":"rewardToken","type":"address","internalType":"address"},{"name":"data","type":"bytes","internalType":"bytes"}],"outputs":[],"stateMutability":"nonpayable"},{"type":"function","name":"buyTokens","inputs":[{"name":"ark","type":"address","internalType":"address"},{"name":"rewardToken","type":"address","internalType":"address"},{"name":"amount","type":"uint256","internalType":"uint256"}],"outputs":[{"name":"paymentAmount","type":"uint256","internalType":"uint256"}],"stateMutability":"nonpayable"},{"type":"function","name":"finalizeAuction","inputs":[{"name":"ark","type":"address","internalType":"address"},{"name":"rewardToken","type":"address","internalType":"address"}],"outputs":[],"stateMutability":"nonpayable"},{"type":"function","name":"generateRole","inputs":[{"name":"roleName","type":"uint8","internalType":"enum ContractSpecificRoles"},{"name":"roleTargetContract","type":"address","internalType":"address"}],"outputs":[{"name":"","type":"bytes32","internalType":"bytes32"}],"stateMutability":"pure"},{"type":"function","name":"getAuctionInfo","inputs":[{"name":"ark","type":"address","internalType":"address"},{"name":"rewardToken","type":"address","internalType":"address"}],"outputs":[{"name":"","type":"tuple","internalType":"struct DutchAuctionLibrary.Auction","components":[{"name":"config","type":"tuple","internalType":"struct DutchAuctionLibrary.AuctionConfig","components":[{"name":"auctionToken","type":"address","internalType":"contract IERC20"},{"name":"paymentToken","type":"address","internalType":"contract IERC20"},{"name":"startTime","type":"uint40","internalType":"uint40"},{"name":"endTime","type":"uint40","internalType":"uint40"},{"name":"auctionTokenDecimals","type":"uint8","internalType":"uint8"},{"name":"paymentTokenDecimals","type":"uint8","internalType":"uint8"},{"name":"auctionKicker","type":"address","internalType":"address"},{"name":"unsoldTokensRecipient","type":"address","internalType":"address"},{"name":"id","type":"uint40","internalType":"uint40"},{"name":"decayType","type":"uint8","internalType":"enum DecayFunctions.DecayType"},{"name":"startPrice","type":"uint256","internalType":"uint256"},{"name":"endPrice","type":"uint256","internalType":"uint256"},{"name":"totalTokens","type":"uint256","internalType":"uint256"},{"name":"kickerRewardAmount","type":"uint256","internalType":"uint256"}]},{"name":"state","type":"tuple","internalType":"struct DutchAuctionLibrary.AuctionState","components":[{"name":"remainingTokens","type":"uint256","internalType":"uint256"},{"name":"isFinalized","type":"bool","internalType":"bool"}]}]}],"stateMutability":"view"},{"type":"function","name":"getCurrentPrice","inputs":[{"name":"ark","type":"address","internalType":"address"},{"name":"rewardToken","type":"address","internalType":"address"}],"outputs":[{"name":"","type":"uint256","internalType":"uint256"}],"stateMutability":"view"},{"type":"function","name":"getObtainedTokens","inputs":[{"name":"ark","type":"address","internalType":"address"},{"name":"rewardToken","type":"address","internalType":"address"}],"outputs":[{"name":"","type":"uint256","internalType":"uint256"}],"stateMutability":"view"},{"type":"function","name":"harvest","inputs":[{"name":"ark","type":"address","internalType":"address"},{"name":"rewardData","type":"bytes","internalType":"bytes"}],"outputs":[],"stateMutability":"nonpayable"},{"type":"function","name":"harvestAndStartAuction","inputs":[{"name":"ark","type":"address","internalType":"address"},{"name":"paymentToken","type":"address","internalType":"address"},{"name":"rewardData","type":"bytes","internalType":"bytes"}],"outputs":[],"stateMutability":"nonpayable"},{"type":"function","name":"hasAdmiralsQuartersRole","inputs":[{"name":"account","type":"address","internalType":"address"}],"outputs":[{"name":"","type":"bool","internalType":"bool"}],"stateMutability":"view"},{"type":"function","name":"nextAuctionId","inputs":[],"outputs":[{"name":"","type":"uint256","internalType":"uint256"}],"stateMutability":"view"},{"type":"function","name":"obtainedTokens","inputs":[{"name":"ark","type":"address","internalType":"address"},{"name":"rewardToken","type":"address","internalType":"address"}],"outputs":[{"name":"harvestedAmount","type":"uint256","internalType":"uint256"}],"stateMutability":"view"},{"type":"function","name":"paymentTokensToBoard","inputs":[{"name":"ark","type":"address","internalType":"address"},{"name":"rewardToken","type":"address","internalType":"address"}],"outputs":[{"name":"paymentTokensToBoard","type":"uint256","internalType":"uint256"}],"stateMutability":"view"},{"type":"function","name":"startAuction","inputs":[{"name":"ark","type":"address","internalType":"address"},{"name":"rewardToken","type":"address","internalType":"address"},{"name":"paymentToken","type":"address","internalType":"address"}],"outputs":[],"stateMutability":"nonpayable"},{"type":"function","name":"sweep","inputs":[{"name":"ark","type":"address","internalType":"address"},{"name":"tokens","type":"address[]","internalType":"address[]"}],"outputs":[{"name":"sweptTokens","type":"address[]","internalType":"address[]"},{"name":"sweptAmounts","type":"uint256[]","internalType":"uint256[]"}],"stateMutability":"nonpayable"},{"type":"function","name":"sweepAndStartAuction","inputs":[{"name":"ark","type":"address","internalType":"address"},{"name":"tokens","type":"address[]","internalType":"address[]"},{"name":"paymentToken","type":"address","internalType":"address"}],"outputs":[],"stateMutability":"nonpayable"},{"type":"function","name":"unsoldTokens","inputs":[{"name":"ark","type":"address","internalType":"address"},{"name":"rewardToken","type":"address","internalType":"address"}],"outputs":[{"name":"remainingTokens","type":"uint256","internalType":"uint256"}],"stateMutability":"view"},{"type":"function","name":"updateAuctionDefaultParameters","inputs":[{"name":"newConfig","type":"tuple","internalType":"struct AuctionDefaultParameters","components":[{"name":"duration","type":"uint40","internalType":"uint40"},{"name":"startPrice","type":"uint256","internalType":"uint256"},{"name":"endPrice","type":"uint256","internalType":"uint256"},{"name":"kickerRewardPercentage","type":"uint256","internalType":"Percentage"},{"name":"decayType","type":"uint8","internalType":"enum DecayFunctions.DecayType"}]}],"outputs":[],"stateMutability":"nonpayable"},{"type":"event","name":"ArkHarvested","inputs":[{"name":"ark","type":"address","indexed":true,"internalType":"address"},{"name":"rewardTokens","type":"address[]","indexed":true,"internalType":"address[]"},{"name":"rewardAmounts","type":"uint256[]","indexed":true,"internalType":"uint256[]"}],"anonymous":false},{"type":"event","name":"ArkRewardTokenAuctionStarted","inputs":[{"name":"auctionId","type":"uint256","indexed":false,"internalType":"uint256"},{"name":"ark","type":"address","indexed":false,"internalType":"address"},{"name":"rewardToken","type":"address","indexed":false,"internalType":"address"},{"name":"amount","type":"uint256","indexed":false,"internalType":"uint256"}],"anonymous":false},{"type":"event","name":"AuctionDefaultParametersUpdated","inputs":[{"name":"newConfig","type":"tuple","indexed":false,"internalType":"struct AuctionDefaultParameters","components":[{"name":"duration","type":"uint40","internalType":"uint40"},{"name":"startPrice","type":"uint256","internalType":"uint256"},{"name":"endPrice","type":"uint256","internalType":"uint256"},{"name":"kickerRewardPercentage","type":"uint256","internalType":"Percentage"},{"name":"decayType","type":"uint8","internalType":"enum DecayFunctions.DecayType"}]}],"anonymous":false},{"type":"event","name":"AuctionFinalized","inputs":[{"name":"auctionId","type":"uint256","indexed":true,"internalType":"uint256"},{"name":"soldTokens","type":"uint256","indexed":false,"internalType":"uint256"},{"name":"unsoldTokens","type":"uint256","indexed":false,"internalType":"uint256"}],"anonymous":false},{"type":"event","name":"RewardBoarded","inputs":[{"name":"ark","type":"address","indexed":true,"internalType":"address"},{"name":"fromRewardToken","type":"address","indexed":true,"internalType":"address"},{"name":"toFleetToken","type":"address","indexed":true,"internalType":"address"},{"name":"amountReboarded","type":"uint256","indexed":false,"internalType":"uint256"}],"anonymous":false},{"type":"event","name":"TokensPurchased","inputs":[{"name":"auctionId","type":"uint256","indexed":true,"internalType":"uint256"},{"name":"buyer","type":"address","indexed":true,"internalType":"address"},{"name":"amount","type":"uint256","indexed":false,"internalType":"uint256"},{"name":"price","type":"uint256","indexed":false,"internalType":"uint256"}],"anonymous":false},{"type":"error","name":"AuctionAlreadyFinalized","inputs":[{"name":"auctionId","type":"uint256","internalType":"uint256"}]},{"type":"error","name":"AuctionNotActive","inputs":[{"name":"auctionId","type":"uint256","internalType":"uint256"}]},{"type":"error","name":"AuctionNotEnded","inputs":[{"name":"auctionId","type":"uint256","internalType":"uint256"}]},{"type":"error","name":"AuctionNotFound","inputs":[]},{"type":"error","name":"CallerIsNotAdmin","inputs":[{"name":"caller","type":"address","internalType":"address"}]},{"type":"error","name":"CallerIsNotAuthorizedToBoard","inputs":[{"name":"caller","type":"address","internalType":"address"}]},{"type":"error","name":"CallerIsNotCommander","inputs":[{"name":"caller","type":"address","internalType":"address"}]},{"type":"error","name":"CallerIsNotContractSpecificRole","inputs":[{"name":"caller","type":"address","internalType":"address"},{"name":"role","type":"bytes32","internalType":"bytes32"}]},{"type":"error","name":"CallerIsNotCurator","inputs":[{"name":"caller","type":"address","internalType":"address"}]},{"type":"error","name":"CallerIsNotDecayController","inputs":[{"name":"caller","type":"address","internalType":"address"}]},{"type":"error","name":"CallerIsNotGovernor","inputs":[{"name":"caller","type":"address","internalType":"address"}]},{"type":"error","name":"CallerIsNotGuardian","inputs":[{"name":"caller","type":"address","internalType":"address"}]},{"type":"error","name":"CallerIsNotGuardianOrGovernor","inputs":[{"name":"caller","type":"address","internalType":"address"}]},{"type":"error","name":"CallerIsNotKeeper","inputs":[{"name":"caller","type":"address","internalType":"address"}]},{"type":"error","name":"CallerIsNotRaft","inputs":[{"name":"caller","type":"address","internalType":"address"}]},{"type":"error","name":"CallerIsNotRaftOrCommander","inputs":[{"name":"caller","type":"address","internalType":"address"}]},{"type":"error","name":"CallerIsNotSuperKeeper","inputs":[{"name":"caller","type":"address","internalType":"address"}]},{"type":"error","name":"DirectGrantIsDisabled","inputs":[{"name":"caller","type":"address","internalType":"address"}]},{"type":"error","name":"DirectRevokeIsDisabled","inputs":[{"name":"caller","type":"address","internalType":"address"}]},{"type":"error","name":"InsufficientTokensAvailable","inputs":[]},{"type":"error","name":"InvalidAccessManagerAddress","inputs":[{"name":"invalidAddress","type":"address","internalType":"address"}]},{"type":"error","name":"InvalidDecayType","inputs":[]},{"type":"error","name":"PRBMath_MulDiv18_Overflow","inputs":[{"name":"x","type":"uint256","internalType":"uint256"},{"name":"y","type":"uint256","internalType":"uint256"}]},{"type":"error","name":"PRBMath_MulDiv_Overflow","inputs":[{"name":"x","type":"uint256","internalType":"uint256"},{"name":"y","type":"uint256","internalType":"uint256"},{"name":"denominator","type":"uint256","internalType":"uint256"}]},{"type":"error","name":"PRBMath_UD60x18_Convert_Overflow","inputs":[{"name":"x","type":"uint256","internalType":"uint256"}]},{"type":"error","name":"RaftArkDoesntRequireKeeperData","inputs":[{"name":"ark","type":"address","internalType":"address"}]},{"type":"error","name":"RaftArkRequiresKeeperData","inputs":[{"name":"ark","type":"address","internalType":"address"}]},{"type":"error","name":"RaftAuctionAlreadyRunning","inputs":[{"name":"ark","type":"address","internalType":"address"},{"name":"rewardToken","type":"address","internalType":"address"}]},{"type":"error","name":"SafeERC20FailedOperation","inputs":[{"name":"token","type":"address","internalType":"address"}]}],"bytecode":{"object":"0x608060405234801561000f575f5ffd5b506040516139ab3803806139ab83398101604081905261002e916101a4565b8082806001600160a01b03811661005f576040516347bd7c1d60e01b81525f60048201526024015b60405180910390fd5b6040516301ffc9a760e01b81526338c7ccdb60e01b60048201526001600160a01b038216906301ffc9a790602401602060405180830381865afa1580156100a8573d5f5f3e3d5ffd5b505050506040513d601f19601f820116820180604052508101906100cc919061025c565b6100f4576040516347bd7c1d60e01b81526001600160a01b0382166004820152602401610056565b5f80546001600160a01b0319166001600160a01b03929092169190911790555080516001805464ffffffffff191664ffffffffff909216919091178155602082015160025560408201516003556060820151600455608082015160058054849392919060ff191683838181111561016d5761016d610282565b0217905550905050505050610296565b805164ffffffffff81168114610191575f5ffd5b919050565b805160028110610191575f5ffd5b5f5f82840360c08112156101b6575f5ffd5b83516001600160a01b03811681146101cc575f5ffd5b925060a0601f19820112156101df575f5ffd5b5060405160a081016001600160401b038111828210171561020e57634e487b7160e01b5f52604160045260245ffd5b60405261021d6020850161017d565b815260408481015160208301526060808601519183019190915260808501519082015261024c60a08501610196565b6080820152809150509250929050565b5f6020828403121561026c575f5ffd5b8151801515811461027b575f5ffd5b9392505050565b634e487b7160e01b5f52602160045260245ffd5b613708806102a35f395ff3fe608060405234801561000f575f5ffd5b5060043610610127575f3560e01c8063a11a9121116100a9578063db16a5551161006e578063db16a555146102f1578063dcefa53814610304578063ebc136d014610317578063fc5284821461033a578063fe7f25b414610343575f5ffd5b8063a11a91211461024c578063a30215e11461025f578063b3924cd014610289578063c2f8b526146102a9578063d526b80b146102de575f5ffd5b80637399bfe8116100ef5780637399bfe8146101df5780638a179be4146101f25780638dc385a314610213578063953790b1146102265780639b05e3c314610239575f5ffd5b8063182429411461012b5780633beef0ce14610155578063672d22641461018d57806369b3054b146101a25780636e91edf8146101b5575b5f5ffd5b61013e6101393660046128fb565b61037b565b60405161014c929190612a78565b60405180910390f35b61017f6101633660046128fb565b600960209081525f928352604080842090915290825290205481565b60405190815260200161014c565b6101a061019b366004612ae9565b6104b2565b005b61017f6101b0366004612b4d565b610500565b61017f6101c33660046128fb565b600760209081525f928352604080842090915290825290205481565b6101a06101ed366004612baa565b610533565b610205610200366004612bfb565b610545565b60405161014c929190612c3f565b6101a0610221366004612cc8565b61055f565b6101a0610234366004612d29565b610728565b6101a06102473660046128fb565b61082e565b6101a061025a366004612d71565b61098d565b61017f61026d3660046128fb565b600a60209081525f928352604080842090915290825290205481565b61029c6102973660046128fb565b610a8f565b60405161014c9190612d8a565b6001546002546003546004546005546102cd9464ffffffffff169392919060ff1685565b60405161014c959493929190612dbc565b6101a06102ec366004612cc8565b610be0565b61017f6102ff3660046128fb565b610d1c565b61017f610312366004612dec565b610d52565b61032a610325366004612e2a565b610e97565b604051901515815260200161014c565b61017f60065481565b61017f6103513660046128fb565b6001600160a01b039182165f90815260076020908152604080832093909416825291909152205490565b600860209081525f928352604080842082529183529181902081516101c08101835281546001600160a01b0390811682526001808401548083169684019690965264ffffffffff600160a01b808804821696850196909652600160c81b8088048216606086015260ff600160f01b890481166080870152600160f81b909804881660a08601526002860154841660c0860152600386015493841660e08601529583041661010084015292949193859361012086019391909204169081111561044557610445612932565b600181111561045657610456612932565b8152600482015460208083019190915260058301546040808401919091526006840154606084015260079093015460809092019190915281518083019092526008840154825260099093015460ff161515928101929092529082565b5f6104be858585610f78565b5090505f5b81518110156104f8576104f0868383815181106104e2576104e2612e45565b60200260200101518561118e565b6001016104c3565b505050505050565b5f8282604051602001610514929190612e59565b6040516020818303038152906040528051906020012090505b92915050565b61053e838383611523565b5050505050565b606080610553858585610f78565b90969095509350505050565b5f5460408051630ccc574960e41b815290516001600160a01b03909216916391d1485491839163ccc57490916004808201926020929091908290030181865afa1580156105ae573d5f5f3e3d5ffd5b505050506040513d601f19601f820116820180604052508101906105d29190612e90565b6040516001600160e01b031960e084901b1681526004810191909152336024820152604401602060405180830381865afa158015610612573d5f5f3e3d5ffd5b505050506040513d601f19601f820116820180604052508101906106369190612ebb565b61065a57604051630ea7d7ed60e21b81523360048201526024015b60405180910390fd5b836001600160a01b031663303dbaf36040518163ffffffff1660e01b8152600401602060405180830381865afa158015610696573d5f5f3e3d5ffd5b505050506040513d601f19601f820116820180604052508101906106ba9190612ebb565b6106e25760405163b616b3c160e01b81526001600160a01b0385166004820152602401610651565b610722838584848080601f0160208091040260200160405190810160405280939291908181526020018383808284375f9201919091525061169f92505050565b50505050565b5f5460408051630ccc574960e41b815290516001600160a01b03909216916391d1485491839163ccc57490916004808201926020929091908290030181865afa158015610777573d5f5f3e3d5ffd5b505050506040513d601f19601f8201168201806040525081019061079b9190612e90565b6040516001600160e01b031960e084901b1681526004810191909152336024820152604401602060405180830381865afa1580156107db573d5f5f3e3d5ffd5b505050506040513d601f19601f820116820180604052508101906107ff9190612ebb565b61081e57604051630ea7d7ed60e21b8152336004820152602401610651565b61082983838361118e565b505050565b6001600160a01b038083165f90815260086020908152604080832093851683529290522061085b816119c9565b604080516102008101825282546001600160a01b03908116928201928352600180850154808316606085015264ffffffffff600160a01b80830482166080870152600160c81b808404831660a088015260ff600160f01b8504811660c0890152600160f81b909404841660e0880152600289015486166101008801526003890154958616610120880152908504909116610140860152610829958995899590948994869486936101608701939190049091169081111561091d5761091d612932565b600181111561092e5761092e612932565b8152600482015460208083019190915260058301546040808401919091526006840154606084015260079093015460809092019190915291835280518082019091526008840154815260099093015460ff161515838201520152611a7d565b5f5460408051630ccc574960e41b815290516001600160a01b03909216916391d1485491839163ccc57490916004808201926020929091908290030181865afa1580156109dc573d5f5f3e3d5ffd5b505050506040513d601f19601f82011682018060405250810190610a009190612e90565b6040516001600160e01b031960e084901b1681526004810191909152336024820152604401602060405180830381865afa158015610a40573d5f5f3e3d5ffd5b505050506040513d601f19601f82011682018060405250810190610a649190612ebb565b610a8357604051630ea7d7ed60e21b8152336004820152602401610651565b610a8c81611b3c565b50565b610a97612846565b6001600160a01b038084165f90815260086020908152604080832086851684529091529081902081516102008101835281548416928101928352600180830154808616606084015264ffffffffff600160a01b80830482166080860152600160c81b808404831660a087015260ff600160f01b8504811660c0880152600160f81b909404841660e087015260028701548916610100870152600387015498891661012087015290880490911661014085015292959394869490938693610160870193919092041690811115610b6e57610b6e612932565b6001811115610b7f57610b7f612932565b8152600482015460208083019190915260058301546040808401919091526006840154606084015260079093015460809092019190915291835280518082019091526008840154815260099093015460ff1615158382015201529392505050565b5f5460408051630ccc574960e41b815290516001600160a01b03909216916391d1485491839163ccc57490916004808201926020929091908290030181865afa158015610c2f573d5f5f3e3d5ffd5b505050506040513d601f19601f82011682018060405250810190610c539190612e90565b6040516001600160e01b031960e084901b1681526004810191909152336024820152604401602060405180830381865afa158015610c93573d5f5f3e3d5ffd5b505050506040513d601f19601f82011682018060405250810190610cb79190612ebb565b610cd657604051630ea7d7ed60e21b8152336004820152602401610651565b5f610ce2858484611523565b5090505f5b81518110156104f857610d1486838381518110610d0657610d06612e45565b60200260200101518761118e565b600101610ce7565b6001600160a01b038083165f9081526008602090815260408083209385168352929052908120610d4b90611b86565b9392505050565b6001600160a01b038084165f9081526008602090815260408083209386168352929052908120610d828184611d20565b6001600160a01b038087165f908152600a60209081526040808320938916835292905290812080549294508492909190610dbd908490612ee8565b909155505060088101545f03610e8f57604080516102008101825282546001600160a01b03908116928201928352600180850154808316606085015264ffffffffff600160a01b80830482166080870152600160c81b808404831660a088015260ff600160f01b8504811660c0890152600160f81b909404841660e0880152600289015486166101008801526003890154958616610120880152908504909116610140860152610e8f958b958b9590948994869486936101608701939190049091169081111561091d5761091d612932565b509392505050565b5f80546040805163a89f38a360e01b815290516001600160a01b03909216916391d1485491839163a89f38a3916004808201926020929091908290030181865afa158015610ee7573d5f5f3e3d5ffd5b505050506040513d601f19601f82011682018060405250810190610f0b9190612e90565b6040516001600160e01b031960e084901b16815260048101919091526001600160a01b0385166024820152604401602060405180830381865afa158015610f54573d5f5f3e3d5ffd5b505050506040513d601f19601f8201168201806040525081019061052d9190612ebb565b5f5460408051630ccc574960e41b8152905160609283926001600160a01b03909116916391d1485491839163ccc57490916004808201926020929091908290030181865afa158015610fcc573d5f5f3e3d5ffd5b505050506040513d601f19601f82011682018060405250810190610ff09190612e90565b6040516001600160e01b031960e084901b1681526004810191909152336024820152604401602060405180830381865afa158015611030573d5f5f3e3d5ffd5b505050506040513d601f19601f820116820180604052508101906110549190612ebb565b61107357604051630ea7d7ed60e21b8152336004820152602401610651565b60405163780469bb60e01b81526001600160a01b0386169063780469bb906110a19087908790600401612efb565b5f604051808303815f875af11580156110bc573d5f5f3e3d5ffd5b505050506040513d5f823e601f3d908101601f191682016040526110e39190810190613067565b90925090505f5b82518110156111855781818151811061110557611105612e45565b602002602001015160075f886001600160a01b03166001600160a01b031681526020019081526020015f205f85848151811061114357611143612e45565b60200260200101516001600160a01b03166001600160a01b031681526020019081526020015f205f8282546111789190612ee8565b90915550506001016110ea565b50935093915050565b6001600160a01b038084165f908152600860209081526040808320868516845290915290208054909116158015906111cb5750600981015460ff16155b156111fc5760405163ef83e9dd60e01b81526001600160a01b03808616600483015284166024820152604401610651565b6001600160a01b038085165f8181526009602090815260408083209488168084529482528083205493835260078252808320948352939052918220546112429190612ee8565b90505f61125185858430612001565b90508060085f886001600160a01b03166001600160a01b031681526020019081526020015f205f876001600160a01b03166001600160a01b031681526020019081526020015f205f820151815f015f820151815f015f6101000a8154816001600160a01b0302191690836001600160a01b031602179055506020820151816001015f6101000a8154816001600160a01b0302191690836001600160a01b0316021790555060408201518160010160146101000a81548164ffffffffff021916908364ffffffffff16021790555060608201518160010160196101000a81548164ffffffffff021916908364ffffffffff160217905550608082015181600101601e6101000a81548160ff021916908360ff16021790555060a082015181600101601f6101000a81548160ff021916908360ff16021790555060c0820151816002015f6101000a8154816001600160a01b0302191690836001600160a01b0316021790555060e0820151816003015f6101000a8154816001600160a01b0302191690836001600160a01b031602179055506101008201518160030160146101000a81548164ffffffffff021916908364ffffffffff1602179055506101208201518160030160196101000a81548160ff0219169083600181111561143657611436612932565b02179055506101408201516004820155610160820151600582015561018082015160068201556101a090910151600791820155602092830151805160088401558301516009928301805460ff19169115159190911790556001600160a01b038981165f8181529285526040808420928b1680855292865280842084905581845293855283832082845285528383209290925584516101000151835164ffffffffff90911681529384019190915290820152606081018390527f5b66543d3d25b638d45065504e7ba2610119c2ce1a07781059cd1dfd67f483c69060800160405180910390a1505050505050565b606080846001600160a01b031663ce5c7f6185856040518363ffffffff1660e01b815260040161155492919061312e565b5f604051808303815f875af115801561156f573d5f5f3e3d5ffd5b505050506040513d5f823e601f3d908101601f191682016040526115969190810190613067565b90925090505f5b8251811015611638578181815181106115b8576115b8612e45565b602002602001015160075f886001600160a01b03166001600160a01b031681526020019081526020015f205f8584815181106115f6576115f6612e45565b60200260200101516001600160a01b03166001600160a01b031681526020019081526020015f205f82825461162b9190612ee8565b909155505060010161159d565b5080604051611647919061315c565b60405180910390208260405161165d9190613191565b604051908190038120906001600160a01b038816907ff7904a549ceee39edb99c75ebe3dd4fef55faded4684ab7963232e23fcfd3f4c905f90a4935093915050565b6001600160a01b038083165f908152600860209081526040808320878516845290915280822081516102008101835281548516928101928352600180830154808716606084015264ffffffffff600160a01b80830482166080860152600160c81b808404831660a087015260ff600160f01b8504811660c0880152600160f81b909404841660e087015260028701548a166101008701526003870154998a16610120870152908904909116610140850152959692959394869490938693610160870193929091049091169081111561177957611779612932565b600181111561178a5761178a612932565b81526004820154602080830191909152600583015460408084019190915260068401546060840152600790930154608090920191909152918352805180820182526008850154815260099094015460ff161515848301529181019290925282518201516001600160a01b038088165f908152600a8552838120918a16815293529120549192509080156104f857846001600160a01b031663303dbaf36040518163ffffffff1660e01b8152600401602060405180830381865afa158015611853573d5f5f3e3d5ffd5b505050506040513d601f19601f820116820180604052508101906118779190612ebb565b5060405163095ea7b360e01b81526001600160a01b0386811660048301526024820183905283169063095ea7b3906044016020604051808303815f875af11580156118c4573d5f5f3e3d5ffd5b505050506040513d601f19601f820116820180604052508101906118e89190612ebb565b50604051632db6d39960e01b81526001600160a01b03861690632db6d3999061191790849088906004016131c4565b5f604051808303815f87803b15801561192e575f5ffd5b505af1158015611940573d5f5f3e3d5ffd5b50505050816001600160a01b0316866001600160a01b0316866001600160a01b03167f902a3a8d6e4938f8d990a89084a4ac52bd8d18e234aba1615f333643282fca988460405161199391815260200190565b60405180910390a4505050506001600160a01b039081165f908152600a6020908152604080832094909316825292909252812055565b80546001600160a01b03166119f1576040516307145c5f60e11b815260040160405180910390fd5b600981015460ff1615611a2c57600381015460405163d9e3dd8360e01b8152600160a01b90910464ffffffffff166004820152602401610651565b6001810154600160c81b900464ffffffffff16421015611a7457600381015460405163e30e8d4760e01b8152600160a01b90910464ffffffffff166004820152602401610651565b610a8c81612125565b602080820151516001600160a01b038086165f9081526009845260408082209287168252919093528220805491929091611ab8908490612ee8565b92505081905550826001600160a01b031663303dbaf36040518163ffffffff1660e01b8152600401602060405180830381865afa158015611afb573d5f5f3e3d5ffd5b505050506040513d601f19601f82011682018060405250810190611b1f9190612ebb565b61082957610829828460405180602001604052805f81525061169f565b806001611b49828261321e565b9050507fe9d5a90069e830741fa6df4fbb146dc3c0918e85d57eb372c70e743198179c7981604051611b7b9190613295565b60405180910390a150565b604080516102008101825282546001600160a01b03908116928201928352600180850154808316606085015264ffffffffff600160a01b80830482166080870152600160c81b808404831660a088015260ff600160f01b8504811660c0890152600160f81b909404841660e08801526002890154861661010088015260038901549586166101208801529085049091166101408601525f95879486949193869361016087019392041690811115611c3f57611c3f612932565b6001811115611c5057611c50612932565b8152600482810154602080840191909152600584015460408085019190915260068501546060850152600790940154608090930192909252928452815180830183526008860154815260099095015460ff161515858201529290920192909252516370d8532160e11b815273__$87c00a11f154e19488f2e9ac8cdbd9f046$__9263e1b0a64292611ce19201612d8a565b602060405180830381865af4158015611cfc573d5f5f3e3d5ffd5b505050506040513d601f19601f8201168201806040525081019061052d9190612e90565b81545f906001600160a01b0316611d4a576040516307145c5f60e11b815260040160405180910390fd5b600983015460ff1615611d8557600383015460405163d9e3dd8360e01b8152600160a01b90910464ffffffffff166004820152602401610651565b6001830154600160c81b900464ffffffffff164210611dcc57600383015460405163aff5aad960e01b8152600160a01b90910464ffffffffff166004820152602401610651565b6008830154821115611df157604051632783839d60e01b815260040160405180910390fd5b604080516102008101825284546001600160a01b03908116928201928352600180870154808316606085015264ffffffffff600160a01b80830482166080870152600160c81b808404831660a088015260ff600160f01b8504811660c0890152600160f81b909404841660e088015260028b0154861661010088015260038b01549586166101208801529085049091166101408601525f95611f2195948a94869492938693610160870193919091041690811115611eb157611eb1612932565b6001811115611ec257611ec2612932565b8152600482015460208083019190915260058301546040808401919091526006840154606084015260079093015460809092019190915291835280518082019091526008840154815260099093015460ff1615158382015201526121d2565b6001850154909150611f4b908290859060ff600160f81b8204811691600160f01b90041681612249565b915082846008015f015f828254611f6291906132e6565b90915550506001840154611f81906001600160a01b0316333085612288565b8354611f97906001600160a01b031633856122ef565b600384015460408051858152602081018490523392600160a01b900464ffffffffff16917fe8d7e55108ae7ddb60173461d2950c7a8e22a7ac7f442825564fe84c8c6f9a38910160405180910390a360088401545f03611ffa57611ffa84612125565b5092915050565b612009612846565b5f60405180610160016040528060065f8154612024906132f9565b918290555081526001600160a01b03808916602083015287811660408301526001805464ffffffffff166060840152600254608084015260035460a084015260c0830188905260045460e0840152336101008401529086166101208301526005546101409092019160ff169081111561209f5761209f612932565b9052604051631bd590b960e11b815290915073__$87c00a11f154e19488f2e9ac8cdbd9f046$__906337ab2172906120db908490600401613311565b61020060405180830381865af41580156120f7573d5f5f3e3d5ffd5b505050506040513d601f19601f8201168201806040525081019061211b919061343b565b9695505050505050565b600881015460068201545f9161213a916132e6565b60098301805460ff1916600117905560088301549091501561217a5760038201546008830154835461217a926001600160a01b03918216929116906122ef565b60038201546008830154604080518481526020810192909252600160a01b90920464ffffffffff16917fd11fb103f8d5c913b9e132f165c0cfa304fc230f10796a7a5d63bc3d8de4d3c3910160405180910390a25050565b8051604001515f9081906121ed9064ffffffffff16426132e6565b835160408101516060909101519192505f916122099190613561565b845161012081015161014082015161016083015160a09093015164ffffffffff94909416945061224193919290918690869080612320565b949350505050565b5f8061225587866123a7565b90505f61226287866123a7565b90505f61226f838361240d565b905061227b818661241e565b9998505050505050505050565b6040516001600160a01b0384811660248301528381166044830152606482018390526107229186918216906323b872dd906084015b604051602081830303815290604052915060e01b6020820180516001600160e01b03838183161783525050505061247d565b6040516001600160a01b0383811660248301526044820183905261082991859182169063a9059cbb906064016122bd565b5f83851061232f57508461239c565b5f88600181111561234257612342612932565b0361235c576123558787878787876124e9565b905061239c565b600188600181111561237057612370612932565b036123835761235587878787878761256c565b6040516346b2fddf60e11b815260040160405180910390fd5b979650505050505050565b5f8160ff166012036123ba57508161052d565b60128260ff1611156123ed576123d160128361357e565b6123dc90600a61367a565b6123e6908461369c565b905061052d565b6123f882601261357e565b61240390600a61367a565b610d4b90846136bb565b5f610d4b61241b8484612611565b90565b5f8160ff1660120361243157508161052d565b60128260ff16111561245d5761244860128361357e565b61245390600a61367a565b6123e690846136bb565b61246882601261357e565b61247390600a61367a565b610d4b908461369c565b5f5f60205f8451602086015f885af18061249c576040513d5f823e3d81fd5b50505f513d915081156124b35780600114156124c0565b6001600160a01b0384163b155b1561072257604051635274afe760e01b81526001600160a01b0385166004820152602401610651565b5f806124f588856123a7565b90505f61250288866123a7565b90505f61251261241b83856132e6565b90505f61251e896126c3565b90505f61252a896126c3565b90505f6125418261253b868661240d565b90612708565b90505f61254e82886132e6565b905061255a818a61241e565b9e9d5050505050505050505050505050565b5f8061257888856123a7565b90505f61258588866123a7565b90505f61259561241b83856132e6565b90505f6125aa6125a58a8a6132e6565b6126c3565b90505f6125b6896126c3565b90505f6125c483600261271f565b90505f6125d283600261271f565b90505f6125e38261253b888661240d565b90505f6125f08289612ee8565b90506125fc818c61241e565b99505050505050505050509695505050505050565b5f80805f19848609848602925082811083820303915050805f036126425750670de0b6b3a76400009004905061052d565b670de0b6b3a7640000811061267457604051635173648d60e01b81526004810186905260248101859052604401610651565b5f670de0b6b3a764000085870962040000818503049310909103600160ee1b02919091177faccb18165bd6fe31ae1cf318dc5b51eee0e1ba569b88cd74c1773b91fac106690291505092915050565b5f6126d7670de0b6b3a76400005f1961369c565b8211156126fa57604051631cd951a760e01b815260048101839052602401610651565b50670de0b6b3a76400000290565b5f610d4b61241b84670de0b6b3a764000085612778565b5f82816001841661273857670de0b6b3a764000061273a565b815b9050600184901c93505b8315612241576127548283612611565b9150600184161561276c576127698183612611565b90505b600184901c9350612744565b5f80805f19858709858702925082811083820303915050805f036127af578382816127a5576127a5613688565b0492505050610d4b565b8381106127e057604051630c740aef60e31b8152600481018790526024810186905260448101859052606401610651565b5f84868809600260036001881981018916988990049182028318808302840302808302840302808302840302808302840302808302840302918202909203025f889003889004909101858311909403939093029303949094049190911702949350505050565b60405180604001604052806128c0604080516101c0810182525f80825260208201819052918101829052606081018290526080810182905260a0810182905260c0810182905260e0810182905261010081018290529061012082019081526020015f81526020015f81526020015f81526020015f81525090565b81526020016128e260405180604001604052805f81526020015f151581525090565b905290565b6001600160a01b0381168114610a8c575f5ffd5b5f5f6040838503121561290c575f5ffd5b8235612917816128e7565b91506020830135612927816128e7565b809150509250929050565b634e487b7160e01b5f52602160045260245ffd5b6002811061295657612956612932565b9052565b80516001600160a01b03168252602081015161298160208401826001600160a01b03169052565b50604081015161299a604084018264ffffffffff169052565b5060608101516129b3606084018264ffffffffff169052565b5060808101516129c8608084018260ff169052565b5060a08101516129dd60a084018260ff169052565b5060c08101516129f860c08401826001600160a01b03169052565b5060e0810151612a1360e08401826001600160a01b03169052565b50610100810151612a2e61010084018264ffffffffff169052565b50610120810151612a43610120840182612946565b506101408101516101408301526101608101516101608301526101808101516101808301526101a08101516101a08301525050565b6102008101612a87828561295a565b82516101c0830152602083015115156101e0830152610d4b565b5f5f83601f840112612ab1575f5ffd5b50813567ffffffffffffffff811115612ac8575f5ffd5b6020830191508360208260051b8501011115612ae2575f5ffd5b9250929050565b5f5f5f5f60608587031215612afc575f5ffd5b8435612b07816128e7565b9350602085013567ffffffffffffffff811115612b22575f5ffd5b612b2e87828801612aa1565b9094509250506040850135612b42816128e7565b939692955090935050565b5f5f60408385031215612b5e575f5ffd5b823560038110612917575f5ffd5b5f5f83601f840112612b7c575f5ffd5b50813567ffffffffffffffff811115612b93575f5ffd5b602083019150836020828501011115612ae2575f5ffd5b5f5f5f60408486031215612bbc575f5ffd5b8335612bc7816128e7565b9250602084013567ffffffffffffffff811115612be2575f5ffd5b612bee86828701612b6c565b9497909650939450505050565b5f5f5f60408486031215612c0d575f5ffd5b8335612c18816128e7565b9250602084013567ffffffffffffffff811115612c33575f5ffd5b612bee86828701612aa1565b604080825283519082018190525f9060208501906060840190835b81811015612c815783516001600160a01b0316835260209384019390920191600101612c5a565b5050838103602080860191909152855180835291810192508501905f5b81811015612cbc578251845260209384019390920191600101612c9e565b50919695505050505050565b5f5f5f5f60608587031215612cdb575f5ffd5b8435612ce6816128e7565b93506020850135612cf6816128e7565b9250604085013567ffffffffffffffff811115612d11575f5ffd5b612d1d87828801612b6c565b95989497509550505050565b5f5f5f60608486031215612d3b575f5ffd5b8335612d46816128e7565b92506020840135612d56816128e7565b91506040840135612d66816128e7565b809150509250925092565b5f60a0828403128015612d82575f5ffd5b509092915050565b5f61020082019050612d9d82845161295a565b60208381015180516101c08501529081015115156101e0840152611ffa565b5f60a08201905064ffffffffff8716825285602083015284604083015283606083015261211b6080830184612946565b5f5f5f60608486031215612dfe575f5ffd5b8335612e09816128e7565b92506020840135612e19816128e7565b929592945050506040919091013590565b5f60208284031215612e3a575f5ffd5b8135610d4b816128e7565b634e487b7160e01b5f52603260045260245ffd5b5f60038410612e6a57612e6a612932565b5060f89290921b825260601b6bffffffffffffffffffffffff1916600182015260150190565b5f60208284031215612ea0575f5ffd5b5051919050565b80518015158114612eb6575f5ffd5b919050565b5f60208284031215612ecb575f5ffd5b610d4b82612ea7565b634e487b7160e01b5f52601160045260245ffd5b8082018082111561052d5761052d612ed4565b602080825281018290525f8360408301825b85811015612f3d578235612f20816128e7565b6001600160a01b0316825260209283019290910190600101612f0d565b5095945050505050565b634e487b7160e01b5f52604160045260245ffd5b6040805190810167ffffffffffffffff81118282101715612f7e57612f7e612f47565b60405290565b6040516101c0810167ffffffffffffffff81118282101715612f7e57612f7e612f47565b604051601f8201601f1916810167ffffffffffffffff81118282101715612fd157612fd1612f47565b604052919050565b5f67ffffffffffffffff821115612ff257612ff2612f47565b5060051b60200190565b8051612eb6816128e7565b5f82601f830112613016575f5ffd5b815161302961302482612fd9565b612fa8565b8082825260208201915060208360051b86010192508583111561304a575f5ffd5b602085015b83811015612f3d57805183526020928301920161304f565b5f5f60408385031215613078575f5ffd5b825167ffffffffffffffff81111561308e575f5ffd5b8301601f8101851361309e575f5ffd5b80516130ac61302482612fd9565b8082825260208201915060208360051b8501019250878311156130cd575f5ffd5b6020840193505b828410156130f85783516130e7816128e7565b8252602093840193909101906130d4565b80955050505050602083015167ffffffffffffffff811115613118575f5ffd5b61312485828601613007565b9150509250929050565b60208152816020820152818360408301375f818301604090810191909152601f909201601f19160101919050565b81515f90829060208501835b82811015613186578151845260209384019390910190600101613168565b509195945050505050565b81515f90829060208501835b828110156131865781516001600160a01b031684526020938401939091019060010161319d565b828152604060208201525f82518060408401528060208501606085015e5f606082850101526060601f19601f8301168401019150509392505050565b64ffffffffff81168114610a8c575f5ffd5b60028110610a8c575f5ffd5b813561322981613200565b815464ffffffffff191664ffffffffff9190911617815560208201356001820155604082013560028201556060820135600382015560048101608083013561327081613212565b6002811061328057613280612932565b60ff1982541660ff8216811783555050505050565b60a0810182356132a481613200565b64ffffffffff16825260208381013590830152604080840135908301526060808401359083015260808301356132d981613212565b611ffa6080840182612946565b8181038181111561052d5761052d612ed4565b5f6001820161330a5761330a612ed4565b5060010190565b81518152602080830151610160830191613335908401826001600160a01b03169052565b50604083015161335060408401826001600160a01b03169052565b506060830151613369606084018264ffffffffff169052565b506080830151608083015260a083015160a083015260c083015160c083015260e083015160e08301526101008301516133ae6101008401826001600160a01b03169052565b506101208301516133cb6101208401826001600160a01b03169052565b50610140830151611ffa610140840182612946565b8051612eb681613200565b805160ff81168114612eb6575f5ffd5b8051612eb681613212565b5f60408284031215613416575f5ffd5b61341e612f5b565b82518152905061343060208301612ea7565b602082015292915050565b5f8183036102008112801561344e575f5ffd5b50613457612f5b565b6101c0821215613465575f5ffd5b61346d612f84565b915061347884612ffc565b825261348660208501612ffc565b6020830152613497604085016133e0565b60408301526134a8606085016133e0565b60608301526134b9608085016133eb565b60808301526134ca60a085016133eb565b60a08301526134db60c08501612ffc565b60c08301526134ec60e08501612ffc565b60e08301526134fe61010085016133e0565b61010083015261351161012085016133fb565b6101208301526101408481015190830152610160808501519083015261018080850151908301526101a08085015190830152818152613554856101c08601613406565b6020820152949350505050565b64ffffffffff828116828216039081111561052d5761052d612ed4565b60ff828116828216039081111561052d5761052d612ed4565b6001815b60018411156135d2578085048111156135b6576135b6612ed4565b60018416156135c457908102905b60019390931c92800261359b565b935093915050565b5f826135e85750600161052d565b816135f457505f61052d565b816001811461360a576002811461361457613630565b600191505061052d565b60ff84111561362557613625612ed4565b50506001821b61052d565b5060208310610133831016604e8410600b8410161715613653575081810a61052d565b61365f5f198484613597565b805f190482111561367257613672612ed4565b029392505050565b5f610d4b60ff8416836135da565b634e487b7160e01b5f52601260045260245ffd5b5f826136b657634e487b7160e01b5f52601260045260245ffd5b500490565b808202811582820484141761052d5761052d612ed456fea2646970667358221220679f8e18f8d9a87add8f09f3b4f2d31a94331da3da56ae23f3aa19740b4fe25764736f6c634300081c0033","linkReferences":{"node_modules/@summerfi/dutch-auction/src/DutchAuctionLibrary.sol":{"DutchAuctionLibrary":[{"start":8032,"length":20},{"start":9046,"length":20}]}}},"methodIdentifiers":{"auctionDefaultParameters()":"c2f8b526","auctions(address,address)":"18242941","board(address,address,bytes)":"8dc385a3","buyTokens(address,address,uint256)":"dcefa538","finalizeAuction(address,address)":"9b05e3c3","generateRole(uint8,address)":"69b3054b","getAuctionInfo(address,address)":"b3924cd0","getCurrentPrice(address,address)":"db16a555","getObtainedTokens(address,address)":"fe7f25b4","harvest(address,bytes)":"7399bfe8","harvestAndStartAuction(address,address,bytes)":"d526b80b","hasAdmiralsQuartersRole(address)":"ebc136d0","nextAuctionId()":"fc528482","obtainedTokens(address,address)":"6e91edf8","paymentTokensToBoard(address,address)":"a30215e1","startAuction(address,address,address)":"953790b1","sweep(address,address[])":"8a179be4","sweepAndStartAuction(address,address[],address)":"672d2264","unsoldTokens(address,address)":"3beef0ce","updateAuctionDefaultParameters((uint40,uint256,uint256,uint256,uint8))":"a11a9121"},"id":203}