{"abi":[{"type":"constructor","inputs":[{"name":"_params","type":"tuple","internalType":"struct ArkFactoryParams","components":[{"name":"governor","type":"address","internalType":"address"},{"name":"raft","type":"address","internalType":"address"},{"name":"aaveV3Pool","type":"address","internalType":"address"}]}],"stateMutability":"nonpayable"},{"type":"function","name":"COMMANDER_ROLE","inputs":[],"outputs":[{"name":"","type":"bytes32","internalType":"bytes32"}],"stateMutability":"view"},{"type":"function","name":"DEFAULT_ADMIN_ROLE","inputs":[],"outputs":[{"name":"","type":"bytes32","internalType":"bytes32"}],"stateMutability":"view"},{"type":"function","name":"GOVERNOR_ROLE","inputs":[],"outputs":[{"name":"","type":"bytes32","internalType":"bytes32"}],"stateMutability":"view"},{"type":"function","name":"KEEPER_ROLE","inputs":[],"outputs":[{"name":"","type":"bytes32","internalType":"bytes32"}],"stateMutability":"view"},{"type":"function","name":"aaveV3Pool","inputs":[],"outputs":[{"name":"","type":"address","internalType":"address"}],"stateMutability":"view"},{"type":"function","name":"createAaveV3Ark","inputs":[{"name":"_token","type":"address","internalType":"address"}],"outputs":[{"name":"","type":"address","internalType":"address"}],"stateMutability":"nonpayable"},{"type":"function","name":"getRoleAdmin","inputs":[{"name":"role","type":"bytes32","internalType":"bytes32"}],"outputs":[{"name":"","type":"bytes32","internalType":"bytes32"}],"stateMutability":"view"},{"type":"function","name":"governor","inputs":[],"outputs":[{"name":"","type":"address","internalType":"address"}],"stateMutability":"view"},{"type":"function","name":"grantAdminRole","inputs":[{"name":"account","type":"address","internalType":"address"}],"outputs":[],"stateMutability":"nonpayable"},{"type":"function","name":"grantCommanderRole","inputs":[{"name":"account","type":"address","internalType":"address"}],"outputs":[],"stateMutability":"nonpayable"},{"type":"function","name":"grantGovernorRole","inputs":[{"name":"account","type":"address","internalType":"address"}],"outputs":[],"stateMutability":"nonpayable"},{"type":"function","name":"grantKeeperRole","inputs":[{"name":"account","type":"address","internalType":"address"}],"outputs":[],"stateMutability":"nonpayable"},{"type":"function","name":"grantRole","inputs":[{"name":"role","type":"bytes32","internalType":"bytes32"},{"name":"account","type":"address","internalType":"address"}],"outputs":[],"stateMutability":"nonpayable"},{"type":"function","name":"hasRole","inputs":[{"name":"role","type":"bytes32","internalType":"bytes32"},{"name":"account","type":"address","internalType":"address"}],"outputs":[{"name":"","type":"bool","internalType":"bool"}],"stateMutability":"view"},{"type":"function","name":"raft","inputs":[],"outputs":[{"name":"","type":"address","internalType":"address"}],"stateMutability":"view"},{"type":"function","name":"renounceRole","inputs":[{"name":"role","type":"bytes32","internalType":"bytes32"},{"name":"callerConfirmation","type":"address","internalType":"address"}],"outputs":[],"stateMutability":"nonpayable"},{"type":"function","name":"revokeAdminRole","inputs":[{"name":"account","type":"address","internalType":"address"}],"outputs":[],"stateMutability":"nonpayable"},{"type":"function","name":"revokeCommanderRole","inputs":[{"name":"account","type":"address","internalType":"address"}],"outputs":[],"stateMutability":"nonpayable"},{"type":"function","name":"revokeGovernorRole","inputs":[{"name":"account","type":"address","internalType":"address"}],"outputs":[],"stateMutability":"nonpayable"},{"type":"function","name":"revokeKeeperRole","inputs":[{"name":"account","type":"address","internalType":"address"}],"outputs":[],"stateMutability":"nonpayable"},{"type":"function","name":"revokeRole","inputs":[{"name":"role","type":"bytes32","internalType":"bytes32"},{"name":"account","type":"address","internalType":"address"}],"outputs":[],"stateMutability":"nonpayable"},{"type":"function","name":"setGovernor","inputs":[{"name":"_newGovernor","type":"address","internalType":"address"}],"outputs":[],"stateMutability":"nonpayable"},{"type":"function","name":"setRaft","inputs":[{"name":"_newRaft","type":"address","internalType":"address"}],"outputs":[],"stateMutability":"nonpayable"},{"type":"function","name":"supportsInterface","inputs":[{"name":"interfaceId","type":"bytes4","internalType":"bytes4"}],"outputs":[{"name":"","type":"bool","internalType":"bool"}],"stateMutability":"view"},{"type":"event","name":"ArkCreated","inputs":[{"name":"arkAddress","type":"address","indexed":true,"internalType":"address"},{"name":"raft","type":"address","indexed":false,"internalType":"address"},{"name":"token","type":"address","indexed":false,"internalType":"address"},{"name":"arkType","type":"string","indexed":false,"internalType":"string"}],"anonymous":false},{"type":"event","name":"GovernorUpdated","inputs":[{"name":"newGovernor","type":"address","indexed":false,"internalType":"address"}],"anonymous":false},{"type":"event","name":"RaftUpdated","inputs":[{"name":"newRaft","type":"address","indexed":false,"internalType":"address"}],"anonymous":false},{"type":"event","name":"RoleAdminChanged","inputs":[{"name":"role","type":"bytes32","indexed":true,"internalType":"bytes32"},{"name":"previousAdminRole","type":"bytes32","indexed":true,"internalType":"bytes32"},{"name":"newAdminRole","type":"bytes32","indexed":true,"internalType":"bytes32"}],"anonymous":false},{"type":"event","name":"RoleGranted","inputs":[{"name":"role","type":"bytes32","indexed":true,"internalType":"bytes32"},{"name":"account","type":"address","indexed":true,"internalType":"address"},{"name":"sender","type":"address","indexed":true,"internalType":"address"}],"anonymous":false},{"type":"event","name":"RoleRevoked","inputs":[{"name":"role","type":"bytes32","indexed":true,"internalType":"bytes32"},{"name":"account","type":"address","indexed":true,"internalType":"address"},{"name":"sender","type":"address","indexed":true,"internalType":"address"}],"anonymous":false},{"type":"error","name":"AccessControlBadConfirmation","inputs":[]},{"type":"error","name":"AccessControlUnauthorizedAccount","inputs":[{"name":"account","type":"address","internalType":"address"},{"name":"neededRole","type":"bytes32","internalType":"bytes32"}]},{"type":"error","name":"CallerIsNotAdmin","inputs":[{"name":"caller","type":"address","internalType":"address"}]},{"type":"error","name":"CallerIsNotGovernor","inputs":[{"name":"caller","type":"address","internalType":"address"}]},{"type":"error","name":"CallerIsNotRoleAdmin","inputs":[{"name":"caller","type":"address","internalType":"address"}]},{"type":"error","name":"CannotSetRaftToZeroAddress","inputs":[]}],"bytecode":{"object":"0x608060405234801561001057600080fd5b50604051611fb4380380611fb483398101604081905261002f9161017d565b805161003c6000826100b5565b506100677f7935bd0ae54bc31f548c14dba4d37c5c64b3f8ca900cb468fb8abd54d5894f55826100b5565b50508051600180546001600160a01b03199081166001600160a01b039384161790915560208301516002805483169184169190911790556040909201516003805490931691161790556101f8565b6000828152602081815260408083206001600160a01b038516845290915281205460ff16610157576000838152602081815260408083206001600160a01b03861684529091529020805460ff1916600117905561010f3390565b6001600160a01b0316826001600160a01b0316847f2f8788117e7eff1d82e926ec794901d17c78024a50270940304540a733656f0d60405160405180910390a450600161015b565b5060005b92915050565b80516001600160a01b038116811461017857600080fd5b919050565b6000606082840312801561019057600080fd5b50604051606081016001600160401b03811182821017156101c157634e487b7160e01b600052604160045260246000fd5b6040526101cd83610161565b81526101db60208401610161565b60208201526101ec60408401610161565b60408201529392505050565b611dad806102076000396000f3fe608060405234801561001057600080fd5b50600436106101585760003560e01c806391d14854116100c3578063cc1f071a1161007c578063cc1f071a1461031d578063ccc5749014610330578063d547741f14610345578063e4dd1dca14610358578063fb914c391461036b578063ff6e151b1461037e57600080fd5b806391d14854146102b65780639403e41f146102c95780639a19c7b0146102dc578063a217fddf146102ef578063c42cf535146102f7578063c634b78e1461030a57600080fd5b806336568abe1161011557806336568abe146102305780634106d2741461024357806344ee06051461025657806345b817bb1461026957806381d3ce261461029057806386a06ff0146102a357600080fd5b806301ffc9a71461015d5780630c340a2414610185578063117d8ae0146101b0578063248a9ca3146101c35780632f2ff15d146101f4578063364bc15a14610209575b600080fd5b61017061016b366004610b30565b610391565b60405190151581526020015b60405180910390f35b600154610198906001600160a01b031681565b6040516001600160a01b03909116815260200161017c565b600254610198906001600160a01b031681565b6101e66101d1366004610b61565b60009081526020819052604090206001015490565b60405190815260200161017c565b610207610202366004610b96565b6103c8565b005b6101e67ffc8737ab85eb45125971625a9ebdb75cc78e01d5c1fa80c4c6e5203f47bc4fab81565b61020761023e366004610b96565b6103f3565b610207610251366004610bc2565b61042b565b610207610264366004610bc2565b6104a9565b6101e67f4d30e780ddaa8d94b73282aef7f15ebc8bd13895bbcc2ae410396cabb542d27c81565b61020761029e366004610bc2565b61055c565b600354610198906001600160a01b031681565b6101706102c4366004610b96565b6105d2565b6102076102d7366004610bc2565b6105fb565b6102076102ea366004610bc2565b610671565b6101e6600081565b610207610305366004610bc2565b6106a6565b610207610318366004610bc2565b61072b565b61020761032b366004610bc2565b610760565b6101e6600080516020611d5883398151915281565b610207610353366004610b96565b6107d2565b610207610366366004610bc2565b6107f7565b610207610379366004610bc2565b61085b565b61019861038c366004610bc2565b6108bf565b60006001600160e01b03198216637965db0b60e01b14806103c257506301ffc9a760e01b6001600160e01b03198316145b92915050565b6000828152602081905260409020600101546103e3816109df565b6103ed83836109e9565b50505050565b6001600160a01b038116331461041c5760405163334bd91960e11b815260040160405180910390fd5b6104268282610a7b565b505050565b6104366000336105d2565b15806104575750610455600080516020611d58833981519152336105d2565b155b1561047c576040516366ea5d8760e01b81523360048201526024015b60405180910390fd5b6104a67ffc8737ab85eb45125971625a9ebdb75cc78e01d5c1fa80c4c6e5203f47bc4fab826103c8565b50565b6104c1600080516020611d58833981519152336105d2565b6104e057604051630ea7d7ed60e21b8152336004820152602401610473565b6001600160a01b03811661050757604051631a84d73f60e01b815260040160405180910390fd5b600280546001600160a01b0319166001600160a01b0383169081179091556040519081527ffddf69a0b06cb3d8b1cc0a9105fa24040b4bb6c3c16693cf8e0496ab65658e80906020015b60405180910390a150565b6105676000336105d2565b15806105885750610586600080516020611d58833981519152336105d2565b155b156105a8576040516366ea5d8760e01b8152336004820152602401610473565b6104a67f4d30e780ddaa8d94b73282aef7f15ebc8bd13895bbcc2ae410396cabb542d27c826107d2565b6000918252602082815260408084206001600160a01b0393909316845291905290205460ff1690565b6106066000336105d2565b15806106275750610625600080516020611d58833981519152336105d2565b155b15610647576040516366ea5d8760e01b8152336004820152602401610473565b6104a67f4d30e780ddaa8d94b73282aef7f15ebc8bd13895bbcc2ae410396cabb542d27c826103c8565b61067c6000336105d2565b61069b576040516376660ab760e11b8152336004820152602401610473565b6104a66000826107d2565b6106be600080516020611d58833981519152336105d2565b6106dd57604051630ea7d7ed60e21b8152336004820152602401610473565b600180546001600160a01b0319166001600160a01b0383169081179091556040519081527f386c8d5fb4be6c928b7de4c7ae0a4b2ad0d2b2a7edad65d9f0af9ba255e5121990602001610551565b6107366000336105d2565b610755576040516376660ab760e11b8152336004820152602401610473565b6104a66000826103c8565b61076b6000336105d2565b158061078c575061078a600080516020611d58833981519152336105d2565b155b156107ac576040516366ea5d8760e01b8152336004820152602401610473565b6104a67ffc8737ab85eb45125971625a9ebdb75cc78e01d5c1fa80c4c6e5203f47bc4fab825b6000828152602081905260409020600101546107ed816109df565b6103ed8383610a7b565b6108026000336105d2565b15806108235750610821600080516020611d58833981519152336105d2565b155b15610843576040516366ea5d8760e01b8152336004820152602401610473565b6104a6600080516020611d58833981519152826103c8565b6108666000336105d2565b15806108875750610885600080516020611d58833981519152336105d2565b155b156108a7576040516366ea5d8760e01b8152336004820152602401610473565b6104a6600080516020611d58833981519152826107d2565b604080516060810182526001546001600160a01b0390811682526002548116602083015283811682840152600354925160009384921690839061090190610b23565b6001600160a01b039283168152815183166020808301919091528201518316604080830191909152909101519091166060820152608001604051809103906000f080158015610954573d6000803e3d6000fd5b509050806001600160a01b03167f47042b1d317f102e427264bf347b750865b1b60b887315dd01a9c3fa27ed28bc836020015184604001516040516109d09291906001600160a01b039283168152911660208201526060604082018190526009908201526841617665563341726b60b81b608082015260a00190565b60405180910390a29392505050565b6104a68133610ae6565b60006109f583836105d2565b610a73576000838152602081815260408083206001600160a01b03861684529091529020805460ff19166001179055610a2b3390565b6001600160a01b0316826001600160a01b0316847f2f8788117e7eff1d82e926ec794901d17c78024a50270940304540a733656f0d60405160405180910390a45060016103c2565b5060006103c2565b6000610a8783836105d2565b15610a73576000838152602081815260408083206001600160a01b0386168085529252808320805460ff1916905551339286917ff6391f5c32d9c69d2a47ea670b442974b53935d1edc7fd64eb21e047a839171b9190a45060016103c2565b610af082826105d2565b610b1f5760405163e2517d3f60e01b81526001600160a01b038216600482015260248101839052604401610473565b5050565b61117a80610bde83390190565b600060208284031215610b4257600080fd5b81356001600160e01b031981168114610b5a57600080fd5b9392505050565b600060208284031215610b7357600080fd5b5035919050565b80356001600160a01b0381168114610b9157600080fd5b919050565b60008060408385031215610ba957600080fd5b82359150610bb960208401610b7a565b90509250929050565b600060208284031215610bd457600080fd5b610b5a82610b7a56fe608060405234801561001057600080fd5b5060405161117a38038061117a83398101604081905261002f91610182565b8051819061003e6000826100ba565b506100697f7935bd0ae54bc31f548c14dba4d37c5c64b3f8ca900cb468fb8abd54d5894f55826100ba565b50506020810151600180546001600160a01b03199081166001600160a01b03938416179091556040909201516003805484169183169190911790556004805490921693169290921790915550610222565b6000828152602081815260408083206001600160a01b038516845290915281205460ff1661015c576000838152602081815260408083206001600160a01b03861684529091529020805460ff191660011790556101143390565b6001600160a01b0316826001600160a01b0316847f2f8788117e7eff1d82e926ec794901d17c78024a50270940304540a733656f0d60405160405180910390a4506001610160565b5060005b92915050565b80516001600160a01b038116811461017d57600080fd5b919050565b600080828403608081121561019657600080fd5b61019f84610166565b92506060601f19820112156101b357600080fd5b50604051606081016001600160401b03811182821017156101e457634e487b7160e01b600052604160045260246000fd5b6040526101f360208501610166565b815261020160408501610166565b602082015261021260608501610166565b6040820152809150509250929050565b610f49806102316000396000f3fe608060405234801561001057600080fd5b50600436106101c45760003560e01c806386a06ff0116100f9578063cc1f071a11610097578063dbd5edc711610071578063dbd5edc7146103c7578063e4dd1dca146103d0578063fb914c39146103e3578063fc0c546a146103f657600080fd5b8063cc1f071a1461038c578063ccc574901461039f578063d547741f146103b457600080fd5b80639a19c7b0116100d35780639a19c7b014610357578063a217fddf1461036a578063b69ef8a814610372578063c634b78e1461037957600080fd5b806386a06ff01461031e57806391d14854146103315780639403e41f1461034457600080fd5b80634106d274116101665780634641257d116101405780634641257d146102605780634dd47eba146102ea57806381d3ce26146102fd578063866512031461031057600080fd5b80634106d274146102af57806344ee0605146102c257806345b817bb146102d557600080fd5b806328ed6e3f116101a257806328ed6e3f1461024d5780632f2ff15d14610262578063364bc15a1461027557806336568abe1461029c57600080fd5b806301ffc9a7146101c9578063117d8ae0146101f1578063248a9ca31461021c575b600080fd5b6101dc6101d7366004610dc3565b610409565b60405190151581526020015b60405180910390f35b600154610204906001600160a01b031681565b6040516001600160a01b0390911681526020016101e8565b61023f61022a366004610ded565b60009081526020819052604090206001015490565b6040519081526020016101e8565b61026061025b366004610ded565b610440565b005b610260610270366004610e22565b6104e9565b61023f7ffc8737ab85eb45125971625a9ebdb75cc78e01d5c1fa80c4c6e5203f47bc4fab81565b6102606102aa366004610e22565b610514565b6102606102bd366004610e4e565b61054c565b6102606102d0366004610e4e565b6105c5565b61023f600080516020610ed483398151915281565b6102606102f8366004610ded565b6105fc565b61026061030b366004610e4e565b610698565b6102606102d0366004610ded565b600454610204906001600160a01b031681565b6101dc61033f366004610e22565b6106fc565b610260610352366004610e4e565b610725565b610260610365366004610e4e565b610789565b61023f600081565b600061023f565b610260610387366004610e4e565b6107be565b61026061039a366004610e4e565b6107f3565b61023f600080516020610ef483398151915281565b6102606103c2366004610e22565b610865565b61023f60025481565b6102606103de366004610e4e565b61088a565b6102606103f1366004610e4e565b6108ee565b600354610204906001600160a01b031681565b60006001600160e01b03198216637965db0b60e01b148061043a57506301ffc9a760e01b6001600160e01b03198316145b92915050565b610458600080516020610ed4833981519152336106fc565b61047c57604051631564c0e160e11b81523360048201526024015b60405180910390fd5b600354610494906001600160a01b0316333084610952565b61049d816109b9565b600354604080516001600160a01b0390921682526020820183905233917fcbaa1442ac205415c9d69643e7b60ec73d1de35dbc807c21ec288c70ddc4207b91015b60405180910390a250565b60008281526020819052604090206001015461050481610a33565b61050e8383610a3d565b50505050565b6001600160a01b038116331461053d5760405163334bd91960e11b815260040160405180910390fd5b6105478282610acf565b505050565b6105576000336106fc565b15806105785750610576600080516020610ef4833981519152336106fc565b155b15610598576040516366ea5d8760e01b8152336004820152602401610473565b6105c27ffc8737ab85eb45125971625a9ebdb75cc78e01d5c1fa80c4c6e5203f47bc4fab826104e9565b50565b6105dd600080516020610ef4833981519152336106fc565b6105c257604051630ea7d7ed60e21b8152336004820152602401610473565b610614600080516020610ed4833981519152336106fc565b61063357604051631564c0e160e11b8152336004820152602401610473565b61063c81610b3a565b600354610653906001600160a01b03163383610bbf565b600354604080516001600160a01b0390921682526020820183905233917fd5e872c5ecfb1bb8820b2e6a20e31b883682282da886621541f71e31ec11947e91016104de565b6106a36000336106fc565b15806106c457506106c2600080516020610ef4833981519152336106fc565b155b156106e4576040516366ea5d8760e01b8152336004820152602401610473565b6105c2600080516020610ed483398151915282610865565b6000918252602082815260408084206001600160a01b0393909316845291905290205460ff1690565b6107306000336106fc565b1580610751575061074f600080516020610ef4833981519152336106fc565b155b15610771576040516366ea5d8760e01b8152336004820152602401610473565b6105c2600080516020610ed4833981519152826104e9565b6107946000336106fc565b6107b3576040516376660ab760e11b8152336004820152602401610473565b6105c2600082610865565b6107c96000336106fc565b6107e8576040516376660ab760e11b8152336004820152602401610473565b6105c26000826104e9565b6107fe6000336106fc565b158061081f575061081d600080516020610ef4833981519152336106fc565b155b1561083f576040516366ea5d8760e01b8152336004820152602401610473565b6105c27ffc8737ab85eb45125971625a9ebdb75cc78e01d5c1fa80c4c6e5203f47bc4fab825b60008281526020819052604090206001015461088081610a33565b61050e8383610acf565b6108956000336106fc565b15806108b657506108b4600080516020610ef4833981519152336106fc565b155b156108d6576040516366ea5d8760e01b8152336004820152602401610473565b6105c2600080516020610ef4833981519152826104e9565b6108f96000336106fc565b158061091a5750610918600080516020610ef4833981519152336106fc565b155b1561093a576040516366ea5d8760e01b8152336004820152602401610473565b6105c2600080516020610ef483398151915282610865565b6040516001600160a01b03848116602483015283811660448301526064820183905261050e9186918216906323b872dd906084015b604051602081830303815290604052915060e01b6020820180516001600160e01b038381831617835250505050610bf0565b6004805460035460405163617ba03760e01b81526001600160a01b03918216938101939093526024830184905230604484015260006064840152169063617ba03790608401600060405180830381600087803b158015610a1857600080fd5b505af1158015610a2c573d6000803e3d6000fd5b5050505050565b6105c28133610c53565b6000610a4983836106fc565b610ac7576000838152602081815260408083206001600160a01b03861684529091529020805460ff19166001179055610a7f3390565b6001600160a01b0316826001600160a01b0316847f2f8788117e7eff1d82e926ec794901d17c78024a50270940304540a733656f0d60405160405180910390a450600161043a565b50600061043a565b6000610adb83836106fc565b15610ac7576000838152602081815260408083206001600160a01b0386168085529252808320805460ff1916905551339286917ff6391f5c32d9c69d2a47ea670b442974b53935d1edc7fd64eb21e047a839171b9190a450600161043a565b60048054600354604051631a4ca37b60e21b81526001600160a01b03918216938101939093526024830184905233604484015216906369328dec906064016020604051808303816000875af1158015610b97573d6000803e3d6000fd5b505050506040513d601f19601f82011682018060405250810190610bbb9190610e69565b5050565b6040516001600160a01b0383811660248301526044820183905261054791859182169063a9059cbb90606401610987565b6000610c056001600160a01b03841683610c8c565b90508051600014158015610c2a575080806020019051810190610c289190610e82565b155b1561054757604051635274afe760e01b81526001600160a01b0384166004820152602401610473565b610c5d82826106fc565b610bbb5760405163e2517d3f60e01b81526001600160a01b038216600482015260248101839052604401610473565b6060610c9a83836000610ca1565b9392505050565b606081471015610cc65760405163cd78605960e01b8152306004820152602401610473565b600080856001600160a01b03168486604051610ce29190610ea4565b60006040518083038185875af1925050503d8060008114610d1f576040519150601f19603f3d011682016040523d82523d6000602084013e610d24565b606091505b5091509150610d34868383610d3e565b9695505050505050565b606082610d5357610d4e82610d9a565b610c9a565b8151158015610d6a57506001600160a01b0384163b155b15610d9357604051639996b31560e01b81526001600160a01b0385166004820152602401610473565b5080610c9a565b805115610daa5780518082602001fd5b604051630a12f52160e11b815260040160405180910390fd5b600060208284031215610dd557600080fd5b81356001600160e01b031981168114610c9a57600080fd5b600060208284031215610dff57600080fd5b5035919050565b80356001600160a01b0381168114610e1d57600080fd5b919050565b60008060408385031215610e3557600080fd5b82359150610e4560208401610e06565b90509250929050565b600060208284031215610e6057600080fd5b610c9a82610e06565b600060208284031215610e7b57600080fd5b5051919050565b600060208284031215610e9457600080fd5b81518015158114610c9a57600080fd5b6000825160005b81811015610ec55760208186018101518583015201610eab565b50600092019182525091905056fe4d30e780ddaa8d94b73282aef7f15ebc8bd13895bbcc2ae410396cabb542d27c7935bd0ae54bc31f548c14dba4d37c5c64b3f8ca900cb468fb8abd54d5894f55a2646970667358221220113a74a6688f5b1ab494635e096a80e885d1212d6b585df022eb9634bf48095b64736f6c634300081a00337935bd0ae54bc31f548c14dba4d37c5c64b3f8ca900cb468fb8abd54d5894f55a26469706673582212209d99ebd38b574a3619bbab3db4dcec04cd1f610c39093a4a08f66eaaa6c54f5764736f6c634300081a0033","linkReferences":{}},"methodIdentifiers":{"COMMANDER_ROLE()":"45b817bb","DEFAULT_ADMIN_ROLE()":"a217fddf","GOVERNOR_ROLE()":"ccc57490","KEEPER_ROLE()":"364bc15a","aaveV3Pool()":"86a06ff0","createAaveV3Ark(address)":"ff6e151b","getRoleAdmin(bytes32)":"248a9ca3","governor()":"0c340a24","grantAdminRole(address)":"c634b78e","grantCommanderRole(address)":"9403e41f","grantGovernorRole(address)":"e4dd1dca","grantKeeperRole(address)":"4106d274","grantRole(bytes32,address)":"2f2ff15d","hasRole(bytes32,address)":"91d14854","raft()":"117d8ae0","renounceRole(bytes32,address)":"36568abe","revokeAdminRole(address)":"9a19c7b0","revokeCommanderRole(address)":"81d3ce26","revokeGovernorRole(address)":"fb914c39","revokeKeeperRole(address)":"cc1f071a","revokeRole(bytes32,address)":"d547741f","setGovernor(address)":"c42cf535","setRaft(address)":"44ee0605","supportsInterface(bytes4)":"01ffc9a7"},"id":41}