{"abi":[{"type":"constructor","inputs":[{"name":"_accessManager","type":"address","internalType":"address"},{"name":"_fleetCommander","type":"address","internalType":"address"}],"stateMutability":"nonpayable"},{"type":"function","name":"balanceOf","inputs":[{"name":"account","type":"address","internalType":"address"}],"outputs":[{"name":"","type":"uint256","internalType":"uint256"}],"stateMutability":"view"},{"type":"function","name":"earned","inputs":[{"name":"account","type":"address","internalType":"address"},{"name":"rewardToken","type":"address","internalType":"contract IERC20"}],"outputs":[{"name":"","type":"uint256","internalType":"uint256"}],"stateMutability":"view"},{"type":"function","name":"exit","inputs":[],"outputs":[],"stateMutability":"nonpayable"},{"type":"function","name":"fleetCommander","inputs":[],"outputs":[{"name":"","type":"address","internalType":"address"}],"stateMutability":"view"},{"type":"function","name":"generateRole","inputs":[{"name":"roleName","type":"uint8","internalType":"enum ContractSpecificRoles"},{"name":"roleTargetContract","type":"address","internalType":"address"}],"outputs":[{"name":"","type":"bytes32","internalType":"bytes32"}],"stateMutability":"pure"},{"type":"function","name":"getReward","inputs":[],"outputs":[],"stateMutability":"nonpayable"},{"type":"function","name":"getRewardForDuration","inputs":[{"name":"rewardToken","type":"address","internalType":"contract IERC20"}],"outputs":[{"name":"","type":"uint256","internalType":"uint256"}],"stateMutability":"view"},{"type":"function","name":"hasAdmiralsQuartersRole","inputs":[{"name":"account","type":"address","internalType":"address"}],"outputs":[{"name":"","type":"bool","internalType":"bool"}],"stateMutability":"view"},{"type":"function","name":"lastTimeRewardApplicable","inputs":[{"name":"rewardToken","type":"address","internalType":"contract IERC20"}],"outputs":[{"name":"","type":"uint256","internalType":"uint256"}],"stateMutability":"view"},{"type":"function","name":"notifyRewardAmount","inputs":[{"name":"rewardToken","type":"address","internalType":"contract IERC20"},{"name":"reward","type":"uint256","internalType":"uint256"},{"name":"newRewardsDuration","type":"uint256","internalType":"uint256"}],"outputs":[],"stateMutability":"nonpayable"},{"type":"function","name":"removeRewardToken","inputs":[{"name":"rewardToken","type":"address","internalType":"contract IERC20"}],"outputs":[],"stateMutability":"nonpayable"},{"type":"function","name":"rewardData","inputs":[{"name":"rewardToken","type":"address","internalType":"contract IERC20"}],"outputs":[{"name":"periodFinish","type":"uint256","internalType":"uint256"},{"name":"rewardRate","type":"uint256","internalType":"uint256"},{"name":"rewardsDuration","type":"uint256","internalType":"uint256"},{"name":"lastUpdateTime","type":"uint256","internalType":"uint256"},{"name":"rewardPerTokenStored","type":"uint256","internalType":"uint256"}],"stateMutability":"view"},{"type":"function","name":"rewardPerToken","inputs":[{"name":"rewardToken","type":"address","internalType":"contract IERC20"}],"outputs":[{"name":"","type":"uint256","internalType":"uint256"}],"stateMutability":"view"},{"type":"function","name":"rewardTokens","inputs":[{"name":"index","type":"uint256","internalType":"uint256"}],"outputs":[{"name":"","type":"address","internalType":"contract IERC20"}],"stateMutability":"view"},{"type":"function","name":"rewards","inputs":[{"name":"rewardToken","type":"address","internalType":"contract IERC20"},{"name":"account","type":"address","internalType":"address"}],"outputs":[{"name":"rewardAmount","type":"uint256","internalType":"uint256"}],"stateMutability":"view"},{"type":"function","name":"setRewardsDuration","inputs":[{"name":"rewardToken","type":"address","internalType":"contract IERC20"},{"name":"_rewardsDuration","type":"uint256","internalType":"uint256"}],"outputs":[],"stateMutability":"nonpayable"},{"type":"function","name":"stake","inputs":[{"name":"amount","type":"uint256","internalType":"uint256"}],"outputs":[],"stateMutability":"nonpayable"},{"type":"function","name":"stakeOnBehalfOf","inputs":[{"name":"receiver","type":"address","internalType":"address"},{"name":"amount","type":"uint256","internalType":"uint256"}],"outputs":[],"stateMutability":"nonpayable"},{"type":"function","name":"stakingToken","inputs":[],"outputs":[{"name":"","type":"address","internalType":"contract IERC20"}],"stateMutability":"view"},{"type":"function","name":"totalSupply","inputs":[],"outputs":[{"name":"","type":"uint256","internalType":"uint256"}],"stateMutability":"view"},{"type":"function","name":"unstake","inputs":[{"name":"amount","type":"uint256","internalType":"uint256"}],"outputs":[],"stateMutability":"nonpayable"},{"type":"function","name":"unstakeOnBehalfOf","inputs":[{"name":"from","type":"address","internalType":"address"},{"name":"receiver","type":"address","internalType":"address"},{"name":"amount","type":"uint256","internalType":"uint256"}],"outputs":[],"stateMutability":"nonpayable"},{"type":"function","name":"userRewardPerTokenPaid","inputs":[{"name":"rewardToken","type":"address","internalType":"contract IERC20"},{"name":"account","type":"address","internalType":"address"}],"outputs":[{"name":"rewardPerTokenPaid","type":"uint256","internalType":"uint256"}],"stateMutability":"view"},{"type":"event","name":"RewardAdded","inputs":[{"name":"rewardToken","type":"address","indexed":true,"internalType":"address"},{"name":"reward","type":"uint256","indexed":false,"internalType":"uint256"}],"anonymous":false},{"type":"event","name":"RewardPaid","inputs":[{"name":"user","type":"address","indexed":true,"internalType":"address"},{"name":"rewardToken","type":"address","indexed":true,"internalType":"address"},{"name":"reward","type":"uint256","indexed":false,"internalType":"uint256"}],"anonymous":false},{"type":"event","name":"RewardTokenAdded","inputs":[{"name":"rewardToken","type":"address","indexed":false,"internalType":"address"},{"name":"rewardsDuration","type":"uint256","indexed":false,"internalType":"uint256"}],"anonymous":false},{"type":"event","name":"RewardTokenRemoved","inputs":[{"name":"rewardToken","type":"address","indexed":false,"internalType":"address"}],"anonymous":false},{"type":"event","name":"RewardsDurationUpdated","inputs":[{"name":"rewardToken","type":"address","indexed":true,"internalType":"address"},{"name":"newDuration","type":"uint256","indexed":false,"internalType":"uint256"}],"anonymous":false},{"type":"event","name":"Staked","inputs":[{"name":"account","type":"address","indexed":true,"internalType":"address"},{"name":"amount","type":"uint256","indexed":false,"internalType":"uint256"}],"anonymous":false},{"type":"event","name":"StakingTokenInitialized","inputs":[{"name":"stakingToken","type":"address","indexed":false,"internalType":"address"}],"anonymous":false},{"type":"event","name":"Unstaked","inputs":[{"name":"account","type":"address","indexed":true,"internalType":"address"},{"name":"amount","type":"uint256","indexed":false,"internalType":"uint256"}],"anonymous":false},{"type":"event","name":"Withdrawn","inputs":[{"name":"user","type":"address","indexed":true,"internalType":"address"},{"name":"amount","type":"uint256","indexed":false,"internalType":"uint256"}],"anonymous":false},{"type":"error","name":"CallerIsNotAdmin","inputs":[{"name":"caller","type":"address","internalType":"address"}]},{"type":"error","name":"CallerIsNotAuthorizedToBoard","inputs":[{"name":"caller","type":"address","internalType":"address"}]},{"type":"error","name":"CallerIsNotCommander","inputs":[{"name":"caller","type":"address","internalType":"address"}]},{"type":"error","name":"CallerIsNotContractSpecificRole","inputs":[{"name":"caller","type":"address","internalType":"address"},{"name":"role","type":"bytes32","internalType":"bytes32"}]},{"type":"error","name":"CallerIsNotCurator","inputs":[{"name":"caller","type":"address","internalType":"address"}]},{"type":"error","name":"CallerIsNotDecayController","inputs":[{"name":"caller","type":"address","internalType":"address"}]},{"type":"error","name":"CallerIsNotGovernor","inputs":[{"name":"caller","type":"address","internalType":"address"}]},{"type":"error","name":"CallerIsNotGuardian","inputs":[{"name":"caller","type":"address","internalType":"address"}]},{"type":"error","name":"CallerIsNotGuardianOrGovernor","inputs":[{"name":"caller","type":"address","internalType":"address"}]},{"type":"error","name":"CallerIsNotKeeper","inputs":[{"name":"caller","type":"address","internalType":"address"}]},{"type":"error","name":"CallerIsNotRaft","inputs":[{"name":"caller","type":"address","internalType":"address"}]},{"type":"error","name":"CallerIsNotRaftOrCommander","inputs":[{"name":"caller","type":"address","internalType":"address"}]},{"type":"error","name":"CallerIsNotSuperKeeper","inputs":[{"name":"caller","type":"address","internalType":"address"}]},{"type":"error","name":"CallerNotAdmiralsQuarters","inputs":[]},{"type":"error","name":"CannotChangeRewardsDuration","inputs":[]},{"type":"error","name":"CannotStakeZero","inputs":[]},{"type":"error","name":"CannotUnstakeZero","inputs":[]},{"type":"error","name":"CannotWithdrawZero","inputs":[]},{"type":"error","name":"DirectGrantIsDisabled","inputs":[{"name":"caller","type":"address","internalType":"address"}]},{"type":"error","name":"DirectRevokeIsDisabled","inputs":[{"name":"caller","type":"address","internalType":"address"}]},{"type":"error","name":"IndexOutOfBounds","inputs":[]},{"type":"error","name":"InvalidAccessManagerAddress","inputs":[{"name":"invalidAddress","type":"address","internalType":"address"}]},{"type":"error","name":"InvalidRewardAmount","inputs":[{"name":"rewardToken","type":"address","internalType":"address"},{"name":"rewardsDuration","type":"uint256","internalType":"uint256"}]},{"type":"error","name":"InvalidRewardsDuration","inputs":[]},{"type":"error","name":"InvalidUnstakeRecipient","inputs":[]},{"type":"error","name":"NoRewardTokens","inputs":[]},{"type":"error","name":"ProvidedRewardTooHigh","inputs":[]},{"type":"error","name":"ReentrancyGuardReentrantCall","inputs":[]},{"type":"error","name":"RewardPeriodNotComplete","inputs":[]},{"type":"error","name":"RewardTokenAlreadyExists","inputs":[]},{"type":"error","name":"RewardTokenDoesNotExist","inputs":[]},{"type":"error","name":"RewardTokenNotInitialized","inputs":[]},{"type":"error","name":"RewardTokenStillHasBalance","inputs":[{"name":"balance","type":"uint256","internalType":"uint256"}]},{"type":"error","name":"RewardsDurationCannotBeZero","inputs":[]},{"type":"error","name":"SafeERC20FailedOperation","inputs":[{"name":"token","type":"address","internalType":"address"}]},{"type":"error","name":"StakingTokenNotInitialized","inputs":[]}],"bytecode":{"object":"0x608060405234801561000f575f5ffd5b5060405161198c38038061198c83398101604081905261002e916101a0565b81806001600160a01b03811661005e576040516347bd7c1d60e01b81525f60048201526024015b60405180910390fd5b6040516301ffc9a760e01b81526338c7ccdb60e01b60048201526001600160a01b038216906301ffc9a790602401602060405180830381865afa1580156100a7573d5f5f3e3d5ffd5b505050506040513d601f19601f820116820180604052508101906100cb91906101d1565b6100f3576040516347bd7c1d60e01b81526001600160a01b0382166004820152602401610055565b5f80546001600160a01b039283166001600160a01b03199182161790915560098054928516929091168217905561012a9150610131565b50506101f7565b600380546001600160a01b0319166001600160a01b0383169081179091556040519081527ffbed9b88bd11cf6ebffbe6fe489ac5bf7a88b31de62cf9bbc5e63e6eb01760039060200160405180910390a150565b80516001600160a01b038116811461019b575f5ffd5b919050565b5f5f604083850312156101b1575f5ffd5b6101ba83610185565b91506101c860208401610185565b90509250929050565b5f602082840312156101e1575f5ffd5b815180151581146101f0575f5ffd5b9392505050565b611788806102045f395ff3fe608060405234801561000f575f5ffd5b5060043610610148575f3560e01c806372f702f3116100bf578063cecc238f11610079578063cecc238f14610325578063e24bf4fe14610338578063e70b9e271461034b578063e9fad8ee14610375578063ebc136d01461037d578063f1229777146103a0575f5ffd5b806372f702f31461029b5780637bb7bed1146102c6578063a3cd8ac4146102d9578063a694fc3a146102ec578063bcd11014146102ff578063c7ec362314610312575f5ffd5b80633d509c97116101105780633d509c97146101ab57806348e5d9f8146101be578063638634ee1461022357806369b3054b146102365780637035ab981461024957806370a0823114610273575f5ffd5b806318160ddd1461014c578063211dc32d146101685780632378bea61461017b5780632e17de78146101905780633d18b912146101a3575b5f5ffd5b61015560075481565b6040519081526020015b60405180910390f35b61015561017636600461151f565b6103b3565b61018e610189366004611556565b6103c7565b005b61018e61019e366004611580565b610545565b61018e61055e565b61018e6101b9366004611597565b61064b565b6101fb6101cc366004611597565b600460208190525f91825260409091208054600182015460028301546003840154939094015491939092909185565b604080519586526020860194909452928401919091526060830152608082015260a00161015f565b610155610231366004611597565b6108b6565b6101556102443660046115b2565b6108f8565b61015561025736600461151f565b600560209081525f928352604080842090915290825290205481565b610155610281366004611597565b6001600160a01b03165f9081526008602052604090205490565b6003546102ae906001600160a01b031681565b6040516001600160a01b03909116815260200161015f565b6102ae6102d4366004611580565b61092a565b61018e6102e73660046115d1565b610967565b61018e6102fa366004611580565b610c9b565b61015561030d366004611597565b610cb0565b61018e610320366004611603565b610cdc565b61018e610333366004611556565b610d2d565b6009546102ae906001600160a01b031681565b61015561035936600461151f565b600660209081525f928352604080842090915290825290205481565b61018e610d38565b61039061038b366004611597565b610d5b565b604051901515815260200161015f565b6101556103ae366004611597565b610e3c565b5f6103be8383610ee9565b90505b92915050565b5f5460408051630ccc574960e41b815290516001600160a01b03909216916391d1485491839163ccc57490916004808201926020929091908290030181865afa158015610416573d5f5f3e3d5ffd5b505050506040513d601f19601f8201168201806040525081019061043a9190611641565b6040516001600160e01b031960e084901b1681526004810191909152336024820152604401602060405180830381865afa15801561047a573d5f5f3e3d5ffd5b505050506040513d601f19601f8201168201806040525081019061049e9190611658565b6104c257604051630ea7d7ed60e21b81523360048201526024015b60405180910390fd5b6001600160a01b0382165f908152600460205260409020805442116104fa5760405163d9ba1add60e01b815260040160405180910390fd5b600281018290556040518281526001600160a01b038416907fad2f86b01ed93b4b3a150d448c61a4f5d8d38075d3c0c64cc0a26fd6e1f49545906020015b60405180910390a2505050565b3361054f81610f78565b61055a33338461103d565b5050565b6105666110f1565b3361057081610f78565b5f61057b600161115e565b90505f5b8181101561063e575f610593600183611167565b6001600160a01b0381165f90815260066020908152604080832033845290915290205490915081908015610633576001600160a01b0382165f8181526006602090815260408083203380855292528220919091556105f2919083611172565b6040518181526001600160a01b0383169033907f540798df468d7b23d11f156fdb954cb19ad414d150722a7b6d55ba369dea792e9060200160405180910390a35b50505060010161057f565b5050506106496111d1565b565b5f5460408051630ccc574960e41b815290516001600160a01b03909216916391d1485491839163ccc57490916004808201926020929091908290030181865afa15801561069a573d5f5f3e3d5ffd5b505050506040513d601f19601f820116820180604052508101906106be9190611641565b6040516001600160e01b031960e084901b1681526004810191909152336024820152604401602060405180830381865afa1580156106fe573d5f5f3e3d5ffd5b505050506040513d601f19601f820116820180604052508101906107229190611658565b61074157604051630ea7d7ed60e21b81523360048201526024016104b9565b6001600160a01b0381165f90815260046020526040812060020154900361077b5760405163064fed9960e31b815260040160405180910390fd5b6001600160a01b0381165f9081526004602052604090205442116107b25760405163d9ba1add60e01b815260040160405180910390fd5b6040516370a0823160e01b81523060048201525f906001600160a01b038316906370a0823190602401602060405180830381865afa1580156107f6573d5f5f3e3d5ffd5b505050506040513d601f19601f8201168201806040525081019061081a9190611641565b9050801561083e57604051633007cea360e01b8152600481018290526024016104b9565b6108496001836111fb565b506001600160a01b0382165f81815260046020818152604080842084815560018101859055600281018590556003810185905590920192909255519182527f66257bcef574219c04f7c05f7a1c78d599da10491294c92a5805c48b4cdf5009910160405180910390a15050565b6001600160a01b0381165f9081526004602052604081205442106108f1576001600160a01b0382165f908152600460205260409020546103c1565b4292915050565b5f828260405160200161090c929190611677565b60405160208183030381529060405280519060200120905092915050565b5f610935600161115e565b821061095457604051634e23d03560e01b815260040160405180910390fd5b5f610960600184611167565b9392505050565b5f5460408051630ccc574960e41b815290516001600160a01b03909216916391d1485491839163ccc57490916004808201926020929091908290030181865afa1580156109b6573d5f5f3e3d5ffd5b505050506040513d601f19601f820116820180604052508101906109da9190611641565b6040516001600160e01b031960e084901b1681526004810191909152336024820152604401602060405180830381865afa158015610a1a573d5f5f3e3d5ffd5b505050506040513d601f19601f82011682018060405250810190610a3e9190611658565b610a5d57604051630ea7d7ed60e21b81523360048201526024016104b9565b5f610a6781610f78565b6001600160a01b0384165f9081526004602052604081206002810154909103610b0757825f03610aad5760405160016203036160e11b0319815260040160405180910390fd5b610ab860018661120f565b5060028101839055604080516001600160a01b0387168152602081018590527f68e3e9397770d9dfa88c0953a34e1a70a05416b3895957f5b689787a920791c4910160405180910390a1610b38565b5f83118015610b1a575080600201548314155b15610b38576040516333fec8c760e21b815260040160405180910390fd5b80544210610b59576002810154610b4f90856116ce565b6001820155610b9f565b80545f90610b689042906116ed565b90505f826001015482610b7b9190611700565b6002840154909150610b8d8288611717565b610b9791906116ce565b600184015550505b6040516370a0823160e01b81523060048201525f906001600160a01b038716906370a0823190602401602060405180830381865afa158015610be3573d5f5f3e3d5ffd5b505050506040513d601f19601f82011682018060405250810190610c079190611641565b9050816002015481610c1991906116ce565b82600101541115610c3d5760405163010ee96f60e31b815260040160405180910390fd5b42600383018190556002830154610c5391611717565b82556040518581526001600160a01b038716907fac24935fd910bc682b5ccb1a07b718cadf8cf2f6d1404c4f3ddc3662dae40e299060200160405180910390a2505050505050565b33610ca581610f78565b61055a333384611223565b6001600160a01b0381165f90815260046020526040812060028101546001909101546103c19190611700565b6001600160a01b0383163303610cfc57610cf783838361103d565b505050565b610d0533610d5b565b610d2257604051638e866cef60e01b815260040160405180910390fd5b610cf783838361103d565b61055a338383611223565b610d4061055e565b335f818152600860205260409020546106499190819061103d565b5f80546040805163a89f38a360e01b815290516001600160a01b03909216916391d1485491839163a89f38a3916004808201926020929091908290030181865afa158015610dab573d5f5f3e3d5ffd5b505050506040513d601f19601f82011682018060405250810190610dcf9190611641565b6040516001600160e01b031960e084901b16815260048101919091526001600160a01b0385166024820152604401602060405180830381865afa158015610e18573d5f5f3e3d5ffd5b505050506040513d601f19601f820116820180604052508101906103c19190611658565b5f6007545f03610e6557506001600160a01b03165f908152600460208190526040909120015490565b6007546001600160a01b0383165f9081526004602052604090206001810154600390910154610e93856108b6565b610e9d91906116ed565b610ea79190611700565b610eb990670de0b6b3a7640000611700565b610ec391906116ce565b6001600160a01b0383165f90815260046020819052604090912001546103c19190611717565b6001600160a01b038082165f818152600660209081526040808320948716808452948252808320549383526005825280832094835293905291822054670de0b6b3a764000090610f3885610e3c565b610f4291906116ed565b6001600160a01b0386165f90815260086020526040902054610f649190611700565b610f6e91906116ce565b6103be9190611717565b5f610f83600161115e565b90505f5b81811015610cf7575f610f9b600183611167565b6001600160a01b0381165f9081526004602052604090209091508190610fc082610e3c565b6004820155610fce826108b6565b60038201556001600160a01b0386161561103257610fec86836103b3565b6001600160a01b038084165f818152600660209081526040808320948c168084529482528083209590955560048601549282526005815284822093825292909252919020555b505050600101610f87565b805f0361105d576040516310356e5960e21b815260040160405180910390fd5b8060075f82825461106e91906116ed565b90915550506001600160a01b0383165f908152600860205260408120805483929061109a9084906116ed565b90915550506003546110b6906001600160a01b03168383611172565b826001600160a01b03167f0f5bb82176feb1b5e747e28471aa92156a04d9f3ab9f45f28e2d704232b93f758260405161053891815260200190565b7f9b779b17422d0df92223018b32b4d1fa46e071723d6817e2486d003becc55f005c1561113157604051633ee5aeb560e01b815260040160405180910390fd5b61064960017f9b779b17422d0df92223018b32b4d1fa46e071723d6817e2486d003becc55f005b90611301565b5f6103c1825490565b5f6103be8383611308565b6040516001600160a01b03838116602483015260448201839052610cf791859182169063a9059cbb906064015b604051602081830303815290604052915060e01b6020820180516001600160e01b03838183161783525050505061132e565b6106495f7f9b779b17422d0df92223018b32b4d1fa46e071723d6817e2486d003becc55f00611158565b5f6103be836001600160a01b0384166113a0565b5f6103be836001600160a01b038416611483565b805f0361124357604051636a76ff9f60e01b815260040160405180910390fd5b6003546001600160a01b031661126c5760405163417198d360e01b815260040160405180910390fd5b8060075f82825461127d9190611717565b90915550506001600160a01b0382165f90815260086020526040812080548392906112a9908490611717565b90915550506003546112c6906001600160a01b03168430846114cf565b816001600160a01b03167f9e71bc8eea02a63969f509818f2dafb9254532904319f9dbda79b67bd34a5f3d8260405161053891815260200190565b80825d5050565b5f825f01828154811061131d5761131d61172a565b905f5260205f200154905092915050565b5f5f60205f8451602086015f885af18061134d576040513d5f823e3d81fd5b50505f513d91508115611364578060011415611371565b6001600160a01b0384163b155b1561139a57604051635274afe760e01b81526001600160a01b03851660048201526024016104b9565b50505050565b5f818152600183016020526040812054801561147a575f6113c26001836116ed565b85549091505f906113d5906001906116ed565b9050808214611434575f865f0182815481106113f3576113f361172a565b905f5260205f200154905080875f0184815481106114135761141361172a565b5f918252602080832090910192909255918252600188019052604090208390555b85548690806114455761144561173e565b600190038181905f5260205f20015f90559055856001015f8681526020019081526020015f205f9055600193505050506103c1565b5f9150506103c1565b5f8181526001830160205260408120546114c857508154600181810184555f8481526020808220909301849055845484825282860190935260409020919091556103c1565b505f6103c1565b6040516001600160a01b03848116602483015283811660448301526064820183905261139a9186918216906323b872dd9060840161119f565b6001600160a01b038116811461151c575f5ffd5b50565b5f5f60408385031215611530575f5ffd5b823561153b81611508565b9150602083013561154b81611508565b809150509250929050565b5f5f60408385031215611567575f5ffd5b823561157281611508565b946020939093013593505050565b5f60208284031215611590575f5ffd5b5035919050565b5f602082840312156115a7575f5ffd5b813561096081611508565b5f5f604083850312156115c3575f5ffd5b82356003811061153b575f5ffd5b5f5f5f606084860312156115e3575f5ffd5b83356115ee81611508565b95602085013595506040909401359392505050565b5f5f5f60608486031215611615575f5ffd5b833561162081611508565b9250602084013561163081611508565b929592945050506040919091013590565b5f60208284031215611651575f5ffd5b5051919050565b5f60208284031215611668575f5ffd5b81518015158114610960575f5ffd5b5f6003841061169457634e487b7160e01b5f52602160045260245ffd5b5060f89290921b825260601b6bffffffffffffffffffffffff1916600182015260150190565b634e487b7160e01b5f52601160045260245ffd5b5f826116e857634e487b7160e01b5f52601260045260245ffd5b500490565b818103818111156103c1576103c16116ba565b80820281158282048414176103c1576103c16116ba565b808201808211156103c1576103c16116ba565b634e487b7160e01b5f52603260045260245ffd5b634e487b7160e01b5f52603160045260245ffdfea26469706673582212205e8f9c3a7c938757c362950328685dd18412b74a906b497da87e7d6b04b794f464736f6c634300081c0033","linkReferences":{}},"methodIdentifiers":{"balanceOf(address)":"70a08231","earned(address,address)":"211dc32d","exit()":"e9fad8ee","fleetCommander()":"e24bf4fe","generateRole(uint8,address)":"69b3054b","getReward()":"3d18b912","getRewardForDuration(address)":"bcd11014","hasAdmiralsQuartersRole(address)":"ebc136d0","lastTimeRewardApplicable(address)":"638634ee","notifyRewardAmount(address,uint256,uint256)":"a3cd8ac4","removeRewardToken(address)":"3d509c97","rewardData(address)":"48e5d9f8","rewardPerToken(address)":"f1229777","rewardTokens(uint256)":"7bb7bed1","rewards(address,address)":"e70b9e27","setRewardsDuration(address,uint256)":"2378bea6","stake(uint256)":"a694fc3a","stakeOnBehalfOf(address,uint256)":"cecc238f","stakingToken()":"72f702f3","totalSupply()":"18160ddd","unstake(uint256)":"2e17de78","unstakeOnBehalfOf(address,address,uint256)":"c7ec3623","userRewardPerTokenPaid(address,address)":"7035ab98"},"id":199}