{"abi":[{"type":"constructor","inputs":[{"name":"underlying","type":"address","internalType":"address"}],"stateMutability":"nonpayable"},{"type":"function","name":"allowance","inputs":[{"name":"owner","type":"address","internalType":"address"},{"name":"spender","type":"address","internalType":"address"}],"outputs":[{"name":"","type":"uint256","internalType":"uint256"}],"stateMutability":"view"},{"type":"function","name":"approve","inputs":[{"name":"spender","type":"address","internalType":"address"},{"name":"value","type":"uint256","internalType":"uint256"}],"outputs":[{"name":"","type":"bool","internalType":"bool"}],"stateMutability":"nonpayable"},{"type":"function","name":"asset","inputs":[],"outputs":[{"name":"","type":"address","internalType":"address"}],"stateMutability":"view"},{"type":"function","name":"balanceOf","inputs":[{"name":"account","type":"address","internalType":"address"}],"outputs":[{"name":"","type":"uint256","internalType":"uint256"}],"stateMutability":"view"},{"type":"function","name":"burn","inputs":[{"name":"account","type":"address","internalType":"address"},{"name":"amount","type":"uint256","internalType":"uint256"}],"outputs":[],"stateMutability":"nonpayable"},{"type":"function","name":"convertToAssets","inputs":[{"name":"shares","type":"uint256","internalType":"uint256"}],"outputs":[{"name":"","type":"uint256","internalType":"uint256"}],"stateMutability":"view"},{"type":"function","name":"convertToShares","inputs":[{"name":"assets","type":"uint256","internalType":"uint256"}],"outputs":[{"name":"","type":"uint256","internalType":"uint256"}],"stateMutability":"view"},{"type":"function","name":"decimals","inputs":[],"outputs":[{"name":"","type":"uint8","internalType":"uint8"}],"stateMutability":"view"},{"type":"function","name":"deposit","inputs":[{"name":"assets","type":"uint256","internalType":"uint256"},{"name":"receiver","type":"address","internalType":"address"}],"outputs":[{"name":"","type":"uint256","internalType":"uint256"}],"stateMutability":"nonpayable"},{"type":"function","name":"maxDeposit","inputs":[{"name":"","type":"address","internalType":"address"}],"outputs":[{"name":"","type":"uint256","internalType":"uint256"}],"stateMutability":"view"},{"type":"function","name":"maxMint","inputs":[{"name":"","type":"address","internalType":"address"}],"outputs":[{"name":"","type":"uint256","internalType":"uint256"}],"stateMutability":"view"},{"type":"function","name":"maxRedeem","inputs":[{"name":"owner","type":"address","internalType":"address"}],"outputs":[{"name":"","type":"uint256","internalType":"uint256"}],"stateMutability":"view"},{"type":"function","name":"maxWithdraw","inputs":[{"name":"owner","type":"address","internalType":"address"}],"outputs":[{"name":"","type":"uint256","internalType":"uint256"}],"stateMutability":"view"},{"type":"function","name":"mint","inputs":[{"name":"account","type":"address","internalType":"address"},{"name":"amount","type":"uint256","internalType":"uint256"}],"outputs":[],"stateMutability":"nonpayable"},{"type":"function","name":"mint","inputs":[{"name":"shares","type":"uint256","internalType":"uint256"},{"name":"receiver","type":"address","internalType":"address"}],"outputs":[{"name":"","type":"uint256","internalType":"uint256"}],"stateMutability":"nonpayable"},{"type":"function","name":"name","inputs":[],"outputs":[{"name":"","type":"string","internalType":"string"}],"stateMutability":"view"},{"type":"function","name":"previewDeposit","inputs":[{"name":"assets","type":"uint256","internalType":"uint256"}],"outputs":[{"name":"","type":"uint256","internalType":"uint256"}],"stateMutability":"view"},{"type":"function","name":"previewMint","inputs":[{"name":"shares","type":"uint256","internalType":"uint256"}],"outputs":[{"name":"","type":"uint256","internalType":"uint256"}],"stateMutability":"view"},{"type":"function","name":"previewRedeem","inputs":[{"name":"shares","type":"uint256","internalType":"uint256"}],"outputs":[{"name":"","type":"uint256","internalType":"uint256"}],"stateMutability":"view"},{"type":"function","name":"previewWithdraw","inputs":[{"name":"assets","type":"uint256","internalType":"uint256"}],"outputs":[{"name":"","type":"uint256","internalType":"uint256"}],"stateMutability":"view"},{"type":"function","name":"redeem","inputs":[{"name":"shares","type":"uint256","internalType":"uint256"},{"name":"receiver","type":"address","internalType":"address"},{"name":"owner","type":"address","internalType":"address"}],"outputs":[{"name":"","type":"uint256","internalType":"uint256"}],"stateMutability":"nonpayable"},{"type":"function","name":"symbol","inputs":[],"outputs":[{"name":"","type":"string","internalType":"string"}],"stateMutability":"view"},{"type":"function","name":"totalAssets","inputs":[],"outputs":[{"name":"","type":"uint256","internalType":"uint256"}],"stateMutability":"view"},{"type":"function","name":"totalSupply","inputs":[],"outputs":[{"name":"","type":"uint256","internalType":"uint256"}],"stateMutability":"view"},{"type":"function","name":"transfer","inputs":[{"name":"to","type":"address","internalType":"address"},{"name":"value","type":"uint256","internalType":"uint256"}],"outputs":[{"name":"","type":"bool","internalType":"bool"}],"stateMutability":"nonpayable"},{"type":"function","name":"transferFrom","inputs":[{"name":"from","type":"address","internalType":"address"},{"name":"to","type":"address","internalType":"address"},{"name":"value","type":"uint256","internalType":"uint256"}],"outputs":[{"name":"","type":"bool","internalType":"bool"}],"stateMutability":"nonpayable"},{"type":"function","name":"withdraw","inputs":[{"name":"assets","type":"uint256","internalType":"uint256"},{"name":"receiver","type":"address","internalType":"address"},{"name":"owner","type":"address","internalType":"address"}],"outputs":[{"name":"","type":"uint256","internalType":"uint256"}],"stateMutability":"nonpayable"},{"type":"event","name":"Approval","inputs":[{"name":"owner","type":"address","indexed":true,"internalType":"address"},{"name":"spender","type":"address","indexed":true,"internalType":"address"},{"name":"value","type":"uint256","indexed":false,"internalType":"uint256"}],"anonymous":false},{"type":"event","name":"Deposit","inputs":[{"name":"sender","type":"address","indexed":true,"internalType":"address"},{"name":"owner","type":"address","indexed":true,"internalType":"address"},{"name":"assets","type":"uint256","indexed":false,"internalType":"uint256"},{"name":"shares","type":"uint256","indexed":false,"internalType":"uint256"}],"anonymous":false},{"type":"event","name":"Transfer","inputs":[{"name":"from","type":"address","indexed":true,"internalType":"address"},{"name":"to","type":"address","indexed":true,"internalType":"address"},{"name":"value","type":"uint256","indexed":false,"internalType":"uint256"}],"anonymous":false},{"type":"event","name":"Withdraw","inputs":[{"name":"sender","type":"address","indexed":true,"internalType":"address"},{"name":"receiver","type":"address","indexed":true,"internalType":"address"},{"name":"owner","type":"address","indexed":true,"internalType":"address"},{"name":"assets","type":"uint256","indexed":false,"internalType":"uint256"},{"name":"shares","type":"uint256","indexed":false,"internalType":"uint256"}],"anonymous":false},{"type":"error","name":"AddressEmptyCode","inputs":[{"name":"target","type":"address","internalType":"address"}]},{"type":"error","name":"AddressInsufficientBalance","inputs":[{"name":"account","type":"address","internalType":"address"}]},{"type":"error","name":"ERC20InsufficientAllowance","inputs":[{"name":"spender","type":"address","internalType":"address"},{"name":"allowance","type":"uint256","internalType":"uint256"},{"name":"needed","type":"uint256","internalType":"uint256"}]},{"type":"error","name":"ERC20InsufficientBalance","inputs":[{"name":"sender","type":"address","internalType":"address"},{"name":"balance","type":"uint256","internalType":"uint256"},{"name":"needed","type":"uint256","internalType":"uint256"}]},{"type":"error","name":"ERC20InvalidApprover","inputs":[{"name":"approver","type":"address","internalType":"address"}]},{"type":"error","name":"ERC20InvalidReceiver","inputs":[{"name":"receiver","type":"address","internalType":"address"}]},{"type":"error","name":"ERC20InvalidSender","inputs":[{"name":"sender","type":"address","internalType":"address"}]},{"type":"error","name":"ERC20InvalidSpender","inputs":[{"name":"spender","type":"address","internalType":"address"}]},{"type":"error","name":"ERC4626ExceededMaxDeposit","inputs":[{"name":"receiver","type":"address","internalType":"address"},{"name":"assets","type":"uint256","internalType":"uint256"},{"name":"max","type":"uint256","internalType":"uint256"}]},{"type":"error","name":"ERC4626ExceededMaxMint","inputs":[{"name":"receiver","type":"address","internalType":"address"},{"name":"shares","type":"uint256","internalType":"uint256"},{"name":"max","type":"uint256","internalType":"uint256"}]},{"type":"error","name":"ERC4626ExceededMaxRedeem","inputs":[{"name":"owner","type":"address","internalType":"address"},{"name":"shares","type":"uint256","internalType":"uint256"},{"name":"max","type":"uint256","internalType":"uint256"}]},{"type":"error","name":"ERC4626ExceededMaxWithdraw","inputs":[{"name":"owner","type":"address","internalType":"address"},{"name":"assets","type":"uint256","internalType":"uint256"},{"name":"max","type":"uint256","internalType":"uint256"}]},{"type":"error","name":"FailedInnerCall","inputs":[]},{"type":"error","name":"MathOverflowedMulDiv","inputs":[]},{"type":"error","name":"SafeERC20FailedOperation","inputs":[{"name":"token","type":"address","internalType":"address"}]}],"bytecode":{"object":"0x60c060405234801561000f575f80fd5b5060405161163a38038061163a83398101604081905261002e916101a4565b806040518060400160405280600b81526020016a455243343632364d6f636b60a81b8152506040518060400160405280600681526020016545343632364d60d01b81525081600390816100819190610269565b50600461008e8282610269565b5050505f806100a2836100ce60201b60201c565b91509150816100b25760126100b4565b805b60ff1660a05250506001600160a01b031660805250610350565b60408051600481526024810182526020810180516001600160e01b031663313ce56760e01b17905290515f918291829182916001600160a01b0387169161011491610323565b5f60405180830381855afa9150503d805f811461014c576040519150601f19603f3d011682016040523d82523d5f602084013e610151565b606091505b509150915081801561016557506020815110155b15610198575f8180602001905181019061017f9190610339565b905060ff8111610196576001969095509350505050565b505b505f9485945092505050565b5f602082840312156101b4575f80fd5b81516001600160a01b03811681146101ca575f80fd5b9392505050565b634e487b7160e01b5f52604160045260245ffd5b600181811c908216806101f957607f821691505b60208210810361021757634e487b7160e01b5f52602260045260245ffd5b50919050565b601f82111561026457805f5260205f20601f840160051c810160208510156102425750805b601f840160051c820191505b81811015610261575f815560010161024e565b50505b505050565b81516001600160401b03811115610282576102826101d1565b6102968161029084546101e5565b8461021d565b6020601f8211600181146102c8575f83156102b15750848201515b5f19600385901b1c1916600184901b178455610261565b5f84815260208120601f198516915b828110156102f757878501518255602094850194600190920191016102d7565b508482101561031457868401515f19600387901b60f8161c191681555b50505050600190811b01905550565b5f82518060208501845e5f920191825250919050565b5f60208284031215610349575f80fd5b5051919050565b60805160a0516112b46103865f395f61055601525f8181610260015281816103f00152818161086a015261095e01526112b45ff3fe608060405234801561000f575f80fd5b50600436106101a1575f3560e01c806370a08231116100f3578063ba08765211610093578063ce96cb771161006e578063ce96cb771461037b578063d905777e1461038e578063dd62ed3e146103a1578063ef8b30f714610368575f80fd5b8063ba08765214610355578063c63d75b61461028a578063c6e6f59214610368575f80fd5b80639dc29fac116100ce5780639dc29fac14610309578063a9059cbb1461031c578063b3d7f6b91461032f578063b460af9414610342575f80fd5b806370a08231146102c657806394bf804d146102ee57806395d89b4114610301575f80fd5b806323b872dd1161015e578063402d267d11610139578063402d267d1461028a57806340c10f191461029e5780634cdad506146101d55780636e553f65146102b3575f80fd5b806323b872dd14610226578063313ce5671461023957806338d52e0f14610253575f80fd5b806301e1d114146101a557806306fdde03146101c057806307a2d13a146101d5578063095ea7b3146101e85780630a28a4771461020b57806318160ddd1461021e575b5f80fd5b6101ad6103d9565b6040519081526020015b60405180910390f35b6101c8610466565b6040516101b79190610ee6565b6101ad6101e3366004610f1b565b6104f6565b6101fb6101f6366004610f4d565b610507565b60405190151581526020016101b7565b6101ad610219366004610f1b565b61051e565b6002546101ad565b6101fb610234366004610f75565b61052a565b61024161054f565b60405160ff90911681526020016101b7565b6040516001600160a01b037f00000000000000000000000000000000000000000000000000000000000000001681526020016101b7565b6101ad610298366004610faf565b505f1990565b6102b16102ac366004610f4d565b61057a565b005b6101ad6102c1366004610fc8565b610588565b6101ad6102d4366004610faf565b6001600160a01b03165f9081526020819052604090205490565b6101ad6102fc366004610fc8565b6105b9565b6101c86105d4565b6102b1610317366004610f4d565b6105e3565b6101fb61032a366004610f4d565b6105ed565b6101ad61033d366004610f1b565b6105fa565b6101ad610350366004610ff2565b610606565b6101ad610363366004610ff2565b61065c565b6101ad610376366004610f1b565b6106a9565b6101ad610389366004610faf565b6106b4565b6101ad61039c366004610faf565b6106d6565b6101ad6103af36600461102b565b6001600160a01b039182165f90815260016020908152604080832093909416825291909152205490565b6040516370a0823160e01b81523060048201525f907f00000000000000000000000000000000000000000000000000000000000000006001600160a01b0316906370a0823190602401602060405180830381865afa15801561043d573d5f803e3d5ffd5b505050506040513d601f19601f820116820180604052508101906104619190611053565b905090565b6060600380546104759061106a565b80601f01602080910402602001604051908101604052809291908181526020018280546104a19061106a565b80156104ec5780601f106104c3576101008083540402835291602001916104ec565b820191905f5260205f20905b8154815290600101906020018083116104cf57829003601f168201915b5050505050905090565b5f610501825f6106f3565b92915050565b5f3361051481858561072b565b5060019392505050565b5f61050182600161073d565b5f3361053785828561076c565b6105428585856107d4565b60019150505b9392505050565b5f610461817f00000000000000000000000000000000000000000000000000000000000000006110b6565b6105848282610831565b5050565b5f5f19610599565b60405180910390fd5b5f6105a3856106a9565b90506105b133858784610865565b949350505050565b5f5f195f6105c6856105fa565b90506105b133858388610865565b6060600480546104759061106a565b61058482826108f7565b5f336105148185856107d4565b5f6105018260016106f3565b5f80610611836106b4565b90508085111561063a57828582604051633fa733bb60e21b8152600401610590939291906110cf565b5f6106448661051e565b9050610653338686898561092b565b95945050505050565b5f80610667836106d6565b90508085111561069057828582604051632e52afbb60e21b8152600401610590939291906110cf565b5f61069a866104f6565b9050610653338686848a61092b565b5f610501825f61073d565b6001600160a01b0381165f90815260208190526040812054610501905f6106f3565b6001600160a01b0381165f90815260208190526040812054610501565b5f6105486106ff6103d9565b61070a9060016110f0565b6107155f600a6111e6565b60025461072291906110f0565b859190856109eb565b6107388383836001610a38565b505050565b5f61054861074c82600a6111e6565b60025461075991906110f0565b6107616103d9565b6107229060016110f0565b6001600160a01b038381165f908152600160209081526040808320938616835292905220545f1981146107ce57818110156107c057828183604051637dc7a0d960e11b8152600401610590939291906110cf565b6107ce84848484035f610a38565b50505050565b6001600160a01b0383166107fd57604051634b637e8f60e11b81525f6004820152602401610590565b6001600160a01b0382166108265760405163ec442f0560e01b81525f6004820152602401610590565b610738838383610afc565b6001600160a01b03821661085a5760405163ec442f0560e01b81525f6004820152602401610590565b6105845f8383610afc565b6108917f0000000000000000000000000000000000000000000000000000000000000000853085610c0f565b61089b8382610831565b826001600160a01b0316846001600160a01b03167fdcbc1c05240f31ff3ad067ef1ee35ce4997762752e3a095284754544f4c709d784846040516108e9929190918252602082015260400190565b60405180910390a350505050565b6001600160a01b03821661092057604051634b637e8f60e11b81525f6004820152602401610590565b610584825f83610afc565b826001600160a01b0316856001600160a01b03161461094f5761094f83868361076c565b61095983826108f7565b6109847f00000000000000000000000000000000000000000000000000000000000000008584610c76565b826001600160a01b0316846001600160a01b0316866001600160a01b03167ffbde797d201c681b91056529119e0b02407c7bb96a4a2c75c01fc9667232c8db85856040516109dc929190918252602082015260400190565b60405180910390a45050505050565b5f806109f8868686610ca7565b9050610a0383610d66565b8015610a1e57505f8480610a1957610a196111f4565b868809115b1561065357610a2e6001826110f0565b9695505050505050565b6001600160a01b038416610a615760405163e602df0560e01b81525f6004820152602401610590565b6001600160a01b038316610a8a57604051634a1406b160e11b81525f6004820152602401610590565b6001600160a01b038085165f90815260016020908152604080832093871683529290522082905580156107ce57826001600160a01b0316846001600160a01b03167f8c5be1e5ebec7d5bd14f71427d1e84f3dd0314c0f7b2291e5b200ac8c7c3b925846040516108e991815260200190565b6001600160a01b038316610b26578060025f828254610b1b91906110f0565b90915550610b839050565b6001600160a01b0383165f9081526020819052604090205481811015610b655783818360405163391434e360e21b8152600401610590939291906110cf565b6001600160a01b0384165f9081526020819052604090209082900390555b6001600160a01b038216610b9f57600280548290039055610bbd565b6001600160a01b0382165f9081526020819052604090208054820190555b816001600160a01b0316836001600160a01b03167fddf252ad1be2c89b69c2b068fc378daa952ba7f163c4a11628f55a4df523b3ef83604051610c0291815260200190565b60405180910390a3505050565b6040516001600160a01b0384811660248301528381166044830152606482018390526107ce9186918216906323b872dd906084015b604051602081830303815290604052915060e01b6020820180516001600160e01b038381831617835250505050610d92565b6040516001600160a01b0383811660248301526044820183905261073891859182169063a9059cbb90606401610c44565b5f838302815f1985870982811083820303915050805f03610cdb57838281610cd157610cd16111f4565b0492505050610548565b808411610cfb5760405163227bc15360e01b815260040160405180910390fd5b5f848688095f868103871696879004966002600389028118808a02820302808a02820302808a02820302808a02820302808a02820302808a02909103029181900381900460010186841190950394909402919094039290920491909117919091029150509392505050565b5f6002826003811115610d7b57610d7b611208565b610d85919061121c565b60ff166001149050919050565b5f610da66001600160a01b03841683610df3565b905080515f14158015610dca575080806020019051810190610dc89190611249565b155b1561073857604051635274afe760e01b81526001600160a01b0384166004820152602401610590565b606061054883835f845f80856001600160a01b03168486604051610e179190611268565b5f6040518083038185875af1925050503d805f8114610e51576040519150601f19603f3d011682016040523d82523d5f602084013e610e56565b606091505b5091509150610a2e868383606082610e7657610e7182610ebd565b610548565b8151158015610e8d57506001600160a01b0384163b155b15610eb657604051639996b31560e01b81526001600160a01b0385166004820152602401610590565b5080610548565b805115610ecd5780518082602001fd5b604051630a12f52160e11b815260040160405180910390fd5b602081525f82518060208401528060208501604085015e5f604082850101526040601f19601f83011684010191505092915050565b5f60208284031215610f2b575f80fd5b5035919050565b80356001600160a01b0381168114610f48575f80fd5b919050565b5f8060408385031215610f5e575f80fd5b610f6783610f32565b946020939093013593505050565b5f805f60608486031215610f87575f80fd5b610f9084610f32565b9250610f9e60208501610f32565b929592945050506040919091013590565b5f60208284031215610fbf575f80fd5b61054882610f32565b5f8060408385031215610fd9575f80fd5b82359150610fe960208401610f32565b90509250929050565b5f805f60608486031215611004575f80fd5b8335925061101460208501610f32565b915061102260408501610f32565b90509250925092565b5f806040838503121561103c575f80fd5b61104583610f32565b9150610fe960208401610f32565b5f60208284031215611063575f80fd5b5051919050565b600181811c9082168061107e57607f821691505b60208210810361109c57634e487b7160e01b5f52602260045260245ffd5b50919050565b634e487b7160e01b5f52601160045260245ffd5b60ff8181168382160190811115610501576105016110a2565b6001600160a01b039390931683526020830191909152604082015260600190565b80820180821115610501576105016110a2565b6001815b600184111561113e57808504811115611122576111226110a2565b600184161561113057908102905b60019390931c928002611107565b935093915050565b5f8261115457506001610501565b8161116057505f610501565b816001811461117657600281146111805761119c565b6001915050610501565b60ff841115611191576111916110a2565b50506001821b610501565b5060208310610133831016604e8410600b84101617156111bf575081810a610501565b6111cb5f198484611103565b805f19048211156111de576111de6110a2565b029392505050565b5f61054860ff841683611146565b634e487b7160e01b5f52601260045260245ffd5b634e487b7160e01b5f52602160045260245ffd5b5f60ff83168061123a57634e487b7160e01b5f52601260045260245ffd5b8060ff84160691505092915050565b5f60208284031215611259575f80fd5b81518015158114610548575f80fd5b5f82518060208501845e5f92019182525091905056fea26469706673582212204502ed1d391731911635c2373dbfd1dff6ee8245615da4af520cb54823e123a064736f6c634300081a0033","linkReferences":{}},"methodIdentifiers":{"allowance(address,address)":"dd62ed3e","approve(address,uint256)":"095ea7b3","asset()":"38d52e0f","balanceOf(address)":"70a08231","burn(address,uint256)":"9dc29fac","convertToAssets(uint256)":"07a2d13a","convertToShares(uint256)":"c6e6f592","decimals()":"313ce567","deposit(uint256,address)":"6e553f65","maxDeposit(address)":"402d267d","maxMint(address)":"c63d75b6","maxRedeem(address)":"d905777e","maxWithdraw(address)":"ce96cb77","mint(address,uint256)":"40c10f19","mint(uint256,address)":"94bf804d","name()":"06fdde03","previewDeposit(uint256)":"ef8b30f7","previewMint(uint256)":"b3d7f6b9","previewRedeem(uint256)":"4cdad506","previewWithdraw(uint256)":"0a28a477","redeem(uint256,address,address)":"ba087652","symbol()":"95d89b41","totalAssets()":"01e1d114","totalSupply()":"18160ddd","transfer(address,uint256)":"a9059cbb","transferFrom(address,address,uint256)":"23b872dd","withdraw(uint256,address,address)":"b460af94"},"id":44}