{"abi":[{"type":"constructor","inputs":[{"name":"accessManager","type":"address","internalType":"address"}],"stateMutability":"nonpayable"},{"type":"function","name":"DEFAULT_ADMIN_ROLE","inputs":[],"outputs":[{"name":"","type":"bytes32","internalType":"bytes32"}],"stateMutability":"view"},{"type":"function","name":"getRoleAdmin","inputs":[{"name":"role","type":"bytes32","internalType":"bytes32"}],"outputs":[{"name":"","type":"bytes32","internalType":"bytes32"}],"stateMutability":"view"},{"type":"function","name":"grantCommanderRole","inputs":[{"name":"account","type":"address","internalType":"address"}],"outputs":[],"stateMutability":"nonpayable"},{"type":"function","name":"grantRole","inputs":[{"name":"","type":"bytes32","internalType":"bytes32"},{"name":"","type":"address","internalType":"address"}],"outputs":[],"stateMutability":"view"},{"type":"function","name":"hasRole","inputs":[{"name":"role","type":"bytes32","internalType":"bytes32"},{"name":"account","type":"address","internalType":"address"}],"outputs":[{"name":"","type":"bool","internalType":"bool"}],"stateMutability":"view"},{"type":"function","name":"renounceRole","inputs":[{"name":"role","type":"bytes32","internalType":"bytes32"},{"name":"callerConfirmation","type":"address","internalType":"address"}],"outputs":[],"stateMutability":"nonpayable"},{"type":"function","name":"revokeCommanderRole","inputs":[{"name":"account","type":"address","internalType":"address"}],"outputs":[],"stateMutability":"nonpayable"},{"type":"function","name":"revokeRole","inputs":[{"name":"","type":"bytes32","internalType":"bytes32"},{"name":"","type":"address","internalType":"address"}],"outputs":[],"stateMutability":"view"},{"type":"function","name":"supportsInterface","inputs":[{"name":"interfaceId","type":"bytes4","internalType":"bytes4"}],"outputs":[{"name":"","type":"bool","internalType":"bool"}],"stateMutability":"view"},{"type":"event","name":"RoleAdminChanged","inputs":[{"name":"role","type":"bytes32","indexed":true,"internalType":"bytes32"},{"name":"previousAdminRole","type":"bytes32","indexed":true,"internalType":"bytes32"},{"name":"newAdminRole","type":"bytes32","indexed":true,"internalType":"bytes32"}],"anonymous":false},{"type":"event","name":"RoleGranted","inputs":[{"name":"role","type":"bytes32","indexed":true,"internalType":"bytes32"},{"name":"account","type":"address","indexed":true,"internalType":"address"},{"name":"sender","type":"address","indexed":true,"internalType":"address"}],"anonymous":false},{"type":"event","name":"RoleRevoked","inputs":[{"name":"role","type":"bytes32","indexed":true,"internalType":"bytes32"},{"name":"account","type":"address","indexed":true,"internalType":"address"},{"name":"sender","type":"address","indexed":true,"internalType":"address"}],"anonymous":false},{"type":"error","name":"AccessControlBadConfirmation","inputs":[]},{"type":"error","name":"AccessControlUnauthorizedAccount","inputs":[{"name":"account","type":"address","internalType":"address"},{"name":"neededRole","type":"bytes32","internalType":"bytes32"}]},{"type":"error","name":"CallerIsNotGovernor","inputs":[{"name":"caller","type":"address","internalType":"address"}]},{"type":"error","name":"DirectGrantIsDisabled","inputs":[{"name":"caller","type":"address","internalType":"address"}]},{"type":"error","name":"DirectRevokeIsDisabled","inputs":[{"name":"caller","type":"address","internalType":"address"}]},{"type":"error","name":"InvalidAccessManagerAddress","inputs":[{"name":"invalidAddress","type":"address","internalType":"address"}]}],"bytecode":{"object":"0x608060405234801561000f575f80fd5b5060405161086f38038061086f83398101604081905261002e91610117565b806001600160a01b03811661005d576040516347bd7c1d60e01b81525f60048201526024015b60405180910390fd5b6040516301ffc9a760e01b815263f87138b560e01b60048201526001600160a01b038216906301ffc9a790602401602060405180830381865afa1580156100a6573d5f803e3d5ffd5b505050506040513d601f19601f820116820180604052508101906100ca9190610144565b6100f2576040516347bd7c1d60e01b81526001600160a01b0382166004820152602401610054565b5f80546001600160a01b0319166001600160a01b039290921691909117905550610163565b5f60208284031215610127575f80fd5b81516001600160a01b038116811461013d575f80fd5b9392505050565b5f60208284031215610154575f80fd5b8151801515811461013d575f80fd5b6106ff806101705f395ff3fe608060405234801561000f575f80fd5b5060043610610090575f3560e01c806381d3ce261161006357806381d3ce261461011557806391d14854146101285780639403e41f1461013b578063a217fddf1461014e578063d547741f14610155575f80fd5b806301ffc9a714610094578063248a9ca3146100bc5780632f2ff15d146100ed57806336568abe14610102575b5f80fd5b6100a76100a23660046105f0565b610168565b60405190151581526020015b60405180910390f35b6100df6100ca36600461061e565b5f908152600160208190526040909120015490565b6040519081526020016100b3565b6101006100fb366004610650565b61019e565b005b610100610110366004610650565b6101be565b61010061012336600461067a565b6101f6565b6100a7610136366004610650565b610362565b61010061014936600461067a565b61038c565b6100df5f81565b610100610163366004610650565b6104f4565b5f6001600160e01b03198216637965db0b60e01b148061019857506301ffc9a760e01b6001600160e01b03198316145b92915050565b604051630e15200f60e21b81523360048201526024015b60405180910390fd5b6001600160a01b03811633146101e75760405163334bd91960e11b815260040160405180910390fd5b6101f1828261050f565b505050565b5f5460408051630ccc574960e41b815290516001600160a01b03909216916391d1485491839163ccc57490916004808201926020929091908290030181865afa158015610245573d5f803e3d5ffd5b505050506040513d601f19601f820116820180604052508101906102699190610693565b6040516001600160e01b031960e084901b1681526004810191909152336024820152604401602060405180830381865afa1580156102a9573d5f803e3d5ffd5b505050506040513d601f19601f820116820180604052508101906102cd91906106aa565b6102ec57604051630ea7d7ed60e21b81523360048201526024016101b5565b5f54604080516345b817bb60e01b8152905161035e926001600160a01b0316916345b817bb9160048083019260209291908290030181865afa158015610334573d5f803e3d5ffd5b505050506040513d601f19601f820116820180604052508101906103589190610693565b8261050f565b5050565b5f9182526001602090815260408084206001600160a01b0393909316845291905290205460ff1690565b5f5460408051630ccc574960e41b815290516001600160a01b03909216916391d1485491839163ccc57490916004808201926020929091908290030181865afa1580156103db573d5f803e3d5ffd5b505050506040513d601f19601f820116820180604052508101906103ff9190610693565b6040516001600160e01b031960e084901b1681526004810191909152336024820152604401602060405180830381865afa15801561043f573d5f803e3d5ffd5b505050506040513d601f19601f8201168201806040525081019061046391906106aa565b61048257604051630ea7d7ed60e21b81523360048201526024016101b5565b5f54604080516345b817bb60e01b8152905161035e926001600160a01b0316916345b817bb9160048083019260209291908290030181865afa1580156104ca573d5f803e3d5ffd5b505050506040513d601f19601f820116820180604052508101906104ee9190610693565b82610581565b604051636344978560e11b81523360048201526024016101b5565b5f61051a8383610362565b1561057a575f8381526001602090815260408083206001600160a01b0386168085529252808320805460ff1916905551339286917ff6391f5c32d9c69d2a47ea670b442974b53935d1edc7fd64eb21e047a839171b9190a4506001610198565b505f610198565b5f61058c8383610362565b61057a575f8381526001602081815260408084206001600160a01b0387168086529252808420805460ff19169093179092559051339286917f2f8788117e7eff1d82e926ec794901d17c78024a50270940304540a733656f0d9190a4506001610198565b5f60208284031215610600575f80fd5b81356001600160e01b031981168114610617575f80fd5b9392505050565b5f6020828403121561062e575f80fd5b5035919050565b80356001600160a01b038116811461064b575f80fd5b919050565b5f8060408385031215610661575f80fd5b8235915061067160208401610635565b90509250929050565b5f6020828403121561068a575f80fd5b61061782610635565b5f602082840312156106a3575f80fd5b5051919050565b5f602082840312156106ba575f80fd5b81518015158114610617575f80fdfea2646970667358221220b0e75a0e2437f415b01ba9923a00342c7aacc87d982b98bc228c7e243573619064736f6c634300081a0033","linkReferences":{}},"methodIdentifiers":{"DEFAULT_ADMIN_ROLE()":"a217fddf","getRoleAdmin(bytes32)":"248a9ca3","grantCommanderRole(address)":"9403e41f","grantRole(bytes32,address)":"2f2ff15d","hasRole(bytes32,address)":"91d14854","renounceRole(bytes32,address)":"36568abe","revokeCommanderRole(address)":"81d3ce26","revokeRole(bytes32,address)":"d547741f","supportsInterface(bytes4)":"01ffc9a7"},"id":131}