{"abi":[{"type":"constructor","inputs":[{"name":"params","type":"tuple","internalType":"struct FleetCommanderParams","components":[{"name":"configurationManager","type":"address","internalType":"address"},{"name":"accessManager","type":"address","internalType":"address"},{"name":"initialArks","type":"address[]","internalType":"address[]"},{"name":"initialMinimumFundsBufferBalance","type":"uint256","internalType":"uint256"},{"name":"initialRebalanceCooldown","type":"uint256","internalType":"uint256"},{"name":"asset","type":"address","internalType":"address"},{"name":"name","type":"string","internalType":"string"},{"name":"symbol","type":"string","internalType":"string"},{"name":"initialMinimumPositionWithdrawal","type":"uint256","internalType":"Percentage"},{"name":"initialMaximumBufferWithdrawal","type":"uint256","internalType":"Percentage"},{"name":"depositCap","type":"uint256","internalType":"uint256"},{"name":"bufferArk","type":"address","internalType":"address"},{"name":"initialTipRate","type":"uint256","internalType":"Percentage"}]}],"stateMutability":"nonpayable"},{"type":"function","name":"MAX_REBALANCE_OPERATIONS","inputs":[],"outputs":[{"name":"","type":"uint256","internalType":"uint256"}],"stateMutability":"view"},{"type":"function","name":"addArk","inputs":[{"name":"ark","type":"address","internalType":"address"}],"outputs":[],"stateMutability":"nonpayable"},{"type":"function","name":"addArks","inputs":[{"name":"_arkAddresses","type":"address[]","internalType":"address[]"}],"outputs":[],"stateMutability":"nonpayable"},{"type":"function","name":"adjustBuffer","inputs":[{"name":"rebalanceData","type":"tuple[]","internalType":"struct RebalanceData[]","components":[{"name":"fromArk","type":"address","internalType":"address"},{"name":"toArk","type":"address","internalType":"address"},{"name":"amount","type":"uint256","internalType":"uint256"}]}],"outputs":[],"stateMutability":"nonpayable"},{"type":"function","name":"allowance","inputs":[{"name":"owner","type":"address","internalType":"address"},{"name":"spender","type":"address","internalType":"address"}],"outputs":[{"name":"","type":"uint256","internalType":"uint256"}],"stateMutability":"view"},{"type":"function","name":"approve","inputs":[{"name":"spender","type":"address","internalType":"address"},{"name":"value","type":"uint256","internalType":"uint256"}],"outputs":[{"name":"","type":"bool","internalType":"bool"}],"stateMutability":"nonpayable"},{"type":"function","name":"arks","inputs":[{"name":"","type":"uint256","internalType":"uint256"}],"outputs":[{"name":"","type":"address","internalType":"address"}],"stateMutability":"view"},{"type":"function","name":"asset","inputs":[],"outputs":[{"name":"","type":"address","internalType":"address"}],"stateMutability":"view"},{"type":"function","name":"balanceOf","inputs":[{"name":"account","type":"address","internalType":"address"}],"outputs":[{"name":"","type":"uint256","internalType":"uint256"}],"stateMutability":"view"},{"type":"function","name":"bufferArk","inputs":[],"outputs":[{"name":"","type":"address","internalType":"contract IArk"}],"stateMutability":"view"},{"type":"function","name":"convertToAssets","inputs":[{"name":"shares","type":"uint256","internalType":"uint256"}],"outputs":[{"name":"","type":"uint256","internalType":"uint256"}],"stateMutability":"view"},{"type":"function","name":"convertToShares","inputs":[{"name":"assets","type":"uint256","internalType":"uint256"}],"outputs":[{"name":"","type":"uint256","internalType":"uint256"}],"stateMutability":"view"},{"type":"function","name":"decimals","inputs":[],"outputs":[{"name":"","type":"uint8","internalType":"uint8"}],"stateMutability":"view"},{"type":"function","name":"deposit","inputs":[{"name":"assets","type":"uint256","internalType":"uint256"},{"name":"receiver","type":"address","internalType":"address"}],"outputs":[{"name":"","type":"uint256","internalType":"uint256"}],"stateMutability":"nonpayable"},{"type":"function","name":"depositCap","inputs":[],"outputs":[{"name":"","type":"uint256","internalType":"uint256"}],"stateMutability":"view"},{"type":"function","name":"emergencyShutdown","inputs":[],"outputs":[],"stateMutability":"nonpayable"},{"type":"function","name":"estimateAccruedTip","inputs":[],"outputs":[{"name":"","type":"uint256","internalType":"uint256"}],"stateMutability":"view"},{"type":"function","name":"forceRebalance","inputs":[{"name":"rebalanceData","type":"tuple[]","internalType":"struct RebalanceData[]","components":[{"name":"fromArk","type":"address","internalType":"address"},{"name":"toArk","type":"address","internalType":"address"},{"name":"amount","type":"uint256","internalType":"uint256"}]}],"outputs":[],"stateMutability":"nonpayable"},{"type":"function","name":"forceWithdraw","inputs":[{"name":"assets","type":"uint256","internalType":"uint256"},{"name":"receiver","type":"address","internalType":"address"},{"name":"owner","type":"address","internalType":"address"}],"outputs":[{"name":"","type":"uint256","internalType":"uint256"}],"stateMutability":"nonpayable"},{"type":"function","name":"getCooldown","inputs":[],"outputs":[{"name":"","type":"uint256","internalType":"uint256"}],"stateMutability":"view"},{"type":"function","name":"getLastActionTimestamp","inputs":[],"outputs":[{"name":"","type":"uint256","internalType":"uint256"}],"stateMutability":"view"},{"type":"function","name":"isArkActive","inputs":[{"name":"","type":"address","internalType":"address"}],"outputs":[{"name":"","type":"bool","internalType":"bool"}],"stateMutability":"view"},{"type":"function","name":"lastTipTimestamp","inputs":[],"outputs":[{"name":"","type":"uint256","internalType":"uint256"}],"stateMutability":"view"},{"type":"function","name":"manager","inputs":[],"outputs":[{"name":"","type":"address","internalType":"contract IConfigurationManager"}],"stateMutability":"view"},{"type":"function","name":"maxDeposit","inputs":[{"name":"owner","type":"address","internalType":"address"}],"outputs":[{"name":"","type":"uint256","internalType":"uint256"}],"stateMutability":"view"},{"type":"function","name":"maxForceWithdraw","inputs":[{"name":"owner","type":"address","internalType":"address"}],"outputs":[{"name":"","type":"uint256","internalType":"uint256"}],"stateMutability":"view"},{"type":"function","name":"maxMint","inputs":[{"name":"owner","type":"address","internalType":"address"}],"outputs":[{"name":"","type":"uint256","internalType":"uint256"}],"stateMutability":"view"},{"type":"function","name":"maxRedeem","inputs":[{"name":"owner","type":"address","internalType":"address"}],"outputs":[{"name":"","type":"uint256","internalType":"uint256"}],"stateMutability":"view"},{"type":"function","name":"maxWithdraw","inputs":[{"name":"owner","type":"address","internalType":"address"}],"outputs":[{"name":"","type":"uint256","internalType":"uint256"}],"stateMutability":"view"},{"type":"function","name":"minFundsBufferBalance","inputs":[],"outputs":[{"name":"","type":"uint256","internalType":"uint256"}],"stateMutability":"view"},{"type":"function","name":"mint","inputs":[{"name":"shares","type":"uint256","internalType":"uint256"},{"name":"receiver","type":"address","internalType":"address"}],"outputs":[{"name":"","type":"uint256","internalType":"uint256"}],"stateMutability":"nonpayable"},{"type":"function","name":"name","inputs":[],"outputs":[{"name":"","type":"string","internalType":"string"}],"stateMutability":"view"},{"type":"function","name":"previewDeposit","inputs":[{"name":"assets","type":"uint256","internalType":"uint256"}],"outputs":[{"name":"","type":"uint256","internalType":"uint256"}],"stateMutability":"view"},{"type":"function","name":"previewMint","inputs":[{"name":"shares","type":"uint256","internalType":"uint256"}],"outputs":[{"name":"","type":"uint256","internalType":"uint256"}],"stateMutability":"view"},{"type":"function","name":"previewRedeem","inputs":[{"name":"shares","type":"uint256","internalType":"uint256"}],"outputs":[{"name":"","type":"uint256","internalType":"uint256"}],"stateMutability":"view"},{"type":"function","name":"previewWithdraw","inputs":[{"name":"assets","type":"uint256","internalType":"uint256"}],"outputs":[{"name":"","type":"uint256","internalType":"uint256"}],"stateMutability":"view"},{"type":"function","name":"rebalance","inputs":[{"name":"rebalanceData","type":"tuple[]","internalType":"struct RebalanceData[]","components":[{"name":"fromArk","type":"address","internalType":"address"},{"name":"toArk","type":"address","internalType":"address"},{"name":"amount","type":"uint256","internalType":"uint256"}]}],"outputs":[],"stateMutability":"nonpayable"},{"type":"function","name":"redeem","inputs":[{"name":"shares","type":"uint256","internalType":"uint256"},{"name":"receiver","type":"address","internalType":"address"},{"name":"owner","type":"address","internalType":"address"}],"outputs":[{"name":"","type":"uint256","internalType":"uint256"}],"stateMutability":"nonpayable"},{"type":"function","name":"removeArk","inputs":[{"name":"ark","type":"address","internalType":"address"}],"outputs":[],"stateMutability":"nonpayable"},{"type":"function","name":"setDepositCap","inputs":[{"name":"newCap","type":"uint256","internalType":"uint256"}],"outputs":[],"stateMutability":"nonpayable"},{"type":"function","name":"setMaxAllocation","inputs":[{"name":"ark","type":"address","internalType":"address"},{"name":"newMaxAllocation","type":"uint256","internalType":"uint256"}],"outputs":[],"stateMutability":"nonpayable"},{"type":"function","name":"setMinBufferBalance","inputs":[{"name":"newBalance","type":"uint256","internalType":"uint256"}],"outputs":[],"stateMutability":"nonpayable"},{"type":"function","name":"setTipJar","inputs":[],"outputs":[],"stateMutability":"nonpayable"},{"type":"function","name":"setTipRate","inputs":[{"name":"newTipRateNumerator","type":"uint256","internalType":"uint256"},{"name":"newTipRateDenominator","type":"uint256","internalType":"uint256"}],"outputs":[],"stateMutability":"nonpayable"},{"type":"function","name":"symbol","inputs":[],"outputs":[{"name":"","type":"string","internalType":"string"}],"stateMutability":"view"},{"type":"function","name":"tip","inputs":[],"outputs":[{"name":"","type":"uint256","internalType":"uint256"}],"stateMutability":"nonpayable"},{"type":"function","name":"tipJar","inputs":[],"outputs":[{"name":"","type":"address","internalType":"address"}],"stateMutability":"view"},{"type":"function","name":"tipRate","inputs":[],"outputs":[{"name":"","type":"uint256","internalType":"Percentage"}],"stateMutability":"view"},{"type":"function","name":"totalAssets","inputs":[],"outputs":[{"name":"total","type":"uint256","internalType":"uint256"}],"stateMutability":"view"},{"type":"function","name":"totalSupply","inputs":[],"outputs":[{"name":"","type":"uint256","internalType":"uint256"}],"stateMutability":"view"},{"type":"function","name":"transfer","inputs":[{"name":"","type":"address","internalType":"address"},{"name":"","type":"uint256","internalType":"uint256"}],"outputs":[{"name":"","type":"bool","internalType":"bool"}],"stateMutability":"pure"},{"type":"function","name":"transferFrom","inputs":[{"name":"from","type":"address","internalType":"address"},{"name":"to","type":"address","internalType":"address"},{"name":"value","type":"uint256","internalType":"uint256"}],"outputs":[{"name":"","type":"bool","internalType":"bool"}],"stateMutability":"nonpayable"},{"type":"function","name":"updateRebalanceCooldown","inputs":[{"name":"newCooldown","type":"uint256","internalType":"uint256"}],"outputs":[],"stateMutability":"nonpayable"},{"type":"function","name":"withdraw","inputs":[{"name":"assets","type":"uint256","internalType":"uint256"},{"name":"receiver","type":"address","internalType":"address"},{"name":"owner","type":"address","internalType":"address"}],"outputs":[{"name":"","type":"uint256","internalType":"uint256"}],"stateMutability":"nonpayable"},{"type":"event","name":"Approval","inputs":[{"name":"owner","type":"address","indexed":true,"internalType":"address"},{"name":"spender","type":"address","indexed":true,"internalType":"address"},{"name":"value","type":"uint256","indexed":false,"internalType":"uint256"}],"anonymous":false},{"type":"event","name":"ArkAdded","inputs":[{"name":"ark","type":"address","indexed":true,"internalType":"address"}],"anonymous":false},{"type":"event","name":"ArkMaxAllocationUpdated","inputs":[{"name":"ark","type":"address","indexed":true,"internalType":"address"},{"name":"newMaxAllocation","type":"uint256","indexed":false,"internalType":"uint256"}],"anonymous":false},{"type":"event","name":"ArkRemoved","inputs":[{"name":"ark","type":"address","indexed":true,"internalType":"address"}],"anonymous":false},{"type":"event","name":"CooldownUpdated","inputs":[{"name":"previousCooldown","type":"uint256","indexed":false,"internalType":"uint256"},{"name":"newCooldown","type":"uint256","indexed":false,"internalType":"uint256"}],"anonymous":false},{"type":"event","name":"Deposit","inputs":[{"name":"sender","type":"address","indexed":true,"internalType":"address"},{"name":"owner","type":"address","indexed":true,"internalType":"address"},{"name":"assets","type":"uint256","indexed":false,"internalType":"uint256"},{"name":"shares","type":"uint256","indexed":false,"internalType":"uint256"}],"anonymous":false},{"type":"event","name":"DepositCapUpdated","inputs":[{"name":"newCap","type":"uint256","indexed":false,"internalType":"uint256"}],"anonymous":false},{"type":"event","name":"FeeAddressUpdated","inputs":[{"name":"newAddress","type":"address","indexed":false,"internalType":"address"}],"anonymous":false},{"type":"event","name":"FleetCommanderBufferAdjusted","inputs":[{"name":"keeper","type":"address","indexed":true,"internalType":"address"},{"name":"totalMoved","type":"uint256","indexed":false,"internalType":"uint256"}],"anonymous":false},{"type":"event","name":"FleetCommanderMinFundsBufferBalanceUpdated","inputs":[{"name":"newBalance","type":"uint256","indexed":false,"internalType":"uint256"}],"anonymous":false},{"type":"event","name":"FundsBufferBalanceUpdated","inputs":[{"name":"user","type":"address","indexed":true,"internalType":"address"},{"name":"prevBalance","type":"uint256","indexed":false,"internalType":"uint256"},{"name":"newBalance","type":"uint256","indexed":false,"internalType":"uint256"}],"anonymous":false},{"type":"event","name":"FundsQueueRefilled","inputs":[{"name":"keeper","type":"address","indexed":true,"internalType":"address"},{"name":"prevBalance","type":"uint256","indexed":false,"internalType":"uint256"},{"name":"newBalance","type":"uint256","indexed":false,"internalType":"uint256"}],"anonymous":false},{"type":"event","name":"MinFundsQueueBalanceUpdated","inputs":[{"name":"keeper","type":"address","indexed":true,"internalType":"address"},{"name":"newBalance","type":"uint256","indexed":false,"internalType":"uint256"}],"anonymous":false},{"type":"event","name":"QueuedFundsCommitted","inputs":[{"name":"keeper","type":"address","indexed":true,"internalType":"address"},{"name":"prevBalance","type":"uint256","indexed":false,"internalType":"uint256"},{"name":"newBalance","type":"uint256","indexed":false,"internalType":"uint256"}],"anonymous":false},{"type":"event","name":"Rebalanced","inputs":[{"name":"keeper","type":"address","indexed":true,"internalType":"address"},{"name":"rebalances","type":"tuple[]","indexed":false,"internalType":"struct RebalanceData[]","components":[{"name":"fromArk","type":"address","internalType":"address"},{"name":"toArk","type":"address","internalType":"address"},{"name":"amount","type":"uint256","internalType":"uint256"}]}],"anonymous":false},{"type":"event","name":"TipAccrued","inputs":[{"name":"tipAmount","type":"uint256","indexed":false,"internalType":"uint256"}],"anonymous":false},{"type":"event","name":"TipJarUpdated","inputs":[{"name":"newTipJar","type":"address","indexed":false,"internalType":"address"}],"anonymous":false},{"type":"event","name":"TipRateUpdated","inputs":[{"name":"newTipRate","type":"uint256","indexed":false,"internalType":"Percentage"}],"anonymous":false},{"type":"event","name":"Transfer","inputs":[{"name":"from","type":"address","indexed":true,"internalType":"address"},{"name":"to","type":"address","indexed":true,"internalType":"address"},{"name":"value","type":"uint256","indexed":false,"internalType":"uint256"}],"anonymous":false},{"type":"event","name":"Withdraw","inputs":[{"name":"sender","type":"address","indexed":true,"internalType":"address"},{"name":"receiver","type":"address","indexed":true,"internalType":"address"},{"name":"owner","type":"address","indexed":true,"internalType":"address"},{"name":"assets","type":"uint256","indexed":false,"internalType":"uint256"},{"name":"shares","type":"uint256","indexed":false,"internalType":"uint256"}],"anonymous":false},{"type":"error","name":"AddressEmptyCode","inputs":[{"name":"target","type":"address","internalType":"address"}]},{"type":"error","name":"AddressInsufficientBalance","inputs":[{"name":"account","type":"address","internalType":"address"}]},{"type":"error","name":"CallerIsNotGovernor","inputs":[{"name":"caller","type":"address","internalType":"address"}]},{"type":"error","name":"CallerIsNotKeeper","inputs":[{"name":"caller","type":"address","internalType":"address"}]},{"type":"error","name":"CooldownNotElapsed","inputs":[{"name":"lastActionTimestamp","type":"uint256","internalType":"uint256"},{"name":"cooldown","type":"uint256","internalType":"uint256"},{"name":"currentTimestamp","type":"uint256","internalType":"uint256"}]},{"type":"error","name":"ERC20InsufficientAllowance","inputs":[{"name":"spender","type":"address","internalType":"address"},{"name":"allowance","type":"uint256","internalType":"uint256"},{"name":"needed","type":"uint256","internalType":"uint256"}]},{"type":"error","name":"ERC20InsufficientBalance","inputs":[{"name":"sender","type":"address","internalType":"address"},{"name":"balance","type":"uint256","internalType":"uint256"},{"name":"needed","type":"uint256","internalType":"uint256"}]},{"type":"error","name":"ERC20InvalidApprover","inputs":[{"name":"approver","type":"address","internalType":"address"}]},{"type":"error","name":"ERC20InvalidReceiver","inputs":[{"name":"receiver","type":"address","internalType":"address"}]},{"type":"error","name":"ERC20InvalidSender","inputs":[{"name":"sender","type":"address","internalType":"address"}]},{"type":"error","name":"ERC20InvalidSpender","inputs":[{"name":"spender","type":"address","internalType":"address"}]},{"type":"error","name":"ERC4626ExceededMaxDeposit","inputs":[{"name":"receiver","type":"address","internalType":"address"},{"name":"assets","type":"uint256","internalType":"uint256"},{"name":"max","type":"uint256","internalType":"uint256"}]},{"type":"error","name":"ERC4626ExceededMaxMint","inputs":[{"name":"receiver","type":"address","internalType":"address"},{"name":"shares","type":"uint256","internalType":"uint256"},{"name":"max","type":"uint256","internalType":"uint256"}]},{"type":"error","name":"ERC4626ExceededMaxRedeem","inputs":[{"name":"owner","type":"address","internalType":"address"},{"name":"shares","type":"uint256","internalType":"uint256"},{"name":"max","type":"uint256","internalType":"uint256"}]},{"type":"error","name":"ERC4626ExceededMaxWithdraw","inputs":[{"name":"owner","type":"address","internalType":"address"},{"name":"assets","type":"uint256","internalType":"uint256"},{"name":"max","type":"uint256","internalType":"uint256"}]},{"type":"error","name":"FailedInnerCall","inputs":[]},{"type":"error","name":"FleetCommanderArkAlreadyExists","inputs":[{"name":"ark","type":"address","internalType":"address"}]},{"type":"error","name":"FleetCommanderArkAssetsNotZero","inputs":[{"name":"ark","type":"address","internalType":"address"}]},{"type":"error","name":"FleetCommanderArkMaxAllocationGreaterThanZero","inputs":[{"name":"ark","type":"address","internalType":"address"}]},{"type":"error","name":"FleetCommanderArkMaxAllocationZero","inputs":[{"name":"ark","type":"address","internalType":"address"}]},{"type":"error","name":"FleetCommanderArkNotActive","inputs":[{"name":"ark","type":"address","internalType":"address"}]},{"type":"error","name":"FleetCommanderArkNotFound","inputs":[{"name":"ark","type":"address","internalType":"address"}]},{"type":"error","name":"FleetCommanderCantRebalanceToArk","inputs":[{"name":"ark","type":"address","internalType":"address"}]},{"type":"error","name":"FleetCommanderInsufficientBuffer","inputs":[]},{"type":"error","name":"FleetCommanderInvalidArkAddress","inputs":[]},{"type":"error","name":"FleetCommanderInvalidBufferAdjustment","inputs":[]},{"type":"error","name":"FleetCommanderNoExcessFunds","inputs":[]},{"type":"error","name":"FleetCommanderRebalanceAmountZero","inputs":[{"name":"ark","type":"address","internalType":"address"}]},{"type":"error","name":"FleetCommanderRebalanceNoOperations","inputs":[]},{"type":"error","name":"FleetCommanderRebalanceTooManyOperations","inputs":[{"name":"operationsCount","type":"uint256","internalType":"uint256"}]},{"type":"error","name":"FleetCommanderTargetArkRateTooLow","inputs":[{"name":"ark","type":"address","internalType":"address"},{"name":"targetRate","type":"uint256","internalType":"uint256"},{"name":"currentRate","type":"uint256","internalType":"uint256"}]},{"type":"error","name":"FleetCommanderTransfersDisabled","inputs":[]},{"type":"error","name":"FleetCommanderUnauthorizedRedemption","inputs":[{"name":"caller","type":"address","internalType":"address"},{"name":"owner","type":"address","internalType":"address"}]},{"type":"error","name":"FleetCommanderUnauthorizedWithdrawal","inputs":[{"name":"caller","type":"address","internalType":"address"},{"name":"owner","type":"address","internalType":"address"}]},{"type":"error","name":"InvalidAccessManagerAddress","inputs":[{"name":"invalidAddress","type":"address","internalType":"address"}]},{"type":"error","name":"InvalidTipJarAddress","inputs":[]},{"type":"error","name":"MathOverflowedMulDiv","inputs":[]},{"type":"error","name":"SafeERC20FailedOperation","inputs":[{"name":"token","type":"address","internalType":"address"}]},{"type":"error","name":"TipRateCannotExceedOneHundredPercent","inputs":[]}],"bytecode":{"object":"0x60c060405234801561000f575f80fd5b506040516156a53803806156a583398101604081905261002e91610611565b80608001515f825f015183610180015184602001518560a001518660c001518760e00151816003908161006191906107dc565b50600461006e82826107dc565b5050505f806100828361028d60201b60201c565b9150915081610092576012610094565b805b60ff1660a05250506001600160a01b0390811660805281166100d0576040516347bd7c1d60e01b81525f60048201526024015b60405180910390fd5b6040516301ffc9a760e01b815263ce78f4a360e01b60048201526001600160a01b038216906301ffc9a790602401602060405180830381865afa158015610119573d5f803e3d5ffd5b505050506040513d601f19601f8201168201806040525081019061013d9190610896565b610165576040516347bd7c1d60e01b81526001600160a01b03821660048201526024016100c7565b600580546001600160a01b039283166001600160a01b031991821617909155600980549285169290911682179055600682905560408051637aaceb9560e01b81529051637aaceb959160048082019260209290919082900301815f875af11580156101d2573d5f803e3d5ffd5b505050506040513d601f19601f820116820180604052508101906101f691906108bc565b600880546001600160a01b0319166001600160a01b0392909216919091179055505042600755600a829055801561022c5742600b555b5050604081015161023c90610363565b6060810151600f556101408101516010556101600151600d80546001600160a01b0319166001600160a01b0390921691821790555f908152600e60205260409020805460ff19166001179055610916565b60408051600481526024810182526020810180516001600160e01b031663313ce56760e01b17905290515f918291829182916001600160a01b038716916102d3916108d5565b5f60405180830381855afa9150503d805f811461030b576040519150601f19603f3d011682016040523d82523d5f602084013e610310565b606091505b509150915081801561032457506020815110155b15610357575f8180602001905181019061033e91906108eb565b905060ff8111610355576001969095509350505050565b505b505f9485945092505050565b5f5b815181101561039e5761039682828151811061038357610383610902565b60200260200101516103a260201b60201c565b600101610365565b5050565b6001600160a01b0381166103c95760405163210e96cb60e01b815260040160405180910390fd5b6001600160a01b0381165f908152600e602052604090205460ff161561040d57604051637eadea0960e11b81526001600160a01b03821660048201526024016100c7565b6001600160a01b0381165f818152600e6020526040808220805460ff19166001908117909155600c8054918201815583527fdf6966c971051c3d54ec59162606531493a51404a002842f56009d7e5cf4a8c70180546001600160a01b03191684179055517fcb4a29d359e86f179111dcba8714def1a859612f729f2d224d13efeac51b36bc9190a250565b634e487b7160e01b5f52604160045260245ffd5b6040516101a081016001600160401b03811182821017156104cf576104cf610498565b60405290565b604051601f8201601f191681016001600160401b03811182821017156104fd576104fd610498565b604052919050565b80516001600160a01b038116811461051b575f80fd5b919050565b5f82601f83011261052f575f80fd5b81516001600160401b0381111561054857610548610498565b8060051b610558602082016104d5565b91825260208185018101929081019086841115610573575f80fd5b6020860192505b8383101561059c5761058b83610505565b82526020928301929091019061057a565b9695505050505050565b5f82601f8301126105b5575f80fd5b81516001600160401b038111156105ce576105ce610498565b6105e1601f8201601f19166020016104d5565b8181528460208386010111156105f5575f80fd5b8160208501602083015e5f918101602001919091529392505050565b5f60208284031215610621575f80fd5b81516001600160401b03811115610636575f80fd5b82016101a08185031215610648575f80fd5b6106506104ac565b61065982610505565b815261066760208301610505565b602082015260408201516001600160401b03811115610684575f80fd5b61069086828501610520565b60408301525060608281015190820152608080830151908201526106b660a08301610505565b60a082015260c08201516001600160401b038111156106d3575f80fd5b6106df868285016105a6565b60c08301525060e08201516001600160401b038111156106fd575f80fd5b610709868285016105a6565b60e08301525061010082810151908201526101208083015190820152610140808301519082015261073d6101608301610505565b61016082015261018091820151918101919091529392505050565b600181811c9082168061076c57607f821691505b60208210810361078a57634e487b7160e01b5f52602260045260245ffd5b50919050565b601f8211156107d757805f5260205f20601f840160051c810160208510156107b55750805b601f840160051c820191505b818110156107d4575f81556001016107c1565b50505b505050565b81516001600160401b038111156107f5576107f5610498565b610809816108038454610758565b84610790565b6020601f82116001811461083b575f83156108245750848201515b5f19600385901b1c1916600184901b1784556107d4565b5f84815260208120601f198516915b8281101561086a578785015182556020948501946001909201910161084a565b508482101561088757868401515f19600387901b60f8161c191681555b50505050600190811b01905550565b5f602082840312156108a6575f80fd5b815180151581146108b5575f80fd5b9392505050565b5f602082840312156108cc575f80fd5b6108b582610505565b5f82518060208501845e5f920191825250919050565b5f602082840312156108fb575f80fd5b5051919050565b634e487b7160e01b5f52603260045260245ffd5b60805160a051614d4b61095a5f395f610e0601525f818161043f01528181610f5401528181611f2201528181612c3d01528181612ccc01526131c10152614d4b5ff3fe608060405234801561000f575f80fd5b5060043610610332575f3560e01c80637943fdc2116101af578063c63d75b6116100fe578063dbd5edc71161009e578063e37d5b7f11610079578063e37d5b7f146106e1578063ee27fb3e146106f4578063ef8b30f71461060c578063ff32a42a14610707575f80fd5b8063dbd5edc71461068d578063dc9de0a814610696578063dd62ed3e146106a9575f80fd5b8063cc5b1e55116100d9578063cc5b1e5514610632578063ce96cb7714610645578063d25dd10114610658578063d905777e1461067a575f80fd5b8063c63d75b6146105f9578063c6e6f5921461060c578063c8169aa11461061f575f80fd5b806396c25a3811610169578063b460af9411610144578063b460af94146105ad578063b64d620e146105c0578063ba087652146105d3578063bb5adaea146105e6575f80fd5b806396c25a3814610574578063a9059cbb14610587578063b3d7f6b91461059a575f80fd5b80637943fdc21461050d5780637aaceb951461052057806386651203146105335780639170b6681461054657806394bf804d1461055957806395d89b411461056c575f80fd5b8063313ce56711610285578063498e76a011610225578063684826261161020057806368482626146104c15780636e553f65146104c957806370a08231146104dc57806371aedbc114610504575f80fd5b8063498e76a0146104b05780634cdad5061461036f5780635ed975e5146104b9575f80fd5b806338d52e0f1161026057806338d52e0f1461043d578063402d267d14610477578063481c6a751461048a5780634834bd861461049d575f80fd5b8063313ce567146104135780633152d5d11461042d5780633403c2fc14610435575f80fd5b80630cf0654e116102f057806318d08d0b116102cb57806318d08d0b146103e8578063218e4a15146103f057806323b872dd146103f85780632755cd2d1461040b575f80fd5b80630cf0654e146103b85780630e4a840d146103cd57806318160ddd146103e0575f80fd5b80620dbedd1461033657806301e1d1141461035257806306fdde031461035a57806307a2d13a1461036f578063095ea7b3146103825780630a28a477146103a5575b5f80fd5b61033f600f5481565b6040519081526020015b60405180910390f35b61033f61071a565b6103626108bf565b60405161034991906146cd565b61033f61037d366004614702565b61094f565b61039561039036600461472d565b610960565b6040519015158152602001610349565b61033f6103b3366004614702565b610977565b6103cb6103c6366004614757565b610983565b005b6103cb6103db366004614757565b610a97565b60025461033f565b6103cb610ccb565b600a5461033f565b6103956104063660046147c8565b610dcc565b61033f610df1565b61041b610dff565b60405160ff9091168152602001610349565b600b5461033f565b6103cb610e2a565b7f00000000000000000000000000000000000000000000000000000000000000005b6040516001600160a01b039091168152602001610349565b61033f610485366004614806565b610f21565b60095461045f906001600160a01b031681565b61033f6104ab366004614806565b610feb565b61033f60065481565b61033f600a81565b61033f61100c565b61033f6104d7366004614821565b611092565b61033f6104ea366004614806565b6001600160a01b03165f9081526020819052604090205490565b61033f60075481565b61033f61051b36600461484f565b6111ee565b60085461045f906001600160a01b031681565b6103cb610541366004614702565b61124c565b6103cb610554366004614702565b61137f565b61033f610567366004614821565b6114ab565b610362611606565b6103cb610582366004614806565b611615565b61039561059536600461472d565b611718565b61033f6105a8366004614702565b611732565b61033f6105bb36600461484f565b61173e565b6103cb6105ce366004614757565b61189d565b61033f6105e136600461484f565b6119e4565b6103cb6105f436600461472d565b611b42565b61033f610607366004614806565b611eec565b61033f61061a366004614702565b611f71565b600d5461045f906001600160a01b031681565b6103cb61064036600461488e565b611f7c565b61033f610653366004614806565b6120b4565b610395610666366004614806565b600e6020525f908152604090205460ff1681565b61033f610688366004614806565b61214d565b61033f60105481565b6103cb6106a4366004614702565b6121e5565b61033f6106b73660046148ef565b6001600160a01b039182165f90815260016020908152604080832093909416825291909152205490565b6103cb6106ef366004614806565b6122e5565b6103cb61070236600461491b565b6123e5565b61045f610715366004614702565b6124f2565b600c545f90819061072c90600161494f565b67ffffffffffffffff81111561074457610744614962565b60405190808252806020026020018201604052801561076d578160200160208202803683370190505b5090505f5b600c548110156107dc57600c818154811061078f5761078f614976565b905f5260205f20015f9054906101000a90046001600160a01b03168282815181106107bc576107bc614976565b6001600160a01b0390921660209283029190910190910152600101610772565b50600d54600c5482516001600160a01b0390921691839190811061080257610802614976565b60200260200101906001600160a01b031690816001600160a01b0316815250505f5b81518110156108ba5781818151811061083f5761083f614976565b60200260200101516001600160a01b03166301e1d1146040518163ffffffff1660e01b8152600401602060405180830381865afa158015610882573d5f803e3d5ffd5b505050506040513d601f19601f820116820180604052508101906108a6919061498a565b6108b0908461494f565b9250600101610824565b505090565b6060600380546108ce906149a1565b80601f01602080910402602001604051908101604052809291908181526020018280546108fa906149a1565b80156109455780601f1061091c57610100808354040283529160200191610945565b820191905f5260205f20905b81548152906001019060200180831161092857829003601f168201915b5050505050905090565b5f61095a825f61251a565b92915050565b5f3361096d818585612552565b5060019392505050565b5f61095a82600161255f565b60055460408051630ccc574960e41b815290516001600160a01b03909216916391d1485491839163ccc57490916004808201926020929091908290030181865afa1580156109d3573d5f803e3d5ffd5b505050506040513d601f19601f820116820180604052508101906109f7919061498a565b6040516001600160e01b031960e084901b1681526004810191909152336024820152604401602060405180830381865afa158015610a37573d5f803e3d5ffd5b505050506040513d601f19601f82011682018060405250810190610a5b91906149d9565b610a7f57604051630ea7d7ed60e21b81523360048201526024015b60405180910390fd5b610a8761258e565b50610a928282612696565b505050565b60055460408051631b25e0ad60e11b815290516001600160a01b03909216916391d1485491839163364bc15a916004808201926020929091908290030181865afa158015610ae7573d5f803e3d5ffd5b505050506040513d601f19601f82011682018060405250810190610b0b919061498a565b6040516001600160e01b031960e084901b1681526004810191909152336024820152604401602060405180830381865afa158015610b4b573d5f803e3d5ffd5b505050506040513d601f19601f82011682018060405250810190610b6f91906149d9565b610b8e576040516329068e8160e21b8152336004820152602401610a76565b600a54600b54610b9e90426149f8565b1015610bd257600b54600a54604051630924dbf160e21b815260048101929092526024820152426044820152606401610a76565b42600b55610bde61258e565b50610be98282612739565b5f610bf48383612696565b90505f600d5f9054906101000a90046001600160a01b03166001600160a01b03166301e1d1146040518163ffffffff1660e01b8152600401602060405180830381865afa158015610c47573d5f803e3d5ffd5b505050506040513d601f19601f82011682018060405250810190610c6b919061498a565b9050600f54811015610c9057604051633b5391f960e01b815260040160405180910390fd5b60405182815233907f4bd1a9dd6e8410a6d85178f9a75d601cb7b266e228771c213fe39ffffad2d3299060200160405180910390a250505050565b60055460408051630ccc574960e41b815290516001600160a01b03909216916391d1485491839163ccc57490916004808201926020929091908290030181865afa158015610d1b573d5f803e3d5ffd5b505050506040513d601f19601f82011682018060405250810190610d3f919061498a565b6040516001600160e01b031960e084901b1681526004810191909152336024820152604401602060405180830381865afa158015610d7f573d5f803e3d5ffd5b505050506040513d601f19601f82011682018060405250810190610da391906149d9565b610dc257604051630ea7d7ed60e21b8152336004820152602401610a76565b610dca612957565b565b5f33610dd9858285612ab1565b610de4858585612b19565b60019150505b9392505050565b5f610dfa61258e565b905090565b5f610dfa817f0000000000000000000000000000000000000000000000000000000000000000614a0b565b60055460408051630ccc574960e41b815290516001600160a01b03909216916391d1485491839163ccc57490916004808201926020929091908290030181865afa158015610e7a573d5f803e3d5ffd5b505050506040513d601f19601f82011682018060405250810190610e9e919061498a565b6040516001600160e01b031960e084901b1681526004810191909152336024820152604401602060405180830381865afa158015610ede573d5f803e3d5ffd5b505050506040513d601f19601f82011682018060405250810190610f0291906149d9565b610dca57604051630ea7d7ed60e21b8152336004820152602401610a76565b5f80610f2b61071a565b90505f6010548211610f4a5781601054610f4591906149f8565b610f4c565b5f5b9050610fe3817f00000000000000000000000000000000000000000000000000000000000000006040516370a0823160e01b81526001600160a01b03888116600483015291909116906370a08231906024015b602060405180830381865afa158015610fba573d5f803e3d5ffd5b505050506040513d601f19601f82011682018060405250810190610fde919061498a565b612b76565b949350505050565b6001600160a01b0381165f9081526020819052604081205461095a9061094f565b5f806007544261101c91906149f8565b90505f306001600160a01b03166318160ddd6040518163ffffffff1660e01b8152600401602060405180830381865afa15801561105b573d5f803e3d5ffd5b505050506040513d601f19601f8201168201806040525081019061107f919061498a565b905061108b8183612b8b565b9250505090565b5f61109b61258e565b506110a68333612c05565b600d54604080516278744560e21b815290515f926001600160a01b0316916301e1d1149160048083019260209291908290030181865afa1580156110ec573d5f803e3d5ffd5b505050506040513d601f19601f82011682018060405250810190611110919061498a565b90505f61111c85611f71565b905061112a33858784612c38565b600d54611140906001600160a01b031686612cca565b336001600160a01b03165f80516020614cf683398151915283600d5f9054906101000a90046001600160a01b03166001600160a01b03166301e1d1146040518163ffffffff1660e01b8152600401602060405180830381865afa1580156111a9573d5f803e3d5ffd5b505050506040513d601f19601f820116820180604052508101906111cd919061498a565b6040805192835260208301919091520160405180910390a250929392505050565b5f6111f761258e565b506112028483612db0565b5f61120c85610977565b90505f611217612ea3565b9050611223818761309e565b611230338686898661318e565b6112395f600b55565b61124161258e565b509495945050505050565b60055460408051630ccc574960e41b815290516001600160a01b03909216916391d1485491839163ccc57490916004808201926020929091908290030181865afa15801561129c573d5f803e3d5ffd5b505050506040513d601f19601f820116820180604052508101906112c0919061498a565b6040516001600160e01b031960e084901b1681526004810191909152336024820152604401602060405180830381865afa158015611300573d5f803e3d5ffd5b505050506040513d601f19601f8201168201806040525081019061132491906149d9565b61134357604051630ea7d7ed60e21b8152336004820152602401610a76565b60108190556040518181527f333b26cca69716ad4680ddb07663f5bfb4f06045671f336af9a83690a3ae00f9906020015b60405180910390a150565b60055460408051630ccc574960e41b815290516001600160a01b03909216916391d1485491839163ccc57490916004808201926020929091908290030181865afa1580156113cf573d5f803e3d5ffd5b505050506040513d601f19601f820116820180604052508101906113f3919061498a565b6040516001600160e01b031960e084901b1681526004810191909152336024820152604401602060405180830381865afa158015611433573d5f803e3d5ffd5b505050506040513d601f19601f8201168201806040525081019061145791906149d9565b61147657604051630ea7d7ed60e21b8152336004820152602401610a76565b600f8190556040518181527f921fd87b17ccdcd7fe519f0ce2dbc43d06caa754f69aea63f232e5d790aaf6cd90602001611374565b5f6114b461258e565b506114bf833361324e565b600d54604080516278744560e21b815290515f926001600160a01b0316916301e1d1149160048083019260209291908290030181865afa158015611505573d5f803e3d5ffd5b505050506040513d601f19601f82011682018060405250810190611529919061498a565b90505f61153585611732565b905061154333858388612c38565b600d54611559906001600160a01b031682612cca565b336001600160a01b03165f80516020614cf683398151915283600d5f9054906101000a90046001600160a01b03166001600160a01b03166301e1d1146040518163ffffffff1660e01b8152600401602060405180830381865afa1580156115c2573d5f803e3d5ffd5b505050506040513d601f19601f820116820180604052508101906115e6919061498a565b6040805192835260208301919091520160405180910390a2949350505050565b6060600480546108ce906149a1565b60055460408051630ccc574960e41b815290516001600160a01b03909216916391d1485491839163ccc57490916004808201926020929091908290030181865afa158015611665573d5f803e3d5ffd5b505050506040513d601f19601f82011682018060405250810190611689919061498a565b6040516001600160e01b031960e084901b1681526004810191909152336024820152604401602060405180830381865afa1580156116c9573d5f803e3d5ffd5b505050506040513d601f19601f820116820180604052508101906116ed91906149d9565b61170c57604051630ea7d7ed60e21b8152336004820152602401610a76565b61171581613281565b50565b5f60405163ec47ea8b60e01b815260040160405180910390fd5b5f61095a82600161251a565b5f61174761258e565b50611752848361340c565b600d54604080516278744560e21b815290515f926001600160a01b0316916301e1d1149160048083019260209291908290030181865afa158015611798573d5f803e3d5ffd5b505050506040513d601f19601f820116820180604052508101906117bc919061498a565b90505f6117c886610977565b600d549091506117e1906001600160a01b0316876134ad565b6117ee338686898561318e565b336001600160a01b03165f80516020614cf683398151915283600d5f9054906101000a90046001600160a01b03166001600160a01b03166301e1d1146040518163ffffffff1660e01b8152600401602060405180830381865afa158015611857573d5f803e3d5ffd5b505050506040513d601f19601f8201168201806040525081019061187b919061498a565b6040805192835260208301919091520160405180910390a25093949350505050565b60055460408051631b25e0ad60e11b815290516001600160a01b03909216916391d1485491839163364bc15a916004808201926020929091908290030181865afa1580156118ed573d5f803e3d5ffd5b505050506040513d601f19601f82011682018060405250810190611911919061498a565b6040516001600160e01b031960e084901b1681526004810191909152336024820152604401602060405180830381865afa158015611951573d5f803e3d5ffd5b505050506040513d601f19601f8201168201806040525081019061197591906149d9565b611994576040516329068e8160e21b8152336004820152602401610a76565b600a54600b546119a490426149f8565b10156119d857600b54600a54604051630924dbf160e21b815260048101929092526024820152426044820152606401610a76565b42600b55610a8761258e565b5f6119ed61258e565b506119f884836134da565b600d54604080516278744560e21b815290515f926001600160a01b0316916301e1d1149160048083019260209291908290030181865afa158015611a3e573d5f803e3d5ffd5b505050506040513d601f19601f82011682018060405250810190611a62919061498a565b90505f611a6e8661094f565b600d54909150611a87906001600160a01b0316826134ad565b611a94338686848a61318e565b336001600160a01b03165f80516020614cf683398151915283600d5f9054906101000a90046001600160a01b03166001600160a01b03166301e1d1146040518163ffffffff1660e01b8152600401602060405180830381865afa158015611afd573d5f803e3d5ffd5b505050506040513d601f19601f82011682018060405250810190611b21919061498a565b6040805192835260208301919091520160405180910390a295945050505050565b60055460408051630ccc574960e41b815290516001600160a01b03909216916391d1485491839163ccc57490916004808201926020929091908290030181865afa158015611b92573d5f803e3d5ffd5b505050506040513d601f19601f82011682018060405250810190611bb6919061498a565b6040516001600160e01b031960e084901b1681526004810191909152336024820152604401602060405180830381865afa158015611bf6573d5f803e3d5ffd5b505050506040513d601f19601f82011682018060405250810190611c1a91906149d9565b611c3957604051630ea7d7ed60e21b8152336004820152602401610a76565b6001600160a01b0382165f908152600e602052604090205460ff16611c7c57604051632767039f60e01b81526001600160a01b0383166004820152602401610a76565b5f826001600160a01b0316639b3ba79f6040518163ffffffff1660e01b8152600401602060405180830381865afa158015611cb9573d5f803e3d5ffd5b505050506040513d601f19601f82011682018060405250810190611cdd919061498a565b604051631cbc48d160e21b8152600481018490529091506001600160a01b038416906372f12344906024015f604051808303815f87803b158015611d1f575f80fd5b505af1158015611d31573d5f803e3d5ffd5b5050508115801591508315159082611d465750805b15611d9a57600c80546001810182555f919091527fdf6966c971051c3d54ec59162606531493a51404a002842f56009d7e5cf4a8c70180546001600160a01b0319166001600160a01b038716179055611ea2565b818015611da5575080155b15611ea2575f5b600c54811015611ea057856001600160a01b0316600c8281548110611dd357611dd3614976565b5f918252602090912001546001600160a01b031603611e9857600c8054611dfc906001906149f8565b81548110611e0c57611e0c614976565b5f91825260209091200154600c80546001600160a01b039092169183908110611e3757611e37614976565b905f5260205f20015f6101000a8154816001600160a01b0302191690836001600160a01b03160217905550600c805480611e7357611e73614a24565b5f8281526020902081015f1990810180546001600160a01b0319169055019055611ea0565b600101611dac565b505b846001600160a01b03167fbbf394c9e49425a17dd7804e3bfb9eeedf2ab63b75919b681032584d46785b7285604051611edd91815260200190565b60405180910390a25050505050565b5f80611ef661071a565b90505f6010548211611f155781601054611f1091906149f8565b611f17565b5f5b9050610fe361061a827f00000000000000000000000000000000000000000000000000000000000000006040516370a0823160e01b81526001600160a01b03898116600483015291909116906370a0823190602401610f9f565b5f61095a825f61255f565b60055460408051630ccc574960e41b815290516001600160a01b03909216916391d1485491839163ccc57490916004808201926020929091908290030181865afa158015611fcc573d5f803e3d5ffd5b505050506040513d601f19601f82011682018060405250810190611ff0919061498a565b6040516001600160e01b031960e084901b1681526004810191909152336024820152604401602060405180830381865afa158015612030573d5f803e3d5ffd5b505050506040513d601f19601f8201168201806040525081019061205491906149d9565b61207357604051630ea7d7ed60e21b8152336004820152602401610a76565b5f5b81811015610a92576120ac83838381811061209257612092614976565b90506020020160208101906120a79190614806565b6135c8565b600101612075565b5f61095a600d5f9054906101000a90046001600160a01b03166001600160a01b03166301e1d1146040518163ffffffff1660e01b8152600401602060405180830381865afa158015612108573d5f803e3d5ffd5b505050506040513d601f19601f8201168201806040525081019061212c919061498a565b610fde61037d856001600160a01b03165f9081526020819052604090205490565b5f61095a6121c8600d5f9054906101000a90046001600160a01b03166001600160a01b03166301e1d1146040518163ffffffff1660e01b8152600401602060405180830381865afa1580156121a4573d5f803e3d5ffd5b505050506040513d601f19601f820116820180604052508101906103b3919061498a565b6001600160a01b0384165f90815260208190526040902054612b76565b60055460408051630ccc574960e41b815290516001600160a01b03909216916391d1485491839163ccc57490916004808201926020929091908290030181865afa158015612235573d5f803e3d5ffd5b505050506040513d601f19601f82011682018060405250810190612259919061498a565b6040516001600160e01b031960e084901b1681526004810191909152336024820152604401602060405180830381865afa158015612299573d5f803e3d5ffd5b505050506040513d601f19601f820116820180604052508101906122bd91906149d9565b6122dc57604051630ea7d7ed60e21b8152336004820152602401610a76565b611715816136be565b60055460408051630ccc574960e41b815290516001600160a01b03909216916391d1485491839163ccc57490916004808201926020929091908290030181865afa158015612335573d5f803e3d5ffd5b505050506040513d601f19601f82011682018060405250810190612359919061498a565b6040516001600160e01b031960e084901b1681526004810191909152336024820152604401602060405180830381865afa158015612399573d5f803e3d5ffd5b505050506040513d601f19601f820116820180604052508101906123bd91906149d9565b6123dc57604051630ea7d7ed60e21b8152336004820152602401610a76565b611715816135c8565b60055460408051630ccc574960e41b815290516001600160a01b03909216916391d1485491839163ccc57490916004808201926020929091908290030181865afa158015612435573d5f803e3d5ffd5b505050506040513d601f19601f82011682018060405250810190612459919061498a565b6040516001600160e01b031960e084901b1681526004810191909152336024820152604401602060405180830381865afa158015612499573d5f803e3d5ffd5b505050506040513d601f19601f820116820180604052508101906124bd91906149d9565b6124dc57604051630ea7d7ed60e21b8152336004820152602401610a76565b6124ee6124e983836136ff565b613721565b5050565b600c8181548110612501575f80fd5b5f918252602090912001546001600160a01b0316905081565b5f610dea61252661071a565b61253190600161494f565b61253c5f600a614b1b565b600254612549919061494f565b85919085613785565b610a9283838360016137d4565b5f610dea61256e82600a614b1b565b60025461257b919061494f565b61258361071a565b61254990600161494f565b5f6125a260065461259e5f613898565b1490565b156125b05750426007555f90565b5f600754426125bf91906149f8565b9050805f036125cf575f91505090565b5f306001600160a01b03166318160ddd6040518163ffffffff1660e01b8152600401602060405180830381865afa15801561260c573d5f803e3d5ffd5b505050506040513d601f19601f82011682018060405250810190612630919061498a565b905061263c8183612b8b565b925082156108ba5760085461265a906001600160a01b0316846138af565b426007556040518381527f698f29fe990d4e7770f7e74cd309da261dd03ca828f7bb3c2ea8b8c9adcc0ecd9060200160405180910390a1505090565b5f6126a183836138b9565b5f5b828110156126ef576126db8484838181106126c0576126c0614976565b9050606002018036038101906126d69190614b29565b613c56565b6126e5908361494f565b91506001016126a3565b50336001600160a01b03167f45db9ca78132c596e471d71a17273b2fb3edf8bc5052dba93052bc208d322b34848460405161272b929190614ba0565b60405180910390a292915050565b600d545f906001600160a01b03168383838161275757612757614976565b905060600201602001602081019061276f9190614806565b6001600160a01b03161490505f600d5f9054906101000a90046001600160a01b03166001600160a01b03166301e1d1146040518163ffffffff1660e01b8152600401602060405180830381865afa1580156127cc573d5f803e3d5ffd5b505050506040513d601f19601f820116820180604052508101906127f0919061498a565b90505f805b848110156128f15785858281811061280f5761280f614976565b9050606002016040013582612824919061494f565b9150831561288e57600d546001600160a01b031686868381811061284a5761284a614976565b90506060020160200160208101906128629190614806565b6001600160a01b03161461288957604051633abef25360e21b815260040160405180910390fd5b6128e9565b600d546001600160a01b03168686838181106128ac576128ac614976565b6128c29260206060909202019081019150614806565b6001600160a01b0316146128e957604051633abef25360e21b815260040160405180910390fd5b6001016127f5565b508261295057600f54821161291c57604051600162efa20760e01b0319815260040160405180910390fd5b5f600f548361292b91906149f8565b90508082111561294e57604051633b5391f960e01b815260040160405180910390fd5b505b5050505050565b60095f9054906101000a90046001600160a01b03166001600160a01b0316637aaceb956040518163ffffffff1660e01b81526004016020604051808303815f875af11580156129a8573d5f803e3d5ffd5b505050506040513d601f19601f820116820180604052508101906129cc9190614c12565b600880546001600160a01b0319166001600160a01b03929092169182179055612a0857604051631d2f8a9960e01b815260040160405180910390fd5b60095460408051637aaceb9560e01b815290517fba7f8033d690b39fb06e1eb3a0ef57ae8ce342fa4cd8d4f24f870e1e22931644926001600160a01b031691637aaceb9591600480830192602092919082900301815f875af1158015612a70573d5f803e3d5ffd5b505050506040513d601f19601f82011682018060405250810190612a949190614c12565b6040516001600160a01b03909116815260200160405180910390a1565b6001600160a01b038381165f908152600160209081526040808320938616835292905220545f198114612b135781811015612b0557828183604051637dc7a0d960e11b8152600401610a7693929190614c2d565b612b1384848484035f6137d4565b50505050565b6001600160a01b038316612b4257604051634b637e8f60e11b81525f6004820152602401610a76565b6001600160a01b038216612b6b5760405163ec442f0560e01b81525f6004820152602401610a76565b610a92838383613e82565b5f818310612b845781610dea565b5090919050565b5f806301e13380600654612b9f9190614c62565b90505f612be2612bc5612bb46012600a614c75565b612bbf906064614c80565b84613f95565b85612bd26012600a614c75565b612bdd906064614c80565b613fa0565b90505f612bef8683614079565b9050612bfb86826149f8565b9695505050505050565b5f612c0f82610f21565b905080831115610a9257818382604051633c8097d960e11b8152600401610a7693929190614c2d565b612c647f000000000000000000000000000000000000000000000000000000000000000085308561409b565b612c6e8382614102565b826001600160a01b0316846001600160a01b03167fdcbc1c05240f31ff3ad067ef1ee35ce4997762752e3a095284754544f4c709d78484604051612cbc929190918252602082015260400190565b60405180910390a350505050565b7f000000000000000000000000000000000000000000000000000000000000000060405163095ea7b360e01b81526001600160a01b03848116600483015260248201849052919091169063095ea7b3906044016020604051808303815f875af1158015612d39573d5f803e3d5ffd5b505050506040513d601f19601f82011682018060405250810190612d5d91906149d9565b506040516328ed6e3f60e01b8152600481018290526001600160a01b038316906328ed6e3f906024015b5f604051808303815f87803b158015612d9e575f80fd5b505af115801561294e573d5f803e3d5ffd5b336001600160a01b03821614801590612e3c5750813063dd62ed3e83336040516001600160e01b031960e085901b1681526001600160a01b03928316600482015291166024820152604401602060405180830381865afa158015612e16573d5f803e3d5ffd5b505050506040513d601f19601f82011682018060405250810190612e3a919061498a565b105b15612e7057335b604051638b27f8ed60e01b81526001600160a01b0391821660048201529082166024820152604401610a76565b5f612e7a82610feb565b905080831115610a9257818382604051633fa733bb60e21b8152600401610a7693929190614c2d565b600c546060905f90612eb690600161494f565b67ffffffffffffffff811115612ece57612ece614962565b604051908082528060200260200182016040528015612ef7578160200160208202803683370190505b50600c549091505f9067ffffffffffffffff811115612f1857612f18614962565b604051908082528060200260200182016040528015612f41578160200160208202803683370190505b5090505f5b600c5481101561305057600c8181548110612f6357612f63614976565b5f918252602091829020015460408051631627391760e11b815290516001600160a01b0390921692632c4e722e926004808401938290030181865afa158015612fae573d5f803e3d5ffd5b505050506040513d601f19601f82011682018060405250810190612fd2919061498a565b828281518110612fe457612fe4614976565b602002602001018181525050600c818154811061300357613003614976565b905f5260205f20015f9054906101000a90046001600160a01b031683828151811061303057613030614976565b6001600160a01b0390921660209283029190910190910152600101612f46565b5061305b8282614136565b600d54600c5483516001600160a01b0390921691849190811061308057613080614976565b6001600160a01b039092166020928302919091019091015250919050565b5f5b8251811015610a92575f8382815181106130bc576130bc614976565b60200260200101516001600160a01b03166301e1d1146040518163ffffffff1660e01b8152600401602060405180830381865afa1580156130ff573d5f803e3d5ffd5b505050506040513d601f19601f82011682018060405250810190613123919061498a565b905082811061314f57612b1384838151811061314157613141614976565b6020026020010151846134ad565b80156131855761317884838151811061316a5761316a614976565b6020026020010151826134ad565b61318281846149f8565b92505b506001016130a0565b826001600160a01b0316856001600160a01b0316146131b2576131b2838683612ab1565b6131bc838261428e565b6131e77f000000000000000000000000000000000000000000000000000000000000000085846142c2565b826001600160a01b0316846001600160a01b0316866001600160a01b03167ffbde797d201c681b91056529119e0b02407c7bb96a4a2c75c01fc9667232c8db858560405161323f929190918252602082015260400190565b60405180910390a45050505050565b5f61325882611eec565b905080831115610a925781838260405163284ff66760e01b8152600401610a7693929190614c2d565b6001600160a01b0381165f908152600e602052604090205460ff166132c457604051632767039f60e01b81526001600160a01b0382166004820152602401610a76565b5f5b600c548110156133c357816001600160a01b0316600c82815481106132ed576132ed614976565b5f918252602090912001546001600160a01b0316036133bb5761330f826142f3565b600c805461331f906001906149f8565b8154811061332f5761332f614976565b5f91825260209091200154600c80546001600160a01b03909216918390811061335a5761335a614976565b905f5260205f20015f6101000a8154816001600160a01b0302191690836001600160a01b03160217905550600c80548061339657613396614a24565b5f8281526020902081015f1990810180546001600160a01b03191690550190556133c3565b6001016132c6565b506001600160a01b0381165f818152600e6020526040808220805460ff19169055517f66d72a91b52f63fb063c4f672763d7ef15ce4d7c9a268a7f9b5133e41c1709a59190a250565b336001600160a01b038216148015906134985750813063dd62ed3e83336040516001600160e01b031960e085901b1681526001600160a01b03928316600482015291166024820152604401602060405180830381865afa158015613472573d5f803e3d5ffd5b505050506040513d601f19601f82011682018060405250810190613496919061498a565b105b156134a35733612e43565b5f612e7a826120b4565b6040516326ea3f5d60e11b8152600481018290526001600160a01b03831690634dd47eba90602401612d87565b336001600160a01b038216148015906135665750813063dd62ed3e83336040516001600160e01b031960e085901b1681526001600160a01b03928316600482015291166024820152604401602060405180830381865afa158015613540573d5f803e3d5ffd5b505050506040513d601f19601f82011682018060405250810190613564919061498a565b105b1561359557604051630c849df760e41b81523360048201526001600160a01b0382166024820152604401610a76565b5f61359f8261214d565b905080831115610a9257818382604051632e52afbb60e21b8152600401610a7693929190614c2d565b6001600160a01b0381166135ef5760405163210e96cb60e01b815260040160405180910390fd5b6001600160a01b0381165f908152600e602052604090205460ff161561363357604051637eadea0960e11b81526001600160a01b0382166004820152602401610a76565b6001600160a01b0381165f818152600e6020526040808220805460ff19166001908117909155600c8054918201815583527fdf6966c971051c3d54ec59162606531493a51404a002842f56009d7e5cf4a8c70180546001600160a01b03191684179055517fcb4a29d359e86f179111dcba8714def1a859612f729f2d224d13efeac51b36bc9190a250565b600a5460408051918252602082018390527f5953b565c074c2cce1866b4e69c9efc4908556bb6fca70f735907c94d9405515910160405180910390a1600a55565b5f8161370d6012600a614c75565b6137179085614c80565b610dea9190614c62565b61372a8161440b565b613747576040516319ecf1a560e31b815260040160405180910390fd5b61374f61258e565b5060068190556040518181527f186e864438b783eec69fd7ce4871c28accfc0b45558ea08c48540f76094fecde90602001611374565b5f8061379286868661442c565b905061379d836144eb565b80156137b857505f84806137b3576137b3614c4e565b868809115b156137cb576137c860018261494f565b90505b95945050505050565b6001600160a01b0384166137fd5760405163e602df0560e01b81525f6004820152602401610a76565b6001600160a01b03831661382657604051634a1406b160e11b81525f6004820152602401610a76565b6001600160a01b038085165f9081526001602090815260408083209387168352929052208290558015612b1357826001600160a01b0316846001600160a01b03167f8c5be1e5ebec7d5bd14f71427d1e84f3dd0314c0f7b2291e5b200ac8c7c3b92584604051612cbc91815260200190565b5f6138a56012600a614c75565b61095a9083614c80565b6124ee8282614102565b600a8111156138de5760405163899a5d8160e01b815260048101829052602401610a76565b5f8190036138ff576040516304dcdcd560e31b815260040160405180910390fd5b5f5b81811015610a925782828281811061391b5761391b614976565b905060600201604001355f0361397a5782828281811061393d5761393d614976565b90506060020160200160208101906139559190614806565b604051630a16952b60e21b81526001600160a01b039091166004820152602401610a76565b5f83838381811061398d5761398d614976565b90506060020160200160208101906139a59190614806565b6001600160a01b031603613a02578282828181106139c5576139c5614976565b90506060020160200160208101906139dd9190614806565b604051632767039f60e01b81526001600160a01b039091166004820152602401610a76565b5f838383818110613a1557613a15614976565b613a2b9260206060909202019081019150614806565b6001600160a01b031603613a6157828282818110613a4b57613a4b614976565b6139dd9260206060909202019081019150614806565b600e5f848484818110613a7657613a76614976565b9050606002016020016020810190613a8e9190614806565b6001600160a01b0316815260208101919091526040015f205460ff16613afd57828282818110613ac057613ac0614976565b9050606002016020016020810190613ad89190614806565b60405163c80e655f60e01b81526001600160a01b039091166004820152602401610a76565b600e5f848484818110613b1257613b12614976565b613b289260206060909202019081019150614806565b6001600160a01b0316815260208101919091526040015f205460ff16613b7057828282818110613b5a57613b5a614976565b613ad89260206060909202019081019150614806565b828282818110613b8257613b82614976565b9050606002016020016020810190613b9a9190614806565b6001600160a01b0316639b3ba79f6040518163ffffffff1660e01b8152600401602060405180830381865afa158015613bd5573d5f803e3d5ffd5b505050506040513d601f19601f82011682018060405250810190613bf9919061498a565b5f03613c4e57828282818110613c1157613c11614976565b9050606002016020016020810190613c299190614806565b604051635e49a2c160e01b81526001600160a01b039091166004820152602401610a76565b600101613901565b60208082015182516040808501518151639b3ba79f60e01b815291515f95919286926001600160a01b03871692639b3ba79f9260048082019392918290030181865afa158015613ca8573d5f803e3d5ffd5b505050506040513d601f19601f82011682018060405250810190613ccc919061498a565b600d549091506001600160a01b03858116911614613dd4575f846001600160a01b0316632c4e722e6040518163ffffffff1660e01b8152600401602060405180830381865afa158015613d21573d5f803e3d5ffd5b505050506040513d601f19601f82011682018060405250810190613d45919061498a565b90505f846001600160a01b0316632c4e722e6040518163ffffffff1660e01b8152600401602060405180830381865afa158015613d84573d5f803e3d5ffd5b505050506040513d601f19601f82011682018060405250810190613da8919061498a565b905080821015613dd157858282604051630cf7396960e11b8152600401610a7693929190614c2d565b50505b5f846001600160a01b03166301e1d1146040518163ffffffff1660e01b8152600401602060405180830381865afa158015613e11573d5f803e3d5ffd5b505050506040513d601f19601f82011682018060405250810190613e35919061498a565b905081613e42848361494f565b1115613e6c5760405163077fc1ab60e51b81526001600160a01b0386166004820152602401610a76565b613e77848685614517565b509095945050505050565b6001600160a01b038316613eac578060025f828254613ea1919061494f565b90915550613f099050565b6001600160a01b0383165f9081526020819052604090205481811015613eeb5783818360405163391434e360e21b8152600401610a7693929190614c2d565b6001600160a01b0384165f9081526020819052604090209082900390555b6001600160a01b038216613f2557600280548290039055613f43565b6001600160a01b0382165f9081526020819052604090208054820190555b816001600160a01b0316836001600160a01b03167fddf252ad1be2c89b69c2b068fc378daa952ba7f163c4a11628f55a4df523b3ef83604051613f8891815260200190565b60405180910390a3505050565b5f610dea828461494f565b5f838282821580613faf575085155b15613fd4578515613fc857613fc35f613898565b613fca565b845b9350505050610dea565b613fdf600287614c97565b15613fea5782613fec565b815b90505f613ffa600284614c62565b90506002870496505b861561406e578384028485820414614019575f80fd5b81810181811015614028575f80fd5b849004945050600187161561406357838202828582041415851515161561404d575f80fd5b8181018181101561405c575f80fd5b8490049250505b600287049650614003565b509695505050505050565b5f6140866012600a614c75565b614091906064614c80565b6137178385614c80565b6040516001600160a01b038481166024830152838116604483015260648201839052612b139186918216906323b872dd906084015b604051602081830303815290604052915060e01b6020820180516001600160e01b038381831617835250505050614579565b6001600160a01b03821661412b5760405163ec442f0560e01b81525f6004820152602401610a76565b6124ee5f8383613e82565b5f5b8151811015610a92575f61414d82600161494f565b90505b82518110156142855782818151811061416b5761416b614976565b602002602001015183838151811061418557614185614976565b6020026020010151111561427d578281815181106141a5576141a5614976565b60200260200101518383815181106141bf576141bf614976565b60200260200101518484815181106141d9576141d9614976565b602002602001018584815181106141f2576141f2614976565b602002602001018281525082815250505083818151811061421557614215614976565b602002602001015184838151811061422f5761422f614976565b602002602001015185848151811061424957614249614976565b6020026020010186848151811061426257614262614976565b6001600160a01b039384166020918202929092010152911690525b600101614150565b50600101614138565b6001600160a01b0382166142b757604051634b637e8f60e11b81525f6004820152602401610a76565b6124ee825f83613e82565b6040516001600160a01b03838116602483015260448201839052610a9291859182169063a9059cbb906064016140d0565b5f8190505f816001600160a01b0316639b3ba79f6040518163ffffffff1660e01b8152600401602060405180830381865afa158015614334573d5f803e3d5ffd5b505050506040513d601f19601f82011682018060405250810190614358919061498a565b111561438257604051631f80e32960e31b81526001600160a01b0383166004820152602401610a76565b806001600160a01b03166301e1d1146040518163ffffffff1660e01b8152600401602060405180830381865afa1580156143be573d5f803e3d5ffd5b505050506040513d601f19601f820116820180604052508101906143e2919061498a565b156124ee5760405163ca4a18b360e01b81526001600160a01b0383166004820152602401610a76565b5f61095a8261441c6012600a614c75565b614427906064614c80565b101590565b5f838302815f1985870982811083820303915050805f036144605783828161445657614456614c4e565b0492505050610dea565b8084116144805760405163227bc15360e01b815260040160405180910390fd5b5f848688095f868103871696879004966002600389028118808a02820302808a02820302808a02820302808a02820302808a02820302808a02909103029181900381900460010186841190950394909402919094039290920491909117919091029150509392505050565b5f600282600381111561450057614500614caa565b61450a9190614cbe565b60ff166001149050919050565b604051636c54701d60e11b8152600481018290526001600160a01b03838116602483015284169063d8a8e03a906044015f604051808303815f87803b15801561455e575f80fd5b505af1158015614570573d5f803e3d5ffd5b50505050505050565b5f61458d6001600160a01b038416836145da565b905080515f141580156145b15750808060200190518101906145af91906149d9565b155b15610a9257604051635274afe760e01b81526001600160a01b0384166004820152602401610a76565b6060610dea83835f845f80856001600160a01b031684866040516145fe9190614cdf565b5f6040518083038185875af1925050503d805f8114614638576040519150601f19603f3d011682016040523d82523d5f602084013e61463d565b606091505b5091509150612bfb86838360608261465d57614658826146a4565b610dea565b815115801561467457506001600160a01b0384163b155b1561469d57604051639996b31560e01b81526001600160a01b0385166004820152602401610a76565b5080610dea565b8051156146b45780518082602001fd5b604051630a12f52160e11b815260040160405180910390fd5b602081525f82518060208401528060208501604085015e5f604082850101526040601f19601f83011684010191505092915050565b5f60208284031215614712575f80fd5b5035919050565b6001600160a01b0381168114611715575f80fd5b5f806040838503121561473e575f80fd5b823561474981614719565b946020939093013593505050565b5f8060208385031215614768575f80fd5b823567ffffffffffffffff81111561477e575f80fd5b8301601f8101851361478e575f80fd5b803567ffffffffffffffff8111156147a4575f80fd5b8560206060830284010111156147b8575f80fd5b6020919091019590945092505050565b5f805f606084860312156147da575f80fd5b83356147e581614719565b925060208401356147f581614719565b929592945050506040919091013590565b5f60208284031215614816575f80fd5b8135610dea81614719565b5f8060408385031215614832575f80fd5b82359150602083013561484481614719565b809150509250929050565b5f805f60608486031215614861575f80fd5b83359250602084013561487381614719565b9150604084013561488381614719565b809150509250925092565b5f806020838503121561489f575f80fd5b823567ffffffffffffffff8111156148b5575f80fd5b8301601f810185136148c5575f80fd5b803567ffffffffffffffff8111156148db575f80fd5b8560208260051b84010111156147b8575f80fd5b5f8060408385031215614900575f80fd5b823561490b81614719565b9150602083013561484481614719565b5f806040838503121561492c575f80fd5b50508035926020909101359150565b634e487b7160e01b5f52601160045260245ffd5b8082018082111561095a5761095a61493b565b634e487b7160e01b5f52604160045260245ffd5b634e487b7160e01b5f52603260045260245ffd5b5f6020828403121561499a575f80fd5b5051919050565b600181811c908216806149b557607f821691505b6020821081036149d357634e487b7160e01b5f52602260045260245ffd5b50919050565b5f602082840312156149e9575f80fd5b81518015158114610dea575f80fd5b8181038181111561095a5761095a61493b565b60ff818116838216019081111561095a5761095a61493b565b634e487b7160e01b5f52603160045260245ffd5b6001815b6001841115614a7357808504811115614a5757614a5761493b565b6001841615614a6557908102905b60019390931c928002614a3c565b935093915050565b5f82614a895750600161095a565b81614a9557505f61095a565b8160018114614aab5760028114614ab557614ad1565b600191505061095a565b60ff841115614ac657614ac661493b565b50506001821b61095a565b5060208310610133831016604e8410600b8410161715614af4575081810a61095a565b614b005f198484614a38565b805f1904821115614b1357614b1361493b565b029392505050565b5f610dea60ff841683614a7b565b5f6060828403128015614b3a575f80fd5b506040516060810167ffffffffffffffff81118282101715614b6a57634e487b7160e01b5f52604160045260245ffd5b6040528235614b7881614719565b81526020830135614b8881614719565b60208201526040928301359281019290925250919050565b602080825281018290525f8360408301825b85811015614c08578235614bc581614719565b6001600160a01b031682526020830135614bde81614719565b6001600160a01b031660208301526040838101359083015260609283019290910190600101614bb2565b5095945050505050565b5f60208284031215614c22575f80fd5b8151610dea81614719565b6001600160a01b039390931683526020830191909152604082015260600190565b634e487b7160e01b5f52601260045260245ffd5b5f82614c7057614c70614c4e565b500490565b5f610dea8383614a7b565b808202811582820484141761095a5761095a61493b565b5f82614ca557614ca5614c4e565b500690565b634e487b7160e01b5f52602160045260245ffd5b5f60ff831680614cd057614cd0614c4e565b8060ff84160691505092915050565b5f82518060208501845e5f92019182525091905056fee68a55afda2dca8343871fe0e5575a383291a40ae7d53e4dee12faf79cde144ea26469706673582212209cddca87fc413a670808b2ffc6a06ea992904378d4b043e3b8a9d0e72c38389164736f6c634300081a0033","linkReferences":{}},"methodIdentifiers":{"MAX_REBALANCE_OPERATIONS()":"5ed975e5","addArk(address)":"e37d5b7f","addArks(address[])":"cc5b1e55","adjustBuffer((address,address,uint256)[])":"0e4a840d","allowance(address,address)":"dd62ed3e","approve(address,uint256)":"095ea7b3","arks(uint256)":"ff32a42a","asset()":"38d52e0f","balanceOf(address)":"70a08231","bufferArk()":"c8169aa1","convertToAssets(uint256)":"07a2d13a","convertToShares(uint256)":"c6e6f592","decimals()":"313ce567","deposit(uint256,address)":"6e553f65","depositCap()":"dbd5edc7","emergencyShutdown()":"3403c2fc","estimateAccruedTip()":"68482626","forceRebalance((address,address,uint256)[])":"0cf0654e","forceWithdraw(uint256,address,address)":"7943fdc2","getCooldown()":"218e4a15","getLastActionTimestamp()":"3152d5d1","isArkActive(address)":"d25dd101","lastTipTimestamp()":"71aedbc1","manager()":"481c6a75","maxDeposit(address)":"402d267d","maxForceWithdraw(address)":"4834bd86","maxMint(address)":"c63d75b6","maxRedeem(address)":"d905777e","maxWithdraw(address)":"ce96cb77","minFundsBufferBalance()":"000dbedd","mint(uint256,address)":"94bf804d","name()":"06fdde03","previewDeposit(uint256)":"ef8b30f7","previewMint(uint256)":"b3d7f6b9","previewRedeem(uint256)":"4cdad506","previewWithdraw(uint256)":"0a28a477","rebalance((address,address,uint256)[])":"b64d620e","redeem(uint256,address,address)":"ba087652","removeArk(address)":"96c25a38","setDepositCap(uint256)":"86651203","setMaxAllocation(address,uint256)":"bb5adaea","setMinBufferBalance(uint256)":"9170b668","setTipJar()":"18d08d0b","setTipRate(uint256,uint256)":"ee27fb3e","symbol()":"95d89b41","tip()":"2755cd2d","tipJar()":"7aaceb95","tipRate()":"498e76a0","totalAssets()":"01e1d114","totalSupply()":"18160ddd","transfer(address,uint256)":"a9059cbb","transferFrom(address,address,uint256)":"23b872dd","updateRebalanceCooldown(uint256)":"dc9de0a8","withdraw(uint256,address,address)":"b460af94"},"id":59}