{"abi":[{"type":"constructor","inputs":[{"name":"params","type":"tuple","internalType":"struct FleetCommanderParams","components":[{"name":"governor","type":"address","internalType":"address"},{"name":"initialArks","type":"tuple[]","internalType":"struct ArkConfiguration[]","components":[{"name":"maxAllocation","type":"uint256","internalType":"Percentage"}]},{"name":"initialFundsBufferBalance","type":"uint256","internalType":"uint256"},{"name":"initialRebalanceCooldown","type":"uint256","internalType":"uint256"},{"name":"asset","type":"address","internalType":"address"},{"name":"name","type":"string","internalType":"string"},{"name":"symbol","type":"string","internalType":"string"},{"name":"initialMinimumPositionWithdrawal","type":"uint256","internalType":"Percentage"},{"name":"initialMaximumBufferWithdrawal","type":"uint256","internalType":"Percentage"}]}],"stateMutability":"nonpayable"},{"type":"function","name":"DEFAULT_ADMIN_ROLE","inputs":[],"outputs":[{"name":"","type":"bytes32","internalType":"bytes32"}],"stateMutability":"view"},{"type":"function","name":"GOVERNOR_ROLE","inputs":[],"outputs":[{"name":"","type":"bytes32","internalType":"bytes32"}],"stateMutability":"view"},{"type":"function","name":"KEEPER_ROLE","inputs":[],"outputs":[{"name":"","type":"bytes32","internalType":"bytes32"}],"stateMutability":"view"},{"type":"function","name":"addArk","inputs":[{"name":"ark","type":"address","internalType":"address"},{"name":"maxAllocation","type":"uint256","internalType":"uint256"}],"outputs":[],"stateMutability":"nonpayable"},{"type":"function","name":"adjustBuffer","inputs":[{"name":"data","type":"bytes","internalType":"bytes"}],"outputs":[],"stateMutability":"nonpayable"},{"type":"function","name":"allowance","inputs":[{"name":"owner","type":"address","internalType":"address"},{"name":"spender","type":"address","internalType":"address"}],"outputs":[{"name":"","type":"uint256","internalType":"uint256"}],"stateMutability":"view"},{"type":"function","name":"approve","inputs":[{"name":"spender","type":"address","internalType":"address"},{"name":"value","type":"uint256","internalType":"uint256"}],"outputs":[{"name":"","type":"bool","internalType":"bool"}],"stateMutability":"nonpayable"},{"type":"function","name":"arks","inputs":[{"name":"_address","type":"address","internalType":"address"}],"outputs":[{"name":"","type":"tuple","internalType":"struct ArkConfiguration","components":[{"name":"maxAllocation","type":"uint256","internalType":"Percentage"}]}],"stateMutability":"view"},{"type":"function","name":"asset","inputs":[],"outputs":[{"name":"","type":"address","internalType":"address"}],"stateMutability":"view"},{"type":"function","name":"balanceOf","inputs":[{"name":"account","type":"address","internalType":"address"}],"outputs":[{"name":"","type":"uint256","internalType":"uint256"}],"stateMutability":"view"},{"type":"function","name":"convertToAssets","inputs":[{"name":"shares","type":"uint256","internalType":"uint256"}],"outputs":[{"name":"","type":"uint256","internalType":"uint256"}],"stateMutability":"view"},{"type":"function","name":"convertToShares","inputs":[{"name":"assets","type":"uint256","internalType":"uint256"}],"outputs":[{"name":"","type":"uint256","internalType":"uint256"}],"stateMutability":"view"},{"type":"function","name":"decimals","inputs":[],"outputs":[{"name":"","type":"uint8","internalType":"uint8"}],"stateMutability":"view"},{"type":"function","name":"deposit","inputs":[{"name":"assets","type":"uint256","internalType":"uint256"},{"name":"receiver","type":"address","internalType":"address"}],"outputs":[{"name":"","type":"uint256","internalType":"uint256"}],"stateMutability":"nonpayable"},{"type":"function","name":"emergencyShutdown","inputs":[],"outputs":[],"stateMutability":"nonpayable"},{"type":"function","name":"forceRebalance","inputs":[{"name":"data","type":"bytes","internalType":"bytes"}],"outputs":[],"stateMutability":"nonpayable"},{"type":"function","name":"forceWithdraw","inputs":[{"name":"assets","type":"uint256","internalType":"uint256"},{"name":"receiver","type":"address","internalType":"address"},{"name":"owner","type":"address","internalType":"address"}],"outputs":[{"name":"","type":"uint256","internalType":"uint256"}],"stateMutability":"nonpayable"},{"type":"function","name":"fundsBufferBalance","inputs":[],"outputs":[{"name":"","type":"uint256","internalType":"uint256"}],"stateMutability":"view"},{"type":"function","name":"getRoleAdmin","inputs":[{"name":"role","type":"bytes32","internalType":"bytes32"}],"outputs":[{"name":"","type":"bytes32","internalType":"bytes32"}],"stateMutability":"view"},{"type":"function","name":"grantAdminRole","inputs":[{"name":"account","type":"address","internalType":"address"}],"outputs":[],"stateMutability":"nonpayable"},{"type":"function","name":"grantGovernorRole","inputs":[{"name":"account","type":"address","internalType":"address"}],"outputs":[],"stateMutability":"nonpayable"},{"type":"function","name":"grantKeeperRole","inputs":[{"name":"account","type":"address","internalType":"address"}],"outputs":[],"stateMutability":"nonpayable"},{"type":"function","name":"grantRole","inputs":[{"name":"role","type":"bytes32","internalType":"bytes32"},{"name":"account","type":"address","internalType":"address"}],"outputs":[],"stateMutability":"nonpayable"},{"type":"function","name":"hasRole","inputs":[{"name":"role","type":"bytes32","internalType":"bytes32"},{"name":"account","type":"address","internalType":"address"}],"outputs":[{"name":"","type":"bool","internalType":"bool"}],"stateMutability":"view"},{"type":"function","name":"lastRebalanceTime","inputs":[],"outputs":[{"name":"","type":"uint256","internalType":"uint256"}],"stateMutability":"view"},{"type":"function","name":"maxBufferWithdrawalPercentage","inputs":[],"outputs":[{"name":"","type":"uint256","internalType":"Percentage"}],"stateMutability":"view"},{"type":"function","name":"maxDeposit","inputs":[{"name":"","type":"address","internalType":"address"}],"outputs":[{"name":"","type":"uint256","internalType":"uint256"}],"stateMutability":"view"},{"type":"function","name":"maxMint","inputs":[{"name":"","type":"address","internalType":"address"}],"outputs":[{"name":"","type":"uint256","internalType":"uint256"}],"stateMutability":"view"},{"type":"function","name":"maxRedeem","inputs":[{"name":"owner","type":"address","internalType":"address"}],"outputs":[{"name":"","type":"uint256","internalType":"uint256"}],"stateMutability":"view"},{"type":"function","name":"maxWithdraw","inputs":[{"name":"owner","type":"address","internalType":"address"}],"outputs":[{"name":"","type":"uint256","internalType":"uint256"}],"stateMutability":"view"},{"type":"function","name":"minFundsBufferBalance","inputs":[],"outputs":[{"name":"","type":"uint256","internalType":"uint256"}],"stateMutability":"view"},{"type":"function","name":"minPositionWithdrawalPercentage","inputs":[],"outputs":[{"name":"","type":"uint256","internalType":"Percentage"}],"stateMutability":"view"},{"type":"function","name":"mint","inputs":[{"name":"shares","type":"uint256","internalType":"uint256"},{"name":"receiver","type":"address","internalType":"address"}],"outputs":[{"name":"","type":"uint256","internalType":"uint256"}],"stateMutability":"nonpayable"},{"type":"function","name":"mintSharesAsFees","inputs":[],"outputs":[],"stateMutability":"nonpayable"},{"type":"function","name":"name","inputs":[],"outputs":[{"name":"","type":"string","internalType":"string"}],"stateMutability":"view"},{"type":"function","name":"previewDeposit","inputs":[{"name":"assets","type":"uint256","internalType":"uint256"}],"outputs":[{"name":"","type":"uint256","internalType":"uint256"}],"stateMutability":"view"},{"type":"function","name":"previewMint","inputs":[{"name":"shares","type":"uint256","internalType":"uint256"}],"outputs":[{"name":"","type":"uint256","internalType":"uint256"}],"stateMutability":"view"},{"type":"function","name":"previewRedeem","inputs":[{"name":"shares","type":"uint256","internalType":"uint256"}],"outputs":[{"name":"","type":"uint256","internalType":"uint256"}],"stateMutability":"view"},{"type":"function","name":"previewWithdraw","inputs":[{"name":"assets","type":"uint256","internalType":"uint256"}],"outputs":[{"name":"","type":"uint256","internalType":"uint256"}],"stateMutability":"view"},{"type":"function","name":"rebalance","inputs":[{"name":"data","type":"bytes","internalType":"bytes"}],"outputs":[],"stateMutability":"nonpayable"},{"type":"function","name":"rebalanceCooldown","inputs":[],"outputs":[{"name":"","type":"uint256","internalType":"uint256"}],"stateMutability":"view"},{"type":"function","name":"redeem","inputs":[{"name":"shares","type":"uint256","internalType":"uint256"},{"name":"receiver","type":"address","internalType":"address"},{"name":"owner","type":"address","internalType":"address"}],"outputs":[{"name":"","type":"uint256","internalType":"uint256"}],"stateMutability":"nonpayable"},{"type":"function","name":"renounceRole","inputs":[{"name":"role","type":"bytes32","internalType":"bytes32"},{"name":"callerConfirmation","type":"address","internalType":"address"}],"outputs":[],"stateMutability":"nonpayable"},{"type":"function","name":"revokeAdminRole","inputs":[{"name":"account","type":"address","internalType":"address"}],"outputs":[],"stateMutability":"nonpayable"},{"type":"function","name":"revokeGovernorRole","inputs":[{"name":"account","type":"address","internalType":"address"}],"outputs":[],"stateMutability":"nonpayable"},{"type":"function","name":"revokeKeeperRole","inputs":[{"name":"account","type":"address","internalType":"address"}],"outputs":[],"stateMutability":"nonpayable"},{"type":"function","name":"revokeRole","inputs":[{"name":"role","type":"bytes32","internalType":"bytes32"},{"name":"account","type":"address","internalType":"address"}],"outputs":[],"stateMutability":"nonpayable"},{"type":"function","name":"setDepositCap","inputs":[{"name":"newCap","type":"uint256","internalType":"uint256"}],"outputs":[],"stateMutability":"nonpayable"},{"type":"function","name":"setFeeAddress","inputs":[{"name":"newAddress","type":"address","internalType":"address"}],"outputs":[],"stateMutability":"nonpayable"},{"type":"function","name":"setMinBufferBalance","inputs":[{"name":"newBalance","type":"uint256","internalType":"uint256"}],"outputs":[],"stateMutability":"nonpayable"},{"type":"function","name":"supportsInterface","inputs":[{"name":"interfaceId","type":"bytes4","internalType":"bytes4"}],"outputs":[{"name":"","type":"bool","internalType":"bool"}],"stateMutability":"view"},{"type":"function","name":"symbol","inputs":[],"outputs":[{"name":"","type":"string","internalType":"string"}],"stateMutability":"view"},{"type":"function","name":"totalAssets","inputs":[],"outputs":[{"name":"","type":"uint256","internalType":"uint256"}],"stateMutability":"view"},{"type":"function","name":"totalSupply","inputs":[],"outputs":[{"name":"","type":"uint256","internalType":"uint256"}],"stateMutability":"view"},{"type":"function","name":"transfer","inputs":[{"name":"","type":"address","internalType":"address"},{"name":"","type":"uint256","internalType":"uint256"}],"outputs":[{"name":"","type":"bool","internalType":"bool"}],"stateMutability":"pure"},{"type":"function","name":"transferFrom","inputs":[{"name":"from","type":"address","internalType":"address"},{"name":"to","type":"address","internalType":"address"},{"name":"value","type":"uint256","internalType":"uint256"}],"outputs":[{"name":"","type":"bool","internalType":"bool"}],"stateMutability":"nonpayable"},{"type":"function","name":"updateRebalanceCooldown","inputs":[{"name":"newCooldown","type":"uint256","internalType":"uint256"}],"outputs":[],"stateMutability":"nonpayable"},{"type":"function","name":"withdraw","inputs":[{"name":"assets","type":"uint256","internalType":"uint256"},{"name":"receiver","type":"address","internalType":"address"},{"name":"owner","type":"address","internalType":"address"}],"outputs":[{"name":"","type":"uint256","internalType":"uint256"}],"stateMutability":"nonpayable"},{"type":"event","name":"Approval","inputs":[{"name":"owner","type":"address","indexed":true,"internalType":"address"},{"name":"spender","type":"address","indexed":true,"internalType":"address"},{"name":"value","type":"uint256","indexed":false,"internalType":"uint256"}],"anonymous":false},{"type":"event","name":"ArkAdded","inputs":[{"name":"ark","type":"address","indexed":true,"internalType":"address"},{"name":"maxAllocation","type":"uint256","indexed":false,"internalType":"uint256"}],"anonymous":false},{"type":"event","name":"Deposit","inputs":[{"name":"sender","type":"address","indexed":true,"internalType":"address"},{"name":"owner","type":"address","indexed":true,"internalType":"address"},{"name":"assets","type":"uint256","indexed":false,"internalType":"uint256"},{"name":"shares","type":"uint256","indexed":false,"internalType":"uint256"}],"anonymous":false},{"type":"event","name":"DepositCapUpdated","inputs":[{"name":"newCap","type":"uint256","indexed":false,"internalType":"uint256"}],"anonymous":false},{"type":"event","name":"FeeAddressUpdated","inputs":[{"name":"newAddress","type":"address","indexed":false,"internalType":"address"}],"anonymous":false},{"type":"event","name":"FundsBufferBalanceUpdated","inputs":[{"name":"user","type":"address","indexed":true,"internalType":"address"},{"name":"prevBalance","type":"uint256","indexed":false,"internalType":"uint256"},{"name":"newBalance","type":"uint256","indexed":false,"internalType":"uint256"}],"anonymous":false},{"type":"event","name":"FundsQueueRefilled","inputs":[{"name":"keeper","type":"address","indexed":true,"internalType":"address"},{"name":"prevBalance","type":"uint256","indexed":false,"internalType":"uint256"},{"name":"newBalance","type":"uint256","indexed":false,"internalType":"uint256"}],"anonymous":false},{"type":"event","name":"MinFundsQueueBalanceUpdated","inputs":[{"name":"keeper","type":"address","indexed":true,"internalType":"address"},{"name":"newBalance","type":"uint256","indexed":false,"internalType":"uint256"}],"anonymous":false},{"type":"event","name":"QueuedFundsCommitted","inputs":[{"name":"keeper","type":"address","indexed":true,"internalType":"address"},{"name":"prevBalance","type":"uint256","indexed":false,"internalType":"uint256"},{"name":"newBalance","type":"uint256","indexed":false,"internalType":"uint256"}],"anonymous":false},{"type":"event","name":"Rebalanced","inputs":[{"name":"keeper","type":"address","indexed":true,"internalType":"address"},{"name":"rebalances","type":"tuple[]","indexed":false,"internalType":"struct IFleetCommander.RebalanceEventData[]","components":[{"name":"fromArk","type":"address","internalType":"address"},{"name":"toArk","type":"address","internalType":"address"},{"name":"amount","type":"uint256","internalType":"uint256"}]}],"anonymous":false},{"type":"event","name":"RoleAdminChanged","inputs":[{"name":"role","type":"bytes32","indexed":true,"internalType":"bytes32"},{"name":"previousAdminRole","type":"bytes32","indexed":true,"internalType":"bytes32"},{"name":"newAdminRole","type":"bytes32","indexed":true,"internalType":"bytes32"}],"anonymous":false},{"type":"event","name":"RoleGranted","inputs":[{"name":"role","type":"bytes32","indexed":true,"internalType":"bytes32"},{"name":"account","type":"address","indexed":true,"internalType":"address"},{"name":"sender","type":"address","indexed":true,"internalType":"address"}],"anonymous":false},{"type":"event","name":"RoleRevoked","inputs":[{"name":"role","type":"bytes32","indexed":true,"internalType":"bytes32"},{"name":"account","type":"address","indexed":true,"internalType":"address"},{"name":"sender","type":"address","indexed":true,"internalType":"address"}],"anonymous":false},{"type":"event","name":"Transfer","inputs":[{"name":"from","type":"address","indexed":true,"internalType":"address"},{"name":"to","type":"address","indexed":true,"internalType":"address"},{"name":"value","type":"uint256","indexed":false,"internalType":"uint256"}],"anonymous":false},{"type":"event","name":"Withdraw","inputs":[{"name":"sender","type":"address","indexed":true,"internalType":"address"},{"name":"receiver","type":"address","indexed":true,"internalType":"address"},{"name":"owner","type":"address","indexed":true,"internalType":"address"},{"name":"assets","type":"uint256","indexed":false,"internalType":"uint256"},{"name":"shares","type":"uint256","indexed":false,"internalType":"uint256"}],"anonymous":false},{"type":"error","name":"AccessControlBadConfirmation","inputs":[]},{"type":"error","name":"AccessControlUnauthorizedAccount","inputs":[{"name":"account","type":"address","internalType":"address"},{"name":"neededRole","type":"bytes32","internalType":"bytes32"}]},{"type":"error","name":"AddressEmptyCode","inputs":[{"name":"target","type":"address","internalType":"address"}]},{"type":"error","name":"AddressInsufficientBalance","inputs":[{"name":"account","type":"address","internalType":"address"}]},{"type":"error","name":"CallerIsNotAdmin","inputs":[{"name":"caller","type":"address","internalType":"address"}]},{"type":"error","name":"CallerIsNotGovernor","inputs":[{"name":"caller","type":"address","internalType":"address"}]},{"type":"error","name":"CallerIsNotKeeper","inputs":[{"name":"caller","type":"address","internalType":"address"}]},{"type":"error","name":"CallerIsNotRoleAdmin","inputs":[{"name":"caller","type":"address","internalType":"address"}]},{"type":"error","name":"ERC20InsufficientAllowance","inputs":[{"name":"spender","type":"address","internalType":"address"},{"name":"allowance","type":"uint256","internalType":"uint256"},{"name":"needed","type":"uint256","internalType":"uint256"}]},{"type":"error","name":"ERC20InsufficientBalance","inputs":[{"name":"sender","type":"address","internalType":"address"},{"name":"balance","type":"uint256","internalType":"uint256"},{"name":"needed","type":"uint256","internalType":"uint256"}]},{"type":"error","name":"ERC20InvalidApprover","inputs":[{"name":"approver","type":"address","internalType":"address"}]},{"type":"error","name":"ERC20InvalidReceiver","inputs":[{"name":"receiver","type":"address","internalType":"address"}]},{"type":"error","name":"ERC20InvalidSender","inputs":[{"name":"sender","type":"address","internalType":"address"}]},{"type":"error","name":"ERC20InvalidSpender","inputs":[{"name":"spender","type":"address","internalType":"address"}]},{"type":"error","name":"ERC4626ExceededMaxDeposit","inputs":[{"name":"receiver","type":"address","internalType":"address"},{"name":"assets","type":"uint256","internalType":"uint256"},{"name":"max","type":"uint256","internalType":"uint256"}]},{"type":"error","name":"ERC4626ExceededMaxMint","inputs":[{"name":"receiver","type":"address","internalType":"address"},{"name":"shares","type":"uint256","internalType":"uint256"},{"name":"max","type":"uint256","internalType":"uint256"}]},{"type":"error","name":"ERC4626ExceededMaxRedeem","inputs":[{"name":"owner","type":"address","internalType":"address"},{"name":"shares","type":"uint256","internalType":"uint256"},{"name":"max","type":"uint256","internalType":"uint256"}]},{"type":"error","name":"ERC4626ExceededMaxWithdraw","inputs":[{"name":"owner","type":"address","internalType":"address"},{"name":"assets","type":"uint256","internalType":"uint256"},{"name":"max","type":"uint256","internalType":"uint256"}]},{"type":"error","name":"FailedInnerCall","inputs":[]},{"type":"error","name":"FleetCommanderTransfersDisabled","inputs":[]},{"type":"error","name":"MathOverflowedMulDiv","inputs":[]},{"type":"error","name":"SafeERC20FailedOperation","inputs":[{"name":"token","type":"address","internalType":"address"}]},{"type":"error","name":"WithdrawalAmountExceedsMaxBufferLimit","inputs":[]},{"type":"error","name":"WithdrawalAmountIsBelowMinThreshold","inputs":[]}],"bytecode":{"object":"0x60c060405234801561001057600080fd5b506040516125d73803806125d783398101604081905261002f91610452565b6080810151815160a083015160c0840151600361004c83826105ee565b50600461005982826105ee565b50610069915060009050826100ee565b506100947f7935bd0ae54bc31f548c14dba4d37c5c64b3f8ca900cb468fb8abd54d5894f55826100ee565b5060009050806100a38361019e565b91509150816100b35760126100b5565b805b60ff1660a05250506001600160a01b031660805260408101516008556060810151600a5560e0810151600b556101000151600c556106e1565b60008281526005602090815260408083206001600160a01b038516845290915281205460ff166101945760008381526005602090815260408083206001600160a01b03861684529091529020805460ff1916600117905561014c3390565b6001600160a01b0316826001600160a01b0316847f2f8788117e7eff1d82e926ec794901d17c78024a50270940304540a733656f0d60405160405180910390a4506001610198565b5060005b92915050565b60408051600481526024810182526020810180516001600160e01b031663313ce56760e01b17905290516000918291829182916001600160a01b038716916101e5916106ac565b600060405180830381855afa9150503d8060008114610220576040519150601f19603f3d011682016040523d82523d6000602084013e610225565b606091505b509150915081801561023957506020815110155b1561026d5760008180602001905181019061025491906106c8565b905060ff811161026b576001969095509350505050565b505b5060009485945092505050565b634e487b7160e01b600052604160045260246000fd5b604051602081016001600160401b03811182821017156102b2576102b261027a565b60405290565b60405161012081016001600160401b03811182821017156102b2576102b261027a565b604051601f8201601f191681016001600160401b03811182821017156103035761030361027a565b604052919050565b80516001600160a01b038116811461032257600080fd5b919050565b600082601f83011261033857600080fd5b81516001600160401b038111156103515761035161027a565b8060051b610361602082016102db565b9182526020818501810192908101908684111561037d57600080fd5b6020860192505b838310156103b9576020838803121561039c57600080fd5b6103a4610290565b83518152825260209283019290910190610384565b9695505050505050565b60005b838110156103de5781810151838201526020016103c6565b50506000910152565b600082601f8301126103f857600080fd5b81516001600160401b038111156104115761041161027a565b610424601f8201601f19166020016102db565b81815284602083860101111561043957600080fd5b61044a8260208301602087016103c3565b949350505050565b60006020828403121561046457600080fd5b81516001600160401b0381111561047a57600080fd5b8201610120818503121561048d57600080fd5b6104956102b8565b61049e8261030b565b815260208201516001600160401b038111156104b957600080fd5b6104c586828501610327565b60208301525060408281015190820152606080830151908201526104eb6080830161030b565b608082015260a08201516001600160401b0381111561050957600080fd5b610515868285016103e7565b60a08301525060c08201516001600160401b0381111561053457600080fd5b610540868285016103e7565b60c08301525060e0828101519082015261010091820151918101919091529392505050565b600181811c9082168061057957607f821691505b60208210810361059957634e487b7160e01b600052602260045260246000fd5b50919050565b601f8211156105e957806000526020600020601f840160051c810160208510156105c65750805b601f840160051c820191505b818110156105e657600081556001016105d2565b50505b505050565b81516001600160401b038111156106075761060761027a565b61061b816106158454610565565b8461059f565b6020601f82116001811461064f57600083156106375750848201515b600019600385901b1c1916600184901b1784556105e6565b600084815260208120601f198516915b8281101561067f578785015182556020948501946001909201910161065f565b508482101561069d5786840151600019600387901b60f8161c191681555b50505050600190811b01905550565b600082516106be8184602087016103c3565b9190910192915050565b6000602082840312156106da57600080fd5b5051919050565b60805160a051611ebc61071b60003960006109e80152600081816104e4015281816107dc0152818161117d01526113200152611ebc6000f3fe608060405234801561001057600080fd5b506004361061038d5760003560e01c806391d14854116101de578063c6e6f5921161010f578063d9ca21d5116100ad578063ecd457e51161007c578063ecd457e514610669578063ef8b30f7146106d1578063fb914c39146107a8578063fbbdc076146107bb57600080fd5b8063d9ca21d514610753578063dc9de0a81461059b578063dd62ed3e1461075c578063e4dd1dca1461079557600080fd5b8063ccc57490116100e9578063ccc5749014610705578063ce96cb771461071a578063d547741f1461072d578063d905777e1461074057600080fd5b8063c6e6f592146106d1578063c7be7258146106e4578063cc1f071a146106f257600080fd5b8063b269add31161017c578063b460af9411610156578063b460af9414610698578063ba087652146106ab578063c634b78e146106be578063c63d75b61461050e57600080fd5b8063b269add314610669578063b3d7f6b91461067c578063b3de272d1461068f57600080fd5b806395d89b41116101b857806395d89b41146106335780639a19c7b01461063b578063a217fddf1461064e578063a9059cbb1461065657600080fd5b806391d148541461060d57806394bf804d14610620578063952f14831461043a57600080fd5b8063364bc15a116102c35780636b2f5094116102615780638665120311610230578063866512031461059b5780638705fcd4146105ae57806388b21872146105bc5780639170b6681461059b57600080fd5b80636b2f50941461053f5780636e553f651461054857806370a082311461055b5780637943fdc21461058457600080fd5b8063402d267d1161029d578063402d267d1461050e5780634106d274146105235780634cdad506146103ee57806356d64d791461053657600080fd5b8063364bc15a146104af57806336568abe146104c457806338d52e0f146104d757600080fd5b80630d79aac011610330578063248a9ca31161030a578063248a9ca3146104575780632f2ff15d1461047a578063313ce5671461048d5780633403c2fc146104a757600080fd5b80630d79aac01461042757806318160ddd1461043c57806323b872dd1461044457600080fd5b806306fdde031161036c57806306fdde03146103d957806307a2d13a146103ee578063095ea7b3146104015780630a28a4771461041457600080fd5b80620dbedd1461039257806301e1d114146103ae57806301ffc9a7146103b6575b600080fd5b61039b60085481565b6040519081526020015b60405180910390f35b61039b6107c4565b6103c96103c4366004611986565b610854565b60405190151581526020016103a5565b6103e161088b565b6040516103a591906119d4565b61039b6103fc366004611a07565b61091d565b6103c961040f366004611a3c565b61092a565b61039b610422366004611a07565b610942565b61043a610435366004611a66565b61094f565b005b60025461039b565b6103c9610452366004611ada565b61098f565b61039b610465366004611a07565b60009081526005602052604090206001015490565b61043a610488366004611b17565b6109b5565b6104956109e0565b60405160ff90911681526020016103a5565b61043a610a0c565b61039b600080516020611e4783398151915281565b61043a6104d2366004611b17565b610a45565b6040516001600160a01b037f00000000000000000000000000000000000000000000000000000000000000001681526020016103a5565b61039b61051c366004611b43565b5060001990565b61043a610531366004611b43565b610a7d565b61039b60075481565b61039b600c5481565b61039b610556366004611b17565b610ae4565b61039b610569366004611b43565b6001600160a01b031660009081526020819052604090205490565b61039b610592366004611b5e565b60009392505050565b61043a6105a9366004611a07565b610b4c565b61043a6105a9366004611b43565b6105fe6105ca366004611b43565b60408051602080820183526000918290526001600160a01b0393909316815260068352819020815192830190915254815290565b604051905181526020016103a5565b6103c961061b366004611b17565b610b83565b61039b61062e366004611b17565b610bae565b6103e1610bd4565b61043a610649366004611b43565b610be3565b61039b600081565b6103c9610664366004611a3c565b610c18565b61043a610677366004611a66565b610c33565b61039b61068a366004611a07565b610c6a565b61039b600a5481565b61039b6106a6366004611b5e565b610c77565b61039b6106b9366004611b5e565b610ceb565b61043a6106cc366004611b43565b610d43565b61039b6106df366004611a07565b610d78565b61043a610435366004611a3c565b61043a610700366004611b43565b610d85565b61039b600080516020611e6783398151915281565b61039b610728366004611b43565b610de9565b61043a61073b366004611b17565b610e0d565b61039b61074e366004611b43565b610e32565b61039b60095481565b61039b61076a366004611b9a565b6001600160a01b03918216600090815260016020908152604080832093909416825291909152205490565b61043a6107a3366004611b43565b610e50565b61043a6107b6366004611b43565b610eb4565b61039b600b5481565b6040516370a0823160e01b81523060048201526000907f00000000000000000000000000000000000000000000000000000000000000006001600160a01b0316906370a0823190602401602060405180830381865afa15801561082b573d6000803e3d6000fd5b505050506040513d601f19601f8201168201806040525081019061084f9190611bc4565b905090565b60006001600160e01b03198216637965db0b60e01b148061088557506301ffc9a760e01b6001600160e01b03198316145b92915050565b60606003805461089a90611bdd565b80601f01602080910402602001604051908101604052809291908181526020018280546108c690611bdd565b80156109135780601f106108e857610100808354040283529160200191610913565b820191906000526020600020905b8154815290600101906020018083116108f657829003601f168201915b5050505050905090565b6000610885826000610f18565b600033610938818585610f52565b5060019392505050565b6000610885826001610f5f565b610967600080516020611e6783398151915233610b83565b61098b57604051630ea7d7ed60e21b81523360048201526024015b60405180910390fd5b5050565b60003361099d858285610f8f565b6109a8858585610ff4565b60019150505b9392505050565b6000828152600560205260409020600101546109d081611053565b6109da838361105d565b50505050565b600061084f817f0000000000000000000000000000000000000000000000000000000000000000611c2d565b610a24600080516020611e6783398151915233610b83565b610a4357604051630ea7d7ed60e21b8152336004820152602401610982565b565b6001600160a01b0381163314610a6e5760405163334bd91960e11b815260040160405180910390fd5b610a7882826110f1565b505050565b610a88600033610b83565b1580610aa95750610aa7600080516020611e6783398151915233610b83565b155b15610ac9576040516366ea5d8760e01b8152336004820152602401610982565b610ae1600080516020611e47833981519152826109b5565b50565b6000610af0838361115e565b50600754610afe8482611c46565b600781905560405133917fe68a55afda2dca8343871fe0e5575a383291a40ae7d53e4dee12faf79cde144e91610b3c91858252602082015260400190565b60405180910390a2509192915050565b610b64600080516020611e6783398151915233610b83565b610ae157604051630ea7d7ed60e21b8152336004820152602401610982565b60009182526005602090815260408084206001600160a01b0393909316845291905290205460ff1690565b60006000196000610bbe85610c6a565b9050610bcc33858388611178565b949350505050565b60606004805461089a90611bdd565b610bee600033610b83565b610c0d576040516376660ab760e11b8152336004820152602401610982565b610ae1600082610e0d565b600060405163ec47ea8b60e01b815260040160405180910390fd5b610c4b600080516020611e4783398151915233610b83565b61098b576040516329068e8160e21b8152336004820152602401610982565b6000610885826001610f18565b6000610c83848361120a565b610c8e8484846112a2565b50600754610c9c8582611c7a565b600781905560405133917fe68a55afda2dca8343871fe0e5575a383291a40ae7d53e4dee12faf79cde144e91610cda91858252602082015260400190565b60405180910390a250929392505050565b600080610cf783610e32565b905080851115610d2057828582604051632e52afbb60e21b815260040161098293929190611c59565b6000610d2b8661091d565b9050610d3a338686848a6112ed565b95945050505050565b610d4e600033610b83565b610d6d576040516376660ab760e11b8152336004820152602401610982565b610ae16000826109b5565b6000610885826000610f5f565b610d90600033610b83565b1580610db15750610daf600080516020611e6783398151915233610b83565b155b15610dd1576040516366ea5d8760e01b8152336004820152602401610982565b610ae1600080516020611e4783398151915282610e0d565b6001600160a01b038116600090815260208190526040812054610885906000610f18565b600082815260056020526040902060010154610e2881611053565b6109da83836110f1565b6001600160a01b038116600090815260208190526040812054610885565b610e5b600033610b83565b1580610e7c5750610e7a600080516020611e6783398151915233610b83565b155b15610e9c576040516366ea5d8760e01b8152336004820152602401610982565b610ae1600080516020611e67833981519152826109b5565b610ebf600033610b83565b1580610ee05750610ede600080516020611e6783398151915233610b83565b155b15610f00576040516366ea5d8760e01b8152336004820152602401610982565b610ae1600080516020611e6783398151915282610e0d565b60006109ae610f256107c4565b610f30906001611c46565b610f3c6000600a611d74565b600254610f499190611c46565b859190856113ad565b610a7883838360016113fc565b60006109ae610f6f82600a611d74565b600254610f7c9190611c46565b610f846107c4565b610f49906001611c46565b6001600160a01b0383811660009081526001602090815260408083209386168352929052205460001981146109da5781811015610fe557828183604051637dc7a0d960e11b815260040161098293929190611c59565b6109da848484840360006113fc565b6001600160a01b03831661101e57604051634b637e8f60e11b815260006004820152602401610982565b6001600160a01b0382166110485760405163ec442f0560e01b815260006004820152602401610982565b610a788383836114c3565b610ae181336115da565b60006110698383610b83565b6110e95760008381526005602090815260408083206001600160a01b03861684529091529020805460ff191660011790556110a13390565b6001600160a01b0316826001600160a01b0316847f2f8788117e7eff1d82e926ec794901d17c78024a50270940304540a733656f0d60405160405180910390a4506001610885565b506000610885565b60006110fd8383610b83565b156110e95760008381526005602090815260408083206001600160a01b0386168085529252808320805460ff1916905551339286917ff6391f5c32d9c69d2a47ea670b442974b53935d1edc7fd64eb21e047a839171b9190a4506001610885565b6000600019600061116e85610d78565b9050610bcc338587845b6111a47f0000000000000000000000000000000000000000000000000000000000000000853085611613565b6111ae838261167a565b826001600160a01b0316846001600160a01b03167fdcbc1c05240f31ff3ad067ef1ee35ce4997762752e3a095284754544f4c709d784846040516111fc929190918252602082015260400190565b60405180910390a350505050565b600061121582610de9565b9050600061122d611227856064611d83565b836116b0565b905061123a81600b541190565b156112585760405163e82a5d7b60e01b815260040160405180910390fd5b6000611270611268866064611d83565b6007546116b0565b905061127d81600c541090565b1561129b57604051637147757760e01b815260040160405180910390fd5b5050505050565b6000806112ae83610de9565b9050808511156112d757828582604051633fa733bb60e21b815260040161098293929190611c59565b60006112e286610942565b9050610d3a33868689855b826001600160a01b0316856001600160a01b03161461131157611311838683610f8f565b61131b83826116d3565b6113467f00000000000000000000000000000000000000000000000000000000000000008584611709565b826001600160a01b0316846001600160a01b0316866001600160a01b03167ffbde797d201c681b91056529119e0b02407c7bb96a4a2c75c01fc9667232c8db858560405161139e929190918252602082015260400190565b60405180910390a45050505050565b6000806113bb86868661173a565b90506113c6836117fe565b80156113e25750600084806113dd576113dd611d9a565b868809115b15610d3a576113f2600182611c46565b9695505050505050565b6001600160a01b0384166114265760405163e602df0560e01b815260006004820152602401610982565b6001600160a01b03831661145057604051634a1406b160e11b815260006004820152602401610982565b6001600160a01b03808516600090815260016020908152604080832093871683529290522082905580156109da57826001600160a01b0316846001600160a01b03167f8c5be1e5ebec7d5bd14f71427d1e84f3dd0314c0f7b2291e5b200ac8c7c3b925846040516111fc91815260200190565b6001600160a01b0383166114ee5780600260008282546114e39190611c46565b9091555061154d9050565b6001600160a01b0383166000908152602081905260409020548181101561152e5783818360405163391434e360e21b815260040161098293929190611c59565b6001600160a01b03841660009081526020819052604090209082900390555b6001600160a01b03821661156957600280548290039055611588565b6001600160a01b03821660009081526020819052604090208054820190555b816001600160a01b0316836001600160a01b03167fddf252ad1be2c89b69c2b068fc378daa952ba7f163c4a11628f55a4df523b3ef836040516115cd91815260200190565b60405180910390a3505050565b6115e48282610b83565b61098b5760405163e2517d3f60e01b81526001600160a01b038216600482015260248101839052604401610982565b6040516001600160a01b0384811660248301528381166044830152606482018390526109da9186918216906323b872dd906084015b604051602081830303815290604052915060e01b6020820180516001600160e01b03838183161783525050505061182b565b6001600160a01b0382166116a45760405163ec442f0560e01b815260006004820152602401610982565b61098b600083836114c3565b6000816116bf6006600a611db0565b6116c99085611d83565b6109ae9190611dbc565b6001600160a01b0382166116fd57604051634b637e8f60e11b815260006004820152602401610982565b61098b826000836114c3565b6040516001600160a01b03838116602483015260448201839052610a7891859182169063a9059cbb90606401611648565b60008383028160001985870982811083820303915050806000036117715783828161176757611767611d9a565b04925050506109ae565b8084116117915760405163227bc15360e01b815260040160405180910390fd5b6000848688096000868103871696879004966002600389028118808a02820302808a02820302808a02820302808a02820302808a02820302808a02909103029181900381900460010186841190950394909402919094039290920491909117919091029150509392505050565b6000600282600381111561181457611814611dd0565b61181e9190611de6565b60ff166001149050919050565b60006118406001600160a01b0384168361188e565b905080516000141580156118655750808060200190518101906118639190611e08565b155b15610a7857604051635274afe760e01b81526001600160a01b0384166004820152602401610982565b60606109ae8383600084600080856001600160a01b031684866040516118b49190611e2a565b60006040518083038185875af1925050503d80600081146118f1576040519150601f19603f3d011682016040523d82523d6000602084013e6118f6565b606091505b50915091506113f2868383606082611916576119118261195d565b6109ae565b815115801561192d57506001600160a01b0384163b155b1561195657604051639996b31560e01b81526001600160a01b0385166004820152602401610982565b50806109ae565b80511561196d5780518082602001fd5b604051630a12f52160e11b815260040160405180910390fd5b60006020828403121561199857600080fd5b81356001600160e01b0319811681146109ae57600080fd5b60005b838110156119cb5781810151838201526020016119b3565b50506000910152565b60208152600082518060208401526119f38160408501602087016119b0565b601f01601f19169190910160400192915050565b600060208284031215611a1957600080fd5b5035919050565b80356001600160a01b0381168114611a3757600080fd5b919050565b60008060408385031215611a4f57600080fd5b611a5883611a20565b946020939093013593505050565b60008060208385031215611a7957600080fd5b823567ffffffffffffffff811115611a9057600080fd5b8301601f81018513611aa157600080fd5b803567ffffffffffffffff811115611ab857600080fd5b856020828401011115611aca57600080fd5b6020919091019590945092505050565b600080600060608486031215611aef57600080fd5b611af884611a20565b9250611b0660208501611a20565b929592945050506040919091013590565b60008060408385031215611b2a57600080fd5b82359150611b3a60208401611a20565b90509250929050565b600060208284031215611b5557600080fd5b6109ae82611a20565b600080600060608486031215611b7357600080fd5b83359250611b8360208501611a20565b9150611b9160408501611a20565b90509250925092565b60008060408385031215611bad57600080fd5b611bb683611a20565b9150611b3a60208401611a20565b600060208284031215611bd657600080fd5b5051919050565b600181811c90821680611bf157607f821691505b602082108103611c1157634e487b7160e01b600052602260045260246000fd5b50919050565b634e487b7160e01b600052601160045260246000fd5b60ff818116838216019081111561088557610885611c17565b8082018082111561088557610885611c17565b6001600160a01b039390931683526020830191909152604082015260600190565b8181038181111561088557610885611c17565b6001815b6001841115611cc857808504811115611cac57611cac611c17565b6001841615611cba57908102905b60019390931c928002611c91565b935093915050565b600082611cdf57506001610885565b81611cec57506000610885565b8160018114611d025760028114611d0c57611d28565b6001915050610885565b60ff841115611d1d57611d1d611c17565b50506001821b610885565b5060208310610133831016604e8410600b8410161715611d4b575081810a610885565b611d586000198484611c8d565b8060001904821115611d6c57611d6c611c17565b029392505050565b60006109ae60ff841683611cd0565b808202811582820484141761088557610885611c17565b634e487b7160e01b600052601260045260246000fd5b60006109ae8383611cd0565b600082611dcb57611dcb611d9a565b500490565b634e487b7160e01b600052602160045260246000fd5b600060ff831680611df957611df9611d9a565b8060ff84160691505092915050565b600060208284031215611e1a57600080fd5b815180151581146109ae57600080fd5b60008251611e3c8184602087016119b0565b919091019291505056fefc8737ab85eb45125971625a9ebdb75cc78e01d5c1fa80c4c6e5203f47bc4fab7935bd0ae54bc31f548c14dba4d37c5c64b3f8ca900cb468fb8abd54d5894f55a2646970667358221220517072a80cc17465397bcfec2aba8d76e80dd90f7a23f5af31899f129906ec4c64736f6c634300081a0033","linkReferences":{}},"methodIdentifiers":{"DEFAULT_ADMIN_ROLE()":"a217fddf","GOVERNOR_ROLE()":"ccc57490","KEEPER_ROLE()":"364bc15a","addArk(address,uint256)":"c7be7258","adjustBuffer(bytes)":"ecd457e5","allowance(address,address)":"dd62ed3e","approve(address,uint256)":"095ea7b3","arks(address)":"88b21872","asset()":"38d52e0f","balanceOf(address)":"70a08231","convertToAssets(uint256)":"07a2d13a","convertToShares(uint256)":"c6e6f592","decimals()":"313ce567","deposit(uint256,address)":"6e553f65","emergencyShutdown()":"3403c2fc","forceRebalance(bytes)":"0d79aac0","forceWithdraw(uint256,address,address)":"7943fdc2","fundsBufferBalance()":"56d64d79","getRoleAdmin(bytes32)":"248a9ca3","grantAdminRole(address)":"c634b78e","grantGovernorRole(address)":"e4dd1dca","grantKeeperRole(address)":"4106d274","grantRole(bytes32,address)":"2f2ff15d","hasRole(bytes32,address)":"91d14854","lastRebalanceTime()":"d9ca21d5","maxBufferWithdrawalPercentage()":"6b2f5094","maxDeposit(address)":"402d267d","maxMint(address)":"c63d75b6","maxRedeem(address)":"d905777e","maxWithdraw(address)":"ce96cb77","minFundsBufferBalance()":"000dbedd","minPositionWithdrawalPercentage()":"fbbdc076","mint(uint256,address)":"94bf804d","mintSharesAsFees()":"952f1483","name()":"06fdde03","previewDeposit(uint256)":"ef8b30f7","previewMint(uint256)":"b3d7f6b9","previewRedeem(uint256)":"4cdad506","previewWithdraw(uint256)":"0a28a477","rebalance(bytes)":"b269add3","rebalanceCooldown()":"b3de272d","redeem(uint256,address,address)":"ba087652","renounceRole(bytes32,address)":"36568abe","revokeAdminRole(address)":"9a19c7b0","revokeGovernorRole(address)":"fb914c39","revokeKeeperRole(address)":"cc1f071a","revokeRole(bytes32,address)":"d547741f","setDepositCap(uint256)":"86651203","setFeeAddress(address)":"8705fcd4","setMinBufferBalance(uint256)":"9170b668","supportsInterface(bytes4)":"01ffc9a7","symbol()":"95d89b41","totalAssets()":"01e1d114","totalSupply()":"18160ddd","transfer(address,uint256)":"a9059cbb","transferFrom(address,address,uint256)":"23b872dd","updateRebalanceCooldown(uint256)":"dc9de0a8","withdraw(uint256,address,address)":"b460af94"},"id":42}