{"abi":[{"type":"constructor","inputs":[{"name":"_params","type":"tuple","internalType":"struct ArkParams","components":[{"name":"name","type":"string","internalType":"string"},{"name":"accessManager","type":"address","internalType":"address"},{"name":"configurationManager","type":"address","internalType":"address"},{"name":"token","type":"address","internalType":"address"},{"name":"depositCap","type":"uint256","internalType":"uint256"},{"name":"maxRebalanceOutflow","type":"uint256","internalType":"uint256"},{"name":"maxRebalanceInflow","type":"uint256","internalType":"uint256"}]}],"stateMutability":"nonpayable"},{"type":"function","name":"DEFAULT_ADMIN_ROLE","inputs":[],"outputs":[{"name":"","type":"bytes32","internalType":"bytes32"}],"stateMutability":"view"},{"type":"function","name":"MAX_UINT256","inputs":[],"outputs":[{"name":"","type":"uint256","internalType":"uint256"}],"stateMutability":"view"},{"type":"function","name":"RAY","inputs":[],"outputs":[{"name":"","type":"uint256","internalType":"uint256"}],"stateMutability":"view"},{"type":"function","name":"SECONDS_PER_DAY","inputs":[],"outputs":[{"name":"","type":"uint256","internalType":"uint256"}],"stateMutability":"view"},{"type":"function","name":"SECONDS_PER_YEAR","inputs":[],"outputs":[{"name":"","type":"uint256","internalType":"uint256"}],"stateMutability":"view"},{"type":"function","name":"WAD","inputs":[],"outputs":[{"name":"","type":"uint256","internalType":"uint256"}],"stateMutability":"view"},{"type":"function","name":"WAD_TO_RAY","inputs":[],"outputs":[{"name":"","type":"uint256","internalType":"uint256"}],"stateMutability":"view"},{"type":"function","name":"board","inputs":[{"name":"amount","type":"uint256","internalType":"uint256"}],"outputs":[],"stateMutability":"nonpayable"},{"type":"function","name":"commander","inputs":[],"outputs":[{"name":"","type":"address","internalType":"address"}],"stateMutability":"view"},{"type":"function","name":"config","inputs":[],"outputs":[{"name":"commander","type":"address","internalType":"address"},{"name":"raft","type":"address","internalType":"address"},{"name":"token","type":"address","internalType":"contract IERC20"},{"name":"depositCap","type":"uint256","internalType":"uint256"},{"name":"maxRebalanceOutflow","type":"uint256","internalType":"uint256"},{"name":"maxRebalanceInflow","type":"uint256","internalType":"uint256"},{"name":"name","type":"string","internalType":"string"}],"stateMutability":"view"},{"type":"function","name":"depositCap","inputs":[],"outputs":[{"name":"","type":"uint256","internalType":"uint256"}],"stateMutability":"view"},{"type":"function","name":"disembark","inputs":[{"name":"amount","type":"uint256","internalType":"uint256"}],"outputs":[],"stateMutability":"nonpayable"},{"type":"function","name":"getRoleAdmin","inputs":[{"name":"role","type":"bytes32","internalType":"bytes32"}],"outputs":[{"name":"","type":"bytes32","internalType":"bytes32"}],"stateMutability":"view"},{"type":"function","name":"grantCommanderRole","inputs":[{"name":"account","type":"address","internalType":"address"}],"outputs":[],"stateMutability":"nonpayable"},{"type":"function","name":"grantRole","inputs":[{"name":"","type":"bytes32","internalType":"bytes32"},{"name":"","type":"address","internalType":"address"}],"outputs":[],"stateMutability":"view"},{"type":"function","name":"harvest","inputs":[{"name":"rewardToken","type":"address","internalType":"address"},{"name":"additionalData","type":"bytes","internalType":"bytes"}],"outputs":[{"name":"","type":"uint256","internalType":"uint256"}],"stateMutability":"nonpayable"},{"type":"function","name":"hasRole","inputs":[{"name":"role","type":"bytes32","internalType":"bytes32"},{"name":"account","type":"address","internalType":"address"}],"outputs":[{"name":"","type":"bool","internalType":"bool"}],"stateMutability":"view"},{"type":"function","name":"manager","inputs":[],"outputs":[{"name":"","type":"address","internalType":"contract IConfigurationManager"}],"stateMutability":"view"},{"type":"function","name":"maxRebalanceInflow","inputs":[],"outputs":[{"name":"","type":"uint256","internalType":"uint256"}],"stateMutability":"view"},{"type":"function","name":"maxRebalanceOutflow","inputs":[],"outputs":[{"name":"","type":"uint256","internalType":"uint256"}],"stateMutability":"view"},{"type":"function","name":"move","inputs":[{"name":"amount","type":"uint256","internalType":"uint256"},{"name":"receiverArk","type":"address","internalType":"address"}],"outputs":[],"stateMutability":"nonpayable"},{"type":"function","name":"name","inputs":[],"outputs":[{"name":"","type":"string","internalType":"string"}],"stateMutability":"view"},{"type":"function","name":"poke","inputs":[],"outputs":[],"stateMutability":"nonpayable"},{"type":"function","name":"raft","inputs":[],"outputs":[{"name":"","type":"address","internalType":"address"}],"stateMutability":"view"},{"type":"function","name":"rate","inputs":[],"outputs":[{"name":"","type":"uint256","internalType":"uint256"}],"stateMutability":"view"},{"type":"function","name":"renounceRole","inputs":[{"name":"role","type":"bytes32","internalType":"bytes32"},{"name":"callerConfirmation","type":"address","internalType":"address"}],"outputs":[],"stateMutability":"nonpayable"},{"type":"function","name":"revokeCommanderRole","inputs":[{"name":"account","type":"address","internalType":"address"}],"outputs":[],"stateMutability":"nonpayable"},{"type":"function","name":"revokeRole","inputs":[{"name":"","type":"bytes32","internalType":"bytes32"},{"name":"","type":"address","internalType":"address"}],"outputs":[],"stateMutability":"view"},{"type":"function","name":"setDepositCap","inputs":[{"name":"newDepositCap","type":"uint256","internalType":"uint256"}],"outputs":[],"stateMutability":"nonpayable"},{"type":"function","name":"setMaxRebalanceInflow","inputs":[{"name":"newMaxRebalanceInflow","type":"uint256","internalType":"uint256"}],"outputs":[],"stateMutability":"nonpayable"},{"type":"function","name":"setMaxRebalanceOutflow","inputs":[{"name":"newMaxRebalanceOutflow","type":"uint256","internalType":"uint256"}],"outputs":[],"stateMutability":"nonpayable"},{"type":"function","name":"supportsInterface","inputs":[{"name":"interfaceId","type":"bytes4","internalType":"bytes4"}],"outputs":[{"name":"","type":"bool","internalType":"bool"}],"stateMutability":"view"},{"type":"function","name":"token","inputs":[],"outputs":[{"name":"","type":"address","internalType":"contract IERC20"}],"stateMutability":"view"},{"type":"function","name":"totalAssets","inputs":[],"outputs":[{"name":"","type":"uint256","internalType":"uint256"}],"stateMutability":"view"},{"type":"event","name":"ArkPoked","inputs":[{"name":"currentPrice","type":"uint256","indexed":false,"internalType":"uint256"},{"name":"timestamp","type":"uint256","indexed":false,"internalType":"uint256"}],"anonymous":false},{"type":"event","name":"ArkPokedNoChange","inputs":[],"anonymous":false},{"type":"event","name":"ArkPokedTooSoon","inputs":[],"anonymous":false},{"type":"event","name":"Boarded","inputs":[{"name":"commander","type":"address","indexed":true,"internalType":"address"},{"name":"token","type":"address","indexed":false,"internalType":"address"},{"name":"amount","type":"uint256","indexed":false,"internalType":"uint256"}],"anonymous":false},{"type":"event","name":"DepositCapUpdated","inputs":[{"name":"newCap","type":"uint256","indexed":false,"internalType":"uint256"}],"anonymous":false},{"type":"event","name":"Disembarked","inputs":[{"name":"commander","type":"address","indexed":true,"internalType":"address"},{"name":"token","type":"address","indexed":false,"internalType":"address"},{"name":"amount","type":"uint256","indexed":false,"internalType":"uint256"}],"anonymous":false},{"type":"event","name":"Harvested","inputs":[{"name":"amount","type":"uint256","indexed":false,"internalType":"uint256"}],"anonymous":false},{"type":"event","name":"MaxRebalanceInflowUpdated","inputs":[{"name":"newMaxInflow","type":"uint256","indexed":false,"internalType":"uint256"}],"anonymous":false},{"type":"event","name":"MaxRebalanceOutflowUpdated","inputs":[{"name":"newMaxOutflow","type":"uint256","indexed":false,"internalType":"uint256"}],"anonymous":false},{"type":"event","name":"Moved","inputs":[{"name":"from","type":"address","indexed":true,"internalType":"address"},{"name":"to","type":"address","indexed":true,"internalType":"address"},{"name":"token","type":"address","indexed":false,"internalType":"address"},{"name":"amount","type":"uint256","indexed":false,"internalType":"uint256"}],"anonymous":false},{"type":"event","name":"RaftUpdated","inputs":[{"name":"newRaft","type":"address","indexed":false,"internalType":"address"}],"anonymous":false},{"type":"event","name":"RoleAdminChanged","inputs":[{"name":"role","type":"bytes32","indexed":true,"internalType":"bytes32"},{"name":"previousAdminRole","type":"bytes32","indexed":true,"internalType":"bytes32"},{"name":"newAdminRole","type":"bytes32","indexed":true,"internalType":"bytes32"}],"anonymous":false},{"type":"event","name":"RoleGranted","inputs":[{"name":"role","type":"bytes32","indexed":true,"internalType":"bytes32"},{"name":"account","type":"address","indexed":true,"internalType":"address"},{"name":"sender","type":"address","indexed":true,"internalType":"address"}],"anonymous":false},{"type":"event","name":"RoleRevoked","inputs":[{"name":"role","type":"bytes32","indexed":true,"internalType":"bytes32"},{"name":"account","type":"address","indexed":true,"internalType":"address"},{"name":"sender","type":"address","indexed":true,"internalType":"address"}],"anonymous":false},{"type":"error","name":"AccessControlBadConfirmation","inputs":[]},{"type":"error","name":"AccessControlUnauthorizedAccount","inputs":[{"name":"account","type":"address","internalType":"address"},{"name":"neededRole","type":"bytes32","internalType":"bytes32"}]},{"type":"error","name":"AddressEmptyCode","inputs":[{"name":"target","type":"address","internalType":"address"}]},{"type":"error","name":"AddressInsufficientBalance","inputs":[{"name":"account","type":"address","internalType":"address"}]},{"type":"error","name":"CallerIsNotAuthorizedToBoard","inputs":[{"name":"caller","type":"address","internalType":"address"}]},{"type":"error","name":"CallerIsNotCommander","inputs":[{"name":"caller","type":"address","internalType":"address"}]},{"type":"error","name":"CallerIsNotGovernor","inputs":[{"name":"caller","type":"address","internalType":"address"}]},{"type":"error","name":"CannotAddCommanderToArkWithCommander","inputs":[]},{"type":"error","name":"CannotDeployArkWithEmptyName","inputs":[]},{"type":"error","name":"CannotDeployArkWithoutConfigurationManager","inputs":[]},{"type":"error","name":"CannotDeployArkWithoutRaft","inputs":[]},{"type":"error","name":"CannotDeployArkWithoutToken","inputs":[]},{"type":"error","name":"CannotRemoveCommanderFromArkWithAssets","inputs":[]},{"type":"error","name":"DirectGrantIsDisabled","inputs":[{"name":"caller","type":"address","internalType":"address"}]},{"type":"error","name":"DirectRevokeIsDisabled","inputs":[{"name":"caller","type":"address","internalType":"address"}]},{"type":"error","name":"FailedInnerCall","inputs":[]},{"type":"error","name":"InvalidAccessManagerAddress","inputs":[{"name":"invalidAddress","type":"address","internalType":"address"}]},{"type":"error","name":"SafeERC20FailedOperation","inputs":[{"name":"token","type":"address","internalType":"address"}]}],"bytecode":{"object":"0x608060405234801561000f575f80fd5b50604051611dc1380380611dc183398101604081905261002e9161045b565b60208101518190806001600160a01b038116610064576040516347bd7c1d60e01b81525f60048201526024015b60405180910390fd5b6040516301ffc9a760e01b815263f87138b560e01b60048201526001600160a01b038216906301ffc9a790602401602060405180830381865afa1580156100ad573d5f803e3d5ffd5b505050506040513d601f19601f820116820180604052508101906100d19190610518565b6100f9576040516347bd7c1d60e01b81526001600160a01b038216600482015260240161005b565b5f80546001600160a01b0319166001600160a01b0392831617905560408301511690506101395760405163b53c493160e01b815260040160405180910390fd5b60608101516001600160a01b0316610167576040516001620a810f60e11b0319815260040160405180910390fd5b8051515f036101895760405163268c072960e01b815260040160405180910390fd5b604081810151600980546001600160a01b0319166001600160a01b0390921691821790558151628bec5760e51b815291515f9263117d8ae0916004808301926020929190829003018187875af11580156101e5573d5f803e3d5ffd5b505050506040513d601f19601f82011682018060405250810190610209919061053e565b6001600160a01b03160361023057604051633a4f9cdb60e21b815260040160405180910390fd5b6040518060e001604052805f6001600160a01b0316815260200160095f9054906101000a90046001600160a01b03166001600160a01b031663117d8ae06040518163ffffffff1660e01b81526004016020604051808303815f875af115801561029b573d5f803e3d5ffd5b505050506040513d601f19601f820116820180604052508101906102bf919061053e565b6001600160a01b039081168252606080850151821660208085019190915260808087015160408087019190915260a0808901518588015260c0808a0151848901528951978201979097528751600280549188166001600160a01b031992831617815594890151600380549189169183169190911790559188015160048054919097169216919091179094559185015160055590840151600655908301516007559082015160089061037090826105db565b509050505050610695565b634e487b7160e01b5f52604160045260245ffd5b60405160e081016001600160401b03811182821017156103b1576103b161037b565b60405290565b5f82601f8301126103c6575f80fd5b81516001600160401b038111156103df576103df61037b565b604051601f8201601f19908116603f011681016001600160401b038111828210171561040d5761040d61037b565b604052818152838201602001851015610424575f80fd5b8160208501602083015e5f918101602001919091529392505050565b80516001600160a01b0381168114610456575f80fd5b919050565b5f6020828403121561046b575f80fd5b81516001600160401b03811115610480575f80fd5b820160e08185031215610491575f80fd5b61049961038f565b81516001600160401b038111156104ae575f80fd5b6104ba868285016103b7565b8252506104c960208301610440565b60208201526104da60408301610440565b60408201526104eb60608301610440565b60608201526080828101519082015260a0808301519082015260c091820151918101919091529392505050565b5f60208284031215610528575f80fd5b81518015158114610537575f80fd5b9392505050565b5f6020828403121561054e575f80fd5b61053782610440565b600181811c9082168061056b57607f821691505b60208210810361058957634e487b7160e01b5f52602260045260245ffd5b50919050565b601f8211156105d657805f5260205f20601f840160051c810160208510156105b45750805b601f840160051c820191505b818110156105d3575f81556001016105c0565b50505b505050565b81516001600160401b038111156105f4576105f461037b565b610608816106028454610557565b8461058f565b6020601f82116001811461063a575f83156106235750848201515b5f19600385901b1c1916600184901b1784556105d3565b5f84815260208120601f198516915b828110156106695787850151825560209485019460019092019101610649565b508482101561068657868401515f19600387901b60f8161c191681555b50505050600190811b01905550565b61171f806106a25f395ff3fe608060405234801561000f575f80fd5b50600436106101fd575f3560e01c806361f5cd8b1161011457806392f5e832116100a9578063d547741f11610079578063d547741f1461040a578063d8a8e03a1461041d578063dbd5edc714610430578063e6a69ab814610438578063fc0c546a14610443575f80fd5b806392f5e832146103d55780639403e41f146103e8578063a217fddf146103fb578063ad5a356f14610402575f80fd5b806379502c55116100e457806379502c551461038157806381d3ce261461039c57806386651203146103af57806391d14854146103c2575f80fd5b806361f5cd8b146103425780636a146024146103555780637399bfe81461036457806374f0314f14610377575f80fd5b80632c4e722e1161019557806336568abe1161016557806336568abe146102e557806337270936146102f8578063481c6a75146103095780634dd47eba1461031c578063552033c41461032f575f80fd5b80632c4e722e146102bc5780632f2ff15d146102c25780633194549e146102d557806333a581d2146102dd575f80fd5b8063163c8381116101d0578063163c8381146102795780631817835814610284578063248a9ca31461028657806328ed6e3f146102a9575f80fd5b806301e1d1141461020157806301ffc9a71461021c57806306fdde031461023f578063117d8ae014610254575b5f80fd5b610209610454565b6040519081526020015b60405180910390f35b61022f61022a36600461149a565b6104c8565b6040519015158152602001610213565b6102476104fe565b60405161021391906114ef565b6003546001600160a01b03165b6040516001600160a01b039091168152602001610213565b610209633b9aca0081565b005b610209610294366004611501565b5f908152600160208190526040909120015490565b6102846102b7366004611501565b610591565b5f610209565b6102846102d036600461152c565b610732565b600654610209565b6102095f1981565b6102846102f336600461152c565b61074d565b6002546001600160a01b0316610261565b600954610261906001600160a01b031681565b61028461032a366004611501565b610785565b6102096b033b2e3c9fd0803ce800000081565b610284610350366004611501565b610813565b610209670de0b6b3a764000081565b61020961037236600461155a565b610876565b6102096201518081565b610389610907565b60405161021397969594939291906115da565b6102846103aa36600461162f565b6109c2565b6102846103bd366004611501565b610b37565b61022f6103d036600461152c565b610b93565b6102846103e3366004611501565b610bbd565b6102846103f636600461162f565b610c19565b6102095f81565b600754610209565b61028461041836600461152c565b610d8a565b61028461042b36600461152c565b610da5565b600554610209565b6102096301e1338081565b6004546001600160a01b0316610261565b600480546040516370a0823160e01b815230928101929092525f916001600160a01b03909116906370a0823190602401602060405180830381865afa15801561049f573d5f803e3d5ffd5b505050506040513d601f19601f820116820180604052508101906104c3919061164a565b905090565b5f6001600160e01b03198216637965db0b60e01b14806104f857506301ffc9a760e01b6001600160e01b03198316145b92915050565b60606002600601805461051090611661565b80601f016020809104026020016040519081016040528092919081815260200182805461053c90611661565b80156105875780601f1061055e57610100808354040283529160200191610587565b820191905f5260205f20905b81548152906001019060200180831161056a57829003601f168201915b5050505050905090565b6002546001600160a01b03166105a5610ee8565b6106c9575f3390505f306001600160a01b031663117d8ae06040518163ffffffff1660e01b8152600401602060405180830381865afa1580156105ea573d5f803e3d5ffd5b505050506040513d601f19601f8201168201806040525081019061060e9190611699565b6001600160a01b0316826001600160a01b0316149050806106c65760405163d25dd10160e01b81526001600160a01b0383811660048301525f919085169063d25dd10190602401602060405180830381865afa158015610670573d5f803e3d5ffd5b505050506040513d601f19601f8201168201806040525081019061069491906116b4565b9050806106c457604051638f7a567d60e01b81526001600160a01b03841660048201526024015b60405180910390fd5b505b50505b60045433906106e3906001600160a01b0316823086610f5b565b600454604080516001600160a01b03928316815260208101869052918316917fcbaa1442ac205415c9d69643e7b60ec73d1de35dbc807c21ec288c70ddc4207b910160405180910390a2505050565b604051630e15200f60e21b81523360048201526024016106bb565b6001600160a01b03811633146107765760405163334bd91960e11b815260040160405180910390fd5b6107808282610fc8565b505050565b61078d610ee8565b6107ac57604051631564c0e160e11b81523360048201526024016106bb565b60045433906107c5906001600160a01b0316828461103a565b600454604080516001600160a01b03928316815260208101859052918316917fd5e872c5ecfb1bb8820b2e6a20e31b883682282da886621541f71e31ec11947e910160405180910390a25050565b61081b610ee8565b61083a57604051631564c0e160e11b81523360048201526024016106bb565b60068190556040518181527ffbe2d5c01ea8ba5596d6c4e6c82c6d4a0a0ee1128689993a4a5ba0169273d69f906020015b60405180910390a150565b5f6108f260095f9054906101000a90046001600160a01b03166001600160a01b031663117d8ae06040518163ffffffff1660e01b81526004016020604051808303815f875af11580156108cb573d5f803e3d5ffd5b505050506040513d601f19601f820116820180604052508101906108ef9190611699565b50565b6108fd84848461106b565b90505b9392505050565b60028054600354600454600554600654600754600880546001600160a01b0397881698968816979095169593949293919261094190611661565b80601f016020809104026020016040519081016040528092919081815260200182805461096d90611661565b80156109b85780601f1061098f576101008083540402835291602001916109b8565b820191905f5260205f20905b81548152906001019060200180831161099b57829003601f168201915b5050505050905087565b5f5460408051630ccc574960e41b815290516001600160a01b03909216916391d1485491839163ccc57490916004808201926020929091908290030181865afa158015610a11573d5f803e3d5ffd5b505050506040513d601f19601f82011682018060405250810190610a35919061164a565b6040516001600160e01b031960e084901b1681526004810191909152336024820152604401602060405180830381865afa158015610a75573d5f803e3d5ffd5b505050506040513d601f19601f82011682018060405250810190610a9991906116b4565b610ab857604051630ea7d7ed60e21b81523360048201526024016106bb565b610ac1816110f3565b5f54604080516345b817bb60e01b81529051610b33926001600160a01b0316916345b817bb9160048083019260209291908290030181865afa158015610b09573d5f803e3d5ffd5b505050506040513d601f19601f82011682018060405250810190610b2d919061164a565b82610fc8565b5050565b610b3f610ee8565b610b5e57604051631564c0e160e11b81523360048201526024016106bb565b60058190556040518181527f333b26cca69716ad4680ddb07663f5bfb4f06045671f336af9a83690a3ae00f99060200161086b565b5f9182526001602090815260408084206001600160a01b0393909316845291905290205460ff1690565b610bc5610ee8565b610be457604051631564c0e160e11b81523360048201526024016106bb565b60078190556040518181527fb6ac66853c4e59c71e118d25ab494bb847c4e5eb0c8894898c5343e6f61afc129060200161086b565b5f5460408051630ccc574960e41b815290516001600160a01b03909216916391d1485491839163ccc57490916004808201926020929091908290030181865afa158015610c68573d5f803e3d5ffd5b505050506040513d601f19601f82011682018060405250810190610c8c919061164a565b6040516001600160e01b031960e084901b1681526004810191909152336024820152604401602060405180830381865afa158015610ccc573d5f803e3d5ffd5b505050506040513d601f19601f82011682018060405250810190610cf091906116b4565b610d0f57604051630ea7d7ed60e21b81523360048201526024016106bb565b610d1881611186565b5f54604080516345b817bb60e01b81529051610b33926001600160a01b0316916345b817bb9160048083019260209291908290030181865afa158015610d60573d5f803e3d5ffd5b505050506040513d601f19601f82011682018060405250810190610d84919061164a565b826112c8565b604051636344978560e11b81523360048201526024016106bb565b610dad610ee8565b610dcc57604051631564c0e160e11b81523360048201526024016106bb565b6004805460405163095ea7b360e01b81526001600160a01b03848116938201939093526024810185905291169063095ea7b3906044016020604051808303815f875af1158015610e1e573d5f803e3d5ffd5b505050506040513d601f19601f82011682018060405250810190610e4291906116b4565b506040516328ed6e3f60e01b8152600481018390526001600160a01b038216906328ed6e3f906024015f604051808303815f87803b158015610e82575f80fd5b505af1158015610e94573d5f803e3d5ffd5b5050600454604080516001600160a01b0392831681526020810187905291851693503092507f9f784fc02a186f1c98b2d9f15fda084da27cdd291a3785d978f91911d880516b910160405180910390a35050565b5f8054604080516345b817bb60e01b815290516104c3926001600160a01b0316916345b817bb9160048083019260209291908290030181865afa158015610f31573d5f803e3d5ffd5b505050506040513d601f19601f82011682018060405250810190610f55919061164a565b33610b93565b6040516001600160a01b038481166024830152838116604483015260648201839052610fc29186918216906323b872dd906084015b604051602081830303815290604052915060e01b6020820180516001600160e01b038381831617835250505050611337565b50505050565b5f610fd38383610b93565b15611033575f8381526001602090815260408083206001600160a01b0386168085529252808320805460ff1916905551339286917ff6391f5c32d9c69d2a47ea670b442974b53935d1edc7fd64eb21e047a839171b9190a45060016104f8565b505f6104f8565b6040516001600160a01b0383811660248301526044820183905261078091859182169063a9059cbb90606401610f90565b5f8061107983850185611501565b60405163a9059cbb60e01b8152336004820152602481018290529091506001600160a01b0386169063a9059cbb906044016020604051808303815f875af11580156110c6573d5f803e3d5ffd5b505050506040513d601f19601f820116820180604052508101906110ea91906116b4565b50949350505050565b5f306001600160a01b03166301e1d1146040518163ffffffff1660e01b8152600401602060405180830381865afa158015611130573d5f803e3d5ffd5b505050506040513d601f19601f82011682018060405250810190611154919061164a565b1115611173576040516373a075f360e01b815260040160405180910390fd5b50600280546001600160a01b0319169055565b5f5460408051630ccc574960e41b815290516001600160a01b03909216916391d1485491839163ccc57490916004808201926020929091908290030181865afa1580156111d5573d5f803e3d5ffd5b505050506040513d601f19601f820116820180604052508101906111f9919061164a565b6040516001600160e01b031960e084901b1681526004810191909152336024820152604401602060405180830381865afa158015611239573d5f803e3d5ffd5b505050506040513d601f19601f8201168201806040525081019061125d91906116b4565b61127c57604051630ea7d7ed60e21b81523360048201526024016106bb565b6002546001600160a01b0316156112a65760405163d32184ed60e01b815260040160405180910390fd5b600280546001600160a01b0319166001600160a01b0392909216919091179055565b5f6112d38383610b93565b611033575f8381526001602081815260408084206001600160a01b0387168086529252808420805460ff19169093179092559051339286917f2f8788117e7eff1d82e926ec794901d17c78024a50270940304540a733656f0d9190a45060016104f8565b5f61134b6001600160a01b03841683611398565b905080515f1415801561136f57508080602001905181019061136d91906116b4565b155b1561078057604051635274afe760e01b81526001600160a01b03841660048201526024016106bb565b606061090083835f845f80856001600160a01b031684866040516113bc91906116d3565b5f6040518083038185875af1925050503d805f81146113f6576040519150601f19603f3d011682016040523d82523d5f602084013e6113fb565b606091505b509150915061140b868383611415565b9695505050505050565b60608261142a5761142582611471565b610900565b815115801561144157506001600160a01b0384163b155b1561146a57604051639996b31560e01b81526001600160a01b03851660048201526024016106bb565b5080610900565b8051156114815780518082602001fd5b604051630a12f52160e11b815260040160405180910390fd5b5f602082840312156114aa575f80fd5b81356001600160e01b031981168114610900575f80fd5b5f81518084528060208401602086015e5f602082860101526020601f19601f83011685010191505092915050565b602081525f61090060208301846114c1565b5f60208284031215611511575f80fd5b5035919050565b6001600160a01b03811681146108ef575f80fd5b5f806040838503121561153d575f80fd5b82359150602083013561154f81611518565b809150509250929050565b5f805f6040848603121561156c575f80fd5b833561157781611518565b9250602084013567ffffffffffffffff811115611592575f80fd5b8401601f810186136115a2575f80fd5b803567ffffffffffffffff8111156115b8575f80fd5b8660208284010111156115c9575f80fd5b939660209190910195509293505050565b6001600160a01b038881168252878116602083015286166040820152606081018590526080810184905260a0810183905260e060c082018190525f90611622908301846114c1565b9998505050505050505050565b5f6020828403121561163f575f80fd5b813561090081611518565b5f6020828403121561165a575f80fd5b5051919050565b600181811c9082168061167557607f821691505b60208210810361169357634e487b7160e01b5f52602260045260245ffd5b50919050565b5f602082840312156116a9575f80fd5b815161090081611518565b5f602082840312156116c4575f80fd5b81518015158114610900575f80fd5b5f82518060208501845e5f92019182525091905056fea26469706673582212208a364d7b0c05a8e838858dc5d665361b9a92e210de96fc00355e5f353b83184a64736f6c634300081a0033","linkReferences":{}},"methodIdentifiers":{"DEFAULT_ADMIN_ROLE()":"a217fddf","MAX_UINT256()":"33a581d2","RAY()":"552033c4","SECONDS_PER_DAY()":"74f0314f","SECONDS_PER_YEAR()":"e6a69ab8","WAD()":"6a146024","WAD_TO_RAY()":"163c8381","board(uint256)":"28ed6e3f","commander()":"37270936","config()":"79502c55","depositCap()":"dbd5edc7","disembark(uint256)":"4dd47eba","getRoleAdmin(bytes32)":"248a9ca3","grantCommanderRole(address)":"9403e41f","grantRole(bytes32,address)":"2f2ff15d","harvest(address,bytes)":"7399bfe8","hasRole(bytes32,address)":"91d14854","manager()":"481c6a75","maxRebalanceInflow()":"ad5a356f","maxRebalanceOutflow()":"3194549e","move(uint256,address)":"d8a8e03a","name()":"06fdde03","poke()":"18178358","raft()":"117d8ae0","rate()":"2c4e722e","renounceRole(bytes32,address)":"36568abe","revokeCommanderRole(address)":"81d3ce26","revokeRole(bytes32,address)":"d547741f","setDepositCap(uint256)":"86651203","setMaxRebalanceInflow(uint256)":"92f5e832","setMaxRebalanceOutflow(uint256)":"61f5cd8b","supportsInterface(bytes4)":"01ffc9a7","token()":"fc0c546a","totalAssets()":"01e1d114"},"id":246}