{"abi":[{"type":"constructor","inputs":[{"name":"_params","type":"tuple","internalType":"struct ArkParams","components":[{"name":"name","type":"string","internalType":"string"},{"name":"accessManager","type":"address","internalType":"address"},{"name":"configurationManager","type":"address","internalType":"address"},{"name":"token","type":"address","internalType":"address"},{"name":"depositCap","type":"uint256","internalType":"uint256"},{"name":"maxRebalanceOutflow","type":"uint256","internalType":"uint256"},{"name":"maxRebalanceInflow","type":"uint256","internalType":"uint256"},{"name":"requiresKeeperData","type":"bool","internalType":"bool"}]}],"stateMutability":"nonpayable"},{"type":"function","name":"board","inputs":[{"name":"amount","type":"uint256","internalType":"uint256"},{"name":"boardData","type":"bytes","internalType":"bytes"}],"outputs":[],"stateMutability":"nonpayable"},{"type":"function","name":"commander","inputs":[],"outputs":[{"name":"","type":"address","internalType":"address"}],"stateMutability":"view"},{"type":"function","name":"config","inputs":[],"outputs":[{"name":"commander","type":"address","internalType":"address"},{"name":"raft","type":"address","internalType":"address"},{"name":"token","type":"address","internalType":"contract IERC20"},{"name":"depositCap","type":"uint256","internalType":"uint256"},{"name":"maxRebalanceOutflow","type":"uint256","internalType":"uint256"},{"name":"maxRebalanceInflow","type":"uint256","internalType":"uint256"},{"name":"name","type":"string","internalType":"string"},{"name":"requiresKeeperData","type":"bool","internalType":"bool"}],"stateMutability":"view"},{"type":"function","name":"configurationManager","inputs":[],"outputs":[{"name":"","type":"address","internalType":"contract IConfigurationManager"}],"stateMutability":"view"},{"type":"function","name":"depositCap","inputs":[],"outputs":[{"name":"","type":"uint256","internalType":"uint256"}],"stateMutability":"view"},{"type":"function","name":"disembark","inputs":[{"name":"amount","type":"uint256","internalType":"uint256"},{"name":"disembarkData","type":"bytes","internalType":"bytes"}],"outputs":[],"stateMutability":"nonpayable"},{"type":"function","name":"generateRole","inputs":[{"name":"roleName","type":"uint8","internalType":"enum ContractSpecificRoles"},{"name":"roleTargetContract","type":"address","internalType":"address"}],"outputs":[{"name":"","type":"bytes32","internalType":"bytes32"}],"stateMutability":"pure"},{"type":"function","name":"getConfig","inputs":[],"outputs":[{"name":"","type":"tuple","internalType":"struct ArkConfig","components":[{"name":"commander","type":"address","internalType":"address"},{"name":"raft","type":"address","internalType":"address"},{"name":"token","type":"address","internalType":"contract IERC20"},{"name":"depositCap","type":"uint256","internalType":"uint256"},{"name":"maxRebalanceOutflow","type":"uint256","internalType":"uint256"},{"name":"maxRebalanceInflow","type":"uint256","internalType":"uint256"},{"name":"name","type":"string","internalType":"string"},{"name":"requiresKeeperData","type":"bool","internalType":"bool"}]}],"stateMutability":"view"},{"type":"function","name":"harborCommand","inputs":[],"outputs":[{"name":"","type":"address","internalType":"address"}],"stateMutability":"view"},{"type":"function","name":"harvest","inputs":[{"name":"additionalData","type":"bytes","internalType":"bytes"}],"outputs":[{"name":"rewardTokens","type":"address[]","internalType":"address[]"},{"name":"rewardAmounts","type":"uint256[]","internalType":"uint256[]"}],"stateMutability":"nonpayable"},{"type":"function","name":"maxRebalanceInflow","inputs":[],"outputs":[{"name":"","type":"uint256","internalType":"uint256"}],"stateMutability":"view"},{"type":"function","name":"maxRebalanceOutflow","inputs":[],"outputs":[{"name":"","type":"uint256","internalType":"uint256"}],"stateMutability":"view"},{"type":"function","name":"move","inputs":[{"name":"amount","type":"uint256","internalType":"uint256"},{"name":"receiverArk","type":"address","internalType":"address"},{"name":"boardData","type":"bytes","internalType":"bytes"},{"name":"disembarkData","type":"bytes","internalType":"bytes"}],"outputs":[],"stateMutability":"nonpayable"},{"type":"function","name":"name","inputs":[],"outputs":[{"name":"","type":"string","internalType":"string"}],"stateMutability":"view"},{"type":"function","name":"raft","inputs":[],"outputs":[{"name":"","type":"address","internalType":"address"}],"stateMutability":"view"},{"type":"function","name":"registerFleetCommander","inputs":[],"outputs":[],"stateMutability":"nonpayable"},{"type":"function","name":"requiresKeeperData","inputs":[],"outputs":[{"name":"","type":"bool","internalType":"bool"}],"stateMutability":"view"},{"type":"function","name":"setDepositCap","inputs":[{"name":"newDepositCap","type":"uint256","internalType":"uint256"}],"outputs":[],"stateMutability":"nonpayable"},{"type":"function","name":"setMaxRebalanceInflow","inputs":[{"name":"newMaxRebalanceInflow","type":"uint256","internalType":"uint256"}],"outputs":[],"stateMutability":"nonpayable"},{"type":"function","name":"setMaxRebalanceOutflow","inputs":[{"name":"newMaxRebalanceOutflow","type":"uint256","internalType":"uint256"}],"outputs":[],"stateMutability":"nonpayable"},{"type":"function","name":"sweep","inputs":[{"name":"tokens","type":"address[]","internalType":"address[]"}],"outputs":[{"name":"sweptTokens","type":"address[]","internalType":"address[]"},{"name":"sweptAmounts","type":"uint256[]","internalType":"uint256[]"}],"stateMutability":"nonpayable"},{"type":"function","name":"tipJar","inputs":[],"outputs":[{"name":"","type":"address","internalType":"address"}],"stateMutability":"view"},{"type":"function","name":"token","inputs":[],"outputs":[{"name":"","type":"address","internalType":"contract IERC20"}],"stateMutability":"view"},{"type":"function","name":"totalAssets","inputs":[],"outputs":[{"name":"","type":"uint256","internalType":"uint256"}],"stateMutability":"view"},{"type":"function","name":"treasury","inputs":[],"outputs":[{"name":"","type":"address","internalType":"address"}],"stateMutability":"view"},{"type":"function","name":"unregisterFleetCommander","inputs":[],"outputs":[],"stateMutability":"nonpayable"},{"type":"event","name":"ArkHarvested","inputs":[{"name":"rewardTokens","type":"address[]","indexed":true,"internalType":"address[]"},{"name":"rewardAmounts","type":"uint256[]","indexed":true,"internalType":"uint256[]"}],"anonymous":false},{"type":"event","name":"ArkPoked","inputs":[{"name":"currentPrice","type":"uint256","indexed":false,"internalType":"uint256"},{"name":"timestamp","type":"uint256","indexed":false,"internalType":"uint256"}],"anonymous":false},{"type":"event","name":"ArkSwept","inputs":[{"name":"sweptTokens","type":"address[]","indexed":true,"internalType":"address[]"},{"name":"sweptAmounts","type":"uint256[]","indexed":true,"internalType":"uint256[]"}],"anonymous":false},{"type":"event","name":"Boarded","inputs":[{"name":"commander","type":"address","indexed":true,"internalType":"address"},{"name":"token","type":"address","indexed":false,"internalType":"address"},{"name":"amount","type":"uint256","indexed":false,"internalType":"uint256"}],"anonymous":false},{"type":"event","name":"DepositCapUpdated","inputs":[{"name":"newCap","type":"uint256","indexed":false,"internalType":"uint256"}],"anonymous":false},{"type":"event","name":"Disembarked","inputs":[{"name":"commander","type":"address","indexed":true,"internalType":"address"},{"name":"token","type":"address","indexed":false,"internalType":"address"},{"name":"amount","type":"uint256","indexed":false,"internalType":"uint256"}],"anonymous":false},{"type":"event","name":"FleetCommanderRegistered","inputs":[{"name":"commander","type":"address","indexed":false,"internalType":"address"}],"anonymous":false},{"type":"event","name":"FleetCommanderUnregistered","inputs":[{"name":"commander","type":"address","indexed":false,"internalType":"address"}],"anonymous":false},{"type":"event","name":"MaxRebalanceInflowUpdated","inputs":[{"name":"newMaxInflow","type":"uint256","indexed":false,"internalType":"uint256"}],"anonymous":false},{"type":"event","name":"MaxRebalanceOutflowUpdated","inputs":[{"name":"newMaxOutflow","type":"uint256","indexed":false,"internalType":"uint256"}],"anonymous":false},{"type":"event","name":"Moved","inputs":[{"name":"from","type":"address","indexed":true,"internalType":"address"},{"name":"to","type":"address","indexed":true,"internalType":"address"},{"name":"token","type":"address","indexed":false,"internalType":"address"},{"name":"amount","type":"uint256","indexed":false,"internalType":"uint256"}],"anonymous":false},{"type":"event","name":"RaftUpdated","inputs":[{"name":"newRaft","type":"address","indexed":false,"internalType":"address"}],"anonymous":false},{"type":"error","name":"CallerIsNotAdmin","inputs":[{"name":"caller","type":"address","internalType":"address"}]},{"type":"error","name":"CallerIsNotAuthorizedToBoard","inputs":[{"name":"caller","type":"address","internalType":"address"}]},{"type":"error","name":"CallerIsNotCommander","inputs":[{"name":"caller","type":"address","internalType":"address"}]},{"type":"error","name":"CallerIsNotContractSpecificRole","inputs":[{"name":"caller","type":"address","internalType":"address"},{"name":"role","type":"bytes32","internalType":"bytes32"}]},{"type":"error","name":"CallerIsNotCurator","inputs":[{"name":"caller","type":"address","internalType":"address"}]},{"type":"error","name":"CallerIsNotGovernor","inputs":[{"name":"caller","type":"address","internalType":"address"}]},{"type":"error","name":"CallerIsNotGuardian","inputs":[{"name":"caller","type":"address","internalType":"address"}]},{"type":"error","name":"CallerIsNotGuardianOrGovernor","inputs":[{"name":"caller","type":"address","internalType":"address"}]},{"type":"error","name":"CallerIsNotKeeper","inputs":[{"name":"caller","type":"address","internalType":"address"}]},{"type":"error","name":"CallerIsNotRaft","inputs":[{"name":"caller","type":"address","internalType":"address"}]},{"type":"error","name":"CallerIsNotRaftOrCommander","inputs":[{"name":"caller","type":"address","internalType":"address"}]},{"type":"error","name":"CallerIsNotSuperKeeper","inputs":[{"name":"caller","type":"address","internalType":"address"}]},{"type":"error","name":"CannotAddCommanderToArkWithCommander","inputs":[]},{"type":"error","name":"CannotDeployArkWithEmptyName","inputs":[]},{"type":"error","name":"CannotDeployArkWithoutConfigurationManager","inputs":[]},{"type":"error","name":"CannotDeployArkWithoutRaft","inputs":[]},{"type":"error","name":"CannotDeployArkWithoutToken","inputs":[]},{"type":"error","name":"CannotRemoveCommanderFromArkWithAssets","inputs":[]},{"type":"error","name":"CannotUseKeeperDataWhenNotRequired","inputs":[]},{"type":"error","name":"ConfigurationManagerZeroAddress","inputs":[]},{"type":"error","name":"DirectGrantIsDisabled","inputs":[{"name":"caller","type":"address","internalType":"address"}]},{"type":"error","name":"DirectRevokeIsDisabled","inputs":[{"name":"caller","type":"address","internalType":"address"}]},{"type":"error","name":"ERC4626AssetMismatch","inputs":[]},{"type":"error","name":"InvalidAccessManagerAddress","inputs":[{"name":"invalidAddress","type":"address","internalType":"address"}]},{"type":"error","name":"InvalidBoardData","inputs":[]},{"type":"error","name":"InvalidDisembarkData","inputs":[]},{"type":"error","name":"InvalidVaultAddress","inputs":[]},{"type":"error","name":"KeeperDataRequired","inputs":[]},{"type":"error","name":"SafeERC20FailedOperation","inputs":[{"name":"token","type":"address","internalType":"address"}]}],"bytecode":{"object":"0x60a060405234801561000f575f5ffd5b506040516124ad3803806124ad83398101604081905261002e91610441565b6040810151602082015182918291806001600160a01b03811661006b576040516347bd7c1d60e01b81525f60048201526024015b60405180910390fd5b6040516301ffc9a760e01b815263a237592160e01b60048201526001600160a01b038216906301ffc9a790602401602060405180830381865afa1580156100b4573d5f5f3e3d5ffd5b505050506040513d601f19601f820116820180604052508101906100d8919061050e565b610100576040516347bd7c1d60e01b81526001600160a01b0382166004820152602401610062565b5f80546001600160a01b0319166001600160a01b039283161790558216905061013c5760405163f1634df960e01b815260040160405180910390fd5b6001600160a01b0390811660805260408201511661016d5760405163b53c493160e01b815260040160405180910390fd5b60608101516001600160a01b031661019b576040516001620a810f60e11b0319815260040160405180910390fd5b8051515f036101bd5760405163268c072960e01b815260040160405180910390fd5b5f6101c66102e9565b6001600160a01b0316036101ed57604051633a4f9cdb60e21b815260040160405180910390fd5b6040805161010081019091525f8152602081016102086102e9565b6001600160a01b039081168252606080850151821660208085019190915260808087015160408087019190915260a0808901518588015260c0808a01518489015289518289015260e08a01511515978101979097528751600180549188166001600160a01b03199283161781559489015160028054918916918316919091179055918801516003805491909716921691909117909455918501516004559084015160055590830151600655908201516007906102c490826105b2565b5060e091909101516007909101805460ff191691151591909117905550610685915050565b5f6080516001600160a01b031663117d8ae06040518163ffffffff1660e01b8152600401602060405180830381865afa158015610328573d5f5f3e3d5ffd5b505050506040513d601f19601f8201168201806040525081019061034c919061066c565b905090565b634e487b7160e01b5f52604160045260245ffd5b60405161010081016001600160401b038111828210171561038857610388610351565b60405290565b5f82601f83011261039d575f5ffd5b81516001600160401b038111156103b6576103b6610351565b604051601f8201601f19908116603f011681016001600160401b03811182821017156103e4576103e4610351565b6040528181528382016020018510156103fb575f5ffd5b8160208501602083015e5f918101602001919091529392505050565b80516001600160a01b038116811461042d575f5ffd5b919050565b8051801515811461042d575f5ffd5b5f60208284031215610451575f5ffd5b81516001600160401b03811115610466575f5ffd5b82016101008185031215610478575f5ffd5b610480610365565b81516001600160401b03811115610495575f5ffd5b6104a18682850161038e565b8252506104b060208301610417565b60208201526104c160408301610417565b60408201526104d260608301610417565b60608201526080828101519082015260a0808301519082015260c0808301519082015261050160e08301610432565b60e0820152949350505050565b5f6020828403121561051e575f5ffd5b61052782610432565b9392505050565b600181811c9082168061054257607f821691505b60208210810361056057634e487b7160e01b5f52602260045260245ffd5b50919050565b601f8211156105ad57805f5260205f20601f840160051c8101602085101561058b5750805b601f840160051c820191505b818110156105aa575f8155600101610597565b50505b505050565b81516001600160401b038111156105cb576105cb610351565b6105df816105d9845461052e565b84610566565b6020601f821160018114610611575f83156105fa5750848201515b5f19600385901b1c1916600184901b1784556105aa565b5f84815260208120601f198516915b828110156106405787850151825560209485019460019092019101610620565b508482101561065d57868401515f19600387901b60f8161c191681555b50505050600190811b01905550565b5f6020828403121561067c575f5ffd5b61052782610417565b608051611df46106b95f395f81816103100152818161046b0152818161079a015281816107f70152610e490152611df45ff3fe608060405234801561000f575f5ffd5b5060043610610187575f3560e01c806379502c55116100d9578063c38a6f0b11610093578063ce5c7f611161006e578063ce5c7f6114610332578063dbd5edc714610345578063ebf311311461034d578063fc0c546a14610355575f5ffd5b8063c38a6f0b146102e3578063c3f909d4146102f6578063c9c667e31461030b575f5ffd5b806379502c55146102895780637aaceb95146102a557806386651203146102ad5780638a8b9976146102c057806392f5e832146102c8578063ad5a356f146102db575f5ffd5b80633194549e1161014457806361d027b31161011f57806361d027b31461023a57806361f5cd8b1461024257806369b3054b14610255578063780469bb14610268575f5ffd5b80633194549e1461021957806337270936146102215780635b0f83f314610232575f5ffd5b806301e1d1141461018b57806306fdde03146101a6578063117d8ae0146101bb57806313c408f8146101db5780632db6d399146101f0578063303dbaf314610203575b5f5ffd5b610193610366565b6040519081526020015b60405180910390f35b6101ae6103d5565b60405161019d919061165b565b6101c3610468565b6040516001600160a01b03909116815260200161019d565b6101ee6101e93660046116b8565b6104e9565b005b6101ee6101fe3660046116b8565b610597565b60085460ff16604051901515815260200161019d565b600554610193565b6001546001600160a01b03166101c3565b6101c3610797565b6101c36107f4565b6101ee6102503660046116ff565b610851565b61019361026336600461172d565b61089f565b61027b610276366004611868565b6108d1565b60405161019d9291906118a1565b610291610d82565b60405161019d98979695949392919061192a565b6101c3610e46565b6101ee6102bb3660046116ff565b610ea3565b6101ee610eea565b6101ee6102d63660046116ff565b610f47565b600654610193565b6101ee6102f136600461198a565b610f8e565b6102fe6110d4565b60405161019d9190611a13565b6101c37f000000000000000000000000000000000000000000000000000000000000000081565b61027b610340366004611aa9565b611208565b600454610193565b6101ee6112f2565b6003546001600160a01b03166101c3565b6003546040516370a0823160e01b81523060048201525f916001600160a01b0316906370a0823190602401602060405180830381865afa1580156103ac573d5f5f3e3d5ffd5b505050506040513d601f19601f820116820180604052508101906103d09190611ae7565b905090565b6060600160060180546103e790611afe565b80601f016020809104026020016040519081016040528092919081815260200182805461041390611afe565b801561045e5780601f106104355761010080835404028352916020019161045e565b820191905f5260205f20905b81548152906001019060200180831161044157829003601f168201915b5050505050905090565b5f7f00000000000000000000000000000000000000000000000000000000000000006001600160a01b031663117d8ae06040518163ffffffff1660e01b8152600401602060405180830381865afa1580156104c5573d5f5f3e3d5ffd5b505050506040513d601f19601f820116820180604052508101906103d09190611b36565b6104f1611344565b61052157335b604051631564c0e160e11b81526001600160a01b0390911660048201526024015b60405180910390fd5b818161052d82826113cd565b33600354610545906001600160a01b03168288611434565b600354604080516001600160a01b03928316815260208101899052918316917fd5e872c5ecfb1bb8820b2e6a20e31b883682282da886621541f71e31ec11947e910160405180910390a2505050505050565b306001600160a01b031663372709366040518163ffffffff1660e01b8152600401602060405180830381865afa1580156105d3573d5f5f3e3d5ffd5b505050506040513d601f19601f820116820180604052508101906105f79190611b36565b6105ff611344565b61071e575f3390505f306001600160a01b031663117d8ae06040518163ffffffff1660e01b8152600401602060405180830381865afa158015610644573d5f5f3e3d5ffd5b505050506040513d601f19601f820116820180604052508101906106689190611b36565b6001600160a01b0316826001600160a01b03161490508061071b5760405163d25dd10160e01b81526001600160a01b0383811660048301525f919085169063d25dd10190602401602060405180830381865afa1580156106ca573d5f5f3e3d5ffd5b505050506040513d601f19601f820116820180604052508101906106ee9190611b51565b90508061071957604051638f7a567d60e01b81526001600160a01b0384166004820152602401610518565b505b50505b828261072a82826113cd565b6003543390610744906001600160a01b031682308a611493565b600354604080516001600160a01b039283168152602081018a9052918316917fcbaa1442ac205415c9d69643e7b60ec73d1de35dbc807c21ec288c70ddc4207b910160405180910390a250505050505050565b5f7f00000000000000000000000000000000000000000000000000000000000000006001600160a01b0316635b0f83f36040518163ffffffff1660e01b8152600401602060405180830381865afa1580156104c5573d5f5f3e3d5ffd5b5f7f00000000000000000000000000000000000000000000000000000000000000006001600160a01b03166361d027b36040518163ffffffff1660e01b8152600401602060405180830381865afa1580156104c5573d5f5f3e3d5ffd5b610859611344565b61086357336104f7565b60058190556040518181527ffbe2d5c01ea8ba5596d6c4e6c82c6d4a0a0ee1128689993a4a5ba0169273d69f906020015b60405180910390a150565b5f82826040516020016108b3929190611b70565b60405160208183030381529060405280519060200120905092915050565b606080306001600160a01b031663117d8ae06040518163ffffffff1660e01b8152600401602060405180830381865afa158015610910573d5f5f3e3d5ffd5b505050506040513d601f19601f820116820180604052508101906109349190611b36565b6001600160a01b0316336001600160a01b03161461097357335b604051631184b31b60e21b81526001600160a01b039091166004820152602401610518565b82516001600160401b0381111561098c5761098c611767565b6040519080825280602002602001820160405280156109b5578160200160208202803683370190505b50915082516001600160401b038111156109d1576109d1611767565b6040519080825280602002602001820160405280156109fa578160200160208202803683370190505b506003546040516370a0823160e01b81523060048201529192505f916001600160a01b03909116906370a0823190602401602060405180830381865afa158015610a46573d5f5f3e3d5ffd5b505050506040513d601f19601f82011682018060405250810190610a6a9190611ae7565b1115610b5b57600154604080516330fe427560e21b81529051610b5b926001600160a01b03169163c3f909d49160048083019260809291908290030181865afa158015610ab9573d5f5f3e3d5ffd5b505050506040513d601f19601f82011682018060405250810190610add9190611bb3565b516003546040516370a0823160e01b81523060048201526001600160a01b03909116906370a0823190602401602060405180830381865afa158015610b24573d5f5f3e3d5ffd5b505050506040513d601f19601f82011682018060405250810190610b489190611ae7565b6003546001600160a01b03169190611434565b5f5b8351811015610d29575f848281518110610b7957610b79611c1e565b60209081029190910101516040516370a0823160e01b81523060048201526001600160a01b03909116906370a0823190602401602060405180830381865afa158015610bc7573d5f5f3e3d5ffd5b505050506040513d601f19601f82011682018060405250810190610beb9190611ae7565b90508015610d2057610cb4610bfe610468565b868481518110610c1057610c10611c1e565b60209081029190910101516040516370a0823160e01b81523060048201526001600160a01b03909116906370a0823190602401602060405180830381865afa158015610c5e573d5f5f3e3d5ffd5b505050506040513d601f19601f82011682018060405250810190610c829190611ae7565b878581518110610c9457610c94611c1e565b60200260200101516001600160a01b03166114349092919063ffffffff16565b848281518110610cc657610cc6611c1e565b6020026020010151848381518110610ce057610ce0611c1e565b60200260200101906001600160a01b031690816001600160a01b03168152505080838381518110610d1357610d13611c1e565b6020026020010181815250505b50600101610b5d565b5080604051610d389190611c32565b604051809103902082604051610d4e9190611c67565b604051908190038120907f46b8771620f6acf56cb03d3e835ea8024c7dcbcf05fcc3f6ade9e19d1a3e212b905f90a3915091565b60018054600254600354600454600554600654600780546001600160a01b03978816989688169790951695939492939192610dbc90611afe565b80601f0160208091040260200160405190810160405280929190818152602001828054610de890611afe565b8015610e335780601f10610e0a57610100808354040283529160200191610e33565b820191905f5260205f20905b815481529060010190602001808311610e1657829003601f168201915b5050506007909301549192505060ff1688565b5f7f00000000000000000000000000000000000000000000000000000000000000006001600160a01b0316637aaceb956040518163ffffffff1660e01b8152600401602060405180830381865afa1580156104c5573d5f5f3e3d5ffd5b610eab611344565b610eb557336104f7565b60048190556040518181527f333b26cca69716ad4680ddb07663f5bfb4f06045671f336af9a83690a3ae00f990602001610894565b610ef2611344565b610efc57336104f7565b600180546001600160a01b031916339081179091556040519081527f55489ce0259bd691120d8860861be1c401c7c16a3cd268d21045756af4ecc5ca906020015b60405180910390a1565b610f4f611344565b610f5957336104f7565b60068190556040518181527fb6ac66853c4e59c71e118d25ab494bb847c4e5eb0c8894898c5343e6f61afc1290602001610894565b610f96611344565b610fa057336104f7565b8181610fac82826113cd565b60035460405163095ea7b360e01b81526001600160a01b038981166004830152602482018b90529091169063095ea7b3906044016020604051808303815f875af1158015610ffc573d5f5f3e3d5ffd5b505050506040513d601f19601f820116820180604052508101906110209190611b51565b50604051632db6d39960e01b81526001600160a01b03881690632db6d39990611051908b908a908a90600401611c9a565b5f604051808303815f87803b158015611068575f5ffd5b505af115801561107a573d5f5f3e3d5ffd5b5050600354604080516001600160a01b039283168152602081018d9052918b1693503092507f9f784fc02a186f1c98b2d9f15fda084da27cdd291a3785d978f91911d880516b910160405180910390a35050505050505050565b60408051610100810182525f8082526020820181905291810182905260608082018390526080820183905260a0820183905260c082015260e08101919091526040805161010081018252600180546001600160a01b0390811683526002548116602084015260035416928201929092526004546060820152600554608082015260065460a08201526007805491929160c08401919061117290611afe565b80601f016020809104026020016040519081016040528092919081815260200182805461119e90611afe565b80156111e95780601f106111c0576101008083540402835291602001916111e9565b820191905f5260205f20905b8154815290600101906020018083116111cc57829003601f168201915b50505091835250506007919091015460ff161515602090910152919050565b606080306001600160a01b031663117d8ae06040518163ffffffff1660e01b8152600401602060405180830381865afa158015611247573d5f5f3e3d5ffd5b505050506040513d601f19601f8201168201806040525081019061126b9190611b36565b6001600160a01b0316336001600160a01b031614611289573361094e565b61129384846114d2565b60405191935091506112a6908290611c32565b6040518091039020826040516112bc9190611c67565b604051908190038120907f3e3e7958121b3e39c7a49392d1aa9cdce870c2a059744f9e15cf66fff7865455905f90a39250929050565b6112fa611344565b61130457336104f7565b600180546001600160a01b03191690556040513381527f7cb941d7b1708e5b3bcd35ca960d6c6311188cec18886e5b67630552676b048790602001610f3d565b5f80546001600160a01b03166391d1485461136060023061089f565b336040516001600160e01b031960e085901b16815260048101929092526001600160a01b03166024820152604401602060405180830381865afa1580156113a9573d5f5f3e3d5ffd5b505050506040513d601f19601f820116820180604052508101906103d09190611b51565b80158015906113df575060085460ff16155b156113fd57604051630cd0fdf960e01b815260040160405180910390fd5b8015801561140d575060085460ff165b1561142b5760405163332863a960e11b815260040160405180910390fd5b5050565b505050565b6040516001600160a01b0383811660248301526044820183905261142f91859182169063a9059cbb906064015b604051602081830303815290604052915060e01b6020820180516001600160e01b0383818316178352505050506115c1565b6040516001600160a01b0384811660248301528381166044830152606482018390526114cc9186918216906323b872dd90608401611461565b50505050565b6060805f6114e284860186611ccf565b80516020820151909450925090505f5b83518110156115b85783818151811061150d5761150d611c1e565b60200260200101516001600160a01b031663a9059cbb3385848151811061153657611536611c1e565b60200260200101516040518363ffffffff1660e01b815260040161156f9291906001600160a01b03929092168252602082015260400190565b6020604051808303815f875af115801561158b573d5f5f3e3d5ffd5b505050506040513d601f19601f820116820180604052508101906115af9190611b51565b506001016114f2565b50509250929050565b5f5f60205f8451602086015f885af1806115e0576040513d5f823e3d81fd5b50505f513d915081156115f7578060011415611604565b6001600160a01b0384163b155b156114cc57604051635274afe760e01b81526001600160a01b0385166004820152602401610518565b5f81518084528060208401602086015e5f602082860101526020601f19601f83011685010191505092915050565b602081525f61166d602083018461162d565b9392505050565b5f5f83601f840112611684575f5ffd5b5081356001600160401b0381111561169a575f5ffd5b6020830191508360208285010111156116b1575f5ffd5b9250929050565b5f5f5f604084860312156116ca575f5ffd5b8335925060208401356001600160401b038111156116e6575f5ffd5b6116f286828701611674565b9497909650939450505050565b5f6020828403121561170f575f5ffd5b5035919050565b6001600160a01b038116811461172a575f5ffd5b50565b5f5f6040838503121561173e575f5ffd5b82356003811061174c575f5ffd5b9150602083013561175c81611716565b809150509250929050565b634e487b7160e01b5f52604160045260245ffd5b604080519081016001600160401b038111828210171561179d5761179d611767565b60405290565b604051601f8201601f191681016001600160401b03811182821017156117cb576117cb611767565b604052919050565b5f6001600160401b038211156117eb576117eb611767565b5060051b60200190565b5f82601f830112611804575f5ffd5b8135611817611812826117d3565b6117a3565b8082825260208201915060208360051b860101925085831115611838575f5ffd5b602085015b8381101561185e57803561185081611716565b83526020928301920161183d565b5095945050505050565b5f60208284031215611878575f5ffd5b81356001600160401b0381111561188d575f5ffd5b611899848285016117f5565b949350505050565b604080825283519082018190525f9060208501906060840190835b818110156118e35783516001600160a01b03168352602093840193909201916001016118bc565b5050838103602080860191909152855180835291810192508501905f5b8181101561191e578251845260209384019390920191600101611900565b50919695505050505050565b6001600160a01b038981168252888116602083015287166040820152606081018690526080810185905260a0810184905261010060c082018190525f906119739083018561162d565b905082151560e08301529998505050505050505050565b5f5f5f5f5f5f6080878903121561199f575f5ffd5b8635955060208701356119b181611716565b945060408701356001600160401b038111156119cb575f5ffd5b6119d789828a01611674565b90955093505060608701356001600160401b038111156119f5575f5ffd5b611a0189828a01611674565b979a9699509497509295939492505050565b602080825282516001600160a01b039081168383015290830151166040808301919091528201515f90611a5160608401826001600160a01b03169052565b5060608301516080830152608083015160a083015260a083015160c083015260c083015161010060e0840152611a8b61012084018261162d565b905060e0840151611aa161010085018215159052565b509392505050565b5f5f60208385031215611aba575f5ffd5b82356001600160401b03811115611acf575f5ffd5b611adb85828601611674565b90969095509350505050565b5f60208284031215611af7575f5ffd5b5051919050565b600181811c90821680611b1257607f821691505b602082108103611b3057634e487b7160e01b5f52602260045260245ffd5b50919050565b5f60208284031215611b46575f5ffd5b815161166d81611716565b5f60208284031215611b61575f5ffd5b8151801515811461166d575f5ffd5b5f60038410611b8d57634e487b7160e01b5f52602160045260245ffd5b5060f89290921b825260601b6bffffffffffffffffffffffff1916600182015260150190565b5f6080828403128015611bc4575f5ffd5b50604051608081016001600160401b0381118282101715611be757611be7611767565b6040528251611bf581611716565b815260208381015190820152604080840151908201526060928301519281019290925250919050565b634e487b7160e01b5f52603260045260245ffd5b81515f90829060208501835b82811015611c5c578151845260209384019390910190600101611c3e565b509195945050505050565b81515f90829060208501835b82811015611c5c5781516001600160a01b0316845260209384019390910190600101611c73565b83815260406020820152816040820152818360608301375f818301606090810191909152601f909201601f1916010192915050565b5f60208284031215611cdf575f5ffd5b81356001600160401b03811115611cf4575f5ffd5b820160408185031215611d05575f5ffd5b611d0d61177b565b81356001600160401b03811115611d22575f5ffd5b611d2e868285016117f5565b82525060208201356001600160401b03811115611d49575f5ffd5b80830192505084601f830112611d5d575f5ffd5b8135611d6b611812826117d3565b8082825260208201915060208360051b860101925087831115611d8c575f5ffd5b6020850194505b82851015611dae578435825260209485019490910190611d93565b602084015250909594505050505056fea2646970667358221220ea6b3272a42392bb1ddaff70e97b1786591cd47221e8463e07bff8e2879a4c0d64736f6c634300081b0033","linkReferences":{}},"methodIdentifiers":{"board(uint256,bytes)":"2db6d399","commander()":"37270936","config()":"79502c55","configurationManager()":"c9c667e3","depositCap()":"dbd5edc7","disembark(uint256,bytes)":"13c408f8","generateRole(uint8,address)":"69b3054b","getConfig()":"c3f909d4","harborCommand()":"5b0f83f3","harvest(bytes)":"ce5c7f61","maxRebalanceInflow()":"ad5a356f","maxRebalanceOutflow()":"3194549e","move(uint256,address,bytes,bytes)":"c38a6f0b","name()":"06fdde03","raft()":"117d8ae0","registerFleetCommander()":"8a8b9976","requiresKeeperData()":"303dbaf3","setDepositCap(uint256)":"86651203","setMaxRebalanceInflow(uint256)":"92f5e832","setMaxRebalanceOutflow(uint256)":"61f5cd8b","sweep(address[])":"780469bb","tipJar()":"7aaceb95","token()":"fc0c546a","totalAssets()":"01e1d114","treasury()":"61d027b3","unregisterFleetCommander()":"ebf31131"},"id":280}