{"abi":[{"type":"constructor","inputs":[{"name":"_params","type":"tuple","internalType":"struct ArkParams","components":[{"name":"name","type":"string","internalType":"string"},{"name":"details","type":"string","internalType":"string"},{"name":"accessManager","type":"address","internalType":"address"},{"name":"configurationManager","type":"address","internalType":"address"},{"name":"asset","type":"address","internalType":"address"},{"name":"depositCap","type":"uint256","internalType":"uint256"},{"name":"maxRebalanceOutflow","type":"uint256","internalType":"uint256"},{"name":"maxRebalanceInflow","type":"uint256","internalType":"uint256"},{"name":"requiresKeeperData","type":"bool","internalType":"bool"},{"name":"maxDepositPercentageOfTVL","type":"uint256","internalType":"Percentage"}]}],"stateMutability":"nonpayable"},{"type":"function","name":"asset","inputs":[],"outputs":[{"name":"","type":"address","internalType":"contract IERC20"}],"stateMutability":"view"},{"type":"function","name":"board","inputs":[{"name":"amount","type":"uint256","internalType":"uint256"},{"name":"boardData","type":"bytes","internalType":"bytes"}],"outputs":[],"stateMutability":"nonpayable"},{"type":"function","name":"commander","inputs":[],"outputs":[{"name":"","type":"address","internalType":"address"}],"stateMutability":"view"},{"type":"function","name":"config","inputs":[],"outputs":[{"name":"commander","type":"address","internalType":"address"},{"name":"raft","type":"address","internalType":"address"},{"name":"asset","type":"address","internalType":"contract IERC20"},{"name":"depositCap","type":"uint256","internalType":"uint256"},{"name":"maxRebalanceOutflow","type":"uint256","internalType":"uint256"},{"name":"maxRebalanceInflow","type":"uint256","internalType":"uint256"},{"name":"name","type":"string","internalType":"string"},{"name":"details","type":"string","internalType":"string"},{"name":"requiresKeeperData","type":"bool","internalType":"bool"},{"name":"maxDepositPercentageOfTVL","type":"uint256","internalType":"Percentage"}],"stateMutability":"view"},{"type":"function","name":"configurationManager","inputs":[],"outputs":[{"name":"","type":"address","internalType":"contract IConfigurationManager"}],"stateMutability":"view"},{"type":"function","name":"depositCap","inputs":[],"outputs":[{"name":"","type":"uint256","internalType":"uint256"}],"stateMutability":"view"},{"type":"function","name":"disembark","inputs":[{"name":"amount","type":"uint256","internalType":"uint256"},{"name":"disembarkData","type":"bytes","internalType":"bytes"}],"outputs":[],"stateMutability":"nonpayable"},{"type":"function","name":"fleetCommanderRewardsManagerFactory","inputs":[],"outputs":[{"name":"","type":"address","internalType":"address"}],"stateMutability":"view"},{"type":"function","name":"generateRole","inputs":[{"name":"roleName","type":"uint8","internalType":"enum ContractSpecificRoles"},{"name":"roleTargetContract","type":"address","internalType":"address"}],"outputs":[{"name":"","type":"bytes32","internalType":"bytes32"}],"stateMutability":"pure"},{"type":"function","name":"getConfig","inputs":[],"outputs":[{"name":"","type":"tuple","internalType":"struct ArkConfig","components":[{"name":"commander","type":"address","internalType":"address"},{"name":"raft","type":"address","internalType":"address"},{"name":"asset","type":"address","internalType":"contract IERC20"},{"name":"depositCap","type":"uint256","internalType":"uint256"},{"name":"maxRebalanceOutflow","type":"uint256","internalType":"uint256"},{"name":"maxRebalanceInflow","type":"uint256","internalType":"uint256"},{"name":"name","type":"string","internalType":"string"},{"name":"details","type":"string","internalType":"string"},{"name":"requiresKeeperData","type":"bool","internalType":"bool"},{"name":"maxDepositPercentageOfTVL","type":"uint256","internalType":"Percentage"}]}],"stateMutability":"view"},{"type":"function","name":"harborCommand","inputs":[],"outputs":[{"name":"","type":"address","internalType":"address"}],"stateMutability":"view"},{"type":"function","name":"harvest","inputs":[{"name":"additionalData","type":"bytes","internalType":"bytes"}],"outputs":[{"name":"rewardTokens","type":"address[]","internalType":"address[]"},{"name":"rewardAmounts","type":"uint256[]","internalType":"uint256[]"}],"stateMutability":"nonpayable"},{"type":"function","name":"maxDepositPercentageOfTVL","inputs":[],"outputs":[{"name":"","type":"uint256","internalType":"Percentage"}],"stateMutability":"view"},{"type":"function","name":"maxRebalanceInflow","inputs":[],"outputs":[{"name":"","type":"uint256","internalType":"uint256"}],"stateMutability":"view"},{"type":"function","name":"maxRebalanceOutflow","inputs":[],"outputs":[{"name":"","type":"uint256","internalType":"uint256"}],"stateMutability":"view"},{"type":"function","name":"move","inputs":[{"name":"amount","type":"uint256","internalType":"uint256"},{"name":"receiverArk","type":"address","internalType":"address"},{"name":"boardData","type":"bytes","internalType":"bytes"},{"name":"disembarkData","type":"bytes","internalType":"bytes"}],"outputs":[],"stateMutability":"nonpayable"},{"type":"function","name":"name","inputs":[],"outputs":[{"name":"","type":"string","internalType":"string"}],"stateMutability":"view"},{"type":"function","name":"raft","inputs":[],"outputs":[{"name":"","type":"address","internalType":"address"}],"stateMutability":"view"},{"type":"function","name":"registerFleetCommander","inputs":[],"outputs":[],"stateMutability":"nonpayable"},{"type":"function","name":"requiresKeeperData","inputs":[],"outputs":[{"name":"","type":"bool","internalType":"bool"}],"stateMutability":"view"},{"type":"function","name":"setDepositCap","inputs":[{"name":"newDepositCap","type":"uint256","internalType":"uint256"}],"outputs":[],"stateMutability":"nonpayable"},{"type":"function","name":"setMaxDepositPercentageOfTVL","inputs":[{"name":"newMaxDepositPercentageOfTVL","type":"uint256","internalType":"Percentage"}],"outputs":[],"stateMutability":"nonpayable"},{"type":"function","name":"setMaxRebalanceInflow","inputs":[{"name":"newMaxRebalanceInflow","type":"uint256","internalType":"uint256"}],"outputs":[],"stateMutability":"nonpayable"},{"type":"function","name":"setMaxRebalanceOutflow","inputs":[{"name":"newMaxRebalanceOutflow","type":"uint256","internalType":"uint256"}],"outputs":[],"stateMutability":"nonpayable"},{"type":"function","name":"sweep","inputs":[{"name":"tokens","type":"address[]","internalType":"address[]"}],"outputs":[{"name":"sweptTokens","type":"address[]","internalType":"address[]"},{"name":"sweptAmounts","type":"uint256[]","internalType":"uint256[]"}],"stateMutability":"nonpayable"},{"type":"function","name":"tipJar","inputs":[],"outputs":[{"name":"","type":"address","internalType":"address"}],"stateMutability":"view"},{"type":"function","name":"totalAssets","inputs":[],"outputs":[{"name":"","type":"uint256","internalType":"uint256"}],"stateMutability":"view"},{"type":"function","name":"treasury","inputs":[],"outputs":[{"name":"","type":"address","internalType":"address"}],"stateMutability":"view"},{"type":"function","name":"unregisterFleetCommander","inputs":[],"outputs":[],"stateMutability":"nonpayable"},{"type":"event","name":"ArkHarvested","inputs":[{"name":"rewardTokens","type":"address[]","indexed":true,"internalType":"address[]"},{"name":"rewardAmounts","type":"uint256[]","indexed":true,"internalType":"uint256[]"}],"anonymous":false},{"type":"event","name":"ArkPoked","inputs":[{"name":"currentPrice","type":"uint256","indexed":false,"internalType":"uint256"},{"name":"timestamp","type":"uint256","indexed":false,"internalType":"uint256"}],"anonymous":false},{"type":"event","name":"ArkSwept","inputs":[{"name":"sweptTokens","type":"address[]","indexed":true,"internalType":"address[]"},{"name":"sweptAmounts","type":"uint256[]","indexed":true,"internalType":"uint256[]"}],"anonymous":false},{"type":"event","name":"Boarded","inputs":[{"name":"commander","type":"address","indexed":true,"internalType":"address"},{"name":"token","type":"address","indexed":false,"internalType":"address"},{"name":"amount","type":"uint256","indexed":false,"internalType":"uint256"}],"anonymous":false},{"type":"event","name":"DepositCapUpdated","inputs":[{"name":"newCap","type":"uint256","indexed":false,"internalType":"uint256"}],"anonymous":false},{"type":"event","name":"Disembarked","inputs":[{"name":"commander","type":"address","indexed":true,"internalType":"address"},{"name":"token","type":"address","indexed":false,"internalType":"address"},{"name":"amount","type":"uint256","indexed":false,"internalType":"uint256"}],"anonymous":false},{"type":"event","name":"FleetCommanderRegistered","inputs":[{"name":"commander","type":"address","indexed":false,"internalType":"address"}],"anonymous":false},{"type":"event","name":"FleetCommanderUnregistered","inputs":[{"name":"commander","type":"address","indexed":false,"internalType":"address"}],"anonymous":false},{"type":"event","name":"MaxDepositPercentageOfTVLUpdated","inputs":[{"name":"newMaxDepositPercentageOfTVL","type":"uint256","indexed":false,"internalType":"Percentage"}],"anonymous":false},{"type":"event","name":"MaxRebalanceInflowUpdated","inputs":[{"name":"newMaxInflow","type":"uint256","indexed":false,"internalType":"uint256"}],"anonymous":false},{"type":"event","name":"MaxRebalanceOutflowUpdated","inputs":[{"name":"newMaxOutflow","type":"uint256","indexed":false,"internalType":"uint256"}],"anonymous":false},{"type":"event","name":"Moved","inputs":[{"name":"from","type":"address","indexed":true,"internalType":"address"},{"name":"to","type":"address","indexed":true,"internalType":"address"},{"name":"token","type":"address","indexed":false,"internalType":"address"},{"name":"amount","type":"uint256","indexed":false,"internalType":"uint256"}],"anonymous":false},{"type":"event","name":"RaftUpdated","inputs":[{"name":"newRaft","type":"address","indexed":false,"internalType":"address"}],"anonymous":false},{"type":"error","name":"CallerIsNotAdmin","inputs":[{"name":"caller","type":"address","internalType":"address"}]},{"type":"error","name":"CallerIsNotAuthorizedToBoard","inputs":[{"name":"caller","type":"address","internalType":"address"}]},{"type":"error","name":"CallerIsNotCommander","inputs":[{"name":"caller","type":"address","internalType":"address"}]},{"type":"error","name":"CallerIsNotContractSpecificRole","inputs":[{"name":"caller","type":"address","internalType":"address"},{"name":"role","type":"bytes32","internalType":"bytes32"}]},{"type":"error","name":"CallerIsNotCurator","inputs":[{"name":"caller","type":"address","internalType":"address"}]},{"type":"error","name":"CallerIsNotDecayController","inputs":[{"name":"caller","type":"address","internalType":"address"}]},{"type":"error","name":"CallerIsNotGovernor","inputs":[{"name":"caller","type":"address","internalType":"address"}]},{"type":"error","name":"CallerIsNotGuardian","inputs":[{"name":"caller","type":"address","internalType":"address"}]},{"type":"error","name":"CallerIsNotGuardianOrGovernor","inputs":[{"name":"caller","type":"address","internalType":"address"}]},{"type":"error","name":"CallerIsNotKeeper","inputs":[{"name":"caller","type":"address","internalType":"address"}]},{"type":"error","name":"CallerIsNotRaft","inputs":[{"name":"caller","type":"address","internalType":"address"}]},{"type":"error","name":"CallerIsNotRaftOrCommander","inputs":[{"name":"caller","type":"address","internalType":"address"}]},{"type":"error","name":"CallerIsNotSuperKeeper","inputs":[{"name":"caller","type":"address","internalType":"address"}]},{"type":"error","name":"CannotAddCommanderToArkWithCommander","inputs":[]},{"type":"error","name":"CannotDeployArkWithEmptyName","inputs":[]},{"type":"error","name":"CannotDeployArkWithoutConfigurationManager","inputs":[]},{"type":"error","name":"CannotDeployArkWithoutRaft","inputs":[]},{"type":"error","name":"CannotDeployArkWithoutToken","inputs":[]},{"type":"error","name":"CannotRemoveCommanderFromArkWithAssets","inputs":[]},{"type":"error","name":"CannotUseKeeperDataWhenNotRequired","inputs":[]},{"type":"error","name":"ConfigurationManagerZeroAddress","inputs":[]},{"type":"error","name":"DirectGrantIsDisabled","inputs":[{"name":"caller","type":"address","internalType":"address"}]},{"type":"error","name":"DirectRevokeIsDisabled","inputs":[{"name":"caller","type":"address","internalType":"address"}]},{"type":"error","name":"ERC4626AssetMismatch","inputs":[]},{"type":"error","name":"InvalidAccessManagerAddress","inputs":[{"name":"invalidAddress","type":"address","internalType":"address"}]},{"type":"error","name":"InvalidBoardData","inputs":[]},{"type":"error","name":"InvalidDisembarkData","inputs":[]},{"type":"error","name":"InvalidVaultAddress","inputs":[]},{"type":"error","name":"KeeperDataRequired","inputs":[]},{"type":"error","name":"ReentrancyGuardReentrantCall","inputs":[]},{"type":"error","name":"SafeERC20FailedOperation","inputs":[{"name":"token","type":"address","internalType":"address"}]}],"bytecode":{"object":"0x60a060405234801561000f575f5ffd5b50604051612a7c380380612a7c83398101604081905261002e9161047b565b6060810151604082015182918291806001600160a01b03811661006b576040516347bd7c1d60e01b81525f60048201526024015b60405180910390fd5b6040516301ffc9a760e01b8152639bd1803160e01b60048201526001600160a01b038216906301ffc9a790602401602060405180830381865afa1580156100b4573d5f5f3e3d5ffd5b505050506040513d601f19601f820116820180604052508101906100d89190610581565b610100576040516347bd7c1d60e01b81526001600160a01b0382166004820152602401610062565b5f80546001600160a01b0319166001600160a01b039283161790558216905061013c5760405163f1634df960e01b815260040160405180910390fd5b6001600160a01b0390811660805260608201511661016d5760405163b53c493160e01b815260040160405180910390fd5b60808101516001600160a01b031661019b576040516001620a810f60e11b0319815260040160405180910390fd5b8051515f036101bd5760405163268c072960e01b815260040160405180910390fd5b5f6101c6610323565b6001600160a01b0316036101ed57604051633a4f9cdb60e21b815260040160405180910390fd5b6040805161014081019091525f815260208101610208610323565b6001600160a01b039081168252608080850151821660208085019190915260a08087015160408087019190915260c08089015160608089019190915260e0808b0151878a01528a51858a01528a860151838a0152610100808c01511515918a01919091526101208b01519801979097528751600180549188166001600160a01b031992831617815594890151600280549189169183169190911790559188015160038054919097169216919091179094559385015160045590840151600555918301516006558201516007906102de9082610625565b5060e082015160078201906102f39082610625565b5061010082015160088201805460ff191691151591909117905561012090910151600990910155506106f8915050565b5f6080516001600160a01b031663117d8ae06040518163ffffffff1660e01b8152600401602060405180830381865afa158015610362573d5f5f3e3d5ffd5b505050506040513d601f19601f8201168201806040525081019061038691906106df565b905090565b634e487b7160e01b5f52604160045260245ffd5b60405161014081016001600160401b03811182821017156103c2576103c261038b565b60405290565b5f82601f8301126103d7575f5ffd5b81516001600160401b038111156103f0576103f061038b565b604051601f8201601f19908116603f011681016001600160401b038111828210171561041e5761041e61038b565b604052818152838201602001851015610435575f5ffd5b8160208501602083015e5f918101602001919091529392505050565b80516001600160a01b0381168114610467575f5ffd5b919050565b80518015158114610467575f5ffd5b5f6020828403121561048b575f5ffd5b81516001600160401b038111156104a0575f5ffd5b820161014081850312156104b2575f5ffd5b6104ba61039f565b81516001600160401b038111156104cf575f5ffd5b6104db868285016103c8565b82525060208201516001600160401b038111156104f6575f5ffd5b610502868285016103c8565b60208301525061051460408301610451565b604082015261052560608301610451565b606082015261053660808301610451565b608082015260a0828101519082015260c0808301519082015260e08083015190820152610566610100830161046c565b61010082015261012091820151918101919091529392505050565b5f60208284031215610591575f5ffd5b61059a8261046c565b9392505050565b600181811c908216806105b557607f821691505b6020821081036105d357634e487b7160e01b5f52602260045260245ffd5b50919050565b601f82111561062057805f5260205f20601f840160051c810160208510156105fe5750805b601f840160051c820191505b8181101561061d575f815560010161060a565b50505b505050565b81516001600160401b0381111561063e5761063e61038b565b6106528161064c84546105a1565b846105d9565b6020601f821160018114610684575f831561066d5750848201515b5f19600385901b1c1916600184901b17845561061d565b5f84815260208120601f198516915b828110156106b35787850151825560209485019460019092019101610693565b50848210156106d057868401515f19600387901b60f8161c191681555b50505050600190811b01905550565b5f602082840312156106ef575f5ffd5b61059a82610451565b6080516123496107335f395f818161037d015281816104cf01528181610867015281816108c401528181611085015261165801526123495ff3fe608060405234801561000f575f5ffd5b50600436106101c6575f3560e01c8063780469bb116100fe578063bdcdd8821161009e578063ce5c7f611161006e578063ce5c7f611461039f578063dbd5edc7146103b2578063ebf31131146103ba578063f7e533ec146103c2575f5ffd5b8063bdcdd88214610348578063c38a6f0b14610350578063c3f909d414610363578063c9c667e314610378575f5ffd5b806386651203116100d957806386651203146103125780638a8b99761461032557806392f5e8321461032d578063ad5a356f14610340575f5ffd5b8063780469bb146102cb57806379502c55146102ec5780637aaceb951461030a575f5ffd5b806337270936116101695780635b0f83f3116101445780635b0f83f31461029557806361d027b31461029d57806361f5cd8b146102a557806369b3054b146102b8575f5ffd5b8063372709361461026057806338d52e0f146102715780634fc7fac314610282575f5ffd5b806313c408f8116101a457806313c408f81461021a5780632db6d3991461022f578063303dbaf3146102425780633194549e14610258575f5ffd5b806301e1d114146101ca57806306fdde03146101e5578063117d8ae0146101fa575b5f5ffd5b6101d26103ca565b6040519081526020015b60405180910390f35b6101ed610439565b6040516101dc9190611b3c565b6102026104cc565b6040516001600160a01b0390911681526020016101dc565b61022d610228366004611b92565b61054d565b005b61022d61023d366004611b92565b61060b565b60095460ff1660405190151581526020016101dc565b6005546101d2565b6001546001600160a01b0316610202565b6003546001600160a01b0316610202565b61022d610290366004611bd9565b610816565b610202610864565b6102026108c1565b61022d6102b3366004611bd9565b61091e565b6101d26102c6366004611c07565b610965565b6102de6102d9366004611d42565b610997565b6040516101dc929190611d7b565b6102f4610f2b565b6040516101dc9a99989796959493929190611e04565b610202611082565b61022d610320366004611bd9565b6110df565b61022d611126565b61022d61033b366004611bd9565b611183565b6006546101d2565b600a546101d2565b61022d61035e366004611e7b565b6111ca565b61036b611310565b6040516101dc9190611f04565b6102027f000000000000000000000000000000000000000000000000000000000000000081565b6102de6103ad366004611fd5565b611509565b6004546101d2565b61022d611603565b610202611655565b6003546040516370a0823160e01b81523060048201525f916001600160a01b0316906370a0823190602401602060405180830381865afa158015610410573d5f5f3e3d5ffd5b505050506040513d601f19601f820116820180604052508101906104349190612013565b905090565b60606001600601805461044b9061202a565b80601f01602080910402602001604051908101604052809291908181526020018280546104779061202a565b80156104c25780601f10610499576101008083540402835291602001916104c2565b820191905f5260205f20905b8154815290600101906020018083116104a557829003601f168201915b5050505050905090565b5f7f00000000000000000000000000000000000000000000000000000000000000006001600160a01b031663117d8ae06040518163ffffffff1660e01b8152600401602060405180830381865afa158015610529573d5f5f3e3d5ffd5b505050506040513d601f19601f820116820180604052508101906104349190612062565b6105556116b2565b61058557335b604051631564c0e160e11b81526001600160a01b0390911660048201526024015b60405180910390fd5b61058d61173b565b818161059982826117aa565b336003546105b1906001600160a01b0316828861180c565b600354604080516001600160a01b03928316815260208101899052918316917fd5e872c5ecfb1bb8820b2e6a20e31b883682282da886621541f71e31ec11947e910160405180910390a250505061060661186b565b505050565b61061361173b565b306001600160a01b031663372709366040518163ffffffff1660e01b8152600401602060405180830381865afa15801561064f573d5f5f3e3d5ffd5b505050506040513d601f19601f820116820180604052508101906106739190612062565b61067b6116b2565b61079a575f3390505f306001600160a01b031663117d8ae06040518163ffffffff1660e01b8152600401602060405180830381865afa1580156106c0573d5f5f3e3d5ffd5b505050506040513d601f19601f820116820180604052508101906106e49190612062565b6001600160a01b0316826001600160a01b0316149050806107975760405163d25dd10160e01b81526001600160a01b0383811660048301525f919085169063d25dd10190602401602060405180830381865afa158015610746573d5f5f3e3d5ffd5b505050506040513d601f19601f8201168201806040525081019061076a919061207d565b90508061079557604051638f7a567d60e01b81526001600160a01b038416600482015260240161057c565b505b50505b82826107a682826117aa565b60035433906107c0906001600160a01b031682308a611895565b600354604080516001600160a01b039283168152602081018a9052918316917fcbaa1442ac205415c9d69643e7b60ec73d1de35dbc807c21ec288c70ddc4207b910160405180910390a25050505061060661186b565b61081e6116b2565b610828573361055b565b600a8190556040518181527fd3c6d0ab315f2f1352f036cd9f401b49e38e1b90907e195225e8105f9a0b6f02906020015b60405180910390a150565b5f7f00000000000000000000000000000000000000000000000000000000000000006001600160a01b0316635b0f83f36040518163ffffffff1660e01b8152600401602060405180830381865afa158015610529573d5f5f3e3d5ffd5b5f7f00000000000000000000000000000000000000000000000000000000000000006001600160a01b03166361d027b36040518163ffffffff1660e01b8152600401602060405180830381865afa158015610529573d5f5f3e3d5ffd5b6109266116b2565b610930573361055b565b60058190556040518181527ffbe2d5c01ea8ba5596d6c4e6c82c6d4a0a0ee1128689993a4a5ba0169273d69f90602001610859565b5f828260405160200161097992919061209c565b60405160208183030381529060405280519060200120905092915050565b606080306001600160a01b031663117d8ae06040518163ffffffff1660e01b8152600401602060405180830381865afa1580156109d6573d5f5f3e3d5ffd5b505050506040513d601f19601f820116820180604052508101906109fa9190612062565b6001600160a01b0316336001600160a01b031614610a3957335b604051631184b31b60e21b81526001600160a01b03909116600482015260240161057c565b610a4161173b565b82516001600160401b03811115610a5a57610a5a611c41565b604051908082528060200260200182016040528015610a83578160200160208202803683370190505b50915082516001600160401b03811115610a9f57610a9f611c41565b604051908082528060200260200182016040528015610ac8578160200160208202803683370190505b506003546040516370a0823160e01b81523060048201529192505f916001600160a01b03909116906370a0823190602401602060405180830381865afa158015610b14573d5f5f3e3d5ffd5b505050506040513d601f19601f82011682018060405250810190610b389190612013565b1115610cfc57600154604080516330fe427560e21b815290515f926001600160a01b03169163c3f909d49160048083019260a09291908290030181865afa158015610b85573d5f5f3e3d5ffd5b505050506040513d601f19601f82011682018060405250810190610ba991906120df565b516003546040516370a0823160e01b8152306004820152919250610c2e9183916001600160a01b0316906370a0823190602401602060405180830381865afa158015610bf7573d5f5f3e3d5ffd5b505050506040513d601f19601f82011682018060405250810190610c1b9190612013565b6003546001600160a01b031691906118d4565b6003546040516370a0823160e01b81523060048201526001600160a01b0383811692632db6d399929116906370a0823190602401602060405180830381865afa158015610c7d573d5f5f3e3d5ffd5b505050506040513d601f19601f82011682018060405250810190610ca19190612013565b60405180602001604052805f8152506040518363ffffffff1660e01b8152600401610ccd92919061215b565b5f604051808303815f87803b158015610ce4575f5ffd5b505af1158015610cf6573d5f5f3e3d5ffd5b50505050505b5f5b8351811015610eca575f848281518110610d1a57610d1a612173565b60209081029190910101516040516370a0823160e01b81523060048201526001600160a01b03909116906370a0823190602401602060405180830381865afa158015610d68573d5f5f3e3d5ffd5b505050506040513d601f19601f82011682018060405250810190610d8c9190612013565b90508015610ec157610e55610d9f6104cc565b868481518110610db157610db1612173565b60209081029190910101516040516370a0823160e01b81523060048201526001600160a01b03909116906370a0823190602401602060405180830381865afa158015610dff573d5f5f3e3d5ffd5b505050506040513d601f19601f82011682018060405250810190610e239190612013565b878581518110610e3557610e35612173565b60200260200101516001600160a01b031661180c9092919063ffffffff16565b848281518110610e6757610e67612173565b6020026020010151848381518110610e8157610e81612173565b60200260200101906001600160a01b031690816001600160a01b03168152505080838381518110610eb457610eb4612173565b6020026020010181815250505b50600101610cfe565b5080604051610ed99190612187565b604051809103902082604051610eef91906121bc565b604051908190038120907f46b8771620f6acf56cb03d3e835ea8024c7dcbcf05fcc3f6ade9e19d1a3e212b905f90a3610f2661186b565b915091565b60018054600254600354600454600554600654600780546001600160a01b03978816989688169790951695939492939192610f659061202a565b80601f0160208091040260200160405190810160405280929190818152602001828054610f919061202a565b8015610fdc5780601f10610fb357610100808354040283529160200191610fdc565b820191905f5260205f20905b815481529060010190602001808311610fbf57829003601f168201915b505050505090806007018054610ff19061202a565b80601f016020809104026020016040519081016040528092919081815260200182805461101d9061202a565b80156110685780601f1061103f57610100808354040283529160200191611068565b820191905f5260205f20905b81548152906001019060200180831161104b57829003601f168201915b505050506008830154600990930154919260ff169190508a565b5f7f00000000000000000000000000000000000000000000000000000000000000006001600160a01b0316637aaceb956040518163ffffffff1660e01b8152600401602060405180830381865afa158015610529573d5f5f3e3d5ffd5b6110e76116b2565b6110f1573361055b565b60048190556040518181527f333b26cca69716ad4680ddb07663f5bfb4f06045671f336af9a83690a3ae00f990602001610859565b61112e6116b2565b611138573361055b565b600180546001600160a01b031916339081179091556040519081527f55489ce0259bd691120d8860861be1c401c7c16a3cd268d21045756af4ecc5ca906020015b60405180910390a1565b61118b6116b2565b611195573361055b565b60068190556040518181527fb6ac66853c4e59c71e118d25ab494bb847c4e5eb0c8894898c5343e6f61afc1290602001610859565b6111d26116b2565b6111dc573361055b565b81816111e882826117aa565b60035460405163095ea7b360e01b81526001600160a01b038981166004830152602482018b90529091169063095ea7b3906044016020604051808303815f875af1158015611238573d5f5f3e3d5ffd5b505050506040513d601f19601f8201168201806040525081019061125c919061207d565b50604051632db6d39960e01b81526001600160a01b03881690632db6d3999061128d908b908a908a906004016121ef565b5f604051808303815f87803b1580156112a4575f5ffd5b505af11580156112b6573d5f5f3e3d5ffd5b5050600354604080516001600160a01b039283168152602081018d9052918b1693503092507f9f784fc02a186f1c98b2d9f15fda084da27cdd291a3785d978f91911d880516b910160405180910390a35050505050505050565b61137b6040518061014001604052805f6001600160a01b031681526020015f6001600160a01b031681526020015f6001600160a01b031681526020015f81526020015f81526020015f815260200160608152602001606081526020015f151581526020015f81525090565b6040805161014081018252600180546001600160a01b0390811683526002548116602084015260035416928201929092526004546060820152600554608082015260065460a08201526007805491929160c0840191906113da9061202a565b80601f01602080910402602001604051908101604052809291908181526020018280546114069061202a565b80156114515780601f1061142857610100808354040283529160200191611451565b820191905f5260205f20905b81548152906001019060200180831161143457829003601f168201915b5050505050815260200160078201805461146a9061202a565b80601f01602080910402602001604051908101604052809291908181526020018280546114969061202a565b80156114e15780601f106114b8576101008083540402835291602001916114e1565b820191905f5260205f20905b8154815290600101906020018083116114c457829003601f168201915b5050509183525050600882015460ff1615156020820152600990910154604090910152919050565b606080306001600160a01b031663117d8ae06040518163ffffffff1660e01b8152600401602060405180830381865afa158015611548573d5f5f3e3d5ffd5b505050506040513d601f19601f8201168201806040525081019061156c9190612062565b6001600160a01b0316336001600160a01b03161461158a5733610a14565b61159261173b565b61159c8484611963565b60405191935091506115af908290612187565b6040518091039020826040516115c591906121bc565b604051908190038120907f3e3e7958121b3e39c7a49392d1aa9cdce870c2a059744f9e15cf66fff7865455905f90a36115fc61186b565b9250929050565b61160b6116b2565b611615573361055b565b600180546001600160a01b03191690556040513381527f7cb941d7b1708e5b3bcd35ca960d6c6311188cec18886e5b67630552676b048790602001611179565b5f7f00000000000000000000000000000000000000000000000000000000000000006001600160a01b031663f7e533ec6040518163ffffffff1660e01b8152600401602060405180830381865afa158015610529573d5f5f3e3d5ffd5b5f80546001600160a01b03166391d148546116ce600230610965565b336040516001600160e01b031960e085901b16815260048101929092526001600160a01b03166024820152604401602060405180830381865afa158015611717573d5f5f3e3d5ffd5b505050506040513d601f19601f82011682018060405250810190610434919061207d565b7f9b779b17422d0df92223018b32b4d1fa46e071723d6817e2486d003becc55f005c1561177b57604051633ee5aeb560e01b815260040160405180910390fd5b6117a860017f9b779b17422d0df92223018b32b4d1fa46e071723d6817e2486d003becc55f005b90611a52565b565b80158015906117bc575060095460ff16155b156117da57604051630cd0fdf960e01b815260040160405180910390fd5b801580156117ea575060095460ff165b156118085760405163332863a960e11b815260040160405180910390fd5b5050565b6040516001600160a01b0383811660248301526044820183905261060691859182169063a9059cbb906064015b604051602081830303815290604052915060e01b6020820180516001600160e01b038381831617835250505050611a59565b6117a85f7f9b779b17422d0df92223018b32b4d1fa46e071723d6817e2486d003becc55f006117a2565b6040516001600160a01b0384811660248301528381166044830152606482018390526118ce9186918216906323b872dd90608401611839565b50505050565b604080516001600160a01b038416602482015260448082018490528251808303909101815260649091019091526020810180516001600160e01b031663095ea7b360e01b1790526119258482611ac5565b6118ce576040516001600160a01b0384811660248301525f604483015261195991869182169063095ea7b390606401611839565b6118ce8482611a59565b6060805f61197384860186612224565b80516020820151909450925090505f5b8351811015611a495783818151811061199e5761199e612173565b60200260200101516001600160a01b031663a9059cbb338584815181106119c7576119c7612173565b60200260200101516040518363ffffffff1660e01b8152600401611a009291906001600160a01b03929092168252602082015260400190565b6020604051808303815f875af1158015611a1c573d5f5f3e3d5ffd5b505050506040513d601f19601f82011682018060405250810190611a40919061207d565b50600101611983565b50509250929050565b80825d5050565b5f5f60205f8451602086015f885af180611a78576040513d5f823e3d81fd5b50505f513d91508115611a8f578060011415611a9c565b6001600160a01b0384163b155b156118ce57604051635274afe760e01b81526001600160a01b038516600482015260240161057c565b5f5f5f5f60205f8651602088015f8a5af192503d91505f519050828015611b0457508115611af65780600114611b04565b5f866001600160a01b03163b115b9695505050505050565b5f81518084528060208401602086015e5f602082860101526020601f19601f83011685010191505092915050565b602081525f611b4e6020830184611b0e565b9392505050565b5f5f83601f840112611b65575f5ffd5b5081356001600160401b03811115611b7b575f5ffd5b6020830191508360208285010111156115fc575f5ffd5b5f5f5f60408486031215611ba4575f5ffd5b8335925060208401356001600160401b03811115611bc0575f5ffd5b611bcc86828701611b55565b9497909650939450505050565b5f60208284031215611be9575f5ffd5b5035919050565b6001600160a01b0381168114611c04575f5ffd5b50565b5f5f60408385031215611c18575f5ffd5b823560038110611c26575f5ffd5b91506020830135611c3681611bf0565b809150509250929050565b634e487b7160e01b5f52604160045260245ffd5b604080519081016001600160401b0381118282101715611c7757611c77611c41565b60405290565b604051601f8201601f191681016001600160401b0381118282101715611ca557611ca5611c41565b604052919050565b5f6001600160401b03821115611cc557611cc5611c41565b5060051b60200190565b5f82601f830112611cde575f5ffd5b8135611cf1611cec82611cad565b611c7d565b8082825260208201915060208360051b860101925085831115611d12575f5ffd5b602085015b83811015611d38578035611d2a81611bf0565b835260209283019201611d17565b5095945050505050565b5f60208284031215611d52575f5ffd5b81356001600160401b03811115611d67575f5ffd5b611d7384828501611ccf565b949350505050565b604080825283519082018190525f9060208501906060840190835b81811015611dbd5783516001600160a01b0316835260209384019390920191600101611d96565b5050838103602080860191909152855180835291810192508501905f5b81811015611df8578251845260209384019390920191600101611dda565b50919695505050505050565b6001600160a01b038b811682528a8116602083015289166040820152606081018890526080810187905260a0810186905261014060c082018190525f90611e4d90830187611b0e565b82810360e0840152611e5f8187611b0e565b9415156101008401525050610120015298975050505050505050565b5f5f5f5f5f5f60808789031215611e90575f5ffd5b863595506020870135611ea281611bf0565b945060408701356001600160401b03811115611ebc575f5ffd5b611ec889828a01611b55565b90955093505060608701356001600160401b03811115611ee6575f5ffd5b611ef289828a01611b55565b979a9699509497509295939492505050565b60208152611f1e6020820183516001600160a01b03169052565b5f6020830151611f3960408401826001600160a01b03169052565b5060408301516001600160a01b03811660608401525060608301516080830152608083015160a083015260a083015160c083015260c083015161014060e0840152611f88610160840182611b0e565b905060e0840151601f1984830301610100850152611fa68282611b0e565b915050610100840151611fbe61012085018215159052565b506101208401516101408401528091505092915050565b5f5f60208385031215611fe6575f5ffd5b82356001600160401b03811115611ffb575f5ffd5b61200785828601611b55565b90969095509350505050565b5f60208284031215612023575f5ffd5b5051919050565b600181811c9082168061203e57607f821691505b60208210810361205c57634e487b7160e01b5f52602260045260245ffd5b50919050565b5f60208284031215612072575f5ffd5b8151611b4e81611bf0565b5f6020828403121561208d575f5ffd5b81518015158114611b4e575f5ffd5b5f600384106120b957634e487b7160e01b5f52602160045260245ffd5b5060f89290921b825260601b6bffffffffffffffffffffffff1916600182015260150190565b5f60a08284031280156120f0575f5ffd5b5060405160a081016001600160401b038111828210171561211357612113611c41565b604052825161212181611bf0565b8152602083810151908201526040808401519082015260608084015190820152608083015161214f81611bf0565b60808201529392505050565b828152604060208201525f611d736040830184611b0e565b634e487b7160e01b5f52603260045260245ffd5b81515f90829060208501835b828110156121b1578151845260209384019390910190600101612193565b509195945050505050565b81515f90829060208501835b828110156121b15781516001600160a01b03168452602093840193909101906001016121c8565b83815260406020820152816040820152818360608301375f818301606090810191909152601f909201601f1916010192915050565b5f60208284031215612234575f5ffd5b81356001600160401b03811115612249575f5ffd5b82016040818503121561225a575f5ffd5b612262611c55565b81356001600160401b03811115612277575f5ffd5b61228386828501611ccf565b82525060208201356001600160401b0381111561229e575f5ffd5b80830192505084601f8301126122b2575f5ffd5b81356122c0611cec82611cad565b8082825260208201915060208360051b8601019250878311156122e1575f5ffd5b6020850194505b828510156123035784358252602094850194909101906122e8565b602084015250909594505050505056fea264697066735822122004fa8212d91b9d842d149d75bd197a0f1480dcbc19d06cee50fce90e3437384e64736f6c634300081c0033","linkReferences":{}},"methodIdentifiers":{"asset()":"38d52e0f","board(uint256,bytes)":"2db6d399","commander()":"37270936","config()":"79502c55","configurationManager()":"c9c667e3","depositCap()":"dbd5edc7","disembark(uint256,bytes)":"13c408f8","fleetCommanderRewardsManagerFactory()":"f7e533ec","generateRole(uint8,address)":"69b3054b","getConfig()":"c3f909d4","harborCommand()":"5b0f83f3","harvest(bytes)":"ce5c7f61","maxDepositPercentageOfTVL()":"bdcdd882","maxRebalanceInflow()":"ad5a356f","maxRebalanceOutflow()":"3194549e","move(uint256,address,bytes,bytes)":"c38a6f0b","name()":"06fdde03","raft()":"117d8ae0","registerFleetCommander()":"8a8b9976","requiresKeeperData()":"303dbaf3","setDepositCap(uint256)":"86651203","setMaxDepositPercentageOfTVL(uint256)":"4fc7fac3","setMaxRebalanceInflow(uint256)":"92f5e832","setMaxRebalanceOutflow(uint256)":"61f5cd8b","sweep(address[])":"780469bb","tipJar()":"7aaceb95","totalAssets()":"01e1d114","treasury()":"61d027b3","unregisterFleetCommander()":"ebf31131"},"id":320}