{"abi":[{"type":"constructor","inputs":[{"name":"_params","type":"tuple","internalType":"struct ArkParams","components":[{"name":"name","type":"string","internalType":"string"},{"name":"details","type":"string","internalType":"string"},{"name":"accessManager","type":"address","internalType":"address"},{"name":"configurationManager","type":"address","internalType":"address"},{"name":"asset","type":"address","internalType":"address"},{"name":"depositCap","type":"uint256","internalType":"uint256"},{"name":"maxRebalanceOutflow","type":"uint256","internalType":"uint256"},{"name":"maxRebalanceInflow","type":"uint256","internalType":"uint256"},{"name":"requiresKeeperData","type":"bool","internalType":"bool"},{"name":"maxDepositPercentageOfTVL","type":"uint256","internalType":"Percentage"}]}],"stateMutability":"nonpayable"},{"type":"function","name":"asset","inputs":[],"outputs":[{"name":"","type":"address","internalType":"contract IERC20"}],"stateMutability":"view"},{"type":"function","name":"board","inputs":[{"name":"amount","type":"uint256","internalType":"uint256"},{"name":"boardData","type":"bytes","internalType":"bytes"}],"outputs":[],"stateMutability":"nonpayable"},{"type":"function","name":"commander","inputs":[],"outputs":[{"name":"","type":"address","internalType":"address"}],"stateMutability":"view"},{"type":"function","name":"config","inputs":[],"outputs":[{"name":"commander","type":"address","internalType":"address"},{"name":"raft","type":"address","internalType":"address"},{"name":"asset","type":"address","internalType":"contract IERC20"},{"name":"depositCap","type":"uint256","internalType":"uint256"},{"name":"maxRebalanceOutflow","type":"uint256","internalType":"uint256"},{"name":"maxRebalanceInflow","type":"uint256","internalType":"uint256"},{"name":"name","type":"string","internalType":"string"},{"name":"details","type":"string","internalType":"string"},{"name":"requiresKeeperData","type":"bool","internalType":"bool"},{"name":"maxDepositPercentageOfTVL","type":"uint256","internalType":"Percentage"}],"stateMutability":"view"},{"type":"function","name":"configurationManager","inputs":[],"outputs":[{"name":"","type":"address","internalType":"contract IConfigurationManager"}],"stateMutability":"view"},{"type":"function","name":"depositCap","inputs":[],"outputs":[{"name":"","type":"uint256","internalType":"uint256"}],"stateMutability":"view"},{"type":"function","name":"disembark","inputs":[{"name":"amount","type":"uint256","internalType":"uint256"},{"name":"disembarkData","type":"bytes","internalType":"bytes"}],"outputs":[],"stateMutability":"nonpayable"},{"type":"function","name":"fleetCommanderRewardsManagerFactory","inputs":[],"outputs":[{"name":"","type":"address","internalType":"address"}],"stateMutability":"view"},{"type":"function","name":"generateRole","inputs":[{"name":"roleName","type":"uint8","internalType":"enum ContractSpecificRoles"},{"name":"roleTargetContract","type":"address","internalType":"address"}],"outputs":[{"name":"","type":"bytes32","internalType":"bytes32"}],"stateMutability":"pure"},{"type":"function","name":"getConfig","inputs":[],"outputs":[{"name":"","type":"tuple","internalType":"struct ArkConfig","components":[{"name":"commander","type":"address","internalType":"address"},{"name":"raft","type":"address","internalType":"address"},{"name":"asset","type":"address","internalType":"contract IERC20"},{"name":"depositCap","type":"uint256","internalType":"uint256"},{"name":"maxRebalanceOutflow","type":"uint256","internalType":"uint256"},{"name":"maxRebalanceInflow","type":"uint256","internalType":"uint256"},{"name":"name","type":"string","internalType":"string"},{"name":"details","type":"string","internalType":"string"},{"name":"requiresKeeperData","type":"bool","internalType":"bool"},{"name":"maxDepositPercentageOfTVL","type":"uint256","internalType":"Percentage"}]}],"stateMutability":"view"},{"type":"function","name":"harborCommand","inputs":[],"outputs":[{"name":"","type":"address","internalType":"address"}],"stateMutability":"view"},{"type":"function","name":"harvest","inputs":[{"name":"additionalData","type":"bytes","internalType":"bytes"}],"outputs":[{"name":"rewardTokens","type":"address[]","internalType":"address[]"},{"name":"rewardAmounts","type":"uint256[]","internalType":"uint256[]"}],"stateMutability":"nonpayable"},{"type":"function","name":"hasAdmiralsQuartersRole","inputs":[{"name":"account","type":"address","internalType":"address"}],"outputs":[{"name":"","type":"bool","internalType":"bool"}],"stateMutability":"view"},{"type":"function","name":"maxDepositPercentageOfTVL","inputs":[],"outputs":[{"name":"","type":"uint256","internalType":"Percentage"}],"stateMutability":"view"},{"type":"function","name":"maxRebalanceInflow","inputs":[],"outputs":[{"name":"","type":"uint256","internalType":"uint256"}],"stateMutability":"view"},{"type":"function","name":"maxRebalanceOutflow","inputs":[],"outputs":[{"name":"","type":"uint256","internalType":"uint256"}],"stateMutability":"view"},{"type":"function","name":"move","inputs":[{"name":"amount","type":"uint256","internalType":"uint256"},{"name":"receiverArk","type":"address","internalType":"address"},{"name":"boardData","type":"bytes","internalType":"bytes"},{"name":"disembarkData","type":"bytes","internalType":"bytes"}],"outputs":[],"stateMutability":"nonpayable"},{"type":"function","name":"name","inputs":[],"outputs":[{"name":"","type":"string","internalType":"string"}],"stateMutability":"view"},{"type":"function","name":"raft","inputs":[],"outputs":[{"name":"","type":"address","internalType":"address"}],"stateMutability":"view"},{"type":"function","name":"registerFleetCommander","inputs":[],"outputs":[],"stateMutability":"nonpayable"},{"type":"function","name":"requiresKeeperData","inputs":[],"outputs":[{"name":"","type":"bool","internalType":"bool"}],"stateMutability":"view"},{"type":"function","name":"setDepositCap","inputs":[{"name":"newDepositCap","type":"uint256","internalType":"uint256"}],"outputs":[],"stateMutability":"nonpayable"},{"type":"function","name":"setMaxDepositPercentageOfTVL","inputs":[{"name":"newMaxDepositPercentageOfTVL","type":"uint256","internalType":"Percentage"}],"outputs":[],"stateMutability":"nonpayable"},{"type":"function","name":"setMaxRebalanceInflow","inputs":[{"name":"newMaxRebalanceInflow","type":"uint256","internalType":"uint256"}],"outputs":[],"stateMutability":"nonpayable"},{"type":"function","name":"setMaxRebalanceOutflow","inputs":[{"name":"newMaxRebalanceOutflow","type":"uint256","internalType":"uint256"}],"outputs":[],"stateMutability":"nonpayable"},{"type":"function","name":"sweep","inputs":[{"name":"tokens","type":"address[]","internalType":"address[]"}],"outputs":[{"name":"sweptTokens","type":"address[]","internalType":"address[]"},{"name":"sweptAmounts","type":"uint256[]","internalType":"uint256[]"}],"stateMutability":"nonpayable"},{"type":"function","name":"tipJar","inputs":[],"outputs":[{"name":"","type":"address","internalType":"address"}],"stateMutability":"view"},{"type":"function","name":"totalAssets","inputs":[],"outputs":[{"name":"","type":"uint256","internalType":"uint256"}],"stateMutability":"view"},{"type":"function","name":"treasury","inputs":[],"outputs":[{"name":"","type":"address","internalType":"address"}],"stateMutability":"view"},{"type":"function","name":"unregisterFleetCommander","inputs":[],"outputs":[],"stateMutability":"nonpayable"},{"type":"event","name":"ArkHarvested","inputs":[{"name":"rewardTokens","type":"address[]","indexed":true,"internalType":"address[]"},{"name":"rewardAmounts","type":"uint256[]","indexed":true,"internalType":"uint256[]"}],"anonymous":false},{"type":"event","name":"ArkPoked","inputs":[{"name":"currentPrice","type":"uint256","indexed":false,"internalType":"uint256"},{"name":"timestamp","type":"uint256","indexed":false,"internalType":"uint256"}],"anonymous":false},{"type":"event","name":"ArkSwept","inputs":[{"name":"sweptTokens","type":"address[]","indexed":true,"internalType":"address[]"},{"name":"sweptAmounts","type":"uint256[]","indexed":true,"internalType":"uint256[]"}],"anonymous":false},{"type":"event","name":"Boarded","inputs":[{"name":"commander","type":"address","indexed":true,"internalType":"address"},{"name":"token","type":"address","indexed":false,"internalType":"address"},{"name":"amount","type":"uint256","indexed":false,"internalType":"uint256"}],"anonymous":false},{"type":"event","name":"DepositCapUpdated","inputs":[{"name":"newCap","type":"uint256","indexed":false,"internalType":"uint256"}],"anonymous":false},{"type":"event","name":"Disembarked","inputs":[{"name":"commander","type":"address","indexed":true,"internalType":"address"},{"name":"token","type":"address","indexed":false,"internalType":"address"},{"name":"amount","type":"uint256","indexed":false,"internalType":"uint256"}],"anonymous":false},{"type":"event","name":"FleetCommanderRegistered","inputs":[{"name":"commander","type":"address","indexed":false,"internalType":"address"}],"anonymous":false},{"type":"event","name":"FleetCommanderUnregistered","inputs":[{"name":"commander","type":"address","indexed":false,"internalType":"address"}],"anonymous":false},{"type":"event","name":"MaxDepositPercentageOfTVLUpdated","inputs":[{"name":"newMaxDepositPercentageOfTVL","type":"uint256","indexed":false,"internalType":"Percentage"}],"anonymous":false},{"type":"event","name":"MaxRebalanceInflowUpdated","inputs":[{"name":"newMaxInflow","type":"uint256","indexed":false,"internalType":"uint256"}],"anonymous":false},{"type":"event","name":"MaxRebalanceOutflowUpdated","inputs":[{"name":"newMaxOutflow","type":"uint256","indexed":false,"internalType":"uint256"}],"anonymous":false},{"type":"event","name":"Moved","inputs":[{"name":"from","type":"address","indexed":true,"internalType":"address"},{"name":"to","type":"address","indexed":true,"internalType":"address"},{"name":"token","type":"address","indexed":false,"internalType":"address"},{"name":"amount","type":"uint256","indexed":false,"internalType":"uint256"}],"anonymous":false},{"type":"event","name":"RaftUpdated","inputs":[{"name":"newRaft","type":"address","indexed":false,"internalType":"address"}],"anonymous":false},{"type":"error","name":"CallerIsNotAdmin","inputs":[{"name":"caller","type":"address","internalType":"address"}]},{"type":"error","name":"CallerIsNotAuthorizedToBoard","inputs":[{"name":"caller","type":"address","internalType":"address"}]},{"type":"error","name":"CallerIsNotCommander","inputs":[{"name":"caller","type":"address","internalType":"address"}]},{"type":"error","name":"CallerIsNotContractSpecificRole","inputs":[{"name":"caller","type":"address","internalType":"address"},{"name":"role","type":"bytes32","internalType":"bytes32"}]},{"type":"error","name":"CallerIsNotCurator","inputs":[{"name":"caller","type":"address","internalType":"address"}]},{"type":"error","name":"CallerIsNotDecayController","inputs":[{"name":"caller","type":"address","internalType":"address"}]},{"type":"error","name":"CallerIsNotGovernor","inputs":[{"name":"caller","type":"address","internalType":"address"}]},{"type":"error","name":"CallerIsNotGuardian","inputs":[{"name":"caller","type":"address","internalType":"address"}]},{"type":"error","name":"CallerIsNotGuardianOrGovernor","inputs":[{"name":"caller","type":"address","internalType":"address"}]},{"type":"error","name":"CallerIsNotKeeper","inputs":[{"name":"caller","type":"address","internalType":"address"}]},{"type":"error","name":"CallerIsNotRaft","inputs":[{"name":"caller","type":"address","internalType":"address"}]},{"type":"error","name":"CallerIsNotRaftOrCommander","inputs":[{"name":"caller","type":"address","internalType":"address"}]},{"type":"error","name":"CallerIsNotSuperKeeper","inputs":[{"name":"caller","type":"address","internalType":"address"}]},{"type":"error","name":"CannotAddCommanderToArkWithCommander","inputs":[]},{"type":"error","name":"CannotDeployArkWithEmptyName","inputs":[]},{"type":"error","name":"CannotDeployArkWithoutConfigurationManager","inputs":[]},{"type":"error","name":"CannotDeployArkWithoutRaft","inputs":[]},{"type":"error","name":"CannotDeployArkWithoutToken","inputs":[]},{"type":"error","name":"CannotRemoveCommanderFromArkWithAssets","inputs":[]},{"type":"error","name":"CannotUseKeeperDataWhenNotRequired","inputs":[]},{"type":"error","name":"ConfigurationManagerZeroAddress","inputs":[]},{"type":"error","name":"DirectGrantIsDisabled","inputs":[{"name":"caller","type":"address","internalType":"address"}]},{"type":"error","name":"DirectRevokeIsDisabled","inputs":[{"name":"caller","type":"address","internalType":"address"}]},{"type":"error","name":"ERC4626AssetMismatch","inputs":[]},{"type":"error","name":"InvalidAccessManagerAddress","inputs":[{"name":"invalidAddress","type":"address","internalType":"address"}]},{"type":"error","name":"InvalidBoardData","inputs":[]},{"type":"error","name":"InvalidDisembarkData","inputs":[]},{"type":"error","name":"InvalidVaultAddress","inputs":[]},{"type":"error","name":"KeeperDataRequired","inputs":[]},{"type":"error","name":"ReentrancyGuardReentrantCall","inputs":[]},{"type":"error","name":"SafeERC20FailedOperation","inputs":[{"name":"token","type":"address","internalType":"address"}]}],"bytecode":{"object":"0x60a060405234801561000f575f5ffd5b50604051612b9d380380612b9d83398101604081905261002e9161047b565b6060810151604082015182918291806001600160a01b03811661006b576040516347bd7c1d60e01b81525f60048201526024015b60405180910390fd5b6040516301ffc9a760e01b81526338c7ccdb60e01b60048201526001600160a01b038216906301ffc9a790602401602060405180830381865afa1580156100b4573d5f5f3e3d5ffd5b505050506040513d601f19601f820116820180604052508101906100d89190610581565b610100576040516347bd7c1d60e01b81526001600160a01b0382166004820152602401610062565b5f80546001600160a01b0319166001600160a01b039283161790558216905061013c5760405163f1634df960e01b815260040160405180910390fd5b6001600160a01b0390811660805260608201511661016d5760405163b53c493160e01b815260040160405180910390fd5b60808101516001600160a01b031661019b576040516001620a810f60e11b0319815260040160405180910390fd5b8051515f036101bd5760405163268c072960e01b815260040160405180910390fd5b5f6101c6610323565b6001600160a01b0316036101ed57604051633a4f9cdb60e21b815260040160405180910390fd5b6040805161014081019091525f815260208101610208610323565b6001600160a01b039081168252608080850151821660208085019190915260a08087015160408087019190915260c08089015160608089019190915260e0808b0151878a01528a51858a01528a860151838a0152610100808c01511515918a01919091526101208b01519801979097528751600180549188166001600160a01b031992831617815594890151600280549189169183169190911790559188015160038054919097169216919091179094559385015160045590840151600555918301516006558201516007906102de9082610625565b5060e082015160078201906102f39082610625565b5061010082015160088201805460ff191691151591909117905561012090910151600990910155506106f8915050565b5f6080516001600160a01b031663117d8ae06040518163ffffffff1660e01b8152600401602060405180830381865afa158015610362573d5f5f3e3d5ffd5b505050506040513d601f19601f8201168201806040525081019061038691906106df565b905090565b634e487b7160e01b5f52604160045260245ffd5b60405161014081016001600160401b03811182821017156103c2576103c261038b565b60405290565b5f82601f8301126103d7575f5ffd5b81516001600160401b038111156103f0576103f061038b565b604051601f8201601f19908116603f011681016001600160401b038111828210171561041e5761041e61038b565b604052818152838201602001851015610435575f5ffd5b8160208501602083015e5f918101602001919091529392505050565b80516001600160a01b0381168114610467575f5ffd5b919050565b80518015158114610467575f5ffd5b5f6020828403121561048b575f5ffd5b81516001600160401b038111156104a0575f5ffd5b820161014081850312156104b2575f5ffd5b6104ba61039f565b81516001600160401b038111156104cf575f5ffd5b6104db868285016103c8565b82525060208201516001600160401b038111156104f6575f5ffd5b610502868285016103c8565b60208301525061051460408301610451565b604082015261052560608301610451565b606082015261053660808301610451565b608082015260a0828101519082015260c0808301519082015260e08083015190820152610566610100830161046c565b61010082015261012091820151918101919091529392505050565b5f60208284031215610591575f5ffd5b61059a8261046c565b9392505050565b600181811c908216806105b557607f821691505b6020821081036105d357634e487b7160e01b5f52602260045260245ffd5b50919050565b601f82111561062057805f5260205f20601f840160051c810160208510156105fe5750805b601f840160051c820191505b8181101561061d575f815560010161060a565b50505b505050565b81516001600160401b0381111561063e5761063e61038b565b6106528161064c84546105a1565b846105d9565b6020601f821160018114610684575f831561066d5750848201515b5f19600385901b1c1916600184901b17845561061d565b5f84815260208120601f198516915b828110156106b35787850151825560209485019460019092019101610693565b50848210156106d057868401515f19600387901b60f8161c191681555b50505050600190811b01905550565b5f602082840312156106ef575f5ffd5b61059a82610451565b60805161246a6107335f395f8181610389015281816104ee01528181610886015281816108e3015281816110a4015261175e015261246a5ff3fe608060405234801561000f575f5ffd5b50600436106101d1575f3560e01c806379502c55116100fe578063c38a6f0b1161009e578063dbd5edc71161006e578063dbd5edc7146103be578063ebc136d0146103c6578063ebf31131146103d9578063f7e533ec146103e1575f5ffd5b8063c38a6f0b1461035c578063c3f909d41461036f578063c9c667e314610384578063ce5c7f61146103ab575f5ffd5b80638a8b9976116100d95780638a8b99761461033157806392f5e83214610339578063ad5a356f1461034c578063bdcdd88214610354575f5ffd5b806379502c55146102f85780637aaceb9514610316578063866512031461031e575f5ffd5b8063372709361161017457806361d027b31161014457806361d027b3146102a957806361f5cd8b146102b157806369b3054b146102c4578063780469bb146102d7575f5ffd5b8063372709361461026c57806338d52e0f1461027d5780634fc7fac31461028e5780635b0f83f3146102a1575f5ffd5b806313c408f8116101af57806313c408f8146102255780632db6d3991461023a578063303dbaf31461024d5780633194549e14610264575f5ffd5b806301e1d114146101d557806306fdde03146101f0578063117d8ae014610205575b5f5ffd5b6101dd6103e9565b6040519081526020015b60405180910390f35b6101f8610458565b6040516101e79190611c42565b61020d6104eb565b6040516001600160a01b0390911681526020016101e7565b610238610233366004611c98565b61056c565b005b610238610248366004611c98565b61062a565b60095460ff165b60405190151581526020016101e7565b6005546101dd565b6001546001600160a01b031661020d565b6003546001600160a01b031661020d565b61023861029c366004611cdf565b610835565b61020d610883565b61020d6108e0565b6102386102bf366004611cdf565b61093d565b6101dd6102d2366004611d0d565b610984565b6102ea6102e5366004611e48565b6109b6565b6040516101e7929190611e81565b610300610f4a565b6040516101e79a99989796959493929190611f0a565b61020d6110a1565b61023861032c366004611cdf565b6110fe565b610238611145565b610238610347366004611cdf565b6111a2565b6006546101dd565b600a546101dd565b61023861036a366004611f81565b6111e9565b61037761132f565b6040516101e7919061200a565b61020d7f000000000000000000000000000000000000000000000000000000000000000081565b6102ea6103b93660046120db565b611528565b6004546101dd565b6102546103d4366004612119565b611622565b610238611709565b61020d61175b565b6003546040516370a0823160e01b81523060048201525f916001600160a01b0316906370a0823190602401602060405180830381865afa15801561042f573d5f5f3e3d5ffd5b505050506040513d601f19601f820116820180604052508101906104539190612134565b905090565b60606001600601805461046a9061214b565b80601f01602080910402602001604051908101604052809291908181526020018280546104969061214b565b80156104e15780601f106104b8576101008083540402835291602001916104e1565b820191905f5260205f20905b8154815290600101906020018083116104c457829003601f168201915b5050505050905090565b5f7f00000000000000000000000000000000000000000000000000000000000000006001600160a01b031663117d8ae06040518163ffffffff1660e01b8152600401602060405180830381865afa158015610548573d5f5f3e3d5ffd5b505050506040513d601f19601f820116820180604052508101906104539190612183565b6105746117b8565b6105a457335b604051631564c0e160e11b81526001600160a01b0390911660048201526024015b60405180910390fd5b6105ac611841565b81816105b882826118b0565b336003546105d0906001600160a01b03168288611912565b600354604080516001600160a01b03928316815260208101899052918316917fd5e872c5ecfb1bb8820b2e6a20e31b883682282da886621541f71e31ec11947e910160405180910390a2505050610625611971565b505050565b610632611841565b306001600160a01b031663372709366040518163ffffffff1660e01b8152600401602060405180830381865afa15801561066e573d5f5f3e3d5ffd5b505050506040513d601f19601f820116820180604052508101906106929190612183565b61069a6117b8565b6107b9575f3390505f306001600160a01b031663117d8ae06040518163ffffffff1660e01b8152600401602060405180830381865afa1580156106df573d5f5f3e3d5ffd5b505050506040513d601f19601f820116820180604052508101906107039190612183565b6001600160a01b0316826001600160a01b0316149050806107b65760405163d25dd10160e01b81526001600160a01b0383811660048301525f919085169063d25dd10190602401602060405180830381865afa158015610765573d5f5f3e3d5ffd5b505050506040513d601f19601f82011682018060405250810190610789919061219e565b9050806107b457604051638f7a567d60e01b81526001600160a01b038416600482015260240161059b565b505b50505b82826107c582826118b0565b60035433906107df906001600160a01b031682308a61199b565b600354604080516001600160a01b039283168152602081018a9052918316917fcbaa1442ac205415c9d69643e7b60ec73d1de35dbc807c21ec288c70ddc4207b910160405180910390a250505050610625611971565b61083d6117b8565b610847573361057a565b600a8190556040518181527fd3c6d0ab315f2f1352f036cd9f401b49e38e1b90907e195225e8105f9a0b6f02906020015b60405180910390a150565b5f7f00000000000000000000000000000000000000000000000000000000000000006001600160a01b0316635b0f83f36040518163ffffffff1660e01b8152600401602060405180830381865afa158015610548573d5f5f3e3d5ffd5b5f7f00000000000000000000000000000000000000000000000000000000000000006001600160a01b03166361d027b36040518163ffffffff1660e01b8152600401602060405180830381865afa158015610548573d5f5f3e3d5ffd5b6109456117b8565b61094f573361057a565b60058190556040518181527ffbe2d5c01ea8ba5596d6c4e6c82c6d4a0a0ee1128689993a4a5ba0169273d69f90602001610878565b5f82826040516020016109989291906121bd565b60405160208183030381529060405280519060200120905092915050565b606080306001600160a01b031663117d8ae06040518163ffffffff1660e01b8152600401602060405180830381865afa1580156109f5573d5f5f3e3d5ffd5b505050506040513d601f19601f82011682018060405250810190610a199190612183565b6001600160a01b0316336001600160a01b031614610a5857335b604051631184b31b60e21b81526001600160a01b03909116600482015260240161059b565b610a60611841565b82516001600160401b03811115610a7957610a79611d47565b604051908082528060200260200182016040528015610aa2578160200160208202803683370190505b50915082516001600160401b03811115610abe57610abe611d47565b604051908082528060200260200182016040528015610ae7578160200160208202803683370190505b506003546040516370a0823160e01b81523060048201529192505f916001600160a01b03909116906370a0823190602401602060405180830381865afa158015610b33573d5f5f3e3d5ffd5b505050506040513d601f19601f82011682018060405250810190610b579190612134565b1115610d1b57600154604080516330fe427560e21b815290515f926001600160a01b03169163c3f909d49160048083019260a09291908290030181865afa158015610ba4573d5f5f3e3d5ffd5b505050506040513d601f19601f82011682018060405250810190610bc89190612200565b516003546040516370a0823160e01b8152306004820152919250610c4d9183916001600160a01b0316906370a0823190602401602060405180830381865afa158015610c16573d5f5f3e3d5ffd5b505050506040513d601f19601f82011682018060405250810190610c3a9190612134565b6003546001600160a01b031691906119da565b6003546040516370a0823160e01b81523060048201526001600160a01b0383811692632db6d399929116906370a0823190602401602060405180830381865afa158015610c9c573d5f5f3e3d5ffd5b505050506040513d601f19601f82011682018060405250810190610cc09190612134565b60405180602001604052805f8152506040518363ffffffff1660e01b8152600401610cec92919061227c565b5f604051808303815f87803b158015610d03575f5ffd5b505af1158015610d15573d5f5f3e3d5ffd5b50505050505b5f5b8351811015610ee9575f848281518110610d3957610d39612294565b60209081029190910101516040516370a0823160e01b81523060048201526001600160a01b03909116906370a0823190602401602060405180830381865afa158015610d87573d5f5f3e3d5ffd5b505050506040513d601f19601f82011682018060405250810190610dab9190612134565b90508015610ee057610e74610dbe6104eb565b868481518110610dd057610dd0612294565b60209081029190910101516040516370a0823160e01b81523060048201526001600160a01b03909116906370a0823190602401602060405180830381865afa158015610e1e573d5f5f3e3d5ffd5b505050506040513d601f19601f82011682018060405250810190610e429190612134565b878581518110610e5457610e54612294565b60200260200101516001600160a01b03166119129092919063ffffffff16565b848281518110610e8657610e86612294565b6020026020010151848381518110610ea057610ea0612294565b60200260200101906001600160a01b031690816001600160a01b03168152505080838381518110610ed357610ed3612294565b6020026020010181815250505b50600101610d1d565b5080604051610ef891906122a8565b604051809103902082604051610f0e91906122dd565b604051908190038120907f46b8771620f6acf56cb03d3e835ea8024c7dcbcf05fcc3f6ade9e19d1a3e212b905f90a3610f45611971565b915091565b60018054600254600354600454600554600654600780546001600160a01b03978816989688169790951695939492939192610f849061214b565b80601f0160208091040260200160405190810160405280929190818152602001828054610fb09061214b565b8015610ffb5780601f10610fd257610100808354040283529160200191610ffb565b820191905f5260205f20905b815481529060010190602001808311610fde57829003601f168201915b5050505050908060070180546110109061214b565b80601f016020809104026020016040519081016040528092919081815260200182805461103c9061214b565b80156110875780601f1061105e57610100808354040283529160200191611087565b820191905f5260205f20905b81548152906001019060200180831161106a57829003601f168201915b505050506008830154600990930154919260ff169190508a565b5f7f00000000000000000000000000000000000000000000000000000000000000006001600160a01b0316637aaceb956040518163ffffffff1660e01b8152600401602060405180830381865afa158015610548573d5f5f3e3d5ffd5b6111066117b8565b611110573361057a565b60048190556040518181527f333b26cca69716ad4680ddb07663f5bfb4f06045671f336af9a83690a3ae00f990602001610878565b61114d6117b8565b611157573361057a565b600180546001600160a01b031916339081179091556040519081527f55489ce0259bd691120d8860861be1c401c7c16a3cd268d21045756af4ecc5ca906020015b60405180910390a1565b6111aa6117b8565b6111b4573361057a565b60068190556040518181527fb6ac66853c4e59c71e118d25ab494bb847c4e5eb0c8894898c5343e6f61afc1290602001610878565b6111f16117b8565b6111fb573361057a565b818161120782826118b0565b60035460405163095ea7b360e01b81526001600160a01b038981166004830152602482018b90529091169063095ea7b3906044016020604051808303815f875af1158015611257573d5f5f3e3d5ffd5b505050506040513d601f19601f8201168201806040525081019061127b919061219e565b50604051632db6d39960e01b81526001600160a01b03881690632db6d399906112ac908b908a908a90600401612310565b5f604051808303815f87803b1580156112c3575f5ffd5b505af11580156112d5573d5f5f3e3d5ffd5b5050600354604080516001600160a01b039283168152602081018d9052918b1693503092507f9f784fc02a186f1c98b2d9f15fda084da27cdd291a3785d978f91911d880516b910160405180910390a35050505050505050565b61139a6040518061014001604052805f6001600160a01b031681526020015f6001600160a01b031681526020015f6001600160a01b031681526020015f81526020015f81526020015f815260200160608152602001606081526020015f151581526020015f81525090565b6040805161014081018252600180546001600160a01b0390811683526002548116602084015260035416928201929092526004546060820152600554608082015260065460a08201526007805491929160c0840191906113f99061214b565b80601f01602080910402602001604051908101604052809291908181526020018280546114259061214b565b80156114705780601f1061144757610100808354040283529160200191611470565b820191905f5260205f20905b81548152906001019060200180831161145357829003601f168201915b505050505081526020016007820180546114899061214b565b80601f01602080910402602001604051908101604052809291908181526020018280546114b59061214b565b80156115005780601f106114d757610100808354040283529160200191611500565b820191905f5260205f20905b8154815290600101906020018083116114e357829003601f168201915b5050509183525050600882015460ff1615156020820152600990910154604090910152919050565b606080306001600160a01b031663117d8ae06040518163ffffffff1660e01b8152600401602060405180830381865afa158015611567573d5f5f3e3d5ffd5b505050506040513d601f19601f8201168201806040525081019061158b9190612183565b6001600160a01b0316336001600160a01b0316146115a95733610a33565b6115b1611841565b6115bb8484611a69565b60405191935091506115ce9082906122a8565b6040518091039020826040516115e491906122dd565b604051908190038120907f3e3e7958121b3e39c7a49392d1aa9cdce870c2a059744f9e15cf66fff7865455905f90a361161b611971565b9250929050565b5f80546040805163a89f38a360e01b815290516001600160a01b03909216916391d1485491839163a89f38a3916004808201926020929091908290030181865afa158015611672573d5f5f3e3d5ffd5b505050506040513d601f19601f820116820180604052508101906116969190612134565b6040516001600160e01b031960e084901b16815260048101919091526001600160a01b0385166024820152604401602060405180830381865afa1580156116df573d5f5f3e3d5ffd5b505050506040513d601f19601f82011682018060405250810190611703919061219e565b92915050565b6117116117b8565b61171b573361057a565b600180546001600160a01b03191690556040513381527f7cb941d7b1708e5b3bcd35ca960d6c6311188cec18886e5b67630552676b048790602001611198565b5f7f00000000000000000000000000000000000000000000000000000000000000006001600160a01b031663f7e533ec6040518163ffffffff1660e01b8152600401602060405180830381865afa158015610548573d5f5f3e3d5ffd5b5f80546001600160a01b03166391d148546117d4600230610984565b336040516001600160e01b031960e085901b16815260048101929092526001600160a01b03166024820152604401602060405180830381865afa15801561181d573d5f5f3e3d5ffd5b505050506040513d601f19601f82011682018060405250810190610453919061219e565b7f9b779b17422d0df92223018b32b4d1fa46e071723d6817e2486d003becc55f005c1561188157604051633ee5aeb560e01b815260040160405180910390fd5b6118ae60017f9b779b17422d0df92223018b32b4d1fa46e071723d6817e2486d003becc55f005b90611b58565b565b80158015906118c2575060095460ff16155b156118e057604051630cd0fdf960e01b815260040160405180910390fd5b801580156118f0575060095460ff165b1561190e5760405163332863a960e11b815260040160405180910390fd5b5050565b6040516001600160a01b0383811660248301526044820183905261062591859182169063a9059cbb906064015b604051602081830303815290604052915060e01b6020820180516001600160e01b038381831617835250505050611b5f565b6118ae5f7f9b779b17422d0df92223018b32b4d1fa46e071723d6817e2486d003becc55f006118a8565b6040516001600160a01b0384811660248301528381166044830152606482018390526119d49186918216906323b872dd9060840161193f565b50505050565b604080516001600160a01b038416602482015260448082018490528251808303909101815260649091019091526020810180516001600160e01b031663095ea7b360e01b179052611a2b8482611bcb565b6119d4576040516001600160a01b0384811660248301525f6044830152611a5f91869182169063095ea7b39060640161193f565b6119d48482611b5f565b6060805f611a7984860186612345565b80516020820151909450925090505f5b8351811015611b4f57838181518110611aa457611aa4612294565b60200260200101516001600160a01b031663a9059cbb33858481518110611acd57611acd612294565b60200260200101516040518363ffffffff1660e01b8152600401611b069291906001600160a01b03929092168252602082015260400190565b6020604051808303815f875af1158015611b22573d5f5f3e3d5ffd5b505050506040513d601f19601f82011682018060405250810190611b46919061219e565b50600101611a89565b50509250929050565b80825d5050565b5f5f60205f8451602086015f885af180611b7e576040513d5f823e3d81fd5b50505f513d91508115611b95578060011415611ba2565b6001600160a01b0384163b155b156119d457604051635274afe760e01b81526001600160a01b038516600482015260240161059b565b5f5f5f5f60205f8651602088015f8a5af192503d91505f519050828015611c0a57508115611bfc5780600114611c0a565b5f866001600160a01b03163b115b9695505050505050565b5f81518084528060208401602086015e5f602082860101526020601f19601f83011685010191505092915050565b602081525f611c546020830184611c14565b9392505050565b5f5f83601f840112611c6b575f5ffd5b5081356001600160401b03811115611c81575f5ffd5b60208301915083602082850101111561161b575f5ffd5b5f5f5f60408486031215611caa575f5ffd5b8335925060208401356001600160401b03811115611cc6575f5ffd5b611cd286828701611c5b565b9497909650939450505050565b5f60208284031215611cef575f5ffd5b5035919050565b6001600160a01b0381168114611d0a575f5ffd5b50565b5f5f60408385031215611d1e575f5ffd5b823560038110611d2c575f5ffd5b91506020830135611d3c81611cf6565b809150509250929050565b634e487b7160e01b5f52604160045260245ffd5b604080519081016001600160401b0381118282101715611d7d57611d7d611d47565b60405290565b604051601f8201601f191681016001600160401b0381118282101715611dab57611dab611d47565b604052919050565b5f6001600160401b03821115611dcb57611dcb611d47565b5060051b60200190565b5f82601f830112611de4575f5ffd5b8135611df7611df282611db3565b611d83565b8082825260208201915060208360051b860101925085831115611e18575f5ffd5b602085015b83811015611e3e578035611e3081611cf6565b835260209283019201611e1d565b5095945050505050565b5f60208284031215611e58575f5ffd5b81356001600160401b03811115611e6d575f5ffd5b611e7984828501611dd5565b949350505050565b604080825283519082018190525f9060208501906060840190835b81811015611ec35783516001600160a01b0316835260209384019390920191600101611e9c565b5050838103602080860191909152855180835291810192508501905f5b81811015611efe578251845260209384019390920191600101611ee0565b50919695505050505050565b6001600160a01b038b811682528a8116602083015289166040820152606081018890526080810187905260a0810186905261014060c082018190525f90611f5390830187611c14565b82810360e0840152611f658187611c14565b9415156101008401525050610120015298975050505050505050565b5f5f5f5f5f5f60808789031215611f96575f5ffd5b863595506020870135611fa881611cf6565b945060408701356001600160401b03811115611fc2575f5ffd5b611fce89828a01611c5b565b90955093505060608701356001600160401b03811115611fec575f5ffd5b611ff889828a01611c5b565b979a9699509497509295939492505050565b602081526120246020820183516001600160a01b03169052565b5f602083015161203f60408401826001600160a01b03169052565b5060408301516001600160a01b03811660608401525060608301516080830152608083015160a083015260a083015160c083015260c083015161014060e084015261208e610160840182611c14565b905060e0840151601f19848303016101008501526120ac8282611c14565b9150506101008401516120c461012085018215159052565b506101208401516101408401528091505092915050565b5f5f602083850312156120ec575f5ffd5b82356001600160401b03811115612101575f5ffd5b61210d85828601611c5b565b90969095509350505050565b5f60208284031215612129575f5ffd5b8135611c5481611cf6565b5f60208284031215612144575f5ffd5b5051919050565b600181811c9082168061215f57607f821691505b60208210810361217d57634e487b7160e01b5f52602260045260245ffd5b50919050565b5f60208284031215612193575f5ffd5b8151611c5481611cf6565b5f602082840312156121ae575f5ffd5b81518015158114611c54575f5ffd5b5f600384106121da57634e487b7160e01b5f52602160045260245ffd5b5060f89290921b825260601b6bffffffffffffffffffffffff1916600182015260150190565b5f60a0828403128015612211575f5ffd5b5060405160a081016001600160401b038111828210171561223457612234611d47565b604052825161224281611cf6565b8152602083810151908201526040808401519082015260608084015190820152608083015161227081611cf6565b60808201529392505050565b828152604060208201525f611e796040830184611c14565b634e487b7160e01b5f52603260045260245ffd5b81515f90829060208501835b828110156122d25781518452602093840193909101906001016122b4565b509195945050505050565b81515f90829060208501835b828110156122d25781516001600160a01b03168452602093840193909101906001016122e9565b83815260406020820152816040820152818360608301375f818301606090810191909152601f909201601f1916010192915050565b5f60208284031215612355575f5ffd5b81356001600160401b0381111561236a575f5ffd5b82016040818503121561237b575f5ffd5b612383611d5b565b81356001600160401b03811115612398575f5ffd5b6123a486828501611dd5565b82525060208201356001600160401b038111156123bf575f5ffd5b80830192505084601f8301126123d3575f5ffd5b81356123e1611df282611db3565b8082825260208201915060208360051b860101925087831115612402575f5ffd5b6020850194505b82851015612424578435825260209485019490910190612409565b602084015250909594505050505056fea2646970667358221220dd474a023f0f184737647d122a2879be427b36829ebd715627bdfba495f442b964736f6c634300081c0033","linkReferences":{}},"methodIdentifiers":{"asset()":"38d52e0f","board(uint256,bytes)":"2db6d399","commander()":"37270936","config()":"79502c55","configurationManager()":"c9c667e3","depositCap()":"dbd5edc7","disembark(uint256,bytes)":"13c408f8","fleetCommanderRewardsManagerFactory()":"f7e533ec","generateRole(uint8,address)":"69b3054b","getConfig()":"c3f909d4","harborCommand()":"5b0f83f3","harvest(bytes)":"ce5c7f61","hasAdmiralsQuartersRole(address)":"ebc136d0","maxDepositPercentageOfTVL()":"bdcdd882","maxRebalanceInflow()":"ad5a356f","maxRebalanceOutflow()":"3194549e","move(uint256,address,bytes,bytes)":"c38a6f0b","name()":"06fdde03","raft()":"117d8ae0","registerFleetCommander()":"8a8b9976","requiresKeeperData()":"303dbaf3","setDepositCap(uint256)":"86651203","setMaxDepositPercentageOfTVL(uint256)":"4fc7fac3","setMaxRebalanceInflow(uint256)":"92f5e832","setMaxRebalanceOutflow(uint256)":"61f5cd8b","sweep(address[])":"780469bb","tipJar()":"7aaceb95","totalAssets()":"01e1d114","treasury()":"61d027b3","unregisterFleetCommander()":"ebf31131"},"id":322}