{"abi":[{"type":"constructor","inputs":[{"name":"_vault","type":"address","internalType":"address"},{"name":"_params","type":"tuple","internalType":"struct ArkParams","components":[{"name":"name","type":"string","internalType":"string"},{"name":"accessManager","type":"address","internalType":"address"},{"name":"configurationManager","type":"address","internalType":"address"},{"name":"token","type":"address","internalType":"address"},{"name":"depositCap","type":"uint256","internalType":"uint256"},{"name":"maxRebalanceOutflow","type":"uint256","internalType":"uint256"},{"name":"maxRebalanceInflow","type":"uint256","internalType":"uint256"},{"name":"requiresKeeperData","type":"bool","internalType":"bool"}]}],"stateMutability":"nonpayable"},{"type":"function","name":"board","inputs":[{"name":"amount","type":"uint256","internalType":"uint256"},{"name":"boardData","type":"bytes","internalType":"bytes"}],"outputs":[],"stateMutability":"nonpayable"},{"type":"function","name":"commander","inputs":[],"outputs":[{"name":"","type":"address","internalType":"address"}],"stateMutability":"view"},{"type":"function","name":"config","inputs":[],"outputs":[{"name":"commander","type":"address","internalType":"address"},{"name":"raft","type":"address","internalType":"address"},{"name":"token","type":"address","internalType":"contract IERC20"},{"name":"depositCap","type":"uint256","internalType":"uint256"},{"name":"maxRebalanceOutflow","type":"uint256","internalType":"uint256"},{"name":"maxRebalanceInflow","type":"uint256","internalType":"uint256"},{"name":"name","type":"string","internalType":"string"},{"name":"requiresKeeperData","type":"bool","internalType":"bool"}],"stateMutability":"view"},{"type":"function","name":"configurationManager","inputs":[],"outputs":[{"name":"","type":"address","internalType":"contract IConfigurationManager"}],"stateMutability":"view"},{"type":"function","name":"depositCap","inputs":[],"outputs":[{"name":"","type":"uint256","internalType":"uint256"}],"stateMutability":"view"},{"type":"function","name":"disembark","inputs":[{"name":"amount","type":"uint256","internalType":"uint256"},{"name":"disembarkData","type":"bytes","internalType":"bytes"}],"outputs":[],"stateMutability":"nonpayable"},{"type":"function","name":"generateRole","inputs":[{"name":"roleName","type":"uint8","internalType":"enum ContractSpecificRoles"},{"name":"roleTargetContract","type":"address","internalType":"address"}],"outputs":[{"name":"","type":"bytes32","internalType":"bytes32"}],"stateMutability":"pure"},{"type":"function","name":"getConfig","inputs":[],"outputs":[{"name":"","type":"tuple","internalType":"struct ArkConfig","components":[{"name":"commander","type":"address","internalType":"address"},{"name":"raft","type":"address","internalType":"address"},{"name":"token","type":"address","internalType":"contract IERC20"},{"name":"depositCap","type":"uint256","internalType":"uint256"},{"name":"maxRebalanceOutflow","type":"uint256","internalType":"uint256"},{"name":"maxRebalanceInflow","type":"uint256","internalType":"uint256"},{"name":"name","type":"string","internalType":"string"},{"name":"requiresKeeperData","type":"bool","internalType":"bool"}]}],"stateMutability":"view"},{"type":"function","name":"harborCommand","inputs":[],"outputs":[{"name":"","type":"address","internalType":"address"}],"stateMutability":"view"},{"type":"function","name":"harvest","inputs":[{"name":"additionalData","type":"bytes","internalType":"bytes"}],"outputs":[{"name":"rewardTokens","type":"address[]","internalType":"address[]"},{"name":"rewardAmounts","type":"uint256[]","internalType":"uint256[]"}],"stateMutability":"nonpayable"},{"type":"function","name":"maxRebalanceInflow","inputs":[],"outputs":[{"name":"","type":"uint256","internalType":"uint256"}],"stateMutability":"view"},{"type":"function","name":"maxRebalanceOutflow","inputs":[],"outputs":[{"name":"","type":"uint256","internalType":"uint256"}],"stateMutability":"view"},{"type":"function","name":"move","inputs":[{"name":"amount","type":"uint256","internalType":"uint256"},{"name":"receiverArk","type":"address","internalType":"address"},{"name":"boardData","type":"bytes","internalType":"bytes"},{"name":"disembarkData","type":"bytes","internalType":"bytes"}],"outputs":[],"stateMutability":"nonpayable"},{"type":"function","name":"name","inputs":[],"outputs":[{"name":"","type":"string","internalType":"string"}],"stateMutability":"view"},{"type":"function","name":"raft","inputs":[],"outputs":[{"name":"","type":"address","internalType":"address"}],"stateMutability":"view"},{"type":"function","name":"registerFleetCommander","inputs":[],"outputs":[],"stateMutability":"nonpayable"},{"type":"function","name":"requiresKeeperData","inputs":[],"outputs":[{"name":"","type":"bool","internalType":"bool"}],"stateMutability":"view"},{"type":"function","name":"setDepositCap","inputs":[{"name":"newDepositCap","type":"uint256","internalType":"uint256"}],"outputs":[],"stateMutability":"nonpayable"},{"type":"function","name":"setMaxRebalanceInflow","inputs":[{"name":"newMaxRebalanceInflow","type":"uint256","internalType":"uint256"}],"outputs":[],"stateMutability":"nonpayable"},{"type":"function","name":"setMaxRebalanceOutflow","inputs":[{"name":"newMaxRebalanceOutflow","type":"uint256","internalType":"uint256"}],"outputs":[],"stateMutability":"nonpayable"},{"type":"function","name":"sweep","inputs":[{"name":"tokens","type":"address[]","internalType":"address[]"}],"outputs":[{"name":"sweptTokens","type":"address[]","internalType":"address[]"},{"name":"sweptAmounts","type":"uint256[]","internalType":"uint256[]"}],"stateMutability":"nonpayable"},{"type":"function","name":"tipJar","inputs":[],"outputs":[{"name":"","type":"address","internalType":"address"}],"stateMutability":"view"},{"type":"function","name":"token","inputs":[],"outputs":[{"name":"","type":"address","internalType":"contract IERC20"}],"stateMutability":"view"},{"type":"function","name":"totalAssets","inputs":[],"outputs":[{"name":"","type":"uint256","internalType":"uint256"}],"stateMutability":"view"},{"type":"function","name":"treasury","inputs":[],"outputs":[{"name":"","type":"address","internalType":"address"}],"stateMutability":"view"},{"type":"function","name":"unregisterFleetCommander","inputs":[],"outputs":[],"stateMutability":"nonpayable"},{"type":"function","name":"vault","inputs":[],"outputs":[{"name":"","type":"address","internalType":"contract IERC4626"}],"stateMutability":"view"},{"type":"event","name":"ArkHarvested","inputs":[{"name":"rewardTokens","type":"address[]","indexed":true,"internalType":"address[]"},{"name":"rewardAmounts","type":"uint256[]","indexed":true,"internalType":"uint256[]"}],"anonymous":false},{"type":"event","name":"ArkPoked","inputs":[{"name":"currentPrice","type":"uint256","indexed":false,"internalType":"uint256"},{"name":"timestamp","type":"uint256","indexed":false,"internalType":"uint256"}],"anonymous":false},{"type":"event","name":"ArkSwept","inputs":[{"name":"sweptTokens","type":"address[]","indexed":true,"internalType":"address[]"},{"name":"sweptAmounts","type":"uint256[]","indexed":true,"internalType":"uint256[]"}],"anonymous":false},{"type":"event","name":"Boarded","inputs":[{"name":"commander","type":"address","indexed":true,"internalType":"address"},{"name":"token","type":"address","indexed":false,"internalType":"address"},{"name":"amount","type":"uint256","indexed":false,"internalType":"uint256"}],"anonymous":false},{"type":"event","name":"DepositCapUpdated","inputs":[{"name":"newCap","type":"uint256","indexed":false,"internalType":"uint256"}],"anonymous":false},{"type":"event","name":"Disembarked","inputs":[{"name":"commander","type":"address","indexed":true,"internalType":"address"},{"name":"token","type":"address","indexed":false,"internalType":"address"},{"name":"amount","type":"uint256","indexed":false,"internalType":"uint256"}],"anonymous":false},{"type":"event","name":"FleetCommanderRegistered","inputs":[{"name":"commander","type":"address","indexed":false,"internalType":"address"}],"anonymous":false},{"type":"event","name":"FleetCommanderUnregistered","inputs":[{"name":"commander","type":"address","indexed":false,"internalType":"address"}],"anonymous":false},{"type":"event","name":"MaxRebalanceInflowUpdated","inputs":[{"name":"newMaxInflow","type":"uint256","indexed":false,"internalType":"uint256"}],"anonymous":false},{"type":"event","name":"MaxRebalanceOutflowUpdated","inputs":[{"name":"newMaxOutflow","type":"uint256","indexed":false,"internalType":"uint256"}],"anonymous":false},{"type":"event","name":"Moved","inputs":[{"name":"from","type":"address","indexed":true,"internalType":"address"},{"name":"to","type":"address","indexed":true,"internalType":"address"},{"name":"token","type":"address","indexed":false,"internalType":"address"},{"name":"amount","type":"uint256","indexed":false,"internalType":"uint256"}],"anonymous":false},{"type":"event","name":"RaftUpdated","inputs":[{"name":"newRaft","type":"address","indexed":false,"internalType":"address"}],"anonymous":false},{"type":"error","name":"CallerIsNotAdmin","inputs":[{"name":"caller","type":"address","internalType":"address"}]},{"type":"error","name":"CallerIsNotAuthorizedToBoard","inputs":[{"name":"caller","type":"address","internalType":"address"}]},{"type":"error","name":"CallerIsNotCommander","inputs":[{"name":"caller","type":"address","internalType":"address"}]},{"type":"error","name":"CallerIsNotContractSpecificRole","inputs":[{"name":"caller","type":"address","internalType":"address"},{"name":"role","type":"bytes32","internalType":"bytes32"}]},{"type":"error","name":"CallerIsNotCurator","inputs":[{"name":"caller","type":"address","internalType":"address"}]},{"type":"error","name":"CallerIsNotGovernor","inputs":[{"name":"caller","type":"address","internalType":"address"}]},{"type":"error","name":"CallerIsNotGuardian","inputs":[{"name":"caller","type":"address","internalType":"address"}]},{"type":"error","name":"CallerIsNotGuardianOrGovernor","inputs":[{"name":"caller","type":"address","internalType":"address"}]},{"type":"error","name":"CallerIsNotKeeper","inputs":[{"name":"caller","type":"address","internalType":"address"}]},{"type":"error","name":"CallerIsNotRaft","inputs":[{"name":"caller","type":"address","internalType":"address"}]},{"type":"error","name":"CallerIsNotRaftOrCommander","inputs":[{"name":"caller","type":"address","internalType":"address"}]},{"type":"error","name":"CallerIsNotSuperKeeper","inputs":[{"name":"caller","type":"address","internalType":"address"}]},{"type":"error","name":"CannotAddCommanderToArkWithCommander","inputs":[]},{"type":"error","name":"CannotDeployArkWithEmptyName","inputs":[]},{"type":"error","name":"CannotDeployArkWithoutConfigurationManager","inputs":[]},{"type":"error","name":"CannotDeployArkWithoutRaft","inputs":[]},{"type":"error","name":"CannotDeployArkWithoutToken","inputs":[]},{"type":"error","name":"CannotRemoveCommanderFromArkWithAssets","inputs":[]},{"type":"error","name":"CannotUseKeeperDataWhenNotRequired","inputs":[]},{"type":"error","name":"ConfigurationManagerZeroAddress","inputs":[]},{"type":"error","name":"DirectGrantIsDisabled","inputs":[{"name":"caller","type":"address","internalType":"address"}]},{"type":"error","name":"DirectRevokeIsDisabled","inputs":[{"name":"caller","type":"address","internalType":"address"}]},{"type":"error","name":"ERC4626AssetMismatch","inputs":[]},{"type":"error","name":"InvalidAccessManagerAddress","inputs":[{"name":"invalidAddress","type":"address","internalType":"address"}]},{"type":"error","name":"InvalidBoardData","inputs":[]},{"type":"error","name":"InvalidDisembarkData","inputs":[]},{"type":"error","name":"InvalidVaultAddress","inputs":[]},{"type":"error","name":"KeeperDataRequired","inputs":[]},{"type":"error","name":"SafeERC20FailedOperation","inputs":[{"name":"token","type":"address","internalType":"address"}]}],"bytecode":{"object":"0x60c060405234801561000f575f5ffd5b5060405161266b38038061266b83398101604081905261002e91610578565b6040810151602082015182918291806001600160a01b03811661006b576040516347bd7c1d60e01b81525f60048201526024015b60405180910390fd5b6040516301ffc9a760e01b815263a237592160e01b60048201526001600160a01b038216906301ffc9a790602401602060405180830381865afa1580156100b4573d5f5f3e3d5ffd5b505050506040513d601f19601f820116820180604052508101906100d89190610659565b610100576040516347bd7c1d60e01b81526001600160a01b0382166004820152602401610062565b5f80546001600160a01b0319166001600160a01b039283161790558216905061013c5760405163f1634df960e01b815260040160405180910390fd5b6001600160a01b0390811660805260408201511661016d5760405163b53c493160e01b815260040160405180910390fd5b60608101516001600160a01b031661019b576040516001620a810f60e11b0319815260040160405180910390fd5b8051515f036101bd5760405163268c072960e01b815260040160405180910390fd5b5f6101c6610420565b6001600160a01b0316036101ed57604051633a4f9cdb60e21b815260040160405180910390fd5b6040805161010081019091525f815260208101610208610420565b6001600160a01b039081168252606080850151821660208085019190915260808087015160408087019190915260a0808901518588015260c0808a01518489015289518289015260e08a01511515978101979097528751600180549188166001600160a01b03199283161781559489015160028054918916918316919091179055918801516003805491909716921691909117909455918501516004559084015160055590830151600655908201516007906102c490826106fd565b5060e091909101516007909101805460ff191691151591909117905550506001600160a01b03821661030957604051630306120160e01b815260040160405180910390fd5b6001600160a01b0380831660a0819052600354604080516338d52e0f60e01b8152905191909316926338d52e0f9160048083019260209291908290030181865afa158015610359573d5f5f3e3d5ffd5b505050506040513d601f19601f8201168201806040525081019061037d91906107b7565b6001600160a01b0316146103a457604051632df548ff60e11b815260040160405180910390fd5b60035460405163095ea7b360e01b81526001600160a01b0384811660048301525f1960248301529091169063095ea7b3906044016020604051808303815f875af11580156103f4573d5f5f3e3d5ffd5b505050506040513d601f19601f820116820180604052508101906104189190610659565b5050506107d0565b5f6080516001600160a01b031663117d8ae06040518163ffffffff1660e01b8152600401602060405180830381865afa15801561045f573d5f5f3e3d5ffd5b505050506040513d601f19601f8201168201806040525081019061048391906107b7565b905090565b80516001600160a01b038116811461049e575f5ffd5b919050565b634e487b7160e01b5f52604160045260245ffd5b60405161010081016001600160401b03811182821017156104da576104da6104a3565b60405290565b5f82601f8301126104ef575f5ffd5b81516001600160401b03811115610508576105086104a3565b604051601f8201601f19908116603f011681016001600160401b0381118282101715610536576105366104a3565b60405281815283820160200185101561054d575f5ffd5b8160208501602083015e5f918101602001919091529392505050565b8051801515811461049e575f5ffd5b5f5f60408385031215610589575f5ffd5b61059283610488565b60208401519092506001600160401b038111156105ad575f5ffd5b830161010081860312156105bf575f5ffd5b6105c76104b7565b81516001600160401b038111156105dc575f5ffd5b6105e8878285016104e0565b8252506105f760208301610488565b602082015261060860408301610488565b604082015261061960608301610488565b60608201526080828101519082015260a0808301519082015260c0808301519082015261064860e08301610569565b60e082015280925050509250929050565b5f60208284031215610669575f5ffd5b61067282610569565b9392505050565b600181811c9082168061068d57607f821691505b6020821081036106ab57634e487b7160e01b5f52602260045260245ffd5b50919050565b601f8211156106f857805f5260205f20601f840160051c810160208510156106d65750805b601f840160051c820191505b818110156106f5575f81556001016106e2565b50505b505050565b81516001600160401b03811115610716576107166104a3565b61072a816107248454610679565b846106b1565b6020601f82116001811461075c575f83156107455750848201515b5f19600385901b1c1916600184901b1784556106f5565b5f84815260208120601f198516915b8281101561078b578785015182556020948501946001909201910161076b565b50848210156107a857868401515f19600387901b60f8161c191681555b50505050600190811b01905550565b5f602082840312156107c7575f5ffd5b61067282610488565b60805160a051611e496108225f395f8181610374015281816103be01528181611539015261166b01525f818161032a0152818161052f01528181610874015281816108d10152610f250152611e495ff3fe608060405234801561000f575f5ffd5b50600436106101a1575f3560e01c806379502c55116100f3578063c3f909d411610093578063dbd5edc71161006e578063dbd5edc71461035f578063ebf3113114610367578063fbfa77cf1461036f578063fc0c546a14610396575f5ffd5b8063c3f909d414610310578063c9c667e314610325578063ce5c7f611461034c575f5ffd5b80638a8b9976116100ce5780638a8b9976146102da57806392f5e832146102e2578063ad5a356f146102f5578063c38a6f0b146102fd575f5ffd5b806379502c55146102a35780637aaceb95146102bf57806386651203146102c7575f5ffd5b80633194549e1161015e57806361d027b31161013957806361d027b31461025457806361f5cd8b1461025c57806369b3054b1461026f578063780469bb14610282575f5ffd5b80633194549e14610233578063372709361461023b5780635b0f83f31461024c575f5ffd5b806301e1d114146101a557806306fdde03146101c0578063117d8ae0146101d557806313c408f8146101f55780632db6d3991461020a578063303dbaf31461021d575b5f5ffd5b6101ad6103a7565b6040519081526020015b60405180910390f35b6101c8610499565b6040516101b791906117da565b6101dd61052c565b6040516001600160a01b0390911681526020016101b7565b610208610203366004611838565b6105ad565b005b610208610218366004611838565b610666565b60085460ff1660405190151581526020016101b7565b6005546101ad565b6001546001600160a01b03166101dd565b6101dd610871565b6101dd6108ce565b61020861026a366004611880565b61092b565b6101ad61027d3660046118ae565b610979565b61029561029036600461192d565b6109ab565b6040516101b79291906119e1565b6102ab610e5e565b6040516101b7989796959493929190611a6a565b6101dd610f22565b6102086102d5366004611880565b610f7f565b610208610fc6565b6102086102f0366004611880565b611023565b6006546101ad565b61020861030b366004611aca565b61106a565b6103186111bb565b6040516101b79190611b55565b6101dd7f000000000000000000000000000000000000000000000000000000000000000081565b61029561035a366004611beb565b6112ef565b6004546101ad565b6102086113d9565b6101dd7f000000000000000000000000000000000000000000000000000000000000000081565b6003546001600160a01b03166101dd565b6040516370a0823160e01b81523060048201525f907f00000000000000000000000000000000000000000000000000000000000000006001600160a01b0316906307a2d13a9082906370a0823190602401602060405180830381865afa158015610413573d5f5f3e3d5ffd5b505050506040513d601f19601f820116820180604052508101906104379190611c2a565b6040518263ffffffff1660e01b815260040161045591815260200190565b602060405180830381865afa158015610470573d5f5f3e3d5ffd5b505050506040513d601f19601f820116820180604052508101906104949190611c2a565b905090565b6060600160060180546104ab90611c41565b80601f01602080910402602001604051908101604052809291908181526020018280546104d790611c41565b80156105225780601f106104f957610100808354040283529160200191610522565b820191905f5260205f20905b81548152906001019060200180831161050557829003601f168201915b5050505050905090565b5f7f00000000000000000000000000000000000000000000000000000000000000006001600160a01b031663117d8ae06040518163ffffffff1660e01b8152600401602060405180830381865afa158015610589573d5f5f3e3d5ffd5b505050506040513d601f19601f820116820180604052508101906104949190611c79565b6105b561142b565b6105e557335b604051631564c0e160e11b81526001600160a01b0390911660048201526024015b60405180910390fd5b81816105f182826114b4565b336105fd868686611516565b600354610614906001600160a01b031682886115b2565b600354604080516001600160a01b03928316815260208101899052918316917fd5e872c5ecfb1bb8820b2e6a20e31b883682282da886621541f71e31ec11947e910160405180910390a2505050505050565b306001600160a01b031663372709366040518163ffffffff1660e01b8152600401602060405180830381865afa1580156106a2573d5f5f3e3d5ffd5b505050506040513d601f19601f820116820180604052508101906106c69190611c79565b6106ce61142b565b6107ed575f3390505f306001600160a01b031663117d8ae06040518163ffffffff1660e01b8152600401602060405180830381865afa158015610713573d5f5f3e3d5ffd5b505050506040513d601f19601f820116820180604052508101906107379190611c79565b6001600160a01b0316826001600160a01b0316149050806107ea5760405163d25dd10160e01b81526001600160a01b0383811660048301525f919085169063d25dd10190602401602060405180830381865afa158015610799573d5f5f3e3d5ffd5b505050506040513d601f19601f820116820180604052508101906107bd9190611c94565b9050806107e857604051638f7a567d60e01b81526001600160a01b03841660048201526024016105dc565b505b50505b82826107f982826114b4565b6003543390610813906001600160a01b031682308a611616565b61081e87878761164f565b600354604080516001600160a01b039283168152602081018a9052918316917fcbaa1442ac205415c9d69643e7b60ec73d1de35dbc807c21ec288c70ddc4207b910160405180910390a250505050505050565b5f7f00000000000000000000000000000000000000000000000000000000000000006001600160a01b0316635b0f83f36040518163ffffffff1660e01b8152600401602060405180830381865afa158015610589573d5f5f3e3d5ffd5b5f7f00000000000000000000000000000000000000000000000000000000000000006001600160a01b03166361d027b36040518163ffffffff1660e01b8152600401602060405180830381865afa158015610589573d5f5f3e3d5ffd5b61093361142b565b61093d57336105bb565b60058190556040518181527ffbe2d5c01ea8ba5596d6c4e6c82c6d4a0a0ee1128689993a4a5ba0169273d69f906020015b60405180910390a150565b5f828260405160200161098d929190611cb3565b60405160208183030381529060405280519060200120905092915050565b606080306001600160a01b031663117d8ae06040518163ffffffff1660e01b8152600401602060405180830381865afa1580156109ea573d5f5f3e3d5ffd5b505050506040513d601f19601f82011682018060405250810190610a0e9190611c79565b6001600160a01b0316336001600160a01b031614610a4d57335b604051631184b31b60e21b81526001600160a01b0390911660048201526024016105dc565b825167ffffffffffffffff811115610a6757610a676118e8565b604051908082528060200260200182016040528015610a90578160200160208202803683370190505b509150825167ffffffffffffffff811115610aad57610aad6118e8565b604051908082528060200260200182016040528015610ad6578160200160208202803683370190505b506003546040516370a0823160e01b81523060048201529192505f916001600160a01b03909116906370a0823190602401602060405180830381865afa158015610b22573d5f5f3e3d5ffd5b505050506040513d601f19601f82011682018060405250810190610b469190611c2a565b1115610c3757600154604080516330fe427560e21b81529051610c37926001600160a01b03169163c3f909d49160048083019260809291908290030181865afa158015610b95573d5f5f3e3d5ffd5b505050506040513d601f19601f82011682018060405250810190610bb99190611cf6565b516003546040516370a0823160e01b81523060048201526001600160a01b03909116906370a0823190602401602060405180830381865afa158015610c00573d5f5f3e3d5ffd5b505050506040513d601f19601f82011682018060405250810190610c249190611c2a565b6003546001600160a01b031691906115b2565b5f5b8351811015610e05575f848281518110610c5557610c55611d62565b60209081029190910101516040516370a0823160e01b81523060048201526001600160a01b03909116906370a0823190602401602060405180830381865afa158015610ca3573d5f5f3e3d5ffd5b505050506040513d601f19601f82011682018060405250810190610cc79190611c2a565b90508015610dfc57610d90610cda61052c565b868481518110610cec57610cec611d62565b60209081029190910101516040516370a0823160e01b81523060048201526001600160a01b03909116906370a0823190602401602060405180830381865afa158015610d3a573d5f5f3e3d5ffd5b505050506040513d601f19601f82011682018060405250810190610d5e9190611c2a565b878581518110610d7057610d70611d62565b60200260200101516001600160a01b03166115b29092919063ffffffff16565b848281518110610da257610da2611d62565b6020026020010151848381518110610dbc57610dbc611d62565b60200260200101906001600160a01b031690816001600160a01b03168152505080838381518110610def57610def611d62565b6020026020010181815250505b50600101610c39565b5080604051610e149190611d76565b604051809103902082604051610e2a9190611dab565b604051908190038120907f46b8771620f6acf56cb03d3e835ea8024c7dcbcf05fcc3f6ade9e19d1a3e212b905f90a3915091565b60018054600254600354600454600554600654600780546001600160a01b03978816989688169790951695939492939192610e9890611c41565b80601f0160208091040260200160405190810160405280929190818152602001828054610ec490611c41565b8015610f0f5780601f10610ee657610100808354040283529160200191610f0f565b820191905f5260205f20905b815481529060010190602001808311610ef257829003601f168201915b5050506007909301549192505060ff1688565b5f7f00000000000000000000000000000000000000000000000000000000000000006001600160a01b0316637aaceb956040518163ffffffff1660e01b8152600401602060405180830381865afa158015610589573d5f5f3e3d5ffd5b610f8761142b565b610f9157336105bb565b60048190556040518181527f333b26cca69716ad4680ddb07663f5bfb4f06045671f336af9a83690a3ae00f99060200161096e565b610fce61142b565b610fd857336105bb565b600180546001600160a01b031916339081179091556040519081527f55489ce0259bd691120d8860861be1c401c7c16a3cd268d21045756af4ecc5ca906020015b60405180910390a1565b61102b61142b565b61103557336105bb565b60068190556040518181527fb6ac66853c4e59c71e118d25ab494bb847c4e5eb0c8894898c5343e6f61afc129060200161096e565b61107261142b565b61107c57336105bb565b818161108882826114b4565b611093888585611516565b60035460405163095ea7b360e01b81526001600160a01b038981166004830152602482018b90529091169063095ea7b3906044016020604051808303815f875af11580156110e3573d5f5f3e3d5ffd5b505050506040513d601f19601f820116820180604052508101906111079190611c94565b50604051632db6d39960e01b81526001600160a01b03881690632db6d39990611138908b908a908a90600401611dde565b5f604051808303815f87803b15801561114f575f5ffd5b505af1158015611161573d5f5f3e3d5ffd5b5050600354604080516001600160a01b039283168152602081018d9052918b1693503092507f9f784fc02a186f1c98b2d9f15fda084da27cdd291a3785d978f91911d880516b910160405180910390a35050505050505050565b60408051610100810182525f8082526020820181905291810182905260608082018390526080820183905260a0820183905260c082015260e08101919091526040805161010081018252600180546001600160a01b0390811683526002548116602084015260035416928201929092526004546060820152600554608082015260065460a08201526007805491929160c08401919061125990611c41565b80601f016020809104026020016040519081016040528092919081815260200182805461128590611c41565b80156112d05780601f106112a7576101008083540402835291602001916112d0565b820191905f5260205f20905b8154815290600101906020018083116112b357829003601f168201915b50505091835250506007919091015460ff161515602090910152919050565b606080306001600160a01b031663117d8ae06040518163ffffffff1660e01b8152600401602060405180830381865afa15801561132e573d5f5f3e3d5ffd5b505050506040513d601f19601f820116820180604052508101906113529190611c79565b6001600160a01b0316336001600160a01b0316146113705733610a28565b61137a84846116a2565b604051919350915061138d908290611d76565b6040518091039020826040516113a39190611dab565b604051908190038120907f3e3e7958121b3e39c7a49392d1aa9cdce870c2a059744f9e15cf66fff7865455905f90a39250929050565b6113e161142b565b6113eb57336105bb565b600180546001600160a01b03191690556040513381527f7cb941d7b1708e5b3bcd35ca960d6c6311188cec18886e5b67630552676b048790602001611019565b5f80546001600160a01b03166391d14854611447600230610979565b336040516001600160e01b031960e085901b16815260048101929092526001600160a01b03166024820152604401602060405180830381865afa158015611490573d5f5f3e3d5ffd5b505050506040513d601f19601f820116820180604052508101906104949190611c94565b80158015906114c6575060085460ff16155b156114e457604051630cd0fdf960e01b815260040160405180910390fd5b801580156114f4575060085460ff165b156115125760405163332863a960e11b815260040160405180910390fd5b5050565b604051632d182be560e21b815260048101849052306024820181905260448201527f00000000000000000000000000000000000000000000000000000000000000006001600160a01b03169063b460af94906064015b6020604051808303815f875af1158015611588573d5f5f3e3d5ffd5b505050506040513d601f19601f820116820180604052508101906115ac9190611c2a565b50505050565b6040516001600160a01b0383811660248301526044820183905261161191859182169063a9059cbb906064015b604051602081830303815290604052915060e01b6020820180516001600160e01b038381831617835250505050611740565b505050565b6040516001600160a01b0384811660248301528381166044830152606482018390526115ac9186918216906323b872dd906084016115df565b604051636e553f6560e01b8152600481018490523060248201527f00000000000000000000000000000000000000000000000000000000000000006001600160a01b031690636e553f659060440161156c565b6040805160018082528183019092526060918291906020808301908036833750506040805160018082528183019092529294509050602080830190803683370190505090505f825f815181106116fa576116fa611d62565b60200260200101906001600160a01b031690816001600160a01b0316815250505f815f8151811061172d5761172d611d62565b6020026020010181815250509250929050565b5f5f60205f8451602086015f885af18061175f576040513d5f823e3d81fd5b50505f513d91508115611776578060011415611783565b6001600160a01b0384163b155b156115ac57604051635274afe760e01b81526001600160a01b03851660048201526024016105dc565b5f81518084528060208401602086015e5f602082860101526020601f19601f83011685010191505092915050565b602081525f6117ec60208301846117ac565b9392505050565b5f5f83601f840112611803575f5ffd5b50813567ffffffffffffffff81111561181a575f5ffd5b602083019150836020828501011115611831575f5ffd5b9250929050565b5f5f5f6040848603121561184a575f5ffd5b83359250602084013567ffffffffffffffff811115611867575f5ffd5b611873868287016117f3565b9497909650939450505050565b5f60208284031215611890575f5ffd5b5035919050565b6001600160a01b03811681146118ab575f5ffd5b50565b5f5f604083850312156118bf575f5ffd5b8235600381106118cd575f5ffd5b915060208301356118dd81611897565b809150509250929050565b634e487b7160e01b5f52604160045260245ffd5b604051601f8201601f1916810167ffffffffffffffff81118282101715611925576119256118e8565b604052919050565b5f6020828403121561193d575f5ffd5b813567ffffffffffffffff811115611953575f5ffd5b8201601f81018413611963575f5ffd5b803567ffffffffffffffff81111561197d5761197d6118e8565b8060051b61198d602082016118fc565b918252602081840181019290810190878411156119a8575f5ffd5b6020850194505b838510156119d657843592506119c483611897565b828252602094850194909101906119af565b979650505050505050565b604080825283519082018190525f9060208501906060840190835b81811015611a235783516001600160a01b03168352602093840193909201916001016119fc565b5050838103602080860191909152855180835291810192508501905f5b81811015611a5e578251845260209384019390920191600101611a40565b50919695505050505050565b6001600160a01b038981168252888116602083015287166040820152606081018690526080810185905260a0810184905261010060c082018190525f90611ab3908301856117ac565b905082151560e08301529998505050505050505050565b5f5f5f5f5f5f60808789031215611adf575f5ffd5b863595506020870135611af181611897565b9450604087013567ffffffffffffffff811115611b0c575f5ffd5b611b1889828a016117f3565b909550935050606087013567ffffffffffffffff811115611b37575f5ffd5b611b4389828a016117f3565b979a9699509497509295939492505050565b602080825282516001600160a01b039081168383015290830151166040808301919091528201515f90611b9360608401826001600160a01b03169052565b5060608301516080830152608083015160a083015260a083015160c083015260c083015161010060e0840152611bcd6101208401826117ac565b905060e0840151611be361010085018215159052565b509392505050565b5f5f60208385031215611bfc575f5ffd5b823567ffffffffffffffff811115611c12575f5ffd5b611c1e858286016117f3565b90969095509350505050565b5f60208284031215611c3a575f5ffd5b5051919050565b600181811c90821680611c5557607f821691505b602082108103611c7357634e487b7160e01b5f52602260045260245ffd5b50919050565b5f60208284031215611c89575f5ffd5b81516117ec81611897565b5f60208284031215611ca4575f5ffd5b815180151581146117ec575f5ffd5b5f60038410611cd057634e487b7160e01b5f52602160045260245ffd5b5060f89290921b825260601b6bffffffffffffffffffffffff1916600182015260150190565b5f6080828403128015611d07575f5ffd5b506040516080810167ffffffffffffffff81118282101715611d2b57611d2b6118e8565b6040528251611d3981611897565b815260208381015190820152604080840151908201526060928301519281019290925250919050565b634e487b7160e01b5f52603260045260245ffd5b81515f90829060208501835b82811015611da0578151845260209384019390910190600101611d82565b509195945050505050565b81515f90829060208501835b82811015611da05781516001600160a01b0316845260209384019390910190600101611db7565b83815260406020820152816040820152818360608301375f818301606090810191909152601f909201601f191601019291505056fea26469706673582212205bf5d8257be9fb342aea8df51eef00ad19ddb3d366ccf8b1dc6706406f1925cf64736f6c634300081b0033","linkReferences":{}},"methodIdentifiers":{"board(uint256,bytes)":"2db6d399","commander()":"37270936","config()":"79502c55","configurationManager()":"c9c667e3","depositCap()":"dbd5edc7","disembark(uint256,bytes)":"13c408f8","generateRole(uint8,address)":"69b3054b","getConfig()":"c3f909d4","harborCommand()":"5b0f83f3","harvest(bytes)":"ce5c7f61","maxRebalanceInflow()":"ad5a356f","maxRebalanceOutflow()":"3194549e","move(uint256,address,bytes,bytes)":"c38a6f0b","name()":"06fdde03","raft()":"117d8ae0","registerFleetCommander()":"8a8b9976","requiresKeeperData()":"303dbaf3","setDepositCap(uint256)":"86651203","setMaxRebalanceInflow(uint256)":"92f5e832","setMaxRebalanceOutflow(uint256)":"61f5cd8b","sweep(address[])":"780469bb","tipJar()":"7aaceb95","token()":"fc0c546a","totalAssets()":"01e1d114","treasury()":"61d027b3","unregisterFleetCommander()":"ebf31131","vault()":"fbfa77cf"},"id":170}