{"abi":[{"type":"constructor","inputs":[{"name":"_vault","type":"address","internalType":"address"},{"name":"_params","type":"tuple","internalType":"struct ArkParams","components":[{"name":"name","type":"string","internalType":"string"},{"name":"accessManager","type":"address","internalType":"address"},{"name":"configurationManager","type":"address","internalType":"address"},{"name":"token","type":"address","internalType":"address"},{"name":"depositCap","type":"uint256","internalType":"uint256"},{"name":"maxRebalanceOutflow","type":"uint256","internalType":"uint256"},{"name":"maxRebalanceInflow","type":"uint256","internalType":"uint256"},{"name":"requiresKeeperData","type":"bool","internalType":"bool"},{"name":"maxDepositPercentageOfTVL","type":"uint256","internalType":"Percentage"}]}],"stateMutability":"nonpayable"},{"type":"function","name":"board","inputs":[{"name":"amount","type":"uint256","internalType":"uint256"},{"name":"boardData","type":"bytes","internalType":"bytes"}],"outputs":[],"stateMutability":"nonpayable"},{"type":"function","name":"commander","inputs":[],"outputs":[{"name":"","type":"address","internalType":"address"}],"stateMutability":"view"},{"type":"function","name":"config","inputs":[],"outputs":[{"name":"commander","type":"address","internalType":"address"},{"name":"raft","type":"address","internalType":"address"},{"name":"token","type":"address","internalType":"contract IERC20"},{"name":"depositCap","type":"uint256","internalType":"uint256"},{"name":"maxRebalanceOutflow","type":"uint256","internalType":"uint256"},{"name":"maxRebalanceInflow","type":"uint256","internalType":"uint256"},{"name":"name","type":"string","internalType":"string"},{"name":"requiresKeeperData","type":"bool","internalType":"bool"},{"name":"maxDepositPercentageOfTVL","type":"uint256","internalType":"Percentage"}],"stateMutability":"view"},{"type":"function","name":"configurationManager","inputs":[],"outputs":[{"name":"","type":"address","internalType":"contract IConfigurationManager"}],"stateMutability":"view"},{"type":"function","name":"depositCap","inputs":[],"outputs":[{"name":"","type":"uint256","internalType":"uint256"}],"stateMutability":"view"},{"type":"function","name":"disembark","inputs":[{"name":"amount","type":"uint256","internalType":"uint256"},{"name":"disembarkData","type":"bytes","internalType":"bytes"}],"outputs":[],"stateMutability":"nonpayable"},{"type":"function","name":"generateRole","inputs":[{"name":"roleName","type":"uint8","internalType":"enum ContractSpecificRoles"},{"name":"roleTargetContract","type":"address","internalType":"address"}],"outputs":[{"name":"","type":"bytes32","internalType":"bytes32"}],"stateMutability":"pure"},{"type":"function","name":"getConfig","inputs":[],"outputs":[{"name":"","type":"tuple","internalType":"struct ArkConfig","components":[{"name":"commander","type":"address","internalType":"address"},{"name":"raft","type":"address","internalType":"address"},{"name":"token","type":"address","internalType":"contract IERC20"},{"name":"depositCap","type":"uint256","internalType":"uint256"},{"name":"maxRebalanceOutflow","type":"uint256","internalType":"uint256"},{"name":"maxRebalanceInflow","type":"uint256","internalType":"uint256"},{"name":"name","type":"string","internalType":"string"},{"name":"requiresKeeperData","type":"bool","internalType":"bool"},{"name":"maxDepositPercentageOfTVL","type":"uint256","internalType":"Percentage"}]}],"stateMutability":"view"},{"type":"function","name":"harborCommand","inputs":[],"outputs":[{"name":"","type":"address","internalType":"address"}],"stateMutability":"view"},{"type":"function","name":"harvest","inputs":[{"name":"additionalData","type":"bytes","internalType":"bytes"}],"outputs":[{"name":"rewardTokens","type":"address[]","internalType":"address[]"},{"name":"rewardAmounts","type":"uint256[]","internalType":"uint256[]"}],"stateMutability":"nonpayable"},{"type":"function","name":"maxDepositPercentageOfTVL","inputs":[],"outputs":[{"name":"","type":"uint256","internalType":"Percentage"}],"stateMutability":"view"},{"type":"function","name":"maxRebalanceInflow","inputs":[],"outputs":[{"name":"","type":"uint256","internalType":"uint256"}],"stateMutability":"view"},{"type":"function","name":"maxRebalanceOutflow","inputs":[],"outputs":[{"name":"","type":"uint256","internalType":"uint256"}],"stateMutability":"view"},{"type":"function","name":"move","inputs":[{"name":"amount","type":"uint256","internalType":"uint256"},{"name":"receiverArk","type":"address","internalType":"address"},{"name":"boardData","type":"bytes","internalType":"bytes"},{"name":"disembarkData","type":"bytes","internalType":"bytes"}],"outputs":[],"stateMutability":"nonpayable"},{"type":"function","name":"name","inputs":[],"outputs":[{"name":"","type":"string","internalType":"string"}],"stateMutability":"view"},{"type":"function","name":"raft","inputs":[],"outputs":[{"name":"","type":"address","internalType":"address"}],"stateMutability":"view"},{"type":"function","name":"registerFleetCommander","inputs":[],"outputs":[],"stateMutability":"nonpayable"},{"type":"function","name":"requiresKeeperData","inputs":[],"outputs":[{"name":"","type":"bool","internalType":"bool"}],"stateMutability":"view"},{"type":"function","name":"setDepositCap","inputs":[{"name":"newDepositCap","type":"uint256","internalType":"uint256"}],"outputs":[],"stateMutability":"nonpayable"},{"type":"function","name":"setMaxDepositPercentageOfTVL","inputs":[{"name":"newMaxDepositPercentageOfTVL","type":"uint256","internalType":"Percentage"}],"outputs":[],"stateMutability":"nonpayable"},{"type":"function","name":"setMaxRebalanceInflow","inputs":[{"name":"newMaxRebalanceInflow","type":"uint256","internalType":"uint256"}],"outputs":[],"stateMutability":"nonpayable"},{"type":"function","name":"setMaxRebalanceOutflow","inputs":[{"name":"newMaxRebalanceOutflow","type":"uint256","internalType":"uint256"}],"outputs":[],"stateMutability":"nonpayable"},{"type":"function","name":"sweep","inputs":[{"name":"tokens","type":"address[]","internalType":"address[]"}],"outputs":[{"name":"sweptTokens","type":"address[]","internalType":"address[]"},{"name":"sweptAmounts","type":"uint256[]","internalType":"uint256[]"}],"stateMutability":"nonpayable"},{"type":"function","name":"tipJar","inputs":[],"outputs":[{"name":"","type":"address","internalType":"address"}],"stateMutability":"view"},{"type":"function","name":"token","inputs":[],"outputs":[{"name":"","type":"address","internalType":"contract IERC20"}],"stateMutability":"view"},{"type":"function","name":"totalAssets","inputs":[],"outputs":[{"name":"","type":"uint256","internalType":"uint256"}],"stateMutability":"view"},{"type":"function","name":"treasury","inputs":[],"outputs":[{"name":"","type":"address","internalType":"address"}],"stateMutability":"view"},{"type":"function","name":"unregisterFleetCommander","inputs":[],"outputs":[],"stateMutability":"nonpayable"},{"type":"function","name":"vault","inputs":[],"outputs":[{"name":"","type":"address","internalType":"contract IERC4626"}],"stateMutability":"view"},{"type":"event","name":"ArkHarvested","inputs":[{"name":"rewardTokens","type":"address[]","indexed":true,"internalType":"address[]"},{"name":"rewardAmounts","type":"uint256[]","indexed":true,"internalType":"uint256[]"}],"anonymous":false},{"type":"event","name":"ArkPoked","inputs":[{"name":"currentPrice","type":"uint256","indexed":false,"internalType":"uint256"},{"name":"timestamp","type":"uint256","indexed":false,"internalType":"uint256"}],"anonymous":false},{"type":"event","name":"ArkSwept","inputs":[{"name":"sweptTokens","type":"address[]","indexed":true,"internalType":"address[]"},{"name":"sweptAmounts","type":"uint256[]","indexed":true,"internalType":"uint256[]"}],"anonymous":false},{"type":"event","name":"Boarded","inputs":[{"name":"commander","type":"address","indexed":true,"internalType":"address"},{"name":"token","type":"address","indexed":false,"internalType":"address"},{"name":"amount","type":"uint256","indexed":false,"internalType":"uint256"}],"anonymous":false},{"type":"event","name":"DepositCapUpdated","inputs":[{"name":"newCap","type":"uint256","indexed":false,"internalType":"uint256"}],"anonymous":false},{"type":"event","name":"Disembarked","inputs":[{"name":"commander","type":"address","indexed":true,"internalType":"address"},{"name":"token","type":"address","indexed":false,"internalType":"address"},{"name":"amount","type":"uint256","indexed":false,"internalType":"uint256"}],"anonymous":false},{"type":"event","name":"FleetCommanderRegistered","inputs":[{"name":"commander","type":"address","indexed":false,"internalType":"address"}],"anonymous":false},{"type":"event","name":"FleetCommanderUnregistered","inputs":[{"name":"commander","type":"address","indexed":false,"internalType":"address"}],"anonymous":false},{"type":"event","name":"MaxDepositPercentageOfTVLUpdated","inputs":[{"name":"newMaxDepositPercentageOfTVL","type":"uint256","indexed":false,"internalType":"Percentage"}],"anonymous":false},{"type":"event","name":"MaxRebalanceInflowUpdated","inputs":[{"name":"newMaxInflow","type":"uint256","indexed":false,"internalType":"uint256"}],"anonymous":false},{"type":"event","name":"MaxRebalanceOutflowUpdated","inputs":[{"name":"newMaxOutflow","type":"uint256","indexed":false,"internalType":"uint256"}],"anonymous":false},{"type":"event","name":"Moved","inputs":[{"name":"from","type":"address","indexed":true,"internalType":"address"},{"name":"to","type":"address","indexed":true,"internalType":"address"},{"name":"token","type":"address","indexed":false,"internalType":"address"},{"name":"amount","type":"uint256","indexed":false,"internalType":"uint256"}],"anonymous":false},{"type":"event","name":"RaftUpdated","inputs":[{"name":"newRaft","type":"address","indexed":false,"internalType":"address"}],"anonymous":false},{"type":"error","name":"CallerIsNotAdmin","inputs":[{"name":"caller","type":"address","internalType":"address"}]},{"type":"error","name":"CallerIsNotAuthorizedToBoard","inputs":[{"name":"caller","type":"address","internalType":"address"}]},{"type":"error","name":"CallerIsNotCommander","inputs":[{"name":"caller","type":"address","internalType":"address"}]},{"type":"error","name":"CallerIsNotContractSpecificRole","inputs":[{"name":"caller","type":"address","internalType":"address"},{"name":"role","type":"bytes32","internalType":"bytes32"}]},{"type":"error","name":"CallerIsNotCurator","inputs":[{"name":"caller","type":"address","internalType":"address"}]},{"type":"error","name":"CallerIsNotGovernor","inputs":[{"name":"caller","type":"address","internalType":"address"}]},{"type":"error","name":"CallerIsNotGuardian","inputs":[{"name":"caller","type":"address","internalType":"address"}]},{"type":"error","name":"CallerIsNotGuardianOrGovernor","inputs":[{"name":"caller","type":"address","internalType":"address"}]},{"type":"error","name":"CallerIsNotKeeper","inputs":[{"name":"caller","type":"address","internalType":"address"}]},{"type":"error","name":"CallerIsNotRaft","inputs":[{"name":"caller","type":"address","internalType":"address"}]},{"type":"error","name":"CallerIsNotRaftOrCommander","inputs":[{"name":"caller","type":"address","internalType":"address"}]},{"type":"error","name":"CallerIsNotSuperKeeper","inputs":[{"name":"caller","type":"address","internalType":"address"}]},{"type":"error","name":"CannotAddCommanderToArkWithCommander","inputs":[]},{"type":"error","name":"CannotDeployArkWithEmptyName","inputs":[]},{"type":"error","name":"CannotDeployArkWithoutConfigurationManager","inputs":[]},{"type":"error","name":"CannotDeployArkWithoutRaft","inputs":[]},{"type":"error","name":"CannotDeployArkWithoutToken","inputs":[]},{"type":"error","name":"CannotRemoveCommanderFromArkWithAssets","inputs":[]},{"type":"error","name":"CannotUseKeeperDataWhenNotRequired","inputs":[]},{"type":"error","name":"ConfigurationManagerZeroAddress","inputs":[]},{"type":"error","name":"DirectGrantIsDisabled","inputs":[{"name":"caller","type":"address","internalType":"address"}]},{"type":"error","name":"DirectRevokeIsDisabled","inputs":[{"name":"caller","type":"address","internalType":"address"}]},{"type":"error","name":"ERC4626AssetMismatch","inputs":[]},{"type":"error","name":"InvalidAccessManagerAddress","inputs":[{"name":"invalidAddress","type":"address","internalType":"address"}]},{"type":"error","name":"InvalidBoardData","inputs":[]},{"type":"error","name":"InvalidDisembarkData","inputs":[]},{"type":"error","name":"InvalidVaultAddress","inputs":[]},{"type":"error","name":"KeeperDataRequired","inputs":[]},{"type":"error","name":"ReentrancyGuardReentrantCall","inputs":[]},{"type":"error","name":"SafeERC20FailedOperation","inputs":[{"name":"token","type":"address","internalType":"address"}]}],"bytecode":{"object":"0x60c060405234801561000f575f5ffd5b506040516129f43803806129f483398101604081905261002e9161058c565b6040810151602082015182918291806001600160a01b03811661006b576040516347bd7c1d60e01b81525f60048201526024015b60405180910390fd5b6040516301ffc9a760e01b815263fe1a291f60e01b60048201526001600160a01b038216906301ffc9a790602401602060405180830381865afa1580156100b4573d5f5f3e3d5ffd5b505050506040513d601f19601f820116820180604052508101906100d8919061067a565b610100576040516347bd7c1d60e01b81526001600160a01b0382166004820152602401610062565b5f80546001600160a01b0319166001600160a01b039283161790558216905061013c5760405163f1634df960e01b815260040160405180910390fd5b6001600160a01b0390811660805260408201511661016d5760405163b53c493160e01b815260040160405180910390fd5b60608101516001600160a01b031661019b576040516001620a810f60e11b0319815260040160405180910390fd5b8051515f036101bd5760405163268c072960e01b815260040160405180910390fd5b5f6101c6610434565b6001600160a01b0316036101ed57604051633a4f9cdb60e21b815260040160405180910390fd5b6040805161012081019091525f815260208101610208610434565b6001600160a01b039081168252606080850151821660208085019190915260808087015160408087019190915260a0808901518588015260c0808a01518489015289518289015260e0808b01511515828a01526101008b01519801979097528751600180549188166001600160a01b03199283161781559489015160028054918916918316919091179055918801516003805491909716921691909117909455918501516004559084015160055590830151600655908201516007906102ce908261071e565b5060e082015160078201805460ff19169115159190911790556101009091015160089091015550506001600160a01b03821661031d57604051630306120160e01b815260040160405180910390fd5b6001600160a01b0380831660a0819052600354604080516338d52e0f60e01b8152905191909316926338d52e0f9160048083019260209291908290030181865afa15801561036d573d5f5f3e3d5ffd5b505050506040513d601f19601f8201168201806040525081019061039191906107d8565b6001600160a01b0316146103b857604051632df548ff60e11b815260040160405180910390fd5b60035460405163095ea7b360e01b81526001600160a01b0384811660048301525f1960248301529091169063095ea7b3906044016020604051808303815f875af1158015610408573d5f5f3e3d5ffd5b505050506040513d601f19601f8201168201806040525081019061042c919061067a565b5050506107f1565b5f6080516001600160a01b031663117d8ae06040518163ffffffff1660e01b8152600401602060405180830381865afa158015610473573d5f5f3e3d5ffd5b505050506040513d601f19601f8201168201806040525081019061049791906107d8565b905090565b80516001600160a01b03811681146104b2575f5ffd5b919050565b634e487b7160e01b5f52604160045260245ffd5b60405161012081016001600160401b03811182821017156104ee576104ee6104b7565b60405290565b5f82601f830112610503575f5ffd5b81516001600160401b0381111561051c5761051c6104b7565b604051601f8201601f19908116603f011681016001600160401b038111828210171561054a5761054a6104b7565b604052818152838201602001851015610561575f5ffd5b8160208501602083015e5f918101602001919091529392505050565b805180151581146104b2575f5ffd5b5f5f6040838503121561059d575f5ffd5b6105a68361049c565b60208401519092506001600160401b038111156105c1575f5ffd5b830161012081860312156105d3575f5ffd5b6105db6104cb565b81516001600160401b038111156105f0575f5ffd5b6105fc878285016104f4565b82525061060b6020830161049c565b602082015261061c6040830161049c565b604082015261062d6060830161049c565b60608201526080828101519082015260a0808301519082015260c0808301519082015261065c60e0830161057d565b60e08201526101009182015191810191909152919491935090915050565b5f6020828403121561068a575f5ffd5b6106938261057d565b9392505050565b600181811c908216806106ae57607f821691505b6020821081036106cc57634e487b7160e01b5f52602260045260245ffd5b50919050565b601f82111561071957805f5260205f20601f840160051c810160208510156106f75750805b601f840160051c820191505b81811015610716575f8155600101610703565b50505b505050565b81516001600160401b03811115610737576107376104b7565b61074b81610745845461069a565b846106d2565b6020601f82116001811461077d575f83156107665750848201515b5f19600385901b1c1916600184901b178455610716565b5f84815260208120601f198516915b828110156107ac578785015182556020948501946001909201910161078c565b50848210156107c957868401515f19600387901b60f8161c191681555b50505050600190811b01905550565b5f602082840312156107e8575f5ffd5b6106938261049c565b60805160a0516121b16108435f395f81816103b5015281816103ff0152818161175601526118ad01525f818161036b015281816105700152818161091e0152818161097b01526110b201526121b15ff3fe608060405234801561000f575f5ffd5b50600436106101c6575f3560e01c806379502c55116100fe578063c38a6f0b1161009e578063dbd5edc71161006e578063dbd5edc7146103a0578063ebf31131146103a8578063fbfa77cf146103b0578063fc0c546a146103d7575f5ffd5b8063c38a6f0b1461033e578063c3f909d414610351578063c9c667e314610366578063ce5c7f611461038d575f5ffd5b80638a8b9976116100d95780638a8b99761461031357806392f5e8321461031b578063ad5a356f1461032e578063bdcdd88214610336575f5ffd5b806379502c55146102db5780637aaceb95146102f85780638665120314610300575f5ffd5b8063372709361161016957806361d027b31161014457806361d027b31461028c57806361f5cd8b1461029457806369b3054b146102a7578063780469bb146102ba575f5ffd5b806337270936146102605780634fc7fac3146102715780635b0f83f314610284575f5ffd5b806313c408f8116101a457806313c408f81461021a5780632db6d3991461022f578063303dbaf3146102425780633194549e14610258575f5ffd5b806301e1d114146101ca57806306fdde03146101e5578063117d8ae0146101fa575b5f5ffd5b6101d26103e8565b6040519081526020015b60405180910390f35b6101ed6104da565b6040516101dc9190611afb565b61020261056d565b6040516001600160a01b0390911681526020016101dc565b61022d610228366004611b52565b6105ee565b005b61022d61023d366004611b52565b6106b7565b60085460ff1660405190151581526020016101dc565b6005546101d2565b6001546001600160a01b0316610202565b61022d61027f366004611b9a565b6108cd565b61020261091b565b610202610978565b61022d6102a2366004611b9a565b6109d5565b6101d26102b5366004611bc8565b610a1c565b6102cd6102c8366004611c47565b610a4e565b6040516101dc929190611cfb565b6102e3610fe4565b6040516101dc99989796959493929190611d84565b6102026110af565b61022d61030e366004611b9a565b61110c565b61022d611153565b61022d610329366004611b9a565b6111b0565b6006546101d2565b6009546101d2565b61022d61034c366004611de6565b6111f7565b610359611348565b6040516101dc9190611e71565b6102027f000000000000000000000000000000000000000000000000000000000000000081565b6102cd61039b366004611f22565b61148d565b6004546101d2565b61022d611587565b6102027f000000000000000000000000000000000000000000000000000000000000000081565b6003546001600160a01b0316610202565b6040516370a0823160e01b81523060048201525f907f00000000000000000000000000000000000000000000000000000000000000006001600160a01b0316906307a2d13a9082906370a0823190602401602060405180830381865afa158015610454573d5f5f3e3d5ffd5b505050506040513d601f19601f820116820180604052508101906104789190611f61565b6040518263ffffffff1660e01b815260040161049691815260200190565b602060405180830381865afa1580156104b1573d5f5f3e3d5ffd5b505050506040513d601f19601f820116820180604052508101906104d59190611f61565b905090565b6060600160060180546104ec90611f78565b80601f016020809104026020016040519081016040528092919081815260200182805461051890611f78565b80156105635780601f1061053a57610100808354040283529160200191610563565b820191905f5260205f20905b81548152906001019060200180831161054657829003601f168201915b5050505050905090565b5f7f00000000000000000000000000000000000000000000000000000000000000006001600160a01b031663117d8ae06040518163ffffffff1660e01b8152600401602060405180830381865afa1580156105ca573d5f5f3e3d5ffd5b505050506040513d601f19601f820116820180604052508101906104d59190611fb0565b6105f66115d9565b61062657335b604051631564c0e160e11b81526001600160a01b0390911660048201526024015b60405180910390fd5b61062e611662565b818161063a82826116d1565b33610646868686611733565b60035461065d906001600160a01b031682886117cf565b600354604080516001600160a01b03928316815260208101899052918316917fd5e872c5ecfb1bb8820b2e6a20e31b883682282da886621541f71e31ec11947e910160405180910390a25050506106b261182e565b505050565b6106bf611662565b306001600160a01b031663372709366040518163ffffffff1660e01b8152600401602060405180830381865afa1580156106fb573d5f5f3e3d5ffd5b505050506040513d601f19601f8201168201806040525081019061071f9190611fb0565b6107276115d9565b610846575f3390505f306001600160a01b031663117d8ae06040518163ffffffff1660e01b8152600401602060405180830381865afa15801561076c573d5f5f3e3d5ffd5b505050506040513d601f19601f820116820180604052508101906107909190611fb0565b6001600160a01b0316826001600160a01b0316149050806108435760405163d25dd10160e01b81526001600160a01b0383811660048301525f919085169063d25dd10190602401602060405180830381865afa1580156107f2573d5f5f3e3d5ffd5b505050506040513d601f19601f820116820180604052508101906108169190611fcb565b90508061084157604051638f7a567d60e01b81526001600160a01b038416600482015260240161061d565b505b50505b828261085282826116d1565b600354339061086c906001600160a01b031682308a611858565b610877878787611891565b600354604080516001600160a01b039283168152602081018a9052918316917fcbaa1442ac205415c9d69643e7b60ec73d1de35dbc807c21ec288c70ddc4207b910160405180910390a2505050506106b261182e565b6108d56115d9565b6108df57336105fc565b60098190556040518181527fd3c6d0ab315f2f1352f036cd9f401b49e38e1b90907e195225e8105f9a0b6f02906020015b60405180910390a150565b5f7f00000000000000000000000000000000000000000000000000000000000000006001600160a01b0316635b0f83f36040518163ffffffff1660e01b8152600401602060405180830381865afa1580156105ca573d5f5f3e3d5ffd5b5f7f00000000000000000000000000000000000000000000000000000000000000006001600160a01b03166361d027b36040518163ffffffff1660e01b8152600401602060405180830381865afa1580156105ca573d5f5f3e3d5ffd5b6109dd6115d9565b6109e757336105fc565b60058190556040518181527ffbe2d5c01ea8ba5596d6c4e6c82c6d4a0a0ee1128689993a4a5ba0169273d69f90602001610910565b5f8282604051602001610a30929190611fea565b60405160208183030381529060405280519060200120905092915050565b606080306001600160a01b031663117d8ae06040518163ffffffff1660e01b8152600401602060405180830381865afa158015610a8d573d5f5f3e3d5ffd5b505050506040513d601f19601f82011682018060405250810190610ab19190611fb0565b6001600160a01b0316336001600160a01b031614610af057335b604051631184b31b60e21b81526001600160a01b03909116600482015260240161061d565b610af8611662565b825167ffffffffffffffff811115610b1257610b12611c02565b604051908082528060200260200182016040528015610b3b578160200160208202803683370190505b509150825167ffffffffffffffff811115610b5857610b58611c02565b604051908082528060200260200182016040528015610b81578160200160208202803683370190505b506003546040516370a0823160e01b81523060048201529192505f916001600160a01b03909116906370a0823190602401602060405180830381865afa158015610bcd573d5f5f3e3d5ffd5b505050506040513d601f19601f82011682018060405250810190610bf19190611f61565b1115610db557600154604080516330fe427560e21b815290515f926001600160a01b03169163c3f909d49160048083019260a09291908290030181865afa158015610c3e573d5f5f3e3d5ffd5b505050506040513d601f19601f82011682018060405250810190610c62919061202d565b516003546040516370a0823160e01b8152306004820152919250610ce79183916001600160a01b0316906370a0823190602401602060405180830381865afa158015610cb0573d5f5f3e3d5ffd5b505050506040513d601f19601f82011682018060405250810190610cd49190611f61565b6003546001600160a01b031691906118e4565b6003546040516370a0823160e01b81523060048201526001600160a01b0383811692632db6d399929116906370a0823190602401602060405180830381865afa158015610d36573d5f5f3e3d5ffd5b505050506040513d601f19601f82011682018060405250810190610d5a9190611f61565b60405180602001604052805f8152506040518363ffffffff1660e01b8152600401610d869291906120aa565b5f604051808303815f87803b158015610d9d575f5ffd5b505af1158015610daf573d5f5f3e3d5ffd5b50505050505b5f5b8351811015610f83575f848281518110610dd357610dd36120ca565b60209081029190910101516040516370a0823160e01b81523060048201526001600160a01b03909116906370a0823190602401602060405180830381865afa158015610e21573d5f5f3e3d5ffd5b505050506040513d601f19601f82011682018060405250810190610e459190611f61565b90508015610f7a57610f0e610e5861056d565b868481518110610e6a57610e6a6120ca565b60209081029190910101516040516370a0823160e01b81523060048201526001600160a01b03909116906370a0823190602401602060405180830381865afa158015610eb8573d5f5f3e3d5ffd5b505050506040513d601f19601f82011682018060405250810190610edc9190611f61565b878581518110610eee57610eee6120ca565b60200260200101516001600160a01b03166117cf9092919063ffffffff16565b848281518110610f2057610f206120ca565b6020026020010151848381518110610f3a57610f3a6120ca565b60200260200101906001600160a01b031690816001600160a01b03168152505080838381518110610f6d57610f6d6120ca565b6020026020010181815250505b50600101610db7565b5080604051610f9291906120de565b604051809103902082604051610fa89190612113565b604051908190038120907f46b8771620f6acf56cb03d3e835ea8024c7dcbcf05fcc3f6ade9e19d1a3e212b905f90a3610fdf61182e565b915091565b60018054600254600354600454600554600654600780546001600160a01b0397881698968816979095169593949293919261101e90611f78565b80601f016020809104026020016040519081016040528092919081815260200182805461104a90611f78565b80156110955780601f1061106c57610100808354040283529160200191611095565b820191905f5260205f20905b81548152906001019060200180831161107857829003601f168201915b505050506007830154600890930154919260ff1691905089565b5f7f00000000000000000000000000000000000000000000000000000000000000006001600160a01b0316637aaceb956040518163ffffffff1660e01b8152600401602060405180830381865afa1580156105ca573d5f5f3e3d5ffd5b6111146115d9565b61111e57336105fc565b60048190556040518181527f333b26cca69716ad4680ddb07663f5bfb4f06045671f336af9a83690a3ae00f990602001610910565b61115b6115d9565b61116557336105fc565b600180546001600160a01b031916339081179091556040519081527f55489ce0259bd691120d8860861be1c401c7c16a3cd268d21045756af4ecc5ca906020015b60405180910390a1565b6111b86115d9565b6111c257336105fc565b60068190556040518181527fb6ac66853c4e59c71e118d25ab494bb847c4e5eb0c8894898c5343e6f61afc1290602001610910565b6111ff6115d9565b61120957336105fc565b818161121582826116d1565b611220888585611733565b60035460405163095ea7b360e01b81526001600160a01b038981166004830152602482018b90529091169063095ea7b3906044016020604051808303815f875af1158015611270573d5f5f3e3d5ffd5b505050506040513d601f19601f820116820180604052508101906112949190611fcb565b50604051632db6d39960e01b81526001600160a01b03881690632db6d399906112c5908b908a908a90600401612146565b5f604051808303815f87803b1580156112dc575f5ffd5b505af11580156112ee573d5f5f3e3d5ffd5b5050600354604080516001600160a01b039283168152602081018d9052918b1693503092507f9f784fc02a186f1c98b2d9f15fda084da27cdd291a3785d978f91911d880516b910160405180910390a35050505050505050565b60408051610120810182525f8082526020820181905291810182905260608082018390526080820183905260a0820183905260c082015260e081018290526101008101919091526040805161012081018252600180546001600160a01b0390811683526002548116602084015260035416928201929092526004546060820152600554608082015260065460a08201526007805491929160c0840191906113ee90611f78565b80601f016020809104026020016040519081016040528092919081815260200182805461141a90611f78565b80156114655780601f1061143c57610100808354040283529160200191611465565b820191905f5260205f20905b81548152906001019060200180831161144857829003601f168201915b5050509183525050600782015460ff1615156020820152600890910154604090910152919050565b606080306001600160a01b031663117d8ae06040518163ffffffff1660e01b8152600401602060405180830381865afa1580156114cc573d5f5f3e3d5ffd5b505050506040513d601f19601f820116820180604052508101906114f09190611fb0565b6001600160a01b0316336001600160a01b03161461150e5733610acb565b611516611662565b6115208484611973565b60405191935091506115339082906120de565b6040518091039020826040516115499190612113565b604051908190038120907f3e3e7958121b3e39c7a49392d1aa9cdce870c2a059744f9e15cf66fff7865455905f90a361158061182e565b9250929050565b61158f6115d9565b61159957336105fc565b600180546001600160a01b03191690556040513381527f7cb941d7b1708e5b3bcd35ca960d6c6311188cec18886e5b67630552676b0487906020016111a6565b5f80546001600160a01b03166391d148546115f5600230610a1c565b336040516001600160e01b031960e085901b16815260048101929092526001600160a01b03166024820152604401602060405180830381865afa15801561163e573d5f5f3e3d5ffd5b505050506040513d601f19601f820116820180604052508101906104d59190611fcb565b7f9b779b17422d0df92223018b32b4d1fa46e071723d6817e2486d003becc55f005c156116a257604051633ee5aeb560e01b815260040160405180910390fd5b6116cf60017f9b779b17422d0df92223018b32b4d1fa46e071723d6817e2486d003becc55f005b90611a11565b565b80158015906116e3575060085460ff16155b1561170157604051630cd0fdf960e01b815260040160405180910390fd5b80158015611711575060085460ff165b1561172f5760405163332863a960e11b815260040160405180910390fd5b5050565b604051632d182be560e21b815260048101849052306024820181905260448201527f00000000000000000000000000000000000000000000000000000000000000006001600160a01b03169063b460af94906064015b6020604051808303815f875af11580156117a5573d5f5f3e3d5ffd5b505050506040513d601f19601f820116820180604052508101906117c99190611f61565b50505050565b6040516001600160a01b038381166024830152604482018390526106b291859182169063a9059cbb906064015b604051602081830303815290604052915060e01b6020820180516001600160e01b038381831617835250505050611a18565b6116cf5f7f9b779b17422d0df92223018b32b4d1fa46e071723d6817e2486d003becc55f006116c9565b6040516001600160a01b0384811660248301528381166044830152606482018390526117c99186918216906323b872dd906084016117fc565b604051636e553f6560e01b8152600481018490523060248201527f00000000000000000000000000000000000000000000000000000000000000006001600160a01b031690636e553f6590604401611789565b604080516001600160a01b038416602482015260448082018490528251808303909101815260649091019091526020810180516001600160e01b031663095ea7b360e01b1790526119358482611a84565b6117c9576040516001600160a01b0384811660248301525f604483015261196991869182169063095ea7b3906064016117fc565b6117c98482611a18565b6040805160018082528183019092526060918291906020808301908036833750506040805160018082528183019092529294509050602080830190803683370190505090505f825f815181106119cb576119cb6120ca565b60200260200101906001600160a01b031690816001600160a01b0316815250505f815f815181106119fe576119fe6120ca565b6020026020010181815250509250929050565b80825d5050565b5f5f60205f8451602086015f885af180611a37576040513d5f823e3d81fd5b50505f513d91508115611a4e578060011415611a5b565b6001600160a01b0384163b155b156117c957604051635274afe760e01b81526001600160a01b038516600482015260240161061d565b5f5f5f5f60205f8651602088015f8a5af192503d91505f519050828015611ac357508115611ab55780600114611ac3565b5f866001600160a01b03163b115b9695505050505050565b5f81518084528060208401602086015e5f602082860101526020601f19601f83011685010191505092915050565b602081525f611b0d6020830184611acd565b9392505050565b5f5f83601f840112611b24575f5ffd5b50813567ffffffffffffffff811115611b3b575f5ffd5b602083019150836020828501011115611580575f5ffd5b5f5f5f60408486031215611b64575f5ffd5b83359250602084013567ffffffffffffffff811115611b81575f5ffd5b611b8d86828701611b14565b9497909650939450505050565b5f60208284031215611baa575f5ffd5b5035919050565b6001600160a01b0381168114611bc5575f5ffd5b50565b5f5f60408385031215611bd9575f5ffd5b823560038110611be7575f5ffd5b91506020830135611bf781611bb1565b809150509250929050565b634e487b7160e01b5f52604160045260245ffd5b604051601f8201601f1916810167ffffffffffffffff81118282101715611c3f57611c3f611c02565b604052919050565b5f60208284031215611c57575f5ffd5b813567ffffffffffffffff811115611c6d575f5ffd5b8201601f81018413611c7d575f5ffd5b803567ffffffffffffffff811115611c9757611c97611c02565b8060051b611ca760208201611c16565b91825260208184018101929081019087841115611cc2575f5ffd5b6020850194505b83851015611cf05784359250611cde83611bb1565b82825260209485019490910190611cc9565b979650505050505050565b604080825283519082018190525f9060208501906060840190835b81811015611d3d5783516001600160a01b0316835260209384019390920191600101611d16565b5050838103602080860191909152855180835291810192508501905f5b81811015611d78578251845260209384019390920191600101611d5a565b50919695505050505050565b6001600160a01b038a81168252898116602083015288166040820152606081018790526080810186905260a0810185905261012060c082018190525f90611dcd90830186611acd565b93151560e0830152506101000152979650505050505050565b5f5f5f5f5f5f60808789031215611dfb575f5ffd5b863595506020870135611e0d81611bb1565b9450604087013567ffffffffffffffff811115611e28575f5ffd5b611e3489828a01611b14565b909550935050606087013567ffffffffffffffff811115611e53575f5ffd5b611e5f89828a01611b14565b979a9699509497509295939492505050565b60208152611e8b6020820183516001600160a01b03169052565b5f6020830151611ea660408401826001600160a01b03169052565b5060408301516001600160a01b03811660608401525060608301516080830152608083015160a083015260a083015160c083015260c083015161012060e0840152611ef5610140840182611acd565b905060e0840151611f0b61010085018215159052565b506101008401516101208401528091505092915050565b5f5f60208385031215611f33575f5ffd5b823567ffffffffffffffff811115611f49575f5ffd5b611f5585828601611b14565b90969095509350505050565b5f60208284031215611f71575f5ffd5b5051919050565b600181811c90821680611f8c57607f821691505b602082108103611faa57634e487b7160e01b5f52602260045260245ffd5b50919050565b5f60208284031215611fc0575f5ffd5b8151611b0d81611bb1565b5f60208284031215611fdb575f5ffd5b81518015158114611b0d575f5ffd5b5f6003841061200757634e487b7160e01b5f52602160045260245ffd5b5060f89290921b825260601b6bffffffffffffffffffffffff1916600182015260150190565b5f60a082840312801561203e575f5ffd5b5060405160a0810167ffffffffffffffff8111828210171561206257612062611c02565b604052825161207081611bb1565b8152602083810151908201526040808401519082015260608084015190820152608083015161209e81611bb1565b60808201529392505050565b828152604060208201525f6120c26040830184611acd565b949350505050565b634e487b7160e01b5f52603260045260245ffd5b81515f90829060208501835b828110156121085781518452602093840193909101906001016120ea565b509195945050505050565b81515f90829060208501835b828110156121085781516001600160a01b031684526020938401939091019060010161211f565b83815260406020820152816040820152818360608301375f818301606090810191909152601f909201601f191601019291505056fea2646970667358221220ddb76e2a39b87ca0b0698980b1dc0763388fe9e20cbe79d7b330ee296b17553f64736f6c634300081c0033","linkReferences":{}},"methodIdentifiers":{"board(uint256,bytes)":"2db6d399","commander()":"37270936","config()":"79502c55","configurationManager()":"c9c667e3","depositCap()":"dbd5edc7","disembark(uint256,bytes)":"13c408f8","generateRole(uint8,address)":"69b3054b","getConfig()":"c3f909d4","harborCommand()":"5b0f83f3","harvest(bytes)":"ce5c7f61","maxDepositPercentageOfTVL()":"bdcdd882","maxRebalanceInflow()":"ad5a356f","maxRebalanceOutflow()":"3194549e","move(uint256,address,bytes,bytes)":"c38a6f0b","name()":"06fdde03","raft()":"117d8ae0","registerFleetCommander()":"8a8b9976","requiresKeeperData()":"303dbaf3","setDepositCap(uint256)":"86651203","setMaxDepositPercentageOfTVL(uint256)":"4fc7fac3","setMaxRebalanceInflow(uint256)":"92f5e832","setMaxRebalanceOutflow(uint256)":"61f5cd8b","sweep(address[])":"780469bb","tipJar()":"7aaceb95","token()":"fc0c546a","totalAssets()":"01e1d114","treasury()":"61d027b3","unregisterFleetCommander()":"ebf31131","vault()":"fbfa77cf"},"id":202}