{"abi":[{"type":"constructor","inputs":[{"name":"_vault","type":"address","internalType":"address"},{"name":"_params","type":"tuple","internalType":"struct ArkParams","components":[{"name":"name","type":"string","internalType":"string"},{"name":"accessManager","type":"address","internalType":"address"},{"name":"configurationManager","type":"address","internalType":"address"},{"name":"token","type":"address","internalType":"address"},{"name":"depositCap","type":"uint256","internalType":"uint256"},{"name":"maxRebalanceOutflow","type":"uint256","internalType":"uint256"},{"name":"maxRebalanceInflow","type":"uint256","internalType":"uint256"}]}],"stateMutability":"nonpayable"},{"type":"function","name":"DEFAULT_ADMIN_ROLE","inputs":[],"outputs":[{"name":"","type":"bytes32","internalType":"bytes32"}],"stateMutability":"view"},{"type":"function","name":"MAX_UINT256","inputs":[],"outputs":[{"name":"","type":"uint256","internalType":"uint256"}],"stateMutability":"view"},{"type":"function","name":"RAY","inputs":[],"outputs":[{"name":"","type":"uint256","internalType":"uint256"}],"stateMutability":"view"},{"type":"function","name":"SECONDS_PER_DAY","inputs":[],"outputs":[{"name":"","type":"uint256","internalType":"uint256"}],"stateMutability":"view"},{"type":"function","name":"SECONDS_PER_YEAR","inputs":[],"outputs":[{"name":"","type":"uint256","internalType":"uint256"}],"stateMutability":"view"},{"type":"function","name":"WAD","inputs":[],"outputs":[{"name":"","type":"uint256","internalType":"uint256"}],"stateMutability":"view"},{"type":"function","name":"WAD_TO_RAY","inputs":[],"outputs":[{"name":"","type":"uint256","internalType":"uint256"}],"stateMutability":"view"},{"type":"function","name":"board","inputs":[{"name":"amount","type":"uint256","internalType":"uint256"}],"outputs":[],"stateMutability":"nonpayable"},{"type":"function","name":"commander","inputs":[],"outputs":[{"name":"","type":"address","internalType":"address"}],"stateMutability":"view"},{"type":"function","name":"config","inputs":[],"outputs":[{"name":"commander","type":"address","internalType":"address"},{"name":"raft","type":"address","internalType":"address"},{"name":"token","type":"address","internalType":"contract IERC20"},{"name":"depositCap","type":"uint256","internalType":"uint256"},{"name":"maxRebalanceOutflow","type":"uint256","internalType":"uint256"},{"name":"maxRebalanceInflow","type":"uint256","internalType":"uint256"},{"name":"name","type":"string","internalType":"string"}],"stateMutability":"view"},{"type":"function","name":"depositCap","inputs":[],"outputs":[{"name":"","type":"uint256","internalType":"uint256"}],"stateMutability":"view"},{"type":"function","name":"disembark","inputs":[{"name":"amount","type":"uint256","internalType":"uint256"}],"outputs":[],"stateMutability":"nonpayable"},{"type":"function","name":"getRoleAdmin","inputs":[{"name":"role","type":"bytes32","internalType":"bytes32"}],"outputs":[{"name":"","type":"bytes32","internalType":"bytes32"}],"stateMutability":"view"},{"type":"function","name":"grantCommanderRole","inputs":[{"name":"account","type":"address","internalType":"address"}],"outputs":[],"stateMutability":"nonpayable"},{"type":"function","name":"grantRole","inputs":[{"name":"","type":"bytes32","internalType":"bytes32"},{"name":"","type":"address","internalType":"address"}],"outputs":[],"stateMutability":"view"},{"type":"function","name":"harvest","inputs":[{"name":"rewardToken","type":"address","internalType":"address"},{"name":"additionalData","type":"bytes","internalType":"bytes"}],"outputs":[{"name":"","type":"uint256","internalType":"uint256"}],"stateMutability":"nonpayable"},{"type":"function","name":"hasRole","inputs":[{"name":"role","type":"bytes32","internalType":"bytes32"},{"name":"account","type":"address","internalType":"address"}],"outputs":[{"name":"","type":"bool","internalType":"bool"}],"stateMutability":"view"},{"type":"function","name":"manager","inputs":[],"outputs":[{"name":"","type":"address","internalType":"contract IConfigurationManager"}],"stateMutability":"view"},{"type":"function","name":"maxRebalanceInflow","inputs":[],"outputs":[{"name":"","type":"uint256","internalType":"uint256"}],"stateMutability":"view"},{"type":"function","name":"maxRebalanceOutflow","inputs":[],"outputs":[{"name":"","type":"uint256","internalType":"uint256"}],"stateMutability":"view"},{"type":"function","name":"move","inputs":[{"name":"amount","type":"uint256","internalType":"uint256"},{"name":"receiverArk","type":"address","internalType":"address"}],"outputs":[],"stateMutability":"nonpayable"},{"type":"function","name":"name","inputs":[],"outputs":[{"name":"","type":"string","internalType":"string"}],"stateMutability":"view"},{"type":"function","name":"poke","inputs":[],"outputs":[],"stateMutability":"nonpayable"},{"type":"function","name":"raft","inputs":[],"outputs":[{"name":"","type":"address","internalType":"address"}],"stateMutability":"view"},{"type":"function","name":"rate","inputs":[],"outputs":[{"name":"","type":"uint256","internalType":"uint256"}],"stateMutability":"view"},{"type":"function","name":"renounceRole","inputs":[{"name":"role","type":"bytes32","internalType":"bytes32"},{"name":"callerConfirmation","type":"address","internalType":"address"}],"outputs":[],"stateMutability":"nonpayable"},{"type":"function","name":"revokeCommanderRole","inputs":[{"name":"account","type":"address","internalType":"address"}],"outputs":[],"stateMutability":"nonpayable"},{"type":"function","name":"revokeRole","inputs":[{"name":"","type":"bytes32","internalType":"bytes32"},{"name":"","type":"address","internalType":"address"}],"outputs":[],"stateMutability":"view"},{"type":"function","name":"setDepositCap","inputs":[{"name":"newDepositCap","type":"uint256","internalType":"uint256"}],"outputs":[],"stateMutability":"nonpayable"},{"type":"function","name":"setMaxRebalanceInflow","inputs":[{"name":"newMaxRebalanceInflow","type":"uint256","internalType":"uint256"}],"outputs":[],"stateMutability":"nonpayable"},{"type":"function","name":"setMaxRebalanceOutflow","inputs":[{"name":"newMaxRebalanceOutflow","type":"uint256","internalType":"uint256"}],"outputs":[],"stateMutability":"nonpayable"},{"type":"function","name":"supportsInterface","inputs":[{"name":"interfaceId","type":"bytes4","internalType":"bytes4"}],"outputs":[{"name":"","type":"bool","internalType":"bool"}],"stateMutability":"view"},{"type":"function","name":"token","inputs":[],"outputs":[{"name":"","type":"address","internalType":"contract IERC20"}],"stateMutability":"view"},{"type":"function","name":"totalAssets","inputs":[],"outputs":[{"name":"","type":"uint256","internalType":"uint256"}],"stateMutability":"view"},{"type":"function","name":"vault","inputs":[],"outputs":[{"name":"","type":"address","internalType":"contract IERC4626"}],"stateMutability":"view"},{"type":"event","name":"ArkPoked","inputs":[{"name":"currentPrice","type":"uint256","indexed":false,"internalType":"uint256"},{"name":"timestamp","type":"uint256","indexed":false,"internalType":"uint256"}],"anonymous":false},{"type":"event","name":"ArkPokedNoChange","inputs":[],"anonymous":false},{"type":"event","name":"ArkPokedTooSoon","inputs":[],"anonymous":false},{"type":"event","name":"Boarded","inputs":[{"name":"commander","type":"address","indexed":true,"internalType":"address"},{"name":"token","type":"address","indexed":false,"internalType":"address"},{"name":"amount","type":"uint256","indexed":false,"internalType":"uint256"}],"anonymous":false},{"type":"event","name":"DepositCapUpdated","inputs":[{"name":"newCap","type":"uint256","indexed":false,"internalType":"uint256"}],"anonymous":false},{"type":"event","name":"Disembarked","inputs":[{"name":"commander","type":"address","indexed":true,"internalType":"address"},{"name":"token","type":"address","indexed":false,"internalType":"address"},{"name":"amount","type":"uint256","indexed":false,"internalType":"uint256"}],"anonymous":false},{"type":"event","name":"Harvested","inputs":[{"name":"amount","type":"uint256","indexed":false,"internalType":"uint256"}],"anonymous":false},{"type":"event","name":"MaxRebalanceInflowUpdated","inputs":[{"name":"newMaxInflow","type":"uint256","indexed":false,"internalType":"uint256"}],"anonymous":false},{"type":"event","name":"MaxRebalanceOutflowUpdated","inputs":[{"name":"newMaxOutflow","type":"uint256","indexed":false,"internalType":"uint256"}],"anonymous":false},{"type":"event","name":"Moved","inputs":[{"name":"from","type":"address","indexed":true,"internalType":"address"},{"name":"to","type":"address","indexed":true,"internalType":"address"},{"name":"token","type":"address","indexed":false,"internalType":"address"},{"name":"amount","type":"uint256","indexed":false,"internalType":"uint256"}],"anonymous":false},{"type":"event","name":"RaftUpdated","inputs":[{"name":"newRaft","type":"address","indexed":false,"internalType":"address"}],"anonymous":false},{"type":"event","name":"RoleAdminChanged","inputs":[{"name":"role","type":"bytes32","indexed":true,"internalType":"bytes32"},{"name":"previousAdminRole","type":"bytes32","indexed":true,"internalType":"bytes32"},{"name":"newAdminRole","type":"bytes32","indexed":true,"internalType":"bytes32"}],"anonymous":false},{"type":"event","name":"RoleGranted","inputs":[{"name":"role","type":"bytes32","indexed":true,"internalType":"bytes32"},{"name":"account","type":"address","indexed":true,"internalType":"address"},{"name":"sender","type":"address","indexed":true,"internalType":"address"}],"anonymous":false},{"type":"event","name":"RoleRevoked","inputs":[{"name":"role","type":"bytes32","indexed":true,"internalType":"bytes32"},{"name":"account","type":"address","indexed":true,"internalType":"address"},{"name":"sender","type":"address","indexed":true,"internalType":"address"}],"anonymous":false},{"type":"error","name":"AccessControlBadConfirmation","inputs":[]},{"type":"error","name":"AccessControlUnauthorizedAccount","inputs":[{"name":"account","type":"address","internalType":"address"},{"name":"neededRole","type":"bytes32","internalType":"bytes32"}]},{"type":"error","name":"AddressEmptyCode","inputs":[{"name":"target","type":"address","internalType":"address"}]},{"type":"error","name":"AddressInsufficientBalance","inputs":[{"name":"account","type":"address","internalType":"address"}]},{"type":"error","name":"CallerIsNotAuthorizedToBoard","inputs":[{"name":"caller","type":"address","internalType":"address"}]},{"type":"error","name":"CallerIsNotCommander","inputs":[{"name":"caller","type":"address","internalType":"address"}]},{"type":"error","name":"CallerIsNotGovernor","inputs":[{"name":"caller","type":"address","internalType":"address"}]},{"type":"error","name":"CannotAddCommanderToArkWithCommander","inputs":[]},{"type":"error","name":"CannotDeployArkWithEmptyName","inputs":[]},{"type":"error","name":"CannotDeployArkWithoutConfigurationManager","inputs":[]},{"type":"error","name":"CannotDeployArkWithoutRaft","inputs":[]},{"type":"error","name":"CannotDeployArkWithoutToken","inputs":[]},{"type":"error","name":"CannotRemoveCommanderFromArkWithAssets","inputs":[]},{"type":"error","name":"DirectGrantIsDisabled","inputs":[{"name":"caller","type":"address","internalType":"address"}]},{"type":"error","name":"DirectRevokeIsDisabled","inputs":[{"name":"caller","type":"address","internalType":"address"}]},{"type":"error","name":"ERC4626AssetMismatch","inputs":[]},{"type":"error","name":"FailedInnerCall","inputs":[]},{"type":"error","name":"InvalidAccessManagerAddress","inputs":[{"name":"invalidAddress","type":"address","internalType":"address"}]},{"type":"error","name":"InvalidVaultAddress","inputs":[]},{"type":"error","name":"SafeERC20FailedOperation","inputs":[{"name":"token","type":"address","internalType":"address"}]}],"bytecode":{"object":"0x60a060405234801561000f575f80fd5b5060405161204f38038061204f83398101604081905261002e91610595565b60208101518190806001600160a01b038116610064576040516347bd7c1d60e01b81525f60048201526024015b60405180910390fd5b6040516301ffc9a760e01b815263f87138b560e01b60048201526001600160a01b038216906301ffc9a790602401602060405180830381865afa1580156100ad573d5f803e3d5ffd5b505050506040513d601f19601f820116820180604052508101906100d19190610666565b6100f9576040516347bd7c1d60e01b81526001600160a01b038216600482015260240161005b565b5f80546001600160a01b0319166001600160a01b0392831617905560408301511690506101395760405163b53c493160e01b815260040160405180910390fd5b60608101516001600160a01b0316610167576040516001620a810f60e11b0319815260040160405180910390fd5b8051515f036101895760405163268c072960e01b815260040160405180910390fd5b604081810151600980546001600160a01b0319166001600160a01b0390921691821790558151628bec5760e51b815291515f9263117d8ae0916004808301926020929190829003018187875af11580156101e5573d5f803e3d5ffd5b505050506040513d601f19601f82011682018060405250810190610209919061068c565b6001600160a01b03160361023057604051633a4f9cdb60e21b815260040160405180910390fd5b6040518060e001604052805f6001600160a01b0316815260200160095f9054906101000a90046001600160a01b03166001600160a01b031663117d8ae06040518163ffffffff1660e01b81526004016020604051808303815f875af115801561029b573d5f803e3d5ffd5b505050506040513d601f19601f820116820180604052508101906102bf919061068c565b6001600160a01b039081168252606080850151821660208085019190915260808087015160408087019190915260a0808901518588015260c0808a0151848901528951978201979097528751600280549188166001600160a01b03199283161781559489015160038054918916918316919091179055918801516004805491909716921691909117909455918501516005559084015160065590830151600755908201516008906103709082610729565b5050506001600160a01b038316905061039c57604051630306120160e01b815260040160405180910390fd5b6001600160a01b03808316608081905260048054604080516338d52e0f60e01b8152905191909416936338d52e0f92818101926020929091908290030181865afa1580156103ec573d5f803e3d5ffd5b505050506040513d601f19601f82011682018060405250810190610410919061068c565b6001600160a01b03161461043757604051632df548ff60e11b815260040160405180910390fd5b6004805460405163095ea7b360e01b81526001600160a01b03858116938201939093525f19602482015291169063095ea7b3906044016020604051808303815f875af1158015610489573d5f803e3d5ffd5b505050506040513d601f19601f820116820180604052508101906104ad9190610666565b5050506107e3565b80516001600160a01b03811681146104cb575f80fd5b919050565b634e487b7160e01b5f52604160045260245ffd5b60405160e081016001600160401b0381118282101715610506576105066104d0565b60405290565b5f82601f83011261051b575f80fd5b81516001600160401b03811115610534576105346104d0565b604051601f8201601f19908116603f011681016001600160401b0381118282101715610562576105626104d0565b604052818152838201602001851015610579575f80fd5b8160208501602083015e5f918101602001919091529392505050565b5f80604083850312156105a6575f80fd5b6105af836104b5565b60208401519092506001600160401b038111156105ca575f80fd5b830160e081860312156105db575f80fd5b6105e36104e4565b81516001600160401b038111156105f8575f80fd5b6106048782850161050c565b825250610613602083016104b5565b6020820152610624604083016104b5565b6040820152610635606083016104b5565b60608201526080828101519082015260a0808301519082015260c09182015191810191909152919491935090915050565b5f60208284031215610676575f80fd5b81518015158114610685575f80fd5b9392505050565b5f6020828403121561069c575f80fd5b610685826104b5565b600181811c908216806106b957607f821691505b6020821081036106d757634e487b7160e01b5f52602260045260245ffd5b50919050565b601f82111561072457805f5260205f20601f840160051c810160208510156107025750805b601f840160051c820191505b81811015610721575f815560010161070e565b50505b505050565b81516001600160401b03811115610742576107426104d0565b6107568161075084546106a5565b846106dd565b6020601f821160018114610788575f83156107715750848201515b5f19600385901b1c1916600184901b178455610721565b5f84815260208120601f198516915b828110156107b75787850151825560209485019460019092019101610797565b50848210156107d457868401515f19600387901b60f8161c191681555b50505050600190811b01905550565b60805161183f6108105f395f81816104530152818161049d015281816110a301526111ab015261183f5ff3fe608060405234801561000f575f80fd5b5060043610610208575f3560e01c806361f5cd8b1161011f5780639403e41f116100a9578063d8a8e03a11610079578063d8a8e03a14610428578063dbd5edc71461043b578063e6a69ab814610443578063fbfa77cf1461044e578063fc0c546a14610475575f80fd5b80639403e41f146103f3578063a217fddf14610406578063ad5a356f1461040d578063d547741f14610415575f80fd5b806379502c55116100ef57806379502c551461038c57806381d3ce26146103a757806386651203146103ba57806391d14854146103cd57806392f5e832146103e0575f80fd5b806361f5cd8b1461034d5780636a146024146103605780637399bfe81461036f57806374f0314f14610382575f80fd5b80632c4e722e116101a057806336568abe1161017057806336568abe146102f05780633727093614610303578063481c6a75146103145780634dd47eba14610327578063552033c41461033a575f80fd5b80632c4e722e146102c75780632f2ff15d146102cd5780633194549e146102e057806333a581d2146102e8575f80fd5b8063163c8381116101db578063163c838114610284578063181783581461028f578063248a9ca31461029157806328ed6e3f146102b4575f80fd5b806301e1d1141461020c57806301ffc9a71461022757806306fdde031461024a578063117d8ae01461025f575b5f80fd5b610214610486565b6040519081526020015b60405180910390f35b61023a6102353660046115ba565b610578565b604051901515815260200161021e565b6102526105ae565b60405161021e919061160f565b6003546001600160a01b03165b6040516001600160a01b03909116815260200161021e565b610214633b9aca0081565b005b61021461029f366004611621565b5f908152600160208190526040909120015490565b61028f6102c2366004611621565b610641565b5f610214565b61028f6102db36600461164c565b6107eb565b600654610214565b6102145f1981565b61028f6102fe36600461164c565b610806565b6002546001600160a01b031661026c565b60095461026c906001600160a01b031681565b61028f610335366004611621565b61083e565b6102146b033b2e3c9fd0803ce800000081565b61028f61035b366004611621565b6108d4565b610214670de0b6b3a764000081565b61021461037d36600461167a565b610937565b6102146201518081565b6103946109bd565b60405161021e97969594939291906116fa565b61028f6103b536600461174f565b610a78565b61028f6103c8366004611621565b610bed565b61023a6103db36600461164c565b610c49565b61028f6103ee366004611621565b610c73565b61028f61040136600461174f565b610ccf565b6102145f81565b600754610214565b61028f61042336600461164c565b610e40565b61028f61043636600461164c565b610e5b565b600554610214565b6102146301e1338081565b61026c7f000000000000000000000000000000000000000000000000000000000000000081565b6004546001600160a01b031661026c565b6040516370a0823160e01b81523060048201525f907f00000000000000000000000000000000000000000000000000000000000000006001600160a01b0316906307a2d13a9082906370a0823190602401602060405180830381865afa1580156104f2573d5f803e3d5ffd5b505050506040513d601f19601f82011682018060405250810190610516919061176a565b6040518263ffffffff1660e01b815260040161053491815260200190565b602060405180830381865afa15801561054f573d5f803e3d5ffd5b505050506040513d601f19601f82011682018060405250810190610573919061176a565b905090565b5f6001600160e01b03198216637965db0b60e01b14806105a857506301ffc9a760e01b6001600160e01b03198316145b92915050565b6060600260060180546105c090611781565b80601f01602080910402602001604051908101604052809291908181526020018280546105ec90611781565b80156106375780601f1061060e57610100808354040283529160200191610637565b820191905f5260205f20905b81548152906001019060200180831161061a57829003601f168201915b5050505050905090565b6002546001600160a01b0316610655610fa7565b610779575f3390505f306001600160a01b031663117d8ae06040518163ffffffff1660e01b8152600401602060405180830381865afa15801561069a573d5f803e3d5ffd5b505050506040513d601f19601f820116820180604052508101906106be91906117b9565b6001600160a01b0316826001600160a01b0316149050806107765760405163d25dd10160e01b81526001600160a01b0383811660048301525f919085169063d25dd10190602401602060405180830381865afa158015610720573d5f803e3d5ffd5b505050506040513d601f19601f8201168201806040525081019061074491906117d4565b90508061077457604051638f7a567d60e01b81526001600160a01b03841660048201526024015b60405180910390fd5b505b50505b6004543390610793906001600160a01b031682308661101a565b61079c83611087565b600454604080516001600160a01b03928316815260208101869052918316917fcbaa1442ac205415c9d69643e7b60ec73d1de35dbc807c21ec288c70ddc4207b910160405180910390a2505050565b604051630e15200f60e21b815233600482015260240161076b565b6001600160a01b038116331461082f5760405163334bd91960e11b815260040160405180910390fd5b6108398282611116565b505050565b610846610fa7565b61086557604051631564c0e160e11b815233600482015260240161076b565b3361086f82611188565b600454610886906001600160a01b031682846111e2565b600454604080516001600160a01b03928316815260208101859052918316917fd5e872c5ecfb1bb8820b2e6a20e31b883682282da886621541f71e31ec11947e910160405180910390a25050565b6108dc610fa7565b6108fb57604051631564c0e160e11b815233600482015260240161076b565b60068190556040518181527ffbe2d5c01ea8ba5596d6c4e6c82c6d4a0a0ee1128689993a4a5ba0169273d69f906020015b60405180910390a150565b5f6109b360095f9054906101000a90046001600160a01b03166001600160a01b031663117d8ae06040518163ffffffff1660e01b81526004016020604051808303815f875af115801561098c573d5f803e3d5ffd5b505050506040513d601f19601f820116820180604052508101906109b091906117b9565b50565b505f5b9392505050565b60028054600354600454600554600654600754600880546001600160a01b039788169896881697909516959394929391926109f790611781565b80601f0160208091040260200160405190810160405280929190818152602001828054610a2390611781565b8015610a6e5780601f10610a4557610100808354040283529160200191610a6e565b820191905f5260205f20905b815481529060010190602001808311610a5157829003601f168201915b5050505050905087565b5f5460408051630ccc574960e41b815290516001600160a01b03909216916391d1485491839163ccc57490916004808201926020929091908290030181865afa158015610ac7573d5f803e3d5ffd5b505050506040513d601f19601f82011682018060405250810190610aeb919061176a565b6040516001600160e01b031960e084901b1681526004810191909152336024820152604401602060405180830381865afa158015610b2b573d5f803e3d5ffd5b505050506040513d601f19601f82011682018060405250810190610b4f91906117d4565b610b6e57604051630ea7d7ed60e21b815233600482015260240161076b565b610b7781611213565b5f54604080516345b817bb60e01b81529051610be9926001600160a01b0316916345b817bb9160048083019260209291908290030181865afa158015610bbf573d5f803e3d5ffd5b505050506040513d601f19601f82011682018060405250810190610be3919061176a565b82611116565b5050565b610bf5610fa7565b610c1457604051631564c0e160e11b815233600482015260240161076b565b60058190556040518181527f333b26cca69716ad4680ddb07663f5bfb4f06045671f336af9a83690a3ae00f99060200161092c565b5f9182526001602090815260408084206001600160a01b0393909316845291905290205460ff1690565b610c7b610fa7565b610c9a57604051631564c0e160e11b815233600482015260240161076b565b60078190556040518181527fb6ac66853c4e59c71e118d25ab494bb847c4e5eb0c8894898c5343e6f61afc129060200161092c565b5f5460408051630ccc574960e41b815290516001600160a01b03909216916391d1485491839163ccc57490916004808201926020929091908290030181865afa158015610d1e573d5f803e3d5ffd5b505050506040513d601f19601f82011682018060405250810190610d42919061176a565b6040516001600160e01b031960e084901b1681526004810191909152336024820152604401602060405180830381865afa158015610d82573d5f803e3d5ffd5b505050506040513d601f19601f82011682018060405250810190610da691906117d4565b610dc557604051630ea7d7ed60e21b815233600482015260240161076b565b610dce816112a6565b5f54604080516345b817bb60e01b81529051610be9926001600160a01b0316916345b817bb9160048083019260209291908290030181865afa158015610e16573d5f803e3d5ffd5b505050506040513d601f19601f82011682018060405250810190610e3a919061176a565b826113e8565b604051636344978560e11b815233600482015260240161076b565b610e63610fa7565b610e8257604051631564c0e160e11b815233600482015260240161076b565b610e8b82611188565b6004805460405163095ea7b360e01b81526001600160a01b03848116938201939093526024810185905291169063095ea7b3906044016020604051808303815f875af1158015610edd573d5f803e3d5ffd5b505050506040513d601f19601f82011682018060405250810190610f0191906117d4565b506040516328ed6e3f60e01b8152600481018390526001600160a01b038216906328ed6e3f906024015f604051808303815f87803b158015610f41575f80fd5b505af1158015610f53573d5f803e3d5ffd5b5050600454604080516001600160a01b0392831681526020810187905291851693503092507f9f784fc02a186f1c98b2d9f15fda084da27cdd291a3785d978f91911d880516b910160405180910390a35050565b5f8054604080516345b817bb60e01b81529051610573926001600160a01b0316916345b817bb9160048083019260209291908290030181865afa158015610ff0573d5f803e3d5ffd5b505050506040513d601f19601f82011682018060405250810190611014919061176a565b33610c49565b6040516001600160a01b0384811660248301528381166044830152606482018390526110819186918216906323b872dd906084015b604051602081830303815290604052915060e01b6020820180516001600160e01b038381831617835250505050611457565b50505050565b604051636e553f6560e01b8152600481018290523060248201527f00000000000000000000000000000000000000000000000000000000000000006001600160a01b031690636e553f65906044015b6020604051808303815f875af11580156110f2573d5f803e3d5ffd5b505050506040513d601f19601f82011682018060405250810190610be9919061176a565b5f6111218383610c49565b15611181575f8381526001602090815260408083206001600160a01b0386168085529252808320805460ff1916905551339286917ff6391f5c32d9c69d2a47ea670b442974b53935d1edc7fd64eb21e047a839171b9190a45060016105a8565b505f6105a8565b604051632d182be560e21b815260048101829052306024820181905260448201527f00000000000000000000000000000000000000000000000000000000000000006001600160a01b03169063b460af94906064016110d6565b6040516001600160a01b0383811660248301526044820183905261083991859182169063a9059cbb9060640161104f565b5f306001600160a01b03166301e1d1146040518163ffffffff1660e01b8152600401602060405180830381865afa158015611250573d5f803e3d5ffd5b505050506040513d601f19601f82011682018060405250810190611274919061176a565b1115611293576040516373a075f360e01b815260040160405180910390fd5b50600280546001600160a01b0319169055565b5f5460408051630ccc574960e41b815290516001600160a01b03909216916391d1485491839163ccc57490916004808201926020929091908290030181865afa1580156112f5573d5f803e3d5ffd5b505050506040513d601f19601f82011682018060405250810190611319919061176a565b6040516001600160e01b031960e084901b1681526004810191909152336024820152604401602060405180830381865afa158015611359573d5f803e3d5ffd5b505050506040513d601f19601f8201168201806040525081019061137d91906117d4565b61139c57604051630ea7d7ed60e21b815233600482015260240161076b565b6002546001600160a01b0316156113c65760405163d32184ed60e01b815260040160405180910390fd5b600280546001600160a01b0319166001600160a01b0392909216919091179055565b5f6113f38383610c49565b611181575f8381526001602081815260408084206001600160a01b0387168086529252808420805460ff19169093179092559051339286917f2f8788117e7eff1d82e926ec794901d17c78024a50270940304540a733656f0d9190a45060016105a8565b5f61146b6001600160a01b038416836114b8565b905080515f1415801561148f57508080602001905181019061148d91906117d4565b155b1561083957604051635274afe760e01b81526001600160a01b038416600482015260240161076b565b60606109b683835f845f80856001600160a01b031684866040516114dc91906117f3565b5f6040518083038185875af1925050503d805f8114611516576040519150601f19603f3d011682016040523d82523d5f602084013e61151b565b606091505b509150915061152b868383611535565b9695505050505050565b60608261154a5761154582611591565b6109b6565b815115801561156157506001600160a01b0384163b155b1561158a57604051639996b31560e01b81526001600160a01b038516600482015260240161076b565b50806109b6565b8051156115a15780518082602001fd5b604051630a12f52160e11b815260040160405180910390fd5b5f602082840312156115ca575f80fd5b81356001600160e01b0319811681146109b6575f80fd5b5f81518084528060208401602086015e5f602082860101526020601f19601f83011685010191505092915050565b602081525f6109b660208301846115e1565b5f60208284031215611631575f80fd5b5035919050565b6001600160a01b03811681146109b0575f80fd5b5f806040838503121561165d575f80fd5b82359150602083013561166f81611638565b809150509250929050565b5f805f6040848603121561168c575f80fd5b833561169781611638565b9250602084013567ffffffffffffffff8111156116b2575f80fd5b8401601f810186136116c2575f80fd5b803567ffffffffffffffff8111156116d8575f80fd5b8660208284010111156116e9575f80fd5b939660209190910195509293505050565b6001600160a01b038881168252878116602083015286166040820152606081018590526080810184905260a0810183905260e060c082018190525f90611742908301846115e1565b9998505050505050505050565b5f6020828403121561175f575f80fd5b81356109b681611638565b5f6020828403121561177a575f80fd5b5051919050565b600181811c9082168061179557607f821691505b6020821081036117b357634e487b7160e01b5f52602260045260245ffd5b50919050565b5f602082840312156117c9575f80fd5b81516109b681611638565b5f602082840312156117e4575f80fd5b815180151581146109b6575f80fd5b5f82518060208501845e5f92019182525091905056fea264697066735822122014915e279bdb4983f1505435552ba28203d17ee071e4ae029cae152356013a9364736f6c634300081a0033","linkReferences":{}},"methodIdentifiers":{"DEFAULT_ADMIN_ROLE()":"a217fddf","MAX_UINT256()":"33a581d2","RAY()":"552033c4","SECONDS_PER_DAY()":"74f0314f","SECONDS_PER_YEAR()":"e6a69ab8","WAD()":"6a146024","WAD_TO_RAY()":"163c8381","board(uint256)":"28ed6e3f","commander()":"37270936","config()":"79502c55","depositCap()":"dbd5edc7","disembark(uint256)":"4dd47eba","getRoleAdmin(bytes32)":"248a9ca3","grantCommanderRole(address)":"9403e41f","grantRole(bytes32,address)":"2f2ff15d","harvest(address,bytes)":"7399bfe8","hasRole(bytes32,address)":"91d14854","manager()":"481c6a75","maxRebalanceInflow()":"ad5a356f","maxRebalanceOutflow()":"3194549e","move(uint256,address)":"d8a8e03a","name()":"06fdde03","poke()":"18178358","raft()":"117d8ae0","rate()":"2c4e722e","renounceRole(bytes32,address)":"36568abe","revokeCommanderRole(address)":"81d3ce26","revokeRole(bytes32,address)":"d547741f","setDepositCap(uint256)":"86651203","setMaxRebalanceInflow(uint256)":"92f5e832","setMaxRebalanceOutflow(uint256)":"61f5cd8b","supportsInterface(bytes4)":"01ffc9a7","token()":"fc0c546a","totalAssets()":"01e1d114","vault()":"fbfa77cf"},"id":148}