{"abi":[{"type":"constructor","inputs":[{"name":"_oneInchRouter","type":"address","internalType":"address"}],"stateMutability":"nonpayable"},{"type":"function","name":"depositTokens","inputs":[{"name":"asset","type":"address","internalType":"contract IERC20"},{"name":"amount","type":"uint256","internalType":"uint256"}],"outputs":[],"stateMutability":"nonpayable"},{"type":"function","name":"enterFleet","inputs":[{"name":"fleetCommander","type":"address","internalType":"address"},{"name":"inputToken","type":"address","internalType":"contract IERC20"},{"name":"amount","type":"uint256","internalType":"uint256"}],"outputs":[{"name":"shares","type":"uint256","internalType":"uint256"}],"stateMutability":"nonpayable"},{"type":"function","name":"exitFleet","inputs":[{"name":"fleetCommander","type":"address","internalType":"address"},{"name":"amount","type":"uint256","internalType":"uint256"}],"outputs":[{"name":"shares","type":"uint256","internalType":"uint256"}],"stateMutability":"nonpayable"},{"type":"function","name":"multicall","inputs":[{"name":"data","type":"bytes[]","internalType":"bytes[]"}],"outputs":[{"name":"results","type":"bytes[]","internalType":"bytes[]"}],"stateMutability":"nonpayable"},{"type":"function","name":"oneInchRouter","inputs":[],"outputs":[{"name":"","type":"address","internalType":"address"}],"stateMutability":"view"},{"type":"function","name":"owner","inputs":[],"outputs":[{"name":"","type":"address","internalType":"address"}],"stateMutability":"view"},{"type":"function","name":"renounceOwnership","inputs":[],"outputs":[],"stateMutability":"nonpayable"},{"type":"function","name":"rescueTokens","inputs":[{"name":"token","type":"address","internalType":"contract IERC20"},{"name":"to","type":"address","internalType":"address"},{"name":"amount","type":"uint256","internalType":"uint256"}],"outputs":[],"stateMutability":"nonpayable"},{"type":"function","name":"swap","inputs":[{"name":"fromToken","type":"address","internalType":"contract IERC20"},{"name":"toToken","type":"address","internalType":"contract IERC20"},{"name":"amount","type":"uint256","internalType":"uint256"},{"name":"minTokensReceived","type":"uint256","internalType":"uint256"},{"name":"swapCalldata","type":"bytes","internalType":"bytes"}],"outputs":[{"name":"swappedAmount","type":"uint256","internalType":"uint256"}],"stateMutability":"nonpayable"},{"type":"function","name":"transferOwnership","inputs":[{"name":"newOwner","type":"address","internalType":"address"}],"outputs":[],"stateMutability":"nonpayable"},{"type":"function","name":"withdrawTokens","inputs":[{"name":"asset","type":"address","internalType":"contract IERC20"},{"name":"amount","type":"uint256","internalType":"uint256"}],"outputs":[],"stateMutability":"nonpayable"},{"type":"event","name":"FleetEntered","inputs":[{"name":"user","type":"address","indexed":true,"internalType":"address"},{"name":"fleetCommander","type":"address","indexed":true,"internalType":"address"},{"name":"inputAmount","type":"uint256","indexed":false,"internalType":"uint256"},{"name":"sharesReceived","type":"uint256","indexed":false,"internalType":"uint256"}],"anonymous":false},{"type":"event","name":"FleetExited","inputs":[{"name":"user","type":"address","indexed":true,"internalType":"address"},{"name":"fleetCommander","type":"address","indexed":true,"internalType":"address"},{"name":"withdrawnAmount","type":"uint256","indexed":false,"internalType":"uint256"},{"name":"outputAmount","type":"uint256","indexed":false,"internalType":"uint256"}],"anonymous":false},{"type":"event","name":"OwnershipTransferred","inputs":[{"name":"previousOwner","type":"address","indexed":true,"internalType":"address"},{"name":"newOwner","type":"address","indexed":true,"internalType":"address"}],"anonymous":false},{"type":"event","name":"Swapped","inputs":[{"name":"user","type":"address","indexed":true,"internalType":"address"},{"name":"fromToken","type":"address","indexed":true,"internalType":"address"},{"name":"toToken","type":"address","indexed":true,"internalType":"address"},{"name":"fromAmount","type":"uint256","indexed":false,"internalType":"uint256"},{"name":"toAmount","type":"uint256","indexed":false,"internalType":"uint256"}],"anonymous":false},{"type":"event","name":"TokensDeposited","inputs":[{"name":"user","type":"address","indexed":true,"internalType":"address"},{"name":"token","type":"address","indexed":true,"internalType":"address"},{"name":"amount","type":"uint256","indexed":false,"internalType":"uint256"}],"anonymous":false},{"type":"event","name":"TokensRescued","inputs":[{"name":"token","type":"address","indexed":true,"internalType":"address"},{"name":"to","type":"address","indexed":true,"internalType":"address"},{"name":"amount","type":"uint256","indexed":false,"internalType":"uint256"}],"anonymous":false},{"type":"event","name":"TokensWithdrawn","inputs":[{"name":"user","type":"address","indexed":true,"internalType":"address"},{"name":"token","type":"address","indexed":true,"internalType":"address"},{"name":"amount","type":"uint256","indexed":false,"internalType":"uint256"}],"anonymous":false},{"type":"error","name":"AddressEmptyCode","inputs":[{"name":"target","type":"address","internalType":"address"}]},{"type":"error","name":"AssetMismatch","inputs":[]},{"type":"error","name":"FailedCall","inputs":[]},{"type":"error","name":"InsufficientOutputAmount","inputs":[]},{"type":"error","name":"InvalidFleetCommander","inputs":[]},{"type":"error","name":"InvalidRouterAddress","inputs":[]},{"type":"error","name":"InvalidToken","inputs":[]},{"type":"error","name":"OwnableInvalidOwner","inputs":[{"name":"owner","type":"address","internalType":"address"}]},{"type":"error","name":"OwnableUnauthorizedAccount","inputs":[{"name":"account","type":"address","internalType":"address"}]},{"type":"error","name":"ReentrancyGuard","inputs":[]},{"type":"error","name":"ReentrancyGuardReentrantCall","inputs":[]},{"type":"error","name":"SafeERC20FailedOperation","inputs":[{"name":"token","type":"address","internalType":"address"}]},{"type":"error","name":"SwapAmountMismatch","inputs":[]},{"type":"error","name":"SwapFailed","inputs":[]},{"type":"error","name":"TokenMismatch","inputs":[]},{"type":"error","name":"UnsupportedSwapFunction","inputs":[]},{"type":"error","name":"ZeroAmount","inputs":[]}],"bytecode":{"object":"0x60a060405234801561000f575f5ffd5b5060405161140838038061140883398101604081905261002e916100e4565b338061005357604051631e4fbdf760e01b81525f600482015260240160405180910390fd5b61005c81610095565b506001600160a01b038116610084576040516314203b4b60e01b815260040160405180910390fd5b6001600160a01b0316608052610111565b5f80546001600160a01b038381166001600160a01b0319831681178455604051919092169283917f8be0079c531659141344cd1fd0a4f28419497f9722a3daafe3b4186f6b6457e09190a35050565b5f602082840312156100f4575f5ffd5b81516001600160a01b038116811461010a575f5ffd5b9392505050565b6080516112d16101375f395f818161013c01528181610b9a0152610bc201526112d15ff3fe608060405234801561000f575f5ffd5b50600436106100a6575f3560e01c80638da5cb5b1161006e5780638da5cb5b14610113578063ac3af20814610137578063ac9650d81461015e578063cea9d26f1461017e578063d7f8e9a514610191578063f2fde38b146101a4575f5ffd5b806306b091f9146100aa57806312739fb2146100bf5780632506c018146100e557806366168bd7146100f8578063715018a61461010b575b5f5ffd5b6100bd6100b8366004610f75565b6101b7565b005b6100d26100cd366004610f9f565b6102b7565b6040519081526020015b60405180910390f35b6100d26100f3366004610fdd565b610521565b6100bd610106366004610f75565b610639565b6100bd6106da565b5f546001600160a01b03165b6040516001600160a01b0390911681526020016100dc565b61011f7f000000000000000000000000000000000000000000000000000000000000000081565b61017161016c366004611082565b6106ed565b6040516100dc91906110f3565b6100bd61018c366004610f9f565b6107d4565b6100d261019f366004610f75565b610842565b6100bd6101b2366004611177565b61094d565b6101bf61098f565b6001600160a01b0382166101e65760405163c1ab6dc160e01b815260040160405180910390fd5b805f03610256576040516370a0823160e01b81523060048201526001600160a01b038316906370a0823190602401602060405180830381865afa15801561022f573d5f5f3e3d5ffd5b505050506040513d601f19601f820116820180604052508101906102539190611192565b90505b61026a6001600160a01b03831633836109fc565b6040518181526001600160a01b0383169033907f6337ed398c0e8467698c581374fdce4db14922df487b5a39483079f5f59b60a4906020015b60405180910390a36102b3610a60565b5050565b5f6102c061098f565b6001600160a01b0384166102e7576040516317b9ea1760e11b815260040160405180910390fd5b6001600160a01b03831661030e5760405163c1ab6dc160e01b815260040160405180910390fd5b5f8490505f816001600160a01b03166338d52e0f6040518163ffffffff1660e01b8152600401602060405180830381865afa15801561034f573d5f5f3e3d5ffd5b505050506040513d601f19601f8201168201806040525081019061037391906111a9565b9050806001600160a01b0316856001600160a01b0316146103a75760405163936bb5ad60e01b815260040160405180910390fd5b6040516370a0823160e01b81523060048201525f906001600160a01b038716906370a0823190602401602060405180830381865afa1580156103eb573d5f5f3e3d5ffd5b505050506040513d601f19601f8201168201806040525081019061040f9190611192565b90505f851561041e5785610420565b815b905081811115610443576040516342301c2360e01b815260040160405180910390fd5b6104576001600160a01b0384168583610a8a565b604051636e553f6560e01b8152600481018290523360248201526001600160a01b03851690636e553f65906044016020604051808303815f875af11580156104a1573d5f5f3e3d5ffd5b505050506040513d601f19601f820116820180604052508101906104c59190611192565b60408051838152602081018390529196506001600160a01b038a169133917fd584e570678d099262db4ba972df2e63e3618dadc6179677a6a2b18360c4a657910160405180910390a35050505061051a610a60565b9392505050565b5f61052a61098f565b6001600160a01b038716158061054757506001600160a01b038616155b156105655760405163c1ab6dc160e01b815260040160405180910390fd5b845f0361058557604051631f2a200560e01b815260040160405180910390fd5b856001600160a01b0316876001600160a01b0316036105b7576040516341e0808560e11b815260040160405180910390fd5b6105c5878787878787610b1f565b9050856001600160a01b0316876001600160a01b0316336001600160a01b03167f6782190c91d4a7e8ad2a867deed6ec0a970cab8ff137ae2bd4abd92b3810f4d3888560405161061f929190918252602082015260400190565b60405180910390a461062f610a60565b9695505050505050565b61064161098f565b6001600160a01b0382166106685760405163c1ab6dc160e01b815260040160405180910390fd5b805f0361068857604051631f2a200560e01b815260040160405180910390fd5b61069d6001600160a01b038316333084610cfe565b6040518181526001600160a01b0383169033907fcbc4a4091b012bb1329c38bbbb15455f5cac5aa3673da0a7f38cd61a4f495517906020016102a3565b6106e2610d37565b6106eb5f610d63565b565b604080515f8152602081019091526060908267ffffffffffffffff811115610717576107176111e3565b60405190808252806020026020018201604052801561074a57816020015b60608152602001906001900390816107355790505b5091505f5b838110156107cb576107a63086868481811061076d5761076d6111f7565b905060200281019061077f919061120b565b856040516020016107929392919061126c565b604051602081830303815290604052610db2565b8382815181106107b8576107b86111f7565b602090810291909101015260010161074f565b50505b92915050565b6107dc610d37565b6107f06001600160a01b03841683836109fc565b816001600160a01b0316836001600160a01b03167f77023e19c7343ad491fd706c36335ca0e738340a91f29b1fd81e2673d44896c48360405161083591815260200190565b60405180910390a3505050565b5f61084b61098f565b6001600160a01b038316610872576040516317b9ea1760e11b815260040160405180910390fd5b825f83156108805783610883565b5f195b604051632d182be560e21b8152600481018290523060248201523360448201529091506001600160a01b0383169063b460af94906064016020604051808303815f875af11580156108d6573d5f5f3e3d5ffd5b505050506040513d601f19601f820116820180604052508101906108fa9190611192565b60408051838152602081018390529194506001600160a01b0387169133917f3018bc84615a588f3485d554ded6943344a7f25f8b758b14b6e9677378c1c68b910160405180910390a350506107ce610a60565b610955610d37565b6001600160a01b03811661098357604051631e4fbdf760e01b81525f60048201526024015b60405180910390fd5b61098c81610d63565b50565b7f9b779b17422d0df92223018b32b4d1fa46e071723d6817e2486d003becc55f005c156109cf57604051633ee5aeb560e01b815260040160405180910390fd5b6106eb60017f9b779b17422d0df92223018b32b4d1fa46e071723d6817e2486d003becc55f005b90610e24565b6040516001600160a01b03838116602483015260448201839052610a5b91859182169063a9059cbb906064015b604051602081830303815290604052915060e01b6020820180516001600160e01b038381831617835250505050610e2b565b505050565b6106eb5f7f9b779b17422d0df92223018b32b4d1fa46e071723d6817e2486d003becc55f006109f6565b604080516001600160a01b038416602482015260448082018490528251808303909101815260649091019091526020810180516001600160e01b031663095ea7b360e01b179052610adb8482610e97565b610b19576040516001600160a01b0384811660248301525f6044830152610b0f91869182169063095ea7b390606401610a29565b610b198482610e2b565b50505050565b6040516370a0823160e01b81523060048201525f9081906001600160a01b038816906370a0823190602401602060405180830381865afa158015610b65573d5f5f3e3d5ffd5b505050506040513d601f19601f82011682018060405250810190610b899190611192565b9050610bbf6001600160a01b0389167f000000000000000000000000000000000000000000000000000000000000000088610a8a565b5f7f00000000000000000000000000000000000000000000000000000000000000006001600160a01b03168585604051610bfa929190611281565b5f604051808303815f865af19150503d805f8114610c33576040519150601f19603f3d011682016040523d82523d5f602084013e610c38565b606091505b5050905080610c5a5760405163081ceff360e41b815260040160405180910390fd5b6040516370a0823160e01b81523060048201525f906001600160a01b038a16906370a0823190602401602060405180830381865afa158015610c9e573d5f5f3e3d5ffd5b505050506040513d601f19601f82011682018060405250810190610cc29190611192565b9050610cce83826111c4565b935086841015610cf1576040516342301c2360e01b815260040160405180910390fd5b5050509695505050505050565b6040516001600160a01b038481166024830152838116604483015260648201839052610b199186918216906323b872dd90608401610a29565b5f546001600160a01b031633146106eb5760405163118cdaa760e01b815233600482015260240161097a565b5f80546001600160a01b038381166001600160a01b0319831681178455604051919092169283917f8be0079c531659141344cd1fd0a4f28419497f9722a3daafe3b4186f6b6457e09190a35050565b60605f5f846001600160a01b031684604051610dce9190611290565b5f60405180830381855af49150503d805f8114610e06576040519150601f19603f3d011682016040523d82523d5f602084013e610e0b565b606091505b5091509150610e1b858383610edc565b95945050505050565b80825d5050565b5f5f60205f8451602086015f885af180610e4a576040513d5f823e3d81fd5b50505f513d91508115610e61578060011415610e6e565b6001600160a01b0384163b155b15610b1957604051635274afe760e01b81526001600160a01b038516600482015260240161097a565b5f5f5f5f60205f8651602088015f8a5af192503d91505f51905082801561062f57508115610ec8578060011461062f565b50505050506001600160a01b03163b151590565b606082610ef157610eec82610f38565b61051a565b8151158015610f0857506001600160a01b0384163b155b15610f3157604051639996b31560e01b81526001600160a01b038516600482015260240161097a565b508061051a565b805115610f485780518082602001fd5b60405163d6bda27560e01b815260040160405180910390fd5b6001600160a01b038116811461098c575f5ffd5b5f5f60408385031215610f86575f5ffd5b8235610f9181610f61565b946020939093013593505050565b5f5f5f60608486031215610fb1575f5ffd5b8335610fbc81610f61565b92506020840135610fcc81610f61565b929592945050506040919091013590565b5f5f5f5f5f5f60a08789031215610ff2575f5ffd5b8635610ffd81610f61565b9550602087013561100d81610f61565b94506040870135935060608701359250608087013567ffffffffffffffff811115611036575f5ffd5b8701601f81018913611046575f5ffd5b803567ffffffffffffffff81111561105c575f5ffd5b89602082840101111561106d575f5ffd5b60208201935080925050509295509295509295565b5f5f60208385031215611093575f5ffd5b823567ffffffffffffffff8111156110a9575f5ffd5b8301601f810185136110b9575f5ffd5b803567ffffffffffffffff8111156110cf575f5ffd5b8560208260051b84010111156110e3575f5ffd5b6020919091019590945092505050565b5f602082016020835280845180835260408501915060408160051b8601019250602086015f5b8281101561116b57603f19878603018452815180518087528060208301602089015e5f602082890101526020601f19601f83011688010196505050602082019150602084019350600181019050611119565b50929695505050505050565b5f60208284031215611187575f5ffd5b813561051a81610f61565b5f602082840312156111a2575f5ffd5b5051919050565b5f602082840312156111b9575f5ffd5b815161051a81610f61565b818103818111156107ce57634e487b7160e01b5f52601160045260245ffd5b634e487b7160e01b5f52604160045260245ffd5b634e487b7160e01b5f52603260045260245ffd5b5f5f8335601e19843603018112611220575f5ffd5b83018035915067ffffffffffffffff82111561123a575f5ffd5b60200191503681900382131561124e575f5ffd5b9250929050565b5f81518060208401855e5f93019283525090919050565b828482375f8382015f815261062f8185611255565b818382375f9101908152919050565b5f61051a828461125556fea264697066735822122016f443c0167c703f3f98122cad3bcc548bb5fae759edbaa0e343e518096d2fe464736f6c634300081c0033","linkReferences":{}},"methodIdentifiers":{"depositTokens(address,uint256)":"66168bd7","enterFleet(address,address,uint256)":"12739fb2","exitFleet(address,uint256)":"d7f8e9a5","multicall(bytes[])":"ac9650d8","oneInchRouter()":"ac3af208","owner()":"8da5cb5b","renounceOwnership()":"715018a6","rescueTokens(address,address,uint256)":"cea9d26f","swap(address,address,uint256,uint256,bytes)":"2506c018","transferOwnership(address)":"f2fde38b","withdrawTokens(address,uint256)":"06b091f9"},"id":185}