{"abi":[{"type":"constructor","inputs":[{"name":"_oneInchRouter","type":"address","internalType":"address"},{"name":"_configurationManager","type":"address","internalType":"address"}],"stateMutability":"nonpayable"},{"type":"function","name":"configurationManager","inputs":[],"outputs":[{"name":"","type":"address","internalType":"contract IConfigurationManager"}],"stateMutability":"view"},{"type":"function","name":"depositTokens","inputs":[{"name":"asset","type":"address","internalType":"contract IERC20"},{"name":"amount","type":"uint256","internalType":"uint256"}],"outputs":[],"stateMutability":"nonpayable"},{"type":"function","name":"enterFleet","inputs":[{"name":"fleetCommander","type":"address","internalType":"address"},{"name":"assets","type":"uint256","internalType":"uint256"},{"name":"receiver","type":"address","internalType":"address"}],"outputs":[{"name":"shares","type":"uint256","internalType":"uint256"}],"stateMutability":"nonpayable"},{"type":"function","name":"exitFleet","inputs":[{"name":"fleetCommander","type":"address","internalType":"address"},{"name":"assets","type":"uint256","internalType":"uint256"}],"outputs":[{"name":"shares","type":"uint256","internalType":"uint256"}],"stateMutability":"nonpayable"},{"type":"function","name":"fleetCommanderRewardsManagerFactory","inputs":[],"outputs":[{"name":"","type":"address","internalType":"address"}],"stateMutability":"view"},{"type":"function","name":"harborCommand","inputs":[],"outputs":[{"name":"","type":"address","internalType":"address"}],"stateMutability":"view"},{"type":"function","name":"moveFromAaveToAdmiralsQuarters","inputs":[{"name":"aToken","type":"address","internalType":"address"},{"name":"assets","type":"uint256","internalType":"uint256"}],"outputs":[],"stateMutability":"nonpayable"},{"type":"function","name":"moveFromCompoundToAdmiralsQuarters","inputs":[{"name":"cToken","type":"address","internalType":"address"},{"name":"assets","type":"uint256","internalType":"uint256"}],"outputs":[],"stateMutability":"nonpayable"},{"type":"function","name":"moveFromERC4626ToAdmiralsQuarters","inputs":[{"name":"vault","type":"address","internalType":"address"},{"name":"shares","type":"uint256","internalType":"uint256"}],"outputs":[],"stateMutability":"nonpayable"},{"type":"function","name":"multicall","inputs":[{"name":"data","type":"bytes[]","internalType":"bytes[]"}],"outputs":[{"name":"results","type":"bytes[]","internalType":"bytes[]"}],"stateMutability":"nonpayable"},{"type":"function","name":"oneInchRouter","inputs":[],"outputs":[{"name":"","type":"address","internalType":"address"}],"stateMutability":"view"},{"type":"function","name":"owner","inputs":[],"outputs":[{"name":"","type":"address","internalType":"address"}],"stateMutability":"view"},{"type":"function","name":"raft","inputs":[],"outputs":[{"name":"","type":"address","internalType":"address"}],"stateMutability":"view"},{"type":"function","name":"renounceOwnership","inputs":[],"outputs":[],"stateMutability":"nonpayable"},{"type":"function","name":"rescueTokens","inputs":[{"name":"token","type":"address","internalType":"contract IERC20"},{"name":"to","type":"address","internalType":"address"},{"name":"amount","type":"uint256","internalType":"uint256"}],"outputs":[],"stateMutability":"nonpayable"},{"type":"function","name":"stake","inputs":[{"name":"fleetCommander","type":"address","internalType":"address"},{"name":"shares","type":"uint256","internalType":"uint256"}],"outputs":[],"stateMutability":"nonpayable"},{"type":"function","name":"swap","inputs":[{"name":"fromToken","type":"address","internalType":"contract IERC20"},{"name":"toToken","type":"address","internalType":"contract IERC20"},{"name":"assets","type":"uint256","internalType":"uint256"},{"name":"minTokensReceived","type":"uint256","internalType":"uint256"},{"name":"swapCalldata","type":"bytes","internalType":"bytes"}],"outputs":[{"name":"swappedAmount","type":"uint256","internalType":"uint256"}],"stateMutability":"nonpayable"},{"type":"function","name":"tipJar","inputs":[],"outputs":[{"name":"","type":"address","internalType":"address"}],"stateMutability":"view"},{"type":"function","name":"transferOwnership","inputs":[{"name":"newOwner","type":"address","internalType":"address"}],"outputs":[],"stateMutability":"nonpayable"},{"type":"function","name":"treasury","inputs":[],"outputs":[{"name":"","type":"address","internalType":"address"}],"stateMutability":"view"},{"type":"function","name":"unstakeAndWithdrawAssets","inputs":[{"name":"fleetCommander","type":"address","internalType":"address"},{"name":"shares","type":"uint256","internalType":"uint256"},{"name":"claimRewards","type":"bool","internalType":"bool"}],"outputs":[],"stateMutability":"nonpayable"},{"type":"function","name":"withdrawTokens","inputs":[{"name":"asset","type":"address","internalType":"contract IERC20"},{"name":"amount","type":"uint256","internalType":"uint256"}],"outputs":[],"stateMutability":"nonpayable"},{"type":"event","name":"AavePositionImported","inputs":[{"name":"user","type":"address","indexed":true,"internalType":"address"},{"name":"aToken","type":"address","indexed":true,"internalType":"address"},{"name":"amount","type":"uint256","indexed":false,"internalType":"uint256"}],"anonymous":false},{"type":"event","name":"CompoundPositionImported","inputs":[{"name":"user","type":"address","indexed":true,"internalType":"address"},{"name":"cToken","type":"address","indexed":true,"internalType":"address"},{"name":"amount","type":"uint256","indexed":false,"internalType":"uint256"}],"anonymous":false},{"type":"event","name":"ERC4626PositionImported","inputs":[{"name":"user","type":"address","indexed":true,"internalType":"address"},{"name":"vault","type":"address","indexed":true,"internalType":"address"},{"name":"amount","type":"uint256","indexed":false,"internalType":"uint256"}],"anonymous":false},{"type":"event","name":"FleetEntered","inputs":[{"name":"user","type":"address","indexed":true,"internalType":"address"},{"name":"fleetCommander","type":"address","indexed":true,"internalType":"address"},{"name":"inputAmount","type":"uint256","indexed":false,"internalType":"uint256"},{"name":"sharesReceived","type":"uint256","indexed":false,"internalType":"uint256"}],"anonymous":false},{"type":"event","name":"FleetExited","inputs":[{"name":"user","type":"address","indexed":true,"internalType":"address"},{"name":"fleetCommander","type":"address","indexed":true,"internalType":"address"},{"name":"withdrawnAmount","type":"uint256","indexed":false,"internalType":"uint256"},{"name":"outputAmount","type":"uint256","indexed":false,"internalType":"uint256"}],"anonymous":false},{"type":"event","name":"FleetSharesStaked","inputs":[{"name":"user","type":"address","indexed":true,"internalType":"address"},{"name":"fleetCommander","type":"address","indexed":true,"internalType":"address"},{"name":"amount","type":"uint256","indexed":false,"internalType":"uint256"}],"anonymous":false},{"type":"event","name":"FleetSharesUnstaked","inputs":[{"name":"user","type":"address","indexed":true,"internalType":"address"},{"name":"fleetCommander","type":"address","indexed":true,"internalType":"address"},{"name":"amount","type":"uint256","indexed":false,"internalType":"uint256"}],"anonymous":false},{"type":"event","name":"OwnershipTransferred","inputs":[{"name":"previousOwner","type":"address","indexed":true,"internalType":"address"},{"name":"newOwner","type":"address","indexed":true,"internalType":"address"}],"anonymous":false},{"type":"event","name":"Swapped","inputs":[{"name":"user","type":"address","indexed":true,"internalType":"address"},{"name":"fromToken","type":"address","indexed":true,"internalType":"address"},{"name":"toToken","type":"address","indexed":true,"internalType":"address"},{"name":"fromAmount","type":"uint256","indexed":false,"internalType":"uint256"},{"name":"toAmount","type":"uint256","indexed":false,"internalType":"uint256"}],"anonymous":false},{"type":"event","name":"TokensDeposited","inputs":[{"name":"user","type":"address","indexed":true,"internalType":"address"},{"name":"token","type":"address","indexed":true,"internalType":"address"},{"name":"amount","type":"uint256","indexed":false,"internalType":"uint256"}],"anonymous":false},{"type":"event","name":"TokensRescued","inputs":[{"name":"token","type":"address","indexed":true,"internalType":"address"},{"name":"to","type":"address","indexed":true,"internalType":"address"},{"name":"amount","type":"uint256","indexed":false,"internalType":"uint256"}],"anonymous":false},{"type":"event","name":"TokensWithdrawn","inputs":[{"name":"user","type":"address","indexed":true,"internalType":"address"},{"name":"token","type":"address","indexed":true,"internalType":"address"},{"name":"amount","type":"uint256","indexed":false,"internalType":"uint256"}],"anonymous":false},{"type":"error","name":"AddressEmptyCode","inputs":[{"name":"target","type":"address","internalType":"address"}]},{"type":"error","name":"AssetMismatch","inputs":[]},{"type":"error","name":"ConfigurationManagerZeroAddress","inputs":[]},{"type":"error","name":"FailedCall","inputs":[]},{"type":"error","name":"InsufficientOutputAmount","inputs":[]},{"type":"error","name":"InvalidFleetCommander","inputs":[]},{"type":"error","name":"InvalidRouterAddress","inputs":[]},{"type":"error","name":"InvalidToken","inputs":[]},{"type":"error","name":"MulticallAlreadyInProgress","inputs":[]},{"type":"error","name":"NotMulticall","inputs":[]},{"type":"error","name":"OwnableInvalidOwner","inputs":[{"name":"owner","type":"address","internalType":"address"}]},{"type":"error","name":"OwnableUnauthorizedAccount","inputs":[{"name":"account","type":"address","internalType":"address"}]},{"type":"error","name":"ReentrancyGuard","inputs":[]},{"type":"error","name":"ReentrancyGuardReentrantCall","inputs":[]},{"type":"error","name":"SafeERC20FailedOperation","inputs":[{"name":"token","type":"address","internalType":"address"}]},{"type":"error","name":"SwapAmountMismatch","inputs":[]},{"type":"error","name":"SwapFailed","inputs":[]},{"type":"error","name":"TokenMismatch","inputs":[]},{"type":"error","name":"UnsupportedSwapFunction","inputs":[]},{"type":"error","name":"ZeroAmount","inputs":[]}],"bytecode":{"object":"0x60c060405234801561000f575f5ffd5b506040516124a13803806124a183398101604081905261002e9161012e565b80338061005457604051631e4fbdf760e01b81525f600482015260240160405180910390fd5b61005d816100c4565b506001600160a01b0381166100855760405163f1634df960e01b815260040160405180910390fd5b6001600160a01b0390811660805282166100b2576040516314203b4b60e01b815260040160405180910390fd5b506001600160a01b031660a05261015f565b5f80546001600160a01b038381166001600160a01b0319831681178455604051919092169283917f8be0079c531659141344cd1fd0a4f28419497f9722a3daafe3b4186f6b6457e09190a35050565b80516001600160a01b0381168114610129575f5ffd5b919050565b5f5f6040838503121561013f575f5ffd5b61014883610113565b915061015660208401610113565b90509250929050565b60805160a0516122f06101b15f395f8181610230015281816118d701526118ff01525f818161028a0152818161061c015281816109c301528181610a2001528181610b33015261163601526122f05ff3fe608060405234801561000f575f5ffd5b506004361061013d575f3560e01c80638da5cb5b116100b4578063c9c667e311610079578063c9c667e314610285578063cea9d26f146102ac578063cf87c38f146102bf578063d7f8e9a5146102d2578063f2fde38b146102e5578063f7e533ec146102f8575f5ffd5b80638da5cb5b146102085780639cf61a5214610218578063ac3af2081461022b578063ac9650d814610252578063adc9772e14610272575f5ffd5b80635b0f83f3116101055780635b0f83f3146101c257806361d027b3146101ca57806366168bd7146101d2578063715018a6146101e55780637aaceb95146101ed57806388bcf983146101f5575f5ffd5b806306b091f9146101415780630dedddbf14610156578063117d8ae0146101695780631dddf9fa1461018e5780632506c018146101a1575b5f5ffd5b61015461014f366004611e44565b610300565b005b610154610164366004611e44565b610419565b610171610619565b6040516001600160a01b0390911681526020015b60405180910390f35b61015461019c366004611e7b565b61069f565b6101b46101af366004611eba565b6108ab565b604051908152602001610185565b6101716109c0565b610171610a1d565b6101546101e0366004611e44565b610a7a565b610154610b1d565b610171610b30565b610154610203366004611e44565b610b8d565b5f546001600160a01b0316610171565b6101b4610226366004611f5f565b610df2565b6101717f000000000000000000000000000000000000000000000000000000000000000081565b610265610260366004611f93565b611045565b6040516101859190612004565b610154610280366004611e44565b6110a1565b6101717f000000000000000000000000000000000000000000000000000000000000000081565b6101546102ba366004612088565b6112ba565b6101546102cd366004611e44565b611328565b6101b46102e0366004611e44565b6114bd565b6101546102f33660046120c6565b6115f1565b610171611633565b335f51602061229b5f395f51905f525c6001600160a01b03161461033757604051633128ce5560e01b815260040160405180910390fd5b61033f611690565b610348826116fd565b805f036103b8576040516370a0823160e01b81523060048201526001600160a01b038316906370a0823190602401602060405180830381865afa158015610391573d5f5f3e3d5ffd5b505050506040513d601f19601f820116820180604052508101906103b591906120e1565b90505b6103cc6001600160a01b0383163383611724565b6040518181526001600160a01b0383169033907f6337ed398c0e8467698c581374fdce4db14922df487b5a39483079f5f59b60a4906020015b60405180910390a3610415611783565b5050565b335f51602061229b5f395f51905f525c6001600160a01b03161461045057604051633128ce5560e01b815260040160405180910390fd5b610458611690565b5f8290505f816001600160a01b031663c55dae636040518163ffffffff1660e01b8152600401602060405180830381865afa158015610499573d5f5f3e3d5ffd5b505050506040513d601f19601f820116820180604052508101906104bd9190612108565b905082156104cb5782610541565b6001600160a01b0382166370a08231336040516001600160e01b031960e084901b1681526001600160a01b039091166004820152602401602060405180830381865afa15801561051d573d5f5f3e3d5ffd5b505050506040513d601f19601f8201168201806040525081019061054191906120e1565b92506001600160a01b0382166326441318336040516001600160e01b031960e084901b1681526001600160a01b0391821660048201523060248201529084166044820152606481018690526084015f604051808303815f87803b1580156105a6575f5ffd5b505af11580156105b8573d5f5f3e3d5ffd5b50505050836001600160a01b03166105cd3390565b6001600160a01b03167f2bb776770e69df4d29d3c5d4c6c05ec4c32f7be119d35604fbba0e8f86d152f98560405161060791815260200190565b60405180910390a35050610415611783565b5f7f00000000000000000000000000000000000000000000000000000000000000006001600160a01b031663117d8ae06040518163ffffffff1660e01b8152600401602060405180830381865afa158015610676573d5f5f3e3d5ffd5b505050506040513d601f19601f8201168201806040525081019061069a9190612108565b905090565b335f51602061229b5f395f51905f525c6001600160a01b0316146106d657604051633128ce5560e01b815260040160405180910390fd5b6106de611690565b6106e7836117ad565b5f8390505f816001600160a01b031663c3f909d46040518163ffffffff1660e01b815260040160a060405180830381865afa158015610728573d5f5f3e3d5ffd5b505050506040513d601f19601f8201168201806040525081019061074c9190612137565b608001519050831561075e57836107d4565b6001600160a01b0381166370a08231336040516001600160e01b031960e084901b1681526001600160a01b039091166004820152602401602060405180830381865afa1580156107b0573d5f5f3e3d5ffd5b505050506040513d601f19601f820116820180604052508101906107d491906120e1565b93506001600160a01b03811663647654b4336040516001600160e01b031960e084901b1681526001600160a01b0390911660048201526024810187905285151560448201526064015f604051808303815f87803b158015610833575f5ffd5b505af1158015610845573d5f5f3e3d5ffd5b50505050846001600160a01b031661085a3390565b6001600160a01b03167f700c68e6e49e104bb8288f3d6ffb4723d8c8fa31695662535a9c6980d44eee208660405161089491815260200190565b60405180910390a350506108a6611783565b505050565b5f335f51602061229b5f395f51905f525c6001600160a01b0316146108e357604051633128ce5560e01b815260040160405180910390fd5b6108eb611690565b6108f4876116fd565b6108fd866116fd565b6109068561183c565b856001600160a01b0316876001600160a01b031603610938576040516341e0808560e11b815260040160405180910390fd5b61094687878787878761185c565b9050856001600160a01b0316876001600160a01b03166109633390565b6001600160a01b03167f6782190c91d4a7e8ad2a867deed6ec0a970cab8ff137ae2bd4abd92b3810f4d388856040516109a6929190918252602082015260400190565b60405180910390a46109b6611783565b9695505050505050565b5f7f00000000000000000000000000000000000000000000000000000000000000006001600160a01b0316635b0f83f36040518163ffffffff1660e01b8152600401602060405180830381865afa158015610676573d5f5f3e3d5ffd5b5f7f00000000000000000000000000000000000000000000000000000000000000006001600160a01b03166361d027b36040518163ffffffff1660e01b8152600401602060405180830381865afa158015610676573d5f5f3e3d5ffd5b335f51602061229b5f395f51905f525c6001600160a01b031614610ab157604051633128ce5560e01b815260040160405180910390fd5b610ab9611690565b610ac2826116fd565b610acb8161183c565b610ae06001600160a01b038316333084611a3b565b6040518181526001600160a01b0383169033907fcbc4a4091b012bb1329c38bbbb15455f5cac5aa3673da0a7f38cd61a4f49551790602001610405565b610b25611a7a565b610b2e5f611aa6565b565b5f7f00000000000000000000000000000000000000000000000000000000000000006001600160a01b0316637aaceb956040518163ffffffff1660e01b8152600401602060405180830381865afa158015610676573d5f5f3e3d5ffd5b335f51602061229b5f395f51905f525c6001600160a01b031614610bc457604051633128ce5560e01b815260040160405180910390fd5b610bcc611690565b5f8290505f816001600160a01b0316637535d2466040518163ffffffff1660e01b8152600401602060405180830381865afa158015610c0d573d5f5f3e3d5ffd5b505050506040513d601f19601f82011682018060405250810190610c319190612108565b90505f826001600160a01b031663b16a19de6040518163ffffffff1660e01b8152600401602060405180830381865afa158015610c70573d5f5f3e3d5ffd5b505050506040513d601f19601f82011682018060405250810190610c949190612108565b90508315610ca25783610d18565b6001600160a01b0383166370a08231336040516001600160e01b031960e084901b1681526001600160a01b039091166004820152602401602060405180830381865afa158015610cf4573d5f5f3e3d5ffd5b505050506040513d601f19601f82011682018060405250810190610d1891906120e1565b9350610d2f6001600160a01b038416333087611a3b565b604051631a4ca37b60e21b81526001600160a01b038281166004830152602482018690523060448301528316906369328dec906064016020604051808303815f875af1158015610d81573d5f5f3e3d5ffd5b505050506040513d601f19601f82011682018060405250810190610da591906120e1565b506040518481526001600160a01b0386169033907fd269ddb991eeb6ceaf84849c22783248bd97ffea53842ccfc04dc943729b19e3906020015b60405180910390a3505050610415611783565b5f335f51602061229b5f395f51905f525c6001600160a01b031614610e2a57604051633128ce5560e01b815260040160405180910390fd5b610e32611690565b610e3b846117ad565b5f8490505f816001600160a01b03166338d52e0f6040518163ffffffff1660e01b8152600401602060405180830381865afa158015610e7c573d5f5f3e3d5ffd5b505050506040513d601f19601f82011682018060405250810190610ea09190612108565b6040516370a0823160e01b81523060048201529091505f906001600160a01b038316906370a0823190602401602060405180830381865afa158015610ee7573d5f5f3e3d5ffd5b505050506040513d601f19601f82011682018060405250810190610f0b91906120e1565b90508515610f195785610f1b565b805b95506001600160a01b03851615610f325784610f34565b335b945080861115610f57576040516342301c2360e01b815260040160405180910390fd5b610f6b6001600160a01b0383168488611af5565b604051636e553f6560e01b8152600481018790526001600160a01b038681166024830152841690636e553f65906044016020604051808303815f875af1158015610fb7573d5f5f3e3d5ffd5b505050506040513d601f19601f82011682018060405250810190610fdb91906120e1565b9350866001600160a01b0316856001600160a01b03167fd584e570678d099262db4ba972df2e63e3618dadc6179677a6a2b18360c4a657888760405161102b929190918252602082015260400190565b60405180910390a350505061103e611783565b9392505050565b60606001600160a01b035f51602061229b5f395f51905f525c161561107d576040516339082a3960e11b815260040160405180910390fd5b61108633611b84565b6110908383611b9b565b905061109b5f611b84565b92915050565b335f51602061229b5f395f51905f525c6001600160a01b0316146110d857604051633128ce5560e01b815260040160405180910390fd5b6110e0611690565b6110e9826117ad565b5f8290505f816001600160a01b031663c3f909d46040518163ffffffff1660e01b815260040160a060405180830381865afa15801561112a573d5f5f3e3d5ffd5b505050506040513d601f19601f8201168201806040525081019061114e9190612137565b608001516040516370a0823160e01b81523060048201529091505f906001600160a01b038616906370a0823190602401602060405180830381865afa158015611199573d5f5f3e3d5ffd5b505050506040513d601f19601f820116820180604052508101906111bd91906120e1565b905083156111cb57836111cd565b805b9350808411156111f0576040516342301c2360e01b815260040160405180910390fd5b6112046001600160a01b0386168386611af5565b6001600160a01b03821663cecc238f336040516001600160e01b031960e084901b1681526001600160a01b039091166004820152602481018790526044015f604051808303815f87803b158015611259575f5ffd5b505af115801561126b573d5f5f3e3d5ffd5b50505050846001600160a01b03166112803390565b6001600160a01b03167f229b6242f243935a5ba03689948a442635f9fd7ed35555146349f51316c1f28e86604051610ddf91815260200190565b6112c2611a7a565b6112d66001600160a01b0384168383611724565b816001600160a01b0316836001600160a01b03167f77023e19c7343ad491fd706c36335ca0e738340a91f29b1fd81e2673d44896c48360405161131b91815260200190565b60405180910390a3505050565b335f51602061229b5f395f51905f525c6001600160a01b03161461135f57604051633128ce5560e01b815260040160405180910390fd5b611367611690565b81811561137457816113ea565b6001600160a01b0381166370a08231336040516001600160e01b031960e084901b1681526001600160a01b039091166004820152602401602060405180830381865afa1580156113c6573d5f5f3e3d5ffd5b505050506040513d601f19601f820116820180604052508101906113ea91906120e1565b91506001600160a01b03811663ba0876528330336040516001600160e01b031960e086901b16815260048101939093526001600160a01b0391821660248401521660448201526064016020604051808303815f875af115801561144f573d5f5f3e3d5ffd5b505050506040513d601f19601f8201168201806040525081019061147391906120e1565b506040518281526001600160a01b0384169033907f915b71c589595289d233b271db8454f447949848ecdd456a109e3f2559c0d5099060200160405180910390a350610415611783565b5f335f51602061229b5f395f51905f525c6001600160a01b0316146114f557604051633128ce5560e01b815260040160405180910390fd5b6114fd611690565b611506836117ad565b8282156115135782611516565b5f195b92506001600160a01b03811663b460af948430336040516001600160e01b031960e086901b16815260048101939093526001600160a01b0391821660248401521660448201526064016020604051808303815f875af115801561157b573d5f5f3e3d5ffd5b505050506040513d601f19601f8201168201806040525081019061159f91906120e1565b60408051858152602081018390529193506001600160a01b0386169133917f3018bc84615a588f3485d554ded6943344a7f25f8b758b14b6e9677378c1c68b910160405180910390a35061109b611783565b6115f9611a7a565b6001600160a01b03811661162757604051631e4fbdf760e01b81525f60048201526024015b60405180910390fd5b61163081611aa6565b50565b5f7f00000000000000000000000000000000000000000000000000000000000000006001600160a01b031663f7e533ec6040518163ffffffff1660e01b8152600401602060405180830381865afa158015610676573d5f5f3e3d5ffd5b7f9b779b17422d0df92223018b32b4d1fa46e071723d6817e2486d003becc55f005c156116d057604051633ee5aeb560e01b815260040160405180910390fd5b610b2e60017f9b779b17422d0df92223018b32b4d1fa46e071723d6817e2486d003becc55f005b90611c81565b6001600160a01b0381166116305760405163c1ab6dc160e01b815260040160405180910390fd5b6040516001600160a01b038381166024830152604482018390526108a691859182169063a9059cbb906064015b604051602081830303815290604052915060e01b6020820180516001600160e01b038381831617835250505050611c88565b610b2e5f7f9b779b17422d0df92223018b32b4d1fa46e071723d6817e2486d003becc55f006116f7565b6117b56109c0565b6040516374e806ab60e11b81526001600160a01b038381166004830152919091169063e9d00d5690602401602060405180830381865afa1580156117fb573d5f5f3e3d5ffd5b505050506040513d601f19601f8201168201806040525081019061181f91906121bc565b611630576040516317b9ea1760e11b815260040160405180910390fd5b805f0361163057604051631f2a200560e01b815260040160405180910390fd5b6040516370a0823160e01b81523060048201525f9081906001600160a01b038816906370a0823190602401602060405180830381865afa1580156118a2573d5f5f3e3d5ffd5b505050506040513d601f19601f820116820180604052508101906118c691906120e1565b90506118fc6001600160a01b0389167f000000000000000000000000000000000000000000000000000000000000000088611af5565b5f7f00000000000000000000000000000000000000000000000000000000000000006001600160a01b031685856040516119379291906121d7565b5f604051808303815f865af19150503d805f8114611970576040519150601f19603f3d011682016040523d82523d5f602084013e611975565b606091505b50509050806119975760405163081ceff360e41b815260040160405180910390fd5b6040516370a0823160e01b81523060048201525f906001600160a01b038a16906370a0823190602401602060405180830381865afa1580156119db573d5f5f3e3d5ffd5b505050506040513d601f19601f820116820180604052508101906119ff91906120e1565b9050611a0b83826121e6565b935086841015611a2e576040516342301c2360e01b815260040160405180910390fd5b5050509695505050505050565b6040516001600160a01b038481166024830152838116604483015260648201839052611a749186918216906323b872dd90608401611751565b50505050565b5f546001600160a01b03163314610b2e5760405163118cdaa760e01b815233600482015260240161161e565b5f80546001600160a01b038381166001600160a01b0319831681178455604051919092169283917f8be0079c531659141344cd1fd0a4f28419497f9722a3daafe3b4186f6b6457e09190a35050565b604080516001600160a01b038416602482015260448082018490528251808303909101815260649091019091526020810180516001600160e01b031663095ea7b360e01b179052611b468482611cf4565b611a74576040516001600160a01b0384811660248301525f6044830152611b7a91869182169063095ea7b390606401611751565b611a748482611c88565b611630815f51602061229b5f395f51905f526116f7565b604080515f8152602081019091526060908267ffffffffffffffff811115611bc557611bc5612123565b604051908082528060200260200182016040528015611bf857816020015b6060815260200190600190039081611be35790505b5091505f5b83811015611c7957611c5430868684818110611c1b57611c1b612205565b9050602002810190611c2d9190612219565b85604051602001611c409392919061227a565b604051602081830303815290604052611d39565b838281518110611c6657611c66612205565b6020908102919091010152600101611bfd565b505092915050565b80825d5050565b5f5f60205f8451602086015f885af180611ca7576040513d5f823e3d81fd5b50505f513d91508115611cbe578060011415611ccb565b6001600160a01b0384163b155b15611a7457604051635274afe760e01b81526001600160a01b038516600482015260240161161e565b5f5f5f5f60205f8651602088015f8a5af192503d91505f5190508280156109b657508115611d2557806001146109b6565b50505050506001600160a01b03163b151590565b60605f5f846001600160a01b031684604051611d55919061228f565b5f60405180830381855af49150503d805f8114611d8d576040519150601f19603f3d011682016040523d82523d5f602084013e611d92565b606091505b5091509150611da2858383611dab565b95945050505050565b606082611dc057611dbb82611e07565b61103e565b8151158015611dd757506001600160a01b0384163b155b15611e0057604051639996b31560e01b81526001600160a01b038516600482015260240161161e565b508061103e565b805115611e175780518082602001fd5b60405163d6bda27560e01b815260040160405180910390fd5b6001600160a01b0381168114611630575f5ffd5b5f5f60408385031215611e55575f5ffd5b8235611e6081611e30565b946020939093013593505050565b8015158114611630575f5ffd5b5f5f5f60608486031215611e8d575f5ffd5b8335611e9881611e30565b9250602084013591506040840135611eaf81611e6e565b809150509250925092565b5f5f5f5f5f5f60a08789031215611ecf575f5ffd5b8635611eda81611e30565b95506020870135611eea81611e30565b94506040870135935060608701359250608087013567ffffffffffffffff811115611f13575f5ffd5b8701601f81018913611f23575f5ffd5b803567ffffffffffffffff811115611f39575f5ffd5b896020828401011115611f4a575f5ffd5b60208201935080925050509295509295509295565b5f5f5f60608486031215611f71575f5ffd5b8335611f7c81611e30565b9250602084013591506040840135611eaf81611e30565b5f5f60208385031215611fa4575f5ffd5b823567ffffffffffffffff811115611fba575f5ffd5b8301601f81018513611fca575f5ffd5b803567ffffffffffffffff811115611fe0575f5ffd5b8560208260051b8401011115611ff4575f5ffd5b6020919091019590945092505050565b5f602082016020835280845180835260408501915060408160051b8601019250602086015f5b8281101561207c57603f19878603018452815180518087528060208301602089015e5f602082890101526020601f19601f8301168801019650505060208201915060208401935060018101905061202a565b50929695505050505050565b5f5f5f6060848603121561209a575f5ffd5b83356120a581611e30565b925060208401356120b581611e30565b929592945050506040919091013590565b5f602082840312156120d6575f5ffd5b813561103e81611e30565b5f602082840312156120f1575f5ffd5b5051919050565b805161210381611e30565b919050565b5f60208284031215612118575f5ffd5b815161103e81611e30565b634e487b7160e01b5f52604160045260245ffd5b5f60a0828403128015612148575f5ffd5b5060405160a0810167ffffffffffffffff8111828210171561217857634e487b7160e01b5f52604160045260245ffd5b604052612184836120f8565b81526020838101519082015260408084015190820152606080840151908201526121b0608084016120f8565b60808201529392505050565b5f602082840312156121cc575f5ffd5b815161103e81611e6e565b818382375f9101908152919050565b8181038181111561109b57634e487b7160e01b5f52601160045260245ffd5b634e487b7160e01b5f52603260045260245ffd5b5f5f8335601e1984360301811261222e575f5ffd5b83018035915067ffffffffffffffff821115612248575f5ffd5b60200191503681900382131561225c575f5ffd5b9250929050565b5f81518060208401855e5f93019283525090919050565b828482375f8382015f81526109b68185612263565b5f61103e828461226356fe4047f0417aa4905ca06b566a01340d0e510e7af6b560e81d10e0ea24404f597ba264697066735822122062b4f3ad87be424aabec5832f3f9ea5c868a2701ffd10cd8d391e3c4b2d6221664736f6c634300081c0033","linkReferences":{}},"methodIdentifiers":{"configurationManager()":"c9c667e3","depositTokens(address,uint256)":"66168bd7","enterFleet(address,uint256,address)":"9cf61a52","exitFleet(address,uint256)":"d7f8e9a5","fleetCommanderRewardsManagerFactory()":"f7e533ec","harborCommand()":"5b0f83f3","moveFromAaveToAdmiralsQuarters(address,uint256)":"88bcf983","moveFromCompoundToAdmiralsQuarters(address,uint256)":"0dedddbf","moveFromERC4626ToAdmiralsQuarters(address,uint256)":"cf87c38f","multicall(bytes[])":"ac9650d8","oneInchRouter()":"ac3af208","owner()":"8da5cb5b","raft()":"117d8ae0","renounceOwnership()":"715018a6","rescueTokens(address,address,uint256)":"cea9d26f","stake(address,uint256)":"adc9772e","swap(address,address,uint256,uint256,bytes)":"2506c018","tipJar()":"7aaceb95","transferOwnership(address)":"f2fde38b","treasury()":"61d027b3","unstakeAndWithdrawAssets(address,uint256,bool)":"1dddf9fa","withdrawTokens(address,uint256)":"06b091f9"},"id":188}