{"abi":[{"type":"constructor","inputs":[{"name":"_oneInchRouter","type":"address","internalType":"address"},{"name":"_configurationManager","type":"address","internalType":"address"}],"stateMutability":"nonpayable"},{"type":"function","name":"configurationManager","inputs":[],"outputs":[{"name":"","type":"address","internalType":"contract IConfigurationManager"}],"stateMutability":"view"},{"type":"function","name":"depositTokens","inputs":[{"name":"asset","type":"address","internalType":"contract IERC20"},{"name":"amount","type":"uint256","internalType":"uint256"}],"outputs":[],"stateMutability":"nonpayable"},{"type":"function","name":"enterFleet","inputs":[{"name":"fleetCommander","type":"address","internalType":"address"},{"name":"inputToken","type":"address","internalType":"contract IERC20"},{"name":"amount","type":"uint256","internalType":"uint256"},{"name":"receiver","type":"address","internalType":"address"}],"outputs":[{"name":"shares","type":"uint256","internalType":"uint256"}],"stateMutability":"nonpayable"},{"type":"function","name":"exitFleet","inputs":[{"name":"fleetCommander","type":"address","internalType":"address"},{"name":"amount","type":"uint256","internalType":"uint256"}],"outputs":[{"name":"shares","type":"uint256","internalType":"uint256"}],"stateMutability":"nonpayable"},{"type":"function","name":"fleetCommanderRewardsManagerFactory","inputs":[],"outputs":[{"name":"","type":"address","internalType":"address"}],"stateMutability":"view"},{"type":"function","name":"harborCommand","inputs":[],"outputs":[{"name":"","type":"address","internalType":"address"}],"stateMutability":"view"},{"type":"function","name":"multicall","inputs":[{"name":"data","type":"bytes[]","internalType":"bytes[]"}],"outputs":[{"name":"results","type":"bytes[]","internalType":"bytes[]"}],"stateMutability":"nonpayable"},{"type":"function","name":"oneInchRouter","inputs":[],"outputs":[{"name":"","type":"address","internalType":"address"}],"stateMutability":"view"},{"type":"function","name":"owner","inputs":[],"outputs":[{"name":"","type":"address","internalType":"address"}],"stateMutability":"view"},{"type":"function","name":"raft","inputs":[],"outputs":[{"name":"","type":"address","internalType":"address"}],"stateMutability":"view"},{"type":"function","name":"renounceOwnership","inputs":[],"outputs":[],"stateMutability":"nonpayable"},{"type":"function","name":"rescueTokens","inputs":[{"name":"token","type":"address","internalType":"contract IERC20"},{"name":"to","type":"address","internalType":"address"},{"name":"amount","type":"uint256","internalType":"uint256"}],"outputs":[],"stateMutability":"nonpayable"},{"type":"function","name":"stakeFleetShares","inputs":[{"name":"fleetCommander","type":"address","internalType":"address"},{"name":"amount","type":"uint256","internalType":"uint256"}],"outputs":[],"stateMutability":"nonpayable"},{"type":"function","name":"swap","inputs":[{"name":"fromToken","type":"address","internalType":"contract IERC20"},{"name":"toToken","type":"address","internalType":"contract IERC20"},{"name":"amount","type":"uint256","internalType":"uint256"},{"name":"minTokensReceived","type":"uint256","internalType":"uint256"},{"name":"swapCalldata","type":"bytes","internalType":"bytes"}],"outputs":[{"name":"swappedAmount","type":"uint256","internalType":"uint256"}],"stateMutability":"nonpayable"},{"type":"function","name":"tipJar","inputs":[],"outputs":[{"name":"","type":"address","internalType":"address"}],"stateMutability":"view"},{"type":"function","name":"transferOwnership","inputs":[{"name":"newOwner","type":"address","internalType":"address"}],"outputs":[],"stateMutability":"nonpayable"},{"type":"function","name":"treasury","inputs":[],"outputs":[{"name":"","type":"address","internalType":"address"}],"stateMutability":"view"},{"type":"function","name":"withdrawTokens","inputs":[{"name":"asset","type":"address","internalType":"contract IERC20"},{"name":"amount","type":"uint256","internalType":"uint256"}],"outputs":[],"stateMutability":"nonpayable"},{"type":"event","name":"FleetEntered","inputs":[{"name":"user","type":"address","indexed":true,"internalType":"address"},{"name":"fleetCommander","type":"address","indexed":true,"internalType":"address"},{"name":"inputAmount","type":"uint256","indexed":false,"internalType":"uint256"},{"name":"sharesReceived","type":"uint256","indexed":false,"internalType":"uint256"}],"anonymous":false},{"type":"event","name":"FleetExited","inputs":[{"name":"user","type":"address","indexed":true,"internalType":"address"},{"name":"fleetCommander","type":"address","indexed":true,"internalType":"address"},{"name":"withdrawnAmount","type":"uint256","indexed":false,"internalType":"uint256"},{"name":"outputAmount","type":"uint256","indexed":false,"internalType":"uint256"}],"anonymous":false},{"type":"event","name":"FleetSharesStaked","inputs":[{"name":"user","type":"address","indexed":true,"internalType":"address"},{"name":"fleetCommander","type":"address","indexed":true,"internalType":"address"},{"name":"amount","type":"uint256","indexed":false,"internalType":"uint256"}],"anonymous":false},{"type":"event","name":"FleetSharesUnstaked","inputs":[{"name":"user","type":"address","indexed":true,"internalType":"address"},{"name":"fleetCommander","type":"address","indexed":true,"internalType":"address"},{"name":"amount","type":"uint256","indexed":false,"internalType":"uint256"}],"anonymous":false},{"type":"event","name":"OwnershipTransferred","inputs":[{"name":"previousOwner","type":"address","indexed":true,"internalType":"address"},{"name":"newOwner","type":"address","indexed":true,"internalType":"address"}],"anonymous":false},{"type":"event","name":"Swapped","inputs":[{"name":"user","type":"address","indexed":true,"internalType":"address"},{"name":"fromToken","type":"address","indexed":true,"internalType":"address"},{"name":"toToken","type":"address","indexed":true,"internalType":"address"},{"name":"fromAmount","type":"uint256","indexed":false,"internalType":"uint256"},{"name":"toAmount","type":"uint256","indexed":false,"internalType":"uint256"}],"anonymous":false},{"type":"event","name":"TokensDeposited","inputs":[{"name":"user","type":"address","indexed":true,"internalType":"address"},{"name":"token","type":"address","indexed":true,"internalType":"address"},{"name":"amount","type":"uint256","indexed":false,"internalType":"uint256"}],"anonymous":false},{"type":"event","name":"TokensRescued","inputs":[{"name":"token","type":"address","indexed":true,"internalType":"address"},{"name":"to","type":"address","indexed":true,"internalType":"address"},{"name":"amount","type":"uint256","indexed":false,"internalType":"uint256"}],"anonymous":false},{"type":"event","name":"TokensWithdrawn","inputs":[{"name":"user","type":"address","indexed":true,"internalType":"address"},{"name":"token","type":"address","indexed":true,"internalType":"address"},{"name":"amount","type":"uint256","indexed":false,"internalType":"uint256"}],"anonymous":false},{"type":"error","name":"AddressEmptyCode","inputs":[{"name":"target","type":"address","internalType":"address"}]},{"type":"error","name":"AssetMismatch","inputs":[]},{"type":"error","name":"ConfigurationManagerZeroAddress","inputs":[]},{"type":"error","name":"FailedCall","inputs":[]},{"type":"error","name":"InsufficientOutputAmount","inputs":[]},{"type":"error","name":"InvalidFleetCommander","inputs":[]},{"type":"error","name":"InvalidRewardsManager","inputs":[]},{"type":"error","name":"InvalidRouterAddress","inputs":[]},{"type":"error","name":"InvalidToken","inputs":[]},{"type":"error","name":"OwnableInvalidOwner","inputs":[{"name":"owner","type":"address","internalType":"address"}]},{"type":"error","name":"OwnableUnauthorizedAccount","inputs":[{"name":"account","type":"address","internalType":"address"}]},{"type":"error","name":"ReentrancyGuard","inputs":[]},{"type":"error","name":"ReentrancyGuardReentrantCall","inputs":[]},{"type":"error","name":"SafeERC20FailedOperation","inputs":[{"name":"token","type":"address","internalType":"address"}]},{"type":"error","name":"SwapAmountMismatch","inputs":[]},{"type":"error","name":"SwapFailed","inputs":[]},{"type":"error","name":"TokenMismatch","inputs":[]},{"type":"error","name":"UnsupportedSwapFunction","inputs":[]},{"type":"error","name":"ZeroAmount","inputs":[]}],"bytecode":{"object":"0x60c060405234801561000f575f5ffd5b50604051611a92380380611a9283398101604081905261002e9161012e565b80338061005457604051631e4fbdf760e01b81525f600482015260240160405180910390fd5b61005d816100c4565b506001600160a01b0381166100855760405163f1634df960e01b815260040160405180910390fd5b6001600160a01b0390811660805282166100b2576040516314203b4b60e01b815260040160405180910390fd5b506001600160a01b031660a05261015f565b5f80546001600160a01b038381166001600160a01b0319831681178455604051919092169283917f8be0079c531659141344cd1fd0a4f28419497f9722a3daafe3b4186f6b6457e09190a35050565b80516001600160a01b0381168114610129575f5ffd5b919050565b5f5f6040838503121561013f575f5ffd5b61014883610113565b915061015660208401610113565b90509250929050565b60805160a0516118e16101b15f395f81816101b801528181610f380152610f6001525f81816101ff0152818161036d0152818161050b0152818161056801528181610644015261092501526118e15ff3fe608060405234801561000f575f5ffd5b5060043610610111575f3560e01c8063ac3af2081161009e578063d7f8e9a51161006e578063d7f8e9a514610234578063f2fde38b14610247578063f7e533ec1461025a578063fbebe11a14610262578063ff993eb514610275575f5ffd5b8063ac3af208146101b3578063ac9650d8146101da578063c9c667e3146101fa578063cea9d26f14610221575f5ffd5b806361d027b3116100e457806361d027b31461017857806366168bd714610180578063715018a6146101935780637aaceb951461019b5780638da5cb5b146101a3575f5ffd5b806306b091f914610115578063117d8ae01461012a5780632506c0181461014f5780635b0f83f314610170575b5f5ffd5b610128610123366004611481565b610288565b005b61013261036a565b6040516001600160a01b0390911681526020015b60405180910390f35b61016261015d3660046114ab565b6103f0565b604051908152602001610146565b610132610508565b610132610565565b61012861018e366004611481565b6105c2565b61012861062e565b610132610641565b5f546001600160a01b0316610132565b6101327f000000000000000000000000000000000000000000000000000000000000000081565b6101ed6101e8366004611550565b61069e565b60405161014691906115c1565b6101327f000000000000000000000000000000000000000000000000000000000000000081565b61012861022f366004611645565b610785565b610162610242366004611481565b6107f3565b610128610255366004611683565b6108e0565b610132610922565b610128610270366004611481565b61097f565b61016261028336600461169e565b610b5b565b610290610d9b565b61029982610e08565b805f03610309576040516370a0823160e01b81523060048201526001600160a01b038316906370a0823190602401602060405180830381865afa1580156102e2573d5f5f3e3d5ffd5b505050506040513d601f19601f8201168201806040525081019061030691906116ee565b90505b61031d6001600160a01b0383163383610e2f565b6040518181526001600160a01b0383169033907f6337ed398c0e8467698c581374fdce4db14922df487b5a39483079f5f59b60a4906020015b60405180910390a3610366610e93565b5050565b5f7f00000000000000000000000000000000000000000000000000000000000000006001600160a01b031663117d8ae06040518163ffffffff1660e01b8152600401602060405180830381865afa1580156103c7573d5f5f3e3d5ffd5b505050506040513d601f19601f820116820180604052508101906103eb9190611715565b905090565b5f6103f9610d9b565b6001600160a01b038716158061041657506001600160a01b038616155b156104345760405163c1ab6dc160e01b815260040160405180910390fd5b845f0361045457604051631f2a200560e01b815260040160405180910390fd5b856001600160a01b0316876001600160a01b031603610486576040516341e0808560e11b815260040160405180910390fd5b610494878787878787610ebd565b9050856001600160a01b0316876001600160a01b0316336001600160a01b03167f6782190c91d4a7e8ad2a867deed6ec0a970cab8ff137ae2bd4abd92b3810f4d388856040516104ee929190918252602082015260400190565b60405180910390a46104fe610e93565b9695505050505050565b5f7f00000000000000000000000000000000000000000000000000000000000000006001600160a01b0316635b0f83f36040518163ffffffff1660e01b8152600401602060405180830381865afa1580156103c7573d5f5f3e3d5ffd5b5f7f00000000000000000000000000000000000000000000000000000000000000006001600160a01b03166361d027b36040518163ffffffff1660e01b8152600401602060405180830381865afa1580156103c7573d5f5f3e3d5ffd5b6105ca610d9b565b6105d382610e08565b6105dc8161109c565b6105f16001600160a01b0383163330846110bc565b6040518181526001600160a01b0383169033907fcbc4a4091b012bb1329c38bbbb15455f5cac5aa3673da0a7f38cd61a4f49551790602001610356565b6106366110fb565b61063f5f611127565b565b5f7f00000000000000000000000000000000000000000000000000000000000000006001600160a01b0316637aaceb956040518163ffffffff1660e01b8152600401602060405180830381865afa1580156103c7573d5f5f3e3d5ffd5b604080515f8152602081019091526060908267ffffffffffffffff8111156106c8576106c861174f565b6040519080825280602002602001820160405280156106fb57816020015b60608152602001906001900390816106e65790505b5091505f5b8381101561077c576107573086868481811061071e5761071e611763565b90506020028101906107309190611777565b85604051602001610743939291906117d8565b604051602081830303815290604052611176565b83828151811061076957610769611763565b6020908102919091010152600101610700565b50505b92915050565b61078d6110fb565b6107a16001600160a01b0384168383610e2f565b816001600160a01b0316836001600160a01b03167f77023e19c7343ad491fd706c36335ca0e738340a91f29b1fd81e2673d44896c4836040516107e691815260200190565b60405180910390a3505050565b5f6107fc610d9b565b610805836111e8565b825f83156108135783610816565b5f195b604051632d182be560e21b8152600481018290523060248201523360448201529091506001600160a01b0383169063b460af94906064016020604051808303815f875af1158015610869573d5f5f3e3d5ffd5b505050506040513d601f19601f8201168201806040525081019061088d91906116ee565b60408051838152602081018390529194506001600160a01b0387169133917f3018bc84615a588f3485d554ded6943344a7f25f8b758b14b6e9677378c1c68b910160405180910390a3505061077f610e93565b6108e86110fb565b6001600160a01b03811661091657604051631e4fbdf760e01b81525f60048201526024015b60405180910390fd5b61091f81611127565b50565b5f7f00000000000000000000000000000000000000000000000000000000000000006001600160a01b031663f7e533ec6040518163ffffffff1660e01b8152600401602060405180830381865afa1580156103c7573d5f5f3e3d5ffd5b610987610d9b565b610990826111e8565b5f8290505f816001600160a01b031663c3f909d46040518163ffffffff1660e01b815260040160a060405180830381865afa1580156109d1573d5f5f3e3d5ffd5b505050506040513d601f19601f820116820180604052508101906109f591906117ed565b608001519050610a0481611277565b6040516370a0823160e01b81523060048201525f906001600160a01b038616906370a0823190602401602060405180830381865afa158015610a48573d5f5f3e3d5ffd5b505050506040513d601f19601f82011682018060405250810190610a6c91906116ee565b90505f8415610a7b5784610a7d565b815b905081811115610aa0576040516342301c2360e01b815260040160405180910390fd5b610ab46001600160a01b038716848361129e565b60405163cecc238f60e01b8152336004820152602481018290526001600160a01b0384169063cecc238f906044015f604051808303815f87803b158015610af9575f5ffd5b505af1158015610b0b573d5f5f3e3d5ffd5b50506040518381526001600160a01b03891692503391507f229b6242f243935a5ba03689948a442635f9fd7ed35555146349f51316c1f28e9060200160405180910390a350505050610366610e93565b5f610b64610d9b565b610b6d856111e8565b610b7684610e08565b5f8590505f816001600160a01b03166338d52e0f6040518163ffffffff1660e01b8152600401602060405180830381865afa158015610bb7573d5f5f3e3d5ffd5b505050506040513d601f19601f82011682018060405250810190610bdb9190611715565b9050806001600160a01b0316866001600160a01b031614610c0f5760405163936bb5ad60e01b815260040160405180910390fd5b6040516370a0823160e01b81523060048201525f906001600160a01b038816906370a0823190602401602060405180830381865afa158015610c53573d5f5f3e3d5ffd5b505050506040513d601f19601f82011682018060405250810190610c7791906116ee565b90505f8615610c865786610c88565b815b905081811115610cab576040516342301c2360e01b815260040160405180910390fd5b610cbf6001600160a01b038416858361129e565b604051636e553f6560e01b8152600481018290526001600160a01b038781166024830152851690636e553f65906044016020604051808303815f875af1158015610d0b573d5f5f3e3d5ffd5b505050506040513d601f19601f82011682018060405250810190610d2f91906116ee565b9450886001600160a01b0316866001600160a01b03167fd584e570678d099262db4ba972df2e63e3618dadc6179677a6a2b18360c4a6578388604051610d7f929190918252602082015260400190565b60405180910390a350505050610d93610e93565b949350505050565b7f9b779b17422d0df92223018b32b4d1fa46e071723d6817e2486d003becc55f005c15610ddb57604051633ee5aeb560e01b815260040160405180910390fd5b61063f60017f9b779b17422d0df92223018b32b4d1fa46e071723d6817e2486d003becc55f005b9061132d565b6001600160a01b03811661091f5760405163c1ab6dc160e01b815260040160405180910390fd5b6040516001600160a01b03838116602483015260448201839052610e8e91859182169063a9059cbb906064015b604051602081830303815290604052915060e01b6020820180516001600160e01b038381831617835250505050611334565b505050565b61063f5f7f9b779b17422d0df92223018b32b4d1fa46e071723d6817e2486d003becc55f00610e02565b6040516370a0823160e01b81523060048201525f9081906001600160a01b038816906370a0823190602401602060405180830381865afa158015610f03573d5f5f3e3d5ffd5b505050506040513d601f19601f82011682018060405250810190610f2791906116ee565b9050610f5d6001600160a01b0389167f00000000000000000000000000000000000000000000000000000000000000008861129e565b5f7f00000000000000000000000000000000000000000000000000000000000000006001600160a01b03168585604051610f98929190611872565b5f604051808303815f865af19150503d805f8114610fd1576040519150601f19603f3d011682016040523d82523d5f602084013e610fd6565b606091505b5050905080610ff85760405163081ceff360e41b815260040160405180910390fd5b6040516370a0823160e01b81523060048201525f906001600160a01b038a16906370a0823190602401602060405180830381865afa15801561103c573d5f5f3e3d5ffd5b505050506040513d601f19601f8201168201806040525081019061106091906116ee565b905061106c8382611730565b93508684101561108f576040516342301c2360e01b815260040160405180910390fd5b5050509695505050505050565b805f0361091f57604051631f2a200560e01b815260040160405180910390fd5b6040516001600160a01b0384811660248301528381166044830152606482018390526110f59186918216906323b872dd90608401610e5c565b50505050565b5f546001600160a01b0316331461063f5760405163118cdaa760e01b815233600482015260240161090d565b5f80546001600160a01b038381166001600160a01b0319831681178455604051919092169283917f8be0079c531659141344cd1fd0a4f28419497f9722a3daafe3b4186f6b6457e09190a35050565b60605f5f846001600160a01b0316846040516111929190611881565b5f60405180830381855af49150503d805f81146111ca576040519150601f19603f3d011682016040523d82523d5f602084013e6111cf565b606091505b50915091506111df8583836113a0565b95945050505050565b6111f0610508565b6040516374e806ab60e11b81526001600160a01b038381166004830152919091169063e9d00d5690602401602060405180830381865afa158015611236573d5f5f3e3d5ffd5b505050506040513d601f19601f8201168201806040525081019061125a919061188c565b61091f576040516317b9ea1760e11b815260040160405180910390fd5b6001600160a01b03811661091f5760405163913a247f60e01b815260040160405180910390fd5b604080516001600160a01b038416602482015260448082018490528251808303909101815260649091019091526020810180516001600160e01b031663095ea7b360e01b1790526112ef84826113ff565b6110f5576040516001600160a01b0384811660248301525f604483015261132391869182169063095ea7b390606401610e5c565b6110f58482611334565b80825d5050565b5f5f60205f8451602086015f885af180611353576040513d5f823e3d81fd5b50505f513d9150811561136a578060011415611377565b6001600160a01b0384163b155b156110f557604051635274afe760e01b81526001600160a01b038516600482015260240161090d565b6060826113b5576113b082611444565b6113f8565b81511580156113cc57506001600160a01b0384163b155b156113f557604051639996b31560e01b81526001600160a01b038516600482015260240161090d565b50805b9392505050565b5f5f5f5f60205f8651602088015f8a5af192503d91505f5190508280156104fe5750811561143057806001146104fe565b50505050506001600160a01b03163b151590565b8051156114545780518082602001fd5b60405163d6bda27560e01b815260040160405180910390fd5b6001600160a01b038116811461091f575f5ffd5b5f5f60408385031215611492575f5ffd5b823561149d8161146d565b946020939093013593505050565b5f5f5f5f5f5f60a087890312156114c0575f5ffd5b86356114cb8161146d565b955060208701356114db8161146d565b94506040870135935060608701359250608087013567ffffffffffffffff811115611504575f5ffd5b8701601f81018913611514575f5ffd5b803567ffffffffffffffff81111561152a575f5ffd5b89602082840101111561153b575f5ffd5b60208201935080925050509295509295509295565b5f5f60208385031215611561575f5ffd5b823567ffffffffffffffff811115611577575f5ffd5b8301601f81018513611587575f5ffd5b803567ffffffffffffffff81111561159d575f5ffd5b8560208260051b84010111156115b1575f5ffd5b6020919091019590945092505050565b5f602082016020835280845180835260408501915060408160051b8601019250602086015f5b8281101561163957603f19878603018452815180518087528060208301602089015e5f602082890101526020601f19601f830116880101965050506020820191506020840193506001810190506115e7565b50929695505050505050565b5f5f5f60608486031215611657575f5ffd5b83356116628161146d565b925060208401356116728161146d565b929592945050506040919091013590565b5f60208284031215611693575f5ffd5b81356113f88161146d565b5f5f5f5f608085870312156116b1575f5ffd5b84356116bc8161146d565b935060208501356116cc8161146d565b92506040850135915060608501356116e38161146d565b939692955090935050565b5f602082840312156116fe575f5ffd5b5051919050565b80516117108161146d565b919050565b5f60208284031215611725575f5ffd5b81516113f88161146d565b8181038181111561077f57634e487b7160e01b5f52601160045260245ffd5b634e487b7160e01b5f52604160045260245ffd5b634e487b7160e01b5f52603260045260245ffd5b5f5f8335601e1984360301811261178c575f5ffd5b83018035915067ffffffffffffffff8211156117a6575f5ffd5b6020019150368190038213156117ba575f5ffd5b9250929050565b5f81518060208401855e5f93019283525090919050565b828482375f8382015f81526104fe81856117c1565b5f60a08284031280156117fe575f5ffd5b5060405160a0810167ffffffffffffffff8111828210171561182e57634e487b7160e01b5f52604160045260245ffd5b60405261183a83611705565b815260208381015190820152604080840151908201526060808401519082015261186660808401611705565b60808201529392505050565b818382375f9101908152919050565b5f6113f882846117c1565b5f6020828403121561189c575f5ffd5b815180151581146113f8575f5ffdfea264697066735822122087cc242bae5844ccfcb5b541bd5e37428af48ac1154fbcde80b1c15a70a0f4c464736f6c634300081c0033","linkReferences":{}},"methodIdentifiers":{"configurationManager()":"c9c667e3","depositTokens(address,uint256)":"66168bd7","enterFleet(address,address,uint256,address)":"ff993eb5","exitFleet(address,uint256)":"d7f8e9a5","fleetCommanderRewardsManagerFactory()":"f7e533ec","harborCommand()":"5b0f83f3","multicall(bytes[])":"ac9650d8","oneInchRouter()":"ac3af208","owner()":"8da5cb5b","raft()":"117d8ae0","renounceOwnership()":"715018a6","rescueTokens(address,address,uint256)":"cea9d26f","stakeFleetShares(address,uint256)":"fbebe11a","swap(address,address,uint256,uint256,bytes)":"2506c018","tipJar()":"7aaceb95","transferOwnership(address)":"f2fde38b","treasury()":"61d027b3","withdrawTokens(address,uint256)":"06b091f9"},"id":151}