{"abi":[{"type":"constructor","inputs":[{"name":"_oneInchRouter","type":"address","internalType":"address"},{"name":"_configurationManager","type":"address","internalType":"address"}],"stateMutability":"nonpayable"},{"type":"function","name":"configurationManager","inputs":[],"outputs":[{"name":"","type":"address","internalType":"contract IConfigurationManager"}],"stateMutability":"view"},{"type":"function","name":"depositTokens","inputs":[{"name":"asset","type":"address","internalType":"contract IERC20"},{"name":"amount","type":"uint256","internalType":"uint256"}],"outputs":[],"stateMutability":"nonpayable"},{"type":"function","name":"enterFleet","inputs":[{"name":"fleetCommander","type":"address","internalType":"address"},{"name":"inputToken","type":"address","internalType":"contract IERC20"},{"name":"assets","type":"uint256","internalType":"uint256"},{"name":"receiver","type":"address","internalType":"address"}],"outputs":[{"name":"shares","type":"uint256","internalType":"uint256"}],"stateMutability":"nonpayable"},{"type":"function","name":"exitFleet","inputs":[{"name":"fleetCommander","type":"address","internalType":"address"},{"name":"assets","type":"uint256","internalType":"uint256"}],"outputs":[{"name":"shares","type":"uint256","internalType":"uint256"}],"stateMutability":"nonpayable"},{"type":"function","name":"fleetCommanderRewardsManagerFactory","inputs":[],"outputs":[{"name":"","type":"address","internalType":"address"}],"stateMutability":"view"},{"type":"function","name":"harborCommand","inputs":[],"outputs":[{"name":"","type":"address","internalType":"address"}],"stateMutability":"view"},{"type":"function","name":"moveFromAaveToAdmiralsQuarters","inputs":[{"name":"aToken","type":"address","internalType":"address"},{"name":"assets","type":"uint256","internalType":"uint256"}],"outputs":[],"stateMutability":"nonpayable"},{"type":"function","name":"moveFromCompoundToAdmiralsQuarters","inputs":[{"name":"cToken","type":"address","internalType":"address"},{"name":"assets","type":"uint256","internalType":"uint256"}],"outputs":[],"stateMutability":"nonpayable"},{"type":"function","name":"moveFromERC4626ToAdmiralsQuarters","inputs":[{"name":"vault","type":"address","internalType":"address"},{"name":"shares","type":"uint256","internalType":"uint256"}],"outputs":[],"stateMutability":"nonpayable"},{"type":"function","name":"multicall","inputs":[{"name":"data","type":"bytes[]","internalType":"bytes[]"}],"outputs":[{"name":"results","type":"bytes[]","internalType":"bytes[]"}],"stateMutability":"nonpayable"},{"type":"function","name":"oneInchRouter","inputs":[],"outputs":[{"name":"","type":"address","internalType":"address"}],"stateMutability":"view"},{"type":"function","name":"owner","inputs":[],"outputs":[{"name":"","type":"address","internalType":"address"}],"stateMutability":"view"},{"type":"function","name":"raft","inputs":[],"outputs":[{"name":"","type":"address","internalType":"address"}],"stateMutability":"view"},{"type":"function","name":"renounceOwnership","inputs":[],"outputs":[],"stateMutability":"nonpayable"},{"type":"function","name":"rescueTokens","inputs":[{"name":"token","type":"address","internalType":"contract IERC20"},{"name":"to","type":"address","internalType":"address"},{"name":"amount","type":"uint256","internalType":"uint256"}],"outputs":[],"stateMutability":"nonpayable"},{"type":"function","name":"stake","inputs":[{"name":"fleetCommander","type":"address","internalType":"address"},{"name":"shares","type":"uint256","internalType":"uint256"}],"outputs":[],"stateMutability":"nonpayable"},{"type":"function","name":"swap","inputs":[{"name":"fromToken","type":"address","internalType":"contract IERC20"},{"name":"toToken","type":"address","internalType":"contract IERC20"},{"name":"assets","type":"uint256","internalType":"uint256"},{"name":"minTokensReceived","type":"uint256","internalType":"uint256"},{"name":"swapCalldata","type":"bytes","internalType":"bytes"}],"outputs":[{"name":"swappedAmount","type":"uint256","internalType":"uint256"}],"stateMutability":"nonpayable"},{"type":"function","name":"tipJar","inputs":[],"outputs":[{"name":"","type":"address","internalType":"address"}],"stateMutability":"view"},{"type":"function","name":"transferOwnership","inputs":[{"name":"newOwner","type":"address","internalType":"address"}],"outputs":[],"stateMutability":"nonpayable"},{"type":"function","name":"treasury","inputs":[],"outputs":[{"name":"","type":"address","internalType":"address"}],"stateMutability":"view"},{"type":"function","name":"unstakeAndWithdrawAssets","inputs":[{"name":"fleetCommander","type":"address","internalType":"address"},{"name":"shares","type":"uint256","internalType":"uint256"}],"outputs":[],"stateMutability":"nonpayable"},{"type":"function","name":"withdrawTokens","inputs":[{"name":"asset","type":"address","internalType":"contract IERC20"},{"name":"amount","type":"uint256","internalType":"uint256"}],"outputs":[],"stateMutability":"nonpayable"},{"type":"event","name":"AavePositionImported","inputs":[{"name":"user","type":"address","indexed":true,"internalType":"address"},{"name":"aToken","type":"address","indexed":true,"internalType":"address"},{"name":"amount","type":"uint256","indexed":false,"internalType":"uint256"}],"anonymous":false},{"type":"event","name":"CompoundPositionImported","inputs":[{"name":"user","type":"address","indexed":true,"internalType":"address"},{"name":"cToken","type":"address","indexed":true,"internalType":"address"},{"name":"amount","type":"uint256","indexed":false,"internalType":"uint256"}],"anonymous":false},{"type":"event","name":"ERC4626PositionImported","inputs":[{"name":"user","type":"address","indexed":true,"internalType":"address"},{"name":"vault","type":"address","indexed":true,"internalType":"address"},{"name":"amount","type":"uint256","indexed":false,"internalType":"uint256"}],"anonymous":false},{"type":"event","name":"FleetEntered","inputs":[{"name":"user","type":"address","indexed":true,"internalType":"address"},{"name":"fleetCommander","type":"address","indexed":true,"internalType":"address"},{"name":"inputAmount","type":"uint256","indexed":false,"internalType":"uint256"},{"name":"sharesReceived","type":"uint256","indexed":false,"internalType":"uint256"}],"anonymous":false},{"type":"event","name":"FleetExited","inputs":[{"name":"user","type":"address","indexed":true,"internalType":"address"},{"name":"fleetCommander","type":"address","indexed":true,"internalType":"address"},{"name":"withdrawnAmount","type":"uint256","indexed":false,"internalType":"uint256"},{"name":"outputAmount","type":"uint256","indexed":false,"internalType":"uint256"}],"anonymous":false},{"type":"event","name":"FleetSharesStaked","inputs":[{"name":"user","type":"address","indexed":true,"internalType":"address"},{"name":"fleetCommander","type":"address","indexed":true,"internalType":"address"},{"name":"amount","type":"uint256","indexed":false,"internalType":"uint256"}],"anonymous":false},{"type":"event","name":"FleetSharesUnstaked","inputs":[{"name":"user","type":"address","indexed":true,"internalType":"address"},{"name":"fleetCommander","type":"address","indexed":true,"internalType":"address"},{"name":"amount","type":"uint256","indexed":false,"internalType":"uint256"}],"anonymous":false},{"type":"event","name":"OwnershipTransferred","inputs":[{"name":"previousOwner","type":"address","indexed":true,"internalType":"address"},{"name":"newOwner","type":"address","indexed":true,"internalType":"address"}],"anonymous":false},{"type":"event","name":"Swapped","inputs":[{"name":"user","type":"address","indexed":true,"internalType":"address"},{"name":"fromToken","type":"address","indexed":true,"internalType":"address"},{"name":"toToken","type":"address","indexed":true,"internalType":"address"},{"name":"fromAmount","type":"uint256","indexed":false,"internalType":"uint256"},{"name":"toAmount","type":"uint256","indexed":false,"internalType":"uint256"}],"anonymous":false},{"type":"event","name":"TokensDeposited","inputs":[{"name":"user","type":"address","indexed":true,"internalType":"address"},{"name":"token","type":"address","indexed":true,"internalType":"address"},{"name":"amount","type":"uint256","indexed":false,"internalType":"uint256"}],"anonymous":false},{"type":"event","name":"TokensRescued","inputs":[{"name":"token","type":"address","indexed":true,"internalType":"address"},{"name":"to","type":"address","indexed":true,"internalType":"address"},{"name":"amount","type":"uint256","indexed":false,"internalType":"uint256"}],"anonymous":false},{"type":"event","name":"TokensWithdrawn","inputs":[{"name":"user","type":"address","indexed":true,"internalType":"address"},{"name":"token","type":"address","indexed":true,"internalType":"address"},{"name":"amount","type":"uint256","indexed":false,"internalType":"uint256"}],"anonymous":false},{"type":"error","name":"AddressEmptyCode","inputs":[{"name":"target","type":"address","internalType":"address"}]},{"type":"error","name":"AssetMismatch","inputs":[]},{"type":"error","name":"ConfigurationManagerZeroAddress","inputs":[]},{"type":"error","name":"FailedCall","inputs":[]},{"type":"error","name":"InsufficientOutputAmount","inputs":[]},{"type":"error","name":"InvalidFleetCommander","inputs":[]},{"type":"error","name":"InvalidRewardsManager","inputs":[]},{"type":"error","name":"InvalidRouterAddress","inputs":[]},{"type":"error","name":"InvalidToken","inputs":[]},{"type":"error","name":"MulticallAlreadyInProgress","inputs":[]},{"type":"error","name":"NotMulticall","inputs":[]},{"type":"error","name":"OwnableInvalidOwner","inputs":[{"name":"owner","type":"address","internalType":"address"}]},{"type":"error","name":"OwnableUnauthorizedAccount","inputs":[{"name":"account","type":"address","internalType":"address"}]},{"type":"error","name":"ReentrancyGuard","inputs":[]},{"type":"error","name":"ReentrancyGuardReentrantCall","inputs":[]},{"type":"error","name":"SafeERC20FailedOperation","inputs":[{"name":"token","type":"address","internalType":"address"}]},{"type":"error","name":"SwapAmountMismatch","inputs":[]},{"type":"error","name":"SwapFailed","inputs":[]},{"type":"error","name":"TokenMismatch","inputs":[]},{"type":"error","name":"UnsupportedSwapFunction","inputs":[]},{"type":"error","name":"ZeroAmount","inputs":[]}],"bytecode":{"object":"0x60c060405234801561000f575f5ffd5b506040516125f93803806125f983398101604081905261002e9161012e565b80338061005457604051631e4fbdf760e01b81525f600482015260240160405180910390fd5b61005d816100c4565b506001600160a01b0381166100855760405163f1634df960e01b815260040160405180910390fd5b6001600160a01b0390811660805282166100b2576040516314203b4b60e01b815260040160405180910390fd5b506001600160a01b031660a05261015f565b5f80546001600160a01b038381166001600160a01b0319831681178455604051919092169283917f8be0079c531659141344cd1fd0a4f28419497f9722a3daafe3b4186f6b6457e09190a35050565b80516001600160a01b0381168114610129575f5ffd5b919050565b5f5f6040838503121561013f575f5ffd5b61014883610113565b915061015660208401610113565b90509250929050565b60805160a0516124486101b15f395f818161020a0152818161198201526119aa01525f81816102770152818161061c015281816107f7015281816108540152818161096701526114fd01526124485ff3fe608060405234801561000f575f5ffd5b506004361061013d575f3560e01c8063ac3af208116100b4578063cea9d26f11610079578063cea9d26f14610299578063cf87c38f146102ac578063d7f8e9a5146102bf578063f2fde38b146102d2578063f7e533ec146102e5578063ff993eb5146102ed575f5ffd5b8063ac3af20814610205578063ac9650d81461022c578063adc9772e1461024c578063bec93aa71461025f578063c9c667e314610272575f5ffd5b806361d027b31161010557806361d027b3146101b757806366168bd7146101bf578063715018a6146101d25780637aaceb95146101da57806388bcf983146101e25780638da5cb5b146101f5575f5ffd5b806306b091f9146101415780630dedddbf14610156578063117d8ae0146101695780632506c0181461018e5780635b0f83f3146101af575b5f5ffd5b61015461014f366004611fc8565b610300565b005b610154610164366004611fc8565b610419565b610171610619565b6040516001600160a01b0390911681526020015b60405180910390f35b6101a161019c366004611ff2565b61069f565b604051908152602001610185565b6101716107f4565b610171610851565b6101546101cd366004611fc8565b6108ae565b610154610951565b610171610964565b6101546101f0366004611fc8565b6109c1565b5f546001600160a01b0316610171565b6101717f000000000000000000000000000000000000000000000000000000000000000081565b61023f61023a366004612097565b610c26565b6040516101859190612108565b61015461025a366004611fc8565b610c82565b61015461026d366004611fc8565b610ea3565b6101717f000000000000000000000000000000000000000000000000000000000000000081565b6101546102a736600461218c565b61111d565b6101546102ba366004611fc8565b61118b565b6101a16102cd366004611fc8565b611384565b6101546102e03660046121ca565b6114b8565b6101716114fa565b6101a16102fb3660046121e5565b611557565b335f5160206123f35f395f51905f525c6001600160a01b03161461033757604051633128ce5560e01b815260040160405180910390fd5b61033f6117e5565b61034882611852565b805f036103b8576040516370a0823160e01b81523060048201526001600160a01b038316906370a0823190602401602060405180830381865afa158015610391573d5f5f3e3d5ffd5b505050506040513d601f19601f820116820180604052508101906103b59190612235565b90505b6103cc6001600160a01b0383163383611879565b6040518181526001600160a01b0383169033907f6337ed398c0e8467698c581374fdce4db14922df487b5a39483079f5f59b60a4906020015b60405180910390a36104156118dd565b5050565b335f5160206123f35f395f51905f525c6001600160a01b03161461045057604051633128ce5560e01b815260040160405180910390fd5b6104586117e5565b5f8290505f816001600160a01b031663c55dae636040518163ffffffff1660e01b8152600401602060405180830381865afa158015610499573d5f5f3e3d5ffd5b505050506040513d601f19601f820116820180604052508101906104bd919061225c565b905082156104cb5782610541565b6001600160a01b0382166370a08231336040516001600160e01b031960e084901b1681526001600160a01b039091166004820152602401602060405180830381865afa15801561051d573d5f5f3e3d5ffd5b505050506040513d601f19601f820116820180604052508101906105419190612235565b92506001600160a01b0382166326441318336040516001600160e01b031960e084901b1681526001600160a01b0391821660048201523060248201529084166044820152606481018690526084015f604051808303815f87803b1580156105a6575f5ffd5b505af11580156105b8573d5f5f3e3d5ffd5b50505050836001600160a01b03166105cd3390565b6001600160a01b03167f2bb776770e69df4d29d3c5d4c6c05ec4c32f7be119d35604fbba0e8f86d152f98560405161060791815260200190565b60405180910390a350506104156118dd565b5f7f00000000000000000000000000000000000000000000000000000000000000006001600160a01b031663117d8ae06040518163ffffffff1660e01b8152600401602060405180830381865afa158015610676573d5f5f3e3d5ffd5b505050506040513d601f19601f8201168201806040525081019061069a919061225c565b905090565b5f335f5160206123f35f395f51905f525c6001600160a01b0316146106d757604051633128ce5560e01b815260040160405180910390fd5b6106df6117e5565b6001600160a01b03871615806106fc57506001600160a01b038616155b1561071a5760405163c1ab6dc160e01b815260040160405180910390fd5b845f0361073a57604051631f2a200560e01b815260040160405180910390fd5b856001600160a01b0316876001600160a01b03160361076c576040516341e0808560e11b815260040160405180910390fd5b61077a878787878787611907565b9050856001600160a01b0316876001600160a01b03166107973390565b6001600160a01b03167f6782190c91d4a7e8ad2a867deed6ec0a970cab8ff137ae2bd4abd92b3810f4d388856040516107da929190918252602082015260400190565b60405180910390a46107ea6118dd565b9695505050505050565b5f7f00000000000000000000000000000000000000000000000000000000000000006001600160a01b0316635b0f83f36040518163ffffffff1660e01b8152600401602060405180830381865afa158015610676573d5f5f3e3d5ffd5b5f7f00000000000000000000000000000000000000000000000000000000000000006001600160a01b03166361d027b36040518163ffffffff1660e01b8152600401602060405180830381865afa158015610676573d5f5f3e3d5ffd5b335f5160206123f35f395f51905f525c6001600160a01b0316146108e557604051633128ce5560e01b815260040160405180910390fd5b6108ed6117e5565b6108f682611852565b6108ff81611ae6565b6109146001600160a01b038316333084611b06565b6040518181526001600160a01b0383169033907fcbc4a4091b012bb1329c38bbbb15455f5cac5aa3673da0a7f38cd61a4f49551790602001610405565b610959611b45565b6109625f611b71565b565b5f7f00000000000000000000000000000000000000000000000000000000000000006001600160a01b0316637aaceb956040518163ffffffff1660e01b8152600401602060405180830381865afa158015610676573d5f5f3e3d5ffd5b335f5160206123f35f395f51905f525c6001600160a01b0316146109f857604051633128ce5560e01b815260040160405180910390fd5b610a006117e5565b5f8290505f816001600160a01b0316637535d2466040518163ffffffff1660e01b8152600401602060405180830381865afa158015610a41573d5f5f3e3d5ffd5b505050506040513d601f19601f82011682018060405250810190610a65919061225c565b90505f826001600160a01b031663b16a19de6040518163ffffffff1660e01b8152600401602060405180830381865afa158015610aa4573d5f5f3e3d5ffd5b505050506040513d601f19601f82011682018060405250810190610ac8919061225c565b90508315610ad65783610b4c565b6001600160a01b0383166370a08231336040516001600160e01b031960e084901b1681526001600160a01b039091166004820152602401602060405180830381865afa158015610b28573d5f5f3e3d5ffd5b505050506040513d601f19601f82011682018060405250810190610b4c9190612235565b9350610b636001600160a01b038416333087611b06565b604051631a4ca37b60e21b81526001600160a01b038281166004830152602482018690523060448301528316906369328dec906064016020604051808303815f875af1158015610bb5573d5f5f3e3d5ffd5b505050506040513d601f19601f82011682018060405250810190610bd99190612235565b506040518481526001600160a01b0386169033907fd269ddb991eeb6ceaf84849c22783248bd97ffea53842ccfc04dc943729b19e3906020015b60405180910390a35050506104156118dd565b60606001600160a01b035f5160206123f35f395f51905f525c1615610c5e576040516339082a3960e11b815260040160405180910390fd5b610c6733611bc0565b610c718383611bd7565b9050610c7c5f611bc0565b92915050565b335f5160206123f35f395f51905f525c6001600160a01b031614610cb957604051633128ce5560e01b815260040160405180910390fd5b610cc16117e5565b610cca82611cbd565b5f8290505f816001600160a01b031663c3f909d46040518163ffffffff1660e01b815260040160a060405180830381865afa158015610d0b573d5f5f3e3d5ffd5b505050506040513d601f19601f82011682018060405250810190610d2f919061228b565b608001519050610d3e81611d4c565b6040516370a0823160e01b81523060048201525f906001600160a01b038616906370a0823190602401602060405180830381865afa158015610d82573d5f5f3e3d5ffd5b505050506040513d601f19601f82011682018060405250810190610da69190612235565b90508315610db45783610db6565b805b935080841115610dd9576040516342301c2360e01b815260040160405180910390fd5b610ded6001600160a01b0386168386611d73565b6001600160a01b03821663cecc238f336040516001600160e01b031960e084901b1681526001600160a01b039091166004820152602481018790526044015f604051808303815f87803b158015610e42575f5ffd5b505af1158015610e54573d5f5f3e3d5ffd5b50505050846001600160a01b0316610e693390565b6001600160a01b03167f229b6242f243935a5ba03689948a442635f9fd7ed35555146349f51316c1f28e86604051610c1391815260200190565b335f5160206123f35f395f51905f525c6001600160a01b031614610eda57604051633128ce5560e01b815260040160405180910390fd5b610ee26117e5565b610eeb82611cbd565b5f8290505f816001600160a01b031663c3f909d46040518163ffffffff1660e01b815260040160a060405180830381865afa158015610f2c573d5f5f3e3d5ffd5b505050506040513d601f19601f82011682018060405250810190610f50919061228b565b608001519050610f5f81611d4c565b8215610f6b5782610fe1565b6001600160a01b0381166370a08231336040516001600160e01b031960e084901b1681526001600160a01b039091166004820152602401602060405180830381865afa158015610fbd573d5f5f3e3d5ffd5b505050506040513d601f19601f82011682018060405250810190610fe19190612235565b92506001600160a01b03811663c7ec3623336040516001600160e01b031960e084901b1681526001600160a01b039091166004820152306024820152604481018690526064015f604051808303815f87803b15801561103e575f5ffd5b505af1158015611050573d5f5f3e3d5ffd5b50505050816001600160a01b031663b460af945f1961106c3390565b6040516001600160e01b031960e085901b16815260048101929092526001600160a01b031660248201523060448201526064016020604051808303815f875af11580156110bb573d5f5f3e3d5ffd5b505050506040513d601f19601f820116820180604052508101906110df9190612235565b506040518381526001600160a01b0385169033907f700c68e6e49e104bb8288f3d6ffb4723d8c8fa31695662535a9c6980d44eee2090602001610607565b611125611b45565b6111396001600160a01b0384168383611879565b816001600160a01b0316836001600160a01b03167f77023e19c7343ad491fd706c36335ca0e738340a91f29b1fd81e2673d44896c48360405161117e91815260200190565b60405180910390a3505050565b335f5160206123f35f395f51905f525c6001600160a01b0316146111c257604051633128ce5560e01b815260040160405180910390fd5b6111ca6117e5565b5f8290505f816001600160a01b03166338d52e0f6040518163ffffffff1660e01b8152600401602060405180830381865afa15801561120b573d5f5f3e3d5ffd5b505050506040513d601f19601f8201168201806040525081019061122f919061225c565b9050821561123d57826112b3565b6001600160a01b0382166370a08231336040516001600160e01b031960e084901b1681526001600160a01b039091166004820152602401602060405180830381865afa15801561128f573d5f5f3e3d5ffd5b505050506040513d601f19601f820116820180604052508101906112b39190612235565b92505f6001600160a01b03831663ba0876528530336040516001600160e01b031960e086901b16815260048101939093526001600160a01b0391821660248401521660448201526064016020604051808303815f875af1158015611319573d5f5f3e3d5ffd5b505050506040513d601f19601f8201168201806040525081019061133d9190612235565b90506001600160a01b038516336001600160a01b03167f915b71c589595289d233b271db8454f447949848ecdd456a109e3f2559c0d50986604051610c1391815260200190565b5f335f5160206123f35f395f51905f525c6001600160a01b0316146113bc57604051633128ce5560e01b815260040160405180910390fd5b6113c46117e5565b6113cd83611cbd565b8282156113da57826113dd565b5f195b92506001600160a01b03811663b460af948430336040516001600160e01b031960e086901b16815260048101939093526001600160a01b0391821660248401521660448201526064016020604051808303815f875af1158015611442573d5f5f3e3d5ffd5b505050506040513d601f19601f820116820180604052508101906114669190612235565b60408051858152602081018390529193506001600160a01b0386169133917f3018bc84615a588f3485d554ded6943344a7f25f8b758b14b6e9677378c1c68b910160405180910390a350610c7c6118dd565b6114c0611b45565b6001600160a01b0381166114ee57604051631e4fbdf760e01b81525f60048201526024015b60405180910390fd5b6114f781611b71565b50565b5f7f00000000000000000000000000000000000000000000000000000000000000006001600160a01b031663f7e533ec6040518163ffffffff1660e01b8152600401602060405180830381865afa158015610676573d5f5f3e3d5ffd5b5f335f5160206123f35f395f51905f525c6001600160a01b03161461158f57604051633128ce5560e01b815260040160405180910390fd5b6115976117e5565b6115a085611cbd565b6115a984611852565b5f8590505f816001600160a01b03166338d52e0f6040518163ffffffff1660e01b8152600401602060405180830381865afa1580156115ea573d5f5f3e3d5ffd5b505050506040513d601f19601f8201168201806040525081019061160e919061225c565b9050806001600160a01b0316866001600160a01b0316146116425760405163936bb5ad60e01b815260040160405180910390fd5b6040516370a0823160e01b81523060048201525f906001600160a01b038816906370a0823190602401602060405180830381865afa158015611686573d5f5f3e3d5ffd5b505050506040513d601f19601f820116820180604052508101906116aa9190612235565b905085156116b857856116ba565b805b95506001600160a01b038516156116d157846116d3565b335b9450808611156116f6576040516342301c2360e01b815260040160405180910390fd5b61170a6001600160a01b0383168488611d73565b604051636e553f6560e01b8152600481018790526001600160a01b038681166024830152841690636e553f65906044016020604051808303815f875af1158015611756573d5f5f3e3d5ffd5b505050506040513d601f19601f8201168201806040525081019061177a9190612235565b9350876001600160a01b0316856001600160a01b03167fd584e570678d099262db4ba972df2e63e3618dadc6179677a6a2b18360c4a65788876040516117ca929190918252602082015260400190565b60405180910390a35050506117dd6118dd565b949350505050565b7f9b779b17422d0df92223018b32b4d1fa46e071723d6817e2486d003becc55f005c1561182557604051633ee5aeb560e01b815260040160405180910390fd5b61096260017f9b779b17422d0df92223018b32b4d1fa46e071723d6817e2486d003becc55f005b90611e02565b6001600160a01b0381166114f75760405163c1ab6dc160e01b815260040160405180910390fd5b6040516001600160a01b038381166024830152604482018390526118d891859182169063a9059cbb906064015b604051602081830303815290604052915060e01b6020820180516001600160e01b038381831617835250505050611e09565b505050565b6109625f7f9b779b17422d0df92223018b32b4d1fa46e071723d6817e2486d003becc55f0061184c565b6040516370a0823160e01b81523060048201525f9081906001600160a01b038816906370a0823190602401602060405180830381865afa15801561194d573d5f5f3e3d5ffd5b505050506040513d601f19601f820116820180604052508101906119719190612235565b90506119a76001600160a01b0389167f000000000000000000000000000000000000000000000000000000000000000088611d73565b5f7f00000000000000000000000000000000000000000000000000000000000000006001600160a01b031685856040516119e2929190612310565b5f604051808303815f865af19150503d805f8114611a1b576040519150601f19603f3d011682016040523d82523d5f602084013e611a20565b606091505b5050905080611a425760405163081ceff360e41b815260040160405180910390fd5b6040516370a0823160e01b81523060048201525f906001600160a01b038a16906370a0823190602401602060405180830381865afa158015611a86573d5f5f3e3d5ffd5b505050506040513d601f19601f82011682018060405250810190611aaa9190612235565b9050611ab6838261231f565b935086841015611ad9576040516342301c2360e01b815260040160405180910390fd5b5050509695505050505050565b805f036114f757604051631f2a200560e01b815260040160405180910390fd5b6040516001600160a01b038481166024830152838116604483015260648201839052611b3f9186918216906323b872dd906084016118a6565b50505050565b5f546001600160a01b031633146109625760405163118cdaa760e01b81523360048201526024016114e5565b5f80546001600160a01b038381166001600160a01b0319831681178455604051919092169283917f8be0079c531659141344cd1fd0a4f28419497f9722a3daafe3b4186f6b6457e09190a35050565b6114f7815f5160206123f35f395f51905f5261184c565b604080515f8152602081019091526060908267ffffffffffffffff811115611c0157611c01612277565b604051908082528060200260200182016040528015611c3457816020015b6060815260200190600190039081611c1f5790505b5091505f5b83811015611cb557611c9030868684818110611c5757611c5761233e565b9050602002810190611c699190612352565b85604051602001611c7c939291906123b3565b604051602081830303815290604052611e75565b838281518110611ca257611ca261233e565b6020908102919091010152600101611c39565b505092915050565b611cc56107f4565b6040516374e806ab60e11b81526001600160a01b038381166004830152919091169063e9d00d5690602401602060405180830381865afa158015611d0b573d5f5f3e3d5ffd5b505050506040513d601f19601f82011682018060405250810190611d2f91906123c8565b6114f7576040516317b9ea1760e11b815260040160405180910390fd5b6001600160a01b0381166114f75760405163913a247f60e01b815260040160405180910390fd5b604080516001600160a01b038416602482015260448082018490528251808303909101815260649091019091526020810180516001600160e01b031663095ea7b360e01b179052611dc48482611ee7565b611b3f576040516001600160a01b0384811660248301525f6044830152611df891869182169063095ea7b3906064016118a6565b611b3f8482611e09565b80825d5050565b5f5f60205f8451602086015f885af180611e28576040513d5f823e3d81fd5b50505f513d91508115611e3f578060011415611e4c565b6001600160a01b0384163b155b15611b3f57604051635274afe760e01b81526001600160a01b03851660048201526024016114e5565b60605f5f846001600160a01b031684604051611e9191906123e7565b5f60405180830381855af49150503d805f8114611ec9576040519150601f19603f3d011682016040523d82523d5f602084013e611ece565b606091505b5091509150611ede858383611f2c565b95945050505050565b5f5f5f5f60205f8651602088015f8a5af192503d91505f5190508280156107ea57508115611f1857806001146107ea565b50505050506001600160a01b03163b151590565b606082611f4157611f3c82611f8b565b611f84565b8151158015611f5857506001600160a01b0384163b155b15611f8157604051639996b31560e01b81526001600160a01b03851660048201526024016114e5565b50805b9392505050565b805115611f9b5780518082602001fd5b60405163d6bda27560e01b815260040160405180910390fd5b6001600160a01b03811681146114f7575f5ffd5b5f5f60408385031215611fd9575f5ffd5b8235611fe481611fb4565b946020939093013593505050565b5f5f5f5f5f5f60a08789031215612007575f5ffd5b863561201281611fb4565b9550602087013561202281611fb4565b94506040870135935060608701359250608087013567ffffffffffffffff81111561204b575f5ffd5b8701601f8101891361205b575f5ffd5b803567ffffffffffffffff811115612071575f5ffd5b896020828401011115612082575f5ffd5b60208201935080925050509295509295509295565b5f5f602083850312156120a8575f5ffd5b823567ffffffffffffffff8111156120be575f5ffd5b8301601f810185136120ce575f5ffd5b803567ffffffffffffffff8111156120e4575f5ffd5b8560208260051b84010111156120f8575f5ffd5b6020919091019590945092505050565b5f602082016020835280845180835260408501915060408160051b8601019250602086015f5b8281101561218057603f19878603018452815180518087528060208301602089015e5f602082890101526020601f19601f8301168801019650505060208201915060208401935060018101905061212e565b50929695505050505050565b5f5f5f6060848603121561219e575f5ffd5b83356121a981611fb4565b925060208401356121b981611fb4565b929592945050506040919091013590565b5f602082840312156121da575f5ffd5b8135611f8481611fb4565b5f5f5f5f608085870312156121f8575f5ffd5b843561220381611fb4565b9350602085013561221381611fb4565b925060408501359150606085013561222a81611fb4565b939692955090935050565b5f60208284031215612245575f5ffd5b5051919050565b805161225781611fb4565b919050565b5f6020828403121561226c575f5ffd5b8151611f8481611fb4565b634e487b7160e01b5f52604160045260245ffd5b5f60a082840312801561229c575f5ffd5b5060405160a0810167ffffffffffffffff811182821017156122cc57634e487b7160e01b5f52604160045260245ffd5b6040526122d88361224c565b81526020838101519082015260408084015190820152606080840151908201526123046080840161224c565b60808201529392505050565b818382375f9101908152919050565b81810381811115610c7c57634e487b7160e01b5f52601160045260245ffd5b634e487b7160e01b5f52603260045260245ffd5b5f5f8335601e19843603018112612367575f5ffd5b83018035915067ffffffffffffffff821115612381575f5ffd5b602001915036819003821315612395575f5ffd5b9250929050565b5f81518060208401855e5f93019283525090919050565b828482375f8382015f81526107ea818561239c565b5f602082840312156123d8575f5ffd5b81518015158114611f84575f5ffd5b5f611f84828461239c56fe4047f0417aa4905ca06b566a01340d0e510e7af6b560e81d10e0ea24404f597ba2646970667358221220b3442530f48a8ae943eb7b714bdd870924450e7ad83e53b9aee6f49363aff3a364736f6c634300081c0033","linkReferences":{}},"methodIdentifiers":{"configurationManager()":"c9c667e3","depositTokens(address,uint256)":"66168bd7","enterFleet(address,address,uint256,address)":"ff993eb5","exitFleet(address,uint256)":"d7f8e9a5","fleetCommanderRewardsManagerFactory()":"f7e533ec","harborCommand()":"5b0f83f3","moveFromAaveToAdmiralsQuarters(address,uint256)":"88bcf983","moveFromCompoundToAdmiralsQuarters(address,uint256)":"0dedddbf","moveFromERC4626ToAdmiralsQuarters(address,uint256)":"cf87c38f","multicall(bytes[])":"ac9650d8","oneInchRouter()":"ac3af208","owner()":"8da5cb5b","raft()":"117d8ae0","renounceOwnership()":"715018a6","rescueTokens(address,address,uint256)":"cea9d26f","stake(address,uint256)":"adc9772e","swap(address,address,uint256,uint256,bytes)":"2506c018","tipJar()":"7aaceb95","transferOwnership(address)":"f2fde38b","treasury()":"61d027b3","unstakeAndWithdrawAssets(address,uint256)":"bec93aa7","withdrawTokens(address,uint256)":"06b091f9"},"id":130}