{"abi":[{"type":"constructor","inputs":[{"name":"_oneInchRouter","type":"address","internalType":"address"}],"stateMutability":"nonpayable"},{"type":"function","name":"depositTokens","inputs":[{"name":"asset","type":"address","internalType":"contract IERC20"},{"name":"amount","type":"uint256","internalType":"uint256"}],"outputs":[],"stateMutability":"nonpayable"},{"type":"function","name":"enterFleet","inputs":[{"name":"fleetCommander","type":"address","internalType":"address"},{"name":"inputToken","type":"address","internalType":"contract IERC20"},{"name":"amount","type":"uint256","internalType":"uint256"}],"outputs":[{"name":"shares","type":"uint256","internalType":"uint256"}],"stateMutability":"nonpayable"},{"type":"function","name":"exitFleet","inputs":[{"name":"fleetCommander","type":"address","internalType":"address"},{"name":"amount","type":"uint256","internalType":"uint256"}],"outputs":[{"name":"shares","type":"uint256","internalType":"uint256"}],"stateMutability":"nonpayable"},{"type":"function","name":"multicall","inputs":[{"name":"data","type":"bytes[]","internalType":"bytes[]"}],"outputs":[{"name":"results","type":"bytes[]","internalType":"bytes[]"}],"stateMutability":"nonpayable"},{"type":"function","name":"oneInchRouter","inputs":[],"outputs":[{"name":"","type":"address","internalType":"address"}],"stateMutability":"view"},{"type":"function","name":"owner","inputs":[],"outputs":[{"name":"","type":"address","internalType":"address"}],"stateMutability":"view"},{"type":"function","name":"renounceOwnership","inputs":[],"outputs":[],"stateMutability":"nonpayable"},{"type":"function","name":"rescueTokens","inputs":[{"name":"token","type":"address","internalType":"contract IERC20"},{"name":"to","type":"address","internalType":"address"},{"name":"amount","type":"uint256","internalType":"uint256"}],"outputs":[],"stateMutability":"nonpayable"},{"type":"function","name":"swap","inputs":[{"name":"fromToken","type":"address","internalType":"contract IERC20"},{"name":"toToken","type":"address","internalType":"contract IERC20"},{"name":"amount","type":"uint256","internalType":"uint256"},{"name":"minTokensReceived","type":"uint256","internalType":"uint256"},{"name":"swapCalldata","type":"bytes","internalType":"bytes"}],"outputs":[{"name":"swappedAmount","type":"uint256","internalType":"uint256"}],"stateMutability":"nonpayable"},{"type":"function","name":"transferOwnership","inputs":[{"name":"newOwner","type":"address","internalType":"address"}],"outputs":[],"stateMutability":"nonpayable"},{"type":"function","name":"withdrawTokens","inputs":[{"name":"asset","type":"address","internalType":"contract IERC20"},{"name":"amount","type":"uint256","internalType":"uint256"}],"outputs":[],"stateMutability":"nonpayable"},{"type":"event","name":"FleetEntered","inputs":[{"name":"user","type":"address","indexed":true,"internalType":"address"},{"name":"fleetCommander","type":"address","indexed":true,"internalType":"address"},{"name":"inputAmount","type":"uint256","indexed":false,"internalType":"uint256"},{"name":"sharesReceived","type":"uint256","indexed":false,"internalType":"uint256"}],"anonymous":false},{"type":"event","name":"FleetExited","inputs":[{"name":"user","type":"address","indexed":true,"internalType":"address"},{"name":"fleetCommander","type":"address","indexed":true,"internalType":"address"},{"name":"withdrawnAmount","type":"uint256","indexed":false,"internalType":"uint256"},{"name":"outputAmount","type":"uint256","indexed":false,"internalType":"uint256"}],"anonymous":false},{"type":"event","name":"OwnershipTransferred","inputs":[{"name":"previousOwner","type":"address","indexed":true,"internalType":"address"},{"name":"newOwner","type":"address","indexed":true,"internalType":"address"}],"anonymous":false},{"type":"event","name":"Swapped","inputs":[{"name":"user","type":"address","indexed":true,"internalType":"address"},{"name":"fromToken","type":"address","indexed":true,"internalType":"address"},{"name":"toToken","type":"address","indexed":true,"internalType":"address"},{"name":"fromAmount","type":"uint256","indexed":false,"internalType":"uint256"},{"name":"toAmount","type":"uint256","indexed":false,"internalType":"uint256"}],"anonymous":false},{"type":"event","name":"TokensDeposited","inputs":[{"name":"user","type":"address","indexed":true,"internalType":"address"},{"name":"token","type":"address","indexed":true,"internalType":"address"},{"name":"amount","type":"uint256","indexed":false,"internalType":"uint256"}],"anonymous":false},{"type":"event","name":"TokensRescued","inputs":[{"name":"token","type":"address","indexed":true,"internalType":"address"},{"name":"to","type":"address","indexed":true,"internalType":"address"},{"name":"amount","type":"uint256","indexed":false,"internalType":"uint256"}],"anonymous":false},{"type":"event","name":"TokensWithdrawn","inputs":[{"name":"user","type":"address","indexed":true,"internalType":"address"},{"name":"token","type":"address","indexed":true,"internalType":"address"},{"name":"amount","type":"uint256","indexed":false,"internalType":"uint256"}],"anonymous":false},{"type":"error","name":"AddressEmptyCode","inputs":[{"name":"target","type":"address","internalType":"address"}]},{"type":"error","name":"AddressInsufficientBalance","inputs":[{"name":"account","type":"address","internalType":"address"}]},{"type":"error","name":"AssetMismatch","inputs":[]},{"type":"error","name":"FailedInnerCall","inputs":[]},{"type":"error","name":"InsufficientOutputAmount","inputs":[]},{"type":"error","name":"InvalidFleetCommander","inputs":[]},{"type":"error","name":"InvalidRouterAddress","inputs":[]},{"type":"error","name":"InvalidToken","inputs":[]},{"type":"error","name":"OwnableInvalidOwner","inputs":[{"name":"owner","type":"address","internalType":"address"}]},{"type":"error","name":"OwnableUnauthorizedAccount","inputs":[{"name":"account","type":"address","internalType":"address"}]},{"type":"error","name":"ReentrancyGuardReentrantCall","inputs":[]},{"type":"error","name":"SafeERC20FailedOperation","inputs":[{"name":"token","type":"address","internalType":"address"}]},{"type":"error","name":"SwapFailed","inputs":[]},{"type":"error","name":"ZeroAmount","inputs":[]}],"bytecode":{"object":"0x60a060405234801561000f575f80fd5b506040516114df3803806114df83398101604081905261002e916100e4565b338061005357604051631e4fbdf760e01b81525f600482015260240160405180910390fd5b61005c81610095565b506001600160a01b038116610084576040516314203b4b60e01b815260040160405180910390fd5b6001600160a01b0316608052610111565b5f80546001600160a01b038381166001600160a01b0319831681178455604051919092169283917f8be0079c531659141344cd1fd0a4f28419497f9722a3daafe3b4186f6b6457e09190a35050565b5f602082840312156100f4575f80fd5b81516001600160a01b038116811461010a575f80fd5b9392505050565b6080516113a86101375f395f818161013c01528181610b690152610b9101526113a85ff3fe608060405234801561000f575f80fd5b50600436106100a6575f3560e01c80638da5cb5b1161006e5780638da5cb5b14610113578063ac3af20814610137578063ac9650d81461015e578063cea9d26f1461017e578063d7f8e9a514610191578063f2fde38b146101a4575f80fd5b806306b091f9146100aa57806312739fb2146100bf5780632506c018146100e557806366168bd7146100f8578063715018a61461010b575b5f80fd5b6100bd6100b836600461102d565b6101b7565b005b6100d26100cd366004611057565b6102b7565b6040519081526020015b60405180910390f35b6100d26100f3366004611095565b6104f0565b6100bd61010636600461102d565b610608565b6100bd6106a9565b5f546001600160a01b03165b6040516001600160a01b0390911681526020016100dc565b61011f7f000000000000000000000000000000000000000000000000000000000000000081565b61017161016c36600461113a565b6106bc565b6040516100dc91906111ab565b6100bd61018c366004611057565b6107a3565b6100d261019f36600461102d565b610811565b6100bd6101b236600461122f565b61091c565b6101bf61095e565b6001600160a01b0382166101e65760405163c1ab6dc160e01b815260040160405180910390fd5b805f03610256576040516370a0823160e01b81523060048201526001600160a01b038316906370a0823190602401602060405180830381865afa15801561022f573d5f803e3d5ffd5b505050506040513d601f19601f82011682018060405250810190610253919061124a565b90505b61026a6001600160a01b03831633836109cb565b6040518181526001600160a01b0383169033907f6337ed398c0e8467698c581374fdce4db14922df487b5a39483079f5f59b60a4906020015b60405180910390a36102b3610a2f565b5050565b5f6102c061095e565b6001600160a01b0384166102e7576040516317b9ea1760e11b815260040160405180910390fd5b6001600160a01b03831661030e5760405163c1ab6dc160e01b815260040160405180910390fd5b5f8490505f816001600160a01b03166338d52e0f6040518163ffffffff1660e01b8152600401602060405180830381865afa15801561034f573d5f803e3d5ffd5b505050506040513d601f19601f820116820180604052508101906103739190611261565b6040516370a0823160e01b81523060048201529091505f906001600160a01b038716906370a0823190602401602060405180830381865afa1580156103ba573d5f803e3d5ffd5b505050506040513d601f19601f820116820180604052508101906103de919061124a565b90505f85156103ed57856103ef565b815b905081811115610412576040516342301c2360e01b815260040160405180910390fd5b6104266001600160a01b0384168583610a59565b604051636e553f6560e01b8152600481018290523360248201526001600160a01b03851690636e553f65906044016020604051808303815f875af1158015610470573d5f803e3d5ffd5b505050506040513d601f19601f82011682018060405250810190610494919061124a565b60408051838152602081018390529196506001600160a01b038a169133917fd584e570678d099262db4ba972df2e63e3618dadc6179677a6a2b18360c4a657910160405180910390a3505050506104e9610a2f565b9392505050565b5f6104f961095e565b6001600160a01b038716158061051657506001600160a01b038616155b156105345760405163c1ab6dc160e01b815260040160405180910390fd5b845f0361055457604051631f2a200560e01b815260040160405180910390fd5b856001600160a01b0316876001600160a01b031603610586576040516341e0808560e11b815260040160405180910390fd5b610594878787878787610aee565b9050856001600160a01b0316876001600160a01b0316336001600160a01b03167f6782190c91d4a7e8ad2a867deed6ec0a970cab8ff137ae2bd4abd92b3810f4d388856040516105ee929190918252602082015260400190565b60405180910390a46105fe610a2f565b9695505050505050565b61061061095e565b6001600160a01b0382166106375760405163c1ab6dc160e01b815260040160405180910390fd5b805f0361065757604051631f2a200560e01b815260040160405180910390fd5b61066c6001600160a01b038316333084610ccd565b6040518181526001600160a01b0383169033907fcbc4a4091b012bb1329c38bbbb15455f5cac5aa3673da0a7f38cd61a4f495517906020016102a3565b6106b1610d06565b6106ba5f610d32565b565b604080515f8152602081019091526060908267ffffffffffffffff8111156106e6576106e661129b565b60405190808252806020026020018201604052801561071957816020015b60608152602001906001900390816107045790505b5091505f5b8381101561079a576107753086868481811061073c5761073c6112af565b905060200281019061074e91906112c3565b8560405160200161076193929190611324565b604051602081830303815290604052610d81565b838281518110610787576107876112af565b602090810291909101015260010161071e565b50505b92915050565b6107ab610d06565b6107bf6001600160a01b03841683836109cb565b816001600160a01b0316836001600160a01b03167f77023e19c7343ad491fd706c36335ca0e738340a91f29b1fd81e2673d44896c48360405161080491815260200190565b60405180910390a3505050565b5f61081a61095e565b6001600160a01b038316610841576040516317b9ea1760e11b815260040160405180910390fd5b825f831561084f5783610852565b5f195b604051632d182be560e21b8152600481018290523060248201523360448201529091506001600160a01b0383169063b460af94906064016020604051808303815f875af11580156108a5573d5f803e3d5ffd5b505050506040513d601f19601f820116820180604052508101906108c9919061124a565b60408051838152602081018390529194506001600160a01b0387169133917f3018bc84615a588f3485d554ded6943344a7f25f8b758b14b6e9677378c1c68b910160405180910390a3505061079d610a2f565b610924610d06565b6001600160a01b03811661095257604051631e4fbdf760e01b81525f60048201526024015b60405180910390fd5b61095b81610d32565b50565b7f9b779b17422d0df92223018b32b4d1fa46e071723d6817e2486d003becc55f005c1561099e57604051633ee5aeb560e01b815260040160405180910390fd5b6106ba60017f9b779b17422d0df92223018b32b4d1fa46e071723d6817e2486d003becc55f005b90610df3565b6040516001600160a01b03838116602483015260448201839052610a2a91859182169063a9059cbb906064015b604051602081830303815290604052915060e01b6020820180516001600160e01b038381831617835250505050610dfa565b505050565b6106ba5f7f9b779b17422d0df92223018b32b4d1fa46e071723d6817e2486d003becc55f006109c5565b604080516001600160a01b038416602482015260448082018490528251808303909101815260649091019091526020810180516001600160e01b031663095ea7b360e01b179052610aaa8482610e5b565b610ae8576040516001600160a01b0384811660248301525f6044830152610ade91869182169063095ea7b3906064016109f8565b610ae88482610dfa565b50505050565b6040516370a0823160e01b81523060048201525f9081906001600160a01b038816906370a0823190602401602060405180830381865afa158015610b34573d5f803e3d5ffd5b505050506040513d601f19601f82011682018060405250810190610b58919061124a565b9050610b8e6001600160a01b0389167f000000000000000000000000000000000000000000000000000000000000000088610a59565b5f7f00000000000000000000000000000000000000000000000000000000000000006001600160a01b03168585604051610bc9929190611339565b5f604051808303815f865af19150503d805f8114610c02576040519150601f19603f3d011682016040523d82523d5f602084013e610c07565b606091505b5050905080610c295760405163081ceff360e41b815260040160405180910390fd5b6040516370a0823160e01b81523060048201525f906001600160a01b038a16906370a0823190602401602060405180830381865afa158015610c6d573d5f803e3d5ffd5b505050506040513d601f19601f82011682018060405250810190610c91919061124a565b9050610c9d838261127c565b935086841015610cc0576040516342301c2360e01b815260040160405180910390fd5b5050509695505050505050565b6040516001600160a01b038481166024830152838116604483015260648201839052610ae89186918216906323b872dd906084016109f8565b5f546001600160a01b031633146106ba5760405163118cdaa760e01b8152336004820152602401610949565b5f80546001600160a01b038381166001600160a01b0319831681178455604051919092169283917f8be0079c531659141344cd1fd0a4f28419497f9722a3daafe3b4186f6b6457e09190a35050565b60605f80846001600160a01b031684604051610d9d9190611348565b5f60405180830381855af49150503d805f8114610dd5576040519150601f19603f3d011682016040523d82523d5f602084013e610dda565b606091505b5091509150610dea858383610ef8565b95945050505050565b80825d5050565b5f610e0e6001600160a01b03841683610f54565b905080515f14158015610e32575080806020019051810190610e309190611353565b155b15610a2a57604051635274afe760e01b81526001600160a01b0384166004820152602401610949565b5f805f846001600160a01b031684604051610e769190611348565b5f604051808303815f865af19150503d805f8114610eaf576040519150601f19603f3d011682016040523d82523d5f602084013e610eb4565b606091505b5091509150818015610ede575080511580610ede575080806020019051810190610ede9190611353565b8015610dea5750505050506001600160a01b03163b151590565b606082610f0d57610f0882610f61565b6104e9565b8151158015610f2457506001600160a01b0384163b155b15610f4d57604051639996b31560e01b81526001600160a01b0385166004820152602401610949565b50806104e9565b60606104e983835f610f8a565b805115610f715780518082602001fd5b604051630a12f52160e11b815260040160405180910390fd5b606081471015610faf5760405163cd78605960e01b8152306004820152602401610949565b5f80856001600160a01b03168486604051610fca9190611348565b5f6040518083038185875af1925050503d805f8114611004576040519150601f19603f3d011682016040523d82523d5f602084013e611009565b606091505b50915091506105fe868383610ef8565b6001600160a01b038116811461095b575f80fd5b5f806040838503121561103e575f80fd5b823561104981611019565b946020939093013593505050565b5f805f60608486031215611069575f80fd5b833561107481611019565b9250602084013561108481611019565b929592945050506040919091013590565b5f805f805f8060a087890312156110aa575f80fd5b86356110b581611019565b955060208701356110c581611019565b94506040870135935060608701359250608087013567ffffffffffffffff8111156110ee575f80fd5b8701601f810189136110fe575f80fd5b803567ffffffffffffffff811115611114575f80fd5b896020828401011115611125575f80fd5b60208201935080925050509295509295509295565b5f806020838503121561114b575f80fd5b823567ffffffffffffffff811115611161575f80fd5b8301601f81018513611171575f80fd5b803567ffffffffffffffff811115611187575f80fd5b8560208260051b840101111561119b575f80fd5b6020919091019590945092505050565b5f602082016020835280845180835260408501915060408160051b8601019250602086015f5b8281101561122357603f19878603018452815180518087528060208301602089015e5f602082890101526020601f19601f830116880101965050506020820191506020840193506001810190506111d1565b50929695505050505050565b5f6020828403121561123f575f80fd5b81356104e981611019565b5f6020828403121561125a575f80fd5b5051919050565b5f60208284031215611271575f80fd5b81516104e981611019565b8181038181111561079d57634e487b7160e01b5f52601160045260245ffd5b634e487b7160e01b5f52604160045260245ffd5b634e487b7160e01b5f52603260045260245ffd5b5f808335601e198436030181126112d8575f80fd5b83018035915067ffffffffffffffff8211156112f2575f80fd5b602001915036819003821315611306575f80fd5b9250929050565b5f81518060208401855e5f93019283525090919050565b828482375f8382015f81526105fe818561130d565b818382375f9101908152919050565b5f6104e9828461130d565b5f60208284031215611363575f80fd5b815180151581146104e9575f80fdfea26469706673582212201b6e3fd692d74266ddc8fc9d38bcc4d9fc9a56bce91b1f16b5fed50a1668c24d64736f6c634300081a0033","linkReferences":{}},"methodIdentifiers":{"depositTokens(address,uint256)":"66168bd7","enterFleet(address,address,uint256)":"12739fb2","exitFleet(address,uint256)":"d7f8e9a5","multicall(bytes[])":"ac9650d8","oneInchRouter()":"ac3af208","owner()":"8da5cb5b","renounceOwnership()":"715018a6","rescueTokens(address,address,uint256)":"cea9d26f","swap(address,address,uint256,uint256,bytes)":"2506c018","transferOwnership(address)":"f2fde38b","withdrawTokens(address,uint256)":"06b091f9"},"id":129}