{"abi":[{"type":"constructor","inputs":[{"name":"_metaMorpho","type":"address","internalType":"address"},{"name":"_params","type":"tuple","internalType":"struct ArkParams","components":[{"name":"name","type":"string","internalType":"string"},{"name":"details","type":"string","internalType":"string"},{"name":"accessManager","type":"address","internalType":"address"},{"name":"configurationManager","type":"address","internalType":"address"},{"name":"asset","type":"address","internalType":"address"},{"name":"depositCap","type":"uint256","internalType":"uint256"},{"name":"maxRebalanceOutflow","type":"uint256","internalType":"uint256"},{"name":"maxRebalanceInflow","type":"uint256","internalType":"uint256"},{"name":"requiresKeeperData","type":"bool","internalType":"bool"},{"name":"maxDepositPercentageOfTVL","type":"uint256","internalType":"Percentage"}]}],"stateMutability":"nonpayable"},{"type":"function","name":"asset","inputs":[],"outputs":[{"name":"","type":"address","internalType":"contract IERC20"}],"stateMutability":"view"},{"type":"function","name":"board","inputs":[{"name":"amount","type":"uint256","internalType":"uint256"},{"name":"boardData","type":"bytes","internalType":"bytes"}],"outputs":[],"stateMutability":"nonpayable"},{"type":"function","name":"commander","inputs":[],"outputs":[{"name":"","type":"address","internalType":"address"}],"stateMutability":"view"},{"type":"function","name":"config","inputs":[],"outputs":[{"name":"commander","type":"address","internalType":"address"},{"name":"raft","type":"address","internalType":"address"},{"name":"asset","type":"address","internalType":"contract IERC20"},{"name":"depositCap","type":"uint256","internalType":"uint256"},{"name":"maxRebalanceOutflow","type":"uint256","internalType":"uint256"},{"name":"maxRebalanceInflow","type":"uint256","internalType":"uint256"},{"name":"name","type":"string","internalType":"string"},{"name":"details","type":"string","internalType":"string"},{"name":"requiresKeeperData","type":"bool","internalType":"bool"},{"name":"maxDepositPercentageOfTVL","type":"uint256","internalType":"Percentage"}],"stateMutability":"view"},{"type":"function","name":"configurationManager","inputs":[],"outputs":[{"name":"","type":"address","internalType":"contract IConfigurationManager"}],"stateMutability":"view"},{"type":"function","name":"depositCap","inputs":[],"outputs":[{"name":"","type":"uint256","internalType":"uint256"}],"stateMutability":"view"},{"type":"function","name":"disembark","inputs":[{"name":"amount","type":"uint256","internalType":"uint256"},{"name":"disembarkData","type":"bytes","internalType":"bytes"}],"outputs":[],"stateMutability":"nonpayable"},{"type":"function","name":"fleetCommanderRewardsManagerFactory","inputs":[],"outputs":[{"name":"","type":"address","internalType":"address"}],"stateMutability":"view"},{"type":"function","name":"generateRole","inputs":[{"name":"roleName","type":"uint8","internalType":"enum ContractSpecificRoles"},{"name":"roleTargetContract","type":"address","internalType":"address"}],"outputs":[{"name":"","type":"bytes32","internalType":"bytes32"}],"stateMutability":"pure"},{"type":"function","name":"getConfig","inputs":[],"outputs":[{"name":"","type":"tuple","internalType":"struct ArkConfig","components":[{"name":"commander","type":"address","internalType":"address"},{"name":"raft","type":"address","internalType":"address"},{"name":"asset","type":"address","internalType":"contract IERC20"},{"name":"depositCap","type":"uint256","internalType":"uint256"},{"name":"maxRebalanceOutflow","type":"uint256","internalType":"uint256"},{"name":"maxRebalanceInflow","type":"uint256","internalType":"uint256"},{"name":"name","type":"string","internalType":"string"},{"name":"details","type":"string","internalType":"string"},{"name":"requiresKeeperData","type":"bool","internalType":"bool"},{"name":"maxDepositPercentageOfTVL","type":"uint256","internalType":"Percentage"}]}],"stateMutability":"view"},{"type":"function","name":"harborCommand","inputs":[],"outputs":[{"name":"","type":"address","internalType":"address"}],"stateMutability":"view"},{"type":"function","name":"harvest","inputs":[{"name":"additionalData","type":"bytes","internalType":"bytes"}],"outputs":[{"name":"rewardTokens","type":"address[]","internalType":"address[]"},{"name":"rewardAmounts","type":"uint256[]","internalType":"uint256[]"}],"stateMutability":"nonpayable"},{"type":"function","name":"maxDepositPercentageOfTVL","inputs":[],"outputs":[{"name":"","type":"uint256","internalType":"Percentage"}],"stateMutability":"view"},{"type":"function","name":"maxRebalanceInflow","inputs":[],"outputs":[{"name":"","type":"uint256","internalType":"uint256"}],"stateMutability":"view"},{"type":"function","name":"maxRebalanceOutflow","inputs":[],"outputs":[{"name":"","type":"uint256","internalType":"uint256"}],"stateMutability":"view"},{"type":"function","name":"metaMorpho","inputs":[],"outputs":[{"name":"","type":"address","internalType":"contract IMetaMorpho"}],"stateMutability":"view"},{"type":"function","name":"move","inputs":[{"name":"amount","type":"uint256","internalType":"uint256"},{"name":"receiverArk","type":"address","internalType":"address"},{"name":"boardData","type":"bytes","internalType":"bytes"},{"name":"disembarkData","type":"bytes","internalType":"bytes"}],"outputs":[],"stateMutability":"nonpayable"},{"type":"function","name":"name","inputs":[],"outputs":[{"name":"","type":"string","internalType":"string"}],"stateMutability":"view"},{"type":"function","name":"raft","inputs":[],"outputs":[{"name":"","type":"address","internalType":"address"}],"stateMutability":"view"},{"type":"function","name":"registerFleetCommander","inputs":[],"outputs":[],"stateMutability":"nonpayable"},{"type":"function","name":"requiresKeeperData","inputs":[],"outputs":[{"name":"","type":"bool","internalType":"bool"}],"stateMutability":"view"},{"type":"function","name":"setDepositCap","inputs":[{"name":"newDepositCap","type":"uint256","internalType":"uint256"}],"outputs":[],"stateMutability":"nonpayable"},{"type":"function","name":"setMaxDepositPercentageOfTVL","inputs":[{"name":"newMaxDepositPercentageOfTVL","type":"uint256","internalType":"Percentage"}],"outputs":[],"stateMutability":"nonpayable"},{"type":"function","name":"setMaxRebalanceInflow","inputs":[{"name":"newMaxRebalanceInflow","type":"uint256","internalType":"uint256"}],"outputs":[],"stateMutability":"nonpayable"},{"type":"function","name":"setMaxRebalanceOutflow","inputs":[{"name":"newMaxRebalanceOutflow","type":"uint256","internalType":"uint256"}],"outputs":[],"stateMutability":"nonpayable"},{"type":"function","name":"sweep","inputs":[{"name":"tokens","type":"address[]","internalType":"address[]"}],"outputs":[{"name":"sweptTokens","type":"address[]","internalType":"address[]"},{"name":"sweptAmounts","type":"uint256[]","internalType":"uint256[]"}],"stateMutability":"nonpayable"},{"type":"function","name":"tipJar","inputs":[],"outputs":[{"name":"","type":"address","internalType":"address"}],"stateMutability":"view"},{"type":"function","name":"totalAssets","inputs":[],"outputs":[{"name":"assets","type":"uint256","internalType":"uint256"}],"stateMutability":"view"},{"type":"function","name":"treasury","inputs":[],"outputs":[{"name":"","type":"address","internalType":"address"}],"stateMutability":"view"},{"type":"function","name":"unregisterFleetCommander","inputs":[],"outputs":[],"stateMutability":"nonpayable"},{"type":"event","name":"ArkHarvested","inputs":[{"name":"rewardTokens","type":"address[]","indexed":true,"internalType":"address[]"},{"name":"rewardAmounts","type":"uint256[]","indexed":true,"internalType":"uint256[]"}],"anonymous":false},{"type":"event","name":"ArkPoked","inputs":[{"name":"currentPrice","type":"uint256","indexed":false,"internalType":"uint256"},{"name":"timestamp","type":"uint256","indexed":false,"internalType":"uint256"}],"anonymous":false},{"type":"event","name":"ArkSwept","inputs":[{"name":"sweptTokens","type":"address[]","indexed":true,"internalType":"address[]"},{"name":"sweptAmounts","type":"uint256[]","indexed":true,"internalType":"uint256[]"}],"anonymous":false},{"type":"event","name":"Boarded","inputs":[{"name":"commander","type":"address","indexed":true,"internalType":"address"},{"name":"token","type":"address","indexed":false,"internalType":"address"},{"name":"amount","type":"uint256","indexed":false,"internalType":"uint256"}],"anonymous":false},{"type":"event","name":"DepositCapUpdated","inputs":[{"name":"newCap","type":"uint256","indexed":false,"internalType":"uint256"}],"anonymous":false},{"type":"event","name":"Disembarked","inputs":[{"name":"commander","type":"address","indexed":true,"internalType":"address"},{"name":"token","type":"address","indexed":false,"internalType":"address"},{"name":"amount","type":"uint256","indexed":false,"internalType":"uint256"}],"anonymous":false},{"type":"event","name":"FleetCommanderRegistered","inputs":[{"name":"commander","type":"address","indexed":false,"internalType":"address"}],"anonymous":false},{"type":"event","name":"FleetCommanderUnregistered","inputs":[{"name":"commander","type":"address","indexed":false,"internalType":"address"}],"anonymous":false},{"type":"event","name":"MaxDepositPercentageOfTVLUpdated","inputs":[{"name":"newMaxDepositPercentageOfTVL","type":"uint256","indexed":false,"internalType":"Percentage"}],"anonymous":false},{"type":"event","name":"MaxRebalanceInflowUpdated","inputs":[{"name":"newMaxInflow","type":"uint256","indexed":false,"internalType":"uint256"}],"anonymous":false},{"type":"event","name":"MaxRebalanceOutflowUpdated","inputs":[{"name":"newMaxOutflow","type":"uint256","indexed":false,"internalType":"uint256"}],"anonymous":false},{"type":"event","name":"Moved","inputs":[{"name":"from","type":"address","indexed":true,"internalType":"address"},{"name":"to","type":"address","indexed":true,"internalType":"address"},{"name":"token","type":"address","indexed":false,"internalType":"address"},{"name":"amount","type":"uint256","indexed":false,"internalType":"uint256"}],"anonymous":false},{"type":"event","name":"RaftUpdated","inputs":[{"name":"newRaft","type":"address","indexed":false,"internalType":"address"}],"anonymous":false},{"type":"error","name":"CallerIsNotAdmin","inputs":[{"name":"caller","type":"address","internalType":"address"}]},{"type":"error","name":"CallerIsNotAuthorizedToBoard","inputs":[{"name":"caller","type":"address","internalType":"address"}]},{"type":"error","name":"CallerIsNotCommander","inputs":[{"name":"caller","type":"address","internalType":"address"}]},{"type":"error","name":"CallerIsNotContractSpecificRole","inputs":[{"name":"caller","type":"address","internalType":"address"},{"name":"role","type":"bytes32","internalType":"bytes32"}]},{"type":"error","name":"CallerIsNotCurator","inputs":[{"name":"caller","type":"address","internalType":"address"}]},{"type":"error","name":"CallerIsNotDecayController","inputs":[{"name":"caller","type":"address","internalType":"address"}]},{"type":"error","name":"CallerIsNotGovernor","inputs":[{"name":"caller","type":"address","internalType":"address"}]},{"type":"error","name":"CallerIsNotGuardian","inputs":[{"name":"caller","type":"address","internalType":"address"}]},{"type":"error","name":"CallerIsNotGuardianOrGovernor","inputs":[{"name":"caller","type":"address","internalType":"address"}]},{"type":"error","name":"CallerIsNotKeeper","inputs":[{"name":"caller","type":"address","internalType":"address"}]},{"type":"error","name":"CallerIsNotRaft","inputs":[{"name":"caller","type":"address","internalType":"address"}]},{"type":"error","name":"CallerIsNotRaftOrCommander","inputs":[{"name":"caller","type":"address","internalType":"address"}]},{"type":"error","name":"CallerIsNotSuperKeeper","inputs":[{"name":"caller","type":"address","internalType":"address"}]},{"type":"error","name":"CannotAddCommanderToArkWithCommander","inputs":[]},{"type":"error","name":"CannotDeployArkWithEmptyName","inputs":[]},{"type":"error","name":"CannotDeployArkWithoutConfigurationManager","inputs":[]},{"type":"error","name":"CannotDeployArkWithoutRaft","inputs":[]},{"type":"error","name":"CannotDeployArkWithoutToken","inputs":[]},{"type":"error","name":"CannotRemoveCommanderFromArkWithAssets","inputs":[]},{"type":"error","name":"CannotUseKeeperDataWhenNotRequired","inputs":[]},{"type":"error","name":"ConfigurationManagerZeroAddress","inputs":[]},{"type":"error","name":"DirectGrantIsDisabled","inputs":[{"name":"caller","type":"address","internalType":"address"}]},{"type":"error","name":"DirectRevokeIsDisabled","inputs":[{"name":"caller","type":"address","internalType":"address"}]},{"type":"error","name":"ERC4626AssetMismatch","inputs":[]},{"type":"error","name":"InvalidAccessManagerAddress","inputs":[{"name":"invalidAddress","type":"address","internalType":"address"}]},{"type":"error","name":"InvalidBoardData","inputs":[]},{"type":"error","name":"InvalidDisembarkData","inputs":[]},{"type":"error","name":"InvalidVaultAddress","inputs":[]},{"type":"error","name":"KeeperDataRequired","inputs":[]},{"type":"error","name":"ReentrancyGuardReentrantCall","inputs":[]},{"type":"error","name":"SafeERC20FailedOperation","inputs":[{"name":"token","type":"address","internalType":"address"}]}],"bytecode":{"object":"0x60c060405234801561000f575f5ffd5b506040516130a63803806130a683398101604081905261002e916104ad565b6060810151604082015182918291806001600160a01b03811661006b576040516347bd7c1d60e01b81525f60048201526024015b60405180910390fd5b6040516301ffc9a760e01b8152639bd1803160e01b60048201526001600160a01b038216906301ffc9a790602401602060405180830381865afa1580156100b4573d5f5f3e3d5ffd5b505050506040513d601f19601f820116820180604052508101906100d891906105c7565b610100576040516347bd7c1d60e01b81526001600160a01b0382166004820152602401610062565b5f80546001600160a01b0319166001600160a01b039283161790558216905061013c5760405163f1634df960e01b815260040160405180910390fd5b6001600160a01b0390811660805260608201511661016d5760405163b53c493160e01b815260040160405180910390fd5b60808101516001600160a01b031661019b576040516001620a810f60e11b0319815260040160405180910390fd5b8051515f036101bd5760405163268c072960e01b815260040160405180910390fd5b5f6101c6610355565b6001600160a01b0316036101ed57604051633a4f9cdb60e21b815260040160405180910390fd5b6040805161014081019091525f815260208101610208610355565b6001600160a01b039081168252608080850151821660208085019190915260a08087015160408087019190915260c08089015160608089019190915260e0808b0151878a01528a51858a01528a860151838a0152610100808c01511515918a01919091526101208b01519801979097528751600180549188166001600160a01b031992831617815594890151600280549189169183169190911790559188015160038054919097169216919091179094559385015160045590840151600555918301516006558201516007906102de908261066b565b5060e082015160078201906102f3908261066b565b5061010082015160088201805460ff19169115159190911790556101209091015160099091015550506001600160a01b03821661034357604051630306120160e01b815260040160405180910390fd5b506001600160a01b031660a05261073e565b5f6080516001600160a01b031663117d8ae06040518163ffffffff1660e01b8152600401602060405180830381865afa158015610394573d5f5f3e3d5ffd5b505050506040513d601f19601f820116820180604052508101906103b89190610725565b905090565b80516001600160a01b03811681146103d3575f5ffd5b919050565b634e487b7160e01b5f52604160045260245ffd5b60405161014081016001600160401b038111828210171561040f5761040f6103d8565b60405290565b5f82601f830112610424575f5ffd5b81516001600160401b0381111561043d5761043d6103d8565b604051601f8201601f19908116603f011681016001600160401b038111828210171561046b5761046b6103d8565b604052818152838201602001851015610482575f5ffd5b8160208501602083015e5f918101602001919091529392505050565b805180151581146103d3575f5ffd5b5f5f604083850312156104be575f5ffd5b6104c7836103bd565b60208401519092506001600160401b038111156104e2575f5ffd5b830161014081860312156104f4575f5ffd5b6104fc6103ec565b81516001600160401b03811115610511575f5ffd5b61051d87828501610415565b82525060208201516001600160401b03811115610538575f5ffd5b61054487828501610415565b602083015250610556604083016103bd565b6040820152610567606083016103bd565b6060820152610578608083016103bd565b608082015260a0828101519082015260c0808301519082015260e080830151908201526105a8610100830161049e565b6101008201526101209182015191810191909152919491935090915050565b5f602082840312156105d7575f5ffd5b6105e08261049e565b9392505050565b600181811c908216806105fb57607f821691505b60208210810361061957634e487b7160e01b5f52602260045260245ffd5b50919050565b601f82111561066657805f5260205f20601f840160051c810160208510156106445750805b601f840160051c820191505b81811015610663575f8155600101610650565b50505b505050565b81516001600160401b03811115610684576106846103d8565b6106988161069284546105e7565b8461061f565b6020601f8211600181146106ca575f83156106b35750848201515b5f19600385901b1c1916600184901b178455610663565b5f84815260208120601f198516915b828110156106f957878501518255602094850194600190920191016106d9565b508482101561071657868401515f19600387901b60f8161c191681555b50505050600190811b01905550565b5f60208284031215610735575f5ffd5b6105e0826103bd565b60805160a05161290861079e5f395f8181610358015281816104130152818161190501528181611a5a0152611af101525f81816103af01528181610584015281816109320152818161098f01528181611150015261172e01526129085ff3fe608060405234801561000f575f5ffd5b50600436106101d1575f3560e01c806379502c55116100fe578063bdcdd8821161009e578063ce5c7f611161006e578063ce5c7f61146103d1578063dbd5edc7146103e4578063ebf31131146103ec578063f7e533ec146103f4575f5ffd5b8063bdcdd8821461037a578063c38a6f0b14610382578063c3f909d414610395578063c9c667e3146103aa575f5ffd5b80638a8b9976116100d95780638a8b99761461033057806392f5e83214610338578063ad5a356f1461034b578063b6042b3414610353575f5ffd5b806379502c55146102f75780637aaceb9514610315578063866512031461031d575f5ffd5b8063372709361161017457806361d027b31161014457806361d027b3146102a857806361f5cd8b146102b057806369b3054b146102c3578063780469bb146102d6575f5ffd5b8063372709361461026b57806338d52e0f1461027c5780634fc7fac31461028d5780635b0f83f3146102a0575f5ffd5b806313c408f8116101af57806313c408f8146102255780632db6d3991461023a578063303dbaf31461024d5780633194549e14610263575f5ffd5b806301e1d114146101d557806306fdde03146101f0578063117d8ae014610205575b5f5ffd5b6101dd6103fc565b6040519081526020015b60405180910390f35b6101f86104ee565b6040516101e79190611f64565b61020d610581565b6040516001600160a01b0390911681526020016101e7565b610238610233366004611fba565b610602565b005b610238610248366004611fba565b6106cb565b60095460ff1660405190151581526020016101e7565b6005546101dd565b6001546001600160a01b031661020d565b6003546001600160a01b031661020d565b61023861029b366004612001565b6108e1565b61020d61092f565b61020d61098c565b6102386102be366004612001565b6109e9565b6101dd6102d136600461202f565b610a30565b6102e96102e436600461216a565b610a62565b6040516101e79291906121a3565b6102ff610ff6565b6040516101e79a9998979695949392919061222c565b61020d61114d565b61023861032b366004612001565b6111aa565b6102386111f1565b610238610346366004612001565b61124e565b6006546101dd565b61020d7f000000000000000000000000000000000000000000000000000000000000000081565b600a546101dd565b6102386103903660046122a3565b611295565b61039d6113e6565b6040516101e7919061232c565b61020d7f000000000000000000000000000000000000000000000000000000000000000081565b6102e96103df3660046123fd565b6115df565b6004546101dd565b6102386116d9565b61020d61172b565b6040516370a0823160e01b81523060048201525f907f00000000000000000000000000000000000000000000000000000000000000006001600160a01b0316906307a2d13a9082906370a0823190602401602060405180830381865afa158015610468573d5f5f3e3d5ffd5b505050506040513d601f19601f8201168201806040525081019061048c919061243b565b6040518263ffffffff1660e01b81526004016104aa91815260200190565b602060405180830381865afa1580156104c5573d5f5f3e3d5ffd5b505050506040513d601f19601f820116820180604052508101906104e9919061243b565b905090565b60606001600601805461050090612452565b80601f016020809104026020016040519081016040528092919081815260200182805461052c90612452565b80156105775780601f1061054e57610100808354040283529160200191610577565b820191905f5260205f20905b81548152906001019060200180831161055a57829003601f168201915b5050505050905090565b5f7f00000000000000000000000000000000000000000000000000000000000000006001600160a01b031663117d8ae06040518163ffffffff1660e01b8152600401602060405180830381865afa1580156105de573d5f5f3e3d5ffd5b505050506040513d601f19601f820116820180604052508101906104e9919061248a565b61060a611788565b61063a57335b604051631564c0e160e11b81526001600160a01b0390911660048201526024015b60405180910390fd5b610642611811565b818161064e8282611880565b3361065a8686866118e2565b600354610671906001600160a01b0316828861197e565b600354604080516001600160a01b03928316815260208101899052918316917fd5e872c5ecfb1bb8820b2e6a20e31b883682282da886621541f71e31ec11947e910160405180910390a25050506106c66119dd565b505050565b6106d3611811565b306001600160a01b031663372709366040518163ffffffff1660e01b8152600401602060405180830381865afa15801561070f573d5f5f3e3d5ffd5b505050506040513d601f19601f82011682018060405250810190610733919061248a565b61073b611788565b61085a575f3390505f306001600160a01b031663117d8ae06040518163ffffffff1660e01b8152600401602060405180830381865afa158015610780573d5f5f3e3d5ffd5b505050506040513d601f19601f820116820180604052508101906107a4919061248a565b6001600160a01b0316826001600160a01b0316149050806108575760405163d25dd10160e01b81526001600160a01b0383811660048301525f919085169063d25dd10190602401602060405180830381865afa158015610806573d5f5f3e3d5ffd5b505050506040513d601f19601f8201168201806040525081019061082a91906124a5565b90508061085557604051638f7a567d60e01b81526001600160a01b0384166004820152602401610631565b505b50505b82826108668282611880565b6003543390610880906001600160a01b031682308a611a07565b61088b878787611a40565b600354604080516001600160a01b039283168152602081018a9052918316917fcbaa1442ac205415c9d69643e7b60ec73d1de35dbc807c21ec288c70ddc4207b910160405180910390a2505050506106c66119dd565b6108e9611788565b6108f35733610610565b600a8190556040518181527fd3c6d0ab315f2f1352f036cd9f401b49e38e1b90907e195225e8105f9a0b6f02906020015b60405180910390a150565b5f7f00000000000000000000000000000000000000000000000000000000000000006001600160a01b0316635b0f83f36040518163ffffffff1660e01b8152600401602060405180830381865afa1580156105de573d5f5f3e3d5ffd5b5f7f00000000000000000000000000000000000000000000000000000000000000006001600160a01b03166361d027b36040518163ffffffff1660e01b8152600401602060405180830381865afa1580156105de573d5f5f3e3d5ffd5b6109f1611788565b6109fb5733610610565b60058190556040518181527ffbe2d5c01ea8ba5596d6c4e6c82c6d4a0a0ee1128689993a4a5ba0169273d69f90602001610924565b5f8282604051602001610a449291906124c4565b60405160208183030381529060405280519060200120905092915050565b606080306001600160a01b031663117d8ae06040518163ffffffff1660e01b8152600401602060405180830381865afa158015610aa1573d5f5f3e3d5ffd5b505050506040513d601f19601f82011682018060405250810190610ac5919061248a565b6001600160a01b0316336001600160a01b031614610b0457335b604051631184b31b60e21b81526001600160a01b039091166004820152602401610631565b610b0c611811565b82516001600160401b03811115610b2557610b25612069565b604051908082528060200260200182016040528015610b4e578160200160208202803683370190505b50915082516001600160401b03811115610b6a57610b6a612069565b604051908082528060200260200182016040528015610b93578160200160208202803683370190505b506003546040516370a0823160e01b81523060048201529192505f916001600160a01b03909116906370a0823190602401602060405180830381865afa158015610bdf573d5f5f3e3d5ffd5b505050506040513d601f19601f82011682018060405250810190610c03919061243b565b1115610dc757600154604080516330fe427560e21b815290515f926001600160a01b03169163c3f909d49160048083019260a09291908290030181865afa158015610c50573d5f5f3e3d5ffd5b505050506040513d601f19601f82011682018060405250810190610c749190612507565b516003546040516370a0823160e01b8152306004820152919250610cf99183916001600160a01b0316906370a0823190602401602060405180830381865afa158015610cc2573d5f5f3e3d5ffd5b505050506040513d601f19601f82011682018060405250810190610ce6919061243b565b6003546001600160a01b03169190611b28565b6003546040516370a0823160e01b81523060048201526001600160a01b0383811692632db6d399929116906370a0823190602401602060405180830381865afa158015610d48573d5f5f3e3d5ffd5b505050506040513d601f19601f82011682018060405250810190610d6c919061243b565b60405180602001604052805f8152506040518363ffffffff1660e01b8152600401610d98929190612583565b5f604051808303815f87803b158015610daf575f5ffd5b505af1158015610dc1573d5f5f3e3d5ffd5b50505050505b5f5b8351811015610f95575f848281518110610de557610de561259b565b60209081029190910101516040516370a0823160e01b81523060048201526001600160a01b03909116906370a0823190602401602060405180830381865afa158015610e33573d5f5f3e3d5ffd5b505050506040513d601f19601f82011682018060405250810190610e57919061243b565b90508015610f8c57610f20610e6a610581565b868481518110610e7c57610e7c61259b565b60209081029190910101516040516370a0823160e01b81523060048201526001600160a01b03909116906370a0823190602401602060405180830381865afa158015610eca573d5f5f3e3d5ffd5b505050506040513d601f19601f82011682018060405250810190610eee919061243b565b878581518110610f0057610f0061259b565b60200260200101516001600160a01b031661197e9092919063ffffffff16565b848281518110610f3257610f3261259b565b6020026020010151848381518110610f4c57610f4c61259b565b60200260200101906001600160a01b031690816001600160a01b03168152505080838381518110610f7f57610f7f61259b565b6020026020010181815250505b50600101610dc9565b5080604051610fa491906125af565b604051809103902082604051610fba91906125e4565b604051908190038120907f46b8771620f6acf56cb03d3e835ea8024c7dcbcf05fcc3f6ade9e19d1a3e212b905f90a3610ff16119dd565b915091565b60018054600254600354600454600554600654600780546001600160a01b0397881698968816979095169593949293919261103090612452565b80601f016020809104026020016040519081016040528092919081815260200182805461105c90612452565b80156110a75780601f1061107e576101008083540402835291602001916110a7565b820191905f5260205f20905b81548152906001019060200180831161108a57829003601f168201915b5050505050908060070180546110bc90612452565b80601f01602080910402602001604051908101604052809291908181526020018280546110e890612452565b80156111335780601f1061110a57610100808354040283529160200191611133565b820191905f5260205f20905b81548152906001019060200180831161111657829003601f168201915b505050506008830154600990930154919260ff169190508a565b5f7f00000000000000000000000000000000000000000000000000000000000000006001600160a01b0316637aaceb956040518163ffffffff1660e01b8152600401602060405180830381865afa1580156105de573d5f5f3e3d5ffd5b6111b2611788565b6111bc5733610610565b60048190556040518181527f333b26cca69716ad4680ddb07663f5bfb4f06045671f336af9a83690a3ae00f990602001610924565b6111f9611788565b6112035733610610565b600180546001600160a01b031916339081179091556040519081527f55489ce0259bd691120d8860861be1c401c7c16a3cd268d21045756af4ecc5ca906020015b60405180910390a1565b611256611788565b6112605733610610565b60068190556040518181527fb6ac66853c4e59c71e118d25ab494bb847c4e5eb0c8894898c5343e6f61afc1290602001610924565b61129d611788565b6112a75733610610565b81816112b38282611880565b6112be8885856118e2565b60035460405163095ea7b360e01b81526001600160a01b038981166004830152602482018b90529091169063095ea7b3906044016020604051808303815f875af115801561130e573d5f5f3e3d5ffd5b505050506040513d601f19601f8201168201806040525081019061133291906124a5565b50604051632db6d39960e01b81526001600160a01b03881690632db6d39990611363908b908a908a90600401612617565b5f604051808303815f87803b15801561137a575f5ffd5b505af115801561138c573d5f5f3e3d5ffd5b5050600354604080516001600160a01b039283168152602081018d9052918b1693503092507f9f784fc02a186f1c98b2d9f15fda084da27cdd291a3785d978f91911d880516b910160405180910390a35050505050505050565b6114516040518061014001604052805f6001600160a01b031681526020015f6001600160a01b031681526020015f6001600160a01b031681526020015f81526020015f81526020015f815260200160608152602001606081526020015f151581526020015f81525090565b6040805161014081018252600180546001600160a01b0390811683526002548116602084015260035416928201929092526004546060820152600554608082015260065460a08201526007805491929160c0840191906114b090612452565b80601f01602080910402602001604051908101604052809291908181526020018280546114dc90612452565b80156115275780601f106114fe57610100808354040283529160200191611527565b820191905f5260205f20905b81548152906001019060200180831161150a57829003601f168201915b5050505050815260200160078201805461154090612452565b80601f016020809104026020016040519081016040528092919081815260200182805461156c90612452565b80156115b75780601f1061158e576101008083540402835291602001916115b7565b820191905f5260205f20905b81548152906001019060200180831161159a57829003601f168201915b5050509183525050600882015460ff1615156020820152600990910154604090910152919050565b606080306001600160a01b031663117d8ae06040518163ffffffff1660e01b8152600401602060405180830381865afa15801561161e573d5f5f3e3d5ffd5b505050506040513d601f19601f82011682018060405250810190611642919061248a565b6001600160a01b0316336001600160a01b0316146116605733610adf565b611668611811565b6116728484611bb7565b60405191935091506116859082906125af565b60405180910390208260405161169b91906125e4565b604051908190038120907f3e3e7958121b3e39c7a49392d1aa9cdce870c2a059744f9e15cf66fff7865455905f90a36116d26119dd565b9250929050565b6116e1611788565b6116eb5733610610565b600180546001600160a01b03191690556040513381527f7cb941d7b1708e5b3bcd35ca960d6c6311188cec18886e5b67630552676b048790602001611244565b5f7f00000000000000000000000000000000000000000000000000000000000000006001600160a01b031663f7e533ec6040518163ffffffff1660e01b8152600401602060405180830381865afa1580156105de573d5f5f3e3d5ffd5b5f80546001600160a01b03166391d148546117a4600230610a30565b336040516001600160e01b031960e085901b16815260048101929092526001600160a01b03166024820152604401602060405180830381865afa1580156117ed573d5f5f3e3d5ffd5b505050506040513d601f19601f820116820180604052508101906104e991906124a5565b7f9b779b17422d0df92223018b32b4d1fa46e071723d6817e2486d003becc55f005c1561185157604051633ee5aeb560e01b815260040160405180910390fd5b61187e60017f9b779b17422d0df92223018b32b4d1fa46e071723d6817e2486d003becc55f005b90611e7a565b565b8015801590611892575060095460ff16155b156118b057604051630cd0fdf960e01b815260040160405180910390fd5b801580156118c0575060095460ff165b156118de5760405163332863a960e11b815260040160405180910390fd5b5050565b604051632d182be560e21b815260048101849052306024820181905260448201527f00000000000000000000000000000000000000000000000000000000000000006001600160a01b03169063b460af94906064015b6020604051808303815f875af1158015611954573d5f5f3e3d5ffd5b505050506040513d601f19601f82011682018060405250810190611978919061243b565b50505050565b6040516001600160a01b038381166024830152604482018390526106c691859182169063a9059cbb906064015b604051602081830303815290604052915060e01b6020820180516001600160e01b038381831617835250505050611e81565b61187e5f7f9b779b17422d0df92223018b32b4d1fa46e071723d6817e2486d003becc55f00611878565b6040516001600160a01b0384811660248301528381166044830152606482018390526119789186918216906323b872dd906084016119ab565b60035460405163095ea7b360e01b81526001600160a01b037f000000000000000000000000000000000000000000000000000000000000000081166004830152602482018690529091169063095ea7b3906044016020604051808303815f875af1158015611ab0573d5f5f3e3d5ffd5b505050506040513d601f19601f82011682018060405250810190611ad491906124a5565b50604051636e553f6560e01b8152600481018490523060248201527f00000000000000000000000000000000000000000000000000000000000000006001600160a01b031690636e553f6590604401611938565b604080516001600160a01b038416602482015260448082018490528251808303909101815260649091019091526020810180516001600160e01b031663095ea7b360e01b179052611b798482611eed565b611978576040516001600160a01b0384811660248301525f6044830152611bad91869182169063095ea7b3906064016119ab565b6119788482611e81565b6060805f611bc784860186612782565b90508060200151516001600160401b03811115611be657611be6612069565b604051908082528060200260200182016040528015611c0f578160200160208202803683370190505b5092508060200151516001600160401b03811115611c2f57611c2f612069565b604051908082528060200260200182016040528015611c58578160200160208202803683370190505b5091505f5b816020015151811015611e1e578151805182908110611c7e57611c7e61259b565b60200260200101516001600160a01b031663fabed4123084602001518481518110611cab57611cab61259b565b602002602001015185604001518581518110611cc957611cc961259b565b602002602001015186606001518681518110611ce757611ce761259b565b60200260200101516040518563ffffffff1660e01b8152600401611d0e949392919061286a565b6020604051808303815f875af1158015611d2a573d5f5f3e3d5ffd5b505050506040513d601f19601f82011682018060405250810190611d4e919061243b565b5081602001518181518110611d6557611d6561259b565b6020026020010151848281518110611d7f57611d7f61259b565b60200260200101906001600160a01b031690816001600160a01b03168152505081604001518181518110611db557611db561259b565b6020026020010151838281518110611dcf57611dcf61259b565b602002602001018181525050611e16611de6610581565b848381518110611df857611df861259b565b602002602001015184602001518481518110610f0057610f0061259b565b600101611c5d565b5081604051611e2d91906125af565b604051809103902083604051611e4391906125e4565b604051908190038120907f3e3e7958121b3e39c7a49392d1aa9cdce870c2a059744f9e15cf66fff7865455905f90a3509250929050565b80825d5050565b5f5f60205f8451602086015f885af180611ea0576040513d5f823e3d81fd5b50505f513d91508115611eb7578060011415611ec4565b6001600160a01b0384163b155b1561197857604051635274afe760e01b81526001600160a01b0385166004820152602401610631565b5f5f5f5f60205f8651602088015f8a5af192503d91505f519050828015611f2c57508115611f1e5780600114611f2c565b5f866001600160a01b03163b115b9695505050505050565b5f81518084528060208401602086015e5f602082860101526020601f19601f83011685010191505092915050565b602081525f611f766020830184611f36565b9392505050565b5f5f83601f840112611f8d575f5ffd5b5081356001600160401b03811115611fa3575f5ffd5b6020830191508360208285010111156116d2575f5ffd5b5f5f5f60408486031215611fcc575f5ffd5b8335925060208401356001600160401b03811115611fe8575f5ffd5b611ff486828701611f7d565b9497909650939450505050565b5f60208284031215612011575f5ffd5b5035919050565b6001600160a01b038116811461202c575f5ffd5b50565b5f5f60408385031215612040575f5ffd5b82356003811061204e575f5ffd5b9150602083013561205e81612018565b809150509250929050565b634e487b7160e01b5f52604160045260245ffd5b604051608081016001600160401b038111828210171561209f5761209f612069565b60405290565b604051601f8201601f191681016001600160401b03811182821017156120cd576120cd612069565b604052919050565b5f6001600160401b038211156120ed576120ed612069565b5060051b60200190565b5f82601f830112612106575f5ffd5b8135612119612114826120d5565b6120a5565b8082825260208201915060208360051b86010192508583111561213a575f5ffd5b602085015b8381101561216057803561215281612018565b83526020928301920161213f565b5095945050505050565b5f6020828403121561217a575f5ffd5b81356001600160401b0381111561218f575f5ffd5b61219b848285016120f7565b949350505050565b604080825283519082018190525f9060208501906060840190835b818110156121e55783516001600160a01b03168352602093840193909201916001016121be565b5050838103602080860191909152855180835291810192508501905f5b81811015612220578251845260209384019390920191600101612202565b50919695505050505050565b6001600160a01b038b811682528a8116602083015289166040820152606081018890526080810187905260a0810186905261014060c082018190525f9061227590830187611f36565b82810360e08401526122878187611f36565b9415156101008401525050610120015298975050505050505050565b5f5f5f5f5f5f608087890312156122b8575f5ffd5b8635955060208701356122ca81612018565b945060408701356001600160401b038111156122e4575f5ffd5b6122f089828a01611f7d565b90955093505060608701356001600160401b0381111561230e575f5ffd5b61231a89828a01611f7d565b979a9699509497509295939492505050565b602081526123466020820183516001600160a01b03169052565b5f602083015161236160408401826001600160a01b03169052565b5060408301516001600160a01b03811660608401525060608301516080830152608083015160a083015260a083015160c083015260c083015161014060e08401526123b0610160840182611f36565b905060e0840151601f19848303016101008501526123ce8282611f36565b9150506101008401516123e661012085018215159052565b506101208401516101408401528091505092915050565b5f5f6020838503121561240e575f5ffd5b82356001600160401b03811115612423575f5ffd5b61242f85828601611f7d565b90969095509350505050565b5f6020828403121561244b575f5ffd5b5051919050565b600181811c9082168061246657607f821691505b60208210810361248457634e487b7160e01b5f52602260045260245ffd5b50919050565b5f6020828403121561249a575f5ffd5b8151611f7681612018565b5f602082840312156124b5575f5ffd5b81518015158114611f76575f5ffd5b5f600384106124e157634e487b7160e01b5f52602160045260245ffd5b5060f89290921b825260601b6bffffffffffffffffffffffff1916600182015260150190565b5f60a0828403128015612518575f5ffd5b5060405160a081016001600160401b038111828210171561253b5761253b612069565b604052825161254981612018565b8152602083810151908201526040808401519082015260608084015190820152608083015161257781612018565b60808201529392505050565b828152604060208201525f61219b6040830184611f36565b634e487b7160e01b5f52603260045260245ffd5b81515f90829060208501835b828110156125d95781518452602093840193909101906001016125bb565b509195945050505050565b81515f90829060208501835b828110156125d95781516001600160a01b03168452602093840193909101906001016125f0565b83815260406020820152816040820152818360608301375f818301606090810191909152601f909201601f1916010192915050565b5f82601f83011261265b575f5ffd5b8135612669612114826120d5565b8082825260208201915060208360051b86010192508583111561268a575f5ffd5b602085015b8381101561216057803583526020928301920161268f565b5f82601f8301126126b6575f5ffd5b81356126c4612114826120d5565b8082825260208201915060208360051b8601019250858311156126e5575f5ffd5b602085015b838110156121605780356001600160401b03811115612707575f5ffd5b8601603f81018813612717575f5ffd5b6020810135612728612114826120d5565b808282526020820191506020808460051b8601010192508a83111561274b575f5ffd5b6040840193505b8284101561276d578335825260209384019390910190612752565b865250506020938401939190910190506126ea565b5f60208284031215612792575f5ffd5b81356001600160401b038111156127a7575f5ffd5b8201608081850312156127b8575f5ffd5b6127c061207d565b81356001600160401b038111156127d5575f5ffd5b6127e1868285016120f7565b82525060208201356001600160401b038111156127fc575f5ffd5b612808868285016120f7565b60208301525060408201356001600160401b03811115612826575f5ffd5b6128328682850161264c565b60408301525060608201356001600160401b03811115612850575f5ffd5b61285c868285016126a7565b606083015250949350505050565b6001600160a01b03858116825284166020808301919091526040820184905260806060830181905283519083018190525f9184019060a0840190835b818110156128c45783518352602093840193909201916001016128a6565b50909897505050505050505056fea2646970667358221220727c8ceeab8adea4ec579ddc239ae790888e265e6990118bb49bf16447199c4864736f6c634300081c0033","linkReferences":{}},"methodIdentifiers":{"asset()":"38d52e0f","board(uint256,bytes)":"2db6d399","commander()":"37270936","config()":"79502c55","configurationManager()":"c9c667e3","depositCap()":"dbd5edc7","disembark(uint256,bytes)":"13c408f8","fleetCommanderRewardsManagerFactory()":"f7e533ec","generateRole(uint8,address)":"69b3054b","getConfig()":"c3f909d4","harborCommand()":"5b0f83f3","harvest(bytes)":"ce5c7f61","maxDepositPercentageOfTVL()":"bdcdd882","maxRebalanceInflow()":"ad5a356f","maxRebalanceOutflow()":"3194549e","metaMorpho()":"b6042b34","move(uint256,address,bytes,bytes)":"c38a6f0b","name()":"06fdde03","raft()":"117d8ae0","registerFleetCommander()":"8a8b9976","requiresKeeperData()":"303dbaf3","setDepositCap(uint256)":"86651203","setMaxDepositPercentageOfTVL(uint256)":"4fc7fac3","setMaxRebalanceInflow(uint256)":"92f5e832","setMaxRebalanceOutflow(uint256)":"61f5cd8b","sweep(address[])":"780469bb","tipJar()":"7aaceb95","totalAssets()":"01e1d114","treasury()":"61d027b3","unregisterFleetCommander()":"ebf31131"},"id":208}