{"abi":[{"type":"constructor","inputs":[{"name":"_metaMorpho","type":"address","internalType":"address"},{"name":"_params","type":"tuple","internalType":"struct ArkParams","components":[{"name":"name","type":"string","internalType":"string"},{"name":"accessManager","type":"address","internalType":"address"},{"name":"configurationManager","type":"address","internalType":"address"},{"name":"token","type":"address","internalType":"address"},{"name":"depositCap","type":"uint256","internalType":"uint256"},{"name":"maxRebalanceOutflow","type":"uint256","internalType":"uint256"},{"name":"maxRebalanceInflow","type":"uint256","internalType":"uint256"}]}],"stateMutability":"nonpayable"},{"type":"function","name":"DEFAULT_ADMIN_ROLE","inputs":[],"outputs":[{"name":"","type":"bytes32","internalType":"bytes32"}],"stateMutability":"view"},{"type":"function","name":"MAX_UINT256","inputs":[],"outputs":[{"name":"","type":"uint256","internalType":"uint256"}],"stateMutability":"view"},{"type":"function","name":"RAY","inputs":[],"outputs":[{"name":"","type":"uint256","internalType":"uint256"}],"stateMutability":"view"},{"type":"function","name":"SECONDS_PER_DAY","inputs":[],"outputs":[{"name":"","type":"uint256","internalType":"uint256"}],"stateMutability":"view"},{"type":"function","name":"SECONDS_PER_YEAR","inputs":[],"outputs":[{"name":"","type":"uint256","internalType":"uint256"}],"stateMutability":"view"},{"type":"function","name":"WAD","inputs":[],"outputs":[{"name":"","type":"uint256","internalType":"uint256"}],"stateMutability":"view"},{"type":"function","name":"WAD_TO_RAY","inputs":[],"outputs":[{"name":"","type":"uint256","internalType":"uint256"}],"stateMutability":"view"},{"type":"function","name":"board","inputs":[{"name":"amount","type":"uint256","internalType":"uint256"}],"outputs":[],"stateMutability":"nonpayable"},{"type":"function","name":"commander","inputs":[],"outputs":[{"name":"","type":"address","internalType":"address"}],"stateMutability":"view"},{"type":"function","name":"config","inputs":[],"outputs":[{"name":"commander","type":"address","internalType":"address"},{"name":"raft","type":"address","internalType":"address"},{"name":"token","type":"address","internalType":"contract IERC20"},{"name":"depositCap","type":"uint256","internalType":"uint256"},{"name":"maxRebalanceOutflow","type":"uint256","internalType":"uint256"},{"name":"maxRebalanceInflow","type":"uint256","internalType":"uint256"},{"name":"name","type":"string","internalType":"string"}],"stateMutability":"view"},{"type":"function","name":"depositCap","inputs":[],"outputs":[{"name":"","type":"uint256","internalType":"uint256"}],"stateMutability":"view"},{"type":"function","name":"disembark","inputs":[{"name":"amount","type":"uint256","internalType":"uint256"}],"outputs":[],"stateMutability":"nonpayable"},{"type":"function","name":"getRoleAdmin","inputs":[{"name":"role","type":"bytes32","internalType":"bytes32"}],"outputs":[{"name":"","type":"bytes32","internalType":"bytes32"}],"stateMutability":"view"},{"type":"function","name":"grantCommanderRole","inputs":[{"name":"account","type":"address","internalType":"address"}],"outputs":[],"stateMutability":"nonpayable"},{"type":"function","name":"grantRole","inputs":[{"name":"","type":"bytes32","internalType":"bytes32"},{"name":"","type":"address","internalType":"address"}],"outputs":[],"stateMutability":"view"},{"type":"function","name":"harvest","inputs":[{"name":"rewardToken","type":"address","internalType":"address"},{"name":"additionalData","type":"bytes","internalType":"bytes"}],"outputs":[{"name":"","type":"uint256","internalType":"uint256"}],"stateMutability":"nonpayable"},{"type":"function","name":"hasRole","inputs":[{"name":"role","type":"bytes32","internalType":"bytes32"},{"name":"account","type":"address","internalType":"address"}],"outputs":[{"name":"","type":"bool","internalType":"bool"}],"stateMutability":"view"},{"type":"function","name":"manager","inputs":[],"outputs":[{"name":"","type":"address","internalType":"contract IConfigurationManager"}],"stateMutability":"view"},{"type":"function","name":"maxRebalanceInflow","inputs":[],"outputs":[{"name":"","type":"uint256","internalType":"uint256"}],"stateMutability":"view"},{"type":"function","name":"maxRebalanceOutflow","inputs":[],"outputs":[{"name":"","type":"uint256","internalType":"uint256"}],"stateMutability":"view"},{"type":"function","name":"metaMorpho","inputs":[],"outputs":[{"name":"","type":"address","internalType":"contract IMetaMorpho"}],"stateMutability":"view"},{"type":"function","name":"move","inputs":[{"name":"amount","type":"uint256","internalType":"uint256"},{"name":"receiverArk","type":"address","internalType":"address"}],"outputs":[],"stateMutability":"nonpayable"},{"type":"function","name":"name","inputs":[],"outputs":[{"name":"","type":"string","internalType":"string"}],"stateMutability":"view"},{"type":"function","name":"poke","inputs":[],"outputs":[],"stateMutability":"nonpayable"},{"type":"function","name":"raft","inputs":[],"outputs":[{"name":"","type":"address","internalType":"address"}],"stateMutability":"view"},{"type":"function","name":"rate","inputs":[],"outputs":[{"name":"","type":"uint256","internalType":"uint256"}],"stateMutability":"view"},{"type":"function","name":"renounceRole","inputs":[{"name":"role","type":"bytes32","internalType":"bytes32"},{"name":"callerConfirmation","type":"address","internalType":"address"}],"outputs":[],"stateMutability":"nonpayable"},{"type":"function","name":"revokeCommanderRole","inputs":[{"name":"account","type":"address","internalType":"address"}],"outputs":[],"stateMutability":"nonpayable"},{"type":"function","name":"revokeRole","inputs":[{"name":"","type":"bytes32","internalType":"bytes32"},{"name":"","type":"address","internalType":"address"}],"outputs":[],"stateMutability":"view"},{"type":"function","name":"setDepositCap","inputs":[{"name":"newDepositCap","type":"uint256","internalType":"uint256"}],"outputs":[],"stateMutability":"nonpayable"},{"type":"function","name":"setMaxRebalanceInflow","inputs":[{"name":"newMaxRebalanceInflow","type":"uint256","internalType":"uint256"}],"outputs":[],"stateMutability":"nonpayable"},{"type":"function","name":"setMaxRebalanceOutflow","inputs":[{"name":"newMaxRebalanceOutflow","type":"uint256","internalType":"uint256"}],"outputs":[],"stateMutability":"nonpayable"},{"type":"function","name":"supportsInterface","inputs":[{"name":"interfaceId","type":"bytes4","internalType":"bytes4"}],"outputs":[{"name":"","type":"bool","internalType":"bool"}],"stateMutability":"view"},{"type":"function","name":"token","inputs":[],"outputs":[{"name":"","type":"address","internalType":"contract IERC20"}],"stateMutability":"view"},{"type":"function","name":"totalAssets","inputs":[],"outputs":[{"name":"assets","type":"uint256","internalType":"uint256"}],"stateMutability":"view"},{"type":"event","name":"ArkPoked","inputs":[{"name":"currentPrice","type":"uint256","indexed":false,"internalType":"uint256"},{"name":"timestamp","type":"uint256","indexed":false,"internalType":"uint256"}],"anonymous":false},{"type":"event","name":"ArkPokedNoChange","inputs":[],"anonymous":false},{"type":"event","name":"ArkPokedTooSoon","inputs":[],"anonymous":false},{"type":"event","name":"Boarded","inputs":[{"name":"commander","type":"address","indexed":true,"internalType":"address"},{"name":"token","type":"address","indexed":false,"internalType":"address"},{"name":"amount","type":"uint256","indexed":false,"internalType":"uint256"}],"anonymous":false},{"type":"event","name":"DepositCapUpdated","inputs":[{"name":"newCap","type":"uint256","indexed":false,"internalType":"uint256"}],"anonymous":false},{"type":"event","name":"Disembarked","inputs":[{"name":"commander","type":"address","indexed":true,"internalType":"address"},{"name":"token","type":"address","indexed":false,"internalType":"address"},{"name":"amount","type":"uint256","indexed":false,"internalType":"uint256"}],"anonymous":false},{"type":"event","name":"Harvested","inputs":[{"name":"amount","type":"uint256","indexed":false,"internalType":"uint256"}],"anonymous":false},{"type":"event","name":"MaxRebalanceInflowUpdated","inputs":[{"name":"newMaxInflow","type":"uint256","indexed":false,"internalType":"uint256"}],"anonymous":false},{"type":"event","name":"MaxRebalanceOutflowUpdated","inputs":[{"name":"newMaxOutflow","type":"uint256","indexed":false,"internalType":"uint256"}],"anonymous":false},{"type":"event","name":"Moved","inputs":[{"name":"from","type":"address","indexed":true,"internalType":"address"},{"name":"to","type":"address","indexed":true,"internalType":"address"},{"name":"token","type":"address","indexed":false,"internalType":"address"},{"name":"amount","type":"uint256","indexed":false,"internalType":"uint256"}],"anonymous":false},{"type":"event","name":"RaftUpdated","inputs":[{"name":"newRaft","type":"address","indexed":false,"internalType":"address"}],"anonymous":false},{"type":"event","name":"RoleAdminChanged","inputs":[{"name":"role","type":"bytes32","indexed":true,"internalType":"bytes32"},{"name":"previousAdminRole","type":"bytes32","indexed":true,"internalType":"bytes32"},{"name":"newAdminRole","type":"bytes32","indexed":true,"internalType":"bytes32"}],"anonymous":false},{"type":"event","name":"RoleGranted","inputs":[{"name":"role","type":"bytes32","indexed":true,"internalType":"bytes32"},{"name":"account","type":"address","indexed":true,"internalType":"address"},{"name":"sender","type":"address","indexed":true,"internalType":"address"}],"anonymous":false},{"type":"event","name":"RoleRevoked","inputs":[{"name":"role","type":"bytes32","indexed":true,"internalType":"bytes32"},{"name":"account","type":"address","indexed":true,"internalType":"address"},{"name":"sender","type":"address","indexed":true,"internalType":"address"}],"anonymous":false},{"type":"error","name":"AccessControlBadConfirmation","inputs":[]},{"type":"error","name":"AccessControlUnauthorizedAccount","inputs":[{"name":"account","type":"address","internalType":"address"},{"name":"neededRole","type":"bytes32","internalType":"bytes32"}]},{"type":"error","name":"AddressEmptyCode","inputs":[{"name":"target","type":"address","internalType":"address"}]},{"type":"error","name":"AddressInsufficientBalance","inputs":[{"name":"account","type":"address","internalType":"address"}]},{"type":"error","name":"CallerIsNotAuthorizedToBoard","inputs":[{"name":"caller","type":"address","internalType":"address"}]},{"type":"error","name":"CallerIsNotCommander","inputs":[{"name":"caller","type":"address","internalType":"address"}]},{"type":"error","name":"CallerIsNotGovernor","inputs":[{"name":"caller","type":"address","internalType":"address"}]},{"type":"error","name":"CannotAddCommanderToArkWithCommander","inputs":[]},{"type":"error","name":"CannotDeployArkWithEmptyName","inputs":[]},{"type":"error","name":"CannotDeployArkWithoutConfigurationManager","inputs":[]},{"type":"error","name":"CannotDeployArkWithoutRaft","inputs":[]},{"type":"error","name":"CannotDeployArkWithoutToken","inputs":[]},{"type":"error","name":"CannotRemoveCommanderFromArkWithAssets","inputs":[]},{"type":"error","name":"DirectGrantIsDisabled","inputs":[{"name":"caller","type":"address","internalType":"address"}]},{"type":"error","name":"DirectRevokeIsDisabled","inputs":[{"name":"caller","type":"address","internalType":"address"}]},{"type":"error","name":"FailedInnerCall","inputs":[]},{"type":"error","name":"InvalidAccessManagerAddress","inputs":[{"name":"invalidAddress","type":"address","internalType":"address"}]},{"type":"error","name":"InvalidVaultAddress","inputs":[]},{"type":"error","name":"SafeERC20FailedOperation","inputs":[{"name":"token","type":"address","internalType":"address"}]}],"bytecode":{"object":"0x60a060405234801561000f575f80fd5b5060405161218238038061218283398101604081905261002e9161048e565b60208101518190806001600160a01b038116610064576040516347bd7c1d60e01b81525f60048201526024015b60405180910390fd5b6040516301ffc9a760e01b815263f87138b560e01b60048201526001600160a01b038216906301ffc9a790602401602060405180830381865afa1580156100ad573d5f803e3d5ffd5b505050506040513d601f19601f820116820180604052508101906100d1919061055f565b6100f9576040516347bd7c1d60e01b81526001600160a01b038216600482015260240161005b565b5f80546001600160a01b0319166001600160a01b0392831617905560408301511690506101395760405163b53c493160e01b815260040160405180910390fd5b60608101516001600160a01b0316610167576040516001620a810f60e11b0319815260040160405180910390fd5b8051515f036101895760405163268c072960e01b815260040160405180910390fd5b604081810151600980546001600160a01b0319166001600160a01b0390921691821790558151628bec5760e51b815291515f9263117d8ae0916004808301926020929190829003018187875af11580156101e5573d5f803e3d5ffd5b505050506040513d601f19601f820116820180604052508101906102099190610585565b6001600160a01b03160361023057604051633a4f9cdb60e21b815260040160405180910390fd5b6040518060e001604052805f6001600160a01b0316815260200160095f9054906101000a90046001600160a01b03166001600160a01b031663117d8ae06040518163ffffffff1660e01b81526004016020604051808303815f875af115801561029b573d5f803e3d5ffd5b505050506040513d601f19601f820116820180604052508101906102bf9190610585565b6001600160a01b039081168252606080850151821660208085019190915260808087015160408087019190915260a0808901518588015260c0808a0151848901528951978201979097528751600280549188166001600160a01b03199283161781559489015160038054918916918316919091179055918801516004805491909716921691909117909455918501516005559084015160065590830151600755908201516008906103709082610622565b5050506001600160a01b038316905061039c57604051630306120160e01b815260040160405180910390fd5b506001600160a01b03166080526106dc565b80516001600160a01b03811681146103c4575f80fd5b919050565b634e487b7160e01b5f52604160045260245ffd5b60405160e081016001600160401b03811182821017156103ff576103ff6103c9565b60405290565b5f82601f830112610414575f80fd5b81516001600160401b0381111561042d5761042d6103c9565b604051601f8201601f19908116603f011681016001600160401b038111828210171561045b5761045b6103c9565b604052818152838201602001851015610472575f80fd5b8160208501602083015e5f918101602001919091529392505050565b5f806040838503121561049f575f80fd5b6104a8836103ae565b60208401519092506001600160401b038111156104c3575f80fd5b830160e081860312156104d4575f80fd5b6104dc6103dd565b81516001600160401b038111156104f1575f80fd5b6104fd87828501610405565b82525061050c602083016103ae565b602082015261051d604083016103ae565b604082015261052e606083016103ae565b60608201526080828101519082015260a0808301519082015260c09182015191810191909152919491935090915050565b5f6020828403121561056f575f80fd5b8151801515811461057e575f80fd5b9392505050565b5f60208284031215610595575f80fd5b61057e826103ae565b600181811c908216806105b257607f821691505b6020821081036105d057634e487b7160e01b5f52602260045260245ffd5b50919050565b601f82111561061d57805f5260205f20601f840160051c810160208510156105fb5750805b601f840160051c820191505b8181101561061a575f8155600101610607565b50505b505050565b81516001600160401b0381111561063b5761063b6103c9565b61064f81610649845461059e565b846105d6565b6020601f821160018114610681575f831561066a5750848201515b5f19600385901b1c1916600184901b17845561061a565b5f84815260208120601f198516915b828110156106b05787850151825560209485019460019092019101610690565b50848210156106cd57868401515f19600387901b60f8161c191681555b50505050600190811b01905550565b608051611a6b6107175f395f8181610422015281816104a50152818161069b015281816111e50152818161127d01526113d70152611a6b5ff3fe608060405234801561000f575f80fd5b5060043610610208575f3560e01c806361f5cd8b1161011f5780639403e41f116100a9578063d547741f11610079578063d547741f14610444578063d8a8e03a14610457578063dbd5edc71461046a578063e6a69ab814610472578063fc0c546a1461047d575f80fd5b80639403e41f146103fb578063a217fddf1461040e578063ad5a356f14610415578063b6042b341461041d575f80fd5b806379502c55116100ef57806379502c551461039457806381d3ce26146103af57806386651203146103c257806391d14854146103d557806392f5e832146103e8575f80fd5b806361f5cd8b146103555780636a146024146103685780637399bfe81461037757806374f0314f1461038a575f80fd5b80632c4e722e116101a057806336568abe1161017057806336568abe146102f8578063372709361461030b578063481c6a751461031c5780634dd47eba1461032f578063552033c414610342575f80fd5b80632c4e722e146102cf5780632f2ff15d146102d55780633194549e146102e857806333a581d2146102f0575f80fd5b8063163c8381116101db578063163c838114610284578063181783581461028f578063248a9ca31461029957806328ed6e3f146102bc575f80fd5b806301e1d1141461020c57806301ffc9a71461022757806306fdde031461024a578063117d8ae01461025f575b5f80fd5b61021461048e565b6040519081526020015b60405180910390f35b61023a6102353660046117e6565b610580565b604051901515815260200161021e565b6102526105b6565b60405161021e919061183b565b6003546001600160a01b03165b6040516001600160a01b03909116815260200161021e565b610214633b9aca0081565b610297610649565b005b6102146102a736600461184d565b5f908152600160208190526040909120015490565b6102976102ca36600461184d565b61078b565b5f610214565b6102976102e3366004611878565b610935565b600654610214565b6102145f1981565b610297610306366004611878565b610950565b6002546001600160a01b031661026c565b60095461026c906001600160a01b031681565b61029761033d36600461184d565b610988565b6102146b033b2e3c9fd0803ce800000081565b61029761036336600461184d565b610a1e565b610214670de0b6b3a764000081565b6102146103853660046118a6565b610a7a565b6102146201518081565b61039c610b00565b60405161021e9796959493929190611926565b6102976103bd36600461197b565b610bbb565b6102976103d036600461184d565b610d30565b61023a6103e3366004611878565b610d8c565b6102976103f636600461184d565b610db6565b61029761040936600461197b565b610e12565b6102145f81565b600754610214565b61026c7f000000000000000000000000000000000000000000000000000000000000000081565b610297610452366004611878565b610f83565b610297610465366004611878565b610f9e565b600554610214565b6102146301e1338081565b6004546001600160a01b031661026c565b6040516370a0823160e01b81523060048201525f907f00000000000000000000000000000000000000000000000000000000000000006001600160a01b0316906307a2d13a9082906370a0823190602401602060405180830381865afa1580156104fa573d5f803e3d5ffd5b505050506040513d601f19601f8201168201806040525081019061051e9190611996565b6040518263ffffffff1660e01b815260040161053c91815260200190565b602060405180830381865afa158015610557573d5f803e3d5ffd5b505050506040513d601f19601f8201168201806040525081019061057b9190611996565b905090565b5f6001600160e01b03198216637965db0b60e01b14806105b057506301ffc9a760e01b6001600160e01b03198316145b92915050565b6060600260060180546105c8906119ad565b80601f01602080910402602001604051908101604052809291908181526020018280546105f4906119ad565b801561063f5780601f106106165761010080835404028352916020019161063f565b820191905f5260205f20905b81548152906001019060200180831161062257829003601f168201915b5050505050905090565b600a54420361067c576040517ffb5829c244b48204000a0e9c7f5b68eecb349f471eafc9c1becbf62854eb76f5905f90a1565b6040516303d1689d60e11b8152670de0b6b3a764000060048201525f907f00000000000000000000000000000000000000000000000000000000000000006001600160a01b0316906307a2d13a90602401602060405180830381865afa1580156106e8573d5f803e3d5ffd5b505050506040513d601f19601f8201168201806040525081019061070c9190611996565b9050600b548103610742576040517f51fb49be6cb6da86642323ec7f5995f1b10f69c77520899be766c78d686dde4e905f90a150565b600b81905542600a8190556040805183815260208101929092527ffd8be248249824b1683ff1db237618eaf58754a86088acb74842fe014b0998df91015b60405180910390a150565b6002546001600160a01b031661079f6110ea565b6108c3575f3390505f306001600160a01b031663117d8ae06040518163ffffffff1660e01b8152600401602060405180830381865afa1580156107e4573d5f803e3d5ffd5b505050506040513d601f19601f8201168201806040525081019061080891906119e5565b6001600160a01b0316826001600160a01b0316149050806108c05760405163d25dd10160e01b81526001600160a01b0383811660048301525f919085169063d25dd10190602401602060405180830381865afa15801561086a573d5f803e3d5ffd5b505050506040513d601f19601f8201168201806040525081019061088e9190611a00565b9050806108be57604051638f7a567d60e01b81526001600160a01b03841660048201526024015b60405180910390fd5b505b50505b60045433906108dd906001600160a01b031682308661115d565b6108e6836111ca565b600454604080516001600160a01b03928316815260208101869052918316917fcbaa1442ac205415c9d69643e7b60ec73d1de35dbc807c21ec288c70ddc4207b910160405180910390a2505050565b604051630e15200f60e21b81523360048201526024016108b5565b6001600160a01b03811633146109795760405163334bd91960e11b815260040160405180910390fd5b6109838282611342565b505050565b6109906110ea565b6109af57604051631564c0e160e11b81523360048201526024016108b5565b336109b9826113b4565b6004546109d0906001600160a01b0316828461140e565b600454604080516001600160a01b03928316815260208101859052918316917fd5e872c5ecfb1bb8820b2e6a20e31b883682282da886621541f71e31ec11947e910160405180910390a25050565b610a266110ea565b610a4557604051631564c0e160e11b81523360048201526024016108b5565b60068190556040518181527ffbe2d5c01ea8ba5596d6c4e6c82c6d4a0a0ee1128689993a4a5ba0169273d69f90602001610780565b5f610af660095f9054906101000a90046001600160a01b03166001600160a01b031663117d8ae06040518163ffffffff1660e01b81526004016020604051808303815f875af1158015610acf573d5f803e3d5ffd5b505050506040513d601f19601f82011682018060405250810190610af391906119e5565b50565b505f5b9392505050565b60028054600354600454600554600654600754600880546001600160a01b03978816989688169790951695939492939192610b3a906119ad565b80601f0160208091040260200160405190810160405280929190818152602001828054610b66906119ad565b8015610bb15780601f10610b8857610100808354040283529160200191610bb1565b820191905f5260205f20905b815481529060010190602001808311610b9457829003601f168201915b5050505050905087565b5f5460408051630ccc574960e41b815290516001600160a01b03909216916391d1485491839163ccc57490916004808201926020929091908290030181865afa158015610c0a573d5f803e3d5ffd5b505050506040513d601f19601f82011682018060405250810190610c2e9190611996565b6040516001600160e01b031960e084901b1681526004810191909152336024820152604401602060405180830381865afa158015610c6e573d5f803e3d5ffd5b505050506040513d601f19601f82011682018060405250810190610c929190611a00565b610cb157604051630ea7d7ed60e21b81523360048201526024016108b5565b610cba8161143f565b5f54604080516345b817bb60e01b81529051610d2c926001600160a01b0316916345b817bb9160048083019260209291908290030181865afa158015610d02573d5f803e3d5ffd5b505050506040513d601f19601f82011682018060405250810190610d269190611996565b82611342565b5050565b610d386110ea565b610d5757604051631564c0e160e11b81523360048201526024016108b5565b60058190556040518181527f333b26cca69716ad4680ddb07663f5bfb4f06045671f336af9a83690a3ae00f990602001610780565b5f9182526001602090815260408084206001600160a01b0393909316845291905290205460ff1690565b610dbe6110ea565b610ddd57604051631564c0e160e11b81523360048201526024016108b5565b60078190556040518181527fb6ac66853c4e59c71e118d25ab494bb847c4e5eb0c8894898c5343e6f61afc1290602001610780565b5f5460408051630ccc574960e41b815290516001600160a01b03909216916391d1485491839163ccc57490916004808201926020929091908290030181865afa158015610e61573d5f803e3d5ffd5b505050506040513d601f19601f82011682018060405250810190610e859190611996565b6040516001600160e01b031960e084901b1681526004810191909152336024820152604401602060405180830381865afa158015610ec5573d5f803e3d5ffd5b505050506040513d601f19601f82011682018060405250810190610ee99190611a00565b610f0857604051630ea7d7ed60e21b81523360048201526024016108b5565b610f11816114d2565b5f54604080516345b817bb60e01b81529051610d2c926001600160a01b0316916345b817bb9160048083019260209291908290030181865afa158015610f59573d5f803e3d5ffd5b505050506040513d601f19601f82011682018060405250810190610f7d9190611996565b82611614565b604051636344978560e11b81523360048201526024016108b5565b610fa66110ea565b610fc557604051631564c0e160e11b81523360048201526024016108b5565b610fce826113b4565b6004805460405163095ea7b360e01b81526001600160a01b03848116938201939093526024810185905291169063095ea7b3906044016020604051808303815f875af1158015611020573d5f803e3d5ffd5b505050506040513d601f19601f820116820180604052508101906110449190611a00565b506040516328ed6e3f60e01b8152600481018390526001600160a01b038216906328ed6e3f906024015f604051808303815f87803b158015611084575f80fd5b505af1158015611096573d5f803e3d5ffd5b5050600454604080516001600160a01b0392831681526020810187905291851693503092507f9f784fc02a186f1c98b2d9f15fda084da27cdd291a3785d978f91911d880516b910160405180910390a35050565b5f8054604080516345b817bb60e01b8152905161057b926001600160a01b0316916345b817bb9160048083019260209291908290030181865afa158015611133573d5f803e3d5ffd5b505050506040513d601f19601f820116820180604052508101906111579190611996565b33610d8c565b6040516001600160a01b0384811660248301528381166044830152606482018390526111c49186918216906323b872dd906084015b604051602081830303815290604052915060e01b6020820180516001600160e01b038381831617835250505050611683565b50505050565b6004805460405163095ea7b360e01b81526001600160a01b037f00000000000000000000000000000000000000000000000000000000000000008116938201939093526024810184905291169063095ea7b3906044016020604051808303815f875af115801561123c573d5f803e3d5ffd5b505050506040513d601f19601f820116820180604052508101906112609190611a00565b50604051636e553f6560e01b8152600481018290523060248201527f00000000000000000000000000000000000000000000000000000000000000006001600160a01b031690636e553f65906044015b6020604051808303815f875af11580156112cc573d5f803e3d5ffd5b505050506040513d601f19601f820116820180604052508101906112f09190611996565b50306001600160a01b031663181783586040518163ffffffff1660e01b81526004015f604051808303815f87803b158015611329575f80fd5b505af115801561133b573d5f803e3d5ffd5b5050505050565b5f61134d8383610d8c565b156113ad575f8381526001602090815260408083206001600160a01b0386168085529252808320805460ff1916905551339286917ff6391f5c32d9c69d2a47ea670b442974b53935d1edc7fd64eb21e047a839171b9190a45060016105b0565b505f6105b0565b604051632d182be560e21b815260048101829052306024820181905260448201527f00000000000000000000000000000000000000000000000000000000000000006001600160a01b03169063b460af94906064016112b0565b6040516001600160a01b0383811660248301526044820183905261098391859182169063a9059cbb90606401611192565b5f306001600160a01b03166301e1d1146040518163ffffffff1660e01b8152600401602060405180830381865afa15801561147c573d5f803e3d5ffd5b505050506040513d601f19601f820116820180604052508101906114a09190611996565b11156114bf576040516373a075f360e01b815260040160405180910390fd5b50600280546001600160a01b0319169055565b5f5460408051630ccc574960e41b815290516001600160a01b03909216916391d1485491839163ccc57490916004808201926020929091908290030181865afa158015611521573d5f803e3d5ffd5b505050506040513d601f19601f820116820180604052508101906115459190611996565b6040516001600160e01b031960e084901b1681526004810191909152336024820152604401602060405180830381865afa158015611585573d5f803e3d5ffd5b505050506040513d601f19601f820116820180604052508101906115a99190611a00565b6115c857604051630ea7d7ed60e21b81523360048201526024016108b5565b6002546001600160a01b0316156115f25760405163d32184ed60e01b815260040160405180910390fd5b600280546001600160a01b0319166001600160a01b0392909216919091179055565b5f61161f8383610d8c565b6113ad575f8381526001602081815260408084206001600160a01b0387168086529252808420805460ff19169093179092559051339286917f2f8788117e7eff1d82e926ec794901d17c78024a50270940304540a733656f0d9190a45060016105b0565b5f6116976001600160a01b038416836116e4565b905080515f141580156116bb5750808060200190518101906116b99190611a00565b155b1561098357604051635274afe760e01b81526001600160a01b03841660048201526024016108b5565b6060610af983835f845f80856001600160a01b031684866040516117089190611a1f565b5f6040518083038185875af1925050503d805f8114611742576040519150601f19603f3d011682016040523d82523d5f602084013e611747565b606091505b5091509150611757868383611761565b9695505050505050565b60608261177657611771826117bd565b610af9565b815115801561178d57506001600160a01b0384163b155b156117b657604051639996b31560e01b81526001600160a01b03851660048201526024016108b5565b5080610af9565b8051156117cd5780518082602001fd5b604051630a12f52160e11b815260040160405180910390fd5b5f602082840312156117f6575f80fd5b81356001600160e01b031981168114610af9575f80fd5b5f81518084528060208401602086015e5f602082860101526020601f19601f83011685010191505092915050565b602081525f610af9602083018461180d565b5f6020828403121561185d575f80fd5b5035919050565b6001600160a01b0381168114610af3575f80fd5b5f8060408385031215611889575f80fd5b82359150602083013561189b81611864565b809150509250929050565b5f805f604084860312156118b8575f80fd5b83356118c381611864565b9250602084013567ffffffffffffffff8111156118de575f80fd5b8401601f810186136118ee575f80fd5b803567ffffffffffffffff811115611904575f80fd5b866020828401011115611915575f80fd5b939660209190910195509293505050565b6001600160a01b038881168252878116602083015286166040820152606081018590526080810184905260a0810183905260e060c082018190525f9061196e9083018461180d565b9998505050505050505050565b5f6020828403121561198b575f80fd5b8135610af981611864565b5f602082840312156119a6575f80fd5b5051919050565b600181811c908216806119c157607f821691505b6020821081036119df57634e487b7160e01b5f52602260045260245ffd5b50919050565b5f602082840312156119f5575f80fd5b8151610af981611864565b5f60208284031215611a10575f80fd5b81518015158114610af9575f80fd5b5f82518060208501845e5f92019182525091905056fea26469706673582212205147f83df4804bdb3343d5bfda6b681ee3d6c1d11149c29df443ebb66261f82d64736f6c634300081a0033","linkReferences":{}},"methodIdentifiers":{"DEFAULT_ADMIN_ROLE()":"a217fddf","MAX_UINT256()":"33a581d2","RAY()":"552033c4","SECONDS_PER_DAY()":"74f0314f","SECONDS_PER_YEAR()":"e6a69ab8","WAD()":"6a146024","WAD_TO_RAY()":"163c8381","board(uint256)":"28ed6e3f","commander()":"37270936","config()":"79502c55","depositCap()":"dbd5edc7","disembark(uint256)":"4dd47eba","getRoleAdmin(bytes32)":"248a9ca3","grantCommanderRole(address)":"9403e41f","grantRole(bytes32,address)":"2f2ff15d","harvest(address,bytes)":"7399bfe8","hasRole(bytes32,address)":"91d14854","manager()":"481c6a75","maxRebalanceInflow()":"ad5a356f","maxRebalanceOutflow()":"3194549e","metaMorpho()":"b6042b34","move(uint256,address)":"d8a8e03a","name()":"06fdde03","poke()":"18178358","raft()":"117d8ae0","rate()":"2c4e722e","renounceRole(bytes32,address)":"36568abe","revokeCommanderRole(address)":"81d3ce26","revokeRole(bytes32,address)":"d547741f","setDepositCap(uint256)":"86651203","setMaxRebalanceInflow(uint256)":"92f5e832","setMaxRebalanceOutflow(uint256)":"61f5cd8b","supportsInterface(bytes4)":"01ffc9a7","token()":"fc0c546a","totalAssets()":"01e1d114"},"id":149}