{"abi":[{"type":"constructor","inputs":[{"name":"_metaMorpho","type":"address","internalType":"address"},{"name":"_params","type":"tuple","internalType":"struct ArkParams","components":[{"name":"name","type":"string","internalType":"string"},{"name":"details","type":"string","internalType":"string"},{"name":"accessManager","type":"address","internalType":"address"},{"name":"configurationManager","type":"address","internalType":"address"},{"name":"asset","type":"address","internalType":"address"},{"name":"depositCap","type":"uint256","internalType":"uint256"},{"name":"maxRebalanceOutflow","type":"uint256","internalType":"uint256"},{"name":"maxRebalanceInflow","type":"uint256","internalType":"uint256"},{"name":"requiresKeeperData","type":"bool","internalType":"bool"},{"name":"maxDepositPercentageOfTVL","type":"uint256","internalType":"Percentage"}]}],"stateMutability":"nonpayable"},{"type":"function","name":"asset","inputs":[],"outputs":[{"name":"","type":"address","internalType":"contract IERC20"}],"stateMutability":"view"},{"type":"function","name":"board","inputs":[{"name":"amount","type":"uint256","internalType":"uint256"},{"name":"boardData","type":"bytes","internalType":"bytes"}],"outputs":[],"stateMutability":"nonpayable"},{"type":"function","name":"commander","inputs":[],"outputs":[{"name":"","type":"address","internalType":"address"}],"stateMutability":"view"},{"type":"function","name":"config","inputs":[],"outputs":[{"name":"commander","type":"address","internalType":"address"},{"name":"raft","type":"address","internalType":"address"},{"name":"asset","type":"address","internalType":"contract IERC20"},{"name":"depositCap","type":"uint256","internalType":"uint256"},{"name":"maxRebalanceOutflow","type":"uint256","internalType":"uint256"},{"name":"maxRebalanceInflow","type":"uint256","internalType":"uint256"},{"name":"name","type":"string","internalType":"string"},{"name":"details","type":"string","internalType":"string"},{"name":"requiresKeeperData","type":"bool","internalType":"bool"},{"name":"maxDepositPercentageOfTVL","type":"uint256","internalType":"Percentage"}],"stateMutability":"view"},{"type":"function","name":"configurationManager","inputs":[],"outputs":[{"name":"","type":"address","internalType":"contract IConfigurationManager"}],"stateMutability":"view"},{"type":"function","name":"depositCap","inputs":[],"outputs":[{"name":"","type":"uint256","internalType":"uint256"}],"stateMutability":"view"},{"type":"function","name":"disembark","inputs":[{"name":"amount","type":"uint256","internalType":"uint256"},{"name":"disembarkData","type":"bytes","internalType":"bytes"}],"outputs":[],"stateMutability":"nonpayable"},{"type":"function","name":"fleetCommanderRewardsManagerFactory","inputs":[],"outputs":[{"name":"","type":"address","internalType":"address"}],"stateMutability":"view"},{"type":"function","name":"generateRole","inputs":[{"name":"roleName","type":"uint8","internalType":"enum ContractSpecificRoles"},{"name":"roleTargetContract","type":"address","internalType":"address"}],"outputs":[{"name":"","type":"bytes32","internalType":"bytes32"}],"stateMutability":"pure"},{"type":"function","name":"getConfig","inputs":[],"outputs":[{"name":"","type":"tuple","internalType":"struct ArkConfig","components":[{"name":"commander","type":"address","internalType":"address"},{"name":"raft","type":"address","internalType":"address"},{"name":"asset","type":"address","internalType":"contract IERC20"},{"name":"depositCap","type":"uint256","internalType":"uint256"},{"name":"maxRebalanceOutflow","type":"uint256","internalType":"uint256"},{"name":"maxRebalanceInflow","type":"uint256","internalType":"uint256"},{"name":"name","type":"string","internalType":"string"},{"name":"details","type":"string","internalType":"string"},{"name":"requiresKeeperData","type":"bool","internalType":"bool"},{"name":"maxDepositPercentageOfTVL","type":"uint256","internalType":"Percentage"}]}],"stateMutability":"view"},{"type":"function","name":"harborCommand","inputs":[],"outputs":[{"name":"","type":"address","internalType":"address"}],"stateMutability":"view"},{"type":"function","name":"harvest","inputs":[{"name":"additionalData","type":"bytes","internalType":"bytes"}],"outputs":[{"name":"rewardTokens","type":"address[]","internalType":"address[]"},{"name":"rewardAmounts","type":"uint256[]","internalType":"uint256[]"}],"stateMutability":"nonpayable"},{"type":"function","name":"hasAdmiralsQuartersRole","inputs":[{"name":"account","type":"address","internalType":"address"}],"outputs":[{"name":"","type":"bool","internalType":"bool"}],"stateMutability":"view"},{"type":"function","name":"maxDepositPercentageOfTVL","inputs":[],"outputs":[{"name":"","type":"uint256","internalType":"Percentage"}],"stateMutability":"view"},{"type":"function","name":"maxRebalanceInflow","inputs":[],"outputs":[{"name":"","type":"uint256","internalType":"uint256"}],"stateMutability":"view"},{"type":"function","name":"maxRebalanceOutflow","inputs":[],"outputs":[{"name":"","type":"uint256","internalType":"uint256"}],"stateMutability":"view"},{"type":"function","name":"metaMorpho","inputs":[],"outputs":[{"name":"","type":"address","internalType":"contract IMetaMorpho"}],"stateMutability":"view"},{"type":"function","name":"move","inputs":[{"name":"amount","type":"uint256","internalType":"uint256"},{"name":"receiverArk","type":"address","internalType":"address"},{"name":"boardData","type":"bytes","internalType":"bytes"},{"name":"disembarkData","type":"bytes","internalType":"bytes"}],"outputs":[],"stateMutability":"nonpayable"},{"type":"function","name":"name","inputs":[],"outputs":[{"name":"","type":"string","internalType":"string"}],"stateMutability":"view"},{"type":"function","name":"raft","inputs":[],"outputs":[{"name":"","type":"address","internalType":"address"}],"stateMutability":"view"},{"type":"function","name":"registerFleetCommander","inputs":[],"outputs":[],"stateMutability":"nonpayable"},{"type":"function","name":"requiresKeeperData","inputs":[],"outputs":[{"name":"","type":"bool","internalType":"bool"}],"stateMutability":"view"},{"type":"function","name":"setDepositCap","inputs":[{"name":"newDepositCap","type":"uint256","internalType":"uint256"}],"outputs":[],"stateMutability":"nonpayable"},{"type":"function","name":"setMaxDepositPercentageOfTVL","inputs":[{"name":"newMaxDepositPercentageOfTVL","type":"uint256","internalType":"Percentage"}],"outputs":[],"stateMutability":"nonpayable"},{"type":"function","name":"setMaxRebalanceInflow","inputs":[{"name":"newMaxRebalanceInflow","type":"uint256","internalType":"uint256"}],"outputs":[],"stateMutability":"nonpayable"},{"type":"function","name":"setMaxRebalanceOutflow","inputs":[{"name":"newMaxRebalanceOutflow","type":"uint256","internalType":"uint256"}],"outputs":[],"stateMutability":"nonpayable"},{"type":"function","name":"sweep","inputs":[{"name":"tokens","type":"address[]","internalType":"address[]"}],"outputs":[{"name":"sweptTokens","type":"address[]","internalType":"address[]"},{"name":"sweptAmounts","type":"uint256[]","internalType":"uint256[]"}],"stateMutability":"nonpayable"},{"type":"function","name":"tipJar","inputs":[],"outputs":[{"name":"","type":"address","internalType":"address"}],"stateMutability":"view"},{"type":"function","name":"totalAssets","inputs":[],"outputs":[{"name":"assets","type":"uint256","internalType":"uint256"}],"stateMutability":"view"},{"type":"function","name":"treasury","inputs":[],"outputs":[{"name":"","type":"address","internalType":"address"}],"stateMutability":"view"},{"type":"function","name":"unregisterFleetCommander","inputs":[],"outputs":[],"stateMutability":"nonpayable"},{"type":"event","name":"ArkHarvested","inputs":[{"name":"rewardTokens","type":"address[]","indexed":true,"internalType":"address[]"},{"name":"rewardAmounts","type":"uint256[]","indexed":true,"internalType":"uint256[]"}],"anonymous":false},{"type":"event","name":"ArkPoked","inputs":[{"name":"currentPrice","type":"uint256","indexed":false,"internalType":"uint256"},{"name":"timestamp","type":"uint256","indexed":false,"internalType":"uint256"}],"anonymous":false},{"type":"event","name":"ArkSwept","inputs":[{"name":"sweptTokens","type":"address[]","indexed":true,"internalType":"address[]"},{"name":"sweptAmounts","type":"uint256[]","indexed":true,"internalType":"uint256[]"}],"anonymous":false},{"type":"event","name":"Boarded","inputs":[{"name":"commander","type":"address","indexed":true,"internalType":"address"},{"name":"token","type":"address","indexed":false,"internalType":"address"},{"name":"amount","type":"uint256","indexed":false,"internalType":"uint256"}],"anonymous":false},{"type":"event","name":"DepositCapUpdated","inputs":[{"name":"newCap","type":"uint256","indexed":false,"internalType":"uint256"}],"anonymous":false},{"type":"event","name":"Disembarked","inputs":[{"name":"commander","type":"address","indexed":true,"internalType":"address"},{"name":"token","type":"address","indexed":false,"internalType":"address"},{"name":"amount","type":"uint256","indexed":false,"internalType":"uint256"}],"anonymous":false},{"type":"event","name":"FleetCommanderRegistered","inputs":[{"name":"commander","type":"address","indexed":false,"internalType":"address"}],"anonymous":false},{"type":"event","name":"FleetCommanderUnregistered","inputs":[{"name":"commander","type":"address","indexed":false,"internalType":"address"}],"anonymous":false},{"type":"event","name":"MaxDepositPercentageOfTVLUpdated","inputs":[{"name":"newMaxDepositPercentageOfTVL","type":"uint256","indexed":false,"internalType":"Percentage"}],"anonymous":false},{"type":"event","name":"MaxRebalanceInflowUpdated","inputs":[{"name":"newMaxInflow","type":"uint256","indexed":false,"internalType":"uint256"}],"anonymous":false},{"type":"event","name":"MaxRebalanceOutflowUpdated","inputs":[{"name":"newMaxOutflow","type":"uint256","indexed":false,"internalType":"uint256"}],"anonymous":false},{"type":"event","name":"Moved","inputs":[{"name":"from","type":"address","indexed":true,"internalType":"address"},{"name":"to","type":"address","indexed":true,"internalType":"address"},{"name":"token","type":"address","indexed":false,"internalType":"address"},{"name":"amount","type":"uint256","indexed":false,"internalType":"uint256"}],"anonymous":false},{"type":"event","name":"RaftUpdated","inputs":[{"name":"newRaft","type":"address","indexed":false,"internalType":"address"}],"anonymous":false},{"type":"error","name":"CallerIsNotAdmin","inputs":[{"name":"caller","type":"address","internalType":"address"}]},{"type":"error","name":"CallerIsNotAuthorizedToBoard","inputs":[{"name":"caller","type":"address","internalType":"address"}]},{"type":"error","name":"CallerIsNotCommander","inputs":[{"name":"caller","type":"address","internalType":"address"}]},{"type":"error","name":"CallerIsNotContractSpecificRole","inputs":[{"name":"caller","type":"address","internalType":"address"},{"name":"role","type":"bytes32","internalType":"bytes32"}]},{"type":"error","name":"CallerIsNotCurator","inputs":[{"name":"caller","type":"address","internalType":"address"}]},{"type":"error","name":"CallerIsNotDecayController","inputs":[{"name":"caller","type":"address","internalType":"address"}]},{"type":"error","name":"CallerIsNotGovernor","inputs":[{"name":"caller","type":"address","internalType":"address"}]},{"type":"error","name":"CallerIsNotGuardian","inputs":[{"name":"caller","type":"address","internalType":"address"}]},{"type":"error","name":"CallerIsNotGuardianOrGovernor","inputs":[{"name":"caller","type":"address","internalType":"address"}]},{"type":"error","name":"CallerIsNotKeeper","inputs":[{"name":"caller","type":"address","internalType":"address"}]},{"type":"error","name":"CallerIsNotRaft","inputs":[{"name":"caller","type":"address","internalType":"address"}]},{"type":"error","name":"CallerIsNotRaftOrCommander","inputs":[{"name":"caller","type":"address","internalType":"address"}]},{"type":"error","name":"CallerIsNotSuperKeeper","inputs":[{"name":"caller","type":"address","internalType":"address"}]},{"type":"error","name":"CannotAddCommanderToArkWithCommander","inputs":[]},{"type":"error","name":"CannotDeployArkWithEmptyName","inputs":[]},{"type":"error","name":"CannotDeployArkWithoutConfigurationManager","inputs":[]},{"type":"error","name":"CannotDeployArkWithoutRaft","inputs":[]},{"type":"error","name":"CannotDeployArkWithoutToken","inputs":[]},{"type":"error","name":"CannotRemoveCommanderFromArkWithAssets","inputs":[]},{"type":"error","name":"CannotUseKeeperDataWhenNotRequired","inputs":[]},{"type":"error","name":"ConfigurationManagerZeroAddress","inputs":[]},{"type":"error","name":"DirectGrantIsDisabled","inputs":[{"name":"caller","type":"address","internalType":"address"}]},{"type":"error","name":"DirectRevokeIsDisabled","inputs":[{"name":"caller","type":"address","internalType":"address"}]},{"type":"error","name":"ERC4626AssetMismatch","inputs":[]},{"type":"error","name":"InvalidAccessManagerAddress","inputs":[{"name":"invalidAddress","type":"address","internalType":"address"}]},{"type":"error","name":"InvalidBoardData","inputs":[]},{"type":"error","name":"InvalidDisembarkData","inputs":[]},{"type":"error","name":"InvalidVaultAddress","inputs":[]},{"type":"error","name":"KeeperDataRequired","inputs":[]},{"type":"error","name":"ReentrancyGuardReentrantCall","inputs":[]},{"type":"error","name":"SafeERC20FailedOperation","inputs":[{"name":"token","type":"address","internalType":"address"}]}],"bytecode":{"object":"0x60c060405234801561000f575f5ffd5b506040516131c73803806131c783398101604081905261002e916104ad565b6060810151604082015182918291806001600160a01b03811661006b576040516347bd7c1d60e01b81525f60048201526024015b60405180910390fd5b6040516301ffc9a760e01b81526338c7ccdb60e01b60048201526001600160a01b038216906301ffc9a790602401602060405180830381865afa1580156100b4573d5f5f3e3d5ffd5b505050506040513d601f19601f820116820180604052508101906100d891906105c7565b610100576040516347bd7c1d60e01b81526001600160a01b0382166004820152602401610062565b5f80546001600160a01b0319166001600160a01b039283161790558216905061013c5760405163f1634df960e01b815260040160405180910390fd5b6001600160a01b0390811660805260608201511661016d5760405163b53c493160e01b815260040160405180910390fd5b60808101516001600160a01b031661019b576040516001620a810f60e11b0319815260040160405180910390fd5b8051515f036101bd5760405163268c072960e01b815260040160405180910390fd5b5f6101c6610355565b6001600160a01b0316036101ed57604051633a4f9cdb60e21b815260040160405180910390fd5b6040805161014081019091525f815260208101610208610355565b6001600160a01b039081168252608080850151821660208085019190915260a08087015160408087019190915260c08089015160608089019190915260e0808b0151878a01528a51858a01528a860151838a0152610100808c01511515918a01919091526101208b01519801979097528751600180549188166001600160a01b031992831617815594890151600280549189169183169190911790559188015160038054919097169216919091179094559385015160045590840151600555918301516006558201516007906102de908261066b565b5060e082015160078201906102f3908261066b565b5061010082015160088201805460ff19169115159190911790556101209091015160099091015550506001600160a01b03821661034357604051630306120160e01b815260040160405180910390fd5b506001600160a01b031660a05261073e565b5f6080516001600160a01b031663117d8ae06040518163ffffffff1660e01b8152600401602060405180830381865afa158015610394573d5f5f3e3d5ffd5b505050506040513d601f19601f820116820180604052508101906103b89190610725565b905090565b80516001600160a01b03811681146103d3575f5ffd5b919050565b634e487b7160e01b5f52604160045260245ffd5b60405161014081016001600160401b038111828210171561040f5761040f6103d8565b60405290565b5f82601f830112610424575f5ffd5b81516001600160401b0381111561043d5761043d6103d8565b604051601f8201601f19908116603f011681016001600160401b038111828210171561046b5761046b6103d8565b604052818152838201602001851015610482575f5ffd5b8160208501602083015e5f918101602001919091529392505050565b805180151581146103d3575f5ffd5b5f5f604083850312156104be575f5ffd5b6104c7836103bd565b60208401519092506001600160401b038111156104e2575f5ffd5b830161014081860312156104f4575f5ffd5b6104fc6103ec565b81516001600160401b03811115610511575f5ffd5b61051d87828501610415565b82525060208201516001600160401b03811115610538575f5ffd5b61054487828501610415565b602083015250610556604083016103bd565b6040820152610567606083016103bd565b6060820152610578608083016103bd565b608082015260a0828101519082015260c0808301519082015260e080830151908201526105a8610100830161049e565b6101008201526101209182015191810191909152919491935090915050565b5f602082840312156105d7575f5ffd5b6105e08261049e565b9392505050565b600181811c908216806105fb57607f821691505b60208210810361061957634e487b7160e01b5f52602260045260245ffd5b50919050565b601f82111561066657805f5260205f20601f840160051c810160208510156106445750805b601f840160051c820191505b81811015610663575f8155600101610650565b50505b505050565b81516001600160401b03811115610684576106846103d8565b6106988161069284546105e7565b8461061f565b6020601f8211600181146106ca575f83156106b35750848201515b5f19600385901b1c1916600184901b178455610663565b5f84815260208120601f198516915b828110156106f957878501518255602094850194600190920191016106d9565b508482101561071657868401515f19600387901b60f8161c191681555b50505050600190811b01905550565b5f60208284031215610735575f5ffd5b6105e0826103bd565b60805160a051612a2961079e5f395f81816103640152818161043201528181611a0b01528181611b600152611bf701525f81816103bb015281816105a301528181610951015281816109ae0152818161116f01526118340152612a295ff3fe608060405234801561000f575f5ffd5b50600436106101dc575f3560e01c806379502c5511610109578063c38a6f0b1161009e578063dbd5edc71161006e578063dbd5edc7146103f0578063ebc136d0146103f8578063ebf311311461040b578063f7e533ec14610413575f5ffd5b8063c38a6f0b1461038e578063c3f909d4146103a1578063c9c667e3146103b6578063ce5c7f61146103dd575f5ffd5b806392f5e832116100d957806392f5e83214610344578063ad5a356f14610357578063b6042b341461035f578063bdcdd88214610386575f5ffd5b806379502c55146103035780637aaceb951461032157806386651203146103295780638a8b99761461033c575f5ffd5b8063372709361161017f57806361d027b31161014f57806361d027b3146102b457806361f5cd8b146102bc57806369b3054b146102cf578063780469bb146102e2575f5ffd5b8063372709361461027757806338d52e0f146102885780634fc7fac3146102995780635b0f83f3146102ac575f5ffd5b806313c408f8116101ba57806313c408f8146102305780632db6d39914610245578063303dbaf3146102585780633194549e1461026f575f5ffd5b806301e1d114146101e057806306fdde03146101fb578063117d8ae014610210575b5f5ffd5b6101e861041b565b6040519081526020015b60405180910390f35b61020361050d565b6040516101f2919061206a565b6102186105a0565b6040516001600160a01b0390911681526020016101f2565b61024361023e3660046120c0565b610621565b005b6102436102533660046120c0565b6106ea565b60095460ff165b60405190151581526020016101f2565b6005546101e8565b6001546001600160a01b0316610218565b6003546001600160a01b0316610218565b6102436102a7366004612107565b610900565b61021861094e565b6102186109ab565b6102436102ca366004612107565b610a08565b6101e86102dd366004612135565b610a4f565b6102f56102f0366004612270565b610a81565b6040516101f29291906122a9565b61030b611015565b6040516101f29a99989796959493929190612332565b61021861116c565b610243610337366004612107565b6111c9565b610243611210565b610243610352366004612107565b61126d565b6006546101e8565b6102187f000000000000000000000000000000000000000000000000000000000000000081565b600a546101e8565b61024361039c3660046123a9565b6112b4565b6103a9611405565b6040516101f29190612432565b6102187f000000000000000000000000000000000000000000000000000000000000000081565b6102f56103eb366004612503565b6115fe565b6004546101e8565b61025f610406366004612541565b6116f8565b6102436117df565b610218611831565b6040516370a0823160e01b81523060048201525f907f00000000000000000000000000000000000000000000000000000000000000006001600160a01b0316906307a2d13a9082906370a0823190602401602060405180830381865afa158015610487573d5f5f3e3d5ffd5b505050506040513d601f19601f820116820180604052508101906104ab919061255c565b6040518263ffffffff1660e01b81526004016104c991815260200190565b602060405180830381865afa1580156104e4573d5f5f3e3d5ffd5b505050506040513d601f19601f82011682018060405250810190610508919061255c565b905090565b60606001600601805461051f90612573565b80601f016020809104026020016040519081016040528092919081815260200182805461054b90612573565b80156105965780601f1061056d57610100808354040283529160200191610596565b820191905f5260205f20905b81548152906001019060200180831161057957829003601f168201915b5050505050905090565b5f7f00000000000000000000000000000000000000000000000000000000000000006001600160a01b031663117d8ae06040518163ffffffff1660e01b8152600401602060405180830381865afa1580156105fd573d5f5f3e3d5ffd5b505050506040513d601f19601f8201168201806040525081019061050891906125ab565b61062961188e565b61065957335b604051631564c0e160e11b81526001600160a01b0390911660048201526024015b60405180910390fd5b610661611917565b818161066d8282611986565b336106798686866119e8565b600354610690906001600160a01b03168288611a84565b600354604080516001600160a01b03928316815260208101899052918316917fd5e872c5ecfb1bb8820b2e6a20e31b883682282da886621541f71e31ec11947e910160405180910390a25050506106e5611ae3565b505050565b6106f2611917565b306001600160a01b031663372709366040518163ffffffff1660e01b8152600401602060405180830381865afa15801561072e573d5f5f3e3d5ffd5b505050506040513d601f19601f8201168201806040525081019061075291906125ab565b61075a61188e565b610879575f3390505f306001600160a01b031663117d8ae06040518163ffffffff1660e01b8152600401602060405180830381865afa15801561079f573d5f5f3e3d5ffd5b505050506040513d601f19601f820116820180604052508101906107c391906125ab565b6001600160a01b0316826001600160a01b0316149050806108765760405163d25dd10160e01b81526001600160a01b0383811660048301525f919085169063d25dd10190602401602060405180830381865afa158015610825573d5f5f3e3d5ffd5b505050506040513d601f19601f8201168201806040525081019061084991906125c6565b90508061087457604051638f7a567d60e01b81526001600160a01b0384166004820152602401610650565b505b50505b82826108858282611986565b600354339061089f906001600160a01b031682308a611b0d565b6108aa878787611b46565b600354604080516001600160a01b039283168152602081018a9052918316917fcbaa1442ac205415c9d69643e7b60ec73d1de35dbc807c21ec288c70ddc4207b910160405180910390a2505050506106e5611ae3565b61090861188e565b610912573361062f565b600a8190556040518181527fd3c6d0ab315f2f1352f036cd9f401b49e38e1b90907e195225e8105f9a0b6f02906020015b60405180910390a150565b5f7f00000000000000000000000000000000000000000000000000000000000000006001600160a01b0316635b0f83f36040518163ffffffff1660e01b8152600401602060405180830381865afa1580156105fd573d5f5f3e3d5ffd5b5f7f00000000000000000000000000000000000000000000000000000000000000006001600160a01b03166361d027b36040518163ffffffff1660e01b8152600401602060405180830381865afa1580156105fd573d5f5f3e3d5ffd5b610a1061188e565b610a1a573361062f565b60058190556040518181527ffbe2d5c01ea8ba5596d6c4e6c82c6d4a0a0ee1128689993a4a5ba0169273d69f90602001610943565b5f8282604051602001610a639291906125e5565b60405160208183030381529060405280519060200120905092915050565b606080306001600160a01b031663117d8ae06040518163ffffffff1660e01b8152600401602060405180830381865afa158015610ac0573d5f5f3e3d5ffd5b505050506040513d601f19601f82011682018060405250810190610ae491906125ab565b6001600160a01b0316336001600160a01b031614610b2357335b604051631184b31b60e21b81526001600160a01b039091166004820152602401610650565b610b2b611917565b82516001600160401b03811115610b4457610b4461216f565b604051908082528060200260200182016040528015610b6d578160200160208202803683370190505b50915082516001600160401b03811115610b8957610b8961216f565b604051908082528060200260200182016040528015610bb2578160200160208202803683370190505b506003546040516370a0823160e01b81523060048201529192505f916001600160a01b03909116906370a0823190602401602060405180830381865afa158015610bfe573d5f5f3e3d5ffd5b505050506040513d601f19601f82011682018060405250810190610c22919061255c565b1115610de657600154604080516330fe427560e21b815290515f926001600160a01b03169163c3f909d49160048083019260a09291908290030181865afa158015610c6f573d5f5f3e3d5ffd5b505050506040513d601f19601f82011682018060405250810190610c939190612628565b516003546040516370a0823160e01b8152306004820152919250610d189183916001600160a01b0316906370a0823190602401602060405180830381865afa158015610ce1573d5f5f3e3d5ffd5b505050506040513d601f19601f82011682018060405250810190610d05919061255c565b6003546001600160a01b03169190611c2e565b6003546040516370a0823160e01b81523060048201526001600160a01b0383811692632db6d399929116906370a0823190602401602060405180830381865afa158015610d67573d5f5f3e3d5ffd5b505050506040513d601f19601f82011682018060405250810190610d8b919061255c565b60405180602001604052805f8152506040518363ffffffff1660e01b8152600401610db79291906126a4565b5f604051808303815f87803b158015610dce575f5ffd5b505af1158015610de0573d5f5f3e3d5ffd5b50505050505b5f5b8351811015610fb4575f848281518110610e0457610e046126bc565b60209081029190910101516040516370a0823160e01b81523060048201526001600160a01b03909116906370a0823190602401602060405180830381865afa158015610e52573d5f5f3e3d5ffd5b505050506040513d601f19601f82011682018060405250810190610e76919061255c565b90508015610fab57610f3f610e896105a0565b868481518110610e9b57610e9b6126bc565b60209081029190910101516040516370a0823160e01b81523060048201526001600160a01b03909116906370a0823190602401602060405180830381865afa158015610ee9573d5f5f3e3d5ffd5b505050506040513d601f19601f82011682018060405250810190610f0d919061255c565b878581518110610f1f57610f1f6126bc565b60200260200101516001600160a01b0316611a849092919063ffffffff16565b848281518110610f5157610f516126bc565b6020026020010151848381518110610f6b57610f6b6126bc565b60200260200101906001600160a01b031690816001600160a01b03168152505080838381518110610f9e57610f9e6126bc565b6020026020010181815250505b50600101610de8565b5080604051610fc391906126d0565b604051809103902082604051610fd99190612705565b604051908190038120907f46b8771620f6acf56cb03d3e835ea8024c7dcbcf05fcc3f6ade9e19d1a3e212b905f90a3611010611ae3565b915091565b60018054600254600354600454600554600654600780546001600160a01b0397881698968816979095169593949293919261104f90612573565b80601f016020809104026020016040519081016040528092919081815260200182805461107b90612573565b80156110c65780601f1061109d576101008083540402835291602001916110c6565b820191905f5260205f20905b8154815290600101906020018083116110a957829003601f168201915b5050505050908060070180546110db90612573565b80601f016020809104026020016040519081016040528092919081815260200182805461110790612573565b80156111525780601f1061112957610100808354040283529160200191611152565b820191905f5260205f20905b81548152906001019060200180831161113557829003601f168201915b505050506008830154600990930154919260ff169190508a565b5f7f00000000000000000000000000000000000000000000000000000000000000006001600160a01b0316637aaceb956040518163ffffffff1660e01b8152600401602060405180830381865afa1580156105fd573d5f5f3e3d5ffd5b6111d161188e565b6111db573361062f565b60048190556040518181527f333b26cca69716ad4680ddb07663f5bfb4f06045671f336af9a83690a3ae00f990602001610943565b61121861188e565b611222573361062f565b600180546001600160a01b031916339081179091556040519081527f55489ce0259bd691120d8860861be1c401c7c16a3cd268d21045756af4ecc5ca906020015b60405180910390a1565b61127561188e565b61127f573361062f565b60068190556040518181527fb6ac66853c4e59c71e118d25ab494bb847c4e5eb0c8894898c5343e6f61afc1290602001610943565b6112bc61188e565b6112c6573361062f565b81816112d28282611986565b6112dd8885856119e8565b60035460405163095ea7b360e01b81526001600160a01b038981166004830152602482018b90529091169063095ea7b3906044016020604051808303815f875af115801561132d573d5f5f3e3d5ffd5b505050506040513d601f19601f8201168201806040525081019061135191906125c6565b50604051632db6d39960e01b81526001600160a01b03881690632db6d39990611382908b908a908a90600401612738565b5f604051808303815f87803b158015611399575f5ffd5b505af11580156113ab573d5f5f3e3d5ffd5b5050600354604080516001600160a01b039283168152602081018d9052918b1693503092507f9f784fc02a186f1c98b2d9f15fda084da27cdd291a3785d978f91911d880516b910160405180910390a35050505050505050565b6114706040518061014001604052805f6001600160a01b031681526020015f6001600160a01b031681526020015f6001600160a01b031681526020015f81526020015f81526020015f815260200160608152602001606081526020015f151581526020015f81525090565b6040805161014081018252600180546001600160a01b0390811683526002548116602084015260035416928201929092526004546060820152600554608082015260065460a08201526007805491929160c0840191906114cf90612573565b80601f01602080910402602001604051908101604052809291908181526020018280546114fb90612573565b80156115465780601f1061151d57610100808354040283529160200191611546565b820191905f5260205f20905b81548152906001019060200180831161152957829003601f168201915b5050505050815260200160078201805461155f90612573565b80601f016020809104026020016040519081016040528092919081815260200182805461158b90612573565b80156115d65780601f106115ad576101008083540402835291602001916115d6565b820191905f5260205f20905b8154815290600101906020018083116115b957829003601f168201915b5050509183525050600882015460ff1615156020820152600990910154604090910152919050565b606080306001600160a01b031663117d8ae06040518163ffffffff1660e01b8152600401602060405180830381865afa15801561163d573d5f5f3e3d5ffd5b505050506040513d601f19601f8201168201806040525081019061166191906125ab565b6001600160a01b0316336001600160a01b03161461167f5733610afe565b611687611917565b6116918484611cbd565b60405191935091506116a49082906126d0565b6040518091039020826040516116ba9190612705565b604051908190038120907f3e3e7958121b3e39c7a49392d1aa9cdce870c2a059744f9e15cf66fff7865455905f90a36116f1611ae3565b9250929050565b5f80546040805163a89f38a360e01b815290516001600160a01b03909216916391d1485491839163a89f38a3916004808201926020929091908290030181865afa158015611748573d5f5f3e3d5ffd5b505050506040513d601f19601f8201168201806040525081019061176c919061255c565b6040516001600160e01b031960e084901b16815260048101919091526001600160a01b0385166024820152604401602060405180830381865afa1580156117b5573d5f5f3e3d5ffd5b505050506040513d601f19601f820116820180604052508101906117d991906125c6565b92915050565b6117e761188e565b6117f1573361062f565b600180546001600160a01b03191690556040513381527f7cb941d7b1708e5b3bcd35ca960d6c6311188cec18886e5b67630552676b048790602001611263565b5f7f00000000000000000000000000000000000000000000000000000000000000006001600160a01b031663f7e533ec6040518163ffffffff1660e01b8152600401602060405180830381865afa1580156105fd573d5f5f3e3d5ffd5b5f80546001600160a01b03166391d148546118aa600230610a4f565b336040516001600160e01b031960e085901b16815260048101929092526001600160a01b03166024820152604401602060405180830381865afa1580156118f3573d5f5f3e3d5ffd5b505050506040513d601f19601f8201168201806040525081019061050891906125c6565b7f9b779b17422d0df92223018b32b4d1fa46e071723d6817e2486d003becc55f005c1561195757604051633ee5aeb560e01b815260040160405180910390fd5b61198460017f9b779b17422d0df92223018b32b4d1fa46e071723d6817e2486d003becc55f005b90611f80565b565b8015801590611998575060095460ff16155b156119b657604051630cd0fdf960e01b815260040160405180910390fd5b801580156119c6575060095460ff165b156119e45760405163332863a960e11b815260040160405180910390fd5b5050565b604051632d182be560e21b815260048101849052306024820181905260448201527f00000000000000000000000000000000000000000000000000000000000000006001600160a01b03169063b460af94906064015b6020604051808303815f875af1158015611a5a573d5f5f3e3d5ffd5b505050506040513d601f19601f82011682018060405250810190611a7e919061255c565b50505050565b6040516001600160a01b038381166024830152604482018390526106e591859182169063a9059cbb906064015b604051602081830303815290604052915060e01b6020820180516001600160e01b038381831617835250505050611f87565b6119845f7f9b779b17422d0df92223018b32b4d1fa46e071723d6817e2486d003becc55f0061197e565b6040516001600160a01b038481166024830152838116604483015260648201839052611a7e9186918216906323b872dd90608401611ab1565b60035460405163095ea7b360e01b81526001600160a01b037f000000000000000000000000000000000000000000000000000000000000000081166004830152602482018690529091169063095ea7b3906044016020604051808303815f875af1158015611bb6573d5f5f3e3d5ffd5b505050506040513d601f19601f82011682018060405250810190611bda91906125c6565b50604051636e553f6560e01b8152600481018490523060248201527f00000000000000000000000000000000000000000000000000000000000000006001600160a01b031690636e553f6590604401611a3e565b604080516001600160a01b038416602482015260448082018490528251808303909101815260649091019091526020810180516001600160e01b031663095ea7b360e01b179052611c7f8482611ff3565b611a7e576040516001600160a01b0384811660248301525f6044830152611cb391869182169063095ea7b390606401611ab1565b611a7e8482611f87565b6060805f611ccd848601866128a3565b90508060200151516001600160401b03811115611cec57611cec61216f565b604051908082528060200260200182016040528015611d15578160200160208202803683370190505b5092508060200151516001600160401b03811115611d3557611d3561216f565b604051908082528060200260200182016040528015611d5e578160200160208202803683370190505b5091505f5b816020015151811015611f24578151805182908110611d8457611d846126bc565b60200260200101516001600160a01b031663fabed4123084602001518481518110611db157611db16126bc565b602002602001015185604001518581518110611dcf57611dcf6126bc565b602002602001015186606001518681518110611ded57611ded6126bc565b60200260200101516040518563ffffffff1660e01b8152600401611e14949392919061298b565b6020604051808303815f875af1158015611e30573d5f5f3e3d5ffd5b505050506040513d601f19601f82011682018060405250810190611e54919061255c565b5081602001518181518110611e6b57611e6b6126bc565b6020026020010151848281518110611e8557611e856126bc565b60200260200101906001600160a01b031690816001600160a01b03168152505081604001518181518110611ebb57611ebb6126bc565b6020026020010151838281518110611ed557611ed56126bc565b602002602001018181525050611f1c611eec6105a0565b848381518110611efe57611efe6126bc565b602002602001015184602001518481518110610f1f57610f1f6126bc565b600101611d63565b5081604051611f3391906126d0565b604051809103902083604051611f499190612705565b604051908190038120907f3e3e7958121b3e39c7a49392d1aa9cdce870c2a059744f9e15cf66fff7865455905f90a3509250929050565b80825d5050565b5f5f60205f8451602086015f885af180611fa6576040513d5f823e3d81fd5b50505f513d91508115611fbd578060011415611fca565b6001600160a01b0384163b155b15611a7e57604051635274afe760e01b81526001600160a01b0385166004820152602401610650565b5f5f5f5f60205f8651602088015f8a5af192503d91505f519050828015612032575081156120245780600114612032565b5f866001600160a01b03163b115b9695505050505050565b5f81518084528060208401602086015e5f602082860101526020601f19601f83011685010191505092915050565b602081525f61207c602083018461203c565b9392505050565b5f5f83601f840112612093575f5ffd5b5081356001600160401b038111156120a9575f5ffd5b6020830191508360208285010111156116f1575f5ffd5b5f5f5f604084860312156120d2575f5ffd5b8335925060208401356001600160401b038111156120ee575f5ffd5b6120fa86828701612083565b9497909650939450505050565b5f60208284031215612117575f5ffd5b5035919050565b6001600160a01b0381168114612132575f5ffd5b50565b5f5f60408385031215612146575f5ffd5b823560038110612154575f5ffd5b915060208301356121648161211e565b809150509250929050565b634e487b7160e01b5f52604160045260245ffd5b604051608081016001600160401b03811182821017156121a5576121a561216f565b60405290565b604051601f8201601f191681016001600160401b03811182821017156121d3576121d361216f565b604052919050565b5f6001600160401b038211156121f3576121f361216f565b5060051b60200190565b5f82601f83011261220c575f5ffd5b813561221f61221a826121db565b6121ab565b8082825260208201915060208360051b860101925085831115612240575f5ffd5b602085015b838110156122665780356122588161211e565b835260209283019201612245565b5095945050505050565b5f60208284031215612280575f5ffd5b81356001600160401b03811115612295575f5ffd5b6122a1848285016121fd565b949350505050565b604080825283519082018190525f9060208501906060840190835b818110156122eb5783516001600160a01b03168352602093840193909201916001016122c4565b5050838103602080860191909152855180835291810192508501905f5b81811015612326578251845260209384019390920191600101612308565b50919695505050505050565b6001600160a01b038b811682528a8116602083015289166040820152606081018890526080810187905260a0810186905261014060c082018190525f9061237b9083018761203c565b82810360e084015261238d818761203c565b9415156101008401525050610120015298975050505050505050565b5f5f5f5f5f5f608087890312156123be575f5ffd5b8635955060208701356123d08161211e565b945060408701356001600160401b038111156123ea575f5ffd5b6123f689828a01612083565b90955093505060608701356001600160401b03811115612414575f5ffd5b61242089828a01612083565b979a9699509497509295939492505050565b6020815261244c6020820183516001600160a01b03169052565b5f602083015161246760408401826001600160a01b03169052565b5060408301516001600160a01b03811660608401525060608301516080830152608083015160a083015260a083015160c083015260c083015161014060e08401526124b661016084018261203c565b905060e0840151601f19848303016101008501526124d4828261203c565b9150506101008401516124ec61012085018215159052565b506101208401516101408401528091505092915050565b5f5f60208385031215612514575f5ffd5b82356001600160401b03811115612529575f5ffd5b61253585828601612083565b90969095509350505050565b5f60208284031215612551575f5ffd5b813561207c8161211e565b5f6020828403121561256c575f5ffd5b5051919050565b600181811c9082168061258757607f821691505b6020821081036125a557634e487b7160e01b5f52602260045260245ffd5b50919050565b5f602082840312156125bb575f5ffd5b815161207c8161211e565b5f602082840312156125d6575f5ffd5b8151801515811461207c575f5ffd5b5f6003841061260257634e487b7160e01b5f52602160045260245ffd5b5060f89290921b825260601b6bffffffffffffffffffffffff1916600182015260150190565b5f60a0828403128015612639575f5ffd5b5060405160a081016001600160401b038111828210171561265c5761265c61216f565b604052825161266a8161211e565b815260208381015190820152604080840151908201526060808401519082015260808301516126988161211e565b60808201529392505050565b828152604060208201525f6122a1604083018461203c565b634e487b7160e01b5f52603260045260245ffd5b81515f90829060208501835b828110156126fa5781518452602093840193909101906001016126dc565b509195945050505050565b81515f90829060208501835b828110156126fa5781516001600160a01b0316845260209384019390910190600101612711565b83815260406020820152816040820152818360608301375f818301606090810191909152601f909201601f1916010192915050565b5f82601f83011261277c575f5ffd5b813561278a61221a826121db565b8082825260208201915060208360051b8601019250858311156127ab575f5ffd5b602085015b838110156122665780358352602092830192016127b0565b5f82601f8301126127d7575f5ffd5b81356127e561221a826121db565b8082825260208201915060208360051b860101925085831115612806575f5ffd5b602085015b838110156122665780356001600160401b03811115612828575f5ffd5b8601603f81018813612838575f5ffd5b602081013561284961221a826121db565b808282526020820191506020808460051b8601010192508a83111561286c575f5ffd5b6040840193505b8284101561288e578335825260209384019390910190612873565b8652505060209384019391909101905061280b565b5f602082840312156128b3575f5ffd5b81356001600160401b038111156128c8575f5ffd5b8201608081850312156128d9575f5ffd5b6128e1612183565b81356001600160401b038111156128f6575f5ffd5b612902868285016121fd565b82525060208201356001600160401b0381111561291d575f5ffd5b612929868285016121fd565b60208301525060408201356001600160401b03811115612947575f5ffd5b6129538682850161276d565b60408301525060608201356001600160401b03811115612971575f5ffd5b61297d868285016127c8565b606083015250949350505050565b6001600160a01b03858116825284166020808301919091526040820184905260806060830181905283519083018190525f9184019060a0840190835b818110156129e55783518352602093840193909201916001016129c7565b50909897505050505050505056fea264697066735822122092df4ce0c5be092e50b02189f2095ac7b668dfe3a8157cc5bcaece4b5115887764736f6c634300081c0033","linkReferences":{}},"methodIdentifiers":{"asset()":"38d52e0f","board(uint256,bytes)":"2db6d399","commander()":"37270936","config()":"79502c55","configurationManager()":"c9c667e3","depositCap()":"dbd5edc7","disembark(uint256,bytes)":"13c408f8","fleetCommanderRewardsManagerFactory()":"f7e533ec","generateRole(uint8,address)":"69b3054b","getConfig()":"c3f909d4","harborCommand()":"5b0f83f3","harvest(bytes)":"ce5c7f61","hasAdmiralsQuartersRole(address)":"ebc136d0","maxDepositPercentageOfTVL()":"bdcdd882","maxRebalanceInflow()":"ad5a356f","maxRebalanceOutflow()":"3194549e","metaMorpho()":"b6042b34","move(uint256,address,bytes,bytes)":"c38a6f0b","name()":"06fdde03","raft()":"117d8ae0","registerFleetCommander()":"8a8b9976","requiresKeeperData()":"303dbaf3","setDepositCap(uint256)":"86651203","setMaxDepositPercentageOfTVL(uint256)":"4fc7fac3","setMaxRebalanceInflow(uint256)":"92f5e832","setMaxRebalanceOutflow(uint256)":"61f5cd8b","sweep(address[])":"780469bb","tipJar()":"7aaceb95","totalAssets()":"01e1d114","treasury()":"61d027b3","unregisterFleetCommander()":"ebf31131"},"id":211}