{"abi":[{"type":"constructor","inputs":[{"name":"_metaMorpho","type":"address","internalType":"address"},{"name":"_params","type":"tuple","internalType":"struct ArkParams","components":[{"name":"name","type":"string","internalType":"string"},{"name":"accessManager","type":"address","internalType":"address"},{"name":"configurationManager","type":"address","internalType":"address"},{"name":"token","type":"address","internalType":"address"},{"name":"depositCap","type":"uint256","internalType":"uint256"},{"name":"maxRebalanceOutflow","type":"uint256","internalType":"uint256"},{"name":"maxRebalanceInflow","type":"uint256","internalType":"uint256"},{"name":"requiresKeeperData","type":"bool","internalType":"bool"}]}],"stateMutability":"nonpayable"},{"type":"function","name":"board","inputs":[{"name":"amount","type":"uint256","internalType":"uint256"},{"name":"boardData","type":"bytes","internalType":"bytes"}],"outputs":[],"stateMutability":"nonpayable"},{"type":"function","name":"commander","inputs":[],"outputs":[{"name":"","type":"address","internalType":"address"}],"stateMutability":"view"},{"type":"function","name":"config","inputs":[],"outputs":[{"name":"commander","type":"address","internalType":"address"},{"name":"raft","type":"address","internalType":"address"},{"name":"token","type":"address","internalType":"contract IERC20"},{"name":"depositCap","type":"uint256","internalType":"uint256"},{"name":"maxRebalanceOutflow","type":"uint256","internalType":"uint256"},{"name":"maxRebalanceInflow","type":"uint256","internalType":"uint256"},{"name":"name","type":"string","internalType":"string"},{"name":"requiresKeeperData","type":"bool","internalType":"bool"}],"stateMutability":"view"},{"type":"function","name":"configurationManager","inputs":[],"outputs":[{"name":"","type":"address","internalType":"contract IConfigurationManager"}],"stateMutability":"view"},{"type":"function","name":"depositCap","inputs":[],"outputs":[{"name":"","type":"uint256","internalType":"uint256"}],"stateMutability":"view"},{"type":"function","name":"disembark","inputs":[{"name":"amount","type":"uint256","internalType":"uint256"},{"name":"disembarkData","type":"bytes","internalType":"bytes"}],"outputs":[],"stateMutability":"nonpayable"},{"type":"function","name":"generateRole","inputs":[{"name":"roleName","type":"uint8","internalType":"enum ContractSpecificRoles"},{"name":"roleTargetContract","type":"address","internalType":"address"}],"outputs":[{"name":"","type":"bytes32","internalType":"bytes32"}],"stateMutability":"pure"},{"type":"function","name":"getConfig","inputs":[],"outputs":[{"name":"","type":"tuple","internalType":"struct ArkConfig","components":[{"name":"commander","type":"address","internalType":"address"},{"name":"raft","type":"address","internalType":"address"},{"name":"token","type":"address","internalType":"contract IERC20"},{"name":"depositCap","type":"uint256","internalType":"uint256"},{"name":"maxRebalanceOutflow","type":"uint256","internalType":"uint256"},{"name":"maxRebalanceInflow","type":"uint256","internalType":"uint256"},{"name":"name","type":"string","internalType":"string"},{"name":"requiresKeeperData","type":"bool","internalType":"bool"}]}],"stateMutability":"view"},{"type":"function","name":"harborCommand","inputs":[],"outputs":[{"name":"","type":"address","internalType":"address"}],"stateMutability":"view"},{"type":"function","name":"harvest","inputs":[{"name":"additionalData","type":"bytes","internalType":"bytes"}],"outputs":[{"name":"rewardTokens","type":"address[]","internalType":"address[]"},{"name":"rewardAmounts","type":"uint256[]","internalType":"uint256[]"}],"stateMutability":"nonpayable"},{"type":"function","name":"maxRebalanceInflow","inputs":[],"outputs":[{"name":"","type":"uint256","internalType":"uint256"}],"stateMutability":"view"},{"type":"function","name":"maxRebalanceOutflow","inputs":[],"outputs":[{"name":"","type":"uint256","internalType":"uint256"}],"stateMutability":"view"},{"type":"function","name":"metaMorpho","inputs":[],"outputs":[{"name":"","type":"address","internalType":"contract IMetaMorpho"}],"stateMutability":"view"},{"type":"function","name":"move","inputs":[{"name":"amount","type":"uint256","internalType":"uint256"},{"name":"receiverArk","type":"address","internalType":"address"},{"name":"boardData","type":"bytes","internalType":"bytes"},{"name":"disembarkData","type":"bytes","internalType":"bytes"}],"outputs":[],"stateMutability":"nonpayable"},{"type":"function","name":"name","inputs":[],"outputs":[{"name":"","type":"string","internalType":"string"}],"stateMutability":"view"},{"type":"function","name":"raft","inputs":[],"outputs":[{"name":"","type":"address","internalType":"address"}],"stateMutability":"view"},{"type":"function","name":"registerFleetCommander","inputs":[],"outputs":[],"stateMutability":"nonpayable"},{"type":"function","name":"requiresKeeperData","inputs":[],"outputs":[{"name":"","type":"bool","internalType":"bool"}],"stateMutability":"view"},{"type":"function","name":"setDepositCap","inputs":[{"name":"newDepositCap","type":"uint256","internalType":"uint256"}],"outputs":[],"stateMutability":"nonpayable"},{"type":"function","name":"setMaxRebalanceInflow","inputs":[{"name":"newMaxRebalanceInflow","type":"uint256","internalType":"uint256"}],"outputs":[],"stateMutability":"nonpayable"},{"type":"function","name":"setMaxRebalanceOutflow","inputs":[{"name":"newMaxRebalanceOutflow","type":"uint256","internalType":"uint256"}],"outputs":[],"stateMutability":"nonpayable"},{"type":"function","name":"sweep","inputs":[{"name":"tokens","type":"address[]","internalType":"address[]"}],"outputs":[{"name":"sweptTokens","type":"address[]","internalType":"address[]"},{"name":"sweptAmounts","type":"uint256[]","internalType":"uint256[]"}],"stateMutability":"nonpayable"},{"type":"function","name":"tipJar","inputs":[],"outputs":[{"name":"","type":"address","internalType":"address"}],"stateMutability":"view"},{"type":"function","name":"token","inputs":[],"outputs":[{"name":"","type":"address","internalType":"contract IERC20"}],"stateMutability":"view"},{"type":"function","name":"totalAssets","inputs":[],"outputs":[{"name":"assets","type":"uint256","internalType":"uint256"}],"stateMutability":"view"},{"type":"function","name":"treasury","inputs":[],"outputs":[{"name":"","type":"address","internalType":"address"}],"stateMutability":"view"},{"type":"function","name":"unregisterFleetCommander","inputs":[],"outputs":[],"stateMutability":"nonpayable"},{"type":"event","name":"ArkHarvested","inputs":[{"name":"rewardTokens","type":"address[]","indexed":true,"internalType":"address[]"},{"name":"rewardAmounts","type":"uint256[]","indexed":true,"internalType":"uint256[]"}],"anonymous":false},{"type":"event","name":"ArkPoked","inputs":[{"name":"currentPrice","type":"uint256","indexed":false,"internalType":"uint256"},{"name":"timestamp","type":"uint256","indexed":false,"internalType":"uint256"}],"anonymous":false},{"type":"event","name":"ArkSwept","inputs":[{"name":"sweptTokens","type":"address[]","indexed":true,"internalType":"address[]"},{"name":"sweptAmounts","type":"uint256[]","indexed":true,"internalType":"uint256[]"}],"anonymous":false},{"type":"event","name":"Boarded","inputs":[{"name":"commander","type":"address","indexed":true,"internalType":"address"},{"name":"token","type":"address","indexed":false,"internalType":"address"},{"name":"amount","type":"uint256","indexed":false,"internalType":"uint256"}],"anonymous":false},{"type":"event","name":"DepositCapUpdated","inputs":[{"name":"newCap","type":"uint256","indexed":false,"internalType":"uint256"}],"anonymous":false},{"type":"event","name":"Disembarked","inputs":[{"name":"commander","type":"address","indexed":true,"internalType":"address"},{"name":"token","type":"address","indexed":false,"internalType":"address"},{"name":"amount","type":"uint256","indexed":false,"internalType":"uint256"}],"anonymous":false},{"type":"event","name":"FleetCommanderRegistered","inputs":[{"name":"commander","type":"address","indexed":false,"internalType":"address"}],"anonymous":false},{"type":"event","name":"FleetCommanderUnregistered","inputs":[{"name":"commander","type":"address","indexed":false,"internalType":"address"}],"anonymous":false},{"type":"event","name":"MaxRebalanceInflowUpdated","inputs":[{"name":"newMaxInflow","type":"uint256","indexed":false,"internalType":"uint256"}],"anonymous":false},{"type":"event","name":"MaxRebalanceOutflowUpdated","inputs":[{"name":"newMaxOutflow","type":"uint256","indexed":false,"internalType":"uint256"}],"anonymous":false},{"type":"event","name":"Moved","inputs":[{"name":"from","type":"address","indexed":true,"internalType":"address"},{"name":"to","type":"address","indexed":true,"internalType":"address"},{"name":"token","type":"address","indexed":false,"internalType":"address"},{"name":"amount","type":"uint256","indexed":false,"internalType":"uint256"}],"anonymous":false},{"type":"event","name":"RaftUpdated","inputs":[{"name":"newRaft","type":"address","indexed":false,"internalType":"address"}],"anonymous":false},{"type":"error","name":"CallerIsNotAdmin","inputs":[{"name":"caller","type":"address","internalType":"address"}]},{"type":"error","name":"CallerIsNotAuthorizedToBoard","inputs":[{"name":"caller","type":"address","internalType":"address"}]},{"type":"error","name":"CallerIsNotCommander","inputs":[{"name":"caller","type":"address","internalType":"address"}]},{"type":"error","name":"CallerIsNotContractSpecificRole","inputs":[{"name":"caller","type":"address","internalType":"address"},{"name":"role","type":"bytes32","internalType":"bytes32"}]},{"type":"error","name":"CallerIsNotCurator","inputs":[{"name":"caller","type":"address","internalType":"address"}]},{"type":"error","name":"CallerIsNotGovernor","inputs":[{"name":"caller","type":"address","internalType":"address"}]},{"type":"error","name":"CallerIsNotGuardian","inputs":[{"name":"caller","type":"address","internalType":"address"}]},{"type":"error","name":"CallerIsNotGuardianOrGovernor","inputs":[{"name":"caller","type":"address","internalType":"address"}]},{"type":"error","name":"CallerIsNotKeeper","inputs":[{"name":"caller","type":"address","internalType":"address"}]},{"type":"error","name":"CallerIsNotRaft","inputs":[{"name":"caller","type":"address","internalType":"address"}]},{"type":"error","name":"CallerIsNotRaftOrCommander","inputs":[{"name":"caller","type":"address","internalType":"address"}]},{"type":"error","name":"CallerIsNotSuperKeeper","inputs":[{"name":"caller","type":"address","internalType":"address"}]},{"type":"error","name":"CannotAddCommanderToArkWithCommander","inputs":[]},{"type":"error","name":"CannotDeployArkWithEmptyName","inputs":[]},{"type":"error","name":"CannotDeployArkWithoutConfigurationManager","inputs":[]},{"type":"error","name":"CannotDeployArkWithoutRaft","inputs":[]},{"type":"error","name":"CannotDeployArkWithoutToken","inputs":[]},{"type":"error","name":"CannotRemoveCommanderFromArkWithAssets","inputs":[]},{"type":"error","name":"CannotUseKeeperDataWhenNotRequired","inputs":[]},{"type":"error","name":"ConfigurationManagerZeroAddress","inputs":[]},{"type":"error","name":"DirectGrantIsDisabled","inputs":[{"name":"caller","type":"address","internalType":"address"}]},{"type":"error","name":"DirectRevokeIsDisabled","inputs":[{"name":"caller","type":"address","internalType":"address"}]},{"type":"error","name":"ERC4626AssetMismatch","inputs":[]},{"type":"error","name":"InvalidAccessManagerAddress","inputs":[{"name":"invalidAddress","type":"address","internalType":"address"}]},{"type":"error","name":"InvalidBoardData","inputs":[]},{"type":"error","name":"InvalidDisembarkData","inputs":[]},{"type":"error","name":"InvalidVaultAddress","inputs":[]},{"type":"error","name":"KeeperDataRequired","inputs":[]},{"type":"error","name":"SafeERC20FailedOperation","inputs":[{"name":"token","type":"address","internalType":"address"}]}],"bytecode":{"object":"0x60c060405234801561000f575f5ffd5b50604051612ac9380380612ac983398101604081905261002e91610473565b6040810151602082015182918291806001600160a01b03811661006b576040516347bd7c1d60e01b81525f60048201526024015b60405180910390fd5b6040516301ffc9a760e01b815263a237592160e01b60048201526001600160a01b038216906301ffc9a790602401602060405180830381865afa1580156100b4573d5f5f3e3d5ffd5b505050506040513d601f19601f820116820180604052508101906100d89190610554565b610100576040516347bd7c1d60e01b81526001600160a01b0382166004820152602401610062565b5f80546001600160a01b0319166001600160a01b039283161790558216905061013c5760405163f1634df960e01b815260040160405180910390fd5b6001600160a01b0390811660805260408201511661016d5760405163b53c493160e01b815260040160405180910390fd5b60608101516001600160a01b031661019b576040516001620a810f60e11b0319815260040160405180910390fd5b8051515f036101bd5760405163268c072960e01b815260040160405180910390fd5b5f6101c661031b565b6001600160a01b0316036101ed57604051633a4f9cdb60e21b815260040160405180910390fd5b6040805161010081019091525f81526020810161020861031b565b6001600160a01b039081168252606080850151821660208085019190915260808087015160408087019190915260a0808901518588015260c0808a01518489015289518289015260e08a01511515978101979097528751600180549188166001600160a01b03199283161781559489015160028054918916918316919091179055918801516003805491909716921691909117909455918501516004559084015160055590830151600655908201516007906102c490826105f8565b5060e091909101516007909101805460ff191691151591909117905550506001600160a01b03821661030957604051630306120160e01b815260040160405180910390fd5b506001600160a01b031660a0526106cb565b5f6080516001600160a01b031663117d8ae06040518163ffffffff1660e01b8152600401602060405180830381865afa15801561035a573d5f5f3e3d5ffd5b505050506040513d601f19601f8201168201806040525081019061037e91906106b2565b905090565b80516001600160a01b0381168114610399575f5ffd5b919050565b634e487b7160e01b5f52604160045260245ffd5b60405161010081016001600160401b03811182821017156103d5576103d561039e565b60405290565b5f82601f8301126103ea575f5ffd5b81516001600160401b038111156104035761040361039e565b604051601f8201601f19908116603f011681016001600160401b03811182821017156104315761043161039e565b604052818152838201602001851015610448575f5ffd5b8160208501602083015e5f918101602001919091529392505050565b80518015158114610399575f5ffd5b5f5f60408385031215610484575f5ffd5b61048d83610383565b60208401519092506001600160401b038111156104a8575f5ffd5b830161010081860312156104ba575f5ffd5b6104c26103b2565b81516001600160401b038111156104d7575f5ffd5b6104e3878285016103db565b8252506104f260208301610383565b602082015261050360408301610383565b604082015261051460608301610383565b60608201526080828101519082015260a0808301519082015260c0808301519082015261054360e08301610464565b60e082015280925050509250929050565b5f60208284031215610564575f5ffd5b61056d82610464565b9392505050565b600181811c9082168061058857607f821691505b6020821081036105a657634e487b7160e01b5f52602260045260245ffd5b50919050565b601f8211156105f357805f5260205f20601f840160051c810160208510156105d15750805b601f840160051c820191505b818110156105f0575f81556001016105dd565b50505b505050565b81516001600160401b038111156106115761061161039e565b6106258161061f8454610574565b846105ac565b6020601f821160018114610657575f83156106405750848201515b5f19600385901b1c1916600184901b1784556105f0565b5f84815260208120601f198516915b828110156106865787850151825560209485019460019092019101610666565b50848210156106a357868401515f19600387901b60f8161c191681555b50505050600190811b01905550565b5f602082840312156106c2575f5ffd5b61056d82610383565b60805160a0516123a56107245f395f8181610302015281816103be015281816115370152818161166701526116fe01525f81816103510152818161052f01528181610874015281816108d10152610f2301526123a55ff3fe608060405234801561000f575f5ffd5b50600436106101a1575f3560e01c806379502c55116100f3578063c38a6f0b11610093578063ce5c7f611161006e578063ce5c7f6114610373578063dbd5edc714610386578063ebf311311461038e578063fc0c546a14610396575f5ffd5b8063c38a6f0b14610324578063c3f909d414610337578063c9c667e31461034c575f5ffd5b80638a8b9976116100ce5780638a8b9976146102da57806392f5e832146102e2578063ad5a356f146102f5578063b6042b34146102fd575f5ffd5b806379502c55146102a35780637aaceb95146102bf57806386651203146102c7575f5ffd5b80633194549e1161015e57806361d027b31161013957806361d027b31461025457806361f5cd8b1461025c57806369b3054b1461026f578063780469bb14610282575f5ffd5b80633194549e14610233578063372709361461023b5780635b0f83f31461024c575f5ffd5b806301e1d114146101a557806306fdde03146101c0578063117d8ae0146101d557806313c408f8146101f55780632db6d3991461020a578063303dbaf31461021d575b5f5ffd5b6101ad6103a7565b6040519081526020015b60405180910390f35b6101c8610499565b6040516101b79190611a92565b6101dd61052c565b6040516001600160a01b0390911681526020016101b7565b610208610203366004611aef565b6105ad565b005b610208610218366004611aef565b610666565b60085460ff1660405190151581526020016101b7565b6005546101ad565b6001546001600160a01b03166101dd565b6101dd610871565b6101dd6108ce565b61020861026a366004611b36565b61092b565b6101ad61027d366004611b64565b610979565b610295610290366004611c9f565b6109ab565b6040516101b7929190611cd8565b6102ab610e5c565b6040516101b7989796959493929190611d61565b6101dd610f20565b6102086102d5366004611b36565b610f7d565b610208610fc4565b6102086102f0366004611b36565b611021565b6006546101ad565b6101dd7f000000000000000000000000000000000000000000000000000000000000000081565b610208610332366004611dc1565b611068565b61033f6111b9565b6040516101b79190611e4a565b6101dd7f000000000000000000000000000000000000000000000000000000000000000081565b610295610381366004611ee0565b6112ed565b6004546101ad565b6102086113d7565b6003546001600160a01b03166101dd565b6040516370a0823160e01b81523060048201525f907f00000000000000000000000000000000000000000000000000000000000000006001600160a01b0316906307a2d13a9082906370a0823190602401602060405180830381865afa158015610413573d5f5f3e3d5ffd5b505050506040513d601f19601f820116820180604052508101906104379190611f1e565b6040518263ffffffff1660e01b815260040161045591815260200190565b602060405180830381865afa158015610470573d5f5f3e3d5ffd5b505050506040513d601f19601f820116820180604052508101906104949190611f1e565b905090565b6060600160060180546104ab90611f35565b80601f01602080910402602001604051908101604052809291908181526020018280546104d790611f35565b80156105225780601f106104f957610100808354040283529160200191610522565b820191905f5260205f20905b81548152906001019060200180831161050557829003601f168201915b5050505050905090565b5f7f00000000000000000000000000000000000000000000000000000000000000006001600160a01b031663117d8ae06040518163ffffffff1660e01b8152600401602060405180830381865afa158015610589573d5f5f3e3d5ffd5b505050506040513d601f19601f820116820180604052508101906104949190611f6d565b6105b5611429565b6105e557335b604051631564c0e160e11b81526001600160a01b0390911660048201526024015b60405180910390fd5b81816105f182826114b2565b336105fd868686611514565b600354610614906001600160a01b031682886115b0565b600354604080516001600160a01b03928316815260208101899052918316917fd5e872c5ecfb1bb8820b2e6a20e31b883682282da886621541f71e31ec11947e910160405180910390a2505050505050565b306001600160a01b031663372709366040518163ffffffff1660e01b8152600401602060405180830381865afa1580156106a2573d5f5f3e3d5ffd5b505050506040513d601f19601f820116820180604052508101906106c69190611f6d565b6106ce611429565b6107ed575f3390505f306001600160a01b031663117d8ae06040518163ffffffff1660e01b8152600401602060405180830381865afa158015610713573d5f5f3e3d5ffd5b505050506040513d601f19601f820116820180604052508101906107379190611f6d565b6001600160a01b0316826001600160a01b0316149050806107ea5760405163d25dd10160e01b81526001600160a01b0383811660048301525f919085169063d25dd10190602401602060405180830381865afa158015610799573d5f5f3e3d5ffd5b505050506040513d601f19601f820116820180604052508101906107bd9190611f88565b9050806107e857604051638f7a567d60e01b81526001600160a01b03841660048201526024016105dc565b505b50505b82826107f982826114b2565b6003543390610813906001600160a01b031682308a611614565b61081e87878761164d565b600354604080516001600160a01b039283168152602081018a9052918316917fcbaa1442ac205415c9d69643e7b60ec73d1de35dbc807c21ec288c70ddc4207b910160405180910390a250505050505050565b5f7f00000000000000000000000000000000000000000000000000000000000000006001600160a01b0316635b0f83f36040518163ffffffff1660e01b8152600401602060405180830381865afa158015610589573d5f5f3e3d5ffd5b5f7f00000000000000000000000000000000000000000000000000000000000000006001600160a01b03166361d027b36040518163ffffffff1660e01b8152600401602060405180830381865afa158015610589573d5f5f3e3d5ffd5b610933611429565b61093d57336105bb565b60058190556040518181527ffbe2d5c01ea8ba5596d6c4e6c82c6d4a0a0ee1128689993a4a5ba0169273d69f906020015b60405180910390a150565b5f828260405160200161098d929190611fa7565b60405160208183030381529060405280519060200120905092915050565b606080306001600160a01b031663117d8ae06040518163ffffffff1660e01b8152600401602060405180830381865afa1580156109ea573d5f5f3e3d5ffd5b505050506040513d601f19601f82011682018060405250810190610a0e9190611f6d565b6001600160a01b0316336001600160a01b031614610a4d57335b604051631184b31b60e21b81526001600160a01b0390911660048201526024016105dc565b82516001600160401b03811115610a6657610a66611b9e565b604051908082528060200260200182016040528015610a8f578160200160208202803683370190505b50915082516001600160401b03811115610aab57610aab611b9e565b604051908082528060200260200182016040528015610ad4578160200160208202803683370190505b506003546040516370a0823160e01b81523060048201529192505f916001600160a01b03909116906370a0823190602401602060405180830381865afa158015610b20573d5f5f3e3d5ffd5b505050506040513d601f19601f82011682018060405250810190610b449190611f1e565b1115610c3557600154604080516330fe427560e21b81529051610c35926001600160a01b03169163c3f909d49160048083019260809291908290030181865afa158015610b93573d5f5f3e3d5ffd5b505050506040513d601f19601f82011682018060405250810190610bb79190611fea565b516003546040516370a0823160e01b81523060048201526001600160a01b03909116906370a0823190602401602060405180830381865afa158015610bfe573d5f5f3e3d5ffd5b505050506040513d601f19601f82011682018060405250810190610c229190611f1e565b6003546001600160a01b031691906115b0565b5f5b8351811015610e03575f848281518110610c5357610c53612038565b60209081029190910101516040516370a0823160e01b81523060048201526001600160a01b03909116906370a0823190602401602060405180830381865afa158015610ca1573d5f5f3e3d5ffd5b505050506040513d601f19601f82011682018060405250810190610cc59190611f1e565b90508015610dfa57610d8e610cd861052c565b868481518110610cea57610cea612038565b60209081029190910101516040516370a0823160e01b81523060048201526001600160a01b03909116906370a0823190602401602060405180830381865afa158015610d38573d5f5f3e3d5ffd5b505050506040513d601f19601f82011682018060405250810190610d5c9190611f1e565b878581518110610d6e57610d6e612038565b60200260200101516001600160a01b03166115b09092919063ffffffff16565b848281518110610da057610da0612038565b6020026020010151848381518110610dba57610dba612038565b60200260200101906001600160a01b031690816001600160a01b03168152505080838381518110610ded57610ded612038565b6020026020010181815250505b50600101610c37565b5080604051610e12919061204c565b604051809103902082604051610e289190612081565b604051908190038120907f46b8771620f6acf56cb03d3e835ea8024c7dcbcf05fcc3f6ade9e19d1a3e212b905f90a3915091565b60018054600254600354600454600554600654600780546001600160a01b03978816989688169790951695939492939192610e9690611f35565b80601f0160208091040260200160405190810160405280929190818152602001828054610ec290611f35565b8015610f0d5780601f10610ee457610100808354040283529160200191610f0d565b820191905f5260205f20905b815481529060010190602001808311610ef057829003601f168201915b5050506007909301549192505060ff1688565b5f7f00000000000000000000000000000000000000000000000000000000000000006001600160a01b0316637aaceb956040518163ffffffff1660e01b8152600401602060405180830381865afa158015610589573d5f5f3e3d5ffd5b610f85611429565b610f8f57336105bb565b60048190556040518181527f333b26cca69716ad4680ddb07663f5bfb4f06045671f336af9a83690a3ae00f99060200161096e565b610fcc611429565b610fd657336105bb565b600180546001600160a01b031916339081179091556040519081527f55489ce0259bd691120d8860861be1c401c7c16a3cd268d21045756af4ecc5ca906020015b60405180910390a1565b611029611429565b61103357336105bb565b60068190556040518181527fb6ac66853c4e59c71e118d25ab494bb847c4e5eb0c8894898c5343e6f61afc129060200161096e565b611070611429565b61107a57336105bb565b818161108682826114b2565b611091888585611514565b60035460405163095ea7b360e01b81526001600160a01b038981166004830152602482018b90529091169063095ea7b3906044016020604051808303815f875af11580156110e1573d5f5f3e3d5ffd5b505050506040513d601f19601f820116820180604052508101906111059190611f88565b50604051632db6d39960e01b81526001600160a01b03881690632db6d39990611136908b908a908a906004016120b4565b5f604051808303815f87803b15801561114d575f5ffd5b505af115801561115f573d5f5f3e3d5ffd5b5050600354604080516001600160a01b039283168152602081018d9052918b1693503092507f9f784fc02a186f1c98b2d9f15fda084da27cdd291a3785d978f91911d880516b910160405180910390a35050505050505050565b60408051610100810182525f8082526020820181905291810182905260608082018390526080820183905260a0820183905260c082015260e08101919091526040805161010081018252600180546001600160a01b0390811683526002548116602084015260035416928201929092526004546060820152600554608082015260065460a08201526007805491929160c08401919061125790611f35565b80601f016020809104026020016040519081016040528092919081815260200182805461128390611f35565b80156112ce5780601f106112a5576101008083540402835291602001916112ce565b820191905f5260205f20905b8154815290600101906020018083116112b157829003601f168201915b50505091835250506007919091015460ff161515602090910152919050565b606080306001600160a01b031663117d8ae06040518163ffffffff1660e01b8152600401602060405180830381865afa15801561132c573d5f5f3e3d5ffd5b505050506040513d601f19601f820116820180604052508101906113509190611f6d565b6001600160a01b0316336001600160a01b03161461136e5733610a28565b6113788484611735565b604051919350915061138b90829061204c565b6040518091039020826040516113a19190612081565b604051908190038120907f3e3e7958121b3e39c7a49392d1aa9cdce870c2a059744f9e15cf66fff7865455905f90a39250929050565b6113df611429565b6113e957336105bb565b600180546001600160a01b03191690556040513381527f7cb941d7b1708e5b3bcd35ca960d6c6311188cec18886e5b67630552676b048790602001611017565b5f80546001600160a01b03166391d14854611445600230610979565b336040516001600160e01b031960e085901b16815260048101929092526001600160a01b03166024820152604401602060405180830381865afa15801561148e573d5f5f3e3d5ffd5b505050506040513d601f19601f820116820180604052508101906104949190611f88565b80158015906114c4575060085460ff16155b156114e257604051630cd0fdf960e01b815260040160405180910390fd5b801580156114f2575060085460ff165b156115105760405163332863a960e11b815260040160405180910390fd5b5050565b604051632d182be560e21b815260048101849052306024820181905260448201527f00000000000000000000000000000000000000000000000000000000000000006001600160a01b03169063b460af94906064015b6020604051808303815f875af1158015611586573d5f5f3e3d5ffd5b505050506040513d601f19601f820116820180604052508101906115aa9190611f1e565b50505050565b6040516001600160a01b0383811660248301526044820183905261160f91859182169063a9059cbb906064015b604051602081830303815290604052915060e01b6020820180516001600160e01b0383818316178352505050506119f8565b505050565b6040516001600160a01b0384811660248301528381166044830152606482018390526115aa9186918216906323b872dd906084016115dd565b60035460405163095ea7b360e01b81526001600160a01b037f000000000000000000000000000000000000000000000000000000000000000081166004830152602482018690529091169063095ea7b3906044016020604051808303815f875af11580156116bd573d5f5f3e3d5ffd5b505050506040513d601f19601f820116820180604052508101906116e19190611f88565b50604051636e553f6560e01b8152600481018490523060248201527f00000000000000000000000000000000000000000000000000000000000000006001600160a01b031690636e553f659060440161156a565b6060805f6117458486018661221f565b90508060200151516001600160401b0381111561176457611764611b9e565b60405190808252806020026020018201604052801561178d578160200160208202803683370190505b5092508060200151516001600160401b038111156117ad576117ad611b9e565b6040519080825280602002602001820160405280156117d6578160200160208202803683370190505b5091505f5b81602001515181101561199c5781518051829081106117fc576117fc612038565b60200260200101516001600160a01b031663fabed412308460200151848151811061182957611829612038565b60200260200101518560400151858151811061184757611847612038565b60200260200101518660600151868151811061186557611865612038565b60200260200101516040518563ffffffff1660e01b815260040161188c9493929190612307565b6020604051808303815f875af11580156118a8573d5f5f3e3d5ffd5b505050506040513d601f19601f820116820180604052508101906118cc9190611f1e565b50816020015181815181106118e3576118e3612038565b60200260200101518482815181106118fd576118fd612038565b60200260200101906001600160a01b031690816001600160a01b0316815250508160400151818151811061193357611933612038565b602002602001015183828151811061194d5761194d612038565b60200260200101818152505061199461196461052c565b84838151811061197657611976612038565b602002602001015184602001518481518110610d6e57610d6e612038565b6001016117db565b50816040516119ab919061204c565b6040518091039020836040516119c19190612081565b604051908190038120907f3e3e7958121b3e39c7a49392d1aa9cdce870c2a059744f9e15cf66fff7865455905f90a3509250929050565b5f5f60205f8451602086015f885af180611a17576040513d5f823e3d81fd5b50505f513d91508115611a2e578060011415611a3b565b6001600160a01b0384163b155b156115aa57604051635274afe760e01b81526001600160a01b03851660048201526024016105dc565b5f81518084528060208401602086015e5f602082860101526020601f19601f83011685010191505092915050565b602081525f611aa46020830184611a64565b9392505050565b5f5f83601f840112611abb575f5ffd5b5081356001600160401b03811115611ad1575f5ffd5b602083019150836020828501011115611ae8575f5ffd5b9250929050565b5f5f5f60408486031215611b01575f5ffd5b8335925060208401356001600160401b03811115611b1d575f5ffd5b611b2986828701611aab565b9497909650939450505050565b5f60208284031215611b46575f5ffd5b5035919050565b6001600160a01b0381168114611b61575f5ffd5b50565b5f5f60408385031215611b75575f5ffd5b823560038110611b83575f5ffd5b91506020830135611b9381611b4d565b809150509250929050565b634e487b7160e01b5f52604160045260245ffd5b604051608081016001600160401b0381118282101715611bd457611bd4611b9e565b60405290565b604051601f8201601f191681016001600160401b0381118282101715611c0257611c02611b9e565b604052919050565b5f6001600160401b03821115611c2257611c22611b9e565b5060051b60200190565b5f82601f830112611c3b575f5ffd5b8135611c4e611c4982611c0a565b611bda565b8082825260208201915060208360051b860101925085831115611c6f575f5ffd5b602085015b83811015611c95578035611c8781611b4d565b835260209283019201611c74565b5095945050505050565b5f60208284031215611caf575f5ffd5b81356001600160401b03811115611cc4575f5ffd5b611cd084828501611c2c565b949350505050565b604080825283519082018190525f9060208501906060840190835b81811015611d1a5783516001600160a01b0316835260209384019390920191600101611cf3565b5050838103602080860191909152855180835291810192508501905f5b81811015611d55578251845260209384019390920191600101611d37565b50919695505050505050565b6001600160a01b038981168252888116602083015287166040820152606081018690526080810185905260a0810184905261010060c082018190525f90611daa90830185611a64565b905082151560e08301529998505050505050505050565b5f5f5f5f5f5f60808789031215611dd6575f5ffd5b863595506020870135611de881611b4d565b945060408701356001600160401b03811115611e02575f5ffd5b611e0e89828a01611aab565b90955093505060608701356001600160401b03811115611e2c575f5ffd5b611e3889828a01611aab565b979a9699509497509295939492505050565b602080825282516001600160a01b039081168383015290830151166040808301919091528201515f90611e8860608401826001600160a01b03169052565b5060608301516080830152608083015160a083015260a083015160c083015260c083015161010060e0840152611ec2610120840182611a64565b905060e0840151611ed861010085018215159052565b509392505050565b5f5f60208385031215611ef1575f5ffd5b82356001600160401b03811115611f06575f5ffd5b611f1285828601611aab565b90969095509350505050565b5f60208284031215611f2e575f5ffd5b5051919050565b600181811c90821680611f4957607f821691505b602082108103611f6757634e487b7160e01b5f52602260045260245ffd5b50919050565b5f60208284031215611f7d575f5ffd5b8151611aa481611b4d565b5f60208284031215611f98575f5ffd5b81518015158114611aa4575f5ffd5b5f60038410611fc457634e487b7160e01b5f52602160045260245ffd5b5060f89290921b825260601b6bffffffffffffffffffffffff1916600182015260150190565b5f6080828403128015611ffb575f5ffd5b50612004611bb2565b825161200f81611b4d565b815260208381015190820152604080840151908201526060928301519281019290925250919050565b634e487b7160e01b5f52603260045260245ffd5b81515f90829060208501835b82811015612076578151845260209384019390910190600101612058565b509195945050505050565b81515f90829060208501835b828110156120765781516001600160a01b031684526020938401939091019060010161208d565b83815260406020820152816040820152818360608301375f818301606090810191909152601f909201601f1916010192915050565b5f82601f8301126120f8575f5ffd5b8135612106611c4982611c0a565b8082825260208201915060208360051b860101925085831115612127575f5ffd5b602085015b83811015611c9557803583526020928301920161212c565b5f82601f830112612153575f5ffd5b8135612161611c4982611c0a565b8082825260208201915060208360051b860101925085831115612182575f5ffd5b602085015b83811015611c955780356001600160401b038111156121a4575f5ffd5b8601603f810188136121b4575f5ffd5b60208101356121c5611c4982611c0a565b808282526020820191506020808460051b8601010192508a8311156121e8575f5ffd5b6040840193505b8284101561220a5783358252602093840193909101906121ef565b86525050602093840193919091019050612187565b5f6020828403121561222f575f5ffd5b81356001600160401b03811115612244575f5ffd5b820160808185031215612255575f5ffd5b61225d611bb2565b81356001600160401b03811115612272575f5ffd5b61227e86828501611c2c565b82525060208201356001600160401b03811115612299575f5ffd5b6122a586828501611c2c565b60208301525060408201356001600160401b038111156122c3575f5ffd5b6122cf868285016120e9565b60408301525060608201356001600160401b038111156122ed575f5ffd5b6122f986828501612144565b606083015250949350505050565b6001600160a01b03858116825284166020808301919091526040820184905260806060830181905283519083018190525f9184019060a0840190835b81811015612361578351835260209384019390920191600101612343565b50909897505050505050505056fea2646970667358221220fa7b40211234b604c0946410c169aea2a77c0781b07e19bb59b1888881d8cf4b64736f6c634300081b0033","linkReferences":{}},"methodIdentifiers":{"board(uint256,bytes)":"2db6d399","commander()":"37270936","config()":"79502c55","configurationManager()":"c9c667e3","depositCap()":"dbd5edc7","disembark(uint256,bytes)":"13c408f8","generateRole(uint8,address)":"69b3054b","getConfig()":"c3f909d4","harborCommand()":"5b0f83f3","harvest(bytes)":"ce5c7f61","maxRebalanceInflow()":"ad5a356f","maxRebalanceOutflow()":"3194549e","metaMorpho()":"b6042b34","move(uint256,address,bytes,bytes)":"c38a6f0b","name()":"06fdde03","raft()":"117d8ae0","registerFleetCommander()":"8a8b9976","requiresKeeperData()":"303dbaf3","setDepositCap(uint256)":"86651203","setMaxRebalanceInflow(uint256)":"92f5e832","setMaxRebalanceOutflow(uint256)":"61f5cd8b","sweep(address[])":"780469bb","tipJar()":"7aaceb95","token()":"fc0c546a","totalAssets()":"01e1d114","treasury()":"61d027b3","unregisterFleetCommander()":"ebf31131"},"id":171}