{"abi":[{"type":"constructor","inputs":[{"name":"_metaMorpho","type":"address","internalType":"address"},{"name":"_params","type":"tuple","internalType":"struct ArkParams","components":[{"name":"accessManager","type":"address","internalType":"address"},{"name":"configurationManager","type":"address","internalType":"address"},{"name":"token","type":"address","internalType":"address"},{"name":"maxAllocation","type":"uint256","internalType":"uint256"}]}],"stateMutability":"nonpayable"},{"type":"function","name":"DEFAULT_ADMIN_ROLE","inputs":[],"outputs":[{"name":"","type":"bytes32","internalType":"bytes32"}],"stateMutability":"view"},{"type":"function","name":"RAY","inputs":[],"outputs":[{"name":"","type":"uint256","internalType":"uint256"}],"stateMutability":"view"},{"type":"function","name":"WAD","inputs":[],"outputs":[{"name":"","type":"uint256","internalType":"uint256"}],"stateMutability":"view"},{"type":"function","name":"board","inputs":[{"name":"amount","type":"uint256","internalType":"uint256"}],"outputs":[],"stateMutability":"nonpayable"},{"type":"function","name":"commander","inputs":[],"outputs":[{"name":"","type":"address","internalType":"address"}],"stateMutability":"view"},{"type":"function","name":"disembark","inputs":[{"name":"amount","type":"uint256","internalType":"uint256"}],"outputs":[],"stateMutability":"nonpayable"},{"type":"function","name":"getRoleAdmin","inputs":[{"name":"role","type":"bytes32","internalType":"bytes32"}],"outputs":[{"name":"","type":"bytes32","internalType":"bytes32"}],"stateMutability":"view"},{"type":"function","name":"grantCommanderRole","inputs":[{"name":"account","type":"address","internalType":"address"}],"outputs":[],"stateMutability":"nonpayable"},{"type":"function","name":"grantRole","inputs":[{"name":"","type":"bytes32","internalType":"bytes32"},{"name":"","type":"address","internalType":"address"}],"outputs":[],"stateMutability":"view"},{"type":"function","name":"harvest","inputs":[{"name":"rewardToken","type":"address","internalType":"address"},{"name":"additionalData","type":"bytes","internalType":"bytes"}],"outputs":[{"name":"","type":"uint256","internalType":"uint256"}],"stateMutability":"nonpayable"},{"type":"function","name":"hasRole","inputs":[{"name":"role","type":"bytes32","internalType":"bytes32"},{"name":"account","type":"address","internalType":"address"}],"outputs":[{"name":"","type":"bool","internalType":"bool"}],"stateMutability":"view"},{"type":"function","name":"manager","inputs":[],"outputs":[{"name":"","type":"address","internalType":"contract IConfigurationManager"}],"stateMutability":"view"},{"type":"function","name":"maxAllocation","inputs":[],"outputs":[{"name":"","type":"uint256","internalType":"uint256"}],"stateMutability":"view"},{"type":"function","name":"metaMorpho","inputs":[],"outputs":[{"name":"","type":"address","internalType":"contract IMetaMorpho"}],"stateMutability":"view"},{"type":"function","name":"move","inputs":[{"name":"amount","type":"uint256","internalType":"uint256"},{"name":"receiverArk","type":"address","internalType":"address"}],"outputs":[],"stateMutability":"nonpayable"},{"type":"function","name":"poke","inputs":[],"outputs":[],"stateMutability":"nonpayable"},{"type":"function","name":"raft","inputs":[],"outputs":[{"name":"","type":"address","internalType":"address"}],"stateMutability":"view"},{"type":"function","name":"rate","inputs":[],"outputs":[{"name":"supplyRate","type":"uint256","internalType":"uint256"}],"stateMutability":"view"},{"type":"function","name":"renounceRole","inputs":[{"name":"role","type":"bytes32","internalType":"bytes32"},{"name":"callerConfirmation","type":"address","internalType":"address"}],"outputs":[],"stateMutability":"nonpayable"},{"type":"function","name":"revokeCommanderRole","inputs":[{"name":"account","type":"address","internalType":"address"}],"outputs":[],"stateMutability":"nonpayable"},{"type":"function","name":"revokeRole","inputs":[{"name":"","type":"bytes32","internalType":"bytes32"},{"name":"","type":"address","internalType":"address"}],"outputs":[],"stateMutability":"view"},{"type":"function","name":"setMaxAllocation","inputs":[{"name":"newMaxAllocation","type":"uint256","internalType":"uint256"}],"outputs":[],"stateMutability":"nonpayable"},{"type":"function","name":"supportsInterface","inputs":[{"name":"interfaceId","type":"bytes4","internalType":"bytes4"}],"outputs":[{"name":"","type":"bool","internalType":"bool"}],"stateMutability":"view"},{"type":"function","name":"token","inputs":[],"outputs":[{"name":"","type":"address","internalType":"contract IERC20"}],"stateMutability":"view"},{"type":"function","name":"totalAssets","inputs":[],"outputs":[{"name":"assets","type":"uint256","internalType":"uint256"}],"stateMutability":"view"},{"type":"event","name":"ArkPoked","inputs":[{"name":"currentPrice","type":"uint256","indexed":false,"internalType":"uint256"},{"name":"timestamp","type":"uint256","indexed":false,"internalType":"uint256"}],"anonymous":false},{"type":"event","name":"ArkPokedNoChange","inputs":[],"anonymous":false},{"type":"event","name":"ArkPokedTooSoon","inputs":[],"anonymous":false},{"type":"event","name":"Boarded","inputs":[{"name":"commander","type":"address","indexed":true,"internalType":"address"},{"name":"token","type":"address","indexed":false,"internalType":"address"},{"name":"amount","type":"uint256","indexed":false,"internalType":"uint256"}],"anonymous":false},{"type":"event","name":"DepositCapUpdated","inputs":[{"name":"newCap","type":"uint256","indexed":false,"internalType":"uint256"}],"anonymous":false},{"type":"event","name":"Disembarked","inputs":[{"name":"commander","type":"address","indexed":true,"internalType":"address"},{"name":"token","type":"address","indexed":false,"internalType":"address"},{"name":"amount","type":"uint256","indexed":false,"internalType":"uint256"}],"anonymous":false},{"type":"event","name":"Harvested","inputs":[{"name":"amount","type":"uint256","indexed":false,"internalType":"uint256"}],"anonymous":false},{"type":"event","name":"MaxAllocationUpdated","inputs":[{"name":"newMaxAllocation","type":"uint256","indexed":false,"internalType":"uint256"}],"anonymous":false},{"type":"event","name":"Moved","inputs":[{"name":"from","type":"address","indexed":true,"internalType":"address"},{"name":"to","type":"address","indexed":true,"internalType":"address"},{"name":"token","type":"address","indexed":false,"internalType":"address"},{"name":"amount","type":"uint256","indexed":false,"internalType":"uint256"}],"anonymous":false},{"type":"event","name":"RaftUpdated","inputs":[{"name":"newRaft","type":"address","indexed":false,"internalType":"address"}],"anonymous":false},{"type":"event","name":"RoleAdminChanged","inputs":[{"name":"role","type":"bytes32","indexed":true,"internalType":"bytes32"},{"name":"previousAdminRole","type":"bytes32","indexed":true,"internalType":"bytes32"},{"name":"newAdminRole","type":"bytes32","indexed":true,"internalType":"bytes32"}],"anonymous":false},{"type":"event","name":"RoleGranted","inputs":[{"name":"role","type":"bytes32","indexed":true,"internalType":"bytes32"},{"name":"account","type":"address","indexed":true,"internalType":"address"},{"name":"sender","type":"address","indexed":true,"internalType":"address"}],"anonymous":false},{"type":"event","name":"RoleRevoked","inputs":[{"name":"role","type":"bytes32","indexed":true,"internalType":"bytes32"},{"name":"account","type":"address","indexed":true,"internalType":"address"},{"name":"sender","type":"address","indexed":true,"internalType":"address"}],"anonymous":false},{"type":"error","name":"AccessControlBadConfirmation","inputs":[]},{"type":"error","name":"AccessControlUnauthorizedAccount","inputs":[{"name":"account","type":"address","internalType":"address"},{"name":"neededRole","type":"bytes32","internalType":"bytes32"}]},{"type":"error","name":"AddressEmptyCode","inputs":[{"name":"target","type":"address","internalType":"address"}]},{"type":"error","name":"AddressInsufficientBalance","inputs":[{"name":"account","type":"address","internalType":"address"}]},{"type":"error","name":"CallerIsNotAuthorizedToBoard","inputs":[{"name":"caller","type":"address","internalType":"address"}]},{"type":"error","name":"CallerIsNotCommander","inputs":[{"name":"caller","type":"address","internalType":"address"}]},{"type":"error","name":"CallerIsNotGovernor","inputs":[{"name":"caller","type":"address","internalType":"address"}]},{"type":"error","name":"CannotAddCommanderToArkWithCommander","inputs":[]},{"type":"error","name":"CannotRemoveCommanderFromArkWithAssets","inputs":[]},{"type":"error","name":"DirectGrantIsDisabled","inputs":[{"name":"caller","type":"address","internalType":"address"}]},{"type":"error","name":"DirectRevokeIsDisabled","inputs":[{"name":"caller","type":"address","internalType":"address"}]},{"type":"error","name":"FailedInnerCall","inputs":[]},{"type":"error","name":"InvalidAccessManagerAddress","inputs":[{"name":"invalidAddress","type":"address","internalType":"address"}]},{"type":"error","name":"InvalidVaultAddress","inputs":[]},{"type":"error","name":"SafeERC20FailedOperation","inputs":[{"name":"token","type":"address","internalType":"address"}]}],"bytecode":{"object":"0x60a060405234801561000f575f80fd5b50604051611b10380380611b1083398101604081905261002e9161020d565b80518190806001600160a01b038116610061576040516347bd7c1d60e01b81525f60048201526024015b60405180910390fd5b6040516301ffc9a760e01b815263f87138b560e01b60048201526001600160a01b038216906301ffc9a790602401602060405180830381865afa1580156100aa573d5f803e3d5ffd5b505050506040513d601f19601f820116820180604052508101906100ce91906102b0565b6100f6576040516347bd7c1d60e01b81526001600160a01b0382166004820152602401610058565b5f80546001600160a01b03199081166001600160a01b03938416178255602085810151600680549093169416938417909155606085015160035560408051628bec5760e51b8152905193945063117d8ae093600480830194919283900301908290875af1158015610169573d5f803e3d5ffd5b505050506040513d601f19601f8201168201806040525081019061018d91906102d6565b600280546001600160a01b039283166001600160a01b03199182161790915560409092015160048054918316919093161790915582166101e057604051630306120160e01b815260040160405180910390fd5b506001600160a01b03166080526102ef565b80516001600160a01b0381168114610208575f80fd5b919050565b5f8082840360a081121561021f575f80fd5b610228846101f2565b92506080601f198201121561023b575f80fd5b50604051608081016001600160401b038111828210171561026a57634e487b7160e01b5f52604160045260245ffd5b604052610279602085016101f2565b8152610287604085016101f2565b6020820152610298606085016101f2565b60408201526080939093015160608401525092909150565b5f602082840312156102c0575f80fd5b815180151581146102cf575f80fd5b9392505050565b5f602082840312156102e6575f80fd5b6102cf826101f2565b6080516117df6103315f395f818161031701528181610389015281816104ec015281816107a801528181610fc90152818161106101526111bb01526117df5ff3fe608060405234801561000f575f80fd5b506004361061016d575f3560e01c8063552033c4116100d95780639403e41f11610093578063b6042b341161006e578063b6042b3414610312578063d547741f14610339578063d8a8e03a1461034c578063fc0c546a1461035f575f80fd5b80639403e41f146102ef5780639b3ba79f14610302578063a217fddf1461030b575f80fd5b8063552033c4146102815780636a1460241461029457806372f12344146102a35780637399bfe8146102b657806381d3ce26146102c957806391d14854146102dc575f80fd5b80632c4e722e1161012a5780632c4e722e1461021a5780632f2ff15d1461022257806336568abe146102355780633727093614610248578063481c6a751461025b5780634dd47eba1461026e575f80fd5b806301e1d1141461017157806301ffc9a71461018c578063117d8ae0146101af57806318178358146101da578063248a9ca3146101e457806328ed6e3f14610207575b5f80fd5b610179610372565b6040519081526020015b60405180910390f35b61019f61019a3660046115ca565b610464565b6040519015158152602001610183565b6002546101c2906001600160a01b031681565b6040516001600160a01b039091168152602001610183565b6101e261049a565b005b6101796101f23660046115f1565b5f908152600160208190526040909120015490565b6101e26102153660046115f1565b6105dc565b61017961077f565b6101e261023036600461161c565b61088c565b6101e261024336600461161c565b6108a7565b6005546101c2906001600160a01b031681565b6006546101c2906001600160a01b031681565b6101e261027c3660046115f1565b6108df565b6101796b033b2e3c9fd0803ce800000081565b610179670de0b6b3a764000081565b6101e26102b13660046115f1565b610975565b6101796102c436600461164a565b6109d1565b6101e26102d73660046116ca565b610a57565b61019f6102ea36600461161c565b610bcc565b6101e26102fd3660046116ca565b610bf6565b61017960035481565b6101795f81565b6101c27f000000000000000000000000000000000000000000000000000000000000000081565b6101e261034736600461161c565b610d67565b6101e261035a36600461161c565b610d82565b6004546101c2906001600160a01b031681565b6040516370a0823160e01b81523060048201525f907f00000000000000000000000000000000000000000000000000000000000000006001600160a01b0316906307a2d13a9082906370a0823190602401602060405180830381865afa1580156103de573d5f803e3d5ffd5b505050506040513d601f19601f8201168201806040525081019061040291906116e5565b6040518263ffffffff1660e01b815260040161042091815260200190565b602060405180830381865afa15801561043b573d5f803e3d5ffd5b505050506040513d601f19601f8201168201806040525081019061045f91906116e5565b905090565b5f6001600160e01b03198216637965db0b60e01b148061049457506301ffc9a760e01b6001600160e01b03198316145b92915050565b60075442036104cd576040517ffb5829c244b48204000a0e9c7f5b68eecb349f471eafc9c1becbf62854eb76f5905f90a1565b6040516303d1689d60e11b8152670de0b6b3a764000060048201525f907f00000000000000000000000000000000000000000000000000000000000000006001600160a01b0316906307a2d13a90602401602060405180830381865afa158015610539573d5f803e3d5ffd5b505050506040513d601f19601f8201168201806040525081019061055d91906116e5565b90506008548103610593576040517f51fb49be6cb6da86642323ec7f5995f1b10f69c77520899be766c78d686dde4e905f90a150565b60088190554260078190556040805183815260208101929092527ffd8be248249824b1683ff1db237618eaf58754a86088acb74842fe014b0998df91015b60405180910390a150565b6005546001600160a01b03166105f0610ece565b61070d575f3390505f306001600160a01b031663117d8ae06040518163ffffffff1660e01b8152600401602060405180830381865afa158015610635573d5f803e3d5ffd5b505050506040513d601f19601f8201168201806040525081019061065991906116fc565b60405163d25dd10160e01b81526001600160a01b038481166004830181905292811690921492505f9185169063d25dd10190602401602060405180830381865afa1580156106a9573d5f803e3d5ffd5b505050506040513d601f19601f820116820180604052508101906106cd9190611717565b9050801580156106db575081155b1561070957604051638f7a567d60e01b81526001600160a01b03841660048201526024015b60405180910390fd5b5050505b6004543390610727906001600160a01b0316823086610f41565b61073083610fae565b600454604080516001600160a01b03928316815260208101869052918316917fcbaa1442ac205415c9d69643e7b60ec73d1de35dbc807c21ec288c70ddc4207b910160405180910390a2505050565b6040516303d1689d60e11b8152670de0b6b3a764000060048201525f9081906001600160a01b037f000000000000000000000000000000000000000000000000000000000000000016906307a2d13a90602401602060405180830381865afa1580156107ed573d5f803e3d5ffd5b505050506040513d601f19601f8201168201806040525081019061081191906116e5565b90505f60075442610822919061174a565b90505f8111801561083457505f600854115b156108875780600854610847919061175d565b6b033b2e3c9fd0803ce800000060085484610862919061174a565b610870906301e1338061175d565b61087a919061175d565b6108849190611774565b92505b505090565b604051630e15200f60e21b8152336004820152602401610700565b6001600160a01b03811633146108d05760405163334bd91960e11b815260040160405180910390fd5b6108da8282611126565b505050565b6108e7610ece565b61090657604051631564c0e160e11b8152336004820152602401610700565b3361091082611198565b600454610927906001600160a01b031682846111f2565b600454604080516001600160a01b03928316815260208101859052918316917fd5e872c5ecfb1bb8820b2e6a20e31b883682282da886621541f71e31ec11947e910160405180910390a25050565b61097d610ece565b61099c57604051631564c0e160e11b8152336004820152602401610700565b60038190556040518181527ff71dfae69e41913414884e69a96ee28ef3f1ce5593bee0fb570cf9404e41a808906020016105d1565b5f610a4d60065f9054906101000a90046001600160a01b03166001600160a01b031663117d8ae06040518163ffffffff1660e01b81526004016020604051808303815f875af1158015610a26573d5f803e3d5ffd5b505050506040513d601f19601f82011682018060405250810190610a4a91906116fc565b50565b505f5b9392505050565b5f5460408051630ccc574960e41b815290516001600160a01b03909216916391d1485491839163ccc57490916004808201926020929091908290030181865afa158015610aa6573d5f803e3d5ffd5b505050506040513d601f19601f82011682018060405250810190610aca91906116e5565b6040516001600160e01b031960e084901b1681526004810191909152336024820152604401602060405180830381865afa158015610b0a573d5f803e3d5ffd5b505050506040513d601f19601f82011682018060405250810190610b2e9190611717565b610b4d57604051630ea7d7ed60e21b8152336004820152602401610700565b610b5681611223565b5f54604080516345b817bb60e01b81529051610bc8926001600160a01b0316916345b817bb9160048083019260209291908290030181865afa158015610b9e573d5f803e3d5ffd5b505050506040513d601f19601f82011682018060405250810190610bc291906116e5565b82611126565b5050565b5f9182526001602090815260408084206001600160a01b0393909316845291905290205460ff1690565b5f5460408051630ccc574960e41b815290516001600160a01b03909216916391d1485491839163ccc57490916004808201926020929091908290030181865afa158015610c45573d5f803e3d5ffd5b505050506040513d601f19601f82011682018060405250810190610c6991906116e5565b6040516001600160e01b031960e084901b1681526004810191909152336024820152604401602060405180830381865afa158015610ca9573d5f803e3d5ffd5b505050506040513d601f19601f82011682018060405250810190610ccd9190611717565b610cec57604051630ea7d7ed60e21b8152336004820152602401610700565b610cf5816112b6565b5f54604080516345b817bb60e01b81529051610bc8926001600160a01b0316916345b817bb9160048083019260209291908290030181865afa158015610d3d573d5f803e3d5ffd5b505050506040513d601f19601f82011682018060405250810190610d6191906116e5565b826113f8565b604051636344978560e11b8152336004820152602401610700565b610d8a610ece565b610da957604051631564c0e160e11b8152336004820152602401610700565b610db282611198565b6004805460405163095ea7b360e01b81526001600160a01b03848116938201939093526024810185905291169063095ea7b3906044016020604051808303815f875af1158015610e04573d5f803e3d5ffd5b505050506040513d601f19601f82011682018060405250810190610e289190611717565b506040516328ed6e3f60e01b8152600481018390526001600160a01b038216906328ed6e3f906024015f604051808303815f87803b158015610e68575f80fd5b505af1158015610e7a573d5f803e3d5ffd5b5050600454604080516001600160a01b0392831681526020810187905291851693503092507f9f784fc02a186f1c98b2d9f15fda084da27cdd291a3785d978f91911d880516b910160405180910390a35050565b5f8054604080516345b817bb60e01b8152905161045f926001600160a01b0316916345b817bb9160048083019260209291908290030181865afa158015610f17573d5f803e3d5ffd5b505050506040513d601f19601f82011682018060405250810190610f3b91906116e5565b33610bcc565b6040516001600160a01b038481166024830152838116604483015260648201839052610fa89186918216906323b872dd906084015b604051602081830303815290604052915060e01b6020820180516001600160e01b038381831617835250505050611467565b50505050565b6004805460405163095ea7b360e01b81526001600160a01b037f00000000000000000000000000000000000000000000000000000000000000008116938201939093526024810184905291169063095ea7b3906044016020604051808303815f875af1158015611020573d5f803e3d5ffd5b505050506040513d601f19601f820116820180604052508101906110449190611717565b50604051636e553f6560e01b8152600481018290523060248201527f00000000000000000000000000000000000000000000000000000000000000006001600160a01b031690636e553f65906044015b6020604051808303815f875af11580156110b0573d5f803e3d5ffd5b505050506040513d601f19601f820116820180604052508101906110d491906116e5565b50306001600160a01b031663181783586040518163ffffffff1660e01b81526004015f604051808303815f87803b15801561110d575f80fd5b505af115801561111f573d5f803e3d5ffd5b5050505050565b5f6111318383610bcc565b15611191575f8381526001602090815260408083206001600160a01b0386168085529252808320805460ff1916905551339286917ff6391f5c32d9c69d2a47ea670b442974b53935d1edc7fd64eb21e047a839171b9190a4506001610494565b505f610494565b604051632d182be560e21b815260048101829052306024820181905260448201527f00000000000000000000000000000000000000000000000000000000000000006001600160a01b03169063b460af9490606401611094565b6040516001600160a01b038381166024830152604482018390526108da91859182169063a9059cbb90606401610f76565b5f306001600160a01b03166301e1d1146040518163ffffffff1660e01b8152600401602060405180830381865afa158015611260573d5f803e3d5ffd5b505050506040513d601f19601f8201168201806040525081019061128491906116e5565b11156112a3576040516373a075f360e01b815260040160405180910390fd5b50600580546001600160a01b0319169055565b5f5460408051630ccc574960e41b815290516001600160a01b03909216916391d1485491839163ccc57490916004808201926020929091908290030181865afa158015611305573d5f803e3d5ffd5b505050506040513d601f19601f8201168201806040525081019061132991906116e5565b6040516001600160e01b031960e084901b1681526004810191909152336024820152604401602060405180830381865afa158015611369573d5f803e3d5ffd5b505050506040513d601f19601f8201168201806040525081019061138d9190611717565b6113ac57604051630ea7d7ed60e21b8152336004820152602401610700565b6005546001600160a01b0316156113d65760405163d32184ed60e01b815260040160405180910390fd5b600580546001600160a01b0319166001600160a01b0392909216919091179055565b5f6114038383610bcc565b611191575f8381526001602081815260408084206001600160a01b0387168086529252808420805460ff19169093179092559051339286917f2f8788117e7eff1d82e926ec794901d17c78024a50270940304540a733656f0d9190a4506001610494565b5f61147b6001600160a01b038416836114c8565b905080515f1415801561149f57508080602001905181019061149d9190611717565b155b156108da57604051635274afe760e01b81526001600160a01b0384166004820152602401610700565b6060610a5083835f845f80856001600160a01b031684866040516114ec9190611793565b5f6040518083038185875af1925050503d805f8114611526576040519150601f19603f3d011682016040523d82523d5f602084013e61152b565b606091505b509150915061153b868383611545565b9695505050505050565b60608261155a57611555826115a1565b610a50565b815115801561157157506001600160a01b0384163b155b1561159a57604051639996b31560e01b81526001600160a01b0385166004820152602401610700565b5080610a50565b8051156115b15780518082602001fd5b604051630a12f52160e11b815260040160405180910390fd5b5f602082840312156115da575f80fd5b81356001600160e01b031981168114610a50575f80fd5b5f60208284031215611601575f80fd5b5035919050565b6001600160a01b0381168114610a4a575f80fd5b5f806040838503121561162d575f80fd5b82359150602083013561163f81611608565b809150509250929050565b5f805f6040848603121561165c575f80fd5b833561166781611608565b9250602084013567ffffffffffffffff811115611682575f80fd5b8401601f81018613611692575f80fd5b803567ffffffffffffffff8111156116a8575f80fd5b8660208284010111156116b9575f80fd5b939660209190910195509293505050565b5f602082840312156116da575f80fd5b8135610a5081611608565b5f602082840312156116f5575f80fd5b5051919050565b5f6020828403121561170c575f80fd5b8151610a5081611608565b5f60208284031215611727575f80fd5b81518015158114610a50575f80fd5b634e487b7160e01b5f52601160045260245ffd5b8181038181111561049457610494611736565b808202811582820484141761049457610494611736565b5f8261178e57634e487b7160e01b5f52601260045260245ffd5b500490565b5f82518060208501845e5f92019182525091905056fea2646970667358221220a68e2fe8b512e36f92344d43b9beb2758c3f8d0706c3e5e4d134a30318cd721464736f6c634300081a0033","linkReferences":{}},"methodIdentifiers":{"DEFAULT_ADMIN_ROLE()":"a217fddf","RAY()":"552033c4","WAD()":"6a146024","board(uint256)":"28ed6e3f","commander()":"37270936","disembark(uint256)":"4dd47eba","getRoleAdmin(bytes32)":"248a9ca3","grantCommanderRole(address)":"9403e41f","grantRole(bytes32,address)":"2f2ff15d","harvest(address,bytes)":"7399bfe8","hasRole(bytes32,address)":"91d14854","manager()":"481c6a75","maxAllocation()":"9b3ba79f","metaMorpho()":"b6042b34","move(uint256,address)":"d8a8e03a","poke()":"18178358","raft()":"117d8ae0","rate()":"2c4e722e","renounceRole(bytes32,address)":"36568abe","revokeCommanderRole(address)":"81d3ce26","revokeRole(bytes32,address)":"d547741f","setMaxAllocation(uint256)":"72f12344","supportsInterface(bytes4)":"01ffc9a7","token()":"fc0c546a","totalAssets()":"01e1d114"},"id":71}