{"abi":[{"type":"constructor","inputs":[{"name":"_params","type":"tuple","internalType":"struct ArkParams","components":[{"name":"name","type":"string","internalType":"string"},{"name":"details","type":"string","internalType":"string"},{"name":"accessManager","type":"address","internalType":"address"},{"name":"configurationManager","type":"address","internalType":"address"},{"name":"asset","type":"address","internalType":"address"},{"name":"depositCap","type":"uint256","internalType":"uint256"},{"name":"maxRebalanceOutflow","type":"uint256","internalType":"uint256"},{"name":"maxRebalanceInflow","type":"uint256","internalType":"uint256"},{"name":"requiresKeeperData","type":"bool","internalType":"bool"},{"name":"maxDepositPercentageOfTVL","type":"uint256","internalType":"Percentage"}]}],"stateMutability":"nonpayable"},{"type":"function","name":"asset","inputs":[],"outputs":[{"name":"","type":"address","internalType":"contract IERC20"}],"stateMutability":"view"},{"type":"function","name":"board","inputs":[{"name":"amount","type":"uint256","internalType":"uint256"},{"name":"boardData","type":"bytes","internalType":"bytes"}],"outputs":[],"stateMutability":"nonpayable"},{"type":"function","name":"commander","inputs":[],"outputs":[{"name":"","type":"address","internalType":"address"}],"stateMutability":"view"},{"type":"function","name":"config","inputs":[],"outputs":[{"name":"commander","type":"address","internalType":"address"},{"name":"raft","type":"address","internalType":"address"},{"name":"asset","type":"address","internalType":"contract IERC20"},{"name":"depositCap","type":"uint256","internalType":"uint256"},{"name":"maxRebalanceOutflow","type":"uint256","internalType":"uint256"},{"name":"maxRebalanceInflow","type":"uint256","internalType":"uint256"},{"name":"name","type":"string","internalType":"string"},{"name":"details","type":"string","internalType":"string"},{"name":"requiresKeeperData","type":"bool","internalType":"bool"},{"name":"maxDepositPercentageOfTVL","type":"uint256","internalType":"Percentage"}],"stateMutability":"view"},{"type":"function","name":"configurationManager","inputs":[],"outputs":[{"name":"","type":"address","internalType":"contract IConfigurationManager"}],"stateMutability":"view"},{"type":"function","name":"depositCap","inputs":[],"outputs":[{"name":"","type":"uint256","internalType":"uint256"}],"stateMutability":"view"},{"type":"function","name":"disembark","inputs":[{"name":"amount","type":"uint256","internalType":"uint256"},{"name":"disembarkData","type":"bytes","internalType":"bytes"}],"outputs":[],"stateMutability":"nonpayable"},{"type":"function","name":"fleetCommanderRewardsManagerFactory","inputs":[],"outputs":[{"name":"","type":"address","internalType":"address"}],"stateMutability":"view"},{"type":"function","name":"generateRole","inputs":[{"name":"roleName","type":"uint8","internalType":"enum ContractSpecificRoles"},{"name":"roleTargetContract","type":"address","internalType":"address"}],"outputs":[{"name":"","type":"bytes32","internalType":"bytes32"}],"stateMutability":"pure"},{"type":"function","name":"getConfig","inputs":[],"outputs":[{"name":"","type":"tuple","internalType":"struct ArkConfig","components":[{"name":"commander","type":"address","internalType":"address"},{"name":"raft","type":"address","internalType":"address"},{"name":"asset","type":"address","internalType":"contract IERC20"},{"name":"depositCap","type":"uint256","internalType":"uint256"},{"name":"maxRebalanceOutflow","type":"uint256","internalType":"uint256"},{"name":"maxRebalanceInflow","type":"uint256","internalType":"uint256"},{"name":"name","type":"string","internalType":"string"},{"name":"details","type":"string","internalType":"string"},{"name":"requiresKeeperData","type":"bool","internalType":"bool"},{"name":"maxDepositPercentageOfTVL","type":"uint256","internalType":"Percentage"}]}],"stateMutability":"view"},{"type":"function","name":"harborCommand","inputs":[],"outputs":[{"name":"","type":"address","internalType":"address"}],"stateMutability":"view"},{"type":"function","name":"harvest","inputs":[{"name":"additionalData","type":"bytes","internalType":"bytes"}],"outputs":[{"name":"rewardTokens","type":"address[]","internalType":"address[]"},{"name":"rewardAmounts","type":"uint256[]","internalType":"uint256[]"}],"stateMutability":"nonpayable"},{"type":"function","name":"hasAdmiralsQuartersRole","inputs":[{"name":"account","type":"address","internalType":"address"}],"outputs":[{"name":"","type":"bool","internalType":"bool"}],"stateMutability":"view"},{"type":"function","name":"maxDepositPercentageOfTVL","inputs":[],"outputs":[{"name":"","type":"uint256","internalType":"Percentage"}],"stateMutability":"view"},{"type":"function","name":"maxRebalanceInflow","inputs":[],"outputs":[{"name":"","type":"uint256","internalType":"uint256"}],"stateMutability":"view"},{"type":"function","name":"maxRebalanceOutflow","inputs":[],"outputs":[{"name":"","type":"uint256","internalType":"uint256"}],"stateMutability":"view"},{"type":"function","name":"mockRate","inputs":[],"outputs":[{"name":"","type":"uint256","internalType":"uint256"}],"stateMutability":"view"},{"type":"function","name":"move","inputs":[{"name":"amount","type":"uint256","internalType":"uint256"},{"name":"receiverArk","type":"address","internalType":"address"},{"name":"boardData","type":"bytes","internalType":"bytes"},{"name":"disembarkData","type":"bytes","internalType":"bytes"}],"outputs":[],"stateMutability":"nonpayable"},{"type":"function","name":"name","inputs":[],"outputs":[{"name":"","type":"string","internalType":"string"}],"stateMutability":"view"},{"type":"function","name":"raft","inputs":[],"outputs":[{"name":"","type":"address","internalType":"address"}],"stateMutability":"view"},{"type":"function","name":"registerFleetCommander","inputs":[],"outputs":[],"stateMutability":"nonpayable"},{"type":"function","name":"requiresKeeperData","inputs":[],"outputs":[{"name":"","type":"bool","internalType":"bool"}],"stateMutability":"view"},{"type":"function","name":"setDepositCap","inputs":[{"name":"newDepositCap","type":"uint256","internalType":"uint256"}],"outputs":[],"stateMutability":"nonpayable"},{"type":"function","name":"setMaxDepositPercentageOfTVL","inputs":[{"name":"newMaxDepositPercentageOfTVL","type":"uint256","internalType":"Percentage"}],"outputs":[],"stateMutability":"nonpayable"},{"type":"function","name":"setMaxRebalanceInflow","inputs":[{"name":"newMaxRebalanceInflow","type":"uint256","internalType":"uint256"}],"outputs":[],"stateMutability":"nonpayable"},{"type":"function","name":"setMaxRebalanceOutflow","inputs":[{"name":"newMaxRebalanceOutflow","type":"uint256","internalType":"uint256"}],"outputs":[],"stateMutability":"nonpayable"},{"type":"function","name":"setMockRate","inputs":[{"name":"_rate","type":"uint256","internalType":"uint256"}],"outputs":[],"stateMutability":"nonpayable"},{"type":"function","name":"sweep","inputs":[{"name":"tokens","type":"address[]","internalType":"address[]"}],"outputs":[{"name":"sweptTokens","type":"address[]","internalType":"address[]"},{"name":"sweptAmounts","type":"uint256[]","internalType":"uint256[]"}],"stateMutability":"nonpayable"},{"type":"function","name":"testSkipper","inputs":[],"outputs":[],"stateMutability":"nonpayable"},{"type":"function","name":"tipJar","inputs":[],"outputs":[{"name":"","type":"address","internalType":"address"}],"stateMutability":"view"},{"type":"function","name":"totalAssets","inputs":[],"outputs":[{"name":"","type":"uint256","internalType":"uint256"}],"stateMutability":"view"},{"type":"function","name":"treasury","inputs":[],"outputs":[{"name":"","type":"address","internalType":"address"}],"stateMutability":"view"},{"type":"function","name":"unregisterFleetCommander","inputs":[],"outputs":[],"stateMutability":"nonpayable"},{"type":"function","name":"userBalances","inputs":[{"name":"","type":"address","internalType":"address"}],"outputs":[{"name":"","type":"uint256","internalType":"uint256"}],"stateMutability":"view"},{"type":"event","name":"ArkHarvested","inputs":[{"name":"rewardTokens","type":"address[]","indexed":true,"internalType":"address[]"},{"name":"rewardAmounts","type":"uint256[]","indexed":true,"internalType":"uint256[]"}],"anonymous":false},{"type":"event","name":"ArkPoked","inputs":[{"name":"currentPrice","type":"uint256","indexed":false,"internalType":"uint256"},{"name":"timestamp","type":"uint256","indexed":false,"internalType":"uint256"}],"anonymous":false},{"type":"event","name":"ArkSwept","inputs":[{"name":"sweptTokens","type":"address[]","indexed":true,"internalType":"address[]"},{"name":"sweptAmounts","type":"uint256[]","indexed":true,"internalType":"uint256[]"}],"anonymous":false},{"type":"event","name":"Boarded","inputs":[{"name":"commander","type":"address","indexed":true,"internalType":"address"},{"name":"token","type":"address","indexed":false,"internalType":"address"},{"name":"amount","type":"uint256","indexed":false,"internalType":"uint256"}],"anonymous":false},{"type":"event","name":"DepositCapUpdated","inputs":[{"name":"newCap","type":"uint256","indexed":false,"internalType":"uint256"}],"anonymous":false},{"type":"event","name":"Disembarked","inputs":[{"name":"commander","type":"address","indexed":true,"internalType":"address"},{"name":"token","type":"address","indexed":false,"internalType":"address"},{"name":"amount","type":"uint256","indexed":false,"internalType":"uint256"}],"anonymous":false},{"type":"event","name":"FleetCommanderRegistered","inputs":[{"name":"commander","type":"address","indexed":false,"internalType":"address"}],"anonymous":false},{"type":"event","name":"FleetCommanderUnregistered","inputs":[{"name":"commander","type":"address","indexed":false,"internalType":"address"}],"anonymous":false},{"type":"event","name":"MaxDepositPercentageOfTVLUpdated","inputs":[{"name":"newMaxDepositPercentageOfTVL","type":"uint256","indexed":false,"internalType":"Percentage"}],"anonymous":false},{"type":"event","name":"MaxRebalanceInflowUpdated","inputs":[{"name":"newMaxInflow","type":"uint256","indexed":false,"internalType":"uint256"}],"anonymous":false},{"type":"event","name":"MaxRebalanceOutflowUpdated","inputs":[{"name":"newMaxOutflow","type":"uint256","indexed":false,"internalType":"uint256"}],"anonymous":false},{"type":"event","name":"Moved","inputs":[{"name":"from","type":"address","indexed":true,"internalType":"address"},{"name":"to","type":"address","indexed":true,"internalType":"address"},{"name":"token","type":"address","indexed":false,"internalType":"address"},{"name":"amount","type":"uint256","indexed":false,"internalType":"uint256"}],"anonymous":false},{"type":"event","name":"RaftUpdated","inputs":[{"name":"newRaft","type":"address","indexed":false,"internalType":"address"}],"anonymous":false},{"type":"error","name":"CallerIsNotAdmin","inputs":[{"name":"caller","type":"address","internalType":"address"}]},{"type":"error","name":"CallerIsNotAuthorizedToBoard","inputs":[{"name":"caller","type":"address","internalType":"address"}]},{"type":"error","name":"CallerIsNotCommander","inputs":[{"name":"caller","type":"address","internalType":"address"}]},{"type":"error","name":"CallerIsNotContractSpecificRole","inputs":[{"name":"caller","type":"address","internalType":"address"},{"name":"role","type":"bytes32","internalType":"bytes32"}]},{"type":"error","name":"CallerIsNotCurator","inputs":[{"name":"caller","type":"address","internalType":"address"}]},{"type":"error","name":"CallerIsNotDecayController","inputs":[{"name":"caller","type":"address","internalType":"address"}]},{"type":"error","name":"CallerIsNotGovernor","inputs":[{"name":"caller","type":"address","internalType":"address"}]},{"type":"error","name":"CallerIsNotGuardian","inputs":[{"name":"caller","type":"address","internalType":"address"}]},{"type":"error","name":"CallerIsNotGuardianOrGovernor","inputs":[{"name":"caller","type":"address","internalType":"address"}]},{"type":"error","name":"CallerIsNotKeeper","inputs":[{"name":"caller","type":"address","internalType":"address"}]},{"type":"error","name":"CallerIsNotRaft","inputs":[{"name":"caller","type":"address","internalType":"address"}]},{"type":"error","name":"CallerIsNotRaftOrCommander","inputs":[{"name":"caller","type":"address","internalType":"address"}]},{"type":"error","name":"CallerIsNotSuperKeeper","inputs":[{"name":"caller","type":"address","internalType":"address"}]},{"type":"error","name":"CannotAddCommanderToArkWithCommander","inputs":[]},{"type":"error","name":"CannotDeployArkWithEmptyName","inputs":[]},{"type":"error","name":"CannotDeployArkWithoutConfigurationManager","inputs":[]},{"type":"error","name":"CannotDeployArkWithoutRaft","inputs":[]},{"type":"error","name":"CannotDeployArkWithoutToken","inputs":[]},{"type":"error","name":"CannotRemoveCommanderFromArkWithAssets","inputs":[]},{"type":"error","name":"CannotUseKeeperDataWhenNotRequired","inputs":[]},{"type":"error","name":"ConfigurationManagerZeroAddress","inputs":[]},{"type":"error","name":"DirectGrantIsDisabled","inputs":[{"name":"caller","type":"address","internalType":"address"}]},{"type":"error","name":"DirectRevokeIsDisabled","inputs":[{"name":"caller","type":"address","internalType":"address"}]},{"type":"error","name":"ERC4626AssetMismatch","inputs":[]},{"type":"error","name":"InvalidAccessManagerAddress","inputs":[{"name":"invalidAddress","type":"address","internalType":"address"}]},{"type":"error","name":"InvalidBoardData","inputs":[]},{"type":"error","name":"InvalidDisembarkData","inputs":[]},{"type":"error","name":"InvalidVaultAddress","inputs":[]},{"type":"error","name":"KeeperDataRequired","inputs":[]},{"type":"error","name":"ReentrancyGuardReentrantCall","inputs":[]},{"type":"error","name":"SafeERC20FailedOperation","inputs":[{"name":"token","type":"address","internalType":"address"}]}],"bytecode":{"object":"0x60a060405234801561000f575f5ffd5b50604051612c94380380612c9483398101604081905261002e91610486565b6060810151604082015182918291806001600160a01b03811661006b576040516347bd7c1d60e01b81525f60048201526024015b60405180910390fd5b6040516301ffc9a760e01b81526338c7ccdb60e01b60048201526001600160a01b038216906301ffc9a790602401602060405180830381865afa1580156100b4573d5f5f3e3d5ffd5b505050506040513d601f19601f820116820180604052508101906100d8919061058c565b610100576040516347bd7c1d60e01b81526001600160a01b0382166004820152602401610062565b5f80546001600160a01b0319166001600160a01b039283161790558216905061013c5760405163f1634df960e01b815260040160405180910390fd5b6001600160a01b0390811660805260608201511661016d5760405163b53c493160e01b815260040160405180910390fd5b60808101516001600160a01b031661019b576040516001620a810f60e11b0319815260040160405180910390fd5b8051515f036101bd5760405163268c072960e01b815260040160405180910390fd5b5f6101c661032e565b6001600160a01b0316036101ed57604051633a4f9cdb60e21b815260040160405180910390fd5b6040805161014081019091525f81526020810161020861032e565b6001600160a01b039081168252608080850151821660208085019190915260a08087015160408087019190915260c08089015160608089019190915260e0808b0151878a01528a51858a01528a860151838a0152610100808c01511515918a01919091526101208b01519801979097528751600180549188166001600160a01b031992831617815594890151600280549189169183169190911790559188015160038054919097169216919091179094559385015160045590840151600555918301516006558201516007906102de9082610630565b5060e082015160078201906102f39082610630565b5061010082015160088201805460ff1916911515919091179055610120909101516009909101555050670de0b6b3a7640000600b5550610703565b5f6080516001600160a01b031663117d8ae06040518163ffffffff1660e01b8152600401602060405180830381865afa15801561036d573d5f5f3e3d5ffd5b505050506040513d601f19601f8201168201806040525081019061039191906106ea565b905090565b634e487b7160e01b5f52604160045260245ffd5b60405161014081016001600160401b03811182821017156103cd576103cd610396565b60405290565b5f82601f8301126103e2575f5ffd5b81516001600160401b038111156103fb576103fb610396565b604051601f8201601f19908116603f011681016001600160401b038111828210171561042957610429610396565b604052818152838201602001851015610440575f5ffd5b8160208501602083015e5f918101602001919091529392505050565b80516001600160a01b0381168114610472575f5ffd5b919050565b80518015158114610472575f5ffd5b5f60208284031215610496575f5ffd5b81516001600160401b038111156104ab575f5ffd5b820161014081850312156104bd575f5ffd5b6104c56103aa565b81516001600160401b038111156104da575f5ffd5b6104e6868285016103d3565b82525060208201516001600160401b03811115610501575f5ffd5b61050d868285016103d3565b60208301525061051f6040830161045c565b60408201526105306060830161045c565b60608201526105416080830161045c565b608082015260a0828101519082015260c0808301519082015260e080830151908201526105716101008301610477565b61010082015261012091820151918101919091529392505050565b5f6020828403121561059c575f5ffd5b6105a582610477565b9392505050565b600181811c908216806105c057607f821691505b6020821081036105de57634e487b7160e01b5f52602260045260245ffd5b50919050565b601f82111561062b57805f5260205f20601f840160051c810160208510156106095750805b601f840160051c820191505b81811015610628575f8155600101610615565b50505b505050565b81516001600160401b0381111561064957610649610396565b61065d8161065784546105ac565b846105e4565b6020601f82116001811461068f575f83156106785750848201515b5f19600385901b1c1916600184901b178455610628565b5f84815260208120601f198516915b828110156106be578785015182556020948501946001909201910161069e565b50848210156106db57868401515f19600387901b60f8161c191681555b50505050600190811b01905550565b5f602082840312156106fa575f5ffd5b6105a58261045c565b60805161255661073e5f395f81816103e70152818161055501528181610919015281816109760152818161113a015261180301526125565ff3fe608060405234801561000f575f5ffd5b50600436106101fd575f3560e01c8063780469bb11610114578063c38a6f0b116100a9578063dbd5edc711610079578063dbd5edc71461041c578063e8f9438f14610424578063ebc136d01461042d578063ebf3113114610440578063f7e533ec14610448575f5ffd5b8063c38a6f0b146103ba578063c3f909d4146103cd578063c9c667e3146103e2578063ce5c7f6114610409575f5ffd5b80638a8b9976116100e45780638a8b99761461038f57806392f5e83214610397578063ad5a356f146103aa578063bdcdd882146103b2575f5ffd5b8063780469bb1461033557806379502c55146103565780637aaceb9514610374578063866512031461037c575f5ffd5b806337270936116101955780635a77606b116101655780635a77606b146102645780635b0f83f3146102ff57806361d027b31461030757806361f5cd8b1461030f57806369b3054b14610322575f5ffd5b806337270936146102b757806338d52e0f146102c85780634cfe8d1a146102d95780634fc7fac3146102ec575f5ffd5b806326224c64116101d057806326224c64146102665780632db6d39914610285578063303dbaf3146102985780633194549e146102af575f5ffd5b806301e1d1141461020157806306fdde031461021c578063117d8ae01461023157806313c408f814610251575b5f5ffd5b610209610450565b6040519081526020015b60405180910390f35b6102246104bf565b6040516102139190611dec565b610239610552565b6040516001600160a01b039091168152602001610213565b61026461025f366004611e43565b6105d3565b005b610209610274366004611ea2565b600c6020525f908152604090205481565b610264610293366004611e43565b6106a6565b60095460ff165b6040519015158152602001610213565b600554610209565b6001546001600160a01b0316610239565b6003546001600160a01b0316610239565b6102646102e7366004611ebd565b600b55565b6102646102fa366004611ebd565b6108c6565b610239610916565b610239610973565b61026461031d366004611ebd565b6109d0565b610209610330366004611ed4565b610a17565b610348610343366004611f53565b610a4a565b604051610213929190612007565b61035e610fe0565b6040516102139a99989796959493929190612090565b610239611137565b61026461038a366004611ebd565b611194565b6102646111db565b6102646103a5366004611ebd565b611238565b600654610209565b600a54610209565b6102646103c8366004612107565b61127f565b6103d56113da565b6040516102139190612192565b6102397f000000000000000000000000000000000000000000000000000000000000000081565b610348610417366004612263565b6115d3565b600454610209565b610209600b5481565b61029f61043b366004611ea2565b6116cd565b6102646117ae565b610239611800565b6003546040516370a0823160e01b81523060048201525f916001600160a01b0316906370a0823190602401602060405180830381865afa158015610496573d5f5f3e3d5ffd5b505050506040513d601f19601f820116820180604052508101906104ba91906122a2565b905090565b6060600160060180546104d1906122b9565b80601f01602080910402602001604051908101604052809291908181526020018280546104fd906122b9565b80156105485780601f1061051f57610100808354040283529160200191610548565b820191905f5260205f20905b81548152906001019060200180831161052b57829003601f168201915b5050505050905090565b5f7f00000000000000000000000000000000000000000000000000000000000000006001600160a01b031663117d8ae06040518163ffffffff1660e01b8152600401602060405180830381865afa1580156105af573d5f5f3e3d5ffd5b505050506040513d601f19601f820116820180604052508101906104ba91906122f1565b6105db61185d565b61060b57335b604051631564c0e160e11b81526001600160a01b0390911660048201526024015b60405180910390fd5b6106136118e6565b818161061f8282611953565b61062982826119b5565b336106358686866119d6565b60035461064c906001600160a01b03168288611a53565b600354604080516001600160a01b03928316815260208101899052918316917fd5e872c5ecfb1bb8820b2e6a20e31b883682282da886621541f71e31ec11947e910160405180910390a25050506106a1611ab2565b505050565b6106ae6118e6565b306001600160a01b031663372709366040518163ffffffff1660e01b8152600401602060405180830381865afa1580156106ea573d5f5f3e3d5ffd5b505050506040513d601f19601f8201168201806040525081019061070e91906122f1565b61071661185d565b610835575f3390505f306001600160a01b031663117d8ae06040518163ffffffff1660e01b8152600401602060405180830381865afa15801561075b573d5f5f3e3d5ffd5b505050506040513d601f19601f8201168201806040525081019061077f91906122f1565b6001600160a01b0316826001600160a01b0316149050806108325760405163d25dd10160e01b81526001600160a01b0383811660048301525f919085169063d25dd10190602401602060405180830381865afa1580156107e1573d5f5f3e3d5ffd5b505050506040513d601f19601f82011682018060405250810190610805919061230c565b90508061083057604051638f7a567d60e01b81526001600160a01b0384166004820152602401610602565b505b50505b82826108418282611953565b61084b8282611adc565b6003543390610865906001600160a01b031682308a611afd565b610870878787611b3c565b600354604080516001600160a01b039283168152602081018a9052918316917fcbaa1442ac205415c9d69643e7b60ec73d1de35dbc807c21ec288c70ddc4207b910160405180910390a2505050506106a1611ab2565b6108ce61185d565b6108d857336105e1565b600a8190556040518181527fd3c6d0ab315f2f1352f036cd9f401b49e38e1b90907e195225e8105f9a0b6f02906020015b60405180910390a150565b565b5f7f00000000000000000000000000000000000000000000000000000000000000006001600160a01b0316635b0f83f36040518163ffffffff1660e01b8152600401602060405180830381865afa1580156105af573d5f5f3e3d5ffd5b5f7f00000000000000000000000000000000000000000000000000000000000000006001600160a01b03166361d027b36040518163ffffffff1660e01b8152600401602060405180830381865afa1580156105af573d5f5f3e3d5ffd5b6109d861185d565b6109e257336105e1565b60058190556040518181527ffbe2d5c01ea8ba5596d6c4e6c82c6d4a0a0ee1128689993a4a5ba0169273d69f90602001610909565b5f8282604051602001610a2b92919061232b565b6040516020818303038152906040528051906020012090505b92915050565b606080306001600160a01b031663117d8ae06040518163ffffffff1660e01b8152600401602060405180830381865afa158015610a89573d5f5f3e3d5ffd5b505050506040513d601f19601f82011682018060405250810190610aad91906122f1565b6001600160a01b0316336001600160a01b031614610aec57335b604051631184b31b60e21b81526001600160a01b039091166004820152602401610602565b610af46118e6565b825167ffffffffffffffff811115610b0e57610b0e611f0e565b604051908082528060200260200182016040528015610b37578160200160208202803683370190505b509150825167ffffffffffffffff811115610b5457610b54611f0e565b604051908082528060200260200182016040528015610b7d578160200160208202803683370190505b506003546040516370a0823160e01b81523060048201529192505f916001600160a01b03909116906370a0823190602401602060405180830381865afa158015610bc9573d5f5f3e3d5ffd5b505050506040513d601f19601f82011682018060405250810190610bed91906122a2565b1115610db157600154604080516330fe427560e21b815290515f926001600160a01b03169163c3f909d49160048083019260a09291908290030181865afa158015610c3a573d5f5f3e3d5ffd5b505050506040513d601f19601f82011682018060405250810190610c5e919061236e565b516003546040516370a0823160e01b8152306004820152919250610ce39183916001600160a01b0316906370a0823190602401602060405180830381865afa158015610cac573d5f5f3e3d5ffd5b505050506040513d601f19601f82011682018060405250810190610cd091906122a2565b6003546001600160a01b03169190611b5a565b6003546040516370a0823160e01b81523060048201526001600160a01b0383811692632db6d399929116906370a0823190602401602060405180830381865afa158015610d32573d5f5f3e3d5ffd5b505050506040513d601f19601f82011682018060405250810190610d5691906122a2565b60405180602001604052805f8152506040518363ffffffff1660e01b8152600401610d829291906123eb565b5f604051808303815f87803b158015610d99575f5ffd5b505af1158015610dab573d5f5f3e3d5ffd5b50505050505b5f5b8351811015610f7f575f848281518110610dcf57610dcf61240b565b60209081029190910101516040516370a0823160e01b81523060048201526001600160a01b03909116906370a0823190602401602060405180830381865afa158015610e1d573d5f5f3e3d5ffd5b505050506040513d601f19601f82011682018060405250810190610e4191906122a2565b90508015610f7657610f0a610e54610552565b868481518110610e6657610e6661240b565b60209081029190910101516040516370a0823160e01b81523060048201526001600160a01b03909116906370a0823190602401602060405180830381865afa158015610eb4573d5f5f3e3d5ffd5b505050506040513d601f19601f82011682018060405250810190610ed891906122a2565b878581518110610eea57610eea61240b565b60200260200101516001600160a01b0316611a539092919063ffffffff16565b848281518110610f1c57610f1c61240b565b6020026020010151848381518110610f3657610f3661240b565b60200260200101906001600160a01b031690816001600160a01b03168152505080838381518110610f6957610f6961240b565b6020026020010181815250505b50600101610db3565b5080604051610f8e919061241f565b604051809103902082604051610fa49190612454565b604051908190038120907f46b8771620f6acf56cb03d3e835ea8024c7dcbcf05fcc3f6ade9e19d1a3e212b905f90a3610fdb611ab2565b915091565b60018054600254600354600454600554600654600780546001600160a01b0397881698968816979095169593949293919261101a906122b9565b80601f0160208091040260200160405190810160405280929190818152602001828054611046906122b9565b80156110915780601f1061106857610100808354040283529160200191611091565b820191905f5260205f20905b81548152906001019060200180831161107457829003601f168201915b5050505050908060070180546110a6906122b9565b80601f01602080910402602001604051908101604052809291908181526020018280546110d2906122b9565b801561111d5780601f106110f45761010080835404028352916020019161111d565b820191905f5260205f20905b81548152906001019060200180831161110057829003601f168201915b505050506008830154600990930154919260ff169190508a565b5f7f00000000000000000000000000000000000000000000000000000000000000006001600160a01b0316637aaceb956040518163ffffffff1660e01b8152600401602060405180830381865afa1580156105af573d5f5f3e3d5ffd5b61119c61185d565b6111a657336105e1565b60048190556040518181527f333b26cca69716ad4680ddb07663f5bfb4f06045671f336af9a83690a3ae00f990602001610909565b6111e361185d565b6111ed57336105e1565b600180546001600160a01b031916339081179091556040519081527f55489ce0259bd691120d8860861be1c401c7c16a3cd268d21045756af4ecc5ca906020015b60405180910390a1565b61124061185d565b61124a57336105e1565b60068190556040518181527fb6ac66853c4e59c71e118d25ab494bb847c4e5eb0c8894898c5343e6f61afc1290602001610909565b61128761185d565b61129157336105e1565b818161129d8282611953565b6112a782826119b5565b6112b28885856119d6565b60035460405163095ea7b360e01b81526001600160a01b038981166004830152602482018b90529091169063095ea7b3906044016020604051808303815f875af1158015611302573d5f5f3e3d5ffd5b505050506040513d601f19601f82011682018060405250810190611326919061230c565b50604051632db6d39960e01b81526001600160a01b03881690632db6d39990611357908b908a908a90600401612487565b5f604051808303815f87803b15801561136e575f5ffd5b505af1158015611380573d5f5f3e3d5ffd5b5050600354604080516001600160a01b039283168152602081018d9052918b1693503092507f9f784fc02a186f1c98b2d9f15fda084da27cdd291a3785d978f91911d880516b910160405180910390a35050505050505050565b6114456040518061014001604052805f6001600160a01b031681526020015f6001600160a01b031681526020015f6001600160a01b031681526020015f81526020015f81526020015f815260200160608152602001606081526020015f151581526020015f81525090565b6040805161014081018252600180546001600160a01b0390811683526002548116602084015260035416928201929092526004546060820152600554608082015260065460a08201526007805491929160c0840191906114a4906122b9565b80601f01602080910402602001604051908101604052809291908181526020018280546114d0906122b9565b801561151b5780601f106114f25761010080835404028352916020019161151b565b820191905f5260205f20905b8154815290600101906020018083116114fe57829003601f168201915b50505050508152602001600782018054611534906122b9565b80601f0160208091040260200160405190810160405280929190818152602001828054611560906122b9565b80156115ab5780601f10611582576101008083540402835291602001916115ab565b820191905f5260205f20905b81548152906001019060200180831161158e57829003601f168201915b5050509183525050600882015460ff1615156020820152600990910154604090910152919050565b606080306001600160a01b031663117d8ae06040518163ffffffff1660e01b8152600401602060405180830381865afa158015611612573d5f5f3e3d5ffd5b505050506040513d601f19601f8201168201806040525081019061163691906122f1565b6001600160a01b0316336001600160a01b0316146116545733610ac7565b61165c6118e6565b6116668484611be9565b604051919350915061167990829061241f565b60405180910390208260405161168f9190612454565b604051908190038120907f3e3e7958121b3e39c7a49392d1aa9cdce870c2a059744f9e15cf66fff7865455905f90a36116c6611ab2565b9250929050565b5f80546040805163a89f38a360e01b815290516001600160a01b03909216916391d1485491839163a89f38a3916004808201926020929091908290030181865afa15801561171d573d5f5f3e3d5ffd5b505050506040513d601f19601f8201168201806040525081019061174191906122a2565b6040516001600160e01b031960e084901b16815260048101919091526001600160a01b0385166024820152604401602060405180830381865afa15801561178a573d5f5f3e3d5ffd5b505050506040513d601f19601f82011682018060405250810190610a44919061230c565b6117b661185d565b6117c057336105e1565b600180546001600160a01b03191690556040513381527f7cb941d7b1708e5b3bcd35ca960d6c6311188cec18886e5b67630552676b04879060200161122e565b5f7f00000000000000000000000000000000000000000000000000000000000000006001600160a01b031663f7e533ec6040518163ffffffff1660e01b8152600401602060405180830381865afa1580156105af573d5f5f3e3d5ffd5b5f80546001600160a01b03166391d14854611879600230610a17565b336040516001600160e01b031960e085901b16815260048101929092526001600160a01b03166024820152604401602060405180830381865afa1580156118c2573d5f5f3e3d5ffd5b505050506040513d601f19601f820116820180604052508101906104ba919061230c565b7f9b779b17422d0df92223018b32b4d1fa46e071723d6817e2486d003becc55f005c1561192657604051633ee5aeb560e01b815260040160405180910390fd5b61091460017f9b779b17422d0df92223018b32b4d1fa46e071723d6817e2486d003becc55f005b90611d02565b8015801590611965575060095460ff16155b1561198357604051630cd0fdf960e01b815260040160405180910390fd5b80158015611993575060095460ff165b156119b15760405163332863a960e11b815260040160405180910390fd5b5050565b602081146119b1576040516337f9e5c360e11b815260040160405180910390fd5b335f908152600c6020526040902054831115611a2b5760405162461bcd60e51b8152602060048201526014602482015273496e73756666696369656e742062616c616e636560601b6044820152606401610602565b335f908152600c602052604081208054859290611a499084906124d0565b9091555050505050565b6040516001600160a01b038381166024830152604482018390526106a191859182169063a9059cbb906064015b604051602081830303815290604052915060e01b6020820180516001600160e01b038381831617835250505050611d09565b6109145f7f9b779b17422d0df92223018b32b4d1fa46e071723d6817e2486d003becc55f0061194d565b602081146119b157604051635daa61c760e01b815260040160405180910390fd5b6040516001600160a01b038481166024830152838116604483015260648201839052611b369186918216906323b872dd90608401611a80565b50505050565b335f908152600c602052604081208054859290611a499084906124e3565b604080516001600160a01b038416602482015260448082018490528251808303909101815260649091019091526020810180516001600160e01b031663095ea7b360e01b179052611bab8482611d75565b611b36576040516001600160a01b0384811660248301525f6044830152611bdf91869182169063095ea7b390606401611a80565b611b368482611d09565b606080611bf8838501856124f6565b835f81518110611c0a57611c0a61240b565b60200260200101835f81518110611c2357611c2361240b565b6020026020010182815250826001600160a01b03166001600160a01b03168152505050815f81518110611c5857611c5861240b565b60200260200101516001600160a01b031663a9059cbb33835f81518110611c8157611c8161240b565b60200260200101516040518363ffffffff1660e01b8152600401611cba9291906001600160a01b03929092168252602082015260400190565b6020604051808303815f875af1158015611cd6573d5f5f3e3d5ffd5b505050506040513d601f19601f82011682018060405250810190611cfa919061230c565b509250929050565b80825d5050565b5f5f60205f8451602086015f885af180611d28576040513d5f823e3d81fd5b50505f513d91508115611d3f578060011415611d4c565b6001600160a01b0384163b155b15611b3657604051635274afe760e01b81526001600160a01b0385166004820152602401610602565b5f5f5f5f60205f8651602088015f8a5af192503d91505f519050828015611db457508115611da65780600114611db4565b5f866001600160a01b03163b115b9695505050505050565b5f81518084528060208401602086015e5f602082860101526020601f19601f83011685010191505092915050565b602081525f611dfe6020830184611dbe565b9392505050565b5f5f83601f840112611e15575f5ffd5b50813567ffffffffffffffff811115611e2c575f5ffd5b6020830191508360208285010111156116c6575f5ffd5b5f5f5f60408486031215611e55575f5ffd5b83359250602084013567ffffffffffffffff811115611e72575f5ffd5b611e7e86828701611e05565b9497909650939450505050565b6001600160a01b0381168114611e9f575f5ffd5b50565b5f60208284031215611eb2575f5ffd5b8135611dfe81611e8b565b5f60208284031215611ecd575f5ffd5b5035919050565b5f5f60408385031215611ee5575f5ffd5b823560038110611ef3575f5ffd5b91506020830135611f0381611e8b565b809150509250929050565b634e487b7160e01b5f52604160045260245ffd5b604051601f8201601f1916810167ffffffffffffffff81118282101715611f4b57611f4b611f0e565b604052919050565b5f60208284031215611f63575f5ffd5b813567ffffffffffffffff811115611f79575f5ffd5b8201601f81018413611f89575f5ffd5b803567ffffffffffffffff811115611fa357611fa3611f0e565b8060051b611fb360208201611f22565b91825260208184018101929081019087841115611fce575f5ffd5b6020850194505b83851015611ffc5784359250611fea83611e8b565b82825260209485019490910190611fd5565b979650505050505050565b604080825283519082018190525f9060208501906060840190835b818110156120495783516001600160a01b0316835260209384019390920191600101612022565b5050838103602080860191909152855180835291810192508501905f5b81811015612084578251845260209384019390920191600101612066565b50919695505050505050565b6001600160a01b038b811682528a8116602083015289166040820152606081018890526080810187905260a0810186905261014060c082018190525f906120d990830187611dbe565b82810360e08401526120eb8187611dbe565b9415156101008401525050610120015298975050505050505050565b5f5f5f5f5f5f6080878903121561211c575f5ffd5b86359550602087013561212e81611e8b565b9450604087013567ffffffffffffffff811115612149575f5ffd5b61215589828a01611e05565b909550935050606087013567ffffffffffffffff811115612174575f5ffd5b61218089828a01611e05565b979a9699509497509295939492505050565b602081526121ac6020820183516001600160a01b03169052565b5f60208301516121c760408401826001600160a01b03169052565b5060408301516001600160a01b03811660608401525060608301516080830152608083015160a083015260a083015160c083015260c083015161014060e0840152612216610160840182611dbe565b905060e0840151601f19848303016101008501526122348282611dbe565b91505061010084015161224c61012085018215159052565b506101208401516101408401528091505092915050565b5f5f60208385031215612274575f5ffd5b823567ffffffffffffffff81111561228a575f5ffd5b61229685828601611e05565b90969095509350505050565b5f602082840312156122b2575f5ffd5b5051919050565b600181811c908216806122cd57607f821691505b6020821081036122eb57634e487b7160e01b5f52602260045260245ffd5b50919050565b5f60208284031215612301575f5ffd5b8151611dfe81611e8b565b5f6020828403121561231c575f5ffd5b81518015158114611dfe575f5ffd5b5f6003841061234857634e487b7160e01b5f52602160045260245ffd5b5060f89290921b825260601b6bffffffffffffffffffffffff1916600182015260150190565b5f60a082840312801561237f575f5ffd5b5060405160a0810167ffffffffffffffff811182821017156123a3576123a3611f0e565b60405282516123b181611e8b565b815260208381015190820152604080840151908201526060808401519082015260808301516123df81611e8b565b60808201529392505050565b828152604060208201525f6124036040830184611dbe565b949350505050565b634e487b7160e01b5f52603260045260245ffd5b81515f90829060208501835b8281101561244957815184526020938401939091019060010161242b565b509195945050505050565b81515f90829060208501835b828110156124495781516001600160a01b0316845260209384019390910190600101612460565b83815260406020820152816040820152818360608301375f818301606090810191909152601f909201601f1916010192915050565b634e487b7160e01b5f52601160045260245ffd5b81810381811115610a4457610a446124bc565b80820180821115610a4457610a446124bc565b5f5f60408385031215612507575f5ffd5b823561251281611e8b565b94602093909301359350505056fea26469706673582212208171c73b84cd1ff590d666bb6661bc3bfdb036799d6c65e478bbb454f76b6d1564736f6c634300081c0033","linkReferences":{}},"methodIdentifiers":{"asset()":"38d52e0f","board(uint256,bytes)":"2db6d399","commander()":"37270936","config()":"79502c55","configurationManager()":"c9c667e3","depositCap()":"dbd5edc7","disembark(uint256,bytes)":"13c408f8","fleetCommanderRewardsManagerFactory()":"f7e533ec","generateRole(uint8,address)":"69b3054b","getConfig()":"c3f909d4","harborCommand()":"5b0f83f3","harvest(bytes)":"ce5c7f61","hasAdmiralsQuartersRole(address)":"ebc136d0","maxDepositPercentageOfTVL()":"bdcdd882","maxRebalanceInflow()":"ad5a356f","maxRebalanceOutflow()":"3194549e","mockRate()":"e8f9438f","move(uint256,address,bytes,bytes)":"c38a6f0b","name()":"06fdde03","raft()":"117d8ae0","registerFleetCommander()":"8a8b9976","requiresKeeperData()":"303dbaf3","setDepositCap(uint256)":"86651203","setMaxDepositPercentageOfTVL(uint256)":"4fc7fac3","setMaxRebalanceInflow(uint256)":"92f5e832","setMaxRebalanceOutflow(uint256)":"61f5cd8b","setMockRate(uint256)":"4cfe8d1a","sweep(address[])":"780469bb","testSkipper()":"5a77606b","tipJar()":"7aaceb95","totalAssets()":"01e1d114","treasury()":"61d027b3","unregisterFleetCommander()":"ebf31131","userBalances(address)":"26224c64"},"id":328}