{"abi":[{"type":"constructor","inputs":[{"name":"_params","type":"tuple","internalType":"struct ArkParams","components":[{"name":"name","type":"string","internalType":"string"},{"name":"accessManager","type":"address","internalType":"address"},{"name":"configurationManager","type":"address","internalType":"address"},{"name":"token","type":"address","internalType":"address"},{"name":"depositCap","type":"uint256","internalType":"uint256"},{"name":"maxRebalanceOutflow","type":"uint256","internalType":"uint256"},{"name":"maxRebalanceInflow","type":"uint256","internalType":"uint256"},{"name":"requiresKeeperData","type":"bool","internalType":"bool"},{"name":"maxDepositPercentageOfTVL","type":"uint256","internalType":"Percentage"}]}],"stateMutability":"nonpayable"},{"type":"function","name":"board","inputs":[{"name":"amount","type":"uint256","internalType":"uint256"},{"name":"boardData","type":"bytes","internalType":"bytes"}],"outputs":[],"stateMutability":"nonpayable"},{"type":"function","name":"commander","inputs":[],"outputs":[{"name":"","type":"address","internalType":"address"}],"stateMutability":"view"},{"type":"function","name":"config","inputs":[],"outputs":[{"name":"commander","type":"address","internalType":"address"},{"name":"raft","type":"address","internalType":"address"},{"name":"token","type":"address","internalType":"contract IERC20"},{"name":"depositCap","type":"uint256","internalType":"uint256"},{"name":"maxRebalanceOutflow","type":"uint256","internalType":"uint256"},{"name":"maxRebalanceInflow","type":"uint256","internalType":"uint256"},{"name":"name","type":"string","internalType":"string"},{"name":"requiresKeeperData","type":"bool","internalType":"bool"},{"name":"maxDepositPercentageOfTVL","type":"uint256","internalType":"Percentage"}],"stateMutability":"view"},{"type":"function","name":"configurationManager","inputs":[],"outputs":[{"name":"","type":"address","internalType":"contract IConfigurationManager"}],"stateMutability":"view"},{"type":"function","name":"depositCap","inputs":[],"outputs":[{"name":"","type":"uint256","internalType":"uint256"}],"stateMutability":"view"},{"type":"function","name":"disembark","inputs":[{"name":"amount","type":"uint256","internalType":"uint256"},{"name":"disembarkData","type":"bytes","internalType":"bytes"}],"outputs":[],"stateMutability":"nonpayable"},{"type":"function","name":"generateRole","inputs":[{"name":"roleName","type":"uint8","internalType":"enum ContractSpecificRoles"},{"name":"roleTargetContract","type":"address","internalType":"address"}],"outputs":[{"name":"","type":"bytes32","internalType":"bytes32"}],"stateMutability":"pure"},{"type":"function","name":"getConfig","inputs":[],"outputs":[{"name":"","type":"tuple","internalType":"struct ArkConfig","components":[{"name":"commander","type":"address","internalType":"address"},{"name":"raft","type":"address","internalType":"address"},{"name":"token","type":"address","internalType":"contract IERC20"},{"name":"depositCap","type":"uint256","internalType":"uint256"},{"name":"maxRebalanceOutflow","type":"uint256","internalType":"uint256"},{"name":"maxRebalanceInflow","type":"uint256","internalType":"uint256"},{"name":"name","type":"string","internalType":"string"},{"name":"requiresKeeperData","type":"bool","internalType":"bool"},{"name":"maxDepositPercentageOfTVL","type":"uint256","internalType":"Percentage"}]}],"stateMutability":"view"},{"type":"function","name":"harborCommand","inputs":[],"outputs":[{"name":"","type":"address","internalType":"address"}],"stateMutability":"view"},{"type":"function","name":"harvest","inputs":[{"name":"additionalData","type":"bytes","internalType":"bytes"}],"outputs":[{"name":"rewardTokens","type":"address[]","internalType":"address[]"},{"name":"rewardAmounts","type":"uint256[]","internalType":"uint256[]"}],"stateMutability":"nonpayable"},{"type":"function","name":"maxDepositPercentageOfTVL","inputs":[],"outputs":[{"name":"","type":"uint256","internalType":"Percentage"}],"stateMutability":"view"},{"type":"function","name":"maxRebalanceInflow","inputs":[],"outputs":[{"name":"","type":"uint256","internalType":"uint256"}],"stateMutability":"view"},{"type":"function","name":"maxRebalanceOutflow","inputs":[],"outputs":[{"name":"","type":"uint256","internalType":"uint256"}],"stateMutability":"view"},{"type":"function","name":"mockRate","inputs":[],"outputs":[{"name":"","type":"uint256","internalType":"uint256"}],"stateMutability":"view"},{"type":"function","name":"move","inputs":[{"name":"amount","type":"uint256","internalType":"uint256"},{"name":"receiverArk","type":"address","internalType":"address"},{"name":"boardData","type":"bytes","internalType":"bytes"},{"name":"disembarkData","type":"bytes","internalType":"bytes"}],"outputs":[],"stateMutability":"nonpayable"},{"type":"function","name":"name","inputs":[],"outputs":[{"name":"","type":"string","internalType":"string"}],"stateMutability":"view"},{"type":"function","name":"raft","inputs":[],"outputs":[{"name":"","type":"address","internalType":"address"}],"stateMutability":"view"},{"type":"function","name":"registerFleetCommander","inputs":[],"outputs":[],"stateMutability":"nonpayable"},{"type":"function","name":"requiresKeeperData","inputs":[],"outputs":[{"name":"","type":"bool","internalType":"bool"}],"stateMutability":"view"},{"type":"function","name":"setDepositCap","inputs":[{"name":"newDepositCap","type":"uint256","internalType":"uint256"}],"outputs":[],"stateMutability":"nonpayable"},{"type":"function","name":"setMaxDepositPercentageOfTVL","inputs":[{"name":"newMaxDepositPercentageOfTVL","type":"uint256","internalType":"Percentage"}],"outputs":[],"stateMutability":"nonpayable"},{"type":"function","name":"setMaxRebalanceInflow","inputs":[{"name":"newMaxRebalanceInflow","type":"uint256","internalType":"uint256"}],"outputs":[],"stateMutability":"nonpayable"},{"type":"function","name":"setMaxRebalanceOutflow","inputs":[{"name":"newMaxRebalanceOutflow","type":"uint256","internalType":"uint256"}],"outputs":[],"stateMutability":"nonpayable"},{"type":"function","name":"setMockRate","inputs":[{"name":"_rate","type":"uint256","internalType":"uint256"}],"outputs":[],"stateMutability":"nonpayable"},{"type":"function","name":"sweep","inputs":[{"name":"tokens","type":"address[]","internalType":"address[]"}],"outputs":[{"name":"sweptTokens","type":"address[]","internalType":"address[]"},{"name":"sweptAmounts","type":"uint256[]","internalType":"uint256[]"}],"stateMutability":"nonpayable"},{"type":"function","name":"testSkipper","inputs":[],"outputs":[],"stateMutability":"nonpayable"},{"type":"function","name":"tipJar","inputs":[],"outputs":[{"name":"","type":"address","internalType":"address"}],"stateMutability":"view"},{"type":"function","name":"token","inputs":[],"outputs":[{"name":"","type":"address","internalType":"contract IERC20"}],"stateMutability":"view"},{"type":"function","name":"totalAssets","inputs":[],"outputs":[{"name":"","type":"uint256","internalType":"uint256"}],"stateMutability":"view"},{"type":"function","name":"treasury","inputs":[],"outputs":[{"name":"","type":"address","internalType":"address"}],"stateMutability":"view"},{"type":"function","name":"unregisterFleetCommander","inputs":[],"outputs":[],"stateMutability":"nonpayable"},{"type":"function","name":"userBalances","inputs":[{"name":"","type":"address","internalType":"address"}],"outputs":[{"name":"","type":"uint256","internalType":"uint256"}],"stateMutability":"view"},{"type":"event","name":"ArkHarvested","inputs":[{"name":"rewardTokens","type":"address[]","indexed":true,"internalType":"address[]"},{"name":"rewardAmounts","type":"uint256[]","indexed":true,"internalType":"uint256[]"}],"anonymous":false},{"type":"event","name":"ArkPoked","inputs":[{"name":"currentPrice","type":"uint256","indexed":false,"internalType":"uint256"},{"name":"timestamp","type":"uint256","indexed":false,"internalType":"uint256"}],"anonymous":false},{"type":"event","name":"ArkSwept","inputs":[{"name":"sweptTokens","type":"address[]","indexed":true,"internalType":"address[]"},{"name":"sweptAmounts","type":"uint256[]","indexed":true,"internalType":"uint256[]"}],"anonymous":false},{"type":"event","name":"Boarded","inputs":[{"name":"commander","type":"address","indexed":true,"internalType":"address"},{"name":"token","type":"address","indexed":false,"internalType":"address"},{"name":"amount","type":"uint256","indexed":false,"internalType":"uint256"}],"anonymous":false},{"type":"event","name":"DepositCapUpdated","inputs":[{"name":"newCap","type":"uint256","indexed":false,"internalType":"uint256"}],"anonymous":false},{"type":"event","name":"Disembarked","inputs":[{"name":"commander","type":"address","indexed":true,"internalType":"address"},{"name":"token","type":"address","indexed":false,"internalType":"address"},{"name":"amount","type":"uint256","indexed":false,"internalType":"uint256"}],"anonymous":false},{"type":"event","name":"FleetCommanderRegistered","inputs":[{"name":"commander","type":"address","indexed":false,"internalType":"address"}],"anonymous":false},{"type":"event","name":"FleetCommanderUnregistered","inputs":[{"name":"commander","type":"address","indexed":false,"internalType":"address"}],"anonymous":false},{"type":"event","name":"MaxDepositPercentageOfTVLUpdated","inputs":[{"name":"newMaxDepositPercentageOfTVL","type":"uint256","indexed":false,"internalType":"Percentage"}],"anonymous":false},{"type":"event","name":"MaxRebalanceInflowUpdated","inputs":[{"name":"newMaxInflow","type":"uint256","indexed":false,"internalType":"uint256"}],"anonymous":false},{"type":"event","name":"MaxRebalanceOutflowUpdated","inputs":[{"name":"newMaxOutflow","type":"uint256","indexed":false,"internalType":"uint256"}],"anonymous":false},{"type":"event","name":"Moved","inputs":[{"name":"from","type":"address","indexed":true,"internalType":"address"},{"name":"to","type":"address","indexed":true,"internalType":"address"},{"name":"token","type":"address","indexed":false,"internalType":"address"},{"name":"amount","type":"uint256","indexed":false,"internalType":"uint256"}],"anonymous":false},{"type":"event","name":"RaftUpdated","inputs":[{"name":"newRaft","type":"address","indexed":false,"internalType":"address"}],"anonymous":false},{"type":"error","name":"CallerIsNotAdmin","inputs":[{"name":"caller","type":"address","internalType":"address"}]},{"type":"error","name":"CallerIsNotAuthorizedToBoard","inputs":[{"name":"caller","type":"address","internalType":"address"}]},{"type":"error","name":"CallerIsNotCommander","inputs":[{"name":"caller","type":"address","internalType":"address"}]},{"type":"error","name":"CallerIsNotContractSpecificRole","inputs":[{"name":"caller","type":"address","internalType":"address"},{"name":"role","type":"bytes32","internalType":"bytes32"}]},{"type":"error","name":"CallerIsNotCurator","inputs":[{"name":"caller","type":"address","internalType":"address"}]},{"type":"error","name":"CallerIsNotGovernor","inputs":[{"name":"caller","type":"address","internalType":"address"}]},{"type":"error","name":"CallerIsNotGuardian","inputs":[{"name":"caller","type":"address","internalType":"address"}]},{"type":"error","name":"CallerIsNotGuardianOrGovernor","inputs":[{"name":"caller","type":"address","internalType":"address"}]},{"type":"error","name":"CallerIsNotKeeper","inputs":[{"name":"caller","type":"address","internalType":"address"}]},{"type":"error","name":"CallerIsNotRaft","inputs":[{"name":"caller","type":"address","internalType":"address"}]},{"type":"error","name":"CallerIsNotRaftOrCommander","inputs":[{"name":"caller","type":"address","internalType":"address"}]},{"type":"error","name":"CallerIsNotSuperKeeper","inputs":[{"name":"caller","type":"address","internalType":"address"}]},{"type":"error","name":"CannotAddCommanderToArkWithCommander","inputs":[]},{"type":"error","name":"CannotDeployArkWithEmptyName","inputs":[]},{"type":"error","name":"CannotDeployArkWithoutConfigurationManager","inputs":[]},{"type":"error","name":"CannotDeployArkWithoutRaft","inputs":[]},{"type":"error","name":"CannotDeployArkWithoutToken","inputs":[]},{"type":"error","name":"CannotRemoveCommanderFromArkWithAssets","inputs":[]},{"type":"error","name":"CannotUseKeeperDataWhenNotRequired","inputs":[]},{"type":"error","name":"ConfigurationManagerZeroAddress","inputs":[]},{"type":"error","name":"DirectGrantIsDisabled","inputs":[{"name":"caller","type":"address","internalType":"address"}]},{"type":"error","name":"DirectRevokeIsDisabled","inputs":[{"name":"caller","type":"address","internalType":"address"}]},{"type":"error","name":"ERC4626AssetMismatch","inputs":[]},{"type":"error","name":"InvalidAccessManagerAddress","inputs":[{"name":"invalidAddress","type":"address","internalType":"address"}]},{"type":"error","name":"InvalidBoardData","inputs":[]},{"type":"error","name":"InvalidDisembarkData","inputs":[]},{"type":"error","name":"InvalidVaultAddress","inputs":[]},{"type":"error","name":"KeeperDataRequired","inputs":[]},{"type":"error","name":"ReentrancyGuardReentrantCall","inputs":[]},{"type":"error","name":"SafeERC20FailedOperation","inputs":[{"name":"token","type":"address","internalType":"address"}]}],"bytecode":{"object":"0x60a060405234801561000f575f5ffd5b5060405161295538038061295583398101604081905261002e91610460565b6040810151602082015182918291806001600160a01b03811661006b576040516347bd7c1d60e01b81525f60048201526024015b60405180910390fd5b6040516301ffc9a760e01b815263fe1a291f60e01b60048201526001600160a01b038216906301ffc9a790602401602060405180830381865afa1580156100b4573d5f5f3e3d5ffd5b505050506040513d601f19601f820116820180604052508101906100d8919061053a565b610100576040516347bd7c1d60e01b81526001600160a01b0382166004820152602401610062565b5f80546001600160a01b0319166001600160a01b039283161790558216905061013c5760405163f1634df960e01b815260040160405180910390fd5b6001600160a01b0390811660805260408201511661016d5760405163b53c493160e01b815260040160405180910390fd5b60608101516001600160a01b031661019b576040516001620a810f60e11b0319815260040160405180910390fd5b8051515f036101bd5760405163268c072960e01b815260040160405180910390fd5b5f6101c6610308565b6001600160a01b0316036101ed57604051633a4f9cdb60e21b815260040160405180910390fd5b6040805161012081019091525f815260208101610208610308565b6001600160a01b039081168252606080850151821660208085019190915260808087015160408087019190915260a0808901518588015260c0808a01518489015289518289015260e0808b01511515828a01526101008b01519801979097528751600180549188166001600160a01b03199283161781559489015160028054918916918316919091179055918801516003805491909716921691909117909455918501516004559084015160055590830151600655908201516007906102ce90826105de565b5060e082015160078201805460ff1916911515919091179055610100909101516008909101555050670de0b6b3a7640000600a55506106b1565b5f6080516001600160a01b031663117d8ae06040518163ffffffff1660e01b8152600401602060405180830381865afa158015610347573d5f5f3e3d5ffd5b505050506040513d601f19601f8201168201806040525081019061036b9190610698565b905090565b634e487b7160e01b5f52604160045260245ffd5b60405161012081016001600160401b03811182821017156103a7576103a7610370565b60405290565b5f82601f8301126103bc575f5ffd5b81516001600160401b038111156103d5576103d5610370565b604051601f8201601f19908116603f011681016001600160401b038111828210171561040357610403610370565b60405281815283820160200185101561041a575f5ffd5b8160208501602083015e5f918101602001919091529392505050565b80516001600160a01b038116811461044c575f5ffd5b919050565b8051801515811461044c575f5ffd5b5f60208284031215610470575f5ffd5b81516001600160401b03811115610485575f5ffd5b82016101208185031215610497575f5ffd5b61049f610384565b81516001600160401b038111156104b4575f5ffd5b6104c0868285016103ad565b8252506104cf60208301610436565b60208201526104e060408301610436565b60408201526104f160608301610436565b60608201526080828101519082015260a0808301519082015260c0808301519082015261052060e08301610451565b60e082015261010091820151918101919091529392505050565b5f6020828403121561054a575f5ffd5b61055382610451565b9392505050565b600181811c9082168061056e57607f821691505b60208210810361058c57634e487b7160e01b5f52602260045260245ffd5b50919050565b601f8211156105d957805f5260205f20601f840160051c810160208510156105b75750805b601f840160051c820191505b818110156105d6575f81556001016105c3565b50505b505050565b81516001600160401b038111156105f7576105f7610370565b61060b81610605845461055a565b84610592565b6020601f82116001811461063d575f83156106265750848201515b5f19600385901b1c1916600184901b1784556105d6565b5f84815260208120601f198516915b8281101561066c578785015182556020948501946001909201910161064c565b508482101561068957868401515f19600387901b60f8161c191681555b50505050600190811b01905550565b5f602082840312156106a8575f5ffd5b61055382610436565b6080516122706106e55f395f81816103be01528181610522015281816108e601528181610943015261107b01526122705ff3fe608060405234801561000f575f5ffd5b50600436106101e7575f3560e01c8063780469bb11610109578063c38a6f0b1161009e578063dbd5edc71161006e578063dbd5edc7146103f3578063e8f9438f146103fb578063ebf3113114610404578063fc0c546a1461040c575f5ffd5b8063c38a6f0b14610391578063c3f909d4146103a4578063c9c667e3146103b9578063ce5c7f61146103e0575f5ffd5b80638a8b9976116100d95780638a8b99761461036657806392f5e8321461036e578063ad5a356f14610381578063bdcdd88214610389575f5ffd5b8063780469bb1461030d57806379502c551461032e5780637aaceb951461034b5780638665120314610353575f5ffd5b8063372709361161017f5780635b0f83f31161014f5780635b0f83f3146102d757806361d027b3146102df57806361f5cd8b146102e757806369b3054b146102fa575f5ffd5b806337270936146102a05780634cfe8d1a146102b15780634fc7fac3146102c45780635a77606b1461024e575f5ffd5b806326224c64116101ba57806326224c64146102505780632db6d3991461026f578063303dbaf3146102825780633194549e14610298575f5ffd5b806301e1d114146101eb57806306fdde0314610206578063117d8ae01461021b57806313c408f81461023b575b5f5ffd5b6101f361041d565b6040519081526020015b60405180910390f35b61020e61048c565b6040516101fd9190611b3b565b61022361051f565b6040516001600160a01b0390911681526020016101fd565b61024e610249366004611b92565b6105a0565b005b6101f361025e366004611bf1565b600b6020525f908152604090205481565b61024e61027d366004611b92565b610673565b60085460ff1660405190151581526020016101fd565b6005546101f3565b6001546001600160a01b0316610223565b61024e6102bf366004611c0c565b600a55565b61024e6102d2366004611c0c565b610893565b6102236108e3565b610223610940565b61024e6102f5366004611c0c565b61099d565b6101f3610308366004611c23565b6109e4565b61032061031b366004611ca2565b610a17565b6040516101fd929190611d56565b610336610fad565b6040516101fd99989796959493929190611ddf565b610223611078565b61024e610361366004611c0c565b6110d5565b61024e61111c565b61024e61037c366004611c0c565b611179565b6006546101f3565b6009546101f3565b61024e61039f366004611e41565b6111c0565b6103ac61131b565b6040516101fd9190611ecc565b6102237f000000000000000000000000000000000000000000000000000000000000000081565b6103206103ee366004611f7d565b611460565b6004546101f3565b6101f3600a5481565b61024e61155a565b6003546001600160a01b0316610223565b6003546040516370a0823160e01b81523060048201525f916001600160a01b0316906370a0823190602401602060405180830381865afa158015610463573d5f5f3e3d5ffd5b505050506040513d601f19601f820116820180604052508101906104879190611fbc565b905090565b60606001600601805461049e90611fd3565b80601f01602080910402602001604051908101604052809291908181526020018280546104ca90611fd3565b80156105155780601f106104ec57610100808354040283529160200191610515565b820191905f5260205f20905b8154815290600101906020018083116104f857829003601f168201915b5050505050905090565b5f7f00000000000000000000000000000000000000000000000000000000000000006001600160a01b031663117d8ae06040518163ffffffff1660e01b8152600401602060405180830381865afa15801561057c573d5f5f3e3d5ffd5b505050506040513d601f19601f82011682018060405250810190610487919061200b565b6105a86115ac565b6105d857335b604051631564c0e160e11b81526001600160a01b0390911660048201526024015b60405180910390fd5b6105e0611635565b81816105ec82826116a2565b6105f68282611704565b33610602868686611725565b600354610619906001600160a01b031682886117a2565b600354604080516001600160a01b03928316815260208101899052918316917fd5e872c5ecfb1bb8820b2e6a20e31b883682282da886621541f71e31ec11947e910160405180910390a250505061066e611801565b505050565b61067b611635565b306001600160a01b031663372709366040518163ffffffff1660e01b8152600401602060405180830381865afa1580156106b7573d5f5f3e3d5ffd5b505050506040513d601f19601f820116820180604052508101906106db919061200b565b6106e36115ac565b610802575f3390505f306001600160a01b031663117d8ae06040518163ffffffff1660e01b8152600401602060405180830381865afa158015610728573d5f5f3e3d5ffd5b505050506040513d601f19601f8201168201806040525081019061074c919061200b565b6001600160a01b0316826001600160a01b0316149050806107ff5760405163d25dd10160e01b81526001600160a01b0383811660048301525f919085169063d25dd10190602401602060405180830381865afa1580156107ae573d5f5f3e3d5ffd5b505050506040513d601f19601f820116820180604052508101906107d29190612026565b9050806107fd57604051638f7a567d60e01b81526001600160a01b03841660048201526024016105cf565b505b50505b828261080e82826116a2565b610818828261182b565b6003543390610832906001600160a01b031682308a61184c565b61083d87878761188b565b600354604080516001600160a01b039283168152602081018a9052918316917fcbaa1442ac205415c9d69643e7b60ec73d1de35dbc807c21ec288c70ddc4207b910160405180910390a25050505061066e611801565b61089b6115ac565b6108a557336105ae565b60098190556040518181527fd3c6d0ab315f2f1352f036cd9f401b49e38e1b90907e195225e8105f9a0b6f02906020015b60405180910390a150565b565b5f7f00000000000000000000000000000000000000000000000000000000000000006001600160a01b0316635b0f83f36040518163ffffffff1660e01b8152600401602060405180830381865afa15801561057c573d5f5f3e3d5ffd5b5f7f00000000000000000000000000000000000000000000000000000000000000006001600160a01b03166361d027b36040518163ffffffff1660e01b8152600401602060405180830381865afa15801561057c573d5f5f3e3d5ffd5b6109a56115ac565b6109af57336105ae565b60058190556040518181527ffbe2d5c01ea8ba5596d6c4e6c82c6d4a0a0ee1128689993a4a5ba0169273d69f906020016108d6565b5f82826040516020016109f8929190612045565b6040516020818303038152906040528051906020012090505b92915050565b606080306001600160a01b031663117d8ae06040518163ffffffff1660e01b8152600401602060405180830381865afa158015610a56573d5f5f3e3d5ffd5b505050506040513d601f19601f82011682018060405250810190610a7a919061200b565b6001600160a01b0316336001600160a01b031614610ab957335b604051631184b31b60e21b81526001600160a01b0390911660048201526024016105cf565b610ac1611635565b825167ffffffffffffffff811115610adb57610adb611c5d565b604051908082528060200260200182016040528015610b04578160200160208202803683370190505b509150825167ffffffffffffffff811115610b2157610b21611c5d565b604051908082528060200260200182016040528015610b4a578160200160208202803683370190505b506003546040516370a0823160e01b81523060048201529192505f916001600160a01b03909116906370a0823190602401602060405180830381865afa158015610b96573d5f5f3e3d5ffd5b505050506040513d601f19601f82011682018060405250810190610bba9190611fbc565b1115610d7e57600154604080516330fe427560e21b815290515f926001600160a01b03169163c3f909d49160048083019260a09291908290030181865afa158015610c07573d5f5f3e3d5ffd5b505050506040513d601f19601f82011682018060405250810190610c2b9190612088565b516003546040516370a0823160e01b8152306004820152919250610cb09183916001600160a01b0316906370a0823190602401602060405180830381865afa158015610c79573d5f5f3e3d5ffd5b505050506040513d601f19601f82011682018060405250810190610c9d9190611fbc565b6003546001600160a01b031691906118a9565b6003546040516370a0823160e01b81523060048201526001600160a01b0383811692632db6d399929116906370a0823190602401602060405180830381865afa158015610cff573d5f5f3e3d5ffd5b505050506040513d601f19601f82011682018060405250810190610d239190611fbc565b60405180602001604052805f8152506040518363ffffffff1660e01b8152600401610d4f929190612105565b5f604051808303815f87803b158015610d66575f5ffd5b505af1158015610d78573d5f5f3e3d5ffd5b50505050505b5f5b8351811015610f4c575f848281518110610d9c57610d9c612125565b60209081029190910101516040516370a0823160e01b81523060048201526001600160a01b03909116906370a0823190602401602060405180830381865afa158015610dea573d5f5f3e3d5ffd5b505050506040513d601f19601f82011682018060405250810190610e0e9190611fbc565b90508015610f4357610ed7610e2161051f565b868481518110610e3357610e33612125565b60209081029190910101516040516370a0823160e01b81523060048201526001600160a01b03909116906370a0823190602401602060405180830381865afa158015610e81573d5f5f3e3d5ffd5b505050506040513d601f19601f82011682018060405250810190610ea59190611fbc565b878581518110610eb757610eb7612125565b60200260200101516001600160a01b03166117a29092919063ffffffff16565b848281518110610ee957610ee9612125565b6020026020010151848381518110610f0357610f03612125565b60200260200101906001600160a01b031690816001600160a01b03168152505080838381518110610f3657610f36612125565b6020026020010181815250505b50600101610d80565b5080604051610f5b9190612139565b604051809103902082604051610f71919061216e565b604051908190038120907f46b8771620f6acf56cb03d3e835ea8024c7dcbcf05fcc3f6ade9e19d1a3e212b905f90a3610fa8611801565b915091565b60018054600254600354600454600554600654600780546001600160a01b03978816989688169790951695939492939192610fe790611fd3565b80601f016020809104026020016040519081016040528092919081815260200182805461101390611fd3565b801561105e5780601f106110355761010080835404028352916020019161105e565b820191905f5260205f20905b81548152906001019060200180831161104157829003601f168201915b505050506007830154600890930154919260ff1691905089565b5f7f00000000000000000000000000000000000000000000000000000000000000006001600160a01b0316637aaceb956040518163ffffffff1660e01b8152600401602060405180830381865afa15801561057c573d5f5f3e3d5ffd5b6110dd6115ac565b6110e757336105ae565b60048190556040518181527f333b26cca69716ad4680ddb07663f5bfb4f06045671f336af9a83690a3ae00f9906020016108d6565b6111246115ac565b61112e57336105ae565b600180546001600160a01b031916339081179091556040519081527f55489ce0259bd691120d8860861be1c401c7c16a3cd268d21045756af4ecc5ca906020015b60405180910390a1565b6111816115ac565b61118b57336105ae565b60068190556040518181527fb6ac66853c4e59c71e118d25ab494bb847c4e5eb0c8894898c5343e6f61afc12906020016108d6565b6111c86115ac565b6111d257336105ae565b81816111de82826116a2565b6111e88282611704565b6111f3888585611725565b60035460405163095ea7b360e01b81526001600160a01b038981166004830152602482018b90529091169063095ea7b3906044016020604051808303815f875af1158015611243573d5f5f3e3d5ffd5b505050506040513d601f19601f820116820180604052508101906112679190612026565b50604051632db6d39960e01b81526001600160a01b03881690632db6d39990611298908b908a908a906004016121a1565b5f604051808303815f87803b1580156112af575f5ffd5b505af11580156112c1573d5f5f3e3d5ffd5b5050600354604080516001600160a01b039283168152602081018d9052918b1693503092507f9f784fc02a186f1c98b2d9f15fda084da27cdd291a3785d978f91911d880516b910160405180910390a35050505050505050565b60408051610120810182525f8082526020820181905291810182905260608082018390526080820183905260a0820183905260c082015260e081018290526101008101919091526040805161012081018252600180546001600160a01b0390811683526002548116602084015260035416928201929092526004546060820152600554608082015260065460a08201526007805491929160c0840191906113c190611fd3565b80601f01602080910402602001604051908101604052809291908181526020018280546113ed90611fd3565b80156114385780601f1061140f57610100808354040283529160200191611438565b820191905f5260205f20905b81548152906001019060200180831161141b57829003601f168201915b5050509183525050600782015460ff1615156020820152600890910154604090910152919050565b606080306001600160a01b031663117d8ae06040518163ffffffff1660e01b8152600401602060405180830381865afa15801561149f573d5f5f3e3d5ffd5b505050506040513d601f19601f820116820180604052508101906114c3919061200b565b6001600160a01b0316336001600160a01b0316146114e15733610a94565b6114e9611635565b6114f38484611938565b6040519193509150611506908290612139565b60405180910390208260405161151c919061216e565b604051908190038120907f3e3e7958121b3e39c7a49392d1aa9cdce870c2a059744f9e15cf66fff7865455905f90a3611553611801565b9250929050565b6115626115ac565b61156c57336105ae565b600180546001600160a01b03191690556040513381527f7cb941d7b1708e5b3bcd35ca960d6c6311188cec18886e5b67630552676b04879060200161116f565b5f80546001600160a01b03166391d148546115c86002306109e4565b336040516001600160e01b031960e085901b16815260048101929092526001600160a01b03166024820152604401602060405180830381865afa158015611611573d5f5f3e3d5ffd5b505050506040513d601f19601f820116820180604052508101906104879190612026565b7f9b779b17422d0df92223018b32b4d1fa46e071723d6817e2486d003becc55f005c1561167557604051633ee5aeb560e01b815260040160405180910390fd5b6108e160017f9b779b17422d0df92223018b32b4d1fa46e071723d6817e2486d003becc55f005b90611a51565b80158015906116b4575060085460ff16155b156116d257604051630cd0fdf960e01b815260040160405180910390fd5b801580156116e2575060085460ff165b156117005760405163332863a960e11b815260040160405180910390fd5b5050565b60208114611700576040516337f9e5c360e11b815260040160405180910390fd5b335f908152600b602052604090205483111561177a5760405162461bcd60e51b8152602060048201526014602482015273496e73756666696369656e742062616c616e636560601b60448201526064016105cf565b335f908152600b6020526040812080548592906117989084906121ea565b9091555050505050565b6040516001600160a01b0383811660248301526044820183905261066e91859182169063a9059cbb906064015b604051602081830303815290604052915060e01b6020820180516001600160e01b038381831617835250505050611a58565b6108e15f7f9b779b17422d0df92223018b32b4d1fa46e071723d6817e2486d003becc55f0061169c565b6020811461170057604051635daa61c760e01b815260040160405180910390fd5b6040516001600160a01b0384811660248301528381166044830152606482018390526118859186918216906323b872dd906084016117cf565b50505050565b335f908152600b6020526040812080548592906117989084906121fd565b604080516001600160a01b038416602482015260448082018490528251808303909101815260649091019091526020810180516001600160e01b031663095ea7b360e01b1790526118fa8482611ac4565b611885576040516001600160a01b0384811660248301525f604483015261192e91869182169063095ea7b3906064016117cf565b6118858482611a58565b60608061194783850185612210565b835f8151811061195957611959612125565b60200260200101835f8151811061197257611972612125565b6020026020010182815250826001600160a01b03166001600160a01b03168152505050815f815181106119a7576119a7612125565b60200260200101516001600160a01b031663a9059cbb33835f815181106119d0576119d0612125565b60200260200101516040518363ffffffff1660e01b8152600401611a099291906001600160a01b03929092168252602082015260400190565b6020604051808303815f875af1158015611a25573d5f5f3e3d5ffd5b505050506040513d601f19601f82011682018060405250810190611a499190612026565b509250929050565b80825d5050565b5f5f60205f8451602086015f885af180611a77576040513d5f823e3d81fd5b50505f513d91508115611a8e578060011415611a9b565b6001600160a01b0384163b155b1561188557604051635274afe760e01b81526001600160a01b03851660048201526024016105cf565b5f5f5f5f60205f8651602088015f8a5af192503d91505f519050828015611b0357508115611af55780600114611b03565b5f866001600160a01b03163b115b9695505050505050565b5f81518084528060208401602086015e5f602082860101526020601f19601f83011685010191505092915050565b602081525f611b4d6020830184611b0d565b9392505050565b5f5f83601f840112611b64575f5ffd5b50813567ffffffffffffffff811115611b7b575f5ffd5b602083019150836020828501011115611553575f5ffd5b5f5f5f60408486031215611ba4575f5ffd5b83359250602084013567ffffffffffffffff811115611bc1575f5ffd5b611bcd86828701611b54565b9497909650939450505050565b6001600160a01b0381168114611bee575f5ffd5b50565b5f60208284031215611c01575f5ffd5b8135611b4d81611bda565b5f60208284031215611c1c575f5ffd5b5035919050565b5f5f60408385031215611c34575f5ffd5b823560038110611c42575f5ffd5b91506020830135611c5281611bda565b809150509250929050565b634e487b7160e01b5f52604160045260245ffd5b604051601f8201601f1916810167ffffffffffffffff81118282101715611c9a57611c9a611c5d565b604052919050565b5f60208284031215611cb2575f5ffd5b813567ffffffffffffffff811115611cc8575f5ffd5b8201601f81018413611cd8575f5ffd5b803567ffffffffffffffff811115611cf257611cf2611c5d565b8060051b611d0260208201611c71565b91825260208184018101929081019087841115611d1d575f5ffd5b6020850194505b83851015611d4b5784359250611d3983611bda565b82825260209485019490910190611d24565b979650505050505050565b604080825283519082018190525f9060208501906060840190835b81811015611d985783516001600160a01b0316835260209384019390920191600101611d71565b5050838103602080860191909152855180835291810192508501905f5b81811015611dd3578251845260209384019390920191600101611db5565b50919695505050505050565b6001600160a01b038a81168252898116602083015288166040820152606081018790526080810186905260a0810185905261012060c082018190525f90611e2890830186611b0d565b93151560e0830152506101000152979650505050505050565b5f5f5f5f5f5f60808789031215611e56575f5ffd5b863595506020870135611e6881611bda565b9450604087013567ffffffffffffffff811115611e83575f5ffd5b611e8f89828a01611b54565b909550935050606087013567ffffffffffffffff811115611eae575f5ffd5b611eba89828a01611b54565b979a9699509497509295939492505050565b60208152611ee66020820183516001600160a01b03169052565b5f6020830151611f0160408401826001600160a01b03169052565b5060408301516001600160a01b03811660608401525060608301516080830152608083015160a083015260a083015160c083015260c083015161012060e0840152611f50610140840182611b0d565b905060e0840151611f6661010085018215159052565b506101008401516101208401528091505092915050565b5f5f60208385031215611f8e575f5ffd5b823567ffffffffffffffff811115611fa4575f5ffd5b611fb085828601611b54565b90969095509350505050565b5f60208284031215611fcc575f5ffd5b5051919050565b600181811c90821680611fe757607f821691505b60208210810361200557634e487b7160e01b5f52602260045260245ffd5b50919050565b5f6020828403121561201b575f5ffd5b8151611b4d81611bda565b5f60208284031215612036575f5ffd5b81518015158114611b4d575f5ffd5b5f6003841061206257634e487b7160e01b5f52602160045260245ffd5b5060f89290921b825260601b6bffffffffffffffffffffffff1916600182015260150190565b5f60a0828403128015612099575f5ffd5b5060405160a0810167ffffffffffffffff811182821017156120bd576120bd611c5d565b60405282516120cb81611bda565b815260208381015190820152604080840151908201526060808401519082015260808301516120f981611bda565b60808201529392505050565b828152604060208201525f61211d6040830184611b0d565b949350505050565b634e487b7160e01b5f52603260045260245ffd5b81515f90829060208501835b82811015612163578151845260209384019390910190600101612145565b509195945050505050565b81515f90829060208501835b828110156121635781516001600160a01b031684526020938401939091019060010161217a565b83815260406020820152816040820152818360608301375f818301606090810191909152601f909201601f1916010192915050565b634e487b7160e01b5f52601160045260245ffd5b81810381811115610a1157610a116121d6565b80820180821115610a1157610a116121d6565b5f5f60408385031215612221575f5ffd5b823561222c81611bda565b94602093909301359350505056fea26469706673582212203460a01f19812edefde1bc17840c14ca7818907aaecd59253f262367ab6a80f964736f6c634300081c0033","linkReferences":{}},"methodIdentifiers":{"board(uint256,bytes)":"2db6d399","commander()":"37270936","config()":"79502c55","configurationManager()":"c9c667e3","depositCap()":"dbd5edc7","disembark(uint256,bytes)":"13c408f8","generateRole(uint8,address)":"69b3054b","getConfig()":"c3f909d4","harborCommand()":"5b0f83f3","harvest(bytes)":"ce5c7f61","maxDepositPercentageOfTVL()":"bdcdd882","maxRebalanceInflow()":"ad5a356f","maxRebalanceOutflow()":"3194549e","mockRate()":"e8f9438f","move(uint256,address,bytes,bytes)":"c38a6f0b","name()":"06fdde03","raft()":"117d8ae0","registerFleetCommander()":"8a8b9976","requiresKeeperData()":"303dbaf3","setDepositCap(uint256)":"86651203","setMaxDepositPercentageOfTVL(uint256)":"4fc7fac3","setMaxRebalanceInflow(uint256)":"92f5e832","setMaxRebalanceOutflow(uint256)":"61f5cd8b","setMockRate(uint256)":"4cfe8d1a","sweep(address[])":"780469bb","testSkipper()":"5a77606b","tipJar()":"7aaceb95","token()":"fc0c546a","totalAssets()":"01e1d114","treasury()":"61d027b3","unregisterFleetCommander()":"ebf31131","userBalances(address)":"26224c64"},"id":323}