{"abi":[{"type":"constructor","inputs":[{"name":"governor","type":"address","internalType":"address"}],"stateMutability":"nonpayable"},{"type":"function","name":"COMMANDER_ROLE","inputs":[],"outputs":[{"name":"","type":"bytes32","internalType":"bytes32"}],"stateMutability":"view"},{"type":"function","name":"DEFAULT_ADMIN_ROLE","inputs":[],"outputs":[{"name":"","type":"bytes32","internalType":"bytes32"}],"stateMutability":"view"},{"type":"function","name":"GOVERNOR_ROLE","inputs":[],"outputs":[{"name":"","type":"bytes32","internalType":"bytes32"}],"stateMutability":"view"},{"type":"function","name":"KEEPER_ROLE","inputs":[],"outputs":[{"name":"","type":"bytes32","internalType":"bytes32"}],"stateMutability":"view"},{"type":"function","name":"SUPER_KEEPER_ROLE","inputs":[],"outputs":[{"name":"","type":"bytes32","internalType":"bytes32"}],"stateMutability":"view"},{"type":"function","name":"getRoleAdmin","inputs":[{"name":"role","type":"bytes32","internalType":"bytes32"}],"outputs":[{"name":"","type":"bytes32","internalType":"bytes32"}],"stateMutability":"view"},{"type":"function","name":"grantAdminRole","inputs":[{"name":"account","type":"address","internalType":"address"}],"outputs":[],"stateMutability":"nonpayable"},{"type":"function","name":"grantGovernorRole","inputs":[{"name":"account","type":"address","internalType":"address"}],"outputs":[],"stateMutability":"nonpayable"},{"type":"function","name":"grantKeeperRole","inputs":[{"name":"account","type":"address","internalType":"address"}],"outputs":[],"stateMutability":"nonpayable"},{"type":"function","name":"grantRole","inputs":[{"name":"","type":"bytes32","internalType":"bytes32"},{"name":"","type":"address","internalType":"address"}],"outputs":[],"stateMutability":"view"},{"type":"function","name":"grantSuperKeeperRole","inputs":[{"name":"account","type":"address","internalType":"address"}],"outputs":[],"stateMutability":"nonpayable"},{"type":"function","name":"hasRole","inputs":[{"name":"role","type":"bytes32","internalType":"bytes32"},{"name":"account","type":"address","internalType":"address"}],"outputs":[{"name":"","type":"bool","internalType":"bool"}],"stateMutability":"view"},{"type":"function","name":"renounceRole","inputs":[{"name":"role","type":"bytes32","internalType":"bytes32"},{"name":"callerConfirmation","type":"address","internalType":"address"}],"outputs":[],"stateMutability":"nonpayable"},{"type":"function","name":"revokeAdminRole","inputs":[{"name":"account","type":"address","internalType":"address"}],"outputs":[],"stateMutability":"nonpayable"},{"type":"function","name":"revokeGovernorRole","inputs":[{"name":"account","type":"address","internalType":"address"}],"outputs":[],"stateMutability":"nonpayable"},{"type":"function","name":"revokeKeeperRole","inputs":[{"name":"account","type":"address","internalType":"address"}],"outputs":[],"stateMutability":"nonpayable"},{"type":"function","name":"revokeRole","inputs":[{"name":"","type":"bytes32","internalType":"bytes32"},{"name":"","type":"address","internalType":"address"}],"outputs":[],"stateMutability":"view"},{"type":"function","name":"revokeSuperKeeperRole","inputs":[{"name":"account","type":"address","internalType":"address"}],"outputs":[],"stateMutability":"nonpayable"},{"type":"function","name":"supportsInterface","inputs":[{"name":"interfaceId","type":"bytes4","internalType":"bytes4"}],"outputs":[{"name":"","type":"bool","internalType":"bool"}],"stateMutability":"view"},{"type":"event","name":"RoleAdminChanged","inputs":[{"name":"role","type":"bytes32","indexed":true,"internalType":"bytes32"},{"name":"previousAdminRole","type":"bytes32","indexed":true,"internalType":"bytes32"},{"name":"newAdminRole","type":"bytes32","indexed":true,"internalType":"bytes32"}],"anonymous":false},{"type":"event","name":"RoleGranted","inputs":[{"name":"role","type":"bytes32","indexed":true,"internalType":"bytes32"},{"name":"account","type":"address","indexed":true,"internalType":"address"},{"name":"sender","type":"address","indexed":true,"internalType":"address"}],"anonymous":false},{"type":"event","name":"RoleRevoked","inputs":[{"name":"role","type":"bytes32","indexed":true,"internalType":"bytes32"},{"name":"account","type":"address","indexed":true,"internalType":"address"},{"name":"sender","type":"address","indexed":true,"internalType":"address"}],"anonymous":false},{"type":"error","name":"AccessControlBadConfirmation","inputs":[]},{"type":"error","name":"AccessControlUnauthorizedAccount","inputs":[{"name":"account","type":"address","internalType":"address"},{"name":"neededRole","type":"bytes32","internalType":"bytes32"}]},{"type":"error","name":"CallerIsNotAdmin","inputs":[{"name":"caller","type":"address","internalType":"address"}]},{"type":"error","name":"CallerIsNotGovernor","inputs":[{"name":"caller","type":"address","internalType":"address"}]},{"type":"error","name":"DirectGrantIsDisabled","inputs":[{"name":"caller","type":"address","internalType":"address"}]},{"type":"error","name":"DirectRevokeIsDisabled","inputs":[{"name":"caller","type":"address","internalType":"address"}]}],"bytecode":{"object":"0x608060405234801561000f575f80fd5b5060405161098f38038061098f83398101604081905261002e91610113565b6100385f8261006a565b506100637f7935bd0ae54bc31f548c14dba4d37c5c64b3f8ca900cb468fb8abd54d5894f558261006a565b5050610140565b5f828152602081815260408083206001600160a01b038516845290915281205460ff1661010a575f838152602081815260408083206001600160a01b03861684529091529020805460ff191660011790556100c23390565b6001600160a01b0316826001600160a01b0316847f2f8788117e7eff1d82e926ec794901d17c78024a50270940304540a733656f0d60405160405180910390a450600161010d565b505f5b92915050565b5f60208284031215610123575f80fd5b81516001600160a01b0381168114610139575f80fd5b9392505050565b6108428061014d5f395ff3fe608060405234801561000f575f80fd5b506004361061011c575f3560e01c806366e943f1116100a9578063cc1f071a1161006e578063cc1f071a1461028e578063ccc57490146102a1578063d547741f146102b5578063e4dd1dca146102c8578063fb914c39146102db575f80fd5b806366e943f11461022757806391d148541461024e5780639a19c7b014610261578063a217fddf14610274578063c634b78e1461027b575f80fd5b80632f2ff15d116100ef5780632f2ff15d146101a0578063364bc15a146101b357806336568abe146101da5780634106d274146101ed57806345b817bb14610200575f80fd5b806301ffc9a7146101205780631bacdb3414610148578063248a9ca31461015d5780632da517221461018d575b5f80fd5b61013361012e366004610749565b6102ee565b60405190151581526020015b60405180910390f35b61015b610156366004610792565b610318565b005b61017f61016b3660046107ab565b5f9081526020819052604090206001015490565b60405190815260200161013f565b61015b61019b366004610792565b610381565b61015b6101ae3660046107c2565b6103e1565b61017f7ffc8737ab85eb45125971625a9ebdb75cc78e01d5c1fa80c4c6e5203f47bc4fab81565b61015b6101e83660046107c2565b6103fc565b61015b6101fb366004610792565b610434565b61017f7f4d30e780ddaa8d94b73282aef7f15ebc8bd13895bbcc2ae410396cabb542d27c81565b61017f7f0d186688925976bbe6755ae984501c8e3e2b103a7af59fd803ab9c6d891ae7e081565b61013361025c3660046107c2565b610494565b61015b61026f366004610792565b6104bc565b61017f5f81565b61015b610289366004610792565b6104ef565b61015b61029c366004610792565b610522565b61017f5f805160206107ed83398151915281565b61015b6102c33660046107c2565b610582565b61015b6102d6366004610792565b61059d565b61015b6102e9366004610792565b6105dd565b5f6001600160e01b0319821663f87138b560e01b148061031257506103128261061d565b92915050565b61032f5f805160206107ed83398151915233610494565b61035357604051630ea7d7ed60e21b81523360048201526024015b60405180910390fd5b61037d7f0d186688925976bbe6755ae984501c8e3e2b103a7af59fd803ab9c6d891ae7e082610651565b5050565b6103985f805160206107ed83398151915233610494565b6103b757604051630ea7d7ed60e21b815233600482015260240161034a565b61037d7f0d186688925976bbe6755ae984501c8e3e2b103a7af59fd803ab9c6d891ae7e0826106c1565b604051630e15200f60e21b815233600482015260240161034a565b6001600160a01b03811633146104255760405163334bd91960e11b815260040160405180910390fd5b61042f8282610651565b505050565b61044b5f805160206107ed83398151915233610494565b61046a57604051630ea7d7ed60e21b815233600482015260240161034a565b61037d7ffc8737ab85eb45125971625a9ebdb75cc78e01d5c1fa80c4c6e5203f47bc4fab826106c1565b5f918252602082815260408084206001600160a01b0393909316845291905290205460ff1690565b6104c65f33610494565b6104e5576040516376660ab760e11b815233600482015260240161034a565b61037d5f82610651565b6104f95f33610494565b610518576040516376660ab760e11b815233600482015260240161034a565b61037d5f826106c1565b6105395f805160206107ed83398151915233610494565b61055857604051630ea7d7ed60e21b815233600482015260240161034a565b61037d7ffc8737ab85eb45125971625a9ebdb75cc78e01d5c1fa80c4c6e5203f47bc4fab82610651565b604051636344978560e11b815233600482015260240161034a565b6105a75f33610494565b6105c6576040516376660ab760e11b815233600482015260240161034a565b61037d5f805160206107ed833981519152826106c1565b6105e75f33610494565b610606576040516376660ab760e11b815233600482015260240161034a565b61037d5f805160206107ed83398151915282610651565b5f6001600160e01b03198216637965db0b60e01b148061031257506301ffc9a760e01b6001600160e01b0319831614610312565b5f61065c8383610494565b156106ba575f838152602081815260408083206001600160a01b0386168085529252808320805460ff1916905551339286917ff6391f5c32d9c69d2a47ea670b442974b53935d1edc7fd64eb21e047a839171b9190a4506001610312565b505f610312565b5f6106cc8383610494565b6106ba575f838152602081815260408083206001600160a01b03861684529091529020805460ff191660011790556107013390565b6001600160a01b0316826001600160a01b0316847f2f8788117e7eff1d82e926ec794901d17c78024a50270940304540a733656f0d60405160405180910390a4506001610312565b5f60208284031215610759575f80fd5b81356001600160e01b031981168114610770575f80fd5b9392505050565b80356001600160a01b038116811461078d575f80fd5b919050565b5f602082840312156107a2575f80fd5b61077082610777565b5f602082840312156107bb575f80fd5b5035919050565b5f80604083850312156107d3575f80fd5b823591506107e360208401610777565b9050925092905056fe7935bd0ae54bc31f548c14dba4d37c5c64b3f8ca900cb468fb8abd54d5894f55a26469706673582212208c985a917aef2f4325b5fb4d14b758e02ec5f881cbec375a229a46e75770585764736f6c634300081a0033","linkReferences":{}},"methodIdentifiers":{"COMMANDER_ROLE()":"45b817bb","DEFAULT_ADMIN_ROLE()":"a217fddf","GOVERNOR_ROLE()":"ccc57490","KEEPER_ROLE()":"364bc15a","SUPER_KEEPER_ROLE()":"66e943f1","getRoleAdmin(bytes32)":"248a9ca3","grantAdminRole(address)":"c634b78e","grantGovernorRole(address)":"e4dd1dca","grantKeeperRole(address)":"4106d274","grantRole(bytes32,address)":"2f2ff15d","grantSuperKeeperRole(address)":"2da51722","hasRole(bytes32,address)":"91d14854","renounceRole(bytes32,address)":"36568abe","revokeAdminRole(address)":"9a19c7b0","revokeGovernorRole(address)":"fb914c39","revokeKeeperRole(address)":"cc1f071a","revokeRole(bytes32,address)":"d547741f","revokeSuperKeeperRole(address)":"1bacdb34","supportsInterface(bytes4)":"01ffc9a7"},"id":139}