{"abi":[{"type":"constructor","inputs":[{"name":"governor","type":"address","internalType":"address"}],"stateMutability":"nonpayable"},{"type":"function","name":"DEFAULT_ADMIN_ROLE","inputs":[],"outputs":[{"name":"","type":"bytes32","internalType":"bytes32"}],"stateMutability":"view"},{"type":"function","name":"GOVERNOR_ROLE","inputs":[],"outputs":[{"name":"","type":"bytes32","internalType":"bytes32"}],"stateMutability":"view"},{"type":"function","name":"GUARDIAN_ROLE","inputs":[],"outputs":[{"name":"","type":"bytes32","internalType":"bytes32"}],"stateMutability":"view"},{"type":"function","name":"SUPER_KEEPER_ROLE","inputs":[],"outputs":[{"name":"","type":"bytes32","internalType":"bytes32"}],"stateMutability":"view"},{"type":"function","name":"generateRole","inputs":[{"name":"roleName","type":"uint8","internalType":"enum ContractSpecificRoles"},{"name":"roleTargetContract","type":"address","internalType":"address"}],"outputs":[{"name":"","type":"bytes32","internalType":"bytes32"}],"stateMutability":"pure"},{"type":"function","name":"getRoleAdmin","inputs":[{"name":"role","type":"bytes32","internalType":"bytes32"}],"outputs":[{"name":"","type":"bytes32","internalType":"bytes32"}],"stateMutability":"view"},{"type":"function","name":"grantAdminRole","inputs":[{"name":"account","type":"address","internalType":"address"}],"outputs":[],"stateMutability":"nonpayable"},{"type":"function","name":"grantCommanderRole","inputs":[{"name":"arkAddress","type":"address","internalType":"address"},{"name":"account","type":"address","internalType":"address"}],"outputs":[],"stateMutability":"nonpayable"},{"type":"function","name":"grantContractSpecificRole","inputs":[{"name":"roleName","type":"uint8","internalType":"enum ContractSpecificRoles"},{"name":"roleTargetContract","type":"address","internalType":"address"},{"name":"roleOwner","type":"address","internalType":"address"}],"outputs":[],"stateMutability":"nonpayable"},{"type":"function","name":"grantCuratorRole","inputs":[{"name":"fleetAddress","type":"address","internalType":"address"},{"name":"account","type":"address","internalType":"address"}],"outputs":[],"stateMutability":"nonpayable"},{"type":"function","name":"grantGovernorRole","inputs":[{"name":"account","type":"address","internalType":"address"}],"outputs":[],"stateMutability":"nonpayable"},{"type":"function","name":"grantGuardianRole","inputs":[{"name":"account","type":"address","internalType":"address"}],"outputs":[],"stateMutability":"nonpayable"},{"type":"function","name":"grantKeeperRole","inputs":[{"name":"fleetAddress","type":"address","internalType":"address"},{"name":"account","type":"address","internalType":"address"}],"outputs":[],"stateMutability":"nonpayable"},{"type":"function","name":"grantRole","inputs":[{"name":"","type":"bytes32","internalType":"bytes32"},{"name":"","type":"address","internalType":"address"}],"outputs":[],"stateMutability":"view"},{"type":"function","name":"grantSuperKeeperRole","inputs":[{"name":"account","type":"address","internalType":"address"}],"outputs":[],"stateMutability":"nonpayable"},{"type":"function","name":"hasRole","inputs":[{"name":"role","type":"bytes32","internalType":"bytes32"},{"name":"account","type":"address","internalType":"address"}],"outputs":[{"name":"","type":"bool","internalType":"bool"}],"stateMutability":"view"},{"type":"function","name":"renounceRole","inputs":[{"name":"role","type":"bytes32","internalType":"bytes32"},{"name":"callerConfirmation","type":"address","internalType":"address"}],"outputs":[],"stateMutability":"nonpayable"},{"type":"function","name":"revokeAdminRole","inputs":[{"name":"account","type":"address","internalType":"address"}],"outputs":[],"stateMutability":"nonpayable"},{"type":"function","name":"revokeCommanderRole","inputs":[{"name":"arkAddress","type":"address","internalType":"address"},{"name":"account","type":"address","internalType":"address"}],"outputs":[],"stateMutability":"nonpayable"},{"type":"function","name":"revokeContractSpecificRole","inputs":[{"name":"roleName","type":"uint8","internalType":"enum ContractSpecificRoles"},{"name":"roleTargetContract","type":"address","internalType":"address"},{"name":"roleOwner","type":"address","internalType":"address"}],"outputs":[],"stateMutability":"nonpayable"},{"type":"function","name":"revokeCuratorRole","inputs":[{"name":"fleetAddress","type":"address","internalType":"address"},{"name":"account","type":"address","internalType":"address"}],"outputs":[],"stateMutability":"nonpayable"},{"type":"function","name":"revokeGovernorRole","inputs":[{"name":"account","type":"address","internalType":"address"}],"outputs":[],"stateMutability":"nonpayable"},{"type":"function","name":"revokeGuardianRole","inputs":[{"name":"account","type":"address","internalType":"address"}],"outputs":[],"stateMutability":"nonpayable"},{"type":"function","name":"revokeKeeperRole","inputs":[{"name":"fleetAddress","type":"address","internalType":"address"},{"name":"account","type":"address","internalType":"address"}],"outputs":[],"stateMutability":"nonpayable"},{"type":"function","name":"revokeRole","inputs":[{"name":"","type":"bytes32","internalType":"bytes32"},{"name":"","type":"address","internalType":"address"}],"outputs":[],"stateMutability":"view"},{"type":"function","name":"revokeSuperKeeperRole","inputs":[{"name":"account","type":"address","internalType":"address"}],"outputs":[],"stateMutability":"nonpayable"},{"type":"function","name":"selfRevokeContractSpecificRole","inputs":[{"name":"roleName","type":"uint8","internalType":"enum ContractSpecificRoles"},{"name":"roleTargetContract","type":"address","internalType":"address"}],"outputs":[],"stateMutability":"nonpayable"},{"type":"function","name":"supportsInterface","inputs":[{"name":"interfaceId","type":"bytes4","internalType":"bytes4"}],"outputs":[{"name":"","type":"bool","internalType":"bool"}],"stateMutability":"view"},{"type":"event","name":"RoleAdminChanged","inputs":[{"name":"role","type":"bytes32","indexed":true,"internalType":"bytes32"},{"name":"previousAdminRole","type":"bytes32","indexed":true,"internalType":"bytes32"},{"name":"newAdminRole","type":"bytes32","indexed":true,"internalType":"bytes32"}],"anonymous":false},{"type":"event","name":"RoleGranted","inputs":[{"name":"role","type":"bytes32","indexed":true,"internalType":"bytes32"},{"name":"account","type":"address","indexed":true,"internalType":"address"},{"name":"sender","type":"address","indexed":true,"internalType":"address"}],"anonymous":false},{"type":"event","name":"RoleRevoked","inputs":[{"name":"role","type":"bytes32","indexed":true,"internalType":"bytes32"},{"name":"account","type":"address","indexed":true,"internalType":"address"},{"name":"sender","type":"address","indexed":true,"internalType":"address"}],"anonymous":false},{"type":"error","name":"AccessControlBadConfirmation","inputs":[]},{"type":"error","name":"AccessControlUnauthorizedAccount","inputs":[{"name":"account","type":"address","internalType":"address"},{"name":"neededRole","type":"bytes32","internalType":"bytes32"}]},{"type":"error","name":"CallerIsNotAdmin","inputs":[{"name":"caller","type":"address","internalType":"address"}]},{"type":"error","name":"CallerIsNotAuthorizedToBoard","inputs":[{"name":"caller","type":"address","internalType":"address"}]},{"type":"error","name":"CallerIsNotCommander","inputs":[{"name":"caller","type":"address","internalType":"address"}]},{"type":"error","name":"CallerIsNotContractSpecificRole","inputs":[{"name":"caller","type":"address","internalType":"address"},{"name":"role","type":"bytes32","internalType":"bytes32"}]},{"type":"error","name":"CallerIsNotCurator","inputs":[{"name":"caller","type":"address","internalType":"address"}]},{"type":"error","name":"CallerIsNotGovernor","inputs":[{"name":"caller","type":"address","internalType":"address"}]},{"type":"error","name":"CallerIsNotGuardian","inputs":[{"name":"caller","type":"address","internalType":"address"}]},{"type":"error","name":"CallerIsNotGuardianOrGovernor","inputs":[{"name":"caller","type":"address","internalType":"address"}]},{"type":"error","name":"CallerIsNotKeeper","inputs":[{"name":"caller","type":"address","internalType":"address"}]},{"type":"error","name":"CallerIsNotRaft","inputs":[{"name":"caller","type":"address","internalType":"address"}]},{"type":"error","name":"CallerIsNotRaftOrCommander","inputs":[{"name":"caller","type":"address","internalType":"address"}]},{"type":"error","name":"CallerIsNotSuperKeeper","inputs":[{"name":"caller","type":"address","internalType":"address"}]},{"type":"error","name":"DirectGrantIsDisabled","inputs":[{"name":"caller","type":"address","internalType":"address"}]},{"type":"error","name":"DirectRevokeIsDisabled","inputs":[{"name":"caller","type":"address","internalType":"address"}]},{"type":"error","name":"InvalidAccessManagerAddress","inputs":[{"name":"invalidAddress","type":"address","internalType":"address"}]}],"bytecode":{"object":"0x608060405234801561000f575f5ffd5b50604051610e6d380380610e6d83398101604081905261002e9161013e565b6100385f82610095565b506100637f7935bd0ae54bc31f548c14dba4d37c5c64b3f8ca900cb468fb8abd54d5894f5582610095565b5061008e7f55435dd261a4b9b3364963f7738a7a662ad9c84396d64be3365284bb7f0a504182610095565b505061016b565b5f828152602081815260408083206001600160a01b038516845290915281205460ff16610135575f838152602081815260408083206001600160a01b03861684529091529020805460ff191660011790556100ed3390565b6001600160a01b0316826001600160a01b0316847f2f8788117e7eff1d82e926ec794901d17c78024a50270940304540a733656f0d60405160405180910390a4506001610138565b505f5b92915050565b5f6020828403121561014e575f5ffd5b81516001600160a01b0381168114610164575f5ffd5b9392505050565b610cf5806101785f395ff3fe608060405234801561000f575f5ffd5b50600436106101bb575f3560e01c806366ebbf74116100f3578063ccc5749011610093578063e4dd1dca1161006e578063e4dd1dca146103d8578063e9296665146103eb578063e9eea177146103fe578063fb914c3914610411575f5ffd5b8063ccc574901461039e578063d547741f146103b2578063d55dd62b146103c5575f5ffd5b806391d14854116100ce57806391d148541461035e5780639a19c7b014610371578063a217fddf14610384578063c634b78e1461038b575f5ffd5b806366ebbf741461032557806369b3054b146103385780637adac90d1461034b575f5ffd5b80632da517221161015e5780634b4b5389116101395780634b4b5389146102c55780634cfa6107146102d857806353b53813146102eb57806366e943f1146102fe575f5ffd5b80632da517221461028c5780632f2ff15d1461029f57806336568abe146102b2575f5ffd5b80631bacdb34116101995780631bacdb341461020f578063248a9ca31461022257806324ea54f4146102525780632a25d14214610279575f5ffd5b806301ffc9a7146101bf57806310e7b489146101e75780631981b9a7146101fc575b5f5ffd5b6101d26101cd366004610b29565b610424565b60405190151581526020015b60405180910390f35b6101fa6101f5366004610b72565b61044e565b005b6101fa61020a366004610b8b565b6104b7565b6101fa61021d366004610b72565b6104f9565b610244610230366004610bbc565b5f9081526020819052604090206001015490565b6040519081526020016101de565b6102447f55435dd261a4b9b3364963f7738a7a662ad9c84396d64be3365284bb7f0a504181565b6101fa610287366004610be1565b610559565b6101fa61029a366004610b72565b6105ad565b6101fa6102ad366004610c21565b61060d565b6101fa6102c0366004610c21565b610628565b6101fa6102d3366004610b72565b610660565b6101fa6102e6366004610b8b565b6106c0565b6101fa6102f9366004610b8b565b610702565b6102447f0d186688925976bbe6755ae984501c8e3e2b103a7af59fd803ab9c6d891ae7e081565b6101fa610333366004610b8b565b610744565b610244610346366004610c42565b610786565b6101fa610359366004610be1565b6107b8565b6101d261036c366004610c21565b610805565b6101fa61037f366004610b72565b61082d565b6102445f81565b6101fa610399366004610b72565b610860565b6102445f516020610ca05f395f51905f5281565b6101fa6103c0366004610c21565b610893565b6101fa6103d3366004610c42565b6108ae565b6101fa6103e6366004610b72565b6108fb565b6101fa6103f9366004610b8b565b61093b565b6101fa61040c366004610b8b565b61097c565b6101fa61041f366004610b72565b6109bd565b5f6001600160e01b0319821663a237592160e01b14806104485750610448826109fd565b92915050565b6104655f516020610ca05f395f51905f5233610805565b61048957604051630ea7d7ed60e21b81523360048201526024015b60405180910390fd5b6104b37f55435dd261a4b9b3364963f7738a7a662ad9c84396d64be3365284bb7f0a504182610a31565b5050565b6104ce5f516020610ca05f395f51905f5233610805565b6104ed57604051630ea7d7ed60e21b8152336004820152602401610480565b6104b360028383610559565b6105105f516020610ca05f395f51905f5233610805565b61052f57604051630ea7d7ed60e21b8152336004820152602401610480565b6104b37f0d186688925976bbe6755ae984501c8e3e2b103a7af59fd803ab9c6d891ae7e082610ac0565b6105705f516020610ca05f395f51905f5233610805565b61058f57604051630ea7d7ed60e21b8152336004820152602401610480565b5f61059a8484610786565b90506105a68183610a31565b5050505050565b6105c45f516020610ca05f395f51905f5233610805565b6105e357604051630ea7d7ed60e21b8152336004820152602401610480565b6104b37f0d186688925976bbe6755ae984501c8e3e2b103a7af59fd803ab9c6d891ae7e082610a31565b604051630e15200f60e21b8152336004820152602401610480565b6001600160a01b03811633146106515760405163334bd91960e11b815260040160405180910390fd5b61065b8282610ac0565b505050565b6106775f516020610ca05f395f51905f5233610805565b61069657604051630ea7d7ed60e21b8152336004820152602401610480565b6104b37f55435dd261a4b9b3364963f7738a7a662ad9c84396d64be3365284bb7f0a504182610ac0565b6106d75f516020610ca05f395f51905f5233610805565b6106f657604051630ea7d7ed60e21b8152336004820152602401610480565b6104b3600183836107b8565b6107195f516020610ca05f395f51905f5233610805565b61073857604051630ea7d7ed60e21b8152336004820152602401610480565b6104b3600283836107b8565b61075b5f516020610ca05f395f51905f5233610805565b61077a57604051630ea7d7ed60e21b8152336004820152602401610480565b6104b360018383610559565b5f828260405160200161079a929190610c5c565b60405160208183030381529060405280519060200120905092915050565b6107cf5f516020610ca05f395f51905f5233610805565b6107ee57604051630ea7d7ed60e21b8152336004820152602401610480565b5f6107f98484610786565b90506105a68183610ac0565b5f918252602082815260408084206001600160a01b0393909316845291905290205460ff1690565b6108375f33610805565b610856576040516376660ab760e11b8152336004820152602401610480565b6104b35f82610ac0565b61086a5f33610805565b610889576040516376660ab760e11b8152336004820152602401610480565b6104b35f82610a31565b604051636344978560e11b8152336004820152602401610480565b5f6108b98383610786565b90506108c58133610805565b6108eb57604051633f904edb60e11b815233600482015260248101829052604401610480565b6108f58133610ac0565b50505050565b6109055f33610805565b610924576040516376660ab760e11b8152336004820152602401610480565b6104b35f516020610ca05f395f51905f5282610a31565b6109525f516020610ca05f395f51905f5233610805565b61097157604051630ea7d7ed60e21b8152336004820152602401610480565b6104b35f83836107b8565b6109935f516020610ca05f395f51905f5233610805565b6109b257604051630ea7d7ed60e21b8152336004820152602401610480565b6104b35f8383610559565b6109c75f33610805565b6109e6576040516376660ab760e11b8152336004820152602401610480565b6104b35f516020610ca05f395f51905f5282610ac0565b5f6001600160e01b03198216637965db0b60e01b148061044857506301ffc9a760e01b6001600160e01b0319831614610448565b5f610a3c8383610805565b610ab9575f838152602081815260408083206001600160a01b03861684529091529020805460ff19166001179055610a713390565b6001600160a01b0316826001600160a01b0316847f2f8788117e7eff1d82e926ec794901d17c78024a50270940304540a733656f0d60405160405180910390a4506001610448565b505f610448565b5f610acb8383610805565b15610ab9575f838152602081815260408083206001600160a01b0386168085529252808320805460ff1916905551339286917ff6391f5c32d9c69d2a47ea670b442974b53935d1edc7fd64eb21e047a839171b9190a4506001610448565b5f60208284031215610b39575f5ffd5b81356001600160e01b031981168114610b50575f5ffd5b9392505050565b80356001600160a01b0381168114610b6d575f5ffd5b919050565b5f60208284031215610b82575f5ffd5b610b5082610b57565b5f5f60408385031215610b9c575f5ffd5b610ba583610b57565b9150610bb360208401610b57565b90509250929050565b5f60208284031215610bcc575f5ffd5b5035919050565b803560038110610b6d575f5ffd5b5f5f5f60608486031215610bf3575f5ffd5b610bfc84610bd3565b9250610c0a60208501610b57565b9150610c1860408501610b57565b90509250925092565b5f5f60408385031215610c32575f5ffd5b82359150610bb360208401610b57565b5f5f60408385031215610c53575f5ffd5b610ba583610bd3565b5f60038410610c7957634e487b7160e01b5f52602160045260245ffd5b5060f89290921b825260601b6bffffffffffffffffffffffff191660018201526015019056fe7935bd0ae54bc31f548c14dba4d37c5c64b3f8ca900cb468fb8abd54d5894f55a26469706673582212202e84d469ce89f834ef62111fd33d19f45cefb71e9483360486cba35671bf5ab964736f6c634300081b0033","linkReferences":{}},"methodIdentifiers":{"DEFAULT_ADMIN_ROLE()":"a217fddf","GOVERNOR_ROLE()":"ccc57490","GUARDIAN_ROLE()":"24ea54f4","SUPER_KEEPER_ROLE()":"66e943f1","generateRole(uint8,address)":"69b3054b","getRoleAdmin(bytes32)":"248a9ca3","grantAdminRole(address)":"c634b78e","grantCommanderRole(address,address)":"1981b9a7","grantContractSpecificRole(uint8,address,address)":"2a25d142","grantCuratorRole(address,address)":"e9eea177","grantGovernorRole(address)":"e4dd1dca","grantGuardianRole(address)":"10e7b489","grantKeeperRole(address,address)":"66ebbf74","grantRole(bytes32,address)":"2f2ff15d","grantSuperKeeperRole(address)":"2da51722","hasRole(bytes32,address)":"91d14854","renounceRole(bytes32,address)":"36568abe","revokeAdminRole(address)":"9a19c7b0","revokeCommanderRole(address,address)":"53b53813","revokeContractSpecificRole(uint8,address,address)":"7adac90d","revokeCuratorRole(address,address)":"e9296665","revokeGovernorRole(address)":"fb914c39","revokeGuardianRole(address)":"4b4b5389","revokeKeeperRole(address,address)":"4cfa6107","revokeRole(bytes32,address)":"d547741f","revokeSuperKeeperRole(address)":"1bacdb34","selfRevokeContractSpecificRole(uint8,address)":"d55dd62b","supportsInterface(bytes4)":"01ffc9a7"},"id":162}