{"abi":[{"type":"constructor","inputs":[{"name":"governor","type":"address","internalType":"address"}],"stateMutability":"nonpayable"},{"type":"function","name":"DEFAULT_ADMIN_ROLE","inputs":[],"outputs":[{"name":"","type":"bytes32","internalType":"bytes32"}],"stateMutability":"view"},{"type":"function","name":"GOVERNOR_ROLE","inputs":[],"outputs":[{"name":"","type":"bytes32","internalType":"bytes32"}],"stateMutability":"view"},{"type":"function","name":"GUARDIAN_ROLE","inputs":[],"outputs":[{"name":"","type":"bytes32","internalType":"bytes32"}],"stateMutability":"view"},{"type":"function","name":"SUPER_KEEPER_ROLE","inputs":[],"outputs":[{"name":"","type":"bytes32","internalType":"bytes32"}],"stateMutability":"view"},{"type":"function","name":"generateRole","inputs":[{"name":"roleName","type":"uint8","internalType":"enum ContractSpecificRoles"},{"name":"roleTargetContract","type":"address","internalType":"address"}],"outputs":[{"name":"","type":"bytes32","internalType":"bytes32"}],"stateMutability":"pure"},{"type":"function","name":"getRoleAdmin","inputs":[{"name":"role","type":"bytes32","internalType":"bytes32"}],"outputs":[{"name":"","type":"bytes32","internalType":"bytes32"}],"stateMutability":"view"},{"type":"function","name":"grantCommanderRole","inputs":[{"name":"arkAddress","type":"address","internalType":"address"},{"name":"account","type":"address","internalType":"address"}],"outputs":[],"stateMutability":"nonpayable"},{"type":"function","name":"grantContractSpecificRole","inputs":[{"name":"roleName","type":"uint8","internalType":"enum ContractSpecificRoles"},{"name":"roleTargetContract","type":"address","internalType":"address"},{"name":"roleOwner","type":"address","internalType":"address"}],"outputs":[],"stateMutability":"nonpayable"},{"type":"function","name":"grantCuratorRole","inputs":[{"name":"fleetCommanderAddress","type":"address","internalType":"address"},{"name":"account","type":"address","internalType":"address"}],"outputs":[],"stateMutability":"nonpayable"},{"type":"function","name":"grantGovernorRole","inputs":[{"name":"account","type":"address","internalType":"address"}],"outputs":[],"stateMutability":"nonpayable"},{"type":"function","name":"grantGuardianRole","inputs":[{"name":"account","type":"address","internalType":"address"}],"outputs":[],"stateMutability":"nonpayable"},{"type":"function","name":"grantKeeperRole","inputs":[{"name":"fleetCommanderAddress","type":"address","internalType":"address"},{"name":"account","type":"address","internalType":"address"}],"outputs":[],"stateMutability":"nonpayable"},{"type":"function","name":"grantRole","inputs":[{"name":"","type":"bytes32","internalType":"bytes32"},{"name":"","type":"address","internalType":"address"}],"outputs":[],"stateMutability":"view"},{"type":"function","name":"grantSuperKeeperRole","inputs":[{"name":"account","type":"address","internalType":"address"}],"outputs":[],"stateMutability":"nonpayable"},{"type":"function","name":"hasRole","inputs":[{"name":"role","type":"bytes32","internalType":"bytes32"},{"name":"account","type":"address","internalType":"address"}],"outputs":[{"name":"","type":"bool","internalType":"bool"}],"stateMutability":"view"},{"type":"function","name":"renounceRole","inputs":[{"name":"role","type":"bytes32","internalType":"bytes32"},{"name":"callerConfirmation","type":"address","internalType":"address"}],"outputs":[],"stateMutability":"nonpayable"},{"type":"function","name":"revokeCommanderRole","inputs":[{"name":"arkAddress","type":"address","internalType":"address"},{"name":"account","type":"address","internalType":"address"}],"outputs":[],"stateMutability":"nonpayable"},{"type":"function","name":"revokeContractSpecificRole","inputs":[{"name":"roleName","type":"uint8","internalType":"enum ContractSpecificRoles"},{"name":"roleTargetContract","type":"address","internalType":"address"},{"name":"roleOwner","type":"address","internalType":"address"}],"outputs":[],"stateMutability":"nonpayable"},{"type":"function","name":"revokeCuratorRole","inputs":[{"name":"fleetCommanderAddress","type":"address","internalType":"address"},{"name":"account","type":"address","internalType":"address"}],"outputs":[],"stateMutability":"nonpayable"},{"type":"function","name":"revokeGovernorRole","inputs":[{"name":"account","type":"address","internalType":"address"}],"outputs":[],"stateMutability":"nonpayable"},{"type":"function","name":"revokeGuardianRole","inputs":[{"name":"account","type":"address","internalType":"address"}],"outputs":[],"stateMutability":"nonpayable"},{"type":"function","name":"revokeKeeperRole","inputs":[{"name":"fleetCommanderAddress","type":"address","internalType":"address"},{"name":"account","type":"address","internalType":"address"}],"outputs":[],"stateMutability":"nonpayable"},{"type":"function","name":"revokeRole","inputs":[{"name":"","type":"bytes32","internalType":"bytes32"},{"name":"","type":"address","internalType":"address"}],"outputs":[],"stateMutability":"view"},{"type":"function","name":"revokeSuperKeeperRole","inputs":[{"name":"account","type":"address","internalType":"address"}],"outputs":[],"stateMutability":"nonpayable"},{"type":"function","name":"selfRevokeContractSpecificRole","inputs":[{"name":"roleName","type":"uint8","internalType":"enum ContractSpecificRoles"},{"name":"roleTargetContract","type":"address","internalType":"address"}],"outputs":[],"stateMutability":"nonpayable"},{"type":"function","name":"supportsInterface","inputs":[{"name":"interfaceId","type":"bytes4","internalType":"bytes4"}],"outputs":[{"name":"","type":"bool","internalType":"bool"}],"stateMutability":"view"},{"type":"event","name":"RoleAdminChanged","inputs":[{"name":"role","type":"bytes32","indexed":true,"internalType":"bytes32"},{"name":"previousAdminRole","type":"bytes32","indexed":true,"internalType":"bytes32"},{"name":"newAdminRole","type":"bytes32","indexed":true,"internalType":"bytes32"}],"anonymous":false},{"type":"event","name":"RoleGranted","inputs":[{"name":"role","type":"bytes32","indexed":true,"internalType":"bytes32"},{"name":"account","type":"address","indexed":true,"internalType":"address"},{"name":"sender","type":"address","indexed":true,"internalType":"address"}],"anonymous":false},{"type":"event","name":"RoleRevoked","inputs":[{"name":"role","type":"bytes32","indexed":true,"internalType":"bytes32"},{"name":"account","type":"address","indexed":true,"internalType":"address"},{"name":"sender","type":"address","indexed":true,"internalType":"address"}],"anonymous":false},{"type":"error","name":"AccessControlBadConfirmation","inputs":[]},{"type":"error","name":"AccessControlUnauthorizedAccount","inputs":[{"name":"account","type":"address","internalType":"address"},{"name":"neededRole","type":"bytes32","internalType":"bytes32"}]},{"type":"error","name":"CallerIsNotAdmin","inputs":[{"name":"caller","type":"address","internalType":"address"}]},{"type":"error","name":"CallerIsNotAuthorizedToBoard","inputs":[{"name":"caller","type":"address","internalType":"address"}]},{"type":"error","name":"CallerIsNotCommander","inputs":[{"name":"caller","type":"address","internalType":"address"}]},{"type":"error","name":"CallerIsNotContractSpecificRole","inputs":[{"name":"caller","type":"address","internalType":"address"},{"name":"role","type":"bytes32","internalType":"bytes32"}]},{"type":"error","name":"CallerIsNotCurator","inputs":[{"name":"caller","type":"address","internalType":"address"}]},{"type":"error","name":"CallerIsNotGovernor","inputs":[{"name":"caller","type":"address","internalType":"address"}]},{"type":"error","name":"CallerIsNotGuardian","inputs":[{"name":"caller","type":"address","internalType":"address"}]},{"type":"error","name":"CallerIsNotGuardianOrGovernor","inputs":[{"name":"caller","type":"address","internalType":"address"}]},{"type":"error","name":"CallerIsNotKeeper","inputs":[{"name":"caller","type":"address","internalType":"address"}]},{"type":"error","name":"CallerIsNotRaft","inputs":[{"name":"caller","type":"address","internalType":"address"}]},{"type":"error","name":"CallerIsNotRaftOrCommander","inputs":[{"name":"caller","type":"address","internalType":"address"}]},{"type":"error","name":"CallerIsNotSuperKeeper","inputs":[{"name":"caller","type":"address","internalType":"address"}]},{"type":"error","name":"DirectGrantIsDisabled","inputs":[{"name":"caller","type":"address","internalType":"address"}]},{"type":"error","name":"DirectRevokeIsDisabled","inputs":[{"name":"caller","type":"address","internalType":"address"}]},{"type":"error","name":"InvalidAccessManagerAddress","inputs":[{"name":"invalidAddress","type":"address","internalType":"address"}]}],"bytecode":{"object":"0x608060405234801561000f575f5ffd5b50604051610d91380380610d9183398101604081905261002e91610108565b6100587f7935bd0ae54bc31f548c14dba4d37c5c64b3f8ca900cb468fb8abd54d5894f558261005f565b5050610135565b5f828152602081815260408083206001600160a01b038516845290915281205460ff166100ff575f838152602081815260408083206001600160a01b03861684529091529020805460ff191660011790556100b73390565b6001600160a01b0316826001600160a01b0316847f2f8788117e7eff1d82e926ec794901d17c78024a50270940304540a733656f0d60405160405180910390a4506001610102565b505f5b92915050565b5f60208284031215610118575f5ffd5b81516001600160a01b038116811461012e575f5ffd5b9392505050565b610c4f806101425f395ff3fe608060405234801561000f575f5ffd5b5060043610610187575f3560e01c806366e943f1116100d9578063ccc5749011610093578063e4dd1dca1161006e578063e4dd1dca1461037e578063e929666514610391578063e9eea177146103a4578063fb914c39146103b7575f5ffd5b8063ccc5749014610344578063d547741f14610358578063d55dd62b1461036b575f5ffd5b806366e943f1146102ca57806366ebbf74146102f157806369b3054b146103045780637adac90d1461031757806391d148541461032a578063a217fddf1461033d575f5ffd5b80632a25d1421161014457806336568abe1161011f57806336568abe1461027e5780634b4b5389146102915780634cfa6107146102a457806353b53813146102b7575f5ffd5b80632a25d142146102455780632da51722146102585780632f2ff15d1461026b575f5ffd5b806301ffc9a71461018b57806310e7b489146101b35780631981b9a7146101c85780631bacdb34146101db578063248a9ca3146101ee57806324ea54f41461021e575b5f5ffd5b61019e610199366004610a83565b6103ca565b60405190151581526020015b60405180910390f35b6101c66101c1366004610acc565b6103f4565b005b6101c66101d6366004610ae5565b61045d565b6101c66101e9366004610acc565b61049f565b6102106101fc366004610b16565b5f9081526020819052604090206001015490565b6040519081526020016101aa565b6102107f55435dd261a4b9b3364963f7738a7a662ad9c84396d64be3365284bb7f0a504181565b6101c6610253366004610b3b565b6104ff565b6101c6610266366004610acc565b610553565b6101c6610279366004610b7b565b6105b3565b6101c661028c366004610b7b565b6105ce565b6101c661029f366004610acc565b610606565b6101c66102b2366004610ae5565b610666565b6101c66102c5366004610ae5565b6106a8565b6102107f0d186688925976bbe6755ae984501c8e3e2b103a7af59fd803ab9c6d891ae7e081565b6101c66102ff366004610ae5565b6106ea565b610210610312366004610b9c565b61072c565b6101c6610325366004610b3b565b61075e565b61019e610338366004610b7b565b6107ab565b6102105f81565b6102105f516020610bfa5f395f51905f5281565b6101c6610366366004610b7b565b6107d3565b6101c6610379366004610b9c565b6107ee565b6101c661038c366004610acc565b61083b565b6101c661039f366004610ae5565b610888565b6101c66103b2366004610ae5565b6108c9565b6101c66103c5366004610acc565b61090a565b5f6001600160e01b0319821663fe1a291f60e01b14806103ee57506103ee82610957565b92915050565b61040b5f516020610bfa5f395f51905f52336107ab565b61042f57604051630ea7d7ed60e21b81523360048201526024015b60405180910390fd5b6104597f55435dd261a4b9b3364963f7738a7a662ad9c84396d64be3365284bb7f0a50418261098b565b5050565b6104745f516020610bfa5f395f51905f52336107ab565b61049357604051630ea7d7ed60e21b8152336004820152602401610426565b610459600283836104ff565b6104b65f516020610bfa5f395f51905f52336107ab565b6104d557604051630ea7d7ed60e21b8152336004820152602401610426565b6104597f0d186688925976bbe6755ae984501c8e3e2b103a7af59fd803ab9c6d891ae7e082610a1a565b6105165f516020610bfa5f395f51905f52336107ab565b61053557604051630ea7d7ed60e21b8152336004820152602401610426565b5f610540848461072c565b905061054c818361098b565b5050505050565b61056a5f516020610bfa5f395f51905f52336107ab565b61058957604051630ea7d7ed60e21b8152336004820152602401610426565b6104597f0d186688925976bbe6755ae984501c8e3e2b103a7af59fd803ab9c6d891ae7e08261098b565b604051630e15200f60e21b8152336004820152602401610426565b6001600160a01b03811633146105f75760405163334bd91960e11b815260040160405180910390fd5b6106018282610a1a565b505050565b61061d5f516020610bfa5f395f51905f52336107ab565b61063c57604051630ea7d7ed60e21b8152336004820152602401610426565b6104597f55435dd261a4b9b3364963f7738a7a662ad9c84396d64be3365284bb7f0a504182610a1a565b61067d5f516020610bfa5f395f51905f52336107ab565b61069c57604051630ea7d7ed60e21b8152336004820152602401610426565b6104596001838361075e565b6106bf5f516020610bfa5f395f51905f52336107ab565b6106de57604051630ea7d7ed60e21b8152336004820152602401610426565b6104596002838361075e565b6107015f516020610bfa5f395f51905f52336107ab565b61072057604051630ea7d7ed60e21b8152336004820152602401610426565b610459600183836104ff565b5f8282604051602001610740929190610bb6565b60405160208183030381529060405280519060200120905092915050565b6107755f516020610bfa5f395f51905f52336107ab565b61079457604051630ea7d7ed60e21b8152336004820152602401610426565b5f61079f848461072c565b905061054c8183610a1a565b5f918252602082815260408084206001600160a01b0393909316845291905290205460ff1690565b604051636344978560e11b8152336004820152602401610426565b5f6107f9838361072c565b905061080581336107ab565b61082b57604051633f904edb60e11b815233600482015260248101829052604401610426565b6108358133610a1a565b50505050565b6108525f516020610bfa5f395f51905f52336107ab565b61087157604051630ea7d7ed60e21b8152336004820152602401610426565b6104595f516020610bfa5f395f51905f528261098b565b61089f5f516020610bfa5f395f51905f52336107ab565b6108be57604051630ea7d7ed60e21b8152336004820152602401610426565b6104595f838361075e565b6108e05f516020610bfa5f395f51905f52336107ab565b6108ff57604051630ea7d7ed60e21b8152336004820152602401610426565b6104595f83836104ff565b6109215f516020610bfa5f395f51905f52336107ab565b61094057604051630ea7d7ed60e21b8152336004820152602401610426565b6104595f516020610bfa5f395f51905f5282610a1a565b5f6001600160e01b03198216637965db0b60e01b14806103ee57506301ffc9a760e01b6001600160e01b03198316146103ee565b5f61099683836107ab565b610a13575f838152602081815260408083206001600160a01b03861684529091529020805460ff191660011790556109cb3390565b6001600160a01b0316826001600160a01b0316847f2f8788117e7eff1d82e926ec794901d17c78024a50270940304540a733656f0d60405160405180910390a45060016103ee565b505f6103ee565b5f610a2583836107ab565b15610a13575f838152602081815260408083206001600160a01b0386168085529252808320805460ff1916905551339286917ff6391f5c32d9c69d2a47ea670b442974b53935d1edc7fd64eb21e047a839171b9190a45060016103ee565b5f60208284031215610a93575f5ffd5b81356001600160e01b031981168114610aaa575f5ffd5b9392505050565b80356001600160a01b0381168114610ac7575f5ffd5b919050565b5f60208284031215610adc575f5ffd5b610aaa82610ab1565b5f5f60408385031215610af6575f5ffd5b610aff83610ab1565b9150610b0d60208401610ab1565b90509250929050565b5f60208284031215610b26575f5ffd5b5035919050565b803560038110610ac7575f5ffd5b5f5f5f60608486031215610b4d575f5ffd5b610b5684610b2d565b9250610b6460208501610ab1565b9150610b7260408501610ab1565b90509250925092565b5f5f60408385031215610b8c575f5ffd5b82359150610b0d60208401610ab1565b5f5f60408385031215610bad575f5ffd5b610aff83610b2d565b5f60038410610bd357634e487b7160e01b5f52602160045260245ffd5b5060f89290921b825260601b6bffffffffffffffffffffffff191660018201526015019056fe7935bd0ae54bc31f548c14dba4d37c5c64b3f8ca900cb468fb8abd54d5894f55a2646970667358221220e9f131d6c58e58c6f903bb6aaeb4ae44e67a07794c7bf74951a938bb90c8e10f64736f6c634300081c0033","linkReferences":{}},"methodIdentifiers":{"DEFAULT_ADMIN_ROLE()":"a217fddf","GOVERNOR_ROLE()":"ccc57490","GUARDIAN_ROLE()":"24ea54f4","SUPER_KEEPER_ROLE()":"66e943f1","generateRole(uint8,address)":"69b3054b","getRoleAdmin(bytes32)":"248a9ca3","grantCommanderRole(address,address)":"1981b9a7","grantContractSpecificRole(uint8,address,address)":"2a25d142","grantCuratorRole(address,address)":"e9eea177","grantGovernorRole(address)":"e4dd1dca","grantGuardianRole(address)":"10e7b489","grantKeeperRole(address,address)":"66ebbf74","grantRole(bytes32,address)":"2f2ff15d","grantSuperKeeperRole(address)":"2da51722","hasRole(bytes32,address)":"91d14854","renounceRole(bytes32,address)":"36568abe","revokeCommanderRole(address,address)":"53b53813","revokeContractSpecificRole(uint8,address,address)":"7adac90d","revokeCuratorRole(address,address)":"e9296665","revokeGovernorRole(address)":"fb914c39","revokeGuardianRole(address)":"4b4b5389","revokeKeeperRole(address,address)":"4cfa6107","revokeRole(bytes32,address)":"d547741f","revokeSuperKeeperRole(address)":"1bacdb34","selfRevokeContractSpecificRole(uint8,address)":"d55dd62b","supportsInterface(bytes4)":"01ffc9a7"},"id":193}