{"abi":[{"type":"constructor","inputs":[{"name":"governor","type":"address","internalType":"address"}],"stateMutability":"nonpayable"},{"type":"function","name":"ADMIRALS_QUARTERS_ROLE","inputs":[],"outputs":[{"name":"","type":"bytes32","internalType":"bytes32"}],"stateMutability":"view"},{"type":"function","name":"DECAY_CONTROLLER_ROLE","inputs":[],"outputs":[{"name":"","type":"bytes32","internalType":"bytes32"}],"stateMutability":"view"},{"type":"function","name":"DEFAULT_ADMIN_ROLE","inputs":[],"outputs":[{"name":"","type":"bytes32","internalType":"bytes32"}],"stateMutability":"view"},{"type":"function","name":"GOVERNOR_ROLE","inputs":[],"outputs":[{"name":"","type":"bytes32","internalType":"bytes32"}],"stateMutability":"view"},{"type":"function","name":"GUARDIAN_ROLE","inputs":[],"outputs":[{"name":"","type":"bytes32","internalType":"bytes32"}],"stateMutability":"view"},{"type":"function","name":"SUPER_KEEPER_ROLE","inputs":[],"outputs":[{"name":"","type":"bytes32","internalType":"bytes32"}],"stateMutability":"view"},{"type":"function","name":"generateRole","inputs":[{"name":"roleName","type":"uint8","internalType":"enum ContractSpecificRoles"},{"name":"roleTargetContract","type":"address","internalType":"address"}],"outputs":[{"name":"","type":"bytes32","internalType":"bytes32"}],"stateMutability":"pure"},{"type":"function","name":"getRoleAdmin","inputs":[{"name":"role","type":"bytes32","internalType":"bytes32"}],"outputs":[{"name":"","type":"bytes32","internalType":"bytes32"}],"stateMutability":"view"},{"type":"function","name":"grantAdmiralsQuartersRole","inputs":[{"name":"account","type":"address","internalType":"address"}],"outputs":[],"stateMutability":"nonpayable"},{"type":"function","name":"grantCommanderRole","inputs":[{"name":"arkAddress","type":"address","internalType":"address"},{"name":"account","type":"address","internalType":"address"}],"outputs":[],"stateMutability":"nonpayable"},{"type":"function","name":"grantContractSpecificRole","inputs":[{"name":"roleName","type":"uint8","internalType":"enum ContractSpecificRoles"},{"name":"roleTargetContract","type":"address","internalType":"address"},{"name":"roleOwner","type":"address","internalType":"address"}],"outputs":[],"stateMutability":"nonpayable"},{"type":"function","name":"grantCuratorRole","inputs":[{"name":"fleetCommanderAddress","type":"address","internalType":"address"},{"name":"account","type":"address","internalType":"address"}],"outputs":[],"stateMutability":"nonpayable"},{"type":"function","name":"grantDecayControllerRole","inputs":[{"name":"account","type":"address","internalType":"address"}],"outputs":[],"stateMutability":"nonpayable"},{"type":"function","name":"grantGovernorRole","inputs":[{"name":"account","type":"address","internalType":"address"}],"outputs":[],"stateMutability":"nonpayable"},{"type":"function","name":"grantGuardianRole","inputs":[{"name":"account","type":"address","internalType":"address"}],"outputs":[],"stateMutability":"nonpayable"},{"type":"function","name":"grantKeeperRole","inputs":[{"name":"fleetCommanderAddress","type":"address","internalType":"address"},{"name":"account","type":"address","internalType":"address"}],"outputs":[],"stateMutability":"nonpayable"},{"type":"function","name":"grantRole","inputs":[{"name":"","type":"bytes32","internalType":"bytes32"},{"name":"","type":"address","internalType":"address"}],"outputs":[],"stateMutability":"view"},{"type":"function","name":"grantSuperKeeperRole","inputs":[{"name":"account","type":"address","internalType":"address"}],"outputs":[],"stateMutability":"nonpayable"},{"type":"function","name":"hasRole","inputs":[{"name":"role","type":"bytes32","internalType":"bytes32"},{"name":"account","type":"address","internalType":"address"}],"outputs":[{"name":"","type":"bool","internalType":"bool"}],"stateMutability":"view"},{"type":"function","name":"renounceRole","inputs":[{"name":"role","type":"bytes32","internalType":"bytes32"},{"name":"callerConfirmation","type":"address","internalType":"address"}],"outputs":[],"stateMutability":"nonpayable"},{"type":"function","name":"revokeAdmiralsQuartersRole","inputs":[{"name":"account","type":"address","internalType":"address"}],"outputs":[],"stateMutability":"nonpayable"},{"type":"function","name":"revokeCommanderRole","inputs":[{"name":"arkAddress","type":"address","internalType":"address"},{"name":"account","type":"address","internalType":"address"}],"outputs":[],"stateMutability":"nonpayable"},{"type":"function","name":"revokeContractSpecificRole","inputs":[{"name":"roleName","type":"uint8","internalType":"enum ContractSpecificRoles"},{"name":"roleTargetContract","type":"address","internalType":"address"},{"name":"roleOwner","type":"address","internalType":"address"}],"outputs":[],"stateMutability":"nonpayable"},{"type":"function","name":"revokeCuratorRole","inputs":[{"name":"fleetCommanderAddress","type":"address","internalType":"address"},{"name":"account","type":"address","internalType":"address"}],"outputs":[],"stateMutability":"nonpayable"},{"type":"function","name":"revokeDecayControllerRole","inputs":[{"name":"account","type":"address","internalType":"address"}],"outputs":[],"stateMutability":"nonpayable"},{"type":"function","name":"revokeGovernorRole","inputs":[{"name":"account","type":"address","internalType":"address"}],"outputs":[],"stateMutability":"nonpayable"},{"type":"function","name":"revokeGuardianRole","inputs":[{"name":"account","type":"address","internalType":"address"}],"outputs":[],"stateMutability":"nonpayable"},{"type":"function","name":"revokeKeeperRole","inputs":[{"name":"fleetCommanderAddress","type":"address","internalType":"address"},{"name":"account","type":"address","internalType":"address"}],"outputs":[],"stateMutability":"nonpayable"},{"type":"function","name":"revokeRole","inputs":[{"name":"","type":"bytes32","internalType":"bytes32"},{"name":"","type":"address","internalType":"address"}],"outputs":[],"stateMutability":"view"},{"type":"function","name":"revokeSuperKeeperRole","inputs":[{"name":"account","type":"address","internalType":"address"}],"outputs":[],"stateMutability":"nonpayable"},{"type":"function","name":"selfRevokeContractSpecificRole","inputs":[{"name":"roleName","type":"uint8","internalType":"enum ContractSpecificRoles"},{"name":"roleTargetContract","type":"address","internalType":"address"}],"outputs":[],"stateMutability":"nonpayable"},{"type":"function","name":"supportsInterface","inputs":[{"name":"interfaceId","type":"bytes4","internalType":"bytes4"}],"outputs":[{"name":"","type":"bool","internalType":"bool"}],"stateMutability":"view"},{"type":"event","name":"RoleAdminChanged","inputs":[{"name":"role","type":"bytes32","indexed":true,"internalType":"bytes32"},{"name":"previousAdminRole","type":"bytes32","indexed":true,"internalType":"bytes32"},{"name":"newAdminRole","type":"bytes32","indexed":true,"internalType":"bytes32"}],"anonymous":false},{"type":"event","name":"RoleGranted","inputs":[{"name":"role","type":"bytes32","indexed":true,"internalType":"bytes32"},{"name":"account","type":"address","indexed":true,"internalType":"address"},{"name":"sender","type":"address","indexed":true,"internalType":"address"}],"anonymous":false},{"type":"event","name":"RoleRevoked","inputs":[{"name":"role","type":"bytes32","indexed":true,"internalType":"bytes32"},{"name":"account","type":"address","indexed":true,"internalType":"address"},{"name":"sender","type":"address","indexed":true,"internalType":"address"}],"anonymous":false},{"type":"error","name":"AccessControlBadConfirmation","inputs":[]},{"type":"error","name":"AccessControlUnauthorizedAccount","inputs":[{"name":"account","type":"address","internalType":"address"},{"name":"neededRole","type":"bytes32","internalType":"bytes32"}]},{"type":"error","name":"CallerIsNotAdmin","inputs":[{"name":"caller","type":"address","internalType":"address"}]},{"type":"error","name":"CallerIsNotAuthorizedToBoard","inputs":[{"name":"caller","type":"address","internalType":"address"}]},{"type":"error","name":"CallerIsNotCommander","inputs":[{"name":"caller","type":"address","internalType":"address"}]},{"type":"error","name":"CallerIsNotContractSpecificRole","inputs":[{"name":"caller","type":"address","internalType":"address"},{"name":"role","type":"bytes32","internalType":"bytes32"}]},{"type":"error","name":"CallerIsNotCurator","inputs":[{"name":"caller","type":"address","internalType":"address"}]},{"type":"error","name":"CallerIsNotDecayController","inputs":[{"name":"caller","type":"address","internalType":"address"}]},{"type":"error","name":"CallerIsNotGovernor","inputs":[{"name":"caller","type":"address","internalType":"address"}]},{"type":"error","name":"CallerIsNotGuardian","inputs":[{"name":"caller","type":"address","internalType":"address"}]},{"type":"error","name":"CallerIsNotGuardianOrGovernor","inputs":[{"name":"caller","type":"address","internalType":"address"}]},{"type":"error","name":"CallerIsNotKeeper","inputs":[{"name":"caller","type":"address","internalType":"address"}]},{"type":"error","name":"CallerIsNotRaft","inputs":[{"name":"caller","type":"address","internalType":"address"}]},{"type":"error","name":"CallerIsNotRaftOrCommander","inputs":[{"name":"caller","type":"address","internalType":"address"}]},{"type":"error","name":"CallerIsNotSuperKeeper","inputs":[{"name":"caller","type":"address","internalType":"address"}]},{"type":"error","name":"DirectGrantIsDisabled","inputs":[{"name":"caller","type":"address","internalType":"address"}]},{"type":"error","name":"DirectRevokeIsDisabled","inputs":[{"name":"caller","type":"address","internalType":"address"}]},{"type":"error","name":"InvalidAccessManagerAddress","inputs":[{"name":"invalidAddress","type":"address","internalType":"address"}]}],"bytecode":{"object":"0x608060405234801561000f575f5ffd5b5060405161101338038061101383398101604081905261002e91610108565b6100587f7935bd0ae54bc31f548c14dba4d37c5c64b3f8ca900cb468fb8abd54d5894f558261005f565b5050610135565b5f828152602081815260408083206001600160a01b038516845290915281205460ff166100ff575f838152602081815260408083206001600160a01b03861684529091529020805460ff191660011790556100b73390565b6001600160a01b0316826001600160a01b0316847f2f8788117e7eff1d82e926ec794901d17c78024a50270940304540a733656f0d60405160405180910390a4506001610102565b505f5b92915050565b5f60208284031215610118575f5ffd5b81516001600160a01b038116811461012e575f5ffd5b9392505050565b610ed1806101425f395ff3fe608060405234801561000f575f5ffd5b50600436106101e7575f3560e01c806366ebbf7411610109578063c0b534c21161009e578063e4dd1dca1161006e578063e4dd1dca14610478578063e92966651461048b578063e9eea1771461049e578063fb914c39146104b1575f5ffd5b8063c0b534c214610417578063ccc574901461043e578063d547741f14610452578063d55dd62b14610465575f5ffd5b8063851ecbfd116100d9578063851ecbfd146103c357806391d14854146103d6578063a217fddf146103e9578063a89f38a3146103f0575f5ffd5b806366ebbf741461037757806369b3054b1461038a5780637820bd841461039d5780637adac90d146103b0575f5ffd5b80632a25d1421161017f5780634b4b53891161014f5780634b4b5389146103175780634cfa61071461032a57806353b538131461033d57806366e943f114610350575f5ffd5b80632a25d142146102cb5780632da51722146102de5780632f2ff15d146102f157806336568abe14610304575f5ffd5b80631deb14aa116101ba5780631deb14aa1461024e578063248a9ca31461026157806324ea54f41461029157806326088717146102b8575f5ffd5b806301ffc9a7146101eb57806310e7b489146102135780631981b9a7146102285780631bacdb341461023b575b5f5ffd5b6101fe6101f9366004610d05565b6104c4565b60405190151581526020015b60405180910390f35b610226610221366004610d4e565b6104ee565b005b610226610236366004610d67565b610557565b610226610249366004610d4e565b610599565b61022661025c366004610d4e565b6105f9565b61028361026f366004610d98565b5f9081526020819052604090206001015490565b60405190815260200161020a565b6102837f55435dd261a4b9b3364963f7738a7a662ad9c84396d64be3365284bb7f0a504181565b6102266102c6366004610d4e565b610659565b6102266102d9366004610dbd565b61069f565b6102266102ec366004610d4e565b6106f3565b6102266102ff366004610dfd565b610753565b610226610312366004610dfd565b61076e565b610226610325366004610d4e565b6107a1565b610226610338366004610d67565b610801565b61022661034b366004610d67565b610843565b6102837f0d186688925976bbe6755ae984501c8e3e2b103a7af59fd803ab9c6d891ae7e081565b610226610385366004610d67565b610885565b610283610398366004610e1e565b6108c7565b6102266103ab366004610d4e565b6108f9565b6102266103be366004610dbd565b610959565b6102266103d1366004610d4e565b6109a6565b6101fe6103e4366004610dfd565b6109e7565b6102835f81565b6102837fb00be3d6a5434b97b328543d1486d56adcb7e74080170d1cdd7e0306c3d9ba3d81565b6102837f025d8bbf3268be680d2605ebf6da15063b9915615bf1087dab336efc1bf970cb81565b6102835f516020610e7c5f395f51905f5281565b610226610460366004610dfd565b610a0f565b610226610473366004610e1e565b610a2a565b610226610486366004610d4e565b610a77565b610226610499366004610d67565b610ac4565b6102266104ac366004610d67565b610b05565b6102266104bf366004610d4e565b610b46565b5f6001600160e01b031982166338c7ccdb60e01b14806104e857506104e882610b93565b92915050565b6105055f516020610e7c5f395f51905f52336109e7565b61052957604051630ea7d7ed60e21b81523360048201526024015b60405180910390fd5b6105537f55435dd261a4b9b3364963f7738a7a662ad9c84396d64be3365284bb7f0a504182610bc7565b5050565b61056e5f516020610e7c5f395f51905f52336109e7565b61058d57604051630ea7d7ed60e21b8152336004820152602401610520565b6105536002838361069f565b6105b05f516020610e7c5f395f51905f52336109e7565b6105cf57604051630ea7d7ed60e21b8152336004820152602401610520565b6105537f0d186688925976bbe6755ae984501c8e3e2b103a7af59fd803ab9c6d891ae7e082610c56565b6106105f516020610e7c5f395f51905f52336109e7565b61062f57604051630ea7d7ed60e21b8152336004820152602401610520565b6105537f025d8bbf3268be680d2605ebf6da15063b9915615bf1087dab336efc1bf970cb82610bc7565b5f516020610e7c5f395f51905f5261067081610cbf565b61069a7fb00be3d6a5434b97b328543d1486d56adcb7e74080170d1cdd7e0306c3d9ba3d83610c56565b505050565b6106b65f516020610e7c5f395f51905f52336109e7565b6106d557604051630ea7d7ed60e21b8152336004820152602401610520565b5f6106e084846108c7565b90506106ec8183610bc7565b5050505050565b61070a5f516020610e7c5f395f51905f52336109e7565b61072957604051630ea7d7ed60e21b8152336004820152602401610520565b6105537f0d186688925976bbe6755ae984501c8e3e2b103a7af59fd803ab9c6d891ae7e082610bc7565b604051630e15200f60e21b8152336004820152602401610520565b6001600160a01b03811633146107975760405163334bd91960e11b815260040160405180910390fd5b61069a8282610c56565b6107b85f516020610e7c5f395f51905f52336109e7565b6107d757604051630ea7d7ed60e21b8152336004820152602401610520565b6105537f55435dd261a4b9b3364963f7738a7a662ad9c84396d64be3365284bb7f0a504182610c56565b6108185f516020610e7c5f395f51905f52336109e7565b61083757604051630ea7d7ed60e21b8152336004820152602401610520565b61055360018383610959565b61085a5f516020610e7c5f395f51905f52336109e7565b61087957604051630ea7d7ed60e21b8152336004820152602401610520565b61055360028383610959565b61089c5f516020610e7c5f395f51905f52336109e7565b6108bb57604051630ea7d7ed60e21b8152336004820152602401610520565b6105536001838361069f565b5f82826040516020016108db929190610e38565b60405160208183030381529060405280519060200120905092915050565b6109105f516020610e7c5f395f51905f52336109e7565b61092f57604051630ea7d7ed60e21b8152336004820152602401610520565b6105537f025d8bbf3268be680d2605ebf6da15063b9915615bf1087dab336efc1bf970cb82610c56565b6109705f516020610e7c5f395f51905f52336109e7565b61098f57604051630ea7d7ed60e21b8152336004820152602401610520565b5f61099a84846108c7565b90506106ec8183610c56565b5f516020610e7c5f395f51905f526109bd81610cbf565b61069a7fb00be3d6a5434b97b328543d1486d56adcb7e74080170d1cdd7e0306c3d9ba3d83610bc7565b5f918252602082815260408084206001600160a01b0393909316845291905290205460ff1690565b604051636344978560e11b8152336004820152602401610520565b5f610a3583836108c7565b9050610a4181336109e7565b610a6757604051633f904edb60e11b815233600482015260248101829052604401610520565b610a718133610c56565b50505050565b610a8e5f516020610e7c5f395f51905f52336109e7565b610aad57604051630ea7d7ed60e21b8152336004820152602401610520565b6105535f516020610e7c5f395f51905f5282610bc7565b610adb5f516020610e7c5f395f51905f52336109e7565b610afa57604051630ea7d7ed60e21b8152336004820152602401610520565b6105535f8383610959565b610b1c5f516020610e7c5f395f51905f52336109e7565b610b3b57604051630ea7d7ed60e21b8152336004820152602401610520565b6105535f838361069f565b610b5d5f516020610e7c5f395f51905f52336109e7565b610b7c57604051630ea7d7ed60e21b8152336004820152602401610520565b6105535f516020610e7c5f395f51905f5282610c56565b5f6001600160e01b03198216637965db0b60e01b14806104e857506301ffc9a760e01b6001600160e01b03198316146104e8565b5f610bd283836109e7565b610c4f575f838152602081815260408083206001600160a01b03861684529091529020805460ff19166001179055610c073390565b6001600160a01b0316826001600160a01b0316847f2f8788117e7eff1d82e926ec794901d17c78024a50270940304540a733656f0d60405160405180910390a45060016104e8565b505f6104e8565b5f610c6183836109e7565b15610c4f575f838152602081815260408083206001600160a01b0386168085529252808320805460ff1916905551339286917ff6391f5c32d9c69d2a47ea670b442974b53935d1edc7fd64eb21e047a839171b9190a45060016104e8565b610cc98133610ccc565b50565b610cd682826109e7565b6105535760405163e2517d3f60e01b81526001600160a01b038216600482015260248101839052604401610520565b5f60208284031215610d15575f5ffd5b81356001600160e01b031981168114610d2c575f5ffd5b9392505050565b80356001600160a01b0381168114610d49575f5ffd5b919050565b5f60208284031215610d5e575f5ffd5b610d2c82610d33565b5f5f60408385031215610d78575f5ffd5b610d8183610d33565b9150610d8f60208401610d33565b90509250929050565b5f60208284031215610da8575f5ffd5b5035919050565b803560038110610d49575f5ffd5b5f5f5f60608486031215610dcf575f5ffd5b610dd884610daf565b9250610de660208501610d33565b9150610df460408501610d33565b90509250925092565b5f5f60408385031215610e0e575f5ffd5b82359150610d8f60208401610d33565b5f5f60408385031215610e2f575f5ffd5b610d8183610daf565b5f60038410610e5557634e487b7160e01b5f52602160045260245ffd5b5060f89290921b825260601b6bffffffffffffffffffffffff191660018201526015019056fe7935bd0ae54bc31f548c14dba4d37c5c64b3f8ca900cb468fb8abd54d5894f55a26469706673582212209e239c3ffb5f1f56dc7841e435218a4109954b567eb262e05b9542409519905c64736f6c634300081c0033","linkReferences":{}},"methodIdentifiers":{"ADMIRALS_QUARTERS_ROLE()":"a89f38a3","DECAY_CONTROLLER_ROLE()":"c0b534c2","DEFAULT_ADMIN_ROLE()":"a217fddf","GOVERNOR_ROLE()":"ccc57490","GUARDIAN_ROLE()":"24ea54f4","SUPER_KEEPER_ROLE()":"66e943f1","generateRole(uint8,address)":"69b3054b","getRoleAdmin(bytes32)":"248a9ca3","grantAdmiralsQuartersRole(address)":"851ecbfd","grantCommanderRole(address,address)":"1981b9a7","grantContractSpecificRole(uint8,address,address)":"2a25d142","grantCuratorRole(address,address)":"e9eea177","grantDecayControllerRole(address)":"1deb14aa","grantGovernorRole(address)":"e4dd1dca","grantGuardianRole(address)":"10e7b489","grantKeeperRole(address,address)":"66ebbf74","grantRole(bytes32,address)":"2f2ff15d","grantSuperKeeperRole(address)":"2da51722","hasRole(bytes32,address)":"91d14854","renounceRole(bytes32,address)":"36568abe","revokeAdmiralsQuartersRole(address)":"26088717","revokeCommanderRole(address,address)":"53b53813","revokeContractSpecificRole(uint8,address,address)":"7adac90d","revokeCuratorRole(address,address)":"e9296665","revokeDecayControllerRole(address)":"7820bd84","revokeGovernorRole(address)":"fb914c39","revokeGuardianRole(address)":"4b4b5389","revokeKeeperRole(address,address)":"4cfa6107","revokeRole(bytes32,address)":"d547741f","revokeSuperKeeperRole(address)":"1bacdb34","selfRevokeContractSpecificRole(uint8,address)":"d55dd62b","supportsInterface(bytes4)":"01ffc9a7"},"id":2}