{"abi":[{"type":"constructor","inputs":[{"name":"governor","type":"address","internalType":"address"}],"stateMutability":"nonpayable"},{"type":"function","name":"DECAY_CONTROLLER_ROLE","inputs":[],"outputs":[{"name":"","type":"bytes32","internalType":"bytes32"}],"stateMutability":"view"},{"type":"function","name":"DEFAULT_ADMIN_ROLE","inputs":[],"outputs":[{"name":"","type":"bytes32","internalType":"bytes32"}],"stateMutability":"view"},{"type":"function","name":"GOVERNOR_ROLE","inputs":[],"outputs":[{"name":"","type":"bytes32","internalType":"bytes32"}],"stateMutability":"view"},{"type":"function","name":"GUARDIAN_ROLE","inputs":[],"outputs":[{"name":"","type":"bytes32","internalType":"bytes32"}],"stateMutability":"view"},{"type":"function","name":"SUPER_KEEPER_ROLE","inputs":[],"outputs":[{"name":"","type":"bytes32","internalType":"bytes32"}],"stateMutability":"view"},{"type":"function","name":"generateRole","inputs":[{"name":"roleName","type":"uint8","internalType":"enum ContractSpecificRoles"},{"name":"roleTargetContract","type":"address","internalType":"address"}],"outputs":[{"name":"","type":"bytes32","internalType":"bytes32"}],"stateMutability":"pure"},{"type":"function","name":"getRoleAdmin","inputs":[{"name":"role","type":"bytes32","internalType":"bytes32"}],"outputs":[{"name":"","type":"bytes32","internalType":"bytes32"}],"stateMutability":"view"},{"type":"function","name":"grantCommanderRole","inputs":[{"name":"arkAddress","type":"address","internalType":"address"},{"name":"account","type":"address","internalType":"address"}],"outputs":[],"stateMutability":"nonpayable"},{"type":"function","name":"grantContractSpecificRole","inputs":[{"name":"roleName","type":"uint8","internalType":"enum ContractSpecificRoles"},{"name":"roleTargetContract","type":"address","internalType":"address"},{"name":"roleOwner","type":"address","internalType":"address"}],"outputs":[],"stateMutability":"nonpayable"},{"type":"function","name":"grantCuratorRole","inputs":[{"name":"fleetCommanderAddress","type":"address","internalType":"address"},{"name":"account","type":"address","internalType":"address"}],"outputs":[],"stateMutability":"nonpayable"},{"type":"function","name":"grantDecayControllerRole","inputs":[{"name":"account","type":"address","internalType":"address"}],"outputs":[],"stateMutability":"nonpayable"},{"type":"function","name":"grantGovernorRole","inputs":[{"name":"account","type":"address","internalType":"address"}],"outputs":[],"stateMutability":"nonpayable"},{"type":"function","name":"grantGuardianRole","inputs":[{"name":"account","type":"address","internalType":"address"}],"outputs":[],"stateMutability":"nonpayable"},{"type":"function","name":"grantKeeperRole","inputs":[{"name":"fleetCommanderAddress","type":"address","internalType":"address"},{"name":"account","type":"address","internalType":"address"}],"outputs":[],"stateMutability":"nonpayable"},{"type":"function","name":"grantRole","inputs":[{"name":"","type":"bytes32","internalType":"bytes32"},{"name":"","type":"address","internalType":"address"}],"outputs":[],"stateMutability":"view"},{"type":"function","name":"grantSuperKeeperRole","inputs":[{"name":"account","type":"address","internalType":"address"}],"outputs":[],"stateMutability":"nonpayable"},{"type":"function","name":"hasRole","inputs":[{"name":"role","type":"bytes32","internalType":"bytes32"},{"name":"account","type":"address","internalType":"address"}],"outputs":[{"name":"","type":"bool","internalType":"bool"}],"stateMutability":"view"},{"type":"function","name":"renounceRole","inputs":[{"name":"role","type":"bytes32","internalType":"bytes32"},{"name":"callerConfirmation","type":"address","internalType":"address"}],"outputs":[],"stateMutability":"nonpayable"},{"type":"function","name":"revokeCommanderRole","inputs":[{"name":"arkAddress","type":"address","internalType":"address"},{"name":"account","type":"address","internalType":"address"}],"outputs":[],"stateMutability":"nonpayable"},{"type":"function","name":"revokeContractSpecificRole","inputs":[{"name":"roleName","type":"uint8","internalType":"enum ContractSpecificRoles"},{"name":"roleTargetContract","type":"address","internalType":"address"},{"name":"roleOwner","type":"address","internalType":"address"}],"outputs":[],"stateMutability":"nonpayable"},{"type":"function","name":"revokeCuratorRole","inputs":[{"name":"fleetCommanderAddress","type":"address","internalType":"address"},{"name":"account","type":"address","internalType":"address"}],"outputs":[],"stateMutability":"nonpayable"},{"type":"function","name":"revokeDecayControllerRole","inputs":[{"name":"account","type":"address","internalType":"address"}],"outputs":[],"stateMutability":"nonpayable"},{"type":"function","name":"revokeGovernorRole","inputs":[{"name":"account","type":"address","internalType":"address"}],"outputs":[],"stateMutability":"nonpayable"},{"type":"function","name":"revokeGuardianRole","inputs":[{"name":"account","type":"address","internalType":"address"}],"outputs":[],"stateMutability":"nonpayable"},{"type":"function","name":"revokeKeeperRole","inputs":[{"name":"fleetCommanderAddress","type":"address","internalType":"address"},{"name":"account","type":"address","internalType":"address"}],"outputs":[],"stateMutability":"nonpayable"},{"type":"function","name":"revokeRole","inputs":[{"name":"","type":"bytes32","internalType":"bytes32"},{"name":"","type":"address","internalType":"address"}],"outputs":[],"stateMutability":"view"},{"type":"function","name":"revokeSuperKeeperRole","inputs":[{"name":"account","type":"address","internalType":"address"}],"outputs":[],"stateMutability":"nonpayable"},{"type":"function","name":"selfRevokeContractSpecificRole","inputs":[{"name":"roleName","type":"uint8","internalType":"enum ContractSpecificRoles"},{"name":"roleTargetContract","type":"address","internalType":"address"}],"outputs":[],"stateMutability":"nonpayable"},{"type":"function","name":"supportsInterface","inputs":[{"name":"interfaceId","type":"bytes4","internalType":"bytes4"}],"outputs":[{"name":"","type":"bool","internalType":"bool"}],"stateMutability":"view"},{"type":"event","name":"RoleAdminChanged","inputs":[{"name":"role","type":"bytes32","indexed":true,"internalType":"bytes32"},{"name":"previousAdminRole","type":"bytes32","indexed":true,"internalType":"bytes32"},{"name":"newAdminRole","type":"bytes32","indexed":true,"internalType":"bytes32"}],"anonymous":false},{"type":"event","name":"RoleGranted","inputs":[{"name":"role","type":"bytes32","indexed":true,"internalType":"bytes32"},{"name":"account","type":"address","indexed":true,"internalType":"address"},{"name":"sender","type":"address","indexed":true,"internalType":"address"}],"anonymous":false},{"type":"event","name":"RoleRevoked","inputs":[{"name":"role","type":"bytes32","indexed":true,"internalType":"bytes32"},{"name":"account","type":"address","indexed":true,"internalType":"address"},{"name":"sender","type":"address","indexed":true,"internalType":"address"}],"anonymous":false},{"type":"error","name":"AccessControlBadConfirmation","inputs":[]},{"type":"error","name":"AccessControlUnauthorizedAccount","inputs":[{"name":"account","type":"address","internalType":"address"},{"name":"neededRole","type":"bytes32","internalType":"bytes32"}]},{"type":"error","name":"CallerIsNotAdmin","inputs":[{"name":"caller","type":"address","internalType":"address"}]},{"type":"error","name":"CallerIsNotAuthorizedToBoard","inputs":[{"name":"caller","type":"address","internalType":"address"}]},{"type":"error","name":"CallerIsNotCommander","inputs":[{"name":"caller","type":"address","internalType":"address"}]},{"type":"error","name":"CallerIsNotContractSpecificRole","inputs":[{"name":"caller","type":"address","internalType":"address"},{"name":"role","type":"bytes32","internalType":"bytes32"}]},{"type":"error","name":"CallerIsNotCurator","inputs":[{"name":"caller","type":"address","internalType":"address"}]},{"type":"error","name":"CallerIsNotDecayController","inputs":[{"name":"caller","type":"address","internalType":"address"}]},{"type":"error","name":"CallerIsNotGovernor","inputs":[{"name":"caller","type":"address","internalType":"address"}]},{"type":"error","name":"CallerIsNotGuardian","inputs":[{"name":"caller","type":"address","internalType":"address"}]},{"type":"error","name":"CallerIsNotGuardianOrGovernor","inputs":[{"name":"caller","type":"address","internalType":"address"}]},{"type":"error","name":"CallerIsNotKeeper","inputs":[{"name":"caller","type":"address","internalType":"address"}]},{"type":"error","name":"CallerIsNotRaft","inputs":[{"name":"caller","type":"address","internalType":"address"}]},{"type":"error","name":"CallerIsNotRaftOrCommander","inputs":[{"name":"caller","type":"address","internalType":"address"}]},{"type":"error","name":"CallerIsNotSuperKeeper","inputs":[{"name":"caller","type":"address","internalType":"address"}]},{"type":"error","name":"DirectGrantIsDisabled","inputs":[{"name":"caller","type":"address","internalType":"address"}]},{"type":"error","name":"DirectRevokeIsDisabled","inputs":[{"name":"caller","type":"address","internalType":"address"}]},{"type":"error","name":"InvalidAccessManagerAddress","inputs":[{"name":"invalidAddress","type":"address","internalType":"address"}]}],"bytecode":{"object":"0x608060405234801561000f575f5ffd5b50604051610edd380380610edd83398101604081905261002e91610108565b6100587f7935bd0ae54bc31f548c14dba4d37c5c64b3f8ca900cb468fb8abd54d5894f558261005f565b5050610135565b5f828152602081815260408083206001600160a01b038516845290915281205460ff166100ff575f838152602081815260408083206001600160a01b03861684529091529020805460ff191660011790556100b73390565b6001600160a01b0316826001600160a01b0316847f2f8788117e7eff1d82e926ec794901d17c78024a50270940304540a733656f0d60405160405180910390a4506001610102565b505f5b92915050565b5f60208284031215610118575f5ffd5b81516001600160a01b038116811461012e575f5ffd5b9392505050565b610d9b806101425f395ff3fe608060405234801561000f575f5ffd5b50600436106101c6575f3560e01c806366e943f1116100fe578063c0b534c21161009e578063e4dd1dca1161006e578063e4dd1dca1461040a578063e92966651461041d578063e9eea17714610430578063fb914c3914610443575f5ffd5b8063c0b534c2146103a9578063ccc57490146103d0578063d547741f146103e4578063d55dd62b146103f7575f5ffd5b80637820bd84116100d95780637820bd84146103695780637adac90d1461037c57806391d148541461038f578063a217fddf146103a2575f5ffd5b806366e943f11461031c57806366ebbf741461034357806369b3054b14610356575f5ffd5b80632a25d1421161016957806336568abe1161014457806336568abe146102d05780634b4b5389146102e35780634cfa6107146102f657806353b5381314610309575f5ffd5b80632a25d142146102975780632da51722146102aa5780632f2ff15d146102bd575f5ffd5b80631bacdb34116101a45780631bacdb341461021a5780631deb14aa1461022d578063248a9ca31461024057806324ea54f414610270575f5ffd5b806301ffc9a7146101ca57806310e7b489146101f25780631981b9a714610207575b5f5ffd5b6101dd6101d8366004610bcf565b610456565b60405190151581526020015b60405180910390f35b610205610200366004610c18565b610480565b005b610205610215366004610c31565b6104e9565b610205610228366004610c18565b61052b565b61020561023b366004610c18565b61058b565b61026261024e366004610c62565b5f9081526020819052604090206001015490565b6040519081526020016101e9565b6102627f55435dd261a4b9b3364963f7738a7a662ad9c84396d64be3365284bb7f0a504181565b6102056102a5366004610c87565b6105eb565b6102056102b8366004610c18565b61063f565b6102056102cb366004610cc7565b61069f565b6102056102de366004610cc7565b6106ba565b6102056102f1366004610c18565b6106f2565b610205610304366004610c31565b610752565b610205610317366004610c31565b610794565b6102627f0d186688925976bbe6755ae984501c8e3e2b103a7af59fd803ab9c6d891ae7e081565b610205610351366004610c31565b6107d6565b610262610364366004610ce8565b610818565b610205610377366004610c18565b61084a565b61020561038a366004610c87565b6108aa565b6101dd61039d366004610cc7565b6108f7565b6102625f81565b6102627f025d8bbf3268be680d2605ebf6da15063b9915615bf1087dab336efc1bf970cb81565b6102625f516020610d465f395f51905f5281565b6102056103f2366004610cc7565b61091f565b610205610405366004610ce8565b61093a565b610205610418366004610c18565b610987565b61020561042b366004610c31565b6109d4565b61020561043e366004610c31565b610a15565b610205610451366004610c18565b610a56565b5f6001600160e01b03198216639bd1803160e01b148061047a575061047a82610aa3565b92915050565b6104975f516020610d465f395f51905f52336108f7565b6104bb57604051630ea7d7ed60e21b81523360048201526024015b60405180910390fd5b6104e57f55435dd261a4b9b3364963f7738a7a662ad9c84396d64be3365284bb7f0a504182610ad7565b5050565b6105005f516020610d465f395f51905f52336108f7565b61051f57604051630ea7d7ed60e21b81523360048201526024016104b2565b6104e5600283836105eb565b6105425f516020610d465f395f51905f52336108f7565b61056157604051630ea7d7ed60e21b81523360048201526024016104b2565b6104e57f0d186688925976bbe6755ae984501c8e3e2b103a7af59fd803ab9c6d891ae7e082610b66565b6105a25f516020610d465f395f51905f52336108f7565b6105c157604051630ea7d7ed60e21b81523360048201526024016104b2565b6104e57f025d8bbf3268be680d2605ebf6da15063b9915615bf1087dab336efc1bf970cb82610ad7565b6106025f516020610d465f395f51905f52336108f7565b61062157604051630ea7d7ed60e21b81523360048201526024016104b2565b5f61062c8484610818565b90506106388183610ad7565b5050505050565b6106565f516020610d465f395f51905f52336108f7565b61067557604051630ea7d7ed60e21b81523360048201526024016104b2565b6104e57f0d186688925976bbe6755ae984501c8e3e2b103a7af59fd803ab9c6d891ae7e082610ad7565b604051630e15200f60e21b81523360048201526024016104b2565b6001600160a01b03811633146106e35760405163334bd91960e11b815260040160405180910390fd5b6106ed8282610b66565b505050565b6107095f516020610d465f395f51905f52336108f7565b61072857604051630ea7d7ed60e21b81523360048201526024016104b2565b6104e57f55435dd261a4b9b3364963f7738a7a662ad9c84396d64be3365284bb7f0a504182610b66565b6107695f516020610d465f395f51905f52336108f7565b61078857604051630ea7d7ed60e21b81523360048201526024016104b2565b6104e5600183836108aa565b6107ab5f516020610d465f395f51905f52336108f7565b6107ca57604051630ea7d7ed60e21b81523360048201526024016104b2565b6104e5600283836108aa565b6107ed5f516020610d465f395f51905f52336108f7565b61080c57604051630ea7d7ed60e21b81523360048201526024016104b2565b6104e5600183836105eb565b5f828260405160200161082c929190610d02565b60405160208183030381529060405280519060200120905092915050565b6108615f516020610d465f395f51905f52336108f7565b61088057604051630ea7d7ed60e21b81523360048201526024016104b2565b6104e57f025d8bbf3268be680d2605ebf6da15063b9915615bf1087dab336efc1bf970cb82610b66565b6108c15f516020610d465f395f51905f52336108f7565b6108e057604051630ea7d7ed60e21b81523360048201526024016104b2565b5f6108eb8484610818565b90506106388183610b66565b5f918252602082815260408084206001600160a01b0393909316845291905290205460ff1690565b604051636344978560e11b81523360048201526024016104b2565b5f6109458383610818565b905061095181336108f7565b61097757604051633f904edb60e11b8152336004820152602481018290526044016104b2565b6109818133610b66565b50505050565b61099e5f516020610d465f395f51905f52336108f7565b6109bd57604051630ea7d7ed60e21b81523360048201526024016104b2565b6104e55f516020610d465f395f51905f5282610ad7565b6109eb5f516020610d465f395f51905f52336108f7565b610a0a57604051630ea7d7ed60e21b81523360048201526024016104b2565b6104e55f83836108aa565b610a2c5f516020610d465f395f51905f52336108f7565b610a4b57604051630ea7d7ed60e21b81523360048201526024016104b2565b6104e55f83836105eb565b610a6d5f516020610d465f395f51905f52336108f7565b610a8c57604051630ea7d7ed60e21b81523360048201526024016104b2565b6104e55f516020610d465f395f51905f5282610b66565b5f6001600160e01b03198216637965db0b60e01b148061047a57506301ffc9a760e01b6001600160e01b031983161461047a565b5f610ae283836108f7565b610b5f575f838152602081815260408083206001600160a01b03861684529091529020805460ff19166001179055610b173390565b6001600160a01b0316826001600160a01b0316847f2f8788117e7eff1d82e926ec794901d17c78024a50270940304540a733656f0d60405160405180910390a450600161047a565b505f61047a565b5f610b7183836108f7565b15610b5f575f838152602081815260408083206001600160a01b0386168085529252808320805460ff1916905551339286917ff6391f5c32d9c69d2a47ea670b442974b53935d1edc7fd64eb21e047a839171b9190a450600161047a565b5f60208284031215610bdf575f5ffd5b81356001600160e01b031981168114610bf6575f5ffd5b9392505050565b80356001600160a01b0381168114610c13575f5ffd5b919050565b5f60208284031215610c28575f5ffd5b610bf682610bfd565b5f5f60408385031215610c42575f5ffd5b610c4b83610bfd565b9150610c5960208401610bfd565b90509250929050565b5f60208284031215610c72575f5ffd5b5035919050565b803560038110610c13575f5ffd5b5f5f5f60608486031215610c99575f5ffd5b610ca284610c79565b9250610cb060208501610bfd565b9150610cbe60408501610bfd565b90509250925092565b5f5f60408385031215610cd8575f5ffd5b82359150610c5960208401610bfd565b5f5f60408385031215610cf9575f5ffd5b610c4b83610c79565b5f60038410610d1f57634e487b7160e01b5f52602160045260245ffd5b5060f89290921b825260601b6bffffffffffffffffffffffff191660018201526015019056fe7935bd0ae54bc31f548c14dba4d37c5c64b3f8ca900cb468fb8abd54d5894f55a26469706673582212202b1e99fdd70e7df68f97bc4f352d439e30c62ae7640c46de861044ba62e5d67864736f6c634300081c0033","linkReferences":{}},"methodIdentifiers":{"DECAY_CONTROLLER_ROLE()":"c0b534c2","DEFAULT_ADMIN_ROLE()":"a217fddf","GOVERNOR_ROLE()":"ccc57490","GUARDIAN_ROLE()":"24ea54f4","SUPER_KEEPER_ROLE()":"66e943f1","generateRole(uint8,address)":"69b3054b","getRoleAdmin(bytes32)":"248a9ca3","grantCommanderRole(address,address)":"1981b9a7","grantContractSpecificRole(uint8,address,address)":"2a25d142","grantCuratorRole(address,address)":"e9eea177","grantDecayControllerRole(address)":"1deb14aa","grantGovernorRole(address)":"e4dd1dca","grantGuardianRole(address)":"10e7b489","grantKeeperRole(address,address)":"66ebbf74","grantRole(bytes32,address)":"2f2ff15d","grantSuperKeeperRole(address)":"2da51722","hasRole(bytes32,address)":"91d14854","renounceRole(bytes32,address)":"36568abe","revokeCommanderRole(address,address)":"53b53813","revokeContractSpecificRole(uint8,address,address)":"7adac90d","revokeCuratorRole(address,address)":"e9296665","revokeDecayControllerRole(address)":"7820bd84","revokeGovernorRole(address)":"fb914c39","revokeGuardianRole(address)":"4b4b5389","revokeKeeperRole(address,address)":"4cfa6107","revokeRole(bytes32,address)":"d547741f","revokeSuperKeeperRole(address)":"1bacdb34","selfRevokeContractSpecificRole(uint8,address)":"d55dd62b","supportsInterface(bytes4)":"01ffc9a7"},"id":2}