{"abi":[{"type":"constructor","inputs":[{"name":"underlying","type":"address","internalType":"address"},{"name":"configurationManager","type":"address","internalType":"address"},{"name":"initialTipRate","type":"uint256","internalType":"Percentage"}],"stateMutability":"nonpayable"},{"type":"function","name":"allowance","inputs":[{"name":"owner","type":"address","internalType":"address"},{"name":"spender","type":"address","internalType":"address"}],"outputs":[{"name":"","type":"uint256","internalType":"uint256"}],"stateMutability":"view"},{"type":"function","name":"approve","inputs":[{"name":"spender","type":"address","internalType":"address"},{"name":"value","type":"uint256","internalType":"uint256"}],"outputs":[{"name":"","type":"bool","internalType":"bool"}],"stateMutability":"nonpayable"},{"type":"function","name":"asset","inputs":[],"outputs":[{"name":"","type":"address","internalType":"address"}],"stateMutability":"view"},{"type":"function","name":"balanceOf","inputs":[{"name":"account","type":"address","internalType":"address"}],"outputs":[{"name":"","type":"uint256","internalType":"uint256"}],"stateMutability":"view"},{"type":"function","name":"burn","inputs":[{"name":"account","type":"address","internalType":"address"},{"name":"amount","type":"uint256","internalType":"uint256"}],"outputs":[],"stateMutability":"nonpayable"},{"type":"function","name":"convertToAssets","inputs":[{"name":"shares","type":"uint256","internalType":"uint256"}],"outputs":[{"name":"","type":"uint256","internalType":"uint256"}],"stateMutability":"view"},{"type":"function","name":"convertToShares","inputs":[{"name":"assets","type":"uint256","internalType":"uint256"}],"outputs":[{"name":"","type":"uint256","internalType":"uint256"}],"stateMutability":"view"},{"type":"function","name":"decimals","inputs":[],"outputs":[{"name":"","type":"uint8","internalType":"uint8"}],"stateMutability":"view"},{"type":"function","name":"deposit","inputs":[{"name":"assets","type":"uint256","internalType":"uint256"},{"name":"receiver","type":"address","internalType":"address"}],"outputs":[{"name":"","type":"uint256","internalType":"uint256"}],"stateMutability":"nonpayable"},{"type":"function","name":"estimateAccruedTip","inputs":[],"outputs":[{"name":"","type":"uint256","internalType":"uint256"}],"stateMutability":"view"},{"type":"function","name":"lastTipTimestamp","inputs":[],"outputs":[{"name":"","type":"uint256","internalType":"uint256"}],"stateMutability":"view"},{"type":"function","name":"manager","inputs":[],"outputs":[{"name":"","type":"address","internalType":"contract IConfigurationManager"}],"stateMutability":"view"},{"type":"function","name":"maxDeposit","inputs":[{"name":"","type":"address","internalType":"address"}],"outputs":[{"name":"","type":"uint256","internalType":"uint256"}],"stateMutability":"view"},{"type":"function","name":"maxMint","inputs":[{"name":"","type":"address","internalType":"address"}],"outputs":[{"name":"","type":"uint256","internalType":"uint256"}],"stateMutability":"view"},{"type":"function","name":"maxRedeem","inputs":[{"name":"owner","type":"address","internalType":"address"}],"outputs":[{"name":"","type":"uint256","internalType":"uint256"}],"stateMutability":"view"},{"type":"function","name":"maxWithdraw","inputs":[{"name":"owner","type":"address","internalType":"address"}],"outputs":[{"name":"","type":"uint256","internalType":"uint256"}],"stateMutability":"view"},{"type":"function","name":"mint","inputs":[{"name":"account","type":"address","internalType":"address"},{"name":"amount","type":"uint256","internalType":"uint256"}],"outputs":[],"stateMutability":"nonpayable"},{"type":"function","name":"mint","inputs":[{"name":"shares","type":"uint256","internalType":"uint256"},{"name":"receiver","type":"address","internalType":"address"}],"outputs":[{"name":"","type":"uint256","internalType":"uint256"}],"stateMutability":"nonpayable"},{"type":"function","name":"name","inputs":[],"outputs":[{"name":"","type":"string","internalType":"string"}],"stateMutability":"view"},{"type":"function","name":"previewDeposit","inputs":[{"name":"assets","type":"uint256","internalType":"uint256"}],"outputs":[{"name":"","type":"uint256","internalType":"uint256"}],"stateMutability":"view"},{"type":"function","name":"previewMint","inputs":[{"name":"shares","type":"uint256","internalType":"uint256"}],"outputs":[{"name":"","type":"uint256","internalType":"uint256"}],"stateMutability":"view"},{"type":"function","name":"previewRedeem","inputs":[{"name":"shares","type":"uint256","internalType":"uint256"}],"outputs":[{"name":"","type":"uint256","internalType":"uint256"}],"stateMutability":"view"},{"type":"function","name":"previewWithdraw","inputs":[{"name":"assets","type":"uint256","internalType":"uint256"}],"outputs":[{"name":"","type":"uint256","internalType":"uint256"}],"stateMutability":"view"},{"type":"function","name":"redeem","inputs":[{"name":"shares","type":"uint256","internalType":"uint256"},{"name":"receiver","type":"address","internalType":"address"},{"name":"owner","type":"address","internalType":"address"}],"outputs":[{"name":"","type":"uint256","internalType":"uint256"}],"stateMutability":"nonpayable"},{"type":"function","name":"setTipJar","inputs":[],"outputs":[],"stateMutability":"nonpayable"},{"type":"function","name":"setTipRate","inputs":[{"name":"newTipRate","type":"uint256","internalType":"Percentage"}],"outputs":[],"stateMutability":"nonpayable"},{"type":"function","name":"symbol","inputs":[],"outputs":[{"name":"","type":"string","internalType":"string"}],"stateMutability":"view"},{"type":"function","name":"tip","inputs":[],"outputs":[{"name":"","type":"uint256","internalType":"uint256"}],"stateMutability":"nonpayable"},{"type":"function","name":"tipJar","inputs":[],"outputs":[{"name":"","type":"address","internalType":"address"}],"stateMutability":"view"},{"type":"function","name":"tipRate","inputs":[],"outputs":[{"name":"","type":"uint256","internalType":"Percentage"}],"stateMutability":"view"},{"type":"function","name":"totalAssets","inputs":[],"outputs":[{"name":"","type":"uint256","internalType":"uint256"}],"stateMutability":"view"},{"type":"function","name":"totalSupply","inputs":[],"outputs":[{"name":"","type":"uint256","internalType":"uint256"}],"stateMutability":"view"},{"type":"function","name":"transfer","inputs":[{"name":"to","type":"address","internalType":"address"},{"name":"value","type":"uint256","internalType":"uint256"}],"outputs":[{"name":"","type":"bool","internalType":"bool"}],"stateMutability":"nonpayable"},{"type":"function","name":"transferFrom","inputs":[{"name":"from","type":"address","internalType":"address"},{"name":"to","type":"address","internalType":"address"},{"name":"value","type":"uint256","internalType":"uint256"}],"outputs":[{"name":"","type":"bool","internalType":"bool"}],"stateMutability":"nonpayable"},{"type":"function","name":"withdraw","inputs":[{"name":"assets","type":"uint256","internalType":"uint256"},{"name":"receiver","type":"address","internalType":"address"},{"name":"owner","type":"address","internalType":"address"}],"outputs":[{"name":"","type":"uint256","internalType":"uint256"}],"stateMutability":"nonpayable"},{"type":"event","name":"Approval","inputs":[{"name":"owner","type":"address","indexed":true,"internalType":"address"},{"name":"spender","type":"address","indexed":true,"internalType":"address"},{"name":"value","type":"uint256","indexed":false,"internalType":"uint256"}],"anonymous":false},{"type":"event","name":"Deposit","inputs":[{"name":"sender","type":"address","indexed":true,"internalType":"address"},{"name":"owner","type":"address","indexed":true,"internalType":"address"},{"name":"assets","type":"uint256","indexed":false,"internalType":"uint256"},{"name":"shares","type":"uint256","indexed":false,"internalType":"uint256"}],"anonymous":false},{"type":"event","name":"TipAccrued","inputs":[{"name":"tipAmount","type":"uint256","indexed":false,"internalType":"uint256"}],"anonymous":false},{"type":"event","name":"TipJarUpdated","inputs":[{"name":"newTipJar","type":"address","indexed":false,"internalType":"address"}],"anonymous":false},{"type":"event","name":"TipRateUpdated","inputs":[{"name":"newTipRate","type":"uint256","indexed":false,"internalType":"Percentage"}],"anonymous":false},{"type":"event","name":"Transfer","inputs":[{"name":"from","type":"address","indexed":true,"internalType":"address"},{"name":"to","type":"address","indexed":true,"internalType":"address"},{"name":"value","type":"uint256","indexed":false,"internalType":"uint256"}],"anonymous":false},{"type":"event","name":"Withdraw","inputs":[{"name":"sender","type":"address","indexed":true,"internalType":"address"},{"name":"receiver","type":"address","indexed":true,"internalType":"address"},{"name":"owner","type":"address","indexed":true,"internalType":"address"},{"name":"assets","type":"uint256","indexed":false,"internalType":"uint256"},{"name":"shares","type":"uint256","indexed":false,"internalType":"uint256"}],"anonymous":false},{"type":"error","name":"AddressEmptyCode","inputs":[{"name":"target","type":"address","internalType":"address"}]},{"type":"error","name":"AddressInsufficientBalance","inputs":[{"name":"account","type":"address","internalType":"address"}]},{"type":"error","name":"ERC20InsufficientAllowance","inputs":[{"name":"spender","type":"address","internalType":"address"},{"name":"allowance","type":"uint256","internalType":"uint256"},{"name":"needed","type":"uint256","internalType":"uint256"}]},{"type":"error","name":"ERC20InsufficientBalance","inputs":[{"name":"sender","type":"address","internalType":"address"},{"name":"balance","type":"uint256","internalType":"uint256"},{"name":"needed","type":"uint256","internalType":"uint256"}]},{"type":"error","name":"ERC20InvalidApprover","inputs":[{"name":"approver","type":"address","internalType":"address"}]},{"type":"error","name":"ERC20InvalidReceiver","inputs":[{"name":"receiver","type":"address","internalType":"address"}]},{"type":"error","name":"ERC20InvalidSender","inputs":[{"name":"sender","type":"address","internalType":"address"}]},{"type":"error","name":"ERC20InvalidSpender","inputs":[{"name":"spender","type":"address","internalType":"address"}]},{"type":"error","name":"ERC4626ExceededMaxDeposit","inputs":[{"name":"receiver","type":"address","internalType":"address"},{"name":"assets","type":"uint256","internalType":"uint256"},{"name":"max","type":"uint256","internalType":"uint256"}]},{"type":"error","name":"ERC4626ExceededMaxMint","inputs":[{"name":"receiver","type":"address","internalType":"address"},{"name":"shares","type":"uint256","internalType":"uint256"},{"name":"max","type":"uint256","internalType":"uint256"}]},{"type":"error","name":"ERC4626ExceededMaxRedeem","inputs":[{"name":"owner","type":"address","internalType":"address"},{"name":"shares","type":"uint256","internalType":"uint256"},{"name":"max","type":"uint256","internalType":"uint256"}]},{"type":"error","name":"ERC4626ExceededMaxWithdraw","inputs":[{"name":"owner","type":"address","internalType":"address"},{"name":"assets","type":"uint256","internalType":"uint256"},{"name":"max","type":"uint256","internalType":"uint256"}]},{"type":"error","name":"FailedInnerCall","inputs":[]},{"type":"error","name":"InvalidTipJarAddress","inputs":[]},{"type":"error","name":"MathOverflowedMulDiv","inputs":[]},{"type":"error","name":"SafeERC20FailedOperation","inputs":[{"name":"token","type":"address","internalType":"address"}]},{"type":"error","name":"TipRateCannotExceedOneHundredPercent","inputs":[]}],"bytecode":{"object":"0x60c060405234801561000f575f80fd5b50604051611d97380380611d9783398101604081905261002e91610266565b604080518082018252600b81526a455243343632364d6f636b60a81b60208083019190915282518084018452600681526545343632364d60d01b81830152600380546001600160a01b0319166001600160a01b0388169081179091555f8681558551637aaceb9560e01b8152955189968796958a948a949093637aaceb9593600480820194939183900301908290875af11580156100ce573d5f803e3d5ffd5b505050506040513d601f19601f820116820180604052508101906100f291906102a2565b600280546001600160a01b0319166001600160a01b03929092169190911790555050426001556007610124838261035a565b506008610131828261035a565b5050505f806101458361017560201b60201c565b9150915081610155576012610157565b805b60ff1660a05250506001600160a01b03166080525061044192505050565b60408051600481526024810182526020810180516001600160e01b031663313ce56760e01b17905290515f918291829182916001600160a01b038716916101bb91610414565b5f60405180830381855afa9150503d805f81146101f3576040519150601f19603f3d011682016040523d82523d5f602084013e6101f8565b606091505b509150915081801561020c57506020815110155b1561023f575f81806020019051810190610226919061042a565b905060ff811161023d576001969095509350505050565b505b505f9485945092505050565b80516001600160a01b0381168114610261575f80fd5b919050565b5f805f60608486031215610278575f80fd5b6102818461024b565b925061028f6020850161024b565b6040949094015192959394509192915050565b5f602082840312156102b2575f80fd5b6102bb8261024b565b9392505050565b634e487b7160e01b5f52604160045260245ffd5b600181811c908216806102ea57607f821691505b60208210810361030857634e487b7160e01b5f52602260045260245ffd5b50919050565b601f82111561035557805f5260205f20601f840160051c810160208510156103335750805b601f840160051c820191505b81811015610352575f815560010161033f565b50505b505050565b81516001600160401b03811115610373576103736102c2565b6103878161038184546102d6565b8461030e565b6020601f8211600181146103b9575f83156103a25750848201515b5f19600385901b1c1916600184901b178455610352565b5f84815260208120601f198516915b828110156103e857878501518255602094850194600190920191016103c8565b508482101561040557868401515f19600387901b60f8161c191681555b50505050600190811b01905550565b5f82518060208501845e5f920191825250919050565b5f6020828403121561043a575f80fd5b5051919050565b60805160a0516119206104775f395f61063501525f81816102ce015281816104bc01528181610d1f0152610e1301526119205ff3fe608060405234801561000f575f80fd5b5060043610610208575f3560e01c8063684826261161011f578063b3d7f6b9116100a9578063c6e6f59211610079578063c6e6f59214610434578063ce96cb7714610447578063d905777e1461045a578063dd62ed3e1461046d578063ef8b30f714610434575f80fd5b8063b3d7f6b9146103fb578063b460af941461040e578063ba08765214610421578063c63d75b614610306575f80fd5b80637aaceb95116100ef5780637aaceb95146103a757806394bf804d146103ba57806395d89b41146103cd5780639dc29fac146103d5578063a9059cbb146103e8575f80fd5b8063684826261461035b5780636e553f651461036357806370a082311461037657806371aedbc11461039e575f80fd5b80632755cd2d116101a057806340c10f191161017057806340c10f191461031a578063481c6a751461032d578063498e76a0146103405780634cdad5061461023c5780635822198f14610348575f80fd5b80632755cd2d146102aa578063313ce567146102b257806338d52e0f146102cc578063402d267d14610306575f80fd5b80630a28a477116101db5780630a28a4771461027257806318160ddd1461028557806318d08d0b1461028d57806323b872dd14610297575f80fd5b806301e1d1141461020c57806306fdde031461022757806307a2d13a1461023c578063095ea7b31461024f575b5f80fd5b6102146104a5565b6040519081526020015b60405180910390f35b61022f610532565b60405161021e91906114d9565b61021461024a36600461150e565b6105c2565b61026261025d366004611539565b6105d3565b604051901515815260200161021e565b61021461028036600461150e565b6105ea565b600654610214565b6102956105f6565b005b6102626102a5366004611563565b610600565b610214610625565b6102ba61062e565b60405160ff909116815260200161021e565b7f00000000000000000000000000000000000000000000000000000000000000005b6040516001600160a01b03909116815260200161021e565b6102146103143660046115a1565b505f1990565b610295610328366004611539565b610659565b6003546102ee906001600160a01b031681565b6102145f5481565b61029561035636600461150e565b610667565b610214610673565b6102146103713660046115bc565b6106f9565b6102146103843660046115a1565b6001600160a01b03165f9081526004602052604090205490565b61021460015481565b6002546102ee906001600160a01b031681565b6102146103c83660046115bc565b61072a565b61022f610745565b6102956103e3366004611539565b610754565b6102626103f6366004611539565b61075e565b61021461040936600461150e565b61076b565b61021461041c3660046115ea565b610777565b61021461042f3660046115ea565b6107cd565b61021461044236600461150e565b61081a565b6102146104553660046115a1565b610825565b6102146104683660046115a1565b610847565b61021461047b366004611629565b6001600160a01b039182165f90815260056020908152604080832093909416825291909152205490565b6040516370a0823160e01b81523060048201525f907f00000000000000000000000000000000000000000000000000000000000000006001600160a01b0316906370a0823190602401602060405180830381865afa158015610509573d5f803e3d5ffd5b505050506040513d601f19601f8201168201806040525081019061052d9190611655565b905090565b6060600780546105419061166c565b80601f016020809104026020016040519081016040528092919081815260200182805461056d9061166c565b80156105b85780601f1061058f576101008083540402835291602001916105b8565b820191905f5260205f20905b81548152906001019060200180831161059b57829003601f168201915b5050505050905090565b5f6105cd825f610864565b92915050565b5f336105e081858561089c565b5060019392505050565b5f6105cd8260016108ae565b6105fe6108dd565b565b5f3361060d858285610a37565b610618858585610a9f565b60019150505b9392505050565b5f61052d610afc565b5f61052d817f00000000000000000000000000000000000000000000000000000000000000006116b8565b6106638282610c04565b5050565b61067081610c38565b50565b5f806001544261068391906116d1565b90505f306001600160a01b03166318160ddd6040518163ffffffff1660e01b8152600401602060405180830381865afa1580156106c2573d5f803e3d5ffd5b505050506040513d601f19601f820116820180604052508101906106e69190611655565b90506106f28183610ca1565b9250505090565b5f5f1961070a565b60405180910390fd5b5f6107148561081a565b905061072233858784610d1a565b949350505050565b5f5f195f6107378561076b565b905061072233858388610d1a565b6060600880546105419061166c565b6106638282610dac565b5f336105e0818585610a9f565b5f6105cd826001610864565b5f8061078283610825565b9050808511156107ab57828582604051633fa733bb60e21b8152600401610701939291906116e4565b5f6107b5866105ea565b90506107c43386868985610de0565b95945050505050565b5f806107d883610847565b90508085111561080157828582604051632e52afbb60e21b8152600401610701939291906116e4565b5f61080b866105c2565b90506107c4338686848a610de0565b5f6105cd825f6108ae565b6001600160a01b0381165f908152600460205260408120546105cd905f610864565b6001600160a01b0381165f908152600460205260408120546105cd565b5f61061e6108706104a5565b61087b906001611705565b6108865f600a6117fb565b6006546108939190611705565b85919085610ea0565b6108a98383836001610ee3565b505050565b5f61061e6108bd82600a6117fb565b6006546108ca9190611705565b6108d26104a5565b610893906001611705565b60035f9054906101000a90046001600160a01b03166001600160a01b0316637aaceb956040518163ffffffff1660e01b81526004016020604051808303815f875af115801561092e573d5f803e3d5ffd5b505050506040513d601f19601f820116820180604052508101906109529190611809565b600280546001600160a01b0319166001600160a01b0392909216918217905561098e57604051631d2f8a9960e01b815260040160405180910390fd5b60035460408051637aaceb9560e01b815290517fba7f8033d690b39fb06e1eb3a0ef57ae8ce342fa4cd8d4f24f870e1e22931644926001600160a01b031691637aaceb9591600480830192602092919082900301815f875af11580156109f6573d5f803e3d5ffd5b505050506040513d601f19601f82011682018060405250810190610a1a9190611809565b6040516001600160a01b03909116815260200160405180910390a1565b6001600160a01b038381165f908152600560209081526040808320938616835292905220545f198114610a995781811015610a8b57828183604051637dc7a0d960e11b8152600401610701939291906116e4565b610a9984848484035f610ee3565b50505050565b6001600160a01b038316610ac857604051634b637e8f60e11b81525f6004820152602401610701565b6001600160a01b038216610af15760405163ec442f0560e01b81525f6004820152602401610701565b6108a9838383610fa7565b5f610b0f5f54610b0b5f6110ba565b1490565b15610b1d5750426001555f90565b5f60015442610b2c91906116d1565b9050805f03610b3c575f91505090565b5f306001600160a01b03166318160ddd6040518163ffffffff1660e01b8152600401602060405180830381865afa158015610b79573d5f803e3d5ffd5b505050506040513d601f19601f82011682018060405250810190610b9d9190611655565b9050610ba98183610ca1565b92508215610bff57600254610bc7906001600160a01b031684610659565b426001556040518381527f698f29fe990d4e7770f7e74cd309da261dd03ca828f7bb3c2ea8b8c9adcc0ecd9060200160405180910390a15b505090565b6001600160a01b038216610c2d5760405163ec442f0560e01b81525f6004820152602401610701565b6106635f8383610fa7565b610c41816110d1565b610c5e576040516319ecf1a560e31b815260040160405180910390fd5b610c66610afc565b505f8190556040518181527f186e864438b783eec69fd7ce4871c28accfc0b45558ea08c48540f76094fecde9060200160405180910390a150565b5f806301e133805f54610cb49190611838565b90505f610cf7610cda610cc96012600a61184b565b610cd4906064611856565b846110f2565b85610ce76012600a61184b565b610cf2906064611856565b6110fd565b90505f610d0486836111d6565b9050610d1086826116d1565b9695505050505050565b610d467f0000000000000000000000000000000000000000000000000000000000000000853085611202565b610d508382610c04565b826001600160a01b0316846001600160a01b03167fdcbc1c05240f31ff3ad067ef1ee35ce4997762752e3a095284754544f4c709d78484604051610d9e929190918252602082015260400190565b60405180910390a350505050565b6001600160a01b038216610dd557604051634b637e8f60e11b81525f6004820152602401610701565b610663825f83610fa7565b826001600160a01b0316856001600160a01b031614610e0457610e04838683610a37565b610e0e8382610dac565b610e397f00000000000000000000000000000000000000000000000000000000000000008584611269565b826001600160a01b0316846001600160a01b0316866001600160a01b03167ffbde797d201c681b91056529119e0b02407c7bb96a4a2c75c01fc9667232c8db8585604051610e91929190918252602082015260400190565b60405180910390a45050505050565b5f80610ead86868661129a565b9050610eb883611359565b8015610ed357505f8480610ece57610ece611824565b868809115b156107c457610d10600182611705565b6001600160a01b038416610f0c5760405163e602df0560e01b81525f6004820152602401610701565b6001600160a01b038316610f3557604051634a1406b160e11b81525f6004820152602401610701565b6001600160a01b038085165f9081526005602090815260408083209387168352929052208290558015610a9957826001600160a01b0316846001600160a01b03167f8c5be1e5ebec7d5bd14f71427d1e84f3dd0314c0f7b2291e5b200ac8c7c3b92584604051610d9e91815260200190565b6001600160a01b038316610fd1578060065f828254610fc69190611705565b9091555061102e9050565b6001600160a01b0383165f90815260046020526040902054818110156110105783818360405163391434e360e21b8152600401610701939291906116e4565b6001600160a01b0384165f9081526004602052604090209082900390555b6001600160a01b03821661104a57600680548290039055611068565b6001600160a01b0382165f9081526004602052604090208054820190555b816001600160a01b0316836001600160a01b03167fddf252ad1be2c89b69c2b068fc378daa952ba7f163c4a11628f55a4df523b3ef836040516110ad91815260200190565b60405180910390a3505050565b5f6110c76012600a61184b565b6105cd9083611856565b5f6105cd826110e26012600a61184b565b6110ed906064611856565b101590565b5f61061e8284611705565b5f83828282158061110c575085155b15611131578515611125576111205f6110ba565b611127565b845b935050505061061e565b61113c60028761186d565b156111475782611149565b815b90505f611157600284611838565b90506002870496505b86156111cb578384028485820414611176575f80fd5b81810181811015611185575f80fd5b84900494505060018716156111c05783820282858204141585151516156111aa575f80fd5b818101818110156111b9575f80fd5b8490049250505b600287049650611160565b509695505050505050565b5f6111e36012600a61184b565b6111ee906064611856565b6111f88385611856565b61061e9190611838565b6040516001600160a01b038481166024830152838116604483015260648201839052610a999186918216906323b872dd906084015b604051602081830303815290604052915060e01b6020820180516001600160e01b038381831617835250505050611385565b6040516001600160a01b038381166024830152604482018390526108a991859182169063a9059cbb90606401611237565b5f838302815f1985870982811083820303915050805f036112ce578382816112c4576112c4611824565b049250505061061e565b8084116112ee5760405163227bc15360e01b815260040160405180910390fd5b5f848688095f868103871696879004966002600389028118808a02820302808a02820302808a02820302808a02820302808a02820302808a02909103029181900381900460010186841190950394909402919094039290920491909117919091029150509392505050565b5f600282600381111561136e5761136e611880565b6113789190611894565b60ff166001149050919050565b5f6113996001600160a01b038416836113e6565b905080515f141580156113bd5750808060200190518101906113bb91906118b5565b155b156108a957604051635274afe760e01b81526001600160a01b0384166004820152602401610701565b606061061e83835f845f80856001600160a01b0316848660405161140a91906118d4565b5f6040518083038185875af1925050503d805f8114611444576040519150601f19603f3d011682016040523d82523d5f602084013e611449565b606091505b5091509150610d1086838360608261146957611464826114b0565b61061e565b815115801561148057506001600160a01b0384163b155b156114a957604051639996b31560e01b81526001600160a01b0385166004820152602401610701565b508061061e565b8051156114c05780518082602001fd5b604051630a12f52160e11b815260040160405180910390fd5b602081525f82518060208401528060208501604085015e5f604082850101526040601f19601f83011684010191505092915050565b5f6020828403121561151e575f80fd5b5035919050565b6001600160a01b0381168114610670575f80fd5b5f806040838503121561154a575f80fd5b823561155581611525565b946020939093013593505050565b5f805f60608486031215611575575f80fd5b833561158081611525565b9250602084013561159081611525565b929592945050506040919091013590565b5f602082840312156115b1575f80fd5b813561061e81611525565b5f80604083850312156115cd575f80fd5b8235915060208301356115df81611525565b809150509250929050565b5f805f606084860312156115fc575f80fd5b83359250602084013561160e81611525565b9150604084013561161e81611525565b809150509250925092565b5f806040838503121561163a575f80fd5b823561164581611525565b915060208301356115df81611525565b5f60208284031215611665575f80fd5b5051919050565b600181811c9082168061168057607f821691505b60208210810361169e57634e487b7160e01b5f52602260045260245ffd5b50919050565b634e487b7160e01b5f52601160045260245ffd5b60ff81811683821601908111156105cd576105cd6116a4565b818103818111156105cd576105cd6116a4565b6001600160a01b039390931683526020830191909152604082015260600190565b808201808211156105cd576105cd6116a4565b6001815b600184111561175357808504811115611737576117376116a4565b600184161561174557908102905b60019390931c92800261171c565b935093915050565b5f82611769575060016105cd565b8161177557505f6105cd565b816001811461178b5760028114611795576117b1565b60019150506105cd565b60ff8411156117a6576117a66116a4565b50506001821b6105cd565b5060208310610133831016604e8410600b84101617156117d4575081810a6105cd565b6117e05f198484611718565b805f19048211156117f3576117f36116a4565b029392505050565b5f61061e60ff84168361175b565b5f60208284031215611819575f80fd5b815161061e81611525565b634e487b7160e01b5f52601260045260245ffd5b5f8261184657611846611824565b500490565b5f61061e838361175b565b80820281158282048414176105cd576105cd6116a4565b5f8261187b5761187b611824565b500690565b634e487b7160e01b5f52602160045260245ffd5b5f60ff8316806118a6576118a6611824565b8060ff84160691505092915050565b5f602082840312156118c5575f80fd5b8151801515811461061e575f80fd5b5f82518060208501845e5f92019182525091905056fea26469706673582212203e8a432898323b1a2a163ce827ff0a9bbeea4a97d247d04f725463dc0f89a0ce64736f6c634300081a0033","linkReferences":{}},"methodIdentifiers":{"allowance(address,address)":"dd62ed3e","approve(address,uint256)":"095ea7b3","asset()":"38d52e0f","balanceOf(address)":"70a08231","burn(address,uint256)":"9dc29fac","convertToAssets(uint256)":"07a2d13a","convertToShares(uint256)":"c6e6f592","decimals()":"313ce567","deposit(uint256,address)":"6e553f65","estimateAccruedTip()":"68482626","lastTipTimestamp()":"71aedbc1","manager()":"481c6a75","maxDeposit(address)":"402d267d","maxMint(address)":"c63d75b6","maxRedeem(address)":"d905777e","maxWithdraw(address)":"ce96cb77","mint(address,uint256)":"40c10f19","mint(uint256,address)":"94bf804d","name()":"06fdde03","previewDeposit(uint256)":"ef8b30f7","previewMint(uint256)":"b3d7f6b9","previewRedeem(uint256)":"4cdad506","previewWithdraw(uint256)":"0a28a477","redeem(uint256,address,address)":"ba087652","setTipJar()":"18d08d0b","setTipRate(uint256)":"5822198f","symbol()":"95d89b41","tip()":"2755cd2d","tipJar()":"7aaceb95","tipRate()":"498e76a0","totalAssets()":"01e1d114","totalSupply()":"18160ddd","transfer(address,uint256)":"a9059cbb","transferFrom(address,address,uint256)":"23b872dd","withdraw(uint256,address,address)":"b460af94"},"id":130}