{"abi":[{"type":"constructor","inputs":[{"name":"_morpho","type":"address","internalType":"address"},{"name":"_marketId","type":"bytes32","internalType":"Id"},{"name":"_arkParams","type":"tuple","internalType":"struct ArkParams","components":[{"name":"accessManager","type":"address","internalType":"address"},{"name":"configurationManager","type":"address","internalType":"address"},{"name":"token","type":"address","internalType":"address"},{"name":"maxAllocation","type":"uint256","internalType":"uint256"}]}],"stateMutability":"nonpayable"},{"type":"function","name":"DEFAULT_ADMIN_ROLE","inputs":[],"outputs":[{"name":"","type":"bytes32","internalType":"bytes32"}],"stateMutability":"view"},{"type":"function","name":"MORPHO","inputs":[],"outputs":[{"name":"","type":"address","internalType":"contract IMorpho"}],"stateMutability":"view"},{"type":"function","name":"board","inputs":[{"name":"amount","type":"uint256","internalType":"uint256"}],"outputs":[],"stateMutability":"nonpayable"},{"type":"function","name":"commander","inputs":[],"outputs":[{"name":"","type":"address","internalType":"address"}],"stateMutability":"view"},{"type":"function","name":"disembark","inputs":[{"name":"amount","type":"uint256","internalType":"uint256"}],"outputs":[],"stateMutability":"nonpayable"},{"type":"function","name":"getRoleAdmin","inputs":[{"name":"role","type":"bytes32","internalType":"bytes32"}],"outputs":[{"name":"","type":"bytes32","internalType":"bytes32"}],"stateMutability":"view"},{"type":"function","name":"grantCommanderRole","inputs":[{"name":"account","type":"address","internalType":"address"}],"outputs":[],"stateMutability":"nonpayable"},{"type":"function","name":"grantRole","inputs":[{"name":"role","type":"bytes32","internalType":"bytes32"},{"name":"account","type":"address","internalType":"address"}],"outputs":[],"stateMutability":"view"},{"type":"function","name":"harvest","inputs":[],"outputs":[],"stateMutability":"nonpayable"},{"type":"function","name":"hasRole","inputs":[{"name":"role","type":"bytes32","internalType":"bytes32"},{"name":"account","type":"address","internalType":"address"}],"outputs":[{"name":"","type":"bool","internalType":"bool"}],"stateMutability":"view"},{"type":"function","name":"marketId","inputs":[],"outputs":[{"name":"","type":"bytes32","internalType":"Id"}],"stateMutability":"view"},{"type":"function","name":"marketParams","inputs":[],"outputs":[{"name":"loanToken","type":"address","internalType":"address"},{"name":"collateralToken","type":"address","internalType":"address"},{"name":"oracle","type":"address","internalType":"address"},{"name":"irm","type":"address","internalType":"address"},{"name":"lltv","type":"uint256","internalType":"uint256"}],"stateMutability":"view"},{"type":"function","name":"maxAllocation","inputs":[],"outputs":[{"name":"","type":"uint256","internalType":"uint256"}],"stateMutability":"view"},{"type":"function","name":"move","inputs":[{"name":"amount","type":"uint256","internalType":"uint256"},{"name":"receiverArk","type":"address","internalType":"address"}],"outputs":[],"stateMutability":"nonpayable"},{"type":"function","name":"poke","inputs":[],"outputs":[],"stateMutability":"nonpayable"},{"type":"function","name":"raft","inputs":[],"outputs":[{"name":"","type":"address","internalType":"address"}],"stateMutability":"view"},{"type":"function","name":"rate","inputs":[],"outputs":[{"name":"","type":"uint256","internalType":"uint256"}],"stateMutability":"view"},{"type":"function","name":"renounceRole","inputs":[{"name":"role","type":"bytes32","internalType":"bytes32"},{"name":"callerConfirmation","type":"address","internalType":"address"}],"outputs":[],"stateMutability":"nonpayable"},{"type":"function","name":"revokeCommanderRole","inputs":[{"name":"account","type":"address","internalType":"address"}],"outputs":[],"stateMutability":"nonpayable"},{"type":"function","name":"revokeRole","inputs":[{"name":"role","type":"bytes32","internalType":"bytes32"},{"name":"account","type":"address","internalType":"address"}],"outputs":[],"stateMutability":"view"},{"type":"function","name":"setMaxAllocation","inputs":[{"name":"newMaxAllocation","type":"uint256","internalType":"uint256"}],"outputs":[],"stateMutability":"nonpayable"},{"type":"function","name":"setRaft","inputs":[{"name":"newRaft","type":"address","internalType":"address"}],"outputs":[],"stateMutability":"nonpayable"},{"type":"function","name":"supportsInterface","inputs":[{"name":"interfaceId","type":"bytes4","internalType":"bytes4"}],"outputs":[{"name":"","type":"bool","internalType":"bool"}],"stateMutability":"view"},{"type":"function","name":"token","inputs":[],"outputs":[{"name":"","type":"address","internalType":"contract IERC20"}],"stateMutability":"view"},{"type":"function","name":"totalAssets","inputs":[],"outputs":[{"name":"","type":"uint256","internalType":"uint256"}],"stateMutability":"view"},{"type":"event","name":"ArkPoked","inputs":[{"name":"totalAssets","type":"uint256","indexed":false,"internalType":"uint256"},{"name":"timestamp","type":"uint256","indexed":false,"internalType":"uint256"}],"anonymous":false},{"type":"event","name":"ArkPokedNoChange","inputs":[],"anonymous":false},{"type":"event","name":"ArkPokedTooSoon","inputs":[],"anonymous":false},{"type":"event","name":"Boarded","inputs":[{"name":"commander","type":"address","indexed":true,"internalType":"address"},{"name":"token","type":"address","indexed":false,"internalType":"address"},{"name":"amount","type":"uint256","indexed":false,"internalType":"uint256"}],"anonymous":false},{"type":"event","name":"DepositCapUpdated","inputs":[{"name":"newCap","type":"uint256","indexed":false,"internalType":"uint256"}],"anonymous":false},{"type":"event","name":"Disembarked","inputs":[{"name":"commander","type":"address","indexed":true,"internalType":"address"},{"name":"token","type":"address","indexed":false,"internalType":"address"},{"name":"amount","type":"uint256","indexed":false,"internalType":"uint256"}],"anonymous":false},{"type":"event","name":"Harvested","inputs":[{"name":"amount","type":"uint256","indexed":false,"internalType":"uint256"}],"anonymous":false},{"type":"event","name":"MaxAllocationUpdated","inputs":[{"name":"newMaxAllocation","type":"uint256","indexed":false,"internalType":"uint256"}],"anonymous":false},{"type":"event","name":"Moved","inputs":[{"name":"from","type":"address","indexed":true,"internalType":"address"},{"name":"to","type":"address","indexed":true,"internalType":"address"},{"name":"token","type":"address","indexed":false,"internalType":"address"},{"name":"amount","type":"uint256","indexed":false,"internalType":"uint256"}],"anonymous":false},{"type":"event","name":"RaftUpdated","inputs":[{"name":"newRaft","type":"address","indexed":false,"internalType":"address"}],"anonymous":false},{"type":"event","name":"RoleAdminChanged","inputs":[{"name":"role","type":"bytes32","indexed":true,"internalType":"bytes32"},{"name":"previousAdminRole","type":"bytes32","indexed":true,"internalType":"bytes32"},{"name":"newAdminRole","type":"bytes32","indexed":true,"internalType":"bytes32"}],"anonymous":false},{"type":"event","name":"RoleGranted","inputs":[{"name":"role","type":"bytes32","indexed":true,"internalType":"bytes32"},{"name":"account","type":"address","indexed":true,"internalType":"address"},{"name":"sender","type":"address","indexed":true,"internalType":"address"}],"anonymous":false},{"type":"event","name":"RoleRevoked","inputs":[{"name":"role","type":"bytes32","indexed":true,"internalType":"bytes32"},{"name":"account","type":"address","indexed":true,"internalType":"address"},{"name":"sender","type":"address","indexed":true,"internalType":"address"}],"anonymous":false},{"type":"error","name":"AccessControlBadConfirmation","inputs":[]},{"type":"error","name":"AccessControlUnauthorizedAccount","inputs":[{"name":"account","type":"address","internalType":"address"},{"name":"neededRole","type":"bytes32","internalType":"bytes32"}]},{"type":"error","name":"AddressEmptyCode","inputs":[{"name":"target","type":"address","internalType":"address"}]},{"type":"error","name":"AddressInsufficientBalance","inputs":[{"name":"account","type":"address","internalType":"address"}]},{"type":"error","name":"CallerIsNotCommander","inputs":[{"name":"caller","type":"address","internalType":"address"}]},{"type":"error","name":"CallerIsNotCommanderOrArk","inputs":[{"name":"caller","type":"address","internalType":"address"}]},{"type":"error","name":"CallerIsNotGovernor","inputs":[{"name":"caller","type":"address","internalType":"address"}]},{"type":"error","name":"CannotAddCommanderToArkWithCommander","inputs":[]},{"type":"error","name":"CannotRemoveCommanderFromArkWithAssets","inputs":[]},{"type":"error","name":"DirectGrantIsDisabled","inputs":[{"name":"caller","type":"address","internalType":"address"}]},{"type":"error","name":"DirectRevokeIsDisabled","inputs":[{"name":"caller","type":"address","internalType":"address"}]},{"type":"error","name":"FailedInnerCall","inputs":[]},{"type":"error","name":"InvalidAccessManagerAddress","inputs":[{"name":"invalidAddress","type":"address","internalType":"address"}]},{"type":"error","name":"InvalidMarketId","inputs":[]},{"type":"error","name":"InvalidMorphoAddress","inputs":[]},{"type":"error","name":"InvalidVaultAddress","inputs":[]},{"type":"error","name":"SafeERC20FailedOperation","inputs":[{"name":"token","type":"address","internalType":"address"}]}],"bytecode":{"object":"0x60a060405234801561000f575f80fd5b50604051611eef380380611eef83398101604081905261002e916102ec565b80518190806001600160a01b038116610061576040516347bd7c1d60e01b81525f60048201526024015b60405180910390fd5b6040516301ffc9a760e01b815263ce78f4a360e01b60048201526001600160a01b038216906301ffc9a790602401602060405180830381865afa1580156100aa573d5f803e3d5ffd5b505050506040513d601f19601f820116820180604052508101906100ce919061039a565b6100f6576040516347bd7c1d60e01b81526001600160a01b0382166004820152602401610058565b5f80546001600160a01b0319166001600160a01b03928316178155602084810151606086015160035560408051628bec5760e51b815290519195509385169363117d8ae093600480830194939283900301908290875af115801561015c573d5f803e3d5ffd5b505050506040513d601f19601f8201168201806040525081019061018091906103c0565b600280546001600160a01b039283166001600160a01b0319918216179091556040909301516004805491831691909416179092555083166101d457604051630a875a6560e31b815260040160405180910390fd5b5f8290036101f45760405162320bd360e51b815260040160405180910390fd5b6001600160a01b03831660808190526006839055604051632c3c915760e01b815260048101849052632c3c91579060240160a060405180830381865afa158015610240573d5f803e3d5ffd5b505050506040513d601f19601f8201168201806040525081019061026491906103d9565b8051600780546001600160a01b039283166001600160a01b0319918216179091556020830151600880549184169183169190911790556040830151600980549184169183169190911790556060830151600a805491909316911617905560800151600b555061046d915050565b80516001600160a01b03811681146102e7575f80fd5b919050565b5f805f83850360c08112156102ff575f80fd5b610308856102d1565b9350602085015192506080603f1982011215610322575f80fd5b50604051608081016001600160401b038111828210171561035157634e487b7160e01b5f52604160045260245ffd5b8060405250610362604086016102d1565b8152610370606086016102d1565b6020820152610381608086016102d1565b604082015260a094909401516060850152509093909250565b5f602082840312156103aa575f80fd5b815180151581146103b9575f80fd5b9392505050565b5f602082840312156103d0575f80fd5b6103b9826102d1565b5f60a08284031280156103ea575f80fd5b5060405160a081016001600160401b038111828210171561041957634e487b7160e01b5f52604160045260245ffd5b604052610425836102d1565b8152610433602084016102d1565b6020820152610444604084016102d1565b6040820152610455606084016102d1565b60608201526080928301519281019290925250919050565b608051611a326104bd5f395f8181610258015281816103cd0152818161043b0152818161065001528181610f4401528181610fc0015281816110550152818161115901526111d10152611a325ff3fe608060405234801561000f575f80fd5b506004361061016d575f3560e01c80634641257d116100d957806391d1485411610093578063a217fddf1161006e578063a217fddf14610361578063d547741f14610368578063d8a8e03a1461037b578063fc0c546a1461038e575f80fd5b806391d14854146103325780639403e41f146103455780639b3ba79f14610358575f80fd5b80634641257d146101da5780634dd47eba1461028b5780636ed71ede1461029e57806372f12344146102a75780637b9e68f2146102ba57806381d3ce261461031f575f80fd5b80632c4e722e1161012a5780632c4e722e146102125780632f2ff15d1461021a57806336568abe1461022d57806337270936146102405780633acb56241461025357806344ee06051461027a575f80fd5b806301e1d1141461017157806301ffc9a71461018c578063117d8ae0146101af57806318178358146101da578063248a9ca3146101dc57806328ed6e3f146101ff575b5f80fd5b6101796103a1565b6040519081526020015b60405180910390f35b61019f61019a3660046115ff565b6104f2565b6040519015158152602001610183565b6002546101c2906001600160a01b031681565b6040516001600160a01b039091168152602001610183565b005b6101796101ea366004611626565b5f908152600160208190526040909120015490565b6101da61020d366004611626565b610528565b61017961064c565b6101da610228366004611658565b61085f565b6101da61023b366004611658565b61087a565b6005546101c2906001600160a01b031681565b6101c27f000000000000000000000000000000000000000000000000000000000000000081565b6101da610288366004611682565b50565b6101da610299366004611626565b6108b2565b61017960065481565b6101da6102b5366004611626565b610941565b600754600854600954600a54600b546102e4946001600160a01b0390811694811693811692169085565b604080516001600160a01b0396871681529486166020860152928516928401929092529092166060820152608081019190915260a001610183565b6101da61032d366004611682565b6109a3565b61019f610340366004611658565b610b18565b6101da610353366004611682565b610b42565b61017960035481565b6101795f81565b6101da610376366004611658565b610cb3565b6101da610389366004611658565b610cce565b6004546101c2906001600160a01b031681565b6006546040516349e2903160e11b815260048101919091523060248201525f9081906001600160a01b037f000000000000000000000000000000000000000000000000000000000000000016906393c5206290604401606060405180830381865afa158015610412573d5f803e3d5ffd5b505050506040513d601f19601f8201168201806040525081019061043691906116b1565b90505f7f00000000000000000000000000000000000000000000000000000000000000006001600160a01b0316635c60e39a6006546040518263ffffffff1660e01b815260040161048991815260200190565b60c060405180830381865afa1580156104a4573d5f803e3d5ffd5b505050506040513d601f19601f820116820180604052508101906104c89190611722565b8051602082015184519293506104eb92916001600160801b039081169116610e1a565b9250505090565b5f6001600160e01b03198216637965db0b60e01b148061052257506301ffc9a760e01b6001600160e01b03198316145b92915050565b610530610e48565b6105da575f3360055460405163d25dd10160e01b81526001600160a01b0380841660048301529293505f929091169063d25dd10190602401602060405180830381865afa158015610583573d5f803e3d5ffd5b505050506040513d601f19601f820116820180604052508101906105a791906117cd565b9050806105d75760405163033edcb360e01b81526001600160a01b03831660048201526024015b60405180910390fd5b50505b60045433906105f4906001600160a01b0316823085610ec0565b6105fd82610f2d565b600454604080516001600160a01b03928316815260208101859052918316917fcbaa1442ac205415c9d69643e7b60ec73d1de35dbc807c21ec288c70ddc4207b91015b60405180910390a25050565b5f807f00000000000000000000000000000000000000000000000000000000000000006001600160a01b0316635c60e39a6006546040518263ffffffff1660e01b815260040161069e91815260200190565b60c060405180830381865afa1580156106b9573d5f803e3d5ffd5b505050506040513d601f19601f820116820180604052508101906106dd9190611722565b905080608001516001600160801b03165f036106fa575f91505090565b600a54604051638c00bf6b60e01b81526001600160a01b03909116905f908290638c00bf6b9061073190600790879060040161182a565b602060405180830381865afa15801561074c573d5f803e3d5ffd5b505050506040513d601f19601f8201168201806040525081019061077091906118b2565b83519091505f906001600160801b0316156107c257835f01516001600160801b0316670de0b6b3a764000085604001516001600160801b03166107b391906118dd565b6107bd91906118f4565b6107c4565b5f5b90505f8460a001516001600160801b0316670de0b6b3a76400006107e89190611913565b90505f6107fd670de0b6b3a7640000806118dd565b8261080885876118dd565b61081291906118dd565b61081c91906118f4565b905061083c670de0b6b3a76400006b033b2e3c9fd0803ce80000006118f4565b61084a6301e13380836118dd565b61085491906118dd565b965050505050505090565b604051630e15200f60e21b81523360048201526024016105ce565b6001600160a01b03811633146108a35760405163334bd91960e11b815260040160405180910390fd5b6108ad82826110d0565b505050565b6108ba610e48565b6108d957604051631564c0e160e11b81523360048201526024016105ce565b336108e382611142565b6004546108fa906001600160a01b03168284611211565b600454604080516001600160a01b03928316815260208101859052918316917fd5e872c5ecfb1bb8820b2e6a20e31b883682282da886621541f71e31ec11947e9101610640565b610949610e48565b61096857604051631564c0e160e11b81523360048201526024016105ce565b60038190556040518181527ff71dfae69e41913414884e69a96ee28ef3f1ce5593bee0fb570cf9404e41a8089060200160405180910390a150565b5f5460408051630ccc574960e41b815290516001600160a01b03909216916391d1485491839163ccc57490916004808201926020929091908290030181865afa1580156109f2573d5f803e3d5ffd5b505050506040513d601f19601f82011682018060405250810190610a1691906118b2565b6040516001600160e01b031960e084901b1681526004810191909152336024820152604401602060405180830381865afa158015610a56573d5f803e3d5ffd5b505050506040513d601f19601f82011682018060405250810190610a7a91906117cd565b610a9957604051630ea7d7ed60e21b81523360048201526024016105ce565b610aa281611242565b5f54604080516345b817bb60e01b81529051610b14926001600160a01b0316916345b817bb9160048083019260209291908290030181865afa158015610aea573d5f803e3d5ffd5b505050506040513d601f19601f82011682018060405250810190610b0e91906118b2565b826110d0565b5050565b5f9182526001602090815260408084206001600160a01b0393909316845291905290205460ff1690565b5f5460408051630ccc574960e41b815290516001600160a01b03909216916391d1485491839163ccc57490916004808201926020929091908290030181865afa158015610b91573d5f803e3d5ffd5b505050506040513d601f19601f82011682018060405250810190610bb591906118b2565b6040516001600160e01b031960e084901b1681526004810191909152336024820152604401602060405180830381865afa158015610bf5573d5f803e3d5ffd5b505050506040513d601f19601f82011682018060405250810190610c1991906117cd565b610c3857604051630ea7d7ed60e21b81523360048201526024016105ce565b610c41816112d5565b5f54604080516345b817bb60e01b81529051610b14926001600160a01b0316916345b817bb9160048083019260209291908290030181865afa158015610c89573d5f803e3d5ffd5b505050506040513d601f19601f82011682018060405250810190610cad91906118b2565b82611417565b604051636344978560e11b81523360048201526024016105ce565b610cd6610e48565b610cf557604051631564c0e160e11b81523360048201526024016105ce565b610cfe82611142565b6004805460405163095ea7b360e01b81526001600160a01b03848116938201939093526024810185905291169063095ea7b3906044016020604051808303815f875af1158015610d50573d5f803e3d5ffd5b505050506040513d601f19601f82011682018060405250810190610d7491906117cd565b506040516328ed6e3f60e01b8152600481018390526001600160a01b038216906328ed6e3f906024015f604051808303815f87803b158015610db4575f80fd5b505af1158015610dc6573d5f803e3d5ffd5b5050600454604080516001600160a01b0392831681526020810187905291851693503092507f9f784fc02a186f1c98b2d9f15fda084da27cdd291a3785d978f91911d880516b910160405180910390a35050565b5f610e3e610e29600185611926565b610e36620f424085611926565b869190611486565b90505b9392505050565b5f8054604080516345b817bb60e01b81529051610ebb926001600160a01b0316916345b817bb9160048083019260209291908290030181865afa158015610e91573d5f803e3d5ffd5b505050506040513d601f19601f82011682018060405250810190610eb591906118b2565b33610b18565b905090565b6040516001600160a01b038481166024830152838116604483015260648201839052610f279186918216906323b872dd906084015b604051602081830303815290604052915060e01b6020820180516001600160e01b03838183161783525050505061149c565b50505050565b604051630a8e0d6f60e11b81526001600160a01b037f0000000000000000000000000000000000000000000000000000000000000000169063151c1ade90610f7a90600790600401611939565b5f604051808303815f87803b158015610f91575f80fd5b505af1158015610fa3573d5f803e3d5ffd5b50506004805460405163095ea7b360e01b81526001600160a01b037f0000000000000000000000000000000000000000000000000000000000000000811693820193909352602481018690529116925063095ea7b391506044016020604051808303815f875af1158015611019573d5f803e3d5ffd5b505050506040513d601f19601f8201168201806040525081019061103d91906117cd565b5060405163a99aad8960e01b81526001600160a01b037f0000000000000000000000000000000000000000000000000000000000000000169063a99aad89906110919060079085905f903090600401611947565b60408051808303815f875af11580156110ac573d5f803e3d5ffd5b505050506040513d601f19601f820116820180604052508101906108ad9190611988565b5f6110db8383610b18565b1561113b575f8381526001602090815260408083206001600160a01b0386168085529252808320805460ff1916905551339286917ff6391f5c32d9c69d2a47ea670b442974b53935d1edc7fd64eb21e047a839171b9190a4506001610522565b505f610522565b604051630a8e0d6f60e11b81526001600160a01b037f0000000000000000000000000000000000000000000000000000000000000000169063151c1ade9061118f90600790600401611939565b5f604051808303815f87803b1580156111a6575f80fd5b505af11580156111b8573d5f803e3d5ffd5b5050604051635c2bea4960e01b81526001600160a01b037f0000000000000000000000000000000000000000000000000000000000000000169250635c2bea4991506110919060079085905f90309081906004016119aa565b6040516001600160a01b038381166024830152604482018390526108ad91859182169063a9059cbb90606401610ef5565b5f306001600160a01b03166301e1d1146040518163ffffffff1660e01b8152600401602060405180830381865afa15801561127f573d5f803e3d5ffd5b505050506040513d601f19601f820116820180604052508101906112a391906118b2565b11156112c2576040516373a075f360e01b815260040160405180910390fd5b50600580546001600160a01b0319169055565b5f5460408051630ccc574960e41b815290516001600160a01b03909216916391d1485491839163ccc57490916004808201926020929091908290030181865afa158015611324573d5f803e3d5ffd5b505050506040513d601f19601f8201168201806040525081019061134891906118b2565b6040516001600160e01b031960e084901b1681526004810191909152336024820152604401602060405180830381865afa158015611388573d5f803e3d5ffd5b505050506040513d601f19601f820116820180604052508101906113ac91906117cd565b6113cb57604051630ea7d7ed60e21b81523360048201526024016105ce565b6005546001600160a01b0316156113f55760405163d32184ed60e01b815260040160405180910390fd5b600580546001600160a01b0319166001600160a01b0392909216919091179055565b5f6114228383610b18565b61113b575f8381526001602081815260408084206001600160a01b0387168086529252808420805460ff19169093179092559051339286917f2f8788117e7eff1d82e926ec794901d17c78024a50270940304540a733656f0d9190a4506001610522565b5f8161149284866118dd565b610e3e91906118f4565b5f6114b06001600160a01b038416836114fd565b905080515f141580156114d45750808060200190518101906114d291906117cd565b155b156108ad57604051635274afe760e01b81526001600160a01b03841660048201526024016105ce565b6060610e4183835f845f80856001600160a01b0316848660405161152191906119e6565b5f6040518083038185875af1925050503d805f811461155b576040519150601f19603f3d011682016040523d82523d5f602084013e611560565b606091505b509150915061157086838361157a565b9695505050505050565b60608261158f5761158a826115d6565b610e41565b81511580156115a657506001600160a01b0384163b155b156115cf57604051639996b31560e01b81526001600160a01b03851660048201526024016105ce565b5080610e41565b8051156115e65780518082602001fd5b604051630a12f52160e11b815260040160405180910390fd5b5f6020828403121561160f575f80fd5b81356001600160e01b031981168114610e41575f80fd5b5f60208284031215611636575f80fd5b5035919050565b80356001600160a01b0381168114611653575f80fd5b919050565b5f8060408385031215611669575f80fd5b823591506116796020840161163d565b90509250929050565b5f60208284031215611692575f80fd5b610e418261163d565b80516001600160801b0381168114611653575f80fd5b5f60608284031280156116c2575f80fd5b506040516060810167ffffffffffffffff811182821017156116f257634e487b7160e01b5f52604160045260245ffd5b604052825181526117056020840161169b565b60208201526117166040840161169b565b60408201529392505050565b5f60c0828403128015611733575f80fd5b5060405160c0810167ffffffffffffffff8111828210171561176357634e487b7160e01b5f52604160045260245ffd5b60405261176f8361169b565b815261177d6020840161169b565b602082015261178e6040840161169b565b604082015261179f6060840161169b565b60608201526117b06080840161169b565b60808201526117c160a0840161169b565b60a08201529392505050565b5f602082840312156117dd575f80fd5b81518015158114610e41575f80fd5b80546001600160a01b039081168352600182015481166020840152600282015481166040840152600382015416606083015260040154608090910152565b610160810161183982856117ec565b6001600160801b0383511660a08301526001600160801b0360208401511660c08301526001600160801b0360408401511660e08301526001600160801b036060840151166101008301526001600160801b036080840151166101208301526001600160801b0360a0840151166101408301529392505050565b5f602082840312156118c2575f80fd5b5051919050565b634e487b7160e01b5f52601160045260245ffd5b8082028115828204841417610522576105226118c9565b5f8261190e57634e487b7160e01b5f52601260045260245ffd5b500490565b81810381811115610522576105226118c9565b80820180821115610522576105226118c9565b60a0810161052282846117ec565b61195181866117ec565b60a081019390935260c08301919091526001600160a01b031660e082015261012061010082018190525f9082015261014001919050565b5f8060408385031215611999575f80fd5b505080516020909101519092909150565b61012081016119b982886117ec565b60a082019590955260c08101939093526001600160a01b0391821660e08401521661010090910152919050565b5f82518060208501845e5f92019182525091905056fea2646970667358221220932439cc08d8a643e9c08ff7f7d4d225ad141cfc105c41755198d97eaae1129764736f6c634300081a0033","linkReferences":{}},"methodIdentifiers":{"DEFAULT_ADMIN_ROLE()":"a217fddf","MORPHO()":"3acb5624","board(uint256)":"28ed6e3f","commander()":"37270936","disembark(uint256)":"4dd47eba","getRoleAdmin(bytes32)":"248a9ca3","grantCommanderRole(address)":"9403e41f","grantRole(bytes32,address)":"2f2ff15d","harvest()":"4641257d","hasRole(bytes32,address)":"91d14854","marketId()":"6ed71ede","marketParams()":"7b9e68f2","maxAllocation()":"9b3ba79f","move(uint256,address)":"d8a8e03a","poke()":"18178358","raft()":"117d8ae0","rate()":"2c4e722e","renounceRole(bytes32,address)":"36568abe","revokeCommanderRole(address)":"81d3ce26","revokeRole(bytes32,address)":"d547741f","setMaxAllocation(uint256)":"72f12344","setRaft(address)":"44ee0605","supportsInterface(bytes4)":"01ffc9a7","token()":"fc0c546a","totalAssets()":"01e1d114"},"id":69}