{"abi":[{"type":"constructor","inputs":[{"name":"_accessManager","type":"address","internalType":"address"},{"name":"_fleetCommander","type":"address","internalType":"address"}],"stateMutability":"nonpayable"},{"type":"function","name":"balanceOf","inputs":[{"name":"account","type":"address","internalType":"address"}],"outputs":[{"name":"","type":"uint256","internalType":"uint256"}],"stateMutability":"view"},{"type":"function","name":"earned","inputs":[{"name":"account","type":"address","internalType":"address"},{"name":"rewardToken","type":"address","internalType":"contract IERC20"}],"outputs":[{"name":"","type":"uint256","internalType":"uint256"}],"stateMutability":"view"},{"type":"function","name":"exit","inputs":[],"outputs":[],"stateMutability":"nonpayable"},{"type":"function","name":"fleetCommander","inputs":[],"outputs":[{"name":"","type":"address","internalType":"address"}],"stateMutability":"view"},{"type":"function","name":"generateRole","inputs":[{"name":"roleName","type":"uint8","internalType":"enum ContractSpecificRoles"},{"name":"roleTargetContract","type":"address","internalType":"address"}],"outputs":[{"name":"","type":"bytes32","internalType":"bytes32"}],"stateMutability":"pure"},{"type":"function","name":"getReward","inputs":[],"outputs":[],"stateMutability":"nonpayable"},{"type":"function","name":"getRewardForDuration","inputs":[{"name":"rewardToken","type":"address","internalType":"contract IERC20"}],"outputs":[{"name":"","type":"uint256","internalType":"uint256"}],"stateMutability":"view"},{"type":"function","name":"lastTimeRewardApplicable","inputs":[{"name":"rewardToken","type":"address","internalType":"contract IERC20"}],"outputs":[{"name":"","type":"uint256","internalType":"uint256"}],"stateMutability":"view"},{"type":"function","name":"notifyRewardAmount","inputs":[{"name":"rewardToken","type":"address","internalType":"contract IERC20"},{"name":"reward","type":"uint256","internalType":"uint256"},{"name":"newRewardsDuration","type":"uint256","internalType":"uint256"}],"outputs":[],"stateMutability":"nonpayable"},{"type":"function","name":"removeRewardToken","inputs":[{"name":"rewardToken","type":"address","internalType":"contract IERC20"}],"outputs":[],"stateMutability":"nonpayable"},{"type":"function","name":"rewardData","inputs":[{"name":"rewardToken","type":"address","internalType":"contract IERC20"}],"outputs":[{"name":"periodFinish","type":"uint256","internalType":"uint256"},{"name":"rewardRate","type":"uint256","internalType":"uint256"},{"name":"rewardsDuration","type":"uint256","internalType":"uint256"},{"name":"lastUpdateTime","type":"uint256","internalType":"uint256"},{"name":"rewardPerTokenStored","type":"uint256","internalType":"uint256"}],"stateMutability":"view"},{"type":"function","name":"rewardPerToken","inputs":[{"name":"rewardToken","type":"address","internalType":"contract IERC20"}],"outputs":[{"name":"","type":"uint256","internalType":"uint256"}],"stateMutability":"view"},{"type":"function","name":"rewardTokens","inputs":[{"name":"index","type":"uint256","internalType":"uint256"}],"outputs":[{"name":"","type":"address","internalType":"contract IERC20"}],"stateMutability":"view"},{"type":"function","name":"rewards","inputs":[{"name":"rewardToken","type":"address","internalType":"contract IERC20"},{"name":"account","type":"address","internalType":"address"}],"outputs":[{"name":"rewardAmount","type":"uint256","internalType":"uint256"}],"stateMutability":"view"},{"type":"function","name":"setRewardsDuration","inputs":[{"name":"rewardToken","type":"address","internalType":"contract IERC20"},{"name":"_rewardsDuration","type":"uint256","internalType":"uint256"}],"outputs":[],"stateMutability":"nonpayable"},{"type":"function","name":"stake","inputs":[{"name":"amount","type":"uint256","internalType":"uint256"}],"outputs":[],"stateMutability":"nonpayable"},{"type":"function","name":"stakeOnBehalf","inputs":[{"name":"receiver","type":"address","internalType":"address"},{"name":"amount","type":"uint256","internalType":"uint256"}],"outputs":[],"stateMutability":"nonpayable"},{"type":"function","name":"stakingToken","inputs":[],"outputs":[{"name":"","type":"address","internalType":"contract IERC20"}],"stateMutability":"view"},{"type":"function","name":"totalSupply","inputs":[],"outputs":[{"name":"","type":"uint256","internalType":"uint256"}],"stateMutability":"view"},{"type":"function","name":"userRewardPerTokenPaid","inputs":[{"name":"rewardToken","type":"address","internalType":"contract IERC20"},{"name":"account","type":"address","internalType":"address"}],"outputs":[{"name":"rewardPerTokenPaid","type":"uint256","internalType":"uint256"}],"stateMutability":"view"},{"type":"function","name":"withdraw","inputs":[{"name":"amount","type":"uint256","internalType":"uint256"}],"outputs":[],"stateMutability":"nonpayable"},{"type":"event","name":"RewardAdded","inputs":[{"name":"rewardToken","type":"address","indexed":true,"internalType":"address"},{"name":"reward","type":"uint256","indexed":false,"internalType":"uint256"}],"anonymous":false},{"type":"event","name":"RewardPaid","inputs":[{"name":"user","type":"address","indexed":true,"internalType":"address"},{"name":"rewardToken","type":"address","indexed":true,"internalType":"address"},{"name":"reward","type":"uint256","indexed":false,"internalType":"uint256"}],"anonymous":false},{"type":"event","name":"RewardTokenAdded","inputs":[{"name":"rewardToken","type":"address","indexed":false,"internalType":"address"},{"name":"rewardsDuration","type":"uint256","indexed":false,"internalType":"uint256"}],"anonymous":false},{"type":"event","name":"RewardTokenRemoved","inputs":[{"name":"rewardToken","type":"address","indexed":false,"internalType":"address"}],"anonymous":false},{"type":"event","name":"RewardsDurationUpdated","inputs":[{"name":"rewardToken","type":"address","indexed":true,"internalType":"address"},{"name":"newDuration","type":"uint256","indexed":false,"internalType":"uint256"}],"anonymous":false},{"type":"event","name":"Staked","inputs":[{"name":"account","type":"address","indexed":true,"internalType":"address"},{"name":"amount","type":"uint256","indexed":false,"internalType":"uint256"}],"anonymous":false},{"type":"event","name":"StakingTokenInitialized","inputs":[{"name":"stakingToken","type":"address","indexed":false,"internalType":"address"}],"anonymous":false},{"type":"event","name":"Withdrawn","inputs":[{"name":"user","type":"address","indexed":true,"internalType":"address"},{"name":"amount","type":"uint256","indexed":false,"internalType":"uint256"}],"anonymous":false},{"type":"error","name":"CallerIsNotAdmin","inputs":[{"name":"caller","type":"address","internalType":"address"}]},{"type":"error","name":"CallerIsNotAuthorizedToBoard","inputs":[{"name":"caller","type":"address","internalType":"address"}]},{"type":"error","name":"CallerIsNotCommander","inputs":[{"name":"caller","type":"address","internalType":"address"}]},{"type":"error","name":"CallerIsNotContractSpecificRole","inputs":[{"name":"caller","type":"address","internalType":"address"},{"name":"role","type":"bytes32","internalType":"bytes32"}]},{"type":"error","name":"CallerIsNotCurator","inputs":[{"name":"caller","type":"address","internalType":"address"}]},{"type":"error","name":"CallerIsNotGovernor","inputs":[{"name":"caller","type":"address","internalType":"address"}]},{"type":"error","name":"CallerIsNotGuardian","inputs":[{"name":"caller","type":"address","internalType":"address"}]},{"type":"error","name":"CallerIsNotGuardianOrGovernor","inputs":[{"name":"caller","type":"address","internalType":"address"}]},{"type":"error","name":"CallerIsNotKeeper","inputs":[{"name":"caller","type":"address","internalType":"address"}]},{"type":"error","name":"CallerIsNotRaft","inputs":[{"name":"caller","type":"address","internalType":"address"}]},{"type":"error","name":"CallerIsNotRaftOrCommander","inputs":[{"name":"caller","type":"address","internalType":"address"}]},{"type":"error","name":"CallerIsNotSuperKeeper","inputs":[{"name":"caller","type":"address","internalType":"address"}]},{"type":"error","name":"CannotChangeRewardsDuration","inputs":[]},{"type":"error","name":"CannotStakeZero","inputs":[]},{"type":"error","name":"CannotWithdrawZero","inputs":[]},{"type":"error","name":"DirectGrantIsDisabled","inputs":[{"name":"caller","type":"address","internalType":"address"}]},{"type":"error","name":"DirectRevokeIsDisabled","inputs":[{"name":"caller","type":"address","internalType":"address"}]},{"type":"error","name":"IndexOutOfBounds","inputs":[]},{"type":"error","name":"InvalidAccessManagerAddress","inputs":[{"name":"invalidAddress","type":"address","internalType":"address"}]},{"type":"error","name":"InvalidRewardAmount","inputs":[{"name":"rewardToken","type":"address","internalType":"address"},{"name":"rewardsDuration","type":"uint256","internalType":"uint256"}]},{"type":"error","name":"InvalidRewardsDuration","inputs":[]},{"type":"error","name":"NoRewardTokens","inputs":[]},{"type":"error","name":"ProvidedRewardTooHigh","inputs":[]},{"type":"error","name":"ReentrancyGuardReentrantCall","inputs":[]},{"type":"error","name":"RewardPeriodNotComplete","inputs":[]},{"type":"error","name":"RewardTokenAlreadyExists","inputs":[]},{"type":"error","name":"RewardTokenDoesNotExist","inputs":[]},{"type":"error","name":"RewardTokenNotInitialized","inputs":[]},{"type":"error","name":"RewardTokenStillHasBalance","inputs":[{"name":"balance","type":"uint256","internalType":"uint256"}]},{"type":"error","name":"RewardsDurationCannotBeZero","inputs":[]},{"type":"error","name":"SafeERC20FailedOperation","inputs":[{"name":"token","type":"address","internalType":"address"}]},{"type":"error","name":"StakingTokenNotInitialized","inputs":[]}],"bytecode":{"object":"0x608060405234801561000f575f5ffd5b50604051611aad380380611aad83398101604081905261002e916101a0565b81806001600160a01b03811661005e576040516347bd7c1d60e01b81525f60048201526024015b60405180910390fd5b6040516301ffc9a760e01b815263fe1a291f60e01b60048201526001600160a01b038216906301ffc9a790602401602060405180830381865afa1580156100a7573d5f5f3e3d5ffd5b505050506040513d601f19601f820116820180604052508101906100cb91906101d1565b6100f3576040516347bd7c1d60e01b81526001600160a01b0382166004820152602401610055565b5f80546001600160a01b039283166001600160a01b03199182161790915560098054928516929091168217905561012a9150610131565b50506101f7565b600380546001600160a01b0319166001600160a01b0383169081179091556040519081527ffbed9b88bd11cf6ebffbe6fe489ac5bf7a88b31de62cf9bbc5e63e6eb01760039060200160405180910390a150565b80516001600160a01b038116811461019b575f5ffd5b919050565b5f5f604083850312156101b1575f5ffd5b6101ba83610185565b91506101c860208401610185565b90509250929050565b5f602082840312156101e1575f5ffd5b815180151581146101f0575f5ffd5b9392505050565b6118a9806102045f395ff3fe608060405234801561000f575f5ffd5b5060043610610132575f3560e01c80637035ab98116100b4578063a694fc3a11610079578063a694fc3a146102e9578063bcd11014146102fc578063e24bf4fe1461030f578063e70b9e2714610322578063e9fad8ee1461034c578063f122977714610354575f5ffd5b80637035ab981461024657806370a082311461027057806372f702f3146102985780637bb7bed1146102c3578063a3cd8ac4146102d6575f5ffd5b80633d509c97116100fa5780633d509c9714610195578063460b5ee2146101a857806348e5d9f8146101bb578063638634ee1461022057806369b3054b14610233575f5ffd5b806318160ddd14610136578063211dc32d146101525780632378bea6146101655780632e1a7d4d1461017a5780633d18b9121461018d575b5f5ffd5b61013f60075481565b6040519081526020015b60405180910390f35b61013f61016036600461167e565b610367565b6101786101733660046116b5565b6103ff565b005b6101786101883660046116df565b61057d565b610178610652565b6101786101a33660046116f6565b6107fd565b6101786101b63660046116b5565b610a68565b6101f86101c93660046116f6565b600460208190525f91825260409091208054600182015460028301546003840154939094015491939092909185565b604080519586526020860194909452928401919091526060830152608082015260a001610149565b61013f61022e3660046116f6565b610b40565b61013f610241366004611711565b610b82565b61013f61025436600461167e565b600560209081525f928352604080842090915290825290205481565b61013f61027e3660046116f6565b6001600160a01b03165f9081526008602052604090205490565b6003546102ab906001600160a01b031681565b6040516001600160a01b039091168152602001610149565b6102ab6102d13660046116df565b610bb4565b6101786102e4366004611730565b610bf1565b6101786102f73660046116df565b610fe3565b61013f61030a3660046116f6565b6110b5565b6009546102ab906001600160a01b031681565b61013f61033036600461167e565b600660209081525f928352604080842090915290825290205481565b6101786110e1565b61013f6103623660046116f6565b611101565b6001600160a01b038082165f818152600660209081526040808320948716808452948252808320549383526005825280832094835293905291822054670de0b6b3a7640000906103b685611101565b6103c09190611776565b6001600160a01b0386165f908152600860205260409020546103e29190611789565b6103ec91906117a0565b6103f691906117bf565b90505b92915050565b5f5460408051630ccc574960e41b815290516001600160a01b03909216916391d1485491839163ccc57490916004808201926020929091908290030181865afa15801561044e573d5f5f3e3d5ffd5b505050506040513d601f19601f8201168201806040525081019061047291906117d2565b6040516001600160e01b031960e084901b1681526004810191909152336024820152604401602060405180830381865afa1580156104b2573d5f5f3e3d5ffd5b505050506040513d601f19601f820116820180604052508101906104d691906117e9565b6104fa57604051630ea7d7ed60e21b81523360048201526024015b60405180910390fd5b6001600160a01b0382165f908152600460205260409020805442116105325760405163d9ba1add60e01b815260040160405180910390fd5b600281018290556040518281526001600160a01b038416907fad2f86b01ed93b4b3a150d448c61a4f5d8d38075d3c0c64cc0a26fd6e1f49545906020015b60405180910390a2505050565b335f61058960016111ae565b90505f5b81811015610643575f6105a16001836111b7565b6001600160a01b0381165f90815260046020526040902090915081906105c682611101565b60048201556105d482610b40565b60038201556001600160a01b03861615610638576105f28683610367565b6001600160a01b038084165f818152600660209081526040808320948c168084529482528083209590955560048601549282526005815284822093825292909252919020555b50505060010161058d565b5061064d836111c2565b505050565b61065a61126a565b335f61066660016111ae565b90505f5b81811015610720575f61067e6001836111b7565b6001600160a01b0381165f90815260046020526040902090915081906106a382611101565b60048201556106b182610b40565b60038201556001600160a01b03861615610715576106cf8683610367565b6001600160a01b038084165f818152600660209081526040808320948c168084529482528083209590955560048601549282526005815284822093825292909252919020555b50505060010161066a565b505f61072c60016111ae565b90505f5b818110156107ef575f6107446001836111b7565b6001600160a01b0381165f908152600660209081526040808320338452909152902054909150819080156107e4576001600160a01b0382165f8181526006602090815260408083203380855292528220919091556107a39190836112d7565b6040518181526001600160a01b0383169033907f540798df468d7b23d11f156fdb954cb19ad414d150722a7b6d55ba369dea792e9060200160405180910390a35b505050600101610730565b505050506107fb611336565b565b5f5460408051630ccc574960e41b815290516001600160a01b03909216916391d1485491839163ccc57490916004808201926020929091908290030181865afa15801561084c573d5f5f3e3d5ffd5b505050506040513d601f19601f8201168201806040525081019061087091906117d2565b6040516001600160e01b031960e084901b1681526004810191909152336024820152604401602060405180830381865afa1580156108b0573d5f5f3e3d5ffd5b505050506040513d601f19601f820116820180604052508101906108d491906117e9565b6108f357604051630ea7d7ed60e21b81523360048201526024016104f1565b6001600160a01b0381165f90815260046020526040812060020154900361092d5760405163064fed9960e31b815260040160405180910390fd5b6001600160a01b0381165f9081526004602052604090205442116109645760405163d9ba1add60e01b815260040160405180910390fd5b6040516370a0823160e01b81523060048201525f906001600160a01b038316906370a0823190602401602060405180830381865afa1580156109a8573d5f5f3e3d5ffd5b505050506040513d601f19601f820116820180604052508101906109cc91906117d2565b905080156109f057604051633007cea360e01b8152600481018290526024016104f1565b6109fb600183611360565b506001600160a01b0382165f81815260046020818152604080842084815560018101859055600281018590556003810185905590920192909255519182527f66257bcef574219c04f7c05f7a1c78d599da10491294c92a5805c48b4cdf5009910160405180910390a15050565b815f610a7460016111ae565b90505f5b81811015610b2e575f610a8c6001836111b7565b6001600160a01b0381165f9081526004602052604090209091508190610ab182611101565b6004820155610abf82610b40565b60038201556001600160a01b03861615610b2357610add8683610367565b6001600160a01b038084165f818152600660209081526040808320948c168084529482528083209590955560048601549282526005815284822093825292909252919020555b505050600101610a78565b50610b3a338585611374565b50505050565b6001600160a01b0381165f908152600460205260408120544210610b7b576001600160a01b0382165f908152600460205260409020546103f9565b4292915050565b5f8282604051602001610b96929190611808565b60405160208183030381529060405280519060200120905092915050565b5f610bbf60016111ae565b8210610bde57604051634e23d03560e01b815260040160405180910390fd5b5f610bea6001846111b7565b9392505050565b5f5460408051630ccc574960e41b815290516001600160a01b03909216916391d1485491839163ccc57490916004808201926020929091908290030181865afa158015610c40573d5f5f3e3d5ffd5b505050506040513d601f19601f82011682018060405250810190610c6491906117d2565b6040516001600160e01b031960e084901b1681526004810191909152336024820152604401602060405180830381865afa158015610ca4573d5f5f3e3d5ffd5b505050506040513d601f19601f82011682018060405250810190610cc891906117e9565b610ce757604051630ea7d7ed60e21b81523360048201526024016104f1565b5f5f610cf360016111ae565b90505f5b81811015610dad575f610d0b6001836111b7565b6001600160a01b0381165f9081526004602052604090209091508190610d3082611101565b6004820155610d3e82610b40565b60038201556001600160a01b03861615610da257610d5c8683610367565b6001600160a01b038084165f818152600660209081526040808320948c168084529482528083209590955560048601549282526005815284822093825292909252919020555b505050600101610cf7565b506001600160a01b0385165f9081526004602052604081206002810154909103610e4e57835f03610df45760405160016203036160e11b0319815260040160405180910390fd5b610dff600187611452565b5060028101849055604080516001600160a01b0388168152602081018690527f68e3e9397770d9dfa88c0953a34e1a70a05416b3895957f5b689787a920791c4910160405180910390a1610e7f565b5f84118015610e61575080600201548414155b15610e7f576040516333fec8c760e21b815260040160405180910390fd5b80544210610ea0576002810154610e9690866117a0565b6001820155610ee6565b80545f90610eaf904290611776565b90505f826001015482610ec29190611789565b6002840154909150610ed482896117bf565b610ede91906117a0565b600184015550505b6040516370a0823160e01b81523060048201525f906001600160a01b038816906370a0823190602401602060405180830381865afa158015610f2a573d5f5f3e3d5ffd5b505050506040513d601f19601f82011682018060405250810190610f4e91906117d2565b9050816002015481610f6091906117a0565b82600101541115610f845760405163010ee96f60e31b815260040160405180910390fd5b42600383018190556002830154610f9a916117bf565b82556040518681526001600160a01b038816907fac24935fd910bc682b5ccb1a07b718cadf8cf2f6d1404c4f3ddc3662dae40e299060200160405180910390a250505050505050565b335f610fef60016111ae565b90505f5b818110156110a9575f6110076001836111b7565b6001600160a01b0381165f908152600460205260409020909150819061102c82611101565b600482015561103a82610b40565b60038201556001600160a01b0386161561109e576110588683610367565b6001600160a01b038084165f818152600660209081526040808320948c168084529482528083209590955560048601549282526005815284822093825292909252919020555b505050600101610ff3565b5061064d333385611374565b6001600160a01b0381165f90815260046020526040812060028101546001909101546103f99190611789565b6110e9610652565b335f908152600860205260409020546107fb906111c2565b5f6007545f0361112a57506001600160a01b03165f908152600460208190526040909120015490565b6007546001600160a01b0383165f908152600460205260409020600181015460039091015461115885610b40565b6111629190611776565b61116c9190611789565b61117e90670de0b6b3a7640000611789565b61118891906117a0565b6001600160a01b0383165f90815260046020819052604090912001546103f991906117bf565b5f6103f9825490565b5f6103f68383611466565b805f036111e25760405163061bb89b60e51b815260040160405180910390fd5b8060075f8282546111f39190611776565b9091555050335f9081526008602052604081208054839290611216908490611776565b9091555050600354611232906001600160a01b031633836112d7565b60405181815233907f7084f5476618d8e60b11ef0d7d3f06914655adb8793e28ff7f018d4c76d505d59060200160405180910390a250565b7f9b779b17422d0df92223018b32b4d1fa46e071723d6817e2486d003becc55f005c156112aa57604051633ee5aeb560e01b815260040160405180910390fd5b6107fb60017f9b779b17422d0df92223018b32b4d1fa46e071723d6817e2486d003becc55f005b9061148c565b6040516001600160a01b0383811660248301526044820183905261064d91859182169063a9059cbb906064015b604051602081830303815290604052915060e01b6020820180516001600160e01b038381831617835250505050611493565b6107fb5f7f9b779b17422d0df92223018b32b4d1fa46e071723d6817e2486d003becc55f006112d1565b5f6103f6836001600160a01b0384166114ff565b805f0361139457604051636a76ff9f60e01b815260040160405180910390fd5b6003546001600160a01b03166113bd5760405163417198d360e01b815260040160405180910390fd5b8060075f8282546113ce91906117bf565b90915550506001600160a01b0382165f90815260086020526040812080548392906113fa9084906117bf565b9091555050600354611417906001600160a01b03168430846115e2565b816001600160a01b03167f9e71bc8eea02a63969f509818f2dafb9254532904319f9dbda79b67bd34a5f3d8260405161057091815260200190565b5f6103f6836001600160a01b03841661161b565b5f825f01828154811061147b5761147b61184b565b905f5260205f200154905092915050565b80825d5050565b5f5f60205f8451602086015f885af1806114b2576040513d5f823e3d81fd5b50505f513d915081156114c95780600114156114d6565b6001600160a01b0384163b155b15610b3a57604051635274afe760e01b81526001600160a01b03851660048201526024016104f1565b5f81815260018301602052604081205480156115d9575f611521600183611776565b85549091505f9061153490600190611776565b9050808214611593575f865f0182815481106115525761155261184b565b905f5260205f200154905080875f0184815481106115725761157261184b565b5f918252602080832090910192909255918252600188019052604090208390555b85548690806115a4576115a461185f565b600190038181905f5260205f20015f90559055856001015f8681526020019081526020015f205f9055600193505050506103f9565b5f9150506103f9565b6040516001600160a01b038481166024830152838116604483015260648201839052610b3a9186918216906323b872dd90608401611304565b5f81815260018301602052604081205461166057508154600181810184555f8481526020808220909301849055845484825282860190935260409020919091556103f9565b505f6103f9565b6001600160a01b038116811461167b575f5ffd5b50565b5f5f6040838503121561168f575f5ffd5b823561169a81611667565b915060208301356116aa81611667565b809150509250929050565b5f5f604083850312156116c6575f5ffd5b82356116d181611667565b946020939093013593505050565b5f602082840312156116ef575f5ffd5b5035919050565b5f60208284031215611706575f5ffd5b8135610bea81611667565b5f5f60408385031215611722575f5ffd5b82356003811061169a575f5ffd5b5f5f5f60608486031215611742575f5ffd5b833561174d81611667565b95602085013595506040909401359392505050565b634e487b7160e01b5f52601160045260245ffd5b818103818111156103f9576103f9611762565b80820281158282048414176103f9576103f9611762565b5f826117ba57634e487b7160e01b5f52601260045260245ffd5b500490565b808201808211156103f9576103f9611762565b5f602082840312156117e2575f5ffd5b5051919050565b5f602082840312156117f9575f5ffd5b81518015158114610bea575f5ffd5b5f6003841061182557634e487b7160e01b5f52602160045260245ffd5b5060f89290921b825260601b6bffffffffffffffffffffffff1916600182015260150190565b634e487b7160e01b5f52603260045260245ffd5b634e487b7160e01b5f52603160045260245ffdfea2646970667358221220b973fa74d37cba50823d2585d23ab0df5d2bd01a5ca059a79d63645e6030929b64736f6c634300081c0033","linkReferences":{}},"methodIdentifiers":{"balanceOf(address)":"70a08231","earned(address,address)":"211dc32d","exit()":"e9fad8ee","fleetCommander()":"e24bf4fe","generateRole(uint8,address)":"69b3054b","getReward()":"3d18b912","getRewardForDuration(address)":"bcd11014","lastTimeRewardApplicable(address)":"638634ee","notifyRewardAmount(address,uint256,uint256)":"a3cd8ac4","removeRewardToken(address)":"3d509c97","rewardData(address)":"48e5d9f8","rewardPerToken(address)":"f1229777","rewardTokens(uint256)":"7bb7bed1","rewards(address,address)":"e70b9e27","setRewardsDuration(address,uint256)":"2378bea6","stake(uint256)":"a694fc3a","stakeOnBehalf(address,uint256)":"460b5ee2","stakingToken()":"72f702f3","totalSupply()":"18160ddd","userRewardPerTokenPaid(address,address)":"7035ab98","withdraw(uint256)":"2e1a7d4d"},"id":189}