{"abi":[{"type":"constructor","inputs":[{"name":"_comet","type":"address","internalType":"address"},{"name":"_params","type":"tuple","internalType":"struct ArkParams","components":[{"name":"governor","type":"address","internalType":"address"},{"name":"raft","type":"address","internalType":"address"},{"name":"token","type":"address","internalType":"address"}]}],"stateMutability":"nonpayable"},{"type":"function","name":"COMMANDER_ROLE","inputs":[],"outputs":[{"name":"","type":"bytes32","internalType":"bytes32"}],"stateMutability":"view"},{"type":"function","name":"DEFAULT_ADMIN_ROLE","inputs":[],"outputs":[{"name":"","type":"bytes32","internalType":"bytes32"}],"stateMutability":"view"},{"type":"function","name":"GOVERNOR_ROLE","inputs":[],"outputs":[{"name":"","type":"bytes32","internalType":"bytes32"}],"stateMutability":"view"},{"type":"function","name":"KEEPER_ROLE","inputs":[],"outputs":[{"name":"","type":"bytes32","internalType":"bytes32"}],"stateMutability":"view"},{"type":"function","name":"balance","inputs":[],"outputs":[{"name":"","type":"uint256","internalType":"uint256"}],"stateMutability":"view"},{"type":"function","name":"board","inputs":[{"name":"amount","type":"uint256","internalType":"uint256"}],"outputs":[],"stateMutability":"nonpayable"},{"type":"function","name":"comet","inputs":[],"outputs":[{"name":"","type":"address","internalType":"contract IComet"}],"stateMutability":"view"},{"type":"function","name":"depositCap","inputs":[],"outputs":[{"name":"","type":"uint256","internalType":"uint256"}],"stateMutability":"view"},{"type":"function","name":"disembark","inputs":[{"name":"amount","type":"uint256","internalType":"uint256"}],"outputs":[],"stateMutability":"nonpayable"},{"type":"function","name":"getRoleAdmin","inputs":[{"name":"role","type":"bytes32","internalType":"bytes32"}],"outputs":[{"name":"","type":"bytes32","internalType":"bytes32"}],"stateMutability":"view"},{"type":"function","name":"grantAdminRole","inputs":[{"name":"account","type":"address","internalType":"address"}],"outputs":[],"stateMutability":"nonpayable"},{"type":"function","name":"grantCommanderRole","inputs":[{"name":"account","type":"address","internalType":"address"}],"outputs":[],"stateMutability":"nonpayable"},{"type":"function","name":"grantGovernorRole","inputs":[{"name":"account","type":"address","internalType":"address"}],"outputs":[],"stateMutability":"nonpayable"},{"type":"function","name":"grantKeeperRole","inputs":[{"name":"account","type":"address","internalType":"address"}],"outputs":[],"stateMutability":"nonpayable"},{"type":"function","name":"grantRole","inputs":[{"name":"role","type":"bytes32","internalType":"bytes32"},{"name":"account","type":"address","internalType":"address"}],"outputs":[],"stateMutability":"nonpayable"},{"type":"function","name":"harvest","inputs":[],"outputs":[],"stateMutability":"nonpayable"},{"type":"function","name":"hasRole","inputs":[{"name":"role","type":"bytes32","internalType":"bytes32"},{"name":"account","type":"address","internalType":"address"}],"outputs":[{"name":"","type":"bool","internalType":"bool"}],"stateMutability":"view"},{"type":"function","name":"raft","inputs":[],"outputs":[{"name":"","type":"address","internalType":"address"}],"stateMutability":"view"},{"type":"function","name":"renounceRole","inputs":[{"name":"role","type":"bytes32","internalType":"bytes32"},{"name":"callerConfirmation","type":"address","internalType":"address"}],"outputs":[],"stateMutability":"nonpayable"},{"type":"function","name":"revokeAdminRole","inputs":[{"name":"account","type":"address","internalType":"address"}],"outputs":[],"stateMutability":"nonpayable"},{"type":"function","name":"revokeCommanderRole","inputs":[{"name":"account","type":"address","internalType":"address"}],"outputs":[],"stateMutability":"nonpayable"},{"type":"function","name":"revokeGovernorRole","inputs":[{"name":"account","type":"address","internalType":"address"}],"outputs":[],"stateMutability":"nonpayable"},{"type":"function","name":"revokeKeeperRole","inputs":[{"name":"account","type":"address","internalType":"address"}],"outputs":[],"stateMutability":"nonpayable"},{"type":"function","name":"revokeRole","inputs":[{"name":"role","type":"bytes32","internalType":"bytes32"},{"name":"account","type":"address","internalType":"address"}],"outputs":[],"stateMutability":"nonpayable"},{"type":"function","name":"setDepositCap","inputs":[{"name":"newCap","type":"uint256","internalType":"uint256"}],"outputs":[],"stateMutability":"nonpayable"},{"type":"function","name":"setRaft","inputs":[{"name":"newRaft","type":"address","internalType":"address"}],"outputs":[],"stateMutability":"nonpayable"},{"type":"function","name":"supportsInterface","inputs":[{"name":"interfaceId","type":"bytes4","internalType":"bytes4"}],"outputs":[{"name":"","type":"bool","internalType":"bool"}],"stateMutability":"view"},{"type":"function","name":"token","inputs":[],"outputs":[{"name":"","type":"address","internalType":"contract IERC20"}],"stateMutability":"view"},{"type":"event","name":"Boarded","inputs":[{"name":"commander","type":"address","indexed":true,"internalType":"address"},{"name":"token","type":"address","indexed":false,"internalType":"address"},{"name":"amount","type":"uint256","indexed":false,"internalType":"uint256"}],"anonymous":false},{"type":"event","name":"DepositCapUpdated","inputs":[{"name":"newCap","type":"uint256","indexed":false,"internalType":"uint256"}],"anonymous":false},{"type":"event","name":"Disembarked","inputs":[{"name":"commander","type":"address","indexed":true,"internalType":"address"},{"name":"token","type":"address","indexed":false,"internalType":"address"},{"name":"amount","type":"uint256","indexed":false,"internalType":"uint256"}],"anonymous":false},{"type":"event","name":"Harvested","inputs":[{"name":"amount","type":"uint256","indexed":false,"internalType":"uint256"}],"anonymous":false},{"type":"event","name":"RaftUpdated","inputs":[{"name":"newRaft","type":"address","indexed":false,"internalType":"address"}],"anonymous":false},{"type":"event","name":"RoleAdminChanged","inputs":[{"name":"role","type":"bytes32","indexed":true,"internalType":"bytes32"},{"name":"previousAdminRole","type":"bytes32","indexed":true,"internalType":"bytes32"},{"name":"newAdminRole","type":"bytes32","indexed":true,"internalType":"bytes32"}],"anonymous":false},{"type":"event","name":"RoleGranted","inputs":[{"name":"role","type":"bytes32","indexed":true,"internalType":"bytes32"},{"name":"account","type":"address","indexed":true,"internalType":"address"},{"name":"sender","type":"address","indexed":true,"internalType":"address"}],"anonymous":false},{"type":"event","name":"RoleRevoked","inputs":[{"name":"role","type":"bytes32","indexed":true,"internalType":"bytes32"},{"name":"account","type":"address","indexed":true,"internalType":"address"},{"name":"sender","type":"address","indexed":true,"internalType":"address"}],"anonymous":false},{"type":"error","name":"AccessControlBadConfirmation","inputs":[]},{"type":"error","name":"AccessControlUnauthorizedAccount","inputs":[{"name":"account","type":"address","internalType":"address"},{"name":"neededRole","type":"bytes32","internalType":"bytes32"}]},{"type":"error","name":"AddressEmptyCode","inputs":[{"name":"target","type":"address","internalType":"address"}]},{"type":"error","name":"AddressInsufficientBalance","inputs":[{"name":"account","type":"address","internalType":"address"}]},{"type":"error","name":"CallerIsNotAdmin","inputs":[{"name":"caller","type":"address","internalType":"address"}]},{"type":"error","name":"CallerIsNotCommander","inputs":[{"name":"caller","type":"address","internalType":"address"}]},{"type":"error","name":"CallerIsNotGovernor","inputs":[{"name":"caller","type":"address","internalType":"address"}]},{"type":"error","name":"CallerIsNotRoleAdmin","inputs":[{"name":"caller","type":"address","internalType":"address"}]},{"type":"error","name":"FailedInnerCall","inputs":[]},{"type":"error","name":"SafeERC20FailedOperation","inputs":[{"name":"token","type":"address","internalType":"address"}]}],"bytecode":{"object":"0x608060405234801561001057600080fd5b5060405161118f38038061118f83398101604081905261002f91610182565b8051819061003e6000826100ba565b506100697f7935bd0ae54bc31f548c14dba4d37c5c64b3f8ca900cb468fb8abd54d5894f55826100ba565b50506020810151600180546001600160a01b03199081166001600160a01b03938416179091556040909201516003805484169183169190911790556004805490921693169290921790915550610222565b6000828152602081815260408083206001600160a01b038516845290915281205460ff1661015c576000838152602081815260408083206001600160a01b03861684529091529020805460ff191660011790556101143390565b6001600160a01b0316826001600160a01b0316847f2f8788117e7eff1d82e926ec794901d17c78024a50270940304540a733656f0d60405160405180910390a4506001610160565b5060005b92915050565b80516001600160a01b038116811461017d57600080fd5b919050565b600080828403608081121561019657600080fd5b61019f84610166565b92506060601f19820112156101b357600080fd5b50604051606081016001600160401b03811182821017156101e457634e487b7160e01b600052604160045260246000fd5b6040526101f360208501610166565b815261020160408501610166565b602082015261021260608501610166565b6040820152809150509250929050565b610f5e806102316000396000f3fe608060405234801561001057600080fd5b50600436106101c45760003560e01c806391d14854116100f9578063cc1f071a11610097578063dbd5edc711610071578063dbd5edc7146103c7578063e4dd1dca146103d0578063fb914c39146103e3578063fc0c546a146103f657600080fd5b8063cc1f071a1461038c578063ccc574901461039f578063d547741f146103b457600080fd5b8063a217fddf116100d3578063a217fddf14610357578063b69ef8a81461035f578063ba3e9c1214610366578063c634b78e1461037957600080fd5b806391d148541461031e5780639403e41f146103315780639a19c7b01461034457600080fd5b80634106d274116101665780634641257d116101405780634641257d146102605780634dd47eba146102ea57806381d3ce26146102fd578063866512031461031057600080fd5b80634106d274146102af57806344ee0605146102c257806345b817bb146102d557600080fd5b806328ed6e3f116101a257806328ed6e3f1461024d5780632f2ff15d14610262578063364bc15a1461027557806336568abe1461029c57600080fd5b806301ffc9a7146101c9578063117d8ae0146101f1578063248a9ca31461021c575b600080fd5b6101dc6101d7366004610df1565b610409565b60405190151581526020015b60405180910390f35b600154610204906001600160a01b031681565b6040516001600160a01b0390911681526020016101e8565b61023f61022a366004610e1b565b60009081526020819052604090206001015490565b6040519081526020016101e8565b61026061025b366004610e1b565b610440565b005b610260610270366004610e50565b6104e9565b61023f7ffc8737ab85eb45125971625a9ebdb75cc78e01d5c1fa80c4c6e5203f47bc4fab81565b6102606102aa366004610e50565b610514565b6102606102bd366004610e7c565b61054c565b6102606102d0366004610e7c565b6105c5565b61023f600080516020610ee983398151915281565b6102606102f8366004610e1b565b6105fc565b61026061030b366004610e7c565b610698565b6102606102d0366004610e1b565b6101dc61032c366004610e50565b6106fc565b61026061033f366004610e7c565b610725565b610260610352366004610e7c565b610789565b61023f600081565b600061023f565b600454610204906001600160a01b031681565b610260610387366004610e7c565b6107be565b61026061039a366004610e7c565b6107f3565b61023f600080516020610f0983398151915281565b6102606103c2366004610e50565b610865565b61023f60025481565b6102606103de366004610e7c565b61088a565b6102606103f1366004610e7c565b6108ee565b600354610204906001600160a01b031681565b60006001600160e01b03198216637965db0b60e01b148061043a57506301ffc9a760e01b6001600160e01b03198316145b92915050565b610458600080516020610ee9833981519152336106fc565b61047c57604051631564c0e160e11b81523360048201526024015b60405180910390fd5b600354610494906001600160a01b0316333084610952565b61049d816109b9565b600354604080516001600160a01b0390921682526020820183905233917fcbaa1442ac205415c9d69643e7b60ec73d1de35dbc807c21ec288c70ddc4207b91015b60405180910390a250565b60008281526020819052604090206001015461050481610aa5565b61050e8383610aaf565b50505050565b6001600160a01b038116331461053d5760405163334bd91960e11b815260040160405180910390fd5b6105478282610b41565b505050565b6105576000336106fc565b15806105785750610576600080516020610f09833981519152336106fc565b155b15610598576040516366ea5d8760e01b8152336004820152602401610473565b6105c27ffc8737ab85eb45125971625a9ebdb75cc78e01d5c1fa80c4c6e5203f47bc4fab826104e9565b50565b6105dd600080516020610f09833981519152336106fc565b6105c257604051630ea7d7ed60e21b8152336004820152602401610473565b610614600080516020610ee9833981519152336106fc565b61063357604051631564c0e160e11b8152336004820152602401610473565b61063c81610bac565b600354610653906001600160a01b03163383610be9565b600354604080516001600160a01b0390921682526020820183905233917fd5e872c5ecfb1bb8820b2e6a20e31b883682282da886621541f71e31ec11947e91016104de565b6106a36000336106fc565b15806106c457506106c2600080516020610f09833981519152336106fc565b155b156106e4576040516366ea5d8760e01b8152336004820152602401610473565b6105c2600080516020610ee983398151915282610865565b6000918252602082815260408084206001600160a01b0393909316845291905290205460ff1690565b6107306000336106fc565b1580610751575061074f600080516020610f09833981519152336106fc565b155b15610771576040516366ea5d8760e01b8152336004820152602401610473565b6105c2600080516020610ee9833981519152826104e9565b6107946000336106fc565b6107b3576040516376660ab760e11b8152336004820152602401610473565b6105c2600082610865565b6107c96000336106fc565b6107e8576040516376660ab760e11b8152336004820152602401610473565b6105c26000826104e9565b6107fe6000336106fc565b158061081f575061081d600080516020610f09833981519152336106fc565b155b1561083f576040516366ea5d8760e01b8152336004820152602401610473565b6105c27ffc8737ab85eb45125971625a9ebdb75cc78e01d5c1fa80c4c6e5203f47bc4fab825b60008281526020819052604090206001015461088081610aa5565b61050e8383610b41565b6108956000336106fc565b15806108b657506108b4600080516020610f09833981519152336106fc565b155b156108d6576040516366ea5d8760e01b8152336004820152602401610473565b6105c2600080516020610f09833981519152826104e9565b6108f96000336106fc565b158061091a5750610918600080516020610f09833981519152336106fc565b155b1561093a576040516366ea5d8760e01b8152336004820152602401610473565b6105c2600080516020610f0983398151915282610865565b6040516001600160a01b03848116602483015283811660448301526064820183905261050e9186918216906323b872dd906084015b604051602081830303815290604052915060e01b6020820180516001600160e01b038381831617835250505050610c1a565b6003546004805460405163095ea7b360e01b81526001600160a01b0391821692810192909252602482018490529091169063095ea7b3906044016020604051808303816000875af1158015610a12573d6000803e3d6000fd5b505050506040513d601f19601f82011682018060405250810190610a369190610e97565b5060048054600354604051631e573fb760e31b81526001600160a01b039182169381019390935260248301849052169063f2b9fdb8906044015b600060405180830381600087803b158015610a8a57600080fd5b505af1158015610a9e573d6000803e3d6000fd5b5050505050565b6105c28133610c7d565b6000610abb83836106fc565b610b39576000838152602081815260408083206001600160a01b03861684529091529020805460ff19166001179055610af13390565b6001600160a01b0316826001600160a01b0316847f2f8788117e7eff1d82e926ec794901d17c78024a50270940304540a733656f0d60405160405180910390a450600161043a565b50600061043a565b6000610b4d83836106fc565b15610b39576000838152602081815260408083206001600160a01b0386168085529252808320805460ff1916905551339286917ff6391f5c32d9c69d2a47ea670b442974b53935d1edc7fd64eb21e047a839171b9190a450600161043a565b6004805460035460405163f3fef3a360e01b81526001600160a01b039182169381019390935260248301849052169063f3fef3a390604401610a70565b6040516001600160a01b0383811660248301526044820183905261054791859182169063a9059cbb90606401610987565b6000610c2f6001600160a01b03841683610cba565b90508051600014158015610c54575080806020019051810190610c529190610e97565b155b1561054757604051635274afe760e01b81526001600160a01b0384166004820152602401610473565b610c8782826106fc565b610cb65760405163e2517d3f60e01b81526001600160a01b038216600482015260248101839052604401610473565b5050565b6060610cc883836000610ccf565b9392505050565b606081471015610cf45760405163cd78605960e01b8152306004820152602401610473565b600080856001600160a01b03168486604051610d109190610eb9565b60006040518083038185875af1925050503d8060008114610d4d576040519150601f19603f3d011682016040523d82523d6000602084013e610d52565b606091505b5091509150610d62868383610d6c565b9695505050505050565b606082610d8157610d7c82610dc8565b610cc8565b8151158015610d9857506001600160a01b0384163b155b15610dc157604051639996b31560e01b81526001600160a01b0385166004820152602401610473565b5080610cc8565b805115610dd85780518082602001fd5b604051630a12f52160e11b815260040160405180910390fd5b600060208284031215610e0357600080fd5b81356001600160e01b031981168114610cc857600080fd5b600060208284031215610e2d57600080fd5b5035919050565b80356001600160a01b0381168114610e4b57600080fd5b919050565b60008060408385031215610e6357600080fd5b82359150610e7360208401610e34565b90509250929050565b600060208284031215610e8e57600080fd5b610cc882610e34565b600060208284031215610ea957600080fd5b81518015158114610cc857600080fd5b6000825160005b81811015610eda5760208186018101518583015201610ec0565b50600092019182525091905056fe4d30e780ddaa8d94b73282aef7f15ebc8bd13895bbcc2ae410396cabb542d27c7935bd0ae54bc31f548c14dba4d37c5c64b3f8ca900cb468fb8abd54d5894f55a264697066735822122042215d98ac0f1a97ba691608d11219f5eba94f097ea6e95dffcce5c3f74756e264736f6c634300081a0033","linkReferences":{}},"methodIdentifiers":{"COMMANDER_ROLE()":"45b817bb","DEFAULT_ADMIN_ROLE()":"a217fddf","GOVERNOR_ROLE()":"ccc57490","KEEPER_ROLE()":"364bc15a","balance()":"b69ef8a8","board(uint256)":"28ed6e3f","comet()":"ba3e9c12","depositCap()":"dbd5edc7","disembark(uint256)":"4dd47eba","getRoleAdmin(bytes32)":"248a9ca3","grantAdminRole(address)":"c634b78e","grantCommanderRole(address)":"9403e41f","grantGovernorRole(address)":"e4dd1dca","grantKeeperRole(address)":"4106d274","grantRole(bytes32,address)":"2f2ff15d","harvest()":"4641257d","hasRole(bytes32,address)":"91d14854","raft()":"117d8ae0","renounceRole(bytes32,address)":"36568abe","revokeAdminRole(address)":"9a19c7b0","revokeCommanderRole(address)":"81d3ce26","revokeGovernorRole(address)":"fb914c39","revokeKeeperRole(address)":"cc1f071a","revokeRole(bytes32,address)":"d547741f","setDepositCap(uint256)":"86651203","setRaft(address)":"44ee0605","supportsInterface(bytes4)":"01ffc9a7","token()":"fc0c546a"},"id":45}