{"abi":[{"type":"constructor","inputs":[{"name":"_pendlePtArkConstructorParams","type":"tuple","internalType":"struct PendlePtArkConstructorParams","components":[{"name":"market","type":"address","internalType":"address"},{"name":"oracle","type":"address","internalType":"address"},{"name":"router","type":"address","internalType":"address"}]},{"name":"_params","type":"tuple","internalType":"struct ArkParams","components":[{"name":"name","type":"string","internalType":"string"},{"name":"details","type":"string","internalType":"string"},{"name":"accessManager","type":"address","internalType":"address"},{"name":"configurationManager","type":"address","internalType":"address"},{"name":"asset","type":"address","internalType":"address"},{"name":"depositCap","type":"uint256","internalType":"uint256"},{"name":"maxRebalanceOutflow","type":"uint256","internalType":"uint256"},{"name":"maxRebalanceInflow","type":"uint256","internalType":"uint256"},{"name":"requiresKeeperData","type":"bool","internalType":"bool"},{"name":"maxDepositPercentageOfTVL","type":"uint256","internalType":"Percentage"}]}],"stateMutability":"nonpayable"},{"type":"function","name":"MAX_SLIPPAGE_PERCENTAGE","inputs":[],"outputs":[{"name":"","type":"uint256","internalType":"Percentage"}],"stateMutability":"view"},{"type":"function","name":"MIN_ORACLE_DURATION","inputs":[],"outputs":[{"name":"","type":"uint256","internalType":"uint256"}],"stateMutability":"view"},{"type":"function","name":"PT","inputs":[],"outputs":[{"name":"","type":"address","internalType":"contract IPPrincipalToken"}],"stateMutability":"view"},{"type":"function","name":"SY","inputs":[],"outputs":[{"name":"","type":"address","internalType":"contract IStandardizedYield"}],"stateMutability":"view"},{"type":"function","name":"YT","inputs":[],"outputs":[{"name":"","type":"address","internalType":"contract IPYieldToken"}],"stateMutability":"view"},{"type":"function","name":"asset","inputs":[],"outputs":[{"name":"","type":"address","internalType":"contract IERC20"}],"stateMutability":"view"},{"type":"function","name":"board","inputs":[{"name":"amount","type":"uint256","internalType":"uint256"},{"name":"boardData","type":"bytes","internalType":"bytes"}],"outputs":[],"stateMutability":"nonpayable"},{"type":"function","name":"commander","inputs":[],"outputs":[{"name":"","type":"address","internalType":"address"}],"stateMutability":"view"},{"type":"function","name":"config","inputs":[],"outputs":[{"name":"commander","type":"address","internalType":"address"},{"name":"raft","type":"address","internalType":"address"},{"name":"asset","type":"address","internalType":"contract IERC20"},{"name":"depositCap","type":"uint256","internalType":"uint256"},{"name":"maxRebalanceOutflow","type":"uint256","internalType":"uint256"},{"name":"maxRebalanceInflow","type":"uint256","internalType":"uint256"},{"name":"name","type":"string","internalType":"string"},{"name":"details","type":"string","internalType":"string"},{"name":"requiresKeeperData","type":"bool","internalType":"bool"},{"name":"maxDepositPercentageOfTVL","type":"uint256","internalType":"Percentage"}],"stateMutability":"view"},{"type":"function","name":"configurationManager","inputs":[],"outputs":[{"name":"","type":"address","internalType":"contract IConfigurationManager"}],"stateMutability":"view"},{"type":"function","name":"depositCap","inputs":[],"outputs":[{"name":"","type":"uint256","internalType":"uint256"}],"stateMutability":"view"},{"type":"function","name":"disembark","inputs":[{"name":"amount","type":"uint256","internalType":"uint256"},{"name":"disembarkData","type":"bytes","internalType":"bytes"}],"outputs":[],"stateMutability":"nonpayable"},{"type":"function","name":"emptySwap","inputs":[],"outputs":[{"name":"swapType","type":"uint8","internalType":"enum SwapType"},{"name":"extRouter","type":"address","internalType":"address"},{"name":"extCalldata","type":"bytes","internalType":"bytes"},{"name":"needScale","type":"bool","internalType":"bool"}],"stateMutability":"view"},{"type":"function","name":"fleetCommanderRewardsManagerFactory","inputs":[],"outputs":[{"name":"","type":"address","internalType":"address"}],"stateMutability":"view"},{"type":"function","name":"generateRole","inputs":[{"name":"roleName","type":"uint8","internalType":"enum ContractSpecificRoles"},{"name":"roleTargetContract","type":"address","internalType":"address"}],"outputs":[{"name":"","type":"bytes32","internalType":"bytes32"}],"stateMutability":"pure"},{"type":"function","name":"getConfig","inputs":[],"outputs":[{"name":"","type":"tuple","internalType":"struct ArkConfig","components":[{"name":"commander","type":"address","internalType":"address"},{"name":"raft","type":"address","internalType":"address"},{"name":"asset","type":"address","internalType":"contract IERC20"},{"name":"depositCap","type":"uint256","internalType":"uint256"},{"name":"maxRebalanceOutflow","type":"uint256","internalType":"uint256"},{"name":"maxRebalanceInflow","type":"uint256","internalType":"uint256"},{"name":"name","type":"string","internalType":"string"},{"name":"details","type":"string","internalType":"string"},{"name":"requiresKeeperData","type":"bool","internalType":"bool"},{"name":"maxDepositPercentageOfTVL","type":"uint256","internalType":"Percentage"}]}],"stateMutability":"view"},{"type":"function","name":"harborCommand","inputs":[],"outputs":[{"name":"","type":"address","internalType":"address"}],"stateMutability":"view"},{"type":"function","name":"harvest","inputs":[{"name":"additionalData","type":"bytes","internalType":"bytes"}],"outputs":[{"name":"rewardTokens","type":"address[]","internalType":"address[]"},{"name":"rewardAmounts","type":"uint256[]","internalType":"uint256[]"}],"stateMutability":"nonpayable"},{"type":"function","name":"market","inputs":[],"outputs":[{"name":"","type":"address","internalType":"address"}],"stateMutability":"view"},{"type":"function","name":"marketExpiry","inputs":[],"outputs":[{"name":"","type":"uint256","internalType":"uint256"}],"stateMutability":"view"},{"type":"function","name":"maxDepositPercentageOfTVL","inputs":[],"outputs":[{"name":"","type":"uint256","internalType":"Percentage"}],"stateMutability":"view"},{"type":"function","name":"maxRebalanceInflow","inputs":[],"outputs":[{"name":"","type":"uint256","internalType":"uint256"}],"stateMutability":"view"},{"type":"function","name":"maxRebalanceOutflow","inputs":[],"outputs":[{"name":"","type":"uint256","internalType":"uint256"}],"stateMutability":"view"},{"type":"function","name":"move","inputs":[{"name":"amount","type":"uint256","internalType":"uint256"},{"name":"receiverArk","type":"address","internalType":"address"},{"name":"boardData","type":"bytes","internalType":"bytes"},{"name":"disembarkData","type":"bytes","internalType":"bytes"}],"outputs":[],"stateMutability":"nonpayable"},{"type":"function","name":"name","inputs":[],"outputs":[{"name":"","type":"string","internalType":"string"}],"stateMutability":"view"},{"type":"function","name":"nextMarket","inputs":[],"outputs":[{"name":"","type":"address","internalType":"address"}],"stateMutability":"view"},{"type":"function","name":"oracle","inputs":[],"outputs":[{"name":"","type":"address","internalType":"address"}],"stateMutability":"view"},{"type":"function","name":"oracleDuration","inputs":[],"outputs":[{"name":"","type":"uint32","internalType":"uint32"}],"stateMutability":"view"},{"type":"function","name":"raft","inputs":[],"outputs":[{"name":"","type":"address","internalType":"address"}],"stateMutability":"view"},{"type":"function","name":"registerFleetCommander","inputs":[],"outputs":[],"stateMutability":"nonpayable"},{"type":"function","name":"requiresKeeperData","inputs":[],"outputs":[{"name":"","type":"bool","internalType":"bool"}],"stateMutability":"view"},{"type":"function","name":"router","inputs":[],"outputs":[{"name":"","type":"address","internalType":"address"}],"stateMutability":"view"},{"type":"function","name":"routerParams","inputs":[],"outputs":[{"name":"guessMin","type":"uint256","internalType":"uint256"},{"name":"guessMax","type":"uint256","internalType":"uint256"},{"name":"guessOffchain","type":"uint256","internalType":"uint256"},{"name":"maxIteration","type":"uint256","internalType":"uint256"},{"name":"eps","type":"uint256","internalType":"uint256"}],"stateMutability":"view"},{"type":"function","name":"setDepositCap","inputs":[{"name":"newDepositCap","type":"uint256","internalType":"uint256"}],"outputs":[],"stateMutability":"nonpayable"},{"type":"function","name":"setMaxDepositPercentageOfTVL","inputs":[{"name":"newMaxDepositPercentageOfTVL","type":"uint256","internalType":"Percentage"}],"outputs":[],"stateMutability":"nonpayable"},{"type":"function","name":"setMaxRebalanceInflow","inputs":[{"name":"newMaxRebalanceInflow","type":"uint256","internalType":"uint256"}],"outputs":[],"stateMutability":"nonpayable"},{"type":"function","name":"setMaxRebalanceOutflow","inputs":[{"name":"newMaxRebalanceOutflow","type":"uint256","internalType":"uint256"}],"outputs":[],"stateMutability":"nonpayable"},{"type":"function","name":"setNextMarket","inputs":[{"name":"_nextMarket","type":"address","internalType":"address"}],"outputs":[],"stateMutability":"nonpayable"},{"type":"function","name":"setOracleDuration","inputs":[{"name":"_oracleDuration","type":"uint32","internalType":"uint32"}],"outputs":[],"stateMutability":"nonpayable"},{"type":"function","name":"setSlippagePercentage","inputs":[{"name":"_slippagePercentage","type":"uint256","internalType":"Percentage"}],"outputs":[],"stateMutability":"nonpayable"},{"type":"function","name":"slippagePercentage","inputs":[],"outputs":[{"name":"","type":"uint256","internalType":"Percentage"}],"stateMutability":"view"},{"type":"function","name":"sweep","inputs":[{"name":"tokens","type":"address[]","internalType":"address[]"}],"outputs":[{"name":"sweptTokens","type":"address[]","internalType":"address[]"},{"name":"sweptAmounts","type":"uint256[]","internalType":"uint256[]"}],"stateMutability":"nonpayable"},{"type":"function","name":"tipJar","inputs":[],"outputs":[{"name":"","type":"address","internalType":"address"}],"stateMutability":"view"},{"type":"function","name":"totalAssets","inputs":[],"outputs":[{"name":"","type":"uint256","internalType":"uint256"}],"stateMutability":"view"},{"type":"function","name":"treasury","inputs":[],"outputs":[{"name":"","type":"address","internalType":"address"}],"stateMutability":"view"},{"type":"function","name":"unregisterFleetCommander","inputs":[],"outputs":[],"stateMutability":"nonpayable"},{"type":"event","name":"ArkHarvested","inputs":[{"name":"rewardTokens","type":"address[]","indexed":true,"internalType":"address[]"},{"name":"rewardAmounts","type":"uint256[]","indexed":true,"internalType":"uint256[]"}],"anonymous":false},{"type":"event","name":"ArkPoked","inputs":[{"name":"currentPrice","type":"uint256","indexed":false,"internalType":"uint256"},{"name":"timestamp","type":"uint256","indexed":false,"internalType":"uint256"}],"anonymous":false},{"type":"event","name":"ArkSwept","inputs":[{"name":"sweptTokens","type":"address[]","indexed":true,"internalType":"address[]"},{"name":"sweptAmounts","type":"uint256[]","indexed":true,"internalType":"uint256[]"}],"anonymous":false},{"type":"event","name":"Boarded","inputs":[{"name":"commander","type":"address","indexed":true,"internalType":"address"},{"name":"token","type":"address","indexed":false,"internalType":"address"},{"name":"amount","type":"uint256","indexed":false,"internalType":"uint256"}],"anonymous":false},{"type":"event","name":"DepositCapUpdated","inputs":[{"name":"newCap","type":"uint256","indexed":false,"internalType":"uint256"}],"anonymous":false},{"type":"event","name":"Disembarked","inputs":[{"name":"commander","type":"address","indexed":true,"internalType":"address"},{"name":"token","type":"address","indexed":false,"internalType":"address"},{"name":"amount","type":"uint256","indexed":false,"internalType":"uint256"}],"anonymous":false},{"type":"event","name":"FleetCommanderRegistered","inputs":[{"name":"commander","type":"address","indexed":false,"internalType":"address"}],"anonymous":false},{"type":"event","name":"FleetCommanderUnregistered","inputs":[{"name":"commander","type":"address","indexed":false,"internalType":"address"}],"anonymous":false},{"type":"event","name":"MarketRolledOver","inputs":[{"name":"newMarket","type":"address","indexed":true,"internalType":"address"}],"anonymous":false},{"type":"event","name":"MaxDepositPercentageOfTVLUpdated","inputs":[{"name":"newMaxDepositPercentageOfTVL","type":"uint256","indexed":false,"internalType":"Percentage"}],"anonymous":false},{"type":"event","name":"MaxRebalanceInflowUpdated","inputs":[{"name":"newMaxInflow","type":"uint256","indexed":false,"internalType":"uint256"}],"anonymous":false},{"type":"event","name":"MaxRebalanceOutflowUpdated","inputs":[{"name":"newMaxOutflow","type":"uint256","indexed":false,"internalType":"uint256"}],"anonymous":false},{"type":"event","name":"Moved","inputs":[{"name":"from","type":"address","indexed":true,"internalType":"address"},{"name":"to","type":"address","indexed":true,"internalType":"address"},{"name":"token","type":"address","indexed":false,"internalType":"address"},{"name":"amount","type":"uint256","indexed":false,"internalType":"uint256"}],"anonymous":false},{"type":"event","name":"OracleDurationUpdated","inputs":[{"name":"newOracleDuration","type":"uint32","indexed":false,"internalType":"uint32"}],"anonymous":false},{"type":"event","name":"RaftUpdated","inputs":[{"name":"newRaft","type":"address","indexed":false,"internalType":"address"}],"anonymous":false},{"type":"event","name":"SlippageUpdated","inputs":[{"name":"newSlippagePercentage","type":"uint256","indexed":false,"internalType":"Percentage"}],"anonymous":false},{"type":"error","name":"CallerIsNotAdmin","inputs":[{"name":"caller","type":"address","internalType":"address"}]},{"type":"error","name":"CallerIsNotAuthorizedToBoard","inputs":[{"name":"caller","type":"address","internalType":"address"}]},{"type":"error","name":"CallerIsNotCommander","inputs":[{"name":"caller","type":"address","internalType":"address"}]},{"type":"error","name":"CallerIsNotContractSpecificRole","inputs":[{"name":"caller","type":"address","internalType":"address"},{"name":"role","type":"bytes32","internalType":"bytes32"}]},{"type":"error","name":"CallerIsNotCurator","inputs":[{"name":"caller","type":"address","internalType":"address"}]},{"type":"error","name":"CallerIsNotDecayController","inputs":[{"name":"caller","type":"address","internalType":"address"}]},{"type":"error","name":"CallerIsNotGovernor","inputs":[{"name":"caller","type":"address","internalType":"address"}]},{"type":"error","name":"CallerIsNotGuardian","inputs":[{"name":"caller","type":"address","internalType":"address"}]},{"type":"error","name":"CallerIsNotGuardianOrGovernor","inputs":[{"name":"caller","type":"address","internalType":"address"}]},{"type":"error","name":"CallerIsNotKeeper","inputs":[{"name":"caller","type":"address","internalType":"address"}]},{"type":"error","name":"CallerIsNotRaft","inputs":[{"name":"caller","type":"address","internalType":"address"}]},{"type":"error","name":"CallerIsNotRaftOrCommander","inputs":[{"name":"caller","type":"address","internalType":"address"}]},{"type":"error","name":"CallerIsNotSuperKeeper","inputs":[{"name":"caller","type":"address","internalType":"address"}]},{"type":"error","name":"CannotAddCommanderToArkWithCommander","inputs":[]},{"type":"error","name":"CannotDeployArkWithEmptyName","inputs":[]},{"type":"error","name":"CannotDeployArkWithoutConfigurationManager","inputs":[]},{"type":"error","name":"CannotDeployArkWithoutRaft","inputs":[]},{"type":"error","name":"CannotDeployArkWithoutToken","inputs":[]},{"type":"error","name":"CannotRemoveCommanderFromArkWithAssets","inputs":[]},{"type":"error","name":"CannotUseKeeperDataWhenNotRequired","inputs":[]},{"type":"error","name":"ConfigurationManagerZeroAddress","inputs":[]},{"type":"error","name":"DirectGrantIsDisabled","inputs":[{"name":"caller","type":"address","internalType":"address"}]},{"type":"error","name":"DirectRevokeIsDisabled","inputs":[{"name":"caller","type":"address","internalType":"address"}]},{"type":"error","name":"ERC4626AssetMismatch","inputs":[]},{"type":"error","name":"InvalidAccessManagerAddress","inputs":[{"name":"invalidAddress","type":"address","internalType":"address"}]},{"type":"error","name":"InvalidAssetForSY","inputs":[]},{"type":"error","name":"InvalidBoardData","inputs":[]},{"type":"error","name":"InvalidDisembarkData","inputs":[]},{"type":"error","name":"InvalidNextMarket","inputs":[]},{"type":"error","name":"InvalidVaultAddress","inputs":[]},{"type":"error","name":"KeeperDataRequired","inputs":[]},{"type":"error","name":"MarketExpired","inputs":[]},{"type":"error","name":"OracleDurationTooLow","inputs":[{"name":"providedDuration","type":"uint32","internalType":"uint32"},{"name":"minimumDuration","type":"uint256","internalType":"uint256"}]},{"type":"error","name":"OracleNotReady","inputs":[]},{"type":"error","name":"ReentrancyGuardReentrantCall","inputs":[]},{"type":"error","name":"SafeERC20FailedOperation","inputs":[{"name":"token","type":"address","internalType":"address"}]},{"type":"error","name":"SlippagePercentageTooHigh","inputs":[{"name":"providedSlippage","type":"uint256","internalType":"Percentage"},{"name":"maxSlippage","type":"uint256","internalType":"Percentage"}]}],"bytecode":{"object":"0x60e060405234801561000f575f5ffd5b50604051614c44380380614c4483398101604081905261002e91610969565b815f01518260200151836040015183808080606001518160400151805f6001600160a01b0316816001600160a01b031603610083576040516347bd7c1d60e01b81525f60048201526024015b60405180910390fd5b6040516301ffc9a760e01b8152639bd1803160e01b60048201526001600160a01b038216906301ffc9a790602401602060405180830381865afa1580156100cc573d5f5f3e3d5ffd5b505050506040513d601f19601f820116820180604052508101906100f09190610ac4565b610118576040516347bd7c1d60e01b81526001600160a01b038216600482015260240161007a565b5f80546001600160a01b0319166001600160a01b03928316179055821690506101545760405163f1634df960e01b815260040160405180910390fd5b6001600160a01b039081166080526060820151166101855760405163b53c493160e01b815260040160405180910390fd5b60808101516001600160a01b03166101b3576040516001620a810f60e11b0319815260040160405180910390fd5b8051515f036101d55760405163268c072960e01b815260040160405180910390fd5b5f6101de6103a4565b6001600160a01b03160361020557604051633a4f9cdb60e21b815260040160405180910390fd5b6040805161014081019091525f8152602081016102206103a4565b6001600160a01b039081168252608080850151821660208085019190915260a08087015160408087019190915260c08089015160608089019190915260e0808b0151878a01528a51858a01528a860151838a0152610100808c01511515918a01919091526101208b01519801979097528751600180549188166001600160a01b031992831617815594890151600280549189169183169190911790559188015160038054919097169216919091179094559385015160045590840151600555918301516006558201516007906102f69082610b61565b5060e0820151600782019061030b9082610b61565b5061010082015160088201805460ff19169115159190911790556101209091015160099091015550506001600160a01b0382811660a052831660c052600c805463ffffffff60a01b191660e160a31b17905561036a60056103e861040c565b6010556103885f1960135561010060155566038d7ea4c68000601655565b61039184610442565b610399610603565b505050505050610dd6565b5f6080516001600160a01b031663117d8ae06040518163ffffffff1660e01b8152600401602060405180830381865afa1580156103e3573d5f5f3e3d5ffd5b505050506040513d601f19601f820116820180604052508101906104079190610c1b565b905090565b5f8161041a6012600a610d34565b6104249085610d3f565b61042f906064610d3f565b6104399190610d56565b90505b92915050565b600b80546001600160a01b0319166001600160a01b03831690811790915560408051630b2339af60e21b81529051632c8ce6bc916004808201926060929091908290030181865afa158015610499573d5f5f3e3d5ffd5b505050506040513d601f19601f820116820180604052508101906104bd9190610d75565b600f80546001600160a01b03199081166001600160a01b0393841617909155600e8054821693831693909317909255600d8054909216928116928317909155600354604051637d2d278360e11b81529116600482015263fa5a4f0690602401602060405180830381865afa158015610537573d5f5f3e3d5ffd5b505050506040513d601f19601f8201168201806040525081019061055b9190610ac4565b15806105d25750600d54600354604051633c21b3eb60e11b81526001600160a01b03918216600482015291169063784367d690602401602060405180830381865afa1580156105ac573d5f5f3e3d5ffd5b505050506040513d601f19601f820116820180604052508101906105d09190610ac4565b155b156105f057604051631bda904d60e31b815260040160405180910390fd5b6105f861067c565b610600610603565b50565b600b5f9054906101000a90046001600160a01b03166001600160a01b031663e184c9be6040518163ffffffff1660e01b8152600401602060405180830381865afa158015610653573d5f5f3e3d5ffd5b505050506040513d601f19601f820116820180604052508101906106779190610dbf565b601155565b60a051600354610699916001600160a01b03909116905f196106d5565b60a051600d546106b6916001600160a01b03909116905f196106d5565b60a051600e546106d3916001600160a01b03909116905f196106d5565b565b604080516001600160a01b038416602482015260448082018490528251808303909101815260649091019091526020810180516001600160e01b0390811663095ea7b360e01b1790915261072d908590839061079916565b61079357604080516001600160a01b03851660248201525f6044808301919091528251808303909101815260649091019091526020810180516001600160e01b0390811663095ea7b360e01b179091526107899186916107e216565b61079384826107e2565b50505050565b5f5f5f5f60205f8651602088015f8a5af192503d91505f5190508280156107d8575081156107ca57806001146107d8565b5f866001600160a01b03163b115b9695505050505050565b5f5f60205f8451602086015f885af180610801576040513d5f823e3d81fd5b50505f513d91508115610818578060011415610825565b6001600160a01b0384163b155b1561079357604051635274afe760e01b81526001600160a01b038516600482015260240161007a565b634e487b7160e01b5f52604160045260245ffd5b604051606081016001600160401b03811182821017156108845761088461084e565b60405290565b60405161014081016001600160401b03811182821017156108845761088461084e565b6001600160a01b0381168114610600575f5ffd5b80516108cc816108ad565b919050565b5f82601f8301126108e0575f5ffd5b81516001600160401b038111156108f9576108f961084e565b604051601f8201601f19908116603f011681016001600160401b03811182821017156109275761092761084e565b60405281815283820160200185101561093e575f5ffd5b8160208501602083015e5f918101602001919091529392505050565b805180151581146108cc575f5ffd5b5f5f828403608081121561097b575f5ffd5b6060811215610988575f5ffd5b50610991610862565b835161099c816108ad565b815260208401516109ac816108ad565b602082015260408401516109bf816108ad565b604082015260608401519092506001600160401b038111156109df575f5ffd5b830161014081860312156109f1575f5ffd5b6109f961088a565b81516001600160401b03811115610a0e575f5ffd5b610a1a878285016108d1565b82525060208201516001600160401b03811115610a35575f5ffd5b610a41878285016108d1565b602083015250610a53604083016108c1565b6040820152610a64606083016108c1565b6060820152610a75608083016108c1565b608082015260a0828101519082015260c0808301519082015260e08083015190820152610aa5610100830161095a565b6101008201526101209182015191810191909152919491935090915050565b5f60208284031215610ad4575f5ffd5b6104398261095a565b600181811c90821680610af157607f821691505b602082108103610b0f57634e487b7160e01b5f52602260045260245ffd5b50919050565b601f821115610b5c57805f5260205f20601f840160051c81016020851015610b3a5750805b601f840160051c820191505b81811015610b59575f8155600101610b46565b50505b505050565b81516001600160401b03811115610b7a57610b7a61084e565b610b8e81610b888454610add565b84610b15565b6020601f821160018114610bc0575f8315610ba95750848201515b5f19600385901b1c1916600184901b178455610b59565b5f84815260208120601f198516915b82811015610bef5787850151825560209485019460019092019101610bcf565b5084821015610c0c57868401515f19600387901b60f8161c191681555b50505050600190811b01905550565b5f60208284031215610c2b575f5ffd5b8151610c36816108ad565b9392505050565b634e487b7160e01b5f52601160045260245ffd5b6001815b6001841115610c8c57808504811115610c7057610c70610c3d565b6001841615610c7e57908102905b60019390931c928002610c55565b935093915050565b5f82610ca25750600161043c565b81610cae57505f61043c565b8160018114610cc45760028114610cce57610cea565b600191505061043c565b60ff841115610cdf57610cdf610c3d565b50506001821b61043c565b5060208310610133831016604e8410600b8410161715610d0d575081810a61043c565b610d195f198484610c51565b805f1904821115610d2c57610d2c610c3d565b029392505050565b5f6104398383610c94565b808202811582820484141761043c5761043c610c3d565b5f82610d7057634e487b7160e01b5f52601260045260245ffd5b500490565b5f5f5f60608486031215610d87575f5ffd5b8351610d92816108ad565b6020850151909350610da3816108ad565b6040850151909250610db4816108ad565b809150509250925092565b5f60208284031215610dcf575f5ffd5b5051919050565b60805160a05160c051613de9610e5b5f395f818161045f0152818161233101526127e601525f81816105f2015281816126e001528181612ada01528181612e1601528181612e6801528181612ea00152612ed801525f81816105360152818161087601528181610c1801528181610c750152818161154f0152611d7c0152613de95ff3fe608060405234801561000f575f5ffd5b5060043610610281575f3560e01c80637dc0d1d011610156578063c38a6f0b116100ca578063dbd5edc711610084578063dbd5edc7146105aa578063ebf31131146105b2578063ec213865146105ba578063f66a7749146105cd578063f7e533ec146105e5578063f887ea40146105ed575f5ffd5b8063c38a6f0b14610509578063c3f909d41461051c578063c9c667e314610531578063ce5c7f6114610558578063cefba4741461056b578063d94073d414610597575f5ffd5b806392f5e8321161011b57806392f5e832146104b8578063930ec277146104cb578063ad5a356f146104d3578063afd27bf5146104db578063bdcdd882146104ee578063c05bd92d146104f6575f5ffd5b80637dc0d1d01461045a57806380f556051461048157806386651203146104945780638a8b9976146104a75780638f1d3f00146104af575f5ffd5b806338d52e0f116101f857806369b3054b116101b257806369b3054b146103da5780636df44100146103ed578063780469bb14610400578063781c18db1461042157806379502c55146104345780637aaceb9514610452575f5ffd5b806338d52e0f1461038a5780634452d81c1461039b5780634fc7fac3146103a45780635b0f83f3146103b757806361d027b3146103bf57806361f5cd8b146103c7575f5ffd5b80631deae8c6116102495780631deae8c6146102fd578063256d8a23146103065780632db6d39914610348578063303dbaf31461035b5780633194549e146103715780633727093614610379575f5ffd5b806301e1d1141461028557806303baf066146102a057806306fdde03146102b5578063117d8ae0146102ca57806313c408f8146102ea575b5f5ffd5b61028d610614565b6040519081526020015b60405180910390f35b6102b36102ae366004612f77565b61064b565b005b6102bd6107e0565b6040516102979190612fbc565b6102d2610873565b6040516001600160a01b039091168152602001610297565b6102b36102f836600461300b565b6108f4565b61028d61038481565b601254601354601454601554601654610320949392919085565b604080519586526020860194909452928401919091526060830152608082015260a001610297565b6102b361035636600461300b565b6109b8565b60095460ff166040519015158152602001610297565b60055461028d565b6001546001600160a01b03166102d2565b6003546001600160a01b03166102d2565b61028d60105481565b6102b36103b2366004612f77565b610bce565b6102d2610c15565b6102d2610c72565b6102b36103d5366004612f77565b610ccf565b61028d6103e8366004613066565b610d16565b6102b36103fb3660046130a0565b610d49565b61041361040e366004613121565b610e61565b6040516102979291906131b5565b600f546102d2906001600160a01b031681565b61043c6113f5565b6040516102979a9998979695949392919061323e565b6102d261154c565b6102d27f000000000000000000000000000000000000000000000000000000000000000081565b600b546102d2906001600160a01b031681565b6102b36104a2366004612f77565b6115a9565b6102b36115f0565b61028d60115481565b6102b36104c6366004612f77565b61164d565b61028d611694565b60065461028d565b600d546102d2906001600160a01b031681565b600a5461028d565b6102b36105043660046132b5565b6116ae565b6102b36105173660046132d8565b611831565b610524611982565b6040516102979190613361565b6102d27f000000000000000000000000000000000000000000000000000000000000000081565b610413610566366004613432565b611b7b565b600c5461058290600160a01b900463ffffffff1681565b60405163ffffffff9091168152602001610297565b600e546102d2906001600160a01b031681565b60045461028d565b6102b3611c75565b600c546102d2906001600160a01b031681565b6105d5611cc7565b6040516102979493929190613494565b6102d2611d79565b6102d27f000000000000000000000000000000000000000000000000000000000000000081565b5f6011544210156106405761063b601054610635610630611dd6565b611e41565b90611e67565b905090565b61063b610630611dd6565b5f5460408051630ccc574960e41b815290516001600160a01b03909216916391d1485491839163ccc57490916004808201926020929091908290030181865afa15801561069a573d5f5f3e3d5ffd5b505050506040513d601f19601f820116820180604052508101906106be91906134d9565b6040516001600160e01b031960e084901b1681526004810191909152336024820152604401602060405180830381865afa1580156106fe573d5f5f3e3d5ffd5b505050506040513d601f19601f820116820180604052508101906107229190613504565b61074657604051630ea7d7ed60e21b81523360048201526024015b60405180910390fd5b610765816107566012600a613614565b61076190606461361f565b1090565b156107a457806107776012600a613614565b61078290606461361f565b6040516328e9045960e11b81526004810192909252602482015260440161073d565b60108190556040518181527ff5a802650e0a86db227cc342f06327d2ca0ff5cf2b12e0084fc5d8a7db2c54fd906020015b60405180910390a150565b6060600160060180546107f290613636565b80601f016020809104026020016040519081016040528092919081815260200182805461081e90613636565b80156108695780601f1061084057610100808354040283529160200191610869565b820191905f5260205f20905b81548152906001019060200180831161084c57829003601f168201915b5050505050905090565b5f7f00000000000000000000000000000000000000000000000000000000000000006001600160a01b031663117d8ae06040518163ffffffff1660e01b8152600401602060405180830381865afa1580156108d0573d5f5f3e3d5ffd5b505050506040513d601f19601f8201168201806040525081019061063b919061366e565b6108fc611e98565b61092757335b604051631564c0e160e11b81526001600160a01b03909116600482015260240161073d565b61092f611f21565b818161093b8282611f90565b33610947868686611ff2565b60035461095e906001600160a01b03168288612054565b600354604080516001600160a01b03928316815260208101899052918316917fd5e872c5ecfb1bb8820b2e6a20e31b883682282da886621541f71e31ec11947e910160405180910390a25050506109b36120b3565b505050565b6109c0611f21565b306001600160a01b031663372709366040518163ffffffff1660e01b8152600401602060405180830381865afa1580156109fc573d5f5f3e3d5ffd5b505050506040513d601f19601f82011682018060405250810190610a20919061366e565b610a28611e98565b610b47575f3390505f306001600160a01b031663117d8ae06040518163ffffffff1660e01b8152600401602060405180830381865afa158015610a6d573d5f5f3e3d5ffd5b505050506040513d601f19601f82011682018060405250810190610a91919061366e565b6001600160a01b0316826001600160a01b031614905080610b445760405163d25dd10160e01b81526001600160a01b0383811660048301525f919085169063d25dd10190602401602060405180830381865afa158015610af3573d5f5f3e3d5ffd5b505050506040513d601f19601f82011682018060405250810190610b179190613504565b905080610b4257604051638f7a567d60e01b81526001600160a01b038416600482015260240161073d565b505b50505b8282610b538282611f90565b6003543390610b6d906001600160a01b031682308a6120dd565b610b7887878761211c565b600354604080516001600160a01b039283168152602081018a9052918316917fcbaa1442ac205415c9d69643e7b60ec73d1de35dbc807c21ec288c70ddc4207b910160405180910390a2505050506109b36120b3565b610bd6611e98565b610be05733610902565b600a8190556040518181527fd3c6d0ab315f2f1352f036cd9f401b49e38e1b90907e195225e8105f9a0b6f02906020016107d5565b5f7f00000000000000000000000000000000000000000000000000000000000000006001600160a01b0316635b0f83f36040518163ffffffff1660e01b8152600401602060405180830381865afa1580156108d0573d5f5f3e3d5ffd5b5f7f00000000000000000000000000000000000000000000000000000000000000006001600160a01b03166361d027b36040518163ffffffff1660e01b8152600401602060405180830381865afa1580156108d0573d5f5f3e3d5ffd5b610cd7611e98565b610ce15733610902565b60058190556040518181527ffbe2d5c01ea8ba5596d6c4e6c82c6d4a0a0ee1128689993a4a5ba0169273d69f906020016107d5565b5f8282604051602001610d2a929190613689565b6040516020818303038152906040528051906020012090505b92915050565b5f5460408051630ccc574960e41b815290516001600160a01b03909216916391d1485491839163ccc57490916004808201926020929091908290030181865afa158015610d98573d5f5f3e3d5ffd5b505050506040513d601f19601f82011682018060405250810190610dbc91906134d9565b6040516001600160e01b031960e084901b1681526004810191909152336024820152604401602060405180830381865afa158015610dfc573d5f5f3e3d5ffd5b505050506040513d601f19601f82011682018060405250810190610e209190613504565b610e3f57604051630ea7d7ed60e21b815233600482015260240161073d565b600c80546001600160a01b0319166001600160a01b0392909216919091179055565b606080306001600160a01b031663117d8ae06040518163ffffffff1660e01b8152600401602060405180830381865afa158015610ea0573d5f5f3e3d5ffd5b505050506040513d601f19601f82011682018060405250810190610ec4919061366e565b6001600160a01b0316336001600160a01b031614610f0357335b604051631184b31b60e21b81526001600160a01b03909116600482015260240161073d565b610f0b611f21565b82516001600160401b03811115610f2457610f246130bb565b604051908082528060200260200182016040528015610f4d578160200160208202803683370190505b50915082516001600160401b03811115610f6957610f696130bb565b604051908082528060200260200182016040528015610f92578160200160208202803683370190505b506003546040516370a0823160e01b81523060048201529192505f916001600160a01b03909116906370a0823190602401602060405180830381865afa158015610fde573d5f5f3e3d5ffd5b505050506040513d601f19601f8201168201806040525081019061100291906134d9565b11156111c657600154604080516330fe427560e21b815290515f926001600160a01b03169163c3f909d49160048083019260a09291908290030181865afa15801561104f573d5f5f3e3d5ffd5b505050506040513d601f19601f8201168201806040525081019061107391906136c0565b516003546040516370a0823160e01b81523060048201529192506110f89183916001600160a01b0316906370a0823190602401602060405180830381865afa1580156110c1573d5f5f3e3d5ffd5b505050506040513d601f19601f820116820180604052508101906110e591906134d9565b6003546001600160a01b0316919061212d565b6003546040516370a0823160e01b81523060048201526001600160a01b0383811692632db6d399929116906370a0823190602401602060405180830381865afa158015611147573d5f5f3e3d5ffd5b505050506040513d601f19601f8201168201806040525081019061116b91906134d9565b60405180602001604052805f8152506040518363ffffffff1660e01b815260040161119792919061373c565b5f604051808303815f87803b1580156111ae575f5ffd5b505af11580156111c0573d5f5f3e3d5ffd5b50505050505b5f5b8351811015611394575f8482815181106111e4576111e4613754565b60209081029190910101516040516370a0823160e01b81523060048201526001600160a01b03909116906370a0823190602401602060405180830381865afa158015611232573d5f5f3e3d5ffd5b505050506040513d601f19601f8201168201806040525081019061125691906134d9565b9050801561138b5761131f611269610873565b86848151811061127b5761127b613754565b60209081029190910101516040516370a0823160e01b81523060048201526001600160a01b03909116906370a0823190602401602060405180830381865afa1580156112c9573d5f5f3e3d5ffd5b505050506040513d601f19601f820116820180604052508101906112ed91906134d9565b8785815181106112ff576112ff613754565b60200260200101516001600160a01b03166120549092919063ffffffff16565b84828151811061133157611331613754565b602002602001015184838151811061134b5761134b613754565b60200260200101906001600160a01b031690816001600160a01b0316815250508083838151811061137e5761137e613754565b6020026020010181815250505b506001016111c8565b50806040516113a39190613768565b6040518091039020826040516113b9919061379d565b604051908190038120907f46b8771620f6acf56cb03d3e835ea8024c7dcbcf05fcc3f6ade9e19d1a3e212b905f90a36113f06120b3565b915091565b60018054600254600354600454600554600654600780546001600160a01b0397881698968816979095169593949293919261142f90613636565b80601f016020809104026020016040519081016040528092919081815260200182805461145b90613636565b80156114a65780601f1061147d576101008083540402835291602001916114a6565b820191905f5260205f20905b81548152906001019060200180831161148957829003601f168201915b5050505050908060070180546114bb90613636565b80601f01602080910402602001604051908101604052809291908181526020018280546114e790613636565b80156115325780601f1061150957610100808354040283529160200191611532565b820191905f5260205f20905b81548152906001019060200180831161151557829003601f168201915b505050506008830154600990930154919260ff169190508a565b5f7f00000000000000000000000000000000000000000000000000000000000000006001600160a01b0316637aaceb956040518163ffffffff1660e01b8152600401602060405180830381865afa1580156108d0573d5f5f3e3d5ffd5b6115b1611e98565b6115bb5733610902565b60048190556040518181527f333b26cca69716ad4680ddb07663f5bfb4f06045671f336af9a83690a3ae00f9906020016107d5565b6115f8611e98565b6116025733610902565b600180546001600160a01b031916339081179091556040519081527f55489ce0259bd691120d8860861be1c401c7c16a3cd268d21045756af4ecc5ca906020015b60405180910390a1565b611655611e98565b61165f5733610902565b60068190556040518181527fb6ac66853c4e59c71e118d25ab494bb847c4e5eb0c8894898c5343e6f61afc12906020016107d5565b6116a06012600a613614565b6116ab90606461361f565b81565b5f5460408051630ccc574960e41b815290516001600160a01b03909216916391d1485491839163ccc57490916004808201926020929091908290030181865afa1580156116fd573d5f5f3e3d5ffd5b505050506040513d601f19601f8201168201806040525081019061172191906134d9565b6040516001600160e01b031960e084901b1681526004810191909152336024820152604401602060405180830381865afa158015611761573d5f5f3e3d5ffd5b505050506040513d601f19601f820116820180604052508101906117859190613504565b6117a457604051630ea7d7ed60e21b815233600482015260240161073d565b6103848163ffffffff1610156117dd57604051630d33f2b360e21b815263ffffffff82166004820152610384602482015260440161073d565b600c805463ffffffff60a01b1916600160a01b63ffffffff8416908102919091179091556040519081527f4b3aa5c9fb94258bcc25dd74639341b3baf9771cfb27c62dbc11af634747aa4d906020016107d5565b611839611e98565b6118435733610902565b818161184f8282611f90565b61185a888585611ff2565b60035460405163095ea7b360e01b81526001600160a01b038981166004830152602482018b90529091169063095ea7b3906044016020604051808303815f875af11580156118aa573d5f5f3e3d5ffd5b505050506040513d601f19601f820116820180604052508101906118ce9190613504565b50604051632db6d39960e01b81526001600160a01b03881690632db6d399906118ff908b908a908a906004016137d0565b5f604051808303815f87803b158015611916575f5ffd5b505af1158015611928573d5f5f3e3d5ffd5b5050600354604080516001600160a01b039283168152602081018d9052918b1693503092507f9f784fc02a186f1c98b2d9f15fda084da27cdd291a3785d978f91911d880516b910160405180910390a35050505050505050565b6119ed6040518061014001604052805f6001600160a01b031681526020015f6001600160a01b031681526020015f6001600160a01b031681526020015f81526020015f81526020015f815260200160608152602001606081526020015f151581526020015f81525090565b6040805161014081018252600180546001600160a01b0390811683526002548116602084015260035416928201929092526004546060820152600554608082015260065460a08201526007805491929160c084019190611a4c90613636565b80601f0160208091040260200160405190810160405280929190818152602001828054611a7890613636565b8015611ac35780601f10611a9a57610100808354040283529160200191611ac3565b820191905f5260205f20905b815481529060010190602001808311611aa657829003601f168201915b50505050508152602001600782018054611adc90613636565b80601f0160208091040260200160405190810160405280929190818152602001828054611b0890613636565b8015611b535780601f10611b2a57610100808354040283529160200191611b53565b820191905f5260205f20905b815481529060010190602001808311611b3657829003601f168201915b5050509183525050600882015460ff1615156020820152600990910154604090910152919050565b606080306001600160a01b031663117d8ae06040518163ffffffff1660e01b8152600401602060405180830381865afa158015611bba573d5f5f3e3d5ffd5b505050506040513d601f19601f82011682018060405250810190611bde919061366e565b6001600160a01b0316336001600160a01b031614611bfc5733610ede565b611c04611f21565b611c0e84846121bc565b6040519193509150611c21908290613768565b604051809103902082604051611c37919061379d565b604051908190038120907f3e3e7958121b3e39c7a49392d1aa9cdce870c2a059744f9e15cf66fff7865455905f90a3611c6e6120b3565b9250929050565b611c7d611e98565b611c875733610902565b600180546001600160a01b03191690556040513381527f7cb941d7b1708e5b3bcd35ca960d6c6311188cec18886e5b67630552676b048790602001611643565b601c8054601d805460ff8316936101009093046001600160a01b0316929190611cef90613636565b80601f0160208091040260200160405190810160405280929190818152602001828054611d1b90613636565b8015611d665780601f10611d3d57610100808354040283529160200191611d66565b820191905f5260205f20905b815481529060010190602001808311611d4957829003601f168201915b5050506002909301549192505060ff1684565b5f7f00000000000000000000000000000000000000000000000000000000000000006001600160a01b031663f7e533ec6040518163ffffffff1660e01b8152600401602060405180830381865afa1580156108d0573d5f5f3e3d5ffd5b600e546040516370a0823160e01b81523060048201525f916001600160a01b0316906370a08231906024015b602060405180830381865afa158015611e1d573d5f5f3e3d5ffd5b505050506040513d601f19601f8201168201806040525081019061063b91906134d9565b5f670de0b6b3a7640000611e536122f7565b611e5d908461361f565b610d439190613805565b5f611e9183611e8c611e7b6012600a613614565b611e8690606461361f565b85612360565b61236b565b9392505050565b5f80546001600160a01b03166391d14854611eb4600230610d16565b336040516001600160e01b031960e085901b16815260048101929092526001600160a01b03166024820152604401602060405180830381865afa158015611efd573d5f5f3e3d5ffd5b505050506040513d601f19601f8201168201806040525081019061063b9190613504565b7f9b779b17422d0df92223018b32b4d1fa46e071723d6817e2486d003becc55f005c15611f6157604051633ee5aeb560e01b815260040160405180910390fd5b611f8e60017f9b779b17422d0df92223018b32b4d1fa46e071723d6817e2486d003becc55f005b90612397565b565b8015801590611fa2575060095460ff16155b15611fc057604051630cd0fdf960e01b815260040160405180910390fd5b80158015611fd0575060095460ff165b15611fee5760405163332863a960e11b815260040160405180910390fd5b5050565b611ffa61239e565b601154421061200d576109b383846124a5565b5f612016611dd6565b90505f61202e601054612028876124af565b906124ca565b90505f82821161203e5781612040565b825b905061204c81876124ef565b505050505050565b6040516001600160a01b038381166024830152604482018390526109b391859182169063a9059cbb906064015b604051602081830303815290604052915060e01b6020820180516001600160e01b0383818316178352505050506124f9565b611f8e5f7f9b779b17422d0df92223018b32b4d1fa46e071723d6817e2486d003becc55f00611f88565b6040516001600160a01b0384811660248301528381166044830152606482018390526121169186918216906323b872dd90608401612081565b50505050565b61212461239e565b6109b383612565565b604080516001600160a01b038416602482015260448082018490528251808303909101815260649091019091526020810180516001600160e01b031663095ea7b360e01b17905261217e8482612763565b612116576040516001600160a01b0384811660248301525f60448301526121b291869182169063095ea7b390606401612081565b61211684826124f9565b606080600b5f9054906101000a90046001600160a01b03166001600160a01b031663c4f59f9b6040518163ffffffff1660e01b81526004015f60405180830381865afa15801561220e573d5f5f3e3d5ffd5b505050506040513d5f823e601f3d908101601f191682016040526122359190810190613824565b600b54604051639262187b60e01b81523060048201529193506001600160a01b031690639262187b906024015f604051808303815f875af115801561227c573d5f5f3e3d5ffd5b505050506040513d5f823e601f3d908101601f191682016040526122a391908101906138b3565b90505f5b82518110156122ef576122e76122bb610873565b8383815181106122cd576122cd613754565b60200260200101518584815181106112ff576112ff613754565b6001016122a7565b509250929050565b600b54600c5460405163abca0eab60e01b81526001600160a01b039283166004820152600160a01b90910463ffffffff1660248201525f917f0000000000000000000000000000000000000000000000000000000000000000169063abca0eab90604401611e02565b5f611e918284613939565b5f6123786012600a613614565b61238390606461361f565b61238d838561361f565b611e919190613805565b80825d5050565b6011544210156123aa57565b5f306001600160a01b031663ec2138656040518163ffffffff1660e01b8152600401602060405180830381865afa1580156123e7573d5f5f3e3d5ffd5b505050506040513d601f19601f8201168201806040525081019061240b919061366e565b90506001600160a01b03811615806124305750600b546001600160a01b038281169116145b1561244e576040516301fb70bf60e21b815260040160405180910390fd5b612457816127ac565b61245e5750565b612466612867565b61246f816128e0565b6040516001600160a01b038216907f3b7aba7495f95b008f26fc1548021f2fb059ad26ef38f422178347e2b5859898905f90a250565b611fee8282612a9e565b5f6124b86122f7565b611e5d670de0b6b3a76400008461361f565b5f611e9183611e8c6124de6012600a613614565b6124e990606461361f565b85612cc5565b611fee8282612cd0565b5f5f60205f8451602086015f885af180612518576040513d5f823e3d81fd5b50505f513d9150811561252f57806001141561253c565b6001600160a01b0384163b155b1561211657604051635274afe760e01b81526001600160a01b038516600482015260240161073d565b60115442106125875760405163b2094b5960e01b815260040160405180910390fd5b5f612597601054610635846124af565b6040805160a081018252600380546001600160a01b031680835260208301879052828401525f6060830181905283516080818101909552601c8054969750919593948501939092839160ff16908111156125f3576125f3613470565b600381111561260457612604613470565b8152815461010090046001600160a01b0316602082015260018201805460409092019161263090613636565b80601f016020809104026020016040519081016040528092919081815260200182805461265c90613636565b80156126a75780601f1061267e576101008083540402835291602001916126a7565b820191905f5260205f20905b81548152906001019060200180831161268a57829003601f168201915b50505091835250506002919091015460ff1615156020909101529052600b5460405163640fc23d60e11b81529192506001600160a01b037f000000000000000000000000000000000000000000000000000000000000000081169263c81f847a9261272392309291169087906012908890601790600401613c10565b6060604051808303815f875af115801561273f573d5f5f3e3d5ffd5b505050506040513d601f19601f8201168201806040525081019061204c9190613c93565b5f5f5f5f60205f8651602088015f8a5af192503d91505f5190508280156127a25750811561279457806001146127a2565b5f866001600160a01b03163b115b9695505050505050565b600c5460405162439f4b60e91b81526001600160a01b038381166004830152600160a01b90920463ffffffff1660248201525f91829182917f0000000000000000000000000000000000000000000000000000000000000000169063873e960090604401606060405180830381865afa15801561282b573d5f5f3e3d5ffd5b505050506040513d601f19601f8201168201806040525081019061284f9190613cbe565b92505091508115801561285f5750805b949350505050565b600e546040516370a0823160e01b81523060048201525f916001600160a01b0316906370a0823190602401602060405180830381865afa1580156128ad573d5f5f3e3d5ffd5b505050506040513d601f19601f820116820180604052508101906128d191906134d9565b90506128dd8182612a9e565b50565b600b80546001600160a01b0319166001600160a01b03831690811790915560408051630b2339af60e21b81529051632c8ce6bc916004808201926060929091908290030181865afa158015612937573d5f5f3e3d5ffd5b505050506040513d601f19601f8201168201806040525081019061295b9190613d06565b600f80546001600160a01b03199081166001600160a01b0393841617909155600e8054821693831693909317909255600d8054909216928116928317909155600354604051637d2d278360e11b81529116600482015263fa5a4f0690602401602060405180830381865afa1580156129d5573d5f5f3e3d5ffd5b505050506040513d601f19601f820116820180604052508101906129f99190613504565b1580612a705750600d54600354604051633c21b3eb60e11b81526001600160a01b03918216600482015291169063784367d690602401602060405180830381865afa158015612a4a573d5f5f3e3d5ffd5b505050506040513d601f19601f82011682018060405250810190612a6e9190613504565b155b15612a8e57604051631bda904d60e31b815260040160405180910390fd5b612a96612e56565b6128dd612efe565b8115612b4857600f5460405163339748cb60e01b81523060048201526001600160a01b03918216602482015260448101849052606481018390527f00000000000000000000000000000000000000000000000000000000000000009091169063339748cb906084016020604051808303815f875af1158015612b22573d5f5f3e3d5ffd5b505050506040513d601f19601f82011682018060405250810190612b4691906134d9565b505b600d546040516370a0823160e01b81523060048201525f916001600160a01b0316906370a0823190602401602060405180830381865afa158015612b8e573d5f5f3e3d5ffd5b505050506040513d601f19601f82011682018060405250810190612bb291906134d9565b905080156109b357600d5460035460405163cbe52ae360e01b81526001600160a01b039182166004820152602481018490525f92919091169063cbe52ae390604401602060405180830381865afa158015612c0f573d5f5f3e3d5ffd5b505050506040513d601f19601f82011682018060405250810190612c3391906134d9565b600d5460035460405163769f8e5d60e01b8152306004820152602481018690526001600160a01b039182166044820152606481018490525f6084820152929350169063769f8e5d9060a4016020604051808303815f875af1158015612c9a573d5f5f3e3d5ffd5b505050506040513d601f19601f82011682018060405250810190612cbe91906134d9565b5050505050565b5f611e918284613d50565b6040805160a081018252600380546001600160a01b031680835260208301859052828401525f6060830181905283516080818101909552601c8054929585019391929091839160ff1690811115612d2957612d29613470565b6003811115612d3a57612d3a613470565b8152815461010090046001600160a01b03166020820152600182018054604090920191612d6690613636565b80601f0160208091040260200160405190810160405280929190818152602001828054612d9290613636565b8015612ddd5780601f10612db457610100808354040283529160200191612ddd565b820191905f5260205f20905b815481529060010190602001808311612dc057829003601f168201915b50505091835250506002919091015460ff1615156020909101529052600b54604051631652a23360e21b81529192506001600160a01b037f000000000000000000000000000000000000000000000000000000000000000081169263594a88cc9261272392309291169088908790601790600401613d63565b600354612e8e906001600160a01b03167f00000000000000000000000000000000000000000000000000000000000000005f1961212d565b600d54612ec6906001600160a01b03167f00000000000000000000000000000000000000000000000000000000000000005f1961212d565b600e54611f8e906001600160a01b03167f00000000000000000000000000000000000000000000000000000000000000005f1961212d565b600b5f9054906101000a90046001600160a01b03166001600160a01b031663e184c9be6040518163ffffffff1660e01b8152600401602060405180830381865afa158015612f4e573d5f5f3e3d5ffd5b505050506040513d601f19601f82011682018060405250810190612f7291906134d9565b601155565b5f60208284031215612f87575f5ffd5b5035919050565b5f81518084528060208401602086015e5f602082860101526020601f19601f83011685010191505092915050565b602081525f611e916020830184612f8e565b5f5f83601f840112612fde575f5ffd5b5081356001600160401b03811115612ff4575f5ffd5b602083019150836020828501011115611c6e575f5ffd5b5f5f5f6040848603121561301d575f5ffd5b8335925060208401356001600160401b03811115613039575f5ffd5b61304586828701612fce565b9497909650939450505050565b6001600160a01b03811681146128dd575f5ffd5b5f5f60408385031215613077575f5ffd5b823560038110613085575f5ffd5b9150602083013561309581613052565b809150509250929050565b5f602082840312156130b0575f5ffd5b8135611e9181613052565b634e487b7160e01b5f52604160045260245ffd5b604051601f8201601f191681016001600160401b03811182821017156130f7576130f76130bb565b604052919050565b5f6001600160401b03821115613117576131176130bb565b5060051b60200190565b5f60208284031215613131575f5ffd5b81356001600160401b03811115613146575f5ffd5b8201601f81018413613156575f5ffd5b8035613169613164826130ff565b6130cf565b8082825260208201915060208360051b85010192508683111561318a575f5ffd5b6020840193505b828410156127a25783356131a481613052565b825260209384019390910190613191565b604080825283519082018190525f9060208501906060840190835b818110156131f75783516001600160a01b03168352602093840193909201916001016131d0565b5050838103602080860191909152855180835291810192508501905f5b81811015613232578251845260209384019390920191600101613214565b50919695505050505050565b6001600160a01b038b811682528a8116602083015289166040820152606081018890526080810187905260a0810186905261014060c082018190525f9061328790830187612f8e565b82810360e08401526132998187612f8e565b9415156101008401525050610120015298975050505050505050565b5f602082840312156132c5575f5ffd5b813563ffffffff81168114611e91575f5ffd5b5f5f5f5f5f5f608087890312156132ed575f5ffd5b8635955060208701356132ff81613052565b945060408701356001600160401b03811115613319575f5ffd5b61332589828a01612fce565b90955093505060608701356001600160401b03811115613343575f5ffd5b61334f89828a01612fce565b979a9699509497509295939492505050565b6020815261337b6020820183516001600160a01b03169052565b5f602083015161339660408401826001600160a01b03169052565b5060408301516001600160a01b03811660608401525060608301516080830152608083015160a083015260a083015160c083015260c083015161014060e08401526133e5610160840182612f8e565b905060e0840151601f19848303016101008501526134038282612f8e565b91505061010084015161341b61012085018215159052565b506101208401516101408401528091505092915050565b5f5f60208385031215613443575f5ffd5b82356001600160401b03811115613458575f5ffd5b61346485828601612fce565b90969095509350505050565b634e487b7160e01b5f52602160045260245ffd5b600481106128dd576128dd613470565b61349d85613484565b8481526001600160a01b03841660208201526080604082018190525f906134c690830185612f8e565b9050821515606083015295945050505050565b5f602082840312156134e9575f5ffd5b5051919050565b805180151581146134ff575f5ffd5b919050565b5f60208284031215613514575f5ffd5b611e91826134f0565b634e487b7160e01b5f52601160045260245ffd5b6001815b600184111561356c578085048111156135505761355061351d565b600184161561355e57908102905b60019390931c928002613535565b935093915050565b5f8261358257506001610d43565b8161358e57505f610d43565b81600181146135a457600281146135ae576135ca565b6001915050610d43565b60ff8411156135bf576135bf61351d565b50506001821b610d43565b5060208310610133831016604e8410600b84101617156135ed575081810a610d43565b6135f95f198484613531565b805f190482111561360c5761360c61351d565b029392505050565b5f611e918383613574565b8082028115828204841417610d4357610d4361351d565b600181811c9082168061364a57607f821691505b60208210810361366857634e487b7160e01b5f52602260045260245ffd5b50919050565b5f6020828403121561367e575f5ffd5b8151611e9181613052565b5f6003841061369a5761369a613470565b5060f89290921b825260601b6bffffffffffffffffffffffff1916600182015260150190565b5f60a08284031280156136d1575f5ffd5b5060405160a081016001600160401b03811182821017156136f4576136f46130bb565b604052825161370281613052565b8152602083810151908201526040808401519082015260608084015190820152608083015161373081613052565b60808201529392505050565b828152604060208201525f61285f6040830184612f8e565b634e487b7160e01b5f52603260045260245ffd5b81515f90829060208501835b82811015613792578151845260209384019390910190600101613774565b509195945050505050565b81515f90829060208501835b828110156137925781516001600160a01b03168452602093840193909101906001016137a9565b83815260406020820152816040820152818360608301375f818301606090810191909152601f909201601f1916010192915050565b5f8261381f57634e487b7160e01b5f52601260045260245ffd5b500490565b5f60208284031215613834575f5ffd5b81516001600160401b03811115613849575f5ffd5b8201601f81018413613859575f5ffd5b8051613867613164826130ff565b8082825260208201915060208360051b850101925086831115613888575f5ffd5b6020840193505b828410156127a25783516138a281613052565b82526020938401939091019061388f565b5f602082840312156138c3575f5ffd5b81516001600160401b038111156138d8575f5ffd5b8201601f810184136138e8575f5ffd5b80516138f6613164826130ff565b8082825260208201915060208360051b850101925086831115613917575f5ffd5b6020840193505b828410156127a257835182526020938401939091019061391e565b81810381811115610d4357610d4361351d565b60018060a01b0381511682526020810151602083015260018060a01b03604082015116604083015260018060a01b0360608201511660608301525f608082015160a06080850152805161399e81613484565b60a085015260208101516001600160a01b031660c08501526040810151608060e08601526139d0610120860182612f8e565b905060608201511515610100860152809250505092915050565b6139f381613484565b9052565b80545f90600181811c90821680613a0f57607f821691505b602082108103613a2d57634e487b7160e01b5f52602260045260245ffd5b81865260208601818015613a485760018114613a5e57613a8a565b60ff198516825283151560051b82019550613a8a565b5f878152602090205f5b85811015613a8457815484820152600190910190602001613a68565b83019650505b505050505092915050565b5f82825480855260208501945060208160051b830101845f5260205f205f5b83811015613ba757601f19858403018852606083528154606084015260018201546080840152600282015460a08401526003820154613af960c0850160ff83166139ea565b6001600160a01b03600891821c811660e0860152600484015481166101008601526005840154811661012086015260068401541661014085015260078301546101608501528201546101808085019190915260098301546101a08501526101c0840152613b6d6101e08401600a84016139f7565b8381036020850152613b8281600b85016139f7565b600c840154604095909501949094525060209790970196600d90910190600101613ab4565b50909695505050505050565b80546001600160a01b031682526001810154602083015260a0604083018190525f90613be490840160028401613a95565b8381036060850152613bf98160038501613a95565b9050838103608085015261285f81600485016139f7565b6001600160a01b03878116825286166020820152604081018590528354606082015260018401546080820152600284015460a0820152600384015460c0820152600484015460e082015261014061010082018190525f90613c739083018561394c565b828103610120840152613c868185613bb3565b9998505050505050505050565b5f5f5f60608486031215613ca5575f5ffd5b5050815160208301516040909301519094929350919050565b5f5f5f60608486031215613cd0575f5ffd5b613cd9846134f0565b9250602084015161ffff81168114613cef575f5ffd5b9150613cfd604085016134f0565b90509250925092565b5f5f5f60608486031215613d18575f5ffd5b8351613d2381613052565b6020850151909350613d3481613052565b6040850151909250613d4581613052565b809150509250925092565b80820180821115610d4357610d4361351d565b6001600160a01b038681168252851660208201526040810184905260a0606082018190525f90613d959083018561394c565b8281036080840152613da78185613bb3565b9897505050505050505056fea2646970667358221220b79a854242d6447f5c702921b7805b324208ad1ac6a747a99d6a50c3b12445be64736f6c634300081c0033","linkReferences":{}},"methodIdentifiers":{"MAX_SLIPPAGE_PERCENTAGE()":"930ec277","MIN_ORACLE_DURATION()":"1deae8c6","PT()":"d94073d4","SY()":"afd27bf5","YT()":"781c18db","asset()":"38d52e0f","board(uint256,bytes)":"2db6d399","commander()":"37270936","config()":"79502c55","configurationManager()":"c9c667e3","depositCap()":"dbd5edc7","disembark(uint256,bytes)":"13c408f8","emptySwap()":"f66a7749","fleetCommanderRewardsManagerFactory()":"f7e533ec","generateRole(uint8,address)":"69b3054b","getConfig()":"c3f909d4","harborCommand()":"5b0f83f3","harvest(bytes)":"ce5c7f61","market()":"80f55605","marketExpiry()":"8f1d3f00","maxDepositPercentageOfTVL()":"bdcdd882","maxRebalanceInflow()":"ad5a356f","maxRebalanceOutflow()":"3194549e","move(uint256,address,bytes,bytes)":"c38a6f0b","name()":"06fdde03","nextMarket()":"ec213865","oracle()":"7dc0d1d0","oracleDuration()":"cefba474","raft()":"117d8ae0","registerFleetCommander()":"8a8b9976","requiresKeeperData()":"303dbaf3","router()":"f887ea40","routerParams()":"256d8a23","setDepositCap(uint256)":"86651203","setMaxDepositPercentageOfTVL(uint256)":"4fc7fac3","setMaxRebalanceInflow(uint256)":"92f5e832","setMaxRebalanceOutflow(uint256)":"61f5cd8b","setNextMarket(address)":"6df44100","setOracleDuration(uint32)":"c05bd92d","setSlippagePercentage(uint256)":"03baf066","slippagePercentage()":"4452d81c","sweep(address[])":"780469bb","tipJar()":"7aaceb95","totalAssets()":"01e1d114","treasury()":"61d027b3","unregisterFleetCommander()":"ebf31131"},"id":211}