{"abi":[{"type":"constructor","inputs":[{"name":"_market","type":"address","internalType":"address"},{"name":"_oracle","type":"address","internalType":"address"},{"name":"_router","type":"address","internalType":"address"},{"name":"_params","type":"tuple","internalType":"struct ArkParams","components":[{"name":"name","type":"string","internalType":"string"},{"name":"accessManager","type":"address","internalType":"address"},{"name":"configurationManager","type":"address","internalType":"address"},{"name":"token","type":"address","internalType":"address"},{"name":"depositCap","type":"uint256","internalType":"uint256"},{"name":"maxRebalanceOutflow","type":"uint256","internalType":"uint256"},{"name":"maxRebalanceInflow","type":"uint256","internalType":"uint256"}]}],"stateMutability":"nonpayable"},{"type":"function","name":"DEFAULT_ADMIN_ROLE","inputs":[],"outputs":[{"name":"","type":"bytes32","internalType":"bytes32"}],"stateMutability":"view"},{"type":"function","name":"MAX_SLIPPAGE_PERCENTAGE","inputs":[],"outputs":[{"name":"","type":"uint256","internalType":"Percentage"}],"stateMutability":"view"},{"type":"function","name":"MAX_UINT256","inputs":[],"outputs":[{"name":"","type":"uint256","internalType":"uint256"}],"stateMutability":"view"},{"type":"function","name":"MIN_ORACLE_DURATION","inputs":[],"outputs":[{"name":"","type":"uint256","internalType":"uint256"}],"stateMutability":"view"},{"type":"function","name":"PT","inputs":[],"outputs":[{"name":"","type":"address","internalType":"contract IPPrincipalToken"}],"stateMutability":"view"},{"type":"function","name":"RAY","inputs":[],"outputs":[{"name":"","type":"uint256","internalType":"uint256"}],"stateMutability":"view"},{"type":"function","name":"SECONDS_PER_DAY","inputs":[],"outputs":[{"name":"","type":"uint256","internalType":"uint256"}],"stateMutability":"view"},{"type":"function","name":"SECONDS_PER_YEAR","inputs":[],"outputs":[{"name":"","type":"uint256","internalType":"uint256"}],"stateMutability":"view"},{"type":"function","name":"SY","inputs":[],"outputs":[{"name":"","type":"address","internalType":"contract IStandardizedYield"}],"stateMutability":"view"},{"type":"function","name":"WAD","inputs":[],"outputs":[{"name":"","type":"uint256","internalType":"uint256"}],"stateMutability":"view"},{"type":"function","name":"WAD_TO_RAY","inputs":[],"outputs":[{"name":"","type":"uint256","internalType":"uint256"}],"stateMutability":"view"},{"type":"function","name":"YT","inputs":[],"outputs":[{"name":"","type":"address","internalType":"contract IPYieldToken"}],"stateMutability":"view"},{"type":"function","name":"board","inputs":[{"name":"amount","type":"uint256","internalType":"uint256"}],"outputs":[],"stateMutability":"nonpayable"},{"type":"function","name":"commander","inputs":[],"outputs":[{"name":"","type":"address","internalType":"address"}],"stateMutability":"view"},{"type":"function","name":"config","inputs":[],"outputs":[{"name":"commander","type":"address","internalType":"address"},{"name":"raft","type":"address","internalType":"address"},{"name":"token","type":"address","internalType":"contract IERC20"},{"name":"depositCap","type":"uint256","internalType":"uint256"},{"name":"maxRebalanceOutflow","type":"uint256","internalType":"uint256"},{"name":"maxRebalanceInflow","type":"uint256","internalType":"uint256"},{"name":"name","type":"string","internalType":"string"}],"stateMutability":"view"},{"type":"function","name":"depositCap","inputs":[],"outputs":[{"name":"","type":"uint256","internalType":"uint256"}],"stateMutability":"view"},{"type":"function","name":"disembark","inputs":[{"name":"amount","type":"uint256","internalType":"uint256"}],"outputs":[],"stateMutability":"nonpayable"},{"type":"function","name":"emptySwap","inputs":[],"outputs":[{"name":"swapType","type":"uint8","internalType":"enum SwapType"},{"name":"extRouter","type":"address","internalType":"address"},{"name":"extCalldata","type":"bytes","internalType":"bytes"},{"name":"needScale","type":"bool","internalType":"bool"}],"stateMutability":"view"},{"type":"function","name":"getRoleAdmin","inputs":[{"name":"role","type":"bytes32","internalType":"bytes32"}],"outputs":[{"name":"","type":"bytes32","internalType":"bytes32"}],"stateMutability":"view"},{"type":"function","name":"grantCommanderRole","inputs":[{"name":"account","type":"address","internalType":"address"}],"outputs":[],"stateMutability":"nonpayable"},{"type":"function","name":"grantRole","inputs":[{"name":"","type":"bytes32","internalType":"bytes32"},{"name":"","type":"address","internalType":"address"}],"outputs":[],"stateMutability":"view"},{"type":"function","name":"harvest","inputs":[{"name":"rewardToken","type":"address","internalType":"address"},{"name":"additionalData","type":"bytes","internalType":"bytes"}],"outputs":[{"name":"","type":"uint256","internalType":"uint256"}],"stateMutability":"nonpayable"},{"type":"function","name":"hasRole","inputs":[{"name":"role","type":"bytes32","internalType":"bytes32"},{"name":"account","type":"address","internalType":"address"}],"outputs":[{"name":"","type":"bool","internalType":"bool"}],"stateMutability":"view"},{"type":"function","name":"manager","inputs":[],"outputs":[{"name":"","type":"address","internalType":"contract IConfigurationManager"}],"stateMutability":"view"},{"type":"function","name":"market","inputs":[],"outputs":[{"name":"","type":"address","internalType":"address"}],"stateMutability":"view"},{"type":"function","name":"marketExpiry","inputs":[],"outputs":[{"name":"","type":"uint256","internalType":"uint256"}],"stateMutability":"view"},{"type":"function","name":"maxRebalanceInflow","inputs":[],"outputs":[{"name":"","type":"uint256","internalType":"uint256"}],"stateMutability":"view"},{"type":"function","name":"maxRebalanceOutflow","inputs":[],"outputs":[{"name":"","type":"uint256","internalType":"uint256"}],"stateMutability":"view"},{"type":"function","name":"move","inputs":[{"name":"amount","type":"uint256","internalType":"uint256"},{"name":"receiverArk","type":"address","internalType":"address"}],"outputs":[],"stateMutability":"nonpayable"},{"type":"function","name":"name","inputs":[],"outputs":[{"name":"","type":"string","internalType":"string"}],"stateMutability":"view"},{"type":"function","name":"nextMarket","inputs":[],"outputs":[{"name":"","type":"address","internalType":"address"}],"stateMutability":"pure"},{"type":"function","name":"oracle","inputs":[],"outputs":[{"name":"","type":"address","internalType":"address"}],"stateMutability":"view"},{"type":"function","name":"oracleDuration","inputs":[],"outputs":[{"name":"","type":"uint32","internalType":"uint32"}],"stateMutability":"view"},{"type":"function","name":"poke","inputs":[],"outputs":[],"stateMutability":"nonpayable"},{"type":"function","name":"raft","inputs":[],"outputs":[{"name":"","type":"address","internalType":"address"}],"stateMutability":"view"},{"type":"function","name":"rate","inputs":[],"outputs":[{"name":"","type":"uint256","internalType":"uint256"}],"stateMutability":"view"},{"type":"function","name":"renounceRole","inputs":[{"name":"role","type":"bytes32","internalType":"bytes32"},{"name":"callerConfirmation","type":"address","internalType":"address"}],"outputs":[],"stateMutability":"nonpayable"},{"type":"function","name":"revokeCommanderRole","inputs":[{"name":"account","type":"address","internalType":"address"}],"outputs":[],"stateMutability":"nonpayable"},{"type":"function","name":"revokeRole","inputs":[{"name":"","type":"bytes32","internalType":"bytes32"},{"name":"","type":"address","internalType":"address"}],"outputs":[],"stateMutability":"view"},{"type":"function","name":"router","inputs":[],"outputs":[{"name":"","type":"address","internalType":"address"}],"stateMutability":"view"},{"type":"function","name":"routerParams","inputs":[],"outputs":[{"name":"guessMin","type":"uint256","internalType":"uint256"},{"name":"guessMax","type":"uint256","internalType":"uint256"},{"name":"guessOffchain","type":"uint256","internalType":"uint256"},{"name":"maxIteration","type":"uint256","internalType":"uint256"},{"name":"eps","type":"uint256","internalType":"uint256"}],"stateMutability":"view"},{"type":"function","name":"setDepositCap","inputs":[{"name":"newDepositCap","type":"uint256","internalType":"uint256"}],"outputs":[],"stateMutability":"nonpayable"},{"type":"function","name":"setMaxRebalanceInflow","inputs":[{"name":"newMaxRebalanceInflow","type":"uint256","internalType":"uint256"}],"outputs":[],"stateMutability":"nonpayable"},{"type":"function","name":"setMaxRebalanceOutflow","inputs":[{"name":"newMaxRebalanceOutflow","type":"uint256","internalType":"uint256"}],"outputs":[],"stateMutability":"nonpayable"},{"type":"function","name":"setOracleDuration","inputs":[{"name":"_oracleDuration","type":"uint32","internalType":"uint32"}],"outputs":[],"stateMutability":"nonpayable"},{"type":"function","name":"setSlippagePercentage","inputs":[{"name":"_slippagePercentage","type":"uint256","internalType":"Percentage"}],"outputs":[],"stateMutability":"nonpayable"},{"type":"function","name":"slippagePercentage","inputs":[],"outputs":[{"name":"","type":"uint256","internalType":"Percentage"}],"stateMutability":"view"},{"type":"function","name":"supportsInterface","inputs":[{"name":"interfaceId","type":"bytes4","internalType":"bytes4"}],"outputs":[{"name":"","type":"bool","internalType":"bool"}],"stateMutability":"view"},{"type":"function","name":"token","inputs":[],"outputs":[{"name":"","type":"address","internalType":"contract IERC20"}],"stateMutability":"view"},{"type":"function","name":"totalAssets","inputs":[],"outputs":[{"name":"","type":"uint256","internalType":"uint256"}],"stateMutability":"view"},{"type":"event","name":"ArkPoked","inputs":[{"name":"currentPrice","type":"uint256","indexed":false,"internalType":"uint256"},{"name":"timestamp","type":"uint256","indexed":false,"internalType":"uint256"}],"anonymous":false},{"type":"event","name":"ArkPokedNoChange","inputs":[],"anonymous":false},{"type":"event","name":"ArkPokedTooSoon","inputs":[],"anonymous":false},{"type":"event","name":"Boarded","inputs":[{"name":"commander","type":"address","indexed":true,"internalType":"address"},{"name":"token","type":"address","indexed":false,"internalType":"address"},{"name":"amount","type":"uint256","indexed":false,"internalType":"uint256"}],"anonymous":false},{"type":"event","name":"DepositCapUpdated","inputs":[{"name":"newCap","type":"uint256","indexed":false,"internalType":"uint256"}],"anonymous":false},{"type":"event","name":"Disembarked","inputs":[{"name":"commander","type":"address","indexed":true,"internalType":"address"},{"name":"token","type":"address","indexed":false,"internalType":"address"},{"name":"amount","type":"uint256","indexed":false,"internalType":"uint256"}],"anonymous":false},{"type":"event","name":"Harvested","inputs":[{"name":"amount","type":"uint256","indexed":false,"internalType":"uint256"}],"anonymous":false},{"type":"event","name":"MarketRolledOver","inputs":[{"name":"newMarket","type":"address","indexed":true,"internalType":"address"}],"anonymous":false},{"type":"event","name":"MaxRebalanceInflowUpdated","inputs":[{"name":"newMaxInflow","type":"uint256","indexed":false,"internalType":"uint256"}],"anonymous":false},{"type":"event","name":"MaxRebalanceOutflowUpdated","inputs":[{"name":"newMaxOutflow","type":"uint256","indexed":false,"internalType":"uint256"}],"anonymous":false},{"type":"event","name":"Moved","inputs":[{"name":"from","type":"address","indexed":true,"internalType":"address"},{"name":"to","type":"address","indexed":true,"internalType":"address"},{"name":"token","type":"address","indexed":false,"internalType":"address"},{"name":"amount","type":"uint256","indexed":false,"internalType":"uint256"}],"anonymous":false},{"type":"event","name":"OracleDurationUpdated","inputs":[{"name":"newOracleDuration","type":"uint32","indexed":false,"internalType":"uint32"}],"anonymous":false},{"type":"event","name":"RaftUpdated","inputs":[{"name":"newRaft","type":"address","indexed":false,"internalType":"address"}],"anonymous":false},{"type":"event","name":"RoleAdminChanged","inputs":[{"name":"role","type":"bytes32","indexed":true,"internalType":"bytes32"},{"name":"previousAdminRole","type":"bytes32","indexed":true,"internalType":"bytes32"},{"name":"newAdminRole","type":"bytes32","indexed":true,"internalType":"bytes32"}],"anonymous":false},{"type":"event","name":"RoleGranted","inputs":[{"name":"role","type":"bytes32","indexed":true,"internalType":"bytes32"},{"name":"account","type":"address","indexed":true,"internalType":"address"},{"name":"sender","type":"address","indexed":true,"internalType":"address"}],"anonymous":false},{"type":"event","name":"RoleRevoked","inputs":[{"name":"role","type":"bytes32","indexed":true,"internalType":"bytes32"},{"name":"account","type":"address","indexed":true,"internalType":"address"},{"name":"sender","type":"address","indexed":true,"internalType":"address"}],"anonymous":false},{"type":"event","name":"SlippageUpdated","inputs":[{"name":"newSlippagePercentage","type":"uint256","indexed":false,"internalType":"Percentage"}],"anonymous":false},{"type":"error","name":"AccessControlBadConfirmation","inputs":[]},{"type":"error","name":"AccessControlUnauthorizedAccount","inputs":[{"name":"account","type":"address","internalType":"address"},{"name":"neededRole","type":"bytes32","internalType":"bytes32"}]},{"type":"error","name":"AddressEmptyCode","inputs":[{"name":"target","type":"address","internalType":"address"}]},{"type":"error","name":"AddressInsufficientBalance","inputs":[{"name":"account","type":"address","internalType":"address"}]},{"type":"error","name":"CallerIsNotAuthorizedToBoard","inputs":[{"name":"caller","type":"address","internalType":"address"}]},{"type":"error","name":"CallerIsNotCommander","inputs":[{"name":"caller","type":"address","internalType":"address"}]},{"type":"error","name":"CallerIsNotGovernor","inputs":[{"name":"caller","type":"address","internalType":"address"}]},{"type":"error","name":"CannotAddCommanderToArkWithCommander","inputs":[]},{"type":"error","name":"CannotDeployArkWithEmptyName","inputs":[]},{"type":"error","name":"CannotDeployArkWithoutConfigurationManager","inputs":[]},{"type":"error","name":"CannotDeployArkWithoutRaft","inputs":[]},{"type":"error","name":"CannotDeployArkWithoutToken","inputs":[]},{"type":"error","name":"CannotRemoveCommanderFromArkWithAssets","inputs":[]},{"type":"error","name":"DirectGrantIsDisabled","inputs":[{"name":"caller","type":"address","internalType":"address"}]},{"type":"error","name":"DirectRevokeIsDisabled","inputs":[{"name":"caller","type":"address","internalType":"address"}]},{"type":"error","name":"FailedInnerCall","inputs":[]},{"type":"error","name":"InvalidAccessManagerAddress","inputs":[{"name":"invalidAddress","type":"address","internalType":"address"}]},{"type":"error","name":"InvalidAssetForSY","inputs":[]},{"type":"error","name":"InvalidNextMarket","inputs":[]},{"type":"error","name":"MarketExpired","inputs":[]},{"type":"error","name":"OracleDurationTooLow","inputs":[{"name":"providedDuration","type":"uint32","internalType":"uint32"},{"name":"minimumDuration","type":"uint256","internalType":"uint256"}]},{"type":"error","name":"SafeERC20FailedOperation","inputs":[{"name":"token","type":"address","internalType":"address"}]},{"type":"error","name":"SlippagePercentageTooHigh","inputs":[{"name":"providedSlippage","type":"uint256","internalType":"Percentage"},{"name":"maxSlippage","type":"uint256","internalType":"Percentage"}]}],"bytecode":{"object":"0x60a060405234801561000f575f80fd5b5060405161426438038061426483398101604081905261002e91610a7e565b83838383808060200151805f6001600160a01b0316816001600160a01b031603610072576040516347bd7c1d60e01b81525f60048201526024015b60405180910390fd5b6040516301ffc9a760e01b815263f87138b560e01b60048201526001600160a01b038216906301ffc9a790602401602060405180830381865afa1580156100bb573d5f803e3d5ffd5b505050506040513d601f19601f820116820180604052508101906100df9190610b75565b610107576040516347bd7c1d60e01b81526001600160a01b0382166004820152602401610069565b5f80546001600160a01b0319166001600160a01b0392831617905560408301511690506101475760405163b53c493160e01b815260040160405180910390fd5b60608101516001600160a01b0316610175576040516001620a810f60e11b0319815260040160405180910390fd5b8051515f036101975760405163268c072960e01b815260040160405180910390fd5b604081810151600980546001600160a01b0319166001600160a01b0390921691821790558151628bec5760e51b815291515f9263117d8ae0916004808301926020929190829003018187875af11580156101f3573d5f803e3d5ffd5b505050506040513d601f19601f820116820180604052508101906102179190610b94565b6001600160a01b03160361023e57604051633a4f9cdb60e21b815260040160405180910390fd5b6040518060e001604052805f6001600160a01b0316815260200160095f9054906101000a90046001600160a01b03166001600160a01b031663117d8ae06040518163ffffffff1660e01b81526004016020604051808303815f875af11580156102a9573d5f803e3d5ffd5b505050506040513d601f19601f820116820180604052508101906102cd9190610b94565b6001600160a01b039081168252606080850151821660208085019190915260808087015160408087019190915260a0808901518588015260c0808a0151848901528951978201979097528751600280549188166001600160a01b031992831617815594890151600380549189169183169190911790559188015160048054919097169216919091179094559185015160055590840151600655908301516007559082015160089061037e9082610c32565b5050600b80546001600160a01b0387811660805286166001600160c01b03199091161760e160a31b179055506103b9905060056103e86103f5565b600f556103d75f1960125561010060145566038d7ea4c68000601555565b6103e08461042b565b6103e86105f0565b5050505050505050610e9b565b5f816104036012600a610de3565b61040d9085610dee565b610418906064610dee565b6104229190610e05565b90505b92915050565b600a80546001600160a01b0319166001600160a01b03831690811790915560408051630b2339af60e21b81529051632c8ce6bc916004808201926060929091908290030181865afa158015610482573d5f803e3d5ffd5b505050506040513d601f19601f820116820180604052508101906104a69190610e24565b600e80546001600160a01b03199081166001600160a01b0393841617909155600d8054821693831693909317909255600c805490921692811692831790915560048054604051637d2d278360e11b815292169082015263fa5a4f0690602401602060405180830381865afa158015610520573d5f803e3d5ffd5b505050506040513d601f19601f820116820180604052508101906105449190610b75565b15806105bf5750600c5460048054604051633c21b3eb60e11b81526001600160a01b03918216928101929092529091169063784367d690602401602060405180830381865afa158015610599573d5f803e3d5ffd5b505050506040513d601f19601f820116820180604052508101906105bd9190610b75565b155b156105dd57604051631bda904d60e31b815260040160405180910390fd5b6105e5610669565b6105ed6105f0565b50565b600a5f9054906101000a90046001600160a01b03166001600160a01b031663e184c9be6040518163ffffffff1660e01b8152600401602060405180830381865afa158015610640573d5f803e3d5ffd5b505050506040513d601f19601f820116820180604052508101906106649190610e6e565b601055565b600b54600454610687916001600160a01b0391821691165f196106c5565b600b54600c546106a5916001600160a01b0391821691165f196106c5565b600b54600d546106c3916001600160a01b0391821691165f196106c5565b565b604080516001600160a01b038416602482015260448082018490528251808303909101815260649091019091526020810180516001600160e01b0390811663095ea7b360e01b1790915261071d908590839061078916565b61078357604080516001600160a01b03851660248201525f6044808301919091528251808303909101815260649091019091526020810180516001600160e01b0390811663095ea7b360e01b1790915261077991869161082a16565b610783848261082a565b50505050565b5f805f846001600160a01b0316846040516107a49190610e85565b5f604051808303815f865af19150503d805f81146107dd576040519150601f19603f3d011682016040523d82523d5f602084013e6107e2565b606091505b509150915081801561080c57508051158061080c57508080602001905181019061080c9190610b75565b801561082157505f856001600160a01b03163b115b95945050505050565b5f61083e6001600160a01b03841683610890565b905080515f141580156108625750808060200190518101906108609190610b75565b155b1561088b57604051635274afe760e01b81526001600160a01b0384166004820152602401610069565b505050565b606061042283835f845f80856001600160a01b031684866040516108b49190610e85565b5f6040518083038185875af1925050503d805f81146108ee576040519150601f19603f3d011682016040523d82523d5f602084013e6108f3565b606091505b509092509050610904868383610910565b925050505b9392505050565b606082610925576109208261096c565b610909565b815115801561093c57506001600160a01b0384163b155b1561096557604051639996b31560e01b81526001600160a01b0385166004820152602401610069565b5080610909565b80511561097c5780518082602001fd5b604051630a12f52160e11b815260040160405180910390fd5b6001600160a01b03811681146105ed575f80fd5b80516109b481610995565b919050565b634e487b7160e01b5f52604160045260245ffd5b60405160e081016001600160401b03811182821017156109ef576109ef6109b9565b60405290565b5f82601f830112610a04575f80fd5b81516001600160401b03811115610a1d57610a1d6109b9565b604051601f8201601f19908116603f011681016001600160401b0381118282101715610a4b57610a4b6109b9565b604052818152838201602001851015610a62575f80fd5b8160208501602083015e5f918101602001919091529392505050565b5f805f8060808587031215610a91575f80fd5b8451610a9c81610995565b6020860151909450610aad81610995565b6040860151909350610abe81610995565b60608601519092506001600160401b03811115610ad9575f80fd5b850160e08188031215610aea575f80fd5b610af26109cd565b81516001600160401b03811115610b07575f80fd5b610b13898285016109f5565b825250610b22602083016109a9565b6020820152610b33604083016109a9565b6040820152610b44606083016109a9565b60608201526080828101519082015260a0808301519082015260c09182015191810191909152939692955090935050565b5f60208284031215610b85575f80fd5b81518015158114610909575f80fd5b5f60208284031215610ba4575f80fd5b815161090981610995565b600181811c90821680610bc357607f821691505b602082108103610be157634e487b7160e01b5f52602260045260245ffd5b50919050565b601f82111561088b57805f5260205f20601f840160051c81016020851015610c0c5750805b601f840160051c820191505b81811015610c2b575f8155600101610c18565b5050505050565b81516001600160401b03811115610c4b57610c4b6109b9565b610c5f81610c598454610baf565b84610be7565b6020601f821160018114610c91575f8315610c7a5750848201515b5f19600385901b1c1916600184901b178455610c2b565b5f84815260208120601f198516915b82811015610cc05787850151825560209485019460019092019101610ca0565b5084821015610cdd57868401515f19600387901b60f8161c191681555b50505050600190811b01905550565b634e487b7160e01b5f52601160045260245ffd5b6001815b6001841115610d3b57808504811115610d1f57610d1f610cec565b6001841615610d2d57908102905b60019390931c928002610d04565b935093915050565b5f82610d5157506001610425565b81610d5d57505f610425565b8160018114610d735760028114610d7d57610d99565b6001915050610425565b60ff841115610d8e57610d8e610cec565b50506001821b610425565b5060208310610133831016604e8410600b8410161715610dbc575081810a610425565b610dc85f198484610d00565b805f1904821115610ddb57610ddb610cec565b029392505050565b5f6104228383610d43565b808202811582820484141761042557610425610cec565b5f82610e1f57634e487b7160e01b5f52601260045260245ffd5b500490565b5f805f60608486031215610e36575f80fd5b8351610e4181610995565b6020850151909350610e5281610995565b6040850151909250610e6381610995565b809150509250925092565b5f60208284031215610e7e575f80fd5b5051919050565b5f82518060208501845e5f920191825250919050565b6080516133a3610ec15f395f81816104e901528181611b920152611fe501526133a35ff3fe608060405234801561000f575f80fd5b50600436106102cb575f3560e01c8063781c18db1161017b578063ad5a356f116100e4578063d94073d41161009e578063ec21386511610079578063ec2138651461063b578063f66a774914610655578063f887ea401461066d578063fc0c546a14610680575f80fd5b8063d94073d414610615578063dbd5edc714610628578063e6a69ab814610630575f80fd5b8063ad5a356f14610595578063afd27bf51461059d578063c05bd92d146105b0578063cefba474146105c3578063d547741f146105ef578063d8a8e03a14610602575f80fd5b80638f1d3f00116101355780638f1d3f001461054457806391d148541461054d57806392f5e83214610560578063930ec277146105735780639403e41f1461057b578063a217fddf1461058e575f80fd5b8063781c18db146104b657806379502c55146104c95780637dc0d1d0146104e457806380f556051461050b57806381d3ce261461051e5780638665120314610531575f80fd5b80632f2ff15d11610237578063481c6a75116101f157806361f5cd8b116101cc57806361f5cd8b146104775780636a1460241461048a5780637399bfe81461049957806374f0314f146104ac575f80fd5b8063481c6a751461043e5780634dd47eba14610451578063552033c414610464575f80fd5b80632f2ff15d146103ee5780633194549e1461040157806333a581d21461040957806336568abe1461041157806337270936146104245780634452d81c14610435575f80fd5b8063181783581161028857806318178358146103205780631deae8c614610367578063248a9ca314610370578063256d8a231461039357806328ed6e3f146103d55780632c4e722e146103e8575f80fd5b806301e1d114146102cf57806301ffc9a7146102ea57806303baf0661461030d57806306fdde0314610322578063117d8ae014610337578063163c83811461035c575b5f80fd5b6102d7610691565b6040519081526020015b60405180910390f35b6102fd6102f836600461293b565b6106c8565b60405190151581526020016102e1565b61032061031b366004612962565b6106fe565b005b61032a610893565b6040516102e191906129a7565b6003546001600160a01b03165b6040516001600160a01b0390911681526020016102e1565b6102d7633b9aca0081565b6102d761038481565b6102d761037e366004612962565b5f908152600160208190526040909120015490565b6011546012546013546014546015546103ad949392919085565b604080519586526020860194909452928401919091526060830152608082015260a0016102e1565b6103206103e3366004612962565b610928565b5f6102d7565b6103206103fc3660046129cd565b610acd565b6006546102d7565b6102d75f1981565b61032061041f3660046129cd565b610ae8565b6002546001600160a01b0316610344565b6102d7600f5481565b600954610344906001600160a01b031681565b61032061045f366004612962565b610b20565b6102d76b033b2e3c9fd0803ce800000081565b610320610485366004612962565b610bb6565b6102d7670de0b6b3a764000081565b6102d76104a73660046129fb565b610c12565b6102d76201518081565b600e54610344906001600160a01b031681565b6104d1610ca3565b6040516102e19796959493929190612a7b565b6103447f000000000000000000000000000000000000000000000000000000000000000081565b600a54610344906001600160a01b031681565b61032061052c366004612ad0565b610d5e565b61032061053f366004612962565b610ed3565b6102d760105481565b6102fd61055b3660046129cd565b610f2f565b61032061056e366004612962565b610f59565b6102d7610fb5565b610320610589366004612ad0565b610fcf565b6102d75f81565b6007546102d7565b600c54610344906001600160a01b031681565b6103206105be366004612aeb565b611140565b600b546105da90600160a01b900463ffffffff1681565b60405163ffffffff90911681526020016102e1565b6103206105fd3660046129cd565b6112c3565b6103206106103660046129cd565b6112de565b600d54610344906001600160a01b031681565b6005546102d7565b6102d76301e1338081565b733d1e7312de9b8fc246dded971ee7547b0a80592a610344565b61065d61142a565b6040516102e19493929190612b3e565b600b54610344906001600160a01b031681565b6004546001600160a01b0316610344565b5f6010544210156106bd576106b8600f546106b26106ad6114dc565b611547565b9061156d565b905090565b6106b86106ad6114dc565b5f6001600160e01b03198216637965db0b60e01b14806106f857506301ffc9a760e01b6001600160e01b03198316145b92915050565b5f5460408051630ccc574960e41b815290516001600160a01b03909216916391d1485491839163ccc57490916004808201926020929091908290030181865afa15801561074d573d5f803e3d5ffd5b505050506040513d601f19601f820116820180604052508101906107719190612b83565b6040516001600160e01b031960e084901b1681526004810191909152336024820152604401602060405180830381865afa1580156107b1573d5f803e3d5ffd5b505050506040513d601f19601f820116820180604052508101906107d59190612bae565b6107f957604051630ea7d7ed60e21b81523360048201526024015b60405180910390fd5b610818816108096012600a612cbe565b610814906064612cc9565b1090565b15610857578061082a6012600a612cbe565b610835906064612cc9565b6040516328e9045960e11b8152600481019290925260248201526044016107f0565b600f8190556040518181527ff5a802650e0a86db227cc342f06327d2ca0ff5cf2b12e0084fc5d8a7db2c54fd906020015b60405180910390a150565b6060600260060180546108a590612ce0565b80601f01602080910402602001604051908101604052809291908181526020018280546108d190612ce0565b801561091c5780601f106108f35761010080835404028352916020019161091c565b820191905f5260205f20905b8154815290600101906020018083116108ff57829003601f168201915b5050505050905090565b565b6002546001600160a01b031661093c611597565b610a5b575f3390505f306001600160a01b031663117d8ae06040518163ffffffff1660e01b8152600401602060405180830381865afa158015610981573d5f803e3d5ffd5b505050506040513d601f19601f820116820180604052508101906109a59190612d18565b6001600160a01b0316826001600160a01b031614905080610a585760405163d25dd10160e01b81526001600160a01b0383811660048301525f919085169063d25dd10190602401602060405180830381865afa158015610a07573d5f803e3d5ffd5b505050506040513d601f19601f82011682018060405250810190610a2b9190612bae565b905080610a5657604051638f7a567d60e01b81526001600160a01b03841660048201526024016107f0565b505b50505b6004543390610a75906001600160a01b031682308661160a565b610a7e83611677565b600454604080516001600160a01b03928316815260208101869052918316917fcbaa1442ac205415c9d69643e7b60ec73d1de35dbc807c21ec288c70ddc4207b910160405180910390a2505050565b604051630e15200f60e21b81523360048201526024016107f0565b6001600160a01b0381163314610b115760405163334bd91960e11b815260040160405180910390fd5b610b1b8282611688565b505050565b610b28611597565b610b4757604051631564c0e160e11b81523360048201526024016107f0565b33610b51826116fa565b600454610b68906001600160a01b03168284611754565b600454604080516001600160a01b03928316815260208101859052918316917fd5e872c5ecfb1bb8820b2e6a20e31b883682282da886621541f71e31ec11947e910160405180910390a25050565b610bbe611597565b610bdd57604051631564c0e160e11b81523360048201526024016107f0565b60068190556040518181527ffbe2d5c01ea8ba5596d6c4e6c82c6d4a0a0ee1128689993a4a5ba0169273d69f90602001610888565b5f610c8e60095f9054906101000a90046001600160a01b03166001600160a01b031663117d8ae06040518163ffffffff1660e01b81526004016020604051808303815f875af1158015610c67573d5f803e3d5ffd5b505050506040513d601f19601f82011682018060405250810190610c8b9190612d18565b50565b610c99848484611785565b90505b9392505050565b60028054600354600454600554600654600754600880546001600160a01b03978816989688169790951695939492939192610cdd90612ce0565b80601f0160208091040260200160405190810160405280929190818152602001828054610d0990612ce0565b8015610d545780601f10610d2b57610100808354040283529160200191610d54565b820191905f5260205f20905b815481529060010190602001808311610d3757829003601f168201915b5050505050905087565b5f5460408051630ccc574960e41b815290516001600160a01b03909216916391d1485491839163ccc57490916004808201926020929091908290030181865afa158015610dad573d5f803e3d5ffd5b505050506040513d601f19601f82011682018060405250810190610dd19190612b83565b6040516001600160e01b031960e084901b1681526004810191909152336024820152604401602060405180830381865afa158015610e11573d5f803e3d5ffd5b505050506040513d601f19601f82011682018060405250810190610e359190612bae565b610e5457604051630ea7d7ed60e21b81523360048201526024016107f0565b610e5d81611914565b5f54604080516345b817bb60e01b81529051610ecf926001600160a01b0316916345b817bb9160048083019260209291908290030181865afa158015610ea5573d5f803e3d5ffd5b505050506040513d601f19601f82011682018060405250810190610ec99190612b83565b82611688565b5050565b610edb611597565b610efa57604051631564c0e160e11b81523360048201526024016107f0565b60058190556040518181527f333b26cca69716ad4680ddb07663f5bfb4f06045671f336af9a83690a3ae00f990602001610888565b5f9182526001602090815260408084206001600160a01b0393909316845291905290205460ff1690565b610f61611597565b610f8057604051631564c0e160e11b81523360048201526024016107f0565b60078190556040518181527fb6ac66853c4e59c71e118d25ab494bb847c4e5eb0c8894898c5343e6f61afc1290602001610888565b610fc16012600a612cbe565b610fcc906064612cc9565b81565b5f5460408051630ccc574960e41b815290516001600160a01b03909216916391d1485491839163ccc57490916004808201926020929091908290030181865afa15801561101e573d5f803e3d5ffd5b505050506040513d601f19601f820116820180604052508101906110429190612b83565b6040516001600160e01b031960e084901b1681526004810191909152336024820152604401602060405180830381865afa158015611082573d5f803e3d5ffd5b505050506040513d601f19601f820116820180604052508101906110a69190612bae565b6110c557604051630ea7d7ed60e21b81523360048201526024016107f0565b6110ce816119a7565b5f54604080516345b817bb60e01b81529051610ecf926001600160a01b0316916345b817bb9160048083019260209291908290030181865afa158015611116573d5f803e3d5ffd5b505050506040513d601f19601f8201168201806040525081019061113a9190612b83565b82611ae9565b5f5460408051630ccc574960e41b815290516001600160a01b03909216916391d1485491839163ccc57490916004808201926020929091908290030181865afa15801561118f573d5f803e3d5ffd5b505050506040513d601f19601f820116820180604052508101906111b39190612b83565b6040516001600160e01b031960e084901b1681526004810191909152336024820152604401602060405180830381865afa1580156111f3573d5f803e3d5ffd5b505050506040513d601f19601f820116820180604052508101906112179190612bae565b61123657604051630ea7d7ed60e21b81523360048201526024016107f0565b6103848163ffffffff16101561126f57604051630d33f2b360e21b815263ffffffff8216600482015261038460248201526044016107f0565b600b805463ffffffff60a01b1916600160a01b63ffffffff8416908102919091179091556040519081527f4b3aa5c9fb94258bcc25dd74639341b3baf9771cfb27c62dbc11af634747aa4d90602001610888565b604051636344978560e11b81523360048201526024016107f0565b6112e6611597565b61130557604051631564c0e160e11b81523360048201526024016107f0565b61130e826116fa565b6004805460405163095ea7b360e01b81526001600160a01b03848116938201939093526024810185905291169063095ea7b3906044016020604051808303815f875af1158015611360573d5f803e3d5ffd5b505050506040513d601f19601f820116820180604052508101906113849190612bae565b506040516328ed6e3f60e01b8152600481018390526001600160a01b038216906328ed6e3f906024015f604051808303815f87803b1580156113c4575f80fd5b505af11580156113d6573d5f803e3d5ffd5b5050600454604080516001600160a01b0392831681526020810187905291851693503092507f9f784fc02a186f1c98b2d9f15fda084da27cdd291a3785d978f91911d880516b910160405180910390a35050565b601b8054601c805460ff8316936101009093046001600160a01b031692919061145290612ce0565b80601f016020809104026020016040519081016040528092919081815260200182805461147e90612ce0565b80156114c95780601f106114a0576101008083540402835291602001916114c9565b820191905f5260205f20905b8154815290600101906020018083116114ac57829003601f168201915b5050506002909301549192505060ff1684565b600d546040516370a0823160e01b81523060048201525f916001600160a01b0316906370a08231906024015b602060405180830381865afa158015611523573d5f803e3d5ffd5b505050506040513d601f19601f820116820180604052508101906106b89190612b83565b5f670de0b6b3a7640000611559611b58565b6115639084612cc9565b6106f89190612d33565b5f610c9c836115926115816012600a612cbe565b61158c906064612cc9565b85611bc1565b611bcc565b5f8054604080516345b817bb60e01b815290516106b8926001600160a01b0316916345b817bb9160048083019260209291908290030181865afa1580156115e0573d5f803e3d5ffd5b505050506040513d601f19601f820116820180604052508101906116049190612b83565b33610f2f565b6040516001600160a01b0384811660248301528381166044830152606482018390526116719186918216906323b872dd906084015b604051602081830303815290604052915060e01b6020820180516001600160e01b038381831617835250505050611bf8565b50505050565b61167f611c59565b610c8b81611d60565b5f6116938383610f2f565b156116f3575f8381526001602090815260408083206001600160a01b0386168085529252808320805460ff1916905551339286917ff6391f5c32d9c69d2a47ea670b442974b53935d1edc7fd64eb21e047a839171b9190a45060016106f8565b505f6106f8565b611702611c59565b601054421061171557610c8b8182611f4a565b5f61171e6114dc565b90505f611736600f5461173085611f54565b90611f6f565b90505f8282116117465781611748565b825b90506116718185611f94565b6040516001600160a01b03838116602483015260448201839052610b1b91859182169063a9059cbb9060640161163f565b5f80600a5f9054906101000a90046001600160a01b03166001600160a01b031663c4f59f9b6040518163ffffffff1660e01b81526004015f60405180830381865afa1580156117d6573d5f803e3d5ffd5b505050506040513d5f823e601f3d908101601f191682016040526117fd9190810190612dba565b600a54604051639262187b60e01b81523060048201529192505f916001600160a01b0390911690639262187b906024015f604051808303815f875af1158015611848573d5f803e3d5ffd5b505050506040513d5f823e601f3d908101601f1916820160405261186f9190810190612e4f565b90505f5b825181101561190a5760025482516118db916001600160a01b0316908490849081106118a1576118a1612ed6565b60200260200101518584815181106118bb576118bb612ed6565b60200260200101516001600160a01b03166117549092919063ffffffff16565b8181815181106118ed576118ed612ed6565b6020026020010151846119009190612eea565b9350600101611873565b5050509392505050565b5f306001600160a01b03166301e1d1146040518163ffffffff1660e01b8152600401602060405180830381865afa158015611951573d5f803e3d5ffd5b505050506040513d601f19601f820116820180604052508101906119759190612b83565b1115611994576040516373a075f360e01b815260040160405180910390fd5b50600280546001600160a01b0319169055565b5f5460408051630ccc574960e41b815290516001600160a01b03909216916391d1485491839163ccc57490916004808201926020929091908290030181865afa1580156119f6573d5f803e3d5ffd5b505050506040513d601f19601f82011682018060405250810190611a1a9190612b83565b6040516001600160e01b031960e084901b1681526004810191909152336024820152604401602060405180830381865afa158015611a5a573d5f803e3d5ffd5b505050506040513d601f19601f82011682018060405250810190611a7e9190612bae565b611a9d57604051630ea7d7ed60e21b81523360048201526024016107f0565b6002546001600160a01b031615611ac75760405163d32184ed60e01b815260040160405180910390fd5b600280546001600160a01b0319166001600160a01b0392909216919091179055565b5f611af48383610f2f565b6116f3575f8381526001602081815260408084206001600160a01b0387168086529252808420805460ff19169093179092559051339286917f2f8788117e7eff1d82e926ec794901d17c78024a50270940304540a733656f0d9190a45060016106f8565b600a54600b5460405163abca0eab60e01b81526001600160a01b039283166004820152600160a01b90910463ffffffff1660248201525f917f0000000000000000000000000000000000000000000000000000000000000000169063abca0eab90604401611508565b5f610c9c8284612efd565b5f611bd96012600a612cbe565b611be4906064612cc9565b611bee8385612cc9565b610c9c9190612d33565b5f611c0c6001600160a01b03841683611f9e565b905080515f14158015611c30575080806020019051810190611c2e9190612bae565b155b15610b1b57604051635274afe760e01b81526001600160a01b03841660048201526024016107f0565b601054421015611c6557565b5f306001600160a01b031663ec2138656040518163ffffffff1660e01b8152600401602060405180830381865afa158015611ca2573d5f803e3d5ffd5b505050506040513d601f19601f82011682018060405250810190611cc69190612d18565b90506001600160a01b0381161580611ceb5750600a546001600160a01b038281169116145b15611d09576040516301fb70bf60e21b815260040160405180910390fd5b611d1281611fab565b611d195750565b611d21612066565b611d2a816120dc565b6040516001600160a01b038216907f3b7aba7495f95b008f26fc1548021f2fb059ad26ef38f422178347e2b5859898905f90a250565b6010544210611d825760405163b2094b5960e01b815260040160405180910390fd5b5f611d92600f546106b284611f54565b6040805160a0810182526004546001600160a01b031680825260208201869052818301525f6060820181905282516080818101909452601b805495965091949293840192909190829060ff166003811115611def57611def612b0e565b6003811115611e0057611e00612b0e565b8152815461010090046001600160a01b03166020820152600182018054604090920191611e2c90612ce0565b80601f0160208091040260200160405190810160405280929190818152602001828054611e5890612ce0565b8015611ea35780601f10611e7a57610100808354040283529160200191611ea3565b820191905f5260205f20905b815481529060010190602001808311611e8657829003601f168201915b50505091835250506002919091015460ff1615156020909101529052600b54600a5460405163640fc23d60e11b81529293506001600160a01b039182169263c81f847a92611f02923092911690879060119088906016906004016131d4565b6060604051808303815f875af1158015611f1e573d5f803e3d5ffd5b505050506040513d601f19601f82011682018060405250810190611f42919061324a565b505050505050565b610ecf828261229e565b5f611f5d611b58565b611563670de0b6b3a764000084612cc9565b5f610c9c83611592611f836012600a612cbe565b611f8e906064612cc9565b856124aa565b610ecf82826124b5565b6060610c9c83835f61261a565b600b5460405162439f4b60e91b81526001600160a01b038381166004830152600160a01b90920463ffffffff1660248201525f91829182917f0000000000000000000000000000000000000000000000000000000000000000169063873e960090604401606060405180830381865afa15801561202a573d5f803e3d5ffd5b505050506040513d601f19601f8201168201806040525081019061204e9190613275565b92505091508115801561205e5750805b949350505050565b600d546040516370a0823160e01b81523060048201525f916001600160a01b0316906370a0823190602401602060405180830381865afa1580156120ac573d5f803e3d5ffd5b505050506040513d601f19601f820116820180604052508101906120d09190612b83565b9050610c8b818261229e565b600a80546001600160a01b0319166001600160a01b03831690811790915560408051630b2339af60e21b81529051632c8ce6bc916004808201926060929091908290030181865afa158015612133573d5f803e3d5ffd5b505050506040513d601f19601f8201168201806040525081019061215791906132bd565b600e80546001600160a01b03199081166001600160a01b0393841617909155600d8054821693831693909317909255600c805490921692811692831790915560048054604051637d2d278360e11b815292169082015263fa5a4f0690602401602060405180830381865afa1580156121d1573d5f803e3d5ffd5b505050506040513d601f19601f820116820180604052508101906121f59190612bae565b15806122705750600c5460048054604051633c21b3eb60e11b81526001600160a01b03918216928101929092529091169063784367d690602401602060405180830381865afa15801561224a573d5f803e3d5ffd5b505050506040513d601f19601f8201168201806040525081019061226e9190612bae565b155b1561228e57604051631bda904d60e31b815260040160405180910390fd5b6122966126b3565b610c8b61270d565b811561232957600b54600e5460405163339748cb60e01b81523060048201526001600160a01b039182166024820152604481018590526064810184905291169063339748cb906084016020604051808303815f875af1158015612303573d5f803e3d5ffd5b505050506040513d601f19601f820116820180604052508101906123279190612b83565b505b600c546040516370a0823160e01b81523060048201525f916001600160a01b0316906370a0823190602401602060405180830381865afa15801561236f573d5f803e3d5ffd5b505050506040513d601f19601f820116820180604052508101906123939190612b83565b90508015610b1b57600c546004805460405163cbe52ae360e01b81526001600160a01b0391821692810192909252602482018490525f92169063cbe52ae390604401602060405180830381865afa1580156123f0573d5f803e3d5ffd5b505050506040513d601f19601f820116820180604052508101906124149190612b83565b600c546004805460405163769f8e5d60e01b81523092810192909252602482018690526001600160a01b039081166044830152606482018490525f608483015292935091169063769f8e5d9060a4016020604051808303815f875af115801561247f573d5f803e3d5ffd5b505050506040513d601f19601f820116820180604052508101906124a39190612b83565b5050505050565b5f610c9c8284612eea565b6040805160a0810182526004546001600160a01b031680825260208201849052818301525f6060820181905282516080818101909452601b80549294840192829060ff16600381111561250a5761250a612b0e565b600381111561251b5761251b612b0e565b8152815461010090046001600160a01b0316602082015260018201805460409092019161254790612ce0565b80601f016020809104026020016040519081016040528092919081815260200182805461257390612ce0565b80156125be5780601f10612595576101008083540402835291602001916125be565b820191905f5260205f20905b8154815290600101906020018083116125a157829003601f168201915b50505091835250506002919091015460ff1615156020909101529052600b54600a54604051631652a23360e21b81529293506001600160a01b039182169263594a88cc92611f0292309291169088908790601690600401613307565b60608147101561263f5760405163cd78605960e01b81523060048201526024016107f0565b5f80856001600160a01b0316848660405161265a9190613357565b5f6040518083038185875af1925050503d805f8114612694576040519150601f19603f3d011682016040523d82523d5f602084013e612699565b606091505b50915091506126a9868383612786565b9695505050505050565b600b546004546126d1916001600160a01b0391821691165f196127e2565b600b54600c546126ef916001600160a01b0391821691165f196127e2565b600b54600d54610926916001600160a01b0391821691165f196127e2565b600a5f9054906101000a90046001600160a01b03166001600160a01b031663e184c9be6040518163ffffffff1660e01b8152600401602060405180830381865afa15801561275d573d5f803e3d5ffd5b505050506040513d601f19601f820116820180604052508101906127819190612b83565b601055565b60608261279b5761279682612871565b610c9c565b81511580156127b257506001600160a01b0384163b155b156127db57604051639996b31560e01b81526001600160a01b03851660048201526024016107f0565b5080610c9c565b604080516001600160a01b038416602482015260448082018490528251808303909101815260649091019091526020810180516001600160e01b031663095ea7b360e01b179052612833848261289a565b611671576040516001600160a01b0384811660248301525f604483015261286791869182169063095ea7b39060640161163f565b6116718482611bf8565b8051156128815780518082602001fd5b604051630a12f52160e11b815260040160405180910390fd5b5f805f846001600160a01b0316846040516128b59190613357565b5f604051808303815f865af19150503d805f81146128ee576040519150601f19603f3d011682016040523d82523d5f602084013e6128f3565b606091505b509150915081801561291d57508051158061291d57508080602001905181019061291d9190612bae565b801561293257505f856001600160a01b03163b115b95945050505050565b5f6020828403121561294b575f80fd5b81356001600160e01b031981168114610c9c575f80fd5b5f60208284031215612972575f80fd5b5035919050565b5f81518084528060208401602086015e5f602082860101526020601f19601f83011685010191505092915050565b602081525f610c9c6020830184612979565b6001600160a01b0381168114610c8b575f80fd5b5f80604083850312156129de575f80fd5b8235915060208301356129f0816129b9565b809150509250929050565b5f805f60408486031215612a0d575f80fd5b8335612a18816129b9565b9250602084013567ffffffffffffffff811115612a33575f80fd5b8401601f81018613612a43575f80fd5b803567ffffffffffffffff811115612a59575f80fd5b866020828401011115612a6a575f80fd5b939660209190910195509293505050565b6001600160a01b038881168252878116602083015286166040820152606081018590526080810184905260a0810183905260e060c082018190525f90612ac390830184612979565b9998505050505050505050565b5f60208284031215612ae0575f80fd5b8135610c9c816129b9565b5f60208284031215612afb575f80fd5b813563ffffffff81168114610c9c575f80fd5b634e487b7160e01b5f52602160045260245ffd5b60048110610c8b57634e487b7160e01b5f52602160045260245ffd5b612b4785612b22565b8481526001600160a01b03841660208201526080604082018190525f90612b7090830185612979565b9050821515606083015295945050505050565b5f60208284031215612b93575f80fd5b5051919050565b80518015158114612ba9575f80fd5b919050565b5f60208284031215612bbe575f80fd5b610c9c82612b9a565b634e487b7160e01b5f52601160045260245ffd5b6001815b6001841115612c1657808504811115612bfa57612bfa612bc7565b6001841615612c0857908102905b60019390931c928002612bdf565b935093915050565b5f82612c2c575060016106f8565b81612c3857505f6106f8565b8160018114612c4e5760028114612c5857612c74565b60019150506106f8565b60ff841115612c6957612c69612bc7565b50506001821b6106f8565b5060208310610133831016604e8410600b8410161715612c97575081810a6106f8565b612ca35f198484612bdb565b805f1904821115612cb657612cb6612bc7565b029392505050565b5f610c9c8383612c1e565b80820281158282048414176106f8576106f8612bc7565b600181811c90821680612cf457607f821691505b602082108103612d1257634e487b7160e01b5f52602260045260245ffd5b50919050565b5f60208284031215612d28575f80fd5b8151610c9c816129b9565b5f82612d4d57634e487b7160e01b5f52601260045260245ffd5b500490565b634e487b7160e01b5f52604160045260245ffd5b604051601f8201601f1916810167ffffffffffffffff81118282101715612d8f57612d8f612d52565b604052919050565b5f67ffffffffffffffff821115612db057612db0612d52565b5060051b60200190565b5f60208284031215612dca575f80fd5b815167ffffffffffffffff811115612de0575f80fd5b8201601f81018413612df0575f80fd5b8051612e03612dfe82612d97565b612d66565b8082825260208201915060208360051b850101925086831115612e24575f80fd5b6020840193505b828410156126a9578351612e3e816129b9565b825260209384019390910190612e2b565b5f60208284031215612e5f575f80fd5b815167ffffffffffffffff811115612e75575f80fd5b8201601f81018413612e85575f80fd5b8051612e93612dfe82612d97565b8082825260208201915060208360051b850101925086831115612eb4575f80fd5b6020840193505b828410156126a9578351825260209384019390910190612ebb565b634e487b7160e01b5f52603260045260245ffd5b808201808211156106f8576106f8612bc7565b818103818111156106f8576106f8612bc7565b60018060a01b0381511682526020810151602083015260018060a01b03604082015116604083015260018060a01b0360608201511660608301525f608082015160a060808501528051612f6281612b22565b60a085015260208101516001600160a01b031660c08501526040810151608060e0860152612f94610120860182612979565b905060608201511515610100860152809250505092915050565b612fb781612b22565b9052565b80545f90600181811c90821680612fd357607f821691505b602082108103612ff157634e487b7160e01b5f52602260045260245ffd5b8186526020860181801561300c57600181146130225761304e565b60ff198516825283151560051b8201955061304e565b5f878152602090205f5b858110156130485781548482015260019091019060200161302c565b83019650505b505050505092915050565b5f82825480855260208501945060208160051b830101845f5260205f205f5b8381101561316b57601f19858403018852606083528154606084015260018201546080840152600282015460a084015260038201546130bd60c0850160ff8316612fae565b6001600160a01b03600891821c811660e0860152600484015481166101008601526005840154811661012086015260068401541661014085015260078301546101608501528201546101808085019190915260098301546101a08501526101c08401526131316101e08401600a8401612fbb565b838103602085015261314681600b8501612fbb565b600c840154604095909501949094525060209790970196600d90910190600101613078565b50909695505050505050565b80546001600160a01b031682526001810154602083015260a0604083018190525f906131a890840160028401613059565b83810360608501526131bd8160038501613059565b9050838103608085015261205e8160048501612fbb565b6001600160a01b03878116825286166020820152604081018590528354606082015260018401546080820152600284015460a0820152600384015460c0820152600484015460e082015261014061010082018190525f9061323790830185612f10565b828103610120840152612ac38185613177565b5f805f6060848603121561325c575f80fd5b5050815160208301516040909301519094929350919050565b5f805f60608486031215613287575f80fd5b61329084612b9a565b9250602084015161ffff811681146132a6575f80fd5b91506132b460408501612b9a565b90509250925092565b5f805f606084860312156132cf575f80fd5b83516132da816129b9565b60208501519093506132eb816129b9565b60408501519092506132fc816129b9565b809150509250925092565b6001600160a01b038681168252851660208201526040810184905260a0606082018190525f9061333990830185612f10565b828103608084015261334b8185613177565b98975050505050505050565b5f82518060208501845e5f92019182525091905056fea2646970667358221220805d2c0112e85a6240826e7ab7cc56ed5144973a5d93418cef31473ef983616364736f6c634300081a0033","linkReferences":{}},"methodIdentifiers":{"DEFAULT_ADMIN_ROLE()":"a217fddf","MAX_SLIPPAGE_PERCENTAGE()":"930ec277","MAX_UINT256()":"33a581d2","MIN_ORACLE_DURATION()":"1deae8c6","PT()":"d94073d4","RAY()":"552033c4","SECONDS_PER_DAY()":"74f0314f","SECONDS_PER_YEAR()":"e6a69ab8","SY()":"afd27bf5","WAD()":"6a146024","WAD_TO_RAY()":"163c8381","YT()":"781c18db","board(uint256)":"28ed6e3f","commander()":"37270936","config()":"79502c55","depositCap()":"dbd5edc7","disembark(uint256)":"4dd47eba","emptySwap()":"f66a7749","getRoleAdmin(bytes32)":"248a9ca3","grantCommanderRole(address)":"9403e41f","grantRole(bytes32,address)":"2f2ff15d","harvest(address,bytes)":"7399bfe8","hasRole(bytes32,address)":"91d14854","manager()":"481c6a75","market()":"80f55605","marketExpiry()":"8f1d3f00","maxRebalanceInflow()":"ad5a356f","maxRebalanceOutflow()":"3194549e","move(uint256,address)":"d8a8e03a","name()":"06fdde03","nextMarket()":"ec213865","oracle()":"7dc0d1d0","oracleDuration()":"cefba474","poke()":"18178358","raft()":"117d8ae0","rate()":"2c4e722e","renounceRole(bytes32,address)":"36568abe","revokeCommanderRole(address)":"81d3ce26","revokeRole(bytes32,address)":"d547741f","router()":"f887ea40","routerParams()":"256d8a23","setDepositCap(uint256)":"86651203","setMaxRebalanceInflow(uint256)":"92f5e832","setMaxRebalanceOutflow(uint256)":"61f5cd8b","setOracleDuration(uint32)":"c05bd92d","setSlippagePercentage(uint256)":"03baf066","slippagePercentage()":"4452d81c","supportsInterface(bytes4)":"01ffc9a7","token()":"fc0c546a","totalAssets()":"01e1d114"},"id":152}