{"abi":[{"type":"constructor","inputs":[],"stateMutability":"nonpayable"},{"type":"function","name":"createRewardsManager","inputs":[{"name":"accessManager","type":"address","internalType":"address"},{"name":"fleetCommander","type":"address","internalType":"address"}],"outputs":[{"name":"","type":"address","internalType":"address"}],"stateMutability":"nonpayable"},{"type":"event","name":"RewardsManagerCreated","inputs":[{"name":"rewardsManager","type":"address","indexed":true,"internalType":"address"},{"name":"fleetCommander","type":"address","indexed":true,"internalType":"address"}],"anonymous":false}],"bytecode":{"object":"0x6080604052348015600e575f5ffd5b506119538061001c5f395ff3fe608060405234801561000f575f5ffd5b5060043610610029575f3560e01c80630f07f8291461002d575b5f5ffd5b61004061003b36600461010e565b61005c565b6040516001600160a01b03909116815260200160405180910390f35b5f5f838360405161006c906100e6565b6001600160a01b03928316815291166020820152604001604051809103905ff08015801561009c573d5f5f3e3d5ffd5b509050826001600160a01b0316816001600160a01b03167f0b3397f9446e8b85cf96fe3194aeec84e2fd23ab014cf85f82805b36aef207aa60405160405180910390a39392505050565b6117de8061014083390190565b80356001600160a01b0381168114610109575f5ffd5b919050565b5f5f6040838503121561011f575f5ffd5b610128836100f3565b9150610136602084016100f3565b9050925092905056fe608060405234801561000f575f5ffd5b506040516117de3803806117de83398101604081905261002e916101a0565b81806001600160a01b03811661005e576040516347bd7c1d60e01b81525f60048201526024015b60405180910390fd5b6040516301ffc9a760e01b8152639bd1803160e01b60048201526001600160a01b038216906301ffc9a790602401602060405180830381865afa1580156100a7573d5f5f3e3d5ffd5b505050506040513d601f19601f820116820180604052508101906100cb91906101d1565b6100f3576040516347bd7c1d60e01b81526001600160a01b0382166004820152602401610055565b5f80546001600160a01b039283166001600160a01b03199182161790915560098054928516929091168217905561012a9150610131565b50506101f7565b600380546001600160a01b0319166001600160a01b0383169081179091556040519081527ffbed9b88bd11cf6ebffbe6fe489ac5bf7a88b31de62cf9bbc5e63e6eb01760039060200160405180910390a150565b80516001600160a01b038116811461019b575f5ffd5b919050565b5f5f604083850312156101b1575f5ffd5b6101ba83610185565b91506101c860208401610185565b90509250929050565b5f602082840312156101e1575f5ffd5b815180151581146101f0575f5ffd5b9392505050565b6115da806102045f395ff3fe608060405234801561000f575f5ffd5b5060043610610132575f3560e01c806370a08231116100b4578063bcd1101411610079578063bcd11014146102e9578063cecc238f146102fc578063e24bf4fe1461030f578063e70b9e2714610322578063e9fad8ee1461034c578063f122977714610354575f5ffd5b806370a082311461025d57806372f702f3146102855780637bb7bed1146102b0578063a3cd8ac4146102c3578063a694fc3a146102d6575f5ffd5b80633d509c97116100fa5780633d509c971461019557806348e5d9f8146101a8578063638634ee1461020d57806369b3054b146102205780637035ab9814610233575f5ffd5b806318160ddd14610136578063211dc32d146101525780632378bea6146101655780632e17de781461017a5780633d18b9121461018d575b5f5ffd5b61013f60075481565b6040519081526020015b60405180910390f35b61013f6101603660046113af565b610367565b6101786101733660046113e6565b61037b565b005b610178610188366004611410565b6104f9565b610178610511565b6101786101a3366004611427565b6105fe565b6101e56101b6366004611427565b600460208190525f91825260409091208054600182015460028301546003840154939094015491939092909185565b604080519586526020860194909452928401919091526060830152608082015260a001610149565b61013f61021b366004611427565b610869565b61013f61022e366004611442565b6108ab565b61013f6102413660046113af565b600560209081525f928352604080842090915290825290205481565b61013f61026b366004611427565b6001600160a01b03165f9081526008602052604090205490565b600354610298906001600160a01b031681565b6040516001600160a01b039091168152602001610149565b6102986102be366004611410565b6108dd565b6101786102d1366004611461565b61091a565b6101786102e4366004611410565b610c4e565b61013f6102f7366004611427565b610c63565b61017861030a3660046113e6565b610c8f565b600954610298906001600160a01b031681565b61013f6103303660046113af565b600660209081525f928352604080842090915290825290205481565b610178610c9a565b61013f610362366004611427565b610cbb565b5f6103728383610d68565b90505b92915050565b5f5460408051630ccc574960e41b815290516001600160a01b03909216916391d1485491839163ccc57490916004808201926020929091908290030181865afa1580156103ca573d5f5f3e3d5ffd5b505050506040513d601f19601f820116820180604052508101906103ee9190611493565b6040516001600160e01b031960e084901b1681526004810191909152336024820152604401602060405180830381865afa15801561042e573d5f5f3e3d5ffd5b505050506040513d601f19601f8201168201806040525081019061045291906114aa565b61047657604051630ea7d7ed60e21b81523360048201526024015b60405180910390fd5b6001600160a01b0382165f908152600460205260409020805442116104ae5760405163d9ba1add60e01b815260040160405180910390fd5b600281018290556040518281526001600160a01b038416907fad2f86b01ed93b4b3a150d448c61a4f5d8d38075d3c0c64cc0a26fd6e1f49545906020015b60405180910390a2505050565b3361050381610df7565b61050d3383610ec1565b5050565b610519610f81565b3361052381610df7565b5f61052e6001610fee565b90505f5b818110156105f1575f610546600183610ff7565b6001600160a01b0381165f908152600660209081526040808320338452909152902054909150819080156105e6576001600160a01b0382165f8181526006602090815260408083203380855292528220919091556105a5919083611002565b6040518181526001600160a01b0383169033907f540798df468d7b23d11f156fdb954cb19ad414d150722a7b6d55ba369dea792e9060200160405180910390a35b505050600101610532565b5050506105fc611061565b565b5f5460408051630ccc574960e41b815290516001600160a01b03909216916391d1485491839163ccc57490916004808201926020929091908290030181865afa15801561064d573d5f5f3e3d5ffd5b505050506040513d601f19601f820116820180604052508101906106719190611493565b6040516001600160e01b031960e084901b1681526004810191909152336024820152604401602060405180830381865afa1580156106b1573d5f5f3e3d5ffd5b505050506040513d601f19601f820116820180604052508101906106d591906114aa565b6106f457604051630ea7d7ed60e21b815233600482015260240161046d565b6001600160a01b0381165f90815260046020526040812060020154900361072e5760405163064fed9960e31b815260040160405180910390fd5b6001600160a01b0381165f9081526004602052604090205442116107655760405163d9ba1add60e01b815260040160405180910390fd5b6040516370a0823160e01b81523060048201525f906001600160a01b038316906370a0823190602401602060405180830381865afa1580156107a9573d5f5f3e3d5ffd5b505050506040513d601f19601f820116820180604052508101906107cd9190611493565b905080156107f157604051633007cea360e01b81526004810182905260240161046d565b6107fc60018361108b565b506001600160a01b0382165f81815260046020818152604080842084815560018101859055600281018590556003810185905590920192909255519182527f66257bcef574219c04f7c05f7a1c78d599da10491294c92a5805c48b4cdf5009910160405180910390a15050565b6001600160a01b0381165f9081526004602052604081205442106108a4576001600160a01b0382165f90815260046020526040902054610375565b4292915050565b5f82826040516020016108bf9291906114c9565b60405160208183030381529060405280519060200120905092915050565b5f6108e86001610fee565b821061090757604051634e23d03560e01b815260040160405180910390fd5b5f610913600184610ff7565b9392505050565b5f5460408051630ccc574960e41b815290516001600160a01b03909216916391d1485491839163ccc57490916004808201926020929091908290030181865afa158015610969573d5f5f3e3d5ffd5b505050506040513d601f19601f8201168201806040525081019061098d9190611493565b6040516001600160e01b031960e084901b1681526004810191909152336024820152604401602060405180830381865afa1580156109cd573d5f5f3e3d5ffd5b505050506040513d601f19601f820116820180604052508101906109f191906114aa565b610a1057604051630ea7d7ed60e21b815233600482015260240161046d565b5f610a1a81610df7565b6001600160a01b0384165f9081526004602052604081206002810154909103610aba57825f03610a605760405160016203036160e11b0319815260040160405180910390fd5b610a6b60018661109f565b5060028101839055604080516001600160a01b0387168152602081018590527f68e3e9397770d9dfa88c0953a34e1a70a05416b3895957f5b689787a920791c4910160405180910390a1610aeb565b5f83118015610acd575080600201548314155b15610aeb576040516333fec8c760e21b815260040160405180910390fd5b80544210610b0c576002810154610b029085611520565b6001820155610b52565b80545f90610b1b90429061153f565b90505f826001015482610b2e9190611552565b6002840154909150610b408288611569565b610b4a9190611520565b600184015550505b6040516370a0823160e01b81523060048201525f906001600160a01b038716906370a0823190602401602060405180830381865afa158015610b96573d5f5f3e3d5ffd5b505050506040513d601f19601f82011682018060405250810190610bba9190611493565b9050816002015481610bcc9190611520565b82600101541115610bf05760405163010ee96f60e31b815260040160405180910390fd5b42600383018190556002830154610c0691611569565b82556040518581526001600160a01b038716907fac24935fd910bc682b5ccb1a07b718cadf8cf2f6d1404c4f3ddc3662dae40e299060200160405180910390a2505050505050565b33610c5881610df7565b61050d3333846110b3565b6001600160a01b0381165f90815260046020526040812060028101546001909101546103759190611552565b61050d3383836110b3565b610ca2610511565b335f818152600860205260409020546105fc9190610ec1565b5f6007545f03610ce457506001600160a01b03165f908152600460208190526040909120015490565b6007546001600160a01b0383165f9081526004602052604090206001810154600390910154610d1285610869565b610d1c919061153f565b610d269190611552565b610d3890670de0b6b3a7640000611552565b610d429190611520565b6001600160a01b0383165f90815260046020819052604090912001546103759190611569565b6001600160a01b038082165f818152600660209081526040808320948716808452948252808320549383526005825280832094835293905291822054670de0b6b3a764000090610db785610cbb565b610dc1919061153f565b6001600160a01b0386165f90815260086020526040902054610de39190611552565b610ded9190611520565b6103729190611569565b5f610e026001610fee565b90505f5b81811015610ebc575f610e1a600183610ff7565b6001600160a01b0381165f9081526004602052604090209091508190610e3f82610cbb565b6004820155610e4d82610869565b60038201556001600160a01b03861615610eb157610e6b8683610367565b6001600160a01b038084165f818152600660209081526040808320948c168084529482528083209590955560048601549282526005815284822093825292909252919020555b505050600101610e06565b505050565b805f03610ee1576040516310356e5960e21b815260040160405180910390fd5b8060075f828254610ef2919061153f565b90915550506001600160a01b0382165f9081526008602052604081208054839290610f1e90849061153f565b9091555050600354610f3a906001600160a01b03168383611002565b816001600160a01b03167f0f5bb82176feb1b5e747e28471aa92156a04d9f3ab9f45f28e2d704232b93f7582604051610f7591815260200190565b60405180910390a25050565b7f9b779b17422d0df92223018b32b4d1fa46e071723d6817e2486d003becc55f005c15610fc157604051633ee5aeb560e01b815260040160405180910390fd5b6105fc60017f9b779b17422d0df92223018b32b4d1fa46e071723d6817e2486d003becc55f005b90611191565b5f610375825490565b5f6103728383611198565b6040516001600160a01b03838116602483015260448201839052610ebc91859182169063a9059cbb906064015b604051602081830303815290604052915060e01b6020820180516001600160e01b0383818316178352505050506111be565b6105fc5f7f9b779b17422d0df92223018b32b4d1fa46e071723d6817e2486d003becc55f00610fe8565b5f610372836001600160a01b038416611230565b5f610372836001600160a01b038416611313565b805f036110d357604051636a76ff9f60e01b815260040160405180910390fd5b6003546001600160a01b03166110fc5760405163417198d360e01b815260040160405180910390fd5b8060075f82825461110d9190611569565b90915550506001600160a01b0382165f9081526008602052604081208054839290611139908490611569565b9091555050600354611156906001600160a01b031684308461135f565b816001600160a01b03167f9e71bc8eea02a63969f509818f2dafb9254532904319f9dbda79b67bd34a5f3d826040516104ec91815260200190565b80825d5050565b5f825f0182815481106111ad576111ad61157c565b905f5260205f200154905092915050565b5f5f60205f8451602086015f885af1806111dd576040513d5f823e3d81fd5b50505f513d915081156111f4578060011415611201565b6001600160a01b0384163b155b1561122a57604051635274afe760e01b81526001600160a01b038516600482015260240161046d565b50505050565b5f818152600183016020526040812054801561130a575f61125260018361153f565b85549091505f906112659060019061153f565b90508082146112c4575f865f0182815481106112835761128361157c565b905f5260205f200154905080875f0184815481106112a3576112a361157c565b5f918252602080832090910192909255918252600188019052604090208390555b85548690806112d5576112d5611590565b600190038181905f5260205f20015f90559055856001015f8681526020019081526020015f205f905560019350505050610375565b5f915050610375565b5f81815260018301602052604081205461135857508154600181810184555f848152602080822090930184905584548482528286019093526040902091909155610375565b505f610375565b6040516001600160a01b03848116602483015283811660448301526064820183905261122a9186918216906323b872dd9060840161102f565b6001600160a01b03811681146113ac575f5ffd5b50565b5f5f604083850312156113c0575f5ffd5b82356113cb81611398565b915060208301356113db81611398565b809150509250929050565b5f5f604083850312156113f7575f5ffd5b823561140281611398565b946020939093013593505050565b5f60208284031215611420575f5ffd5b5035919050565b5f60208284031215611437575f5ffd5b813561091381611398565b5f5f60408385031215611453575f5ffd5b8235600381106113cb575f5ffd5b5f5f5f60608486031215611473575f5ffd5b833561147e81611398565b95602085013595506040909401359392505050565b5f602082840312156114a3575f5ffd5b5051919050565b5f602082840312156114ba575f5ffd5b81518015158114610913575f5ffd5b5f600384106114e657634e487b7160e01b5f52602160045260245ffd5b5060f89290921b825260601b6bffffffffffffffffffffffff1916600182015260150190565b634e487b7160e01b5f52601160045260245ffd5b5f8261153a57634e487b7160e01b5f52601260045260245ffd5b500490565b818103818111156103755761037561150c565b80820281158282048414176103755761037561150c565b808201808211156103755761037561150c565b634e487b7160e01b5f52603260045260245ffd5b634e487b7160e01b5f52603160045260245ffdfea264697066735822122009064d9fb17382437d2af2b17f5ad2267e794e64f781bc9edde7185e41c029fe64736f6c634300081c0033a26469706673582212206a25169c6a78b6edf104448d14cab8150bfc58d771672c9b345ab70e34250b7f64736f6c634300081c0033","linkReferences":{}},"methodIdentifiers":{"createRewardsManager(address,address)":"0f07f829"},"id":198}