{"abi":[{"type":"constructor","inputs":[{"name":"underlying","type":"address","internalType":"address"},{"name":"configurationManager","type":"address","internalType":"address"},{"name":"initialTipRate","type":"uint256","internalType":"Percentage"}],"stateMutability":"nonpayable"},{"type":"function","name":"addArk","inputs":[{"name":"ark","type":"address","internalType":"address"}],"outputs":[],"stateMutability":"nonpayable"},{"type":"function","name":"addArks","inputs":[{"name":"_arks","type":"address[]","internalType":"address[]"}],"outputs":[],"stateMutability":"nonpayable"},{"type":"function","name":"adjustBuffer","inputs":[{"name":"data","type":"tuple[]","internalType":"struct RebalanceData[]","components":[{"name":"fromArk","type":"address","internalType":"address"},{"name":"toArk","type":"address","internalType":"address"},{"name":"amount","type":"uint256","internalType":"uint256"}]}],"outputs":[],"stateMutability":"nonpayable"},{"type":"function","name":"allowance","inputs":[{"name":"owner","type":"address","internalType":"address"},{"name":"spender","type":"address","internalType":"address"}],"outputs":[{"name":"","type":"uint256","internalType":"uint256"}],"stateMutability":"view"},{"type":"function","name":"approve","inputs":[{"name":"spender","type":"address","internalType":"address"},{"name":"value","type":"uint256","internalType":"uint256"}],"outputs":[{"name":"","type":"bool","internalType":"bool"}],"stateMutability":"nonpayable"},{"type":"function","name":"arks","inputs":[{"name":"","type":"uint256","internalType":"uint256"}],"outputs":[{"name":"","type":"address","internalType":"address"}],"stateMutability":"view"},{"type":"function","name":"asset","inputs":[],"outputs":[{"name":"","type":"address","internalType":"address"}],"stateMutability":"view"},{"type":"function","name":"balanceOf","inputs":[{"name":"account","type":"address","internalType":"address"}],"outputs":[{"name":"","type":"uint256","internalType":"uint256"}],"stateMutability":"view"},{"type":"function","name":"burn","inputs":[{"name":"account","type":"address","internalType":"address"},{"name":"amount","type":"uint256","internalType":"uint256"}],"outputs":[],"stateMutability":"nonpayable"},{"type":"function","name":"convertToAssets","inputs":[{"name":"shares","type":"uint256","internalType":"uint256"}],"outputs":[{"name":"","type":"uint256","internalType":"uint256"}],"stateMutability":"view"},{"type":"function","name":"convertToShares","inputs":[{"name":"assets","type":"uint256","internalType":"uint256"}],"outputs":[{"name":"","type":"uint256","internalType":"uint256"}],"stateMutability":"view"},{"type":"function","name":"decimals","inputs":[],"outputs":[{"name":"","type":"uint8","internalType":"uint8"}],"stateMutability":"view"},{"type":"function","name":"deposit","inputs":[{"name":"assets","type":"uint256","internalType":"uint256"},{"name":"receiver","type":"address","internalType":"address"}],"outputs":[{"name":"","type":"uint256","internalType":"uint256"}],"stateMutability":"nonpayable"},{"type":"function","name":"emergencyShutdown","inputs":[],"outputs":[],"stateMutability":"nonpayable"},{"type":"function","name":"estimateAccruedTip","inputs":[],"outputs":[{"name":"","type":"uint256","internalType":"uint256"}],"stateMutability":"view"},{"type":"function","name":"forceRebalance","inputs":[{"name":"data","type":"tuple[]","internalType":"struct RebalanceData[]","components":[{"name":"fromArk","type":"address","internalType":"address"},{"name":"toArk","type":"address","internalType":"address"},{"name":"amount","type":"uint256","internalType":"uint256"}]}],"outputs":[],"stateMutability":"nonpayable"},{"type":"function","name":"forceWithdraw","inputs":[{"name":"assets","type":"uint256","internalType":"uint256"},{"name":"receiver","type":"address","internalType":"address"},{"name":"owner","type":"address","internalType":"address"}],"outputs":[{"name":"","type":"uint256","internalType":"uint256"}],"stateMutability":"nonpayable"},{"type":"function","name":"getArks","inputs":[],"outputs":[{"name":"","type":"address[]","internalType":"address[]"}],"stateMutability":"view"},{"type":"function","name":"isArkActive","inputs":[{"name":"","type":"address","internalType":"address"}],"outputs":[{"name":"","type":"bool","internalType":"bool"}],"stateMutability":"view"},{"type":"function","name":"lastTipTimestamp","inputs":[],"outputs":[{"name":"","type":"uint256","internalType":"uint256"}],"stateMutability":"view"},{"type":"function","name":"manager","inputs":[],"outputs":[{"name":"","type":"address","internalType":"contract IConfigurationManager"}],"stateMutability":"view"},{"type":"function","name":"maxDeposit","inputs":[{"name":"","type":"address","internalType":"address"}],"outputs":[{"name":"","type":"uint256","internalType":"uint256"}],"stateMutability":"view"},{"type":"function","name":"maxForceWithdraw","inputs":[{"name":"owner","type":"address","internalType":"address"}],"outputs":[{"name":"","type":"uint256","internalType":"uint256"}],"stateMutability":"view"},{"type":"function","name":"maxMint","inputs":[{"name":"","type":"address","internalType":"address"}],"outputs":[{"name":"","type":"uint256","internalType":"uint256"}],"stateMutability":"view"},{"type":"function","name":"maxRedeem","inputs":[{"name":"owner","type":"address","internalType":"address"}],"outputs":[{"name":"","type":"uint256","internalType":"uint256"}],"stateMutability":"view"},{"type":"function","name":"maxWithdraw","inputs":[{"name":"owner","type":"address","internalType":"address"}],"outputs":[{"name":"","type":"uint256","internalType":"uint256"}],"stateMutability":"view"},{"type":"function","name":"mint","inputs":[{"name":"account","type":"address","internalType":"address"},{"name":"amount","type":"uint256","internalType":"uint256"}],"outputs":[],"stateMutability":"nonpayable"},{"type":"function","name":"mint","inputs":[{"name":"shares","type":"uint256","internalType":"uint256"},{"name":"receiver","type":"address","internalType":"address"}],"outputs":[{"name":"","type":"uint256","internalType":"uint256"}],"stateMutability":"nonpayable"},{"type":"function","name":"name","inputs":[],"outputs":[{"name":"","type":"string","internalType":"string"}],"stateMutability":"view"},{"type":"function","name":"previewDeposit","inputs":[{"name":"assets","type":"uint256","internalType":"uint256"}],"outputs":[{"name":"","type":"uint256","internalType":"uint256"}],"stateMutability":"view"},{"type":"function","name":"previewMint","inputs":[{"name":"shares","type":"uint256","internalType":"uint256"}],"outputs":[{"name":"","type":"uint256","internalType":"uint256"}],"stateMutability":"view"},{"type":"function","name":"previewRedeem","inputs":[{"name":"shares","type":"uint256","internalType":"uint256"}],"outputs":[{"name":"","type":"uint256","internalType":"uint256"}],"stateMutability":"view"},{"type":"function","name":"previewWithdraw","inputs":[{"name":"assets","type":"uint256","internalType":"uint256"}],"outputs":[{"name":"","type":"uint256","internalType":"uint256"}],"stateMutability":"view"},{"type":"function","name":"rebalance","inputs":[{"name":"data","type":"tuple[]","internalType":"struct RebalanceData[]","components":[{"name":"fromArk","type":"address","internalType":"address"},{"name":"toArk","type":"address","internalType":"address"},{"name":"amount","type":"uint256","internalType":"uint256"}]}],"outputs":[],"stateMutability":"nonpayable"},{"type":"function","name":"redeem","inputs":[{"name":"shares","type":"uint256","internalType":"uint256"},{"name":"receiver","type":"address","internalType":"address"},{"name":"owner","type":"address","internalType":"address"}],"outputs":[{"name":"","type":"uint256","internalType":"uint256"}],"stateMutability":"nonpayable"},{"type":"function","name":"removeArk","inputs":[{"name":"ark","type":"address","internalType":"address"}],"outputs":[],"stateMutability":"nonpayable"},{"type":"function","name":"setDepositCap","inputs":[{"name":"newCap","type":"uint256","internalType":"uint256"}],"outputs":[],"stateMutability":"nonpayable"},{"type":"function","name":"setMaxAllocation","inputs":[{"name":"ark","type":"address","internalType":"address"},{"name":"newMaxAllocation","type":"uint256","internalType":"uint256"}],"outputs":[],"stateMutability":"nonpayable"},{"type":"function","name":"setTipJar","inputs":[],"outputs":[],"stateMutability":"nonpayable"},{"type":"function","name":"setTipRate","inputs":[{"name":"newTipRate","type":"uint256","internalType":"Percentage"}],"outputs":[],"stateMutability":"nonpayable"},{"type":"function","name":"symbol","inputs":[],"outputs":[{"name":"","type":"string","internalType":"string"}],"stateMutability":"view"},{"type":"function","name":"test","inputs":[],"outputs":[],"stateMutability":"nonpayable"},{"type":"function","name":"testMint","inputs":[{"name":"account","type":"address","internalType":"address"},{"name":"amount","type":"uint256","internalType":"uint256"}],"outputs":[],"stateMutability":"nonpayable"},{"type":"function","name":"tip","inputs":[],"outputs":[{"name":"","type":"uint256","internalType":"uint256"}],"stateMutability":"nonpayable"},{"type":"function","name":"tipJar","inputs":[],"outputs":[{"name":"","type":"address","internalType":"address"}],"stateMutability":"view"},{"type":"function","name":"tipRate","inputs":[],"outputs":[{"name":"","type":"uint256","internalType":"Percentage"}],"stateMutability":"view"},{"type":"function","name":"totalAssets","inputs":[],"outputs":[{"name":"","type":"uint256","internalType":"uint256"}],"stateMutability":"view"},{"type":"function","name":"totalSupply","inputs":[],"outputs":[{"name":"","type":"uint256","internalType":"uint256"}],"stateMutability":"view"},{"type":"function","name":"transfer","inputs":[{"name":"to","type":"address","internalType":"address"},{"name":"value","type":"uint256","internalType":"uint256"}],"outputs":[{"name":"","type":"bool","internalType":"bool"}],"stateMutability":"nonpayable"},{"type":"function","name":"transferFrom","inputs":[{"name":"from","type":"address","internalType":"address"},{"name":"to","type":"address","internalType":"address"},{"name":"value","type":"uint256","internalType":"uint256"}],"outputs":[{"name":"","type":"bool","internalType":"bool"}],"stateMutability":"nonpayable"},{"type":"function","name":"updateRebalanceCooldown","inputs":[{"name":"newCooldown","type":"uint256","internalType":"uint256"}],"outputs":[],"stateMutability":"nonpayable"},{"type":"function","name":"withdraw","inputs":[{"name":"assets","type":"uint256","internalType":"uint256"},{"name":"receiver","type":"address","internalType":"address"},{"name":"owner","type":"address","internalType":"address"}],"outputs":[{"name":"","type":"uint256","internalType":"uint256"}],"stateMutability":"nonpayable"},{"type":"event","name":"Approval","inputs":[{"name":"owner","type":"address","indexed":true,"internalType":"address"},{"name":"spender","type":"address","indexed":true,"internalType":"address"},{"name":"value","type":"uint256","indexed":false,"internalType":"uint256"}],"anonymous":false},{"type":"event","name":"ArkAdded","inputs":[{"name":"ark","type":"address","indexed":true,"internalType":"address"}],"anonymous":false},{"type":"event","name":"ArkMaxAllocationUpdated","inputs":[{"name":"ark","type":"address","indexed":true,"internalType":"address"},{"name":"newMaxAllocation","type":"uint256","indexed":false,"internalType":"uint256"}],"anonymous":false},{"type":"event","name":"ArkRemoved","inputs":[{"name":"ark","type":"address","indexed":true,"internalType":"address"}],"anonymous":false},{"type":"event","name":"Deposit","inputs":[{"name":"sender","type":"address","indexed":true,"internalType":"address"},{"name":"owner","type":"address","indexed":true,"internalType":"address"},{"name":"assets","type":"uint256","indexed":false,"internalType":"uint256"},{"name":"shares","type":"uint256","indexed":false,"internalType":"uint256"}],"anonymous":false},{"type":"event","name":"DepositCapUpdated","inputs":[{"name":"newCap","type":"uint256","indexed":false,"internalType":"uint256"}],"anonymous":false},{"type":"event","name":"FeeAddressUpdated","inputs":[{"name":"newAddress","type":"address","indexed":false,"internalType":"address"}],"anonymous":false},{"type":"event","name":"FleetCommanderBufferAdjusted","inputs":[{"name":"keeper","type":"address","indexed":true,"internalType":"address"},{"name":"totalMoved","type":"uint256","indexed":false,"internalType":"uint256"}],"anonymous":false},{"type":"event","name":"FleetCommanderMinFundsBufferBalanceUpdated","inputs":[{"name":"newBalance","type":"uint256","indexed":false,"internalType":"uint256"}],"anonymous":false},{"type":"event","name":"FundsBufferBalanceUpdated","inputs":[{"name":"user","type":"address","indexed":true,"internalType":"address"},{"name":"prevBalance","type":"uint256","indexed":false,"internalType":"uint256"},{"name":"newBalance","type":"uint256","indexed":false,"internalType":"uint256"}],"anonymous":false},{"type":"event","name":"FundsQueueRefilled","inputs":[{"name":"keeper","type":"address","indexed":true,"internalType":"address"},{"name":"prevBalance","type":"uint256","indexed":false,"internalType":"uint256"},{"name":"newBalance","type":"uint256","indexed":false,"internalType":"uint256"}],"anonymous":false},{"type":"event","name":"MinFundsQueueBalanceUpdated","inputs":[{"name":"keeper","type":"address","indexed":true,"internalType":"address"},{"name":"newBalance","type":"uint256","indexed":false,"internalType":"uint256"}],"anonymous":false},{"type":"event","name":"QueuedFundsCommitted","inputs":[{"name":"keeper","type":"address","indexed":true,"internalType":"address"},{"name":"prevBalance","type":"uint256","indexed":false,"internalType":"uint256"},{"name":"newBalance","type":"uint256","indexed":false,"internalType":"uint256"}],"anonymous":false},{"type":"event","name":"Rebalanced","inputs":[{"name":"keeper","type":"address","indexed":true,"internalType":"address"},{"name":"rebalances","type":"tuple[]","indexed":false,"internalType":"struct RebalanceData[]","components":[{"name":"fromArk","type":"address","internalType":"address"},{"name":"toArk","type":"address","internalType":"address"},{"name":"amount","type":"uint256","internalType":"uint256"}]}],"anonymous":false},{"type":"event","name":"TipAccrued","inputs":[{"name":"tipAmount","type":"uint256","indexed":false,"internalType":"uint256"}],"anonymous":false},{"type":"event","name":"TipJarUpdated","inputs":[{"name":"newTipJar","type":"address","indexed":false,"internalType":"address"}],"anonymous":false},{"type":"event","name":"TipRateUpdated","inputs":[{"name":"newTipRate","type":"uint256","indexed":false,"internalType":"Percentage"}],"anonymous":false},{"type":"event","name":"Transfer","inputs":[{"name":"from","type":"address","indexed":true,"internalType":"address"},{"name":"to","type":"address","indexed":true,"internalType":"address"},{"name":"value","type":"uint256","indexed":false,"internalType":"uint256"}],"anonymous":false},{"type":"event","name":"Withdraw","inputs":[{"name":"sender","type":"address","indexed":true,"internalType":"address"},{"name":"receiver","type":"address","indexed":true,"internalType":"address"},{"name":"owner","type":"address","indexed":true,"internalType":"address"},{"name":"assets","type":"uint256","indexed":false,"internalType":"uint256"},{"name":"shares","type":"uint256","indexed":false,"internalType":"uint256"}],"anonymous":false},{"type":"error","name":"AddressEmptyCode","inputs":[{"name":"target","type":"address","internalType":"address"}]},{"type":"error","name":"AddressInsufficientBalance","inputs":[{"name":"account","type":"address","internalType":"address"}]},{"type":"error","name":"ERC20InsufficientAllowance","inputs":[{"name":"spender","type":"address","internalType":"address"},{"name":"allowance","type":"uint256","internalType":"uint256"},{"name":"needed","type":"uint256","internalType":"uint256"}]},{"type":"error","name":"ERC20InsufficientBalance","inputs":[{"name":"sender","type":"address","internalType":"address"},{"name":"balance","type":"uint256","internalType":"uint256"},{"name":"needed","type":"uint256","internalType":"uint256"}]},{"type":"error","name":"ERC20InvalidApprover","inputs":[{"name":"approver","type":"address","internalType":"address"}]},{"type":"error","name":"ERC20InvalidReceiver","inputs":[{"name":"receiver","type":"address","internalType":"address"}]},{"type":"error","name":"ERC20InvalidSender","inputs":[{"name":"sender","type":"address","internalType":"address"}]},{"type":"error","name":"ERC20InvalidSpender","inputs":[{"name":"spender","type":"address","internalType":"address"}]},{"type":"error","name":"ERC4626ExceededMaxDeposit","inputs":[{"name":"receiver","type":"address","internalType":"address"},{"name":"assets","type":"uint256","internalType":"uint256"},{"name":"max","type":"uint256","internalType":"uint256"}]},{"type":"error","name":"ERC4626ExceededMaxMint","inputs":[{"name":"receiver","type":"address","internalType":"address"},{"name":"shares","type":"uint256","internalType":"uint256"},{"name":"max","type":"uint256","internalType":"uint256"}]},{"type":"error","name":"ERC4626ExceededMaxRedeem","inputs":[{"name":"owner","type":"address","internalType":"address"},{"name":"shares","type":"uint256","internalType":"uint256"},{"name":"max","type":"uint256","internalType":"uint256"}]},{"type":"error","name":"ERC4626ExceededMaxWithdraw","inputs":[{"name":"owner","type":"address","internalType":"address"},{"name":"assets","type":"uint256","internalType":"uint256"},{"name":"max","type":"uint256","internalType":"uint256"}]},{"type":"error","name":"FailedInnerCall","inputs":[]},{"type":"error","name":"InvalidTipJarAddress","inputs":[]},{"type":"error","name":"MathOverflowedMulDiv","inputs":[]},{"type":"error","name":"SafeERC20FailedOperation","inputs":[{"name":"token","type":"address","internalType":"address"}]},{"type":"error","name":"TipRateCannotExceedOneHundredPercent","inputs":[]}],"bytecode":{"object":"0x60c060405234801561000f575f80fd5b506040516121f63803806121f683398101604081905261002e91610268565b828083836040518060400160405280600b81526020016a455243343632364d6f636b60a81b8152506040518060400160405280600681526020016545343632364d60d01b8152508160039081610084919061033c565b506004610091828261033c565b5050600880546001600160a01b0319166001600160a01b038516908117909155600583905560408051637aaceb9560e01b81529051919250637aaceb9591600480830192602092919082900301815f875af11580156100f2573d5f803e3d5ffd5b505050506040513d601f19601f8201168201806040525081019061011691906103f6565b600780546001600160a01b0319166001600160a01b03929092169190911790555050426006555f8061014783610177565b9150915081610157576012610159565b805b60ff1660a05250506001600160a01b03166080525061044392505050565b60408051600481526024810182526020810180516001600160e01b031663313ce56760e01b17905290515f918291829182916001600160a01b038716916101bd91610416565b5f60405180830381855afa9150503d805f81146101f5576040519150601f19603f3d011682016040523d82523d5f602084013e6101fa565b606091505b509150915081801561020e57506020815110155b15610241575f81806020019051810190610228919061042c565b905060ff811161023f576001969095509350505050565b505b505f9485945092505050565b80516001600160a01b0381168114610263575f80fd5b919050565b5f805f6060848603121561027a575f80fd5b6102838461024d565b92506102916020850161024d565b6040949094015192959394509192915050565b634e487b7160e01b5f52604160045260245ffd5b600181811c908216806102cc57607f821691505b6020821081036102ea57634e487b7160e01b5f52602260045260245ffd5b50919050565b601f82111561033757805f5260205f20601f840160051c810160208510156103155750805b601f840160051c820191505b81811015610334575f8155600101610321565b50505b505050565b81516001600160401b03811115610355576103556102a4565b6103698161036384546102b8565b846102f0565b6020601f82116001811461039b575f83156103845750848201515b5f19600385901b1c1916600184901b178455610334565b5f84815260208120601f198516915b828110156103ca57878501518255602094850194600190920191016103aa565b50848210156103e757868401515f19600387901b60f8161c191681555b50505050600190811b01905550565b5f60208284031215610406575f80fd5b61040f8261024d565b9392505050565b5f82518060208501845e5f920191825250919050565b5f6020828403121561043c575f80fd5b5051919050565b60805160a051611d7d6104795f395f61086001525f81816103d7015281816106e701528181610f9301526110d00152611d7d5ff3fe608060405234801561000f575f80fd5b50600436106102ff575f3560e01c80637aaceb9511610195578063c6e6f592116100e4578063dd62ed3e1161009e578063f1cd665b11610079578063f1cd665b146106a8578063f28e093d14610423578063f8a8fd6d1461038e578063ff32a42a146106bd575f80fd5b8063dd62ed3e146105fd578063e37d5b7f14610635578063ef8b30f714610594575f80fd5b8063c6e6f59214610594578063cc5b1e55146105a7578063ce96cb77146105b5578063d25dd101146105c8578063d905777e146105ea578063dc9de0a8146104ed575f80fd5b8063a9059cbb1161014f578063b64d620e1161012a578063b64d620e1461037c578063ba08765214610573578063bb5adaea14610586578063c63d75b61461040f575f80fd5b8063a9059cbb1461053a578063b3d7f6b91461054d578063b460af9414610560575f80fd5b80637aaceb95146104da57806386651203146104ed57806394bf804d146104fe57806395d89b411461051157806396c25a38146105195780639dc29fac14610527575f80fd5b806338d52e0f116102515780634cdad5061161020b5780636e553f65116101e65780636e553f651461048057806370a082311461049357806371aedbc1146104bb5780637943fdc2146104c4575f80fd5b80634cdad506146103335780635822198f146104655780636848262614610478575f80fd5b806338d52e0f146103d5578063402d267d1461040f57806340c10f1914610423578063481c6a75146104365780634834bd8614610449578063498e76a01461045c575f80fd5b80630e4a840d116102bc57806323b872dd1161029757806323b872dd146103a05780632755cd2d146103b3578063313ce567146103bb5780633403c2fc1461038e575f80fd5b80630e4a840d1461037c57806318160ddd1461039057806318d08d0b14610398575f80fd5b806301e1d1141461030357806306fdde031461031e57806307a2d13a14610333578063095ea7b3146103465780630a28a477146103695780630cf0654e1461037c575b5f80fd5b61030b6106d0565b6040519081526020015b60405180910390f35b61032661075d565b6040516103159190611796565b61030b6103413660046117cb565b6107ed565b610359610354366004611806565b6107fe565b6040519015158152602001610315565b61030b6103773660046117cb565b610815565b61038e61038a366004611830565b5050565b005b60025461030b565b61038e610821565b6103596103ae3660046118a1565b61082b565b61030b610850565b6103c3610859565b60405160ff9091168152602001610315565b7f00000000000000000000000000000000000000000000000000000000000000005b6040516001600160a01b039091168152602001610315565b61030b61041d3660046118df565b505f1990565b61038e610431366004611806565b610884565b6008546103f7906001600160a01b031681565b61030b6104573660046118df565b505f90565b61030b60055481565b61038e6104733660046117cb565b61088e565b61030b610897565b61030b61048e3660046118fa565b61091d565b61030b6104a13660046118df565b6001600160a01b03165f9081526020819052604090205490565b61030b60065481565b61030b6104d2366004611928565b5f9392505050565b6007546103f7906001600160a01b031681565b61038e6104fb3660046117cb565b50565b61030b61050c3660046118fa565b610928565b610326610959565b61038e6104fb3660046118df565b61038e610535366004611806565b610968565b610359610548366004611806565b610972565b61030b61055b3660046117cb565b61097f565b61030b61056e366004611928565b61098b565b61030b610581366004611928565b610997565b61038e61038a366004611806565b61030b6105a23660046117cb565b6109ed565b61038e6104fb36600461197b565b61030b6105c33660046118df565b6109f8565b6103596105d63660046118df565b600a6020525f908152604090205460ff1681565b61030b6105f83660046118df565b610a1a565b61030b61060b366004611a3b565b6001600160a01b039182165f90815260016020908152604080832093909416825291909152205490565b61038e6106433660046118df565b6001600160a01b03165f818152600a60205260408120805460ff191660019081179091556009805491820181559091527f6e1540171b6c0c960b71a7020d9f60077f6af931a8bbf590da0223dacf75c7af0180546001600160a01b0319169091179055565b6106b0610a37565b6040516103159190611a67565b6103f76106cb3660046117cb565b610a96565b6040516370a0823160e01b81523060048201525f907f00000000000000000000000000000000000000000000000000000000000000006001600160a01b0316906370a0823190602401602060405180830381865afa158015610734573d5f803e3d5ffd5b505050506040513d601f19601f820116820180604052508101906107589190611ab2565b905090565b60606003805461076c90611ac9565b80601f016020809104026020016040519081016040528092919081815260200182805461079890611ac9565b80156107e35780601f106107ba576101008083540402835291602001916107e3565b820191905f5260205f20905b8154815290600101906020018083116107c657829003601f168201915b5050505050905090565b5f6107f8825f610abe565b92915050565b5f3361080b818585610af6565b5060019392505050565b5f6107f8826001610b08565b610829610b37565b565b5f33610838858285610c91565b610843858585610cf9565b60019150505b9392505050565b5f610758610d56565b5f610758817f0000000000000000000000000000000000000000000000000000000000000000611b15565b61038a8282610e5f565b6104fb81610e93565b5f80600654426108a79190611b2e565b90505f306001600160a01b03166318160ddd6040518163ffffffff1660e01b8152600401602060405180830381865afa1580156108e6573d5f803e3d5ffd5b505050506040513d601f19601f8201168201806040525081019061090a9190611ab2565b90506109168183610efd565b9250505090565b5f6108498383610f77565b5f5f19610939565b60405180910390fd5b5f6109438561097f565b905061095133858388610f8e565b949350505050565b60606004805461076c90611ac9565b61038a8282611020565b5f3361080b818585610cf9565b5f6107f8826001610abe565b5f610951848484611054565b5f806109a283610a1a565b9050808511156109cb57828582604051632e52afbb60e21b815260040161093093929190611b41565b5f6109d5866107ed565b90506109e4338686848a61109d565b95945050505050565b5f6107f8825f610b08565b6001600160a01b0381165f908152602081905260408120546107f8905f610abe565b6001600160a01b0381165f908152602081905260408120546107f8565b606060098054806020026020016040519081016040528092919081815260200182805480156107e357602002820191905f5260205f20905b81546001600160a01b03168152600190910190602001808311610a6f575050505050905090565b60098181548110610aa5575f80fd5b5f918252602090912001546001600160a01b0316905081565b5f610849610aca6106d0565b610ad5906001611b62565b610ae05f600a611c58565b600254610aed9190611b62565b8591908561115d565b610b0383838360016111a0565b505050565b5f610849610b1782600a611c58565b600254610b249190611b62565b610b2c6106d0565b610aed906001611b62565b60085f9054906101000a90046001600160a01b03166001600160a01b0316637aaceb956040518163ffffffff1660e01b81526004016020604051808303815f875af1158015610b88573d5f803e3d5ffd5b505050506040513d601f19601f82011682018060405250810190610bac9190611c66565b600780546001600160a01b0319166001600160a01b03929092169182179055610be857604051631d2f8a9960e01b815260040160405180910390fd5b60085460408051637aaceb9560e01b815290517fba7f8033d690b39fb06e1eb3a0ef57ae8ce342fa4cd8d4f24f870e1e22931644926001600160a01b031691637aaceb9591600480830192602092919082900301815f875af1158015610c50573d5f803e3d5ffd5b505050506040513d601f19601f82011682018060405250810190610c749190611c66565b6040516001600160a01b03909116815260200160405180910390a1565b6001600160a01b038381165f908152600160209081526040808320938616835292905220545f198114610cf35781811015610ce557828183604051637dc7a0d960e11b815260040161093093929190611b41565b610cf384848484035f6111a0565b50505050565b6001600160a01b038316610d2257604051634b637e8f60e11b81525f6004820152602401610930565b6001600160a01b038216610d4b5760405163ec442f0560e01b81525f6004820152602401610930565b610b03838383611264565b5f610d6a600554610d665f611377565b1490565b15610d785750426006555f90565b5f60065442610d879190611b2e565b9050805f03610d97575f91505090565b5f306001600160a01b03166318160ddd6040518163ffffffff1660e01b8152600401602060405180830381865afa158015610dd4573d5f803e3d5ffd5b505050506040513d601f19601f82011682018060405250810190610df89190611ab2565b9050610e048183610efd565b92508215610e5a57600754610e22906001600160a01b031684610884565b426006556040518381527f698f29fe990d4e7770f7e74cd309da261dd03ca828f7bb3c2ea8b8c9adcc0ecd9060200160405180910390a15b505090565b6001600160a01b038216610e885760405163ec442f0560e01b81525f6004820152602401610930565b61038a5f8383611264565b610e9c8161138e565b610eb9576040516319ecf1a560e31b815260040160405180910390fd5b610ec1610d56565b5060058190556040518181527f186e864438b783eec69fd7ce4871c28accfc0b45558ea08c48540f76094fecde9060200160405180910390a150565b5f806301e13380600554610f119190611c95565b90505f610f54610f37610f266012600a611ca8565b610f31906064611cb3565b846113af565b85610f446012600a611ca8565b610f4f906064611cb3565b6113ba565b90505f610f618683611493565b9050610f6d8682611b2e565b9695505050505050565b5f5f195f610f84856109ed565b9050610951338587845b610fba7f00000000000000000000000000000000000000000000000000000000000000008530856114bf565b610fc48382610e5f565b826001600160a01b0316846001600160a01b03167fdcbc1c05240f31ff3ad067ef1ee35ce4997762752e3a095284754544f4c709d78484604051611012929190918252602082015260400190565b60405180910390a350505050565b6001600160a01b03821661104957604051634b637e8f60e11b81525f6004820152602401610930565b61038a825f83611264565b5f8061105f836109f8565b90508085111561108857828582604051633fa733bb60e21b815260040161093093929190611b41565b5f61109286610815565b90506109e433868689855b826001600160a01b0316856001600160a01b0316146110c1576110c1838683610c91565b6110cb8382611020565b6110f67f00000000000000000000000000000000000000000000000000000000000000008584611526565b826001600160a01b0316846001600160a01b0316866001600160a01b03167ffbde797d201c681b91056529119e0b02407c7bb96a4a2c75c01fc9667232c8db858560405161114e929190918252602082015260400190565b60405180910390a45050505050565b5f8061116a868686611557565b905061117583611616565b801561119057505f848061118b5761118b611c81565b868809115b156109e457610f6d600182611b62565b6001600160a01b0384166111c95760405163e602df0560e01b81525f6004820152602401610930565b6001600160a01b0383166111f257604051634a1406b160e11b81525f6004820152602401610930565b6001600160a01b038085165f9081526001602090815260408083209387168352929052208290558015610cf357826001600160a01b0316846001600160a01b03167f8c5be1e5ebec7d5bd14f71427d1e84f3dd0314c0f7b2291e5b200ac8c7c3b9258460405161101291815260200190565b6001600160a01b03831661128e578060025f8282546112839190611b62565b909155506112eb9050565b6001600160a01b0383165f90815260208190526040902054818110156112cd5783818360405163391434e360e21b815260040161093093929190611b41565b6001600160a01b0384165f9081526020819052604090209082900390555b6001600160a01b03821661130757600280548290039055611325565b6001600160a01b0382165f9081526020819052604090208054820190555b816001600160a01b0316836001600160a01b03167fddf252ad1be2c89b69c2b068fc378daa952ba7f163c4a11628f55a4df523b3ef8360405161136a91815260200190565b60405180910390a3505050565b5f6113846012600a611ca8565b6107f89083611cb3565b5f6107f88261139f6012600a611ca8565b6113aa906064611cb3565b101590565b5f6108498284611b62565b5f8382828215806113c9575085155b156113ee5785156113e2576113dd5f611377565b6113e4565b845b9350505050610849565b6113f9600287611cca565b156114045782611406565b815b90505f611414600284611c95565b90506002870496505b8615611488578384028485820414611433575f80fd5b81810181811015611442575f80fd5b849004945050600187161561147d578382028285820414158515151615611467575f80fd5b81810181811015611476575f80fd5b8490049250505b60028704965061141d565b509695505050505050565b5f6114a06012600a611ca8565b6114ab906064611cb3565b6114b58385611cb3565b6108499190611c95565b6040516001600160a01b038481166024830152838116604483015260648201839052610cf39186918216906323b872dd906084015b604051602081830303815290604052915060e01b6020820180516001600160e01b038381831617835250505050611642565b6040516001600160a01b03838116602483015260448201839052610b0391859182169063a9059cbb906064016114f4565b5f838302815f1985870982811083820303915050805f0361158b5783828161158157611581611c81565b0492505050610849565b8084116115ab5760405163227bc15360e01b815260040160405180910390fd5b5f848688095f868103871696879004966002600389028118808a02820302808a02820302808a02820302808a02820302808a02820302808a02909103029181900381900460010186841190950394909402919094039290920491909117919091029150509392505050565b5f600282600381111561162b5761162b611cdd565b6116359190611cf1565b60ff166001149050919050565b5f6116566001600160a01b038416836116a3565b905080515f1415801561167a5750808060200190518101906116789190611d12565b155b15610b0357604051635274afe760e01b81526001600160a01b0384166004820152602401610930565b606061084983835f845f80856001600160a01b031684866040516116c79190611d31565b5f6040518083038185875af1925050503d805f8114611701576040519150601f19603f3d011682016040523d82523d5f602084013e611706565b606091505b5091509150610f6d868383606082611726576117218261176d565b610849565b815115801561173d57506001600160a01b0384163b155b1561176657604051639996b31560e01b81526001600160a01b0385166004820152602401610930565b5080610849565b80511561177d5780518082602001fd5b604051630a12f52160e11b815260040160405180910390fd5b602081525f82518060208401528060208501604085015e5f604082850101526040601f19601f83011684010191505092915050565b5f602082840312156117db575f80fd5b5035919050565b6001600160a01b03811681146104fb575f80fd5b8035611801816117e2565b919050565b5f8060408385031215611817575f80fd5b8235611822816117e2565b946020939093013593505050565b5f8060208385031215611841575f80fd5b823567ffffffffffffffff811115611857575f80fd5b8301601f81018513611867575f80fd5b803567ffffffffffffffff81111561187d575f80fd5b856020606083028401011115611891575f80fd5b6020919091019590945092505050565b5f805f606084860312156118b3575f80fd5b83356118be816117e2565b925060208401356118ce816117e2565b929592945050506040919091013590565b5f602082840312156118ef575f80fd5b8135610849816117e2565b5f806040838503121561190b575f80fd5b82359150602083013561191d816117e2565b809150509250929050565b5f805f6060848603121561193a575f80fd5b83359250602084013561194c816117e2565b9150604084013561195c816117e2565b809150509250925092565b634e487b7160e01b5f52604160045260245ffd5b5f6020828403121561198b575f80fd5b813567ffffffffffffffff8111156119a1575f80fd5b8201601f810184136119b1575f80fd5b803567ffffffffffffffff8111156119cb576119cb611967565b8060051b604051601f19603f830116810181811067ffffffffffffffff821117156119f8576119f8611967565b604052918252602081840181019290810187841115611a15575f80fd5b6020850194505b8385101561148857611a2d856117f6565b815260209485019401611a1c565b5f8060408385031215611a4c575f80fd5b8235611a57816117e2565b9150602083013561191d816117e2565b602080825282518282018190525f918401906040840190835b81811015611aa75783516001600160a01b0316835260209384019390920191600101611a80565b509095945050505050565b5f60208284031215611ac2575f80fd5b5051919050565b600181811c90821680611add57607f821691505b602082108103611afb57634e487b7160e01b5f52602260045260245ffd5b50919050565b634e487b7160e01b5f52601160045260245ffd5b60ff81811683821601908111156107f8576107f8611b01565b818103818111156107f8576107f8611b01565b6001600160a01b039390931683526020830191909152604082015260600190565b808201808211156107f8576107f8611b01565b6001815b6001841115611bb057808504811115611b9457611b94611b01565b6001841615611ba257908102905b60019390931c928002611b79565b935093915050565b5f82611bc6575060016107f8565b81611bd257505f6107f8565b8160018114611be85760028114611bf257611c0e565b60019150506107f8565b60ff841115611c0357611c03611b01565b50506001821b6107f8565b5060208310610133831016604e8410600b8410161715611c31575081810a6107f8565b611c3d5f198484611b75565b805f1904821115611c5057611c50611b01565b029392505050565b5f61084960ff841683611bb8565b5f60208284031215611c76575f80fd5b8151610849816117e2565b634e487b7160e01b5f52601260045260245ffd5b5f82611ca357611ca3611c81565b500490565b5f6108498383611bb8565b80820281158282048414176107f8576107f8611b01565b5f82611cd857611cd8611c81565b500690565b634e487b7160e01b5f52602160045260245ffd5b5f60ff831680611d0357611d03611c81565b8060ff84160691505092915050565b5f60208284031215611d22575f80fd5b81518015158114610849575f80fd5b5f82518060208501845e5f92019182525091905056fea264697066735822122019d89af26602b390200a113479dbec731fe5d1d0261be9d8a0a6116137efdbc864736f6c634300081a0033","linkReferences":{}},"methodIdentifiers":{"addArk(address)":"e37d5b7f","addArks(address[])":"cc5b1e55","adjustBuffer((address,address,uint256)[])":"0e4a840d","allowance(address,address)":"dd62ed3e","approve(address,uint256)":"095ea7b3","arks(uint256)":"ff32a42a","asset()":"38d52e0f","balanceOf(address)":"70a08231","burn(address,uint256)":"9dc29fac","convertToAssets(uint256)":"07a2d13a","convertToShares(uint256)":"c6e6f592","decimals()":"313ce567","deposit(uint256,address)":"6e553f65","emergencyShutdown()":"3403c2fc","estimateAccruedTip()":"68482626","forceRebalance((address,address,uint256)[])":"0cf0654e","forceWithdraw(uint256,address,address)":"7943fdc2","getArks()":"f1cd665b","isArkActive(address)":"d25dd101","lastTipTimestamp()":"71aedbc1","manager()":"481c6a75","maxDeposit(address)":"402d267d","maxForceWithdraw(address)":"4834bd86","maxMint(address)":"c63d75b6","maxRedeem(address)":"d905777e","maxWithdraw(address)":"ce96cb77","mint(address,uint256)":"40c10f19","mint(uint256,address)":"94bf804d","name()":"06fdde03","previewDeposit(uint256)":"ef8b30f7","previewMint(uint256)":"b3d7f6b9","previewRedeem(uint256)":"4cdad506","previewWithdraw(uint256)":"0a28a477","rebalance((address,address,uint256)[])":"b64d620e","redeem(uint256,address,address)":"ba087652","removeArk(address)":"96c25a38","setDepositCap(uint256)":"86651203","setMaxAllocation(address,uint256)":"bb5adaea","setTipJar()":"18d08d0b","setTipRate(uint256)":"5822198f","symbol()":"95d89b41","test()":"f8a8fd6d","testMint(address,uint256)":"f28e093d","tip()":"2755cd2d","tipJar()":"7aaceb95","tipRate()":"498e76a0","totalAssets()":"01e1d114","totalSupply()":"18160ddd","transfer(address,uint256)":"a9059cbb","transferFrom(address,address,uint256)":"23b872dd","updateRebalanceCooldown(uint256)":"dc9de0a8","withdraw(uint256,address,address)":"b460af94"},"id":151}