{"abi":[{"type":"constructor","inputs":[{"name":"underlying","type":"address","internalType":"address"},{"name":"configurationManager","type":"address","internalType":"address"},{"name":"initialTipRate","type":"uint256","internalType":"Percentage"}],"stateMutability":"nonpayable"},{"type":"function","name":"addArk","inputs":[{"name":"ark","type":"address","internalType":"address"}],"outputs":[],"stateMutability":"nonpayable"},{"type":"function","name":"addArks","inputs":[{"name":"_arks","type":"address[]","internalType":"address[]"}],"outputs":[],"stateMutability":"nonpayable"},{"type":"function","name":"adjustBuffer","inputs":[{"name":"data","type":"tuple[]","internalType":"struct RebalanceData[]","components":[{"name":"fromArk","type":"address","internalType":"address"},{"name":"toArk","type":"address","internalType":"address"},{"name":"amount","type":"uint256","internalType":"uint256"}]}],"outputs":[],"stateMutability":"nonpayable"},{"type":"function","name":"allowance","inputs":[{"name":"owner","type":"address","internalType":"address"},{"name":"spender","type":"address","internalType":"address"}],"outputs":[{"name":"","type":"uint256","internalType":"uint256"}],"stateMutability":"view"},{"type":"function","name":"approve","inputs":[{"name":"spender","type":"address","internalType":"address"},{"name":"value","type":"uint256","internalType":"uint256"}],"outputs":[{"name":"","type":"bool","internalType":"bool"}],"stateMutability":"nonpayable"},{"type":"function","name":"arks","inputs":[{"name":"","type":"uint256","internalType":"uint256"}],"outputs":[{"name":"","type":"address","internalType":"address"}],"stateMutability":"view"},{"type":"function","name":"asset","inputs":[],"outputs":[{"name":"","type":"address","internalType":"address"}],"stateMutability":"view"},{"type":"function","name":"balanceOf","inputs":[{"name":"account","type":"address","internalType":"address"}],"outputs":[{"name":"","type":"uint256","internalType":"uint256"}],"stateMutability":"view"},{"type":"function","name":"burn","inputs":[{"name":"account","type":"address","internalType":"address"},{"name":"amount","type":"uint256","internalType":"uint256"}],"outputs":[],"stateMutability":"nonpayable"},{"type":"function","name":"config","inputs":[],"outputs":[{"name":"bufferArk","type":"address","internalType":"contract IArk"},{"name":"minimumBufferBalance","type":"uint256","internalType":"uint256"},{"name":"depositCap","type":"uint256","internalType":"uint256"}],"stateMutability":"view"},{"type":"function","name":"convertToAssets","inputs":[{"name":"shares","type":"uint256","internalType":"uint256"}],"outputs":[{"name":"","type":"uint256","internalType":"uint256"}],"stateMutability":"view"},{"type":"function","name":"convertToShares","inputs":[{"name":"assets","type":"uint256","internalType":"uint256"}],"outputs":[{"name":"","type":"uint256","internalType":"uint256"}],"stateMutability":"view"},{"type":"function","name":"decimals","inputs":[],"outputs":[{"name":"","type":"uint8","internalType":"uint8"}],"stateMutability":"view"},{"type":"function","name":"deposit","inputs":[{"name":"assets","type":"uint256","internalType":"uint256"},{"name":"receiver","type":"address","internalType":"address"}],"outputs":[{"name":"","type":"uint256","internalType":"uint256"}],"stateMutability":"nonpayable"},{"type":"function","name":"emergencyShutdown","inputs":[],"outputs":[],"stateMutability":"nonpayable"},{"type":"function","name":"estimateAccruedTip","inputs":[],"outputs":[{"name":"","type":"uint256","internalType":"uint256"}],"stateMutability":"view"},{"type":"function","name":"forceRebalance","inputs":[{"name":"data","type":"tuple[]","internalType":"struct RebalanceData[]","components":[{"name":"fromArk","type":"address","internalType":"address"},{"name":"toArk","type":"address","internalType":"address"},{"name":"amount","type":"uint256","internalType":"uint256"}]}],"outputs":[],"stateMutability":"nonpayable"},{"type":"function","name":"getArks","inputs":[],"outputs":[{"name":"","type":"address[]","internalType":"address[]"}],"stateMutability":"view"},{"type":"function","name":"isArkActive","inputs":[{"name":"","type":"address","internalType":"address"}],"outputs":[{"name":"","type":"bool","internalType":"bool"}],"stateMutability":"view"},{"type":"function","name":"lastTipTimestamp","inputs":[],"outputs":[{"name":"","type":"uint256","internalType":"uint256"}],"stateMutability":"view"},{"type":"function","name":"manager","inputs":[],"outputs":[{"name":"","type":"address","internalType":"contract IConfigurationManager"}],"stateMutability":"view"},{"type":"function","name":"maxBufferWithdraw","inputs":[{"name":"owner","type":"address","internalType":"address"}],"outputs":[{"name":"","type":"uint256","internalType":"uint256"}],"stateMutability":"view"},{"type":"function","name":"maxDeposit","inputs":[{"name":"","type":"address","internalType":"address"}],"outputs":[{"name":"","type":"uint256","internalType":"uint256"}],"stateMutability":"view"},{"type":"function","name":"maxMint","inputs":[{"name":"","type":"address","internalType":"address"}],"outputs":[{"name":"","type":"uint256","internalType":"uint256"}],"stateMutability":"view"},{"type":"function","name":"maxRedeem","inputs":[{"name":"owner","type":"address","internalType":"address"}],"outputs":[{"name":"","type":"uint256","internalType":"uint256"}],"stateMutability":"view"},{"type":"function","name":"maxWithdraw","inputs":[{"name":"owner","type":"address","internalType":"address"}],"outputs":[{"name":"","type":"uint256","internalType":"uint256"}],"stateMutability":"view"},{"type":"function","name":"mint","inputs":[{"name":"account","type":"address","internalType":"address"},{"name":"amount","type":"uint256","internalType":"uint256"}],"outputs":[],"stateMutability":"nonpayable"},{"type":"function","name":"mint","inputs":[{"name":"shares","type":"uint256","internalType":"uint256"},{"name":"receiver","type":"address","internalType":"address"}],"outputs":[{"name":"","type":"uint256","internalType":"uint256"}],"stateMutability":"nonpayable"},{"type":"function","name":"name","inputs":[],"outputs":[{"name":"","type":"string","internalType":"string"}],"stateMutability":"view"},{"type":"function","name":"previewDeposit","inputs":[{"name":"assets","type":"uint256","internalType":"uint256"}],"outputs":[{"name":"","type":"uint256","internalType":"uint256"}],"stateMutability":"view"},{"type":"function","name":"previewMint","inputs":[{"name":"shares","type":"uint256","internalType":"uint256"}],"outputs":[{"name":"","type":"uint256","internalType":"uint256"}],"stateMutability":"view"},{"type":"function","name":"previewRedeem","inputs":[{"name":"shares","type":"uint256","internalType":"uint256"}],"outputs":[{"name":"","type":"uint256","internalType":"uint256"}],"stateMutability":"view"},{"type":"function","name":"previewWithdraw","inputs":[{"name":"assets","type":"uint256","internalType":"uint256"}],"outputs":[{"name":"","type":"uint256","internalType":"uint256"}],"stateMutability":"view"},{"type":"function","name":"rebalance","inputs":[{"name":"data","type":"tuple[]","internalType":"struct RebalanceData[]","components":[{"name":"fromArk","type":"address","internalType":"address"},{"name":"toArk","type":"address","internalType":"address"},{"name":"amount","type":"uint256","internalType":"uint256"}]}],"outputs":[],"stateMutability":"nonpayable"},{"type":"function","name":"redeem","inputs":[{"name":"shares","type":"uint256","internalType":"uint256"},{"name":"receiver","type":"address","internalType":"address"},{"name":"owner","type":"address","internalType":"address"}],"outputs":[{"name":"","type":"uint256","internalType":"uint256"}],"stateMutability":"nonpayable"},{"type":"function","name":"redeemFromArks","inputs":[{"name":"shares","type":"uint256","internalType":"uint256"},{"name":"receiver","type":"address","internalType":"address"},{"name":"owner","type":"address","internalType":"address"}],"outputs":[{"name":"","type":"uint256","internalType":"uint256"}],"stateMutability":"nonpayable"},{"type":"function","name":"redeemFromBuffer","inputs":[{"name":"shares","type":"uint256","internalType":"uint256"},{"name":"receiver","type":"address","internalType":"address"},{"name":"owner","type":"address","internalType":"address"}],"outputs":[{"name":"","type":"uint256","internalType":"uint256"}],"stateMutability":"nonpayable"},{"type":"function","name":"removeArk","inputs":[{"name":"ark","type":"address","internalType":"address"}],"outputs":[],"stateMutability":"nonpayable"},{"type":"function","name":"setArkDepositCap","inputs":[{"name":"ark","type":"address","internalType":"address"},{"name":"newDepositCap","type":"uint256","internalType":"uint256"}],"outputs":[],"stateMutability":"nonpayable"},{"type":"function","name":"setArkMaxRebalanceInflow","inputs":[{"name":"ark","type":"address","internalType":"address"},{"name":"newMaxRebalanceInflow","type":"uint256","internalType":"uint256"}],"outputs":[],"stateMutability":"nonpayable"},{"type":"function","name":"setArkMaxRebalanceOutflow","inputs":[{"name":"ark","type":"address","internalType":"address"},{"name":"newMaxRebalanceOutflow","type":"uint256","internalType":"uint256"}],"outputs":[],"stateMutability":"nonpayable"},{"type":"function","name":"setDepositCap","inputs":[{"name":"ark","type":"address","internalType":"address"},{"name":"newDepositCap","type":"uint256","internalType":"uint256"}],"outputs":[],"stateMutability":"nonpayable"},{"type":"function","name":"setFleetDepositCap","inputs":[{"name":"newCap","type":"uint256","internalType":"uint256"}],"outputs":[],"stateMutability":"nonpayable"},{"type":"function","name":"setMinimumBufferBalance","inputs":[{"name":"newMinimumBalance","type":"uint256","internalType":"uint256"}],"outputs":[],"stateMutability":"nonpayable"},{"type":"function","name":"setTipJar","inputs":[],"outputs":[],"stateMutability":"nonpayable"},{"type":"function","name":"setTipRate","inputs":[{"name":"newTipRate","type":"uint256","internalType":"Percentage"}],"outputs":[],"stateMutability":"nonpayable"},{"type":"function","name":"symbol","inputs":[],"outputs":[{"name":"","type":"string","internalType":"string"}],"stateMutability":"view"},{"type":"function","name":"test","inputs":[],"outputs":[],"stateMutability":"nonpayable"},{"type":"function","name":"testMint","inputs":[{"name":"account","type":"address","internalType":"address"},{"name":"amount","type":"uint256","internalType":"uint256"}],"outputs":[],"stateMutability":"nonpayable"},{"type":"function","name":"tip","inputs":[],"outputs":[{"name":"","type":"uint256","internalType":"uint256"}],"stateMutability":"nonpayable"},{"type":"function","name":"tipJar","inputs":[],"outputs":[{"name":"","type":"address","internalType":"address"}],"stateMutability":"view"},{"type":"function","name":"tipRate","inputs":[],"outputs":[{"name":"","type":"uint256","internalType":"Percentage"}],"stateMutability":"view"},{"type":"function","name":"totalAssets","inputs":[],"outputs":[{"name":"","type":"uint256","internalType":"uint256"}],"stateMutability":"view"},{"type":"function","name":"totalSupply","inputs":[],"outputs":[{"name":"","type":"uint256","internalType":"uint256"}],"stateMutability":"view"},{"type":"function","name":"transfer","inputs":[{"name":"to","type":"address","internalType":"address"},{"name":"value","type":"uint256","internalType":"uint256"}],"outputs":[{"name":"","type":"bool","internalType":"bool"}],"stateMutability":"nonpayable"},{"type":"function","name":"transferFrom","inputs":[{"name":"from","type":"address","internalType":"address"},{"name":"to","type":"address","internalType":"address"},{"name":"value","type":"uint256","internalType":"uint256"}],"outputs":[{"name":"","type":"bool","internalType":"bool"}],"stateMutability":"nonpayable"},{"type":"function","name":"updateRebalanceCooldown","inputs":[{"name":"newCooldown","type":"uint256","internalType":"uint256"}],"outputs":[],"stateMutability":"nonpayable"},{"type":"function","name":"withdraw","inputs":[{"name":"assets","type":"uint256","internalType":"uint256"},{"name":"receiver","type":"address","internalType":"address"},{"name":"owner","type":"address","internalType":"address"}],"outputs":[{"name":"","type":"uint256","internalType":"uint256"}],"stateMutability":"nonpayable"},{"type":"function","name":"withdrawFromArks","inputs":[{"name":"shares","type":"uint256","internalType":"uint256"},{"name":"receiver","type":"address","internalType":"address"},{"name":"owner","type":"address","internalType":"address"}],"outputs":[{"name":"","type":"uint256","internalType":"uint256"}],"stateMutability":"nonpayable"},{"type":"function","name":"withdrawFromBuffer","inputs":[{"name":"shares","type":"uint256","internalType":"uint256"},{"name":"receiver","type":"address","internalType":"address"},{"name":"owner","type":"address","internalType":"address"}],"outputs":[{"name":"","type":"uint256","internalType":"uint256"}],"stateMutability":"nonpayable"},{"type":"event","name":"Approval","inputs":[{"name":"owner","type":"address","indexed":true,"internalType":"address"},{"name":"spender","type":"address","indexed":true,"internalType":"address"},{"name":"value","type":"uint256","indexed":false,"internalType":"uint256"}],"anonymous":false},{"type":"event","name":"ArkAdded","inputs":[{"name":"ark","type":"address","indexed":true,"internalType":"address"}],"anonymous":false},{"type":"event","name":"ArkRemoved","inputs":[{"name":"ark","type":"address","indexed":true,"internalType":"address"}],"anonymous":false},{"type":"event","name":"Deposit","inputs":[{"name":"sender","type":"address","indexed":true,"internalType":"address"},{"name":"owner","type":"address","indexed":true,"internalType":"address"},{"name":"assets","type":"uint256","indexed":false,"internalType":"uint256"},{"name":"shares","type":"uint256","indexed":false,"internalType":"uint256"}],"anonymous":false},{"type":"event","name":"DepositCapUpdated","inputs":[{"name":"newCap","type":"uint256","indexed":false,"internalType":"uint256"}],"anonymous":false},{"type":"event","name":"FeeAddressUpdated","inputs":[{"name":"newAddress","type":"address","indexed":false,"internalType":"address"}],"anonymous":false},{"type":"event","name":"FleetCommanderBufferAdjusted","inputs":[{"name":"keeper","type":"address","indexed":true,"internalType":"address"},{"name":"totalMoved","type":"uint256","indexed":false,"internalType":"uint256"}],"anonymous":false},{"type":"event","name":"FleetCommanderRedeemedFromArks","inputs":[{"name":"owner","type":"address","indexed":true,"internalType":"address"},{"name":"receiver","type":"address","indexed":false,"internalType":"address"},{"name":"totalRedeemed","type":"uint256","indexed":false,"internalType":"uint256"}],"anonymous":false},{"type":"event","name":"FleetCommanderWithdrawnFromArks","inputs":[{"name":"owner","type":"address","indexed":true,"internalType":"address"},{"name":"receiver","type":"address","indexed":false,"internalType":"address"},{"name":"totalWithdrawn","type":"uint256","indexed":false,"internalType":"uint256"}],"anonymous":false},{"type":"event","name":"FleetCommanderminimumBufferBalanceUpdated","inputs":[{"name":"newBalance","type":"uint256","indexed":false,"internalType":"uint256"}],"anonymous":false},{"type":"event","name":"FundsBufferBalanceUpdated","inputs":[{"name":"user","type":"address","indexed":true,"internalType":"address"},{"name":"prevBalance","type":"uint256","indexed":false,"internalType":"uint256"},{"name":"newBalance","type":"uint256","indexed":false,"internalType":"uint256"}],"anonymous":false},{"type":"event","name":"FundsQueueRefilled","inputs":[{"name":"keeper","type":"address","indexed":true,"internalType":"address"},{"name":"prevBalance","type":"uint256","indexed":false,"internalType":"uint256"},{"name":"newBalance","type":"uint256","indexed":false,"internalType":"uint256"}],"anonymous":false},{"type":"event","name":"MinFundsQueueBalanceUpdated","inputs":[{"name":"keeper","type":"address","indexed":true,"internalType":"address"},{"name":"newBalance","type":"uint256","indexed":false,"internalType":"uint256"}],"anonymous":false},{"type":"event","name":"QueuedFundsCommitted","inputs":[{"name":"keeper","type":"address","indexed":true,"internalType":"address"},{"name":"prevBalance","type":"uint256","indexed":false,"internalType":"uint256"},{"name":"newBalance","type":"uint256","indexed":false,"internalType":"uint256"}],"anonymous":false},{"type":"event","name":"Rebalanced","inputs":[{"name":"keeper","type":"address","indexed":true,"internalType":"address"},{"name":"rebalances","type":"tuple[]","indexed":false,"internalType":"struct RebalanceData[]","components":[{"name":"fromArk","type":"address","internalType":"address"},{"name":"toArk","type":"address","internalType":"address"},{"name":"amount","type":"uint256","internalType":"uint256"}]}],"anonymous":false},{"type":"event","name":"TipAccrued","inputs":[{"name":"tipAmount","type":"uint256","indexed":false,"internalType":"uint256"}],"anonymous":false},{"type":"event","name":"TipJarUpdated","inputs":[{"name":"newTipJar","type":"address","indexed":false,"internalType":"address"}],"anonymous":false},{"type":"event","name":"TipRateUpdated","inputs":[{"name":"newTipRate","type":"uint256","indexed":false,"internalType":"Percentage"}],"anonymous":false},{"type":"event","name":"Transfer","inputs":[{"name":"from","type":"address","indexed":true,"internalType":"address"},{"name":"to","type":"address","indexed":true,"internalType":"address"},{"name":"value","type":"uint256","indexed":false,"internalType":"uint256"}],"anonymous":false},{"type":"event","name":"Withdraw","inputs":[{"name":"sender","type":"address","indexed":true,"internalType":"address"},{"name":"receiver","type":"address","indexed":true,"internalType":"address"},{"name":"owner","type":"address","indexed":true,"internalType":"address"},{"name":"assets","type":"uint256","indexed":false,"internalType":"uint256"},{"name":"shares","type":"uint256","indexed":false,"internalType":"uint256"}],"anonymous":false},{"type":"error","name":"AddressEmptyCode","inputs":[{"name":"target","type":"address","internalType":"address"}]},{"type":"error","name":"AddressInsufficientBalance","inputs":[{"name":"account","type":"address","internalType":"address"}]},{"type":"error","name":"ERC20InsufficientAllowance","inputs":[{"name":"spender","type":"address","internalType":"address"},{"name":"allowance","type":"uint256","internalType":"uint256"},{"name":"needed","type":"uint256","internalType":"uint256"}]},{"type":"error","name":"ERC20InsufficientBalance","inputs":[{"name":"sender","type":"address","internalType":"address"},{"name":"balance","type":"uint256","internalType":"uint256"},{"name":"needed","type":"uint256","internalType":"uint256"}]},{"type":"error","name":"ERC20InvalidApprover","inputs":[{"name":"approver","type":"address","internalType":"address"}]},{"type":"error","name":"ERC20InvalidReceiver","inputs":[{"name":"receiver","type":"address","internalType":"address"}]},{"type":"error","name":"ERC20InvalidSender","inputs":[{"name":"sender","type":"address","internalType":"address"}]},{"type":"error","name":"ERC20InvalidSpender","inputs":[{"name":"spender","type":"address","internalType":"address"}]},{"type":"error","name":"ERC4626ExceededMaxDeposit","inputs":[{"name":"receiver","type":"address","internalType":"address"},{"name":"assets","type":"uint256","internalType":"uint256"},{"name":"max","type":"uint256","internalType":"uint256"}]},{"type":"error","name":"ERC4626ExceededMaxMint","inputs":[{"name":"receiver","type":"address","internalType":"address"},{"name":"shares","type":"uint256","internalType":"uint256"},{"name":"max","type":"uint256","internalType":"uint256"}]},{"type":"error","name":"ERC4626ExceededMaxRedeem","inputs":[{"name":"owner","type":"address","internalType":"address"},{"name":"shares","type":"uint256","internalType":"uint256"},{"name":"max","type":"uint256","internalType":"uint256"}]},{"type":"error","name":"ERC4626ExceededMaxWithdraw","inputs":[{"name":"owner","type":"address","internalType":"address"},{"name":"assets","type":"uint256","internalType":"uint256"},{"name":"max","type":"uint256","internalType":"uint256"}]},{"type":"error","name":"FailedInnerCall","inputs":[]},{"type":"error","name":"InvalidTipJarAddress","inputs":[]},{"type":"error","name":"MathOverflowedMulDiv","inputs":[]},{"type":"error","name":"SafeERC20FailedOperation","inputs":[{"name":"token","type":"address","internalType":"address"}]},{"type":"error","name":"TipRateCannotExceedOneHundredPercent","inputs":[]}],"bytecode":{"object":"0x60c060405234801561000f575f80fd5b506040516122b53803806122b583398101604081905261002e91610268565b828083836040518060400160405280600b81526020016a455243343632364d6f636b60a81b8152506040518060400160405280600681526020016545343632364d60d01b8152508160039081610084919061033c565b506004610091828261033c565b5050600880546001600160a01b0319166001600160a01b038516908117909155600583905560408051637aaceb9560e01b81529051919250637aaceb9591600480830192602092919082900301815f875af11580156100f2573d5f803e3d5ffd5b505050506040513d601f19601f8201168201806040525081019061011691906103f6565b600780546001600160a01b0319166001600160a01b03929092169190911790555050426006555f8061014783610177565b9150915081610157576012610159565b805b60ff1660a05250506001600160a01b03166080525061044392505050565b60408051600481526024810182526020810180516001600160e01b031663313ce56760e01b17905290515f918291829182916001600160a01b038716916101bd91610416565b5f60405180830381855afa9150503d805f81146101f5576040519150601f19603f3d011682016040523d82523d5f602084013e6101fa565b606091505b509150915081801561020e57506020815110155b15610241575f81806020019051810190610228919061042c565b905060ff811161023f576001969095509350505050565b505b505f9485945092505050565b80516001600160a01b0381168114610263575f80fd5b919050565b5f805f6060848603121561027a575f80fd5b6102838461024d565b92506102916020850161024d565b6040949094015192959394509192915050565b634e487b7160e01b5f52604160045260245ffd5b600181811c908216806102cc57607f821691505b6020821081036102ea57634e487b7160e01b5f52602260045260245ffd5b50919050565b601f82111561033757805f5260205f20601f840160051c810160208510156103155750805b601f840160051c820191505b81811015610334575f8155600101610321565b50505b505050565b81516001600160401b03811115610355576103556102a4565b6103698161036384546102b8565b846102f0565b6020601f82116001811461039b575f83156103845750848201515b5f19600385901b1c1916600184901b178455610334565b5f84815260208120601f198516915b828110156103ca57878501518255602094850194600190920191016103aa565b50848210156103e757868401515f19600387901b60f8161c191681555b50505050600190811b01905550565b5f60208284031215610406575f80fd5b61040f8261024d565b9392505050565b5f82518060208501845e5f920191825250919050565b5f6020828403121561043c575f80fd5b5051919050565b60805160a051611e3c6104795f395f61091e01525f8181610479015281816107a501528181611051015261118e0152611e3c5ff3fe608060405234801561000f575f80fd5b5060043610610393575f3560e01c80637aaceb95116101df578063ce96cb7711610109578063e37d5b7f116100a9578063f357781611610079578063f3577816146104b1578063f878369e14610469578063f8a8fd6d14610422578063ff32a42a1461077b575f80fd5b8063e37d5b7f146106f3578063ef8b30f714610652578063f1cd665b14610766578063f28e093d146104ee575f80fd5b8063d902d41a116100e4578063d902d41a1461051d578063d905777e146106a8578063dc9de0a81461051d578063dd62ed3e146106bb575f80fd5b8063ce96cb7714610673578063d25dd10114610686578063d45a07a114610469575f80fd5b8063b3d7f6b91161017f578063ba0876521161014f578063ba0876521461063f578063c63d75b6146104da578063c6e6f59214610652578063cc5b1e5514610665575f80fd5b8063b3d7f6b914610619578063b460af941461062c578063b637766c14610469578063b64d620e14610410575f80fd5b806396c25a38116101ba57806396c25a38146105e55780639dc29fac146105f3578063a039e944146104b1578063a9059cbb14610606575f80fd5b80637aaceb95146105b757806394bf804d146105ca57806395d89b41146105dd575f80fd5b80633a7c9f0e116102c05780634daecb9c116102605780636e553f65116102305780636e553f651461054957806370a082311461055c57806371aedbc11461058457806379502c551461058d575f80fd5b80634daecb9c1461051d5780635822198f1461052e5780635f538f6f146104b15780636848262614610541575f80fd5b806340c10f191161029b57806340c10f19146104ee578063481c6a7514610501578063498e76a0146105145780634cdad506146103c7575f80fd5b80633a7c9f0e146104b15780633e314c76146104c7578063402d267d146104da575f80fd5b806318160ddd11610336578063313ce56711610306578063313ce5671461044f5780633403c2fc14610422578063340505601461046957806338d52e0f14610477575f80fd5b806318160ddd1461042457806318d08d0b1461042c57806323b872dd146104345780632755cd2d14610447575f80fd5b8063095ea7b311610371578063095ea7b3146103da5780630a28a477146103fd5780630cf0654e146104105780630e4a840d14610410575f80fd5b806301e1d1141461039757806306fdde03146103b257806307a2d13a146103c7575b5f80fd5b61039f61078e565b6040519081526020015b60405180910390f35b6103ba61081b565b6040516103a9919061184a565b61039f6103d536600461187f565b6108ab565b6103ed6103e83660046118ba565b6108bc565b60405190151581526020016103a9565b61039f61040b36600461187f565b6108d3565b61042261041e3660046118e4565b5050565b005b60025461039f565b6104226108df565b6103ed610442366004611955565b6108e9565b61039f61090e565b610457610917565b60405160ff90911681526020016103a9565b61042261041e3660046118ba565b7f00000000000000000000000000000000000000000000000000000000000000005b6040516001600160a01b0390911681526020016103a9565b61039f6104bf366004611993565b5f9392505050565b61039f6104d53660046119d2565b505f90565b61039f6104e83660046119d2565b505f1990565b6104226104fc3660046118ba565b610942565b600854610499906001600160a01b031681565b61039f60055481565b61042261052b36600461187f565b50565b61042261053c36600461187f565b61094c565b61039f610955565b61039f6105573660046119ed565b6109db565b61039f61056a3660046119d2565b6001600160a01b03165f9081526020819052604090205490565b61039f60065481565b600954600a54600b546105a8926001600160a01b0316919083565b6040516103a993929190611a1b565b600754610499906001600160a01b031681565b61039f6105d83660046119ed565b6109e6565b6103ba610a17565b61042261052b3660046119d2565b6104226106013660046118ba565b610a26565b6103ed6106143660046118ba565b610a30565b61039f61062736600461187f565b610a3d565b61039f61063a366004611993565b610a49565b61039f61064d366004611993565b610a55565b61039f61066036600461187f565b610aab565b61042261052b366004611a50565b61039f6106813660046119d2565b610ab6565b6103ed6106943660046119d2565b600d6020525f908152604090205460ff1681565b61039f6106b63660046119d2565b610ad8565b61039f6106c9366004611b1b565b6001600160a01b039182165f90815260016020908152604080832093909416825291909152205490565b6104226107013660046119d2565b6001600160a01b03165f818152600d60205260408120805460ff19166001908117909155600c805491820181559091527fdf6966c971051c3d54ec59162606531493a51404a002842f56009d7e5cf4a8c70180546001600160a01b0319169091179055565b61076e610af5565b6040516103a99190611b47565b61049961078936600461187f565b610b54565b6040516370a0823160e01b81523060048201525f907f00000000000000000000000000000000000000000000000000000000000000006001600160a01b0316906370a0823190602401602060405180830381865afa1580156107f2573d5f803e3d5ffd5b505050506040513d601f19601f820116820180604052508101906108169190611b92565b905090565b60606003805461082a90611ba9565b80601f016020809104026020016040519081016040528092919081815260200182805461085690611ba9565b80156108a15780601f10610878576101008083540402835291602001916108a1565b820191905f5260205f20905b81548152906001019060200180831161088457829003601f168201915b5050505050905090565b5f6108b6825f610b7c565b92915050565b5f336108c9818585610bb4565b5060019392505050565b5f6108b6826001610bc6565b6108e7610bf5565b565b5f336108f6858285610d4f565b610901858585610db7565b60019150505b9392505050565b5f610816610e14565b5f610816817f0000000000000000000000000000000000000000000000000000000000000000611bf5565b61041e8282610f1d565b61052b81610f51565b5f80600654426109659190611c0e565b90505f306001600160a01b03166318160ddd6040518163ffffffff1660e01b8152600401602060405180830381865afa1580156109a4573d5f803e3d5ffd5b505050506040513d601f19601f820116820180604052508101906109c89190611b92565b90506109d48183610fbb565b9250505090565b5f6109078383611035565b5f5f196109f7565b60405180910390fd5b5f610a0185610a3d565b9050610a0f3385838861104c565b949350505050565b60606004805461082a90611ba9565b61041e82826110de565b5f336108c9818585610db7565b5f6108b6826001610b7c565b5f610a0f848484611112565b5f80610a6083610ad8565b905080851115610a8957828582604051632e52afbb60e21b81526004016109ee93929190611a1b565b5f610a93866108ab565b9050610aa2338686848a61115b565b95945050505050565b5f6108b6825f610bc6565b6001600160a01b0381165f908152602081905260408120546108b6905f610b7c565b6001600160a01b0381165f908152602081905260408120546108b6565b6060600c8054806020026020016040519081016040528092919081815260200182805480156108a157602002820191905f5260205f20905b81546001600160a01b03168152600190910190602001808311610b2d575050505050905090565b600c8181548110610b63575f80fd5b5f918252602090912001546001600160a01b0316905081565b5f610907610b8861078e565b610b93906001611c21565b610b9e5f600a611d17565b600254610bab9190611c21565b8591908561121b565b610bc1838383600161125e565b505050565b5f610907610bd582600a611d17565b600254610be29190611c21565b610bea61078e565b610bab906001611c21565b60085f9054906101000a90046001600160a01b03166001600160a01b0316637aaceb956040518163ffffffff1660e01b81526004016020604051808303815f875af1158015610c46573d5f803e3d5ffd5b505050506040513d601f19601f82011682018060405250810190610c6a9190611d25565b600780546001600160a01b0319166001600160a01b03929092169182179055610ca657604051631d2f8a9960e01b815260040160405180910390fd5b60085460408051637aaceb9560e01b815290517fba7f8033d690b39fb06e1eb3a0ef57ae8ce342fa4cd8d4f24f870e1e22931644926001600160a01b031691637aaceb9591600480830192602092919082900301815f875af1158015610d0e573d5f803e3d5ffd5b505050506040513d601f19601f82011682018060405250810190610d329190611d25565b6040516001600160a01b03909116815260200160405180910390a1565b6001600160a01b038381165f908152600160209081526040808320938616835292905220545f198114610db15781811015610da357828183604051637dc7a0d960e11b81526004016109ee93929190611a1b565b610db184848484035f61125e565b50505050565b6001600160a01b038316610de057604051634b637e8f60e11b81525f60048201526024016109ee565b6001600160a01b038216610e095760405163ec442f0560e01b81525f60048201526024016109ee565b610bc1838383611322565b5f610e28600554610e245f611435565b1490565b15610e365750426006555f90565b5f60065442610e459190611c0e565b9050805f03610e55575f91505090565b5f306001600160a01b03166318160ddd6040518163ffffffff1660e01b8152600401602060405180830381865afa158015610e92573d5f803e3d5ffd5b505050506040513d601f19601f82011682018060405250810190610eb69190611b92565b9050610ec28183610fbb565b92508215610f1857600754610ee0906001600160a01b031684610942565b426006556040518381527f698f29fe990d4e7770f7e74cd309da261dd03ca828f7bb3c2ea8b8c9adcc0ecd9060200160405180910390a15b505090565b6001600160a01b038216610f465760405163ec442f0560e01b81525f60048201526024016109ee565b61041e5f8383611322565b610f5a8161144c565b610f77576040516319ecf1a560e31b815260040160405180910390fd5b610f7f610e14565b5060058190556040518181527f186e864438b783eec69fd7ce4871c28accfc0b45558ea08c48540f76094fecde9060200160405180910390a150565b5f806301e13380600554610fcf9190611d54565b90505f611012610ff5610fe46012600a611d67565b610fef906064611d72565b8461146d565b856110026012600a611d67565b61100d906064611d72565b611478565b90505f61101f8683611486565b905061102b8682611c0e565b9695505050505050565b5f5f195f61104285610aab565b9050610a0f338587845b6110787f00000000000000000000000000000000000000000000000000000000000000008530856114b2565b6110828382610f1d565b826001600160a01b0316846001600160a01b03167fdcbc1c05240f31ff3ad067ef1ee35ce4997762752e3a095284754544f4c709d784846040516110d0929190918252602082015260400190565b60405180910390a350505050565b6001600160a01b03821661110757604051634b637e8f60e11b81525f60048201526024016109ee565b61041e825f83611322565b5f8061111d83610ab6565b90508085111561114657828582604051633fa733bb60e21b81526004016109ee93929190611a1b565b5f611150866108d3565b9050610aa233868689855b826001600160a01b0316856001600160a01b03161461117f5761117f838683610d4f565b61118983826110de565b6111b47f00000000000000000000000000000000000000000000000000000000000000008584611519565b826001600160a01b0316846001600160a01b0316866001600160a01b03167ffbde797d201c681b91056529119e0b02407c7bb96a4a2c75c01fc9667232c8db858560405161120c929190918252602082015260400190565b60405180910390a45050505050565b5f8061122886868661154a565b905061123383611609565b801561124e57505f848061124957611249611d40565b868809115b15610aa25761102b600182611c21565b6001600160a01b0384166112875760405163e602df0560e01b81525f60048201526024016109ee565b6001600160a01b0383166112b057604051634a1406b160e11b81525f60048201526024016109ee565b6001600160a01b038085165f9081526001602090815260408083209387168352929052208290558015610db157826001600160a01b0316846001600160a01b03167f8c5be1e5ebec7d5bd14f71427d1e84f3dd0314c0f7b2291e5b200ac8c7c3b925846040516110d091815260200190565b6001600160a01b03831661134c578060025f8282546113419190611c21565b909155506113a99050565b6001600160a01b0383165f908152602081905260409020548181101561138b5783818360405163391434e360e21b81526004016109ee93929190611a1b565b6001600160a01b0384165f9081526020819052604090209082900390555b6001600160a01b0382166113c5576002805482900390556113e3565b6001600160a01b0382165f9081526020819052604090208054820190555b816001600160a01b0316836001600160a01b03167fddf252ad1be2c89b69c2b068fc378daa952ba7f163c4a11628f55a4df523b3ef8360405161142891815260200190565b60405180910390a3505050565b5f6114426012600a611d67565b6108b69083611d72565b5f6108b68261145d6012600a611d67565b611468906064611d72565b101590565b5f6109078284611c21565b5f838261102b828683611635565b5f6114936012600a611d67565b61149e906064611d72565b6114a88385611d72565b6109079190611d54565b6040516001600160a01b038481166024830152838116604483015260648201839052610db19186918216906323b872dd906084015b604051602081830303815290604052915060e01b6020820180516001600160e01b0383818316178352505050506116fd565b6040516001600160a01b03838116602483015260448201839052610bc191859182169063a9059cbb906064016114e7565b5f838302815f1985870982811083820303915050805f0361157e5783828161157457611574611d40565b0492505050610907565b80841161159e5760405163227bc15360e01b815260040160405180910390fd5b5f848688095f868103871696879004966002600389028118808a02820302808a02820302808a02820302808a02820302808a02820302808a02909103029181900381900460010186841190950394909402919094039290920491909117919091029150509392505050565b5f600282600381111561161e5761161e611d89565b6116289190611d9d565b60ff166001149050919050565b5f831580611641575082155b1561165b578215611652575f611654565b815b9050610907565b611666600284611dbe565b156116715783611673565b815b90505f611681600284611d54565b90506002840493505b83156116f55784850285868204146116a0575f80fd5b818101818110156116af575f80fd5b84900495505060018416156116ea5784820282868204141586151516156116d4575f80fd5b818101818110156116e3575f80fd5b8490049250505b60028404935061168a565b509392505050565b5f6117116001600160a01b0384168361175e565b905080515f141580156117355750808060200190518101906117339190611dd1565b155b15610bc157604051635274afe760e01b81526001600160a01b03841660048201526024016109ee565b606061090783835f845f80856001600160a01b031684866040516117829190611df0565b5f6040518083038185875af1925050503d805f81146117bc576040519150601f19603f3d011682016040523d82523d5f602084013e6117c1565b606091505b509150915061102b8683836060826117e1576117dc82611821565b610907565b81511580156117f857506001600160a01b0384163b155b1561165257604051639996b31560e01b81526001600160a01b03851660048201526024016109ee565b8051156118315780518082602001fd5b604051630a12f52160e11b815260040160405180910390fd5b602081525f82518060208401528060208501604085015e5f604082850101526040601f19601f83011684010191505092915050565b5f6020828403121561188f575f80fd5b5035919050565b6001600160a01b038116811461052b575f80fd5b80356118b581611896565b919050565b5f80604083850312156118cb575f80fd5b82356118d681611896565b946020939093013593505050565b5f80602083850312156118f5575f80fd5b823567ffffffffffffffff81111561190b575f80fd5b8301601f8101851361191b575f80fd5b803567ffffffffffffffff811115611931575f80fd5b856020606083028401011115611945575f80fd5b6020919091019590945092505050565b5f805f60608486031215611967575f80fd5b833561197281611896565b9250602084013561198281611896565b929592945050506040919091013590565b5f805f606084860312156119a5575f80fd5b8335925060208401356119b781611896565b915060408401356119c781611896565b809150509250925092565b5f602082840312156119e2575f80fd5b813561090781611896565b5f80604083850312156119fe575f80fd5b823591506020830135611a1081611896565b809150509250929050565b6001600160a01b039390931683526020830191909152604082015260600190565b634e487b7160e01b5f52604160045260245ffd5b5f60208284031215611a60575f80fd5b813567ffffffffffffffff811115611a76575f80fd5b8201601f81018413611a86575f80fd5b803567ffffffffffffffff811115611aa057611aa0611a3c565b8060051b604051601f19603f830116810181811067ffffffffffffffff82111715611acd57611acd611a3c565b604052918252602081840181019290810187841115611aea575f80fd5b6020850194505b83851015611b1057611b02856118aa565b815260209485019401611af1565b509695505050505050565b5f8060408385031215611b2c575f80fd5b8235611b3781611896565b91506020830135611a1081611896565b602080825282518282018190525f918401906040840190835b81811015611b875783516001600160a01b0316835260209384019390920191600101611b60565b509095945050505050565b5f60208284031215611ba2575f80fd5b5051919050565b600181811c90821680611bbd57607f821691505b602082108103611bdb57634e487b7160e01b5f52602260045260245ffd5b50919050565b634e487b7160e01b5f52601160045260245ffd5b60ff81811683821601908111156108b6576108b6611be1565b818103818111156108b6576108b6611be1565b808201808211156108b6576108b6611be1565b6001815b6001841115611c6f57808504811115611c5357611c53611be1565b6001841615611c6157908102905b60019390931c928002611c38565b935093915050565b5f82611c85575060016108b6565b81611c9157505f6108b6565b8160018114611ca75760028114611cb157611ccd565b60019150506108b6565b60ff841115611cc257611cc2611be1565b50506001821b6108b6565b5060208310610133831016604e8410600b8410161715611cf0575081810a6108b6565b611cfc5f198484611c34565b805f1904821115611d0f57611d0f611be1565b029392505050565b5f61090760ff841683611c77565b5f60208284031215611d35575f80fd5b815161090781611896565b634e487b7160e01b5f52601260045260245ffd5b5f82611d6257611d62611d40565b500490565b5f6109078383611c77565b80820281158282048414176108b6576108b6611be1565b634e487b7160e01b5f52602160045260245ffd5b5f60ff831680611daf57611daf611d40565b8060ff84160691505092915050565b5f82611dcc57611dcc611d40565b500690565b5f60208284031215611de1575f80fd5b81518015158114610907575f80fd5b5f82518060208501845e5f92019182525091905056fea2646970667358221220368c1258d5696fb829b4bfd1d3aa2c4e03162e5b319b7e00e78e0a590f6fe91a64736f6c634300081a0033","linkReferences":{}},"methodIdentifiers":{"addArk(address)":"e37d5b7f","addArks(address[])":"cc5b1e55","adjustBuffer((address,address,uint256)[])":"0e4a840d","allowance(address,address)":"dd62ed3e","approve(address,uint256)":"095ea7b3","arks(uint256)":"ff32a42a","asset()":"38d52e0f","balanceOf(address)":"70a08231","burn(address,uint256)":"9dc29fac","config()":"79502c55","convertToAssets(uint256)":"07a2d13a","convertToShares(uint256)":"c6e6f592","decimals()":"313ce567","deposit(uint256,address)":"6e553f65","emergencyShutdown()":"3403c2fc","estimateAccruedTip()":"68482626","forceRebalance((address,address,uint256)[])":"0cf0654e","getArks()":"f1cd665b","isArkActive(address)":"d25dd101","lastTipTimestamp()":"71aedbc1","manager()":"481c6a75","maxBufferWithdraw(address)":"3e314c76","maxDeposit(address)":"402d267d","maxMint(address)":"c63d75b6","maxRedeem(address)":"d905777e","maxWithdraw(address)":"ce96cb77","mint(address,uint256)":"40c10f19","mint(uint256,address)":"94bf804d","name()":"06fdde03","previewDeposit(uint256)":"ef8b30f7","previewMint(uint256)":"b3d7f6b9","previewRedeem(uint256)":"4cdad506","previewWithdraw(uint256)":"0a28a477","rebalance((address,address,uint256)[])":"b64d620e","redeem(uint256,address,address)":"ba087652","redeemFromArks(uint256,address,address)":"3a7c9f0e","redeemFromBuffer(uint256,address,address)":"f3577816","removeArk(address)":"96c25a38","setArkDepositCap(address,uint256)":"34050560","setArkMaxRebalanceInflow(address,uint256)":"d45a07a1","setArkMaxRebalanceOutflow(address,uint256)":"b637766c","setDepositCap(address,uint256)":"f878369e","setFleetDepositCap(uint256)":"d902d41a","setMinimumBufferBalance(uint256)":"4daecb9c","setTipJar()":"18d08d0b","setTipRate(uint256)":"5822198f","symbol()":"95d89b41","test()":"f8a8fd6d","testMint(address,uint256)":"f28e093d","tip()":"2755cd2d","tipJar()":"7aaceb95","tipRate()":"498e76a0","totalAssets()":"01e1d114","totalSupply()":"18160ddd","transfer(address,uint256)":"a9059cbb","transferFrom(address,address,uint256)":"23b872dd","updateRebalanceCooldown(uint256)":"dc9de0a8","withdraw(uint256,address,address)":"b460af94","withdrawFromArks(uint256,address,address)":"a039e944","withdrawFromBuffer(uint256,address,address)":"5f538f6f"},"id":249}