{"abi":[{"type":"constructor","inputs":[{"name":"underlying","type":"address","internalType":"address"},{"name":"configurationManager","type":"address","internalType":"address"},{"name":"initialTipRate","type":"uint256","internalType":"Percentage"}],"stateMutability":"nonpayable"},{"type":"function","name":"addArk","inputs":[{"name":"ark","type":"address","internalType":"address"}],"outputs":[],"stateMutability":"nonpayable"},{"type":"function","name":"addArks","inputs":[{"name":"_arks","type":"address[]","internalType":"address[]"}],"outputs":[],"stateMutability":"nonpayable"},{"type":"function","name":"adjustBuffer","inputs":[{"name":"data","type":"tuple[]","internalType":"struct RebalanceData[]","components":[{"name":"fromArk","type":"address","internalType":"address"},{"name":"toArk","type":"address","internalType":"address"},{"name":"amount","type":"uint256","internalType":"uint256"},{"name":"boardData","type":"bytes","internalType":"bytes"},{"name":"disembarkData","type":"bytes","internalType":"bytes"}]}],"outputs":[],"stateMutability":"nonpayable"},{"type":"function","name":"allowance","inputs":[{"name":"owner","type":"address","internalType":"address"},{"name":"spender","type":"address","internalType":"address"}],"outputs":[{"name":"","type":"uint256","internalType":"uint256"}],"stateMutability":"view"},{"type":"function","name":"approve","inputs":[{"name":"spender","type":"address","internalType":"address"},{"name":"value","type":"uint256","internalType":"uint256"}],"outputs":[{"name":"","type":"bool","internalType":"bool"}],"stateMutability":"nonpayable"},{"type":"function","name":"arks","inputs":[{"name":"","type":"uint256","internalType":"uint256"}],"outputs":[{"name":"","type":"address","internalType":"address"}],"stateMutability":"view"},{"type":"function","name":"asset","inputs":[],"outputs":[{"name":"","type":"address","internalType":"address"}],"stateMutability":"view"},{"type":"function","name":"balanceOf","inputs":[{"name":"account","type":"address","internalType":"address"}],"outputs":[{"name":"","type":"uint256","internalType":"uint256"}],"stateMutability":"view"},{"type":"function","name":"bufferArk","inputs":[],"outputs":[{"name":"","type":"address","internalType":"address"}],"stateMutability":"view"},{"type":"function","name":"burn","inputs":[{"name":"account","type":"address","internalType":"address"},{"name":"amount","type":"uint256","internalType":"uint256"}],"outputs":[],"stateMutability":"nonpayable"},{"type":"function","name":"config","inputs":[],"outputs":[{"name":"bufferArk","type":"address","internalType":"contract IArk"},{"name":"minimumBufferBalance","type":"uint256","internalType":"uint256"},{"name":"depositCap","type":"uint256","internalType":"uint256"},{"name":"maxRebalanceOperations","type":"uint256","internalType":"uint256"},{"name":"stakingRewardsManager","type":"address","internalType":"contract IFleetStakingRewardsManager"}],"stateMutability":"view"},{"type":"function","name":"configurationManager","inputs":[],"outputs":[{"name":"","type":"address","internalType":"contract IConfigurationManager"}],"stateMutability":"view"},{"type":"function","name":"convertToAssets","inputs":[{"name":"shares","type":"uint256","internalType":"uint256"}],"outputs":[{"name":"","type":"uint256","internalType":"uint256"}],"stateMutability":"view"},{"type":"function","name":"convertToShares","inputs":[{"name":"assets","type":"uint256","internalType":"uint256"}],"outputs":[{"name":"","type":"uint256","internalType":"uint256"}],"stateMutability":"view"},{"type":"function","name":"decimals","inputs":[],"outputs":[{"name":"","type":"uint8","internalType":"uint8"}],"stateMutability":"view"},{"type":"function","name":"deposit","inputs":[{"name":"assets","type":"uint256","internalType":"uint256"},{"name":"receiver","type":"address","internalType":"address"}],"outputs":[{"name":"","type":"uint256","internalType":"uint256"}],"stateMutability":"nonpayable"},{"type":"function","name":"deposit","inputs":[{"name":"assets","type":"uint256","internalType":"uint256"},{"name":"receiver","type":"address","internalType":"address"},{"name":"referralCode","type":"bytes","internalType":"bytes"}],"outputs":[{"name":"","type":"uint256","internalType":"uint256"}],"stateMutability":"nonpayable"},{"type":"function","name":"depositAndStake","inputs":[{"name":"assets","type":"uint256","internalType":"uint256"},{"name":"receiver","type":"address","internalType":"address"},{"name":"","type":"bytes","internalType":"bytes"}],"outputs":[{"name":"","type":"uint256","internalType":"uint256"}],"stateMutability":"nonpayable"},{"type":"function","name":"depositAndStake","inputs":[{"name":"assets","type":"uint256","internalType":"uint256"},{"name":"receiver","type":"address","internalType":"address"}],"outputs":[{"name":"","type":"uint256","internalType":"uint256"}],"stateMutability":"nonpayable"},{"type":"function","name":"emergencyShutdown","inputs":[],"outputs":[],"stateMutability":"nonpayable"},{"type":"function","name":"estimateAccruedTip","inputs":[],"outputs":[{"name":"","type":"uint256","internalType":"uint256"}],"stateMutability":"view"},{"type":"function","name":"forceRebalance","inputs":[{"name":"data","type":"tuple[]","internalType":"struct RebalanceData[]","components":[{"name":"fromArk","type":"address","internalType":"address"},{"name":"toArk","type":"address","internalType":"address"},{"name":"amount","type":"uint256","internalType":"uint256"},{"name":"boardData","type":"bytes","internalType":"bytes"},{"name":"disembarkData","type":"bytes","internalType":"bytes"}]}],"outputs":[],"stateMutability":"nonpayable"},{"type":"function","name":"getArks","inputs":[],"outputs":[{"name":"","type":"address[]","internalType":"address[]"}],"stateMutability":"view"},{"type":"function","name":"getConfig","inputs":[],"outputs":[{"name":"","type":"tuple","internalType":"struct FleetConfig","components":[{"name":"bufferArk","type":"address","internalType":"contract IArk"},{"name":"minimumBufferBalance","type":"uint256","internalType":"uint256"},{"name":"depositCap","type":"uint256","internalType":"uint256"},{"name":"maxRebalanceOperations","type":"uint256","internalType":"uint256"},{"name":"stakingRewardsManager","type":"address","internalType":"contract IFleetStakingRewardsManager"}]}],"stateMutability":"view"},{"type":"function","name":"harborCommand","inputs":[],"outputs":[{"name":"","type":"address","internalType":"address"}],"stateMutability":"view"},{"type":"function","name":"isArkActive","inputs":[{"name":"","type":"address","internalType":"address"}],"outputs":[{"name":"","type":"bool","internalType":"bool"}],"stateMutability":"view"},{"type":"function","name":"lastTipTimestamp","inputs":[],"outputs":[{"name":"","type":"uint256","internalType":"uint256"}],"stateMutability":"view"},{"type":"function","name":"maxBufferRedeem","inputs":[{"name":"owner","type":"address","internalType":"address"}],"outputs":[{"name":"","type":"uint256","internalType":"uint256"}],"stateMutability":"view"},{"type":"function","name":"maxBufferWithdraw","inputs":[{"name":"owner","type":"address","internalType":"address"}],"outputs":[{"name":"","type":"uint256","internalType":"uint256"}],"stateMutability":"view"},{"type":"function","name":"maxDeposit","inputs":[{"name":"","type":"address","internalType":"address"}],"outputs":[{"name":"","type":"uint256","internalType":"uint256"}],"stateMutability":"view"},{"type":"function","name":"maxMint","inputs":[{"name":"","type":"address","internalType":"address"}],"outputs":[{"name":"","type":"uint256","internalType":"uint256"}],"stateMutability":"view"},{"type":"function","name":"maxRedeem","inputs":[{"name":"owner","type":"address","internalType":"address"}],"outputs":[{"name":"","type":"uint256","internalType":"uint256"}],"stateMutability":"view"},{"type":"function","name":"maxWithdraw","inputs":[{"name":"owner","type":"address","internalType":"address"}],"outputs":[{"name":"","type":"uint256","internalType":"uint256"}],"stateMutability":"view"},{"type":"function","name":"mint","inputs":[{"name":"account","type":"address","internalType":"address"},{"name":"amount","type":"uint256","internalType":"uint256"}],"outputs":[],"stateMutability":"nonpayable"},{"type":"function","name":"mint","inputs":[{"name":"shares","type":"uint256","internalType":"uint256"},{"name":"receiver","type":"address","internalType":"address"}],"outputs":[{"name":"","type":"uint256","internalType":"uint256"}],"stateMutability":"nonpayable"},{"type":"function","name":"name","inputs":[],"outputs":[{"name":"","type":"string","internalType":"string"}],"stateMutability":"view"},{"type":"function","name":"pause","inputs":[],"outputs":[],"stateMutability":"nonpayable"},{"type":"function","name":"previewDeposit","inputs":[{"name":"assets","type":"uint256","internalType":"uint256"}],"outputs":[{"name":"","type":"uint256","internalType":"uint256"}],"stateMutability":"view"},{"type":"function","name":"previewMint","inputs":[{"name":"shares","type":"uint256","internalType":"uint256"}],"outputs":[{"name":"","type":"uint256","internalType":"uint256"}],"stateMutability":"view"},{"type":"function","name":"previewRedeem","inputs":[{"name":"shares","type":"uint256","internalType":"uint256"}],"outputs":[{"name":"","type":"uint256","internalType":"uint256"}],"stateMutability":"view"},{"type":"function","name":"previewWithdraw","inputs":[{"name":"assets","type":"uint256","internalType":"uint256"}],"outputs":[{"name":"","type":"uint256","internalType":"uint256"}],"stateMutability":"view"},{"type":"function","name":"raft","inputs":[],"outputs":[{"name":"","type":"address","internalType":"address"}],"stateMutability":"view"},{"type":"function","name":"rebalance","inputs":[{"name":"data","type":"tuple[]","internalType":"struct RebalanceData[]","components":[{"name":"fromArk","type":"address","internalType":"address"},{"name":"toArk","type":"address","internalType":"address"},{"name":"amount","type":"uint256","internalType":"uint256"},{"name":"boardData","type":"bytes","internalType":"bytes"},{"name":"disembarkData","type":"bytes","internalType":"bytes"}]}],"outputs":[],"stateMutability":"nonpayable"},{"type":"function","name":"redeem","inputs":[{"name":"assets","type":"uint256","internalType":"uint256"},{"name":"receiver","type":"address","internalType":"address"},{"name":"owner","type":"address","internalType":"address"}],"outputs":[{"name":"","type":"uint256","internalType":"uint256"}],"stateMutability":"nonpayable"},{"type":"function","name":"redeemFromArks","inputs":[{"name":"shares","type":"uint256","internalType":"uint256"},{"name":"receiver","type":"address","internalType":"address"},{"name":"owner","type":"address","internalType":"address"}],"outputs":[{"name":"","type":"uint256","internalType":"uint256"}],"stateMutability":"nonpayable"},{"type":"function","name":"redeemFromBuffer","inputs":[{"name":"shares","type":"uint256","internalType":"uint256"},{"name":"receiver","type":"address","internalType":"address"},{"name":"owner","type":"address","internalType":"address"}],"outputs":[{"name":"","type":"uint256","internalType":"uint256"}],"stateMutability":"nonpayable"},{"type":"function","name":"removeArk","inputs":[{"name":"ark","type":"address","internalType":"address"}],"outputs":[],"stateMutability":"nonpayable"},{"type":"function","name":"setArkDepositCap","inputs":[{"name":"ark","type":"address","internalType":"address"},{"name":"newDepositCap","type":"uint256","internalType":"uint256"}],"outputs":[],"stateMutability":"nonpayable"},{"type":"function","name":"setArkMaxDepositPercentageOfTVL","inputs":[{"name":"ark","type":"address","internalType":"address"},{"name":"newMaxDepositPercentageOfTVL","type":"uint256","internalType":"Percentage"}],"outputs":[],"stateMutability":"nonpayable"},{"type":"function","name":"setArkMaxRebalanceInflow","inputs":[{"name":"ark","type":"address","internalType":"address"},{"name":"newMaxRebalanceInflow","type":"uint256","internalType":"uint256"}],"outputs":[],"stateMutability":"nonpayable"},{"type":"function","name":"setArkMaxRebalanceOutflow","inputs":[{"name":"ark","type":"address","internalType":"address"},{"name":"newMaxRebalanceOutflow","type":"uint256","internalType":"uint256"}],"outputs":[],"stateMutability":"nonpayable"},{"type":"function","name":"setDepositCap","inputs":[{"name":"ark","type":"address","internalType":"address"},{"name":"newDepositCap","type":"uint256","internalType":"uint256"}],"outputs":[],"stateMutability":"nonpayable"},{"type":"function","name":"setFleetDepositCap","inputs":[{"name":"newCap","type":"uint256","internalType":"uint256"}],"outputs":[],"stateMutability":"nonpayable"},{"type":"function","name":"setMaxRebalanceOperations","inputs":[{"name":"newMaxRebalanceOperations","type":"uint256","internalType":"uint256"}],"outputs":[],"stateMutability":"nonpayable"},{"type":"function","name":"setMinimumBufferBalance","inputs":[{"name":"newMinimumBalance","type":"uint256","internalType":"uint256"}],"outputs":[],"stateMutability":"nonpayable"},{"type":"function","name":"setMinimumPauseTime","inputs":[{"name":"newMinimumPauseTime","type":"uint256","internalType":"uint256"}],"outputs":[],"stateMutability":"nonpayable"},{"type":"function","name":"setStakingRewardsManager","inputs":[{"name":"newStakingRewardsManager","type":"address","internalType":"address"}],"outputs":[],"stateMutability":"nonpayable"},{"type":"function","name":"setTipRate","inputs":[{"name":"newTipRate","type":"uint256","internalType":"Percentage"}],"outputs":[],"stateMutability":"nonpayable"},{"type":"function","name":"stake","inputs":[{"name":"shares","type":"uint256","internalType":"uint256"}],"outputs":[],"stateMutability":"nonpayable"},{"type":"function","name":"symbol","inputs":[],"outputs":[{"name":"","type":"string","internalType":"string"}],"stateMutability":"view"},{"type":"function","name":"test","inputs":[],"outputs":[],"stateMutability":"nonpayable"},{"type":"function","name":"testMint","inputs":[{"name":"account","type":"address","internalType":"address"},{"name":"amount","type":"uint256","internalType":"uint256"}],"outputs":[],"stateMutability":"nonpayable"},{"type":"function","name":"tip","inputs":[],"outputs":[{"name":"","type":"uint256","internalType":"uint256"}],"stateMutability":"nonpayable"},{"type":"function","name":"tipJar","inputs":[],"outputs":[{"name":"","type":"address","internalType":"address"}],"stateMutability":"view"},{"type":"function","name":"tipRate","inputs":[],"outputs":[{"name":"","type":"uint256","internalType":"Percentage"}],"stateMutability":"view"},{"type":"function","name":"totalAssets","inputs":[],"outputs":[{"name":"","type":"uint256","internalType":"uint256"}],"stateMutability":"view"},{"type":"function","name":"totalSupply","inputs":[],"outputs":[{"name":"","type":"uint256","internalType":"uint256"}],"stateMutability":"view"},{"type":"function","name":"transfer","inputs":[{"name":"to","type":"address","internalType":"address"},{"name":"value","type":"uint256","internalType":"uint256"}],"outputs":[{"name":"","type":"bool","internalType":"bool"}],"stateMutability":"nonpayable"},{"type":"function","name":"transferFrom","inputs":[{"name":"from","type":"address","internalType":"address"},{"name":"to","type":"address","internalType":"address"},{"name":"value","type":"uint256","internalType":"uint256"}],"outputs":[{"name":"","type":"bool","internalType":"bool"}],"stateMutability":"nonpayable"},{"type":"function","name":"treasury","inputs":[],"outputs":[{"name":"","type":"address","internalType":"address"}],"stateMutability":"view"},{"type":"function","name":"unpause","inputs":[],"outputs":[],"stateMutability":"nonpayable"},{"type":"function","name":"updateRebalanceCooldown","inputs":[{"name":"newCooldown","type":"uint256","internalType":"uint256"}],"outputs":[],"stateMutability":"nonpayable"},{"type":"function","name":"withdraw","inputs":[{"name":"assets","type":"uint256","internalType":"uint256"},{"name":"receiver","type":"address","internalType":"address"},{"name":"owner","type":"address","internalType":"address"}],"outputs":[{"name":"","type":"uint256","internalType":"uint256"}],"stateMutability":"nonpayable"},{"type":"function","name":"withdrawFromArks","inputs":[{"name":"shares","type":"uint256","internalType":"uint256"},{"name":"receiver","type":"address","internalType":"address"},{"name":"owner","type":"address","internalType":"address"}],"outputs":[{"name":"","type":"uint256","internalType":"uint256"}],"stateMutability":"nonpayable"},{"type":"function","name":"withdrawFromBuffer","inputs":[{"name":"shares","type":"uint256","internalType":"uint256"},{"name":"receiver","type":"address","internalType":"address"},{"name":"owner","type":"address","internalType":"address"}],"outputs":[{"name":"","type":"uint256","internalType":"uint256"}],"stateMutability":"nonpayable"},{"type":"function","name":"withdrawableTotalAssets","inputs":[],"outputs":[{"name":"","type":"uint256","internalType":"uint256"}],"stateMutability":"pure"},{"type":"event","name":"Approval","inputs":[{"name":"owner","type":"address","indexed":true,"internalType":"address"},{"name":"spender","type":"address","indexed":true,"internalType":"address"},{"name":"value","type":"uint256","indexed":false,"internalType":"uint256"}],"anonymous":false},{"type":"event","name":"ArkAdded","inputs":[{"name":"ark","type":"address","indexed":true,"internalType":"address"}],"anonymous":false},{"type":"event","name":"ArkRemoved","inputs":[{"name":"ark","type":"address","indexed":true,"internalType":"address"}],"anonymous":false},{"type":"event","name":"Deposit","inputs":[{"name":"sender","type":"address","indexed":true,"internalType":"address"},{"name":"owner","type":"address","indexed":true,"internalType":"address"},{"name":"assets","type":"uint256","indexed":false,"internalType":"uint256"},{"name":"shares","type":"uint256","indexed":false,"internalType":"uint256"}],"anonymous":false},{"type":"event","name":"FeeAddressUpdated","inputs":[{"name":"newAddress","type":"address","indexed":false,"internalType":"address"}],"anonymous":false},{"type":"event","name":"FleetCommanderBufferAdjusted","inputs":[{"name":"keeper","type":"address","indexed":true,"internalType":"address"},{"name":"totalMoved","type":"uint256","indexed":false,"internalType":"uint256"}],"anonymous":false},{"type":"event","name":"FleetCommanderDepositCapUpdated","inputs":[{"name":"newCap","type":"uint256","indexed":false,"internalType":"uint256"}],"anonymous":false},{"type":"event","name":"FleetCommanderMaxRebalanceOperationsUpdated","inputs":[{"name":"newMaxRebalanceOperations","type":"uint256","indexed":false,"internalType":"uint256"}],"anonymous":false},{"type":"event","name":"FleetCommanderRedeemedFromArks","inputs":[{"name":"owner","type":"address","indexed":true,"internalType":"address"},{"name":"receiver","type":"address","indexed":false,"internalType":"address"},{"name":"totalRedeemed","type":"uint256","indexed":false,"internalType":"uint256"}],"anonymous":false},{"type":"event","name":"FleetCommanderReferral","inputs":[{"name":"referee","type":"address","indexed":true,"internalType":"address"},{"name":"referralCode","type":"bytes","indexed":true,"internalType":"bytes"}],"anonymous":false},{"type":"event","name":"FleetCommanderStakingRewardsUpdated","inputs":[{"name":"newStakingRewards","type":"address","indexed":false,"internalType":"address"}],"anonymous":false},{"type":"event","name":"FleetCommanderWithdrawnFromArks","inputs":[{"name":"owner","type":"address","indexed":true,"internalType":"address"},{"name":"receiver","type":"address","indexed":false,"internalType":"address"},{"name":"totalWithdrawn","type":"uint256","indexed":false,"internalType":"uint256"}],"anonymous":false},{"type":"event","name":"FleetCommanderminimumBufferBalanceUpdated","inputs":[{"name":"newBalance","type":"uint256","indexed":false,"internalType":"uint256"}],"anonymous":false},{"type":"event","name":"FundsBufferBalanceUpdated","inputs":[{"name":"user","type":"address","indexed":true,"internalType":"address"},{"name":"prevBalance","type":"uint256","indexed":false,"internalType":"uint256"},{"name":"newBalance","type":"uint256","indexed":false,"internalType":"uint256"}],"anonymous":false},{"type":"event","name":"FundsQueueRefilled","inputs":[{"name":"keeper","type":"address","indexed":true,"internalType":"address"},{"name":"prevBalance","type":"uint256","indexed":false,"internalType":"uint256"},{"name":"newBalance","type":"uint256","indexed":false,"internalType":"uint256"}],"anonymous":false},{"type":"event","name":"MinFundsQueueBalanceUpdated","inputs":[{"name":"keeper","type":"address","indexed":true,"internalType":"address"},{"name":"newBalance","type":"uint256","indexed":false,"internalType":"uint256"}],"anonymous":false},{"type":"event","name":"QueuedFundsCommitted","inputs":[{"name":"keeper","type":"address","indexed":true,"internalType":"address"},{"name":"prevBalance","type":"uint256","indexed":false,"internalType":"uint256"},{"name":"newBalance","type":"uint256","indexed":false,"internalType":"uint256"}],"anonymous":false},{"type":"event","name":"Rebalanced","inputs":[{"name":"keeper","type":"address","indexed":true,"internalType":"address"},{"name":"rebalances","type":"tuple[]","indexed":false,"internalType":"struct RebalanceData[]","components":[{"name":"fromArk","type":"address","internalType":"address"},{"name":"toArk","type":"address","internalType":"address"},{"name":"amount","type":"uint256","internalType":"uint256"},{"name":"boardData","type":"bytes","internalType":"bytes"},{"name":"disembarkData","type":"bytes","internalType":"bytes"}]}],"anonymous":false},{"type":"event","name":"TipAccrued","inputs":[{"name":"tipAmount","type":"uint256","indexed":false,"internalType":"uint256"}],"anonymous":false},{"type":"event","name":"TipJarUpdated","inputs":[{"name":"newTipJar","type":"address","indexed":false,"internalType":"address"}],"anonymous":false},{"type":"event","name":"TipRateUpdated","inputs":[{"name":"newTipRate","type":"uint256","indexed":false,"internalType":"Percentage"}],"anonymous":false},{"type":"event","name":"Transfer","inputs":[{"name":"from","type":"address","indexed":true,"internalType":"address"},{"name":"to","type":"address","indexed":true,"internalType":"address"},{"name":"value","type":"uint256","indexed":false,"internalType":"uint256"}],"anonymous":false},{"type":"event","name":"Withdraw","inputs":[{"name":"sender","type":"address","indexed":true,"internalType":"address"},{"name":"receiver","type":"address","indexed":true,"internalType":"address"},{"name":"owner","type":"address","indexed":true,"internalType":"address"},{"name":"assets","type":"uint256","indexed":false,"internalType":"uint256"},{"name":"shares","type":"uint256","indexed":false,"internalType":"uint256"}],"anonymous":false},{"type":"error","name":"ConfigurationManagerZeroAddress","inputs":[]},{"type":"error","name":"ERC20InsufficientAllowance","inputs":[{"name":"spender","type":"address","internalType":"address"},{"name":"allowance","type":"uint256","internalType":"uint256"},{"name":"needed","type":"uint256","internalType":"uint256"}]},{"type":"error","name":"ERC20InsufficientBalance","inputs":[{"name":"sender","type":"address","internalType":"address"},{"name":"balance","type":"uint256","internalType":"uint256"},{"name":"needed","type":"uint256","internalType":"uint256"}]},{"type":"error","name":"ERC20InvalidApprover","inputs":[{"name":"approver","type":"address","internalType":"address"}]},{"type":"error","name":"ERC20InvalidReceiver","inputs":[{"name":"receiver","type":"address","internalType":"address"}]},{"type":"error","name":"ERC20InvalidSender","inputs":[{"name":"sender","type":"address","internalType":"address"}]},{"type":"error","name":"ERC20InvalidSpender","inputs":[{"name":"spender","type":"address","internalType":"address"}]},{"type":"error","name":"ERC4626ExceededMaxDeposit","inputs":[{"name":"receiver","type":"address","internalType":"address"},{"name":"assets","type":"uint256","internalType":"uint256"},{"name":"max","type":"uint256","internalType":"uint256"}]},{"type":"error","name":"ERC4626ExceededMaxMint","inputs":[{"name":"receiver","type":"address","internalType":"address"},{"name":"shares","type":"uint256","internalType":"uint256"},{"name":"max","type":"uint256","internalType":"uint256"}]},{"type":"error","name":"ERC4626ExceededMaxRedeem","inputs":[{"name":"owner","type":"address","internalType":"address"},{"name":"shares","type":"uint256","internalType":"uint256"},{"name":"max","type":"uint256","internalType":"uint256"}]},{"type":"error","name":"ERC4626ExceededMaxWithdraw","inputs":[{"name":"owner","type":"address","internalType":"address"},{"name":"assets","type":"uint256","internalType":"uint256"},{"name":"max","type":"uint256","internalType":"uint256"}]},{"type":"error","name":"FleetCommanderArkAlreadyExists","inputs":[{"name":"ark","type":"address","internalType":"address"}]},{"type":"error","name":"FleetCommanderArkAlreadyHasCommander","inputs":[]},{"type":"error","name":"FleetCommanderArkAssetsNotZero","inputs":[{"name":"ark","type":"address","internalType":"address"}]},{"type":"error","name":"FleetCommanderArkDepositCapGreaterThanZero","inputs":[{"name":"ark","type":"address","internalType":"address"}]},{"type":"error","name":"FleetCommanderArkDepositCapZero","inputs":[{"name":"ark","type":"address","internalType":"address"}]},{"type":"error","name":"FleetCommanderArkNotActive","inputs":[{"name":"ark","type":"address","internalType":"address"}]},{"type":"error","name":"FleetCommanderArkNotFound","inputs":[{"name":"ark","type":"address","internalType":"address"}]},{"type":"error","name":"FleetCommanderCantUseMaxUintMovingFromBuffer","inputs":[]},{"type":"error","name":"FleetCommanderCantUseRebalanceOnBufferArk","inputs":[]},{"type":"error","name":"FleetCommanderEffectiveDepositCapExceeded","inputs":[{"name":"ark","type":"address","internalType":"address"},{"name":"amount","type":"uint256","internalType":"uint256"},{"name":"effectiveDepositCap","type":"uint256","internalType":"uint256"}]},{"type":"error","name":"FleetCommanderExceedsMaxInflow","inputs":[{"name":"fromArk","type":"address","internalType":"address"},{"name":"amount","type":"uint256","internalType":"uint256"},{"name":"maxRebalanceInflow","type":"uint256","internalType":"uint256"}]},{"type":"error","name":"FleetCommanderExceedsMaxOutflow","inputs":[{"name":"fromArk","type":"address","internalType":"address"},{"name":"amount","type":"uint256","internalType":"uint256"},{"name":"maxRebalanceOutflow","type":"uint256","internalType":"uint256"}]},{"type":"error","name":"FleetCommanderInsufficientBuffer","inputs":[]},{"type":"error","name":"FleetCommanderInvalidArkAddress","inputs":[]},{"type":"error","name":"FleetCommanderInvalidBufferAdjustment","inputs":[]},{"type":"error","name":"FleetCommanderInvalidSourceArk","inputs":[{"name":"ark","type":"address","internalType":"address"}]},{"type":"error","name":"FleetCommanderInvalidStakingRewardsManager","inputs":[]},{"type":"error","name":"FleetCommanderMovedMoreThanAvailable","inputs":[]},{"type":"error","name":"FleetCommanderNoExcessFunds","inputs":[]},{"type":"error","name":"FleetCommanderNoFundsMoved","inputs":[]},{"type":"error","name":"FleetCommanderRebalanceAmountZero","inputs":[{"name":"ark","type":"address","internalType":"address"}]},{"type":"error","name":"FleetCommanderRebalanceNoOperations","inputs":[]},{"type":"error","name":"FleetCommanderRebalanceTooManyOperations","inputs":[{"name":"operationsCount","type":"uint256","internalType":"uint256"}]},{"type":"error","name":"FleetCommanderTransfersDisabled","inputs":[]},{"type":"error","name":"FleetCommanderUnauthorizedRedemption","inputs":[{"name":"caller","type":"address","internalType":"address"},{"name":"owner","type":"address","internalType":"address"}]},{"type":"error","name":"FleetCommanderUnauthorizedWithdrawal","inputs":[{"name":"caller","type":"address","internalType":"address"},{"name":"owner","type":"address","internalType":"address"}]},{"type":"error","name":"InvalidFleetCommanderAddress","inputs":[]},{"type":"error","name":"InvalidTipJarAddress","inputs":[]},{"type":"error","name":"SafeERC20FailedOperation","inputs":[{"name":"token","type":"address","internalType":"address"}]},{"type":"error","name":"TipRateCannotExceedOneHundredPercent","inputs":[]},{"type":"error","name":"WithdrawalAmountExceedsMaxBufferLimit","inputs":[]}],"bytecode":{"object":"0x60e060405234801561000f575f5ffd5b506040516124c53803806124c583398101604081905261002e916101fc565b82808383816040518060400160405280600b81526020016a455243343632364d6f636b60a81b8152506040518060400160405280600681526020016545343632364d60d01b815250816003908161008591906102d0565b50600461009282826102d0565b5050506001600160a01b0381166100bc5760405163f1634df960e01b815260040160405180910390fd5b6001600160a01b031660805260055550426006555f806100db8361010b565b91509150816100eb5760126100ed565b805b60ff1660c05250506001600160a01b031660a052506103b792505050565b60408051600481526024810182526020810180516001600160e01b031663313ce56760e01b17905290515f918291829182916001600160a01b038716916101519161038a565b5f60405180830381855afa9150503d805f8114610189576040519150601f19603f3d011682016040523d82523d5f602084013e61018e565b606091505b50915091508180156101a257506020815110155b156101d5575f818060200190518101906101bc91906103a0565b905060ff81116101d3576001969095509350505050565b505b505f9485945092505050565b80516001600160a01b03811681146101f7575f5ffd5b919050565b5f5f5f6060848603121561020e575f5ffd5b610217846101e1565b9250610225602085016101e1565b6040949094015192959394509192915050565b634e487b7160e01b5f52604160045260245ffd5b600181811c9082168061026057607f821691505b60208210810361027e57634e487b7160e01b5f52602260045260245ffd5b50919050565b601f8211156102cb57805f5260205f20601f840160051c810160208510156102a95750805b601f840160051c820191505b818110156102c8575f81556001016102b5565b50505b505050565b81516001600160401b038111156102e9576102e9610238565b6102fd816102f7845461024c565b84610284565b6020601f82116001811461032f575f83156103185750848201515b5f19600385901b1c1916600184901b1784556102c8565b5f84815260208120601f198516915b8281101561035e578785015182556020948501946001909201910161033e565b508482101561037b57868401515f19600387901b60f8161c191681555b50505050600190811b01905550565b5f82518060208501845e5f920191825250919050565b5f602082840312156103b0575f5ffd5b5051919050565b60805160a05160c0516120b36104125f395f610aa101525f818161054401528181610ec3015281816112ae015261174201525f81816107a7015281816109ee01528181610aee01528181610b4b0152610c3901526120b35ff3fe608060405234801561000f575f5ffd5b5060043610610443575f3560e01c806396c25a3811610237578063d537092f11610135578063ef8b30f7116100bf578063f878369e11610084578063f878369e14610530578063f8a8fd6d146104f1578063faa9bce9146108f3578063fcf2849f146107c9578063ff32a42a14610906575f5ffd5b8063ef8b30f71461077e578063f1cd665b146108de578063f28e093d146105a5578063f357781614610568578063f3ba553e14610530575f5ffd5b8063dc9de0a811610105578063dc9de0a8146104e0578063dd62ed3e14610833578063e193858f146104e0578063e37d5b7f1461086b578063e7b20e5b146107c9575f5ffd5b8063d537092f1461060d578063d570ee471461081a578063d902d41a146104e0578063d905777e14610820575f5ffd5b8063c3f909d4116101c1578063cada514311610186578063cada5143146107c9578063cc5b1e55146107d7578063ce96cb77146107e5578063d25dd101146107f8578063d45a07a114610530575f5ffd5b8063c3f909d41461072d578063c63d75b614610591578063c6e6f5921461077e578063c8169aa114610791578063c9c667e3146107a2575f5ffd5b8063a9059cbb11610207578063a9059cbb146106e1578063b3d7f6b9146106f4578063b460af9414610707578063b637766c14610530578063ba0876521461071a575f5ffd5b806396c25a38146105ef5780639dc29fac146106ce578063a039e94414610568578063a694fc3a146104e0575f5ffd5b8063498e76a01161034457806368482626116102ce5780637aaceb95116102935780637aaceb95146106ab5780638456cb59146104f15780639265b76e1461057e57806394bf804d146106b357806395d89b41146106c6575f5ffd5b806368482626146106055780636e553f651461060d57806370a082311461062057806371aedbc11461064857806379502c5514610651575f5ffd5b80635822198f116103145780635822198f146105d45780635b0f83f3146105e75780635e5a9ea9146105ef5780635f538f6f1461056857806361d027b3146105fd575f5ffd5b8063498e76a0146105b85780634cdad506146104775780634daecb9c146104e05780634fee7627146105c1575f5ffd5b80632755cd2d116103d05780633a7c9f0e116103955780633a7c9f0e146105685780633e314c761461057e5780633f4ba83a146104f1578063402d267d1461059157806340c10f19146105a5575f5ffd5b80632755cd2d1461050e578063313ce567146105165780633403c2fc146104f1578063340505601461053057806338d52e0f14610542575f5ffd5b80630a28a477116104165780630a28a477146104ad578063117d8ae0146104c0578063133ab579146104e057806318160ddd146104f357806323b872dd146104fb575f5ffd5b806301e1d1141461044757806306fdde031461046257806307a2d13a14610477578063095ea7b31461048a575b5f5ffd5b61044f610919565b6040519081526020015b60405180910390f35b61046a610927565b6040516104599190611a27565b61044f610485366004611a5c565b6109b7565b61049d610498366004611a87565b6109c8565b6040519015158152602001610459565b61044f6104bb366004611a5c565b6109df565b6104c86109eb565b6040516001600160a01b039091168152602001610459565b6104f16104ee366004611a5c565b50565b005b60025461044f565b61049d610509366004611ab1565b610a6c565b61044f610a91565b61051e610a9a565b60405160ff9091168152602001610459565b6104f161053e366004611a87565b5050565b7f00000000000000000000000000000000000000000000000000000000000000006104c8565b61044f610576366004611aef565b5f9392505050565b61044f61058c366004611b2e565b505f90565b61044f61059f366004611b2e565b505f1990565b6104f16105b3366004611a87565b610ac5565b61044f60055481565b61044f6105cf366004611b8e565b610acf565b6104f16105e2366004611a5c565b610ae2565b6104c8610aeb565b6104f16104ee366004611b2e565b6104c8610b48565b61044f610ba5565b61044f61061b366004611c3d565b610c2b565b61044f61062e366004611b2e565b6001600160a01b03165f9081526020819052604090205490565b61044f60065481565b600754600854600954600a54600b54610677946001600160a01b03908116949392911685565b604080516001600160a01b03968716815260208101959095528401929092526060830152909116608082015260a001610459565b6104c8610c36565b61044f6106c1366004611c3d565b610c93565b61046a610cbc565b6104f16106dc366004611a87565b610ccb565b61049d6106ef366004611a87565b610cd5565b61044f610702366004611a5c565b610ce2565b61044f610715366004611aef565b610cee565b61044f610728366004611aef565b610cfa565b610735610d06565b604051610459919081516001600160a01b039081168252602080840151908301526040808401519083015260608084015190830152608092830151169181019190915260a00190565b61044f61078c366004611a5c565b610d88565b6007546001600160a01b03166104c8565b6104c87f000000000000000000000000000000000000000000000000000000000000000081565b6104f161053e366004611c6b565b6104f16104ee366004611cdc565b61044f6107f3366004611b2e565b610d93565b61049d610806366004611b2e565b600d6020525f908152604090205460ff1681565b5f61044f565b61044f61082e366004611b2e565b610db5565b61044f610841366004611d90565b6001600160a01b039182165f90815260016020908152604080832093909416825291909152205490565b6104f1610879366004611b2e565b6001600160a01b03165f818152600d60205260408120805460ff19166001908117909155600c805491820181559091527fdf6966c971051c3d54ec59162606531493a51404a002842f56009d7e5cf4a8c70180546001600160a01b0319169091179055565b6108e6610dd2565b6040516104599190611dbc565b61044f610901366004611b8e565b610e31565b6104c8610914366004611a5c565b610e84565b5f610922610eac565b905090565b60606003805461093690611e07565b80601f016020809104026020016040519081016040528092919081815260200182805461096290611e07565b80156109ad5780601f10610984576101008083540402835291602001916109ad565b820191905f5260205f20905b81548152906001019060200180831161099057829003601f168201915b5050505050905090565b5f6109c2825f610f34565b92915050565b5f336109d5818585610f6c565b5060019392505050565b5f6109c2826001610f7e565b5f7f00000000000000000000000000000000000000000000000000000000000000006001600160a01b031663117d8ae06040518163ffffffff1660e01b8152600401602060405180830381865afa158015610a48573d5f5f3e3d5ffd5b505050506040513d601f19601f820116820180604052508101906109229190611e3f565b5f33610a79858285610fad565b610a84858585611015565b60019150505b9392505050565b5f610922611072565b5f610922817f0000000000000000000000000000000000000000000000000000000000000000611e6e565b61053e8282611176565b5f610ada84846111aa565b949350505050565b6104ee816111c5565b5f7f00000000000000000000000000000000000000000000000000000000000000006001600160a01b0316635b0f83f36040518163ffffffff1660e01b8152600401602060405180830381865afa158015610a48573d5f5f3e3d5ffd5b5f7f00000000000000000000000000000000000000000000000000000000000000006001600160a01b03166361d027b36040518163ffffffff1660e01b8152600401602060405180830381865afa158015610a48573d5f5f3e3d5ffd5b5f5f60065442610bb59190611e87565b90505f306001600160a01b03166318160ddd6040518163ffffffff1660e01b8152600401602060405180830381865afa158015610bf4573d5f5f3e3d5ffd5b505050506040513d601f19601f82011682018060405250810190610c189190611e9a565b9050610c24818361122f565b9250505090565b5f610a8a83836111aa565b5f7f00000000000000000000000000000000000000000000000000000000000000006001600160a01b0316637aaceb956040518163ffffffff1660e01b8152600401602060405180830381865afa158015610a48573d5f5f3e3d5ffd5b5f5f19610ca4565b60405180910390fd5b5f610cae85610ce2565b9050610ada338583886112a9565b60606004805461093690611e07565b61053e828261133b565b5f336109d5818585611015565b5f6109c2826001610f34565b5f610ada84848461136f565b5f610ada8484846113c5565b610d456040518060a001604052805f6001600160a01b031681526020015f81526020015f81526020015f81526020015f6001600160a01b031681525090565b506040805160a0810182526007546001600160a01b039081168252600854602083015260095492820192909252600a546060820152600b54909116608082015290565b5f6109c2825f610f7e565b6001600160a01b0381165f908152602081905260408120546109c2905f610f34565b6001600160a01b0381165f908152602081905260408120546109c2565b6060600c8054806020026020016040519081016040528092919081815260200182805480156109ad57602002820191905f5260205f20905b81546001600160a01b03168152600190910190602001808311610e0a575050505050905090565b5f81604051610e409190611ed2565b604051908190038120906001600160a01b038516907f38383a2eb7bd8ee888f12fb942a2e22e84f2d7240f1f8541ad4bbddace6e3442905f90a3610ada84846111aa565b600c8181548110610e93575f80fd5b5f918252602090912001546001600160a01b0316905081565b6040516370a0823160e01b81523060048201525f907f00000000000000000000000000000000000000000000000000000000000000006001600160a01b0316906370a0823190602401602060405180830381865afa158015610f10573d5f5f3e3d5ffd5b505050506040513d601f19601f820116820180604052508101906109229190611e9a565b5f610a8a610f40610919565b610f4b906001611ee8565b610f565f600a611fde565b600254610f639190611ee8565b85919085611412565b610f798383836001611454565b505050565b5f610a8a610f8d82600a611fde565b600254610f9a9190611ee8565b610fa2610919565b610f63906001611ee8565b6001600160a01b038381165f908152600160209081526040808320938616835292905220545f19811461100f578181101561100157828183604051637dc7a0d960e11b8152600401610c9b93929190611eb1565b61100f84848484035f611454565b50505050565b6001600160a01b03831661103e57604051634b637e8f60e11b81525f6004820152602401610c9b565b6001600160a01b0382166110675760405163ec442f0560e01b81525f6004820152602401610c9b565b610f79838383611518565b5f6110866005546110825f61162b565b1490565b156110945750426006555f90565b5f600654426110a39190611e87565b9050805f036110b3575f91505090565b5f306001600160a01b03166318160ddd6040518163ffffffff1660e01b8152600401602060405180830381865afa1580156110f0573d5f5f3e3d5ffd5b505050506040513d601f19601f820116820180604052508101906111149190611e9a565b9050611120818361122f565b9250821561117157611139611133610c36565b84610ac5565b426006556040518381527f698f29fe990d4e7770f7e74cd309da261dd03ca828f7bb3c2ea8b8c9adcc0ecd9060200160405180910390a15b505090565b6001600160a01b03821661119f5760405163ec442f0560e01b81525f6004820152602401610c9b565b61053e5f8383611518565b5f5f195f6111b785610d88565b9050610ada338587846112a9565b6111ce81611642565b6111eb576040516319ecf1a560e31b815260040160405180910390fd5b6111f3611072565b5060058190556040518181527f186e864438b783eec69fd7ce4871c28accfc0b45558ea08c48540f76094fecde9060200160405180910390a150565b5f5f6301e133806005546112439190612000565b90505f6112866112696112586012600a612013565b61126390606461201e565b84611663565b856112766012600a612013565b61128190606461201e565b61166e565b90505f611293868361167c565b905061129f8682611e87565b9695505050505050565b6112d57f00000000000000000000000000000000000000000000000000000000000000008530856116a8565b6112df8382611176565b826001600160a01b0316846001600160a01b03167fdcbc1c05240f31ff3ad067ef1ee35ce4997762752e3a095284754544f4c709d7848460405161132d929190918252602082015260400190565b60405180910390a350505050565b6001600160a01b03821661136457604051634b637e8f60e11b81525f6004820152602401610c9b565b61053e825f83611518565b5f5f61137a83610d93565b9050808511156113a357828582604051633fa733bb60e21b8152600401610c9b93929190611eb1565b5f6113ad866109df565b90506113bc338686898561170f565b95945050505050565b5f5f6113d083610db5565b9050808511156113f957828582604051632e52afbb60e21b8152600401610c9b93929190611eb1565b5f611403866109b7565b90506113bc338686848a61170f565b5f61143f61141f836117cf565b801561143a57505f848061143557611435611fec565b868809115b151590565b61144a8686866117fb565b6113bc9190611ee8565b6001600160a01b03841661147d5760405163e602df0560e01b81525f6004820152602401610c9b565b6001600160a01b0383166114a657604051634a1406b160e11b81525f6004820152602401610c9b565b6001600160a01b038085165f908152600160209081526040808320938716835292905220829055801561100f57826001600160a01b0316846001600160a01b03167f8c5be1e5ebec7d5bd14f71427d1e84f3dd0314c0f7b2291e5b200ac8c7c3b9258460405161132d91815260200190565b6001600160a01b038316611542578060025f8282546115379190611ee8565b9091555061159f9050565b6001600160a01b0383165f90815260208190526040902054818110156115815783818360405163391434e360e21b8152600401610c9b93929190611eb1565b6001600160a01b0384165f9081526020819052604090209082900390555b6001600160a01b0382166115bb576002805482900390556115d9565b6001600160a01b0382165f9081526020819052604090208054820190555b816001600160a01b0316836001600160a01b03167fddf252ad1be2c89b69c2b068fc378daa952ba7f163c4a11628f55a4df523b3ef8360405161161e91815260200190565b60405180910390a3505050565b5f6116386012600a612013565b6109c2908361201e565b5f6109c2826116536012600a612013565b61165e90606461201e565b101590565b5f610a8a8284611ee8565b5f838261129f8286836118b1565b5f6116896012600a612013565b61169490606461201e565b61169e838561201e565b610a8a9190612000565b6040516001600160a01b03848116602483015283811660448301526064820183905261100f9186918216906323b872dd906084015b604051602081830303815290604052915060e01b6020820180516001600160e01b038381831617835250505050611979565b826001600160a01b0316856001600160a01b03161461173357611733838683610fad565b61173d838261133b565b6117687f000000000000000000000000000000000000000000000000000000000000000085846119e5565b826001600160a01b0316846001600160a01b0316866001600160a01b03167ffbde797d201c681b91056529119e0b02407c7bb96a4a2c75c01fc9667232c8db85856040516117c0929190918252602082015260400190565b60405180910390a45050505050565b5f60028260038111156117e4576117e4612035565b6117ee9190612049565b60ff166001149050919050565b5f838302815f1985870982811083820303915050805f0361182f5783828161182557611825611fec565b0492505050610a8a565b808411611846576118466003851502601118611a16565b5f848688095f868103871696879004966002600389028118808a02820302808a02820302808a02820302808a02820302808a02820302808a02909103029181900381900460010186841190950394909402919094039290920491909117919091029150509392505050565b5f8315806118bd575082155b156118d75782156118ce575f6118d0565b815b9050610a8a565b6118e260028461206a565b156118ed57836118ef565b815b90505f6118fd600284612000565b90506002840493505b831561197157848502858682041461191c575f5ffd5b8181018181101561192b575f5ffd5b8490049550506001841615611966578482028286820414158615151615611950575f5ffd5b8181018181101561195f575f5ffd5b8490049250505b600284049350611906565b509392505050565b5f5f60205f8451602086015f885af180611998576040513d5f823e3d81fd5b50505f513d915081156119af5780600114156119bc565b6001600160a01b0384163b155b1561100f57604051635274afe760e01b81526001600160a01b0385166004820152602401610c9b565b6040516001600160a01b03838116602483015260448201839052610f7991859182169063a9059cbb906064016116dd565b634e487b715f52806020526024601cfd5b602081525f82518060208401528060208501604085015e5f604082850101526040601f19601f83011684010191505092915050565b5f60208284031215611a6c575f5ffd5b5035919050565b6001600160a01b03811681146104ee575f5ffd5b5f5f60408385031215611a98575f5ffd5b8235611aa381611a73565b946020939093013593505050565b5f5f5f60608486031215611ac3575f5ffd5b8335611ace81611a73565b92506020840135611ade81611a73565b929592945050506040919091013590565b5f5f5f60608486031215611b01575f5ffd5b833592506020840135611b1381611a73565b91506040840135611b2381611a73565b809150509250925092565b5f60208284031215611b3e575f5ffd5b8135610a8a81611a73565b634e487b7160e01b5f52604160045260245ffd5b604051601f8201601f1916810167ffffffffffffffff81118282101715611b8657611b86611b49565b604052919050565b5f5f5f60608486031215611ba0575f5ffd5b833592506020840135611bb281611a73565b9150604084013567ffffffffffffffff811115611bcd575f5ffd5b8401601f81018613611bdd575f5ffd5b803567ffffffffffffffff811115611bf757611bf7611b49565b611c0a601f8201601f1916602001611b5d565b818152876020838501011115611c1e575f5ffd5b816020840160208301375f602083830101528093505050509250925092565b5f5f60408385031215611c4e575f5ffd5b823591506020830135611c6081611a73565b809150509250929050565b5f5f60208385031215611c7c575f5ffd5b823567ffffffffffffffff811115611c92575f5ffd5b8301601f81018513611ca2575f5ffd5b803567ffffffffffffffff811115611cb8575f5ffd5b8560208260051b8401011115611ccc575f5ffd5b6020919091019590945092505050565b5f60208284031215611cec575f5ffd5b813567ffffffffffffffff811115611d02575f5ffd5b8201601f81018413611d12575f5ffd5b803567ffffffffffffffff811115611d2c57611d2c611b49565b8060051b611d3c60208201611b5d565b91825260208184018101929081019087841115611d57575f5ffd5b6020850194505b83851015611d855784359250611d7383611a73565b82825260209485019490910190611d5e565b979650505050505050565b5f5f60408385031215611da1575f5ffd5b8235611dac81611a73565b91506020830135611c6081611a73565b602080825282518282018190525f918401906040840190835b81811015611dfc5783516001600160a01b0316835260209384019390920191600101611dd5565b509095945050505050565b600181811c90821680611e1b57607f821691505b602082108103611e3957634e487b7160e01b5f52602260045260245ffd5b50919050565b5f60208284031215611e4f575f5ffd5b8151610a8a81611a73565b634e487b7160e01b5f52601160045260245ffd5b60ff81811683821601908111156109c2576109c2611e5a565b818103818111156109c2576109c2611e5a565b5f60208284031215611eaa575f5ffd5b5051919050565b6001600160a01b039390931683526020830191909152604082015260600190565b5f82518060208501845e5f920191825250919050565b808201808211156109c2576109c2611e5a565b6001815b6001841115611f3657808504811115611f1a57611f1a611e5a565b6001841615611f2857908102905b60019390931c928002611eff565b935093915050565b5f82611f4c575060016109c2565b81611f5857505f6109c2565b8160018114611f6e5760028114611f7857611f94565b60019150506109c2565b60ff841115611f8957611f89611e5a565b50506001821b6109c2565b5060208310610133831016604e8410600b8410161715611fb7575081810a6109c2565b611fc35f198484611efb565b805f1904821115611fd657611fd6611e5a565b029392505050565b5f610a8a60ff841683611f3e565b634e487b7160e01b5f52601260045260245ffd5b5f8261200e5761200e611fec565b500490565b5f610a8a8383611f3e565b80820281158282048414176109c2576109c2611e5a565b634e487b7160e01b5f52602160045260245ffd5b5f60ff83168061205b5761205b611fec565b8060ff84160691505092915050565b5f8261207857612078611fec565b50069056fea264697066735822122088ecc04924a04ba0a0929f69de32d767fe4d2d54d174eb36b5500ce67069824a64736f6c634300081c0033","linkReferences":{}},"methodIdentifiers":{"addArk(address)":"e37d5b7f","addArks(address[])":"cc5b1e55","adjustBuffer((address,address,uint256,bytes,bytes)[])":"cada5143","allowance(address,address)":"dd62ed3e","approve(address,uint256)":"095ea7b3","arks(uint256)":"ff32a42a","asset()":"38d52e0f","balanceOf(address)":"70a08231","bufferArk()":"c8169aa1","burn(address,uint256)":"9dc29fac","config()":"79502c55","configurationManager()":"c9c667e3","convertToAssets(uint256)":"07a2d13a","convertToShares(uint256)":"c6e6f592","decimals()":"313ce567","deposit(uint256,address)":"6e553f65","deposit(uint256,address,bytes)":"faa9bce9","depositAndStake(uint256,address)":"d537092f","depositAndStake(uint256,address,bytes)":"4fee7627","emergencyShutdown()":"3403c2fc","estimateAccruedTip()":"68482626","forceRebalance((address,address,uint256,bytes,bytes)[])":"e7b20e5b","getArks()":"f1cd665b","getConfig()":"c3f909d4","harborCommand()":"5b0f83f3","isArkActive(address)":"d25dd101","lastTipTimestamp()":"71aedbc1","maxBufferRedeem(address)":"9265b76e","maxBufferWithdraw(address)":"3e314c76","maxDeposit(address)":"402d267d","maxMint(address)":"c63d75b6","maxRedeem(address)":"d905777e","maxWithdraw(address)":"ce96cb77","mint(address,uint256)":"40c10f19","mint(uint256,address)":"94bf804d","name()":"06fdde03","pause()":"8456cb59","previewDeposit(uint256)":"ef8b30f7","previewMint(uint256)":"b3d7f6b9","previewRedeem(uint256)":"4cdad506","previewWithdraw(uint256)":"0a28a477","raft()":"117d8ae0","rebalance((address,address,uint256,bytes,bytes)[])":"fcf2849f","redeem(uint256,address,address)":"ba087652","redeemFromArks(uint256,address,address)":"3a7c9f0e","redeemFromBuffer(uint256,address,address)":"f3577816","removeArk(address)":"96c25a38","setArkDepositCap(address,uint256)":"34050560","setArkMaxDepositPercentageOfTVL(address,uint256)":"f3ba553e","setArkMaxRebalanceInflow(address,uint256)":"d45a07a1","setArkMaxRebalanceOutflow(address,uint256)":"b637766c","setDepositCap(address,uint256)":"f878369e","setFleetDepositCap(uint256)":"d902d41a","setMaxRebalanceOperations(uint256)":"133ab579","setMinimumBufferBalance(uint256)":"4daecb9c","setMinimumPauseTime(uint256)":"e193858f","setStakingRewardsManager(address)":"5e5a9ea9","setTipRate(uint256)":"5822198f","stake(uint256)":"a694fc3a","symbol()":"95d89b41","test()":"f8a8fd6d","testMint(address,uint256)":"f28e093d","tip()":"2755cd2d","tipJar()":"7aaceb95","tipRate()":"498e76a0","totalAssets()":"01e1d114","totalSupply()":"18160ddd","transfer(address,uint256)":"a9059cbb","transferFrom(address,address,uint256)":"23b872dd","treasury()":"61d027b3","unpause()":"3f4ba83a","updateRebalanceCooldown(uint256)":"dc9de0a8","withdraw(uint256,address,address)":"b460af94","withdrawFromArks(uint256,address,address)":"a039e944","withdrawFromBuffer(uint256,address,address)":"5f538f6f","withdrawableTotalAssets()":"d570ee47"},"id":320}