{"abi":[{"type":"constructor","inputs":[{"name":"underlying","type":"address","internalType":"address"},{"name":"configurationManager","type":"address","internalType":"address"},{"name":"initialTipRate","type":"uint256","internalType":"Percentage"}],"stateMutability":"nonpayable"},{"type":"function","name":"addArk","inputs":[{"name":"ark","type":"address","internalType":"address"}],"outputs":[],"stateMutability":"nonpayable"},{"type":"function","name":"addArks","inputs":[{"name":"_arks","type":"address[]","internalType":"address[]"}],"outputs":[],"stateMutability":"nonpayable"},{"type":"function","name":"adjustBuffer","inputs":[{"name":"data","type":"tuple[]","internalType":"struct RebalanceData[]","components":[{"name":"fromArk","type":"address","internalType":"address"},{"name":"toArk","type":"address","internalType":"address"},{"name":"amount","type":"uint256","internalType":"uint256"},{"name":"boardData","type":"bytes","internalType":"bytes"},{"name":"disembarkData","type":"bytes","internalType":"bytes"}]}],"outputs":[],"stateMutability":"nonpayable"},{"type":"function","name":"allowance","inputs":[{"name":"owner","type":"address","internalType":"address"},{"name":"spender","type":"address","internalType":"address"}],"outputs":[{"name":"","type":"uint256","internalType":"uint256"}],"stateMutability":"view"},{"type":"function","name":"approve","inputs":[{"name":"spender","type":"address","internalType":"address"},{"name":"value","type":"uint256","internalType":"uint256"}],"outputs":[{"name":"","type":"bool","internalType":"bool"}],"stateMutability":"nonpayable"},{"type":"function","name":"arks","inputs":[{"name":"","type":"uint256","internalType":"uint256"}],"outputs":[{"name":"","type":"address","internalType":"address"}],"stateMutability":"view"},{"type":"function","name":"asset","inputs":[],"outputs":[{"name":"","type":"address","internalType":"address"}],"stateMutability":"view"},{"type":"function","name":"balanceOf","inputs":[{"name":"account","type":"address","internalType":"address"}],"outputs":[{"name":"","type":"uint256","internalType":"uint256"}],"stateMutability":"view"},{"type":"function","name":"bufferArk","inputs":[],"outputs":[{"name":"","type":"address","internalType":"address"}],"stateMutability":"view"},{"type":"function","name":"burn","inputs":[{"name":"account","type":"address","internalType":"address"},{"name":"amount","type":"uint256","internalType":"uint256"}],"outputs":[],"stateMutability":"nonpayable"},{"type":"function","name":"config","inputs":[],"outputs":[{"name":"bufferArk","type":"address","internalType":"contract IArk"},{"name":"minimumBufferBalance","type":"uint256","internalType":"uint256"},{"name":"depositCap","type":"uint256","internalType":"uint256"},{"name":"maxRebalanceOperations","type":"uint256","internalType":"uint256"},{"name":"stakingRewardsManager","type":"address","internalType":"address"}],"stateMutability":"view"},{"type":"function","name":"convertToAssets","inputs":[{"name":"shares","type":"uint256","internalType":"uint256"}],"outputs":[{"name":"","type":"uint256","internalType":"uint256"}],"stateMutability":"view"},{"type":"function","name":"convertToShares","inputs":[{"name":"assets","type":"uint256","internalType":"uint256"}],"outputs":[{"name":"","type":"uint256","internalType":"uint256"}],"stateMutability":"view"},{"type":"function","name":"decimals","inputs":[],"outputs":[{"name":"","type":"uint8","internalType":"uint8"}],"stateMutability":"view"},{"type":"function","name":"deposit","inputs":[{"name":"assets","type":"uint256","internalType":"uint256"},{"name":"receiver","type":"address","internalType":"address"}],"outputs":[{"name":"","type":"uint256","internalType":"uint256"}],"stateMutability":"nonpayable"},{"type":"function","name":"deposit","inputs":[{"name":"assets","type":"uint256","internalType":"uint256"},{"name":"receiver","type":"address","internalType":"address"},{"name":"referralCode","type":"bytes","internalType":"bytes"}],"outputs":[{"name":"","type":"uint256","internalType":"uint256"}],"stateMutability":"nonpayable"},{"type":"function","name":"depositAndStake","inputs":[{"name":"assets","type":"uint256","internalType":"uint256"},{"name":"receiver","type":"address","internalType":"address"},{"name":"","type":"bytes","internalType":"bytes"}],"outputs":[{"name":"","type":"uint256","internalType":"uint256"}],"stateMutability":"nonpayable"},{"type":"function","name":"depositAndStake","inputs":[{"name":"assets","type":"uint256","internalType":"uint256"},{"name":"receiver","type":"address","internalType":"address"}],"outputs":[{"name":"","type":"uint256","internalType":"uint256"}],"stateMutability":"nonpayable"},{"type":"function","name":"emergencyShutdown","inputs":[],"outputs":[],"stateMutability":"nonpayable"},{"type":"function","name":"estimateAccruedTip","inputs":[],"outputs":[{"name":"","type":"uint256","internalType":"uint256"}],"stateMutability":"view"},{"type":"function","name":"forceRebalance","inputs":[{"name":"data","type":"tuple[]","internalType":"struct RebalanceData[]","components":[{"name":"fromArk","type":"address","internalType":"address"},{"name":"toArk","type":"address","internalType":"address"},{"name":"amount","type":"uint256","internalType":"uint256"},{"name":"boardData","type":"bytes","internalType":"bytes"},{"name":"disembarkData","type":"bytes","internalType":"bytes"}]}],"outputs":[],"stateMutability":"nonpayable"},{"type":"function","name":"getArks","inputs":[],"outputs":[{"name":"","type":"address[]","internalType":"address[]"}],"stateMutability":"view"},{"type":"function","name":"getConfig","inputs":[],"outputs":[{"name":"","type":"tuple","internalType":"struct FleetConfig","components":[{"name":"bufferArk","type":"address","internalType":"contract IArk"},{"name":"minimumBufferBalance","type":"uint256","internalType":"uint256"},{"name":"depositCap","type":"uint256","internalType":"uint256"},{"name":"maxRebalanceOperations","type":"uint256","internalType":"uint256"},{"name":"stakingRewardsManager","type":"address","internalType":"address"}]}],"stateMutability":"view"},{"type":"function","name":"isArkActive","inputs":[{"name":"","type":"address","internalType":"address"}],"outputs":[{"name":"","type":"bool","internalType":"bool"}],"stateMutability":"view"},{"type":"function","name":"lastTipTimestamp","inputs":[],"outputs":[{"name":"","type":"uint256","internalType":"uint256"}],"stateMutability":"view"},{"type":"function","name":"maxBufferRedeem","inputs":[{"name":"owner","type":"address","internalType":"address"}],"outputs":[{"name":"","type":"uint256","internalType":"uint256"}],"stateMutability":"view"},{"type":"function","name":"maxBufferWithdraw","inputs":[{"name":"owner","type":"address","internalType":"address"}],"outputs":[{"name":"","type":"uint256","internalType":"uint256"}],"stateMutability":"view"},{"type":"function","name":"maxDeposit","inputs":[{"name":"","type":"address","internalType":"address"}],"outputs":[{"name":"","type":"uint256","internalType":"uint256"}],"stateMutability":"view"},{"type":"function","name":"maxMint","inputs":[{"name":"","type":"address","internalType":"address"}],"outputs":[{"name":"","type":"uint256","internalType":"uint256"}],"stateMutability":"view"},{"type":"function","name":"maxRedeem","inputs":[{"name":"owner","type":"address","internalType":"address"}],"outputs":[{"name":"","type":"uint256","internalType":"uint256"}],"stateMutability":"view"},{"type":"function","name":"maxWithdraw","inputs":[{"name":"owner","type":"address","internalType":"address"}],"outputs":[{"name":"","type":"uint256","internalType":"uint256"}],"stateMutability":"view"},{"type":"function","name":"mint","inputs":[{"name":"account","type":"address","internalType":"address"},{"name":"amount","type":"uint256","internalType":"uint256"}],"outputs":[],"stateMutability":"nonpayable"},{"type":"function","name":"mint","inputs":[{"name":"shares","type":"uint256","internalType":"uint256"},{"name":"receiver","type":"address","internalType":"address"}],"outputs":[{"name":"","type":"uint256","internalType":"uint256"}],"stateMutability":"nonpayable"},{"type":"function","name":"name","inputs":[],"outputs":[{"name":"","type":"string","internalType":"string"}],"stateMutability":"view"},{"type":"function","name":"pause","inputs":[],"outputs":[],"stateMutability":"nonpayable"},{"type":"function","name":"previewDeposit","inputs":[{"name":"assets","type":"uint256","internalType":"uint256"}],"outputs":[{"name":"","type":"uint256","internalType":"uint256"}],"stateMutability":"view"},{"type":"function","name":"previewMint","inputs":[{"name":"shares","type":"uint256","internalType":"uint256"}],"outputs":[{"name":"","type":"uint256","internalType":"uint256"}],"stateMutability":"view"},{"type":"function","name":"previewRedeem","inputs":[{"name":"shares","type":"uint256","internalType":"uint256"}],"outputs":[{"name":"","type":"uint256","internalType":"uint256"}],"stateMutability":"view"},{"type":"function","name":"previewWithdraw","inputs":[{"name":"assets","type":"uint256","internalType":"uint256"}],"outputs":[{"name":"","type":"uint256","internalType":"uint256"}],"stateMutability":"view"},{"type":"function","name":"rebalance","inputs":[{"name":"data","type":"tuple[]","internalType":"struct RebalanceData[]","components":[{"name":"fromArk","type":"address","internalType":"address"},{"name":"toArk","type":"address","internalType":"address"},{"name":"amount","type":"uint256","internalType":"uint256"},{"name":"boardData","type":"bytes","internalType":"bytes"},{"name":"disembarkData","type":"bytes","internalType":"bytes"}]}],"outputs":[],"stateMutability":"nonpayable"},{"type":"function","name":"redeem","inputs":[{"name":"assets","type":"uint256","internalType":"uint256"},{"name":"receiver","type":"address","internalType":"address"},{"name":"owner","type":"address","internalType":"address"}],"outputs":[{"name":"","type":"uint256","internalType":"uint256"}],"stateMutability":"nonpayable"},{"type":"function","name":"redeemFromArks","inputs":[{"name":"shares","type":"uint256","internalType":"uint256"},{"name":"receiver","type":"address","internalType":"address"},{"name":"owner","type":"address","internalType":"address"}],"outputs":[{"name":"","type":"uint256","internalType":"uint256"}],"stateMutability":"nonpayable"},{"type":"function","name":"redeemFromBuffer","inputs":[{"name":"shares","type":"uint256","internalType":"uint256"},{"name":"receiver","type":"address","internalType":"address"},{"name":"owner","type":"address","internalType":"address"}],"outputs":[{"name":"","type":"uint256","internalType":"uint256"}],"stateMutability":"nonpayable"},{"type":"function","name":"removeArk","inputs":[{"name":"ark","type":"address","internalType":"address"}],"outputs":[],"stateMutability":"nonpayable"},{"type":"function","name":"setArkDepositCap","inputs":[{"name":"ark","type":"address","internalType":"address"},{"name":"newDepositCap","type":"uint256","internalType":"uint256"}],"outputs":[],"stateMutability":"nonpayable"},{"type":"function","name":"setArkMaxDepositPercentageOfTVL","inputs":[{"name":"ark","type":"address","internalType":"address"},{"name":"newMaxDepositPercentageOfTVL","type":"uint256","internalType":"Percentage"}],"outputs":[],"stateMutability":"nonpayable"},{"type":"function","name":"setArkMaxRebalanceInflow","inputs":[{"name":"ark","type":"address","internalType":"address"},{"name":"newMaxRebalanceInflow","type":"uint256","internalType":"uint256"}],"outputs":[],"stateMutability":"nonpayable"},{"type":"function","name":"setArkMaxRebalanceOutflow","inputs":[{"name":"ark","type":"address","internalType":"address"},{"name":"newMaxRebalanceOutflow","type":"uint256","internalType":"uint256"}],"outputs":[],"stateMutability":"nonpayable"},{"type":"function","name":"setDepositCap","inputs":[{"name":"ark","type":"address","internalType":"address"},{"name":"newDepositCap","type":"uint256","internalType":"uint256"}],"outputs":[],"stateMutability":"nonpayable"},{"type":"function","name":"setFleetDepositCap","inputs":[{"name":"newCap","type":"uint256","internalType":"uint256"}],"outputs":[],"stateMutability":"nonpayable"},{"type":"function","name":"setMaxRebalanceOperations","inputs":[{"name":"newMaxRebalanceOperations","type":"uint256","internalType":"uint256"}],"outputs":[],"stateMutability":"nonpayable"},{"type":"function","name":"setMinimumBufferBalance","inputs":[{"name":"newMinimumBalance","type":"uint256","internalType":"uint256"}],"outputs":[],"stateMutability":"nonpayable"},{"type":"function","name":"setMinimumPauseTime","inputs":[{"name":"newMinimumPauseTime","type":"uint256","internalType":"uint256"}],"outputs":[],"stateMutability":"nonpayable"},{"type":"function","name":"setStakingRewardsManager","inputs":[{"name":"newStakingRewardsManager","type":"address","internalType":"address"}],"outputs":[],"stateMutability":"nonpayable"},{"type":"function","name":"setTipRate","inputs":[{"name":"newTipRate","type":"uint256","internalType":"Percentage"}],"outputs":[],"stateMutability":"nonpayable"},{"type":"function","name":"stake","inputs":[{"name":"shares","type":"uint256","internalType":"uint256"}],"outputs":[],"stateMutability":"nonpayable"},{"type":"function","name":"symbol","inputs":[],"outputs":[{"name":"","type":"string","internalType":"string"}],"stateMutability":"view"},{"type":"function","name":"test","inputs":[],"outputs":[],"stateMutability":"nonpayable"},{"type":"function","name":"testMint","inputs":[{"name":"account","type":"address","internalType":"address"},{"name":"amount","type":"uint256","internalType":"uint256"}],"outputs":[],"stateMutability":"nonpayable"},{"type":"function","name":"tip","inputs":[],"outputs":[{"name":"","type":"uint256","internalType":"uint256"}],"stateMutability":"nonpayable"},{"type":"function","name":"tipJar","inputs":[],"outputs":[{"name":"","type":"address","internalType":"address"}],"stateMutability":"view"},{"type":"function","name":"tipRate","inputs":[],"outputs":[{"name":"","type":"uint256","internalType":"Percentage"}],"stateMutability":"view"},{"type":"function","name":"totalAssets","inputs":[],"outputs":[{"name":"","type":"uint256","internalType":"uint256"}],"stateMutability":"view"},{"type":"function","name":"totalSupply","inputs":[],"outputs":[{"name":"","type":"uint256","internalType":"uint256"}],"stateMutability":"view"},{"type":"function","name":"transfer","inputs":[{"name":"to","type":"address","internalType":"address"},{"name":"value","type":"uint256","internalType":"uint256"}],"outputs":[{"name":"","type":"bool","internalType":"bool"}],"stateMutability":"nonpayable"},{"type":"function","name":"transferFrom","inputs":[{"name":"from","type":"address","internalType":"address"},{"name":"to","type":"address","internalType":"address"},{"name":"value","type":"uint256","internalType":"uint256"}],"outputs":[{"name":"","type":"bool","internalType":"bool"}],"stateMutability":"nonpayable"},{"type":"function","name":"unpause","inputs":[],"outputs":[],"stateMutability":"nonpayable"},{"type":"function","name":"unstake","inputs":[{"name":"shares","type":"uint256","internalType":"uint256"}],"outputs":[],"stateMutability":"nonpayable"},{"type":"function","name":"updateRebalanceCooldown","inputs":[{"name":"newCooldown","type":"uint256","internalType":"uint256"}],"outputs":[],"stateMutability":"nonpayable"},{"type":"function","name":"withdraw","inputs":[{"name":"assets","type":"uint256","internalType":"uint256"},{"name":"receiver","type":"address","internalType":"address"},{"name":"owner","type":"address","internalType":"address"}],"outputs":[{"name":"","type":"uint256","internalType":"uint256"}],"stateMutability":"nonpayable"},{"type":"function","name":"withdrawFromArks","inputs":[{"name":"shares","type":"uint256","internalType":"uint256"},{"name":"receiver","type":"address","internalType":"address"},{"name":"owner","type":"address","internalType":"address"}],"outputs":[{"name":"","type":"uint256","internalType":"uint256"}],"stateMutability":"nonpayable"},{"type":"function","name":"withdrawFromBuffer","inputs":[{"name":"shares","type":"uint256","internalType":"uint256"},{"name":"receiver","type":"address","internalType":"address"},{"name":"owner","type":"address","internalType":"address"}],"outputs":[{"name":"","type":"uint256","internalType":"uint256"}],"stateMutability":"nonpayable"},{"type":"function","name":"withdrawableTotalAssets","inputs":[],"outputs":[{"name":"","type":"uint256","internalType":"uint256"}],"stateMutability":"pure"},{"type":"event","name":"Approval","inputs":[{"name":"owner","type":"address","indexed":true,"internalType":"address"},{"name":"spender","type":"address","indexed":true,"internalType":"address"},{"name":"value","type":"uint256","indexed":false,"internalType":"uint256"}],"anonymous":false},{"type":"event","name":"ArkAdded","inputs":[{"name":"ark","type":"address","indexed":true,"internalType":"address"}],"anonymous":false},{"type":"event","name":"ArkRemoved","inputs":[{"name":"ark","type":"address","indexed":true,"internalType":"address"}],"anonymous":false},{"type":"event","name":"Deposit","inputs":[{"name":"sender","type":"address","indexed":true,"internalType":"address"},{"name":"owner","type":"address","indexed":true,"internalType":"address"},{"name":"assets","type":"uint256","indexed":false,"internalType":"uint256"},{"name":"shares","type":"uint256","indexed":false,"internalType":"uint256"}],"anonymous":false},{"type":"event","name":"FeeAddressUpdated","inputs":[{"name":"newAddress","type":"address","indexed":false,"internalType":"address"}],"anonymous":false},{"type":"event","name":"FleetCommanderBufferAdjusted","inputs":[{"name":"keeper","type":"address","indexed":true,"internalType":"address"},{"name":"totalMoved","type":"uint256","indexed":false,"internalType":"uint256"}],"anonymous":false},{"type":"event","name":"FleetCommanderDepositCapUpdated","inputs":[{"name":"newCap","type":"uint256","indexed":false,"internalType":"uint256"}],"anonymous":false},{"type":"event","name":"FleetCommanderMaxRebalanceOperationsUpdated","inputs":[{"name":"newMaxRebalanceOperations","type":"uint256","indexed":false,"internalType":"uint256"}],"anonymous":false},{"type":"event","name":"FleetCommanderRedeemedFromArks","inputs":[{"name":"owner","type":"address","indexed":true,"internalType":"address"},{"name":"receiver","type":"address","indexed":false,"internalType":"address"},{"name":"totalRedeemed","type":"uint256","indexed":false,"internalType":"uint256"}],"anonymous":false},{"type":"event","name":"FleetCommanderReferral","inputs":[{"name":"referee","type":"address","indexed":true,"internalType":"address"},{"name":"referralCode","type":"bytes","indexed":true,"internalType":"bytes"}],"anonymous":false},{"type":"event","name":"FleetCommanderStakingRewardsUpdated","inputs":[{"name":"newStakingRewards","type":"address","indexed":false,"internalType":"address"}],"anonymous":false},{"type":"event","name":"FleetCommanderWithdrawnFromArks","inputs":[{"name":"owner","type":"address","indexed":true,"internalType":"address"},{"name":"receiver","type":"address","indexed":false,"internalType":"address"},{"name":"totalWithdrawn","type":"uint256","indexed":false,"internalType":"uint256"}],"anonymous":false},{"type":"event","name":"FleetCommanderminimumBufferBalanceUpdated","inputs":[{"name":"newBalance","type":"uint256","indexed":false,"internalType":"uint256"}],"anonymous":false},{"type":"event","name":"FundsBufferBalanceUpdated","inputs":[{"name":"user","type":"address","indexed":true,"internalType":"address"},{"name":"prevBalance","type":"uint256","indexed":false,"internalType":"uint256"},{"name":"newBalance","type":"uint256","indexed":false,"internalType":"uint256"}],"anonymous":false},{"type":"event","name":"FundsQueueRefilled","inputs":[{"name":"keeper","type":"address","indexed":true,"internalType":"address"},{"name":"prevBalance","type":"uint256","indexed":false,"internalType":"uint256"},{"name":"newBalance","type":"uint256","indexed":false,"internalType":"uint256"}],"anonymous":false},{"type":"event","name":"MinFundsQueueBalanceUpdated","inputs":[{"name":"keeper","type":"address","indexed":true,"internalType":"address"},{"name":"newBalance","type":"uint256","indexed":false,"internalType":"uint256"}],"anonymous":false},{"type":"event","name":"QueuedFundsCommitted","inputs":[{"name":"keeper","type":"address","indexed":true,"internalType":"address"},{"name":"prevBalance","type":"uint256","indexed":false,"internalType":"uint256"},{"name":"newBalance","type":"uint256","indexed":false,"internalType":"uint256"}],"anonymous":false},{"type":"event","name":"Rebalanced","inputs":[{"name":"keeper","type":"address","indexed":true,"internalType":"address"},{"name":"rebalances","type":"tuple[]","indexed":false,"internalType":"struct RebalanceData[]","components":[{"name":"fromArk","type":"address","internalType":"address"},{"name":"toArk","type":"address","internalType":"address"},{"name":"amount","type":"uint256","internalType":"uint256"},{"name":"boardData","type":"bytes","internalType":"bytes"},{"name":"disembarkData","type":"bytes","internalType":"bytes"}]}],"anonymous":false},{"type":"event","name":"TipAccrued","inputs":[{"name":"tipAmount","type":"uint256","indexed":false,"internalType":"uint256"}],"anonymous":false},{"type":"event","name":"TipJarUpdated","inputs":[{"name":"newTipJar","type":"address","indexed":false,"internalType":"address"}],"anonymous":false},{"type":"event","name":"TipRateUpdated","inputs":[{"name":"newTipRate","type":"uint256","indexed":false,"internalType":"Percentage"}],"anonymous":false},{"type":"event","name":"Transfer","inputs":[{"name":"from","type":"address","indexed":true,"internalType":"address"},{"name":"to","type":"address","indexed":true,"internalType":"address"},{"name":"value","type":"uint256","indexed":false,"internalType":"uint256"}],"anonymous":false},{"type":"event","name":"Withdraw","inputs":[{"name":"sender","type":"address","indexed":true,"internalType":"address"},{"name":"receiver","type":"address","indexed":true,"internalType":"address"},{"name":"owner","type":"address","indexed":true,"internalType":"address"},{"name":"assets","type":"uint256","indexed":false,"internalType":"uint256"},{"name":"shares","type":"uint256","indexed":false,"internalType":"uint256"}],"anonymous":false},{"type":"error","name":"ERC20InsufficientAllowance","inputs":[{"name":"spender","type":"address","internalType":"address"},{"name":"allowance","type":"uint256","internalType":"uint256"},{"name":"needed","type":"uint256","internalType":"uint256"}]},{"type":"error","name":"ERC20InsufficientBalance","inputs":[{"name":"sender","type":"address","internalType":"address"},{"name":"balance","type":"uint256","internalType":"uint256"},{"name":"needed","type":"uint256","internalType":"uint256"}]},{"type":"error","name":"ERC20InvalidApprover","inputs":[{"name":"approver","type":"address","internalType":"address"}]},{"type":"error","name":"ERC20InvalidReceiver","inputs":[{"name":"receiver","type":"address","internalType":"address"}]},{"type":"error","name":"ERC20InvalidSender","inputs":[{"name":"sender","type":"address","internalType":"address"}]},{"type":"error","name":"ERC20InvalidSpender","inputs":[{"name":"spender","type":"address","internalType":"address"}]},{"type":"error","name":"ERC4626ExceededMaxDeposit","inputs":[{"name":"receiver","type":"address","internalType":"address"},{"name":"assets","type":"uint256","internalType":"uint256"},{"name":"max","type":"uint256","internalType":"uint256"}]},{"type":"error","name":"ERC4626ExceededMaxMint","inputs":[{"name":"receiver","type":"address","internalType":"address"},{"name":"shares","type":"uint256","internalType":"uint256"},{"name":"max","type":"uint256","internalType":"uint256"}]},{"type":"error","name":"ERC4626ExceededMaxRedeem","inputs":[{"name":"owner","type":"address","internalType":"address"},{"name":"shares","type":"uint256","internalType":"uint256"},{"name":"max","type":"uint256","internalType":"uint256"}]},{"type":"error","name":"ERC4626ExceededMaxWithdraw","inputs":[{"name":"owner","type":"address","internalType":"address"},{"name":"assets","type":"uint256","internalType":"uint256"},{"name":"max","type":"uint256","internalType":"uint256"}]},{"type":"error","name":"FleetCommanderArkAlreadyExists","inputs":[{"name":"ark","type":"address","internalType":"address"}]},{"type":"error","name":"FleetCommanderArkAlreadyHasCommander","inputs":[]},{"type":"error","name":"FleetCommanderArkAssetsNotZero","inputs":[{"name":"ark","type":"address","internalType":"address"}]},{"type":"error","name":"FleetCommanderArkDepositCapGreaterThanZero","inputs":[{"name":"ark","type":"address","internalType":"address"}]},{"type":"error","name":"FleetCommanderArkDepositCapZero","inputs":[{"name":"ark","type":"address","internalType":"address"}]},{"type":"error","name":"FleetCommanderArkNotActive","inputs":[{"name":"ark","type":"address","internalType":"address"}]},{"type":"error","name":"FleetCommanderArkNotFound","inputs":[{"name":"ark","type":"address","internalType":"address"}]},{"type":"error","name":"FleetCommanderCantUseMaxUintMovingFromBuffer","inputs":[]},{"type":"error","name":"FleetCommanderCantUseRebalanceOnBufferArk","inputs":[]},{"type":"error","name":"FleetCommanderEffectiveDepositCapExceeded","inputs":[{"name":"ark","type":"address","internalType":"address"},{"name":"amount","type":"uint256","internalType":"uint256"},{"name":"effectiveDepositCap","type":"uint256","internalType":"uint256"}]},{"type":"error","name":"FleetCommanderExceedsMaxInflow","inputs":[{"name":"fromArk","type":"address","internalType":"address"},{"name":"amount","type":"uint256","internalType":"uint256"},{"name":"maxRebalanceInflow","type":"uint256","internalType":"uint256"}]},{"type":"error","name":"FleetCommanderExceedsMaxOutflow","inputs":[{"name":"fromArk","type":"address","internalType":"address"},{"name":"amount","type":"uint256","internalType":"uint256"},{"name":"maxRebalanceOutflow","type":"uint256","internalType":"uint256"}]},{"type":"error","name":"FleetCommanderInsufficientBuffer","inputs":[]},{"type":"error","name":"FleetCommanderInvalidArkAddress","inputs":[]},{"type":"error","name":"FleetCommanderInvalidBufferAdjustment","inputs":[]},{"type":"error","name":"FleetCommanderInvalidSourceArk","inputs":[{"name":"ark","type":"address","internalType":"address"}]},{"type":"error","name":"FleetCommanderInvalidStakingRewardsManager","inputs":[]},{"type":"error","name":"FleetCommanderMovedMoreThanAvailable","inputs":[]},{"type":"error","name":"FleetCommanderNoExcessFunds","inputs":[]},{"type":"error","name":"FleetCommanderNoFundsMoved","inputs":[]},{"type":"error","name":"FleetCommanderRebalanceAmountZero","inputs":[{"name":"ark","type":"address","internalType":"address"}]},{"type":"error","name":"FleetCommanderRebalanceNoOperations","inputs":[]},{"type":"error","name":"FleetCommanderRebalanceTooManyOperations","inputs":[{"name":"operationsCount","type":"uint256","internalType":"uint256"}]},{"type":"error","name":"FleetCommanderStakingRewardsManagerNotSet","inputs":[]},{"type":"error","name":"FleetCommanderTransfersDisabled","inputs":[]},{"type":"error","name":"FleetCommanderUnauthorizedRedemption","inputs":[{"name":"caller","type":"address","internalType":"address"},{"name":"owner","type":"address","internalType":"address"}]},{"type":"error","name":"FleetCommanderUnauthorizedWithdrawal","inputs":[{"name":"caller","type":"address","internalType":"address"},{"name":"owner","type":"address","internalType":"address"}]},{"type":"error","name":"InvalidFleetCommanderAddress","inputs":[]},{"type":"error","name":"InvalidTipJarAddress","inputs":[]},{"type":"error","name":"SafeERC20FailedOperation","inputs":[{"name":"token","type":"address","internalType":"address"}]},{"type":"error","name":"TipRateCannotExceedOneHundredPercent","inputs":[]},{"type":"error","name":"WithdrawalAmountExceedsMaxBufferLimit","inputs":[]}],"bytecode":{"object":"0x60c060405234801561000f575f5ffd5b5060405161227738038061227783398101604081905261002e916101da565b8280826040518060400160405280600b81526020016a455243343632364d6f636b60a81b8152506040518060400160405280600681526020016545343632364d60d01b815250816003908161008391906102ae565b50600461009082826102ae565b505050600555426006555f806100a5836100e9565b91509150816100b55760126100b7565b805b60ff1660a05250506001600160a01b03166080525050600e80546001600160a01b031916610123179055506103959050565b60408051600481526024810182526020810180516001600160e01b031663313ce56760e01b17905290515f918291829182916001600160a01b0387169161012f91610368565b5f60405180830381855afa9150503d805f8114610167576040519150601f19603f3d011682016040523d82523d5f602084013e61016c565b606091505b509150915081801561018057506020815110155b156101b3575f8180602001905181019061019a919061037e565b905060ff81116101b1576001969095509350505050565b505b505f9485945092505050565b80516001600160a01b03811681146101d5575f5ffd5b919050565b5f5f5f606084860312156101ec575f5ffd5b6101f5846101bf565b9250610203602085016101bf565b6040949094015192959394509192915050565b634e487b7160e01b5f52604160045260245ffd5b600181811c9082168061023e57607f821691505b60208210810361025c57634e487b7160e01b5f52602260045260245ffd5b50919050565b601f8211156102a957805f5260205f20601f840160051c810160208510156102875750805b601f840160051c820191505b818110156102a6575f8155600101610293565b50505b505050565b81516001600160401b038111156102c7576102c7610216565b6102db816102d5845461022a565b84610262565b6020601f82116001811461030d575f83156102f65750848201515b5f19600385901b1c1916600184901b1784556102a6565b5f84815260208120601f198516915b8281101561033c578785015182556020948501946001909201910161031c565b508482101561035957868401515f19600387901b60f8161c191681555b50505050600190811b01905550565b5f82518060208501845e5f920191825250919050565b5f6020828403121561038e575f5ffd5b5051919050565b60805160a051611eac6103cb5f395f6109d501525f818161050301528181610cee015281816110d8015261156c0152611eac5ff3fe608060405234801561000f575f5ffd5b5060043610610422575f3560e01c806396c25a381161022c578063d537092f11610135578063ef8b30f7116100bf578063f878369e11610084578063f878369e146104ef578063f8a8fd6d146104b0578063faa9bce91461089a578063fcf2849f14610770578063ff32a42a146108ad575f5ffd5b8063ef8b30f71461074c578063f1cd665b14610885578063f28e093d14610578578063f35778161461053b578063f3ba553e146104ef575f5ffd5b8063dc9de0a811610105578063dc9de0a81461049f578063dd62ed3e146107da578063e193858f1461049f578063e37d5b7f14610812578063e7b20e5b14610770575f5ffd5b8063d537092f146105d0578063d570ee47146107c1578063d902d41a1461049f578063d905777e146107c7575f5ffd5b8063c3f909d4116101b6578063cada514311610186578063cada514314610770578063cc5b1e551461077e578063ce96cb771461078c578063d25dd1011461079f578063d45a07a1146104ef575f5ffd5b8063c3f909d4146106fb578063c63d75b614610564578063c6e6f5921461074c578063c8169aa11461075f575f5ffd5b8063a9059cbb116101fc578063a9059cbb146106af578063b3d7f6b9146106c2578063b460af94146106d5578063b637766c146104ef578063ba087652146106e8575f5ffd5b806396c25a38146105ba5780639dc29fac1461069c578063a039e9441461053b578063a694fc3a1461049f575f5ffd5b806340c10f191161032e5780636e553f65116102b85780637aaceb95116102885780637aaceb951461066e5780638456cb59146104b05780639265b76e1461055157806394bf804d1461068157806395d89b4114610694575f5ffd5b80636e553f65146105d057806370a08231146105e357806371aedbc11461060b57806379502c5514610614575f5ffd5b80634fee7627116102fe5780634fee7627146105945780635822198f146105a75780635e5a9ea9146105ba5780635f538f6f1461053b57806368482626146105c8575f5ffd5b806340c10f1914610578578063498e76a01461058b5780634cdad506146104565780634daecb9c1461049f575f5ffd5b80632e17de78116103af57806338d52e0f1161037f57806338d52e0f146105015780633a7c9f0e1461053b5780633e314c76146105515780633f4ba83a146104b0578063402d267d14610564575f5ffd5b80632e17de781461049f578063313ce567146104d55780633403c2fc146104b057806334050560146104ef575f5ffd5b80630a28a477116103f55780630a28a4771461048c578063133ab5791461049f57806318160ddd146104b257806323b872dd146104ba5780632755cd2d146104cd575f5ffd5b806301e1d1141461042657806306fdde031461044157806307a2d13a14610456578063095ea7b314610469575b5f5ffd5b61042e6108c0565b6040519081526020015b60405180910390f35b6104496108ce565b6040516104389190611851565b61042e610464366004611886565b61095e565b61047c6104773660046118b8565b61096f565b6040519015158152602001610438565b61042e61049a366004611886565b610986565b6104b06104ad366004611886565b50565b005b60025461042e565b61047c6104c83660046118e0565b610992565b61042e6109b7565b6104dd6109ce565b60405160ff9091168152602001610438565b6104b06104fd3660046118b8565b5050565b7f00000000000000000000000000000000000000000000000000000000000000005b6040516001600160a01b039091168152602001610438565b61042e61054936600461191a565b5f9392505050565b61042e61055f366004611953565b505f90565b61042e610572366004611953565b505f1990565b6104b06105863660046118b8565b6109f9565b61042e60055481565b61042e6105a23660046119b1565b610a03565b6104b06105b5366004611886565b610a16565b6104b06104ad366004611953565b61042e610a2d565b61042e6105de366004611a5e565b610ab3565b61042e6105f1366004611953565b6001600160a01b03165f9081526020819052604090205490565b61042e60065481565b600754600854600954600a54600b5461063a946001600160a01b03908116949392911685565b604080516001600160a01b03968716815260208101959095528401929092526060830152909116608082015260a001610438565b600e54610523906001600160a01b031681565b61042e61068f366004611a5e565b610abe565b610449610ae7565b6104b06106aa3660046118b8565b610af6565b61047c6106bd3660046118b8565b610b00565b61042e6106d0366004611886565b610b0d565b61042e6106e336600461191a565b610b19565b61042e6106f636600461191a565b610b25565b610703610b31565b604051610438919081516001600160a01b039081168252602080840151908301526040808401519083015260608084015190830152608092830151169181019190915260a00190565b61042e61075a366004611886565b610bb3565b6007546001600160a01b0316610523565b6104b06104fd366004611a88565b6104b06104ad366004611af9565b61042e61079a366004611953565b610bbe565b61047c6107ad366004611953565b600d6020525f908152604090205460ff1681565b5f61042e565b61042e6107d5366004611953565b610be0565b61042e6107e8366004611ba8565b6001600160a01b039182165f90815260016020908152604080832093909416825291909152205490565b6104b0610820366004611953565b6001600160a01b03165f818152600d60205260408120805460ff19166001908117909155600c805491820181559091527fdf6966c971051c3d54ec59162606531493a51404a002842f56009d7e5cf4a8c70180546001600160a01b0319169091179055565b61088d610bfd565b6040516104389190611bd0565b61042e6108a83660046119b1565b610c5c565b6105236108bb366004611886565b610caf565b5f6108c9610cd7565b905090565b6060600380546108dd90611c1b565b80601f016020809104026020016040519081016040528092919081815260200182805461090990611c1b565b80156109545780601f1061092b57610100808354040283529160200191610954565b820191905f5260205f20905b81548152906001019060200180831161093757829003601f168201915b5050505050905090565b5f610969825f610d5f565b92915050565b5f3361097c818585610d97565b5060019392505050565b5f610969826001610da9565b5f3361099f858285610dd8565b6109aa858585610e40565b60019150505b9392505050565b600e545f906108c9906001600160a01b0316610e9d565b5f6108c9817f0000000000000000000000000000000000000000000000000000000000000000611c67565b6104fd8282610f9e565b5f610a0e8484610fd2565b949350505050565b600e546104ad9082906001600160a01b0316610fed565b5f5f60065442610a3d9190611c80565b90505f306001600160a01b03166318160ddd6040518163ffffffff1660e01b8152600401602060405180830381865afa158015610a7c573d5f5f3e3d5ffd5b505050506040513d601f19601f82011682018060405250810190610aa09190611c93565b9050610aac8183611059565b9250505090565b5f6109b08383610fd2565b5f5f19610acf565b60405180910390fd5b5f610ad985610b0d565b9050610a0e338583886110d3565b6060600480546108dd90611c1b565b6104fd8282611165565b5f3361097c818585610e40565b5f610969826001610d5f565b5f610a0e848484611199565b5f610a0e8484846111ef565b610b706040518060a001604052805f6001600160a01b031681526020015f81526020015f81526020015f81526020015f6001600160a01b031681525090565b506040805160a0810182526007546001600160a01b039081168252600854602083015260095492820192909252600a546060820152600b54909116608082015290565b5f610969825f610da9565b6001600160a01b0381165f90815260208190526040812054610969905f610d5f565b6001600160a01b0381165f90815260208190526040812054610969565b6060600c80548060200260200160405190810160405280929190818152602001828054801561095457602002820191905f5260205f20905b81546001600160a01b03168152600190910190602001808311610c35575050505050905090565b5f81604051610c6b9190611ccb565b604051908190038120906001600160a01b038516907f38383a2eb7bd8ee888f12fb942a2e22e84f2d7240f1f8541ad4bbddace6e3442905f90a3610a0e8484610fd2565b600c8181548110610cbe575f80fd5b5f918252602090912001546001600160a01b0316905081565b6040516370a0823160e01b81523060048201525f907f00000000000000000000000000000000000000000000000000000000000000006001600160a01b0316906370a0823190602401602060405180830381865afa158015610d3b573d5f5f3e3d5ffd5b505050506040513d601f19601f820116820180604052508101906108c99190611c93565b5f6109b0610d6b6108c0565b610d76906001611ce1565b610d815f600a611dd7565b600254610d8e9190611ce1565b8591908561123c565b610da4838383600161127e565b505050565b5f6109b0610db882600a611dd7565b600254610dc59190611ce1565b610dcd6108c0565b610d8e906001611ce1565b6001600160a01b038381165f908152600160209081526040808320938616835292905220545f198114610e3a5781811015610e2c57828183604051637dc7a0d960e11b8152600401610ac693929190611caa565b610e3a84848484035f61127e565b50505050565b6001600160a01b038316610e6957604051634b637e8f60e11b81525f6004820152602401610ac6565b6001600160a01b038216610e925760405163ec442f0560e01b81525f6004820152602401610ac6565b610da4838383611342565b5f610eb1600554610ead5f611455565b1490565b15610ec0575050426006555f90565b5f60065442610ecf9190611c80565b9050805f03610ee057505f92915050565b5f306001600160a01b03166318160ddd6040518163ffffffff1660e01b8152600401602060405180830381865afa158015610f1d573d5f5f3e3d5ffd5b505050506040513d601f19601f82011682018060405250810190610f419190611c93565b9050610f4d8183611059565b92508215610f9757610f5f84846109f9565b426006556040518381527f698f29fe990d4e7770f7e74cd309da261dd03ca828f7bb3c2ea8b8c9adcc0ecd9060200160405180910390a15b5050919050565b6001600160a01b038216610fc75760405163ec442f0560e01b81525f6004820152602401610ac6565b6104fd5f8383611342565b5f5f195f610fdf85610bb3565b9050610a0e338587846110d3565b610ff68261146c565b611013576040516319ecf1a560e31b815260040160405180910390fd5b61101c81610e9d565b5060058290556040518281527f186e864438b783eec69fd7ce4871c28accfc0b45558ea08c48540f76094fecde9060200160405180910390a15050565b5f5f6301e1338060055461106d9190611df9565b90505f6110b06110936110826012600a611e0c565b61108d906064611e17565b8461148d565b856110a06012600a611e0c565b6110ab906064611e17565b611498565b90505f6110bd86836114a6565b90506110c98682611c80565b9695505050505050565b6110ff7f00000000000000000000000000000000000000000000000000000000000000008530856114d2565b6111098382610f9e565b826001600160a01b0316846001600160a01b03167fdcbc1c05240f31ff3ad067ef1ee35ce4997762752e3a095284754544f4c709d78484604051611157929190918252602082015260400190565b60405180910390a350505050565b6001600160a01b03821661118e57604051634b637e8f60e11b81525f6004820152602401610ac6565b6104fd825f83611342565b5f5f6111a483610bbe565b9050808511156111cd57828582604051633fa733bb60e21b8152600401610ac693929190611caa565b5f6111d786610986565b90506111e63386868985611539565b95945050505050565b5f5f6111fa83610be0565b90508085111561122357828582604051632e52afbb60e21b8152600401610ac693929190611caa565b5f61122d8661095e565b90506111e6338686848a611539565b5f611269611249836115f9565b801561126457505f848061125f5761125f611de5565b868809115b151590565b611274868686611625565b6111e69190611ce1565b6001600160a01b0384166112a75760405163e602df0560e01b81525f6004820152602401610ac6565b6001600160a01b0383166112d057604051634a1406b160e11b81525f6004820152602401610ac6565b6001600160a01b038085165f9081526001602090815260408083209387168352929052208290558015610e3a57826001600160a01b0316846001600160a01b03167f8c5be1e5ebec7d5bd14f71427d1e84f3dd0314c0f7b2291e5b200ac8c7c3b9258460405161115791815260200190565b6001600160a01b03831661136c578060025f8282546113619190611ce1565b909155506113c99050565b6001600160a01b0383165f90815260208190526040902054818110156113ab5783818360405163391434e360e21b8152600401610ac693929190611caa565b6001600160a01b0384165f9081526020819052604090209082900390555b6001600160a01b0382166113e557600280548290039055611403565b6001600160a01b0382165f9081526020819052604090208054820190555b816001600160a01b0316836001600160a01b03167fddf252ad1be2c89b69c2b068fc378daa952ba7f163c4a11628f55a4df523b3ef8360405161144891815260200190565b60405180910390a3505050565b5f6114626012600a611e0c565b6109699083611e17565b5f6109698261147d6012600a611e0c565b611488906064611e17565b101590565b5f6109b08284611ce1565b5f83826110c98286836116db565b5f6114b36012600a611e0c565b6114be906064611e17565b6114c88385611e17565b6109b09190611df9565b6040516001600160a01b038481166024830152838116604483015260648201839052610e3a9186918216906323b872dd906084015b604051602081830303815290604052915060e01b6020820180516001600160e01b0383818316178352505050506117a3565b826001600160a01b0316856001600160a01b03161461155d5761155d838683610dd8565b6115678382611165565b6115927f0000000000000000000000000000000000000000000000000000000000000000858461180f565b826001600160a01b0316846001600160a01b0316866001600160a01b03167ffbde797d201c681b91056529119e0b02407c7bb96a4a2c75c01fc9667232c8db85856040516115ea929190918252602082015260400190565b60405180910390a45050505050565b5f600282600381111561160e5761160e611e2e565b6116189190611e42565b60ff166001149050919050565b5f838302815f1985870982811083820303915050805f036116595783828161164f5761164f611de5565b04925050506109b0565b808411611670576116706003851502601118611840565b5f848688095f868103871696879004966002600389028118808a02820302808a02820302808a02820302808a02820302808a02820302808a02909103029181900381900460010186841190950394909402919094039290920491909117919091029150509392505050565b5f8315806116e7575082155b156117015782156116f8575f6116fa565b815b90506109b0565b61170c600284611e63565b156117175783611719565b815b90505f611727600284611df9565b90506002840493505b831561179b578485028586820414611746575f5ffd5b81810181811015611755575f5ffd5b849004955050600184161561179057848202828682041415861515161561177a575f5ffd5b81810181811015611789575f5ffd5b8490049250505b600284049350611730565b509392505050565b5f5f60205f8451602086015f885af1806117c2576040513d5f823e3d81fd5b50505f513d915081156117d95780600114156117e6565b6001600160a01b0384163b155b15610e3a57604051635274afe760e01b81526001600160a01b0385166004820152602401610ac6565b6040516001600160a01b03838116602483015260448201839052610da491859182169063a9059cbb90606401611507565b634e487b715f52806020526024601cfd5b602081525f82518060208401528060208501604085015e5f604082850101526040601f19601f83011684010191505092915050565b5f60208284031215611896575f5ffd5b5035919050565b80356001600160a01b03811681146118b3575f5ffd5b919050565b5f5f604083850312156118c9575f5ffd5b6118d28361189d565b946020939093013593505050565b5f5f5f606084860312156118f2575f5ffd5b6118fb8461189d565b92506119096020850161189d565b929592945050506040919091013590565b5f5f5f6060848603121561192c575f5ffd5b8335925061193c6020850161189d565b915061194a6040850161189d565b90509250925092565b5f60208284031215611963575f5ffd5b6109b08261189d565b634e487b7160e01b5f52604160045260245ffd5b604051601f8201601f1916810167ffffffffffffffff811182821017156119a9576119a961196c565b604052919050565b5f5f5f606084860312156119c3575f5ffd5b833592506119d36020850161189d565b9150604084013567ffffffffffffffff8111156119ee575f5ffd5b8401601f810186136119fe575f5ffd5b803567ffffffffffffffff811115611a1857611a1861196c565b611a2b601f8201601f1916602001611980565b818152876020838501011115611a3f575f5ffd5b816020840160208301375f602083830101528093505050509250925092565b5f5f60408385031215611a6f575f5ffd5b82359150611a7f6020840161189d565b90509250929050565b5f5f60208385031215611a99575f5ffd5b823567ffffffffffffffff811115611aaf575f5ffd5b8301601f81018513611abf575f5ffd5b803567ffffffffffffffff811115611ad5575f5ffd5b8560208260051b8401011115611ae9575f5ffd5b6020919091019590945092505050565b5f60208284031215611b09575f5ffd5b813567ffffffffffffffff811115611b1f575f5ffd5b8201601f81018413611b2f575f5ffd5b803567ffffffffffffffff811115611b4957611b4961196c565b8060051b611b5960208201611980565b91825260208184018101929081019087841115611b74575f5ffd5b6020850194505b83851015611b9d57611b8c8561189d565b825260209485019490910190611b7b565b979650505050505050565b5f5f60408385031215611bb9575f5ffd5b611bc28361189d565b9150611a7f6020840161189d565b602080825282518282018190525f918401906040840190835b81811015611c105783516001600160a01b0316835260209384019390920191600101611be9565b509095945050505050565b600181811c90821680611c2f57607f821691505b602082108103611c4d57634e487b7160e01b5f52602260045260245ffd5b50919050565b634e487b7160e01b5f52601160045260245ffd5b60ff818116838216019081111561096957610969611c53565b8181038181111561096957610969611c53565b5f60208284031215611ca3575f5ffd5b5051919050565b6001600160a01b039390931683526020830191909152604082015260600190565b5f82518060208501845e5f920191825250919050565b8082018082111561096957610969611c53565b6001815b6001841115611d2f57808504811115611d1357611d13611c53565b6001841615611d2157908102905b60019390931c928002611cf8565b935093915050565b5f82611d4557506001610969565b81611d5157505f610969565b8160018114611d675760028114611d7157611d8d565b6001915050610969565b60ff841115611d8257611d82611c53565b50506001821b610969565b5060208310610133831016604e8410600b8410161715611db0575081810a610969565b611dbc5f198484611cf4565b805f1904821115611dcf57611dcf611c53565b029392505050565b5f6109b060ff841683611d37565b634e487b7160e01b5f52601260045260245ffd5b5f82611e0757611e07611de5565b500490565b5f6109b08383611d37565b808202811582820484141761096957610969611c53565b634e487b7160e01b5f52602160045260245ffd5b5f60ff831680611e5457611e54611de5565b8060ff84160691505092915050565b5f82611e7157611e71611de5565b50069056fea2646970667358221220cf4c9065c8c81659ff8ba35d739127d8350ecdffb547c1bc2d3345eb9030cd2a64736f6c634300081c0033","linkReferences":{}},"methodIdentifiers":{"addArk(address)":"e37d5b7f","addArks(address[])":"cc5b1e55","adjustBuffer((address,address,uint256,bytes,bytes)[])":"cada5143","allowance(address,address)":"dd62ed3e","approve(address,uint256)":"095ea7b3","arks(uint256)":"ff32a42a","asset()":"38d52e0f","balanceOf(address)":"70a08231","bufferArk()":"c8169aa1","burn(address,uint256)":"9dc29fac","config()":"79502c55","convertToAssets(uint256)":"07a2d13a","convertToShares(uint256)":"c6e6f592","decimals()":"313ce567","deposit(uint256,address)":"6e553f65","deposit(uint256,address,bytes)":"faa9bce9","depositAndStake(uint256,address)":"d537092f","depositAndStake(uint256,address,bytes)":"4fee7627","emergencyShutdown()":"3403c2fc","estimateAccruedTip()":"68482626","forceRebalance((address,address,uint256,bytes,bytes)[])":"e7b20e5b","getArks()":"f1cd665b","getConfig()":"c3f909d4","isArkActive(address)":"d25dd101","lastTipTimestamp()":"71aedbc1","maxBufferRedeem(address)":"9265b76e","maxBufferWithdraw(address)":"3e314c76","maxDeposit(address)":"402d267d","maxMint(address)":"c63d75b6","maxRedeem(address)":"d905777e","maxWithdraw(address)":"ce96cb77","mint(address,uint256)":"40c10f19","mint(uint256,address)":"94bf804d","name()":"06fdde03","pause()":"8456cb59","previewDeposit(uint256)":"ef8b30f7","previewMint(uint256)":"b3d7f6b9","previewRedeem(uint256)":"4cdad506","previewWithdraw(uint256)":"0a28a477","rebalance((address,address,uint256,bytes,bytes)[])":"fcf2849f","redeem(uint256,address,address)":"ba087652","redeemFromArks(uint256,address,address)":"3a7c9f0e","redeemFromBuffer(uint256,address,address)":"f3577816","removeArk(address)":"96c25a38","setArkDepositCap(address,uint256)":"34050560","setArkMaxDepositPercentageOfTVL(address,uint256)":"f3ba553e","setArkMaxRebalanceInflow(address,uint256)":"d45a07a1","setArkMaxRebalanceOutflow(address,uint256)":"b637766c","setDepositCap(address,uint256)":"f878369e","setFleetDepositCap(uint256)":"d902d41a","setMaxRebalanceOperations(uint256)":"133ab579","setMinimumBufferBalance(uint256)":"4daecb9c","setMinimumPauseTime(uint256)":"e193858f","setStakingRewardsManager(address)":"5e5a9ea9","setTipRate(uint256)":"5822198f","stake(uint256)":"a694fc3a","symbol()":"95d89b41","test()":"f8a8fd6d","testMint(address,uint256)":"f28e093d","tip()":"2755cd2d","tipJar()":"7aaceb95","tipRate()":"498e76a0","totalAssets()":"01e1d114","totalSupply()":"18160ddd","transfer(address,uint256)":"a9059cbb","transferFrom(address,address,uint256)":"23b872dd","unpause()":"3f4ba83a","unstake(uint256)":"2e17de78","updateRebalanceCooldown(uint256)":"dc9de0a8","withdraw(uint256,address,address)":"b460af94","withdrawFromArks(uint256,address,address)":"a039e944","withdrawFromBuffer(uint256,address,address)":"5f538f6f","withdrawableTotalAssets()":"d570ee47"},"id":324}