{"abi":[{"type":"constructor","inputs":[{"name":"underlying","type":"address","internalType":"address"},{"name":"configurationManager","type":"address","internalType":"address"},{"name":"initialTipRate","type":"uint256","internalType":"Percentage"}],"stateMutability":"nonpayable"},{"type":"function","name":"addArk","inputs":[{"name":"ark","type":"address","internalType":"address"}],"outputs":[],"stateMutability":"nonpayable"},{"type":"function","name":"addArks","inputs":[{"name":"_arks","type":"address[]","internalType":"address[]"}],"outputs":[],"stateMutability":"nonpayable"},{"type":"function","name":"adjustBuffer","inputs":[{"name":"data","type":"tuple[]","internalType":"struct RebalanceData[]","components":[{"name":"fromArk","type":"address","internalType":"address"},{"name":"toArk","type":"address","internalType":"address"},{"name":"amount","type":"uint256","internalType":"uint256"},{"name":"boardData","type":"bytes","internalType":"bytes"},{"name":"disembarkData","type":"bytes","internalType":"bytes"}]}],"outputs":[],"stateMutability":"nonpayable"},{"type":"function","name":"allowance","inputs":[{"name":"owner","type":"address","internalType":"address"},{"name":"spender","type":"address","internalType":"address"}],"outputs":[{"name":"","type":"uint256","internalType":"uint256"}],"stateMutability":"view"},{"type":"function","name":"approve","inputs":[{"name":"spender","type":"address","internalType":"address"},{"name":"value","type":"uint256","internalType":"uint256"}],"outputs":[{"name":"","type":"bool","internalType":"bool"}],"stateMutability":"nonpayable"},{"type":"function","name":"arks","inputs":[{"name":"","type":"uint256","internalType":"uint256"}],"outputs":[{"name":"","type":"address","internalType":"address"}],"stateMutability":"view"},{"type":"function","name":"asset","inputs":[],"outputs":[{"name":"","type":"address","internalType":"address"}],"stateMutability":"view"},{"type":"function","name":"balanceOf","inputs":[{"name":"account","type":"address","internalType":"address"}],"outputs":[{"name":"","type":"uint256","internalType":"uint256"}],"stateMutability":"view"},{"type":"function","name":"bufferArk","inputs":[],"outputs":[{"name":"","type":"address","internalType":"address"}],"stateMutability":"view"},{"type":"function","name":"burn","inputs":[{"name":"account","type":"address","internalType":"address"},{"name":"amount","type":"uint256","internalType":"uint256"}],"outputs":[],"stateMutability":"nonpayable"},{"type":"function","name":"config","inputs":[],"outputs":[{"name":"bufferArk","type":"address","internalType":"contract IArk"},{"name":"minimumBufferBalance","type":"uint256","internalType":"uint256"},{"name":"depositCap","type":"uint256","internalType":"uint256"},{"name":"maxRebalanceOperations","type":"uint256","internalType":"uint256"}],"stateMutability":"view"},{"type":"function","name":"configurationManager","inputs":[],"outputs":[{"name":"","type":"address","internalType":"contract IConfigurationManager"}],"stateMutability":"view"},{"type":"function","name":"convertToAssets","inputs":[{"name":"shares","type":"uint256","internalType":"uint256"}],"outputs":[{"name":"","type":"uint256","internalType":"uint256"}],"stateMutability":"view"},{"type":"function","name":"convertToShares","inputs":[{"name":"assets","type":"uint256","internalType":"uint256"}],"outputs":[{"name":"","type":"uint256","internalType":"uint256"}],"stateMutability":"view"},{"type":"function","name":"decimals","inputs":[],"outputs":[{"name":"","type":"uint8","internalType":"uint8"}],"stateMutability":"view"},{"type":"function","name":"deposit","inputs":[{"name":"assets","type":"uint256","internalType":"uint256"},{"name":"receiver","type":"address","internalType":"address"}],"outputs":[{"name":"","type":"uint256","internalType":"uint256"}],"stateMutability":"nonpayable"},{"type":"function","name":"deposit","inputs":[{"name":"assets","type":"uint256","internalType":"uint256"},{"name":"receiver","type":"address","internalType":"address"},{"name":"referralCode","type":"bytes","internalType":"bytes"}],"outputs":[{"name":"","type":"uint256","internalType":"uint256"}],"stateMutability":"nonpayable"},{"type":"function","name":"emergencyShutdown","inputs":[],"outputs":[],"stateMutability":"nonpayable"},{"type":"function","name":"estimateAccruedTip","inputs":[],"outputs":[{"name":"","type":"uint256","internalType":"uint256"}],"stateMutability":"view"},{"type":"function","name":"forceRebalance","inputs":[{"name":"data","type":"tuple[]","internalType":"struct RebalanceData[]","components":[{"name":"fromArk","type":"address","internalType":"address"},{"name":"toArk","type":"address","internalType":"address"},{"name":"amount","type":"uint256","internalType":"uint256"},{"name":"boardData","type":"bytes","internalType":"bytes"},{"name":"disembarkData","type":"bytes","internalType":"bytes"}]}],"outputs":[],"stateMutability":"nonpayable"},{"type":"function","name":"getArks","inputs":[],"outputs":[{"name":"","type":"address[]","internalType":"address[]"}],"stateMutability":"view"},{"type":"function","name":"getConfig","inputs":[],"outputs":[{"name":"","type":"tuple","internalType":"struct FleetConfig","components":[{"name":"bufferArk","type":"address","internalType":"contract IArk"},{"name":"minimumBufferBalance","type":"uint256","internalType":"uint256"},{"name":"depositCap","type":"uint256","internalType":"uint256"},{"name":"maxRebalanceOperations","type":"uint256","internalType":"uint256"}]}],"stateMutability":"view"},{"type":"function","name":"harborCommand","inputs":[],"outputs":[{"name":"","type":"address","internalType":"address"}],"stateMutability":"view"},{"type":"function","name":"isArkActive","inputs":[{"name":"","type":"address","internalType":"address"}],"outputs":[{"name":"","type":"bool","internalType":"bool"}],"stateMutability":"view"},{"type":"function","name":"lastTipTimestamp","inputs":[],"outputs":[{"name":"","type":"uint256","internalType":"uint256"}],"stateMutability":"view"},{"type":"function","name":"maxBufferRedeem","inputs":[{"name":"owner","type":"address","internalType":"address"}],"outputs":[{"name":"","type":"uint256","internalType":"uint256"}],"stateMutability":"view"},{"type":"function","name":"maxBufferWithdraw","inputs":[{"name":"owner","type":"address","internalType":"address"}],"outputs":[{"name":"","type":"uint256","internalType":"uint256"}],"stateMutability":"view"},{"type":"function","name":"maxDeposit","inputs":[{"name":"","type":"address","internalType":"address"}],"outputs":[{"name":"","type":"uint256","internalType":"uint256"}],"stateMutability":"view"},{"type":"function","name":"maxMint","inputs":[{"name":"","type":"address","internalType":"address"}],"outputs":[{"name":"","type":"uint256","internalType":"uint256"}],"stateMutability":"view"},{"type":"function","name":"maxRedeem","inputs":[{"name":"owner","type":"address","internalType":"address"}],"outputs":[{"name":"","type":"uint256","internalType":"uint256"}],"stateMutability":"view"},{"type":"function","name":"maxWithdraw","inputs":[{"name":"owner","type":"address","internalType":"address"}],"outputs":[{"name":"","type":"uint256","internalType":"uint256"}],"stateMutability":"view"},{"type":"function","name":"mint","inputs":[{"name":"account","type":"address","internalType":"address"},{"name":"amount","type":"uint256","internalType":"uint256"}],"outputs":[],"stateMutability":"nonpayable"},{"type":"function","name":"mint","inputs":[{"name":"shares","type":"uint256","internalType":"uint256"},{"name":"receiver","type":"address","internalType":"address"}],"outputs":[{"name":"","type":"uint256","internalType":"uint256"}],"stateMutability":"nonpayable"},{"type":"function","name":"name","inputs":[],"outputs":[{"name":"","type":"string","internalType":"string"}],"stateMutability":"view"},{"type":"function","name":"pause","inputs":[],"outputs":[],"stateMutability":"nonpayable"},{"type":"function","name":"previewDeposit","inputs":[{"name":"assets","type":"uint256","internalType":"uint256"}],"outputs":[{"name":"","type":"uint256","internalType":"uint256"}],"stateMutability":"view"},{"type":"function","name":"previewMint","inputs":[{"name":"shares","type":"uint256","internalType":"uint256"}],"outputs":[{"name":"","type":"uint256","internalType":"uint256"}],"stateMutability":"view"},{"type":"function","name":"previewRedeem","inputs":[{"name":"shares","type":"uint256","internalType":"uint256"}],"outputs":[{"name":"","type":"uint256","internalType":"uint256"}],"stateMutability":"view"},{"type":"function","name":"previewWithdraw","inputs":[{"name":"assets","type":"uint256","internalType":"uint256"}],"outputs":[{"name":"","type":"uint256","internalType":"uint256"}],"stateMutability":"view"},{"type":"function","name":"raft","inputs":[],"outputs":[{"name":"","type":"address","internalType":"address"}],"stateMutability":"view"},{"type":"function","name":"rebalance","inputs":[{"name":"data","type":"tuple[]","internalType":"struct RebalanceData[]","components":[{"name":"fromArk","type":"address","internalType":"address"},{"name":"toArk","type":"address","internalType":"address"},{"name":"amount","type":"uint256","internalType":"uint256"},{"name":"boardData","type":"bytes","internalType":"bytes"},{"name":"disembarkData","type":"bytes","internalType":"bytes"}]}],"outputs":[],"stateMutability":"nonpayable"},{"type":"function","name":"redeem","inputs":[{"name":"assets","type":"uint256","internalType":"uint256"},{"name":"receiver","type":"address","internalType":"address"},{"name":"owner","type":"address","internalType":"address"}],"outputs":[{"name":"","type":"uint256","internalType":"uint256"}],"stateMutability":"nonpayable"},{"type":"function","name":"redeemFromArks","inputs":[{"name":"shares","type":"uint256","internalType":"uint256"},{"name":"receiver","type":"address","internalType":"address"},{"name":"owner","type":"address","internalType":"address"}],"outputs":[{"name":"","type":"uint256","internalType":"uint256"}],"stateMutability":"nonpayable"},{"type":"function","name":"redeemFromBuffer","inputs":[{"name":"shares","type":"uint256","internalType":"uint256"},{"name":"receiver","type":"address","internalType":"address"},{"name":"owner","type":"address","internalType":"address"}],"outputs":[{"name":"","type":"uint256","internalType":"uint256"}],"stateMutability":"nonpayable"},{"type":"function","name":"removeArk","inputs":[{"name":"ark","type":"address","internalType":"address"}],"outputs":[],"stateMutability":"nonpayable"},{"type":"function","name":"setArkDepositCap","inputs":[{"name":"ark","type":"address","internalType":"address"},{"name":"newDepositCap","type":"uint256","internalType":"uint256"}],"outputs":[],"stateMutability":"nonpayable"},{"type":"function","name":"setArkMaxRebalanceInflow","inputs":[{"name":"ark","type":"address","internalType":"address"},{"name":"newMaxRebalanceInflow","type":"uint256","internalType":"uint256"}],"outputs":[],"stateMutability":"nonpayable"},{"type":"function","name":"setArkMaxRebalanceOutflow","inputs":[{"name":"ark","type":"address","internalType":"address"},{"name":"newMaxRebalanceOutflow","type":"uint256","internalType":"uint256"}],"outputs":[],"stateMutability":"nonpayable"},{"type":"function","name":"setDepositCap","inputs":[{"name":"ark","type":"address","internalType":"address"},{"name":"newDepositCap","type":"uint256","internalType":"uint256"}],"outputs":[],"stateMutability":"nonpayable"},{"type":"function","name":"setFleetDepositCap","inputs":[{"name":"newCap","type":"uint256","internalType":"uint256"}],"outputs":[],"stateMutability":"nonpayable"},{"type":"function","name":"setMaxRebalanceOperations","inputs":[{"name":"newMaxRebalanceOperations","type":"uint256","internalType":"uint256"}],"outputs":[],"stateMutability":"nonpayable"},{"type":"function","name":"setMinimumBufferBalance","inputs":[{"name":"newMinimumBalance","type":"uint256","internalType":"uint256"}],"outputs":[],"stateMutability":"nonpayable"},{"type":"function","name":"setMinimumPauseTime","inputs":[{"name":"newMinimumPauseTime","type":"uint256","internalType":"uint256"}],"outputs":[],"stateMutability":"nonpayable"},{"type":"function","name":"setTipRate","inputs":[{"name":"newTipRate","type":"uint256","internalType":"Percentage"}],"outputs":[],"stateMutability":"nonpayable"},{"type":"function","name":"symbol","inputs":[],"outputs":[{"name":"","type":"string","internalType":"string"}],"stateMutability":"view"},{"type":"function","name":"test","inputs":[],"outputs":[],"stateMutability":"nonpayable"},{"type":"function","name":"testMint","inputs":[{"name":"account","type":"address","internalType":"address"},{"name":"amount","type":"uint256","internalType":"uint256"}],"outputs":[],"stateMutability":"nonpayable"},{"type":"function","name":"tip","inputs":[],"outputs":[{"name":"","type":"uint256","internalType":"uint256"}],"stateMutability":"nonpayable"},{"type":"function","name":"tipJar","inputs":[],"outputs":[{"name":"","type":"address","internalType":"address"}],"stateMutability":"view"},{"type":"function","name":"tipRate","inputs":[],"outputs":[{"name":"","type":"uint256","internalType":"Percentage"}],"stateMutability":"view"},{"type":"function","name":"totalAssets","inputs":[],"outputs":[{"name":"","type":"uint256","internalType":"uint256"}],"stateMutability":"view"},{"type":"function","name":"totalSupply","inputs":[],"outputs":[{"name":"","type":"uint256","internalType":"uint256"}],"stateMutability":"view"},{"type":"function","name":"transfer","inputs":[{"name":"to","type":"address","internalType":"address"},{"name":"value","type":"uint256","internalType":"uint256"}],"outputs":[{"name":"","type":"bool","internalType":"bool"}],"stateMutability":"nonpayable"},{"type":"function","name":"transferFrom","inputs":[{"name":"from","type":"address","internalType":"address"},{"name":"to","type":"address","internalType":"address"},{"name":"value","type":"uint256","internalType":"uint256"}],"outputs":[{"name":"","type":"bool","internalType":"bool"}],"stateMutability":"nonpayable"},{"type":"function","name":"treasury","inputs":[],"outputs":[{"name":"","type":"address","internalType":"address"}],"stateMutability":"view"},{"type":"function","name":"unpause","inputs":[],"outputs":[],"stateMutability":"nonpayable"},{"type":"function","name":"updateRebalanceCooldown","inputs":[{"name":"newCooldown","type":"uint256","internalType":"uint256"}],"outputs":[],"stateMutability":"nonpayable"},{"type":"function","name":"withdraw","inputs":[{"name":"assets","type":"uint256","internalType":"uint256"},{"name":"receiver","type":"address","internalType":"address"},{"name":"owner","type":"address","internalType":"address"}],"outputs":[{"name":"","type":"uint256","internalType":"uint256"}],"stateMutability":"nonpayable"},{"type":"function","name":"withdrawFromArks","inputs":[{"name":"shares","type":"uint256","internalType":"uint256"},{"name":"receiver","type":"address","internalType":"address"},{"name":"owner","type":"address","internalType":"address"}],"outputs":[{"name":"","type":"uint256","internalType":"uint256"}],"stateMutability":"nonpayable"},{"type":"function","name":"withdrawFromBuffer","inputs":[{"name":"shares","type":"uint256","internalType":"uint256"},{"name":"receiver","type":"address","internalType":"address"},{"name":"owner","type":"address","internalType":"address"}],"outputs":[{"name":"","type":"uint256","internalType":"uint256"}],"stateMutability":"nonpayable"},{"type":"function","name":"withdrawableTotalAssets","inputs":[],"outputs":[{"name":"","type":"uint256","internalType":"uint256"}],"stateMutability":"pure"},{"type":"event","name":"Approval","inputs":[{"name":"owner","type":"address","indexed":true,"internalType":"address"},{"name":"spender","type":"address","indexed":true,"internalType":"address"},{"name":"value","type":"uint256","indexed":false,"internalType":"uint256"}],"anonymous":false},{"type":"event","name":"ArkAdded","inputs":[{"name":"ark","type":"address","indexed":true,"internalType":"address"}],"anonymous":false},{"type":"event","name":"ArkRemoved","inputs":[{"name":"ark","type":"address","indexed":true,"internalType":"address"}],"anonymous":false},{"type":"event","name":"Deposit","inputs":[{"name":"sender","type":"address","indexed":true,"internalType":"address"},{"name":"owner","type":"address","indexed":true,"internalType":"address"},{"name":"assets","type":"uint256","indexed":false,"internalType":"uint256"},{"name":"shares","type":"uint256","indexed":false,"internalType":"uint256"}],"anonymous":false},{"type":"event","name":"FeeAddressUpdated","inputs":[{"name":"newAddress","type":"address","indexed":false,"internalType":"address"}],"anonymous":false},{"type":"event","name":"FleetCommanderBufferAdjusted","inputs":[{"name":"keeper","type":"address","indexed":true,"internalType":"address"},{"name":"totalMoved","type":"uint256","indexed":false,"internalType":"uint256"}],"anonymous":false},{"type":"event","name":"FleetCommanderDepositCapUpdated","inputs":[{"name":"newCap","type":"uint256","indexed":false,"internalType":"uint256"}],"anonymous":false},{"type":"event","name":"FleetCommanderMaxRebalanceOperationsUpdated","inputs":[{"name":"newMaxRebalanceOperations","type":"uint256","indexed":false,"internalType":"uint256"}],"anonymous":false},{"type":"event","name":"FleetCommanderRedeemedFromArks","inputs":[{"name":"owner","type":"address","indexed":true,"internalType":"address"},{"name":"receiver","type":"address","indexed":false,"internalType":"address"},{"name":"totalRedeemed","type":"uint256","indexed":false,"internalType":"uint256"}],"anonymous":false},{"type":"event","name":"FleetCommanderReferral","inputs":[{"name":"referee","type":"address","indexed":true,"internalType":"address"},{"name":"referralCode","type":"bytes","indexed":true,"internalType":"bytes"}],"anonymous":false},{"type":"event","name":"FleetCommanderWithdrawnFromArks","inputs":[{"name":"owner","type":"address","indexed":true,"internalType":"address"},{"name":"receiver","type":"address","indexed":false,"internalType":"address"},{"name":"totalWithdrawn","type":"uint256","indexed":false,"internalType":"uint256"}],"anonymous":false},{"type":"event","name":"FleetCommanderminimumBufferBalanceUpdated","inputs":[{"name":"newBalance","type":"uint256","indexed":false,"internalType":"uint256"}],"anonymous":false},{"type":"event","name":"FundsBufferBalanceUpdated","inputs":[{"name":"user","type":"address","indexed":true,"internalType":"address"},{"name":"prevBalance","type":"uint256","indexed":false,"internalType":"uint256"},{"name":"newBalance","type":"uint256","indexed":false,"internalType":"uint256"}],"anonymous":false},{"type":"event","name":"FundsQueueRefilled","inputs":[{"name":"keeper","type":"address","indexed":true,"internalType":"address"},{"name":"prevBalance","type":"uint256","indexed":false,"internalType":"uint256"},{"name":"newBalance","type":"uint256","indexed":false,"internalType":"uint256"}],"anonymous":false},{"type":"event","name":"MinFundsQueueBalanceUpdated","inputs":[{"name":"keeper","type":"address","indexed":true,"internalType":"address"},{"name":"newBalance","type":"uint256","indexed":false,"internalType":"uint256"}],"anonymous":false},{"type":"event","name":"QueuedFundsCommitted","inputs":[{"name":"keeper","type":"address","indexed":true,"internalType":"address"},{"name":"prevBalance","type":"uint256","indexed":false,"internalType":"uint256"},{"name":"newBalance","type":"uint256","indexed":false,"internalType":"uint256"}],"anonymous":false},{"type":"event","name":"Rebalanced","inputs":[{"name":"keeper","type":"address","indexed":true,"internalType":"address"},{"name":"rebalances","type":"tuple[]","indexed":false,"internalType":"struct RebalanceData[]","components":[{"name":"fromArk","type":"address","internalType":"address"},{"name":"toArk","type":"address","internalType":"address"},{"name":"amount","type":"uint256","internalType":"uint256"},{"name":"boardData","type":"bytes","internalType":"bytes"},{"name":"disembarkData","type":"bytes","internalType":"bytes"}]}],"anonymous":false},{"type":"event","name":"TipAccrued","inputs":[{"name":"tipAmount","type":"uint256","indexed":false,"internalType":"uint256"}],"anonymous":false},{"type":"event","name":"TipJarUpdated","inputs":[{"name":"newTipJar","type":"address","indexed":false,"internalType":"address"}],"anonymous":false},{"type":"event","name":"TipRateUpdated","inputs":[{"name":"newTipRate","type":"uint256","indexed":false,"internalType":"Percentage"}],"anonymous":false},{"type":"event","name":"Transfer","inputs":[{"name":"from","type":"address","indexed":true,"internalType":"address"},{"name":"to","type":"address","indexed":true,"internalType":"address"},{"name":"value","type":"uint256","indexed":false,"internalType":"uint256"}],"anonymous":false},{"type":"event","name":"Withdraw","inputs":[{"name":"sender","type":"address","indexed":true,"internalType":"address"},{"name":"receiver","type":"address","indexed":true,"internalType":"address"},{"name":"owner","type":"address","indexed":true,"internalType":"address"},{"name":"assets","type":"uint256","indexed":false,"internalType":"uint256"},{"name":"shares","type":"uint256","indexed":false,"internalType":"uint256"}],"anonymous":false},{"type":"error","name":"ConfigurationManagerZeroAddress","inputs":[]},{"type":"error","name":"ERC20InsufficientAllowance","inputs":[{"name":"spender","type":"address","internalType":"address"},{"name":"allowance","type":"uint256","internalType":"uint256"},{"name":"needed","type":"uint256","internalType":"uint256"}]},{"type":"error","name":"ERC20InsufficientBalance","inputs":[{"name":"sender","type":"address","internalType":"address"},{"name":"balance","type":"uint256","internalType":"uint256"},{"name":"needed","type":"uint256","internalType":"uint256"}]},{"type":"error","name":"ERC20InvalidApprover","inputs":[{"name":"approver","type":"address","internalType":"address"}]},{"type":"error","name":"ERC20InvalidReceiver","inputs":[{"name":"receiver","type":"address","internalType":"address"}]},{"type":"error","name":"ERC20InvalidSender","inputs":[{"name":"sender","type":"address","internalType":"address"}]},{"type":"error","name":"ERC20InvalidSpender","inputs":[{"name":"spender","type":"address","internalType":"address"}]},{"type":"error","name":"ERC4626ExceededMaxDeposit","inputs":[{"name":"receiver","type":"address","internalType":"address"},{"name":"assets","type":"uint256","internalType":"uint256"},{"name":"max","type":"uint256","internalType":"uint256"}]},{"type":"error","name":"ERC4626ExceededMaxMint","inputs":[{"name":"receiver","type":"address","internalType":"address"},{"name":"shares","type":"uint256","internalType":"uint256"},{"name":"max","type":"uint256","internalType":"uint256"}]},{"type":"error","name":"ERC4626ExceededMaxRedeem","inputs":[{"name":"owner","type":"address","internalType":"address"},{"name":"shares","type":"uint256","internalType":"uint256"},{"name":"max","type":"uint256","internalType":"uint256"}]},{"type":"error","name":"ERC4626ExceededMaxWithdraw","inputs":[{"name":"owner","type":"address","internalType":"address"},{"name":"assets","type":"uint256","internalType":"uint256"},{"name":"max","type":"uint256","internalType":"uint256"}]},{"type":"error","name":"FleetCommanderArkAlreadyExists","inputs":[{"name":"ark","type":"address","internalType":"address"}]},{"type":"error","name":"FleetCommanderArkAlreadyHasCommander","inputs":[]},{"type":"error","name":"FleetCommanderArkAssetsNotZero","inputs":[{"name":"ark","type":"address","internalType":"address"}]},{"type":"error","name":"FleetCommanderArkDepositCapGreaterThanZero","inputs":[{"name":"ark","type":"address","internalType":"address"}]},{"type":"error","name":"FleetCommanderArkDepositCapZero","inputs":[{"name":"ark","type":"address","internalType":"address"}]},{"type":"error","name":"FleetCommanderArkNotActive","inputs":[{"name":"ark","type":"address","internalType":"address"}]},{"type":"error","name":"FleetCommanderArkNotFound","inputs":[{"name":"ark","type":"address","internalType":"address"}]},{"type":"error","name":"FleetCommanderCantRebalanceToArk","inputs":[{"name":"ark","type":"address","internalType":"address"}]},{"type":"error","name":"FleetCommanderCantUseMaxUintForBufferAdjustement","inputs":[]},{"type":"error","name":"FleetCommanderCantUseRebalanceOnBufferArk","inputs":[]},{"type":"error","name":"FleetCommanderExceedsMaxInflow","inputs":[{"name":"fromArk","type":"address","internalType":"address"},{"name":"amount","type":"uint256","internalType":"uint256"},{"name":"maxRebalanceInflow","type":"uint256","internalType":"uint256"}]},{"type":"error","name":"FleetCommanderExceedsMaxOutflow","inputs":[{"name":"fromArk","type":"address","internalType":"address"},{"name":"amount","type":"uint256","internalType":"uint256"},{"name":"maxRebalanceOutflow","type":"uint256","internalType":"uint256"}]},{"type":"error","name":"FleetCommanderInsufficientBuffer","inputs":[]},{"type":"error","name":"FleetCommanderInvalidArkAddress","inputs":[]},{"type":"error","name":"FleetCommanderInvalidBufferAdjustment","inputs":[]},{"type":"error","name":"FleetCommanderInvalidSourceArk","inputs":[{"name":"ark","type":"address","internalType":"address"}]},{"type":"error","name":"FleetCommanderMovedMoreThanAvailable","inputs":[]},{"type":"error","name":"FleetCommanderNoExcessFunds","inputs":[]},{"type":"error","name":"FleetCommanderNoFundsMoved","inputs":[]},{"type":"error","name":"FleetCommanderRebalanceAmountZero","inputs":[{"name":"ark","type":"address","internalType":"address"}]},{"type":"error","name":"FleetCommanderRebalanceNoOperations","inputs":[]},{"type":"error","name":"FleetCommanderRebalanceTooManyOperations","inputs":[{"name":"operationsCount","type":"uint256","internalType":"uint256"}]},{"type":"error","name":"FleetCommanderTransfersDisabled","inputs":[]},{"type":"error","name":"FleetCommanderUnauthorizedRedemption","inputs":[{"name":"caller","type":"address","internalType":"address"},{"name":"owner","type":"address","internalType":"address"}]},{"type":"error","name":"FleetCommanderUnauthorizedWithdrawal","inputs":[{"name":"caller","type":"address","internalType":"address"},{"name":"owner","type":"address","internalType":"address"}]},{"type":"error","name":"InvalidFleetCommanderAddress","inputs":[]},{"type":"error","name":"InvalidTipJarAddress","inputs":[]},{"type":"error","name":"SafeERC20FailedOperation","inputs":[{"name":"token","type":"address","internalType":"address"}]},{"type":"error","name":"TipRateCannotExceedOneHundredPercent","inputs":[]},{"type":"error","name":"WithdrawalAmountExceedsMaxBufferLimit","inputs":[]}],"bytecode":{"object":"0x60e060405234801561000f575f5ffd5b5060405161243238038061243283398101604081905261002e916101fc565b82808383816040518060400160405280600b81526020016a455243343632364d6f636b60a81b8152506040518060400160405280600681526020016545343632364d60d01b815250816003908161008591906102d0565b50600461009282826102d0565b5050506001600160a01b0381166100bc5760405163f1634df960e01b815260040160405180910390fd5b6001600160a01b031660805260055550426006555f806100db8361010b565b91509150816100eb5760126100ed565b805b60ff1660c05250506001600160a01b031660a052506103b792505050565b60408051600481526024810182526020810180516001600160e01b031663313ce56760e01b17905290515f918291829182916001600160a01b038716916101519161038a565b5f60405180830381855afa9150503d805f8114610189576040519150601f19603f3d011682016040523d82523d5f602084013e61018e565b606091505b50915091508180156101a257506020815110155b156101d5575f818060200190518101906101bc91906103a0565b905060ff81116101d3576001969095509350505050565b505b505f9485945092505050565b80516001600160a01b03811681146101f7575f5ffd5b919050565b5f5f5f6060848603121561020e575f5ffd5b610217846101e1565b9250610225602085016101e1565b6040949094015192959394509192915050565b634e487b7160e01b5f52604160045260245ffd5b600181811c9082168061026057607f821691505b60208210810361027e57634e487b7160e01b5f52602260045260245ffd5b50919050565b601f8211156102cb57805f5260205f20601f840160051c810160208510156102a95750805b601f840160051c820191505b818110156102c8575f81556001016102b5565b50505b505050565b81516001600160401b038111156102e9576102e9610238565b6102fd816102f7845461024c565b84610284565b6020601f82116001811461032f575f83156103185750848201515b5f19600385901b1c1916600184901b1784556102c8565b5f84815260208120601f198516915b8281101561035e578785015182556020948501946001909201910161033e565b508482101561037b57868401515f19600387901b60f8161c191681555b50505050600190811b01905550565b5f82518060208501845e5f920191825250919050565b5f602082840312156103b0575f5ffd5b5051919050565b60805160a05160c0516120206104125f395f610a3901525f818161050d01528181610e340152818161121b01526116af01525f818161073f0152818161098601528181610a7301528181610ad00152610bbe01526120205ff3fe608060405234801561000f575f5ffd5b506004361061040c575f3560e01c806395d89b4111610221578063d45a07a11161012a578063ef8b30f7116100b4578063f878369e11610084578063f878369e146104f9578063f8a8fd6d146104ba578063faa9bce91461088b578063fcf2849f14610761578063ff32a42a1461089e575f5ffd5b8063ef8b30f714610716578063f1cd665b14610876578063f28e093d1461056e578063f357781614610531575f5ffd5b8063dc9de0a8116100fa578063dc9de0a8146104a9578063dd62ed3e146107cb578063e193858f146104a9578063e37d5b7f14610803578063e7b20e5b14610761575f5ffd5b8063d45a07a1146104f9578063d570ee47146107b2578063d902d41a146104a9578063d905777e146107b8575f5ffd5b8063c3f909d4116101ab578063c9c667e31161017b578063c9c667e31461073a578063cada514314610761578063cc5b1e551461076f578063ce96cb771461077d578063d25dd10114610790575f5ffd5b8063c3f909d4146106d2578063c63d75b61461055a578063c6e6f59214610716578063c8169aa114610729575f5ffd5b8063a9059cbb116101f1578063a9059cbb14610686578063b3d7f6b914610699578063b460af94146106ac578063b637766c146104f9578063ba087652146106bf575f5ffd5b806395d89b411461065d57806396c25a38146106655780639dc29fac14610673578063a039e94414610531575f5ffd5b8063402d267d1161032357806368482626116102ad57806379502c551161027d57806379502c55146105f95780637aaceb95146106425780638456cb59146104ba5780639265b76e1461054757806394bf804d1461064a575f5ffd5b806368482626146105ad5780636e553f65146105b557806370a08231146105c857806371aedbc1146105f0575f5ffd5b80634daecb9c116102f35780634daecb9c146104a95780635822198f1461058a5780635b0f83f31461059d5780635f538f6f1461053157806361d027b3146105a5575f5ffd5b8063402d267d1461055a57806340c10f191461056e578063498e76a0146105815780634cdad50614610440575f5ffd5b806323b872dd116103a4578063340505601161037457806334050560146104f957806338d52e0f1461050b5780633a7c9f0e146105315780633e314c76146105475780633f4ba83a146104ba575f5ffd5b806323b872dd146104c45780632755cd2d146104d7578063313ce567146104df5780633403c2fc146104ba575f5ffd5b80630a28a477116103df5780630a28a47714610476578063117d8ae014610489578063133ab579146104a957806318160ddd146104bc575f5ffd5b806301e1d1141461041057806306fdde031461042b57806307a2d13a14610440578063095ea7b314610453575b5f5ffd5b6104186108b1565b6040519081526020015b60405180910390f35b6104336108bf565b6040516104229190611994565b61041861044e3660046119c9565b61094f565b6104666104613660046119f4565b610960565b6040519015158152602001610422565b6104186104843660046119c9565b610977565b610491610983565b6040516001600160a01b039091168152602001610422565b6104ba6104b73660046119c9565b50565b005b600254610418565b6104666104d2366004611a1e565b610a04565b610418610a29565b6104e7610a32565b60405160ff9091168152602001610422565b6104ba6105073660046119f4565b5050565b7f0000000000000000000000000000000000000000000000000000000000000000610491565b61041861053f366004611a5c565b5f9392505050565b610418610555366004611a9b565b505f90565b610418610568366004611a9b565b505f1990565b6104ba61057c3660046119f4565b610a5d565b61041860055481565b6104ba6105983660046119c9565b610a67565b610491610a70565b610491610acd565b610418610b2a565b6104186105c3366004611ab6565b610bb0565b6104186105d6366004611a9b565b6001600160a01b03165f9081526020819052604090205490565b61041860065481565b600754600854600954600a54610618936001600160a01b031692919084565b604080516001600160a01b0390951685526020850193909352918301526060820152608001610422565b610491610bbb565b610418610658366004611ab6565b610c18565b610433610c49565b6104ba6104b7366004611a9b565b6104ba6106813660046119f4565b610c58565b6104666106943660046119f4565b610c62565b6104186106a73660046119c9565b610c6f565b6104186106ba366004611a5c565b610c7b565b6104186106cd366004611a5c565b610c87565b6106da610c93565b604051610422919081516001600160a01b0316815260208083015190820152604080830151908201526060918201519181019190915260800190565b6104186107243660046119c9565b610cf9565b6007546001600160a01b0316610491565b6104917f000000000000000000000000000000000000000000000000000000000000000081565b6104ba610507366004611ae4565b6104ba6104b7366004611b9a565b61041861078b366004611a9b565b610d04565b61046661079e366004611a9b565b600c6020525f908152604090205460ff1681565b5f610418565b6104186107c6366004611a9b565b610d26565b6104186107d9366004611c4e565b6001600160a01b039182165f90815260016020908152604080832093909416825291909152205490565b6104ba610811366004611a9b565b6001600160a01b03165f818152600c60205260408120805460ff19166001908117909155600b805491820181559091527f0175b7a638427703f0dbe7bb9bbf987a2551717b34e79f33b5b1008d1fa01db90180546001600160a01b0319169091179055565b61087e610d43565b6040516104229190611c7a565b610418610899366004611cc5565b610da2565b6104916108ac3660046119c9565b610df5565b5f6108ba610e1d565b905090565b6060600380546108ce90611d74565b80601f01602080910402602001604051908101604052809291908181526020018280546108fa90611d74565b80156109455780601f1061091c57610100808354040283529160200191610945565b820191905f5260205f20905b81548152906001019060200180831161092857829003601f168201915b5050505050905090565b5f61095a825f610ea5565b92915050565b5f3361096d818585610edd565b5060019392505050565b5f61095a826001610eef565b5f7f00000000000000000000000000000000000000000000000000000000000000006001600160a01b031663117d8ae06040518163ffffffff1660e01b8152600401602060405180830381865afa1580156109e0573d5f5f3e3d5ffd5b505050506040513d601f19601f820116820180604052508101906108ba9190611dac565b5f33610a11858285610f1e565b610a1c858585610f86565b60019150505b9392505050565b5f6108ba610fe3565b5f6108ba817f0000000000000000000000000000000000000000000000000000000000000000611ddb565b61050782826110e7565b6104b78161111b565b5f7f00000000000000000000000000000000000000000000000000000000000000006001600160a01b0316635b0f83f36040518163ffffffff1660e01b8152600401602060405180830381865afa1580156109e0573d5f5f3e3d5ffd5b5f7f00000000000000000000000000000000000000000000000000000000000000006001600160a01b03166361d027b36040518163ffffffff1660e01b8152600401602060405180830381865afa1580156109e0573d5f5f3e3d5ffd5b5f5f60065442610b3a9190611df4565b90505f306001600160a01b03166318160ddd6040518163ffffffff1660e01b8152600401602060405180830381865afa158015610b79573d5f5f3e3d5ffd5b505050506040513d601f19601f82011682018060405250810190610b9d9190611e07565b9050610ba98183611185565b9250505090565b5f610a2283836111ff565b5f7f00000000000000000000000000000000000000000000000000000000000000006001600160a01b0316637aaceb956040518163ffffffff1660e01b8152600401602060405180830381865afa1580156109e0573d5f5f3e3d5ffd5b5f5f19610c29565b60405180910390fd5b5f610c3385610c6f565b9050610c4133858388611216565b949350505050565b6060600480546108ce90611d74565b61050782826112a8565b5f3361096d818585610f86565b5f61095a826001610ea5565b5f610c418484846112dc565b5f610c41848484611332565b610cc360405180608001604052805f6001600160a01b031681526020015f81526020015f81526020015f81525090565b50604080516080810182526007546001600160a01b03168152600854602082015260095491810191909152600a54606082015290565b5f61095a825f610eef565b6001600160a01b0381165f9081526020819052604081205461095a905f610ea5565b6001600160a01b0381165f9081526020819052604081205461095a565b6060600b80548060200260200160405190810160405280929190818152602001828054801561094557602002820191905f5260205f20905b81546001600160a01b03168152600190910190602001808311610d7b575050505050905090565b5f81604051610db19190611e3f565b604051908190038120906001600160a01b038516907f38383a2eb7bd8ee888f12fb942a2e22e84f2d7240f1f8541ad4bbddace6e3442905f90a3610c4184846111ff565b600b8181548110610e04575f80fd5b5f918252602090912001546001600160a01b0316905081565b6040516370a0823160e01b81523060048201525f907f00000000000000000000000000000000000000000000000000000000000000006001600160a01b0316906370a0823190602401602060405180830381865afa158015610e81573d5f5f3e3d5ffd5b505050506040513d601f19601f820116820180604052508101906108ba9190611e07565b5f610a22610eb16108b1565b610ebc906001611e55565b610ec75f600a611f4b565b600254610ed49190611e55565b8591908561137f565b610eea83838360016113c1565b505050565b5f610a22610efe82600a611f4b565b600254610f0b9190611e55565b610f136108b1565b610ed4906001611e55565b6001600160a01b038381165f908152600160209081526040808320938616835292905220545f198114610f805781811015610f7257828183604051637dc7a0d960e11b8152600401610c2093929190611e1e565b610f8084848484035f6113c1565b50505050565b6001600160a01b038316610faf57604051634b637e8f60e11b81525f6004820152602401610c20565b6001600160a01b038216610fd85760405163ec442f0560e01b81525f6004820152602401610c20565b610eea838383611485565b5f610ff7600554610ff35f611598565b1490565b156110055750426006555f90565b5f600654426110149190611df4565b9050805f03611024575f91505090565b5f306001600160a01b03166318160ddd6040518163ffffffff1660e01b8152600401602060405180830381865afa158015611061573d5f5f3e3d5ffd5b505050506040513d601f19601f820116820180604052508101906110859190611e07565b90506110918183611185565b925082156110e2576110aa6110a4610bbb565b84610a5d565b426006556040518381527f698f29fe990d4e7770f7e74cd309da261dd03ca828f7bb3c2ea8b8c9adcc0ecd9060200160405180910390a15b505090565b6001600160a01b0382166111105760405163ec442f0560e01b81525f6004820152602401610c20565b6105075f8383611485565b611124816115af565b611141576040516319ecf1a560e31b815260040160405180910390fd5b611149610fe3565b5060058190556040518181527f186e864438b783eec69fd7ce4871c28accfc0b45558ea08c48540f76094fecde9060200160405180910390a150565b5f5f6301e133806005546111999190611f6d565b90505f6111dc6111bf6111ae6012600a611f80565b6111b9906064611f8b565b846115d0565b856111cc6012600a611f80565b6111d7906064611f8b565b6115db565b90505f6111e986836115e9565b90506111f58682611df4565b9695505050505050565b5f5f195f61120c85610cf9565b9050610c41338587845b6112427f0000000000000000000000000000000000000000000000000000000000000000853085611615565b61124c83826110e7565b826001600160a01b0316846001600160a01b03167fdcbc1c05240f31ff3ad067ef1ee35ce4997762752e3a095284754544f4c709d7848460405161129a929190918252602082015260400190565b60405180910390a350505050565b6001600160a01b0382166112d157604051634b637e8f60e11b81525f6004820152602401610c20565b610507825f83611485565b5f5f6112e783610d04565b90508085111561131057828582604051633fa733bb60e21b8152600401610c2093929190611e1e565b5f61131a86610977565b9050611329338686898561167c565b95945050505050565b5f5f61133d83610d26565b90508085111561136657828582604051632e52afbb60e21b8152600401610c2093929190611e1e565b5f6113708661094f565b9050611329338686848a61167c565b5f6113ac61138c8361173c565b80156113a757505f84806113a2576113a2611f59565b868809115b151590565b6113b7868686611768565b6113299190611e55565b6001600160a01b0384166113ea5760405163e602df0560e01b81525f6004820152602401610c20565b6001600160a01b03831661141357604051634a1406b160e11b81525f6004820152602401610c20565b6001600160a01b038085165f9081526001602090815260408083209387168352929052208290558015610f8057826001600160a01b0316846001600160a01b03167f8c5be1e5ebec7d5bd14f71427d1e84f3dd0314c0f7b2291e5b200ac8c7c3b9258460405161129a91815260200190565b6001600160a01b0383166114af578060025f8282546114a49190611e55565b9091555061150c9050565b6001600160a01b0383165f90815260208190526040902054818110156114ee5783818360405163391434e360e21b8152600401610c2093929190611e1e565b6001600160a01b0384165f9081526020819052604090209082900390555b6001600160a01b03821661152857600280548290039055611546565b6001600160a01b0382165f9081526020819052604090208054820190555b816001600160a01b0316836001600160a01b03167fddf252ad1be2c89b69c2b068fc378daa952ba7f163c4a11628f55a4df523b3ef8360405161158b91815260200190565b60405180910390a3505050565b5f6115a56012600a611f80565b61095a9083611f8b565b5f61095a826115c06012600a611f80565b6115cb906064611f8b565b101590565b5f610a228284611e55565b5f83826111f582868361181e565b5f6115f66012600a611f80565b611601906064611f8b565b61160b8385611f8b565b610a229190611f6d565b6040516001600160a01b038481166024830152838116604483015260648201839052610f809186918216906323b872dd906084015b604051602081830303815290604052915060e01b6020820180516001600160e01b0383818316178352505050506118e6565b826001600160a01b0316856001600160a01b0316146116a0576116a0838683610f1e565b6116aa83826112a8565b6116d57f00000000000000000000000000000000000000000000000000000000000000008584611952565b826001600160a01b0316846001600160a01b0316866001600160a01b03167ffbde797d201c681b91056529119e0b02407c7bb96a4a2c75c01fc9667232c8db858560405161172d929190918252602082015260400190565b60405180910390a45050505050565b5f600282600381111561175157611751611fa2565b61175b9190611fb6565b60ff166001149050919050565b5f838302815f1985870982811083820303915050805f0361179c5783828161179257611792611f59565b0492505050610a22565b8084116117b3576117b36003851502601118611983565b5f848688095f868103871696879004966002600389028118808a02820302808a02820302808a02820302808a02820302808a02820302808a02909103029181900381900460010186841190950394909402919094039290920491909117919091029150509392505050565b5f83158061182a575082155b1561184457821561183b575f61183d565b815b9050610a22565b61184f600284611fd7565b1561185a578361185c565b815b90505f61186a600284611f6d565b90506002840493505b83156118de578485028586820414611889575f5ffd5b81810181811015611898575f5ffd5b84900495505060018416156118d35784820282868204141586151516156118bd575f5ffd5b818101818110156118cc575f5ffd5b8490049250505b600284049350611873565b509392505050565b5f5f60205f8451602086015f885af180611905576040513d5f823e3d81fd5b50505f513d9150811561191c578060011415611929565b6001600160a01b0384163b155b15610f8057604051635274afe760e01b81526001600160a01b0385166004820152602401610c20565b6040516001600160a01b03838116602483015260448201839052610eea91859182169063a9059cbb9060640161164a565b634e487b715f52806020526024601cfd5b602081525f82518060208401528060208501604085015e5f604082850101526040601f19601f83011684010191505092915050565b5f602082840312156119d9575f5ffd5b5035919050565b6001600160a01b03811681146104b7575f5ffd5b5f5f60408385031215611a05575f5ffd5b8235611a10816119e0565b946020939093013593505050565b5f5f5f60608486031215611a30575f5ffd5b8335611a3b816119e0565b92506020840135611a4b816119e0565b929592945050506040919091013590565b5f5f5f60608486031215611a6e575f5ffd5b833592506020840135611a80816119e0565b91506040840135611a90816119e0565b809150509250925092565b5f60208284031215611aab575f5ffd5b8135610a22816119e0565b5f5f60408385031215611ac7575f5ffd5b823591506020830135611ad9816119e0565b809150509250929050565b5f5f60208385031215611af5575f5ffd5b823567ffffffffffffffff811115611b0b575f5ffd5b8301601f81018513611b1b575f5ffd5b803567ffffffffffffffff811115611b31575f5ffd5b8560208260051b8401011115611b45575f5ffd5b6020919091019590945092505050565b634e487b7160e01b5f52604160045260245ffd5b604051601f8201601f1916810167ffffffffffffffff81118282101715611b9257611b92611b55565b604052919050565b5f60208284031215611baa575f5ffd5b813567ffffffffffffffff811115611bc0575f5ffd5b8201601f81018413611bd0575f5ffd5b803567ffffffffffffffff811115611bea57611bea611b55565b8060051b611bfa60208201611b69565b91825260208184018101929081019087841115611c15575f5ffd5b6020850194505b83851015611c435784359250611c31836119e0565b82825260209485019490910190611c1c565b979650505050505050565b5f5f60408385031215611c5f575f5ffd5b8235611c6a816119e0565b91506020830135611ad9816119e0565b602080825282518282018190525f918401906040840190835b81811015611cba5783516001600160a01b0316835260209384019390920191600101611c93565b509095945050505050565b5f5f5f60608486031215611cd7575f5ffd5b833592506020840135611ce9816119e0565b9150604084013567ffffffffffffffff811115611d04575f5ffd5b8401601f81018613611d14575f5ffd5b803567ffffffffffffffff811115611d2e57611d2e611b55565b611d41601f8201601f1916602001611b69565b818152876020838501011115611d55575f5ffd5b816020840160208301375f602083830101528093505050509250925092565b600181811c90821680611d8857607f821691505b602082108103611da657634e487b7160e01b5f52602260045260245ffd5b50919050565b5f60208284031215611dbc575f5ffd5b8151610a22816119e0565b634e487b7160e01b5f52601160045260245ffd5b60ff818116838216019081111561095a5761095a611dc7565b8181038181111561095a5761095a611dc7565b5f60208284031215611e17575f5ffd5b5051919050565b6001600160a01b039390931683526020830191909152604082015260600190565b5f82518060208501845e5f920191825250919050565b8082018082111561095a5761095a611dc7565b6001815b6001841115611ea357808504811115611e8757611e87611dc7565b6001841615611e9557908102905b60019390931c928002611e6c565b935093915050565b5f82611eb95750600161095a565b81611ec557505f61095a565b8160018114611edb5760028114611ee557611f01565b600191505061095a565b60ff841115611ef657611ef6611dc7565b50506001821b61095a565b5060208310610133831016604e8410600b8410161715611f24575081810a61095a565b611f305f198484611e68565b805f1904821115611f4357611f43611dc7565b029392505050565b5f610a2260ff841683611eab565b634e487b7160e01b5f52601260045260245ffd5b5f82611f7b57611f7b611f59565b500490565b5f610a228383611eab565b808202811582820484141761095a5761095a611dc7565b634e487b7160e01b5f52602160045260245ffd5b5f60ff831680611fc857611fc8611f59565b8060ff84160691505092915050565b5f82611fe557611fe5611f59565b50069056fea264697066735822122086fc2956c872b1786ed7c8ee552f7d32216a5ad8da1c43e2696f2840a420988864736f6c634300081b0033","linkReferences":{}},"methodIdentifiers":{"addArk(address)":"e37d5b7f","addArks(address[])":"cc5b1e55","adjustBuffer((address,address,uint256,bytes,bytes)[])":"cada5143","allowance(address,address)":"dd62ed3e","approve(address,uint256)":"095ea7b3","arks(uint256)":"ff32a42a","asset()":"38d52e0f","balanceOf(address)":"70a08231","bufferArk()":"c8169aa1","burn(address,uint256)":"9dc29fac","config()":"79502c55","configurationManager()":"c9c667e3","convertToAssets(uint256)":"07a2d13a","convertToShares(uint256)":"c6e6f592","decimals()":"313ce567","deposit(uint256,address)":"6e553f65","deposit(uint256,address,bytes)":"faa9bce9","emergencyShutdown()":"3403c2fc","estimateAccruedTip()":"68482626","forceRebalance((address,address,uint256,bytes,bytes)[])":"e7b20e5b","getArks()":"f1cd665b","getConfig()":"c3f909d4","harborCommand()":"5b0f83f3","isArkActive(address)":"d25dd101","lastTipTimestamp()":"71aedbc1","maxBufferRedeem(address)":"9265b76e","maxBufferWithdraw(address)":"3e314c76","maxDeposit(address)":"402d267d","maxMint(address)":"c63d75b6","maxRedeem(address)":"d905777e","maxWithdraw(address)":"ce96cb77","mint(address,uint256)":"40c10f19","mint(uint256,address)":"94bf804d","name()":"06fdde03","pause()":"8456cb59","previewDeposit(uint256)":"ef8b30f7","previewMint(uint256)":"b3d7f6b9","previewRedeem(uint256)":"4cdad506","previewWithdraw(uint256)":"0a28a477","raft()":"117d8ae0","rebalance((address,address,uint256,bytes,bytes)[])":"fcf2849f","redeem(uint256,address,address)":"ba087652","redeemFromArks(uint256,address,address)":"3a7c9f0e","redeemFromBuffer(uint256,address,address)":"f3577816","removeArk(address)":"96c25a38","setArkDepositCap(address,uint256)":"34050560","setArkMaxRebalanceInflow(address,uint256)":"d45a07a1","setArkMaxRebalanceOutflow(address,uint256)":"b637766c","setDepositCap(address,uint256)":"f878369e","setFleetDepositCap(uint256)":"d902d41a","setMaxRebalanceOperations(uint256)":"133ab579","setMinimumBufferBalance(uint256)":"4daecb9c","setMinimumPauseTime(uint256)":"e193858f","setTipRate(uint256)":"5822198f","symbol()":"95d89b41","test()":"f8a8fd6d","testMint(address,uint256)":"f28e093d","tip()":"2755cd2d","tipJar()":"7aaceb95","tipRate()":"498e76a0","totalAssets()":"01e1d114","totalSupply()":"18160ddd","transfer(address,uint256)":"a9059cbb","transferFrom(address,address,uint256)":"23b872dd","treasury()":"61d027b3","unpause()":"3f4ba83a","updateRebalanceCooldown(uint256)":"dc9de0a8","withdraw(uint256,address,address)":"b460af94","withdrawFromArks(uint256,address,address)":"a039e944","withdrawFromBuffer(uint256,address,address)":"5f538f6f","withdrawableTotalAssets()":"d570ee47"},"id":283}