{"abi":[{"type":"function","name":"DEFAULT_ADMIN_ROLE","inputs":[],"outputs":[{"name":"","type":"bytes32","internalType":"bytes32"}],"stateMutability":"view"},{"type":"function","name":"getRoleAdmin","inputs":[{"name":"role","type":"bytes32","internalType":"bytes32"}],"outputs":[{"name":"","type":"bytes32","internalType":"bytes32"}],"stateMutability":"view"},{"type":"function","name":"grantRole","inputs":[{"name":"role","type":"bytes32","internalType":"bytes32"},{"name":"account","type":"address","internalType":"address"}],"outputs":[],"stateMutability":"view"},{"type":"function","name":"hasRole","inputs":[{"name":"role","type":"bytes32","internalType":"bytes32"},{"name":"account","type":"address","internalType":"address"}],"outputs":[{"name":"","type":"bool","internalType":"bool"}],"stateMutability":"view"},{"type":"function","name":"renounceRole","inputs":[{"name":"role","type":"bytes32","internalType":"bytes32"},{"name":"callerConfirmation","type":"address","internalType":"address"}],"outputs":[],"stateMutability":"nonpayable"},{"type":"function","name":"revokeRole","inputs":[{"name":"role","type":"bytes32","internalType":"bytes32"},{"name":"account","type":"address","internalType":"address"}],"outputs":[],"stateMutability":"view"},{"type":"function","name":"supportsInterface","inputs":[{"name":"interfaceId","type":"bytes4","internalType":"bytes4"}],"outputs":[{"name":"","type":"bool","internalType":"bool"}],"stateMutability":"view"},{"type":"event","name":"RoleAdminChanged","inputs":[{"name":"role","type":"bytes32","indexed":true,"internalType":"bytes32"},{"name":"previousAdminRole","type":"bytes32","indexed":true,"internalType":"bytes32"},{"name":"newAdminRole","type":"bytes32","indexed":true,"internalType":"bytes32"}],"anonymous":false},{"type":"event","name":"RoleGranted","inputs":[{"name":"role","type":"bytes32","indexed":true,"internalType":"bytes32"},{"name":"account","type":"address","indexed":true,"internalType":"address"},{"name":"sender","type":"address","indexed":true,"internalType":"address"}],"anonymous":false},{"type":"event","name":"RoleRevoked","inputs":[{"name":"role","type":"bytes32","indexed":true,"internalType":"bytes32"},{"name":"account","type":"address","indexed":true,"internalType":"address"},{"name":"sender","type":"address","indexed":true,"internalType":"address"}],"anonymous":false},{"type":"error","name":"AccessControlBadConfirmation","inputs":[]},{"type":"error","name":"AccessControlUnauthorizedAccount","inputs":[{"name":"account","type":"address","internalType":"address"},{"name":"neededRole","type":"bytes32","internalType":"bytes32"}]},{"type":"error","name":"DirectGrantIsDisabled","inputs":[{"name":"caller","type":"address","internalType":"address"}]},{"type":"error","name":"DirectRevokeIsDisabled","inputs":[{"name":"caller","type":"address","internalType":"address"}]}],"bytecode":{"object":"0x6080604052348015600e575f80fd5b506103338061001c5f395ff3fe608060405234801561000f575f80fd5b506004361061007a575f3560e01c806336568abe1161005857806336568abe146100eb57806391d14854146100fe578063a217fddf14610134578063d547741f1461013b575f80fd5b806301ffc9a71461007e578063248a9ca3146100a65780632f2ff15d146100d6575b5f80fd5b61009161008c36600461027f565b61014e565b60405190151581526020015b60405180910390f35b6100c86100b43660046102ad565b5f9081526020819052604090206001015490565b60405190815260200161009d565b6100e96100e43660046102c4565b610184565b005b6100e96100f93660046102c4565b6101a4565b61009161010c3660046102c4565b5f918252602082815260408084206001600160a01b0393909316845291905290205460ff1690565b6100c85f81565b6100e96101493660046102c4565b6101dc565b5f6001600160e01b03198216637965db0b60e01b148061017e57506301ffc9a760e01b6001600160e01b03198316145b92915050565b604051630e15200f60e21b81523360048201526024015b60405180910390fd5b6001600160a01b03811633146101cd5760405163334bd91960e11b815260040160405180910390fd5b6101d782826101f7565b505050565b604051636344978560e11b815233600482015260240161019b565b5f828152602081815260408083206001600160a01b038516845290915281205460ff1615610278575f838152602081815260408083206001600160a01b0386168085529252808320805460ff1916905551339286917ff6391f5c32d9c69d2a47ea670b442974b53935d1edc7fd64eb21e047a839171b9190a450600161017e565b505f61017e565b5f6020828403121561028f575f80fd5b81356001600160e01b0319811681146102a6575f80fd5b9392505050565b5f602082840312156102bd575f80fd5b5035919050565b5f80604083850312156102d5575f80fd5b8235915060208301356001600160a01b03811681146102f2575f80fd5b80915050925092905056fea264697066735822122082581dd8a83c69e79a530ae3737faf7dd82164e0705db481b562dd9ccc2528ec64736f6c634300081a0033","linkReferences":{}},"methodIdentifiers":{"DEFAULT_ADMIN_ROLE()":"a217fddf","getRoleAdmin(bytes32)":"248a9ca3","grantRole(bytes32,address)":"2f2ff15d","hasRole(bytes32,address)":"91d14854","renounceRole(bytes32,address)":"36568abe","revokeRole(bytes32,address)":"d547741f","supportsInterface(bytes4)":"01ffc9a7"},"id":61}