{"abi":[{"type":"function","name":"claim","inputs":[{"name":"account","type":"address","internalType":"address"},{"name":"reward","type":"address","internalType":"address"},{"name":"claimable","type":"uint256","internalType":"uint256"},{"name":"proof","type":"bytes32[]","internalType":"bytes32[]"}],"outputs":[{"name":"amount","type":"uint256","internalType":"uint256"}],"stateMutability":"nonpayable"},{"type":"function","name":"claimed","inputs":[{"name":"","type":"address","internalType":"address"},{"name":"","type":"address","internalType":"address"}],"outputs":[{"name":"","type":"uint256","internalType":"uint256"}],"stateMutability":"view"},{"type":"function","name":"root","inputs":[],"outputs":[{"name":"","type":"bytes32","internalType":"bytes32"}],"stateMutability":"view"},{"type":"function","name":"setRoot","inputs":[{"name":"_root","type":"bytes32","internalType":"bytes32"},{"name":"","type":"bytes32","internalType":"bytes32"}],"outputs":[],"stateMutability":"nonpayable"},{"type":"event","name":"Claimed","inputs":[{"name":"account","type":"address","indexed":true,"internalType":"address"},{"name":"reward","type":"address","indexed":true,"internalType":"address"},{"name":"amount","type":"uint256","indexed":false,"internalType":"uint256"}],"anonymous":false},{"type":"error","name":"SafeERC20FailedOperation","inputs":[{"name":"token","type":"address","internalType":"address"}]}],"bytecode":{"object":"0x6080604052348015600e575f5ffd5b506104f88061001c5f395ff3fe608060405234801561000f575f5ffd5b506004361061004a575f3560e01c80630c9cbf0e1461004e57806342af83fb14610087578063ebf0c7171461009d578063fabed412146100a6575b5f5ffd5b61007561005c3660046103b4565b5f60208181529281526040808220909352908152205481565b60405190815260200160405180910390f35b61009b6100953660046103e5565b50600155565b005b61007560015481565b6100756100b4366004610405565b6001545f906100f95760405162461bcd60e51b815260206004820152600c60248201526b1493d3d517d393d517d4d15560a21b60448201526064015b60405180910390fd5b6101668383808060200260200160405190810160405280939291908181526020018383602002808284375f9201919091525050604080516001600160a01b038c811660208301528b168183015260608082018b905282518083039091019052608001905250600192915050565b6101b25760405162461bcd60e51b815260206004820152601860248201527f494e56414c49445f50524f4f465f4f525f45585049524544000000000000000060448201526064016100f0565b6001600160a01b038087165f908152602081815260408083209389168352929052205484116102175760405162461bcd60e51b8152602060048201526011602482015270434c41494d41424c455f544f4f5f4c4f5760781b60448201526064016100f0565b6001600160a01b038087165f9081526020818152604080832093891683529290522054610244908561049d565b6001600160a01b038088165f90815260208181526040808320938a1680845293909152902086905590915061027a9087836102d0565b846001600160a01b0316866001600160a01b03167ff7a40077ff7a04c7e61f6f26fb13774259ddf1b6bce9ecf26a8276cdd3992683836040516102bf91815260200190565b60405180910390a395945050505050565b604080516001600160a01b038416602482015260448082018490528251808303909101815260649091019091526020810180516001600160e01b031663a9059cbb60e01b179052610322908490610327565b505050565b5f5f60205f8451602086015f885af180610346576040513d5f823e3d81fd5b50505f513d9150811561035d57806001141561036a565b6001600160a01b0384163b155b1561039357604051635274afe760e01b81526001600160a01b03851660048201526024016100f0565b50505050565b80356001600160a01b03811681146103af575f5ffd5b919050565b5f5f604083850312156103c5575f5ffd5b6103ce83610399565b91506103dc60208401610399565b90509250929050565b5f5f604083850312156103f6575f5ffd5b50508035926020909101359150565b5f5f5f5f5f60808688031215610419575f5ffd5b61042286610399565b945061043060208701610399565b935060408601359250606086013567ffffffffffffffff811115610452575f5ffd5b8601601f81018813610462575f5ffd5b803567ffffffffffffffff811115610478575f5ffd5b8860208260051b840101111561048c575f5ffd5b959894975092955050506020019190565b818103818111156104bc57634e487b7160e01b5f52601160045260245ffd5b9291505056fea2646970667358221220797001469d13004cd99cd2984d5330e1c47ad4e9661f8d691cb53a2081dc1a3364736f6c634300081c0033","linkReferences":{}},"methodIdentifiers":{"claim(address,address,uint256,bytes32[])":"fabed412","claimed(address,address)":"0c9cbf0e","root()":"ebf0c717","setRoot(bytes32,bytes32)":"42af83fb"},"id":326}