{"abi":[{"type":"function","name":"owner","inputs":[],"outputs":[{"name":"","type":"address","internalType":"address"}],"stateMutability":"view"},{"type":"function","name":"pendingOwner","inputs":[],"outputs":[{"name":"","type":"address","internalType":"address"}],"stateMutability":"view"}],"bytecode":{"object":"0x6080604052348015600e575f80fd5b5060a980601a5f395ff3fe6080604052348015600e575f80fd5b50600436106030575f3560e01c80638da5cb5b146034578063e30c3978146061575b5f80fd5b5f546045906001600160a01b031681565b6040516001600160a01b03909116815260200160405180910390f35b6001546045906001600160a01b03168156fea2646970667358221220d4e70aa85fad9f3bbab2e7139a7f93f95fdff776e4650a81bc790d782c4b088564736f6c634300081a0033","linkReferences":{}},"methodIdentifiers":{"owner()":"8da5cb5b","pendingOwner()":"e30c3978"},"id":68}