{"abi":[{"type":"constructor","inputs":[{"name":"beneficiary","type":"address","internalType":"address"},{"name":"startTimestamp","type":"uint64","internalType":"uint64"},{"name":"durationSeconds","type":"uint64","internalType":"uint64"}],"stateMutability":"payable"},{"type":"receive","stateMutability":"payable"},{"type":"function","name":"duration","inputs":[],"outputs":[{"name":"","type":"uint256","internalType":"uint256"}],"stateMutability":"view"},{"type":"function","name":"end","inputs":[],"outputs":[{"name":"","type":"uint256","internalType":"uint256"}],"stateMutability":"view"},{"type":"function","name":"owner","inputs":[],"outputs":[{"name":"","type":"address","internalType":"address"}],"stateMutability":"view"},{"type":"function","name":"releasable","inputs":[{"name":"token","type":"address","internalType":"address"}],"outputs":[{"name":"","type":"uint256","internalType":"uint256"}],"stateMutability":"view"},{"type":"function","name":"releasable","inputs":[],"outputs":[{"name":"","type":"uint256","internalType":"uint256"}],"stateMutability":"view"},{"type":"function","name":"release","inputs":[{"name":"token","type":"address","internalType":"address"}],"outputs":[],"stateMutability":"nonpayable"},{"type":"function","name":"release","inputs":[],"outputs":[],"stateMutability":"nonpayable"},{"type":"function","name":"released","inputs":[],"outputs":[{"name":"","type":"uint256","internalType":"uint256"}],"stateMutability":"view"},{"type":"function","name":"released","inputs":[{"name":"token","type":"address","internalType":"address"}],"outputs":[{"name":"","type":"uint256","internalType":"uint256"}],"stateMutability":"view"},{"type":"function","name":"renounceOwnership","inputs":[],"outputs":[],"stateMutability":"nonpayable"},{"type":"function","name":"start","inputs":[],"outputs":[{"name":"","type":"uint256","internalType":"uint256"}],"stateMutability":"view"},{"type":"function","name":"transferOwnership","inputs":[{"name":"newOwner","type":"address","internalType":"address"}],"outputs":[],"stateMutability":"nonpayable"},{"type":"function","name":"vestedAmount","inputs":[{"name":"timestamp","type":"uint64","internalType":"uint64"}],"outputs":[{"name":"","type":"uint256","internalType":"uint256"}],"stateMutability":"view"},{"type":"function","name":"vestedAmount","inputs":[{"name":"token","type":"address","internalType":"address"},{"name":"timestamp","type":"uint64","internalType":"uint64"}],"outputs":[{"name":"","type":"uint256","internalType":"uint256"}],"stateMutability":"view"},{"type":"event","name":"ERC20Released","inputs":[{"name":"token","type":"address","indexed":true,"internalType":"address"},{"name":"amount","type":"uint256","indexed":false,"internalType":"uint256"}],"anonymous":false},{"type":"event","name":"EtherReleased","inputs":[{"name":"amount","type":"uint256","indexed":false,"internalType":"uint256"}],"anonymous":false},{"type":"event","name":"OwnershipTransferred","inputs":[{"name":"previousOwner","type":"address","indexed":true,"internalType":"address"},{"name":"newOwner","type":"address","indexed":true,"internalType":"address"}],"anonymous":false},{"type":"error","name":"FailedCall","inputs":[]},{"type":"error","name":"InsufficientBalance","inputs":[{"name":"balance","type":"uint256","internalType":"uint256"},{"name":"needed","type":"uint256","internalType":"uint256"}]},{"type":"error","name":"OwnableInvalidOwner","inputs":[{"name":"owner","type":"address","internalType":"address"}]},{"type":"error","name":"OwnableUnauthorizedAccount","inputs":[{"name":"account","type":"address","internalType":"address"}]},{"type":"error","name":"SafeERC20FailedOperation","inputs":[{"name":"token","type":"address","internalType":"address"}]}],"bytecode":{"object":"0x60c0604052604051610a9a380380610a9a833981016040819052610022916100dc565b826001600160a01b03811661005057604051631e4fbdf760e01b81525f600482015260240160405180910390fd5b61005981610072565b506001600160401b039182166080521660a05250610129565b5f80546001600160a01b038381166001600160a01b0319831681178455604051919092169283917f8be0079c531659141344cd1fd0a4f28419497f9722a3daafe3b4186f6b6457e09190a35050565b80516001600160401b03811681146100d7575f5ffd5b919050565b5f5f5f606084860312156100ee575f5ffd5b83516001600160a01b0381168114610104575f5ffd5b9250610112602085016100c1565b9150610120604085016100c1565b90509250925092565b60805160a0516109426101585f395f8181610127015281816104d401526105b201525f6104ae01526109425ff3fe6080604052600436106100dc575f3560e01c8063961325211161007c578063be9a655511610057578063be9a65551461024a578063efbe1c1c1461025e578063f2fde38b14610272578063fbccedae14610291575f5ffd5b806396132521146101e35780639852595c146101f7578063a3f8eace1461022b575f5ffd5b8063715018a6116100b7578063715018a614610176578063810ec23b1461018a57806386d1a69f146101a95780638da5cb5b146101bd575f5ffd5b80630a17b06b146100e75780630fb5a6b4146101195780631916558714610155575f5ffd5b366100e357005b5f5ffd5b3480156100f2575f5ffd5b5061010661010136600461080c565b6102a5565b6040519081526020015b60405180910390f35b348015610124575f5ffd5b507f000000000000000000000000000000000000000000000000000000000000000067ffffffffffffffff16610106565b348015610160575f5ffd5b5061017461016f36600461083b565b6102c8565b005b348015610181575f5ffd5b50610174610360565b348015610195575f5ffd5b506101066101a4366004610854565b610373565b3480156101b4575f5ffd5b50610174610406565b3480156101c8575f5ffd5b505f546040516001600160a01b039091168152602001610110565b3480156101ee575f5ffd5b50600154610106565b348015610202575f5ffd5b5061010661021136600461083b565b6001600160a01b03165f9081526002602052604090205490565b348015610236575f5ffd5b5061010661024536600461083b565b610477565b348015610255575f5ffd5b506101066104a3565b348015610269575f5ffd5b506101066104d1565b34801561027d575f5ffd5b5061017461028c36600461083b565b610514565b34801561029c575f5ffd5b50610106610553565b5f6102c26102b260015490565b6102bc9047610899565b83610570565b92915050565b5f6102d282610477565b6001600160a01b0383165f908152600260205260408120805492935083929091906102fe908490610899565b90915550506040518181526001600160a01b038316907fc0e523490dd523c33b1878c9eb14ff46991e3f5b2cd33710918618f2a39cba1b9060200160405180910390a261035c826103565f546001600160a01b031690565b83610612565b5050565b610368610669565b6103715f610695565b565b6001600160a01b0382165f908152600260205260408120546103ff906040516370a0823160e01b81523060048201526001600160a01b038616906370a0823190602401602060405180830381865afa1580156103d1573d5f5f3e3d5ffd5b505050506040513d601f19601f820116820180604052508101906103f591906108ac565b6102bc9190610899565b9392505050565b5f61040f610553565b90508060015f8282546104229190610899565b90915550506040518181527fda9d4e5f101b8b9b1c5b76d0c5a9f7923571acfc02376aa076b75a8c080c956b9060200160405180910390a161047461046e5f546001600160a01b031690565b826106e4565b50565b6001600160a01b0381165f908152600260205260408120546104998342610373565b6102c291906108c3565b67ffffffffffffffff7f00000000000000000000000000000000000000000000000000000000000000001690565b5f7f000000000000000000000000000000000000000000000000000000000000000067ffffffffffffffff166105056104a3565b61050f9190610899565b905090565b61051c610669565b6001600160a01b03811661054a57604051631e4fbdf760e01b81525f60048201526024015b60405180910390fd5b61047481610695565b5f61055d60015490565b610566426102a5565b61050f91906108c3565b5f6105796104a3565b8267ffffffffffffffff16101561059157505f6102c2565b6105996104d1565b8267ffffffffffffffff16106105b05750816102c2565b7f000000000000000000000000000000000000000000000000000000000000000067ffffffffffffffff166105e36104a3565b6105f79067ffffffffffffffff85166108c3565b61060190856108d6565b61060b91906108ed565b90506102c2565b604080516001600160a01b038416602482015260448082018490528251808303909101815260649091019091526020810180516001600160e01b031663a9059cbb60e01b17905261066490849061077e565b505050565b5f546001600160a01b031633146103715760405163118cdaa760e01b8152336004820152602401610541565b5f80546001600160a01b038381166001600160a01b0319831681178455604051919092169283917f8be0079c531659141344cd1fd0a4f28419497f9722a3daafe3b4186f6b6457e09190a35050565b8047101561070e5760405163cf47918160e01b815247600482015260248101829052604401610541565b5f826001600160a01b0316826040515f6040518083038185875af1925050503d805f8114610757576040519150601f19603f3d011682016040523d82523d5f602084013e61075c565b606091505b50509050806106645760405163d6bda27560e01b815260040160405180910390fd5b5f5f60205f8451602086015f885af18061079d576040513d5f823e3d81fd5b50505f513d915081156107b45780600114156107c1565b6001600160a01b0384163b155b156107ea57604051635274afe760e01b81526001600160a01b0385166004820152602401610541565b50505050565b803567ffffffffffffffff81168114610807575f5ffd5b919050565b5f6020828403121561081c575f5ffd5b6103ff826107f0565b80356001600160a01b0381168114610807575f5ffd5b5f6020828403121561084b575f5ffd5b6103ff82610825565b5f5f60408385031215610865575f5ffd5b61086e83610825565b915061087c602084016107f0565b90509250929050565b634e487b7160e01b5f52601160045260245ffd5b808201808211156102c2576102c2610885565b5f602082840312156108bc575f5ffd5b5051919050565b818103818111156102c2576102c2610885565b80820281158282048414176102c2576102c2610885565b5f8261090757634e487b7160e01b5f52601260045260245ffd5b50049056fea264697066735822122000284969f44989b0f8089528dd8adc7fa0d13b7deebf5b150af2976b17e6387564736f6c634300081c0033","linkReferences":{}},"methodIdentifiers":{"duration()":"0fb5a6b4","end()":"efbe1c1c","owner()":"8da5cb5b","releasable()":"fbccedae","releasable(address)":"a3f8eace","release()":"86d1a69f","release(address)":"19165587","released()":"96132521","released(address)":"9852595c","renounceOwnership()":"715018a6","start()":"be9a6555","transferOwnership(address)":"f2fde38b","vestedAmount(address,uint64)":"810ec23b","vestedAmount(uint64)":"0a17b06b"},"id":45}