{"abi":[{"type":"constructor","inputs":[{"name":"_accessManager","type":"address","internalType":"address"}],"stateMutability":"nonpayable"},{"type":"function","name":"activeFleetCommanders","inputs":[{"name":"","type":"address","internalType":"address"}],"outputs":[{"name":"","type":"bool","internalType":"bool"}],"stateMutability":"view"},{"type":"function","name":"decommissionFleetCommander","inputs":[{"name":"_fleetCommander","type":"address","internalType":"address"}],"outputs":[],"stateMutability":"nonpayable"},{"type":"function","name":"enlistFleetCommander","inputs":[{"name":"_fleetCommander","type":"address","internalType":"address"}],"outputs":[],"stateMutability":"nonpayable"},{"type":"function","name":"fleetCommandersList","inputs":[{"name":"","type":"uint256","internalType":"uint256"}],"outputs":[{"name":"","type":"address","internalType":"address"}],"stateMutability":"view"},{"type":"function","name":"generateRole","inputs":[{"name":"roleName","type":"uint8","internalType":"enum ContractSpecificRoles"},{"name":"roleTargetContract","type":"address","internalType":"address"}],"outputs":[{"name":"","type":"bytes32","internalType":"bytes32"}],"stateMutability":"pure"},{"type":"function","name":"getActiveFleetCommanders","inputs":[],"outputs":[{"name":"","type":"address[]","internalType":"address[]"}],"stateMutability":"view"},{"type":"event","name":"FleetCommanderDecommissioned","inputs":[{"name":"fleetCommander","type":"address","indexed":true,"internalType":"address"}],"anonymous":false},{"type":"event","name":"FleetCommanderEnlisted","inputs":[{"name":"fleetCommander","type":"address","indexed":true,"internalType":"address"}],"anonymous":false},{"type":"error","name":"CallerIsNotAdmin","inputs":[{"name":"caller","type":"address","internalType":"address"}]},{"type":"error","name":"CallerIsNotAuthorizedToBoard","inputs":[{"name":"caller","type":"address","internalType":"address"}]},{"type":"error","name":"CallerIsNotCommander","inputs":[{"name":"caller","type":"address","internalType":"address"}]},{"type":"error","name":"CallerIsNotContractSpecificRole","inputs":[{"name":"caller","type":"address","internalType":"address"},{"name":"role","type":"bytes32","internalType":"bytes32"}]},{"type":"error","name":"CallerIsNotCurator","inputs":[{"name":"caller","type":"address","internalType":"address"}]},{"type":"error","name":"CallerIsNotGovernor","inputs":[{"name":"caller","type":"address","internalType":"address"}]},{"type":"error","name":"CallerIsNotGuardian","inputs":[{"name":"caller","type":"address","internalType":"address"}]},{"type":"error","name":"CallerIsNotGuardianOrGovernor","inputs":[{"name":"caller","type":"address","internalType":"address"}]},{"type":"error","name":"CallerIsNotKeeper","inputs":[{"name":"caller","type":"address","internalType":"address"}]},{"type":"error","name":"CallerIsNotRaft","inputs":[{"name":"caller","type":"address","internalType":"address"}]},{"type":"error","name":"CallerIsNotRaftOrCommander","inputs":[{"name":"caller","type":"address","internalType":"address"}]},{"type":"error","name":"CallerIsNotSuperKeeper","inputs":[{"name":"caller","type":"address","internalType":"address"}]},{"type":"error","name":"DirectGrantIsDisabled","inputs":[{"name":"caller","type":"address","internalType":"address"}]},{"type":"error","name":"DirectRevokeIsDisabled","inputs":[{"name":"caller","type":"address","internalType":"address"}]},{"type":"error","name":"FleetCommanderAlreadyEnlisted","inputs":[{"name":"fleetCommander","type":"address","internalType":"address"}]},{"type":"error","name":"FleetCommanderNotEnlisted","inputs":[{"name":"fleetCommander","type":"address","internalType":"address"}]},{"type":"error","name":"InvalidAccessManagerAddress","inputs":[{"name":"invalidAddress","type":"address","internalType":"address"}]}],"bytecode":{"object":"0x608060405234801561000f575f5ffd5b5060405161096638038061096683398101604081905261002e91610117565b806001600160a01b03811661005d576040516347bd7c1d60e01b81525f60048201526024015b60405180910390fd5b6040516301ffc9a760e01b815263a237592160e01b60048201526001600160a01b038216906301ffc9a790602401602060405180830381865afa1580156100a6573d5f5f3e3d5ffd5b505050506040513d601f19601f820116820180604052508101906100ca9190610144565b6100f2576040516347bd7c1d60e01b81526001600160a01b0382166004820152602401610054565b5f80546001600160a01b0319166001600160a01b039290921691909117905550610163565b5f60208284031215610127575f5ffd5b81516001600160a01b038116811461013d575f5ffd5b9392505050565b5f60208284031215610154575f5ffd5b8151801515811461013d575f5ffd5b6107f6806101705f395ff3fe608060405234801561000f575f5ffd5b5060043610610060575f3560e01c8063588b97c71461006457806369b3054b146100795780638e3d56931461009f578063ab4ba0f7146100ca578063b912d58c146100df578063e9d00d56146100f2575b5f5ffd5b610077610072366004610648565b610124565b005b61008c610087366004610668565b6102ee565b6040519081526020015b60405180910390f35b6100b26100ad36600461069e565b610321565b6040516001600160a01b039091168152602001610096565b6100d2610349565b60405161009691906106b5565b6100776100ed366004610648565b6103a9565b610114610100366004610648565b60016020525f908152604090205460ff1681565b6040519015158152602001610096565b5f5460408051630ccc574960e41b815290516001600160a01b03909216916391d1485491839163ccc57490916004808201926020929091908290030181865afa158015610173573d5f5f3e3d5ffd5b505050506040513d601f19601f820116820180604052508101906101979190610700565b6040516001600160e01b031960e084901b1681526004810191909152336024820152604401602060405180830381865afa1580156101d7573d5f5f3e3d5ffd5b505050506040513d601f19601f820116820180604052508101906101fb9190610717565b61021f57604051630ea7d7ed60e21b81523360048201526024015b60405180910390fd5b6001600160a01b0381165f9081526001602052604090205460ff16156102635760405163e12abecb60e01b81526001600160a01b0382166004820152602401610216565b6001600160a01b0381165f818152600160208190526040808320805460ff19168317905560028054928301815583527f405787fa12a823e0f2b7631cc41b3ba8828b3321ca811111fa75cd3aa3bb5ace90910180546001600160a01b03191684179055517f8962d9675f6e694d83eac853fc2c4cdac912219afd6e7aaa4f1ba35ff622af2f9190a250565b5f8282604051602001610302929190610736565b6040516020818303038152906040528051906020012090505b92915050565b60028181548110610330575f80fd5b5f918252602090912001546001600160a01b0316905081565b6060600280548060200260200160405190810160405280929190818152602001828054801561039f57602002820191905f5260205f20905b81546001600160a01b03168152600190910190602001808311610381575b5050505050905090565b5f5460408051630ccc574960e41b815290516001600160a01b03909216916391d1485491839163ccc57490916004808201926020929091908290030181865afa1580156103f8573d5f5f3e3d5ffd5b505050506040513d601f19601f8201168201806040525081019061041c9190610700565b6040516001600160e01b031960e084901b1681526004810191909152336024820152604401602060405180830381865afa15801561045c573d5f5f3e3d5ffd5b505050506040513d601f19601f820116820180604052508101906104809190610717565b61049f57604051630ea7d7ed60e21b8152336004820152602401610216565b6001600160a01b0381165f9081526001602052604090205460ff166104e257604051630349cba160e61b81526001600160a01b0382166004820152602401610216565b6001600160a01b0381165f908152600160205260408120805460ff191690555b6002548110156105f657816001600160a01b03166002828154811061052957610529610779565b5f918252602090912001546001600160a01b0316036105ee57600280546105529060019061078d565b8154811061056257610562610779565b5f91825260209091200154600280546001600160a01b03909216918390811061058d5761058d610779565b905f5260205f20015f6101000a8154816001600160a01b0302191690836001600160a01b0316021790555060028054806105c9576105c96107ac565b5f8281526020902081015f1990810180546001600160a01b03191690550190556105f6565b600101610502565b506040516001600160a01b038216907f1e34673d1d14c032c95f75eeaf38870b6123c81b82b1ea97cccc7442d06ef611905f90a250565b80356001600160a01b0381168114610643575f5ffd5b919050565b5f60208284031215610658575f5ffd5b6106618261062d565b9392505050565b5f5f60408385031215610679575f5ffd5b823560038110610687575f5ffd5b91506106956020840161062d565b90509250929050565b5f602082840312156106ae575f5ffd5b5035919050565b602080825282518282018190525f918401906040840190835b818110156106f55783516001600160a01b03168352602093840193909201916001016106ce565b509095945050505050565b5f60208284031215610710575f5ffd5b5051919050565b5f60208284031215610727575f5ffd5b81518015158114610661575f5ffd5b5f6003841061075357634e487b7160e01b5f52602160045260245ffd5b5060f89290921b825260601b6bffffffffffffffffffffffff1916600182015260150190565b634e487b7160e01b5f52603260045260245ffd5b8181038181111561031b57634e487b7160e01b5f52601160045260245ffd5b634e487b7160e01b5f52603160045260245ffdfea264697066735822122037cd90db388ea0ca9d140e6d613d76526782df1eec3a6828bd8128070584337d64736f6c634300081b0033","linkReferences":{}},"methodIdentifiers":{"activeFleetCommanders(address)":"e9d00d56","decommissionFleetCommander(address)":"b912d58c","enlistFleetCommander(address)":"588b97c7","fleetCommandersList(uint256)":"8e3d5693","generateRole(uint8,address)":"69b3054b","getActiveFleetCommanders()":"ab4ba0f7"},"id":159}