{"abi":[{"type":"constructor","inputs":[{"name":"_accessManager","type":"address","internalType":"address"}],"stateMutability":"nonpayable"},{"type":"function","name":"activeFleetCommanders","inputs":[{"name":"_fleetCommander","type":"address","internalType":"address"}],"outputs":[{"name":"","type":"bool","internalType":"bool"}],"stateMutability":"view"},{"type":"function","name":"decommissionFleetCommander","inputs":[{"name":"_fleetCommander","type":"address","internalType":"address"}],"outputs":[],"stateMutability":"nonpayable"},{"type":"function","name":"enlistFleetCommander","inputs":[{"name":"_fleetCommander","type":"address","internalType":"address"}],"outputs":[],"stateMutability":"nonpayable"},{"type":"function","name":"fleetCommandersList","inputs":[{"name":"index","type":"uint256","internalType":"uint256"}],"outputs":[{"name":"","type":"address","internalType":"address"}],"stateMutability":"view"},{"type":"function","name":"generateRole","inputs":[{"name":"roleName","type":"uint8","internalType":"enum ContractSpecificRoles"},{"name":"roleTargetContract","type":"address","internalType":"address"}],"outputs":[{"name":"","type":"bytes32","internalType":"bytes32"}],"stateMutability":"pure"},{"type":"function","name":"getActiveFleetCommanders","inputs":[],"outputs":[{"name":"","type":"address[]","internalType":"address[]"}],"stateMutability":"view"},{"type":"event","name":"FleetCommanderDecommissioned","inputs":[{"name":"fleetCommander","type":"address","indexed":true,"internalType":"address"}],"anonymous":false},{"type":"event","name":"FleetCommanderEnlisted","inputs":[{"name":"fleetCommander","type":"address","indexed":true,"internalType":"address"}],"anonymous":false},{"type":"error","name":"CallerIsNotAdmin","inputs":[{"name":"caller","type":"address","internalType":"address"}]},{"type":"error","name":"CallerIsNotAuthorizedToBoard","inputs":[{"name":"caller","type":"address","internalType":"address"}]},{"type":"error","name":"CallerIsNotCommander","inputs":[{"name":"caller","type":"address","internalType":"address"}]},{"type":"error","name":"CallerIsNotContractSpecificRole","inputs":[{"name":"caller","type":"address","internalType":"address"},{"name":"role","type":"bytes32","internalType":"bytes32"}]},{"type":"error","name":"CallerIsNotCurator","inputs":[{"name":"caller","type":"address","internalType":"address"}]},{"type":"error","name":"CallerIsNotGovernor","inputs":[{"name":"caller","type":"address","internalType":"address"}]},{"type":"error","name":"CallerIsNotGuardian","inputs":[{"name":"caller","type":"address","internalType":"address"}]},{"type":"error","name":"CallerIsNotGuardianOrGovernor","inputs":[{"name":"caller","type":"address","internalType":"address"}]},{"type":"error","name":"CallerIsNotKeeper","inputs":[{"name":"caller","type":"address","internalType":"address"}]},{"type":"error","name":"CallerIsNotRaft","inputs":[{"name":"caller","type":"address","internalType":"address"}]},{"type":"error","name":"CallerIsNotRaftOrCommander","inputs":[{"name":"caller","type":"address","internalType":"address"}]},{"type":"error","name":"CallerIsNotSuperKeeper","inputs":[{"name":"caller","type":"address","internalType":"address"}]},{"type":"error","name":"DirectGrantIsDisabled","inputs":[{"name":"caller","type":"address","internalType":"address"}]},{"type":"error","name":"DirectRevokeIsDisabled","inputs":[{"name":"caller","type":"address","internalType":"address"}]},{"type":"error","name":"FleetCommanderAlreadyEnlisted","inputs":[{"name":"fleetCommander","type":"address","internalType":"address"}]},{"type":"error","name":"FleetCommanderNotEnlisted","inputs":[{"name":"fleetCommander","type":"address","internalType":"address"}]},{"type":"error","name":"InvalidAccessManagerAddress","inputs":[{"name":"invalidAddress","type":"address","internalType":"address"}]}],"bytecode":{"object":"0x608060405234801561000f575f5ffd5b5060405161097b38038061097b83398101604081905261002e91610117565b806001600160a01b03811661005d576040516347bd7c1d60e01b81525f60048201526024015b60405180910390fd5b6040516301ffc9a760e01b815263fe1a291f60e01b60048201526001600160a01b038216906301ffc9a790602401602060405180830381865afa1580156100a6573d5f5f3e3d5ffd5b505050506040513d601f19601f820116820180604052508101906100ca9190610144565b6100f2576040516347bd7c1d60e01b81526001600160a01b0382166004820152602401610054565b5f80546001600160a01b0319166001600160a01b039290921691909117905550610163565b5f60208284031215610127575f5ffd5b81516001600160a01b038116811461013d575f5ffd5b9392505050565b5f60208284031215610154575f5ffd5b8151801515811461013d575f5ffd5b61080b806101705f395ff3fe608060405234801561000f575f5ffd5b5060043610610060575f3560e01c8063588b97c71461006457806369b3054b146100795780638e3d56931461009f578063ab4ba0f7146100ca578063b912d58c146100df578063e9d00d56146100f2575b5f5ffd5b610077610072366004610664565b610115565b005b61008c61008736600461067d565b610279565b6040519081526020015b60405180910390f35b6100b26100ad3660046106b3565b6102ac565b6040516001600160a01b039091168152602001610096565b6100d26102b8565b60405161009691906106ca565b6100776100ed366004610664565b6102c9565b610105610100366004610664565b610428565b6040519015158152602001610096565b5f5460408051630ccc574960e41b815290516001600160a01b03909216916391d1485491839163ccc57490916004808201926020929091908290030181865afa158015610164573d5f5f3e3d5ffd5b505050506040513d601f19601f820116820180604052508101906101889190610715565b6040516001600160e01b031960e084901b1681526004810191909152336024820152604401602060405180830381865afa1580156101c8573d5f5f3e3d5ffd5b505050506040513d601f19601f820116820180604052508101906101ec919061072c565b61021057604051630ea7d7ed60e21b81523360048201526024015b60405180910390fd5b61021b600182610434565b6102435760405163e12abecb60e01b81526001600160a01b0382166004820152602401610207565b6040516001600160a01b038216907f8962d9675f6e694d83eac853fc2c4cdac912219afd6e7aaa4f1ba35ff622af2f905f90a250565b5f828260405160200161028d92919061074b565b6040516020818303038152906040528051906020012090505b92915050565b5f6102a660018361044f565b60606102c4600161045a565b905090565b5f5460408051630ccc574960e41b815290516001600160a01b03909216916391d1485491839163ccc57490916004808201926020929091908290030181865afa158015610318573d5f5f3e3d5ffd5b505050506040513d601f19601f8201168201806040525081019061033c9190610715565b6040516001600160e01b031960e084901b1681526004810191909152336024820152604401602060405180830381865afa15801561037c573d5f5f3e3d5ffd5b505050506040513d601f19601f820116820180604052508101906103a0919061072c565b6103bf57604051630ea7d7ed60e21b8152336004820152602401610207565b6103ca600182610466565b6103f257604051630349cba160e61b81526001600160a01b0382166004820152602401610207565b6040516001600160a01b038216907f1e34673d1d14c032c95f75eeaf38870b6123c81b82b1ea97cccc7442d06ef611905f90a250565b5f6102a660018361047a565b5f610448836001600160a01b03841661049b565b9392505050565b5f61044883836104e7565b60605f6104488361050d565b5f610448836001600160a01b038416610566565b6001600160a01b0381165f9081526001830160205260408120541515610448565b5f8181526001830160205260408120546104e057508154600181810184555f8481526020808220909301849055845484825282860190935260409020919091556102a6565b505f6102a6565b5f825f0182815481106104fc576104fc61078e565b905f5260205f200154905092915050565b6060815f0180548060200260200160405190810160405280929190818152602001828054801561055a57602002820191905f5260205f20905b815481526020019060010190808311610546575b50505050509050919050565b5f8181526001830160205260408120548015610640575f6105886001836107a2565b85549091505f9061059b906001906107a2565b90508082146105fa575f865f0182815481106105b9576105b961078e565b905f5260205f200154905080875f0184815481106105d9576105d961078e565b5f918252602080832090910192909255918252600188019052604090208390555b855486908061060b5761060b6107c1565b600190038181905f5260205f20015f90559055856001015f8681526020019081526020015f205f9055600193505050506102a6565b5f9150506102a6565b80356001600160a01b038116811461065f575f5ffd5b919050565b5f60208284031215610674575f5ffd5b61044882610649565b5f5f6040838503121561068e575f5ffd5b82356003811061069c575f5ffd5b91506106aa60208401610649565b90509250929050565b5f602082840312156106c3575f5ffd5b5035919050565b602080825282518282018190525f918401906040840190835b8181101561070a5783516001600160a01b03168352602093840193909201916001016106e3565b509095945050505050565b5f60208284031215610725575f5ffd5b5051919050565b5f6020828403121561073c575f5ffd5b81518015158114610448575f5ffd5b5f6003841061076857634e487b7160e01b5f52602160045260245ffd5b5060f89290921b825260601b6bffffffffffffffffffffffff1916600182015260150190565b634e487b7160e01b5f52603260045260245ffd5b818103818111156102a657634e487b7160e01b5f52601160045260245ffd5b634e487b7160e01b5f52603160045260245ffdfea2646970667358221220609c46d2f85aef5d036128dbe0360af14301b5ec258ac44716995bfe4781e46764736f6c634300081c0033","linkReferences":{}},"methodIdentifiers":{"activeFleetCommanders(address)":"e9d00d56","decommissionFleetCommander(address)":"b912d58c","enlistFleetCommander(address)":"588b97c7","fleetCommandersList(uint256)":"8e3d5693","generateRole(uint8,address)":"69b3054b","getActiveFleetCommanders()":"ab4ba0f7"},"id":190}