{"abi":[{"type":"constructor","inputs":[{"name":"_accessManager","type":"address","internalType":"address"}],"stateMutability":"nonpayable"},{"type":"function","name":"activeFleetCommanders","inputs":[{"name":"_fleetCommander","type":"address","internalType":"address"}],"outputs":[{"name":"","type":"bool","internalType":"bool"}],"stateMutability":"view"},{"type":"function","name":"decommissionFleetCommander","inputs":[{"name":"_fleetCommander","type":"address","internalType":"address"}],"outputs":[],"stateMutability":"nonpayable"},{"type":"function","name":"enlistFleetCommander","inputs":[{"name":"_fleetCommander","type":"address","internalType":"address"}],"outputs":[],"stateMutability":"nonpayable"},{"type":"function","name":"fleetCommandersList","inputs":[{"name":"index","type":"uint256","internalType":"uint256"}],"outputs":[{"name":"","type":"address","internalType":"address"}],"stateMutability":"view"},{"type":"function","name":"generateRole","inputs":[{"name":"roleName","type":"uint8","internalType":"enum ContractSpecificRoles"},{"name":"roleTargetContract","type":"address","internalType":"address"}],"outputs":[{"name":"","type":"bytes32","internalType":"bytes32"}],"stateMutability":"pure"},{"type":"function","name":"getActiveFleetCommanders","inputs":[],"outputs":[{"name":"","type":"address[]","internalType":"address[]"}],"stateMutability":"view"},{"type":"function","name":"hasAdmiralsQuartersRole","inputs":[{"name":"account","type":"address","internalType":"address"}],"outputs":[{"name":"","type":"bool","internalType":"bool"}],"stateMutability":"view"},{"type":"event","name":"FleetCommanderDecommissioned","inputs":[{"name":"fleetCommander","type":"address","indexed":true,"internalType":"address"}],"anonymous":false},{"type":"event","name":"FleetCommanderEnlisted","inputs":[{"name":"fleetCommander","type":"address","indexed":true,"internalType":"address"}],"anonymous":false},{"type":"error","name":"CallerIsNotAdmin","inputs":[{"name":"caller","type":"address","internalType":"address"}]},{"type":"error","name":"CallerIsNotAuthorizedToBoard","inputs":[{"name":"caller","type":"address","internalType":"address"}]},{"type":"error","name":"CallerIsNotCommander","inputs":[{"name":"caller","type":"address","internalType":"address"}]},{"type":"error","name":"CallerIsNotContractSpecificRole","inputs":[{"name":"caller","type":"address","internalType":"address"},{"name":"role","type":"bytes32","internalType":"bytes32"}]},{"type":"error","name":"CallerIsNotCurator","inputs":[{"name":"caller","type":"address","internalType":"address"}]},{"type":"error","name":"CallerIsNotDecayController","inputs":[{"name":"caller","type":"address","internalType":"address"}]},{"type":"error","name":"CallerIsNotGovernor","inputs":[{"name":"caller","type":"address","internalType":"address"}]},{"type":"error","name":"CallerIsNotGuardian","inputs":[{"name":"caller","type":"address","internalType":"address"}]},{"type":"error","name":"CallerIsNotGuardianOrGovernor","inputs":[{"name":"caller","type":"address","internalType":"address"}]},{"type":"error","name":"CallerIsNotKeeper","inputs":[{"name":"caller","type":"address","internalType":"address"}]},{"type":"error","name":"CallerIsNotRaft","inputs":[{"name":"caller","type":"address","internalType":"address"}]},{"type":"error","name":"CallerIsNotRaftOrCommander","inputs":[{"name":"caller","type":"address","internalType":"address"}]},{"type":"error","name":"CallerIsNotSuperKeeper","inputs":[{"name":"caller","type":"address","internalType":"address"}]},{"type":"error","name":"DirectGrantIsDisabled","inputs":[{"name":"caller","type":"address","internalType":"address"}]},{"type":"error","name":"DirectRevokeIsDisabled","inputs":[{"name":"caller","type":"address","internalType":"address"}]},{"type":"error","name":"FleetCommanderAlreadyEnlisted","inputs":[{"name":"fleetCommander","type":"address","internalType":"address"}]},{"type":"error","name":"FleetCommanderNotEnlisted","inputs":[{"name":"fleetCommander","type":"address","internalType":"address"}]},{"type":"error","name":"InvalidAccessManagerAddress","inputs":[{"name":"invalidAddress","type":"address","internalType":"address"}]}],"bytecode":{"object":"0x608060405234801561000f575f5ffd5b50604051610a89380380610a8983398101604081905261002e91610117565b806001600160a01b03811661005d576040516347bd7c1d60e01b81525f60048201526024015b60405180910390fd5b6040516301ffc9a760e01b81526338c7ccdb60e01b60048201526001600160a01b038216906301ffc9a790602401602060405180830381865afa1580156100a6573d5f5f3e3d5ffd5b505050506040513d601f19601f820116820180604052508101906100ca9190610144565b6100f2576040516347bd7c1d60e01b81526001600160a01b0382166004820152602401610054565b5f80546001600160a01b0319166001600160a01b039290921691909117905550610163565b5f60208284031215610127575f5ffd5b81516001600160a01b038116811461013d575f5ffd5b9392505050565b5f60208284031215610154575f5ffd5b8151801515811461013d575f5ffd5b610919806101705f395ff3fe608060405234801561000f575f5ffd5b506004361061007a575f3560e01c8063ab4ba0f711610058578063ab4ba0f7146100e4578063b912d58c146100f9578063e9d00d561461010c578063ebc136d01461012f575f5ffd5b8063588b97c71461007e57806369b3054b146100935780638e3d5693146100b9575b5f5ffd5b61009161008c366004610772565b610142565b005b6100a66100a136600461078b565b6102a6565b6040519081526020015b60405180910390f35b6100cc6100c73660046107c1565b6102d9565b6040516001600160a01b0390911681526020016100b0565b6100ec6102e5565b6040516100b091906107d8565b610091610107366004610772565b6102f6565b61011f61011a366004610772565b610455565b60405190151581526020016100b0565b61011f61013d366004610772565b610461565b5f5460408051630ccc574960e41b815290516001600160a01b03909216916391d1485491839163ccc57490916004808201926020929091908290030181865afa158015610191573d5f5f3e3d5ffd5b505050506040513d601f19601f820116820180604052508101906101b59190610823565b6040516001600160e01b031960e084901b1681526004810191909152336024820152604401602060405180830381865afa1580156101f5573d5f5f3e3d5ffd5b505050506040513d601f19601f82011682018060405250810190610219919061083a565b61023d57604051630ea7d7ed60e21b81523360048201526024015b60405180910390fd5b610248600182610542565b6102705760405163e12abecb60e01b81526001600160a01b0382166004820152602401610234565b6040516001600160a01b038216907f8962d9675f6e694d83eac853fc2c4cdac912219afd6e7aaa4f1ba35ff622af2f905f90a250565b5f82826040516020016102ba929190610859565b6040516020818303038152906040528051906020012090505b92915050565b5f6102d360018361055d565b60606102f16001610568565b905090565b5f5460408051630ccc574960e41b815290516001600160a01b03909216916391d1485491839163ccc57490916004808201926020929091908290030181865afa158015610345573d5f5f3e3d5ffd5b505050506040513d601f19601f820116820180604052508101906103699190610823565b6040516001600160e01b031960e084901b1681526004810191909152336024820152604401602060405180830381865afa1580156103a9573d5f5f3e3d5ffd5b505050506040513d601f19601f820116820180604052508101906103cd919061083a565b6103ec57604051630ea7d7ed60e21b8152336004820152602401610234565b6103f7600182610574565b61041f57604051630349cba160e61b81526001600160a01b0382166004820152602401610234565b6040516001600160a01b038216907f1e34673d1d14c032c95f75eeaf38870b6123c81b82b1ea97cccc7442d06ef611905f90a250565b5f6102d3600183610588565b5f80546040805163a89f38a360e01b815290516001600160a01b03909216916391d1485491839163a89f38a3916004808201926020929091908290030181865afa1580156104b1573d5f5f3e3d5ffd5b505050506040513d601f19601f820116820180604052508101906104d59190610823565b6040516001600160e01b031960e084901b16815260048101919091526001600160a01b0385166024820152604401602060405180830381865afa15801561051e573d5f5f3e3d5ffd5b505050506040513d601f19601f820116820180604052508101906102d3919061083a565b5f610556836001600160a01b0384166105a9565b9392505050565b5f61055683836105f5565b60605f6105568361061b565b5f610556836001600160a01b038416610674565b6001600160a01b0381165f9081526001830160205260408120541515610556565b5f8181526001830160205260408120546105ee57508154600181810184555f8481526020808220909301849055845484825282860190935260409020919091556102d3565b505f6102d3565b5f825f01828154811061060a5761060a61089c565b905f5260205f200154905092915050565b6060815f0180548060200260200160405190810160405280929190818152602001828054801561066857602002820191905f5260205f20905b815481526020019060010190808311610654575b50505050509050919050565b5f818152600183016020526040812054801561074e575f6106966001836108b0565b85549091505f906106a9906001906108b0565b9050808214610708575f865f0182815481106106c7576106c761089c565b905f5260205f200154905080875f0184815481106106e7576106e761089c565b5f918252602080832090910192909255918252600188019052604090208390555b8554869080610719576107196108cf565b600190038181905f5260205f20015f90559055856001015f8681526020019081526020015f205f9055600193505050506102d3565b5f9150506102d3565b80356001600160a01b038116811461076d575f5ffd5b919050565b5f60208284031215610782575f5ffd5b61055682610757565b5f5f6040838503121561079c575f5ffd5b8235600381106107aa575f5ffd5b91506107b860208401610757565b90509250929050565b5f602082840312156107d1575f5ffd5b5035919050565b602080825282518282018190525f918401906040840190835b818110156108185783516001600160a01b03168352602093840193909201916001016107f1565b509095945050505050565b5f60208284031215610833575f5ffd5b5051919050565b5f6020828403121561084a575f5ffd5b81518015158114610556575f5ffd5b5f6003841061087657634e487b7160e01b5f52602160045260245ffd5b5060f89290921b825260601b6bffffffffffffffffffffffff1916600182015260150190565b634e487b7160e01b5f52603260045260245ffd5b818103818111156102d357634e487b7160e01b5f52601160045260245ffd5b634e487b7160e01b5f52603160045260245ffdfea2646970667358221220c79e86a7be38583b53767115b4290ed636c2e082f3f6399beddb3dfe0c9411da64736f6c634300081c0033","linkReferences":{}},"methodIdentifiers":{"activeFleetCommanders(address)":"e9d00d56","decommissionFleetCommander(address)":"b912d58c","enlistFleetCommander(address)":"588b97c7","fleetCommandersList(uint256)":"8e3d5693","generateRole(uint8,address)":"69b3054b","getActiveFleetCommanders()":"ab4ba0f7","hasAdmiralsQuartersRole(address)":"ebc136d0"},"id":201}