{"abi":[{"type":"constructor","inputs":[{"name":"_accessManager","type":"address","internalType":"address"}],"stateMutability":"nonpayable"},{"type":"function","name":"activeFleetCommanders","inputs":[{"name":"","type":"address","internalType":"address"}],"outputs":[{"name":"","type":"bool","internalType":"bool"}],"stateMutability":"view"},{"type":"function","name":"decommissionFleetCommander","inputs":[{"name":"_fleetCommander","type":"address","internalType":"address"}],"outputs":[],"stateMutability":"nonpayable"},{"type":"function","name":"enlistFleetCommander","inputs":[{"name":"_fleetCommander","type":"address","internalType":"address"}],"outputs":[],"stateMutability":"nonpayable"},{"type":"function","name":"fleetCommandersList","inputs":[{"name":"","type":"uint256","internalType":"uint256"}],"outputs":[{"name":"","type":"address","internalType":"address"}],"stateMutability":"view"},{"type":"function","name":"getActiveFleetCommanders","inputs":[],"outputs":[{"name":"","type":"address[]","internalType":"address[]"}],"stateMutability":"view"},{"type":"event","name":"FleetCommanderDecommissioned","inputs":[{"name":"fleetCommander","type":"address","indexed":true,"internalType":"address"}],"anonymous":false},{"type":"event","name":"FleetCommanderEnlisted","inputs":[{"name":"fleetCommander","type":"address","indexed":true,"internalType":"address"}],"anonymous":false},{"type":"error","name":"CallerIsNotGovernor","inputs":[{"name":"caller","type":"address","internalType":"address"}]},{"type":"error","name":"FleetCommanderAlreadyEnlisted","inputs":[{"name":"fleetCommander","type":"address","internalType":"address"}]},{"type":"error","name":"FleetCommanderNotEnlisted","inputs":[{"name":"fleetCommander","type":"address","internalType":"address"}]},{"type":"error","name":"InvalidAccessManagerAddress","inputs":[{"name":"invalidAddress","type":"address","internalType":"address"}]}],"bytecode":{"object":"0x608060405234801561000f575f80fd5b5060405161088638038061088683398101604081905261002e91610117565b806001600160a01b03811661005d576040516347bd7c1d60e01b81525f60048201526024015b60405180910390fd5b6040516301ffc9a760e01b815263f87138b560e01b60048201526001600160a01b038216906301ffc9a790602401602060405180830381865afa1580156100a6573d5f803e3d5ffd5b505050506040513d601f19601f820116820180604052508101906100ca9190610144565b6100f2576040516347bd7c1d60e01b81526001600160a01b0382166004820152602401610054565b5f80546001600160a01b0319166001600160a01b039290921691909117905550610163565b5f60208284031215610127575f80fd5b81516001600160a01b038116811461013d575f80fd5b9392505050565b5f60208284031215610154575f80fd5b8151801515811461013d575f80fd5b610716806101705f395ff3fe608060405234801561000f575f80fd5b5060043610610055575f3560e01c8063588b97c7146100595780638e3d56931461006e578063ab4ba0f71461009e578063b912d58c146100b3578063e9d00d56146100c6575b5f80fd5b61006c6100673660046105ce565b6100f8565b005b61008161007c3660046105fb565b6102c2565b6040516001600160a01b0390911681526020015b60405180910390f35b6100a66102ea565b6040516100959190610612565b61006c6100c13660046105ce565b61034a565b6100e86100d43660046105ce565b60016020525f908152604090205460ff1681565b6040519015158152602001610095565b5f5460408051630ccc574960e41b815290516001600160a01b03909216916391d1485491839163ccc57490916004808201926020929091908290030181865afa158015610147573d5f803e3d5ffd5b505050506040513d601f19601f8201168201806040525081019061016b919061065d565b6040516001600160e01b031960e084901b1681526004810191909152336024820152604401602060405180830381865afa1580156101ab573d5f803e3d5ffd5b505050506040513d601f19601f820116820180604052508101906101cf9190610674565b6101f357604051630ea7d7ed60e21b81523360048201526024015b60405180910390fd5b6001600160a01b0381165f9081526001602052604090205460ff16156102375760405163e12abecb60e01b81526001600160a01b03821660048201526024016101ea565b6001600160a01b0381165f818152600160208190526040808320805460ff19168317905560028054928301815583527f405787fa12a823e0f2b7631cc41b3ba8828b3321ca811111fa75cd3aa3bb5ace90910180546001600160a01b03191684179055517f8962d9675f6e694d83eac853fc2c4cdac912219afd6e7aaa4f1ba35ff622af2f9190a250565b600281815481106102d1575f80fd5b5f918252602090912001546001600160a01b0316905081565b6060600280548060200260200160405190810160405280929190818152602001828054801561034057602002820191905f5260205f20905b81546001600160a01b03168152600190910190602001808311610322575b5050505050905090565b5f5460408051630ccc574960e41b815290516001600160a01b03909216916391d1485491839163ccc57490916004808201926020929091908290030181865afa158015610399573d5f803e3d5ffd5b505050506040513d601f19601f820116820180604052508101906103bd919061065d565b6040516001600160e01b031960e084901b1681526004810191909152336024820152604401602060405180830381865afa1580156103fd573d5f803e3d5ffd5b505050506040513d601f19601f820116820180604052508101906104219190610674565b61044057604051630ea7d7ed60e21b81523360048201526024016101ea565b6001600160a01b0381165f9081526001602052604090205460ff1661048357604051630349cba160e61b81526001600160a01b03821660048201526024016101ea565b6001600160a01b0381165f908152600160205260408120805460ff191690555b60025481101561059757816001600160a01b0316600282815481106104ca576104ca610693565b5f918252602090912001546001600160a01b03160361058f57600280546104f3906001906106a7565b8154811061050357610503610693565b5f91825260209091200154600280546001600160a01b03909216918390811061052e5761052e610693565b905f5260205f20015f6101000a8154816001600160a01b0302191690836001600160a01b03160217905550600280548061056a5761056a6106cc565b5f8281526020902081015f1990810180546001600160a01b0319169055019055610597565b6001016104a3565b506040516001600160a01b038216907f1e34673d1d14c032c95f75eeaf38870b6123c81b82b1ea97cccc7442d06ef611905f90a250565b5f602082840312156105de575f80fd5b81356001600160a01b03811681146105f4575f80fd5b9392505050565b5f6020828403121561060b575f80fd5b5035919050565b602080825282518282018190525f918401906040840190835b818110156106525783516001600160a01b031683526020938401939092019160010161062b565b509095945050505050565b5f6020828403121561066d575f80fd5b5051919050565b5f60208284031215610684575f80fd5b815180151581146105f4575f80fd5b634e487b7160e01b5f52603260045260245ffd5b818103818111156106c657634e487b7160e01b5f52601160045260245ffd5b92915050565b634e487b7160e01b5f52603160045260245ffdfea2646970667358221220ab1d45473e993c8a2967cc568b993118e4b5a1b6f2d3e36679025acf55ff784f64736f6c634300081a0033","linkReferences":{}},"methodIdentifiers":{"activeFleetCommanders(address)":"e9d00d56","decommissionFleetCommander(address)":"b912d58c","enlistFleetCommander(address)":"588b97c7","fleetCommandersList(uint256)":"8e3d5693","getActiveFleetCommanders()":"ab4ba0f7"},"id":136}