{"abi":[{"type":"constructor","inputs":[{"name":"_comet","type":"address","internalType":"address"},{"name":"_params","type":"tuple","internalType":"struct ArkParams","components":[{"name":"accessManager","type":"address","internalType":"address"},{"name":"configurationManager","type":"address","internalType":"address"},{"name":"token","type":"address","internalType":"address"},{"name":"maxAllocation","type":"uint256","internalType":"uint256"}]}],"stateMutability":"nonpayable"},{"type":"function","name":"DEFAULT_ADMIN_ROLE","inputs":[],"outputs":[{"name":"","type":"bytes32","internalType":"bytes32"}],"stateMutability":"view"},{"type":"function","name":"SECONDS_PER_YEAR","inputs":[],"outputs":[{"name":"","type":"uint256","internalType":"uint256"}],"stateMutability":"view"},{"type":"function","name":"WAD_TO_RAY","inputs":[],"outputs":[{"name":"","type":"uint256","internalType":"uint256"}],"stateMutability":"view"},{"type":"function","name":"board","inputs":[{"name":"amount","type":"uint256","internalType":"uint256"}],"outputs":[],"stateMutability":"nonpayable"},{"type":"function","name":"comet","inputs":[],"outputs":[{"name":"","type":"address","internalType":"contract IComet"}],"stateMutability":"view"},{"type":"function","name":"commander","inputs":[],"outputs":[{"name":"","type":"address","internalType":"address"}],"stateMutability":"view"},{"type":"function","name":"disembark","inputs":[{"name":"amount","type":"uint256","internalType":"uint256"}],"outputs":[],"stateMutability":"nonpayable"},{"type":"function","name":"getRoleAdmin","inputs":[{"name":"role","type":"bytes32","internalType":"bytes32"}],"outputs":[{"name":"","type":"bytes32","internalType":"bytes32"}],"stateMutability":"view"},{"type":"function","name":"grantCommanderRole","inputs":[{"name":"account","type":"address","internalType":"address"}],"outputs":[],"stateMutability":"nonpayable"},{"type":"function","name":"grantRole","inputs":[{"name":"role","type":"bytes32","internalType":"bytes32"},{"name":"account","type":"address","internalType":"address"}],"outputs":[],"stateMutability":"view"},{"type":"function","name":"harvest","inputs":[],"outputs":[],"stateMutability":"nonpayable"},{"type":"function","name":"hasRole","inputs":[{"name":"role","type":"bytes32","internalType":"bytes32"},{"name":"account","type":"address","internalType":"address"}],"outputs":[{"name":"","type":"bool","internalType":"bool"}],"stateMutability":"view"},{"type":"function","name":"maxAllocation","inputs":[],"outputs":[{"name":"","type":"uint256","internalType":"uint256"}],"stateMutability":"view"},{"type":"function","name":"move","inputs":[{"name":"amount","type":"uint256","internalType":"uint256"},{"name":"receiverArk","type":"address","internalType":"address"}],"outputs":[],"stateMutability":"nonpayable"},{"type":"function","name":"poke","inputs":[],"outputs":[],"stateMutability":"nonpayable"},{"type":"function","name":"raft","inputs":[],"outputs":[{"name":"","type":"address","internalType":"address"}],"stateMutability":"view"},{"type":"function","name":"rate","inputs":[],"outputs":[{"name":"supplyRate","type":"uint256","internalType":"uint256"}],"stateMutability":"view"},{"type":"function","name":"renounceRole","inputs":[{"name":"role","type":"bytes32","internalType":"bytes32"},{"name":"callerConfirmation","type":"address","internalType":"address"}],"outputs":[],"stateMutability":"nonpayable"},{"type":"function","name":"revokeCommanderRole","inputs":[{"name":"account","type":"address","internalType":"address"}],"outputs":[],"stateMutability":"nonpayable"},{"type":"function","name":"revokeRole","inputs":[{"name":"role","type":"bytes32","internalType":"bytes32"},{"name":"account","type":"address","internalType":"address"}],"outputs":[],"stateMutability":"view"},{"type":"function","name":"setMaxAllocation","inputs":[{"name":"newMaxAllocation","type":"uint256","internalType":"uint256"}],"outputs":[],"stateMutability":"nonpayable"},{"type":"function","name":"setRaft","inputs":[{"name":"newRaft","type":"address","internalType":"address"}],"outputs":[],"stateMutability":"nonpayable"},{"type":"function","name":"supportsInterface","inputs":[{"name":"interfaceId","type":"bytes4","internalType":"bytes4"}],"outputs":[{"name":"","type":"bool","internalType":"bool"}],"stateMutability":"view"},{"type":"function","name":"token","inputs":[],"outputs":[{"name":"","type":"address","internalType":"contract IERC20"}],"stateMutability":"view"},{"type":"function","name":"totalAssets","inputs":[],"outputs":[{"name":"suppliedAssets","type":"uint256","internalType":"uint256"}],"stateMutability":"view"},{"type":"event","name":"ArkPoked","inputs":[{"name":"totalAssets","type":"uint256","indexed":false,"internalType":"uint256"},{"name":"timestamp","type":"uint256","indexed":false,"internalType":"uint256"}],"anonymous":false},{"type":"event","name":"ArkPokedNoChange","inputs":[],"anonymous":false},{"type":"event","name":"ArkPokedTooSoon","inputs":[],"anonymous":false},{"type":"event","name":"Boarded","inputs":[{"name":"commander","type":"address","indexed":true,"internalType":"address"},{"name":"token","type":"address","indexed":false,"internalType":"address"},{"name":"amount","type":"uint256","indexed":false,"internalType":"uint256"}],"anonymous":false},{"type":"event","name":"DepositCapUpdated","inputs":[{"name":"newCap","type":"uint256","indexed":false,"internalType":"uint256"}],"anonymous":false},{"type":"event","name":"Disembarked","inputs":[{"name":"commander","type":"address","indexed":true,"internalType":"address"},{"name":"token","type":"address","indexed":false,"internalType":"address"},{"name":"amount","type":"uint256","indexed":false,"internalType":"uint256"}],"anonymous":false},{"type":"event","name":"Harvested","inputs":[{"name":"amount","type":"uint256","indexed":false,"internalType":"uint256"}],"anonymous":false},{"type":"event","name":"MaxAllocationUpdated","inputs":[{"name":"newMaxAllocation","type":"uint256","indexed":false,"internalType":"uint256"}],"anonymous":false},{"type":"event","name":"Moved","inputs":[{"name":"from","type":"address","indexed":true,"internalType":"address"},{"name":"to","type":"address","indexed":true,"internalType":"address"},{"name":"token","type":"address","indexed":false,"internalType":"address"},{"name":"amount","type":"uint256","indexed":false,"internalType":"uint256"}],"anonymous":false},{"type":"event","name":"RaftUpdated","inputs":[{"name":"newRaft","type":"address","indexed":false,"internalType":"address"}],"anonymous":false},{"type":"event","name":"RoleAdminChanged","inputs":[{"name":"role","type":"bytes32","indexed":true,"internalType":"bytes32"},{"name":"previousAdminRole","type":"bytes32","indexed":true,"internalType":"bytes32"},{"name":"newAdminRole","type":"bytes32","indexed":true,"internalType":"bytes32"}],"anonymous":false},{"type":"event","name":"RoleGranted","inputs":[{"name":"role","type":"bytes32","indexed":true,"internalType":"bytes32"},{"name":"account","type":"address","indexed":true,"internalType":"address"},{"name":"sender","type":"address","indexed":true,"internalType":"address"}],"anonymous":false},{"type":"event","name":"RoleRevoked","inputs":[{"name":"role","type":"bytes32","indexed":true,"internalType":"bytes32"},{"name":"account","type":"address","indexed":true,"internalType":"address"},{"name":"sender","type":"address","indexed":true,"internalType":"address"}],"anonymous":false},{"type":"error","name":"AccessControlBadConfirmation","inputs":[]},{"type":"error","name":"AccessControlUnauthorizedAccount","inputs":[{"name":"account","type":"address","internalType":"address"},{"name":"neededRole","type":"bytes32","internalType":"bytes32"}]},{"type":"error","name":"AddressEmptyCode","inputs":[{"name":"target","type":"address","internalType":"address"}]},{"type":"error","name":"AddressInsufficientBalance","inputs":[{"name":"account","type":"address","internalType":"address"}]},{"type":"error","name":"CallerIsNotCommander","inputs":[{"name":"caller","type":"address","internalType":"address"}]},{"type":"error","name":"CallerIsNotCommanderOrArk","inputs":[{"name":"caller","type":"address","internalType":"address"}]},{"type":"error","name":"CallerIsNotGovernor","inputs":[{"name":"caller","type":"address","internalType":"address"}]},{"type":"error","name":"CannotAddCommanderToArkWithCommander","inputs":[]},{"type":"error","name":"CannotRemoveCommanderFromArkWithAssets","inputs":[]},{"type":"error","name":"DirectGrantIsDisabled","inputs":[{"name":"caller","type":"address","internalType":"address"}]},{"type":"error","name":"DirectRevokeIsDisabled","inputs":[{"name":"caller","type":"address","internalType":"address"}]},{"type":"error","name":"FailedInnerCall","inputs":[]},{"type":"error","name":"InvalidAccessManagerAddress","inputs":[{"name":"invalidAddress","type":"address","internalType":"address"}]},{"type":"error","name":"InvalidVaultAddress","inputs":[]},{"type":"error","name":"SafeERC20FailedOperation","inputs":[{"name":"token","type":"address","internalType":"address"}]}],"bytecode":{"object":"0x608060405234801561000f575f80fd5b5060405161168a38038061168a83398101604081905261002e916101e7565b80518190806001600160a01b038116610061576040516347bd7c1d60e01b81525f60048201526024015b60405180910390fd5b6040516301ffc9a760e01b815263ce78f4a360e01b60048201526001600160a01b038216906301ffc9a790602401602060405180830381865afa1580156100aa573d5f803e3d5ffd5b505050506040513d601f19601f820116820180604052508101906100ce919061028a565b6100f6576040516347bd7c1d60e01b81526001600160a01b0382166004820152602401610058565b5f80546001600160a01b0319166001600160a01b03928316178155602084810151606086015160035560408051628bec5760e51b815290519195509385169363117d8ae093600480830194939283900301908290875af115801561015c573d5f803e3d5ffd5b505050506040513d601f19601f8201168201806040525081019061018091906102b0565b600280546001600160a01b03199081166001600160a01b039384161790915560409390930151600480548516918316919091179055600680549093169416939093179055506102c99050565b80516001600160a01b03811681146101e2575f80fd5b919050565b5f8082840360a08112156101f9575f80fd5b610202846101cc565b92506080601f1982011215610215575f80fd5b50604051608081016001600160401b038111828210171561024457634e487b7160e01b5f52604160045260245ffd5b604052610253602085016101cc565b8152610261604085016101cc565b6020820152610272606085016101cc565b60408201526080939093015160608401525092909150565b5f6020828403121561029a575f80fd5b815180151581146102a9575f80fd5b9392505050565b5f602082840312156102c0575f80fd5b6102a9826101cc565b6113b4806102d65f395ff3fe608060405234801561000f575f80fd5b506004361061016d575f3560e01c80634641257d116100d95780639b3ba79f11610093578063d547741f1161006e578063d547741f146102f1578063d8a8e03a14610304578063e6a69ab814610317578063fc0c546a14610322575f80fd5b80639b3ba79f146102ce578063a217fddf146102d7578063ba3e9c12146102de575f80fd5b80634641257d146101e55780634dd47eba1461026f57806372f123441461028257806381d3ce261461029557806391d14854146102a85780639403e41f146102bb575f80fd5b806328ed6e3f1161012a57806328ed6e3f1461020a5780632c4e722e1461021d5780632f2ff15d1461022557806336568abe14610238578063372709361461024b57806344ee06051461025e575f80fd5b806301e1d1141461017157806301ffc9a71461018c578063117d8ae0146101af578063163c8381146101da57806318178358146101e5578063248a9ca3146101e7575b5f80fd5b610179610335565b6040519081526020015b60405180910390f35b61019f61019a36600461124c565b6103a4565b6040519015158152602001610183565b6002546101c2906001600160a01b031681565b6040516001600160a01b039091168152602001610183565b610179633b9aca0081565b005b6101796101f5366004611273565b5f908152600160208190526040909120015490565b6101e5610218366004611273565b6103da565b6101796104fe565b6101e56102333660046112a5565b610614565b6101e56102463660046112a5565b61062f565b6005546101c2906001600160a01b031681565b6101e561026c3660046112cf565b50565b6101e561027d366004611273565b610667565b6101e5610290366004611273565b6106f6565b6101e56102a33660046112cf565b610758565b61019f6102b63660046112a5565b6108cd565b6101e56102c93660046112cf565b6108f7565b61017960035481565b6101795f81565b6006546101c2906001600160a01b031681565b6101e56102ff3660046112a5565b610a68565b6101e56103123660046112a5565b610a83565b6101796301e1338081565b6004546101c2906001600160a01b031681565b6006546040516370a0823160e01b81523060048201525f916001600160a01b0316906370a0823190602401602060405180830381865afa15801561037b573d5f803e3d5ffd5b505050506040513d601f19601f8201168201806040525081019061039f91906112e8565b905090565b5f6001600160e01b03198216637965db0b60e01b14806103d457506301ffc9a760e01b6001600160e01b03198316145b92915050565b6103e2610bcf565b61048c575f3360055460405163d25dd10160e01b81526001600160a01b0380841660048301529293505f929091169063d25dd10190602401602060405180830381865afa158015610435573d5f803e3d5ffd5b505050506040513d601f19601f8201168201806040525081019061045991906112ff565b9050806104895760405163033edcb360e01b81526001600160a01b03831660048201526024015b60405180910390fd5b50505b60045433906104a6906001600160a01b0316823085610c42565b6104af82610caf565b600454604080516001600160a01b03928316815260208101859052918316917fcbaa1442ac205415c9d69643e7b60ec73d1de35dbc807c21ec288c70ddc4207b91015b60405180910390a25050565b5f8060065f9054906101000a90046001600160a01b03166001600160a01b0316637eb711316040518163ffffffff1660e01b8152600401602060405180830381865afa158015610550573d5f803e3d5ffd5b505050506040513d601f19601f8201168201806040525081019061057491906112e8565b60065460405163d955759d60e01b8152600481018390529192505f916001600160a01b039091169063d955759d90602401602060405180830381865afa1580156105c0573d5f803e3d5ffd5b505050506040513d601f19601f820116820180604052508101906105e4919061131e565b67ffffffffffffffff169050633b9aca006106036301e1338083611345565b61060d9190611345565b9250505090565b604051630e15200f60e21b8152336004820152602401610480565b6001600160a01b03811633146106585760405163334bd91960e11b815260040160405180910390fd5b6106628282610d93565b505050565b61066f610bcf565b61068e57604051631564c0e160e11b8152336004820152602401610480565b3361069882610e05565b6004546106af906001600160a01b03168284610e44565b600454604080516001600160a01b03928316815260208101859052918316917fd5e872c5ecfb1bb8820b2e6a20e31b883682282da886621541f71e31ec11947e91016104f2565b6106fe610bcf565b61071d57604051631564c0e160e11b8152336004820152602401610480565b60038190556040518181527ff71dfae69e41913414884e69a96ee28ef3f1ce5593bee0fb570cf9404e41a8089060200160405180910390a150565b5f5460408051630ccc574960e41b815290516001600160a01b03909216916391d1485491839163ccc57490916004808201926020929091908290030181865afa1580156107a7573d5f803e3d5ffd5b505050506040513d601f19601f820116820180604052508101906107cb91906112e8565b6040516001600160e01b031960e084901b1681526004810191909152336024820152604401602060405180830381865afa15801561080b573d5f803e3d5ffd5b505050506040513d601f19601f8201168201806040525081019061082f91906112ff565b61084e57604051630ea7d7ed60e21b8152336004820152602401610480565b61085781610e75565b5f54604080516345b817bb60e01b815290516108c9926001600160a01b0316916345b817bb9160048083019260209291908290030181865afa15801561089f573d5f803e3d5ffd5b505050506040513d601f19601f820116820180604052508101906108c391906112e8565b82610d93565b5050565b5f9182526001602090815260408084206001600160a01b0393909316845291905290205460ff1690565b5f5460408051630ccc574960e41b815290516001600160a01b03909216916391d1485491839163ccc57490916004808201926020929091908290030181865afa158015610946573d5f803e3d5ffd5b505050506040513d601f19601f8201168201806040525081019061096a91906112e8565b6040516001600160e01b031960e084901b1681526004810191909152336024820152604401602060405180830381865afa1580156109aa573d5f803e3d5ffd5b505050506040513d601f19601f820116820180604052508101906109ce91906112ff565b6109ed57604051630ea7d7ed60e21b8152336004820152602401610480565b6109f681610f08565b5f54604080516345b817bb60e01b815290516108c9926001600160a01b0316916345b817bb9160048083019260209291908290030181865afa158015610a3e573d5f803e3d5ffd5b505050506040513d601f19601f82011682018060405250810190610a6291906112e8565b8261104a565b604051636344978560e11b8152336004820152602401610480565b610a8b610bcf565b610aaa57604051631564c0e160e11b8152336004820152602401610480565b610ab382610e05565b6004805460405163095ea7b360e01b81526001600160a01b03848116938201939093526024810185905291169063095ea7b3906044016020604051808303815f875af1158015610b05573d5f803e3d5ffd5b505050506040513d601f19601f82011682018060405250810190610b2991906112ff565b506040516328ed6e3f60e01b8152600481018390526001600160a01b038216906328ed6e3f906024015f604051808303815f87803b158015610b69575f80fd5b505af1158015610b7b573d5f803e3d5ffd5b5050600454604080516001600160a01b0392831681526020810187905291851693503092507f9f784fc02a186f1c98b2d9f15fda084da27cdd291a3785d978f91911d880516b910160405180910390a35050565b5f8054604080516345b817bb60e01b8152905161039f926001600160a01b0316916345b817bb9160048083019260209291908290030181865afa158015610c18573d5f803e3d5ffd5b505050506040513d601f19601f82011682018060405250810190610c3c91906112e8565b336108cd565b6040516001600160a01b038481166024830152838116604483015260648201839052610ca99186918216906323b872dd906084015b604051602081830303815290604052915060e01b6020820180516001600160e01b0383818316178352505050506110b9565b50505050565b6004805460065460405163095ea7b360e01b81526001600160a01b039182169381019390935260248301849052169063095ea7b3906044016020604051808303815f875af1158015610d03573d5f803e3d5ffd5b505050506040513d601f19601f82011682018060405250810190610d2791906112ff565b5060065460048054604051631e573fb760e31b81526001600160a01b0391821692810192909252602482018490529091169063f2b9fdb8906044015b5f604051808303815f87803b158015610d7a575f80fd5b505af1158015610d8c573d5f803e3d5ffd5b5050505050565b5f610d9e83836108cd565b15610dfe575f8381526001602090815260408083206001600160a01b0386168085529252808320805460ff1916905551339286917ff6391f5c32d9c69d2a47ea670b442974b53935d1edc7fd64eb21e047a839171b9190a45060016103d4565b505f6103d4565b6006546004805460405163f3fef3a360e01b81526001600160a01b0391821692810192909252602482018490529091169063f3fef3a390604401610d63565b6040516001600160a01b0383811660248301526044820183905261066291859182169063a9059cbb90606401610c77565b5f306001600160a01b03166301e1d1146040518163ffffffff1660e01b8152600401602060405180830381865afa158015610eb2573d5f803e3d5ffd5b505050506040513d601f19601f82011682018060405250810190610ed691906112e8565b1115610ef5576040516373a075f360e01b815260040160405180910390fd5b50600580546001600160a01b0319169055565b5f5460408051630ccc574960e41b815290516001600160a01b03909216916391d1485491839163ccc57490916004808201926020929091908290030181865afa158015610f57573d5f803e3d5ffd5b505050506040513d601f19601f82011682018060405250810190610f7b91906112e8565b6040516001600160e01b031960e084901b1681526004810191909152336024820152604401602060405180830381865afa158015610fbb573d5f803e3d5ffd5b505050506040513d601f19601f82011682018060405250810190610fdf91906112ff565b610ffe57604051630ea7d7ed60e21b8152336004820152602401610480565b6005546001600160a01b0316156110285760405163d32184ed60e01b815260040160405180910390fd5b600580546001600160a01b0319166001600160a01b0392909216919091179055565b5f61105583836108cd565b610dfe575f8381526001602081815260408084206001600160a01b0387168086529252808420805460ff19169093179092559051339286917f2f8788117e7eff1d82e926ec794901d17c78024a50270940304540a733656f0d9190a45060016103d4565b5f6110cd6001600160a01b0384168361111a565b905080515f141580156110f15750808060200190518101906110ef91906112ff565b155b1561066257604051635274afe760e01b81526001600160a01b0384166004820152602401610480565b606061112783835f61112e565b9392505050565b6060814710156111535760405163cd78605960e01b8152306004820152602401610480565b5f80856001600160a01b0316848660405161116e9190611368565b5f6040518083038185875af1925050503d805f81146111a8576040519150601f19603f3d011682016040523d82523d5f602084013e6111ad565b606091505b50915091506111bd8683836111c7565b9695505050505050565b6060826111dc576111d782611223565b611127565b81511580156111f357506001600160a01b0384163b155b1561121c57604051639996b31560e01b81526001600160a01b0385166004820152602401610480565b5080611127565b8051156112335780518082602001fd5b604051630a12f52160e11b815260040160405180910390fd5b5f6020828403121561125c575f80fd5b81356001600160e01b031981168114611127575f80fd5b5f60208284031215611283575f80fd5b5035919050565b80356001600160a01b03811681146112a0575f80fd5b919050565b5f80604083850312156112b6575f80fd5b823591506112c66020840161128a565b90509250929050565b5f602082840312156112df575f80fd5b6111278261128a565b5f602082840312156112f8575f80fd5b5051919050565b5f6020828403121561130f575f80fd5b81518015158114611127575f80fd5b5f6020828403121561132e575f80fd5b815167ffffffffffffffff81168114611127575f80fd5b80820281158282048414176103d457634e487b7160e01b5f52601160045260245ffd5b5f82518060208501845e5f92019182525091905056fea26469706673582212204120101d1cc08c123341212e9baf481ce73c930546c0419c092d4b2d4038562d64736f6c634300081a0033","linkReferences":{}},"methodIdentifiers":{"DEFAULT_ADMIN_ROLE()":"a217fddf","SECONDS_PER_YEAR()":"e6a69ab8","WAD_TO_RAY()":"163c8381","board(uint256)":"28ed6e3f","comet()":"ba3e9c12","commander()":"37270936","disembark(uint256)":"4dd47eba","getRoleAdmin(bytes32)":"248a9ca3","grantCommanderRole(address)":"9403e41f","grantRole(bytes32,address)":"2f2ff15d","harvest()":"4641257d","hasRole(bytes32,address)":"91d14854","maxAllocation()":"9b3ba79f","move(uint256,address)":"d8a8e03a","poke()":"18178358","raft()":"117d8ae0","rate()":"2c4e722e","renounceRole(bytes32,address)":"36568abe","revokeCommanderRole(address)":"81d3ce26","revokeRole(bytes32,address)":"d547741f","setMaxAllocation(uint256)":"72f12344","setRaft(address)":"44ee0605","supportsInterface(bytes4)":"01ffc9a7","token()":"fc0c546a","totalAssets()":"01e1d114"},"id":67}