{"abi":[{"type":"constructor","inputs":[{"name":"_market","type":"address","internalType":"address"},{"name":"_oracle","type":"address","internalType":"address"},{"name":"_router","type":"address","internalType":"address"},{"name":"_params","type":"tuple","internalType":"struct ArkParams","components":[{"name":"name","type":"string","internalType":"string"},{"name":"details","type":"string","internalType":"string"},{"name":"accessManager","type":"address","internalType":"address"},{"name":"configurationManager","type":"address","internalType":"address"},{"name":"asset","type":"address","internalType":"address"},{"name":"depositCap","type":"uint256","internalType":"uint256"},{"name":"maxRebalanceOutflow","type":"uint256","internalType":"uint256"},{"name":"maxRebalanceInflow","type":"uint256","internalType":"uint256"},{"name":"requiresKeeperData","type":"bool","internalType":"bool"},{"name":"maxDepositPercentageOfTVL","type":"uint256","internalType":"Percentage"}]}],"stateMutability":"nonpayable"},{"type":"function","name":"MAX_SLIPPAGE_PERCENTAGE","inputs":[],"outputs":[{"name":"","type":"uint256","internalType":"Percentage"}],"stateMutability":"view"},{"type":"function","name":"MIN_ORACLE_DURATION","inputs":[],"outputs":[{"name":"","type":"uint256","internalType":"uint256"}],"stateMutability":"view"},{"type":"function","name":"PT","inputs":[],"outputs":[{"name":"","type":"address","internalType":"contract IPPrincipalToken"}],"stateMutability":"view"},{"type":"function","name":"SY","inputs":[],"outputs":[{"name":"","type":"address","internalType":"contract IStandardizedYield"}],"stateMutability":"view"},{"type":"function","name":"YT","inputs":[],"outputs":[{"name":"","type":"address","internalType":"contract IPYieldToken"}],"stateMutability":"view"},{"type":"function","name":"asset","inputs":[],"outputs":[{"name":"","type":"address","internalType":"contract IERC20"}],"stateMutability":"view"},{"type":"function","name":"board","inputs":[{"name":"amount","type":"uint256","internalType":"uint256"},{"name":"boardData","type":"bytes","internalType":"bytes"}],"outputs":[],"stateMutability":"nonpayable"},{"type":"function","name":"commander","inputs":[],"outputs":[{"name":"","type":"address","internalType":"address"}],"stateMutability":"view"},{"type":"function","name":"config","inputs":[],"outputs":[{"name":"commander","type":"address","internalType":"address"},{"name":"raft","type":"address","internalType":"address"},{"name":"asset","type":"address","internalType":"contract IERC20"},{"name":"depositCap","type":"uint256","internalType":"uint256"},{"name":"maxRebalanceOutflow","type":"uint256","internalType":"uint256"},{"name":"maxRebalanceInflow","type":"uint256","internalType":"uint256"},{"name":"name","type":"string","internalType":"string"},{"name":"details","type":"string","internalType":"string"},{"name":"requiresKeeperData","type":"bool","internalType":"bool"},{"name":"maxDepositPercentageOfTVL","type":"uint256","internalType":"Percentage"}],"stateMutability":"view"},{"type":"function","name":"configurationManager","inputs":[],"outputs":[{"name":"","type":"address","internalType":"contract IConfigurationManager"}],"stateMutability":"view"},{"type":"function","name":"depositCap","inputs":[],"outputs":[{"name":"","type":"uint256","internalType":"uint256"}],"stateMutability":"view"},{"type":"function","name":"disembark","inputs":[{"name":"amount","type":"uint256","internalType":"uint256"},{"name":"disembarkData","type":"bytes","internalType":"bytes"}],"outputs":[],"stateMutability":"nonpayable"},{"type":"function","name":"emptySwap","inputs":[],"outputs":[{"name":"swapType","type":"uint8","internalType":"enum SwapType"},{"name":"extRouter","type":"address","internalType":"address"},{"name":"extCalldata","type":"bytes","internalType":"bytes"},{"name":"needScale","type":"bool","internalType":"bool"}],"stateMutability":"view"},{"type":"function","name":"fleetCommanderRewardsManagerFactory","inputs":[],"outputs":[{"name":"","type":"address","internalType":"address"}],"stateMutability":"view"},{"type":"function","name":"generateRole","inputs":[{"name":"roleName","type":"uint8","internalType":"enum ContractSpecificRoles"},{"name":"roleTargetContract","type":"address","internalType":"address"}],"outputs":[{"name":"","type":"bytes32","internalType":"bytes32"}],"stateMutability":"pure"},{"type":"function","name":"getConfig","inputs":[],"outputs":[{"name":"","type":"tuple","internalType":"struct ArkConfig","components":[{"name":"commander","type":"address","internalType":"address"},{"name":"raft","type":"address","internalType":"address"},{"name":"asset","type":"address","internalType":"contract IERC20"},{"name":"depositCap","type":"uint256","internalType":"uint256"},{"name":"maxRebalanceOutflow","type":"uint256","internalType":"uint256"},{"name":"maxRebalanceInflow","type":"uint256","internalType":"uint256"},{"name":"name","type":"string","internalType":"string"},{"name":"details","type":"string","internalType":"string"},{"name":"requiresKeeperData","type":"bool","internalType":"bool"},{"name":"maxDepositPercentageOfTVL","type":"uint256","internalType":"Percentage"}]}],"stateMutability":"view"},{"type":"function","name":"harborCommand","inputs":[],"outputs":[{"name":"","type":"address","internalType":"address"}],"stateMutability":"view"},{"type":"function","name":"harvest","inputs":[{"name":"additionalData","type":"bytes","internalType":"bytes"}],"outputs":[{"name":"rewardTokens","type":"address[]","internalType":"address[]"},{"name":"rewardAmounts","type":"uint256[]","internalType":"uint256[]"}],"stateMutability":"nonpayable"},{"type":"function","name":"hasAdmiralsQuartersRole","inputs":[{"name":"account","type":"address","internalType":"address"}],"outputs":[{"name":"","type":"bool","internalType":"bool"}],"stateMutability":"view"},{"type":"function","name":"market","inputs":[],"outputs":[{"name":"","type":"address","internalType":"address"}],"stateMutability":"view"},{"type":"function","name":"marketExpiry","inputs":[],"outputs":[{"name":"","type":"uint256","internalType":"uint256"}],"stateMutability":"view"},{"type":"function","name":"maxDepositPercentageOfTVL","inputs":[],"outputs":[{"name":"","type":"uint256","internalType":"Percentage"}],"stateMutability":"view"},{"type":"function","name":"maxRebalanceInflow","inputs":[],"outputs":[{"name":"","type":"uint256","internalType":"uint256"}],"stateMutability":"view"},{"type":"function","name":"maxRebalanceOutflow","inputs":[],"outputs":[{"name":"","type":"uint256","internalType":"uint256"}],"stateMutability":"view"},{"type":"function","name":"move","inputs":[{"name":"amount","type":"uint256","internalType":"uint256"},{"name":"receiverArk","type":"address","internalType":"address"},{"name":"boardData","type":"bytes","internalType":"bytes"},{"name":"disembarkData","type":"bytes","internalType":"bytes"}],"outputs":[],"stateMutability":"nonpayable"},{"type":"function","name":"name","inputs":[],"outputs":[{"name":"","type":"string","internalType":"string"}],"stateMutability":"view"},{"type":"function","name":"nextMarket","inputs":[],"outputs":[{"name":"","type":"address","internalType":"address"}],"stateMutability":"view"},{"type":"function","name":"oracle","inputs":[],"outputs":[{"name":"","type":"address","internalType":"address"}],"stateMutability":"view"},{"type":"function","name":"oracleDuration","inputs":[],"outputs":[{"name":"","type":"uint32","internalType":"uint32"}],"stateMutability":"view"},{"type":"function","name":"raft","inputs":[],"outputs":[{"name":"","type":"address","internalType":"address"}],"stateMutability":"view"},{"type":"function","name":"registerFleetCommander","inputs":[],"outputs":[],"stateMutability":"nonpayable"},{"type":"function","name":"requiresKeeperData","inputs":[],"outputs":[{"name":"","type":"bool","internalType":"bool"}],"stateMutability":"view"},{"type":"function","name":"router","inputs":[],"outputs":[{"name":"","type":"address","internalType":"address"}],"stateMutability":"view"},{"type":"function","name":"routerParams","inputs":[],"outputs":[{"name":"guessMin","type":"uint256","internalType":"uint256"},{"name":"guessMax","type":"uint256","internalType":"uint256"},{"name":"guessOffchain","type":"uint256","internalType":"uint256"},{"name":"maxIteration","type":"uint256","internalType":"uint256"},{"name":"eps","type":"uint256","internalType":"uint256"}],"stateMutability":"view"},{"type":"function","name":"setDepositCap","inputs":[{"name":"newDepositCap","type":"uint256","internalType":"uint256"}],"outputs":[],"stateMutability":"nonpayable"},{"type":"function","name":"setMaxDepositPercentageOfTVL","inputs":[{"name":"newMaxDepositPercentageOfTVL","type":"uint256","internalType":"Percentage"}],"outputs":[],"stateMutability":"nonpayable"},{"type":"function","name":"setMaxRebalanceInflow","inputs":[{"name":"newMaxRebalanceInflow","type":"uint256","internalType":"uint256"}],"outputs":[],"stateMutability":"nonpayable"},{"type":"function","name":"setMaxRebalanceOutflow","inputs":[{"name":"newMaxRebalanceOutflow","type":"uint256","internalType":"uint256"}],"outputs":[],"stateMutability":"nonpayable"},{"type":"function","name":"setNextMarket","inputs":[{"name":"_nextMarket","type":"address","internalType":"address"}],"outputs":[],"stateMutability":"nonpayable"},{"type":"function","name":"setOracleDuration","inputs":[{"name":"_oracleDuration","type":"uint32","internalType":"uint32"}],"outputs":[],"stateMutability":"nonpayable"},{"type":"function","name":"setSlippagePercentage","inputs":[{"name":"_slippagePercentage","type":"uint256","internalType":"Percentage"}],"outputs":[],"stateMutability":"nonpayable"},{"type":"function","name":"slippagePercentage","inputs":[],"outputs":[{"name":"","type":"uint256","internalType":"Percentage"}],"stateMutability":"view"},{"type":"function","name":"sweep","inputs":[{"name":"tokens","type":"address[]","internalType":"address[]"}],"outputs":[{"name":"sweptTokens","type":"address[]","internalType":"address[]"},{"name":"sweptAmounts","type":"uint256[]","internalType":"uint256[]"}],"stateMutability":"nonpayable"},{"type":"function","name":"tipJar","inputs":[],"outputs":[{"name":"","type":"address","internalType":"address"}],"stateMutability":"view"},{"type":"function","name":"totalAssets","inputs":[],"outputs":[{"name":"","type":"uint256","internalType":"uint256"}],"stateMutability":"view"},{"type":"function","name":"treasury","inputs":[],"outputs":[{"name":"","type":"address","internalType":"address"}],"stateMutability":"view"},{"type":"function","name":"unregisterFleetCommander","inputs":[],"outputs":[],"stateMutability":"nonpayable"},{"type":"event","name":"ArkHarvested","inputs":[{"name":"rewardTokens","type":"address[]","indexed":true,"internalType":"address[]"},{"name":"rewardAmounts","type":"uint256[]","indexed":true,"internalType":"uint256[]"}],"anonymous":false},{"type":"event","name":"ArkPoked","inputs":[{"name":"currentPrice","type":"uint256","indexed":false,"internalType":"uint256"},{"name":"timestamp","type":"uint256","indexed":false,"internalType":"uint256"}],"anonymous":false},{"type":"event","name":"ArkSwept","inputs":[{"name":"sweptTokens","type":"address[]","indexed":true,"internalType":"address[]"},{"name":"sweptAmounts","type":"uint256[]","indexed":true,"internalType":"uint256[]"}],"anonymous":false},{"type":"event","name":"Boarded","inputs":[{"name":"commander","type":"address","indexed":true,"internalType":"address"},{"name":"token","type":"address","indexed":false,"internalType":"address"},{"name":"amount","type":"uint256","indexed":false,"internalType":"uint256"}],"anonymous":false},{"type":"event","name":"DepositCapUpdated","inputs":[{"name":"newCap","type":"uint256","indexed":false,"internalType":"uint256"}],"anonymous":false},{"type":"event","name":"Disembarked","inputs":[{"name":"commander","type":"address","indexed":true,"internalType":"address"},{"name":"token","type":"address","indexed":false,"internalType":"address"},{"name":"amount","type":"uint256","indexed":false,"internalType":"uint256"}],"anonymous":false},{"type":"event","name":"FleetCommanderRegistered","inputs":[{"name":"commander","type":"address","indexed":false,"internalType":"address"}],"anonymous":false},{"type":"event","name":"FleetCommanderUnregistered","inputs":[{"name":"commander","type":"address","indexed":false,"internalType":"address"}],"anonymous":false},{"type":"event","name":"MarketRolledOver","inputs":[{"name":"newMarket","type":"address","indexed":true,"internalType":"address"}],"anonymous":false},{"type":"event","name":"MaxDepositPercentageOfTVLUpdated","inputs":[{"name":"newMaxDepositPercentageOfTVL","type":"uint256","indexed":false,"internalType":"Percentage"}],"anonymous":false},{"type":"event","name":"MaxRebalanceInflowUpdated","inputs":[{"name":"newMaxInflow","type":"uint256","indexed":false,"internalType":"uint256"}],"anonymous":false},{"type":"event","name":"MaxRebalanceOutflowUpdated","inputs":[{"name":"newMaxOutflow","type":"uint256","indexed":false,"internalType":"uint256"}],"anonymous":false},{"type":"event","name":"Moved","inputs":[{"name":"from","type":"address","indexed":true,"internalType":"address"},{"name":"to","type":"address","indexed":true,"internalType":"address"},{"name":"token","type":"address","indexed":false,"internalType":"address"},{"name":"amount","type":"uint256","indexed":false,"internalType":"uint256"}],"anonymous":false},{"type":"event","name":"OracleDurationUpdated","inputs":[{"name":"newOracleDuration","type":"uint32","indexed":false,"internalType":"uint32"}],"anonymous":false},{"type":"event","name":"RaftUpdated","inputs":[{"name":"newRaft","type":"address","indexed":false,"internalType":"address"}],"anonymous":false},{"type":"event","name":"SlippageUpdated","inputs":[{"name":"newSlippagePercentage","type":"uint256","indexed":false,"internalType":"Percentage"}],"anonymous":false},{"type":"error","name":"CallerIsNotAdmin","inputs":[{"name":"caller","type":"address","internalType":"address"}]},{"type":"error","name":"CallerIsNotAuthorizedToBoard","inputs":[{"name":"caller","type":"address","internalType":"address"}]},{"type":"error","name":"CallerIsNotCommander","inputs":[{"name":"caller","type":"address","internalType":"address"}]},{"type":"error","name":"CallerIsNotContractSpecificRole","inputs":[{"name":"caller","type":"address","internalType":"address"},{"name":"role","type":"bytes32","internalType":"bytes32"}]},{"type":"error","name":"CallerIsNotCurator","inputs":[{"name":"caller","type":"address","internalType":"address"}]},{"type":"error","name":"CallerIsNotDecayController","inputs":[{"name":"caller","type":"address","internalType":"address"}]},{"type":"error","name":"CallerIsNotGovernor","inputs":[{"name":"caller","type":"address","internalType":"address"}]},{"type":"error","name":"CallerIsNotGuardian","inputs":[{"name":"caller","type":"address","internalType":"address"}]},{"type":"error","name":"CallerIsNotGuardianOrGovernor","inputs":[{"name":"caller","type":"address","internalType":"address"}]},{"type":"error","name":"CallerIsNotKeeper","inputs":[{"name":"caller","type":"address","internalType":"address"}]},{"type":"error","name":"CallerIsNotRaft","inputs":[{"name":"caller","type":"address","internalType":"address"}]},{"type":"error","name":"CallerIsNotRaftOrCommander","inputs":[{"name":"caller","type":"address","internalType":"address"}]},{"type":"error","name":"CallerIsNotSuperKeeper","inputs":[{"name":"caller","type":"address","internalType":"address"}]},{"type":"error","name":"CannotAddCommanderToArkWithCommander","inputs":[]},{"type":"error","name":"CannotDeployArkWithEmptyName","inputs":[]},{"type":"error","name":"CannotDeployArkWithoutConfigurationManager","inputs":[]},{"type":"error","name":"CannotDeployArkWithoutRaft","inputs":[]},{"type":"error","name":"CannotDeployArkWithoutToken","inputs":[]},{"type":"error","name":"CannotRemoveCommanderFromArkWithAssets","inputs":[]},{"type":"error","name":"CannotUseKeeperDataWhenNotRequired","inputs":[]},{"type":"error","name":"ConfigurationManagerZeroAddress","inputs":[]},{"type":"error","name":"DirectGrantIsDisabled","inputs":[{"name":"caller","type":"address","internalType":"address"}]},{"type":"error","name":"DirectRevokeIsDisabled","inputs":[{"name":"caller","type":"address","internalType":"address"}]},{"type":"error","name":"ERC4626AssetMismatch","inputs":[]},{"type":"error","name":"InvalidAccessManagerAddress","inputs":[{"name":"invalidAddress","type":"address","internalType":"address"}]},{"type":"error","name":"InvalidAssetForSY","inputs":[]},{"type":"error","name":"InvalidBoardData","inputs":[]},{"type":"error","name":"InvalidDisembarkData","inputs":[]},{"type":"error","name":"InvalidNextMarket","inputs":[]},{"type":"error","name":"InvalidVaultAddress","inputs":[]},{"type":"error","name":"KeeperDataRequired","inputs":[]},{"type":"error","name":"MarketExpired","inputs":[]},{"type":"error","name":"OracleDurationTooLow","inputs":[{"name":"providedDuration","type":"uint32","internalType":"uint32"},{"name":"minimumDuration","type":"uint256","internalType":"uint256"}]},{"type":"error","name":"OracleNotReady","inputs":[]},{"type":"error","name":"ReentrancyGuardReentrantCall","inputs":[]},{"type":"error","name":"SafeERC20FailedOperation","inputs":[{"name":"token","type":"address","internalType":"address"}]},{"type":"error","name":"SlippagePercentageTooHigh","inputs":[{"name":"providedSlippage","type":"uint256","internalType":"Percentage"},{"name":"maxSlippage","type":"uint256","internalType":"Percentage"}]}],"bytecode":{"object":"0x60e060405234801561000f575f5ffd5b50604051614a9d380380614a9d83398101604081905261002e91610957565b83838383808080606001518160400151805f6001600160a01b0316816001600160a01b031603610078576040516347bd7c1d60e01b81525f60048201526024015b60405180910390fd5b6040516301ffc9a760e01b81526338c7ccdb60e01b60048201526001600160a01b038216906301ffc9a790602401602060405180830381865afa1580156100c1573d5f5f3e3d5ffd5b505050506040513d601f19601f820116820180604052508101906100e59190610a97565b61010d576040516347bd7c1d60e01b81526001600160a01b038216600482015260240161006f565b5f80546001600160a01b0319166001600160a01b03928316179055821690506101495760405163f1634df960e01b815260040160405180910390fd5b6001600160a01b0390811660805260608201511661017a5760405163b53c493160e01b815260040160405180910390fd5b60808101516001600160a01b03166101a8576040516001620a810f60e11b0319815260040160405180910390fd5b8051515f036101ca5760405163268c072960e01b815260040160405180910390fd5b5f6101d361039b565b6001600160a01b0316036101fa57604051633a4f9cdb60e21b815260040160405180910390fd5b6040805161014081019091525f81526020810161021561039b565b6001600160a01b039081168252608080850151821660208085019190915260a08087015160408087019190915260c08089015160608089019190915260e0808b0151878a01528a51858a01528a860151838a0152610100808c01511515918a01919091526101208b01519801979097528751600180549188166001600160a01b031992831617815594890151600280549189169183169190911790559188015160038054919097169216919091179094559385015160045590840151600555918301516006558201516007906102eb9082610b34565b5060e082015160078201906103009082610b34565b5061010082015160088201805460ff19169115159190911790556101209091015160099091015550506001600160a01b0382811660a052831660c052600c805463ffffffff60a01b191660e160a31b17905561035f60056103e8610403565b60105561037d5f1960135561010060155566038d7ea4c68000601655565b61038684610439565b61038e6105fa565b5050505050505050610da9565b5f6080516001600160a01b031663117d8ae06040518163ffffffff1660e01b8152600401602060405180830381865afa1580156103da573d5f5f3e3d5ffd5b505050506040513d601f19601f820116820180604052508101906103fe9190610bee565b905090565b5f816104116012600a610d07565b61041b9085610d12565b610426906064610d12565b6104309190610d29565b90505b92915050565b600b80546001600160a01b0319166001600160a01b03831690811790915560408051630b2339af60e21b81529051632c8ce6bc916004808201926060929091908290030181865afa158015610490573d5f5f3e3d5ffd5b505050506040513d601f19601f820116820180604052508101906104b49190610d48565b600f80546001600160a01b03199081166001600160a01b0393841617909155600e8054821693831693909317909255600d8054909216928116928317909155600354604051637d2d278360e11b81529116600482015263fa5a4f0690602401602060405180830381865afa15801561052e573d5f5f3e3d5ffd5b505050506040513d601f19601f820116820180604052508101906105529190610a97565b15806105c95750600d54600354604051633c21b3eb60e11b81526001600160a01b03918216600482015291169063784367d690602401602060405180830381865afa1580156105a3573d5f5f3e3d5ffd5b505050506040513d601f19601f820116820180604052508101906105c79190610a97565b155b156105e757604051631bda904d60e31b815260040160405180910390fd5b6105ef610673565b6105f76105fa565b50565b600b5f9054906101000a90046001600160a01b03166001600160a01b031663e184c9be6040518163ffffffff1660e01b8152600401602060405180830381865afa15801561064a573d5f5f3e3d5ffd5b505050506040513d601f19601f8201168201806040525081019061066e9190610d92565b601155565b600d54600354610691916001600160a01b0391821691165f196106e5565b60a0516003546106ae916001600160a01b03909116905f196106e5565b60a051600b546106cb916001600160a01b03909116905f196106e5565b600b546106e3906001600160a01b0316805f196106e5565b565b604080516001600160a01b038416602482015260448082018490528251808303909101815260649091019091526020810180516001600160e01b0390811663095ea7b360e01b1790915261073d90859083906107a916565b6107a357604080516001600160a01b03851660248201525f6044808301919091528251808303909101815260649091019091526020810180516001600160e01b0390811663095ea7b360e01b179091526107999186916107f216565b6107a384826107f2565b50505050565b5f5f5f5f60205f8651602088015f8a5af192503d91505f5190508280156107e8575081156107da57806001146107e8565b5f866001600160a01b03163b115b9695505050505050565b5f5f60205f8451602086015f885af180610811576040513d5f823e3d81fd5b50505f513d91508115610828578060011415610835565b6001600160a01b0384163b155b156107a357604051635274afe760e01b81526001600160a01b038516600482015260240161006f565b6001600160a01b03811681146105f7575f5ffd5b805161087d8161085e565b919050565b634e487b7160e01b5f52604160045260245ffd5b60405161014081016001600160401b03811182821017156108b9576108b9610882565b60405290565b5f82601f8301126108ce575f5ffd5b81516001600160401b038111156108e7576108e7610882565b604051601f8201601f19908116603f011681016001600160401b038111828210171561091557610915610882565b60405281815283820160200185101561092c575f5ffd5b8160208501602083015e5f918101602001919091529392505050565b8051801515811461087d575f5ffd5b5f5f5f5f6080858703121561096a575f5ffd5b84516109758161085e565b60208601519094506109868161085e565b60408601519093506109978161085e565b60608601519092506001600160401b038111156109b2575f5ffd5b850161014081880312156109c4575f5ffd5b6109cc610896565b81516001600160401b038111156109e1575f5ffd5b6109ed898285016108bf565b82525060208201516001600160401b03811115610a08575f5ffd5b610a14898285016108bf565b602083015250610a2660408301610872565b6040820152610a3760608301610872565b6060820152610a4860808301610872565b608082015260a0828101519082015260c0808301519082015260e08083015190820152610a786101008301610948565b6101008201526101209182015191810191909152939692955090935050565b5f60208284031215610aa7575f5ffd5b61043082610948565b600181811c90821680610ac457607f821691505b602082108103610ae257634e487b7160e01b5f52602260045260245ffd5b50919050565b601f821115610b2f57805f5260205f20601f840160051c81016020851015610b0d5750805b601f840160051c820191505b81811015610b2c575f8155600101610b19565b50505b505050565b81516001600160401b03811115610b4d57610b4d610882565b610b6181610b5b8454610ab0565b84610ae8565b6020601f821160018114610b93575f8315610b7c5750848201515b5f19600385901b1c1916600184901b178455610b2c565b5f84815260208120601f198516915b82811015610bc25787850151825560209485019460019092019101610ba2565b5084821015610bdf57868401515f19600387901b60f8161c191681555b50505050600190811b01905550565b5f60208284031215610bfe575f5ffd5b8151610c098161085e565b9392505050565b634e487b7160e01b5f52601160045260245ffd5b6001815b6001841115610c5f57808504811115610c4357610c43610c10565b6001841615610c5157908102905b60019390931c928002610c28565b935093915050565b5f82610c7557506001610433565b81610c8157505f610433565b8160018114610c975760028114610ca157610cbd565b6001915050610433565b60ff841115610cb257610cb2610c10565b50506001821b610433565b5060208310610133831016604e8410600b8410161715610ce0575081810a610433565b610cec5f198484610c24565b805f1904821115610cff57610cff610c10565b029392505050565b5f6104308383610c67565b808202811582820484141761043357610433610c10565b5f82610d4357634e487b7160e01b5f52601260045260245ffd5b500490565b5f5f5f60608486031215610d5a575f5ffd5b8351610d658161085e565b6020850151909350610d768161085e565b6040850151909250610d878161085e565b809150509250925092565b5f60208284031215610da2575f5ffd5b5051919050565b60805160a05160c051613c7d610e205f395f818161046b0152818161243101526128f201525f8181610611015281816127ec01528181612ca101528181612d1c0152612d5401525f81816105420152818161089501528181610c3701528181610c940152818161156e0152611e7c0152613c7d5ff3fe608060405234801561000f575f5ffd5b506004361061028c575f3560e01c80637dc0d1d011610161578063c3f909d4116100ca578063ebc136d011610084578063ebc136d0146105be578063ebf31131146105d1578063ec213865146105d9578063f66a7749146105ec578063f7e533ec14610604578063f887ea401461060c575f5ffd5b8063c3f909d414610528578063c9c667e31461053d578063ce5c7f6114610564578063cefba47414610577578063d94073d4146105a3578063dbd5edc7146105b6575f5ffd5b8063930ec2771161011b578063930ec277146104d7578063ad5a356f146104df578063afd27bf5146104e7578063bdcdd882146104fa578063c05bd92d14610502578063c38a6f0b14610515575f5ffd5b80637dc0d1d01461046657806380f556051461048d57806386651203146104a05780638a8b9976146104b35780638f1d3f00146104bb57806392f5e832146104c4575f5ffd5b806338d52e0f1161020357806369b3054b116101bd57806369b3054b146103e65780636df44100146103f9578063780469bb1461040c578063781c18db1461042d57806379502c55146104405780637aaceb951461045e575f5ffd5b806338d52e0f146103965780634452d81c146103a75780634fc7fac3146103b05780635b0f83f3146103c357806361d027b3146103cb57806361f5cd8b146103d3575f5ffd5b80631deae8c6116102545780631deae8c614610308578063256d8a23146103115780632db6d39914610353578063303dbaf3146103665780633194549e1461037d5780633727093614610385575f5ffd5b806301e1d1141461029057806303baf066146102ab57806306fdde03146102c0578063117d8ae0146102d557806313c408f8146102f5575b5f5ffd5b610298610633565b6040519081526020015b60405180910390f35b6102be6102b9366004612e0b565b61066a565b005b6102c86107ff565b6040516102a29190612e50565b6102dd610892565b6040516001600160a01b0390911681526020016102a2565b6102be610303366004612e9f565b610913565b61029861038481565b60125460135460145460155460165461032b949392919085565b604080519586526020860194909452928401919091526060830152608082015260a0016102a2565b6102be610361366004612e9f565b6109d7565b60095460ff165b60405190151581526020016102a2565b600554610298565b6001546001600160a01b03166102dd565b6003546001600160a01b03166102dd565b61029860105481565b6102be6103be366004612e0b565b610bed565b6102dd610c34565b6102dd610c91565b6102be6103e1366004612e0b565b610cee565b6102986103f4366004612efa565b610d35565b6102be610407366004612f34565b610d68565b61041f61041a366004612fb5565b610e80565b6040516102a2929190613049565b600f546102dd906001600160a01b031681565b610448611414565b6040516102a29a999897969594939291906130d2565b6102dd61156b565b6102dd7f000000000000000000000000000000000000000000000000000000000000000081565b600b546102dd906001600160a01b031681565b6102be6104ae366004612e0b565b6115c8565b6102be61160f565b61029860115481565b6102be6104d2366004612e0b565b61166c565b6102986116b3565b600654610298565b600d546102dd906001600160a01b031681565b600a54610298565b6102be610510366004613149565b6116cd565b6102be61052336600461316c565b611850565b6105306119a1565b6040516102a291906131f5565b6102dd7f000000000000000000000000000000000000000000000000000000000000000081565b61041f6105723660046132c6565b611b9a565b600c5461058e90600160a01b900463ffffffff1681565b60405163ffffffff90911681526020016102a2565b600e546102dd906001600160a01b031681565b600454610298565b61036d6105cc366004612f34565b611c94565b6102be611d75565b600c546102dd906001600160a01b031681565b6105f4611dc7565b6040516102a29493929190613328565b6102dd611e79565b6102dd7f000000000000000000000000000000000000000000000000000000000000000081565b5f60115442101561065f5761065a60105461065461064f611ed6565b611f41565b90611f67565b905090565b61065a61064f611ed6565b5f5460408051630ccc574960e41b815290516001600160a01b03909216916391d1485491839163ccc57490916004808201926020929091908290030181865afa1580156106b9573d5f5f3e3d5ffd5b505050506040513d601f19601f820116820180604052508101906106dd919061336d565b6040516001600160e01b031960e084901b1681526004810191909152336024820152604401602060405180830381865afa15801561071d573d5f5f3e3d5ffd5b505050506040513d601f19601f820116820180604052508101906107419190613398565b61076557604051630ea7d7ed60e21b81523360048201526024015b60405180910390fd5b610784816107756012600a6134a8565b6107809060646134b3565b1090565b156107c357806107966012600a6134a8565b6107a19060646134b3565b6040516328e9045960e11b81526004810192909252602482015260440161075c565b60108190556040518181527ff5a802650e0a86db227cc342f06327d2ca0ff5cf2b12e0084fc5d8a7db2c54fd906020015b60405180910390a150565b606060016006018054610811906134ca565b80601f016020809104026020016040519081016040528092919081815260200182805461083d906134ca565b80156108885780601f1061085f57610100808354040283529160200191610888565b820191905f5260205f20905b81548152906001019060200180831161086b57829003601f168201915b5050505050905090565b5f7f00000000000000000000000000000000000000000000000000000000000000006001600160a01b031663117d8ae06040518163ffffffff1660e01b8152600401602060405180830381865afa1580156108ef573d5f5f3e3d5ffd5b505050506040513d601f19601f8201168201806040525081019061065a9190613502565b61091b611f98565b61094657335b604051631564c0e160e11b81526001600160a01b03909116600482015260240161075c565b61094e612021565b818161095a8282612090565b336109668686866120f2565b60035461097d906001600160a01b03168288612154565b600354604080516001600160a01b03928316815260208101899052918316917fd5e872c5ecfb1bb8820b2e6a20e31b883682282da886621541f71e31ec11947e910160405180910390a25050506109d26121b3565b505050565b6109df612021565b306001600160a01b031663372709366040518163ffffffff1660e01b8152600401602060405180830381865afa158015610a1b573d5f5f3e3d5ffd5b505050506040513d601f19601f82011682018060405250810190610a3f9190613502565b610a47611f98565b610b66575f3390505f306001600160a01b031663117d8ae06040518163ffffffff1660e01b8152600401602060405180830381865afa158015610a8c573d5f5f3e3d5ffd5b505050506040513d601f19601f82011682018060405250810190610ab09190613502565b6001600160a01b0316826001600160a01b031614905080610b635760405163d25dd10160e01b81526001600160a01b0383811660048301525f919085169063d25dd10190602401602060405180830381865afa158015610b12573d5f5f3e3d5ffd5b505050506040513d601f19601f82011682018060405250810190610b369190613398565b905080610b6157604051638f7a567d60e01b81526001600160a01b038416600482015260240161075c565b505b50505b8282610b728282612090565b6003543390610b8c906001600160a01b031682308a6121dd565b610b9787878761221c565b600354604080516001600160a01b039283168152602081018a9052918316917fcbaa1442ac205415c9d69643e7b60ec73d1de35dbc807c21ec288c70ddc4207b910160405180910390a2505050506109d26121b3565b610bf5611f98565b610bff5733610921565b600a8190556040518181527fd3c6d0ab315f2f1352f036cd9f401b49e38e1b90907e195225e8105f9a0b6f02906020016107f4565b5f7f00000000000000000000000000000000000000000000000000000000000000006001600160a01b0316635b0f83f36040518163ffffffff1660e01b8152600401602060405180830381865afa1580156108ef573d5f5f3e3d5ffd5b5f7f00000000000000000000000000000000000000000000000000000000000000006001600160a01b03166361d027b36040518163ffffffff1660e01b8152600401602060405180830381865afa1580156108ef573d5f5f3e3d5ffd5b610cf6611f98565b610d005733610921565b60058190556040518181527ffbe2d5c01ea8ba5596d6c4e6c82c6d4a0a0ee1128689993a4a5ba0169273d69f906020016107f4565b5f8282604051602001610d4992919061351d565b6040516020818303038152906040528051906020012090505b92915050565b5f5460408051630ccc574960e41b815290516001600160a01b03909216916391d1485491839163ccc57490916004808201926020929091908290030181865afa158015610db7573d5f5f3e3d5ffd5b505050506040513d601f19601f82011682018060405250810190610ddb919061336d565b6040516001600160e01b031960e084901b1681526004810191909152336024820152604401602060405180830381865afa158015610e1b573d5f5f3e3d5ffd5b505050506040513d601f19601f82011682018060405250810190610e3f9190613398565b610e5e57604051630ea7d7ed60e21b815233600482015260240161075c565b600c80546001600160a01b0319166001600160a01b0392909216919091179055565b606080306001600160a01b031663117d8ae06040518163ffffffff1660e01b8152600401602060405180830381865afa158015610ebf573d5f5f3e3d5ffd5b505050506040513d601f19601f82011682018060405250810190610ee39190613502565b6001600160a01b0316336001600160a01b031614610f2257335b604051631184b31b60e21b81526001600160a01b03909116600482015260240161075c565b610f2a612021565b82516001600160401b03811115610f4357610f43612f4f565b604051908082528060200260200182016040528015610f6c578160200160208202803683370190505b50915082516001600160401b03811115610f8857610f88612f4f565b604051908082528060200260200182016040528015610fb1578160200160208202803683370190505b506003546040516370a0823160e01b81523060048201529192505f916001600160a01b03909116906370a0823190602401602060405180830381865afa158015610ffd573d5f5f3e3d5ffd5b505050506040513d601f19601f82011682018060405250810190611021919061336d565b11156111e557600154604080516330fe427560e21b815290515f926001600160a01b03169163c3f909d49160048083019260a09291908290030181865afa15801561106e573d5f5f3e3d5ffd5b505050506040513d601f19601f820116820180604052508101906110929190613554565b516003546040516370a0823160e01b81523060048201529192506111179183916001600160a01b0316906370a0823190602401602060405180830381865afa1580156110e0573d5f5f3e3d5ffd5b505050506040513d601f19601f82011682018060405250810190611104919061336d565b6003546001600160a01b0316919061222d565b6003546040516370a0823160e01b81523060048201526001600160a01b0383811692632db6d399929116906370a0823190602401602060405180830381865afa158015611166573d5f5f3e3d5ffd5b505050506040513d601f19601f8201168201806040525081019061118a919061336d565b60405180602001604052805f8152506040518363ffffffff1660e01b81526004016111b69291906135d0565b5f604051808303815f87803b1580156111cd575f5ffd5b505af11580156111df573d5f5f3e3d5ffd5b50505050505b5f5b83518110156113b3575f848281518110611203576112036135e8565b60209081029190910101516040516370a0823160e01b81523060048201526001600160a01b03909116906370a0823190602401602060405180830381865afa158015611251573d5f5f3e3d5ffd5b505050506040513d601f19601f82011682018060405250810190611275919061336d565b905080156113aa5761133e611288610892565b86848151811061129a5761129a6135e8565b60209081029190910101516040516370a0823160e01b81523060048201526001600160a01b03909116906370a0823190602401602060405180830381865afa1580156112e8573d5f5f3e3d5ffd5b505050506040513d601f19601f8201168201806040525081019061130c919061336d565b87858151811061131e5761131e6135e8565b60200260200101516001600160a01b03166121549092919063ffffffff16565b848281518110611350576113506135e8565b602002602001015184838151811061136a5761136a6135e8565b60200260200101906001600160a01b031690816001600160a01b0316815250508083838151811061139d5761139d6135e8565b6020026020010181815250505b506001016111e7565b50806040516113c291906135fc565b6040518091039020826040516113d89190613631565b604051908190038120907f46b8771620f6acf56cb03d3e835ea8024c7dcbcf05fcc3f6ade9e19d1a3e212b905f90a361140f6121b3565b915091565b60018054600254600354600454600554600654600780546001600160a01b0397881698968816979095169593949293919261144e906134ca565b80601f016020809104026020016040519081016040528092919081815260200182805461147a906134ca565b80156114c55780601f1061149c576101008083540402835291602001916114c5565b820191905f5260205f20905b8154815290600101906020018083116114a857829003601f168201915b5050505050908060070180546114da906134ca565b80601f0160208091040260200160405190810160405280929190818152602001828054611506906134ca565b80156115515780601f1061152857610100808354040283529160200191611551565b820191905f5260205f20905b81548152906001019060200180831161153457829003601f168201915b505050506008830154600990930154919260ff169190508a565b5f7f00000000000000000000000000000000000000000000000000000000000000006001600160a01b0316637aaceb956040518163ffffffff1660e01b8152600401602060405180830381865afa1580156108ef573d5f5f3e3d5ffd5b6115d0611f98565b6115da5733610921565b60048190556040518181527f333b26cca69716ad4680ddb07663f5bfb4f06045671f336af9a83690a3ae00f9906020016107f4565b611617611f98565b6116215733610921565b600180546001600160a01b031916339081179091556040519081527f55489ce0259bd691120d8860861be1c401c7c16a3cd268d21045756af4ecc5ca906020015b60405180910390a1565b611674611f98565b61167e5733610921565b60068190556040518181527fb6ac66853c4e59c71e118d25ab494bb847c4e5eb0c8894898c5343e6f61afc12906020016107f4565b6116bf6012600a6134a8565b6116ca9060646134b3565b81565b5f5460408051630ccc574960e41b815290516001600160a01b03909216916391d1485491839163ccc57490916004808201926020929091908290030181865afa15801561171c573d5f5f3e3d5ffd5b505050506040513d601f19601f82011682018060405250810190611740919061336d565b6040516001600160e01b031960e084901b1681526004810191909152336024820152604401602060405180830381865afa158015611780573d5f5f3e3d5ffd5b505050506040513d601f19601f820116820180604052508101906117a49190613398565b6117c357604051630ea7d7ed60e21b815233600482015260240161075c565b6103848163ffffffff1610156117fc57604051630d33f2b360e21b815263ffffffff82166004820152610384602482015260440161075c565b600c805463ffffffff60a01b1916600160a01b63ffffffff8416908102919091179091556040519081527f4b3aa5c9fb94258bcc25dd74639341b3baf9771cfb27c62dbc11af634747aa4d906020016107f4565b611858611f98565b6118625733610921565b818161186e8282612090565b6118798885856120f2565b60035460405163095ea7b360e01b81526001600160a01b038981166004830152602482018b90529091169063095ea7b3906044016020604051808303815f875af11580156118c9573d5f5f3e3d5ffd5b505050506040513d601f19601f820116820180604052508101906118ed9190613398565b50604051632db6d39960e01b81526001600160a01b03881690632db6d3999061191e908b908a908a90600401613664565b5f604051808303815f87803b158015611935575f5ffd5b505af1158015611947573d5f5f3e3d5ffd5b5050600354604080516001600160a01b039283168152602081018d9052918b1693503092507f9f784fc02a186f1c98b2d9f15fda084da27cdd291a3785d978f91911d880516b910160405180910390a35050505050505050565b611a0c6040518061014001604052805f6001600160a01b031681526020015f6001600160a01b031681526020015f6001600160a01b031681526020015f81526020015f81526020015f815260200160608152602001606081526020015f151581526020015f81525090565b6040805161014081018252600180546001600160a01b0390811683526002548116602084015260035416928201929092526004546060820152600554608082015260065460a08201526007805491929160c084019190611a6b906134ca565b80601f0160208091040260200160405190810160405280929190818152602001828054611a97906134ca565b8015611ae25780601f10611ab957610100808354040283529160200191611ae2565b820191905f5260205f20905b815481529060010190602001808311611ac557829003601f168201915b50505050508152602001600782018054611afb906134ca565b80601f0160208091040260200160405190810160405280929190818152602001828054611b27906134ca565b8015611b725780601f10611b4957610100808354040283529160200191611b72565b820191905f5260205f20905b815481529060010190602001808311611b5557829003601f168201915b5050509183525050600882015460ff1615156020820152600990910154604090910152919050565b606080306001600160a01b031663117d8ae06040518163ffffffff1660e01b8152600401602060405180830381865afa158015611bd9573d5f5f3e3d5ffd5b505050506040513d601f19601f82011682018060405250810190611bfd9190613502565b6001600160a01b0316336001600160a01b031614611c1b5733610efd565b611c23612021565b611c2d84846122bc565b6040519193509150611c409082906135fc565b604051809103902082604051611c569190613631565b604051908190038120907f3e3e7958121b3e39c7a49392d1aa9cdce870c2a059744f9e15cf66fff7865455905f90a3611c8d6121b3565b9250929050565b5f80546040805163a89f38a360e01b815290516001600160a01b03909216916391d1485491839163a89f38a3916004808201926020929091908290030181865afa158015611ce4573d5f5f3e3d5ffd5b505050506040513d601f19601f82011682018060405250810190611d08919061336d565b6040516001600160e01b031960e084901b16815260048101919091526001600160a01b0385166024820152604401602060405180830381865afa158015611d51573d5f5f3e3d5ffd5b505050506040513d601f19601f82011682018060405250810190610d629190613398565b611d7d611f98565b611d875733610921565b600180546001600160a01b03191690556040513381527f7cb941d7b1708e5b3bcd35ca960d6c6311188cec18886e5b67630552676b048790602001611662565b601c8054601d805460ff8316936101009093046001600160a01b0316929190611def906134ca565b80601f0160208091040260200160405190810160405280929190818152602001828054611e1b906134ca565b8015611e665780601f10611e3d57610100808354040283529160200191611e66565b820191905f5260205f20905b815481529060010190602001808311611e4957829003601f168201915b5050506002909301549192505060ff1684565b5f7f00000000000000000000000000000000000000000000000000000000000000006001600160a01b031663f7e533ec6040518163ffffffff1660e01b8152600401602060405180830381865afa1580156108ef573d5f5f3e3d5ffd5b600b546040516370a0823160e01b81523060048201525f916001600160a01b0316906370a08231906024015b602060405180830381865afa158015611f1d573d5f5f3e3d5ffd5b505050506040513d601f19601f8201168201806040525081019061065a919061336d565b5f670de0b6b3a7640000611f536123f7565b611f5d90846134b3565b610d629190613699565b5f611f9183611f8c611f7b6012600a6134a8565b611f869060646134b3565b85612460565b61246b565b9392505050565b5f80546001600160a01b03166391d14854611fb4600230610d35565b336040516001600160e01b031960e085901b16815260048101929092526001600160a01b03166024820152604401602060405180830381865afa158015611ffd573d5f5f3e3d5ffd5b505050506040513d601f19601f8201168201806040525081019061065a9190613398565b7f9b779b17422d0df92223018b32b4d1fa46e071723d6817e2486d003becc55f005c1561206157604051633ee5aeb560e01b815260040160405180910390fd5b61208e60017f9b779b17422d0df92223018b32b4d1fa46e071723d6817e2486d003becc55f005b90612497565b565b80158015906120a2575060095460ff16155b156120c057604051630cd0fdf960e01b815260040160405180910390fd5b801580156120d0575060095460ff165b156120ee5760405163332863a960e11b815260040160405180910390fd5b5050565b6120fa61249e565b601154421061210d576109d283846125a5565b5f612116611ed6565b90505f61212e601054612128876125bb565b906125d6565b90505f82821161213e5781612140565b825b905061214c81876125fb565b505050505050565b6040516001600160a01b038381166024830152604482018390526109d291859182169063a9059cbb906064015b604051602081830303815290604052915060e01b6020820180516001600160e01b038381831617835250505050612605565b61208e5f7f9b779b17422d0df92223018b32b4d1fa46e071723d6817e2486d003becc55f00612088565b6040516001600160a01b0384811660248301528381166044830152606482018390526122169186918216906323b872dd90608401612181565b50505050565b61222461249e565b6109d283612671565b604080516001600160a01b038416602482015260448082018490528251808303909101815260649091019091526020810180516001600160e01b031663095ea7b360e01b17905261227e848261286f565b612216576040516001600160a01b0384811660248301525f60448301526122b291869182169063095ea7b390606401612181565b6122168482612605565b606080600b5f9054906101000a90046001600160a01b03166001600160a01b031663c4f59f9b6040518163ffffffff1660e01b81526004015f60405180830381865afa15801561230e573d5f5f3e3d5ffd5b505050506040513d5f823e601f3d908101601f1916820160405261233591908101906136b8565b600b54604051639262187b60e01b81523060048201529193506001600160a01b031690639262187b906024015f604051808303815f875af115801561237c573d5f5f3e3d5ffd5b505050506040513d5f823e601f3d908101601f191682016040526123a39190810190613747565b90505f5b82518110156123ef576123e76123bb610892565b8383815181106123cd576123cd6135e8565b602002602001015185848151811061131e5761131e6135e8565b6001016123a7565b509250929050565b600b54600c54604051636cda983360e01b81526001600160a01b039283166004820152600160a01b90910463ffffffff1660248201525f917f00000000000000000000000000000000000000000000000000000000000000001690636cda983390604401611f02565b5f611f9182846137cd565b5f6124786012600a6134a8565b6124839060646134b3565b61248d83856134b3565b611f919190613699565b80825d5050565b6011544210156124aa57565b5f306001600160a01b031663ec2138656040518163ffffffff1660e01b8152600401602060405180830381865afa1580156124e7573d5f5f3e3d5ffd5b505050506040513d601f19601f8201168201806040525081019061250b9190613502565b90506001600160a01b03811615806125305750600b546001600160a01b038281169116145b1561254e576040516301fb70bf60e21b815260040160405180910390fd5b612557816128b8565b61255e5750565b612566612973565b61256f8161299a565b6040516001600160a01b038216907f3b7aba7495f95b008f26fc1548021f2fb059ad26ef38f422178347e2b5859898905f90a250565b5f6125af836125bb565b90506109d28183612b5b565b5f6125c46123f7565b611f5d670de0b6b3a7640000846134b3565b5f611f9183611f8c6125ea6012600a6134a8565b6125f59060646134b3565b85612ce1565b6120ee8282612b5b565b5f5f60205f8451602086015f885af180612624576040513d5f823e3d81fd5b50505f513d9150811561263b578060011415612648565b6001600160a01b0384163b155b1561221657604051635274afe760e01b81526001600160a01b038516600482015260240161075c565b60115442106126935760405163b2094b5960e01b815260040160405180910390fd5b5f6126a3601054610654846125bb565b6040805160a081018252600380546001600160a01b031680835260208301879052828401525f6060830181905283516080818101909552601c8054969750919593948501939092839160ff16908111156126ff576126ff613304565b600381111561271057612710613304565b8152815461010090046001600160a01b0316602082015260018201805460409092019161273c906134ca565b80601f0160208091040260200160405190810160405280929190818152602001828054612768906134ca565b80156127b35780601f1061278a576101008083540402835291602001916127b3565b820191905f5260205f20905b81548152906001019060200180831161279657829003601f168201915b50505091835250506002919091015460ff1615156020909101529052600b5460405163092ccd6360e11b81529192506001600160a01b037f00000000000000000000000000000000000000000000000000000000000000008116926312599ac69261282f92309291169087906012908890601790600401613aa4565b6060604051808303815f875af115801561284b573d5f5f3e3d5ffd5b505050506040513d601f19601f8201168201806040525081019061214c9190613b27565b5f5f5f5f60205f8651602088015f8a5af192503d91505f5190508280156128ae575081156128a057806001146128ae565b5f866001600160a01b03163b115b9695505050505050565b600c5460405162439f4b60e91b81526001600160a01b038381166004830152600160a01b90920463ffffffff1660248201525f91829182917f0000000000000000000000000000000000000000000000000000000000000000169063873e960090604401606060405180830381865afa158015612937573d5f5f3e3d5ffd5b505050506040513d601f19601f8201168201806040525081019061295b9190613b52565b92505091508115801561296b5750805b949350505050565b5f61297c611ed6565b90505f61298882611f41565b905081156120ee576120ee8282612b5b565b600b80546001600160a01b0319166001600160a01b03831690811790915560408051630b2339af60e21b81529051632c8ce6bc916004808201926060929091908290030181865afa1580156129f1573d5f5f3e3d5ffd5b505050506040513d601f19601f82011682018060405250810190612a159190613b9a565b600f80546001600160a01b03199081166001600160a01b0393841617909155600e8054821693831693909317909255600d8054909216928116928317909155600354604051637d2d278360e11b81529116600482015263fa5a4f0690602401602060405180830381865afa158015612a8f573d5f5f3e3d5ffd5b505050506040513d601f19601f82011682018060405250810190612ab39190613398565b1580612b2a5750600d54600354604051633c21b3eb60e11b81526001600160a01b03918216600482015291169063784367d690602401602060405180830381865afa158015612b04573d5f5f3e3d5ffd5b505050506040513d601f19601f82011682018060405250810190612b289190613398565b155b15612b4857604051631bda904d60e31b815260040160405180910390fd5b612b50612cec565b612b58612d92565b50565b6040805160a081018252600380546001600160a01b031680835260208301859052828401525f6060830181905283516080818101909552601c8054929585019391929091839160ff1690811115612bb457612bb4613304565b6003811115612bc557612bc5613304565b8152815461010090046001600160a01b03166020820152600182018054604090920191612bf1906134ca565b80601f0160208091040260200160405190810160405280929190818152602001828054612c1d906134ca565b8015612c685780601f10612c3f57610100808354040283529160200191612c68565b820191905f5260205f20905b815481529060010190602001808311612c4b57829003601f168201915b50505091835250506002919091015460ff1615156020909101529052600b54604051630306d04360e51b81529192506001600160a01b037f00000000000000000000000000000000000000000000000000000000000000008116926360da08609261282f92309291169088908790601790600401613be4565b5f611f918284613c34565b600d54600354612d0a916001600160a01b0391821691165f1961222d565b600354612d42906001600160a01b03167f00000000000000000000000000000000000000000000000000000000000000005f1961222d565b600b54612d7a906001600160a01b03167f00000000000000000000000000000000000000000000000000000000000000005f1961222d565b600b5461208e906001600160a01b0316805f1961222d565b600b5f9054906101000a90046001600160a01b03166001600160a01b031663e184c9be6040518163ffffffff1660e01b8152600401602060405180830381865afa158015612de2573d5f5f3e3d5ffd5b505050506040513d601f19601f82011682018060405250810190612e06919061336d565b601155565b5f60208284031215612e1b575f5ffd5b5035919050565b5f81518084528060208401602086015e5f602082860101526020601f19601f83011685010191505092915050565b602081525f611f916020830184612e22565b5f5f83601f840112612e72575f5ffd5b5081356001600160401b03811115612e88575f5ffd5b602083019150836020828501011115611c8d575f5ffd5b5f5f5f60408486031215612eb1575f5ffd5b8335925060208401356001600160401b03811115612ecd575f5ffd5b612ed986828701612e62565b9497909650939450505050565b6001600160a01b0381168114612b58575f5ffd5b5f5f60408385031215612f0b575f5ffd5b823560038110612f19575f5ffd5b91506020830135612f2981612ee6565b809150509250929050565b5f60208284031215612f44575f5ffd5b8135611f9181612ee6565b634e487b7160e01b5f52604160045260245ffd5b604051601f8201601f191681016001600160401b0381118282101715612f8b57612f8b612f4f565b604052919050565b5f6001600160401b03821115612fab57612fab612f4f565b5060051b60200190565b5f60208284031215612fc5575f5ffd5b81356001600160401b03811115612fda575f5ffd5b8201601f81018413612fea575f5ffd5b8035612ffd612ff882612f93565b612f63565b8082825260208201915060208360051b85010192508683111561301e575f5ffd5b6020840193505b828410156128ae57833561303881612ee6565b825260209384019390910190613025565b604080825283519082018190525f9060208501906060840190835b8181101561308b5783516001600160a01b0316835260209384019390920191600101613064565b5050838103602080860191909152855180835291810192508501905f5b818110156130c65782518452602093840193909201916001016130a8565b50919695505050505050565b6001600160a01b038b811682528a8116602083015289166040820152606081018890526080810187905260a0810186905261014060c082018190525f9061311b90830187612e22565b82810360e084015261312d8187612e22565b9415156101008401525050610120015298975050505050505050565b5f60208284031215613159575f5ffd5b813563ffffffff81168114611f91575f5ffd5b5f5f5f5f5f5f60808789031215613181575f5ffd5b86359550602087013561319381612ee6565b945060408701356001600160401b038111156131ad575f5ffd5b6131b989828a01612e62565b90955093505060608701356001600160401b038111156131d7575f5ffd5b6131e389828a01612e62565b979a9699509497509295939492505050565b6020815261320f6020820183516001600160a01b03169052565b5f602083015161322a60408401826001600160a01b03169052565b5060408301516001600160a01b03811660608401525060608301516080830152608083015160a083015260a083015160c083015260c083015161014060e0840152613279610160840182612e22565b905060e0840151601f19848303016101008501526132978282612e22565b9150506101008401516132af61012085018215159052565b506101208401516101408401528091505092915050565b5f5f602083850312156132d7575f5ffd5b82356001600160401b038111156132ec575f5ffd5b6132f885828601612e62565b90969095509350505050565b634e487b7160e01b5f52602160045260245ffd5b60048110612b5857612b58613304565b61333185613318565b8481526001600160a01b03841660208201526080604082018190525f9061335a90830185612e22565b9050821515606083015295945050505050565b5f6020828403121561337d575f5ffd5b5051919050565b80518015158114613393575f5ffd5b919050565b5f602082840312156133a8575f5ffd5b611f9182613384565b634e487b7160e01b5f52601160045260245ffd5b6001815b6001841115613400578085048111156133e4576133e46133b1565b60018416156133f257908102905b60019390931c9280026133c9565b935093915050565b5f8261341657506001610d62565b8161342257505f610d62565b816001811461343857600281146134425761345e565b6001915050610d62565b60ff841115613453576134536133b1565b50506001821b610d62565b5060208310610133831016604e8410600b8410161715613481575081810a610d62565b61348d5f1984846133c5565b805f19048211156134a0576134a06133b1565b029392505050565b5f611f918383613408565b8082028115828204841417610d6257610d626133b1565b600181811c908216806134de57607f821691505b6020821081036134fc57634e487b7160e01b5f52602260045260245ffd5b50919050565b5f60208284031215613512575f5ffd5b8151611f9181612ee6565b5f6003841061352e5761352e613304565b5060f89290921b825260601b6bffffffffffffffffffffffff1916600182015260150190565b5f60a0828403128015613565575f5ffd5b5060405160a081016001600160401b038111828210171561358857613588612f4f565b604052825161359681612ee6565b815260208381015190820152604080840151908201526060808401519082015260808301516135c481612ee6565b60808201529392505050565b828152604060208201525f61296b6040830184612e22565b634e487b7160e01b5f52603260045260245ffd5b81515f90829060208501835b82811015613626578151845260209384019390910190600101613608565b509195945050505050565b81515f90829060208501835b828110156136265781516001600160a01b031684526020938401939091019060010161363d565b83815260406020820152816040820152818360608301375f818301606090810191909152601f909201601f1916010192915050565b5f826136b357634e487b7160e01b5f52601260045260245ffd5b500490565b5f602082840312156136c8575f5ffd5b81516001600160401b038111156136dd575f5ffd5b8201601f810184136136ed575f5ffd5b80516136fb612ff882612f93565b8082825260208201915060208360051b85010192508683111561371c575f5ffd5b6020840193505b828410156128ae57835161373681612ee6565b825260209384019390910190613723565b5f60208284031215613757575f5ffd5b81516001600160401b0381111561376c575f5ffd5b8201601f8101841361377c575f5ffd5b805161378a612ff882612f93565b8082825260208201915060208360051b8501019250868311156137ab575f5ffd5b6020840193505b828410156128ae5783518252602093840193909101906137b2565b81810381811115610d6257610d626133b1565b60018060a01b0381511682526020810151602083015260018060a01b03604082015116604083015260018060a01b0360608201511660608301525f608082015160a06080850152805161383281613318565b60a085015260208101516001600160a01b031660c08501526040810151608060e0860152613864610120860182612e22565b905060608201511515610100860152809250505092915050565b61388781613318565b9052565b80545f90600181811c908216806138a357607f821691505b6020821081036138c157634e487b7160e01b5f52602260045260245ffd5b818652602086018180156138dc57600181146138f25761391e565b60ff198516825283151560051b8201955061391e565b5f878152602090205f5b85811015613918578154848201526001909101906020016138fc565b83019650505b505050505092915050565b5f82825480855260208501945060208160051b830101845f5260205f205f5b83811015613a3b57601f19858403018852606083528154606084015260018201546080840152600282015460a0840152600382015461398d60c0850160ff831661387e565b6001600160a01b03600891821c811660e0860152600484015481166101008601526005840154811661012086015260068401541661014085015260078301546101608501528201546101808085019190915260098301546101a08501526101c0840152613a016101e08401600a840161388b565b8381036020850152613a1681600b850161388b565b600c840154604095909501949094525060209790970196600d90910190600101613948565b50909695505050505050565b80546001600160a01b031682526001810154602083015260a0604083018190525f90613a7890840160028401613929565b8381036060850152613a8d8160038501613929565b9050838103608085015261296b816004850161388b565b6001600160a01b03878116825286166020820152604081018590528354606082015260018401546080820152600284015460a0820152600384015460c0820152600484015460e082015261014061010082018190525f90613b07908301856137e0565b828103610120840152613b1a8185613a47565b9998505050505050505050565b5f5f5f60608486031215613b39575f5ffd5b5050815160208301516040909301519094929350919050565b5f5f5f60608486031215613b64575f5ffd5b613b6d84613384565b9250602084015161ffff81168114613b83575f5ffd5b9150613b9160408501613384565b90509250925092565b5f5f5f60608486031215613bac575f5ffd5b8351613bb781612ee6565b6020850151909350613bc881612ee6565b6040850151909250613bd981612ee6565b809150509250925092565b6001600160a01b038681168252851660208201526040810184905260a0606082018190525f90613c16908301856137e0565b8281036080840152613c288185613a47565b98975050505050505050565b80820180821115610d6257610d626133b156fea26469706673582212203a25bf87b976832cfe9ba12c2cb10a35eafc157494e450132934127bccde3eb564736f6c634300081c0033","linkReferences":{}},"methodIdentifiers":{"MAX_SLIPPAGE_PERCENTAGE()":"930ec277","MIN_ORACLE_DURATION()":"1deae8c6","PT()":"d94073d4","SY()":"afd27bf5","YT()":"781c18db","asset()":"38d52e0f","board(uint256,bytes)":"2db6d399","commander()":"37270936","config()":"79502c55","configurationManager()":"c9c667e3","depositCap()":"dbd5edc7","disembark(uint256,bytes)":"13c408f8","emptySwap()":"f66a7749","fleetCommanderRewardsManagerFactory()":"f7e533ec","generateRole(uint8,address)":"69b3054b","getConfig()":"c3f909d4","harborCommand()":"5b0f83f3","harvest(bytes)":"ce5c7f61","hasAdmiralsQuartersRole(address)":"ebc136d0","market()":"80f55605","marketExpiry()":"8f1d3f00","maxDepositPercentageOfTVL()":"bdcdd882","maxRebalanceInflow()":"ad5a356f","maxRebalanceOutflow()":"3194549e","move(uint256,address,bytes,bytes)":"c38a6f0b","name()":"06fdde03","nextMarket()":"ec213865","oracle()":"7dc0d1d0","oracleDuration()":"cefba474","raft()":"117d8ae0","registerFleetCommander()":"8a8b9976","requiresKeeperData()":"303dbaf3","router()":"f887ea40","routerParams()":"256d8a23","setDepositCap(uint256)":"86651203","setMaxDepositPercentageOfTVL(uint256)":"4fc7fac3","setMaxRebalanceInflow(uint256)":"92f5e832","setMaxRebalanceOutflow(uint256)":"61f5cd8b","setNextMarket(address)":"6df44100","setOracleDuration(uint32)":"c05bd92d","setSlippagePercentage(uint256)":"03baf066","slippagePercentage()":"4452d81c","sweep(address[])":"780469bb","tipJar()":"7aaceb95","totalAssets()":"01e1d114","treasury()":"61d027b3","unregisterFleetCommander()":"ebf31131"},"id":213}