{"abi":[{"type":"constructor","inputs":[{"name":"_market","type":"address","internalType":"address"},{"name":"_oracle","type":"address","internalType":"address"},{"name":"_router","type":"address","internalType":"address"},{"name":"_params","type":"tuple","internalType":"struct ArkParams","components":[{"name":"name","type":"string","internalType":"string"},{"name":"accessManager","type":"address","internalType":"address"},{"name":"configurationManager","type":"address","internalType":"address"},{"name":"token","type":"address","internalType":"address"},{"name":"depositCap","type":"uint256","internalType":"uint256"},{"name":"maxRebalanceOutflow","type":"uint256","internalType":"uint256"},{"name":"maxRebalanceInflow","type":"uint256","internalType":"uint256"},{"name":"requiresKeeperData","type":"bool","internalType":"bool"},{"name":"maxDepositPercentageOfTVL","type":"uint256","internalType":"Percentage"}]}],"stateMutability":"nonpayable"},{"type":"function","name":"MAX_SLIPPAGE_PERCENTAGE","inputs":[],"outputs":[{"name":"","type":"uint256","internalType":"Percentage"}],"stateMutability":"view"},{"type":"function","name":"MIN_ORACLE_DURATION","inputs":[],"outputs":[{"name":"","type":"uint256","internalType":"uint256"}],"stateMutability":"view"},{"type":"function","name":"PT","inputs":[],"outputs":[{"name":"","type":"address","internalType":"contract IPPrincipalToken"}],"stateMutability":"view"},{"type":"function","name":"SY","inputs":[],"outputs":[{"name":"","type":"address","internalType":"contract IStandardizedYield"}],"stateMutability":"view"},{"type":"function","name":"YT","inputs":[],"outputs":[{"name":"","type":"address","internalType":"contract IPYieldToken"}],"stateMutability":"view"},{"type":"function","name":"board","inputs":[{"name":"amount","type":"uint256","internalType":"uint256"},{"name":"boardData","type":"bytes","internalType":"bytes"}],"outputs":[],"stateMutability":"nonpayable"},{"type":"function","name":"commander","inputs":[],"outputs":[{"name":"","type":"address","internalType":"address"}],"stateMutability":"view"},{"type":"function","name":"config","inputs":[],"outputs":[{"name":"commander","type":"address","internalType":"address"},{"name":"raft","type":"address","internalType":"address"},{"name":"token","type":"address","internalType":"contract IERC20"},{"name":"depositCap","type":"uint256","internalType":"uint256"},{"name":"maxRebalanceOutflow","type":"uint256","internalType":"uint256"},{"name":"maxRebalanceInflow","type":"uint256","internalType":"uint256"},{"name":"name","type":"string","internalType":"string"},{"name":"requiresKeeperData","type":"bool","internalType":"bool"},{"name":"maxDepositPercentageOfTVL","type":"uint256","internalType":"Percentage"}],"stateMutability":"view"},{"type":"function","name":"configurationManager","inputs":[],"outputs":[{"name":"","type":"address","internalType":"contract IConfigurationManager"}],"stateMutability":"view"},{"type":"function","name":"depositCap","inputs":[],"outputs":[{"name":"","type":"uint256","internalType":"uint256"}],"stateMutability":"view"},{"type":"function","name":"disembark","inputs":[{"name":"amount","type":"uint256","internalType":"uint256"},{"name":"disembarkData","type":"bytes","internalType":"bytes"}],"outputs":[],"stateMutability":"nonpayable"},{"type":"function","name":"emptySwap","inputs":[],"outputs":[{"name":"swapType","type":"uint8","internalType":"enum SwapType"},{"name":"extRouter","type":"address","internalType":"address"},{"name":"extCalldata","type":"bytes","internalType":"bytes"},{"name":"needScale","type":"bool","internalType":"bool"}],"stateMutability":"view"},{"type":"function","name":"generateRole","inputs":[{"name":"roleName","type":"uint8","internalType":"enum ContractSpecificRoles"},{"name":"roleTargetContract","type":"address","internalType":"address"}],"outputs":[{"name":"","type":"bytes32","internalType":"bytes32"}],"stateMutability":"pure"},{"type":"function","name":"getConfig","inputs":[],"outputs":[{"name":"","type":"tuple","internalType":"struct ArkConfig","components":[{"name":"commander","type":"address","internalType":"address"},{"name":"raft","type":"address","internalType":"address"},{"name":"token","type":"address","internalType":"contract IERC20"},{"name":"depositCap","type":"uint256","internalType":"uint256"},{"name":"maxRebalanceOutflow","type":"uint256","internalType":"uint256"},{"name":"maxRebalanceInflow","type":"uint256","internalType":"uint256"},{"name":"name","type":"string","internalType":"string"},{"name":"requiresKeeperData","type":"bool","internalType":"bool"},{"name":"maxDepositPercentageOfTVL","type":"uint256","internalType":"Percentage"}]}],"stateMutability":"view"},{"type":"function","name":"harborCommand","inputs":[],"outputs":[{"name":"","type":"address","internalType":"address"}],"stateMutability":"view"},{"type":"function","name":"harvest","inputs":[{"name":"additionalData","type":"bytes","internalType":"bytes"}],"outputs":[{"name":"rewardTokens","type":"address[]","internalType":"address[]"},{"name":"rewardAmounts","type":"uint256[]","internalType":"uint256[]"}],"stateMutability":"nonpayable"},{"type":"function","name":"market","inputs":[],"outputs":[{"name":"","type":"address","internalType":"address"}],"stateMutability":"view"},{"type":"function","name":"marketExpiry","inputs":[],"outputs":[{"name":"","type":"uint256","internalType":"uint256"}],"stateMutability":"view"},{"type":"function","name":"maxDepositPercentageOfTVL","inputs":[],"outputs":[{"name":"","type":"uint256","internalType":"Percentage"}],"stateMutability":"view"},{"type":"function","name":"maxRebalanceInflow","inputs":[],"outputs":[{"name":"","type":"uint256","internalType":"uint256"}],"stateMutability":"view"},{"type":"function","name":"maxRebalanceOutflow","inputs":[],"outputs":[{"name":"","type":"uint256","internalType":"uint256"}],"stateMutability":"view"},{"type":"function","name":"move","inputs":[{"name":"amount","type":"uint256","internalType":"uint256"},{"name":"receiverArk","type":"address","internalType":"address"},{"name":"boardData","type":"bytes","internalType":"bytes"},{"name":"disembarkData","type":"bytes","internalType":"bytes"}],"outputs":[],"stateMutability":"nonpayable"},{"type":"function","name":"name","inputs":[],"outputs":[{"name":"","type":"string","internalType":"string"}],"stateMutability":"view"},{"type":"function","name":"nextMarket","inputs":[],"outputs":[{"name":"","type":"address","internalType":"address"}],"stateMutability":"pure"},{"type":"function","name":"oracle","inputs":[],"outputs":[{"name":"","type":"address","internalType":"address"}],"stateMutability":"view"},{"type":"function","name":"oracleDuration","inputs":[],"outputs":[{"name":"","type":"uint32","internalType":"uint32"}],"stateMutability":"view"},{"type":"function","name":"raft","inputs":[],"outputs":[{"name":"","type":"address","internalType":"address"}],"stateMutability":"view"},{"type":"function","name":"registerFleetCommander","inputs":[],"outputs":[],"stateMutability":"nonpayable"},{"type":"function","name":"requiresKeeperData","inputs":[],"outputs":[{"name":"","type":"bool","internalType":"bool"}],"stateMutability":"view"},{"type":"function","name":"router","inputs":[],"outputs":[{"name":"","type":"address","internalType":"address"}],"stateMutability":"view"},{"type":"function","name":"routerParams","inputs":[],"outputs":[{"name":"guessMin","type":"uint256","internalType":"uint256"},{"name":"guessMax","type":"uint256","internalType":"uint256"},{"name":"guessOffchain","type":"uint256","internalType":"uint256"},{"name":"maxIteration","type":"uint256","internalType":"uint256"},{"name":"eps","type":"uint256","internalType":"uint256"}],"stateMutability":"view"},{"type":"function","name":"setDepositCap","inputs":[{"name":"newDepositCap","type":"uint256","internalType":"uint256"}],"outputs":[],"stateMutability":"nonpayable"},{"type":"function","name":"setMaxDepositPercentageOfTVL","inputs":[{"name":"newMaxDepositPercentageOfTVL","type":"uint256","internalType":"Percentage"}],"outputs":[],"stateMutability":"nonpayable"},{"type":"function","name":"setMaxRebalanceInflow","inputs":[{"name":"newMaxRebalanceInflow","type":"uint256","internalType":"uint256"}],"outputs":[],"stateMutability":"nonpayable"},{"type":"function","name":"setMaxRebalanceOutflow","inputs":[{"name":"newMaxRebalanceOutflow","type":"uint256","internalType":"uint256"}],"outputs":[],"stateMutability":"nonpayable"},{"type":"function","name":"setOracleDuration","inputs":[{"name":"_oracleDuration","type":"uint32","internalType":"uint32"}],"outputs":[],"stateMutability":"nonpayable"},{"type":"function","name":"setSlippagePercentage","inputs":[{"name":"_slippagePercentage","type":"uint256","internalType":"Percentage"}],"outputs":[],"stateMutability":"nonpayable"},{"type":"function","name":"slippagePercentage","inputs":[],"outputs":[{"name":"","type":"uint256","internalType":"Percentage"}],"stateMutability":"view"},{"type":"function","name":"sweep","inputs":[{"name":"tokens","type":"address[]","internalType":"address[]"}],"outputs":[{"name":"sweptTokens","type":"address[]","internalType":"address[]"},{"name":"sweptAmounts","type":"uint256[]","internalType":"uint256[]"}],"stateMutability":"nonpayable"},{"type":"function","name":"tipJar","inputs":[],"outputs":[{"name":"","type":"address","internalType":"address"}],"stateMutability":"view"},{"type":"function","name":"token","inputs":[],"outputs":[{"name":"","type":"address","internalType":"contract IERC20"}],"stateMutability":"view"},{"type":"function","name":"totalAssets","inputs":[],"outputs":[{"name":"","type":"uint256","internalType":"uint256"}],"stateMutability":"view"},{"type":"function","name":"treasury","inputs":[],"outputs":[{"name":"","type":"address","internalType":"address"}],"stateMutability":"view"},{"type":"function","name":"unregisterFleetCommander","inputs":[],"outputs":[],"stateMutability":"nonpayable"},{"type":"event","name":"ArkHarvested","inputs":[{"name":"rewardTokens","type":"address[]","indexed":true,"internalType":"address[]"},{"name":"rewardAmounts","type":"uint256[]","indexed":true,"internalType":"uint256[]"}],"anonymous":false},{"type":"event","name":"ArkPoked","inputs":[{"name":"currentPrice","type":"uint256","indexed":false,"internalType":"uint256"},{"name":"timestamp","type":"uint256","indexed":false,"internalType":"uint256"}],"anonymous":false},{"type":"event","name":"ArkSwept","inputs":[{"name":"sweptTokens","type":"address[]","indexed":true,"internalType":"address[]"},{"name":"sweptAmounts","type":"uint256[]","indexed":true,"internalType":"uint256[]"}],"anonymous":false},{"type":"event","name":"Boarded","inputs":[{"name":"commander","type":"address","indexed":true,"internalType":"address"},{"name":"token","type":"address","indexed":false,"internalType":"address"},{"name":"amount","type":"uint256","indexed":false,"internalType":"uint256"}],"anonymous":false},{"type":"event","name":"DepositCapUpdated","inputs":[{"name":"newCap","type":"uint256","indexed":false,"internalType":"uint256"}],"anonymous":false},{"type":"event","name":"Disembarked","inputs":[{"name":"commander","type":"address","indexed":true,"internalType":"address"},{"name":"token","type":"address","indexed":false,"internalType":"address"},{"name":"amount","type":"uint256","indexed":false,"internalType":"uint256"}],"anonymous":false},{"type":"event","name":"FleetCommanderRegistered","inputs":[{"name":"commander","type":"address","indexed":false,"internalType":"address"}],"anonymous":false},{"type":"event","name":"FleetCommanderUnregistered","inputs":[{"name":"commander","type":"address","indexed":false,"internalType":"address"}],"anonymous":false},{"type":"event","name":"MarketRolledOver","inputs":[{"name":"newMarket","type":"address","indexed":true,"internalType":"address"}],"anonymous":false},{"type":"event","name":"MaxDepositPercentageOfTVLUpdated","inputs":[{"name":"newMaxDepositPercentageOfTVL","type":"uint256","indexed":false,"internalType":"Percentage"}],"anonymous":false},{"type":"event","name":"MaxRebalanceInflowUpdated","inputs":[{"name":"newMaxInflow","type":"uint256","indexed":false,"internalType":"uint256"}],"anonymous":false},{"type":"event","name":"MaxRebalanceOutflowUpdated","inputs":[{"name":"newMaxOutflow","type":"uint256","indexed":false,"internalType":"uint256"}],"anonymous":false},{"type":"event","name":"Moved","inputs":[{"name":"from","type":"address","indexed":true,"internalType":"address"},{"name":"to","type":"address","indexed":true,"internalType":"address"},{"name":"token","type":"address","indexed":false,"internalType":"address"},{"name":"amount","type":"uint256","indexed":false,"internalType":"uint256"}],"anonymous":false},{"type":"event","name":"OracleDurationUpdated","inputs":[{"name":"newOracleDuration","type":"uint32","indexed":false,"internalType":"uint32"}],"anonymous":false},{"type":"event","name":"RaftUpdated","inputs":[{"name":"newRaft","type":"address","indexed":false,"internalType":"address"}],"anonymous":false},{"type":"event","name":"SlippageUpdated","inputs":[{"name":"newSlippagePercentage","type":"uint256","indexed":false,"internalType":"Percentage"}],"anonymous":false},{"type":"error","name":"CallerIsNotAdmin","inputs":[{"name":"caller","type":"address","internalType":"address"}]},{"type":"error","name":"CallerIsNotAuthorizedToBoard","inputs":[{"name":"caller","type":"address","internalType":"address"}]},{"type":"error","name":"CallerIsNotCommander","inputs":[{"name":"caller","type":"address","internalType":"address"}]},{"type":"error","name":"CallerIsNotContractSpecificRole","inputs":[{"name":"caller","type":"address","internalType":"address"},{"name":"role","type":"bytes32","internalType":"bytes32"}]},{"type":"error","name":"CallerIsNotCurator","inputs":[{"name":"caller","type":"address","internalType":"address"}]},{"type":"error","name":"CallerIsNotGovernor","inputs":[{"name":"caller","type":"address","internalType":"address"}]},{"type":"error","name":"CallerIsNotGuardian","inputs":[{"name":"caller","type":"address","internalType":"address"}]},{"type":"error","name":"CallerIsNotGuardianOrGovernor","inputs":[{"name":"caller","type":"address","internalType":"address"}]},{"type":"error","name":"CallerIsNotKeeper","inputs":[{"name":"caller","type":"address","internalType":"address"}]},{"type":"error","name":"CallerIsNotRaft","inputs":[{"name":"caller","type":"address","internalType":"address"}]},{"type":"error","name":"CallerIsNotRaftOrCommander","inputs":[{"name":"caller","type":"address","internalType":"address"}]},{"type":"error","name":"CallerIsNotSuperKeeper","inputs":[{"name":"caller","type":"address","internalType":"address"}]},{"type":"error","name":"CannotAddCommanderToArkWithCommander","inputs":[]},{"type":"error","name":"CannotDeployArkWithEmptyName","inputs":[]},{"type":"error","name":"CannotDeployArkWithoutConfigurationManager","inputs":[]},{"type":"error","name":"CannotDeployArkWithoutRaft","inputs":[]},{"type":"error","name":"CannotDeployArkWithoutToken","inputs":[]},{"type":"error","name":"CannotRemoveCommanderFromArkWithAssets","inputs":[]},{"type":"error","name":"CannotUseKeeperDataWhenNotRequired","inputs":[]},{"type":"error","name":"ConfigurationManagerZeroAddress","inputs":[]},{"type":"error","name":"DirectGrantIsDisabled","inputs":[{"name":"caller","type":"address","internalType":"address"}]},{"type":"error","name":"DirectRevokeIsDisabled","inputs":[{"name":"caller","type":"address","internalType":"address"}]},{"type":"error","name":"ERC4626AssetMismatch","inputs":[]},{"type":"error","name":"InvalidAccessManagerAddress","inputs":[{"name":"invalidAddress","type":"address","internalType":"address"}]},{"type":"error","name":"InvalidAssetForSY","inputs":[]},{"type":"error","name":"InvalidBoardData","inputs":[]},{"type":"error","name":"InvalidDisembarkData","inputs":[]},{"type":"error","name":"InvalidNextMarket","inputs":[]},{"type":"error","name":"InvalidVaultAddress","inputs":[]},{"type":"error","name":"KeeperDataRequired","inputs":[]},{"type":"error","name":"MarketExpired","inputs":[]},{"type":"error","name":"OracleDurationTooLow","inputs":[{"name":"providedDuration","type":"uint32","internalType":"uint32"},{"name":"minimumDuration","type":"uint256","internalType":"uint256"}]},{"type":"error","name":"OracleNotReady","inputs":[]},{"type":"error","name":"ReentrancyGuardReentrantCall","inputs":[]},{"type":"error","name":"SafeERC20FailedOperation","inputs":[{"name":"token","type":"address","internalType":"address"}]},{"type":"error","name":"SlippagePercentageTooHigh","inputs":[{"name":"providedSlippage","type":"uint256","internalType":"Percentage"},{"name":"maxSlippage","type":"uint256","internalType":"Percentage"}]}],"bytecode":{"object":"0x60e060405234801561000f575f5ffd5b5060405161461138038061461183398101604081905261002e91610931565b83838383808080604001518160200151805f6001600160a01b0316816001600160a01b031603610078576040516347bd7c1d60e01b81525f60048201526024015b60405180910390fd5b6040516301ffc9a760e01b815263fe1a291f60e01b60048201526001600160a01b038216906301ffc9a790602401602060405180830381865afa1580156100c1573d5f5f3e3d5ffd5b505050506040513d601f19601f820116820180604052508101906100e59190610a45565b61010d576040516347bd7c1d60e01b81526001600160a01b038216600482015260240161006f565b5f80546001600160a01b0319166001600160a01b03928316179055821690506101495760405163f1634df960e01b815260040160405180910390fd5b6001600160a01b0390811660805260408201511661017a5760405163b53c493160e01b815260040160405180910390fd5b60608101516001600160a01b03166101a8576040516001620a810f60e11b0319815260040160405180910390fd5b8051515f036101ca5760405163268c072960e01b815260040160405180910390fd5b5f6101d3610375565b6001600160a01b0316036101fa57604051633a4f9cdb60e21b815260040160405180910390fd5b6040805161012081019091525f815260208101610215610375565b6001600160a01b039081168252606080850151821660208085019190915260808087015160408087019190915260a0808901518588015260c0808a01518489015289518289015260e0808b01511515828a01526101008b01519801979097528751600180549188166001600160a01b03199283161781559489015160028054918916918316919091179055918801516003805491909716921691909117909455918501516004559084015160055590830151600655908201516007906102db9082610ae2565b5060e082015160078201805460ff19169115159190911790556101009091015160089091015550506001600160a01b0382811660a052831660c052600a805463ffffffff60a01b191660e160a31b17905561033960056103e86103dd565b600e556103575f1960115561010060135566038d7ea4c68000601455565b61036084610413565b6103686105d4565b5050505050505050610d57565b5f6080516001600160a01b031663117d8ae06040518163ffffffff1660e01b8152600401602060405180830381865afa1580156103b4573d5f5f3e3d5ffd5b505050506040513d601f19601f820116820180604052508101906103d89190610b9c565b905090565b5f816103eb6012600a610cb5565b6103f59085610cc0565b610400906064610cc0565b61040a9190610cd7565b90505b92915050565b600a80546001600160a01b0319166001600160a01b03831690811790915560408051630b2339af60e21b81529051632c8ce6bc916004808201926060929091908290030181865afa15801561046a573d5f5f3e3d5ffd5b505050506040513d601f19601f8201168201806040525081019061048e9190610cf6565b600d80546001600160a01b03199081166001600160a01b0393841617909155600c8054821693831693909317909255600b8054909216928116928317909155600354604051637d2d278360e11b81529116600482015263fa5a4f0690602401602060405180830381865afa158015610508573d5f5f3e3d5ffd5b505050506040513d601f19601f8201168201806040525081019061052c9190610a45565b15806105a35750600b54600354604051633c21b3eb60e11b81526001600160a01b03918216600482015291169063784367d690602401602060405180830381865afa15801561057d573d5f5f3e3d5ffd5b505050506040513d601f19601f820116820180604052508101906105a19190610a45565b155b156105c157604051631bda904d60e31b815260040160405180910390fd5b6105c961064d565b6105d16105d4565b50565b600a5f9054906101000a90046001600160a01b03166001600160a01b031663e184c9be6040518163ffffffff1660e01b8152600401602060405180830381865afa158015610624573d5f5f3e3d5ffd5b505050506040513d601f19601f820116820180604052508101906106489190610d40565b600f55565b600b5460035461066b916001600160a01b0391821691165f196106bf565b60a051600354610688916001600160a01b03909116905f196106bf565b60a051600a546106a5916001600160a01b03909116905f196106bf565b600a546106bd906001600160a01b0316805f196106bf565b565b604080516001600160a01b038416602482015260448082018490528251808303909101815260649091019091526020810180516001600160e01b0390811663095ea7b360e01b17909152610717908590839061078316565b61077d57604080516001600160a01b03851660248201525f6044808301919091528251808303909101815260649091019091526020810180516001600160e01b0390811663095ea7b360e01b179091526107739186916107cc16565b61077d84826107cc565b50505050565b5f5f5f5f60205f8651602088015f8a5af192503d91505f5190508280156107c2575081156107b457806001146107c2565b5f866001600160a01b03163b115b9695505050505050565b5f5f60205f8451602086015f885af1806107eb576040513d5f823e3d81fd5b50505f513d9150811561080257806001141561080f565b6001600160a01b0384163b155b1561077d57604051635274afe760e01b81526001600160a01b038516600482015260240161006f565b6001600160a01b03811681146105d1575f5ffd5b805161085781610838565b919050565b634e487b7160e01b5f52604160045260245ffd5b60405161012081016001600160401b03811182821017156108935761089361085c565b60405290565b5f82601f8301126108a8575f5ffd5b81516001600160401b038111156108c1576108c161085c565b604051601f8201601f19908116603f011681016001600160401b03811182821017156108ef576108ef61085c565b604052818152838201602001851015610906575f5ffd5b8160208501602083015e5f918101602001919091529392505050565b80518015158114610857575f5ffd5b5f5f5f5f60808587031215610944575f5ffd5b845161094f81610838565b602086015190945061096081610838565b604086015190935061097181610838565b60608601519092506001600160401b0381111561098c575f5ffd5b8501610120818803121561099e575f5ffd5b6109a6610870565b81516001600160401b038111156109bb575f5ffd5b6109c789828501610899565b8252506109d66020830161084c565b60208201526109e76040830161084c565b60408201526109f86060830161084c565b60608201526080828101519082015260a0808301519082015260c08083015190820152610a2760e08301610922565b60e08201526101009182015191810191909152939692955090935050565b5f60208284031215610a55575f5ffd5b61040a82610922565b600181811c90821680610a7257607f821691505b602082108103610a9057634e487b7160e01b5f52602260045260245ffd5b50919050565b601f821115610add57805f5260205f20601f840160051c81016020851015610abb5750805b601f840160051c820191505b81811015610ada575f8155600101610ac7565b50505b505050565b81516001600160401b03811115610afb57610afb61085c565b610b0f81610b098454610a5e565b84610a96565b6020601f821160018114610b41575f8315610b2a5750848201515b5f19600385901b1c1916600184901b178455610ada565b5f84815260208120601f198516915b82811015610b705787850151825560209485019460019092019101610b50565b5084821015610b8d57868401515f19600387901b60f8161c191681555b50505050600190811b01905550565b5f60208284031215610bac575f5ffd5b8151610bb781610838565b9392505050565b634e487b7160e01b5f52601160045260245ffd5b6001815b6001841115610c0d57808504811115610bf157610bf1610bbe565b6001841615610bff57908102905b60019390931c928002610bd6565b935093915050565b5f82610c235750600161040d565b81610c2f57505f61040d565b8160018114610c455760028114610c4f57610c6b565b600191505061040d565b60ff841115610c6057610c60610bbe565b50506001821b61040d565b5060208310610133831016604e8410600b8410161715610c8e575081810a61040d565b610c9a5f198484610bd2565b805f1904821115610cad57610cad610bbe565b029392505050565b5f61040a8383610c15565b808202811582820484141761040d5761040d610bbe565b5f82610cf157634e487b7160e01b5f52601260045260245ffd5b500490565b5f5f5f60608486031215610d08575f5ffd5b8351610d1381610838565b6020850151909350610d2481610838565b6040850151909250610d3581610838565b809150509250925092565b5f60208284031215610d50575f5ffd5b5051919050565b60805160a05160c05161384a610dc75f395f81816104240152818161204e015261250f01525f81816105b601528181612409015281816128be01528181612939015261297101525f81816104fb0152818161084b01528181610bed01528181610c4a0152611380015261384a5ff3fe608060405234801561000f575f5ffd5b506004361061026b575f3560e01c806380f556051161014b578063c3f909d4116100bf578063dbd5edc711610084578063dbd5edc71461056f578063ebf3113114610577578063ec2138651461057f578063f66a774914610599578063f887ea40146105b1578063fc0c546a146105d8575f5ffd5b8063c3f909d4146104e1578063c9c667e3146104f6578063ce5c7f611461051d578063cefba47414610530578063d94073d41461055c575f5ffd5b8063930ec27711610110578063930ec27714610490578063ad5a356f14610498578063afd27bf5146104a0578063bdcdd882146104b3578063c05bd92d146104bb578063c38a6f0b146104ce575f5ffd5b806380f556051461044657806386651203146104595780638a8b99761461046c5780638f1d3f001461047457806392f5e8321461047d575f5ffd5b80634452d81c116101e257806369b3054b116101a757806369b3054b146103b3578063780469bb146103c6578063781c18db146103e757806379502c55146103fa5780637aaceb95146104175780637dc0d1d01461041f575f5ffd5b80634452d81c146103745780634fc7fac31461037d5780635b0f83f31461039057806361d027b31461039857806361f5cd8b146103a0575f5ffd5b80631deae8c6116102335780631deae8c6146102e7578063256d8a23146102f05780632db6d39914610332578063303dbaf3146103455780633194549e1461035b5780633727093614610363575f5ffd5b806301e1d1141461026f57806303baf0661461028a57806306fdde031461029f578063117d8ae0146102b457806313c408f8146102d4575b5f5ffd5b6102776105e9565b6040519081526020015b60405180910390f35b61029d610298366004612a28565b610620565b005b6102a76107b5565b6040516102819190612a6d565b6102bc610848565b6040516001600160a01b039091168152602001610281565b61029d6102e2366004612abc565b6108c9565b61027761038481565b60105460115460125460135460145461030a949392919085565b604080519586526020860194909452928401919091526060830152608082015260a001610281565b61029d610340366004612abc565b61098d565b60085460ff166040519015158152602001610281565b600554610277565b6001546001600160a01b03166102bc565b610277600e5481565b61029d61038b366004612a28565b610ba3565b6102bc610bea565b6102bc610c47565b61029d6103ae366004612a28565b610ca4565b6102776103c1366004612b17565b610ceb565b6103d96103d4366004612bb7565b610d1e565b604051610281929190612c4b565b600d546102bc906001600160a01b031681565b6104026112b2565b60405161028199989796959493929190612cd4565b6102bc61137d565b6102bc7f000000000000000000000000000000000000000000000000000000000000000081565b600a546102bc906001600160a01b031681565b61029d610467366004612a28565b6113da565b61029d611421565b610277600f5481565b61029d61048b366004612a28565b61147e565b6102776114c5565b600654610277565b600b546102bc906001600160a01b031681565b600954610277565b61029d6104c9366004612d36565b6114df565b61029d6104dc366004612d59565b611662565b6104e96117b3565b6040516102819190612de2565b6102bc7f000000000000000000000000000000000000000000000000000000000000000081565b6103d961052b366004612e93565b6118f8565b600a5461054790600160a01b900463ffffffff1681565b60405163ffffffff9091168152602001610281565b600c546102bc906001600160a01b031681565b600454610277565b61029d6119f2565b733d1e7312de9b8fc246dded971ee7547b0a80592a6102bc565b6105a1611a44565b6040516102819493929190612ef5565b6102bc7f000000000000000000000000000000000000000000000000000000000000000081565b6003546001600160a01b03166102bc565b5f600f5442101561061557610610600e5461060a610605611af6565b611b61565b90611b87565b905090565b610610610605611af6565b5f5460408051630ccc574960e41b815290516001600160a01b03909216916391d1485491839163ccc57490916004808201926020929091908290030181865afa15801561066f573d5f5f3e3d5ffd5b505050506040513d601f19601f820116820180604052508101906106939190612f3a565b6040516001600160e01b031960e084901b1681526004810191909152336024820152604401602060405180830381865afa1580156106d3573d5f5f3e3d5ffd5b505050506040513d601f19601f820116820180604052508101906106f79190612f65565b61071b57604051630ea7d7ed60e21b81523360048201526024015b60405180910390fd5b61073a8161072b6012600a613075565b610736906064613080565b1090565b15610779578061074c6012600a613075565b610757906064613080565b6040516328e9045960e11b815260048101929092526024820152604401610712565b600e8190556040518181527ff5a802650e0a86db227cc342f06327d2ca0ff5cf2b12e0084fc5d8a7db2c54fd906020015b60405180910390a150565b6060600160060180546107c790613097565b80601f01602080910402602001604051908101604052809291908181526020018280546107f390613097565b801561083e5780601f106108155761010080835404028352916020019161083e565b820191905f5260205f20905b81548152906001019060200180831161082157829003601f168201915b5050505050905090565b5f7f00000000000000000000000000000000000000000000000000000000000000006001600160a01b031663117d8ae06040518163ffffffff1660e01b8152600401602060405180830381865afa1580156108a5573d5f5f3e3d5ffd5b505050506040513d601f19601f8201168201806040525081019061061091906130cf565b6108d1611bb8565b6108fc57335b604051631564c0e160e11b81526001600160a01b039091166004820152602401610712565b610904611c41565b81816109108282611cb0565b3361091c868686611d12565b600354610933906001600160a01b03168288611d74565b600354604080516001600160a01b03928316815260208101899052918316917fd5e872c5ecfb1bb8820b2e6a20e31b883682282da886621541f71e31ec11947e910160405180910390a2505050610988611dd3565b505050565b610995611c41565b306001600160a01b031663372709366040518163ffffffff1660e01b8152600401602060405180830381865afa1580156109d1573d5f5f3e3d5ffd5b505050506040513d601f19601f820116820180604052508101906109f591906130cf565b6109fd611bb8565b610b1c575f3390505f306001600160a01b031663117d8ae06040518163ffffffff1660e01b8152600401602060405180830381865afa158015610a42573d5f5f3e3d5ffd5b505050506040513d601f19601f82011682018060405250810190610a6691906130cf565b6001600160a01b0316826001600160a01b031614905080610b195760405163d25dd10160e01b81526001600160a01b0383811660048301525f919085169063d25dd10190602401602060405180830381865afa158015610ac8573d5f5f3e3d5ffd5b505050506040513d601f19601f82011682018060405250810190610aec9190612f65565b905080610b1757604051638f7a567d60e01b81526001600160a01b0384166004820152602401610712565b505b50505b8282610b288282611cb0565b6003543390610b42906001600160a01b031682308a611dfd565b610b4d878787611e3c565b600354604080516001600160a01b039283168152602081018a9052918316917fcbaa1442ac205415c9d69643e7b60ec73d1de35dbc807c21ec288c70ddc4207b910160405180910390a250505050610988611dd3565b610bab611bb8565b610bb557336108d7565b60098190556040518181527fd3c6d0ab315f2f1352f036cd9f401b49e38e1b90907e195225e8105f9a0b6f02906020016107aa565b5f7f00000000000000000000000000000000000000000000000000000000000000006001600160a01b0316635b0f83f36040518163ffffffff1660e01b8152600401602060405180830381865afa1580156108a5573d5f5f3e3d5ffd5b5f7f00000000000000000000000000000000000000000000000000000000000000006001600160a01b03166361d027b36040518163ffffffff1660e01b8152600401602060405180830381865afa1580156108a5573d5f5f3e3d5ffd5b610cac611bb8565b610cb657336108d7565b60058190556040518181527ffbe2d5c01ea8ba5596d6c4e6c82c6d4a0a0ee1128689993a4a5ba0169273d69f906020016107aa565b5f8282604051602001610cff9291906130ea565b6040516020818303038152906040528051906020012090505b92915050565b606080306001600160a01b031663117d8ae06040518163ffffffff1660e01b8152600401602060405180830381865afa158015610d5d573d5f5f3e3d5ffd5b505050506040513d601f19601f82011682018060405250810190610d8191906130cf565b6001600160a01b0316336001600160a01b031614610dc057335b604051631184b31b60e21b81526001600160a01b039091166004820152602401610712565b610dc8611c41565b82516001600160401b03811115610de157610de1612b51565b604051908082528060200260200182016040528015610e0a578160200160208202803683370190505b50915082516001600160401b03811115610e2657610e26612b51565b604051908082528060200260200182016040528015610e4f578160200160208202803683370190505b506003546040516370a0823160e01b81523060048201529192505f916001600160a01b03909116906370a0823190602401602060405180830381865afa158015610e9b573d5f5f3e3d5ffd5b505050506040513d601f19601f82011682018060405250810190610ebf9190612f3a565b111561108357600154604080516330fe427560e21b815290515f926001600160a01b03169163c3f909d49160048083019260a09291908290030181865afa158015610f0c573d5f5f3e3d5ffd5b505050506040513d601f19601f82011682018060405250810190610f309190613121565b516003546040516370a0823160e01b8152306004820152919250610fb59183916001600160a01b0316906370a0823190602401602060405180830381865afa158015610f7e573d5f5f3e3d5ffd5b505050506040513d601f19601f82011682018060405250810190610fa29190612f3a565b6003546001600160a01b03169190611e4d565b6003546040516370a0823160e01b81523060048201526001600160a01b0383811692632db6d399929116906370a0823190602401602060405180830381865afa158015611004573d5f5f3e3d5ffd5b505050506040513d601f19601f820116820180604052508101906110289190612f3a565b60405180602001604052805f8152506040518363ffffffff1660e01b815260040161105492919061319d565b5f604051808303815f87803b15801561106b575f5ffd5b505af115801561107d573d5f5f3e3d5ffd5b50505050505b5f5b8351811015611251575f8482815181106110a1576110a16131b5565b60209081029190910101516040516370a0823160e01b81523060048201526001600160a01b03909116906370a0823190602401602060405180830381865afa1580156110ef573d5f5f3e3d5ffd5b505050506040513d601f19601f820116820180604052508101906111139190612f3a565b90508015611248576111dc611126610848565b868481518110611138576111386131b5565b60209081029190910101516040516370a0823160e01b81523060048201526001600160a01b03909116906370a0823190602401602060405180830381865afa158015611186573d5f5f3e3d5ffd5b505050506040513d601f19601f820116820180604052508101906111aa9190612f3a565b8785815181106111bc576111bc6131b5565b60200260200101516001600160a01b0316611d749092919063ffffffff16565b8482815181106111ee576111ee6131b5565b6020026020010151848381518110611208576112086131b5565b60200260200101906001600160a01b031690816001600160a01b0316815250508083838151811061123b5761123b6131b5565b6020026020010181815250505b50600101611085565b508060405161126091906131c9565b60405180910390208260405161127691906131fe565b604051908190038120907f46b8771620f6acf56cb03d3e835ea8024c7dcbcf05fcc3f6ade9e19d1a3e212b905f90a36112ad611dd3565b915091565b60018054600254600354600454600554600654600780546001600160a01b039788169896881697909516959394929391926112ec90613097565b80601f016020809104026020016040519081016040528092919081815260200182805461131890613097565b80156113635780601f1061133a57610100808354040283529160200191611363565b820191905f5260205f20905b81548152906001019060200180831161134657829003601f168201915b505050506007830154600890930154919260ff1691905089565b5f7f00000000000000000000000000000000000000000000000000000000000000006001600160a01b0316637aaceb956040518163ffffffff1660e01b8152600401602060405180830381865afa1580156108a5573d5f5f3e3d5ffd5b6113e2611bb8565b6113ec57336108d7565b60048190556040518181527f333b26cca69716ad4680ddb07663f5bfb4f06045671f336af9a83690a3ae00f9906020016107aa565b611429611bb8565b61143357336108d7565b600180546001600160a01b031916339081179091556040519081527f55489ce0259bd691120d8860861be1c401c7c16a3cd268d21045756af4ecc5ca906020015b60405180910390a1565b611486611bb8565b61149057336108d7565b60068190556040518181527fb6ac66853c4e59c71e118d25ab494bb847c4e5eb0c8894898c5343e6f61afc12906020016107aa565b6114d16012600a613075565b6114dc906064613080565b81565b5f5460408051630ccc574960e41b815290516001600160a01b03909216916391d1485491839163ccc57490916004808201926020929091908290030181865afa15801561152e573d5f5f3e3d5ffd5b505050506040513d601f19601f820116820180604052508101906115529190612f3a565b6040516001600160e01b031960e084901b1681526004810191909152336024820152604401602060405180830381865afa158015611592573d5f5f3e3d5ffd5b505050506040513d601f19601f820116820180604052508101906115b69190612f65565b6115d557604051630ea7d7ed60e21b8152336004820152602401610712565b6103848163ffffffff16101561160e57604051630d33f2b360e21b815263ffffffff821660048201526103846024820152604401610712565b600a805463ffffffff60a01b1916600160a01b63ffffffff8416908102919091179091556040519081527f4b3aa5c9fb94258bcc25dd74639341b3baf9771cfb27c62dbc11af634747aa4d906020016107aa565b61166a611bb8565b61167457336108d7565b81816116808282611cb0565b61168b888585611d12565b60035460405163095ea7b360e01b81526001600160a01b038981166004830152602482018b90529091169063095ea7b3906044016020604051808303815f875af11580156116db573d5f5f3e3d5ffd5b505050506040513d601f19601f820116820180604052508101906116ff9190612f65565b50604051632db6d39960e01b81526001600160a01b03881690632db6d39990611730908b908a908a90600401613231565b5f604051808303815f87803b158015611747575f5ffd5b505af1158015611759573d5f5f3e3d5ffd5b5050600354604080516001600160a01b039283168152602081018d9052918b1693503092507f9f784fc02a186f1c98b2d9f15fda084da27cdd291a3785d978f91911d880516b910160405180910390a35050505050505050565b60408051610120810182525f8082526020820181905291810182905260608082018390526080820183905260a0820183905260c082015260e081018290526101008101919091526040805161012081018252600180546001600160a01b0390811683526002548116602084015260035416928201929092526004546060820152600554608082015260065460a08201526007805491929160c08401919061185990613097565b80601f016020809104026020016040519081016040528092919081815260200182805461188590613097565b80156118d05780601f106118a7576101008083540402835291602001916118d0565b820191905f5260205f20905b8154815290600101906020018083116118b357829003601f168201915b5050509183525050600782015460ff1615156020820152600890910154604090910152919050565b606080306001600160a01b031663117d8ae06040518163ffffffff1660e01b8152600401602060405180830381865afa158015611937573d5f5f3e3d5ffd5b505050506040513d601f19601f8201168201806040525081019061195b91906130cf565b6001600160a01b0316336001600160a01b0316146119795733610d9b565b611981611c41565b61198b8484611edc565b604051919350915061199e9082906131c9565b6040518091039020826040516119b491906131fe565b604051908190038120907f3e3e7958121b3e39c7a49392d1aa9cdce870c2a059744f9e15cf66fff7865455905f90a36119eb611dd3565b9250929050565b6119fa611bb8565b611a0457336108d7565b600180546001600160a01b03191690556040513381527f7cb941d7b1708e5b3bcd35ca960d6c6311188cec18886e5b67630552676b048790602001611474565b601a8054601b805460ff8316936101009093046001600160a01b0316929190611a6c90613097565b80601f0160208091040260200160405190810160405280929190818152602001828054611a9890613097565b8015611ae35780601f10611aba57610100808354040283529160200191611ae3565b820191905f5260205f20905b815481529060010190602001808311611ac657829003601f168201915b5050506002909301549192505060ff1684565b600a546040516370a0823160e01b81523060048201525f916001600160a01b0316906370a08231906024015b602060405180830381865afa158015611b3d573d5f5f3e3d5ffd5b505050506040513d601f19601f820116820180604052508101906106109190612f3a565b5f670de0b6b3a7640000611b73612017565b611b7d9084613080565b610d189190613266565b5f611bb183611bac611b9b6012600a613075565b611ba6906064613080565b8561207d565b612088565b9392505050565b5f80546001600160a01b03166391d14854611bd4600230610ceb565b336040516001600160e01b031960e085901b16815260048101929092526001600160a01b03166024820152604401602060405180830381865afa158015611c1d573d5f5f3e3d5ffd5b505050506040513d601f19601f820116820180604052508101906106109190612f65565b7f9b779b17422d0df92223018b32b4d1fa46e071723d6817e2486d003becc55f005c15611c8157604051633ee5aeb560e01b815260040160405180910390fd5b611cae60017f9b779b17422d0df92223018b32b4d1fa46e071723d6817e2486d003becc55f005b906120b4565b565b8015801590611cc2575060085460ff16155b15611ce057604051630cd0fdf960e01b815260040160405180910390fd5b80158015611cf0575060085460ff165b15611d0e5760405163332863a960e11b815260040160405180910390fd5b5050565b611d1a6120bb565b600f544210611d2d5761098883846121c2565b5f611d36611af6565b90505f611d4e600e54611d48876121d8565b906121f3565b90505f828211611d5e5781611d60565b825b9050611d6c8187612218565b505050505050565b6040516001600160a01b0383811660248301526044820183905261098891859182169063a9059cbb906064015b604051602081830303815290604052915060e01b6020820180516001600160e01b038381831617835250505050612222565b611cae5f7f9b779b17422d0df92223018b32b4d1fa46e071723d6817e2486d003becc55f00611ca8565b6040516001600160a01b038481166024830152838116604483015260648201839052611e369186918216906323b872dd90608401611da1565b50505050565b611e446120bb565b6109888361228e565b604080516001600160a01b038416602482015260448082018490528251808303909101815260649091019091526020810180516001600160e01b031663095ea7b360e01b179052611e9e848261248c565b611e36576040516001600160a01b0384811660248301525f6044830152611ed291869182169063095ea7b390606401611da1565b611e368482612222565b606080600a5f9054906101000a90046001600160a01b03166001600160a01b031663c4f59f9b6040518163ffffffff1660e01b81526004015f60405180830381865afa158015611f2e573d5f5f3e3d5ffd5b505050506040513d5f823e601f3d908101601f19168201604052611f559190810190613285565b600a54604051639262187b60e01b81523060048201529193506001600160a01b031690639262187b906024015f604051808303815f875af1158015611f9c573d5f5f3e3d5ffd5b505050506040513d5f823e601f3d908101601f19168201604052611fc39190810190613314565b90505f5b825181101561200f57612007611fdb610848565b838381518110611fed57611fed6131b5565b60200260200101518584815181106111bc576111bc6131b5565b600101611fc7565b509250929050565b600a54604051636cda983360e01b81526001600160a01b038083166004830152600160a01b90920463ffffffff1660248201525f917f00000000000000000000000000000000000000000000000000000000000000001690636cda983390604401611b22565b5f611bb1828461339a565b5f6120956012600a613075565b6120a0906064613080565b6120aa8385613080565b611bb19190613266565b80825d5050565b600f544210156120c757565b5f306001600160a01b031663ec2138656040518163ffffffff1660e01b8152600401602060405180830381865afa158015612104573d5f5f3e3d5ffd5b505050506040513d601f19601f8201168201806040525081019061212891906130cf565b90506001600160a01b038116158061214d5750600a546001600160a01b038281169116145b1561216b576040516301fb70bf60e21b815260040160405180910390fd5b612174816124d5565b61217b5750565b612183612590565b61218c816125b7565b6040516001600160a01b038216907f3b7aba7495f95b008f26fc1548021f2fb059ad26ef38f422178347e2b5859898905f90a250565b5f6121cc836121d8565b90506109888183612778565b5f6121e1612017565b611b7d670de0b6b3a764000084613080565b5f611bb183611bac6122076012600a613075565b612212906064613080565b856128fe565b611d0e8282612778565b5f5f60205f8451602086015f885af180612241576040513d5f823e3d81fd5b50505f513d91508115612258578060011415612265565b6001600160a01b0384163b155b15611e3657604051635274afe760e01b81526001600160a01b0385166004820152602401610712565b600f5442106122b05760405163b2094b5960e01b815260040160405180910390fd5b5f6122c0600e5461060a846121d8565b6040805160a081018252600380546001600160a01b031680835260208301879052828401525f6060830181905283516080818101909552601a8054969750919593948501939092839160ff169081111561231c5761231c612ed1565b600381111561232d5761232d612ed1565b8152815461010090046001600160a01b0316602082015260018201805460409092019161235990613097565b80601f016020809104026020016040519081016040528092919081815260200182805461238590613097565b80156123d05780601f106123a7576101008083540402835291602001916123d0565b820191905f5260205f20905b8154815290600101906020018083116123b357829003601f168201915b50505091835250506002919091015460ff1615156020909101529052600a5460405163092ccd6360e11b81529192506001600160a01b037f00000000000000000000000000000000000000000000000000000000000000008116926312599ac69261244c92309291169087906010908890601590600401613671565b6060604051808303815f875af1158015612468573d5f5f3e3d5ffd5b505050506040513d601f19601f82011682018060405250810190611d6c91906136f4565b5f5f5f5f60205f8651602088015f8a5af192503d91505f5190508280156124cb575081156124bd57806001146124cb565b5f866001600160a01b03163b115b9695505050505050565b600a5460405162439f4b60e91b81526001600160a01b038381166004830152600160a01b90920463ffffffff1660248201525f91829182917f0000000000000000000000000000000000000000000000000000000000000000169063873e960090604401606060405180830381865afa158015612554573d5f5f3e3d5ffd5b505050506040513d601f19601f82011682018060405250810190612578919061371f565b9250509150811580156125885750805b949350505050565b5f612599611af6565b90505f6125a582611b61565b90508115611d0e57611d0e8282612778565b600a80546001600160a01b0319166001600160a01b03831690811790915560408051630b2339af60e21b81529051632c8ce6bc916004808201926060929091908290030181865afa15801561260e573d5f5f3e3d5ffd5b505050506040513d601f19601f820116820180604052508101906126329190613767565b600d80546001600160a01b03199081166001600160a01b0393841617909155600c8054821693831693909317909255600b8054909216928116928317909155600354604051637d2d278360e11b81529116600482015263fa5a4f0690602401602060405180830381865afa1580156126ac573d5f5f3e3d5ffd5b505050506040513d601f19601f820116820180604052508101906126d09190612f65565b15806127475750600b54600354604051633c21b3eb60e11b81526001600160a01b03918216600482015291169063784367d690602401602060405180830381865afa158015612721573d5f5f3e3d5ffd5b505050506040513d601f19601f820116820180604052508101906127459190612f65565b155b1561276557604051631bda904d60e31b815260040160405180910390fd5b61276d612909565b6127756129af565b50565b6040805160a081018252600380546001600160a01b031680835260208301859052828401525f6060830181905283516080818101909552601a8054929585019391929091839160ff16908111156127d1576127d1612ed1565b60038111156127e2576127e2612ed1565b8152815461010090046001600160a01b0316602082015260018201805460409092019161280e90613097565b80601f016020809104026020016040519081016040528092919081815260200182805461283a90613097565b80156128855780601f1061285c57610100808354040283529160200191612885565b820191905f5260205f20905b81548152906001019060200180831161286857829003601f168201915b50505091835250506002919091015460ff1615156020909101529052600a54604051630306d04360e51b81529192506001600160a01b037f00000000000000000000000000000000000000000000000000000000000000008116926360da08609261244c923092911690889087906015906004016137b1565b5f611bb18284613801565b600b54600354612927916001600160a01b0391821691165f19611e4d565b60035461295f906001600160a01b03167f00000000000000000000000000000000000000000000000000000000000000005f19611e4d565b600a54612997906001600160a01b03167f00000000000000000000000000000000000000000000000000000000000000005f19611e4d565b600a54611cae906001600160a01b0316805f19611e4d565b600a5f9054906101000a90046001600160a01b03166001600160a01b031663e184c9be6040518163ffffffff1660e01b8152600401602060405180830381865afa1580156129ff573d5f5f3e3d5ffd5b505050506040513d601f19601f82011682018060405250810190612a239190612f3a565b600f55565b5f60208284031215612a38575f5ffd5b5035919050565b5f81518084528060208401602086015e5f602082860101526020601f19601f83011685010191505092915050565b602081525f611bb16020830184612a3f565b5f5f83601f840112612a8f575f5ffd5b5081356001600160401b03811115612aa5575f5ffd5b6020830191508360208285010111156119eb575f5ffd5b5f5f5f60408486031215612ace575f5ffd5b8335925060208401356001600160401b03811115612aea575f5ffd5b612af686828701612a7f565b9497909650939450505050565b6001600160a01b0381168114612775575f5ffd5b5f5f60408385031215612b28575f5ffd5b823560038110612b36575f5ffd5b91506020830135612b4681612b03565b809150509250929050565b634e487b7160e01b5f52604160045260245ffd5b604051601f8201601f191681016001600160401b0381118282101715612b8d57612b8d612b51565b604052919050565b5f6001600160401b03821115612bad57612bad612b51565b5060051b60200190565b5f60208284031215612bc7575f5ffd5b81356001600160401b03811115612bdc575f5ffd5b8201601f81018413612bec575f5ffd5b8035612bff612bfa82612b95565b612b65565b8082825260208201915060208360051b850101925086831115612c20575f5ffd5b6020840193505b828410156124cb578335612c3a81612b03565b825260209384019390910190612c27565b604080825283519082018190525f9060208501906060840190835b81811015612c8d5783516001600160a01b0316835260209384019390920191600101612c66565b5050838103602080860191909152855180835291810192508501905f5b81811015612cc8578251845260209384019390920191600101612caa565b50919695505050505050565b6001600160a01b038a81168252898116602083015288166040820152606081018790526080810186905260a0810185905261012060c082018190525f90612d1d90830186612a3f565b93151560e0830152506101000152979650505050505050565b5f60208284031215612d46575f5ffd5b813563ffffffff81168114611bb1575f5ffd5b5f5f5f5f5f5f60808789031215612d6e575f5ffd5b863595506020870135612d8081612b03565b945060408701356001600160401b03811115612d9a575f5ffd5b612da689828a01612a7f565b90955093505060608701356001600160401b03811115612dc4575f5ffd5b612dd089828a01612a7f565b979a9699509497509295939492505050565b60208152612dfc6020820183516001600160a01b03169052565b5f6020830151612e1760408401826001600160a01b03169052565b5060408301516001600160a01b03811660608401525060608301516080830152608083015160a083015260a083015160c083015260c083015161012060e0840152612e66610140840182612a3f565b905060e0840151612e7c61010085018215159052565b506101008401516101208401528091505092915050565b5f5f60208385031215612ea4575f5ffd5b82356001600160401b03811115612eb9575f5ffd5b612ec585828601612a7f565b90969095509350505050565b634e487b7160e01b5f52602160045260245ffd5b6004811061277557612775612ed1565b612efe85612ee5565b8481526001600160a01b03841660208201526080604082018190525f90612f2790830185612a3f565b9050821515606083015295945050505050565b5f60208284031215612f4a575f5ffd5b5051919050565b80518015158114612f60575f5ffd5b919050565b5f60208284031215612f75575f5ffd5b611bb182612f51565b634e487b7160e01b5f52601160045260245ffd5b6001815b6001841115612fcd57808504811115612fb157612fb1612f7e565b6001841615612fbf57908102905b60019390931c928002612f96565b935093915050565b5f82612fe357506001610d18565b81612fef57505f610d18565b8160018114613005576002811461300f5761302b565b6001915050610d18565b60ff84111561302057613020612f7e565b50506001821b610d18565b5060208310610133831016604e8410600b841016171561304e575081810a610d18565b61305a5f198484612f92565b805f190482111561306d5761306d612f7e565b029392505050565b5f611bb18383612fd5565b8082028115828204841417610d1857610d18612f7e565b600181811c908216806130ab57607f821691505b6020821081036130c957634e487b7160e01b5f52602260045260245ffd5b50919050565b5f602082840312156130df575f5ffd5b8151611bb181612b03565b5f600384106130fb576130fb612ed1565b5060f89290921b825260601b6bffffffffffffffffffffffff1916600182015260150190565b5f60a0828403128015613132575f5ffd5b5060405160a081016001600160401b038111828210171561315557613155612b51565b604052825161316381612b03565b8152602083810151908201526040808401519082015260608084015190820152608083015161319181612b03565b60808201529392505050565b828152604060208201525f6125886040830184612a3f565b634e487b7160e01b5f52603260045260245ffd5b81515f90829060208501835b828110156131f35781518452602093840193909101906001016131d5565b509195945050505050565b81515f90829060208501835b828110156131f35781516001600160a01b031684526020938401939091019060010161320a565b83815260406020820152816040820152818360608301375f818301606090810191909152601f909201601f1916010192915050565b5f8261328057634e487b7160e01b5f52601260045260245ffd5b500490565b5f60208284031215613295575f5ffd5b81516001600160401b038111156132aa575f5ffd5b8201601f810184136132ba575f5ffd5b80516132c8612bfa82612b95565b8082825260208201915060208360051b8501019250868311156132e9575f5ffd5b6020840193505b828410156124cb57835161330381612b03565b8252602093840193909101906132f0565b5f60208284031215613324575f5ffd5b81516001600160401b03811115613339575f5ffd5b8201601f81018413613349575f5ffd5b8051613357612bfa82612b95565b8082825260208201915060208360051b850101925086831115613378575f5ffd5b6020840193505b828410156124cb57835182526020938401939091019061337f565b81810381811115610d1857610d18612f7e565b60018060a01b0381511682526020810151602083015260018060a01b03604082015116604083015260018060a01b0360608201511660608301525f608082015160a0608085015280516133ff81612ee5565b60a085015260208101516001600160a01b031660c08501526040810151608060e0860152613431610120860182612a3f565b905060608201511515610100860152809250505092915050565b61345481612ee5565b9052565b80545f90600181811c9082168061347057607f821691505b60208210810361348e57634e487b7160e01b5f52602260045260245ffd5b818652602086018180156134a957600181146134bf576134eb565b60ff198516825283151560051b820195506134eb565b5f878152602090205f5b858110156134e5578154848201526001909101906020016134c9565b83019650505b505050505092915050565b5f82825480855260208501945060208160051b830101845f5260205f205f5b8381101561360857601f19858403018852606083528154606084015260018201546080840152600282015460a0840152600382015461355a60c0850160ff831661344b565b6001600160a01b03600891821c811660e0860152600484015481166101008601526005840154811661012086015260068401541661014085015260078301546101608501528201546101808085019190915260098301546101a08501526101c08401526135ce6101e08401600a8401613458565b83810360208501526135e381600b8501613458565b600c840154604095909501949094525060209790970196600d90910190600101613515565b50909695505050505050565b80546001600160a01b031682526001810154602083015260a0604083018190525f90613645908401600284016134f6565b838103606085015261365a81600385016134f6565b905083810360808501526125888160048501613458565b6001600160a01b03878116825286166020820152604081018590528354606082015260018401546080820152600284015460a0820152600384015460c0820152600484015460e082015261014061010082018190525f906136d4908301856133ad565b8281036101208401526136e78185613614565b9998505050505050505050565b5f5f5f60608486031215613706575f5ffd5b5050815160208301516040909301519094929350919050565b5f5f5f60608486031215613731575f5ffd5b61373a84612f51565b9250602084015161ffff81168114613750575f5ffd5b915061375e60408501612f51565b90509250925092565b5f5f5f60608486031215613779575f5ffd5b835161378481612b03565b602085015190935061379581612b03565b60408501519092506137a681612b03565b809150509250925092565b6001600160a01b038681168252851660208201526040810184905260a0606082018190525f906137e3908301856133ad565b82810360808401526137f58185613614565b98975050505050505050565b80820180821115610d1857610d18612f7e56fea2646970667358221220dc73a65de8f91db603bf6b3e5f5a7836cb971a1b6dc9f4ba422388884b2a39c464736f6c634300081c0033","linkReferences":{}},"methodIdentifiers":{"MAX_SLIPPAGE_PERCENTAGE()":"930ec277","MIN_ORACLE_DURATION()":"1deae8c6","PT()":"d94073d4","SY()":"afd27bf5","YT()":"781c18db","board(uint256,bytes)":"2db6d399","commander()":"37270936","config()":"79502c55","configurationManager()":"c9c667e3","depositCap()":"dbd5edc7","disembark(uint256,bytes)":"13c408f8","emptySwap()":"f66a7749","generateRole(uint8,address)":"69b3054b","getConfig()":"c3f909d4","harborCommand()":"5b0f83f3","harvest(bytes)":"ce5c7f61","market()":"80f55605","marketExpiry()":"8f1d3f00","maxDepositPercentageOfTVL()":"bdcdd882","maxRebalanceInflow()":"ad5a356f","maxRebalanceOutflow()":"3194549e","move(uint256,address,bytes,bytes)":"c38a6f0b","name()":"06fdde03","nextMarket()":"ec213865","oracle()":"7dc0d1d0","oracleDuration()":"cefba474","raft()":"117d8ae0","registerFleetCommander()":"8a8b9976","requiresKeeperData()":"303dbaf3","router()":"f887ea40","routerParams()":"256d8a23","setDepositCap(uint256)":"86651203","setMaxDepositPercentageOfTVL(uint256)":"4fc7fac3","setMaxRebalanceInflow(uint256)":"92f5e832","setMaxRebalanceOutflow(uint256)":"61f5cd8b","setOracleDuration(uint32)":"c05bd92d","setSlippagePercentage(uint256)":"03baf066","slippagePercentage()":"4452d81c","sweep(address[])":"780469bb","tipJar()":"7aaceb95","token()":"fc0c546a","totalAssets()":"01e1d114","treasury()":"61d027b3","unregisterFleetCommander()":"ebf31131"},"id":205}