{"abi":[{"type":"constructor","inputs":[{"name":"_market","type":"address","internalType":"address"},{"name":"_oracle","type":"address","internalType":"address"},{"name":"_router","type":"address","internalType":"address"},{"name":"_params","type":"tuple","internalType":"struct ArkParams","components":[{"name":"name","type":"string","internalType":"string"},{"name":"accessManager","type":"address","internalType":"address"},{"name":"configurationManager","type":"address","internalType":"address"},{"name":"token","type":"address","internalType":"address"},{"name":"depositCap","type":"uint256","internalType":"uint256"},{"name":"maxRebalanceOutflow","type":"uint256","internalType":"uint256"},{"name":"maxRebalanceInflow","type":"uint256","internalType":"uint256"},{"name":"requiresKeeperData","type":"bool","internalType":"bool"}]}],"stateMutability":"nonpayable"},{"type":"function","name":"MAX_SLIPPAGE_PERCENTAGE","inputs":[],"outputs":[{"name":"","type":"uint256","internalType":"Percentage"}],"stateMutability":"view"},{"type":"function","name":"MIN_ORACLE_DURATION","inputs":[],"outputs":[{"name":"","type":"uint256","internalType":"uint256"}],"stateMutability":"view"},{"type":"function","name":"PT","inputs":[],"outputs":[{"name":"","type":"address","internalType":"contract IPPrincipalToken"}],"stateMutability":"view"},{"type":"function","name":"SY","inputs":[],"outputs":[{"name":"","type":"address","internalType":"contract IStandardizedYield"}],"stateMutability":"view"},{"type":"function","name":"YT","inputs":[],"outputs":[{"name":"","type":"address","internalType":"contract IPYieldToken"}],"stateMutability":"view"},{"type":"function","name":"board","inputs":[{"name":"amount","type":"uint256","internalType":"uint256"},{"name":"boardData","type":"bytes","internalType":"bytes"}],"outputs":[],"stateMutability":"nonpayable"},{"type":"function","name":"commander","inputs":[],"outputs":[{"name":"","type":"address","internalType":"address"}],"stateMutability":"view"},{"type":"function","name":"config","inputs":[],"outputs":[{"name":"commander","type":"address","internalType":"address"},{"name":"raft","type":"address","internalType":"address"},{"name":"token","type":"address","internalType":"contract IERC20"},{"name":"depositCap","type":"uint256","internalType":"uint256"},{"name":"maxRebalanceOutflow","type":"uint256","internalType":"uint256"},{"name":"maxRebalanceInflow","type":"uint256","internalType":"uint256"},{"name":"name","type":"string","internalType":"string"},{"name":"requiresKeeperData","type":"bool","internalType":"bool"}],"stateMutability":"view"},{"type":"function","name":"configurationManager","inputs":[],"outputs":[{"name":"","type":"address","internalType":"contract IConfigurationManager"}],"stateMutability":"view"},{"type":"function","name":"depositCap","inputs":[],"outputs":[{"name":"","type":"uint256","internalType":"uint256"}],"stateMutability":"view"},{"type":"function","name":"disembark","inputs":[{"name":"amount","type":"uint256","internalType":"uint256"},{"name":"disembarkData","type":"bytes","internalType":"bytes"}],"outputs":[],"stateMutability":"nonpayable"},{"type":"function","name":"emptySwap","inputs":[],"outputs":[{"name":"swapType","type":"uint8","internalType":"enum SwapType"},{"name":"extRouter","type":"address","internalType":"address"},{"name":"extCalldata","type":"bytes","internalType":"bytes"},{"name":"needScale","type":"bool","internalType":"bool"}],"stateMutability":"view"},{"type":"function","name":"generateRole","inputs":[{"name":"roleName","type":"uint8","internalType":"enum ContractSpecificRoles"},{"name":"roleTargetContract","type":"address","internalType":"address"}],"outputs":[{"name":"","type":"bytes32","internalType":"bytes32"}],"stateMutability":"pure"},{"type":"function","name":"getConfig","inputs":[],"outputs":[{"name":"","type":"tuple","internalType":"struct ArkConfig","components":[{"name":"commander","type":"address","internalType":"address"},{"name":"raft","type":"address","internalType":"address"},{"name":"token","type":"address","internalType":"contract IERC20"},{"name":"depositCap","type":"uint256","internalType":"uint256"},{"name":"maxRebalanceOutflow","type":"uint256","internalType":"uint256"},{"name":"maxRebalanceInflow","type":"uint256","internalType":"uint256"},{"name":"name","type":"string","internalType":"string"},{"name":"requiresKeeperData","type":"bool","internalType":"bool"}]}],"stateMutability":"view"},{"type":"function","name":"harborCommand","inputs":[],"outputs":[{"name":"","type":"address","internalType":"address"}],"stateMutability":"view"},{"type":"function","name":"harvest","inputs":[{"name":"additionalData","type":"bytes","internalType":"bytes"}],"outputs":[{"name":"rewardTokens","type":"address[]","internalType":"address[]"},{"name":"rewardAmounts","type":"uint256[]","internalType":"uint256[]"}],"stateMutability":"nonpayable"},{"type":"function","name":"market","inputs":[],"outputs":[{"name":"","type":"address","internalType":"address"}],"stateMutability":"view"},{"type":"function","name":"marketExpiry","inputs":[],"outputs":[{"name":"","type":"uint256","internalType":"uint256"}],"stateMutability":"view"},{"type":"function","name":"maxRebalanceInflow","inputs":[],"outputs":[{"name":"","type":"uint256","internalType":"uint256"}],"stateMutability":"view"},{"type":"function","name":"maxRebalanceOutflow","inputs":[],"outputs":[{"name":"","type":"uint256","internalType":"uint256"}],"stateMutability":"view"},{"type":"function","name":"move","inputs":[{"name":"amount","type":"uint256","internalType":"uint256"},{"name":"receiverArk","type":"address","internalType":"address"},{"name":"boardData","type":"bytes","internalType":"bytes"},{"name":"disembarkData","type":"bytes","internalType":"bytes"}],"outputs":[],"stateMutability":"nonpayable"},{"type":"function","name":"name","inputs":[],"outputs":[{"name":"","type":"string","internalType":"string"}],"stateMutability":"view"},{"type":"function","name":"nextMarket","inputs":[],"outputs":[{"name":"","type":"address","internalType":"address"}],"stateMutability":"pure"},{"type":"function","name":"oracle","inputs":[],"outputs":[{"name":"","type":"address","internalType":"address"}],"stateMutability":"view"},{"type":"function","name":"oracleDuration","inputs":[],"outputs":[{"name":"","type":"uint32","internalType":"uint32"}],"stateMutability":"view"},{"type":"function","name":"raft","inputs":[],"outputs":[{"name":"","type":"address","internalType":"address"}],"stateMutability":"view"},{"type":"function","name":"registerFleetCommander","inputs":[],"outputs":[],"stateMutability":"nonpayable"},{"type":"function","name":"requiresKeeperData","inputs":[],"outputs":[{"name":"","type":"bool","internalType":"bool"}],"stateMutability":"view"},{"type":"function","name":"router","inputs":[],"outputs":[{"name":"","type":"address","internalType":"address"}],"stateMutability":"view"},{"type":"function","name":"routerParams","inputs":[],"outputs":[{"name":"guessMin","type":"uint256","internalType":"uint256"},{"name":"guessMax","type":"uint256","internalType":"uint256"},{"name":"guessOffchain","type":"uint256","internalType":"uint256"},{"name":"maxIteration","type":"uint256","internalType":"uint256"},{"name":"eps","type":"uint256","internalType":"uint256"}],"stateMutability":"view"},{"type":"function","name":"setDepositCap","inputs":[{"name":"newDepositCap","type":"uint256","internalType":"uint256"}],"outputs":[],"stateMutability":"nonpayable"},{"type":"function","name":"setMaxRebalanceInflow","inputs":[{"name":"newMaxRebalanceInflow","type":"uint256","internalType":"uint256"}],"outputs":[],"stateMutability":"nonpayable"},{"type":"function","name":"setMaxRebalanceOutflow","inputs":[{"name":"newMaxRebalanceOutflow","type":"uint256","internalType":"uint256"}],"outputs":[],"stateMutability":"nonpayable"},{"type":"function","name":"setOracleDuration","inputs":[{"name":"_oracleDuration","type":"uint32","internalType":"uint32"}],"outputs":[],"stateMutability":"nonpayable"},{"type":"function","name":"setSlippagePercentage","inputs":[{"name":"_slippagePercentage","type":"uint256","internalType":"Percentage"}],"outputs":[],"stateMutability":"nonpayable"},{"type":"function","name":"slippagePercentage","inputs":[],"outputs":[{"name":"","type":"uint256","internalType":"Percentage"}],"stateMutability":"view"},{"type":"function","name":"sweep","inputs":[{"name":"tokens","type":"address[]","internalType":"address[]"}],"outputs":[{"name":"sweptTokens","type":"address[]","internalType":"address[]"},{"name":"sweptAmounts","type":"uint256[]","internalType":"uint256[]"}],"stateMutability":"nonpayable"},{"type":"function","name":"tipJar","inputs":[],"outputs":[{"name":"","type":"address","internalType":"address"}],"stateMutability":"view"},{"type":"function","name":"token","inputs":[],"outputs":[{"name":"","type":"address","internalType":"contract IERC20"}],"stateMutability":"view"},{"type":"function","name":"totalAssets","inputs":[],"outputs":[{"name":"","type":"uint256","internalType":"uint256"}],"stateMutability":"view"},{"type":"function","name":"treasury","inputs":[],"outputs":[{"name":"","type":"address","internalType":"address"}],"stateMutability":"view"},{"type":"function","name":"unregisterFleetCommander","inputs":[],"outputs":[],"stateMutability":"nonpayable"},{"type":"event","name":"ArkHarvested","inputs":[{"name":"rewardTokens","type":"address[]","indexed":true,"internalType":"address[]"},{"name":"rewardAmounts","type":"uint256[]","indexed":true,"internalType":"uint256[]"}],"anonymous":false},{"type":"event","name":"ArkPoked","inputs":[{"name":"currentPrice","type":"uint256","indexed":false,"internalType":"uint256"},{"name":"timestamp","type":"uint256","indexed":false,"internalType":"uint256"}],"anonymous":false},{"type":"event","name":"ArkSwept","inputs":[{"name":"sweptTokens","type":"address[]","indexed":true,"internalType":"address[]"},{"name":"sweptAmounts","type":"uint256[]","indexed":true,"internalType":"uint256[]"}],"anonymous":false},{"type":"event","name":"Boarded","inputs":[{"name":"commander","type":"address","indexed":true,"internalType":"address"},{"name":"token","type":"address","indexed":false,"internalType":"address"},{"name":"amount","type":"uint256","indexed":false,"internalType":"uint256"}],"anonymous":false},{"type":"event","name":"DepositCapUpdated","inputs":[{"name":"newCap","type":"uint256","indexed":false,"internalType":"uint256"}],"anonymous":false},{"type":"event","name":"Disembarked","inputs":[{"name":"commander","type":"address","indexed":true,"internalType":"address"},{"name":"token","type":"address","indexed":false,"internalType":"address"},{"name":"amount","type":"uint256","indexed":false,"internalType":"uint256"}],"anonymous":false},{"type":"event","name":"FleetCommanderRegistered","inputs":[{"name":"commander","type":"address","indexed":false,"internalType":"address"}],"anonymous":false},{"type":"event","name":"FleetCommanderUnregistered","inputs":[{"name":"commander","type":"address","indexed":false,"internalType":"address"}],"anonymous":false},{"type":"event","name":"MarketRolledOver","inputs":[{"name":"newMarket","type":"address","indexed":true,"internalType":"address"}],"anonymous":false},{"type":"event","name":"MaxRebalanceInflowUpdated","inputs":[{"name":"newMaxInflow","type":"uint256","indexed":false,"internalType":"uint256"}],"anonymous":false},{"type":"event","name":"MaxRebalanceOutflowUpdated","inputs":[{"name":"newMaxOutflow","type":"uint256","indexed":false,"internalType":"uint256"}],"anonymous":false},{"type":"event","name":"Moved","inputs":[{"name":"from","type":"address","indexed":true,"internalType":"address"},{"name":"to","type":"address","indexed":true,"internalType":"address"},{"name":"token","type":"address","indexed":false,"internalType":"address"},{"name":"amount","type":"uint256","indexed":false,"internalType":"uint256"}],"anonymous":false},{"type":"event","name":"OracleDurationUpdated","inputs":[{"name":"newOracleDuration","type":"uint32","indexed":false,"internalType":"uint32"}],"anonymous":false},{"type":"event","name":"RaftUpdated","inputs":[{"name":"newRaft","type":"address","indexed":false,"internalType":"address"}],"anonymous":false},{"type":"event","name":"SlippageUpdated","inputs":[{"name":"newSlippagePercentage","type":"uint256","indexed":false,"internalType":"Percentage"}],"anonymous":false},{"type":"error","name":"CallerIsNotAdmin","inputs":[{"name":"caller","type":"address","internalType":"address"}]},{"type":"error","name":"CallerIsNotAuthorizedToBoard","inputs":[{"name":"caller","type":"address","internalType":"address"}]},{"type":"error","name":"CallerIsNotCommander","inputs":[{"name":"caller","type":"address","internalType":"address"}]},{"type":"error","name":"CallerIsNotContractSpecificRole","inputs":[{"name":"caller","type":"address","internalType":"address"},{"name":"role","type":"bytes32","internalType":"bytes32"}]},{"type":"error","name":"CallerIsNotCurator","inputs":[{"name":"caller","type":"address","internalType":"address"}]},{"type":"error","name":"CallerIsNotGovernor","inputs":[{"name":"caller","type":"address","internalType":"address"}]},{"type":"error","name":"CallerIsNotGuardian","inputs":[{"name":"caller","type":"address","internalType":"address"}]},{"type":"error","name":"CallerIsNotGuardianOrGovernor","inputs":[{"name":"caller","type":"address","internalType":"address"}]},{"type":"error","name":"CallerIsNotKeeper","inputs":[{"name":"caller","type":"address","internalType":"address"}]},{"type":"error","name":"CallerIsNotRaft","inputs":[{"name":"caller","type":"address","internalType":"address"}]},{"type":"error","name":"CallerIsNotRaftOrCommander","inputs":[{"name":"caller","type":"address","internalType":"address"}]},{"type":"error","name":"CallerIsNotSuperKeeper","inputs":[{"name":"caller","type":"address","internalType":"address"}]},{"type":"error","name":"CannotAddCommanderToArkWithCommander","inputs":[]},{"type":"error","name":"CannotDeployArkWithEmptyName","inputs":[]},{"type":"error","name":"CannotDeployArkWithoutConfigurationManager","inputs":[]},{"type":"error","name":"CannotDeployArkWithoutRaft","inputs":[]},{"type":"error","name":"CannotDeployArkWithoutToken","inputs":[]},{"type":"error","name":"CannotRemoveCommanderFromArkWithAssets","inputs":[]},{"type":"error","name":"CannotUseKeeperDataWhenNotRequired","inputs":[]},{"type":"error","name":"ConfigurationManagerZeroAddress","inputs":[]},{"type":"error","name":"DirectGrantIsDisabled","inputs":[{"name":"caller","type":"address","internalType":"address"}]},{"type":"error","name":"DirectRevokeIsDisabled","inputs":[{"name":"caller","type":"address","internalType":"address"}]},{"type":"error","name":"ERC4626AssetMismatch","inputs":[]},{"type":"error","name":"InvalidAccessManagerAddress","inputs":[{"name":"invalidAddress","type":"address","internalType":"address"}]},{"type":"error","name":"InvalidAssetForSY","inputs":[]},{"type":"error","name":"InvalidBoardData","inputs":[]},{"type":"error","name":"InvalidDisembarkData","inputs":[]},{"type":"error","name":"InvalidNextMarket","inputs":[]},{"type":"error","name":"InvalidVaultAddress","inputs":[]},{"type":"error","name":"KeeperDataRequired","inputs":[]},{"type":"error","name":"MarketExpired","inputs":[]},{"type":"error","name":"OracleDurationTooLow","inputs":[{"name":"providedDuration","type":"uint32","internalType":"uint32"},{"name":"minimumDuration","type":"uint256","internalType":"uint256"}]},{"type":"error","name":"OracleNotReady","inputs":[]},{"type":"error","name":"SafeERC20FailedOperation","inputs":[{"name":"token","type":"address","internalType":"address"}]},{"type":"error","name":"SlippagePercentageTooHigh","inputs":[{"name":"providedSlippage","type":"uint256","internalType":"Percentage"},{"name":"maxSlippage","type":"uint256","internalType":"Percentage"}]}],"bytecode":{"object":"0x60c060405234801561000f575f5ffd5b506040516142d73803806142d783398101604081905261002e9161091f565b83838383808080604001518160200151805f6001600160a01b0316816001600160a01b031603610078576040516347bd7c1d60e01b81525f60048201526024015b60405180910390fd5b6040516301ffc9a760e01b815263a237592160e01b60048201526001600160a01b038216906301ffc9a790602401602060405180830381865afa1580156100c1573d5f5f3e3d5ffd5b505050506040513d601f19601f820116820180604052508101906100e59190610a26565b61010d576040516347bd7c1d60e01b81526001600160a01b038216600482015260240161006f565b5f80546001600160a01b0319166001600160a01b03928316179055821690506101495760405163f1634df960e01b815260040160405180910390fd5b6001600160a01b0390811660805260408201511661017a5760405163b53c493160e01b815260040160405180910390fd5b60608101516001600160a01b03166101a8576040516001620a810f60e11b0319815260040160405180910390fd5b8051515f036101ca5760405163268c072960e01b815260040160405180910390fd5b5f6101d3610361565b6001600160a01b0316036101fa57604051633a4f9cdb60e21b815260040160405180910390fd5b6040805161010081019091525f815260208101610215610361565b6001600160a01b039081168252606080850151821660208085019190915260808087015160408087019190915260a0808901518588015260c0808a01518489015289518289015260e08a01511515978101979097528751600180549188166001600160a01b03199283161781559489015160028054918916918316919091179055918801516003805491909716921691909117909455918501516004559084015160055590830151600655908201516007906102d19082610ac3565b5060e091909101516007909101805460ff19169115159190911790555050600a80546001600160a01b0385811660a05284166001600160c01b03199091161760e160a31b17905561032560056103e86103c9565b600e556103435f1960115561010060135566038d7ea4c68000601455565b61034c846103ff565b6103546105c0565b5050505050505050610d38565b5f6080516001600160a01b031663117d8ae06040518163ffffffff1660e01b8152600401602060405180830381865afa1580156103a0573d5f5f3e3d5ffd5b505050506040513d601f19601f820116820180604052508101906103c49190610b7d565b905090565b5f816103d76012600a610c96565b6103e19085610ca1565b6103ec906064610ca1565b6103f69190610cb8565b90505b92915050565b600980546001600160a01b0319166001600160a01b03831690811790915560408051630b2339af60e21b81529051632c8ce6bc916004808201926060929091908290030181865afa158015610456573d5f5f3e3d5ffd5b505050506040513d601f19601f8201168201806040525081019061047a9190610cd7565b600d80546001600160a01b03199081166001600160a01b0393841617909155600c8054821693831693909317909255600b8054909216928116928317909155600354604051637d2d278360e11b81529116600482015263fa5a4f0690602401602060405180830381865afa1580156104f4573d5f5f3e3d5ffd5b505050506040513d601f19601f820116820180604052508101906105189190610a26565b158061058f5750600b54600354604051633c21b3eb60e11b81526001600160a01b03918216600482015291169063784367d690602401602060405180830381865afa158015610569573d5f5f3e3d5ffd5b505050506040513d601f19601f8201168201806040525081019061058d9190610a26565b155b156105ad57604051631bda904d60e31b815260040160405180910390fd5b6105b5610639565b6105bd6105c0565b50565b60095f9054906101000a90046001600160a01b03166001600160a01b031663e184c9be6040518163ffffffff1660e01b8152600401602060405180830381865afa158015610610573d5f5f3e3d5ffd5b505050506040513d601f19601f820116820180604052508101906106349190610d21565b600f55565b600b54600354610657916001600160a01b0391821691165f196106ad565b600a54600354610675916001600160a01b0391821691165f196106ad565b600a54600954610693916001600160a01b0391821691165f196106ad565b6009546106ab906001600160a01b0316805f196106ad565b565b604080516001600160a01b038416602482015260448082018490528251808303909101815260649091019091526020810180516001600160e01b0390811663095ea7b360e01b17909152610705908590839061077116565b61076b57604080516001600160a01b03851660248201525f6044808301919091528251808303909101815260649091019091526020810180516001600160e01b0390811663095ea7b360e01b179091526107619186916107ba16565b61076b84826107ba565b50505050565b5f5f5f5f60205f8651602088015f8a5af192503d91505f5190508280156107b0575081156107a257806001146107b0565b5f866001600160a01b03163b115b9695505050505050565b5f5f60205f8451602086015f885af1806107d9576040513d5f823e3d81fd5b50505f513d915081156107f05780600114156107fd565b6001600160a01b0384163b155b1561076b57604051635274afe760e01b81526001600160a01b038516600482015260240161006f565b6001600160a01b03811681146105bd575f5ffd5b805161084581610826565b919050565b634e487b7160e01b5f52604160045260245ffd5b60405161010081016001600160401b03811182821017156108815761088161084a565b60405290565b5f82601f830112610896575f5ffd5b81516001600160401b038111156108af576108af61084a565b604051601f8201601f19908116603f011681016001600160401b03811182821017156108dd576108dd61084a565b6040528181528382016020018510156108f4575f5ffd5b8160208501602083015e5f918101602001919091529392505050565b80518015158114610845575f5ffd5b5f5f5f5f60808587031215610932575f5ffd5b845161093d81610826565b602086015190945061094e81610826565b604086015190935061095f81610826565b60608601519092506001600160401b0381111561097a575f5ffd5b8501610100818803121561098c575f5ffd5b61099461085e565b81516001600160401b038111156109a9575f5ffd5b6109b589828501610887565b8252506109c46020830161083a565b60208201526109d56040830161083a565b60408201526109e66060830161083a565b60608201526080828101519082015260a0808301519082015260c08083015190820152610a1560e08301610910565b60e082015294979396509194505050565b5f60208284031215610a36575f5ffd5b6103f682610910565b600181811c90821680610a5357607f821691505b602082108103610a7157634e487b7160e01b5f52602260045260245ffd5b50919050565b601f821115610abe57805f5260205f20601f840160051c81016020851015610a9c5750805b601f840160051c820191505b81811015610abb575f8155600101610aa8565b50505b505050565b81516001600160401b03811115610adc57610adc61084a565b610af081610aea8454610a3f565b84610a77565b6020601f821160018114610b22575f8315610b0b5750848201515b5f19600385901b1c1916600184901b178455610abb565b5f84815260208120601f198516915b82811015610b515787850151825560209485019460019092019101610b31565b5084821015610b6e57868401515f19600387901b60f8161c191681555b50505050600190811b01905550565b5f60208284031215610b8d575f5ffd5b8151610b9881610826565b9392505050565b634e487b7160e01b5f52601160045260245ffd5b6001815b6001841115610bee57808504811115610bd257610bd2610b9f565b6001841615610be057908102905b60019390931c928002610bb7565b935093915050565b5f82610c04575060016103f9565b81610c1057505f6103f9565b8160018114610c265760028114610c3057610c4c565b60019150506103f9565b60ff841115610c4157610c41610b9f565b50506001821b6103f9565b5060208310610133831016604e8410600b8410161715610c6f575081810a6103f9565b610c7b5f198484610bb3565b805f1904821115610c8e57610c8e610b9f565b029392505050565b5f6103f68383610bf6565b80820281158282048414176103f9576103f9610b9f565b5f82610cd257634e487b7160e01b5f52601260045260245ffd5b500490565b5f5f5f60608486031215610ce9575f5ffd5b8351610cf481610826565b6020850151909350610d0581610826565b6040850151909250610d1681610826565b809150509250925092565b5f60208284031215610d31575f5ffd5b5051919050565b60805160a051613554610d835f395f81816103fa01528181611d7b01526121cf01525f81816104c90152818161080501528181610b4501528181610ba201526111ee01526135545ff3fe608060405234801561000f575f5ffd5b5060043610610255575f3560e01c806380f5560511610140578063c3f909d4116100bf578063dbd5edc711610084578063dbd5edc71461053d578063ebf3113114610545578063ec2138651461054d578063f66a774914610567578063f887ea401461057f578063fc0c546a14610592575f5ffd5b8063c3f909d4146104af578063c9c667e3146104c4578063ce5c7f61146104eb578063cefba474146104fe578063d94073d41461052a575f5ffd5b8063930ec27711610105578063930ec27714610466578063ad5a356f1461046e578063afd27bf514610476578063c05bd92d14610489578063c38a6f0b1461049c575f5ffd5b806380f556051461041c578063866512031461042f5780638a8b9976146104425780638f1d3f001461044a57806392f5e83214610453575f5ffd5b806337270936116101d757806369b3054b1161019c57806369b3054b1461038a578063780469bb1461039d578063781c18db146103be57806379502c55146103d15780637aaceb95146103ed5780637dc0d1d0146103f5575f5ffd5b8063372709361461034d5780634452d81c1461035e5780635b0f83f31461036757806361d027b31461036f57806361f5cd8b14610377575f5ffd5b80631deae8c61161021d5780631deae8c6146102d1578063256d8a23146102da5780632db6d3991461031c578063303dbaf31461032f5780633194549e14610345575f5ffd5b806301e1d1141461025957806303baf0661461027457806306fdde0314610289578063117d8ae01461029e57806313c408f8146102be575b5f5ffd5b6102616105a3565b6040519081526020015b60405180910390f35b610287610282366004612771565b6105da565b005b61029161076f565b60405161026b91906127b6565b6102a6610802565b6040516001600160a01b03909116815260200161026b565b6102876102cc36600461280c565b610883565b61026161038481565b6010546011546012546013546014546102f4949392919085565b604080519586526020860194909452928401919091526060830152608082015260a00161026b565b61028761032a36600461280c565b610937565b60085460ff16604051901515815260200161026b565b600554610261565b6001546001600160a01b03166102a6565b610261600e5481565b6102a6610b42565b6102a6610b9f565b610287610385366004612771565b610bfc565b610261610398366004612867565b610c43565b6103b06103ab366004612907565b610c76565b60405161026b92919061299b565b600d546102a6906001600160a01b031681565b6103d9611127565b60405161026b989796959493929190612a24565b6102a66111eb565b6102a67f000000000000000000000000000000000000000000000000000000000000000081565b6009546102a6906001600160a01b031681565b61028761043d366004612771565b611248565b61028761128f565b610261600f5481565b610287610461366004612771565b6112ec565b610261611333565b600654610261565b600b546102a6906001600160a01b031681565b610287610497366004612a84565b61134d565b6102876104aa366004612aa7565b6114d0565b6104b7611621565b60405161026b9190612b30565b6102a67f000000000000000000000000000000000000000000000000000000000000000081565b6103b06104f9366004612bc6565b611755565b600a5461051590600160a01b900463ffffffff1681565b60405163ffffffff909116815260200161026b565b600c546102a6906001600160a01b031681565b600454610261565b61028761183f565b733d1e7312de9b8fc246dded971ee7547b0a80592a6102a6565b61056f611891565b60405161026b9493929190612c28565b600a546102a6906001600160a01b031681565b6003546001600160a01b03166102a6565b5f600f544210156105cf576105ca600e546105c46105bf611943565b6119ae565b906119d4565b905090565b6105ca6105bf611943565b5f5460408051630ccc574960e41b815290516001600160a01b03909216916391d1485491839163ccc57490916004808201926020929091908290030181865afa158015610629573d5f5f3e3d5ffd5b505050506040513d601f19601f8201168201806040525081019061064d9190612c6d565b6040516001600160e01b031960e084901b1681526004810191909152336024820152604401602060405180830381865afa15801561068d573d5f5f3e3d5ffd5b505050506040513d601f19601f820116820180604052508101906106b19190612c98565b6106d557604051630ea7d7ed60e21b81523360048201526024015b60405180910390fd5b6106f4816106e56012600a612da8565b6106f0906064612db3565b1090565b1561073357806107066012600a612da8565b610711906064612db3565b6040516328e9045960e11b8152600481019290925260248201526044016106cc565b600e8190556040518181527ff5a802650e0a86db227cc342f06327d2ca0ff5cf2b12e0084fc5d8a7db2c54fd906020015b60405180910390a150565b60606001600601805461078190612dca565b80601f01602080910402602001604051908101604052809291908181526020018280546107ad90612dca565b80156107f85780601f106107cf576101008083540402835291602001916107f8565b820191905f5260205f20905b8154815290600101906020018083116107db57829003601f168201915b5050505050905090565b5f7f00000000000000000000000000000000000000000000000000000000000000006001600160a01b031663117d8ae06040518163ffffffff1660e01b8152600401602060405180830381865afa15801561085f573d5f5f3e3d5ffd5b505050506040513d601f19601f820116820180604052508101906105ca9190612e02565b61088b611a05565b6108b657335b604051631564c0e160e11b81526001600160a01b0390911660048201526024016106cc565b81816108c28282611a8e565b336108ce868686611af0565b6003546108e5906001600160a01b03168288611b57565b600354604080516001600160a01b03928316815260208101899052918316917fd5e872c5ecfb1bb8820b2e6a20e31b883682282da886621541f71e31ec11947e910160405180910390a2505050505050565b306001600160a01b031663372709366040518163ffffffff1660e01b8152600401602060405180830381865afa158015610973573d5f5f3e3d5ffd5b505050506040513d601f19601f820116820180604052508101906109979190612e02565b61099f611a05565b610abe575f3390505f306001600160a01b031663117d8ae06040518163ffffffff1660e01b8152600401602060405180830381865afa1580156109e4573d5f5f3e3d5ffd5b505050506040513d601f19601f82011682018060405250810190610a089190612e02565b6001600160a01b0316826001600160a01b031614905080610abb5760405163d25dd10160e01b81526001600160a01b0383811660048301525f919085169063d25dd10190602401602060405180830381865afa158015610a6a573d5f5f3e3d5ffd5b505050506040513d601f19601f82011682018060405250810190610a8e9190612c98565b905080610ab957604051638f7a567d60e01b81526001600160a01b03841660048201526024016106cc565b505b50505b8282610aca8282611a8e565b6003543390610ae4906001600160a01b031682308a611bb6565b610aef878787611bf5565b600354604080516001600160a01b039283168152602081018a9052918316917fcbaa1442ac205415c9d69643e7b60ec73d1de35dbc807c21ec288c70ddc4207b910160405180910390a250505050505050565b5f7f00000000000000000000000000000000000000000000000000000000000000006001600160a01b0316635b0f83f36040518163ffffffff1660e01b8152600401602060405180830381865afa15801561085f573d5f5f3e3d5ffd5b5f7f00000000000000000000000000000000000000000000000000000000000000006001600160a01b03166361d027b36040518163ffffffff1660e01b8152600401602060405180830381865afa15801561085f573d5f5f3e3d5ffd5b610c04611a05565b610c0e5733610891565b60058190556040518181527ffbe2d5c01ea8ba5596d6c4e6c82c6d4a0a0ee1128689993a4a5ba0169273d69f90602001610764565b5f8282604051602001610c57929190612e1d565b6040516020818303038152906040528051906020012090505b92915050565b606080306001600160a01b031663117d8ae06040518163ffffffff1660e01b8152600401602060405180830381865afa158015610cb5573d5f5f3e3d5ffd5b505050506040513d601f19601f82011682018060405250810190610cd99190612e02565b6001600160a01b0316336001600160a01b031614610d1857335b604051631184b31b60e21b81526001600160a01b0390911660048201526024016106cc565b82516001600160401b03811115610d3157610d316128a1565b604051908082528060200260200182016040528015610d5a578160200160208202803683370190505b50915082516001600160401b03811115610d7657610d766128a1565b604051908082528060200260200182016040528015610d9f578160200160208202803683370190505b506003546040516370a0823160e01b81523060048201529192505f916001600160a01b03909116906370a0823190602401602060405180830381865afa158015610deb573d5f5f3e3d5ffd5b505050506040513d601f19601f82011682018060405250810190610e0f9190612c6d565b1115610f0057600154604080516330fe427560e21b81529051610f00926001600160a01b03169163c3f909d49160048083019260809291908290030181865afa158015610e5e573d5f5f3e3d5ffd5b505050506040513d601f19601f82011682018060405250810190610e829190612e54565b516003546040516370a0823160e01b81523060048201526001600160a01b03909116906370a0823190602401602060405180830381865afa158015610ec9573d5f5f3e3d5ffd5b505050506040513d601f19601f82011682018060405250810190610eed9190612c6d565b6003546001600160a01b03169190611b57565b5f5b83518110156110ce575f848281518110610f1e57610f1e612ebf565b60209081029190910101516040516370a0823160e01b81523060048201526001600160a01b03909116906370a0823190602401602060405180830381865afa158015610f6c573d5f5f3e3d5ffd5b505050506040513d601f19601f82011682018060405250810190610f909190612c6d565b905080156110c557611059610fa3610802565b868481518110610fb557610fb5612ebf565b60209081029190910101516040516370a0823160e01b81523060048201526001600160a01b03909116906370a0823190602401602060405180830381865afa158015611003573d5f5f3e3d5ffd5b505050506040513d601f19601f820116820180604052508101906110279190612c6d565b87858151811061103957611039612ebf565b60200260200101516001600160a01b0316611b579092919063ffffffff16565b84828151811061106b5761106b612ebf565b602002602001015184838151811061108557611085612ebf565b60200260200101906001600160a01b031690816001600160a01b031681525050808383815181106110b8576110b8612ebf565b6020026020010181815250505b50600101610f02565b50806040516110dd9190612ed3565b6040518091039020826040516110f39190612f08565b604051908190038120907f46b8771620f6acf56cb03d3e835ea8024c7dcbcf05fcc3f6ade9e19d1a3e212b905f90a3915091565b60018054600254600354600454600554600654600780546001600160a01b0397881698968816979095169593949293919261116190612dca565b80601f016020809104026020016040519081016040528092919081815260200182805461118d90612dca565b80156111d85780601f106111af576101008083540402835291602001916111d8565b820191905f5260205f20905b8154815290600101906020018083116111bb57829003601f168201915b5050506007909301549192505060ff1688565b5f7f00000000000000000000000000000000000000000000000000000000000000006001600160a01b0316637aaceb956040518163ffffffff1660e01b8152600401602060405180830381865afa15801561085f573d5f5f3e3d5ffd5b611250611a05565b61125a5733610891565b60048190556040518181527f333b26cca69716ad4680ddb07663f5bfb4f06045671f336af9a83690a3ae00f990602001610764565b611297611a05565b6112a15733610891565b600180546001600160a01b031916339081179091556040519081527f55489ce0259bd691120d8860861be1c401c7c16a3cd268d21045756af4ecc5ca906020015b60405180910390a1565b6112f4611a05565b6112fe5733610891565b60068190556040518181527fb6ac66853c4e59c71e118d25ab494bb847c4e5eb0c8894898c5343e6f61afc1290602001610764565b61133f6012600a612da8565b61134a906064612db3565b81565b5f5460408051630ccc574960e41b815290516001600160a01b03909216916391d1485491839163ccc57490916004808201926020929091908290030181865afa15801561139c573d5f5f3e3d5ffd5b505050506040513d601f19601f820116820180604052508101906113c09190612c6d565b6040516001600160e01b031960e084901b1681526004810191909152336024820152604401602060405180830381865afa158015611400573d5f5f3e3d5ffd5b505050506040513d601f19601f820116820180604052508101906114249190612c98565b61144357604051630ea7d7ed60e21b81523360048201526024016106cc565b6103848163ffffffff16101561147c57604051630d33f2b360e21b815263ffffffff8216600482015261038460248201526044016106cc565b600a805463ffffffff60a01b1916600160a01b63ffffffff8416908102919091179091556040519081527f4b3aa5c9fb94258bcc25dd74639341b3baf9771cfb27c62dbc11af634747aa4d90602001610764565b6114d8611a05565b6114e25733610891565b81816114ee8282611a8e565b6114f9888585611af0565b60035460405163095ea7b360e01b81526001600160a01b038981166004830152602482018b90529091169063095ea7b3906044016020604051808303815f875af1158015611549573d5f5f3e3d5ffd5b505050506040513d601f19601f8201168201806040525081019061156d9190612c98565b50604051632db6d39960e01b81526001600160a01b03881690632db6d3999061159e908b908a908a90600401612f3b565b5f604051808303815f87803b1580156115b5575f5ffd5b505af11580156115c7573d5f5f3e3d5ffd5b5050600354604080516001600160a01b039283168152602081018d9052918b1693503092507f9f784fc02a186f1c98b2d9f15fda084da27cdd291a3785d978f91911d880516b910160405180910390a35050505050505050565b60408051610100810182525f8082526020820181905291810182905260608082018390526080820183905260a0820183905260c082015260e08101919091526040805161010081018252600180546001600160a01b0390811683526002548116602084015260035416928201929092526004546060820152600554608082015260065460a08201526007805491929160c0840191906116bf90612dca565b80601f01602080910402602001604051908101604052809291908181526020018280546116eb90612dca565b80156117365780601f1061170d57610100808354040283529160200191611736565b820191905f5260205f20905b81548152906001019060200180831161171957829003601f168201915b50505091835250506007919091015460ff161515602090910152919050565b606080306001600160a01b031663117d8ae06040518163ffffffff1660e01b8152600401602060405180830381865afa158015611794573d5f5f3e3d5ffd5b505050506040513d601f19601f820116820180604052508101906117b89190612e02565b6001600160a01b0316336001600160a01b0316146117d65733610cf3565b6117e08484611c06565b60405191935091506117f3908290612ed3565b6040518091039020826040516118099190612f08565b604051908190038120907f3e3e7958121b3e39c7a49392d1aa9cdce870c2a059744f9e15cf66fff7865455905f90a39250929050565b611847611a05565b6118515733610891565b600180546001600160a01b03191690556040513381527f7cb941d7b1708e5b3bcd35ca960d6c6311188cec18886e5b67630552676b0487906020016112e2565b601a8054601b805460ff8316936101009093046001600160a01b03169291906118b990612dca565b80601f01602080910402602001604051908101604052809291908181526020018280546118e590612dca565b80156119305780601f1061190757610100808354040283529160200191611930565b820191905f5260205f20905b81548152906001019060200180831161191357829003601f168201915b5050506002909301549192505060ff1684565b6009546040516370a0823160e01b81523060048201525f916001600160a01b0316906370a08231906024015b602060405180830381865afa15801561198a573d5f5f3e3d5ffd5b505050506040513d601f19601f820116820180604052508101906105ca9190612c6d565b5f670de0b6b3a76400006119c0611d41565b6119ca9084612db3565b610c709190612f70565b5f6119fe836119f96119e86012600a612da8565b6119f3906064612db3565b85611daa565b611db5565b9392505050565b5f80546001600160a01b03166391d14854611a21600230610c43565b336040516001600160e01b031960e085901b16815260048101929092526001600160a01b03166024820152604401602060405180830381865afa158015611a6a573d5f5f3e3d5ffd5b505050506040513d601f19601f820116820180604052508101906105ca9190612c98565b8015801590611aa0575060085460ff16155b15611abe57604051630cd0fdf960e01b815260040160405180910390fd5b80158015611ace575060085460ff165b15611aec5760405163332863a960e11b815260040160405180910390fd5b5050565b611af8611de1565b600f544210611b1057611b0b8384611ee8565b505050565b5f611b19611943565b90505f611b31600e54611b2b87611efe565b90611f19565b90505f828211611b415781611b43565b825b9050611b4f8187611f3e565b505050505050565b6040516001600160a01b03838116602483015260448201839052611b0b91859182169063a9059cbb906064015b604051602081830303815290604052915060e01b6020820180516001600160e01b038381831617835250505050611f48565b6040516001600160a01b038481166024830152838116604483015260648201839052611bef9186918216906323b872dd90608401611b84565b50505050565b611bfd611de1565b611b0b83611fb4565b60608060095f9054906101000a90046001600160a01b03166001600160a01b031663c4f59f9b6040518163ffffffff1660e01b81526004015f60405180830381865afa158015611c58573d5f5f3e3d5ffd5b505050506040513d5f823e601f3d908101601f19168201604052611c7f9190810190612f8f565b600954604051639262187b60e01b81523060048201529193506001600160a01b031690639262187b906024015f604051808303815f875af1158015611cc6573d5f5f3e3d5ffd5b505050506040513d5f823e601f3d908101601f19168201604052611ced919081019061301e565b90505f5b8251811015611d3957611d31611d05610802565b838381518110611d1757611d17612ebf565b602002602001015185848151811061103957611039612ebf565b600101611cf1565b509250929050565b600954600a54604051636cda983360e01b81526001600160a01b039283166004820152600160a01b90910463ffffffff1660248201525f917f00000000000000000000000000000000000000000000000000000000000000001690636cda98339060440161196f565b5f6119fe82846130a4565b5f611dc26012600a612da8565b611dcd906064612db3565b611dd78385612db3565b6119fe9190612f70565b600f54421015611ded57565b5f306001600160a01b031663ec2138656040518163ffffffff1660e01b8152600401602060405180830381865afa158015611e2a573d5f5f3e3d5ffd5b505050506040513d601f19601f82011682018060405250810190611e4e9190612e02565b90506001600160a01b0381161580611e7357506009546001600160a01b038281169116145b15611e91576040516301fb70bf60e21b815260040160405180910390fd5b611e9a81612195565b611ea15750565b611ea9612250565b611eb281612277565b6040516001600160a01b038216907f3b7aba7495f95b008f26fc1548021f2fb059ad26ef38f422178347e2b5859898905f90a250565b5f611ef283611efe565b9050611b0b8183612438565b5f611f07611d41565b6119ca670de0b6b3a764000084612db3565b5f6119fe836119f9611f2d6012600a612da8565b611f38906064612db3565b856125a1565b611aec8282612438565b5f5f60205f8451602086015f885af180611f67576040513d5f823e3d81fd5b50505f513d91508115611f7e578060011415611f8b565b6001600160a01b0384163b155b15611bef57604051635274afe760e01b81526001600160a01b03851660048201526024016106cc565b600f544210611fd65760405163b2094b5960e01b815260040160405180910390fd5b5f611fe6600e546105c484611efe565b6040805160a081018252600380546001600160a01b031680835260208301879052828401525f6060830181905283516080818101909552601a8054969750919593948501939092839160ff169081111561204257612042612c04565b600381111561205357612053612c04565b8152815461010090046001600160a01b0316602082015260018201805460409092019161207f90612dca565b80601f01602080910402602001604051908101604052809291908181526020018280546120ab90612dca565b80156120f65780601f106120cd576101008083540402835291602001916120f6565b820191905f5260205f20905b8154815290600101906020018083116120d957829003601f168201915b50505091835250506002919091015460ff1615156020909101529052600a5460095460405163092ccd6360e11b81529293506001600160a01b03918216926312599ac6926121559230929116908790601090889060159060040161337b565b6060604051808303815f875af1158015612171573d5f5f3e3d5ffd5b505050506040513d601f19601f82011682018060405250810190611b4f91906133fe565b600a5460405162439f4b60e91b81526001600160a01b038381166004830152600160a01b90920463ffffffff1660248201525f91829182917f0000000000000000000000000000000000000000000000000000000000000000169063873e960090604401606060405180830381865afa158015612214573d5f5f3e3d5ffd5b505050506040513d601f19601f820116820180604052508101906122389190613429565b9250509150811580156122485750805b949350505050565b5f612259611943565b90505f612265826119ae565b90508115611aec57611aec8282612438565b600980546001600160a01b0319166001600160a01b03831690811790915560408051630b2339af60e21b81529051632c8ce6bc916004808201926060929091908290030181865afa1580156122ce573d5f5f3e3d5ffd5b505050506040513d601f19601f820116820180604052508101906122f29190613471565b600d80546001600160a01b03199081166001600160a01b0393841617909155600c8054821693831693909317909255600b8054909216928116928317909155600354604051637d2d278360e11b81529116600482015263fa5a4f0690602401602060405180830381865afa15801561236c573d5f5f3e3d5ffd5b505050506040513d601f19601f820116820180604052508101906123909190612c98565b15806124075750600b54600354604051633c21b3eb60e11b81526001600160a01b03918216600482015291169063784367d690602401602060405180830381865afa1580156123e1573d5f5f3e3d5ffd5b505050506040513d601f19601f820116820180604052508101906124059190612c98565b155b1561242557604051631bda904d60e31b815260040160405180910390fd5b61242d6125ac565b612435612620565b50565b6040805160a081018252600380546001600160a01b031680835260208301859052828401525f6060830181905283516080818101909552601a8054929585019391929091839160ff169081111561249157612491612c04565b60038111156124a2576124a2612c04565b8152815461010090046001600160a01b031660208201526001820180546040909201916124ce90612dca565b80601f01602080910402602001604051908101604052809291908181526020018280546124fa90612dca565b80156125455780601f1061251c57610100808354040283529160200191612545565b820191905f5260205f20905b81548152906001019060200180831161252857829003601f168201915b50505091835250506002919091015460ff1615156020909101529052600a54600954604051630306d04360e51b81529293506001600160a01b03918216926360da086092612155923092911690889087906015906004016134bb565b5f6119fe828461350b565b600b546003546125ca916001600160a01b0391821691165f19612699565b600a546003546125e8916001600160a01b0391821691165f19612699565b600a54600954612606916001600160a01b0391821691165f19612699565b60095461261e906001600160a01b0316805f19612699565b565b60095f9054906101000a90046001600160a01b03166001600160a01b031663e184c9be6040518163ffffffff1660e01b8152600401602060405180830381865afa158015612670573d5f5f3e3d5ffd5b505050506040513d601f19601f820116820180604052508101906126949190612c6d565b600f55565b604080516001600160a01b038416602482015260448082018490528251808303909101815260649091019091526020810180516001600160e01b031663095ea7b360e01b1790526126ea8482612728565b611bef576040516001600160a01b0384811660248301525f604483015261271e91869182169063095ea7b390606401611b84565b611bef8482611f48565b5f5f5f5f60205f8651602088015f8a5af192503d91505f519050828015612767575081156127595780600114612767565b5f866001600160a01b03163b115b9695505050505050565b5f60208284031215612781575f5ffd5b5035919050565b5f81518084528060208401602086015e5f602082860101526020601f19601f83011685010191505092915050565b602081525f6119fe6020830184612788565b5f5f83601f8401126127d8575f5ffd5b5081356001600160401b038111156127ee575f5ffd5b602083019150836020828501011115612805575f5ffd5b9250929050565b5f5f5f6040848603121561281e575f5ffd5b8335925060208401356001600160401b0381111561283a575f5ffd5b612846868287016127c8565b9497909650939450505050565b6001600160a01b0381168114612435575f5ffd5b5f5f60408385031215612878575f5ffd5b823560038110612886575f5ffd5b9150602083013561289681612853565b809150509250929050565b634e487b7160e01b5f52604160045260245ffd5b604051601f8201601f191681016001600160401b03811182821017156128dd576128dd6128a1565b604052919050565b5f6001600160401b038211156128fd576128fd6128a1565b5060051b60200190565b5f60208284031215612917575f5ffd5b81356001600160401b0381111561292c575f5ffd5b8201601f8101841361293c575f5ffd5b803561294f61294a826128e5565b6128b5565b8082825260208201915060208360051b850101925086831115612970575f5ffd5b6020840193505b8284101561276757833561298a81612853565b825260209384019390910190612977565b604080825283519082018190525f9060208501906060840190835b818110156129dd5783516001600160a01b03168352602093840193909201916001016129b6565b5050838103602080860191909152855180835291810192508501905f5b81811015612a185782518452602093840193909201916001016129fa565b50919695505050505050565b6001600160a01b038981168252888116602083015287166040820152606081018690526080810185905260a0810184905261010060c082018190525f90612a6d90830185612788565b905082151560e08301529998505050505050505050565b5f60208284031215612a94575f5ffd5b813563ffffffff811681146119fe575f5ffd5b5f5f5f5f5f5f60808789031215612abc575f5ffd5b863595506020870135612ace81612853565b945060408701356001600160401b03811115612ae8575f5ffd5b612af489828a016127c8565b90955093505060608701356001600160401b03811115612b12575f5ffd5b612b1e89828a016127c8565b979a9699509497509295939492505050565b602080825282516001600160a01b039081168383015290830151166040808301919091528201515f90612b6e60608401826001600160a01b03169052565b5060608301516080830152608083015160a083015260a083015160c083015260c083015161010060e0840152612ba8610120840182612788565b905060e0840151612bbe61010085018215159052565b509392505050565b5f5f60208385031215612bd7575f5ffd5b82356001600160401b03811115612bec575f5ffd5b612bf8858286016127c8565b90969095509350505050565b634e487b7160e01b5f52602160045260245ffd5b6004811061243557612435612c04565b612c3185612c18565b8481526001600160a01b03841660208201526080604082018190525f90612c5a90830185612788565b9050821515606083015295945050505050565b5f60208284031215612c7d575f5ffd5b5051919050565b80518015158114612c93575f5ffd5b919050565b5f60208284031215612ca8575f5ffd5b6119fe82612c84565b634e487b7160e01b5f52601160045260245ffd5b6001815b6001841115612d0057808504811115612ce457612ce4612cb1565b6001841615612cf257908102905b60019390931c928002612cc9565b935093915050565b5f82612d1657506001610c70565b81612d2257505f610c70565b8160018114612d385760028114612d4257612d5e565b6001915050610c70565b60ff841115612d5357612d53612cb1565b50506001821b610c70565b5060208310610133831016604e8410600b8410161715612d81575081810a610c70565b612d8d5f198484612cc5565b805f1904821115612da057612da0612cb1565b029392505050565b5f6119fe8383612d08565b8082028115828204841417610c7057610c70612cb1565b600181811c90821680612dde57607f821691505b602082108103612dfc57634e487b7160e01b5f52602260045260245ffd5b50919050565b5f60208284031215612e12575f5ffd5b81516119fe81612853565b5f60038410612e2e57612e2e612c04565b5060f89290921b825260601b6bffffffffffffffffffffffff1916600182015260150190565b5f6080828403128015612e65575f5ffd5b50604051608081016001600160401b0381118282101715612e8857612e886128a1565b6040528251612e9681612853565b815260208381015190820152604080840151908201526060928301519281019290925250919050565b634e487b7160e01b5f52603260045260245ffd5b81515f90829060208501835b82811015612efd578151845260209384019390910190600101612edf565b509195945050505050565b81515f90829060208501835b82811015612efd5781516001600160a01b0316845260209384019390910190600101612f14565b83815260406020820152816040820152818360608301375f818301606090810191909152601f909201601f1916010192915050565b5f82612f8a57634e487b7160e01b5f52601260045260245ffd5b500490565b5f60208284031215612f9f575f5ffd5b81516001600160401b03811115612fb4575f5ffd5b8201601f81018413612fc4575f5ffd5b8051612fd261294a826128e5565b8082825260208201915060208360051b850101925086831115612ff3575f5ffd5b6020840193505b8284101561276757835161300d81612853565b825260209384019390910190612ffa565b5f6020828403121561302e575f5ffd5b81516001600160401b03811115613043575f5ffd5b8201601f81018413613053575f5ffd5b805161306161294a826128e5565b8082825260208201915060208360051b850101925086831115613082575f5ffd5b6020840193505b82841015612767578351825260209384019390910190613089565b81810381811115610c7057610c70612cb1565b60018060a01b0381511682526020810151602083015260018060a01b03604082015116604083015260018060a01b0360608201511660608301525f608082015160a06080850152805161310981612c18565b60a085015260208101516001600160a01b031660c08501526040810151608060e086015261313b610120860182612788565b905060608201511515610100860152809250505092915050565b61315e81612c18565b9052565b80545f90600181811c9082168061317a57607f821691505b60208210810361319857634e487b7160e01b5f52602260045260245ffd5b818652602086018180156131b357600181146131c9576131f5565b60ff198516825283151560051b820195506131f5565b5f878152602090205f5b858110156131ef578154848201526001909101906020016131d3565b83019650505b505050505092915050565b5f82825480855260208501945060208160051b830101845f5260205f205f5b8381101561331257601f19858403018852606083528154606084015260018201546080840152600282015460a0840152600382015461326460c0850160ff8316613155565b6001600160a01b03600891821c811660e0860152600484015481166101008601526005840154811661012086015260068401541661014085015260078301546101608501528201546101808085019190915260098301546101a08501526101c08401526132d86101e08401600a8401613162565b83810360208501526132ed81600b8501613162565b600c840154604095909501949094525060209790970196600d9091019060010161321f565b50909695505050505050565b80546001600160a01b031682526001810154602083015260a0604083018190525f9061334f90840160028401613200565b83810360608501526133648160038501613200565b905083810360808501526122488160048501613162565b6001600160a01b03878116825286166020820152604081018590528354606082015260018401546080820152600284015460a0820152600384015460c0820152600484015460e082015261014061010082018190525f906133de908301856130b7565b8281036101208401526133f1818561331e565b9998505050505050505050565b5f5f5f60608486031215613410575f5ffd5b5050815160208301516040909301519094929350919050565b5f5f5f6060848603121561343b575f5ffd5b61344484612c84565b9250602084015161ffff8116811461345a575f5ffd5b915061346860408501612c84565b90509250925092565b5f5f5f60608486031215613483575f5ffd5b835161348e81612853565b602085015190935061349f81612853565b60408501519092506134b081612853565b809150509250925092565b6001600160a01b038681168252851660208201526040810184905260a0606082018190525f906134ed908301856130b7565b82810360808401526134ff818561331e565b98975050505050505050565b80820180821115610c7057610c70612cb156fea264697066735822122092e5f761d4566c679f97f80c4ca4bd4fe0a37dd04e1acb01f2d4294dba2a29e264736f6c634300081b0033","linkReferences":{}},"methodIdentifiers":{"MAX_SLIPPAGE_PERCENTAGE()":"930ec277","MIN_ORACLE_DURATION()":"1deae8c6","PT()":"d94073d4","SY()":"afd27bf5","YT()":"781c18db","board(uint256,bytes)":"2db6d399","commander()":"37270936","config()":"79502c55","configurationManager()":"c9c667e3","depositCap()":"dbd5edc7","disembark(uint256,bytes)":"13c408f8","emptySwap()":"f66a7749","generateRole(uint8,address)":"69b3054b","getConfig()":"c3f909d4","harborCommand()":"5b0f83f3","harvest(bytes)":"ce5c7f61","market()":"80f55605","marketExpiry()":"8f1d3f00","maxRebalanceInflow()":"ad5a356f","maxRebalanceOutflow()":"3194549e","move(uint256,address,bytes,bytes)":"c38a6f0b","name()":"06fdde03","nextMarket()":"ec213865","oracle()":"7dc0d1d0","oracleDuration()":"cefba474","raft()":"117d8ae0","registerFleetCommander()":"8a8b9976","requiresKeeperData()":"303dbaf3","router()":"f887ea40","routerParams()":"256d8a23","setDepositCap(uint256)":"86651203","setMaxRebalanceInflow(uint256)":"92f5e832","setMaxRebalanceOutflow(uint256)":"61f5cd8b","setOracleDuration(uint32)":"c05bd92d","setSlippagePercentage(uint256)":"03baf066","slippagePercentage()":"4452d81c","sweep(address[])":"780469bb","tipJar()":"7aaceb95","token()":"fc0c546a","totalAssets()":"01e1d114","treasury()":"61d027b3","unregisterFleetCommander()":"ebf31131"},"id":173}