{"abi":[{"type":"constructor","inputs":[],"stateMutability":"nonpayable"},{"type":"function","name":"grantRole","inputs":[{"name":"role","type":"bytes32","internalType":"bytes32"},{"name":"account","type":"address","internalType":"address"}],"outputs":[],"stateMutability":"nonpayable"},{"type":"function","name":"hasRole","inputs":[{"name":"role","type":"bytes32","internalType":"bytes32"},{"name":"account","type":"address","internalType":"address"}],"outputs":[{"name":"","type":"bool","internalType":"bool"}],"stateMutability":"view"},{"type":"function","name":"revokeRole","inputs":[{"name":"role","type":"bytes32","internalType":"bytes32"},{"name":"account","type":"address","internalType":"address"}],"outputs":[],"stateMutability":"nonpayable"},{"type":"function","name":"supportsInterface","inputs":[{"name":"interfaceId","type":"bytes4","internalType":"bytes4"}],"outputs":[{"name":"","type":"bool","internalType":"bool"}],"stateMutability":"view"},{"type":"function","name":"test_","inputs":[],"outputs":[],"stateMutability":"nonpayable"}],"bytecode":{"object":"0x6080604052348015600e575f5ffd5b506101fd8061001c5f395ff3fe608060405234801561000f575f5ffd5b5060043610610055575f3560e01c806301ffc9a7146100595780632f2ff15d14610080578063643898cd146100bb57806391d14854146100bd578063d547741f146100f3575b5f5ffd5b61006c610067366004610160565b61012b565b604051901515815260200160405180910390f35b6100bb61008e36600461018e565b5f918252602082815260408084206001600160a01b0390931684529190529020805460ff19166001179055565b005b61006c6100cb36600461018e565b5f918252602082815260408084206001600160a01b0393909316845291905290205460ff1690565b6100bb61010136600461018e565b5f918252602082815260408084206001600160a01b0390931684529190529020805460ff19169055565b5f6001600160e01b03198216620f77f960eb1b148061015a57506301ffc9a760e01b6001600160e01b03198316145b92915050565b5f60208284031215610170575f5ffd5b81356001600160e01b031981168114610187575f5ffd5b9392505050565b5f5f6040838503121561019f575f5ffd5b8235915060208301356001600160a01b03811681146101bc575f5ffd5b80915050925092905056fea2646970667358221220bd83947ac9c01cd8384b21c742c8a1d81b112bae8351ed7c6b5c9184db07eafa64736f6c634300081c0033","linkReferences":{}},"methodIdentifiers":{"grantRole(bytes32,address)":"2f2ff15d","hasRole(bytes32,address)":"91d14854","revokeRole(bytes32,address)":"d547741f","supportsInterface(bytes4)":"01ffc9a7","test_()":"643898cd"},"id":324}