{"abi":[{"type":"constructor","inputs":[{"name":"_metaMorpho","type":"address","internalType":"address"},{"name":"_params","type":"tuple","internalType":"struct ArkParams","components":[{"name":"accessManager","type":"address","internalType":"address"},{"name":"configurationManager","type":"address","internalType":"address"},{"name":"token","type":"address","internalType":"address"},{"name":"maxAllocation","type":"uint256","internalType":"uint256"}]}],"stateMutability":"nonpayable"},{"type":"function","name":"DEFAULT_ADMIN_ROLE","inputs":[],"outputs":[{"name":"","type":"bytes32","internalType":"bytes32"}],"stateMutability":"view"},{"type":"function","name":"RAY","inputs":[],"outputs":[{"name":"","type":"uint256","internalType":"uint256"}],"stateMutability":"view"},{"type":"function","name":"WAD","inputs":[],"outputs":[{"name":"","type":"uint256","internalType":"uint256"}],"stateMutability":"view"},{"type":"function","name":"board","inputs":[{"name":"amount","type":"uint256","internalType":"uint256"}],"outputs":[],"stateMutability":"nonpayable"},{"type":"function","name":"commander","inputs":[],"outputs":[{"name":"","type":"address","internalType":"address"}],"stateMutability":"view"},{"type":"function","name":"disembark","inputs":[{"name":"amount","type":"uint256","internalType":"uint256"}],"outputs":[],"stateMutability":"nonpayable"},{"type":"function","name":"getRoleAdmin","inputs":[{"name":"role","type":"bytes32","internalType":"bytes32"}],"outputs":[{"name":"","type":"bytes32","internalType":"bytes32"}],"stateMutability":"view"},{"type":"function","name":"grantCommanderRole","inputs":[{"name":"account","type":"address","internalType":"address"}],"outputs":[],"stateMutability":"nonpayable"},{"type":"function","name":"grantRole","inputs":[{"name":"role","type":"bytes32","internalType":"bytes32"},{"name":"account","type":"address","internalType":"address"}],"outputs":[],"stateMutability":"view"},{"type":"function","name":"harvest","inputs":[],"outputs":[],"stateMutability":"nonpayable"},{"type":"function","name":"hasRole","inputs":[{"name":"role","type":"bytes32","internalType":"bytes32"},{"name":"account","type":"address","internalType":"address"}],"outputs":[{"name":"","type":"bool","internalType":"bool"}],"stateMutability":"view"},{"type":"function","name":"maxAllocation","inputs":[],"outputs":[{"name":"","type":"uint256","internalType":"uint256"}],"stateMutability":"view"},{"type":"function","name":"metaMorpho","inputs":[],"outputs":[{"name":"","type":"address","internalType":"contract IMetaMorpho"}],"stateMutability":"view"},{"type":"function","name":"move","inputs":[{"name":"amount","type":"uint256","internalType":"uint256"},{"name":"receiverArk","type":"address","internalType":"address"}],"outputs":[],"stateMutability":"nonpayable"},{"type":"function","name":"poke","inputs":[],"outputs":[],"stateMutability":"nonpayable"},{"type":"function","name":"raft","inputs":[],"outputs":[{"name":"","type":"address","internalType":"address"}],"stateMutability":"view"},{"type":"function","name":"rate","inputs":[],"outputs":[{"name":"supplyRate","type":"uint256","internalType":"uint256"}],"stateMutability":"view"},{"type":"function","name":"renounceRole","inputs":[{"name":"role","type":"bytes32","internalType":"bytes32"},{"name":"callerConfirmation","type":"address","internalType":"address"}],"outputs":[],"stateMutability":"nonpayable"},{"type":"function","name":"revokeCommanderRole","inputs":[{"name":"account","type":"address","internalType":"address"}],"outputs":[],"stateMutability":"nonpayable"},{"type":"function","name":"revokeRole","inputs":[{"name":"role","type":"bytes32","internalType":"bytes32"},{"name":"account","type":"address","internalType":"address"}],"outputs":[],"stateMutability":"view"},{"type":"function","name":"setMaxAllocation","inputs":[{"name":"newMaxAllocation","type":"uint256","internalType":"uint256"}],"outputs":[],"stateMutability":"nonpayable"},{"type":"function","name":"setRaft","inputs":[{"name":"newRaft","type":"address","internalType":"address"}],"outputs":[],"stateMutability":"nonpayable"},{"type":"function","name":"supportsInterface","inputs":[{"name":"interfaceId","type":"bytes4","internalType":"bytes4"}],"outputs":[{"name":"","type":"bool","internalType":"bool"}],"stateMutability":"view"},{"type":"function","name":"token","inputs":[],"outputs":[{"name":"","type":"address","internalType":"contract IERC20"}],"stateMutability":"view"},{"type":"function","name":"totalAssets","inputs":[],"outputs":[{"name":"assets","type":"uint256","internalType":"uint256"}],"stateMutability":"view"},{"type":"event","name":"ArkPoked","inputs":[{"name":"totalAssets","type":"uint256","indexed":false,"internalType":"uint256"},{"name":"timestamp","type":"uint256","indexed":false,"internalType":"uint256"}],"anonymous":false},{"type":"event","name":"ArkPokedNoChange","inputs":[],"anonymous":false},{"type":"event","name":"ArkPokedTooSoon","inputs":[],"anonymous":false},{"type":"event","name":"Boarded","inputs":[{"name":"commander","type":"address","indexed":true,"internalType":"address"},{"name":"token","type":"address","indexed":false,"internalType":"address"},{"name":"amount","type":"uint256","indexed":false,"internalType":"uint256"}],"anonymous":false},{"type":"event","name":"DepositCapUpdated","inputs":[{"name":"newCap","type":"uint256","indexed":false,"internalType":"uint256"}],"anonymous":false},{"type":"event","name":"Disembarked","inputs":[{"name":"commander","type":"address","indexed":true,"internalType":"address"},{"name":"token","type":"address","indexed":false,"internalType":"address"},{"name":"amount","type":"uint256","indexed":false,"internalType":"uint256"}],"anonymous":false},{"type":"event","name":"Harvested","inputs":[{"name":"amount","type":"uint256","indexed":false,"internalType":"uint256"}],"anonymous":false},{"type":"event","name":"MaxAllocationUpdated","inputs":[{"name":"newMaxAllocation","type":"uint256","indexed":false,"internalType":"uint256"}],"anonymous":false},{"type":"event","name":"Moved","inputs":[{"name":"from","type":"address","indexed":true,"internalType":"address"},{"name":"to","type":"address","indexed":true,"internalType":"address"},{"name":"token","type":"address","indexed":false,"internalType":"address"},{"name":"amount","type":"uint256","indexed":false,"internalType":"uint256"}],"anonymous":false},{"type":"event","name":"RaftUpdated","inputs":[{"name":"newRaft","type":"address","indexed":false,"internalType":"address"}],"anonymous":false},{"type":"event","name":"RoleAdminChanged","inputs":[{"name":"role","type":"bytes32","indexed":true,"internalType":"bytes32"},{"name":"previousAdminRole","type":"bytes32","indexed":true,"internalType":"bytes32"},{"name":"newAdminRole","type":"bytes32","indexed":true,"internalType":"bytes32"}],"anonymous":false},{"type":"event","name":"RoleGranted","inputs":[{"name":"role","type":"bytes32","indexed":true,"internalType":"bytes32"},{"name":"account","type":"address","indexed":true,"internalType":"address"},{"name":"sender","type":"address","indexed":true,"internalType":"address"}],"anonymous":false},{"type":"event","name":"RoleRevoked","inputs":[{"name":"role","type":"bytes32","indexed":true,"internalType":"bytes32"},{"name":"account","type":"address","indexed":true,"internalType":"address"},{"name":"sender","type":"address","indexed":true,"internalType":"address"}],"anonymous":false},{"type":"error","name":"AccessControlBadConfirmation","inputs":[]},{"type":"error","name":"AccessControlUnauthorizedAccount","inputs":[{"name":"account","type":"address","internalType":"address"},{"name":"neededRole","type":"bytes32","internalType":"bytes32"}]},{"type":"error","name":"AddressEmptyCode","inputs":[{"name":"target","type":"address","internalType":"address"}]},{"type":"error","name":"AddressInsufficientBalance","inputs":[{"name":"account","type":"address","internalType":"address"}]},{"type":"error","name":"CallerIsNotCommander","inputs":[{"name":"caller","type":"address","internalType":"address"}]},{"type":"error","name":"CallerIsNotCommanderOrArk","inputs":[{"name":"caller","type":"address","internalType":"address"}]},{"type":"error","name":"CallerIsNotGovernor","inputs":[{"name":"caller","type":"address","internalType":"address"}]},{"type":"error","name":"CannotAddCommanderToArkWithCommander","inputs":[]},{"type":"error","name":"CannotRemoveCommanderFromArkWithAssets","inputs":[]},{"type":"error","name":"DirectGrantIsDisabled","inputs":[{"name":"caller","type":"address","internalType":"address"}]},{"type":"error","name":"DirectRevokeIsDisabled","inputs":[{"name":"caller","type":"address","internalType":"address"}]},{"type":"error","name":"FailedInnerCall","inputs":[]},{"type":"error","name":"InvalidAccessManagerAddress","inputs":[{"name":"invalidAddress","type":"address","internalType":"address"}]},{"type":"error","name":"InvalidVaultAddress","inputs":[]},{"type":"error","name":"SafeERC20FailedOperation","inputs":[{"name":"token","type":"address","internalType":"address"}]}],"bytecode":{"object":"0x60a060405234801561000f575f80fd5b5060405161190c38038061190c83398101604081905261002e91610201565b80518190806001600160a01b038116610061576040516347bd7c1d60e01b81525f60048201526024015b60405180910390fd5b6040516301ffc9a760e01b815263ce78f4a360e01b60048201526001600160a01b038216906301ffc9a790602401602060405180830381865afa1580156100aa573d5f803e3d5ffd5b505050506040513d601f19601f820116820180604052508101906100ce91906102a4565b6100f6576040516347bd7c1d60e01b81526001600160a01b0382166004820152602401610058565b5f80546001600160a01b0319166001600160a01b03928316178155602084810151606086015160035560408051628bec5760e51b815290519195509385169363117d8ae093600480830194939283900301908290875af115801561015c573d5f803e3d5ffd5b505050506040513d601f19601f8201168201806040525081019061018091906102ca565b600280546001600160a01b039283166001600160a01b0319918216179091556040909301516004805491831691909416179092555082166101d457604051630306120160e01b815260040160405180910390fd5b506001600160a01b03166080526102e3565b80516001600160a01b03811681146101fc575f80fd5b919050565b5f8082840360a0811215610213575f80fd5b61021c846101e6565b92506080601f198201121561022f575f80fd5b50604051608081016001600160401b038111828210171561025e57634e487b7160e01b5f52604160045260245ffd5b60405261026d602085016101e6565b815261027b604085016101e6565b602082015261028c606085016101e6565b60408201526080939093015160608401525092909150565b5f602082840312156102b4575f80fd5b815180151581146102c3575f80fd5b9392505050565b5f602082840312156102da575f80fd5b6102c3826101e6565b6080516115f56103175f395f81816103020152818161037401528181610e4901528181610ee1015261103b01526115f55ff3fe608060405234801561000f575f80fd5b506004361061016d575f3560e01c80634dd47eba116100d95780639403e41f11610093578063b6042b341161006e578063b6042b34146102fd578063d547741f14610324578063d8a8e03a14610337578063fc0c546a1461034a575f80fd5b80639403e41f146102da5780639b3ba79f146102ed578063a217fddf146102f6575f80fd5b80634dd47eba1461026c578063552033c41461027f5780636a1460241461029257806372f12344146102a157806381d3ce26146102b457806391d14854146102c7575f80fd5b80632c4e722e1161012a5780632c4e722e1461021a5780632f2ff15d1461022257806336568abe14610235578063372709361461024857806344ee06051461025b5780634641257d146101e2575f80fd5b806301e1d1141461017157806301ffc9a71461018c578063117d8ae0146101af57806318178358146101da578063248a9ca3146101e457806328ed6e3f14610207575b5f80fd5b61017961035d565b6040519081526020015b60405180910390f35b61019f61019a36600461147a565b61044f565b6040519015158152602001610183565b6002546101c2906001600160a01b031681565b6040516001600160a01b039091168152602001610183565b6101e2610485565b005b6101796101f23660046114a1565b5f908152600160208190526040909120015490565b6101e26102153660046114a1565b610598565b6101796106bc565b6101e26102303660046114d3565b610799565b6101e26102433660046114d3565b6107b4565b6005546101c2906001600160a01b031681565b6101e26102693660046114fd565b50565b6101e261027a3660046114a1565b6107ec565b6101796b033b2e3c9fd0803ce800000081565b610179670de0b6b3a764000081565b6101e26102af3660046114a1565b61087b565b6101e26102c23660046114fd565b6108d7565b61019f6102d53660046114d3565b610a4c565b6101e26102e83660046114fd565b610a76565b61017960035481565b6101795f81565b6101c27f000000000000000000000000000000000000000000000000000000000000000081565b6101e26103323660046114d3565b610be7565b6101e26103453660046114d3565b610c02565b6004546101c2906001600160a01b031681565b6040516370a0823160e01b81523060048201525f907f00000000000000000000000000000000000000000000000000000000000000006001600160a01b0316906307a2d13a9082906370a0823190602401602060405180830381865afa1580156103c9573d5f803e3d5ffd5b505050506040513d601f19601f820116820180604052508101906103ed9190611516565b6040518263ffffffff1660e01b815260040161040b91815260200190565b602060405180830381865afa158015610426573d5f803e3d5ffd5b505050506040513d601f19601f8201168201806040525081019061044a9190611516565b905090565b5f6001600160e01b03198216637965db0b60e01b148061047f57506301ffc9a760e01b6001600160e01b03198316145b92915050565b60065442036104b8576040517ffb5829c244b48204000a0e9c7f5b68eecb349f471eafc9c1becbf62854eb76f5905f90a1565b5f306001600160a01b03166301e1d1146040518163ffffffff1660e01b8152600401602060405180830381865afa1580156104f5573d5f803e3d5ffd5b505050506040513d601f19601f820116820180604052508101906105199190611516565b9050600754810361054f576040517f51fb49be6cb6da86642323ec7f5995f1b10f69c77520899be766c78d686dde4e905f90a150565b60078190554260068190556040805183815260208101929092527ffd8be248249824b1683ff1db237618eaf58754a86088acb74842fe014b0998df91015b60405180910390a150565b6105a0610d4e565b61064a575f3360055460405163d25dd10160e01b81526001600160a01b0380841660048301529293505f929091169063d25dd10190602401602060405180830381865afa1580156105f3573d5f803e3d5ffd5b505050506040513d601f19601f82011682018060405250810190610617919061152d565b9050806106475760405163033edcb360e01b81526001600160a01b03831660048201526024015b60405180910390fd5b50505b6004543390610664906001600160a01b0316823085610dc1565b61066d82610e2e565b600454604080516001600160a01b03928316815260208101859052918316917fcbaa1442ac205415c9d69643e7b60ec73d1de35dbc807c21ec288c70ddc4207b91015b60405180910390a25050565b5f80306001600160a01b03166301e1d1146040518163ffffffff1660e01b8152600401602060405180830381865afa1580156106fa573d5f803e3d5ffd5b505050506040513d601f19601f8201168201806040525081019061071e9190611516565b90505f6006544261072f9190611560565b90505f8111801561074157505f600754115b1561079457806007546107549190611573565b6b033b2e3c9fd0803ce80000006007548461076f9190611560565b61077d906301e13380611573565b6107879190611573565b610791919061158a565b92505b505090565b604051630e15200f60e21b815233600482015260240161063e565b6001600160a01b03811633146107dd5760405163334bd91960e11b815260040160405180910390fd5b6107e78282610fa6565b505050565b6107f4610d4e565b61081357604051631564c0e160e11b815233600482015260240161063e565b3361081d82611018565b600454610834906001600160a01b03168284611072565b600454604080516001600160a01b03928316815260208101859052918316917fd5e872c5ecfb1bb8820b2e6a20e31b883682282da886621541f71e31ec11947e91016106b0565b610883610d4e565b6108a257604051631564c0e160e11b815233600482015260240161063e565b60038190556040518181527ff71dfae69e41913414884e69a96ee28ef3f1ce5593bee0fb570cf9404e41a8089060200161058d565b5f5460408051630ccc574960e41b815290516001600160a01b03909216916391d1485491839163ccc57490916004808201926020929091908290030181865afa158015610926573d5f803e3d5ffd5b505050506040513d601f19601f8201168201806040525081019061094a9190611516565b6040516001600160e01b031960e084901b1681526004810191909152336024820152604401602060405180830381865afa15801561098a573d5f803e3d5ffd5b505050506040513d601f19601f820116820180604052508101906109ae919061152d565b6109cd57604051630ea7d7ed60e21b815233600482015260240161063e565b6109d6816110a3565b5f54604080516345b817bb60e01b81529051610a48926001600160a01b0316916345b817bb9160048083019260209291908290030181865afa158015610a1e573d5f803e3d5ffd5b505050506040513d601f19601f82011682018060405250810190610a429190611516565b82610fa6565b5050565b5f9182526001602090815260408084206001600160a01b0393909316845291905290205460ff1690565b5f5460408051630ccc574960e41b815290516001600160a01b03909216916391d1485491839163ccc57490916004808201926020929091908290030181865afa158015610ac5573d5f803e3d5ffd5b505050506040513d601f19601f82011682018060405250810190610ae99190611516565b6040516001600160e01b031960e084901b1681526004810191909152336024820152604401602060405180830381865afa158015610b29573d5f803e3d5ffd5b505050506040513d601f19601f82011682018060405250810190610b4d919061152d565b610b6c57604051630ea7d7ed60e21b815233600482015260240161063e565b610b7581611136565b5f54604080516345b817bb60e01b81529051610a48926001600160a01b0316916345b817bb9160048083019260209291908290030181865afa158015610bbd573d5f803e3d5ffd5b505050506040513d601f19601f82011682018060405250810190610be19190611516565b82611278565b604051636344978560e11b815233600482015260240161063e565b610c0a610d4e565b610c2957604051631564c0e160e11b815233600482015260240161063e565b610c3282611018565b6004805460405163095ea7b360e01b81526001600160a01b03848116938201939093526024810185905291169063095ea7b3906044016020604051808303815f875af1158015610c84573d5f803e3d5ffd5b505050506040513d601f19601f82011682018060405250810190610ca8919061152d565b506040516328ed6e3f60e01b8152600481018390526001600160a01b038216906328ed6e3f906024015f604051808303815f87803b158015610ce8575f80fd5b505af1158015610cfa573d5f803e3d5ffd5b5050600454604080516001600160a01b0392831681526020810187905291851693503092507f9f784fc02a186f1c98b2d9f15fda084da27cdd291a3785d978f91911d880516b910160405180910390a35050565b5f8054604080516345b817bb60e01b8152905161044a926001600160a01b0316916345b817bb9160048083019260209291908290030181865afa158015610d97573d5f803e3d5ffd5b505050506040513d601f19601f82011682018060405250810190610dbb9190611516565b33610a4c565b6040516001600160a01b038481166024830152838116604483015260648201839052610e289186918216906323b872dd906084015b604051602081830303815290604052915060e01b6020820180516001600160e01b0383818316178352505050506112e7565b50505050565b6004805460405163095ea7b360e01b81526001600160a01b037f00000000000000000000000000000000000000000000000000000000000000008116938201939093526024810184905291169063095ea7b3906044016020604051808303815f875af1158015610ea0573d5f803e3d5ffd5b505050506040513d601f19601f82011682018060405250810190610ec4919061152d565b50604051636e553f6560e01b8152600481018290523060248201527f00000000000000000000000000000000000000000000000000000000000000006001600160a01b031690636e553f65906044015b6020604051808303815f875af1158015610f30573d5f803e3d5ffd5b505050506040513d601f19601f82011682018060405250810190610f549190611516565b50306001600160a01b031663181783586040518163ffffffff1660e01b81526004015f604051808303815f87803b158015610f8d575f80fd5b505af1158015610f9f573d5f803e3d5ffd5b5050505050565b5f610fb18383610a4c565b15611011575f8381526001602090815260408083206001600160a01b0386168085529252808320805460ff1916905551339286917ff6391f5c32d9c69d2a47ea670b442974b53935d1edc7fd64eb21e047a839171b9190a450600161047f565b505f61047f565b604051632d182be560e21b815260048101829052306024820181905260448201527f00000000000000000000000000000000000000000000000000000000000000006001600160a01b03169063b460af9490606401610f14565b6040516001600160a01b038381166024830152604482018390526107e791859182169063a9059cbb90606401610df6565b5f306001600160a01b03166301e1d1146040518163ffffffff1660e01b8152600401602060405180830381865afa1580156110e0573d5f803e3d5ffd5b505050506040513d601f19601f820116820180604052508101906111049190611516565b1115611123576040516373a075f360e01b815260040160405180910390fd5b50600580546001600160a01b0319169055565b5f5460408051630ccc574960e41b815290516001600160a01b03909216916391d1485491839163ccc57490916004808201926020929091908290030181865afa158015611185573d5f803e3d5ffd5b505050506040513d601f19601f820116820180604052508101906111a99190611516565b6040516001600160e01b031960e084901b1681526004810191909152336024820152604401602060405180830381865afa1580156111e9573d5f803e3d5ffd5b505050506040513d601f19601f8201168201806040525081019061120d919061152d565b61122c57604051630ea7d7ed60e21b815233600482015260240161063e565b6005546001600160a01b0316156112565760405163d32184ed60e01b815260040160405180910390fd5b600580546001600160a01b0319166001600160a01b0392909216919091179055565b5f6112838383610a4c565b611011575f8381526001602081815260408084206001600160a01b0387168086529252808420805460ff19169093179092559051339286917f2f8788117e7eff1d82e926ec794901d17c78024a50270940304540a733656f0d9190a450600161047f565b5f6112fb6001600160a01b03841683611348565b905080515f1415801561131f57508080602001905181019061131d919061152d565b155b156107e757604051635274afe760e01b81526001600160a01b038416600482015260240161063e565b606061135583835f61135c565b9392505050565b6060814710156113815760405163cd78605960e01b815230600482015260240161063e565b5f80856001600160a01b0316848660405161139c91906115a9565b5f6040518083038185875af1925050503d805f81146113d6576040519150601f19603f3d011682016040523d82523d5f602084013e6113db565b606091505b50915091506113eb8683836113f5565b9695505050505050565b60608261140a5761140582611451565b611355565b815115801561142157506001600160a01b0384163b155b1561144a57604051639996b31560e01b81526001600160a01b038516600482015260240161063e565b5080611355565b8051156114615780518082602001fd5b604051630a12f52160e11b815260040160405180910390fd5b5f6020828403121561148a575f80fd5b81356001600160e01b031981168114611355575f80fd5b5f602082840312156114b1575f80fd5b5035919050565b80356001600160a01b03811681146114ce575f80fd5b919050565b5f80604083850312156114e4575f80fd5b823591506114f4602084016114b8565b90509250929050565b5f6020828403121561150d575f80fd5b611355826114b8565b5f60208284031215611526575f80fd5b5051919050565b5f6020828403121561153d575f80fd5b81518015158114611355575f80fd5b634e487b7160e01b5f52601160045260245ffd5b8181038181111561047f5761047f61154c565b808202811582820484141761047f5761047f61154c565b5f826115a457634e487b7160e01b5f52601260045260245ffd5b500490565b5f82518060208501845e5f92019182525091905056fea2646970667358221220bd1b51159d7a58ed870743fad079134c7e396ae8762e38ca3bfb5897ae1e1b8464736f6c634300081a0033","linkReferences":{}},"methodIdentifiers":{"DEFAULT_ADMIN_ROLE()":"a217fddf","RAY()":"552033c4","WAD()":"6a146024","board(uint256)":"28ed6e3f","commander()":"37270936","disembark(uint256)":"4dd47eba","getRoleAdmin(bytes32)":"248a9ca3","grantCommanderRole(address)":"9403e41f","grantRole(bytes32,address)":"2f2ff15d","harvest()":"4641257d","hasRole(bytes32,address)":"91d14854","maxAllocation()":"9b3ba79f","metaMorpho()":"b6042b34","move(uint256,address)":"d8a8e03a","poke()":"18178358","raft()":"117d8ae0","rate()":"2c4e722e","renounceRole(bytes32,address)":"36568abe","revokeCommanderRole(address)":"81d3ce26","revokeRole(bytes32,address)":"d547741f","setMaxAllocation(uint256)":"72f12344","setRaft(address)":"44ee0605","supportsInterface(bytes4)":"01ffc9a7","token()":"fc0c546a","totalAssets()":"01e1d114"},"id":68}