{"abi":[{"type":"constructor","inputs":[{"name":"_params","type":"tuple","internalType":"struct ArkParams","components":[{"name":"accessManager","type":"address","internalType":"address"},{"name":"configurationManager","type":"address","internalType":"address"},{"name":"token","type":"address","internalType":"address"},{"name":"maxAllocation","type":"uint256","internalType":"uint256"}]}],"stateMutability":"nonpayable"},{"type":"function","name":"DEFAULT_ADMIN_ROLE","inputs":[],"outputs":[{"name":"","type":"bytes32","internalType":"bytes32"}],"stateMutability":"view"},{"type":"function","name":"board","inputs":[{"name":"amount","type":"uint256","internalType":"uint256"}],"outputs":[],"stateMutability":"nonpayable"},{"type":"function","name":"commander","inputs":[],"outputs":[{"name":"","type":"address","internalType":"address"}],"stateMutability":"view"},{"type":"function","name":"disembark","inputs":[{"name":"amount","type":"uint256","internalType":"uint256"}],"outputs":[],"stateMutability":"nonpayable"},{"type":"function","name":"getRoleAdmin","inputs":[{"name":"role","type":"bytes32","internalType":"bytes32"}],"outputs":[{"name":"","type":"bytes32","internalType":"bytes32"}],"stateMutability":"view"},{"type":"function","name":"grantCommanderRole","inputs":[{"name":"account","type":"address","internalType":"address"}],"outputs":[],"stateMutability":"nonpayable"},{"type":"function","name":"grantRole","inputs":[{"name":"role","type":"bytes32","internalType":"bytes32"},{"name":"account","type":"address","internalType":"address"}],"outputs":[],"stateMutability":"view"},{"type":"function","name":"harvest","inputs":[],"outputs":[],"stateMutability":"nonpayable"},{"type":"function","name":"hasRole","inputs":[{"name":"role","type":"bytes32","internalType":"bytes32"},{"name":"account","type":"address","internalType":"address"}],"outputs":[{"name":"","type":"bool","internalType":"bool"}],"stateMutability":"view"},{"type":"function","name":"maxAllocation","inputs":[],"outputs":[{"name":"","type":"uint256","internalType":"uint256"}],"stateMutability":"view"},{"type":"function","name":"move","inputs":[{"name":"amount","type":"uint256","internalType":"uint256"},{"name":"receiverArk","type":"address","internalType":"address"}],"outputs":[],"stateMutability":"nonpayable"},{"type":"function","name":"poke","inputs":[],"outputs":[],"stateMutability":"nonpayable"},{"type":"function","name":"raft","inputs":[],"outputs":[{"name":"","type":"address","internalType":"address"}],"stateMutability":"view"},{"type":"function","name":"rate","inputs":[],"outputs":[{"name":"","type":"uint256","internalType":"uint256"}],"stateMutability":"pure"},{"type":"function","name":"renounceRole","inputs":[{"name":"role","type":"bytes32","internalType":"bytes32"},{"name":"callerConfirmation","type":"address","internalType":"address"}],"outputs":[],"stateMutability":"nonpayable"},{"type":"function","name":"revokeCommanderRole","inputs":[{"name":"account","type":"address","internalType":"address"}],"outputs":[],"stateMutability":"nonpayable"},{"type":"function","name":"revokeRole","inputs":[{"name":"role","type":"bytes32","internalType":"bytes32"},{"name":"account","type":"address","internalType":"address"}],"outputs":[],"stateMutability":"view"},{"type":"function","name":"setMaxAllocation","inputs":[{"name":"newMaxAllocation","type":"uint256","internalType":"uint256"}],"outputs":[],"stateMutability":"nonpayable"},{"type":"function","name":"setRaft","inputs":[{"name":"newRaft","type":"address","internalType":"address"}],"outputs":[],"stateMutability":"nonpayable"},{"type":"function","name":"supportsInterface","inputs":[{"name":"interfaceId","type":"bytes4","internalType":"bytes4"}],"outputs":[{"name":"","type":"bool","internalType":"bool"}],"stateMutability":"view"},{"type":"function","name":"token","inputs":[],"outputs":[{"name":"","type":"address","internalType":"contract IERC20"}],"stateMutability":"view"},{"type":"function","name":"totalAssets","inputs":[],"outputs":[{"name":"","type":"uint256","internalType":"uint256"}],"stateMutability":"view"},{"type":"event","name":"ArkPoked","inputs":[{"name":"totalAssets","type":"uint256","indexed":false,"internalType":"uint256"},{"name":"timestamp","type":"uint256","indexed":false,"internalType":"uint256"}],"anonymous":false},{"type":"event","name":"ArkPokedNoChange","inputs":[],"anonymous":false},{"type":"event","name":"ArkPokedTooSoon","inputs":[],"anonymous":false},{"type":"event","name":"Boarded","inputs":[{"name":"commander","type":"address","indexed":true,"internalType":"address"},{"name":"token","type":"address","indexed":false,"internalType":"address"},{"name":"amount","type":"uint256","indexed":false,"internalType":"uint256"}],"anonymous":false},{"type":"event","name":"DepositCapUpdated","inputs":[{"name":"newCap","type":"uint256","indexed":false,"internalType":"uint256"}],"anonymous":false},{"type":"event","name":"Disembarked","inputs":[{"name":"commander","type":"address","indexed":true,"internalType":"address"},{"name":"token","type":"address","indexed":false,"internalType":"address"},{"name":"amount","type":"uint256","indexed":false,"internalType":"uint256"}],"anonymous":false},{"type":"event","name":"Harvested","inputs":[{"name":"amount","type":"uint256","indexed":false,"internalType":"uint256"}],"anonymous":false},{"type":"event","name":"MaxAllocationUpdated","inputs":[{"name":"newMaxAllocation","type":"uint256","indexed":false,"internalType":"uint256"}],"anonymous":false},{"type":"event","name":"Moved","inputs":[{"name":"from","type":"address","indexed":true,"internalType":"address"},{"name":"to","type":"address","indexed":true,"internalType":"address"},{"name":"token","type":"address","indexed":false,"internalType":"address"},{"name":"amount","type":"uint256","indexed":false,"internalType":"uint256"}],"anonymous":false},{"type":"event","name":"RaftUpdated","inputs":[{"name":"newRaft","type":"address","indexed":false,"internalType":"address"}],"anonymous":false},{"type":"event","name":"RoleAdminChanged","inputs":[{"name":"role","type":"bytes32","indexed":true,"internalType":"bytes32"},{"name":"previousAdminRole","type":"bytes32","indexed":true,"internalType":"bytes32"},{"name":"newAdminRole","type":"bytes32","indexed":true,"internalType":"bytes32"}],"anonymous":false},{"type":"event","name":"RoleGranted","inputs":[{"name":"role","type":"bytes32","indexed":true,"internalType":"bytes32"},{"name":"account","type":"address","indexed":true,"internalType":"address"},{"name":"sender","type":"address","indexed":true,"internalType":"address"}],"anonymous":false},{"type":"event","name":"RoleRevoked","inputs":[{"name":"role","type":"bytes32","indexed":true,"internalType":"bytes32"},{"name":"account","type":"address","indexed":true,"internalType":"address"},{"name":"sender","type":"address","indexed":true,"internalType":"address"}],"anonymous":false},{"type":"error","name":"AccessControlBadConfirmation","inputs":[]},{"type":"error","name":"AccessControlUnauthorizedAccount","inputs":[{"name":"account","type":"address","internalType":"address"},{"name":"neededRole","type":"bytes32","internalType":"bytes32"}]},{"type":"error","name":"AddressEmptyCode","inputs":[{"name":"target","type":"address","internalType":"address"}]},{"type":"error","name":"AddressInsufficientBalance","inputs":[{"name":"account","type":"address","internalType":"address"}]},{"type":"error","name":"CallerIsNotCommander","inputs":[{"name":"caller","type":"address","internalType":"address"}]},{"type":"error","name":"CallerIsNotCommanderOrArk","inputs":[{"name":"caller","type":"address","internalType":"address"}]},{"type":"error","name":"CallerIsNotGovernor","inputs":[{"name":"caller","type":"address","internalType":"address"}]},{"type":"error","name":"CannotAddCommanderToArkWithCommander","inputs":[]},{"type":"error","name":"CannotRemoveCommanderFromArkWithAssets","inputs":[]},{"type":"error","name":"DirectGrantIsDisabled","inputs":[{"name":"caller","type":"address","internalType":"address"}]},{"type":"error","name":"DirectRevokeIsDisabled","inputs":[{"name":"caller","type":"address","internalType":"address"}]},{"type":"error","name":"FailedInnerCall","inputs":[]},{"type":"error","name":"InvalidAccessManagerAddress","inputs":[{"name":"invalidAddress","type":"address","internalType":"address"}]},{"type":"error","name":"InvalidVaultAddress","inputs":[]},{"type":"error","name":"SafeERC20FailedOperation","inputs":[{"name":"token","type":"address","internalType":"address"}]}],"bytecode":{"object":"0x608060405234801561000f575f80fd5b5060405161136638038061136683398101604081905261002e916101d6565b80518190806001600160a01b038116610061576040516347bd7c1d60e01b81525f60048201526024015b60405180910390fd5b6040516301ffc9a760e01b815263ce78f4a360e01b60048201526001600160a01b038216906301ffc9a790602401602060405180830381865afa1580156100aa573d5f803e3d5ffd5b505050506040513d601f19601f820116820180604052508101906100ce9190610259565b6100f6576040516347bd7c1d60e01b81526001600160a01b0382166004820152602401610058565b5f80546001600160a01b0319166001600160a01b03928316178155602084810151606086015160035560408051628bec5760e51b815290519195509385169363117d8ae093600480830194939283900301908290875af115801561015c573d5f803e3d5ffd5b505050506040513d601f19601f82011682018060405250810190610180919061027f565b600280546001600160a01b03199081166001600160a01b03938416179091556040939093015160048054909416911617909155506102989050565b80516001600160a01b03811681146101d1575f80fd5b919050565b5f60808284031280156101e7575f80fd5b50604051608081016001600160401b038111828210171561021657634e487b7160e01b5f52604160045260245ffd5b604052610222836101bb565b8152610230602084016101bb565b6020820152610241604084016101bb565b60408201526060928301519281019290925250919050565b5f60208284031215610269575f80fd5b81518015158114610278575f80fd5b9392505050565b5f6020828403121561028f575f80fd5b610278826101bb565b6110c1806102a55f395ff3fe608060405234801561000f575f80fd5b506004361061013d575f3560e01c80634641257d116100b45780639403e41f116100795780639403e41f1461027e5780639b3ba79f14610291578063a217fddf1461029a578063d547741f146102a1578063d8a8e03a146102b4578063fc0c546a146102c7575f80fd5b80634641257d146101aa5780634dd47eba1461023257806372f123441461024557806381d3ce261461025857806391d148541461026b575f80fd5b806328ed6e3f1161010557806328ed6e3f146101cf5780632c4e722e146101e25780632f2ff15d146101e857806336568abe146101fb578063372709361461020e57806344ee060514610221575f80fd5b806301e1d1141461014157806301ffc9a71461015c578063117d8ae01461017f57806318178358146101aa578063248a9ca3146101ac575b5f80fd5b6101496102da565b6040519081526020015b60405180910390f35b61016f61016a366004610fa3565b61034e565b6040519015158152602001610153565b600254610192906001600160a01b031681565b6040516001600160a01b039091168152602001610153565b005b6101496101ba366004610fca565b5f908152600160208190526040909120015490565b6101aa6101dd366004610fca565b610384565b5f610149565b6101aa6101f6366004610ffc565b61049f565b6101aa610209366004610ffc565b6104ba565b600554610192906001600160a01b031681565b6101aa61022f366004611026565b50565b6101aa610240366004610fca565b6104f2565b6101aa610253366004610fca565b610579565b6101aa610266366004611026565b6105db565b61016f610279366004610ffc565b610750565b6101aa61028c366004611026565b61077a565b61014960035481565b6101495f81565b6101aa6102af366004610ffc565b6108eb565b6101aa6102c2366004610ffc565b610906565b600454610192906001600160a01b031681565b600480546040516370a0823160e01b815230928101929092525f916001600160a01b03909116906370a0823190602401602060405180830381865afa158015610325573d5f803e3d5ffd5b505050506040513d601f19601f82011682018060405250810190610349919061103f565b905090565b5f6001600160e01b03198216637965db0b60e01b148061037e57506301ffc9a760e01b6001600160e01b03198316145b92915050565b61038c610a49565b610436575f3360055460405163d25dd10160e01b81526001600160a01b0380841660048301529293505f929091169063d25dd10190602401602060405180830381865afa1580156103df573d5f803e3d5ffd5b505050506040513d601f19601f820116820180604052508101906104039190611056565b9050806104335760405163033edcb360e01b81526001600160a01b03831660048201526024015b60405180910390fd5b50505b6004543390610450906001600160a01b0316823085610abc565b600454604080516001600160a01b03928316815260208101859052918316917fcbaa1442ac205415c9d69643e7b60ec73d1de35dbc807c21ec288c70ddc4207b91015b60405180910390a25050565b604051630e15200f60e21b815233600482015260240161042a565b6001600160a01b03811633146104e35760405163334bd91960e11b815260040160405180910390fd5b6104ed8282610b29565b505050565b6104fa610a49565b61051957604051631564c0e160e11b815233600482015260240161042a565b6004543390610532906001600160a01b03168284610b9b565b600454604080516001600160a01b03928316815260208101859052918316917fd5e872c5ecfb1bb8820b2e6a20e31b883682282da886621541f71e31ec11947e9101610493565b610581610a49565b6105a057604051631564c0e160e11b815233600482015260240161042a565b60038190556040518181527ff71dfae69e41913414884e69a96ee28ef3f1ce5593bee0fb570cf9404e41a8089060200160405180910390a150565b5f5460408051630ccc574960e41b815290516001600160a01b03909216916391d1485491839163ccc57490916004808201926020929091908290030181865afa15801561062a573d5f803e3d5ffd5b505050506040513d601f19601f8201168201806040525081019061064e919061103f565b6040516001600160e01b031960e084901b1681526004810191909152336024820152604401602060405180830381865afa15801561068e573d5f803e3d5ffd5b505050506040513d601f19601f820116820180604052508101906106b29190611056565b6106d157604051630ea7d7ed60e21b815233600482015260240161042a565b6106da81610bcc565b5f54604080516345b817bb60e01b8152905161074c926001600160a01b0316916345b817bb9160048083019260209291908290030181865afa158015610722573d5f803e3d5ffd5b505050506040513d601f19601f82011682018060405250810190610746919061103f565b82610b29565b5050565b5f9182526001602090815260408084206001600160a01b0393909316845291905290205460ff1690565b5f5460408051630ccc574960e41b815290516001600160a01b03909216916391d1485491839163ccc57490916004808201926020929091908290030181865afa1580156107c9573d5f803e3d5ffd5b505050506040513d601f19601f820116820180604052508101906107ed919061103f565b6040516001600160e01b031960e084901b1681526004810191909152336024820152604401602060405180830381865afa15801561082d573d5f803e3d5ffd5b505050506040513d601f19601f820116820180604052508101906108519190611056565b61087057604051630ea7d7ed60e21b815233600482015260240161042a565b61087981610c5f565b5f54604080516345b817bb60e01b8152905161074c926001600160a01b0316916345b817bb9160048083019260209291908290030181865afa1580156108c1573d5f803e3d5ffd5b505050506040513d601f19601f820116820180604052508101906108e5919061103f565b82610da1565b604051636344978560e11b815233600482015260240161042a565b61090e610a49565b61092d57604051631564c0e160e11b815233600482015260240161042a565b6004805460405163095ea7b360e01b81526001600160a01b03848116938201939093526024810185905291169063095ea7b3906044016020604051808303815f875af115801561097f573d5f803e3d5ffd5b505050506040513d601f19601f820116820180604052508101906109a39190611056565b506040516328ed6e3f60e01b8152600481018390526001600160a01b038216906328ed6e3f906024015f604051808303815f87803b1580156109e3575f80fd5b505af11580156109f5573d5f803e3d5ffd5b5050600454604080516001600160a01b0392831681526020810187905291851693503092507f9f784fc02a186f1c98b2d9f15fda084da27cdd291a3785d978f91911d880516b910160405180910390a35050565b5f8054604080516345b817bb60e01b81529051610349926001600160a01b0316916345b817bb9160048083019260209291908290030181865afa158015610a92573d5f803e3d5ffd5b505050506040513d601f19601f82011682018060405250810190610ab6919061103f565b33610750565b6040516001600160a01b038481166024830152838116604483015260648201839052610b239186918216906323b872dd906084015b604051602081830303815290604052915060e01b6020820180516001600160e01b038381831617835250505050610e10565b50505050565b5f610b348383610750565b15610b94575f8381526001602090815260408083206001600160a01b0386168085529252808320805460ff1916905551339286917ff6391f5c32d9c69d2a47ea670b442974b53935d1edc7fd64eb21e047a839171b9190a450600161037e565b505f61037e565b6040516001600160a01b038381166024830152604482018390526104ed91859182169063a9059cbb90606401610af1565b5f306001600160a01b03166301e1d1146040518163ffffffff1660e01b8152600401602060405180830381865afa158015610c09573d5f803e3d5ffd5b505050506040513d601f19601f82011682018060405250810190610c2d919061103f565b1115610c4c576040516373a075f360e01b815260040160405180910390fd5b50600580546001600160a01b0319169055565b5f5460408051630ccc574960e41b815290516001600160a01b03909216916391d1485491839163ccc57490916004808201926020929091908290030181865afa158015610cae573d5f803e3d5ffd5b505050506040513d601f19601f82011682018060405250810190610cd2919061103f565b6040516001600160e01b031960e084901b1681526004810191909152336024820152604401602060405180830381865afa158015610d12573d5f803e3d5ffd5b505050506040513d601f19601f82011682018060405250810190610d369190611056565b610d5557604051630ea7d7ed60e21b815233600482015260240161042a565b6005546001600160a01b031615610d7f5760405163d32184ed60e01b815260040160405180910390fd5b600580546001600160a01b0319166001600160a01b0392909216919091179055565b5f610dac8383610750565b610b94575f8381526001602081815260408084206001600160a01b0387168086529252808420805460ff19169093179092559051339286917f2f8788117e7eff1d82e926ec794901d17c78024a50270940304540a733656f0d9190a450600161037e565b5f610e246001600160a01b03841683610e71565b905080515f14158015610e48575080806020019051810190610e469190611056565b155b156104ed57604051635274afe760e01b81526001600160a01b038416600482015260240161042a565b6060610e7e83835f610e85565b9392505050565b606081471015610eaa5760405163cd78605960e01b815230600482015260240161042a565b5f80856001600160a01b03168486604051610ec59190611075565b5f6040518083038185875af1925050503d805f8114610eff576040519150601f19603f3d011682016040523d82523d5f602084013e610f04565b606091505b5091509150610f14868383610f1e565b9695505050505050565b606082610f3357610f2e82610f7a565b610e7e565b8151158015610f4a57506001600160a01b0384163b155b15610f7357604051639996b31560e01b81526001600160a01b038516600482015260240161042a565b5080610e7e565b805115610f8a5780518082602001fd5b604051630a12f52160e11b815260040160405180910390fd5b5f60208284031215610fb3575f80fd5b81356001600160e01b031981168114610e7e575f80fd5b5f60208284031215610fda575f80fd5b5035919050565b80356001600160a01b0381168114610ff7575f80fd5b919050565b5f806040838503121561100d575f80fd5b8235915061101d60208401610fe1565b90509250929050565b5f60208284031215611036575f80fd5b610e7e82610fe1565b5f6020828403121561104f575f80fd5b5051919050565b5f60208284031215611066575f80fd5b81518015158114610e7e575f80fd5b5f82518060208501845e5f92019182525091905056fea2646970667358221220c59cbd858bf4fd3ec4567da04dc54ba039f68d312759a115c0959168aa49b8aa64736f6c634300081a0033","linkReferences":{}},"methodIdentifiers":{"DEFAULT_ADMIN_ROLE()":"a217fddf","board(uint256)":"28ed6e3f","commander()":"37270936","disembark(uint256)":"4dd47eba","getRoleAdmin(bytes32)":"248a9ca3","grantCommanderRole(address)":"9403e41f","grantRole(bytes32,address)":"2f2ff15d","harvest()":"4641257d","hasRole(bytes32,address)":"91d14854","maxAllocation()":"9b3ba79f","move(uint256,address)":"d8a8e03a","poke()":"18178358","raft()":"117d8ae0","rate()":"2c4e722e","renounceRole(bytes32,address)":"36568abe","revokeCommanderRole(address)":"81d3ce26","revokeRole(bytes32,address)":"d547741f","setMaxAllocation(uint256)":"72f12344","setRaft(address)":"44ee0605","supportsInterface(bytes4)":"01ffc9a7","token()":"fc0c546a","totalAssets()":"01e1d114"},"id":66}