{"abi":[{"type":"constructor","inputs":[{"name":"_accessManager","type":"address","internalType":"address"}],"stateMutability":"nonpayable"},{"type":"function","name":"generateRole","inputs":[{"name":"roleName","type":"uint8","internalType":"enum ContractSpecificRoles"},{"name":"roleTargetContract","type":"address","internalType":"address"}],"outputs":[{"name":"","type":"bytes32","internalType":"bytes32"}],"stateMutability":"pure"},{"type":"function","name":"harborCommand","inputs":[],"outputs":[{"name":"","type":"address","internalType":"address"}],"stateMutability":"view"},{"type":"function","name":"initializeConfiguration","inputs":[{"name":"params","type":"tuple","internalType":"struct ConfigurationManagerParams","components":[{"name":"raft","type":"address","internalType":"address"},{"name":"tipJar","type":"address","internalType":"address"},{"name":"treasury","type":"address","internalType":"address"},{"name":"harborCommand","type":"address","internalType":"address"}]}],"outputs":[],"stateMutability":"nonpayable"},{"type":"function","name":"initialized","inputs":[],"outputs":[{"name":"","type":"bool","internalType":"bool"}],"stateMutability":"view"},{"type":"function","name":"raft","inputs":[],"outputs":[{"name":"","type":"address","internalType":"address"}],"stateMutability":"view"},{"type":"function","name":"setHarborCommand","inputs":[{"name":"newHarborCommand","type":"address","internalType":"address"}],"outputs":[],"stateMutability":"nonpayable"},{"type":"function","name":"setRaft","inputs":[{"name":"newRaft","type":"address","internalType":"address"}],"outputs":[],"stateMutability":"nonpayable"},{"type":"function","name":"setTipJar","inputs":[{"name":"newTipJar","type":"address","internalType":"address"}],"outputs":[],"stateMutability":"nonpayable"},{"type":"function","name":"setTreasury","inputs":[{"name":"newTreasury","type":"address","internalType":"address"}],"outputs":[],"stateMutability":"nonpayable"},{"type":"function","name":"tipJar","inputs":[],"outputs":[{"name":"","type":"address","internalType":"address"}],"stateMutability":"view"},{"type":"function","name":"treasury","inputs":[],"outputs":[{"name":"","type":"address","internalType":"address"}],"stateMutability":"view"},{"type":"event","name":"HarborCommandUpdated","inputs":[{"name":"oldHarborCommand","type":"address","indexed":false,"internalType":"address"},{"name":"newHarborCommand","type":"address","indexed":false,"internalType":"address"}],"anonymous":false},{"type":"event","name":"RaftUpdated","inputs":[{"name":"oldRaft","type":"address","indexed":false,"internalType":"address"},{"name":"newRaft","type":"address","indexed":false,"internalType":"address"}],"anonymous":false},{"type":"event","name":"TipJarUpdated","inputs":[{"name":"oldTipJar","type":"address","indexed":false,"internalType":"address"},{"name":"newTipJar","type":"address","indexed":false,"internalType":"address"}],"anonymous":false},{"type":"event","name":"TipRateUpdated","inputs":[{"name":"oldTipRate","type":"uint8","indexed":false,"internalType":"uint8"},{"name":"newTipRate","type":"uint8","indexed":false,"internalType":"uint8"}],"anonymous":false},{"type":"event","name":"TreasuryUpdated","inputs":[{"name":"oldTreasury","type":"address","indexed":false,"internalType":"address"},{"name":"newTreasury","type":"address","indexed":false,"internalType":"address"}],"anonymous":false},{"type":"error","name":"AddressZero","inputs":[]},{"type":"error","name":"CallerIsNotAdmin","inputs":[{"name":"caller","type":"address","internalType":"address"}]},{"type":"error","name":"CallerIsNotAuthorizedToBoard","inputs":[{"name":"caller","type":"address","internalType":"address"}]},{"type":"error","name":"CallerIsNotCommander","inputs":[{"name":"caller","type":"address","internalType":"address"}]},{"type":"error","name":"CallerIsNotContractSpecificRole","inputs":[{"name":"caller","type":"address","internalType":"address"},{"name":"role","type":"bytes32","internalType":"bytes32"}]},{"type":"error","name":"CallerIsNotCurator","inputs":[{"name":"caller","type":"address","internalType":"address"}]},{"type":"error","name":"CallerIsNotGovernor","inputs":[{"name":"caller","type":"address","internalType":"address"}]},{"type":"error","name":"CallerIsNotGuardian","inputs":[{"name":"caller","type":"address","internalType":"address"}]},{"type":"error","name":"CallerIsNotGuardianOrGovernor","inputs":[{"name":"caller","type":"address","internalType":"address"}]},{"type":"error","name":"CallerIsNotKeeper","inputs":[{"name":"caller","type":"address","internalType":"address"}]},{"type":"error","name":"CallerIsNotRaft","inputs":[{"name":"caller","type":"address","internalType":"address"}]},{"type":"error","name":"CallerIsNotRaftOrCommander","inputs":[{"name":"caller","type":"address","internalType":"address"}]},{"type":"error","name":"CallerIsNotSuperKeeper","inputs":[{"name":"caller","type":"address","internalType":"address"}]},{"type":"error","name":"ConfigurationManagerAlreadyInitialized","inputs":[]},{"type":"error","name":"DirectGrantIsDisabled","inputs":[{"name":"caller","type":"address","internalType":"address"}]},{"type":"error","name":"DirectRevokeIsDisabled","inputs":[{"name":"caller","type":"address","internalType":"address"}]},{"type":"error","name":"HarborCommandNotSet","inputs":[]},{"type":"error","name":"InvalidAccessManagerAddress","inputs":[{"name":"invalidAddress","type":"address","internalType":"address"}]},{"type":"error","name":"RaftNotSet","inputs":[]},{"type":"error","name":"TipJarNotSet","inputs":[]},{"type":"error","name":"TreasuryNotSet","inputs":[]},{"type":"error","name":"ZeroAddress","inputs":[]}],"bytecode":{"object":"0x608060405234801561000f575f5ffd5b50604051610e2a380380610e2a83398101604081905261002e91610117565b806001600160a01b03811661005d576040516347bd7c1d60e01b81525f60048201526024015b60405180910390fd5b6040516301ffc9a760e01b815263a237592160e01b60048201526001600160a01b038216906301ffc9a790602401602060405180830381865afa1580156100a6573d5f5f3e3d5ffd5b505050506040513d601f19601f820116820180604052508101906100ca9190610144565b6100f2576040516347bd7c1d60e01b81526001600160a01b0382166004820152602401610054565b5f80546001600160a01b0319166001600160a01b039290921691909117905550610163565b5f60208284031215610127575f5ffd5b81516001600160a01b038116811461013d575f5ffd5b9392505050565b5f60208284031215610154575f5ffd5b8151801515811461013d575f5ffd5b610cba806101705f395ff3fe608060405234801561000f575f5ffd5b50600436106100a6575f3560e01c80635c66e3da1161006e5780635c66e3da1461013857806361d027b31461014b57806369b3054b1461015e578063788d83661461017f5780637aaceb9514610192578063f0f44260146101a5575f5ffd5b8063117d8ae0146100aa578063158ef93e146100da578063330c22f0146100fd57806344ee0605146101125780635b0f83f314610125575b5f5ffd5b6001546100bd906001600160a01b031681565b6040516001600160a01b0390911681526020015b60405180910390f35b5f546100ed90600160a01b900460ff1681565b60405190151581526020016100d1565b61011061010b366004610b12565b6101b8565b005b610110610120366004610b9b565b6104ad565b6004546100bd906001600160a01b031681565b610110610146366004610b9b565b610633565b6003546100bd906001600160a01b031681565b61017161016c366004610bbb565b6107b9565b6040519081526020016100d1565b61011061018d366004610b9b565b6107eb565b6002546100bd906001600160a01b031681565b6101106101b3366004610b9b565b610971565b5f5460408051630ccc574960e41b815290516001600160a01b03909216916391d1485491839163ccc57490916004808201926020929091908290030181865afa158015610207573d5f5f3e3d5ffd5b505050506040513d601f19601f8201168201806040525081019061022b9190610bf1565b6040516001600160e01b031960e084901b1681526004810191909152336024820152604401602060405180830381865afa15801561026b573d5f5f3e3d5ffd5b505050506040513d601f19601f8201168201806040525081019061028f9190610c08565b6102b357604051630ea7d7ed60e21b81523360048201526024015b60405180910390fd5b5f54600160a01b900460ff16156102dd5760405163485ed86d60e01b815260040160405180910390fd5b80516001600160a01b031615806102ff575060208101516001600160a01b0316155b80610315575060408101516001600160a01b0316155b8061032b575060608101516001600160a01b0316155b1561034957604051639fabe1c160e01b815260040160405180910390fd5b8051600180546001600160a01b03199081166001600160a01b038085169190911790925560208401516002805483169184169190911790556040808501516003805484169185169190911790556060850151600480549093169316929092179055517fffe0a81e9fcc7a42c05a5b4b763ffb4ca50ddd532d824b476298bb1264194545916103d9915f9190610c27565b60405180910390a17ff6305c18a40cde2556a61871b17cd0a86d780832dc0e3e05a43c1d2ff8a53ac45f8260200151604051610416929190610c27565b60405180910390a17f4ab5be82436d353e61ca18726e984e561f5c1cc7c6d38b29d2553c790434705a5f8260400151604051610453929190610c27565b60405180910390a17f5da6b94665bf1ffea8956b1bfd3424ac4e5879083197059f23e5181df77c36195f8260600151604051610490929190610c27565b60405180910390a1505f805460ff60a01b1916600160a01b179055565b5f5460408051630ccc574960e41b815290516001600160a01b03909216916391d1485491839163ccc57490916004808201926020929091908290030181865afa1580156104fc573d5f5f3e3d5ffd5b505050506040513d601f19601f820116820180604052508101906105209190610bf1565b6040516001600160e01b031960e084901b1681526004810191909152336024820152604401602060405180830381865afa158015610560573d5f5f3e3d5ffd5b505050506040513d601f19601f820116820180604052508101906105849190610c08565b6105a357604051630ea7d7ed60e21b81523360048201526024016102aa565b6001600160a01b0381166105ca57604051639fabe1c160e01b815260040160405180910390fd5b6001546040517fffe0a81e9fcc7a42c05a5b4b763ffb4ca50ddd532d824b476298bb126419454591610609916001600160a01b03909116908490610c27565b60405180910390a1600180546001600160a01b0319166001600160a01b0392909216919091179055565b5f5460408051630ccc574960e41b815290516001600160a01b03909216916391d1485491839163ccc57490916004808201926020929091908290030181865afa158015610682573d5f5f3e3d5ffd5b505050506040513d601f19601f820116820180604052508101906106a69190610bf1565b6040516001600160e01b031960e084901b1681526004810191909152336024820152604401602060405180830381865afa1580156106e6573d5f5f3e3d5ffd5b505050506040513d601f19601f8201168201806040525081019061070a9190610c08565b61072957604051630ea7d7ed60e21b81523360048201526024016102aa565b6001600160a01b03811661075057604051639fabe1c160e01b815260040160405180910390fd5b6002546040517ff6305c18a40cde2556a61871b17cd0a86d780832dc0e3e05a43c1d2ff8a53ac49161078f916001600160a01b03909116908490610c27565b60405180910390a1600280546001600160a01b0319166001600160a01b0392909216919091179055565b5f82826040516020016107cd929190610c41565b60405160208183030381529060405280519060200120905092915050565b5f5460408051630ccc574960e41b815290516001600160a01b03909216916391d1485491839163ccc57490916004808201926020929091908290030181865afa15801561083a573d5f5f3e3d5ffd5b505050506040513d601f19601f8201168201806040525081019061085e9190610bf1565b6040516001600160e01b031960e084901b1681526004810191909152336024820152604401602060405180830381865afa15801561089e573d5f5f3e3d5ffd5b505050506040513d601f19601f820116820180604052508101906108c29190610c08565b6108e157604051630ea7d7ed60e21b81523360048201526024016102aa565b6001600160a01b03811661090857604051639fabe1c160e01b815260040160405180910390fd5b6004546040517f5da6b94665bf1ffea8956b1bfd3424ac4e5879083197059f23e5181df77c361991610947916001600160a01b03909116908490610c27565b60405180910390a1600480546001600160a01b0319166001600160a01b0392909216919091179055565b5f5460408051630ccc574960e41b815290516001600160a01b03909216916391d1485491839163ccc57490916004808201926020929091908290030181865afa1580156109c0573d5f5f3e3d5ffd5b505050506040513d601f19601f820116820180604052508101906109e49190610bf1565b6040516001600160e01b031960e084901b1681526004810191909152336024820152604401602060405180830381865afa158015610a24573d5f5f3e3d5ffd5b505050506040513d601f19601f82011682018060405250810190610a489190610c08565b610a6757604051630ea7d7ed60e21b81523360048201526024016102aa565b6001600160a01b038116610a8e57604051639fabe1c160e01b815260040160405180910390fd5b6003546040517f4ab5be82436d353e61ca18726e984e561f5c1cc7c6d38b29d2553c790434705a91610acd916001600160a01b03909116908490610c27565b60405180910390a1600380546001600160a01b0319166001600160a01b0392909216919091179055565b80356001600160a01b0381168114610b0d575f5ffd5b919050565b5f6080828403128015610b23575f5ffd5b506040516080810167ffffffffffffffff81118282101715610b5357634e487b7160e01b5f52604160045260245ffd5b604052610b5f83610af7565b8152610b6d60208401610af7565b6020820152610b7e60408401610af7565b6040820152610b8f60608401610af7565b60608201529392505050565b5f60208284031215610bab575f5ffd5b610bb482610af7565b9392505050565b5f5f60408385031215610bcc575f5ffd5b823560038110610bda575f5ffd5b9150610be860208401610af7565b90509250929050565b5f60208284031215610c01575f5ffd5b5051919050565b5f60208284031215610c18575f5ffd5b81518015158114610bb4575f5ffd5b6001600160a01b0392831681529116602082015260400190565b5f60038410610c5e57634e487b7160e01b5f52602160045260245ffd5b5060f89290921b825260601b6bffffffffffffffffffffffff191660018201526015019056fea2646970667358221220d14861d2f9e4b87da024fc5a9006bf26f5a59c145b4ff92e5f1f56b6de5df30564736f6c634300081b0033","linkReferences":{}},"methodIdentifiers":{"generateRole(uint8,address)":"69b3054b","harborCommand()":"5b0f83f3","initializeConfiguration((address,address,address,address))":"330c22f0","initialized()":"158ef93e","raft()":"117d8ae0","setHarborCommand(address)":"788d8366","setRaft(address)":"44ee0605","setTipJar(address)":"5c66e3da","setTreasury(address)":"f0f44260","tipJar()":"7aaceb95","treasury()":"61d027b3"},"id":154}