{"abi":[{"type":"constructor","inputs":[{"name":"params","type":"tuple","internalType":"struct ConfigurationManagerParams","components":[{"name":"accessManager","type":"address","internalType":"address"},{"name":"raft","type":"address","internalType":"address"},{"name":"tipJar","type":"address","internalType":"address"}]}],"stateMutability":"nonpayable"},{"type":"function","name":"raft","inputs":[],"outputs":[{"name":"","type":"address","internalType":"address"}],"stateMutability":"view"},{"type":"function","name":"setRaft","inputs":[{"name":"newRaft","type":"address","internalType":"address"}],"outputs":[],"stateMutability":"nonpayable"},{"type":"function","name":"setTipJar","inputs":[{"name":"newTipJar","type":"address","internalType":"address"}],"outputs":[],"stateMutability":"nonpayable"},{"type":"function","name":"tipJar","inputs":[],"outputs":[{"name":"","type":"address","internalType":"address"}],"stateMutability":"view"},{"type":"event","name":"RaftUpdated","inputs":[{"name":"newRaft","type":"address","indexed":false,"internalType":"address"}],"anonymous":false},{"type":"event","name":"TipJarUpdated","inputs":[{"name":"newTipJar","type":"address","indexed":false,"internalType":"address"}],"anonymous":false},{"type":"event","name":"TipRateUpdated","inputs":[{"name":"newTipRate","type":"uint8","indexed":false,"internalType":"uint8"}],"anonymous":false},{"type":"error","name":"CallerIsNotGovernor","inputs":[{"name":"caller","type":"address","internalType":"address"}]},{"type":"error","name":"InvalidAccessManagerAddress","inputs":[{"name":"invalidAddress","type":"address","internalType":"address"}]}],"bytecode":{"object":"0x608060405234801561000f575f80fd5b506040516105e63803806105e683398101604081905261002e91610157565b80516001600160a01b03811661005e576040516347bd7c1d60e01b81525f60048201526024015b60405180910390fd5b6040516301ffc9a760e01b815263f87138b560e01b60048201526001600160a01b038216906301ffc9a790602401602060405180830381865afa1580156100a7573d5f803e3d5ffd5b505050506040513d601f19601f820116820180604052508101906100cb91906101ce565b6100f3576040516347bd7c1d60e01b81526001600160a01b0382166004820152602401610055565b5f80546001600160a01b03199081166001600160a01b039384161790915560208301516001805483169184169190911790556040909201516002805490931691161790556101f4565b80516001600160a01b0381168114610152575f80fd5b919050565b5f6060828403128015610168575f80fd5b50604051606081016001600160401b038111828210171561019757634e487b7160e01b5f52604160045260245ffd5b6040526101a38361013c565b81526101b16020840161013c565b60208201526101c26040840161013c565b60408201529392505050565b5f602082840312156101de575f80fd5b815180151581146101ed575f80fd5b9392505050565b6103e5806102015f395ff3fe608060405234801561000f575f80fd5b506004361061004a575f3560e01c8063117d8ae01461004e57806344ee06051461007d5780635c66e3da146100925780637aaceb95146100a5575b5f80fd5b600154610061906001600160a01b031681565b6040516001600160a01b03909116815260200160405180910390f35b61009061008b36600461034c565b6100b8565b005b6100906100a036600461034c565b610208565b600254610061906001600160a01b031681565b5f5460408051630ccc574960e41b815290516001600160a01b03909216916391d1485491839163ccc57490916004808201926020929091908290030181865afa158015610107573d5f803e3d5ffd5b505050506040513d601f19601f8201168201806040525081019061012b9190610379565b6040516001600160e01b031960e084901b1681526004810191909152336024820152604401602060405180830381865afa15801561016b573d5f803e3d5ffd5b505050506040513d601f19601f8201168201806040525081019061018f9190610390565b6101b357604051630ea7d7ed60e21b81523360048201526024015b60405180910390fd5b600180546001600160a01b0319166001600160a01b0383169081179091556040519081527ffddf69a0b06cb3d8b1cc0a9105fa24040b4bb6c3c16693cf8e0496ab65658e80906020015b60405180910390a150565b5f5460408051630ccc574960e41b815290516001600160a01b03909216916391d1485491839163ccc57490916004808201926020929091908290030181865afa158015610257573d5f803e3d5ffd5b505050506040513d601f19601f8201168201806040525081019061027b9190610379565b6040516001600160e01b031960e084901b1681526004810191909152336024820152604401602060405180830381865afa1580156102bb573d5f803e3d5ffd5b505050506040513d601f19601f820116820180604052508101906102df9190610390565b6102fe57604051630ea7d7ed60e21b81523360048201526024016101aa565b600280546001600160a01b0319166001600160a01b0383169081179091556040519081527fba7f8033d690b39fb06e1eb3a0ef57ae8ce342fa4cd8d4f24f870e1e22931644906020016101fd565b5f6020828403121561035c575f80fd5b81356001600160a01b0381168114610372575f80fd5b9392505050565b5f60208284031215610389575f80fd5b5051919050565b5f602082840312156103a0575f80fd5b81518015158114610372575f80fdfea264697066735822122050977c62a4d4f1a99e16b44e6b0ac08b6cd280d7098dab9b08ff679039f2699464736f6c634300081a0033","linkReferences":{}},"methodIdentifiers":{"raft()":"117d8ae0","setRaft(address)":"44ee0605","setTipJar(address)":"5c66e3da","tipJar()":"7aaceb95"},"id":134}