{"abi":[{"type":"constructor","inputs":[{"name":"_accessManager","type":"address","internalType":"address"}],"stateMutability":"nonpayable"},{"type":"function","name":"fleetCommanderRewardsManagerFactory","inputs":[],"outputs":[{"name":"","type":"address","internalType":"address"}],"stateMutability":"view"},{"type":"function","name":"generateRole","inputs":[{"name":"roleName","type":"uint8","internalType":"enum ContractSpecificRoles"},{"name":"roleTargetContract","type":"address","internalType":"address"}],"outputs":[{"name":"","type":"bytes32","internalType":"bytes32"}],"stateMutability":"pure"},{"type":"function","name":"harborCommand","inputs":[],"outputs":[{"name":"","type":"address","internalType":"address"}],"stateMutability":"view"},{"type":"function","name":"hasAdmiralsQuartersRole","inputs":[{"name":"account","type":"address","internalType":"address"}],"outputs":[{"name":"","type":"bool","internalType":"bool"}],"stateMutability":"view"},{"type":"function","name":"initializeConfiguration","inputs":[{"name":"params","type":"tuple","internalType":"struct ConfigurationManagerParams","components":[{"name":"raft","type":"address","internalType":"address"},{"name":"tipJar","type":"address","internalType":"address"},{"name":"treasury","type":"address","internalType":"address"},{"name":"harborCommand","type":"address","internalType":"address"},{"name":"fleetCommanderRewardsManagerFactory","type":"address","internalType":"address"}]}],"outputs":[],"stateMutability":"nonpayable"},{"type":"function","name":"initialized","inputs":[],"outputs":[{"name":"","type":"bool","internalType":"bool"}],"stateMutability":"view"},{"type":"function","name":"raft","inputs":[],"outputs":[{"name":"","type":"address","internalType":"address"}],"stateMutability":"view"},{"type":"function","name":"setFleetCommanderRewardsManagerFactory","inputs":[{"name":"newFleetCommanderRewardsManagerFactory","type":"address","internalType":"address"}],"outputs":[],"stateMutability":"nonpayable"},{"type":"function","name":"setHarborCommand","inputs":[{"name":"newHarborCommand","type":"address","internalType":"address"}],"outputs":[],"stateMutability":"nonpayable"},{"type":"function","name":"setRaft","inputs":[{"name":"newRaft","type":"address","internalType":"address"}],"outputs":[],"stateMutability":"nonpayable"},{"type":"function","name":"setTipJar","inputs":[{"name":"newTipJar","type":"address","internalType":"address"}],"outputs":[],"stateMutability":"nonpayable"},{"type":"function","name":"setTreasury","inputs":[{"name":"newTreasury","type":"address","internalType":"address"}],"outputs":[],"stateMutability":"nonpayable"},{"type":"function","name":"tipJar","inputs":[],"outputs":[{"name":"","type":"address","internalType":"address"}],"stateMutability":"view"},{"type":"function","name":"treasury","inputs":[],"outputs":[{"name":"","type":"address","internalType":"address"}],"stateMutability":"view"},{"type":"event","name":"FleetCommanderRewardsManagerFactoryUpdated","inputs":[{"name":"oldFleetCommanderRewardsManagerFactory","type":"address","indexed":false,"internalType":"address"},{"name":"newFleetCommanderRewardsManagerFactory","type":"address","indexed":false,"internalType":"address"}],"anonymous":false},{"type":"event","name":"HarborCommandUpdated","inputs":[{"name":"oldHarborCommand","type":"address","indexed":false,"internalType":"address"},{"name":"newHarborCommand","type":"address","indexed":false,"internalType":"address"}],"anonymous":false},{"type":"event","name":"RaftUpdated","inputs":[{"name":"oldRaft","type":"address","indexed":false,"internalType":"address"},{"name":"newRaft","type":"address","indexed":false,"internalType":"address"}],"anonymous":false},{"type":"event","name":"TipJarUpdated","inputs":[{"name":"oldTipJar","type":"address","indexed":false,"internalType":"address"},{"name":"newTipJar","type":"address","indexed":false,"internalType":"address"}],"anonymous":false},{"type":"event","name":"TipRateUpdated","inputs":[{"name":"oldTipRate","type":"uint8","indexed":false,"internalType":"uint8"},{"name":"newTipRate","type":"uint8","indexed":false,"internalType":"uint8"}],"anonymous":false},{"type":"event","name":"TreasuryUpdated","inputs":[{"name":"oldTreasury","type":"address","indexed":false,"internalType":"address"},{"name":"newTreasury","type":"address","indexed":false,"internalType":"address"}],"anonymous":false},{"type":"error","name":"AddressZero","inputs":[]},{"type":"error","name":"CallerIsNotAdmin","inputs":[{"name":"caller","type":"address","internalType":"address"}]},{"type":"error","name":"CallerIsNotAuthorizedToBoard","inputs":[{"name":"caller","type":"address","internalType":"address"}]},{"type":"error","name":"CallerIsNotCommander","inputs":[{"name":"caller","type":"address","internalType":"address"}]},{"type":"error","name":"CallerIsNotContractSpecificRole","inputs":[{"name":"caller","type":"address","internalType":"address"},{"name":"role","type":"bytes32","internalType":"bytes32"}]},{"type":"error","name":"CallerIsNotCurator","inputs":[{"name":"caller","type":"address","internalType":"address"}]},{"type":"error","name":"CallerIsNotDecayController","inputs":[{"name":"caller","type":"address","internalType":"address"}]},{"type":"error","name":"CallerIsNotGovernor","inputs":[{"name":"caller","type":"address","internalType":"address"}]},{"type":"error","name":"CallerIsNotGuardian","inputs":[{"name":"caller","type":"address","internalType":"address"}]},{"type":"error","name":"CallerIsNotGuardianOrGovernor","inputs":[{"name":"caller","type":"address","internalType":"address"}]},{"type":"error","name":"CallerIsNotKeeper","inputs":[{"name":"caller","type":"address","internalType":"address"}]},{"type":"error","name":"CallerIsNotRaft","inputs":[{"name":"caller","type":"address","internalType":"address"}]},{"type":"error","name":"CallerIsNotRaftOrCommander","inputs":[{"name":"caller","type":"address","internalType":"address"}]},{"type":"error","name":"CallerIsNotSuperKeeper","inputs":[{"name":"caller","type":"address","internalType":"address"}]},{"type":"error","name":"ConfigurationManagerAlreadyInitialized","inputs":[]},{"type":"error","name":"DirectGrantIsDisabled","inputs":[{"name":"caller","type":"address","internalType":"address"}]},{"type":"error","name":"DirectRevokeIsDisabled","inputs":[{"name":"caller","type":"address","internalType":"address"}]},{"type":"error","name":"HarborCommandNotSet","inputs":[]},{"type":"error","name":"InvalidAccessManagerAddress","inputs":[{"name":"invalidAddress","type":"address","internalType":"address"}]},{"type":"error","name":"RaftNotSet","inputs":[]},{"type":"error","name":"TipJarNotSet","inputs":[]},{"type":"error","name":"TreasuryNotSet","inputs":[]},{"type":"error","name":"ZeroAddress","inputs":[]}],"bytecode":{"object":"0x608060405234801561000f575f5ffd5b5060405161118738038061118783398101604081905261002e91610117565b806001600160a01b03811661005d576040516347bd7c1d60e01b81525f60048201526024015b60405180910390fd5b6040516301ffc9a760e01b81526338c7ccdb60e01b60048201526001600160a01b038216906301ffc9a790602401602060405180830381865afa1580156100a6573d5f5f3e3d5ffd5b505050506040513d601f19601f820116820180604052508101906100ca9190610144565b6100f2576040516347bd7c1d60e01b81526001600160a01b0382166004820152602401610054565b5f80546001600160a01b0319166001600160a01b039290921691909117905550610163565b5f60208284031215610127575f5ffd5b81516001600160a01b038116811461013d575f5ffd5b9392505050565b5f60208284031215610154575f5ffd5b8151801515811461013d575f5ffd5b611017806101705f395ff3fe608060405234801561000f575f5ffd5b50600436106100e5575f3560e01c806369b3054b11610088578063d6c953c611610063578063d6c953c6146101e4578063ebc136d0146101f7578063f0f442601461020a578063f7e533ec1461021d575f5ffd5b806369b3054b1461019d578063788d8366146101be5780637aaceb95146101d1575f5ffd5b806344ee0605116100c357806344ee0605146101515780635b0f83f3146101645780635c66e3da1461017757806361d027b31461018a575f5ffd5b8063117d8ae0146100e9578063158ef93e146101195780631fcb6ee61461013c575b5f5ffd5b6001546100fc906001600160a01b031681565b6040516001600160a01b0390911681526020015b60405180910390f35b5f5461012c90600160a01b900460ff1681565b6040519015158152602001610110565b61014f61014a366004610e5e565b610230565b005b61014f61015f366004610ef8565b61058c565b6004546100fc906001600160a01b031681565b61014f610185366004610ef8565b610712565b6003546100fc906001600160a01b031681565b6101b06101ab366004610f18565b610898565b604051908152602001610110565b61014f6101cc366004610ef8565b6108ca565b6002546100fc906001600160a01b031681565b61014f6101f2366004610ef8565b610a50565b61012c610205366004610ef8565b610bd6565b61014f610218366004610ef8565b610cbd565b6005546100fc906001600160a01b031681565b5f5460408051630ccc574960e41b815290516001600160a01b03909216916391d1485491839163ccc57490916004808201926020929091908290030181865afa15801561027f573d5f5f3e3d5ffd5b505050506040513d601f19601f820116820180604052508101906102a39190610f4e565b6040516001600160e01b031960e084901b1681526004810191909152336024820152604401602060405180830381865afa1580156102e3573d5f5f3e3d5ffd5b505050506040513d601f19601f820116820180604052508101906103079190610f65565b61032b57604051630ea7d7ed60e21b81523360048201526024015b60405180910390fd5b5f54600160a01b900460ff16156103555760405163485ed86d60e01b815260040160405180910390fd5b80516001600160a01b03161580610377575060208101516001600160a01b0316155b8061038d575060408101516001600160a01b0316155b806103a3575060608101516001600160a01b0316155b806103b9575060808101516001600160a01b0316155b156103d757604051639fabe1c160e01b815260040160405180910390fd5b8051600180546001600160a01b03199081166001600160a01b0380851691909117909255602084015160028054831691841691909117905560408085015160038054841691851691909117905560608501516004805484169185169190911790556080850151600580549093169316929092179055517fffe0a81e9fcc7a42c05a5b4b763ffb4ca50ddd532d824b476298bb12641945459161047b915f9190610f84565b60405180910390a17ff6305c18a40cde2556a61871b17cd0a86d780832dc0e3e05a43c1d2ff8a53ac45f82602001516040516104b8929190610f84565b60405180910390a17f4ab5be82436d353e61ca18726e984e561f5c1cc7c6d38b29d2553c790434705a5f82604001516040516104f5929190610f84565b60405180910390a17f5da6b94665bf1ffea8956b1bfd3424ac4e5879083197059f23e5181df77c36195f8260600151604051610532929190610f84565b60405180910390a17ffdc61a171cf2fa6f226e1e76e7a1769cfab9da2ff86bad6060c7d77ee62e19255f826080015160405161056f929190610f84565b60405180910390a1505f805460ff60a01b1916600160a01b179055565b5f5460408051630ccc574960e41b815290516001600160a01b03909216916391d1485491839163ccc57490916004808201926020929091908290030181865afa1580156105db573d5f5f3e3d5ffd5b505050506040513d601f19601f820116820180604052508101906105ff9190610f4e565b6040516001600160e01b031960e084901b1681526004810191909152336024820152604401602060405180830381865afa15801561063f573d5f5f3e3d5ffd5b505050506040513d601f19601f820116820180604052508101906106639190610f65565b61068257604051630ea7d7ed60e21b8152336004820152602401610322565b6001600160a01b0381166106a957604051639fabe1c160e01b815260040160405180910390fd5b6001546040517fffe0a81e9fcc7a42c05a5b4b763ffb4ca50ddd532d824b476298bb1264194545916106e8916001600160a01b03909116908490610f84565b60405180910390a1600180546001600160a01b0319166001600160a01b0392909216919091179055565b5f5460408051630ccc574960e41b815290516001600160a01b03909216916391d1485491839163ccc57490916004808201926020929091908290030181865afa158015610761573d5f5f3e3d5ffd5b505050506040513d601f19601f820116820180604052508101906107859190610f4e565b6040516001600160e01b031960e084901b1681526004810191909152336024820152604401602060405180830381865afa1580156107c5573d5f5f3e3d5ffd5b505050506040513d601f19601f820116820180604052508101906107e99190610f65565b61080857604051630ea7d7ed60e21b8152336004820152602401610322565b6001600160a01b03811661082f57604051639fabe1c160e01b815260040160405180910390fd5b6002546040517ff6305c18a40cde2556a61871b17cd0a86d780832dc0e3e05a43c1d2ff8a53ac49161086e916001600160a01b03909116908490610f84565b60405180910390a1600280546001600160a01b0319166001600160a01b0392909216919091179055565b5f82826040516020016108ac929190610f9e565b60405160208183030381529060405280519060200120905092915050565b5f5460408051630ccc574960e41b815290516001600160a01b03909216916391d1485491839163ccc57490916004808201926020929091908290030181865afa158015610919573d5f5f3e3d5ffd5b505050506040513d601f19601f8201168201806040525081019061093d9190610f4e565b6040516001600160e01b031960e084901b1681526004810191909152336024820152604401602060405180830381865afa15801561097d573d5f5f3e3d5ffd5b505050506040513d601f19601f820116820180604052508101906109a19190610f65565b6109c057604051630ea7d7ed60e21b8152336004820152602401610322565b6001600160a01b0381166109e757604051639fabe1c160e01b815260040160405180910390fd5b6004546040517f5da6b94665bf1ffea8956b1bfd3424ac4e5879083197059f23e5181df77c361991610a26916001600160a01b03909116908490610f84565b60405180910390a1600480546001600160a01b0319166001600160a01b0392909216919091179055565b5f5460408051630ccc574960e41b815290516001600160a01b03909216916391d1485491839163ccc57490916004808201926020929091908290030181865afa158015610a9f573d5f5f3e3d5ffd5b505050506040513d601f19601f82011682018060405250810190610ac39190610f4e565b6040516001600160e01b031960e084901b1681526004810191909152336024820152604401602060405180830381865afa158015610b03573d5f5f3e3d5ffd5b505050506040513d601f19601f82011682018060405250810190610b279190610f65565b610b4657604051630ea7d7ed60e21b8152336004820152602401610322565b6001600160a01b038116610b6d57604051639fabe1c160e01b815260040160405180910390fd5b6005546040517ffdc61a171cf2fa6f226e1e76e7a1769cfab9da2ff86bad6060c7d77ee62e192591610bac916001600160a01b03909116908490610f84565b60405180910390a1600580546001600160a01b0319166001600160a01b0392909216919091179055565b5f80546040805163a89f38a360e01b815290516001600160a01b03909216916391d1485491839163a89f38a3916004808201926020929091908290030181865afa158015610c26573d5f5f3e3d5ffd5b505050506040513d601f19601f82011682018060405250810190610c4a9190610f4e565b6040516001600160e01b031960e084901b16815260048101919091526001600160a01b0385166024820152604401602060405180830381865afa158015610c93573d5f5f3e3d5ffd5b505050506040513d601f19601f82011682018060405250810190610cb79190610f65565b92915050565b5f5460408051630ccc574960e41b815290516001600160a01b03909216916391d1485491839163ccc57490916004808201926020929091908290030181865afa158015610d0c573d5f5f3e3d5ffd5b505050506040513d601f19601f82011682018060405250810190610d309190610f4e565b6040516001600160e01b031960e084901b1681526004810191909152336024820152604401602060405180830381865afa158015610d70573d5f5f3e3d5ffd5b505050506040513d601f19601f82011682018060405250810190610d949190610f65565b610db357604051630ea7d7ed60e21b8152336004820152602401610322565b6001600160a01b038116610dda57604051639fabe1c160e01b815260040160405180910390fd5b6003546040517f4ab5be82436d353e61ca18726e984e561f5c1cc7c6d38b29d2553c790434705a91610e19916001600160a01b03909116908490610f84565b60405180910390a1600380546001600160a01b0319166001600160a01b0392909216919091179055565b80356001600160a01b0381168114610e59575f5ffd5b919050565b5f60a0828403128015610e6f575f5ffd5b5060405160a0810167ffffffffffffffff81118282101715610e9f57634e487b7160e01b5f52604160045260245ffd5b604052610eab83610e43565b8152610eb960208401610e43565b6020820152610eca60408401610e43565b6040820152610edb60608401610e43565b6060820152610eec60808401610e43565b60808201529392505050565b5f60208284031215610f08575f5ffd5b610f1182610e43565b9392505050565b5f5f60408385031215610f29575f5ffd5b823560038110610f37575f5ffd5b9150610f4560208401610e43565b90509250929050565b5f60208284031215610f5e575f5ffd5b5051919050565b5f60208284031215610f75575f5ffd5b81518015158114610f11575f5ffd5b6001600160a01b0392831681529116602082015260400190565b5f60038410610fbb57634e487b7160e01b5f52602160045260245ffd5b5060f89290921b825260601b6bffffffffffffffffffffffff191660018201526015019056fea2646970667358221220f9a5ed6ea58de3ac99252050a2e326101032a54cd73e1e6cce5a9ff44b41e0e164736f6c634300081c0033","linkReferences":{}},"methodIdentifiers":{"fleetCommanderRewardsManagerFactory()":"f7e533ec","generateRole(uint8,address)":"69b3054b","harborCommand()":"5b0f83f3","hasAdmiralsQuartersRole(address)":"ebc136d0","initializeConfiguration((address,address,address,address,address))":"1fcb6ee6","initialized()":"158ef93e","raft()":"117d8ae0","setFleetCommanderRewardsManagerFactory(address)":"d6c953c6","setHarborCommand(address)":"788d8366","setRaft(address)":"44ee0605","setTipJar(address)":"5c66e3da","setTreasury(address)":"f0f44260","tipJar()":"7aaceb95","treasury()":"61d027b3"},"id":194}