{"abi":[{"type":"constructor","inputs":[{"name":"_accessManager","type":"address","internalType":"address"}],"stateMutability":"nonpayable"},{"type":"function","name":"fleetCommanderRewardsManagerFactory","inputs":[],"outputs":[{"name":"","type":"address","internalType":"address"}],"stateMutability":"view"},{"type":"function","name":"generateRole","inputs":[{"name":"roleName","type":"uint8","internalType":"enum ContractSpecificRoles"},{"name":"roleTargetContract","type":"address","internalType":"address"}],"outputs":[{"name":"","type":"bytes32","internalType":"bytes32"}],"stateMutability":"pure"},{"type":"function","name":"harborCommand","inputs":[],"outputs":[{"name":"","type":"address","internalType":"address"}],"stateMutability":"view"},{"type":"function","name":"initializeConfiguration","inputs":[{"name":"params","type":"tuple","internalType":"struct ConfigurationManagerParams","components":[{"name":"raft","type":"address","internalType":"address"},{"name":"tipJar","type":"address","internalType":"address"},{"name":"treasury","type":"address","internalType":"address"},{"name":"harborCommand","type":"address","internalType":"address"},{"name":"fleetCommanderRewardsManagerFactory","type":"address","internalType":"address"}]}],"outputs":[],"stateMutability":"nonpayable"},{"type":"function","name":"initialized","inputs":[],"outputs":[{"name":"","type":"bool","internalType":"bool"}],"stateMutability":"view"},{"type":"function","name":"raft","inputs":[],"outputs":[{"name":"","type":"address","internalType":"address"}],"stateMutability":"view"},{"type":"function","name":"setFleetCommanderRewardsManagerFactory","inputs":[{"name":"newFleetCommanderRewardsManagerFactory","type":"address","internalType":"address"}],"outputs":[],"stateMutability":"nonpayable"},{"type":"function","name":"setHarborCommand","inputs":[{"name":"newHarborCommand","type":"address","internalType":"address"}],"outputs":[],"stateMutability":"nonpayable"},{"type":"function","name":"setRaft","inputs":[{"name":"newRaft","type":"address","internalType":"address"}],"outputs":[],"stateMutability":"nonpayable"},{"type":"function","name":"setTipJar","inputs":[{"name":"newTipJar","type":"address","internalType":"address"}],"outputs":[],"stateMutability":"nonpayable"},{"type":"function","name":"setTreasury","inputs":[{"name":"newTreasury","type":"address","internalType":"address"}],"outputs":[],"stateMutability":"nonpayable"},{"type":"function","name":"tipJar","inputs":[],"outputs":[{"name":"","type":"address","internalType":"address"}],"stateMutability":"view"},{"type":"function","name":"treasury","inputs":[],"outputs":[{"name":"","type":"address","internalType":"address"}],"stateMutability":"view"},{"type":"event","name":"FleetCommanderRewardsManagerFactoryUpdated","inputs":[{"name":"oldFleetCommanderRewardsManagerFactory","type":"address","indexed":false,"internalType":"address"},{"name":"newFleetCommanderRewardsManagerFactory","type":"address","indexed":false,"internalType":"address"}],"anonymous":false},{"type":"event","name":"HarborCommandUpdated","inputs":[{"name":"oldHarborCommand","type":"address","indexed":false,"internalType":"address"},{"name":"newHarborCommand","type":"address","indexed":false,"internalType":"address"}],"anonymous":false},{"type":"event","name":"RaftUpdated","inputs":[{"name":"oldRaft","type":"address","indexed":false,"internalType":"address"},{"name":"newRaft","type":"address","indexed":false,"internalType":"address"}],"anonymous":false},{"type":"event","name":"TipJarUpdated","inputs":[{"name":"oldTipJar","type":"address","indexed":false,"internalType":"address"},{"name":"newTipJar","type":"address","indexed":false,"internalType":"address"}],"anonymous":false},{"type":"event","name":"TipRateUpdated","inputs":[{"name":"oldTipRate","type":"uint8","indexed":false,"internalType":"uint8"},{"name":"newTipRate","type":"uint8","indexed":false,"internalType":"uint8"}],"anonymous":false},{"type":"event","name":"TreasuryUpdated","inputs":[{"name":"oldTreasury","type":"address","indexed":false,"internalType":"address"},{"name":"newTreasury","type":"address","indexed":false,"internalType":"address"}],"anonymous":false},{"type":"error","name":"AddressZero","inputs":[]},{"type":"error","name":"CallerIsNotAdmin","inputs":[{"name":"caller","type":"address","internalType":"address"}]},{"type":"error","name":"CallerIsNotAuthorizedToBoard","inputs":[{"name":"caller","type":"address","internalType":"address"}]},{"type":"error","name":"CallerIsNotCommander","inputs":[{"name":"caller","type":"address","internalType":"address"}]},{"type":"error","name":"CallerIsNotContractSpecificRole","inputs":[{"name":"caller","type":"address","internalType":"address"},{"name":"role","type":"bytes32","internalType":"bytes32"}]},{"type":"error","name":"CallerIsNotCurator","inputs":[{"name":"caller","type":"address","internalType":"address"}]},{"type":"error","name":"CallerIsNotDecayController","inputs":[{"name":"caller","type":"address","internalType":"address"}]},{"type":"error","name":"CallerIsNotGovernor","inputs":[{"name":"caller","type":"address","internalType":"address"}]},{"type":"error","name":"CallerIsNotGuardian","inputs":[{"name":"caller","type":"address","internalType":"address"}]},{"type":"error","name":"CallerIsNotGuardianOrGovernor","inputs":[{"name":"caller","type":"address","internalType":"address"}]},{"type":"error","name":"CallerIsNotKeeper","inputs":[{"name":"caller","type":"address","internalType":"address"}]},{"type":"error","name":"CallerIsNotRaft","inputs":[{"name":"caller","type":"address","internalType":"address"}]},{"type":"error","name":"CallerIsNotRaftOrCommander","inputs":[{"name":"caller","type":"address","internalType":"address"}]},{"type":"error","name":"CallerIsNotSuperKeeper","inputs":[{"name":"caller","type":"address","internalType":"address"}]},{"type":"error","name":"ConfigurationManagerAlreadyInitialized","inputs":[]},{"type":"error","name":"DirectGrantIsDisabled","inputs":[{"name":"caller","type":"address","internalType":"address"}]},{"type":"error","name":"DirectRevokeIsDisabled","inputs":[{"name":"caller","type":"address","internalType":"address"}]},{"type":"error","name":"HarborCommandNotSet","inputs":[]},{"type":"error","name":"InvalidAccessManagerAddress","inputs":[{"name":"invalidAddress","type":"address","internalType":"address"}]},{"type":"error","name":"RaftNotSet","inputs":[]},{"type":"error","name":"TipJarNotSet","inputs":[]},{"type":"error","name":"TreasuryNotSet","inputs":[]},{"type":"error","name":"ZeroAddress","inputs":[]}],"bytecode":{"object":"0x608060405234801561000f575f5ffd5b5060405161107338038061107383398101604081905261002e91610117565b806001600160a01b03811661005d576040516347bd7c1d60e01b81525f60048201526024015b60405180910390fd5b6040516301ffc9a760e01b8152639bd1803160e01b60048201526001600160a01b038216906301ffc9a790602401602060405180830381865afa1580156100a6573d5f5f3e3d5ffd5b505050506040513d601f19601f820116820180604052508101906100ca9190610144565b6100f2576040516347bd7c1d60e01b81526001600160a01b0382166004820152602401610054565b5f80546001600160a01b0319166001600160a01b039290921691909117905550610163565b5f60208284031215610127575f5ffd5b81516001600160a01b038116811461013d575f5ffd5b9392505050565b5f60208284031215610154575f5ffd5b8151801515811461013d575f5ffd5b610f03806101705f395ff3fe608060405234801561000f575f5ffd5b50600436106100cb575f3560e01c806361d027b3116100885780637aaceb95116100635780637aaceb95146101b7578063d6c953c6146101ca578063f0f44260146101dd578063f7e533ec146101f0575f5ffd5b806361d027b31461017057806369b3054b14610183578063788d8366146101a4575f5ffd5b8063117d8ae0146100cf578063158ef93e146100ff5780631fcb6ee61461012257806344ee0605146101375780635b0f83f31461014a5780635c66e3da1461015d575b5f5ffd5b6001546100e2906001600160a01b031681565b6040516001600160a01b0390911681526020015b60405180910390f35b5f5461011290600160a01b900460ff1681565b60405190151581526020016100f6565b610135610130366004610d4a565b610203565b005b610135610145366004610de4565b61055f565b6004546100e2906001600160a01b031681565b61013561016b366004610de4565b6106e5565b6003546100e2906001600160a01b031681565b610196610191366004610e04565b61086b565b6040519081526020016100f6565b6101356101b2366004610de4565b61089d565b6002546100e2906001600160a01b031681565b6101356101d8366004610de4565b610a23565b6101356101eb366004610de4565b610ba9565b6005546100e2906001600160a01b031681565b5f5460408051630ccc574960e41b815290516001600160a01b03909216916391d1485491839163ccc57490916004808201926020929091908290030181865afa158015610252573d5f5f3e3d5ffd5b505050506040513d601f19601f820116820180604052508101906102769190610e3a565b6040516001600160e01b031960e084901b1681526004810191909152336024820152604401602060405180830381865afa1580156102b6573d5f5f3e3d5ffd5b505050506040513d601f19601f820116820180604052508101906102da9190610e51565b6102fe57604051630ea7d7ed60e21b81523360048201526024015b60405180910390fd5b5f54600160a01b900460ff16156103285760405163485ed86d60e01b815260040160405180910390fd5b80516001600160a01b0316158061034a575060208101516001600160a01b0316155b80610360575060408101516001600160a01b0316155b80610376575060608101516001600160a01b0316155b8061038c575060808101516001600160a01b0316155b156103aa57604051639fabe1c160e01b815260040160405180910390fd5b8051600180546001600160a01b03199081166001600160a01b0380851691909117909255602084015160028054831691841691909117905560408085015160038054841691851691909117905560608501516004805484169185169190911790556080850151600580549093169316929092179055517fffe0a81e9fcc7a42c05a5b4b763ffb4ca50ddd532d824b476298bb12641945459161044e915f9190610e70565b60405180910390a17ff6305c18a40cde2556a61871b17cd0a86d780832dc0e3e05a43c1d2ff8a53ac45f826020015160405161048b929190610e70565b60405180910390a17f4ab5be82436d353e61ca18726e984e561f5c1cc7c6d38b29d2553c790434705a5f82604001516040516104c8929190610e70565b60405180910390a17f5da6b94665bf1ffea8956b1bfd3424ac4e5879083197059f23e5181df77c36195f8260600151604051610505929190610e70565b60405180910390a17ffdc61a171cf2fa6f226e1e76e7a1769cfab9da2ff86bad6060c7d77ee62e19255f8260800151604051610542929190610e70565b60405180910390a1505f805460ff60a01b1916600160a01b179055565b5f5460408051630ccc574960e41b815290516001600160a01b03909216916391d1485491839163ccc57490916004808201926020929091908290030181865afa1580156105ae573d5f5f3e3d5ffd5b505050506040513d601f19601f820116820180604052508101906105d29190610e3a565b6040516001600160e01b031960e084901b1681526004810191909152336024820152604401602060405180830381865afa158015610612573d5f5f3e3d5ffd5b505050506040513d601f19601f820116820180604052508101906106369190610e51565b61065557604051630ea7d7ed60e21b81523360048201526024016102f5565b6001600160a01b03811661067c57604051639fabe1c160e01b815260040160405180910390fd5b6001546040517fffe0a81e9fcc7a42c05a5b4b763ffb4ca50ddd532d824b476298bb1264194545916106bb916001600160a01b03909116908490610e70565b60405180910390a1600180546001600160a01b0319166001600160a01b0392909216919091179055565b5f5460408051630ccc574960e41b815290516001600160a01b03909216916391d1485491839163ccc57490916004808201926020929091908290030181865afa158015610734573d5f5f3e3d5ffd5b505050506040513d601f19601f820116820180604052508101906107589190610e3a565b6040516001600160e01b031960e084901b1681526004810191909152336024820152604401602060405180830381865afa158015610798573d5f5f3e3d5ffd5b505050506040513d601f19601f820116820180604052508101906107bc9190610e51565b6107db57604051630ea7d7ed60e21b81523360048201526024016102f5565b6001600160a01b03811661080257604051639fabe1c160e01b815260040160405180910390fd5b6002546040517ff6305c18a40cde2556a61871b17cd0a86d780832dc0e3e05a43c1d2ff8a53ac491610841916001600160a01b03909116908490610e70565b60405180910390a1600280546001600160a01b0319166001600160a01b0392909216919091179055565b5f828260405160200161087f929190610e8a565b60405160208183030381529060405280519060200120905092915050565b5f5460408051630ccc574960e41b815290516001600160a01b03909216916391d1485491839163ccc57490916004808201926020929091908290030181865afa1580156108ec573d5f5f3e3d5ffd5b505050506040513d601f19601f820116820180604052508101906109109190610e3a565b6040516001600160e01b031960e084901b1681526004810191909152336024820152604401602060405180830381865afa158015610950573d5f5f3e3d5ffd5b505050506040513d601f19601f820116820180604052508101906109749190610e51565b61099357604051630ea7d7ed60e21b81523360048201526024016102f5565b6001600160a01b0381166109ba57604051639fabe1c160e01b815260040160405180910390fd5b6004546040517f5da6b94665bf1ffea8956b1bfd3424ac4e5879083197059f23e5181df77c3619916109f9916001600160a01b03909116908490610e70565b60405180910390a1600480546001600160a01b0319166001600160a01b0392909216919091179055565b5f5460408051630ccc574960e41b815290516001600160a01b03909216916391d1485491839163ccc57490916004808201926020929091908290030181865afa158015610a72573d5f5f3e3d5ffd5b505050506040513d601f19601f82011682018060405250810190610a969190610e3a565b6040516001600160e01b031960e084901b1681526004810191909152336024820152604401602060405180830381865afa158015610ad6573d5f5f3e3d5ffd5b505050506040513d601f19601f82011682018060405250810190610afa9190610e51565b610b1957604051630ea7d7ed60e21b81523360048201526024016102f5565b6001600160a01b038116610b4057604051639fabe1c160e01b815260040160405180910390fd5b6005546040517ffdc61a171cf2fa6f226e1e76e7a1769cfab9da2ff86bad6060c7d77ee62e192591610b7f916001600160a01b03909116908490610e70565b60405180910390a1600580546001600160a01b0319166001600160a01b0392909216919091179055565b5f5460408051630ccc574960e41b815290516001600160a01b03909216916391d1485491839163ccc57490916004808201926020929091908290030181865afa158015610bf8573d5f5f3e3d5ffd5b505050506040513d601f19601f82011682018060405250810190610c1c9190610e3a565b6040516001600160e01b031960e084901b1681526004810191909152336024820152604401602060405180830381865afa158015610c5c573d5f5f3e3d5ffd5b505050506040513d601f19601f82011682018060405250810190610c809190610e51565b610c9f57604051630ea7d7ed60e21b81523360048201526024016102f5565b6001600160a01b038116610cc657604051639fabe1c160e01b815260040160405180910390fd5b6003546040517f4ab5be82436d353e61ca18726e984e561f5c1cc7c6d38b29d2553c790434705a91610d05916001600160a01b03909116908490610e70565b60405180910390a1600380546001600160a01b0319166001600160a01b0392909216919091179055565b80356001600160a01b0381168114610d45575f5ffd5b919050565b5f60a0828403128015610d5b575f5ffd5b5060405160a0810167ffffffffffffffff81118282101715610d8b57634e487b7160e01b5f52604160045260245ffd5b604052610d9783610d2f565b8152610da560208401610d2f565b6020820152610db660408401610d2f565b6040820152610dc760608401610d2f565b6060820152610dd860808401610d2f565b60808201529392505050565b5f60208284031215610df4575f5ffd5b610dfd82610d2f565b9392505050565b5f5f60408385031215610e15575f5ffd5b823560038110610e23575f5ffd5b9150610e3160208401610d2f565b90509250929050565b5f60208284031215610e4a575f5ffd5b5051919050565b5f60208284031215610e61575f5ffd5b81518015158114610dfd575f5ffd5b6001600160a01b0392831681529116602082015260400190565b5f60038410610ea757634e487b7160e01b5f52602160045260245ffd5b5060f89290921b825260601b6bffffffffffffffffffffffff191660018201526015019056fea26469706673582212201f6c8e57e0c75c0c874ba2a2b0530c7e39964d8201e58d7a9fd584aa63d5ce1464736f6c634300081c0033","linkReferences":{}},"methodIdentifiers":{"fleetCommanderRewardsManagerFactory()":"f7e533ec","generateRole(uint8,address)":"69b3054b","harborCommand()":"5b0f83f3","initializeConfiguration((address,address,address,address,address))":"1fcb6ee6","initialized()":"158ef93e","raft()":"117d8ae0","setFleetCommanderRewardsManagerFactory(address)":"d6c953c6","setHarborCommand(address)":"788d8366","setRaft(address)":"44ee0605","setTipJar(address)":"5c66e3da","setTreasury(address)":"f0f44260","tipJar()":"7aaceb95","treasury()":"61d027b3"},"id":192}