{"abi":[{"type":"constructor","inputs":[{"name":"_params","type":"tuple","internalType":"struct ArkParams","components":[{"name":"name","type":"string","internalType":"string"},{"name":"accessManager","type":"address","internalType":"address"},{"name":"configurationManager","type":"address","internalType":"address"},{"name":"token","type":"address","internalType":"address"},{"name":"depositCap","type":"uint256","internalType":"uint256"},{"name":"maxRebalanceOutflow","type":"uint256","internalType":"uint256"},{"name":"maxRebalanceInflow","type":"uint256","internalType":"uint256"},{"name":"requiresKeeperData","type":"bool","internalType":"bool"}]},{"name":"commanderAddress","type":"address","internalType":"address"}],"stateMutability":"nonpayable"},{"type":"function","name":"board","inputs":[{"name":"amount","type":"uint256","internalType":"uint256"},{"name":"boardData","type":"bytes","internalType":"bytes"}],"outputs":[],"stateMutability":"nonpayable"},{"type":"function","name":"commander","inputs":[],"outputs":[{"name":"","type":"address","internalType":"address"}],"stateMutability":"view"},{"type":"function","name":"config","inputs":[],"outputs":[{"name":"commander","type":"address","internalType":"address"},{"name":"raft","type":"address","internalType":"address"},{"name":"token","type":"address","internalType":"contract IERC20"},{"name":"depositCap","type":"uint256","internalType":"uint256"},{"name":"maxRebalanceOutflow","type":"uint256","internalType":"uint256"},{"name":"maxRebalanceInflow","type":"uint256","internalType":"uint256"},{"name":"name","type":"string","internalType":"string"},{"name":"requiresKeeperData","type":"bool","internalType":"bool"}],"stateMutability":"view"},{"type":"function","name":"configurationManager","inputs":[],"outputs":[{"name":"","type":"address","internalType":"contract IConfigurationManager"}],"stateMutability":"view"},{"type":"function","name":"depositCap","inputs":[],"outputs":[{"name":"","type":"uint256","internalType":"uint256"}],"stateMutability":"view"},{"type":"function","name":"disembark","inputs":[{"name":"amount","type":"uint256","internalType":"uint256"},{"name":"disembarkData","type":"bytes","internalType":"bytes"}],"outputs":[],"stateMutability":"nonpayable"},{"type":"function","name":"generateRole","inputs":[{"name":"roleName","type":"uint8","internalType":"enum ContractSpecificRoles"},{"name":"roleTargetContract","type":"address","internalType":"address"}],"outputs":[{"name":"","type":"bytes32","internalType":"bytes32"}],"stateMutability":"pure"},{"type":"function","name":"getConfig","inputs":[],"outputs":[{"name":"","type":"tuple","internalType":"struct ArkConfig","components":[{"name":"commander","type":"address","internalType":"address"},{"name":"raft","type":"address","internalType":"address"},{"name":"token","type":"address","internalType":"contract IERC20"},{"name":"depositCap","type":"uint256","internalType":"uint256"},{"name":"maxRebalanceOutflow","type":"uint256","internalType":"uint256"},{"name":"maxRebalanceInflow","type":"uint256","internalType":"uint256"},{"name":"name","type":"string","internalType":"string"},{"name":"requiresKeeperData","type":"bool","internalType":"bool"}]}],"stateMutability":"view"},{"type":"function","name":"harborCommand","inputs":[],"outputs":[{"name":"","type":"address","internalType":"address"}],"stateMutability":"view"},{"type":"function","name":"harvest","inputs":[{"name":"additionalData","type":"bytes","internalType":"bytes"}],"outputs":[{"name":"rewardTokens","type":"address[]","internalType":"address[]"},{"name":"rewardAmounts","type":"uint256[]","internalType":"uint256[]"}],"stateMutability":"nonpayable"},{"type":"function","name":"maxRebalanceInflow","inputs":[],"outputs":[{"name":"","type":"uint256","internalType":"uint256"}],"stateMutability":"view"},{"type":"function","name":"maxRebalanceOutflow","inputs":[],"outputs":[{"name":"","type":"uint256","internalType":"uint256"}],"stateMutability":"view"},{"type":"function","name":"move","inputs":[{"name":"amount","type":"uint256","internalType":"uint256"},{"name":"receiverArk","type":"address","internalType":"address"},{"name":"boardData","type":"bytes","internalType":"bytes"},{"name":"disembarkData","type":"bytes","internalType":"bytes"}],"outputs":[],"stateMutability":"nonpayable"},{"type":"function","name":"name","inputs":[],"outputs":[{"name":"","type":"string","internalType":"string"}],"stateMutability":"view"},{"type":"function","name":"raft","inputs":[],"outputs":[{"name":"","type":"address","internalType":"address"}],"stateMutability":"view"},{"type":"function","name":"registerFleetCommander","inputs":[],"outputs":[],"stateMutability":"nonpayable"},{"type":"function","name":"requiresKeeperData","inputs":[],"outputs":[{"name":"","type":"bool","internalType":"bool"}],"stateMutability":"view"},{"type":"function","name":"setDepositCap","inputs":[{"name":"newDepositCap","type":"uint256","internalType":"uint256"}],"outputs":[],"stateMutability":"nonpayable"},{"type":"function","name":"setMaxRebalanceInflow","inputs":[{"name":"newMaxRebalanceInflow","type":"uint256","internalType":"uint256"}],"outputs":[],"stateMutability":"nonpayable"},{"type":"function","name":"setMaxRebalanceOutflow","inputs":[{"name":"newMaxRebalanceOutflow","type":"uint256","internalType":"uint256"}],"outputs":[],"stateMutability":"nonpayable"},{"type":"function","name":"sweep","inputs":[{"name":"tokens","type":"address[]","internalType":"address[]"}],"outputs":[{"name":"sweptTokens","type":"address[]","internalType":"address[]"},{"name":"sweptAmounts","type":"uint256[]","internalType":"uint256[]"}],"stateMutability":"nonpayable"},{"type":"function","name":"tipJar","inputs":[],"outputs":[{"name":"","type":"address","internalType":"address"}],"stateMutability":"view"},{"type":"function","name":"token","inputs":[],"outputs":[{"name":"","type":"address","internalType":"contract IERC20"}],"stateMutability":"view"},{"type":"function","name":"totalAssets","inputs":[],"outputs":[{"name":"","type":"uint256","internalType":"uint256"}],"stateMutability":"view"},{"type":"function","name":"treasury","inputs":[],"outputs":[{"name":"","type":"address","internalType":"address"}],"stateMutability":"view"},{"type":"function","name":"unregisterFleetCommander","inputs":[],"outputs":[],"stateMutability":"nonpayable"},{"type":"event","name":"ArkHarvested","inputs":[{"name":"rewardTokens","type":"address[]","indexed":true,"internalType":"address[]"},{"name":"rewardAmounts","type":"uint256[]","indexed":true,"internalType":"uint256[]"}],"anonymous":false},{"type":"event","name":"ArkPoked","inputs":[{"name":"currentPrice","type":"uint256","indexed":false,"internalType":"uint256"},{"name":"timestamp","type":"uint256","indexed":false,"internalType":"uint256"}],"anonymous":false},{"type":"event","name":"ArkSwept","inputs":[{"name":"sweptTokens","type":"address[]","indexed":true,"internalType":"address[]"},{"name":"sweptAmounts","type":"uint256[]","indexed":true,"internalType":"uint256[]"}],"anonymous":false},{"type":"event","name":"Boarded","inputs":[{"name":"commander","type":"address","indexed":true,"internalType":"address"},{"name":"token","type":"address","indexed":false,"internalType":"address"},{"name":"amount","type":"uint256","indexed":false,"internalType":"uint256"}],"anonymous":false},{"type":"event","name":"DepositCapUpdated","inputs":[{"name":"newCap","type":"uint256","indexed":false,"internalType":"uint256"}],"anonymous":false},{"type":"event","name":"Disembarked","inputs":[{"name":"commander","type":"address","indexed":true,"internalType":"address"},{"name":"token","type":"address","indexed":false,"internalType":"address"},{"name":"amount","type":"uint256","indexed":false,"internalType":"uint256"}],"anonymous":false},{"type":"event","name":"FleetCommanderRegistered","inputs":[{"name":"commander","type":"address","indexed":false,"internalType":"address"}],"anonymous":false},{"type":"event","name":"FleetCommanderUnregistered","inputs":[{"name":"commander","type":"address","indexed":false,"internalType":"address"}],"anonymous":false},{"type":"event","name":"MaxRebalanceInflowUpdated","inputs":[{"name":"newMaxInflow","type":"uint256","indexed":false,"internalType":"uint256"}],"anonymous":false},{"type":"event","name":"MaxRebalanceOutflowUpdated","inputs":[{"name":"newMaxOutflow","type":"uint256","indexed":false,"internalType":"uint256"}],"anonymous":false},{"type":"event","name":"Moved","inputs":[{"name":"from","type":"address","indexed":true,"internalType":"address"},{"name":"to","type":"address","indexed":true,"internalType":"address"},{"name":"token","type":"address","indexed":false,"internalType":"address"},{"name":"amount","type":"uint256","indexed":false,"internalType":"uint256"}],"anonymous":false},{"type":"event","name":"RaftUpdated","inputs":[{"name":"newRaft","type":"address","indexed":false,"internalType":"address"}],"anonymous":false},{"type":"error","name":"CallerIsNotAdmin","inputs":[{"name":"caller","type":"address","internalType":"address"}]},{"type":"error","name":"CallerIsNotAuthorizedToBoard","inputs":[{"name":"caller","type":"address","internalType":"address"}]},{"type":"error","name":"CallerIsNotCommander","inputs":[{"name":"caller","type":"address","internalType":"address"}]},{"type":"error","name":"CallerIsNotContractSpecificRole","inputs":[{"name":"caller","type":"address","internalType":"address"},{"name":"role","type":"bytes32","internalType":"bytes32"}]},{"type":"error","name":"CallerIsNotCurator","inputs":[{"name":"caller","type":"address","internalType":"address"}]},{"type":"error","name":"CallerIsNotGovernor","inputs":[{"name":"caller","type":"address","internalType":"address"}]},{"type":"error","name":"CallerIsNotGuardian","inputs":[{"name":"caller","type":"address","internalType":"address"}]},{"type":"error","name":"CallerIsNotGuardianOrGovernor","inputs":[{"name":"caller","type":"address","internalType":"address"}]},{"type":"error","name":"CallerIsNotKeeper","inputs":[{"name":"caller","type":"address","internalType":"address"}]},{"type":"error","name":"CallerIsNotRaft","inputs":[{"name":"caller","type":"address","internalType":"address"}]},{"type":"error","name":"CallerIsNotRaftOrCommander","inputs":[{"name":"caller","type":"address","internalType":"address"}]},{"type":"error","name":"CallerIsNotSuperKeeper","inputs":[{"name":"caller","type":"address","internalType":"address"}]},{"type":"error","name":"CannotAddCommanderToArkWithCommander","inputs":[]},{"type":"error","name":"CannotDeployArkWithEmptyName","inputs":[]},{"type":"error","name":"CannotDeployArkWithoutConfigurationManager","inputs":[]},{"type":"error","name":"CannotDeployArkWithoutRaft","inputs":[]},{"type":"error","name":"CannotDeployArkWithoutToken","inputs":[]},{"type":"error","name":"CannotRemoveCommanderFromArkWithAssets","inputs":[]},{"type":"error","name":"CannotUseKeeperDataWhenNotRequired","inputs":[]},{"type":"error","name":"ConfigurationManagerZeroAddress","inputs":[]},{"type":"error","name":"DirectGrantIsDisabled","inputs":[{"name":"caller","type":"address","internalType":"address"}]},{"type":"error","name":"DirectRevokeIsDisabled","inputs":[{"name":"caller","type":"address","internalType":"address"}]},{"type":"error","name":"ERC4626AssetMismatch","inputs":[]},{"type":"error","name":"InvalidAccessManagerAddress","inputs":[{"name":"invalidAddress","type":"address","internalType":"address"}]},{"type":"error","name":"InvalidBoardData","inputs":[]},{"type":"error","name":"InvalidDisembarkData","inputs":[]},{"type":"error","name":"InvalidVaultAddress","inputs":[]},{"type":"error","name":"KeeperDataRequired","inputs":[]},{"type":"error","name":"SafeERC20FailedOperation","inputs":[{"name":"token","type":"address","internalType":"address"}]}],"bytecode":{"object":"0x60a060405234801561000f575f5ffd5b506040516122bf3803806122bf83398101604081905261002e91610460565b6040820151602083015183918291806001600160a01b03811661006b576040516347bd7c1d60e01b81525f60048201526024015b60405180910390fd5b6040516301ffc9a760e01b815263a237592160e01b60048201526001600160a01b038216906301ffc9a790602401602060405180830381865afa1580156100b4573d5f5f3e3d5ffd5b505050506040513d601f19601f820116820180604052508101906100d8919061053f565b610100576040516347bd7c1d60e01b81526001600160a01b0382166004820152602401610062565b5f80546001600160a01b0319166001600160a01b039283161790558216905061013c5760405163f1634df960e01b815260040160405180910390fd5b6001600160a01b0390811660805260408201511661016d5760405163b53c493160e01b815260040160405180910390fd5b60608101516001600160a01b031661019b576040516001620a810f60e11b0319815260040160405180910390fd5b8051515f036101bd5760405163268c072960e01b815260040160405180910390fd5b5f6101c6610308565b6001600160a01b0316036101ed57604051633a4f9cdb60e21b815260040160405180910390fd5b6040805161010081019091525f815260208101610208610308565b6001600160a01b039081168252606080850151821660208085019190915260808087015160408087019190915260a0808901518588015260c0808a01518489015289518289015260e08a01511515978101979097528751600180549188166001600160a01b03199283161781559489015160028054918916918316919091179055918801516003805491909716921691909117909455918501516004559084015160055590830151600655908201516007906102c490826105e3565b5060e091909101516007909101805460ff19169115159190911790555050600180546001600160a01b0319166001600160a01b0392909216919091179055506106b6565b5f6080516001600160a01b031663117d8ae06040518163ffffffff1660e01b8152600401602060405180830381865afa158015610347573d5f5f3e3d5ffd5b505050506040513d601f19601f8201168201806040525081019061036b919061069d565b905090565b634e487b7160e01b5f52604160045260245ffd5b60405161010081016001600160401b03811182821017156103a7576103a7610370565b60405290565b5f82601f8301126103bc575f5ffd5b81516001600160401b038111156103d5576103d5610370565b604051601f8201601f19908116603f011681016001600160401b038111828210171561040357610403610370565b60405281815283820160200185101561041a575f5ffd5b8160208501602083015e5f918101602001919091529392505050565b80516001600160a01b038116811461044c575f5ffd5b919050565b8051801515811461044c575f5ffd5b5f5f60408385031215610471575f5ffd5b82516001600160401b03811115610486575f5ffd5b83016101008186031215610498575f5ffd5b6104a0610384565b81516001600160401b038111156104b5575f5ffd5b6104c1878285016103ad565b8252506104d060208301610436565b60208201526104e160408301610436565b60408201526104f260608301610436565b60608201526080828101519082015260a0808301519082015260c0808301519082015261052160e08301610451565b60e08201529250610536905060208401610436565b90509250929050565b5f6020828403121561054f575f5ffd5b61055882610451565b9392505050565b600181811c9082168061057357607f821691505b60208210810361059157634e487b7160e01b5f52602260045260245ffd5b50919050565b601f8211156105de57805f5260205f20601f840160051c810160208510156105bc5750805b601f840160051c820191505b818110156105db575f81556001016105c8565b50505b505050565b81516001600160401b038111156105fc576105fc610370565b6106108161060a845461055f565b84610597565b6020601f821160018114610642575f831561062b5750848201515b5f19600385901b1c1916600184901b1784556105db565b5f84815260208120601f198516915b828110156106715787850151825560209485019460019092019101610651565b508482101561068e57868401515f19600387901b60f8161c191681555b50505050600190811b01905550565b5f602082840312156106ad575f5ffd5b61055882610436565b608051611bd56106ea5f395f81816103100152818161046b0152818161079a015281816107f70152610e4b0152611bd55ff3fe608060405234801561000f575f5ffd5b5060043610610187575f3560e01c806379502c55116100d9578063c38a6f0b11610093578063ce5c7f611161006e578063ce5c7f6114610332578063dbd5edc714610345578063ebf311311461034d578063fc0c546a14610355575f5ffd5b8063c38a6f0b146102e3578063c3f909d4146102f6578063c9c667e31461030b575f5ffd5b806379502c55146102895780637aaceb95146102a557806386651203146102ad5780638a8b9976146102c057806392f5e832146102c8578063ad5a356f146102db575f5ffd5b80633194549e1161014457806361d027b31161011f57806361d027b31461023a57806361f5cd8b1461024257806369b3054b14610255578063780469bb14610268575f5ffd5b80633194549e1461021957806337270936146102215780635b0f83f314610232575f5ffd5b806301e1d1141461018b57806306fdde03146101a6578063117d8ae0146101bb57806313c408f8146101db5780632db6d399146101f0578063303dbaf314610203575b5f5ffd5b610193610366565b6040519081526020015b60405180910390f35b6101ae6103d5565b60405161019d9190611566565b6101c3610468565b6040516001600160a01b03909116815260200161019d565b6101ee6101e93660046115c4565b6104e9565b005b6101ee6101fe3660046115c4565b610597565b60085460ff16604051901515815260200161019d565b600554610193565b6001546001600160a01b03166101c3565b6101c3610797565b6101c36107f4565b6101ee61025036600461160c565b610851565b61019361026336600461163a565b61089f565b61027b6102763660046116b9565b6108d1565b60405161019d92919061176d565b610291610d84565b60405161019d9897969594939291906117f6565b6101c3610e48565b6101ee6102bb36600461160c565b610ea5565b6101ee610eec565b6101ee6102d636600461160c565b610f49565b600654610193565b6101ee6102f1366004611856565b610f90565b6102fe6110d6565b60405161019d91906118e1565b6101c37f000000000000000000000000000000000000000000000000000000000000000081565b61027b610340366004611977565b61120a565b600454610193565b6101ee6112ec565b6003546001600160a01b03166101c3565b6003546040516370a0823160e01b81523060048201525f916001600160a01b0316906370a0823190602401602060405180830381865afa1580156103ac573d5f5f3e3d5ffd5b505050506040513d601f19601f820116820180604052508101906103d091906119b6565b905090565b6060600160060180546103e7906119cd565b80601f0160208091040260200160405190810160405280929190818152602001828054610413906119cd565b801561045e5780601f106104355761010080835404028352916020019161045e565b820191905f5260205f20905b81548152906001019060200180831161044157829003601f168201915b5050505050905090565b5f7f00000000000000000000000000000000000000000000000000000000000000006001600160a01b031663117d8ae06040518163ffffffff1660e01b8152600401602060405180830381865afa1580156104c5573d5f5f3e3d5ffd5b505050506040513d601f19601f820116820180604052508101906103d09190611a05565b6104f161133e565b61052157335b604051631564c0e160e11b81526001600160a01b0390911660048201526024015b60405180910390fd5b818161052d82826113c7565b33600354610545906001600160a01b0316828861142e565b600354604080516001600160a01b03928316815260208101899052918316917fd5e872c5ecfb1bb8820b2e6a20e31b883682282da886621541f71e31ec11947e910160405180910390a2505050505050565b306001600160a01b031663372709366040518163ffffffff1660e01b8152600401602060405180830381865afa1580156105d3573d5f5f3e3d5ffd5b505050506040513d601f19601f820116820180604052508101906105f79190611a05565b6105ff61133e565b61071e575f3390505f306001600160a01b031663117d8ae06040518163ffffffff1660e01b8152600401602060405180830381865afa158015610644573d5f5f3e3d5ffd5b505050506040513d601f19601f820116820180604052508101906106689190611a05565b6001600160a01b0316826001600160a01b03161490508061071b5760405163d25dd10160e01b81526001600160a01b0383811660048301525f919085169063d25dd10190602401602060405180830381865afa1580156106ca573d5f5f3e3d5ffd5b505050506040513d601f19601f820116820180604052508101906106ee9190611a20565b90508061071957604051638f7a567d60e01b81526001600160a01b0384166004820152602401610518565b505b50505b828261072a82826113c7565b6003543390610744906001600160a01b031682308a61148d565b600354604080516001600160a01b039283168152602081018a9052918316917fcbaa1442ac205415c9d69643e7b60ec73d1de35dbc807c21ec288c70ddc4207b910160405180910390a250505050505050565b5f7f00000000000000000000000000000000000000000000000000000000000000006001600160a01b0316635b0f83f36040518163ffffffff1660e01b8152600401602060405180830381865afa1580156104c5573d5f5f3e3d5ffd5b5f7f00000000000000000000000000000000000000000000000000000000000000006001600160a01b03166361d027b36040518163ffffffff1660e01b8152600401602060405180830381865afa1580156104c5573d5f5f3e3d5ffd5b61085961133e565b61086357336104f7565b60058190556040518181527ffbe2d5c01ea8ba5596d6c4e6c82c6d4a0a0ee1128689993a4a5ba0169273d69f906020015b60405180910390a150565b5f82826040516020016108b3929190611a3f565b60405160208183030381529060405280519060200120905092915050565b606080306001600160a01b031663117d8ae06040518163ffffffff1660e01b8152600401602060405180830381865afa158015610910573d5f5f3e3d5ffd5b505050506040513d601f19601f820116820180604052508101906109349190611a05565b6001600160a01b0316336001600160a01b03161461097357335b604051631184b31b60e21b81526001600160a01b039091166004820152602401610518565b825167ffffffffffffffff81111561098d5761098d611674565b6040519080825280602002602001820160405280156109b6578160200160208202803683370190505b509150825167ffffffffffffffff8111156109d3576109d3611674565b6040519080825280602002602001820160405280156109fc578160200160208202803683370190505b506003546040516370a0823160e01b81523060048201529192505f916001600160a01b03909116906370a0823190602401602060405180830381865afa158015610a48573d5f5f3e3d5ffd5b505050506040513d601f19601f82011682018060405250810190610a6c91906119b6565b1115610b5d57600154604080516330fe427560e21b81529051610b5d926001600160a01b03169163c3f909d49160048083019260809291908290030181865afa158015610abb573d5f5f3e3d5ffd5b505050506040513d601f19601f82011682018060405250810190610adf9190611a82565b516003546040516370a0823160e01b81523060048201526001600160a01b03909116906370a0823190602401602060405180830381865afa158015610b26573d5f5f3e3d5ffd5b505050506040513d601f19601f82011682018060405250810190610b4a91906119b6565b6003546001600160a01b0316919061142e565b5f5b8351811015610d2b575f848281518110610b7b57610b7b611aee565b60209081029190910101516040516370a0823160e01b81523060048201526001600160a01b03909116906370a0823190602401602060405180830381865afa158015610bc9573d5f5f3e3d5ffd5b505050506040513d601f19601f82011682018060405250810190610bed91906119b6565b90508015610d2257610cb6610c00610468565b868481518110610c1257610c12611aee565b60209081029190910101516040516370a0823160e01b81523060048201526001600160a01b03909116906370a0823190602401602060405180830381865afa158015610c60573d5f5f3e3d5ffd5b505050506040513d601f19601f82011682018060405250810190610c8491906119b6565b878581518110610c9657610c96611aee565b60200260200101516001600160a01b031661142e9092919063ffffffff16565b848281518110610cc857610cc8611aee565b6020026020010151848381518110610ce257610ce2611aee565b60200260200101906001600160a01b031690816001600160a01b03168152505080838381518110610d1557610d15611aee565b6020026020010181815250505b50600101610b5f565b5080604051610d3a9190611b02565b604051809103902082604051610d509190611b37565b604051908190038120907f46b8771620f6acf56cb03d3e835ea8024c7dcbcf05fcc3f6ade9e19d1a3e212b905f90a3915091565b60018054600254600354600454600554600654600780546001600160a01b03978816989688169790951695939492939192610dbe906119cd565b80601f0160208091040260200160405190810160405280929190818152602001828054610dea906119cd565b8015610e355780601f10610e0c57610100808354040283529160200191610e35565b820191905f5260205f20905b815481529060010190602001808311610e1857829003601f168201915b5050506007909301549192505060ff1688565b5f7f00000000000000000000000000000000000000000000000000000000000000006001600160a01b0316637aaceb956040518163ffffffff1660e01b8152600401602060405180830381865afa1580156104c5573d5f5f3e3d5ffd5b610ead61133e565b610eb757336104f7565b60048190556040518181527f333b26cca69716ad4680ddb07663f5bfb4f06045671f336af9a83690a3ae00f990602001610894565b610ef461133e565b610efe57336104f7565b600180546001600160a01b031916339081179091556040519081527f55489ce0259bd691120d8860861be1c401c7c16a3cd268d21045756af4ecc5ca906020015b60405180910390a1565b610f5161133e565b610f5b57336104f7565b60068190556040518181527fb6ac66853c4e59c71e118d25ab494bb847c4e5eb0c8894898c5343e6f61afc1290602001610894565b610f9861133e565b610fa257336104f7565b8181610fae82826113c7565b60035460405163095ea7b360e01b81526001600160a01b038981166004830152602482018b90529091169063095ea7b3906044016020604051808303815f875af1158015610ffe573d5f5f3e3d5ffd5b505050506040513d601f19601f820116820180604052508101906110229190611a20565b50604051632db6d39960e01b81526001600160a01b03881690632db6d39990611053908b908a908a90600401611b6a565b5f604051808303815f87803b15801561106a575f5ffd5b505af115801561107c573d5f5f3e3d5ffd5b5050600354604080516001600160a01b039283168152602081018d9052918b1693503092507f9f784fc02a186f1c98b2d9f15fda084da27cdd291a3785d978f91911d880516b910160405180910390a35050505050505050565b60408051610100810182525f8082526020820181905291810182905260608082018390526080820183905260a0820183905260c082015260e08101919091526040805161010081018252600180546001600160a01b0390811683526002548116602084015260035416928201929092526004546060820152600554608082015260065460a08201526007805491929160c084019190611174906119cd565b80601f01602080910402602001604051908101604052809291908181526020018280546111a0906119cd565b80156111eb5780601f106111c2576101008083540402835291602001916111eb565b820191905f5260205f20905b8154815290600101906020018083116111ce57829003601f168201915b50505091835250506007919091015460ff161515602090910152919050565b606080306001600160a01b031663117d8ae06040518163ffffffff1660e01b8152600401602060405180830381865afa158015611249573d5f5f3e3d5ffd5b505050506040513d601f19601f8201168201806040525081019061126d9190611a05565b6001600160a01b0316336001600160a01b03161461128b573361094e565b505060405160609081906112a0908290611b02565b6040518091039020826040516112b69190611b37565b604051908190038120907f3e3e7958121b3e39c7a49392d1aa9cdce870c2a059744f9e15cf66fff7865455905f90a39250929050565b6112f461133e565b6112fe57336104f7565b600180546001600160a01b03191690556040513381527f7cb941d7b1708e5b3bcd35ca960d6c6311188cec18886e5b67630552676b048790602001610f3f565b5f80546001600160a01b03166391d1485461135a60023061089f565b336040516001600160e01b031960e085901b16815260048101929092526001600160a01b03166024820152604401602060405180830381865afa1580156113a3573d5f5f3e3d5ffd5b505050506040513d601f19601f820116820180604052508101906103d09190611a20565b80158015906113d9575060085460ff16155b156113f757604051630cd0fdf960e01b815260040160405180910390fd5b80158015611407575060085460ff165b156114255760405163332863a960e11b815260040160405180910390fd5b5050565b505050565b6040516001600160a01b0383811660248301526044820183905261142991859182169063a9059cbb906064015b604051602081830303815290604052915060e01b6020820180516001600160e01b0383818316178352505050506114cc565b6040516001600160a01b0384811660248301528381166044830152606482018390526114c69186918216906323b872dd9060840161145b565b50505050565b5f5f60205f8451602086015f885af1806114eb576040513d5f823e3d81fd5b50505f513d9150811561150257806001141561150f565b6001600160a01b0384163b155b156114c657604051635274afe760e01b81526001600160a01b0385166004820152602401610518565b5f81518084528060208401602086015e5f602082860101526020601f19601f83011685010191505092915050565b602081525f6115786020830184611538565b9392505050565b5f5f83601f84011261158f575f5ffd5b50813567ffffffffffffffff8111156115a6575f5ffd5b6020830191508360208285010111156115bd575f5ffd5b9250929050565b5f5f5f604084860312156115d6575f5ffd5b83359250602084013567ffffffffffffffff8111156115f3575f5ffd5b6115ff8682870161157f565b9497909650939450505050565b5f6020828403121561161c575f5ffd5b5035919050565b6001600160a01b0381168114611637575f5ffd5b50565b5f5f6040838503121561164b575f5ffd5b823560038110611659575f5ffd5b9150602083013561166981611623565b809150509250929050565b634e487b7160e01b5f52604160045260245ffd5b604051601f8201601f1916810167ffffffffffffffff811182821017156116b1576116b1611674565b604052919050565b5f602082840312156116c9575f5ffd5b813567ffffffffffffffff8111156116df575f5ffd5b8201601f810184136116ef575f5ffd5b803567ffffffffffffffff81111561170957611709611674565b8060051b61171960208201611688565b91825260208184018101929081019087841115611734575f5ffd5b6020850194505b83851015611762578435925061175083611623565b8282526020948501949091019061173b565b979650505050505050565b604080825283519082018190525f9060208501906060840190835b818110156117af5783516001600160a01b0316835260209384019390920191600101611788565b5050838103602080860191909152855180835291810192508501905f5b818110156117ea5782518452602093840193909201916001016117cc565b50919695505050505050565b6001600160a01b038981168252888116602083015287166040820152606081018690526080810185905260a0810184905261010060c082018190525f9061183f90830185611538565b905082151560e08301529998505050505050505050565b5f5f5f5f5f5f6080878903121561186b575f5ffd5b86359550602087013561187d81611623565b9450604087013567ffffffffffffffff811115611898575f5ffd5b6118a489828a0161157f565b909550935050606087013567ffffffffffffffff8111156118c3575f5ffd5b6118cf89828a0161157f565b979a9699509497509295939492505050565b602080825282516001600160a01b039081168383015290830151166040808301919091528201515f9061191f60608401826001600160a01b03169052565b5060608301516080830152608083015160a083015260a083015160c083015260c083015161010060e0840152611959610120840182611538565b905060e084015161196f61010085018215159052565b509392505050565b5f5f60208385031215611988575f5ffd5b823567ffffffffffffffff81111561199e575f5ffd5b6119aa8582860161157f565b90969095509350505050565b5f602082840312156119c6575f5ffd5b5051919050565b600181811c908216806119e157607f821691505b6020821081036119ff57634e487b7160e01b5f52602260045260245ffd5b50919050565b5f60208284031215611a15575f5ffd5b815161157881611623565b5f60208284031215611a30575f5ffd5b81518015158114611578575f5ffd5b5f60038410611a5c57634e487b7160e01b5f52602160045260245ffd5b5060f89290921b825260601b6bffffffffffffffffffffffff1916600182015260150190565b5f6080828403128015611a93575f5ffd5b506040516080810167ffffffffffffffff81118282101715611ab757611ab7611674565b6040528251611ac581611623565b815260208381015190820152604080840151908201526060928301519281019290925250919050565b634e487b7160e01b5f52603260045260245ffd5b81515f90829060208501835b82811015611b2c578151845260209384019390910190600101611b0e565b509195945050505050565b81515f90829060208501835b82811015611b2c5781516001600160a01b0316845260209384019390910190600101611b43565b83815260406020820152816040820152818360608301375f818301606090810191909152601f909201601f191601019291505056fea26469706673582212209f6079c606119d5e88d7e8160dbb1253e841c646cdf5de3a99780afd7b9c271364736f6c634300081b0033","linkReferences":{}},"methodIdentifiers":{"board(uint256,bytes)":"2db6d399","commander()":"37270936","config()":"79502c55","configurationManager()":"c9c667e3","depositCap()":"dbd5edc7","disembark(uint256,bytes)":"13c408f8","generateRole(uint8,address)":"69b3054b","getConfig()":"c3f909d4","harborCommand()":"5b0f83f3","harvest(bytes)":"ce5c7f61","maxRebalanceInflow()":"ad5a356f","maxRebalanceOutflow()":"3194549e","move(uint256,address,bytes,bytes)":"c38a6f0b","name()":"06fdde03","raft()":"117d8ae0","registerFleetCommander()":"8a8b9976","requiresKeeperData()":"303dbaf3","setDepositCap(uint256)":"86651203","setMaxRebalanceInflow(uint256)":"92f5e832","setMaxRebalanceOutflow(uint256)":"61f5cd8b","sweep(address[])":"780469bb","tipJar()":"7aaceb95","token()":"fc0c546a","totalAssets()":"01e1d114","treasury()":"61d027b3","unregisterFleetCommander()":"ebf31131"},"id":168}