{"abi":[{"type":"constructor","inputs":[{"name":"_params","type":"tuple","internalType":"struct ArkParams","components":[{"name":"name","type":"string","internalType":"string"},{"name":"details","type":"string","internalType":"string"},{"name":"accessManager","type":"address","internalType":"address"},{"name":"configurationManager","type":"address","internalType":"address"},{"name":"asset","type":"address","internalType":"address"},{"name":"depositCap","type":"uint256","internalType":"uint256"},{"name":"maxRebalanceOutflow","type":"uint256","internalType":"uint256"},{"name":"maxRebalanceInflow","type":"uint256","internalType":"uint256"},{"name":"requiresKeeperData","type":"bool","internalType":"bool"},{"name":"maxDepositPercentageOfTVL","type":"uint256","internalType":"Percentage"}]},{"name":"commanderAddress","type":"address","internalType":"address"}],"stateMutability":"nonpayable"},{"type":"function","name":"asset","inputs":[],"outputs":[{"name":"","type":"address","internalType":"contract IERC20"}],"stateMutability":"view"},{"type":"function","name":"board","inputs":[{"name":"amount","type":"uint256","internalType":"uint256"},{"name":"boardData","type":"bytes","internalType":"bytes"}],"outputs":[],"stateMutability":"nonpayable"},{"type":"function","name":"commander","inputs":[],"outputs":[{"name":"","type":"address","internalType":"address"}],"stateMutability":"view"},{"type":"function","name":"config","inputs":[],"outputs":[{"name":"commander","type":"address","internalType":"address"},{"name":"raft","type":"address","internalType":"address"},{"name":"asset","type":"address","internalType":"contract IERC20"},{"name":"depositCap","type":"uint256","internalType":"uint256"},{"name":"maxRebalanceOutflow","type":"uint256","internalType":"uint256"},{"name":"maxRebalanceInflow","type":"uint256","internalType":"uint256"},{"name":"name","type":"string","internalType":"string"},{"name":"details","type":"string","internalType":"string"},{"name":"requiresKeeperData","type":"bool","internalType":"bool"},{"name":"maxDepositPercentageOfTVL","type":"uint256","internalType":"Percentage"}],"stateMutability":"view"},{"type":"function","name":"configurationManager","inputs":[],"outputs":[{"name":"","type":"address","internalType":"contract IConfigurationManager"}],"stateMutability":"view"},{"type":"function","name":"depositCap","inputs":[],"outputs":[{"name":"","type":"uint256","internalType":"uint256"}],"stateMutability":"view"},{"type":"function","name":"disembark","inputs":[{"name":"amount","type":"uint256","internalType":"uint256"},{"name":"disembarkData","type":"bytes","internalType":"bytes"}],"outputs":[],"stateMutability":"nonpayable"},{"type":"function","name":"fleetCommanderRewardsManagerFactory","inputs":[],"outputs":[{"name":"","type":"address","internalType":"address"}],"stateMutability":"view"},{"type":"function","name":"generateRole","inputs":[{"name":"roleName","type":"uint8","internalType":"enum ContractSpecificRoles"},{"name":"roleTargetContract","type":"address","internalType":"address"}],"outputs":[{"name":"","type":"bytes32","internalType":"bytes32"}],"stateMutability":"pure"},{"type":"function","name":"getConfig","inputs":[],"outputs":[{"name":"","type":"tuple","internalType":"struct ArkConfig","components":[{"name":"commander","type":"address","internalType":"address"},{"name":"raft","type":"address","internalType":"address"},{"name":"asset","type":"address","internalType":"contract IERC20"},{"name":"depositCap","type":"uint256","internalType":"uint256"},{"name":"maxRebalanceOutflow","type":"uint256","internalType":"uint256"},{"name":"maxRebalanceInflow","type":"uint256","internalType":"uint256"},{"name":"name","type":"string","internalType":"string"},{"name":"details","type":"string","internalType":"string"},{"name":"requiresKeeperData","type":"bool","internalType":"bool"},{"name":"maxDepositPercentageOfTVL","type":"uint256","internalType":"Percentage"}]}],"stateMutability":"view"},{"type":"function","name":"harborCommand","inputs":[],"outputs":[{"name":"","type":"address","internalType":"address"}],"stateMutability":"view"},{"type":"function","name":"harvest","inputs":[{"name":"additionalData","type":"bytes","internalType":"bytes"}],"outputs":[{"name":"rewardTokens","type":"address[]","internalType":"address[]"},{"name":"rewardAmounts","type":"uint256[]","internalType":"uint256[]"}],"stateMutability":"nonpayable"},{"type":"function","name":"hasAdmiralsQuartersRole","inputs":[{"name":"account","type":"address","internalType":"address"}],"outputs":[{"name":"","type":"bool","internalType":"bool"}],"stateMutability":"view"},{"type":"function","name":"maxDepositPercentageOfTVL","inputs":[],"outputs":[{"name":"","type":"uint256","internalType":"Percentage"}],"stateMutability":"view"},{"type":"function","name":"maxRebalanceInflow","inputs":[],"outputs":[{"name":"","type":"uint256","internalType":"uint256"}],"stateMutability":"view"},{"type":"function","name":"maxRebalanceOutflow","inputs":[],"outputs":[{"name":"","type":"uint256","internalType":"uint256"}],"stateMutability":"view"},{"type":"function","name":"move","inputs":[{"name":"amount","type":"uint256","internalType":"uint256"},{"name":"receiverArk","type":"address","internalType":"address"},{"name":"boardData","type":"bytes","internalType":"bytes"},{"name":"disembarkData","type":"bytes","internalType":"bytes"}],"outputs":[],"stateMutability":"nonpayable"},{"type":"function","name":"name","inputs":[],"outputs":[{"name":"","type":"string","internalType":"string"}],"stateMutability":"view"},{"type":"function","name":"raft","inputs":[],"outputs":[{"name":"","type":"address","internalType":"address"}],"stateMutability":"view"},{"type":"function","name":"registerFleetCommander","inputs":[],"outputs":[],"stateMutability":"nonpayable"},{"type":"function","name":"requiresKeeperData","inputs":[],"outputs":[{"name":"","type":"bool","internalType":"bool"}],"stateMutability":"view"},{"type":"function","name":"setDepositCap","inputs":[{"name":"newDepositCap","type":"uint256","internalType":"uint256"}],"outputs":[],"stateMutability":"nonpayable"},{"type":"function","name":"setMaxDepositPercentageOfTVL","inputs":[{"name":"newMaxDepositPercentageOfTVL","type":"uint256","internalType":"Percentage"}],"outputs":[],"stateMutability":"nonpayable"},{"type":"function","name":"setMaxRebalanceInflow","inputs":[{"name":"newMaxRebalanceInflow","type":"uint256","internalType":"uint256"}],"outputs":[],"stateMutability":"nonpayable"},{"type":"function","name":"setMaxRebalanceOutflow","inputs":[{"name":"newMaxRebalanceOutflow","type":"uint256","internalType":"uint256"}],"outputs":[],"stateMutability":"nonpayable"},{"type":"function","name":"sweep","inputs":[{"name":"tokens","type":"address[]","internalType":"address[]"}],"outputs":[{"name":"sweptTokens","type":"address[]","internalType":"address[]"},{"name":"sweptAmounts","type":"uint256[]","internalType":"uint256[]"}],"stateMutability":"nonpayable"},{"type":"function","name":"tipJar","inputs":[],"outputs":[{"name":"","type":"address","internalType":"address"}],"stateMutability":"view"},{"type":"function","name":"totalAssets","inputs":[],"outputs":[{"name":"","type":"uint256","internalType":"uint256"}],"stateMutability":"view"},{"type":"function","name":"treasury","inputs":[],"outputs":[{"name":"","type":"address","internalType":"address"}],"stateMutability":"view"},{"type":"function","name":"unregisterFleetCommander","inputs":[],"outputs":[],"stateMutability":"nonpayable"},{"type":"event","name":"ArkHarvested","inputs":[{"name":"rewardTokens","type":"address[]","indexed":true,"internalType":"address[]"},{"name":"rewardAmounts","type":"uint256[]","indexed":true,"internalType":"uint256[]"}],"anonymous":false},{"type":"event","name":"ArkPoked","inputs":[{"name":"currentPrice","type":"uint256","indexed":false,"internalType":"uint256"},{"name":"timestamp","type":"uint256","indexed":false,"internalType":"uint256"}],"anonymous":false},{"type":"event","name":"ArkSwept","inputs":[{"name":"sweptTokens","type":"address[]","indexed":true,"internalType":"address[]"},{"name":"sweptAmounts","type":"uint256[]","indexed":true,"internalType":"uint256[]"}],"anonymous":false},{"type":"event","name":"Boarded","inputs":[{"name":"commander","type":"address","indexed":true,"internalType":"address"},{"name":"token","type":"address","indexed":false,"internalType":"address"},{"name":"amount","type":"uint256","indexed":false,"internalType":"uint256"}],"anonymous":false},{"type":"event","name":"DepositCapUpdated","inputs":[{"name":"newCap","type":"uint256","indexed":false,"internalType":"uint256"}],"anonymous":false},{"type":"event","name":"Disembarked","inputs":[{"name":"commander","type":"address","indexed":true,"internalType":"address"},{"name":"token","type":"address","indexed":false,"internalType":"address"},{"name":"amount","type":"uint256","indexed":false,"internalType":"uint256"}],"anonymous":false},{"type":"event","name":"FleetCommanderRegistered","inputs":[{"name":"commander","type":"address","indexed":false,"internalType":"address"}],"anonymous":false},{"type":"event","name":"FleetCommanderUnregistered","inputs":[{"name":"commander","type":"address","indexed":false,"internalType":"address"}],"anonymous":false},{"type":"event","name":"MaxDepositPercentageOfTVLUpdated","inputs":[{"name":"newMaxDepositPercentageOfTVL","type":"uint256","indexed":false,"internalType":"Percentage"}],"anonymous":false},{"type":"event","name":"MaxRebalanceInflowUpdated","inputs":[{"name":"newMaxInflow","type":"uint256","indexed":false,"internalType":"uint256"}],"anonymous":false},{"type":"event","name":"MaxRebalanceOutflowUpdated","inputs":[{"name":"newMaxOutflow","type":"uint256","indexed":false,"internalType":"uint256"}],"anonymous":false},{"type":"event","name":"Moved","inputs":[{"name":"from","type":"address","indexed":true,"internalType":"address"},{"name":"to","type":"address","indexed":true,"internalType":"address"},{"name":"token","type":"address","indexed":false,"internalType":"address"},{"name":"amount","type":"uint256","indexed":false,"internalType":"uint256"}],"anonymous":false},{"type":"event","name":"RaftUpdated","inputs":[{"name":"newRaft","type":"address","indexed":false,"internalType":"address"}],"anonymous":false},{"type":"error","name":"CallerIsNotAdmin","inputs":[{"name":"caller","type":"address","internalType":"address"}]},{"type":"error","name":"CallerIsNotAuthorizedToBoard","inputs":[{"name":"caller","type":"address","internalType":"address"}]},{"type":"error","name":"CallerIsNotCommander","inputs":[{"name":"caller","type":"address","internalType":"address"}]},{"type":"error","name":"CallerIsNotContractSpecificRole","inputs":[{"name":"caller","type":"address","internalType":"address"},{"name":"role","type":"bytes32","internalType":"bytes32"}]},{"type":"error","name":"CallerIsNotCurator","inputs":[{"name":"caller","type":"address","internalType":"address"}]},{"type":"error","name":"CallerIsNotDecayController","inputs":[{"name":"caller","type":"address","internalType":"address"}]},{"type":"error","name":"CallerIsNotGovernor","inputs":[{"name":"caller","type":"address","internalType":"address"}]},{"type":"error","name":"CallerIsNotGuardian","inputs":[{"name":"caller","type":"address","internalType":"address"}]},{"type":"error","name":"CallerIsNotGuardianOrGovernor","inputs":[{"name":"caller","type":"address","internalType":"address"}]},{"type":"error","name":"CallerIsNotKeeper","inputs":[{"name":"caller","type":"address","internalType":"address"}]},{"type":"error","name":"CallerIsNotRaft","inputs":[{"name":"caller","type":"address","internalType":"address"}]},{"type":"error","name":"CallerIsNotRaftOrCommander","inputs":[{"name":"caller","type":"address","internalType":"address"}]},{"type":"error","name":"CallerIsNotSuperKeeper","inputs":[{"name":"caller","type":"address","internalType":"address"}]},{"type":"error","name":"CannotAddCommanderToArkWithCommander","inputs":[]},{"type":"error","name":"CannotDeployArkWithEmptyName","inputs":[]},{"type":"error","name":"CannotDeployArkWithoutConfigurationManager","inputs":[]},{"type":"error","name":"CannotDeployArkWithoutRaft","inputs":[]},{"type":"error","name":"CannotDeployArkWithoutToken","inputs":[]},{"type":"error","name":"CannotRemoveCommanderFromArkWithAssets","inputs":[]},{"type":"error","name":"CannotUseKeeperDataWhenNotRequired","inputs":[]},{"type":"error","name":"ConfigurationManagerZeroAddress","inputs":[]},{"type":"error","name":"DirectGrantIsDisabled","inputs":[{"name":"caller","type":"address","internalType":"address"}]},{"type":"error","name":"DirectRevokeIsDisabled","inputs":[{"name":"caller","type":"address","internalType":"address"}]},{"type":"error","name":"ERC4626AssetMismatch","inputs":[]},{"type":"error","name":"InvalidAccessManagerAddress","inputs":[{"name":"invalidAddress","type":"address","internalType":"address"}]},{"type":"error","name":"InvalidBoardData","inputs":[]},{"type":"error","name":"InvalidDisembarkData","inputs":[]},{"type":"error","name":"InvalidVaultAddress","inputs":[]},{"type":"error","name":"KeeperDataRequired","inputs":[]},{"type":"error","name":"ReentrancyGuardReentrantCall","inputs":[]},{"type":"error","name":"SafeERC20FailedOperation","inputs":[{"name":"token","type":"address","internalType":"address"}]}],"bytecode":{"object":"0x60a060405234801561000f575f5ffd5b506040516129b63803806129b683398101604081905261002e9161049a565b6060820151604083015183918291806001600160a01b03811661006b576040516347bd7c1d60e01b81525f60048201526024015b60405180910390fd5b6040516301ffc9a760e01b81526338c7ccdb60e01b60048201526001600160a01b038216906301ffc9a790602401602060405180830381865afa1580156100b4573d5f5f3e3d5ffd5b505050506040513d601f19601f820116820180604052508101906100d891906105b1565b610100576040516347bd7c1d60e01b81526001600160a01b0382166004820152602401610062565b5f80546001600160a01b0319166001600160a01b039283161790558216905061013c5760405163f1634df960e01b815260040160405180910390fd5b6001600160a01b0390811660805260608201511661016d5760405163b53c493160e01b815260040160405180910390fd5b60808101516001600160a01b031661019b576040516001620a810f60e11b0319815260040160405180910390fd5b8051515f036101bd5760405163268c072960e01b815260040160405180910390fd5b5f6101c6610342565b6001600160a01b0316036101ed57604051633a4f9cdb60e21b815260040160405180910390fd5b6040805161014081019091525f815260208101610208610342565b6001600160a01b039081168252608080850151821660208085019190915260a08087015160408087019190915260c08089015160608089019190915260e0808b0151878a01528a51858a01528a860151838a0152610100808c01511515918a01919091526101208b01519801979097528751600180549188166001600160a01b031992831617815594890151600280549189169183169190911790559188015160038054919097169216919091179094559385015160045590840151600555918301516006558201516007906102de9082610655565b5060e082015160078201906102f39082610655565b5061010082015160088201805460ff1916911515919091179055610120909101516009909101555050600180546001600160a01b0319166001600160a01b039290921691909117905550610728565b5f6080516001600160a01b031663117d8ae06040518163ffffffff1660e01b8152600401602060405180830381865afa158015610381573d5f5f3e3d5ffd5b505050506040513d601f19601f820116820180604052508101906103a5919061070f565b905090565b634e487b7160e01b5f52604160045260245ffd5b60405161014081016001600160401b03811182821017156103e1576103e16103aa565b60405290565b5f82601f8301126103f6575f5ffd5b81516001600160401b0381111561040f5761040f6103aa565b604051601f8201601f19908116603f011681016001600160401b038111828210171561043d5761043d6103aa565b604052818152838201602001851015610454575f5ffd5b8160208501602083015e5f918101602001919091529392505050565b80516001600160a01b0381168114610486575f5ffd5b919050565b80518015158114610486575f5ffd5b5f5f604083850312156104ab575f5ffd5b82516001600160401b038111156104c0575f5ffd5b830161014081860312156104d2575f5ffd5b6104da6103be565b81516001600160401b038111156104ef575f5ffd5b6104fb878285016103e7565b82525060208201516001600160401b03811115610516575f5ffd5b610522878285016103e7565b60208301525061053460408301610470565b604082015261054560608301610470565b606082015261055660808301610470565b608082015260a0828101519082015260c0808301519082015260e08083015190820152610586610100830161048b565b610100820152610120918201519181019190915291506105a860208401610470565b90509250929050565b5f602082840312156105c1575f5ffd5b6105ca8261048b565b9392505050565b600181811c908216806105e557607f821691505b60208210810361060357634e487b7160e01b5f52602260045260245ffd5b50919050565b601f82111561065057805f5260205f20601f840160051c8101602085101561062e5750805b601f840160051c820191505b8181101561064d575f815560010161063a565b50505b505050565b81516001600160401b0381111561066e5761066e6103aa565b6106828161067c84546105d1565b84610609565b6020601f8211600181146106b4575f831561069d5750848201515b5f19600385901b1c1916600184901b17845561064d565b5f84815260208120601f198516915b828110156106e357878501518255602094850194600190920191016106c3565b508482101561070057868401515f19600387901b60f8161c191681555b50505050600190811b01905550565b5f6020828403121561071f575f5ffd5b6105ca82610470565b6080516122536107635f395f8181610389015281816104ee01528181610886015281816108e3015281816110a6015261175801526122535ff3fe608060405234801561000f575f5ffd5b50600436106101d1575f3560e01c806379502c55116100fe578063c38a6f0b1161009e578063dbd5edc71161006e578063dbd5edc7146103be578063ebc136d0146103c6578063ebf31131146103d9578063f7e533ec146103e1575f5ffd5b8063c38a6f0b1461035c578063c3f909d41461036f578063c9c667e314610384578063ce5c7f61146103ab575f5ffd5b80638a8b9976116100d95780638a8b99761461033157806392f5e83214610339578063ad5a356f1461034c578063bdcdd88214610354575f5ffd5b806379502c55146102f85780637aaceb9514610316578063866512031461031e575f5ffd5b8063372709361161017457806361d027b31161014457806361d027b3146102a957806361f5cd8b146102b157806369b3054b146102c4578063780469bb146102d7575f5ffd5b8063372709361461026c57806338d52e0f1461027d5780634fc7fac31461028e5780635b0f83f3146102a1575f5ffd5b806313c408f8116101af57806313c408f8146102255780632db6d3991461023a578063303dbaf31461024d5780633194549e14610264575f5ffd5b806301e1d114146101d557806306fdde03146101f0578063117d8ae014610205575b5f5ffd5b6101dd6103e9565b6040519081526020015b60405180910390f35b6101f8610458565b6040516101e79190611b4d565b61020d6104eb565b6040516001600160a01b0390911681526020016101e7565b610238610233366004611ba4565b61056c565b005b610238610248366004611ba4565b61062a565b60095460ff165b60405190151581526020016101e7565b6005546101dd565b6001546001600160a01b031661020d565b6003546001600160a01b031661020d565b61023861029c366004611bec565b610835565b61020d610883565b61020d6108e0565b6102386102bf366004611bec565b61093d565b6101dd6102d2366004611c1a565b610984565b6102ea6102e5366004611c99565b6109b6565b6040516101e7929190611d4d565b610300610f4c565b6040516101e79a99989796959493929190611dd6565b61020d6110a3565b61023861032c366004611bec565b611100565b610238611147565b610238610347366004611bec565b6111a4565b6006546101dd565b600a546101dd565b61023861036a366004611e4d565b6111eb565b610377611331565b6040516101e79190611ed8565b61020d7f000000000000000000000000000000000000000000000000000000000000000081565b6102ea6103b9366004611fa9565b61152a565b6004546101dd565b6102546103d4366004611fe8565b61161c565b610238611703565b61020d611755565b6003546040516370a0823160e01b81523060048201525f916001600160a01b0316906370a0823190602401602060405180830381865afa15801561042f573d5f5f3e3d5ffd5b505050506040513d601f19601f820116820180604052508101906104539190612003565b905090565b60606001600601805461046a9061201a565b80601f01602080910402602001604051908101604052809291908181526020018280546104969061201a565b80156104e15780601f106104b8576101008083540402835291602001916104e1565b820191905f5260205f20905b8154815290600101906020018083116104c457829003601f168201915b5050505050905090565b5f7f00000000000000000000000000000000000000000000000000000000000000006001600160a01b031663117d8ae06040518163ffffffff1660e01b8152600401602060405180830381865afa158015610548573d5f5f3e3d5ffd5b505050506040513d601f19601f820116820180604052508101906104539190612052565b6105746117b2565b6105a457335b604051631564c0e160e11b81526001600160a01b0390911660048201526024015b60405180910390fd5b6105ac61183b565b81816105b882826118aa565b336003546105d0906001600160a01b0316828861190c565b600354604080516001600160a01b03928316815260208101899052918316917fd5e872c5ecfb1bb8820b2e6a20e31b883682282da886621541f71e31ec11947e910160405180910390a250505061062561196b565b505050565b61063261183b565b306001600160a01b031663372709366040518163ffffffff1660e01b8152600401602060405180830381865afa15801561066e573d5f5f3e3d5ffd5b505050506040513d601f19601f820116820180604052508101906106929190612052565b61069a6117b2565b6107b9575f3390505f306001600160a01b031663117d8ae06040518163ffffffff1660e01b8152600401602060405180830381865afa1580156106df573d5f5f3e3d5ffd5b505050506040513d601f19601f820116820180604052508101906107039190612052565b6001600160a01b0316826001600160a01b0316149050806107b65760405163d25dd10160e01b81526001600160a01b0383811660048301525f919085169063d25dd10190602401602060405180830381865afa158015610765573d5f5f3e3d5ffd5b505050506040513d601f19601f82011682018060405250810190610789919061206d565b9050806107b457604051638f7a567d60e01b81526001600160a01b038416600482015260240161059b565b505b50505b82826107c582826118aa565b60035433906107df906001600160a01b031682308a611995565b600354604080516001600160a01b039283168152602081018a9052918316917fcbaa1442ac205415c9d69643e7b60ec73d1de35dbc807c21ec288c70ddc4207b910160405180910390a25050505061062561196b565b61083d6117b2565b610847573361057a565b600a8190556040518181527fd3c6d0ab315f2f1352f036cd9f401b49e38e1b90907e195225e8105f9a0b6f02906020015b60405180910390a150565b5f7f00000000000000000000000000000000000000000000000000000000000000006001600160a01b0316635b0f83f36040518163ffffffff1660e01b8152600401602060405180830381865afa158015610548573d5f5f3e3d5ffd5b5f7f00000000000000000000000000000000000000000000000000000000000000006001600160a01b03166361d027b36040518163ffffffff1660e01b8152600401602060405180830381865afa158015610548573d5f5f3e3d5ffd5b6109456117b2565b61094f573361057a565b60058190556040518181527ffbe2d5c01ea8ba5596d6c4e6c82c6d4a0a0ee1128689993a4a5ba0169273d69f90602001610878565b5f828260405160200161099892919061208c565b60405160208183030381529060405280519060200120905092915050565b606080306001600160a01b031663117d8ae06040518163ffffffff1660e01b8152600401602060405180830381865afa1580156109f5573d5f5f3e3d5ffd5b505050506040513d601f19601f82011682018060405250810190610a199190612052565b6001600160a01b0316336001600160a01b031614610a5857335b604051631184b31b60e21b81526001600160a01b03909116600482015260240161059b565b610a6061183b565b825167ffffffffffffffff811115610a7a57610a7a611c54565b604051908082528060200260200182016040528015610aa3578160200160208202803683370190505b509150825167ffffffffffffffff811115610ac057610ac0611c54565b604051908082528060200260200182016040528015610ae9578160200160208202803683370190505b506003546040516370a0823160e01b81523060048201529192505f916001600160a01b03909116906370a0823190602401602060405180830381865afa158015610b35573d5f5f3e3d5ffd5b505050506040513d601f19601f82011682018060405250810190610b599190612003565b1115610d1d57600154604080516330fe427560e21b815290515f926001600160a01b03169163c3f909d49160048083019260a09291908290030181865afa158015610ba6573d5f5f3e3d5ffd5b505050506040513d601f19601f82011682018060405250810190610bca91906120cf565b516003546040516370a0823160e01b8152306004820152919250610c4f9183916001600160a01b0316906370a0823190602401602060405180830381865afa158015610c18573d5f5f3e3d5ffd5b505050506040513d601f19601f82011682018060405250810190610c3c9190612003565b6003546001600160a01b031691906119d4565b6003546040516370a0823160e01b81523060048201526001600160a01b0383811692632db6d399929116906370a0823190602401602060405180830381865afa158015610c9e573d5f5f3e3d5ffd5b505050506040513d601f19601f82011682018060405250810190610cc29190612003565b60405180602001604052805f8152506040518363ffffffff1660e01b8152600401610cee92919061214c565b5f604051808303815f87803b158015610d05575f5ffd5b505af1158015610d17573d5f5f3e3d5ffd5b50505050505b5f5b8351811015610eeb575f848281518110610d3b57610d3b61216c565b60209081029190910101516040516370a0823160e01b81523060048201526001600160a01b03909116906370a0823190602401602060405180830381865afa158015610d89573d5f5f3e3d5ffd5b505050506040513d601f19601f82011682018060405250810190610dad9190612003565b90508015610ee257610e76610dc06104eb565b868481518110610dd257610dd261216c565b60209081029190910101516040516370a0823160e01b81523060048201526001600160a01b03909116906370a0823190602401602060405180830381865afa158015610e20573d5f5f3e3d5ffd5b505050506040513d601f19601f82011682018060405250810190610e449190612003565b878581518110610e5657610e5661216c565b60200260200101516001600160a01b031661190c9092919063ffffffff16565b848281518110610e8857610e8861216c565b6020026020010151848381518110610ea257610ea261216c565b60200260200101906001600160a01b031690816001600160a01b03168152505080838381518110610ed557610ed561216c565b6020026020010181815250505b50600101610d1f565b5080604051610efa9190612180565b604051809103902082604051610f1091906121b5565b604051908190038120907f46b8771620f6acf56cb03d3e835ea8024c7dcbcf05fcc3f6ade9e19d1a3e212b905f90a3610f4761196b565b915091565b60018054600254600354600454600554600654600780546001600160a01b03978816989688169790951695939492939192610f869061201a565b80601f0160208091040260200160405190810160405280929190818152602001828054610fb29061201a565b8015610ffd5780601f10610fd457610100808354040283529160200191610ffd565b820191905f5260205f20905b815481529060010190602001808311610fe057829003601f168201915b5050505050908060070180546110129061201a565b80601f016020809104026020016040519081016040528092919081815260200182805461103e9061201a565b80156110895780601f1061106057610100808354040283529160200191611089565b820191905f5260205f20905b81548152906001019060200180831161106c57829003601f168201915b505050506008830154600990930154919260ff169190508a565b5f7f00000000000000000000000000000000000000000000000000000000000000006001600160a01b0316637aaceb956040518163ffffffff1660e01b8152600401602060405180830381865afa158015610548573d5f5f3e3d5ffd5b6111086117b2565b611112573361057a565b60048190556040518181527f333b26cca69716ad4680ddb07663f5bfb4f06045671f336af9a83690a3ae00f990602001610878565b61114f6117b2565b611159573361057a565b600180546001600160a01b031916339081179091556040519081527f55489ce0259bd691120d8860861be1c401c7c16a3cd268d21045756af4ecc5ca906020015b60405180910390a1565b6111ac6117b2565b6111b6573361057a565b60068190556040518181527fb6ac66853c4e59c71e118d25ab494bb847c4e5eb0c8894898c5343e6f61afc1290602001610878565b6111f36117b2565b6111fd573361057a565b818161120982826118aa565b60035460405163095ea7b360e01b81526001600160a01b038981166004830152602482018b90529091169063095ea7b3906044016020604051808303815f875af1158015611259573d5f5f3e3d5ffd5b505050506040513d601f19601f8201168201806040525081019061127d919061206d565b50604051632db6d39960e01b81526001600160a01b03881690632db6d399906112ae908b908a908a906004016121e8565b5f604051808303815f87803b1580156112c5575f5ffd5b505af11580156112d7573d5f5f3e3d5ffd5b5050600354604080516001600160a01b039283168152602081018d9052918b1693503092507f9f784fc02a186f1c98b2d9f15fda084da27cdd291a3785d978f91911d880516b910160405180910390a35050505050505050565b61139c6040518061014001604052805f6001600160a01b031681526020015f6001600160a01b031681526020015f6001600160a01b031681526020015f81526020015f81526020015f815260200160608152602001606081526020015f151581526020015f81525090565b6040805161014081018252600180546001600160a01b0390811683526002548116602084015260035416928201929092526004546060820152600554608082015260065460a08201526007805491929160c0840191906113fb9061201a565b80601f01602080910402602001604051908101604052809291908181526020018280546114279061201a565b80156114725780601f1061144957610100808354040283529160200191611472565b820191905f5260205f20905b81548152906001019060200180831161145557829003601f168201915b5050505050815260200160078201805461148b9061201a565b80601f01602080910402602001604051908101604052809291908181526020018280546114b79061201a565b80156115025780601f106114d957610100808354040283529160200191611502565b820191905f5260205f20905b8154815290600101906020018083116114e557829003601f168201915b5050509183525050600882015460ff1615156020820152600990910154604090910152919050565b606080306001600160a01b031663117d8ae06040518163ffffffff1660e01b8152600401602060405180830381865afa158015611569573d5f5f3e3d5ffd5b505050506040513d601f19601f8201168201806040525081019061158d9190612052565b6001600160a01b0316336001600160a01b0316146115ab5733610a33565b6115b361183b565b505060405160609081906115c8908290612180565b6040518091039020826040516115de91906121b5565b604051908190038120907f3e3e7958121b3e39c7a49392d1aa9cdce870c2a059744f9e15cf66fff7865455905f90a361161561196b565b9250929050565b5f80546040805163a89f38a360e01b815290516001600160a01b03909216916391d1485491839163a89f38a3916004808201926020929091908290030181865afa15801561166c573d5f5f3e3d5ffd5b505050506040513d601f19601f820116820180604052508101906116909190612003565b6040516001600160e01b031960e084901b16815260048101919091526001600160a01b0385166024820152604401602060405180830381865afa1580156116d9573d5f5f3e3d5ffd5b505050506040513d601f19601f820116820180604052508101906116fd919061206d565b92915050565b61170b6117b2565b611715573361057a565b600180546001600160a01b03191690556040513381527f7cb941d7b1708e5b3bcd35ca960d6c6311188cec18886e5b67630552676b04879060200161119a565b5f7f00000000000000000000000000000000000000000000000000000000000000006001600160a01b031663f7e533ec6040518163ffffffff1660e01b8152600401602060405180830381865afa158015610548573d5f5f3e3d5ffd5b5f80546001600160a01b03166391d148546117ce600230610984565b336040516001600160e01b031960e085901b16815260048101929092526001600160a01b03166024820152604401602060405180830381865afa158015611817573d5f5f3e3d5ffd5b505050506040513d601f19601f82011682018060405250810190610453919061206d565b7f9b779b17422d0df92223018b32b4d1fa46e071723d6817e2486d003becc55f005c1561187b57604051633ee5aeb560e01b815260040160405180910390fd5b6118a860017f9b779b17422d0df92223018b32b4d1fa46e071723d6817e2486d003becc55f005b90611a63565b565b80158015906118bc575060095460ff16155b156118da57604051630cd0fdf960e01b815260040160405180910390fd5b801580156118ea575060095460ff165b156119085760405163332863a960e11b815260040160405180910390fd5b5050565b6040516001600160a01b0383811660248301526044820183905261062591859182169063a9059cbb906064015b604051602081830303815290604052915060e01b6020820180516001600160e01b038381831617835250505050611a6a565b6118a85f7f9b779b17422d0df92223018b32b4d1fa46e071723d6817e2486d003becc55f006118a2565b6040516001600160a01b0384811660248301528381166044830152606482018390526119ce9186918216906323b872dd90608401611939565b50505050565b604080516001600160a01b038416602482015260448082018490528251808303909101815260649091019091526020810180516001600160e01b031663095ea7b360e01b179052611a258482611ad6565b6119ce576040516001600160a01b0384811660248301525f6044830152611a5991869182169063095ea7b390606401611939565b6119ce8482611a6a565b80825d5050565b5f5f60205f8451602086015f885af180611a89576040513d5f823e3d81fd5b50505f513d91508115611aa0578060011415611aad565b6001600160a01b0384163b155b156119ce57604051635274afe760e01b81526001600160a01b038516600482015260240161059b565b5f5f5f5f60205f8651602088015f8a5af192503d91505f519050828015611b1557508115611b075780600114611b15565b5f866001600160a01b03163b115b9695505050505050565b5f81518084528060208401602086015e5f602082860101526020601f19601f83011685010191505092915050565b602081525f611b5f6020830184611b1f565b9392505050565b5f5f83601f840112611b76575f5ffd5b50813567ffffffffffffffff811115611b8d575f5ffd5b602083019150836020828501011115611615575f5ffd5b5f5f5f60408486031215611bb6575f5ffd5b83359250602084013567ffffffffffffffff811115611bd3575f5ffd5b611bdf86828701611b66565b9497909650939450505050565b5f60208284031215611bfc575f5ffd5b5035919050565b6001600160a01b0381168114611c17575f5ffd5b50565b5f5f60408385031215611c2b575f5ffd5b823560038110611c39575f5ffd5b91506020830135611c4981611c03565b809150509250929050565b634e487b7160e01b5f52604160045260245ffd5b604051601f8201601f1916810167ffffffffffffffff81118282101715611c9157611c91611c54565b604052919050565b5f60208284031215611ca9575f5ffd5b813567ffffffffffffffff811115611cbf575f5ffd5b8201601f81018413611ccf575f5ffd5b803567ffffffffffffffff811115611ce957611ce9611c54565b8060051b611cf960208201611c68565b91825260208184018101929081019087841115611d14575f5ffd5b6020850194505b83851015611d425784359250611d3083611c03565b82825260209485019490910190611d1b565b979650505050505050565b604080825283519082018190525f9060208501906060840190835b81811015611d8f5783516001600160a01b0316835260209384019390920191600101611d68565b5050838103602080860191909152855180835291810192508501905f5b81811015611dca578251845260209384019390920191600101611dac565b50919695505050505050565b6001600160a01b038b811682528a8116602083015289166040820152606081018890526080810187905260a0810186905261014060c082018190525f90611e1f90830187611b1f565b82810360e0840152611e318187611b1f565b9415156101008401525050610120015298975050505050505050565b5f5f5f5f5f5f60808789031215611e62575f5ffd5b863595506020870135611e7481611c03565b9450604087013567ffffffffffffffff811115611e8f575f5ffd5b611e9b89828a01611b66565b909550935050606087013567ffffffffffffffff811115611eba575f5ffd5b611ec689828a01611b66565b979a9699509497509295939492505050565b60208152611ef26020820183516001600160a01b03169052565b5f6020830151611f0d60408401826001600160a01b03169052565b5060408301516001600160a01b03811660608401525060608301516080830152608083015160a083015260a083015160c083015260c083015161014060e0840152611f5c610160840182611b1f565b905060e0840151601f1984830301610100850152611f7a8282611b1f565b915050610100840151611f9261012085018215159052565b506101208401516101408401528091505092915050565b5f5f60208385031215611fba575f5ffd5b823567ffffffffffffffff811115611fd0575f5ffd5b611fdc85828601611b66565b90969095509350505050565b5f60208284031215611ff8575f5ffd5b8135611b5f81611c03565b5f60208284031215612013575f5ffd5b5051919050565b600181811c9082168061202e57607f821691505b60208210810361204c57634e487b7160e01b5f52602260045260245ffd5b50919050565b5f60208284031215612062575f5ffd5b8151611b5f81611c03565b5f6020828403121561207d575f5ffd5b81518015158114611b5f575f5ffd5b5f600384106120a957634e487b7160e01b5f52602160045260245ffd5b5060f89290921b825260601b6bffffffffffffffffffffffff1916600182015260150190565b5f60a08284031280156120e0575f5ffd5b5060405160a0810167ffffffffffffffff8111828210171561210457612104611c54565b604052825161211281611c03565b8152602083810151908201526040808401519082015260608084015190820152608083015161214081611c03565b60808201529392505050565b828152604060208201525f6121646040830184611b1f565b949350505050565b634e487b7160e01b5f52603260045260245ffd5b81515f90829060208501835b828110156121aa57815184526020938401939091019060010161218c565b509195945050505050565b81515f90829060208501835b828110156121aa5781516001600160a01b03168452602093840193909101906001016121c1565b83815260406020820152816040820152818360608301375f818301606090810191909152601f909201601f191601019291505056fea2646970667358221220362b39d42923ac5201b71dbfdb99a4a8e69a463a006ebf2bc228aef2297728a264736f6c634300081c0033","linkReferences":{}},"methodIdentifiers":{"asset()":"38d52e0f","board(uint256,bytes)":"2db6d399","commander()":"37270936","config()":"79502c55","configurationManager()":"c9c667e3","depositCap()":"dbd5edc7","disembark(uint256,bytes)":"13c408f8","fleetCommanderRewardsManagerFactory()":"f7e533ec","generateRole(uint8,address)":"69b3054b","getConfig()":"c3f909d4","harborCommand()":"5b0f83f3","harvest(bytes)":"ce5c7f61","hasAdmiralsQuartersRole(address)":"ebc136d0","maxDepositPercentageOfTVL()":"bdcdd882","maxRebalanceInflow()":"ad5a356f","maxRebalanceOutflow()":"3194549e","move(uint256,address,bytes,bytes)":"c38a6f0b","name()":"06fdde03","raft()":"117d8ae0","registerFleetCommander()":"8a8b9976","requiresKeeperData()":"303dbaf3","setDepositCap(uint256)":"86651203","setMaxDepositPercentageOfTVL(uint256)":"4fc7fac3","setMaxRebalanceInflow(uint256)":"92f5e832","setMaxRebalanceOutflow(uint256)":"61f5cd8b","sweep(address[])":"780469bb","tipJar()":"7aaceb95","totalAssets()":"01e1d114","treasury()":"61d027b3","unregisterFleetCommander()":"ebf31131"},"id":208}