{"abi":[{"type":"constructor","inputs":[{"name":"_params","type":"tuple","internalType":"struct ArkParams","components":[{"name":"name","type":"string","internalType":"string"},{"name":"accessManager","type":"address","internalType":"address"},{"name":"configurationManager","type":"address","internalType":"address"},{"name":"token","type":"address","internalType":"address"},{"name":"depositCap","type":"uint256","internalType":"uint256"},{"name":"maxRebalanceOutflow","type":"uint256","internalType":"uint256"},{"name":"maxRebalanceInflow","type":"uint256","internalType":"uint256"},{"name":"requiresKeeperData","type":"bool","internalType":"bool"},{"name":"maxDepositPercentageOfTVL","type":"uint256","internalType":"Percentage"}]},{"name":"commanderAddress","type":"address","internalType":"address"}],"stateMutability":"nonpayable"},{"type":"function","name":"board","inputs":[{"name":"amount","type":"uint256","internalType":"uint256"},{"name":"boardData","type":"bytes","internalType":"bytes"}],"outputs":[],"stateMutability":"nonpayable"},{"type":"function","name":"commander","inputs":[],"outputs":[{"name":"","type":"address","internalType":"address"}],"stateMutability":"view"},{"type":"function","name":"config","inputs":[],"outputs":[{"name":"commander","type":"address","internalType":"address"},{"name":"raft","type":"address","internalType":"address"},{"name":"token","type":"address","internalType":"contract IERC20"},{"name":"depositCap","type":"uint256","internalType":"uint256"},{"name":"maxRebalanceOutflow","type":"uint256","internalType":"uint256"},{"name":"maxRebalanceInflow","type":"uint256","internalType":"uint256"},{"name":"name","type":"string","internalType":"string"},{"name":"requiresKeeperData","type":"bool","internalType":"bool"},{"name":"maxDepositPercentageOfTVL","type":"uint256","internalType":"Percentage"}],"stateMutability":"view"},{"type":"function","name":"configurationManager","inputs":[],"outputs":[{"name":"","type":"address","internalType":"contract IConfigurationManager"}],"stateMutability":"view"},{"type":"function","name":"depositCap","inputs":[],"outputs":[{"name":"","type":"uint256","internalType":"uint256"}],"stateMutability":"view"},{"type":"function","name":"disembark","inputs":[{"name":"amount","type":"uint256","internalType":"uint256"},{"name":"disembarkData","type":"bytes","internalType":"bytes"}],"outputs":[],"stateMutability":"nonpayable"},{"type":"function","name":"generateRole","inputs":[{"name":"roleName","type":"uint8","internalType":"enum ContractSpecificRoles"},{"name":"roleTargetContract","type":"address","internalType":"address"}],"outputs":[{"name":"","type":"bytes32","internalType":"bytes32"}],"stateMutability":"pure"},{"type":"function","name":"getConfig","inputs":[],"outputs":[{"name":"","type":"tuple","internalType":"struct ArkConfig","components":[{"name":"commander","type":"address","internalType":"address"},{"name":"raft","type":"address","internalType":"address"},{"name":"token","type":"address","internalType":"contract IERC20"},{"name":"depositCap","type":"uint256","internalType":"uint256"},{"name":"maxRebalanceOutflow","type":"uint256","internalType":"uint256"},{"name":"maxRebalanceInflow","type":"uint256","internalType":"uint256"},{"name":"name","type":"string","internalType":"string"},{"name":"requiresKeeperData","type":"bool","internalType":"bool"},{"name":"maxDepositPercentageOfTVL","type":"uint256","internalType":"Percentage"}]}],"stateMutability":"view"},{"type":"function","name":"harborCommand","inputs":[],"outputs":[{"name":"","type":"address","internalType":"address"}],"stateMutability":"view"},{"type":"function","name":"harvest","inputs":[{"name":"additionalData","type":"bytes","internalType":"bytes"}],"outputs":[{"name":"rewardTokens","type":"address[]","internalType":"address[]"},{"name":"rewardAmounts","type":"uint256[]","internalType":"uint256[]"}],"stateMutability":"nonpayable"},{"type":"function","name":"maxDepositPercentageOfTVL","inputs":[],"outputs":[{"name":"","type":"uint256","internalType":"Percentage"}],"stateMutability":"view"},{"type":"function","name":"maxRebalanceInflow","inputs":[],"outputs":[{"name":"","type":"uint256","internalType":"uint256"}],"stateMutability":"view"},{"type":"function","name":"maxRebalanceOutflow","inputs":[],"outputs":[{"name":"","type":"uint256","internalType":"uint256"}],"stateMutability":"view"},{"type":"function","name":"move","inputs":[{"name":"amount","type":"uint256","internalType":"uint256"},{"name":"receiverArk","type":"address","internalType":"address"},{"name":"boardData","type":"bytes","internalType":"bytes"},{"name":"disembarkData","type":"bytes","internalType":"bytes"}],"outputs":[],"stateMutability":"nonpayable"},{"type":"function","name":"name","inputs":[],"outputs":[{"name":"","type":"string","internalType":"string"}],"stateMutability":"view"},{"type":"function","name":"raft","inputs":[],"outputs":[{"name":"","type":"address","internalType":"address"}],"stateMutability":"view"},{"type":"function","name":"registerFleetCommander","inputs":[],"outputs":[],"stateMutability":"nonpayable"},{"type":"function","name":"requiresKeeperData","inputs":[],"outputs":[{"name":"","type":"bool","internalType":"bool"}],"stateMutability":"view"},{"type":"function","name":"setDepositCap","inputs":[{"name":"newDepositCap","type":"uint256","internalType":"uint256"}],"outputs":[],"stateMutability":"nonpayable"},{"type":"function","name":"setMaxDepositPercentageOfTVL","inputs":[{"name":"newMaxDepositPercentageOfTVL","type":"uint256","internalType":"Percentage"}],"outputs":[],"stateMutability":"nonpayable"},{"type":"function","name":"setMaxRebalanceInflow","inputs":[{"name":"newMaxRebalanceInflow","type":"uint256","internalType":"uint256"}],"outputs":[],"stateMutability":"nonpayable"},{"type":"function","name":"setMaxRebalanceOutflow","inputs":[{"name":"newMaxRebalanceOutflow","type":"uint256","internalType":"uint256"}],"outputs":[],"stateMutability":"nonpayable"},{"type":"function","name":"sweep","inputs":[{"name":"tokens","type":"address[]","internalType":"address[]"}],"outputs":[{"name":"sweptTokens","type":"address[]","internalType":"address[]"},{"name":"sweptAmounts","type":"uint256[]","internalType":"uint256[]"}],"stateMutability":"nonpayable"},{"type":"function","name":"tipJar","inputs":[],"outputs":[{"name":"","type":"address","internalType":"address"}],"stateMutability":"view"},{"type":"function","name":"token","inputs":[],"outputs":[{"name":"","type":"address","internalType":"contract IERC20"}],"stateMutability":"view"},{"type":"function","name":"totalAssets","inputs":[],"outputs":[{"name":"","type":"uint256","internalType":"uint256"}],"stateMutability":"view"},{"type":"function","name":"treasury","inputs":[],"outputs":[{"name":"","type":"address","internalType":"address"}],"stateMutability":"view"},{"type":"function","name":"unregisterFleetCommander","inputs":[],"outputs":[],"stateMutability":"nonpayable"},{"type":"event","name":"ArkHarvested","inputs":[{"name":"rewardTokens","type":"address[]","indexed":true,"internalType":"address[]"},{"name":"rewardAmounts","type":"uint256[]","indexed":true,"internalType":"uint256[]"}],"anonymous":false},{"type":"event","name":"ArkPoked","inputs":[{"name":"currentPrice","type":"uint256","indexed":false,"internalType":"uint256"},{"name":"timestamp","type":"uint256","indexed":false,"internalType":"uint256"}],"anonymous":false},{"type":"event","name":"ArkSwept","inputs":[{"name":"sweptTokens","type":"address[]","indexed":true,"internalType":"address[]"},{"name":"sweptAmounts","type":"uint256[]","indexed":true,"internalType":"uint256[]"}],"anonymous":false},{"type":"event","name":"Boarded","inputs":[{"name":"commander","type":"address","indexed":true,"internalType":"address"},{"name":"token","type":"address","indexed":false,"internalType":"address"},{"name":"amount","type":"uint256","indexed":false,"internalType":"uint256"}],"anonymous":false},{"type":"event","name":"DepositCapUpdated","inputs":[{"name":"newCap","type":"uint256","indexed":false,"internalType":"uint256"}],"anonymous":false},{"type":"event","name":"Disembarked","inputs":[{"name":"commander","type":"address","indexed":true,"internalType":"address"},{"name":"token","type":"address","indexed":false,"internalType":"address"},{"name":"amount","type":"uint256","indexed":false,"internalType":"uint256"}],"anonymous":false},{"type":"event","name":"FleetCommanderRegistered","inputs":[{"name":"commander","type":"address","indexed":false,"internalType":"address"}],"anonymous":false},{"type":"event","name":"FleetCommanderUnregistered","inputs":[{"name":"commander","type":"address","indexed":false,"internalType":"address"}],"anonymous":false},{"type":"event","name":"MaxDepositPercentageOfTVLUpdated","inputs":[{"name":"newMaxDepositPercentageOfTVL","type":"uint256","indexed":false,"internalType":"Percentage"}],"anonymous":false},{"type":"event","name":"MaxRebalanceInflowUpdated","inputs":[{"name":"newMaxInflow","type":"uint256","indexed":false,"internalType":"uint256"}],"anonymous":false},{"type":"event","name":"MaxRebalanceOutflowUpdated","inputs":[{"name":"newMaxOutflow","type":"uint256","indexed":false,"internalType":"uint256"}],"anonymous":false},{"type":"event","name":"Moved","inputs":[{"name":"from","type":"address","indexed":true,"internalType":"address"},{"name":"to","type":"address","indexed":true,"internalType":"address"},{"name":"token","type":"address","indexed":false,"internalType":"address"},{"name":"amount","type":"uint256","indexed":false,"internalType":"uint256"}],"anonymous":false},{"type":"event","name":"RaftUpdated","inputs":[{"name":"newRaft","type":"address","indexed":false,"internalType":"address"}],"anonymous":false},{"type":"error","name":"CallerIsNotAdmin","inputs":[{"name":"caller","type":"address","internalType":"address"}]},{"type":"error","name":"CallerIsNotAuthorizedToBoard","inputs":[{"name":"caller","type":"address","internalType":"address"}]},{"type":"error","name":"CallerIsNotCommander","inputs":[{"name":"caller","type":"address","internalType":"address"}]},{"type":"error","name":"CallerIsNotContractSpecificRole","inputs":[{"name":"caller","type":"address","internalType":"address"},{"name":"role","type":"bytes32","internalType":"bytes32"}]},{"type":"error","name":"CallerIsNotCurator","inputs":[{"name":"caller","type":"address","internalType":"address"}]},{"type":"error","name":"CallerIsNotGovernor","inputs":[{"name":"caller","type":"address","internalType":"address"}]},{"type":"error","name":"CallerIsNotGuardian","inputs":[{"name":"caller","type":"address","internalType":"address"}]},{"type":"error","name":"CallerIsNotGuardianOrGovernor","inputs":[{"name":"caller","type":"address","internalType":"address"}]},{"type":"error","name":"CallerIsNotKeeper","inputs":[{"name":"caller","type":"address","internalType":"address"}]},{"type":"error","name":"CallerIsNotRaft","inputs":[{"name":"caller","type":"address","internalType":"address"}]},{"type":"error","name":"CallerIsNotRaftOrCommander","inputs":[{"name":"caller","type":"address","internalType":"address"}]},{"type":"error","name":"CallerIsNotSuperKeeper","inputs":[{"name":"caller","type":"address","internalType":"address"}]},{"type":"error","name":"CannotAddCommanderToArkWithCommander","inputs":[]},{"type":"error","name":"CannotDeployArkWithEmptyName","inputs":[]},{"type":"error","name":"CannotDeployArkWithoutConfigurationManager","inputs":[]},{"type":"error","name":"CannotDeployArkWithoutRaft","inputs":[]},{"type":"error","name":"CannotDeployArkWithoutToken","inputs":[]},{"type":"error","name":"CannotRemoveCommanderFromArkWithAssets","inputs":[]},{"type":"error","name":"CannotUseKeeperDataWhenNotRequired","inputs":[]},{"type":"error","name":"ConfigurationManagerZeroAddress","inputs":[]},{"type":"error","name":"DirectGrantIsDisabled","inputs":[{"name":"caller","type":"address","internalType":"address"}]},{"type":"error","name":"DirectRevokeIsDisabled","inputs":[{"name":"caller","type":"address","internalType":"address"}]},{"type":"error","name":"ERC4626AssetMismatch","inputs":[]},{"type":"error","name":"InvalidAccessManagerAddress","inputs":[{"name":"invalidAddress","type":"address","internalType":"address"}]},{"type":"error","name":"InvalidBoardData","inputs":[]},{"type":"error","name":"InvalidDisembarkData","inputs":[]},{"type":"error","name":"InvalidVaultAddress","inputs":[]},{"type":"error","name":"KeeperDataRequired","inputs":[]},{"type":"error","name":"ReentrancyGuardReentrantCall","inputs":[]},{"type":"error","name":"SafeERC20FailedOperation","inputs":[{"name":"token","type":"address","internalType":"address"}]}],"bytecode":{"object":"0x60a060405234801561000f575f5ffd5b5060405161265638038061265683398101604081905261002e91610474565b6040820151602083015183918291806001600160a01b03811661006b576040516347bd7c1d60e01b81525f60048201526024015b60405180910390fd5b6040516301ffc9a760e01b815263fe1a291f60e01b60048201526001600160a01b038216906301ffc9a790602401602060405180830381865afa1580156100b4573d5f5f3e3d5ffd5b505050506040513d601f19601f820116820180604052508101906100d8919061055f565b610100576040516347bd7c1d60e01b81526001600160a01b0382166004820152602401610062565b5f80546001600160a01b0319166001600160a01b039283161790558216905061013c5760405163f1634df960e01b815260040160405180910390fd5b6001600160a01b0390811660805260408201511661016d5760405163b53c493160e01b815260040160405180910390fd5b60608101516001600160a01b031661019b576040516001620a810f60e11b0319815260040160405180910390fd5b8051515f036101bd5760405163268c072960e01b815260040160405180910390fd5b5f6101c661031c565b6001600160a01b0316036101ed57604051633a4f9cdb60e21b815260040160405180910390fd5b6040805161012081019091525f81526020810161020861031c565b6001600160a01b039081168252606080850151821660208085019190915260808087015160408087019190915260a0808901518588015260c0808a01518489015289518289015260e0808b01511515828a01526101008b01519801979097528751600180549188166001600160a01b03199283161781559489015160028054918916918316919091179055918801516003805491909716921691909117909455918501516004559084015160055590830151600655908201516007906102ce9082610603565b5060e082015160078201805460ff1916911515919091179055610100909101516008909101555050600180546001600160a01b0319166001600160a01b0392909216919091179055506106d6565b5f6080516001600160a01b031663117d8ae06040518163ffffffff1660e01b8152600401602060405180830381865afa15801561035b573d5f5f3e3d5ffd5b505050506040513d601f19601f8201168201806040525081019061037f91906106bd565b905090565b634e487b7160e01b5f52604160045260245ffd5b60405161012081016001600160401b03811182821017156103bb576103bb610384565b60405290565b5f82601f8301126103d0575f5ffd5b81516001600160401b038111156103e9576103e9610384565b604051601f8201601f19908116603f011681016001600160401b038111828210171561041757610417610384565b60405281815283820160200185101561042e575f5ffd5b8160208501602083015e5f918101602001919091529392505050565b80516001600160a01b0381168114610460575f5ffd5b919050565b80518015158114610460575f5ffd5b5f5f60408385031215610485575f5ffd5b82516001600160401b0381111561049a575f5ffd5b830161012081860312156104ac575f5ffd5b6104b4610398565b81516001600160401b038111156104c9575f5ffd5b6104d5878285016103c1565b8252506104e46020830161044a565b60208201526104f56040830161044a565b60408201526105066060830161044a565b60608201526080828101519082015260a0808301519082015260c0808301519082015261053560e08301610465565b60e0820152610100918201519181019190915291506105566020840161044a565b90509250929050565b5f6020828403121561056f575f5ffd5b61057882610465565b9392505050565b600181811c9082168061059357607f821691505b6020821081036105b157634e487b7160e01b5f52602260045260245ffd5b50919050565b601f8211156105fe57805f5260205f20601f840160051c810160208510156105dc5750805b601f840160051c820191505b818110156105fb575f81556001016105e8565b50505b505050565b81516001600160401b0381111561061c5761061c610384565b6106308161062a845461057f565b846105b7565b6020601f821160018114610662575f831561064b5750848201515b5f19600385901b1c1916600184901b1784556105fb565b5f84815260208120601f198516915b828110156106915787850151825560209485019460019092019101610671565b50848210156106ae57868401515f19600387901b60f8161c191681555b50505050600190811b01905550565b5f602082840312156106cd575f5ffd5b6105788261044a565b608051611f4c61070a5f395f8181610360015281816104bb01528181610853015281816108b00152610fe70152611f4c5ff3fe608060405234801561000f575f5ffd5b50600436106101bb575f3560e01c806379502c55116100f3578063c38a6f0b11610093578063ce5c7f611161006e578063ce5c7f6114610382578063dbd5edc714610395578063ebf311311461039d578063fc0c546a146103a5575f5ffd5b8063c38a6f0b14610333578063c3f909d414610346578063c9c667e31461035b575f5ffd5b80638a8b9976116100ce5780638a8b99761461030857806392f5e83214610310578063ad5a356f14610323578063bdcdd8821461032b575f5ffd5b806379502c55146102d05780637aaceb95146102ed57806386651203146102f5575f5ffd5b8063372709361161015e57806361d027b31161013957806361d027b31461028157806361f5cd8b1461028957806369b3054b1461029c578063780469bb146102af575f5ffd5b806337270936146102555780634fc7fac3146102665780635b0f83f314610279575f5ffd5b806313c408f81161019957806313c408f81461020f5780632db6d39914610224578063303dbaf3146102375780633194549e1461024d575f5ffd5b806301e1d114146101bf57806306fdde03146101da578063117d8ae0146101ef575b5f5ffd5b6101c76103b6565b6040519081526020015b60405180910390f35b6101e2610425565b6040516101d19190611896565b6101f76104b8565b6040516001600160a01b0390911681526020016101d1565b61022261021d3660046118ed565b610539565b005b6102226102323660046118ed565b6105f7565b60085460ff1660405190151581526020016101d1565b6005546101c7565b6001546001600160a01b03166101f7565b610222610274366004611935565b610802565b6101f7610850565b6101f76108ad565b610222610297366004611935565b61090a565b6101c76102aa366004611963565b610951565b6102c26102bd3660046119e2565b610983565b6040516101d1929190611a96565b6102d8610f19565b6040516101d199989796959493929190611b1f565b6101f7610fe4565b610222610303366004611935565b611041565b610222611088565b61022261031e366004611935565b6110e5565b6006546101c7565b6009546101c7565b610222610341366004611b81565b61112c565b61034e611272565b6040516101d19190611c0c565b6101f77f000000000000000000000000000000000000000000000000000000000000000081565b6102c2610390366004611cbd565b6113b7565b6004546101c7565b6102226114a9565b6003546001600160a01b03166101f7565b6003546040516370a0823160e01b81523060048201525f916001600160a01b0316906370a0823190602401602060405180830381865afa1580156103fc573d5f5f3e3d5ffd5b505050506040513d601f19601f820116820180604052508101906104209190611cfc565b905090565b60606001600601805461043790611d13565b80601f016020809104026020016040519081016040528092919081815260200182805461046390611d13565b80156104ae5780601f10610485576101008083540402835291602001916104ae565b820191905f5260205f20905b81548152906001019060200180831161049157829003601f168201915b5050505050905090565b5f7f00000000000000000000000000000000000000000000000000000000000000006001600160a01b031663117d8ae06040518163ffffffff1660e01b8152600401602060405180830381865afa158015610515573d5f5f3e3d5ffd5b505050506040513d601f19601f820116820180604052508101906104209190611d4b565b6105416114fb565b61057157335b604051631564c0e160e11b81526001600160a01b0390911660048201526024015b60405180910390fd5b610579611584565b818161058582826115f3565b3360035461059d906001600160a01b03168288611655565b600354604080516001600160a01b03928316815260208101899052918316917fd5e872c5ecfb1bb8820b2e6a20e31b883682282da886621541f71e31ec11947e910160405180910390a25050506105f26116b4565b505050565b6105ff611584565b306001600160a01b031663372709366040518163ffffffff1660e01b8152600401602060405180830381865afa15801561063b573d5f5f3e3d5ffd5b505050506040513d601f19601f8201168201806040525081019061065f9190611d4b565b6106676114fb565b610786575f3390505f306001600160a01b031663117d8ae06040518163ffffffff1660e01b8152600401602060405180830381865afa1580156106ac573d5f5f3e3d5ffd5b505050506040513d601f19601f820116820180604052508101906106d09190611d4b565b6001600160a01b0316826001600160a01b0316149050806107835760405163d25dd10160e01b81526001600160a01b0383811660048301525f919085169063d25dd10190602401602060405180830381865afa158015610732573d5f5f3e3d5ffd5b505050506040513d601f19601f820116820180604052508101906107569190611d66565b90508061078157604051638f7a567d60e01b81526001600160a01b0384166004820152602401610568565b505b50505b828261079282826115f3565b60035433906107ac906001600160a01b031682308a6116de565b600354604080516001600160a01b039283168152602081018a9052918316917fcbaa1442ac205415c9d69643e7b60ec73d1de35dbc807c21ec288c70ddc4207b910160405180910390a2505050506105f26116b4565b61080a6114fb565b6108145733610547565b60098190556040518181527fd3c6d0ab315f2f1352f036cd9f401b49e38e1b90907e195225e8105f9a0b6f02906020015b60405180910390a150565b5f7f00000000000000000000000000000000000000000000000000000000000000006001600160a01b0316635b0f83f36040518163ffffffff1660e01b8152600401602060405180830381865afa158015610515573d5f5f3e3d5ffd5b5f7f00000000000000000000000000000000000000000000000000000000000000006001600160a01b03166361d027b36040518163ffffffff1660e01b8152600401602060405180830381865afa158015610515573d5f5f3e3d5ffd5b6109126114fb565b61091c5733610547565b60058190556040518181527ffbe2d5c01ea8ba5596d6c4e6c82c6d4a0a0ee1128689993a4a5ba0169273d69f90602001610845565b5f8282604051602001610965929190611d85565b60405160208183030381529060405280519060200120905092915050565b606080306001600160a01b031663117d8ae06040518163ffffffff1660e01b8152600401602060405180830381865afa1580156109c2573d5f5f3e3d5ffd5b505050506040513d601f19601f820116820180604052508101906109e69190611d4b565b6001600160a01b0316336001600160a01b031614610a2557335b604051631184b31b60e21b81526001600160a01b039091166004820152602401610568565b610a2d611584565b825167ffffffffffffffff811115610a4757610a4761199d565b604051908082528060200260200182016040528015610a70578160200160208202803683370190505b509150825167ffffffffffffffff811115610a8d57610a8d61199d565b604051908082528060200260200182016040528015610ab6578160200160208202803683370190505b506003546040516370a0823160e01b81523060048201529192505f916001600160a01b03909116906370a0823190602401602060405180830381865afa158015610b02573d5f5f3e3d5ffd5b505050506040513d601f19601f82011682018060405250810190610b269190611cfc565b1115610cea57600154604080516330fe427560e21b815290515f926001600160a01b03169163c3f909d49160048083019260a09291908290030181865afa158015610b73573d5f5f3e3d5ffd5b505050506040513d601f19601f82011682018060405250810190610b979190611dc8565b516003546040516370a0823160e01b8152306004820152919250610c1c9183916001600160a01b0316906370a0823190602401602060405180830381865afa158015610be5573d5f5f3e3d5ffd5b505050506040513d601f19601f82011682018060405250810190610c099190611cfc565b6003546001600160a01b0316919061171d565b6003546040516370a0823160e01b81523060048201526001600160a01b0383811692632db6d399929116906370a0823190602401602060405180830381865afa158015610c6b573d5f5f3e3d5ffd5b505050506040513d601f19601f82011682018060405250810190610c8f9190611cfc565b60405180602001604052805f8152506040518363ffffffff1660e01b8152600401610cbb929190611e45565b5f604051808303815f87803b158015610cd2575f5ffd5b505af1158015610ce4573d5f5f3e3d5ffd5b50505050505b5f5b8351811015610eb8575f848281518110610d0857610d08611e65565b60209081029190910101516040516370a0823160e01b81523060048201526001600160a01b03909116906370a0823190602401602060405180830381865afa158015610d56573d5f5f3e3d5ffd5b505050506040513d601f19601f82011682018060405250810190610d7a9190611cfc565b90508015610eaf57610e43610d8d6104b8565b868481518110610d9f57610d9f611e65565b60209081029190910101516040516370a0823160e01b81523060048201526001600160a01b03909116906370a0823190602401602060405180830381865afa158015610ded573d5f5f3e3d5ffd5b505050506040513d601f19601f82011682018060405250810190610e119190611cfc565b878581518110610e2357610e23611e65565b60200260200101516001600160a01b03166116559092919063ffffffff16565b848281518110610e5557610e55611e65565b6020026020010151848381518110610e6f57610e6f611e65565b60200260200101906001600160a01b031690816001600160a01b03168152505080838381518110610ea257610ea2611e65565b6020026020010181815250505b50600101610cec565b5080604051610ec79190611e79565b604051809103902082604051610edd9190611eae565b604051908190038120907f46b8771620f6acf56cb03d3e835ea8024c7dcbcf05fcc3f6ade9e19d1a3e212b905f90a3610f146116b4565b915091565b60018054600254600354600454600554600654600780546001600160a01b03978816989688169790951695939492939192610f5390611d13565b80601f0160208091040260200160405190810160405280929190818152602001828054610f7f90611d13565b8015610fca5780601f10610fa157610100808354040283529160200191610fca565b820191905f5260205f20905b815481529060010190602001808311610fad57829003601f168201915b505050506007830154600890930154919260ff1691905089565b5f7f00000000000000000000000000000000000000000000000000000000000000006001600160a01b0316637aaceb956040518163ffffffff1660e01b8152600401602060405180830381865afa158015610515573d5f5f3e3d5ffd5b6110496114fb565b6110535733610547565b60048190556040518181527f333b26cca69716ad4680ddb07663f5bfb4f06045671f336af9a83690a3ae00f990602001610845565b6110906114fb565b61109a5733610547565b600180546001600160a01b031916339081179091556040519081527f55489ce0259bd691120d8860861be1c401c7c16a3cd268d21045756af4ecc5ca906020015b60405180910390a1565b6110ed6114fb565b6110f75733610547565b60068190556040518181527fb6ac66853c4e59c71e118d25ab494bb847c4e5eb0c8894898c5343e6f61afc1290602001610845565b6111346114fb565b61113e5733610547565b818161114a82826115f3565b60035460405163095ea7b360e01b81526001600160a01b038981166004830152602482018b90529091169063095ea7b3906044016020604051808303815f875af115801561119a573d5f5f3e3d5ffd5b505050506040513d601f19601f820116820180604052508101906111be9190611d66565b50604051632db6d39960e01b81526001600160a01b03881690632db6d399906111ef908b908a908a90600401611ee1565b5f604051808303815f87803b158015611206575f5ffd5b505af1158015611218573d5f5f3e3d5ffd5b5050600354604080516001600160a01b039283168152602081018d9052918b1693503092507f9f784fc02a186f1c98b2d9f15fda084da27cdd291a3785d978f91911d880516b910160405180910390a35050505050505050565b60408051610120810182525f8082526020820181905291810182905260608082018390526080820183905260a0820183905260c082015260e081018290526101008101919091526040805161012081018252600180546001600160a01b0390811683526002548116602084015260035416928201929092526004546060820152600554608082015260065460a08201526007805491929160c08401919061131890611d13565b80601f016020809104026020016040519081016040528092919081815260200182805461134490611d13565b801561138f5780601f106113665761010080835404028352916020019161138f565b820191905f5260205f20905b81548152906001019060200180831161137257829003601f168201915b5050509183525050600782015460ff1615156020820152600890910154604090910152919050565b606080306001600160a01b031663117d8ae06040518163ffffffff1660e01b8152600401602060405180830381865afa1580156113f6573d5f5f3e3d5ffd5b505050506040513d601f19601f8201168201806040525081019061141a9190611d4b565b6001600160a01b0316336001600160a01b0316146114385733610a00565b611440611584565b50506040516060908190611455908290611e79565b60405180910390208260405161146b9190611eae565b604051908190038120907f3e3e7958121b3e39c7a49392d1aa9cdce870c2a059744f9e15cf66fff7865455905f90a36114a26116b4565b9250929050565b6114b16114fb565b6114bb5733610547565b600180546001600160a01b03191690556040513381527f7cb941d7b1708e5b3bcd35ca960d6c6311188cec18886e5b67630552676b0487906020016110db565b5f80546001600160a01b03166391d14854611517600230610951565b336040516001600160e01b031960e085901b16815260048101929092526001600160a01b03166024820152604401602060405180830381865afa158015611560573d5f5f3e3d5ffd5b505050506040513d601f19601f820116820180604052508101906104209190611d66565b7f9b779b17422d0df92223018b32b4d1fa46e071723d6817e2486d003becc55f005c156115c457604051633ee5aeb560e01b815260040160405180910390fd5b6115f160017f9b779b17422d0df92223018b32b4d1fa46e071723d6817e2486d003becc55f005b906117ac565b565b8015801590611605575060085460ff16155b1561162357604051630cd0fdf960e01b815260040160405180910390fd5b80158015611633575060085460ff165b156116515760405163332863a960e11b815260040160405180910390fd5b5050565b6040516001600160a01b038381166024830152604482018390526105f291859182169063a9059cbb906064015b604051602081830303815290604052915060e01b6020820180516001600160e01b0383818316178352505050506117b3565b6115f15f7f9b779b17422d0df92223018b32b4d1fa46e071723d6817e2486d003becc55f006115eb565b6040516001600160a01b0384811660248301528381166044830152606482018390526117179186918216906323b872dd90608401611682565b50505050565b604080516001600160a01b038416602482015260448082018490528251808303909101815260649091019091526020810180516001600160e01b031663095ea7b360e01b17905261176e848261181f565b611717576040516001600160a01b0384811660248301525f60448301526117a291869182169063095ea7b390606401611682565b61171784826117b3565b80825d5050565b5f5f60205f8451602086015f885af1806117d2576040513d5f823e3d81fd5b50505f513d915081156117e95780600114156117f6565b6001600160a01b0384163b155b1561171757604051635274afe760e01b81526001600160a01b0385166004820152602401610568565b5f5f5f5f60205f8651602088015f8a5af192503d91505f51905082801561185e57508115611850578060011461185e565b5f866001600160a01b03163b115b9695505050505050565b5f81518084528060208401602086015e5f602082860101526020601f19601f83011685010191505092915050565b602081525f6118a86020830184611868565b9392505050565b5f5f83601f8401126118bf575f5ffd5b50813567ffffffffffffffff8111156118d6575f5ffd5b6020830191508360208285010111156114a2575f5ffd5b5f5f5f604084860312156118ff575f5ffd5b83359250602084013567ffffffffffffffff81111561191c575f5ffd5b611928868287016118af565b9497909650939450505050565b5f60208284031215611945575f5ffd5b5035919050565b6001600160a01b0381168114611960575f5ffd5b50565b5f5f60408385031215611974575f5ffd5b823560038110611982575f5ffd5b915060208301356119928161194c565b809150509250929050565b634e487b7160e01b5f52604160045260245ffd5b604051601f8201601f1916810167ffffffffffffffff811182821017156119da576119da61199d565b604052919050565b5f602082840312156119f2575f5ffd5b813567ffffffffffffffff811115611a08575f5ffd5b8201601f81018413611a18575f5ffd5b803567ffffffffffffffff811115611a3257611a3261199d565b8060051b611a42602082016119b1565b91825260208184018101929081019087841115611a5d575f5ffd5b6020850194505b83851015611a8b5784359250611a798361194c565b82825260209485019490910190611a64565b979650505050505050565b604080825283519082018190525f9060208501906060840190835b81811015611ad85783516001600160a01b0316835260209384019390920191600101611ab1565b5050838103602080860191909152855180835291810192508501905f5b81811015611b13578251845260209384019390920191600101611af5565b50919695505050505050565b6001600160a01b038a81168252898116602083015288166040820152606081018790526080810186905260a0810185905261012060c082018190525f90611b6890830186611868565b93151560e0830152506101000152979650505050505050565b5f5f5f5f5f5f60808789031215611b96575f5ffd5b863595506020870135611ba88161194c565b9450604087013567ffffffffffffffff811115611bc3575f5ffd5b611bcf89828a016118af565b909550935050606087013567ffffffffffffffff811115611bee575f5ffd5b611bfa89828a016118af565b979a9699509497509295939492505050565b60208152611c266020820183516001600160a01b03169052565b5f6020830151611c4160408401826001600160a01b03169052565b5060408301516001600160a01b03811660608401525060608301516080830152608083015160a083015260a083015160c083015260c083015161012060e0840152611c90610140840182611868565b905060e0840151611ca661010085018215159052565b506101008401516101208401528091505092915050565b5f5f60208385031215611cce575f5ffd5b823567ffffffffffffffff811115611ce4575f5ffd5b611cf0858286016118af565b90969095509350505050565b5f60208284031215611d0c575f5ffd5b5051919050565b600181811c90821680611d2757607f821691505b602082108103611d4557634e487b7160e01b5f52602260045260245ffd5b50919050565b5f60208284031215611d5b575f5ffd5b81516118a88161194c565b5f60208284031215611d76575f5ffd5b815180151581146118a8575f5ffd5b5f60038410611da257634e487b7160e01b5f52602160045260245ffd5b5060f89290921b825260601b6bffffffffffffffffffffffff1916600182015260150190565b5f60a0828403128015611dd9575f5ffd5b5060405160a0810167ffffffffffffffff81118282101715611dfd57611dfd61199d565b6040528251611e0b8161194c565b81526020838101519082015260408084015190820152606080840151908201526080830151611e398161194c565b60808201529392505050565b828152604060208201525f611e5d6040830184611868565b949350505050565b634e487b7160e01b5f52603260045260245ffd5b81515f90829060208501835b82811015611ea3578151845260209384019390910190600101611e85565b509195945050505050565b81515f90829060208501835b82811015611ea35781516001600160a01b0316845260209384019390910190600101611eba565b83815260406020820152816040820152818360608301375f818301606090810191909152601f909201601f191601019291505056fea264697066735822122034287c2bd9e4093ba106511801bda85fcd339fa01e5d164d2f976e032e57c78164736f6c634300081c0033","linkReferences":{}},"methodIdentifiers":{"board(uint256,bytes)":"2db6d399","commander()":"37270936","config()":"79502c55","configurationManager()":"c9c667e3","depositCap()":"dbd5edc7","disembark(uint256,bytes)":"13c408f8","generateRole(uint8,address)":"69b3054b","getConfig()":"c3f909d4","harborCommand()":"5b0f83f3","harvest(bytes)":"ce5c7f61","maxDepositPercentageOfTVL()":"bdcdd882","maxRebalanceInflow()":"ad5a356f","maxRebalanceOutflow()":"3194549e","move(uint256,address,bytes,bytes)":"c38a6f0b","name()":"06fdde03","raft()":"117d8ae0","registerFleetCommander()":"8a8b9976","requiresKeeperData()":"303dbaf3","setDepositCap(uint256)":"86651203","setMaxDepositPercentageOfTVL(uint256)":"4fc7fac3","setMaxRebalanceInflow(uint256)":"92f5e832","setMaxRebalanceOutflow(uint256)":"61f5cd8b","sweep(address[])":"780469bb","tipJar()":"7aaceb95","token()":"fc0c546a","totalAssets()":"01e1d114","treasury()":"61d027b3","unregisterFleetCommander()":"ebf31131"},"id":200}