{"abi":[{"type":"constructor","inputs":[{"name":"_params","type":"tuple","internalType":"struct ArkParams","components":[{"name":"accessManager","type":"address","internalType":"address"},{"name":"configurationManager","type":"address","internalType":"address"},{"name":"token","type":"address","internalType":"address"},{"name":"maxAllocation","type":"uint256","internalType":"uint256"}]}],"stateMutability":"nonpayable"},{"type":"function","name":"DEFAULT_ADMIN_ROLE","inputs":[],"outputs":[{"name":"","type":"bytes32","internalType":"bytes32"}],"stateMutability":"view"},{"type":"function","name":"board","inputs":[{"name":"amount","type":"uint256","internalType":"uint256"}],"outputs":[],"stateMutability":"nonpayable"},{"type":"function","name":"commander","inputs":[],"outputs":[{"name":"","type":"address","internalType":"address"}],"stateMutability":"view"},{"type":"function","name":"disembark","inputs":[{"name":"amount","type":"uint256","internalType":"uint256"}],"outputs":[],"stateMutability":"nonpayable"},{"type":"function","name":"getRoleAdmin","inputs":[{"name":"role","type":"bytes32","internalType":"bytes32"}],"outputs":[{"name":"","type":"bytes32","internalType":"bytes32"}],"stateMutability":"view"},{"type":"function","name":"grantCommanderRole","inputs":[{"name":"account","type":"address","internalType":"address"}],"outputs":[],"stateMutability":"nonpayable"},{"type":"function","name":"grantRole","inputs":[{"name":"","type":"bytes32","internalType":"bytes32"},{"name":"","type":"address","internalType":"address"}],"outputs":[],"stateMutability":"view"},{"type":"function","name":"harvest","inputs":[{"name":"rewardToken","type":"address","internalType":"address"},{"name":"additionalData","type":"bytes","internalType":"bytes"}],"outputs":[{"name":"","type":"uint256","internalType":"uint256"}],"stateMutability":"nonpayable"},{"type":"function","name":"hasRole","inputs":[{"name":"role","type":"bytes32","internalType":"bytes32"},{"name":"account","type":"address","internalType":"address"}],"outputs":[{"name":"","type":"bool","internalType":"bool"}],"stateMutability":"view"},{"type":"function","name":"manager","inputs":[],"outputs":[{"name":"","type":"address","internalType":"contract IConfigurationManager"}],"stateMutability":"view"},{"type":"function","name":"maxAllocation","inputs":[],"outputs":[{"name":"","type":"uint256","internalType":"uint256"}],"stateMutability":"view"},{"type":"function","name":"move","inputs":[{"name":"amount","type":"uint256","internalType":"uint256"},{"name":"receiverArk","type":"address","internalType":"address"}],"outputs":[],"stateMutability":"nonpayable"},{"type":"function","name":"poke","inputs":[],"outputs":[],"stateMutability":"nonpayable"},{"type":"function","name":"raft","inputs":[],"outputs":[{"name":"","type":"address","internalType":"address"}],"stateMutability":"view"},{"type":"function","name":"rate","inputs":[],"outputs":[{"name":"","type":"uint256","internalType":"uint256"}],"stateMutability":"pure"},{"type":"function","name":"renounceRole","inputs":[{"name":"role","type":"bytes32","internalType":"bytes32"},{"name":"callerConfirmation","type":"address","internalType":"address"}],"outputs":[],"stateMutability":"nonpayable"},{"type":"function","name":"revokeCommanderRole","inputs":[{"name":"account","type":"address","internalType":"address"}],"outputs":[],"stateMutability":"nonpayable"},{"type":"function","name":"revokeRole","inputs":[{"name":"","type":"bytes32","internalType":"bytes32"},{"name":"","type":"address","internalType":"address"}],"outputs":[],"stateMutability":"view"},{"type":"function","name":"setMaxAllocation","inputs":[{"name":"newMaxAllocation","type":"uint256","internalType":"uint256"}],"outputs":[],"stateMutability":"nonpayable"},{"type":"function","name":"supportsInterface","inputs":[{"name":"interfaceId","type":"bytes4","internalType":"bytes4"}],"outputs":[{"name":"","type":"bool","internalType":"bool"}],"stateMutability":"view"},{"type":"function","name":"token","inputs":[],"outputs":[{"name":"","type":"address","internalType":"contract IERC20"}],"stateMutability":"view"},{"type":"function","name":"totalAssets","inputs":[],"outputs":[{"name":"","type":"uint256","internalType":"uint256"}],"stateMutability":"view"},{"type":"event","name":"ArkPoked","inputs":[{"name":"currentPrice","type":"uint256","indexed":false,"internalType":"uint256"},{"name":"timestamp","type":"uint256","indexed":false,"internalType":"uint256"}],"anonymous":false},{"type":"event","name":"ArkPokedNoChange","inputs":[],"anonymous":false},{"type":"event","name":"ArkPokedTooSoon","inputs":[],"anonymous":false},{"type":"event","name":"Boarded","inputs":[{"name":"commander","type":"address","indexed":true,"internalType":"address"},{"name":"token","type":"address","indexed":false,"internalType":"address"},{"name":"amount","type":"uint256","indexed":false,"internalType":"uint256"}],"anonymous":false},{"type":"event","name":"DepositCapUpdated","inputs":[{"name":"newCap","type":"uint256","indexed":false,"internalType":"uint256"}],"anonymous":false},{"type":"event","name":"Disembarked","inputs":[{"name":"commander","type":"address","indexed":true,"internalType":"address"},{"name":"token","type":"address","indexed":false,"internalType":"address"},{"name":"amount","type":"uint256","indexed":false,"internalType":"uint256"}],"anonymous":false},{"type":"event","name":"Harvested","inputs":[{"name":"amount","type":"uint256","indexed":false,"internalType":"uint256"}],"anonymous":false},{"type":"event","name":"MaxAllocationUpdated","inputs":[{"name":"newMaxAllocation","type":"uint256","indexed":false,"internalType":"uint256"}],"anonymous":false},{"type":"event","name":"Moved","inputs":[{"name":"from","type":"address","indexed":true,"internalType":"address"},{"name":"to","type":"address","indexed":true,"internalType":"address"},{"name":"token","type":"address","indexed":false,"internalType":"address"},{"name":"amount","type":"uint256","indexed":false,"internalType":"uint256"}],"anonymous":false},{"type":"event","name":"RaftUpdated","inputs":[{"name":"newRaft","type":"address","indexed":false,"internalType":"address"}],"anonymous":false},{"type":"event","name":"RoleAdminChanged","inputs":[{"name":"role","type":"bytes32","indexed":true,"internalType":"bytes32"},{"name":"previousAdminRole","type":"bytes32","indexed":true,"internalType":"bytes32"},{"name":"newAdminRole","type":"bytes32","indexed":true,"internalType":"bytes32"}],"anonymous":false},{"type":"event","name":"RoleGranted","inputs":[{"name":"role","type":"bytes32","indexed":true,"internalType":"bytes32"},{"name":"account","type":"address","indexed":true,"internalType":"address"},{"name":"sender","type":"address","indexed":true,"internalType":"address"}],"anonymous":false},{"type":"event","name":"RoleRevoked","inputs":[{"name":"role","type":"bytes32","indexed":true,"internalType":"bytes32"},{"name":"account","type":"address","indexed":true,"internalType":"address"},{"name":"sender","type":"address","indexed":true,"internalType":"address"}],"anonymous":false},{"type":"error","name":"AccessControlBadConfirmation","inputs":[]},{"type":"error","name":"AccessControlUnauthorizedAccount","inputs":[{"name":"account","type":"address","internalType":"address"},{"name":"neededRole","type":"bytes32","internalType":"bytes32"}]},{"type":"error","name":"AddressEmptyCode","inputs":[{"name":"target","type":"address","internalType":"address"}]},{"type":"error","name":"AddressInsufficientBalance","inputs":[{"name":"account","type":"address","internalType":"address"}]},{"type":"error","name":"CallerIsNotAuthorizedToBoard","inputs":[{"name":"caller","type":"address","internalType":"address"}]},{"type":"error","name":"CallerIsNotCommander","inputs":[{"name":"caller","type":"address","internalType":"address"}]},{"type":"error","name":"CallerIsNotGovernor","inputs":[{"name":"caller","type":"address","internalType":"address"}]},{"type":"error","name":"CannotAddCommanderToArkWithCommander","inputs":[]},{"type":"error","name":"CannotRemoveCommanderFromArkWithAssets","inputs":[]},{"type":"error","name":"DirectGrantIsDisabled","inputs":[{"name":"caller","type":"address","internalType":"address"}]},{"type":"error","name":"DirectRevokeIsDisabled","inputs":[{"name":"caller","type":"address","internalType":"address"}]},{"type":"error","name":"FailedInnerCall","inputs":[]},{"type":"error","name":"InvalidAccessManagerAddress","inputs":[{"name":"invalidAddress","type":"address","internalType":"address"}]},{"type":"error","name":"InvalidVaultAddress","inputs":[]},{"type":"error","name":"SafeERC20FailedOperation","inputs":[{"name":"token","type":"address","internalType":"address"}]}],"bytecode":{"object":"0x608060405234801561000f575f80fd5b506040516114fb3803806114fb83398101604081905261002e916101e0565b80518190806001600160a01b038116610061576040516347bd7c1d60e01b81525f60048201526024015b60405180910390fd5b6040516301ffc9a760e01b815263f87138b560e01b60048201526001600160a01b038216906301ffc9a790602401602060405180830381865afa1580156100aa573d5f803e3d5ffd5b505050506040513d601f19601f820116820180604052508101906100ce9190610263565b6100f6576040516347bd7c1d60e01b81526001600160a01b0382166004820152602401610058565b5f80546001600160a01b03199081166001600160a01b03938416178255602085810151600680549093169416938417909155606085015160035560408051628bec5760e51b8152905193945063117d8ae093600480830194919283900301908290875af1158015610169573d5f803e3d5ffd5b505050506040513d601f19601f8201168201806040525081019061018d9190610289565b600280546001600160a01b03199081166001600160a01b039384161790915560409290920151600480549093169116179055506102a2565b80516001600160a01b03811681146101db575f80fd5b919050565b5f60808284031280156101f1575f80fd5b50604051608081016001600160401b038111828210171561022057634e487b7160e01b5f52604160045260245ffd5b60405261022c836101c5565b815261023a602084016101c5565b602082015261024b604084016101c5565b60408201526060928301519281019290925250919050565b5f60208284031215610273575f80fd5b81518015158114610282575f80fd5b9392505050565b5f60208284031215610299575f80fd5b610282826101c5565b61124c806102af5f395ff3fe608060405234801561000f575f80fd5b506004361061013d575f3560e01c80634dd47eba116100b45780639403e41f116100795780639403e41f146102935780639b3ba79f146102a6578063a217fddf146102af578063d547741f146102b6578063d8a8e03a146102c9578063fc0c546a146102dc575f80fd5b80634dd47eba1461023457806372f12344146102475780637399bfe81461025a57806381d3ce261461026d57806391d1485414610280575f80fd5b806328ed6e3f1161010557806328ed6e3f146101cf5780632c4e722e146101e25780632f2ff15d146101e857806336568abe146101fb578063372709361461020e578063481c6a7514610221575f80fd5b806301e1d1141461014157806301ffc9a71461015c578063117d8ae01461017f57806318178358146101aa578063248a9ca3146101ac575b5f80fd5b6101496102ef565b6040519081526020015b60405180910390f35b61016f61016a366004611094565b610363565b6040519015158152602001610153565b600254610192906001600160a01b031681565b6040516001600160a01b039091168152602001610153565b005b6101496101ba3660046110bb565b5f908152600160208190526040909120015490565b6101aa6101dd3660046110bb565b610399565b5f610149565b6101aa6101f63660046110e6565b610533565b6101aa6102093660046110e6565b61054e565b600554610192906001600160a01b031681565b600654610192906001600160a01b031681565b6101aa6102423660046110bb565b610586565b6101aa6102553660046110bb565b610614565b610149610268366004611114565b610676565b6101aa61027b366004611194565b6106fc565b61016f61028e3660046110e6565b610871565b6101aa6102a1366004611194565b61089b565b61014960035481565b6101495f81565b6101aa6102c43660046110e6565b610a0c565b6101aa6102d73660046110e6565b610a27565b600454610192906001600160a01b031681565b600480546040516370a0823160e01b815230928101929092525f916001600160a01b03909116906370a0823190602401602060405180830381865afa15801561033a573d5f803e3d5ffd5b505050506040513d601f19601f8201168201806040525081019061035e91906111af565b905090565b5f6001600160e01b03198216637965db0b60e01b148061039357506301ffc9a760e01b6001600160e01b03198316145b92915050565b6005546001600160a01b03166103ad610b6a565b6104ca575f3390505f306001600160a01b031663117d8ae06040518163ffffffff1660e01b8152600401602060405180830381865afa1580156103f2573d5f803e3d5ffd5b505050506040513d601f19601f8201168201806040525081019061041691906111c6565b60405163d25dd10160e01b81526001600160a01b038481166004830181905292811690921492505f9185169063d25dd10190602401602060405180830381865afa158015610466573d5f803e3d5ffd5b505050506040513d601f19601f8201168201806040525081019061048a91906111e1565b905080158015610498575081155b156104c657604051638f7a567d60e01b81526001600160a01b03841660048201526024015b60405180910390fd5b5050505b60045433906104e4906001600160a01b0316823086610bdd565b600454604080516001600160a01b03928316815260208101869052918316917fcbaa1442ac205415c9d69643e7b60ec73d1de35dbc807c21ec288c70ddc4207b910160405180910390a2505050565b604051630e15200f60e21b81523360048201526024016104bd565b6001600160a01b03811633146105775760405163334bd91960e11b815260040160405180910390fd5b6105818282610c4a565b505050565b61058e610b6a565b6105ad57604051631564c0e160e11b81523360048201526024016104bd565b60045433906105c6906001600160a01b03168284610cbc565b600454604080516001600160a01b03928316815260208101859052918316917fd5e872c5ecfb1bb8820b2e6a20e31b883682282da886621541f71e31ec11947e910160405180910390a25050565b61061c610b6a565b61063b57604051631564c0e160e11b81523360048201526024016104bd565b60038190556040518181527ff71dfae69e41913414884e69a96ee28ef3f1ce5593bee0fb570cf9404e41a8089060200160405180910390a150565b5f6106f260065f9054906101000a90046001600160a01b03166001600160a01b031663117d8ae06040518163ffffffff1660e01b81526004016020604051808303815f875af11580156106cb573d5f803e3d5ffd5b505050506040513d601f19601f820116820180604052508101906106ef91906111c6565b50565b505f5b9392505050565b5f5460408051630ccc574960e41b815290516001600160a01b03909216916391d1485491839163ccc57490916004808201926020929091908290030181865afa15801561074b573d5f803e3d5ffd5b505050506040513d601f19601f8201168201806040525081019061076f91906111af565b6040516001600160e01b031960e084901b1681526004810191909152336024820152604401602060405180830381865afa1580156107af573d5f803e3d5ffd5b505050506040513d601f19601f820116820180604052508101906107d391906111e1565b6107f257604051630ea7d7ed60e21b81523360048201526024016104bd565b6107fb81610ced565b5f54604080516345b817bb60e01b8152905161086d926001600160a01b0316916345b817bb9160048083019260209291908290030181865afa158015610843573d5f803e3d5ffd5b505050506040513d601f19601f8201168201806040525081019061086791906111af565b82610c4a565b5050565b5f9182526001602090815260408084206001600160a01b0393909316845291905290205460ff1690565b5f5460408051630ccc574960e41b815290516001600160a01b03909216916391d1485491839163ccc57490916004808201926020929091908290030181865afa1580156108ea573d5f803e3d5ffd5b505050506040513d601f19601f8201168201806040525081019061090e91906111af565b6040516001600160e01b031960e084901b1681526004810191909152336024820152604401602060405180830381865afa15801561094e573d5f803e3d5ffd5b505050506040513d601f19601f8201168201806040525081019061097291906111e1565b61099157604051630ea7d7ed60e21b81523360048201526024016104bd565b61099a81610d80565b5f54604080516345b817bb60e01b8152905161086d926001600160a01b0316916345b817bb9160048083019260209291908290030181865afa1580156109e2573d5f803e3d5ffd5b505050506040513d601f19601f82011682018060405250810190610a0691906111af565b82610ec2565b604051636344978560e11b81523360048201526024016104bd565b610a2f610b6a565b610a4e57604051631564c0e160e11b81523360048201526024016104bd565b6004805460405163095ea7b360e01b81526001600160a01b03848116938201939093526024810185905291169063095ea7b3906044016020604051808303815f875af1158015610aa0573d5f803e3d5ffd5b505050506040513d601f19601f82011682018060405250810190610ac491906111e1565b506040516328ed6e3f60e01b8152600481018390526001600160a01b038216906328ed6e3f906024015f604051808303815f87803b158015610b04575f80fd5b505af1158015610b16573d5f803e3d5ffd5b5050600454604080516001600160a01b0392831681526020810187905291851693503092507f9f784fc02a186f1c98b2d9f15fda084da27cdd291a3785d978f91911d880516b910160405180910390a35050565b5f8054604080516345b817bb60e01b8152905161035e926001600160a01b0316916345b817bb9160048083019260209291908290030181865afa158015610bb3573d5f803e3d5ffd5b505050506040513d601f19601f82011682018060405250810190610bd791906111af565b33610871565b6040516001600160a01b038481166024830152838116604483015260648201839052610c449186918216906323b872dd906084015b604051602081830303815290604052915060e01b6020820180516001600160e01b038381831617835250505050610f31565b50505050565b5f610c558383610871565b15610cb5575f8381526001602090815260408083206001600160a01b0386168085529252808320805460ff1916905551339286917ff6391f5c32d9c69d2a47ea670b442974b53935d1edc7fd64eb21e047a839171b9190a4506001610393565b505f610393565b6040516001600160a01b0383811660248301526044820183905261058191859182169063a9059cbb90606401610c12565b5f306001600160a01b03166301e1d1146040518163ffffffff1660e01b8152600401602060405180830381865afa158015610d2a573d5f803e3d5ffd5b505050506040513d601f19601f82011682018060405250810190610d4e91906111af565b1115610d6d576040516373a075f360e01b815260040160405180910390fd5b50600580546001600160a01b0319169055565b5f5460408051630ccc574960e41b815290516001600160a01b03909216916391d1485491839163ccc57490916004808201926020929091908290030181865afa158015610dcf573d5f803e3d5ffd5b505050506040513d601f19601f82011682018060405250810190610df391906111af565b6040516001600160e01b031960e084901b1681526004810191909152336024820152604401602060405180830381865afa158015610e33573d5f803e3d5ffd5b505050506040513d601f19601f82011682018060405250810190610e5791906111e1565b610e7657604051630ea7d7ed60e21b81523360048201526024016104bd565b6005546001600160a01b031615610ea05760405163d32184ed60e01b815260040160405180910390fd5b600580546001600160a01b0319166001600160a01b0392909216919091179055565b5f610ecd8383610871565b610cb5575f8381526001602081815260408084206001600160a01b0387168086529252808420805460ff19169093179092559051339286917f2f8788117e7eff1d82e926ec794901d17c78024a50270940304540a733656f0d9190a4506001610393565b5f610f456001600160a01b03841683610f92565b905080515f14158015610f69575080806020019051810190610f6791906111e1565b155b1561058157604051635274afe760e01b81526001600160a01b03841660048201526024016104bd565b60606106f583835f845f80856001600160a01b03168486604051610fb69190611200565b5f6040518083038185875af1925050503d805f8114610ff0576040519150601f19603f3d011682016040523d82523d5f602084013e610ff5565b606091505b509150915061100586838361100f565b9695505050505050565b6060826110245761101f8261106b565b6106f5565b815115801561103b57506001600160a01b0384163b155b1561106457604051639996b31560e01b81526001600160a01b03851660048201526024016104bd565b50806106f5565b80511561107b5780518082602001fd5b604051630a12f52160e11b815260040160405180910390fd5b5f602082840312156110a4575f80fd5b81356001600160e01b0319811681146106f5575f80fd5b5f602082840312156110cb575f80fd5b5035919050565b6001600160a01b03811681146106ef575f80fd5b5f80604083850312156110f7575f80fd5b823591506020830135611109816110d2565b809150509250929050565b5f805f60408486031215611126575f80fd5b8335611131816110d2565b9250602084013567ffffffffffffffff81111561114c575f80fd5b8401601f8101861361115c575f80fd5b803567ffffffffffffffff811115611172575f80fd5b866020828401011115611183575f80fd5b939660209190910195509293505050565b5f602082840312156111a4575f80fd5b81356106f5816110d2565b5f602082840312156111bf575f80fd5b5051919050565b5f602082840312156111d6575f80fd5b81516106f5816110d2565b5f602082840312156111f1575f80fd5b815180151581146106f5575f80fd5b5f82518060208501845e5f92019182525091905056fea264697066735822122013ae984a9632c9cd86e02c04dbdc1ceb21305ebdbe60f7feb46eb41c328ed06c64736f6c634300081a0033","linkReferences":{}},"methodIdentifiers":{"DEFAULT_ADMIN_ROLE()":"a217fddf","board(uint256)":"28ed6e3f","commander()":"37270936","disembark(uint256)":"4dd47eba","getRoleAdmin(bytes32)":"248a9ca3","grantCommanderRole(address)":"9403e41f","grantRole(bytes32,address)":"2f2ff15d","harvest(address,bytes)":"7399bfe8","hasRole(bytes32,address)":"91d14854","manager()":"481c6a75","maxAllocation()":"9b3ba79f","move(uint256,address)":"d8a8e03a","poke()":"18178358","raft()":"117d8ae0","rate()":"2c4e722e","renounceRole(bytes32,address)":"36568abe","revokeCommanderRole(address)":"81d3ce26","revokeRole(bytes32,address)":"d547741f","setMaxAllocation(uint256)":"72f12344","supportsInterface(bytes4)":"01ffc9a7","token()":"fc0c546a","totalAssets()":"01e1d114"},"id":69}