{"abi":[{"type":"function","name":"testSkipper","inputs":[],"outputs":[],"stateMutability":"nonpayable"}],"bytecode":{"object":"0x6080604052348015600e575f5ffd5b50606280601a5f395ff3fe6080604052348015600e575f5ffd5b50600436106026575f3560e01c80635a77606b14602a575b5f5ffd5b00fea26469706673582212205b7a36c59c127e450550c46ba0a4cf4ed0459984b9b66f6f3f181048fcecf4a064736f6c634300081c0033","linkReferences":{}},"deployedBytecode":{"object":"0x6080604052348015600e575f5ffd5b50600436106026575f3560e01c80635a77606b14602a575b5f5ffd5b00fea26469706673582212205b7a36c59c127e450550c46ba0a4cf4ed0459984b9b66f6f3f181048fcecf4a064736f6c634300081c0033","linkReferences":{}},"methodIdentifiers":{"testSkipper()":"5a77606b"},"id":313}