{"abi":[{"type":"function","name":"testSkipper","inputs":[],"outputs":[],"stateMutability":"nonpayable"}],"bytecode":{"object":"0x6080604052348015600e575f5ffd5b50606280601a5f395ff3fe6080604052348015600e575f5ffd5b50600436106026575f3560e01c80635a77606b14602a575b5f5ffd5b00fea26469706673582212207e94751c64b129d01cfe19c963f5249290e68c0ced235ed5ad6fa31a862e832364736f6c634300081b0033","linkReferences":{}},"deployedBytecode":{"object":"0x6080604052348015600e575f5ffd5b50600436106026575f3560e01c80635a77606b14602a575b5f5ffd5b00fea26469706673582212207e94751c64b129d01cfe19c963f5249290e68c0ced235ed5ad6fa31a862e832364736f6c634300081b0033","linkReferences":{}},"methodIdentifiers":{"testSkipper()":"5a77606b"},"id":276}