{"abi":[{"type":"function","name":"testSkipper","inputs":[],"outputs":[],"stateMutability":"nonpayable"}],"bytecode":{"object":"0x6080604052348015600e575f5ffd5b50606280601a5f395ff3fe6080604052348015600e575f5ffd5b50600436106026575f3560e01c80635a77606b14602a575b5f5ffd5b00fea2646970667358221220fd569aad0214bdc89050b96fd2fdb7c5d728d00c7e382469a1646f7c5539055464736f6c634300081c0033","linkReferences":{}},"deployedBytecode":{"object":"0x6080604052348015600e575f5ffd5b50600436106026575f3560e01c80635a77606b14602a575b5f5ffd5b00fea2646970667358221220fd569aad0214bdc89050b96fd2fdb7c5d728d00c7e382469a1646f7c5539055464736f6c634300081c0033","linkReferences":{}},"methodIdentifiers":{"testSkipper()":"5a77606b"},"id":316}