{"abi":[{"type":"function","name":"MAX_UINT256","inputs":[],"outputs":[{"name":"","type":"uint256","internalType":"uint256"}],"stateMutability":"view"},{"type":"function","name":"RAY","inputs":[],"outputs":[{"name":"","type":"uint256","internalType":"uint256"}],"stateMutability":"view"},{"type":"function","name":"SECONDS_PER_DAY","inputs":[],"outputs":[{"name":"","type":"uint256","internalType":"uint256"}],"stateMutability":"view"},{"type":"function","name":"SECONDS_PER_YEAR","inputs":[],"outputs":[{"name":"","type":"uint256","internalType":"uint256"}],"stateMutability":"view"},{"type":"function","name":"WAD","inputs":[],"outputs":[{"name":"","type":"uint256","internalType":"uint256"}],"stateMutability":"view"},{"type":"function","name":"WAD_TO_RAY","inputs":[],"outputs":[{"name":"","type":"uint256","internalType":"uint256"}],"stateMutability":"view"}],"bytecode":{"object":"0x6080604052348015600e575f80fd5b5060e88061001b5f395ff3fe6080604052348015600e575f80fd5b50600436106058575f3560e01c8063163c838114605c57806333a581d2146078578063552033c414607f5780636a14602414609157806374f0314f14609f578063e6a69ab81460a8575b5f80fd5b6066633b9aca0081565b60405190815260200160405180910390f35b60665f1981565b60666b033b2e3c9fd0803ce800000081565b6066670de0b6b3a764000081565b60666201518081565b60666301e133808156fea2646970667358221220587515db115269977832a3902087da107dc2a83f4419ab4dd4ef0519199a7dc664736f6c634300081a0033","linkReferences":{}},"methodIdentifiers":{"MAX_UINT256()":"33a581d2","RAY()":"552033c4","SECONDS_PER_DAY()":"74f0314f","SECONDS_PER_YEAR()":"e6a69ab8","WAD()":"6a146024","WAD_TO_RAY()":"163c8381"},"id":200}