{"abi":[{"type":"function","name":"MAX_UINT256","inputs":[],"outputs":[{"name":"","type":"uint256","internalType":"uint256"}],"stateMutability":"view"},{"type":"function","name":"RAY","inputs":[],"outputs":[{"name":"","type":"uint256","internalType":"uint256"}],"stateMutability":"view"},{"type":"function","name":"SECONDS_PER_DAY","inputs":[],"outputs":[{"name":"","type":"uint256","internalType":"uint256"}],"stateMutability":"view"},{"type":"function","name":"SECONDS_PER_YEAR","inputs":[],"outputs":[{"name":"","type":"uint256","internalType":"uint256"}],"stateMutability":"view"},{"type":"function","name":"WAD","inputs":[],"outputs":[{"name":"","type":"uint256","internalType":"uint256"}],"stateMutability":"view"},{"type":"function","name":"WAD_TO_RAY","inputs":[],"outputs":[{"name":"","type":"uint256","internalType":"uint256"}],"stateMutability":"view"}],"bytecode":{"object":"0x60f4610033600b8282823980515f1a607314602757634e487b7160e01b5f525f60045260245ffd5b305f52607381538281f3fe73000000000000000000000000000000000000000030146080604052600436106064575f3560e01c8063163c838114606857806333a581d2146084578063552033c414608b5780636a14602414609d57806374f0314f1460ab578063e6a69ab81460b4575b5f5ffd5b6072633b9aca0081565b60405190815260200160405180910390f35b60725f1981565b60726b033b2e3c9fd0803ce800000081565b6072670de0b6b3a764000081565b60726201518081565b60726301e133808156fea264697066735822122061dacb3a27cd7f55e13395517c16fddf7895384a0a07edf3b26ffdd13425e66964736f6c634300081b0033","linkReferences":{}},"methodIdentifiers":{"MAX_UINT256()":"33a581d2","RAY()":"552033c4","SECONDS_PER_DAY()":"74f0314f","SECONDS_PER_YEAR()":"e6a69ab8","WAD()":"6a146024","WAD_TO_RAY()":"163c8381"},"id":175}