{"abi":[{"type":"constructor","inputs":[{"name":"governor","type":"address","internalType":"address"}],"stateMutability":"nonpayable"},{"type":"function","name":"DEFAULT_ADMIN_ROLE","inputs":[],"outputs":[{"name":"","type":"bytes32","internalType":"bytes32"}],"stateMutability":"view"},{"type":"function","name":"GOVERNOR_ROLE","inputs":[],"outputs":[{"name":"","type":"bytes32","internalType":"bytes32"}],"stateMutability":"view"},{"type":"function","name":"KEEPER_ROLE","inputs":[],"outputs":[{"name":"","type":"bytes32","internalType":"bytes32"}],"stateMutability":"view"},{"type":"function","name":"getRoleAdmin","inputs":[{"name":"role","type":"bytes32","internalType":"bytes32"}],"outputs":[{"name":"","type":"bytes32","internalType":"bytes32"}],"stateMutability":"view"},{"type":"function","name":"grantAdminRole","inputs":[{"name":"account","type":"address","internalType":"address"}],"outputs":[],"stateMutability":"nonpayable"},{"type":"function","name":"grantGovernorRole","inputs":[{"name":"account","type":"address","internalType":"address"}],"outputs":[],"stateMutability":"nonpayable"},{"type":"function","name":"grantKeeperRole","inputs":[{"name":"account","type":"address","internalType":"address"}],"outputs":[],"stateMutability":"nonpayable"},{"type":"function","name":"grantRole","inputs":[{"name":"role","type":"bytes32","internalType":"bytes32"},{"name":"account","type":"address","internalType":"address"}],"outputs":[],"stateMutability":"nonpayable"},{"type":"function","name":"hasRole","inputs":[{"name":"role","type":"bytes32","internalType":"bytes32"},{"name":"account","type":"address","internalType":"address"}],"outputs":[{"name":"","type":"bool","internalType":"bool"}],"stateMutability":"view"},{"type":"function","name":"renounceRole","inputs":[{"name":"role","type":"bytes32","internalType":"bytes32"},{"name":"callerConfirmation","type":"address","internalType":"address"}],"outputs":[],"stateMutability":"nonpayable"},{"type":"function","name":"revokeAdminRole","inputs":[{"name":"account","type":"address","internalType":"address"}],"outputs":[],"stateMutability":"nonpayable"},{"type":"function","name":"revokeGovernorRole","inputs":[{"name":"account","type":"address","internalType":"address"}],"outputs":[],"stateMutability":"nonpayable"},{"type":"function","name":"revokeKeeperRole","inputs":[{"name":"account","type":"address","internalType":"address"}],"outputs":[],"stateMutability":"nonpayable"},{"type":"function","name":"revokeRole","inputs":[{"name":"role","type":"bytes32","internalType":"bytes32"},{"name":"account","type":"address","internalType":"address"}],"outputs":[],"stateMutability":"nonpayable"},{"type":"function","name":"supportsInterface","inputs":[{"name":"interfaceId","type":"bytes4","internalType":"bytes4"}],"outputs":[{"name":"","type":"bool","internalType":"bool"}],"stateMutability":"view"},{"type":"event","name":"RoleAdminChanged","inputs":[{"name":"role","type":"bytes32","indexed":true,"internalType":"bytes32"},{"name":"previousAdminRole","type":"bytes32","indexed":true,"internalType":"bytes32"},{"name":"newAdminRole","type":"bytes32","indexed":true,"internalType":"bytes32"}],"anonymous":false},{"type":"event","name":"RoleGranted","inputs":[{"name":"role","type":"bytes32","indexed":true,"internalType":"bytes32"},{"name":"account","type":"address","indexed":true,"internalType":"address"},{"name":"sender","type":"address","indexed":true,"internalType":"address"}],"anonymous":false},{"type":"event","name":"RoleRevoked","inputs":[{"name":"role","type":"bytes32","indexed":true,"internalType":"bytes32"},{"name":"account","type":"address","indexed":true,"internalType":"address"},{"name":"sender","type":"address","indexed":true,"internalType":"address"}],"anonymous":false},{"type":"error","name":"AccessControlBadConfirmation","inputs":[]},{"type":"error","name":"AccessControlUnauthorizedAccount","inputs":[{"name":"account","type":"address","internalType":"address"},{"name":"neededRole","type":"bytes32","internalType":"bytes32"}]},{"type":"error","name":"CallerIsNotAdmin","inputs":[{"name":"caller","type":"address","internalType":"address"}]},{"type":"error","name":"CallerIsNotGovernor","inputs":[{"name":"caller","type":"address","internalType":"address"}]},{"type":"error","name":"CallerIsNotKeeper","inputs":[{"name":"caller","type":"address","internalType":"address"}]},{"type":"error","name":"CallerIsNotRoleAdmin","inputs":[{"name":"caller","type":"address","internalType":"address"}]}],"bytecode":{"object":"0x608060405234801561001057600080fd5b506040516108ff3803806108ff83398101604081905261002f91610118565b61003a60008261006c565b506100657f7935bd0ae54bc31f548c14dba4d37c5c64b3f8ca900cb468fb8abd54d5894f558261006c565b5050610148565b6000828152602081815260408083206001600160a01b038516845290915281205460ff1661010e576000838152602081815260408083206001600160a01b03861684529091529020805460ff191660011790556100c63390565b6001600160a01b0316826001600160a01b0316847f2f8788117e7eff1d82e926ec794901d17c78024a50270940304540a733656f0d60405160405180910390a4506001610112565b5060005b92915050565b60006020828403121561012a57600080fd5b81516001600160a01b038116811461014157600080fd5b9392505050565b6107a8806101576000396000f3fe608060405234801561001057600080fd5b50600436106100f55760003560e01c80639a19c7b011610097578063ccc5749011610066578063ccc5749014610209578063d547741f1461021e578063e4dd1dca14610231578063fb914c391461024457600080fd5b80639a19c7b0146101c8578063a217fddf146101db578063c634b78e146101e3578063cc1f071a146101f657600080fd5b8063364bc15a116100d3578063364bc15a1461016857806336568abe1461018f5780634106d274146101a257806391d14854146101b557600080fd5b806301ffc9a7146100fa578063248a9ca3146101225780632f2ff15d14610153575b600080fd5b61010d6101083660046106a5565b610257565b60405190151581526020015b60405180910390f35b6101456101303660046106d6565b60009081526020819052604090206001015490565b604051908152602001610119565b61016661016136600461070b565b61028e565b005b6101457ffc8737ab85eb45125971625a9ebdb75cc78e01d5c1fa80c4c6e5203f47bc4fab81565b61016661019d36600461070b565b6102b9565b6101666101b0366004610737565b6102f1565b61010d6101c336600461070b565b61036f565b6101666101d6366004610737565b610398565b610145600081565b6101666101f1366004610737565b6103cd565b610166610204366004610737565b610402565b61014560008051602061075383398151915281565b61016661022c36600461070b565b610474565b61016661023f366004610737565b610499565b610166610252366004610737565b6104fd565b60006001600160e01b03198216637965db0b60e01b148061028857506301ffc9a760e01b6001600160e01b03198316145b92915050565b6000828152602081905260409020600101546102a981610561565b6102b3838361056b565b50505050565b6001600160a01b03811633146102e25760405163334bd91960e11b815260040160405180910390fd5b6102ec82826105fd565b505050565b6102fc60003361036f565b158061031d575061031b6000805160206107538339815191523361036f565b155b15610342576040516366ea5d8760e01b81523360048201526024015b60405180910390fd5b61036c7ffc8737ab85eb45125971625a9ebdb75cc78e01d5c1fa80c4c6e5203f47bc4fab8261028e565b50565b6000918252602082815260408084206001600160a01b0393909316845291905290205460ff1690565b6103a360003361036f565b6103c2576040516376660ab760e11b8152336004820152602401610339565b61036c600082610474565b6103d860003361036f565b6103f7576040516376660ab760e11b8152336004820152602401610339565b61036c60008261028e565b61040d60003361036f565b158061042e575061042c6000805160206107538339815191523361036f565b155b1561044e576040516366ea5d8760e01b8152336004820152602401610339565b61036c7ffc8737ab85eb45125971625a9ebdb75cc78e01d5c1fa80c4c6e5203f47bc4fab825b60008281526020819052604090206001015461048f81610561565b6102b383836105fd565b6104a460003361036f565b15806104c557506104c36000805160206107538339815191523361036f565b155b156104e5576040516366ea5d8760e01b8152336004820152602401610339565b61036c6000805160206107538339815191528261028e565b61050860003361036f565b158061052957506105276000805160206107538339815191523361036f565b155b15610549576040516366ea5d8760e01b8152336004820152602401610339565b61036c60008051602061075383398151915282610474565b61036c8133610668565b6000610577838361036f565b6105f5576000838152602081815260408083206001600160a01b03861684529091529020805460ff191660011790556105ad3390565b6001600160a01b0316826001600160a01b0316847f2f8788117e7eff1d82e926ec794901d17c78024a50270940304540a733656f0d60405160405180910390a4506001610288565b506000610288565b6000610609838361036f565b156105f5576000838152602081815260408083206001600160a01b0386168085529252808320805460ff1916905551339286917ff6391f5c32d9c69d2a47ea670b442974b53935d1edc7fd64eb21e047a839171b9190a4506001610288565b610672828261036f565b6106a15760405163e2517d3f60e01b81526001600160a01b038216600482015260248101839052604401610339565b5050565b6000602082840312156106b757600080fd5b81356001600160e01b0319811681146106cf57600080fd5b9392505050565b6000602082840312156106e857600080fd5b5035919050565b80356001600160a01b038116811461070657600080fd5b919050565b6000806040838503121561071e57600080fd5b8235915061072e602084016106ef565b90509250929050565b60006020828403121561074957600080fd5b6106cf826106ef56fe7935bd0ae54bc31f548c14dba4d37c5c64b3f8ca900cb468fb8abd54d5894f55a264697066735822122080f88637c27280f4b4cc9030a9314077fedf99ce2aa283e94cb0a74a1493dbc264736f6c634300081a0033","linkReferences":{}},"methodIdentifiers":{"DEFAULT_ADMIN_ROLE()":"a217fddf","GOVERNOR_ROLE()":"ccc57490","KEEPER_ROLE()":"364bc15a","getRoleAdmin(bytes32)":"248a9ca3","grantAdminRole(address)":"c634b78e","grantGovernorRole(address)":"e4dd1dca","grantKeeperRole(address)":"4106d274","grantRole(bytes32,address)":"2f2ff15d","hasRole(bytes32,address)":"91d14854","renounceRole(bytes32,address)":"36568abe","revokeAdminRole(address)":"9a19c7b0","revokeGovernorRole(address)":"fb914c39","revokeKeeperRole(address)":"cc1f071a","revokeRole(bytes32,address)":"d547741f","supportsInterface(bytes4)":"01ffc9a7"},"id":43}