{"abi":[{"type":"function","name":"decodeUnoswapData","inputs":[{"name":"data","type":"bytes","internalType":"bytes"}],"outputs":[{"name":"token","type":"address","internalType":"address"},{"name":"amount","type":"uint256","internalType":"uint256"},{"name":"minReturn","type":"uint256","internalType":"uint256"},{"name":"dex","type":"address","internalType":"address"},{"name":"protocol","type":"uint8","internalType":"enum OneInchTestHelpers.Protocol"},{"name":"shouldUnwrapWeth","type":"bool","internalType":"bool"},{"name":"shouldWrapWeth","type":"bool","internalType":"bool"},{"name":"usePermit2","type":"bool","internalType":"bool"}],"stateMutability":"pure"},{"type":"function","name":"encodeUnoswapData","inputs":[{"name":"token","type":"address","internalType":"address"},{"name":"amount","type":"uint256","internalType":"uint256"},{"name":"minReturn","type":"uint256","internalType":"uint256"},{"name":"dex","type":"address","internalType":"address"},{"name":"protocol","type":"uint8","internalType":"enum OneInchTestHelpers.Protocol"},{"name":"shouldUnwrapWeth","type":"bool","internalType":"bool"},{"name":"shouldWrapWeth","type":"bool","internalType":"bool"},{"name":"zeroForOne","type":"bool","internalType":"bool"},{"name":"usePermit2","type":"bool","internalType":"bool"}],"outputs":[{"name":"","type":"bytes","internalType":"bytes"}],"stateMutability":"pure"},{"type":"function","name":"testSkip","inputs":[],"outputs":[],"stateMutability":"pure"}],"bytecode":{"object":"0x6080604052348015600e575f5ffd5b506107aa8061001c5f395ff3fe608060405234801561000f575f5ffd5b506004361061003f575f3560e01c80635c35ceec146100435780637cc17ba4146100735780638986ecf814610075575b5f5ffd5b6100566100513660046104cb565b610095565b60405161006a989796959493929190610592565b60405180910390f35b005b610088610083366004610627565b610304565b60405161006a91906106ee565b5f5f5f5f5f5f5f5f5f60208a015190507f83800a8e1b35cbf2a66472f1d14a68cbd34e4e6f01a3dbac1ea48261d0858c596001600160e01b031916816001600160e01b0319161461011f5760405162461bcd60e51b815260206004820152601060248201526f24b73b30b634b21039b2b632b1ba37b960811b604482015260640160405180910390fd5b60248a015160448b015160648c015160848d0151929b5090995097508060fd81901c60028111156101525761015261057e565b6040805180820190915260068152652a37b5b2b71d60d11b60208201526001600160a01b0384169950909750600160fc1b821615159650600160fb1b8216159550600160fa1b8216151594506101a8908c6103bd565b6101d16040518060400160405280600781526020016620b6b7bab73a1d60c91b8152508b610406565b6101fe6040518060400160405280600b81526020016a26b4b7102932ba3ab9371d60a91b8152508a610406565b610224604051806040016040528060048152602001632222ac1d60e11b815250896103bd565b61026060405180604001604052806009815260200168283937ba37b1b7b61d60b91b81525088600281111561025b5761025b61057e565b610406565b6102956040518060400160405280601381526020017229b437bab632102ab73bb930b8102ba2aa241d60691b8152508761044b565b6102c86040518060400160405280601181526020017029b437bab632102bb930b8102ba2aa241d60791b8152508661044b565b6102f66040518060400160405280600c81526020016b2ab9b2902832b936b4ba191d60a11b8152508561044b565b505050919395975091939597565b60606001600160a01b03871660fd8760028111156103245761032461057e565b901b17851561033457600160fc1b175b8461034057600160fb1b175b821561034d57600160fa1b175b831561035a57600160f71b175b604080516001600160a01b039c909c1660248d015260448c019a909a5260648b0198909852505050506084808701949094525050825180850390920182525060a490920190526020810180516001600160e01b03166341c0054760e11b17905290565b61040282826040516024016103d3929190610707565b60408051601f198184030181529190526020810180516001600160e01b031663319af33360e01b17905261048c565b5050565b610402828260405160240161041c929190610730565b60408051601f198184030181529190526020810180516001600160e01b0316632d839cb360e21b17905261048c565b6104028282604051602401610461929190610751565b60408051601f198184030181529190526020810180516001600160e01b031663c3b5563560e01b1790525b61049581610498565b50565b5f6a636f6e736f6c652e6c6f6790505f5f835160208501845afa505050565b634e487b7160e01b5f52604160045260245ffd5b5f602082840312156104db575f5ffd5b813567ffffffffffffffff8111156104f1575f5ffd5b8201601f81018413610501575f5ffd5b803567ffffffffffffffff81111561051b5761051b6104b7565b604051601f8201601f19908116603f0116810167ffffffffffffffff8111828210171561054a5761054a6104b7565b604052818152828201602001861015610561575f5ffd5b816020840160208301375f91810160200191909152949350505050565b634e487b7160e01b5f52602160045260245ffd5b6001600160a01b0389811682526020820189905260408201889052861660608201526101008101600386106105d557634e487b7160e01b5f52602160045260245ffd5b608082019590955292151560a084015290151560c0830152151560e090910152949350505050565b80356001600160a01b0381168114610613575f5ffd5b919050565b80358015158114610613575f5ffd5b5f5f5f5f5f5f5f5f5f6101208a8c031215610640575f5ffd5b6106498a6105fd565b985060208a0135975060408a0135965061066560608b016105fd565b955060808a013560038110610678575f5ffd5b945061068660a08b01610618565b935061069460c08b01610618565b92506106a260e08b01610618565b91506106b16101008b01610618565b90509295985092959850929598565b5f81518084528060208401602086015e5f602082860101526020601f19601f83011685010191505092915050565b602081525f61070060208301846106c0565b9392505050565b604081525f61071960408301856106c0565b905060018060a01b03831660208301529392505050565b604081525f61074260408301856106c0565b90508260208301529392505050565b604081525f61076360408301856106c0565b90508215156020830152939250505056fea2646970667358221220df560719b3c26cbcb7c8a391e467a1e0887949689a9a3682f02945eb80370ba164736f6c634300081b0033","linkReferences":{}},"methodIdentifiers":{"decodeUnoswapData(bytes)":"5c35ceec","encodeUnoswapData(address,uint256,uint256,address,uint8,bool,bool,bool,bool)":"8986ecf8","testSkip()":"7cc17ba4"},"id":278}