{"abi":[{"type":"constructor","inputs":[{"name":"_token","type":"address","internalType":"address"},{"name":"beneficiaryAddress","type":"address","internalType":"address"},{"name":"startTimestamp","type":"uint64","internalType":"uint64"},{"name":"vestingType","type":"uint8","internalType":"enum ISummerVestingWallet.VestingType"},{"name":"_timeBasedVestingAmount","type":"uint256","internalType":"uint256"},{"name":"_goalAmounts","type":"uint256[]","internalType":"uint256[]"},{"name":"guardianAddress","type":"address","internalType":"address"}],"stateMutability":"nonpayable"},{"type":"receive","stateMutability":"payable"},{"type":"function","name":"DEFAULT_ADMIN_ROLE","inputs":[],"outputs":[{"name":"","type":"bytes32","internalType":"bytes32"}],"stateMutability":"view"},{"type":"function","name":"GUARDIAN_ROLE","inputs":[],"outputs":[{"name":"","type":"bytes32","internalType":"bytes32"}],"stateMutability":"view"},{"type":"function","name":"addNewGoal","inputs":[{"name":"goalAmount","type":"uint256","internalType":"uint256"}],"outputs":[],"stateMutability":"nonpayable"},{"type":"function","name":"duration","inputs":[],"outputs":[{"name":"","type":"uint256","internalType":"uint256"}],"stateMutability":"view"},{"type":"function","name":"end","inputs":[],"outputs":[{"name":"","type":"uint256","internalType":"uint256"}],"stateMutability":"view"},{"type":"function","name":"getRoleAdmin","inputs":[{"name":"role","type":"bytes32","internalType":"bytes32"}],"outputs":[{"name":"","type":"bytes32","internalType":"bytes32"}],"stateMutability":"view"},{"type":"function","name":"getVestingType","inputs":[],"outputs":[{"name":"","type":"uint8","internalType":"enum ISummerVestingWallet.VestingType"}],"stateMutability":"view"},{"type":"function","name":"goalAmounts","inputs":[{"name":"","type":"uint256","internalType":"uint256"}],"outputs":[{"name":"","type":"uint256","internalType":"uint256"}],"stateMutability":"view"},{"type":"function","name":"goalsReached","inputs":[{"name":"","type":"uint256","internalType":"uint256"}],"outputs":[{"name":"","type":"bool","internalType":"bool"}],"stateMutability":"view"},{"type":"function","name":"grantRole","inputs":[{"name":"role","type":"bytes32","internalType":"bytes32"},{"name":"account","type":"address","internalType":"address"}],"outputs":[],"stateMutability":"nonpayable"},{"type":"function","name":"hasRole","inputs":[{"name":"role","type":"bytes32","internalType":"bytes32"},{"name":"account","type":"address","internalType":"address"}],"outputs":[{"name":"","type":"bool","internalType":"bool"}],"stateMutability":"view"},{"type":"function","name":"markGoalReached","inputs":[{"name":"goalNumber","type":"uint256","internalType":"uint256"}],"outputs":[],"stateMutability":"nonpayable"},{"type":"function","name":"owner","inputs":[],"outputs":[{"name":"","type":"address","internalType":"address"}],"stateMutability":"view"},{"type":"function","name":"recallUnvestedTokens","inputs":[],"outputs":[],"stateMutability":"nonpayable"},{"type":"function","name":"releasable","inputs":[{"name":"token","type":"address","internalType":"address"}],"outputs":[{"name":"","type":"uint256","internalType":"uint256"}],"stateMutability":"view"},{"type":"function","name":"releasable","inputs":[],"outputs":[{"name":"","type":"uint256","internalType":"uint256"}],"stateMutability":"view"},{"type":"function","name":"release","inputs":[{"name":"token","type":"address","internalType":"address"}],"outputs":[],"stateMutability":"nonpayable"},{"type":"function","name":"release","inputs":[],"outputs":[],"stateMutability":"nonpayable"},{"type":"function","name":"released","inputs":[],"outputs":[{"name":"","type":"uint256","internalType":"uint256"}],"stateMutability":"view"},{"type":"function","name":"released","inputs":[{"name":"token","type":"address","internalType":"address"}],"outputs":[{"name":"","type":"uint256","internalType":"uint256"}],"stateMutability":"view"},{"type":"function","name":"renounceOwnership","inputs":[],"outputs":[],"stateMutability":"nonpayable"},{"type":"function","name":"renounceRole","inputs":[{"name":"role","type":"bytes32","internalType":"bytes32"},{"name":"callerConfirmation","type":"address","internalType":"address"}],"outputs":[],"stateMutability":"nonpayable"},{"type":"function","name":"revokeRole","inputs":[{"name":"role","type":"bytes32","internalType":"bytes32"},{"name":"account","type":"address","internalType":"address"}],"outputs":[],"stateMutability":"nonpayable"},{"type":"function","name":"start","inputs":[],"outputs":[{"name":"","type":"uint256","internalType":"uint256"}],"stateMutability":"view"},{"type":"function","name":"supportsInterface","inputs":[{"name":"interfaceId","type":"bytes4","internalType":"bytes4"}],"outputs":[{"name":"","type":"bool","internalType":"bool"}],"stateMutability":"view"},{"type":"function","name":"timeBasedVestingAmount","inputs":[],"outputs":[{"name":"","type":"uint256","internalType":"uint256"}],"stateMutability":"view"},{"type":"function","name":"token","inputs":[],"outputs":[{"name":"","type":"address","internalType":"address"}],"stateMutability":"view"},{"type":"function","name":"transferOwnership","inputs":[{"name":"newOwner","type":"address","internalType":"address"}],"outputs":[],"stateMutability":"nonpayable"},{"type":"function","name":"vestedAmount","inputs":[{"name":"timestamp","type":"uint64","internalType":"uint64"}],"outputs":[{"name":"","type":"uint256","internalType":"uint256"}],"stateMutability":"view"},{"type":"function","name":"vestedAmount","inputs":[{"name":"token","type":"address","internalType":"address"},{"name":"timestamp","type":"uint64","internalType":"uint64"}],"outputs":[{"name":"","type":"uint256","internalType":"uint256"}],"stateMutability":"view"},{"type":"event","name":"ERC20Released","inputs":[{"name":"token","type":"address","indexed":true,"internalType":"address"},{"name":"amount","type":"uint256","indexed":false,"internalType":"uint256"}],"anonymous":false},{"type":"event","name":"EtherReleased","inputs":[{"name":"amount","type":"uint256","indexed":false,"internalType":"uint256"}],"anonymous":false},{"type":"event","name":"GoalReached","inputs":[{"name":"goalNumber","type":"uint256","indexed":false,"internalType":"uint256"}],"anonymous":false},{"type":"event","name":"NewGoalAdded","inputs":[{"name":"goalAmount","type":"uint256","indexed":false,"internalType":"uint256"},{"name":"goalNumber","type":"uint256","indexed":false,"internalType":"uint256"}],"anonymous":false},{"type":"event","name":"OwnershipTransferred","inputs":[{"name":"previousOwner","type":"address","indexed":true,"internalType":"address"},{"name":"newOwner","type":"address","indexed":true,"internalType":"address"}],"anonymous":false},{"type":"event","name":"RoleAdminChanged","inputs":[{"name":"role","type":"bytes32","indexed":true,"internalType":"bytes32"},{"name":"previousAdminRole","type":"bytes32","indexed":true,"internalType":"bytes32"},{"name":"newAdminRole","type":"bytes32","indexed":true,"internalType":"bytes32"}],"anonymous":false},{"type":"event","name":"RoleGranted","inputs":[{"name":"role","type":"bytes32","indexed":true,"internalType":"bytes32"},{"name":"account","type":"address","indexed":true,"internalType":"address"},{"name":"sender","type":"address","indexed":true,"internalType":"address"}],"anonymous":false},{"type":"event","name":"RoleRevoked","inputs":[{"name":"role","type":"bytes32","indexed":true,"internalType":"bytes32"},{"name":"account","type":"address","indexed":true,"internalType":"address"},{"name":"sender","type":"address","indexed":true,"internalType":"address"}],"anonymous":false},{"type":"event","name":"UnvestedTokensRecalled","inputs":[{"name":"unvestedTokens","type":"uint256","indexed":false,"internalType":"uint256"}],"anonymous":false},{"type":"error","name":"AccessControlBadConfirmation","inputs":[]},{"type":"error","name":"AccessControlUnauthorizedAccount","inputs":[{"name":"account","type":"address","internalType":"address"},{"name":"neededRole","type":"bytes32","internalType":"bytes32"}]},{"type":"error","name":"FailedCall","inputs":[]},{"type":"error","name":"InsufficientBalance","inputs":[{"name":"balance","type":"uint256","internalType":"uint256"},{"name":"needed","type":"uint256","internalType":"uint256"}]},{"type":"error","name":"InvalidGoalArrayLength","inputs":[]},{"type":"error","name":"InvalidGoalNumber","inputs":[]},{"type":"error","name":"InvalidToken","inputs":[{"name":"token","type":"address","internalType":"address"}]},{"type":"error","name":"OnlyTeamVesting","inputs":[]},{"type":"error","name":"OwnableInvalidOwner","inputs":[{"name":"owner","type":"address","internalType":"address"}]},{"type":"error","name":"OwnableUnauthorizedAccount","inputs":[{"name":"account","type":"address","internalType":"address"}]},{"type":"error","name":"SafeERC20FailedOperation","inputs":[{"name":"token","type":"address","internalType":"address"}]}],"bytecode":{"object":"0x610100604052348015610010575f5ffd5b50604051611ab4380380611ab483398101604081905261002f9161039a565b85856303c26700826001600160a01b03811661006557604051631e4fbdf760e01b81525f60048201526024015b60405180910390fd5b61006e81610199565b506001600160401b039182166080521660a05250836001811115610094576100946104d4565b60c08160018111156100a8576100a86104d4565b90525060068390555f60c05160018111156100c5576100c56104d4565b0361010b575f5b8251811015610105576100fd8382815181106100ea576100ea6104e8565b60200260200101516101e860201b60201c565b6001016100cc565b5061012b565b81511561012b57604051632d09888560e11b815260040160405180910390fd5b6001600160a01b03871660e08190526101625760405163961c9a4f60e01b81526001600160a01b038816600482015260240161005c565b61018c7f55435dd261a4b9b3364963f7738a7a662ad9c84396d64be3365284bb7f0a5041826102be565b505050505050505061051b565b5f80546001600160a01b038381166001600160a01b0319831681178455604051919092169283917f8be0079c531659141344cd1fd0a4f28419497f9722a3daafe3b4186f6b6457e09190a35050565b8060075f8282546101f991906104fc565b909155505060048054600181810183557f8a35acfbc15ff81a39ae7d344fd709f28e8600b4aa8c65c6b64bfe7fe36bd19b9091018390556005805491820181555f52602081047f036b6384b5eca791c62761152d0c79bb0604c104a5fb6f4eb0703f3154bb3db001805460ff601f9093166101000a92909202199091169055546040517f314a43cc84323145dcbc0d75c7e5350dc6a6def246c48e0f30a001924f526139916102b391849190918252602082015260400190565b60405180910390a150565b5f8281526003602090815260408083206001600160a01b038516845290915281205460ff16610362575f8381526003602090815260408083206001600160a01b03861684529091529020805460ff1916600117905561031a3390565b6001600160a01b0316826001600160a01b0316847f2f8788117e7eff1d82e926ec794901d17c78024a50270940304540a733656f0d60405160405180910390a4506001610365565b505f5b92915050565b80516001600160a01b0381168114610381575f5ffd5b919050565b634e487b7160e01b5f52604160045260245ffd5b5f5f5f5f5f5f5f60e0888a0312156103b0575f5ffd5b6103b98861036b565b96506103c76020890161036b565b60408901519096506001600160401b03811681146103e3575f5ffd5b6060890151909550600281106103f7575f5ffd5b608089015160a08a015191955093506001600160401b03811115610419575f5ffd5b88015f601f82018b1361042a575f5ffd5b81516001600160401b0381111561044357610443610386565b604051600582901b90603f8201601f191681016001600160401b038111828210171561047157610471610386565b60405291825260208185018101929081018e84111561048e575f5ffd5b6020860195505b838610156104b157855180825260209687019690935001610495565b5095506104c69350505060c08a01905061036b565b905092959891949750929550565b634e487b7160e01b5f52602160045260245ffd5b634e487b7160e01b5f52603260045260245ffd5b8082018082111561036557634e487b7160e01b5f52601160045260245ffd5b60805160a05160c05160e05161153c6105785f395f8181610597015281816109490152610ac001525f81816102420152818161083701528181610a6401526111aa01525f818161027c0152610c1601525f610af2015261153c5ff3fe6080604052600436106101c8575f3560e01c806391d14854116100f2578063c2a5b0be11610092578063f2fde38b11610062578063f2fde38b14610534578063f8d870c814610553578063fbccedae14610572578063fc0c546a14610586575f5ffd5b8063c2a5b0be146104c3578063c9514c9b146104e2578063d547741f14610501578063efbe1c1c14610520575f5ffd5b8063a217fddf116100cd578063a217fddf1461045e578063a3f8eace14610471578063aa5ef02b14610490578063be9a6555146104af575f5ffd5b806391d14854146103f757806396132521146104165780639852595c1461042a575f5ffd5b80632f2ff15d11610168578063810ec23b11610138578063810ec23b1461038057806386d1a69f1461039f57806388fb1502146103b35780638da5cb5b146103c7575f5ffd5b80632f2ff15d14610319578063330609441461033857806336568abe1461034d578063715018a61461036c575f5ffd5b80630fb5a6b4116101a35780630fb5a6b41461026e57806319165587146102aa578063248a9ca3146102cb57806324ea54f4146102f9575f5ffd5b806301ffc9a7146101d35780630a17b06b146102075780630e17454c14610234575f5ffd5b366101cf57005b5f5ffd5b3480156101de575f5ffd5b506101f26101ed3660046112fe565b6105b9565b60405190151581526020015b60405180910390f35b348015610212575f5ffd5b50610226610221366004611341565b6105ef565b6040519081526020016101fe565b34801561023f575f5ffd5b507f00000000000000000000000000000000000000000000000000000000000000006040516101fe919061136e565b348015610279575f5ffd5b507f000000000000000000000000000000000000000000000000000000000000000067ffffffffffffffff16610226565b3480156102b5575f5ffd5b506102c96102c43660046113aa565b61060c565b005b3480156102d6575f5ffd5b506102266102e53660046113c3565b5f9081526003602052604090206001015490565b348015610304575f5ffd5b506102265f5160206114e75f395f51905f5281565b348015610324575f5ffd5b506102c96103333660046113da565b6106a4565b348015610343575f5ffd5b5061022660065481565b348015610358575f5ffd5b506102c96103673660046113da565b6106ce565b348015610377575f5ffd5b506102c9610706565b34801561038b575f5ffd5b5061022661039a366004611404565b610719565b3480156103aa575f5ffd5b506102c96107ac565b3480156103be575f5ffd5b506102c961081d565b3480156103d2575f5ffd5b505f546001600160a01b03165b6040516001600160a01b0390911681526020016101fe565b348015610402575f5ffd5b506101f26104113660046113da565b6109f4565b348015610421575f5ffd5b50600154610226565b348015610435575f5ffd5b506102266104443660046113aa565b6001600160a01b03165f9081526002602052604090205490565b348015610469575f5ffd5b506102265f81565b34801561047c575f5ffd5b5061022661048b3660046113aa565b610a1e565b34801561049b575f5ffd5b506102c96104aa3660046113c3565b610a4a565b3480156104ba575f5ffd5b50610226610ae7565b3480156104ce575f5ffd5b506102c96104dd3660046113c3565b610b15565b3480156104ed575f5ffd5b506102266104fc3660046113c3565b610bd0565b34801561050c575f5ffd5b506102c961051b3660046113da565b610bef565b34801561052b575f5ffd5b50610226610c13565b34801561053f575f5ffd5b506102c961054e3660046113aa565b610c56565b34801561055e575f5ffd5b506101f261056d3660046113c3565b610c95565b34801561057d575f5ffd5b50610226610cc6565b348015610591575f5ffd5b506103df7f000000000000000000000000000000000000000000000000000000000000000081565b5f6001600160e01b03198216637965db0b60e01b14806105e957506301ffc9a760e01b6001600160e01b03198316145b92915050565b5f6105e96105fc60015490565b6106069047611440565b83610ce3565b5f61061682610a1e565b6001600160a01b0383165f90815260026020526040812080549293508392909190610642908490611440565b90915550506040518181526001600160a01b038316907fc0e523490dd523c33b1878c9eb14ff46991e3f5b2cd33710918618f2a39cba1b9060200160405180910390a26106a08261069a5f546001600160a01b031690565b83610d3c565b5050565b5f828152600360205260409020600101546106be81610d9b565b6106c88383610da5565b50505050565b6001600160a01b03811633146106f75760405163334bd91960e11b815260040160405180910390fd5b6107018282610e36565b505050565b61070e610ea1565b6107175f610ecd565b565b6001600160a01b0382165f908152600260205260408120546107a5906040516370a0823160e01b81523060048201526001600160a01b038616906370a0823190602401602060405180830381865afa158015610777573d5f5f3e3d5ffd5b505050506040513d601f19601f8201168201806040525081019061079b9190611453565b6106069190611440565b9392505050565b5f6107b5610cc6565b90508060015f8282546107c89190611440565b90915550506040518181527fda9d4e5f101b8b9b1c5b76d0c5a9f7923571acfc02376aa076b75a8c080c956b9060200160405180910390a161081a6108145f546001600160a01b031690565b82610f1c565b50565b5f5160206114e75f395f51905f5261083481610d9b565b5f7f000000000000000000000000000000000000000000000000000000000000000060018111156108675761086761135a565b1461088557604051632d09888560e11b815260040160405180910390fd5b5f61088e610fb6565b90505f5b60045481101561092c57600581815481106108af576108af61146a565b905f5260205f2090602091828204019190069054906101000a900460ff1661092457600481815481106108e4576108e461146a565b905f5260205f20015460075f8282546108fd919061147e565b925050819055505f600482815481106109185761091861146a565b5f918252602090912001555b600101610892565b5060405163a9059cbb60e01b8152336004820152602481018290527f00000000000000000000000000000000000000000000000000000000000000006001600160a01b03169063a9059cbb906044016020604051808303815f875af1158015610997573d5f5f3e3d5ffd5b505050506040513d601f19601f820116820180604052508101906109bb9190611491565b506040518181527f646dccc228123fd14a7623a401dec2e05c198af8a02a568df7c11ff7a04a1230906020015b60405180910390a15050565b5f9182526003602090815260408084206001600160a01b0393909316845291905290205460ff1690565b6001600160a01b0381165f90815260026020526040812054610a408342610719565b6105e9919061147e565b5f5160206114e75f395f51905f52610a6181610d9b565b5f7f00000000000000000000000000000000000000000000000000000000000000006001811115610a9457610a9461135a565b14610ab257604051632d09888560e11b815260040160405180910390fd5b610abb82611031565b6106a07f0000000000000000000000000000000000000000000000000000000000000000333085611107565b67ffffffffffffffff7f00000000000000000000000000000000000000000000000000000000000000001690565b5f5160206114e75f395f51905f52610b2c81610d9b565b6001821080610b3c575060045482115b15610b5a57604051630d8a8dc160e21b815260040160405180910390fd5b60016005610b68828561147e565b81548110610b7857610b7861146a565b905f5260205f2090602091828204019190066101000a81548160ff0219169083151502179055507ffbfd8ab7c24300fa9888cd721c8565a7da56759384781283684dcf7c7c4a846b826040516109e891815260200190565b60048181548110610bdf575f80fd5b5f91825260209091200154905081565b5f82815260036020526040902060010154610c0981610d9b565b6106c88383610e36565b5f7f000000000000000000000000000000000000000000000000000000000000000067ffffffffffffffff16610c47610ae7565b610c519190611440565b905090565b610c5e610ea1565b6001600160a01b038116610c8c57604051631e4fbdf760e01b81525f60048201526024015b60405180910390fd5b61081a81610ecd565b60058181548110610ca4575f80fd5b905f5260205f209060209182820401919006915054906101000a900460ff1681565b5f610cd060015490565b610cd9426105ef565b610c51919061147e565b5f62ed4e00610cf0610ae7565b610cfa9190611440565b8267ffffffffffffffff161015610d1257505f6105e9565b5f610d1c83611140565b90505f610d276111a6565b9050610d338183611440565b95945050505050565b6040516001600160a01b0383811660248301526044820183905261070191859182169063a9059cbb906064015b604051602081830303815290604052915060e01b6020820180516001600160e01b038381831617835250505050611259565b61081a81336112c5565b5f610db083836109f4565b610e2f575f8381526003602090815260408083206001600160a01b03861684529091529020805460ff19166001179055610de73390565b6001600160a01b0316826001600160a01b0316847f2f8788117e7eff1d82e926ec794901d17c78024a50270940304540a733656f0d60405160405180910390a45060016105e9565b505f6105e9565b5f610e4183836109f4565b15610e2f575f8381526003602090815260408083206001600160a01b0386168085529252808320805460ff1916905551339286917ff6391f5c32d9c69d2a47ea670b442974b53935d1edc7fd64eb21e047a839171b9190a45060016105e9565b5f546001600160a01b031633146107175760405163118cdaa760e01b8152336004820152602401610c83565b5f80546001600160a01b038381166001600160a01b0319831681178455604051919092169283917f8be0079c531659141344cd1fd0a4f28419497f9722a3daafe3b4186f6b6457e09190a35050565b80471015610f465760405163cf47918160e01b815247600482015260248101829052604401610c83565b5f826001600160a01b0316826040515f6040518083038185875af1925050503d805f8114610f8f576040519150601f19603f3d011682016040523d82523d5f602084013e610f94565b606091505b50509050806107015760405163d6bda27560e01b815260040160405180910390fd5b5f80805b60045481101561102b5760058181548110610fd757610fd761146a565b905f5260205f2090602091828204019190069054906101000a900460ff16611023576004818154811061100c5761100c61146a565b905f5260205f200154826110209190611440565b91505b600101610fba565b50919050565b8060075f8282546110429190611440565b909155505060048054600181810183557f8a35acfbc15ff81a39ae7d344fd709f28e8600b4aa8c65c6b64bfe7fe36bd19b9091018390556005805491820181555f52602081047f036b6384b5eca791c62761152d0c79bb0604c104a5fb6f4eb0703f3154bb3db001805460ff601f9093166101000a92909202199091169055546040517f314a43cc84323145dcbc0d75c7e5350dc6a6def246c48e0f30a001924f526139916110fc91849190918252602082015260400190565b60405180910390a150565b6040516001600160a01b0384811660248301528381166044830152606482018390526106c89186918216906323b872dd90608401610d69565b5f5f6276a70061114e610ae7565b6111629067ffffffffffffffff861661147e565b61116c91906114b0565b90505f60088260065461117f91906114cf565b61118991906114b0565b9050600654811061119c5760065461119e565b805b949350505050565b5f807f000000000000000000000000000000000000000000000000000000000000000060018111156111da576111da61135a565b146111e457505f90565b5f805b60045481101561102b57600581815481106112045761120461146a565b905f5260205f2090602091828204019190069054906101000a900460ff1615611251576004818154811061123a5761123a61146a565b905f5260205f2001548261124e9190611440565b91505b6001016111e7565b5f5f60205f8451602086015f885af180611278576040513d5f823e3d81fd5b50505f513d9150811561128f57806001141561129c565b6001600160a01b0384163b155b156106c857604051635274afe760e01b81526001600160a01b0385166004820152602401610c83565b6112cf82826109f4565b6106a05760405163e2517d3f60e01b81526001600160a01b038216600482015260248101839052604401610c83565b5f6020828403121561130e575f5ffd5b81356001600160e01b0319811681146107a5575f5ffd5b803567ffffffffffffffff8116811461133c575f5ffd5b919050565b5f60208284031215611351575f5ffd5b6107a582611325565b634e487b7160e01b5f52602160045260245ffd5b602081016002831061138e57634e487b7160e01b5f52602160045260245ffd5b91905290565b80356001600160a01b038116811461133c575f5ffd5b5f602082840312156113ba575f5ffd5b6107a582611394565b5f602082840312156113d3575f5ffd5b5035919050565b5f5f604083850312156113eb575f5ffd5b823591506113fb60208401611394565b90509250929050565b5f5f60408385031215611415575f5ffd5b61141e83611394565b91506113fb60208401611325565b634e487b7160e01b5f52601160045260245ffd5b808201808211156105e9576105e961142c565b5f60208284031215611463575f5ffd5b5051919050565b634e487b7160e01b5f52603260045260245ffd5b818103818111156105e9576105e961142c565b5f602082840312156114a1575f5ffd5b815180151581146107a5575f5ffd5b5f826114ca57634e487b7160e01b5f52601260045260245ffd5b500490565b80820281158282048414176105e9576105e961142c56fe55435dd261a4b9b3364963f7738a7a662ad9c84396d64be3365284bb7f0a5041a26469706673582212203eab01e638e58495e4b0be8103deec7ebe1224f5c51b287fed70f3e8547acc4464736f6c634300081c0033","linkReferences":{}},"methodIdentifiers":{"DEFAULT_ADMIN_ROLE()":"a217fddf","GUARDIAN_ROLE()":"24ea54f4","addNewGoal(uint256)":"aa5ef02b","duration()":"0fb5a6b4","end()":"efbe1c1c","getRoleAdmin(bytes32)":"248a9ca3","getVestingType()":"0e17454c","goalAmounts(uint256)":"c9514c9b","goalsReached(uint256)":"f8d870c8","grantRole(bytes32,address)":"2f2ff15d","hasRole(bytes32,address)":"91d14854","markGoalReached(uint256)":"c2a5b0be","owner()":"8da5cb5b","recallUnvestedTokens()":"88fb1502","releasable()":"fbccedae","releasable(address)":"a3f8eace","release()":"86d1a69f","release(address)":"19165587","released()":"96132521","released(address)":"9852595c","renounceOwnership()":"715018a6","renounceRole(bytes32,address)":"36568abe","revokeRole(bytes32,address)":"d547741f","start()":"be9a6555","supportsInterface(bytes4)":"01ffc9a7","timeBasedVestingAmount()":"33060944","token()":"fc0c546a","transferOwnership(address)":"f2fde38b","vestedAmount(address,uint64)":"810ec23b","vestedAmount(uint64)":"0a17b06b"},"id":173}