{"abi":[{"type":"constructor","inputs":[{"name":"_token","type":"address","internalType":"address"},{"name":"beneficiaryAddress","type":"address","internalType":"address"},{"name":"startTimestamp","type":"uint64","internalType":"uint64"},{"name":"durationSeconds","type":"uint64","internalType":"uint64"},{"name":"vestingType","type":"uint8","internalType":"enum SummerVestingWallet.VestingType"},{"name":"_timeBasedVestingAmount","type":"uint256","internalType":"uint256"},{"name":"_goalAmounts","type":"uint256[]","internalType":"uint256[]"},{"name":"guardianAddress","type":"address","internalType":"address"}],"stateMutability":"nonpayable"},{"type":"receive","stateMutability":"payable"},{"type":"function","name":"DEFAULT_ADMIN_ROLE","inputs":[],"outputs":[{"name":"","type":"bytes32","internalType":"bytes32"}],"stateMutability":"view"},{"type":"function","name":"GUARDIAN_ROLE","inputs":[],"outputs":[{"name":"","type":"bytes32","internalType":"bytes32"}],"stateMutability":"view"},{"type":"function","name":"addNewGoal","inputs":[{"name":"goalAmount","type":"uint256","internalType":"uint256"}],"outputs":[],"stateMutability":"nonpayable"},{"type":"function","name":"duration","inputs":[],"outputs":[{"name":"","type":"uint256","internalType":"uint256"}],"stateMutability":"view"},{"type":"function","name":"end","inputs":[],"outputs":[{"name":"","type":"uint256","internalType":"uint256"}],"stateMutability":"view"},{"type":"function","name":"getRoleAdmin","inputs":[{"name":"role","type":"bytes32","internalType":"bytes32"}],"outputs":[{"name":"","type":"bytes32","internalType":"bytes32"}],"stateMutability":"view"},{"type":"function","name":"getVestingType","inputs":[],"outputs":[{"name":"","type":"uint8","internalType":"enum SummerVestingWallet.VestingType"}],"stateMutability":"view"},{"type":"function","name":"goalAmounts","inputs":[{"name":"","type":"uint256","internalType":"uint256"}],"outputs":[{"name":"","type":"uint256","internalType":"uint256"}],"stateMutability":"view"},{"type":"function","name":"goalsReached","inputs":[{"name":"","type":"uint256","internalType":"uint256"}],"outputs":[{"name":"","type":"bool","internalType":"bool"}],"stateMutability":"view"},{"type":"function","name":"grantRole","inputs":[{"name":"role","type":"bytes32","internalType":"bytes32"},{"name":"account","type":"address","internalType":"address"}],"outputs":[],"stateMutability":"nonpayable"},{"type":"function","name":"hasRole","inputs":[{"name":"role","type":"bytes32","internalType":"bytes32"},{"name":"account","type":"address","internalType":"address"}],"outputs":[{"name":"","type":"bool","internalType":"bool"}],"stateMutability":"view"},{"type":"function","name":"markGoalReached","inputs":[{"name":"goalNumber","type":"uint256","internalType":"uint256"}],"outputs":[],"stateMutability":"nonpayable"},{"type":"function","name":"owner","inputs":[],"outputs":[{"name":"","type":"address","internalType":"address"}],"stateMutability":"view"},{"type":"function","name":"recallUnvestedTokens","inputs":[],"outputs":[],"stateMutability":"nonpayable"},{"type":"function","name":"releasable","inputs":[{"name":"token","type":"address","internalType":"address"}],"outputs":[{"name":"","type":"uint256","internalType":"uint256"}],"stateMutability":"view"},{"type":"function","name":"releasable","inputs":[],"outputs":[{"name":"","type":"uint256","internalType":"uint256"}],"stateMutability":"view"},{"type":"function","name":"release","inputs":[{"name":"token","type":"address","internalType":"address"}],"outputs":[],"stateMutability":"nonpayable"},{"type":"function","name":"release","inputs":[],"outputs":[],"stateMutability":"nonpayable"},{"type":"function","name":"released","inputs":[],"outputs":[{"name":"","type":"uint256","internalType":"uint256"}],"stateMutability":"view"},{"type":"function","name":"released","inputs":[{"name":"token","type":"address","internalType":"address"}],"outputs":[{"name":"","type":"uint256","internalType":"uint256"}],"stateMutability":"view"},{"type":"function","name":"renounceOwnership","inputs":[],"outputs":[],"stateMutability":"nonpayable"},{"type":"function","name":"renounceRole","inputs":[{"name":"role","type":"bytes32","internalType":"bytes32"},{"name":"callerConfirmation","type":"address","internalType":"address"}],"outputs":[],"stateMutability":"nonpayable"},{"type":"function","name":"revokeRole","inputs":[{"name":"role","type":"bytes32","internalType":"bytes32"},{"name":"account","type":"address","internalType":"address"}],"outputs":[],"stateMutability":"nonpayable"},{"type":"function","name":"start","inputs":[],"outputs":[{"name":"","type":"uint256","internalType":"uint256"}],"stateMutability":"view"},{"type":"function","name":"supportsInterface","inputs":[{"name":"interfaceId","type":"bytes4","internalType":"bytes4"}],"outputs":[{"name":"","type":"bool","internalType":"bool"}],"stateMutability":"view"},{"type":"function","name":"timeBasedVestingAmount","inputs":[],"outputs":[{"name":"","type":"uint256","internalType":"uint256"}],"stateMutability":"view"},{"type":"function","name":"token","inputs":[],"outputs":[{"name":"","type":"address","internalType":"address"}],"stateMutability":"view"},{"type":"function","name":"transferOwnership","inputs":[{"name":"newOwner","type":"address","internalType":"address"}],"outputs":[],"stateMutability":"nonpayable"},{"type":"function","name":"vestedAmount","inputs":[{"name":"timestamp","type":"uint64","internalType":"uint64"}],"outputs":[{"name":"","type":"uint256","internalType":"uint256"}],"stateMutability":"view"},{"type":"function","name":"vestedAmount","inputs":[{"name":"token","type":"address","internalType":"address"},{"name":"timestamp","type":"uint64","internalType":"uint64"}],"outputs":[{"name":"","type":"uint256","internalType":"uint256"}],"stateMutability":"view"},{"type":"event","name":"ERC20Released","inputs":[{"name":"token","type":"address","indexed":true,"internalType":"address"},{"name":"amount","type":"uint256","indexed":false,"internalType":"uint256"}],"anonymous":false},{"type":"event","name":"EtherReleased","inputs":[{"name":"amount","type":"uint256","indexed":false,"internalType":"uint256"}],"anonymous":false},{"type":"event","name":"OwnershipTransferred","inputs":[{"name":"previousOwner","type":"address","indexed":true,"internalType":"address"},{"name":"newOwner","type":"address","indexed":true,"internalType":"address"}],"anonymous":false},{"type":"event","name":"RoleAdminChanged","inputs":[{"name":"role","type":"bytes32","indexed":true,"internalType":"bytes32"},{"name":"previousAdminRole","type":"bytes32","indexed":true,"internalType":"bytes32"},{"name":"newAdminRole","type":"bytes32","indexed":true,"internalType":"bytes32"}],"anonymous":false},{"type":"event","name":"RoleGranted","inputs":[{"name":"role","type":"bytes32","indexed":true,"internalType":"bytes32"},{"name":"account","type":"address","indexed":true,"internalType":"address"},{"name":"sender","type":"address","indexed":true,"internalType":"address"}],"anonymous":false},{"type":"event","name":"RoleRevoked","inputs":[{"name":"role","type":"bytes32","indexed":true,"internalType":"bytes32"},{"name":"account","type":"address","indexed":true,"internalType":"address"},{"name":"sender","type":"address","indexed":true,"internalType":"address"}],"anonymous":false},{"type":"error","name":"AccessControlBadConfirmation","inputs":[]},{"type":"error","name":"AccessControlUnauthorizedAccount","inputs":[{"name":"account","type":"address","internalType":"address"},{"name":"neededRole","type":"bytes32","internalType":"bytes32"}]},{"type":"error","name":"FailedCall","inputs":[]},{"type":"error","name":"InsufficientBalance","inputs":[{"name":"balance","type":"uint256","internalType":"uint256"},{"name":"needed","type":"uint256","internalType":"uint256"}]},{"type":"error","name":"InvalidGoalArrayLength","inputs":[]},{"type":"error","name":"InvalidGoalNumber","inputs":[]},{"type":"error","name":"OnlyTeamVesting","inputs":[]},{"type":"error","name":"OwnableInvalidOwner","inputs":[{"name":"owner","type":"address","internalType":"address"}]},{"type":"error","name":"OwnableUnauthorizedAccount","inputs":[{"name":"account","type":"address","internalType":"address"}]},{"type":"error","name":"SafeERC20FailedOperation","inputs":[{"name":"token","type":"address","internalType":"address"}]}],"bytecode":{"object":"0x610100604052348015610010575f5ffd5b5060405161192d38038061192d83398101604081905261002f91610391565b868686826001600160a01b03811661006057604051631e4fbdf760e01b81525f600482015260240160405180910390fd5b6100698161015c565b506001600160401b039182166080521660a0525083600181111561008f5761008f6104ca565b60c08160018111156100a3576100a36104ca565b905250600683905581516100be906004906020850190610258565b5081516001600160401b038111156100d8576100d861037d565b604051908082528060200260200182016040528015610101578160200160208202803683370190505b508051610116916005916020909101906102a1565b506001600160a01b03881660e05261014e7f55435dd261a4b9b3364963f7738a7a662ad9c84396d64be3365284bb7f0a5041826101ab565b5050505050505050506104de565b5f80546001600160a01b038381166001600160a01b0319831681178455604051919092169283917f8be0079c531659141344cd1fd0a4f28419497f9722a3daafe3b4186f6b6457e09190a35050565b5f8281526003602090815260408083206001600160a01b038516845290915281205460ff1661024f575f8381526003602090815260408083206001600160a01b03861684529091529020805460ff191660011790556102073390565b6001600160a01b0316826001600160a01b0316847f2f8788117e7eff1d82e926ec794901d17c78024a50270940304540a733656f0d60405160405180910390a4506001610252565b505f5b92915050565b828054828255905f5260205f20908101928215610291579160200282015b82811115610291578251825591602001919060010190610276565b5061029d929150610338565b5090565b828054828255905f5260205f2090601f01602090048101928215610291579160200282015f5b8382111561030357835183826101000a81548160ff02191690831515021790555092602001926001016020815f010492830192600103026102c7565b801561032f5782816101000a81549060ff02191690556001016020815f01049283019260010302610303565b505061029d9291505b5b8082111561029d575f8155600101610339565b80516001600160a01b0381168114610362575f5ffd5b919050565b80516001600160401b0381168114610362575f5ffd5b634e487b7160e01b5f52604160045260245ffd5b5f5f5f5f5f5f5f5f610100898b0312156103a9575f5ffd5b6103b28961034c565b97506103c060208a0161034c565b96506103ce60408a01610367565b95506103dc60608a01610367565b94506080890151600281106103ef575f5ffd5b60a08a015160c08b015191955093506001600160401b03811115610411575f5ffd5b8901601f81018b13610421575f5ffd5b80516001600160401b0381111561043a5761043a61037d565b604051600582901b90603f8201601f191681016001600160401b03811182821017156104685761046861037d565b60405291825260208184018101929081018e841115610485575f5ffd5b6020850194505b838510156104a85784518082526020958601959093500161048c565b5094506104bb9250505060e08a0161034c565b90509295985092959890939650565b634e487b7160e01b5f52602160045260245ffd5b60805160a05160c05160e0516113f261053b5f395f8181610597015281816108ad0152610a0701525f818161024201528181610837015261105a01525f818161027c01528181610b300152610c2001525f610a3901526113f25ff3fe6080604052600436106101c8575f3560e01c806391d14854116100f2578063c2a5b0be11610092578063f2fde38b11610062578063f2fde38b14610534578063f8d870c814610553578063fbccedae14610572578063fc0c546a14610586575f5ffd5b8063c2a5b0be146104c3578063c9514c9b146104e2578063d547741f14610501578063efbe1c1c14610520575f5ffd5b8063a217fddf116100cd578063a217fddf1461045e578063a3f8eace14610471578063aa5ef02b14610490578063be9a6555146104af575f5ffd5b806391d14854146103f757806396132521146104165780639852595c1461042a575f5ffd5b80632f2ff15d11610168578063810ec23b11610138578063810ec23b1461038057806386d1a69f1461039f57806388fb1502146103b35780638da5cb5b146103c7575f5ffd5b80632f2ff15d14610319578063330609441461033857806336568abe1461034d578063715018a61461036c575f5ffd5b80630fb5a6b4116101a35780630fb5a6b41461026e57806319165587146102aa578063248a9ca3146102cb57806324ea54f4146102f9575f5ffd5b806301ffc9a7146101d35780630a17b06b146102075780630e17454c14610234575f5ffd5b366101cf57005b5f5ffd5b3480156101de575f5ffd5b506101f26101ed3660046111b4565b6105b9565b60405190151581526020015b60405180910390f35b348015610212575f5ffd5b506102266102213660046111f7565b6105ef565b6040519081526020016101fe565b34801561023f575f5ffd5b507f00000000000000000000000000000000000000000000000000000000000000006040516101fe9190611224565b348015610279575f5ffd5b507f000000000000000000000000000000000000000000000000000000000000000067ffffffffffffffff16610226565b3480156102b5575f5ffd5b506102c96102c4366004611260565b61060c565b005b3480156102d6575f5ffd5b506102266102e5366004611279565b5f9081526003602052604090206001015490565b348015610304575f5ffd5b506102265f51602061139d5f395f51905f5281565b348015610324575f5ffd5b506102c9610333366004611290565b6106a4565b348015610343575f5ffd5b5061022660065481565b348015610358575f5ffd5b506102c9610367366004611290565b6106ce565b348015610377575f5ffd5b506102c9610706565b34801561038b575f5ffd5b5061022661039a3660046112ba565b610719565b3480156103aa575f5ffd5b506102c96107ac565b3480156103be575f5ffd5b506102c961081d565b3480156103d2575f5ffd5b505f546001600160a01b03165b6040516001600160a01b0390911681526020016101fe565b348015610402575f5ffd5b506101f2610411366004611290565b61091f565b348015610421575f5ffd5b50600154610226565b348015610435575f5ffd5b50610226610444366004611260565b6001600160a01b03165f9081526002602052604090205490565b348015610469575f5ffd5b506102265f81565b34801561047c575f5ffd5b5061022661048b366004611260565b610949565b34801561049b575f5ffd5b506102c96104aa366004611279565b610975565b3480156104ba575f5ffd5b50610226610a2e565b3480156104ce575f5ffd5b506102c96104dd366004611279565b610a5c565b3480156104ed575f5ffd5b506102266104fc366004611279565b610aea565b34801561050c575f5ffd5b506102c961051b366004611290565b610b09565b34801561052b575f5ffd5b50610226610b2d565b34801561053f575f5ffd5b506102c961054e366004611260565b610b70565b34801561055e575f5ffd5b506101f261056d366004611279565b610baf565b34801561057d575f5ffd5b50610226610be0565b348015610591575f5ffd5b506103df7f000000000000000000000000000000000000000000000000000000000000000081565b5f6001600160e01b03198216637965db0b60e01b14806105e957506301ffc9a760e01b6001600160e01b03198316145b92915050565b5f6105e96105fc60015490565b61060690476112f6565b83610bfd565b5f61061682610949565b6001600160a01b0383165f908152600260205260408120805492935083929091906106429084906112f6565b90915550506040518181526001600160a01b038316907fc0e523490dd523c33b1878c9eb14ff46991e3f5b2cd33710918618f2a39cba1b9060200160405180910390a26106a08261069a5f546001600160a01b031690565b83610c9d565b5050565b5f828152600360205260409020600101546106be81610cfc565b6106c88383610d06565b50505050565b6001600160a01b03811633146106f75760405163334bd91960e11b815260040160405180910390fd5b6107018282610d97565b505050565b61070e610e02565b6107175f610e2e565b565b6001600160a01b0382165f908152600260205260408120546107a5906040516370a0823160e01b81523060048201526001600160a01b038616906370a0823190602401602060405180830381865afa158015610777573d5f5f3e3d5ffd5b505050506040513d601f19601f8201168201806040525081019061079b9190611309565b61060691906112f6565b9392505050565b5f6107b5610be0565b90508060015f8282546107c891906112f6565b90915550506040518181527fda9d4e5f101b8b9b1c5b76d0c5a9f7923571acfc02376aa076b75a8c080c956b9060200160405180910390a161081a6108145f546001600160a01b031690565b82610e7d565b50565b5f51602061139d5f395f51905f5261083481610cfc565b5f7f0000000000000000000000000000000000000000000000000000000000000000600181111561086757610867611210565b1461088557604051632d09888560e11b815260040160405180910390fd5b5f61088e610f17565b60405163a9059cbb60e01b8152336004820152602481018290529091507f00000000000000000000000000000000000000000000000000000000000000006001600160a01b03169063a9059cbb906044016020604051808303815f875af11580156108fb573d5f5f3e3d5ffd5b505050506040513d601f19601f820116820180604052508101906107019190611320565b5f9182526003602090815260408084206001600160a01b0393909316845291905290205460ff1690565b6001600160a01b0381165f9081526002602052604081205461096b8342610719565b6105e9919061133f565b5f51602061139d5f395f51905f5261098c81610cfc565b6004805460018082019092557f8a35acfbc15ff81a39ae7d344fd709f28e8600b4aa8c65c6b64bfe7fe36bd19b018390556005805491820181555f527f036b6384b5eca791c62761152d0c79bb0604c104a5fb6f4eb0703f3154bb3db060208204018054601f9092166101000a60ff021990911690556106a07f0000000000000000000000000000000000000000000000000000000000000000333085610f73565b67ffffffffffffffff7f00000000000000000000000000000000000000000000000000000000000000001690565b5f51602061139d5f395f51905f52610a7381610cfc565b6001821080610a83575060045482115b15610aa157604051630d8a8dc160e21b815260040160405180910390fd5b60016005610aaf828561133f565b81548110610abf57610abf611352565b905f5260205f2090602091828204019190066101000a81548160ff0219169083151502179055505050565b60048181548110610af9575f80fd5b5f91825260209091200154905081565b5f82815260036020526040902060010154610b2381610cfc565b6106c88383610d97565b5f7f000000000000000000000000000000000000000000000000000000000000000067ffffffffffffffff16610b61610a2e565b610b6b91906112f6565b905090565b610b78610e02565b6001600160a01b038116610ba657604051631e4fbdf760e01b81525f60048201526024015b60405180910390fd5b61081a81610e2e565b60058181548110610bbe575f80fd5b905f5260205f209060209182820401919006915054906101000a900460ff1681565b5f610bea60015490565b610bf3426105ef565b610b6b919061133f565b5f610c06610a2e565b8267ffffffffffffffff161015610c1e57505f6105e9565b7f000000000000000000000000000000000000000000000000000000000000000067ffffffffffffffff16610c51610a2e565b610c5b91906112f6565b8267ffffffffffffffff161115610c735750816105e9565b5f610c7d83610fac565b90505f610c88611056565b9050610c9481836112f6565b925050506105e9565b6040516001600160a01b0383811660248301526044820183905261070191859182169063a9059cbb906064015b604051602081830303815290604052915060e01b6020820180516001600160e01b03838183161783525050505061110f565b61081a813361117b565b5f610d11838361091f565b610d90575f8381526003602090815260408083206001600160a01b03861684529091529020805460ff19166001179055610d483390565b6001600160a01b0316826001600160a01b0316847f2f8788117e7eff1d82e926ec794901d17c78024a50270940304540a733656f0d60405160405180910390a45060016105e9565b505f6105e9565b5f610da2838361091f565b15610d90575f8381526003602090815260408083206001600160a01b0386168085529252808320805460ff1916905551339286917ff6391f5c32d9c69d2a47ea670b442974b53935d1edc7fd64eb21e047a839171b9190a45060016105e9565b5f546001600160a01b031633146107175760405163118cdaa760e01b8152336004820152602401610b9d565b5f80546001600160a01b038381166001600160a01b0319831681178455604051919092169283917f8be0079c531659141344cd1fd0a4f28419497f9722a3daafe3b4186f6b6457e09190a35050565b80471015610ea75760405163cf47918160e01b815247600482015260248101829052604401610b9d565b5f826001600160a01b0316826040515f6040518083038185875af1925050503d805f8114610ef0576040519150601f19603f3d011682016040523d82523d5f602084013e610ef5565b606091505b50509050806107015760405163d6bda27560e01b815260040160405180910390fd5b5f80805b600454811015610f565760048181548110610f3857610f38611352565b905f5260205f20015482610f4c91906112f6565b9150600101610f1b565b505f610f60611056565b9050610f6c818361133f565b9250505090565b6040516001600160a01b0384811660248301528381166044830152606482018390526106c89186918216906323b872dd90608401610cca565b5f62ed4e00610fb9610a2e565b610fc391906112f6565b8267ffffffffffffffff161015610fdb57505f919050565b5f610fec6276a70062ed4e00611366565b90505f816276a70062ed4e00611000610a2e565b6110149067ffffffffffffffff891661133f565b61101e919061133f565b6110289190611366565b61103291906112f6565b90506008816006546110449190611385565b61104e9190611366565b949350505050565b5f807f0000000000000000000000000000000000000000000000000000000000000000600181111561108a5761108a611210565b1461109457505f90565b5f805b60045481101561110957600581815481106110b4576110b4611352565b905f5260205f2090602091828204019190069054906101000a900460ff161561110157600481815481106110ea576110ea611352565b905f5260205f200154826110fe91906112f6565b91505b600101611097565b50919050565b5f5f60205f8451602086015f885af18061112e576040513d5f823e3d81fd5b50505f513d91508115611145578060011415611152565b6001600160a01b0384163b155b156106c857604051635274afe760e01b81526001600160a01b0385166004820152602401610b9d565b611185828261091f565b6106a05760405163e2517d3f60e01b81526001600160a01b038216600482015260248101839052604401610b9d565b5f602082840312156111c4575f5ffd5b81356001600160e01b0319811681146107a5575f5ffd5b803567ffffffffffffffff811681146111f2575f5ffd5b919050565b5f60208284031215611207575f5ffd5b6107a5826111db565b634e487b7160e01b5f52602160045260245ffd5b602081016002831061124457634e487b7160e01b5f52602160045260245ffd5b91905290565b80356001600160a01b03811681146111f2575f5ffd5b5f60208284031215611270575f5ffd5b6107a58261124a565b5f60208284031215611289575f5ffd5b5035919050565b5f5f604083850312156112a1575f5ffd5b823591506112b16020840161124a565b90509250929050565b5f5f604083850312156112cb575f5ffd5b6112d48361124a565b91506112b1602084016111db565b634e487b7160e01b5f52601160045260245ffd5b808201808211156105e9576105e96112e2565b5f60208284031215611319575f5ffd5b5051919050565b5f60208284031215611330575f5ffd5b815180151581146107a5575f5ffd5b818103818111156105e9576105e96112e2565b634e487b7160e01b5f52603260045260245ffd5b5f8261138057634e487b7160e01b5f52601260045260245ffd5b500490565b80820281158282048414176105e9576105e96112e256fe55435dd261a4b9b3364963f7738a7a662ad9c84396d64be3365284bb7f0a5041a26469706673582212206c5170ace92c5c3126f37106dd572bb97b1b31803c7a1d49c3fab5e20eae2c1a64736f6c634300081b0033","linkReferences":{}},"methodIdentifiers":{"DEFAULT_ADMIN_ROLE()":"a217fddf","GUARDIAN_ROLE()":"24ea54f4","addNewGoal(uint256)":"aa5ef02b","duration()":"0fb5a6b4","end()":"efbe1c1c","getRoleAdmin(bytes32)":"248a9ca3","getVestingType()":"0e17454c","goalAmounts(uint256)":"c9514c9b","goalsReached(uint256)":"f8d870c8","grantRole(bytes32,address)":"2f2ff15d","hasRole(bytes32,address)":"91d14854","markGoalReached(uint256)":"c2a5b0be","owner()":"8da5cb5b","recallUnvestedTokens()":"88fb1502","releasable()":"fbccedae","releasable(address)":"a3f8eace","release()":"86d1a69f","release(address)":"19165587","released()":"96132521","released(address)":"9852595c","renounceOwnership()":"715018a6","renounceRole(bytes32,address)":"36568abe","revokeRole(bytes32,address)":"d547741f","start()":"be9a6555","supportsInterface(bytes4)":"01ffc9a7","timeBasedVestingAmount()":"33060944","token()":"fc0c546a","transferOwnership(address)":"f2fde38b","vestedAmount(address,uint64)":"810ec23b","vestedAmount(uint64)":"0a17b06b"},"id":142}