{"abi":[{"type":"constructor","inputs":[{"name":"name","type":"string","internalType":"string"},{"name":"symbol","type":"string","internalType":"string"}],"stateMutability":"nonpayable"},{"type":"function","name":"DOMAIN_SEPARATOR","inputs":[],"outputs":[{"name":"","type":"bytes32","internalType":"bytes32"}],"stateMutability":"pure"},{"type":"function","name":"addToWhitelist","inputs":[{"name":"","type":"address","internalType":"address"}],"outputs":[],"stateMutability":"pure"},{"type":"function","name":"allowance","inputs":[{"name":"owner","type":"address","internalType":"address"},{"name":"spender","type":"address","internalType":"address"}],"outputs":[{"name":"","type":"uint256","internalType":"uint256"}],"stateMutability":"view"},{"type":"function","name":"approve","inputs":[{"name":"spender","type":"address","internalType":"address"},{"name":"value","type":"uint256","internalType":"uint256"}],"outputs":[{"name":"","type":"bool","internalType":"bool"}],"stateMutability":"nonpayable"},{"type":"function","name":"balanceOf","inputs":[{"name":"account","type":"address","internalType":"address"}],"outputs":[{"name":"","type":"uint256","internalType":"uint256"}],"stateMutability":"view"},{"type":"function","name":"burn","inputs":[{"name":"value","type":"uint256","internalType":"uint256"}],"outputs":[],"stateMutability":"nonpayable"},{"type":"function","name":"burnFrom","inputs":[{"name":"account","type":"address","internalType":"address"},{"name":"value","type":"uint256","internalType":"uint256"}],"outputs":[],"stateMutability":"nonpayable"},{"type":"function","name":"createVestingWallet","inputs":[{"name":"","type":"address","internalType":"address"},{"name":"","type":"uint256","internalType":"uint256"},{"name":"","type":"uint256[]","internalType":"uint256[]"},{"name":"","type":"uint8","internalType":"enum ISummerVestingWallet.VestingType"}],"outputs":[],"stateMutability":"pure"},{"type":"function","name":"decayFunction","inputs":[],"outputs":[{"name":"","type":"uint8","internalType":"enum VotingDecayLibrary.DecayFunction"}],"stateMutability":"pure"},{"type":"function","name":"decayRatePerSecond","inputs":[],"outputs":[{"name":"","type":"uint256","internalType":"uint256"}],"stateMutability":"pure"},{"type":"function","name":"decimals","inputs":[],"outputs":[{"name":"","type":"uint8","internalType":"uint8"}],"stateMutability":"view"},{"type":"function","name":"delegate","inputs":[{"name":"","type":"address","internalType":"address"}],"outputs":[],"stateMutability":"pure"},{"type":"function","name":"delegateBySig","inputs":[{"name":"","type":"address","internalType":"address"},{"name":"","type":"uint256","internalType":"uint256"},{"name":"","type":"uint256","internalType":"uint256"},{"name":"","type":"uint8","internalType":"uint8"},{"name":"","type":"bytes32","internalType":"bytes32"},{"name":"","type":"bytes32","internalType":"bytes32"}],"outputs":[],"stateMutability":"pure"},{"type":"function","name":"delegates","inputs":[{"name":"","type":"address","internalType":"address"}],"outputs":[{"name":"","type":"address","internalType":"address"}],"stateMutability":"pure"},{"type":"function","name":"enableTransfers","inputs":[],"outputs":[],"stateMutability":"pure"},{"type":"function","name":"getDecayFactor","inputs":[{"name":"","type":"address","internalType":"address"}],"outputs":[{"name":"","type":"uint256","internalType":"uint256"}],"stateMutability":"pure"},{"type":"function","name":"getDecayFreeWindow","inputs":[],"outputs":[{"name":"","type":"uint40","internalType":"uint40"}],"stateMutability":"pure"},{"type":"function","name":"getDecayInfo","inputs":[{"name":"","type":"address","internalType":"address"}],"outputs":[{"name":"","type":"tuple","internalType":"struct VotingDecayLibrary.DecayInfo","components":[{"name":"decayFactor","type":"uint256","internalType":"uint256"},{"name":"lastUpdateTimestamp","type":"uint40","internalType":"uint40"}]}],"stateMutability":"pure"},{"type":"function","name":"getPastTotalSupply","inputs":[{"name":"","type":"uint256","internalType":"uint256"}],"outputs":[{"name":"","type":"uint256","internalType":"uint256"}],"stateMutability":"pure"},{"type":"function","name":"getPastVotes","inputs":[{"name":"","type":"address","internalType":"address"},{"name":"","type":"uint256","internalType":"uint256"}],"outputs":[{"name":"","type":"uint256","internalType":"uint256"}],"stateMutability":"pure"},{"type":"function","name":"getVotes","inputs":[{"name":"","type":"address","internalType":"address"}],"outputs":[{"name":"","type":"uint256","internalType":"uint256"}],"stateMutability":"pure"},{"type":"function","name":"getVotingPower","inputs":[{"name":"","type":"address","internalType":"address"},{"name":"","type":"uint256","internalType":"uint256"}],"outputs":[{"name":"","type":"uint256","internalType":"uint256"}],"stateMutability":"pure"},{"type":"function","name":"mint","inputs":[{"name":"to","type":"address","internalType":"address"},{"name":"amount","type":"uint256","internalType":"uint256"}],"outputs":[],"stateMutability":"nonpayable"},{"type":"function","name":"name","inputs":[],"outputs":[{"name":"","type":"string","internalType":"string"}],"stateMutability":"view"},{"type":"function","name":"nonces","inputs":[{"name":"","type":"address","internalType":"address"}],"outputs":[{"name":"","type":"uint256","internalType":"uint256"}],"stateMutability":"pure"},{"type":"function","name":"permit","inputs":[{"name":"","type":"address","internalType":"address"},{"name":"","type":"address","internalType":"address"},{"name":"","type":"uint256","internalType":"uint256"},{"name":"","type":"uint256","internalType":"uint256"},{"name":"","type":"uint8","internalType":"uint8"},{"name":"","type":"bytes32","internalType":"bytes32"},{"name":"","type":"bytes32","internalType":"bytes32"}],"outputs":[],"stateMutability":"pure"},{"type":"function","name":"removeFromWhitelist","inputs":[{"name":"","type":"address","internalType":"address"}],"outputs":[],"stateMutability":"pure"},{"type":"function","name":"rewardsManager","inputs":[],"outputs":[{"name":"","type":"address","internalType":"contract IGovernanceRewardsManager"}],"stateMutability":"pure"},{"type":"function","name":"setDecayFreeWindow","inputs":[{"name":"","type":"uint40","internalType":"uint40"}],"outputs":[],"stateMutability":"pure"},{"type":"function","name":"setDecayFunction","inputs":[{"name":"","type":"uint8","internalType":"enum VotingDecayLibrary.DecayFunction"}],"outputs":[],"stateMutability":"pure"},{"type":"function","name":"setDecayManager","inputs":[{"name":"","type":"address","internalType":"address"},{"name":"","type":"bool","internalType":"bool"}],"outputs":[],"stateMutability":"pure"},{"type":"function","name":"setDecayRatePerSecond","inputs":[{"name":"","type":"uint256","internalType":"uint256"}],"outputs":[],"stateMutability":"pure"},{"type":"function","name":"setGovernor","inputs":[{"name":"","type":"address","internalType":"address"}],"outputs":[],"stateMutability":"pure"},{"type":"function","name":"symbol","inputs":[],"outputs":[{"name":"","type":"string","internalType":"string"}],"stateMutability":"view"},{"type":"function","name":"testSkipper","inputs":[],"outputs":[],"stateMutability":"pure"},{"type":"function","name":"totalSupply","inputs":[],"outputs":[{"name":"","type":"uint256","internalType":"uint256"}],"stateMutability":"view"},{"type":"function","name":"transfer","inputs":[{"name":"to","type":"address","internalType":"address"},{"name":"value","type":"uint256","internalType":"uint256"}],"outputs":[{"name":"","type":"bool","internalType":"bool"}],"stateMutability":"nonpayable"},{"type":"function","name":"transferFrom","inputs":[{"name":"from","type":"address","internalType":"address"},{"name":"to","type":"address","internalType":"address"},{"name":"value","type":"uint256","internalType":"uint256"}],"outputs":[{"name":"","type":"bool","internalType":"bool"}],"stateMutability":"nonpayable"},{"type":"function","name":"updateDecayFactor","inputs":[{"name":"","type":"address","internalType":"address"}],"outputs":[],"stateMutability":"pure"},{"type":"event","name":"AddressRemovedFromWhitelist","inputs":[{"name":"account","type":"address","indexed":true,"internalType":"address"}],"anonymous":false},{"type":"event","name":"AddressWhitelisted","inputs":[{"name":"account","type":"address","indexed":true,"internalType":"address"}],"anonymous":false},{"type":"event","name":"Approval","inputs":[{"name":"owner","type":"address","indexed":true,"internalType":"address"},{"name":"spender","type":"address","indexed":true,"internalType":"address"},{"name":"value","type":"uint256","indexed":false,"internalType":"uint256"}],"anonymous":false},{"type":"event","name":"DelegateChanged","inputs":[{"name":"delegator","type":"address","indexed":true,"internalType":"address"},{"name":"fromDelegate","type":"address","indexed":true,"internalType":"address"},{"name":"toDelegate","type":"address","indexed":true,"internalType":"address"}],"anonymous":false},{"type":"event","name":"DelegateVotesChanged","inputs":[{"name":"delegate","type":"address","indexed":true,"internalType":"address"},{"name":"previousVotes","type":"uint256","indexed":false,"internalType":"uint256"},{"name":"newVotes","type":"uint256","indexed":false,"internalType":"uint256"}],"anonymous":false},{"type":"event","name":"Transfer","inputs":[{"name":"from","type":"address","indexed":true,"internalType":"address"},{"name":"to","type":"address","indexed":true,"internalType":"address"},{"name":"value","type":"uint256","indexed":false,"internalType":"uint256"}],"anonymous":false},{"type":"event","name":"TransfersEnabled","inputs":[],"anonymous":false},{"type":"error","name":"CallerIsNotAuthorized","inputs":[{"name":"caller","type":"address","internalType":"address"}]},{"type":"error","name":"CallerIsNotDecayManager","inputs":[{"name":"caller","type":"address","internalType":"address"}]},{"type":"error","name":"ERC20InsufficientAllowance","inputs":[{"name":"spender","type":"address","internalType":"address"},{"name":"allowance","type":"uint256","internalType":"uint256"},{"name":"needed","type":"uint256","internalType":"uint256"}]},{"type":"error","name":"ERC20InsufficientBalance","inputs":[{"name":"sender","type":"address","internalType":"address"},{"name":"balance","type":"uint256","internalType":"uint256"},{"name":"needed","type":"uint256","internalType":"uint256"}]},{"type":"error","name":"ERC20InvalidApprover","inputs":[{"name":"approver","type":"address","internalType":"address"}]},{"type":"error","name":"ERC20InvalidReceiver","inputs":[{"name":"receiver","type":"address","internalType":"address"}]},{"type":"error","name":"ERC20InvalidSender","inputs":[{"name":"sender","type":"address","internalType":"address"}]},{"type":"error","name":"ERC20InvalidSpender","inputs":[{"name":"spender","type":"address","internalType":"address"}]},{"type":"error","name":"InvalidVestingType","inputs":[{"name":"invalidType","type":"uint8","internalType":"enum ISummerVestingWallet.VestingType"}]},{"type":"error","name":"TransferNotAllowed","inputs":[]},{"type":"error","name":"TransfersAlreadyEnabled","inputs":[]},{"type":"error","name":"TransfersCannotBeEnabledYet","inputs":[]},{"type":"error","name":"VotesExpiredSignature","inputs":[{"name":"expiry","type":"uint256","internalType":"uint256"}]}],"bytecode":{"object":"0x608060405234801561000f575f5ffd5b5060405161135a38038061135a83398101604081905261002e91610288565b8181600361003c8382610371565b5060046100498282610371565b50505061007c3361005e61008360201b60201c565b61006990600a610524565b61007790633b9aca00610539565b610088565b5050610563565b601290565b6001600160a01b0382166100b65760405163ec442f0560e01b81525f60048201526024015b60405180910390fd5b6100c15f83836100c5565b5050565b6001600160a01b0383166100ef578060025f8282546100e49190610550565b9091555061015f9050565b6001600160a01b0383165f90815260208190526040902054818110156101415760405163391434e360e21b81526001600160a01b038516600482015260248101829052604481018390526064016100ad565b6001600160a01b0384165f9081526020819052604090209082900390555b6001600160a01b03821661017b57600280548290039055610199565b6001600160a01b0382165f9081526020819052604090208054820190555b816001600160a01b0316836001600160a01b03167fddf252ad1be2c89b69c2b068fc378daa952ba7f163c4a11628f55a4df523b3ef836040516101de91815260200190565b60405180910390a3505050565b634e487b7160e01b5f52604160045260245ffd5b5f82601f83011261020e575f5ffd5b81516001600160401b03811115610227576102276101eb565b604051601f8201601f19908116603f011681016001600160401b0381118282101715610255576102556101eb565b60405281815283820160200185101561026c575f5ffd5b8160208501602083015e5f918101602001919091529392505050565b5f5f60408385031215610299575f5ffd5b82516001600160401b038111156102ae575f5ffd5b6102ba858286016101ff565b602085015190935090506001600160401b038111156102d7575f5ffd5b6102e3858286016101ff565b9150509250929050565b600181811c9082168061030157607f821691505b60208210810361031f57634e487b7160e01b5f52602260045260245ffd5b50919050565b601f82111561036c57805f5260205f20601f840160051c8101602085101561034a5750805b601f840160051c820191505b81811015610369575f8155600101610356565b50505b505050565b81516001600160401b0381111561038a5761038a6101eb565b61039e8161039884546102ed565b84610325565b6020601f8211600181146103d0575f83156103b95750848201515b5f19600385901b1c1916600184901b178455610369565b5f84815260208120601f198516915b828110156103ff57878501518255602094850194600190920191016103df565b508482101561041c57868401515f19600387901b60f8161c191681555b50505050600190811b01905550565b634e487b7160e01b5f52601160045260245ffd5b6001815b600184111561047a5780850481111561045e5761045e61042b565b600184161561046c57908102905b60019390931c928002610443565b935093915050565b5f826104905750600161051e565b8161049c57505f61051e565b81600181146104b257600281146104bc576104d8565b600191505061051e565b60ff8411156104cd576104cd61042b565b50506001821b61051e565b5060208310610133831016604e8410600b84101617156104fb575081810a61051e565b6105075f19848461043f565b805f190482111561051a5761051a61042b565b0290505b92915050565b5f61053260ff841683610482565b9392505050565b808202811582820484141761051e5761051e61042b565b8082018082111561051e5761051e61042b565b610dea806105705f395ff3fe608060405234801561000f575f5ffd5b5060043610610234575f3560e01c80638ff400f411610135578063cfe081d1116100b4578063e0cf01ae11610079578063e0cf01ae14610481578063e43252d714610333578063ea4ebdca1461048f578063f56a47a5146104ad578063f92a5af5146102c2575f5ffd5b8063cfe081d1146103f0578063d505accf146103fe578063da396c291461040c578063dd62ed3e14610441578063defe205314610479575f5ffd5b8063a9059cbb116100fa578063a9059cbb146103c1578063af35c6c71461032b578063b08be34c146103d4578063c3cda520146103e2578063c42cf53514610333575f5ffd5b80638ff400f4146102ca57806392a525d51461039d57806392f1d24f146103ab57806395d89b41146103b95780639ab24eb014610381575f5ffd5b806342966c68116101c157806379cc67901161018657806379cc67901461036e5780637c930dde146103335780637ecebe00146103815780638ab1d681146103335780638e539e8c1461038f575f5ffd5b806342966c68146102f2578063587cde1e146103055780635a77606b1461032b5780635c19a95c1461033357806370a0823114610346575f5ffd5b806323b872dd1161020757806323b872dd146102a0578063313ce567146102b35780633644e515146102c25780633a46b1a8146102ca57806340c10f19146102dd575f5ffd5b806306fdde0314610238578063095ea7b31461025657806315177f911461027957806318160ddd1461028e575b5f5ffd5b6102406104c8565b60405161024d91906109bd565b60405180910390f35b610269610264366004610a0d565b610558565b604051901515815260200161024d565b610281610571565b60405161024d9190610a35565b6002545b60405190815260200161024d565b6102696102ae366004610a5b565b6105b2565b6040516012815260200161024d565b610292610571565b6102926102d8366004610a0d565b610571565b6102f06102eb366004610a0d565b6105d5565b005b6102f0610300366004610a95565b6105e3565b6103136102d8366004610aac565b6040516001600160a01b03909116815260200161024d565b6102f06105f0565b6102f0610341366004610aac565b6105f0565b610292610354366004610aac565b6001600160a01b03165f9081526020819052604090205490565b6102f061037c366004610a0d565b61062a565b6102926102d8366004610aac565b6102926102d8366004610a95565b6102f0610341366004610acc565b6102f0610341366004610b1b565b61024061063f565b6102696103cf366004610a0d565b61064e565b6102f0610341366004610c0e565b6102f0610341366004610c57565b6102f0610341366004610a95565b6102f0610341366004610cab565b61041f61041a366004610aac565b61065b565b604080518251815260209283015164ffffffffff16928101929092520161024d565b61029261044f366004610d11565b6001600160a01b039182165f90815260016020908152604080832093909416825291909152205490565b610313610571565b6102f0610341366004610d42565b610497610571565b60405164ffffffffff909116815260200161024d565b6102926104bb366004610aac565b50670de0b6b3a764000090565b6060600380546104d790610d5d565b80601f016020809104026020016040519081016040528092919081815260200182805461050390610d5d565b801561054e5780601f106105255761010080835404028352916020019161054e565b820191905f5260205f20905b81548152906001019060200180831161053157829003601f168201915b5050505050905090565b5f33610565818585610673565b60019150505b92915050565b60405162461bcd60e51b815260206004820152600f60248201526e139bdd081a5b5c1b195b595b9d1959608a1b60448201525f906064015b60405180910390fd5b5f336105bf858285610685565b6105ca858585610700565b506001949350505050565b6105df828261075d565b5050565b6105ed3382610791565b50565b60405162461bcd60e51b815260206004820152600f60248201526e139bdd081a5b5c1b195b595b9d1959608a1b60448201526064016105a9565b610635823383610685565b6105df8282610791565b6060600480546104d790610d5d565b5f33610565818585610700565b604080518082019091525f80825260208201526105f0565b61068083838360016107c5565b505050565b6001600160a01b038381165f908152600160209081526040808320938616835292905220545f1981146106fa57818110156106ec57604051637dc7a0d960e11b81526001600160a01b038416600482015260248101829052604481018390526064016105a9565b6106fa84848484035f6107c5565b50505050565b6001600160a01b03831661072957604051634b637e8f60e11b81525f60048201526024016105a9565b6001600160a01b0382166107525760405163ec442f0560e01b81525f60048201526024016105a9565b610680838383610897565b6001600160a01b0382166107865760405163ec442f0560e01b81525f60048201526024016105a9565b6105df5f8383610897565b6001600160a01b0382166107ba57604051634b637e8f60e11b81525f60048201526024016105a9565b6105df825f83610897565b6001600160a01b0384166107ee5760405163e602df0560e01b81525f60048201526024016105a9565b6001600160a01b03831661081757604051634a1406b160e11b81525f60048201526024016105a9565b6001600160a01b038085165f90815260016020908152604080832093871683529290522082905580156106fa57826001600160a01b0316846001600160a01b03167f8c5be1e5ebec7d5bd14f71427d1e84f3dd0314c0f7b2291e5b200ac8c7c3b9258460405161088991815260200190565b60405180910390a350505050565b6001600160a01b0383166108c1578060025f8282546108b69190610d95565b909155506109319050565b6001600160a01b0383165f90815260208190526040902054818110156109135760405163391434e360e21b81526001600160a01b038516600482015260248101829052604481018390526064016105a9565b6001600160a01b0384165f9081526020819052604090209082900390555b6001600160a01b03821661094d5760028054829003905561096b565b6001600160a01b0382165f9081526020819052604090208054820190555b816001600160a01b0316836001600160a01b03167fddf252ad1be2c89b69c2b068fc378daa952ba7f163c4a11628f55a4df523b3ef836040516109b091815260200190565b60405180910390a3505050565b602081525f82518060208401528060208501604085015e5f604082850101526040601f19601f83011684010191505092915050565b80356001600160a01b0381168114610a08575f5ffd5b919050565b5f5f60408385031215610a1e575f5ffd5b610a27836109f2565b946020939093013593505050565b6020810160028310610a5557634e487b7160e01b5f52602160045260245ffd5b91905290565b5f5f5f60608486031215610a6d575f5ffd5b610a76846109f2565b9250610a84602085016109f2565b929592945050506040919091013590565b5f60208284031215610aa5575f5ffd5b5035919050565b5f60208284031215610abc575f5ffd5b610ac5826109f2565b9392505050565b5f60208284031215610adc575f5ffd5b813564ffffffffff81168114610ac5575f5ffd5b634e487b7160e01b5f52604160045260245ffd5b600281106105ed575f5ffd5b8035610a0881610b04565b5f5f5f5f60808587031215610b2e575f5ffd5b610b37856109f2565b935060208501359250604085013567ffffffffffffffff811115610b59575f5ffd5b8501601f81018713610b69575f5ffd5b803567ffffffffffffffff811115610b8357610b83610af0565b8060051b604051601f19603f830116810181811067ffffffffffffffff82111715610bb057610bb0610af0565b60405291825260208184018101929081018a841115610bcd575f5ffd5b6020850194505b83851015610bf057843580825260209586019590935001610bd4565b509450610c039250505060608601610b10565b905092959194509250565b5f5f60408385031215610c1f575f5ffd5b610c28836109f2565b915060208301358015158114610c3c575f5ffd5b809150509250929050565b803560ff81168114610a08575f5ffd5b5f5f5f5f5f5f60c08789031215610c6c575f5ffd5b610c75876109f2565b95506020870135945060408701359350610c9160608801610c47565b9598949750929560808101359460a0909101359350915050565b5f5f5f5f5f5f5f60e0888a031215610cc1575f5ffd5b610cca886109f2565b9650610cd8602089016109f2565b95506040880135945060608801359350610cf460808901610c47565b9699959850939692959460a0840135945060c09093013592915050565b5f5f60408385031215610d22575f5ffd5b610d2b836109f2565b9150610d39602084016109f2565b90509250929050565b5f60208284031215610d52575f5ffd5b8135610ac581610b04565b600181811c90821680610d7157607f821691505b602082108103610d8f57634e487b7160e01b5f52602260045260245ffd5b50919050565b8082018082111561056b57634e487b7160e01b5f52601160045260245ffdfea26469706673582212209fda3f254521af7ae2b0c8efc3c3caa0371ef9fec467744d0b0354e93c7ac2bc64736f6c634300081c0033","linkReferences":{}},"methodIdentifiers":{"DOMAIN_SEPARATOR()":"3644e515","addToWhitelist(address)":"e43252d7","allowance(address,address)":"dd62ed3e","approve(address,uint256)":"095ea7b3","balanceOf(address)":"70a08231","burn(uint256)":"42966c68","burnFrom(address,uint256)":"79cc6790","createVestingWallet(address,uint256,uint256[],uint8)":"92f1d24f","decayFunction()":"15177f91","decayRatePerSecond()":"f92a5af5","decimals()":"313ce567","delegate(address)":"5c19a95c","delegateBySig(address,uint256,uint256,uint8,bytes32,bytes32)":"c3cda520","delegates(address)":"587cde1e","enableTransfers()":"af35c6c7","getDecayFactor(address)":"f56a47a5","getDecayFreeWindow()":"ea4ebdca","getDecayInfo(address)":"da396c29","getPastTotalSupply(uint256)":"8e539e8c","getPastVotes(address,uint256)":"3a46b1a8","getVotes(address)":"9ab24eb0","getVotingPower(address,uint256)":"8ff400f4","mint(address,uint256)":"40c10f19","name()":"06fdde03","nonces(address)":"7ecebe00","permit(address,address,uint256,uint256,uint8,bytes32,bytes32)":"d505accf","removeFromWhitelist(address)":"8ab1d681","rewardsManager()":"defe2053","setDecayFreeWindow(uint40)":"92a525d5","setDecayFunction(uint8)":"e0cf01ae","setDecayManager(address,bool)":"b08be34c","setDecayRatePerSecond(uint256)":"cfe081d1","setGovernor(address)":"c42cf535","symbol()":"95d89b41","testSkipper()":"5a77606b","totalSupply()":"18160ddd","transfer(address,uint256)":"a9059cbb","transferFrom(address,address,uint256)":"23b872dd","updateDecayFactor(address)":"7c930dde"},"id":326}