{"abi":[{"type":"constructor","inputs":[{"name":"name","type":"string","internalType":"string"},{"name":"symbol","type":"string","internalType":"string"}],"stateMutability":"nonpayable"},{"type":"function","name":"DOMAIN_SEPARATOR","inputs":[],"outputs":[{"name":"","type":"bytes32","internalType":"bytes32"}],"stateMutability":"pure"},{"type":"function","name":"addToWhitelist","inputs":[{"name":"","type":"address","internalType":"address"}],"outputs":[],"stateMutability":"pure"},{"type":"function","name":"allowance","inputs":[{"name":"owner","type":"address","internalType":"address"},{"name":"spender","type":"address","internalType":"address"}],"outputs":[{"name":"","type":"uint256","internalType":"uint256"}],"stateMutability":"view"},{"type":"function","name":"approve","inputs":[{"name":"spender","type":"address","internalType":"address"},{"name":"value","type":"uint256","internalType":"uint256"}],"outputs":[{"name":"","type":"bool","internalType":"bool"}],"stateMutability":"nonpayable"},{"type":"function","name":"balanceOf","inputs":[{"name":"account","type":"address","internalType":"address"}],"outputs":[{"name":"","type":"uint256","internalType":"uint256"}],"stateMutability":"view"},{"type":"function","name":"burn","inputs":[{"name":"value","type":"uint256","internalType":"uint256"}],"outputs":[],"stateMutability":"nonpayable"},{"type":"function","name":"burnFrom","inputs":[{"name":"account","type":"address","internalType":"address"},{"name":"value","type":"uint256","internalType":"uint256"}],"outputs":[],"stateMutability":"nonpayable"},{"type":"function","name":"createVestingWallet","inputs":[{"name":"","type":"address","internalType":"address"},{"name":"","type":"uint256","internalType":"uint256"},{"name":"","type":"uint256[]","internalType":"uint256[]"},{"name":"","type":"uint8","internalType":"enum ISummerVestingWallet.VestingType"}],"outputs":[],"stateMutability":"pure"},{"type":"function","name":"decayFunction","inputs":[],"outputs":[{"name":"","type":"uint8","internalType":"enum VotingDecayLibrary.DecayFunction"}],"stateMutability":"pure"},{"type":"function","name":"decayRatePerSecond","inputs":[],"outputs":[{"name":"","type":"uint256","internalType":"uint256"}],"stateMutability":"pure"},{"type":"function","name":"decimals","inputs":[],"outputs":[{"name":"","type":"uint8","internalType":"uint8"}],"stateMutability":"view"},{"type":"function","name":"enableTransfers","inputs":[],"outputs":[],"stateMutability":"pure"},{"type":"function","name":"getDecayFactor","inputs":[{"name":"","type":"address","internalType":"address"}],"outputs":[{"name":"","type":"uint256","internalType":"uint256"}],"stateMutability":"pure"},{"type":"function","name":"getDecayFreeWindow","inputs":[],"outputs":[{"name":"","type":"uint40","internalType":"uint40"}],"stateMutability":"pure"},{"type":"function","name":"getDecayInfo","inputs":[{"name":"","type":"address","internalType":"address"}],"outputs":[{"name":"","type":"tuple","internalType":"struct VotingDecayLibrary.DecayInfo","components":[{"name":"decayFactor","type":"uint256","internalType":"uint256"},{"name":"lastUpdateTimestamp","type":"uint40","internalType":"uint40"}]}],"stateMutability":"pure"},{"type":"function","name":"getVotes","inputs":[{"name":"","type":"address","internalType":"address"}],"outputs":[{"name":"","type":"uint256","internalType":"uint256"}],"stateMutability":"pure"},{"type":"function","name":"getVotingPower","inputs":[{"name":"","type":"address","internalType":"address"},{"name":"","type":"uint256","internalType":"uint256"}],"outputs":[{"name":"","type":"uint256","internalType":"uint256"}],"stateMutability":"pure"},{"type":"function","name":"mint","inputs":[{"name":"to","type":"address","internalType":"address"},{"name":"amount","type":"uint256","internalType":"uint256"}],"outputs":[],"stateMutability":"nonpayable"},{"type":"function","name":"name","inputs":[],"outputs":[{"name":"","type":"string","internalType":"string"}],"stateMutability":"view"},{"type":"function","name":"nonces","inputs":[{"name":"","type":"address","internalType":"address"}],"outputs":[{"name":"","type":"uint256","internalType":"uint256"}],"stateMutability":"pure"},{"type":"function","name":"permit","inputs":[{"name":"","type":"address","internalType":"address"},{"name":"","type":"address","internalType":"address"},{"name":"","type":"uint256","internalType":"uint256"},{"name":"","type":"uint256","internalType":"uint256"},{"name":"","type":"uint8","internalType":"uint8"},{"name":"","type":"bytes32","internalType":"bytes32"},{"name":"","type":"bytes32","internalType":"bytes32"}],"outputs":[],"stateMutability":"pure"},{"type":"function","name":"removeFromWhitelist","inputs":[{"name":"","type":"address","internalType":"address"}],"outputs":[],"stateMutability":"pure"},{"type":"function","name":"setDecayFreeWindow","inputs":[{"name":"","type":"uint40","internalType":"uint40"}],"outputs":[],"stateMutability":"pure"},{"type":"function","name":"setDecayFunction","inputs":[{"name":"","type":"uint8","internalType":"enum VotingDecayLibrary.DecayFunction"}],"outputs":[],"stateMutability":"pure"},{"type":"function","name":"setDecayManager","inputs":[{"name":"","type":"address","internalType":"address"},{"name":"","type":"bool","internalType":"bool"}],"outputs":[],"stateMutability":"pure"},{"type":"function","name":"setDecayRatePerSecond","inputs":[{"name":"","type":"uint256","internalType":"uint256"}],"outputs":[],"stateMutability":"pure"},{"type":"function","name":"setGovernor","inputs":[{"name":"","type":"address","internalType":"address"}],"outputs":[],"stateMutability":"pure"},{"type":"function","name":"symbol","inputs":[],"outputs":[{"name":"","type":"string","internalType":"string"}],"stateMutability":"view"},{"type":"function","name":"testSkipper","inputs":[],"outputs":[],"stateMutability":"pure"},{"type":"function","name":"totalSupply","inputs":[],"outputs":[{"name":"","type":"uint256","internalType":"uint256"}],"stateMutability":"view"},{"type":"function","name":"transfer","inputs":[{"name":"to","type":"address","internalType":"address"},{"name":"value","type":"uint256","internalType":"uint256"}],"outputs":[{"name":"","type":"bool","internalType":"bool"}],"stateMutability":"nonpayable"},{"type":"function","name":"transferFrom","inputs":[{"name":"from","type":"address","internalType":"address"},{"name":"to","type":"address","internalType":"address"},{"name":"value","type":"uint256","internalType":"uint256"}],"outputs":[{"name":"","type":"bool","internalType":"bool"}],"stateMutability":"nonpayable"},{"type":"function","name":"updateDecayFactor","inputs":[{"name":"","type":"address","internalType":"address"}],"outputs":[],"stateMutability":"pure"},{"type":"event","name":"AddressRemovedFromWhitelist","inputs":[{"name":"account","type":"address","indexed":true,"internalType":"address"}],"anonymous":false},{"type":"event","name":"AddressWhitelisted","inputs":[{"name":"account","type":"address","indexed":true,"internalType":"address"}],"anonymous":false},{"type":"event","name":"Approval","inputs":[{"name":"owner","type":"address","indexed":true,"internalType":"address"},{"name":"spender","type":"address","indexed":true,"internalType":"address"},{"name":"value","type":"uint256","indexed":false,"internalType":"uint256"}],"anonymous":false},{"type":"event","name":"Transfer","inputs":[{"name":"from","type":"address","indexed":true,"internalType":"address"},{"name":"to","type":"address","indexed":true,"internalType":"address"},{"name":"value","type":"uint256","indexed":false,"internalType":"uint256"}],"anonymous":false},{"type":"event","name":"TransfersEnabled","inputs":[],"anonymous":false},{"type":"error","name":"CallerIsNotAuthorized","inputs":[{"name":"caller","type":"address","internalType":"address"}]},{"type":"error","name":"CallerIsNotDecayManager","inputs":[{"name":"caller","type":"address","internalType":"address"}]},{"type":"error","name":"ERC20InsufficientAllowance","inputs":[{"name":"spender","type":"address","internalType":"address"},{"name":"allowance","type":"uint256","internalType":"uint256"},{"name":"needed","type":"uint256","internalType":"uint256"}]},{"type":"error","name":"ERC20InsufficientBalance","inputs":[{"name":"sender","type":"address","internalType":"address"},{"name":"balance","type":"uint256","internalType":"uint256"},{"name":"needed","type":"uint256","internalType":"uint256"}]},{"type":"error","name":"ERC20InvalidApprover","inputs":[{"name":"approver","type":"address","internalType":"address"}]},{"type":"error","name":"ERC20InvalidReceiver","inputs":[{"name":"receiver","type":"address","internalType":"address"}]},{"type":"error","name":"ERC20InvalidSender","inputs":[{"name":"sender","type":"address","internalType":"address"}]},{"type":"error","name":"ERC20InvalidSpender","inputs":[{"name":"spender","type":"address","internalType":"address"}]},{"type":"error","name":"InvalidVestingType","inputs":[{"name":"invalidType","type":"uint8","internalType":"enum ISummerVestingWallet.VestingType"}]},{"type":"error","name":"TransferNotAllowed","inputs":[]},{"type":"error","name":"TransfersAlreadyEnabled","inputs":[]},{"type":"error","name":"TransfersCannotBeEnabledYet","inputs":[]}],"bytecode":{"object":"0x608060405234801561000f575f5ffd5b5060405161127138038061127183398101604081905261002e91610288565b8181600361003c8382610371565b5060046100498282610371565b50505061007c3361005e61008360201b60201c565b61006990600a610524565b61007790633b9aca00610539565b610088565b5050610563565b601290565b6001600160a01b0382166100b65760405163ec442f0560e01b81525f60048201526024015b60405180910390fd5b6100c15f83836100c5565b5050565b6001600160a01b0383166100ef578060025f8282546100e49190610550565b9091555061015f9050565b6001600160a01b0383165f90815260208190526040902054818110156101415760405163391434e360e21b81526001600160a01b038516600482015260248101829052604481018390526064016100ad565b6001600160a01b0384165f9081526020819052604090209082900390555b6001600160a01b03821661017b57600280548290039055610199565b6001600160a01b0382165f9081526020819052604090208054820190555b816001600160a01b0316836001600160a01b03167fddf252ad1be2c89b69c2b068fc378daa952ba7f163c4a11628f55a4df523b3ef836040516101de91815260200190565b60405180910390a3505050565b634e487b7160e01b5f52604160045260245ffd5b5f82601f83011261020e575f5ffd5b81516001600160401b03811115610227576102276101eb565b604051601f8201601f19908116603f011681016001600160401b0381118282101715610255576102556101eb565b60405281815283820160200185101561026c575f5ffd5b8160208501602083015e5f918101602001919091529392505050565b5f5f60408385031215610299575f5ffd5b82516001600160401b038111156102ae575f5ffd5b6102ba858286016101ff565b602085015190935090506001600160401b038111156102d7575f5ffd5b6102e3858286016101ff565b9150509250929050565b600181811c9082168061030157607f821691505b60208210810361031f57634e487b7160e01b5f52602260045260245ffd5b50919050565b601f82111561036c57805f5260205f20601f840160051c8101602085101561034a5750805b601f840160051c820191505b81811015610369575f8155600101610356565b50505b505050565b81516001600160401b0381111561038a5761038a6101eb565b61039e8161039884546102ed565b84610325565b6020601f8211600181146103d0575f83156103b95750848201515b5f19600385901b1c1916600184901b178455610369565b5f84815260208120601f198516915b828110156103ff57878501518255602094850194600190920191016103df565b508482101561041c57868401515f19600387901b60f8161c191681555b50505050600190811b01905550565b634e487b7160e01b5f52601160045260245ffd5b6001815b600184111561047a5780850481111561045e5761045e61042b565b600184161561046c57908102905b60019390931c928002610443565b935093915050565b5f826104905750600161051e565b8161049c57505f61051e565b81600181146104b257600281146104bc576104d8565b600191505061051e565b60ff8411156104cd576104cd61042b565b50506001821b61051e565b5060208310610133831016604e8410600b84101617156104fb575081810a61051e565b6105075f19848461043f565b805f190482111561051a5761051a61042b565b0290505b92915050565b5f61053260ff841683610482565b9392505050565b808202811582820484141761051e5761051e61042b565b8082018082111561051e5761051e61042b565b610d01806105705f395ff3fe608060405234801561000f575f5ffd5b50600436106101f2575f3560e01c806392a525d511610114578063cfe081d1116100a9578063e0cf01ae11610079578063e0cf01ae146103f5578063e43252d7146102f3578063ea4ebdca14610403578063f56a47a514610421578063f92a5af514610280575f5ffd5b8063cfe081d11461036c578063d505accf1461037a578063da396c2914610388578063dd62ed3e146103bd575f5ffd5b8063a9059cbb116100e4578063a9059cbb1461034b578063af35c6c7146102b0578063b08be34c1461035e578063c42cf535146102f3575f5ffd5b806392a525d51461032757806392f1d24f1461033557806395d89b41146103435780639ab24eb014610306575f5ffd5b806342966c681161018a5780637c930dde1161015a5780637c930dde146102f35780637ecebe00146103065780638ab1d681146102f35780638ff400f414610319575f5ffd5b806342966c681461029d5780635a77606b146102b057806370a08231146102b857806379cc6790146102e0575f5ffd5b806323b872dd116101c557806323b872dd1461025e578063313ce567146102715780633644e5151461028057806340c10f1914610288575f5ffd5b806306fdde03146101f6578063095ea7b31461021457806315177f911461023757806318160ddd1461024c575b5f5ffd5b6101fe61043c565b60405161020b9190610931565b60405180910390f35b610227610222366004610981565b6104cc565b604051901515815260200161020b565b61023f6104e5565b60405161020b91906109a9565b6002545b60405190815260200161020b565b61022761026c3660046109cf565b610526565b6040516012815260200161020b565b6102506104e5565b61029b610296366004610981565b610549565b005b61029b6102ab366004610a09565b610557565b61029b610564565b6102506102c6366004610a20565b6001600160a01b03165f9081526020819052604090205490565b61029b6102ee366004610981565b61059e565b61029b610301366004610a20565b610564565b610250610314366004610a20565b6104e5565b610250610314366004610981565b61029b610301366004610a40565b61029b610301366004610a8f565b6101fe6105b3565b610227610359366004610981565b6105c2565b61029b610301366004610b82565b61029b610301366004610a09565b61029b610301366004610bbb565b61039b610396366004610a20565b6105cf565b604080518251815260209283015164ffffffffff16928101929092520161020b565b6102506103cb366004610c28565b6001600160a01b039182165f90815260016020908152604080832093909416825291909152205490565b61029b610301366004610c59565b61040b6104e5565b60405164ffffffffff909116815260200161020b565b61025061042f366004610a20565b50670de0b6b3a764000090565b60606003805461044b90610c74565b80601f016020809104026020016040519081016040528092919081815260200182805461047790610c74565b80156104c25780601f10610499576101008083540402835291602001916104c2565b820191905f5260205f20905b8154815290600101906020018083116104a557829003601f168201915b5050505050905090565b5f336104d98185856105e7565b60019150505b92915050565b60405162461bcd60e51b815260206004820152600f60248201526e139bdd081a5b5c1b195b595b9d1959608a1b60448201525f906064015b60405180910390fd5b5f336105338582856105f9565b61053e858585610674565b506001949350505050565b61055382826106d1565b5050565b6105613382610705565b50565b60405162461bcd60e51b815260206004820152600f60248201526e139bdd081a5b5c1b195b595b9d1959608a1b604482015260640161051d565b6105a98233836105f9565b6105538282610705565b60606004805461044b90610c74565b5f336104d9818585610674565b604080518082019091525f8082526020820152610564565b6105f48383836001610739565b505050565b6001600160a01b038381165f908152600160209081526040808320938616835292905220545f19811461066e578181101561066057604051637dc7a0d960e11b81526001600160a01b0384166004820152602481018290526044810183905260640161051d565b61066e84848484035f610739565b50505050565b6001600160a01b03831661069d57604051634b637e8f60e11b81525f600482015260240161051d565b6001600160a01b0382166106c65760405163ec442f0560e01b81525f600482015260240161051d565b6105f483838361080b565b6001600160a01b0382166106fa5760405163ec442f0560e01b81525f600482015260240161051d565b6105535f838361080b565b6001600160a01b03821661072e57604051634b637e8f60e11b81525f600482015260240161051d565b610553825f8361080b565b6001600160a01b0384166107625760405163e602df0560e01b81525f600482015260240161051d565b6001600160a01b03831661078b57604051634a1406b160e11b81525f600482015260240161051d565b6001600160a01b038085165f908152600160209081526040808320938716835292905220829055801561066e57826001600160a01b0316846001600160a01b03167f8c5be1e5ebec7d5bd14f71427d1e84f3dd0314c0f7b2291e5b200ac8c7c3b925846040516107fd91815260200190565b60405180910390a350505050565b6001600160a01b038316610835578060025f82825461082a9190610cac565b909155506108a59050565b6001600160a01b0383165f90815260208190526040902054818110156108875760405163391434e360e21b81526001600160a01b0385166004820152602481018290526044810183905260640161051d565b6001600160a01b0384165f9081526020819052604090209082900390555b6001600160a01b0382166108c1576002805482900390556108df565b6001600160a01b0382165f9081526020819052604090208054820190555b816001600160a01b0316836001600160a01b03167fddf252ad1be2c89b69c2b068fc378daa952ba7f163c4a11628f55a4df523b3ef8360405161092491815260200190565b60405180910390a3505050565b602081525f82518060208401528060208501604085015e5f604082850101526040601f19601f83011684010191505092915050565b80356001600160a01b038116811461097c575f5ffd5b919050565b5f5f60408385031215610992575f5ffd5b61099b83610966565b946020939093013593505050565b60208101600283106109c957634e487b7160e01b5f52602160045260245ffd5b91905290565b5f5f5f606084860312156109e1575f5ffd5b6109ea84610966565b92506109f860208501610966565b929592945050506040919091013590565b5f60208284031215610a19575f5ffd5b5035919050565b5f60208284031215610a30575f5ffd5b610a3982610966565b9392505050565b5f60208284031215610a50575f5ffd5b813564ffffffffff81168114610a39575f5ffd5b634e487b7160e01b5f52604160045260245ffd5b60028110610561575f5ffd5b803561097c81610a78565b5f5f5f5f60808587031215610aa2575f5ffd5b610aab85610966565b935060208501359250604085013567ffffffffffffffff811115610acd575f5ffd5b8501601f81018713610add575f5ffd5b803567ffffffffffffffff811115610af757610af7610a64565b8060051b604051601f19603f830116810181811067ffffffffffffffff82111715610b2457610b24610a64565b60405291825260208184018101929081018a841115610b41575f5ffd5b6020850194505b83851015610b6457843580825260209586019590935001610b48565b509450610b779250505060608601610a84565b905092959194509250565b5f5f60408385031215610b93575f5ffd5b610b9c83610966565b915060208301358015158114610bb0575f5ffd5b809150509250929050565b5f5f5f5f5f5f5f60e0888a031215610bd1575f5ffd5b610bda88610966565b9650610be860208901610966565b95506040880135945060608801359350608088013560ff81168114610c0b575f5ffd5b9699959850939692959460a0840135945060c09093013592915050565b5f5f60408385031215610c39575f5ffd5b610c4283610966565b9150610c5060208401610966565b90509250929050565b5f60208284031215610c69575f5ffd5b8135610a3981610a78565b600181811c90821680610c8857607f821691505b602082108103610ca657634e487b7160e01b5f52602260045260245ffd5b50919050565b808201808211156104df57634e487b7160e01b5f52601160045260245ffdfea2646970667358221220214865a72a2e2f7936e3556c2eff3125f853308f6d11c899cd08bfc7a3a31cf664736f6c634300081c0033","linkReferences":{}},"methodIdentifiers":{"DOMAIN_SEPARATOR()":"3644e515","addToWhitelist(address)":"e43252d7","allowance(address,address)":"dd62ed3e","approve(address,uint256)":"095ea7b3","balanceOf(address)":"70a08231","burn(uint256)":"42966c68","burnFrom(address,uint256)":"79cc6790","createVestingWallet(address,uint256,uint256[],uint8)":"92f1d24f","decayFunction()":"15177f91","decayRatePerSecond()":"f92a5af5","decimals()":"313ce567","enableTransfers()":"af35c6c7","getDecayFactor(address)":"f56a47a5","getDecayFreeWindow()":"ea4ebdca","getDecayInfo(address)":"da396c29","getVotes(address)":"9ab24eb0","getVotingPower(address,uint256)":"8ff400f4","mint(address,uint256)":"40c10f19","name()":"06fdde03","nonces(address)":"7ecebe00","permit(address,address,uint256,uint256,uint8,bytes32,bytes32)":"d505accf","removeFromWhitelist(address)":"8ab1d681","setDecayFreeWindow(uint40)":"92a525d5","setDecayFunction(uint8)":"e0cf01ae","setDecayManager(address,bool)":"b08be34c","setDecayRatePerSecond(uint256)":"cfe081d1","setGovernor(address)":"c42cf535","symbol()":"95d89b41","testSkipper()":"5a77606b","totalSupply()":"18160ddd","transfer(address,uint256)":"a9059cbb","transferFrom(address,address,uint256)":"23b872dd","updateDecayFactor(address)":"7c930dde"},"id":252}