{"abi":[{"type":"constructor","inputs":[{"name":"_curveSwap","type":"address","internalType":"address"},{"name":"_baseToken","type":"address","internalType":"address"},{"name":"_lowerPercentageRange","type":"uint256","internalType":"Percentage"},{"name":"_upperPercentageRange","type":"uint256","internalType":"Percentage"},{"name":"_basePrice","type":"uint256","internalType":"uint256"}],"stateMutability":"nonpayable"},{"type":"function","name":"basePrice","inputs":[],"outputs":[{"name":"","type":"uint256","internalType":"uint256"}],"stateMutability":"view"},{"type":"function","name":"baseToken","inputs":[],"outputs":[{"name":"","type":"address","internalType":"address"}],"stateMutability":"view"},{"type":"function","name":"curveSwap","inputs":[],"outputs":[{"name":"","type":"address","internalType":"contract ICurveSwap"}],"stateMutability":"view"},{"type":"function","name":"getExchangeRate","inputs":[],"outputs":[{"name":"price","type":"uint256","internalType":"uint256"}],"stateMutability":"view"},{"type":"function","name":"getExchangeRateEma","inputs":[],"outputs":[{"name":"price","type":"uint256","internalType":"uint256"}],"stateMutability":"view"},{"type":"function","name":"getLowerBound","inputs":[],"outputs":[{"name":"","type":"uint256","internalType":"uint256"}],"stateMutability":"view"},{"type":"function","name":"getSafeExchangeRate","inputs":[],"outputs":[{"name":"price","type":"uint256","internalType":"uint256"}],"stateMutability":"view"},{"type":"function","name":"getSafeExchangeRateEma","inputs":[],"outputs":[{"name":"price","type":"uint256","internalType":"uint256"}],"stateMutability":"view"},{"type":"function","name":"getUpperBound","inputs":[],"outputs":[{"name":"","type":"uint256","internalType":"uint256"}],"stateMutability":"view"},{"type":"function","name":"lowerPercentageRange","inputs":[],"outputs":[{"name":"","type":"uint256","internalType":"Percentage"}],"stateMutability":"view"},{"type":"function","name":"upperPercentageRange","inputs":[],"outputs":[{"name":"","type":"uint256","internalType":"Percentage"}],"stateMutability":"view"},{"type":"event","name":"BasePriceUpdated","inputs":[{"name":"basePrice","type":"uint256","indexed":false,"internalType":"uint256"}],"anonymous":false},{"type":"event","name":"EmaRangeUpdated","inputs":[{"name":"lowerPercentageRange","type":"uint256","indexed":false,"internalType":"Percentage"},{"name":"upperPercentageRange","type":"uint256","indexed":false,"internalType":"Percentage"}],"anonymous":false},{"type":"error","name":"EmaRangeTooHigh","inputs":[{"name":"emaRange","type":"uint256","internalType":"Percentage"}]},{"type":"error","name":"InvalidBaseToken","inputs":[{"name":"baseToken","type":"address","internalType":"address"}]}],"bytecode":{"object":"0x608060405234801561000f575f5ffd5b5060405161089a38038061089a83398101604081905261002e91610197565b82828261003b83836100ba565b6002555050600380546001600160a01b0319166001600160a01b0387811691909117909155841661008f5760405163dbea379360e01b81526001600160a01b03851660048201526024015b60405180910390fd5b5050600480546001600160a01b0319166001600160a01b039390931692909217909155506103019050565b6100da826100ca6012600a6102d8565b6100d59060646102ea565b610172565b156100fb5760405163da02d69560e01b815260048101839052602401610086565b61010b816100ca6012600a6102d8565b1561012c5760405163da02d69560e01b815260048101829052602401610086565b5f829055600181905560408051838152602081018390527f8168a7fb0f1fff0693e7681fbfd2a2dbfe563344325f1db3a88498c76a6efeeb910160405180910390a15050565b8082115b92915050565b80516001600160a01b0381168114610192575f5ffd5b919050565b5f5f5f5f5f60a086880312156101ab575f5ffd5b6101b48661017c565b94506101c26020870161017c565b6040870151606088015160809098015196999198509695945092505050565b634e487b7160e01b5f52601160045260245ffd5b6001815b600184111561023057808504811115610214576102146101e1565b600184161561022257908102905b60019390931c9280026101f9565b935093915050565b5f8261024657506001610176565b8161025257505f610176565b816001811461026857600281146102725761028e565b6001915050610176565b60ff841115610283576102836101e1565b50506001821b610176565b5060208310610133831016604e8410600b84101617156102b1575081810a610176565b6102bd5f1984846101f5565b805f19048211156102d0576102d06101e1565b029392505050565b5f6102e38383610238565b9392505050565b8082028115828204841417610176576101766101e1565b61058c8061030e5f395ff3fe608060405234801561000f575f5ffd5b50600436106100a6575f3560e01c8063ba3f4fb21161006e578063ba3f4fb2146100e5578063c55dae63146100ee578063c7876ea414610119578063d70ec14a14610122578063d8fca1ac1461012a578063e6aa216c1461013d575f5ffd5b80631de0f095146100aa57806322c180b5146100c55780634318a726146100cd578063955c7bc0146100d5578063a968a776146100dd575b5f5ffd5b6100b2610145565b6040519081526020015b60405180910390f35b6100b2610159565b6100b2610171565b6100b2610208565b6100b25f5481565b6100b260015481565b600454610101906001600160a01b031681565b6040516001600160a01b0390911681526020016100bc565b6100b260025481565b6100b261021c565b600354610101906001600160a01b031681565b6100b2610225565b5f805460025461015491610256565b905090565b5f61015460015460025461028990919063ffffffff16565b6003546040516390d2083760e01b81525f60048201819052916001600160a01b0316906390d20837906024015b602060405180830381865afa1580156101b9573d5f5f3e3d5ffd5b505050506040513d601f19601f820116820180604052508101906101dd91906103b4565b90506101e76102ae565b1561020557610154816ec097ce7bc90715b34b9f10000000006103df565b90565b5f610211610225565b905061015481610335565b5f610211610171565b600354604051631c98d5a960e11b81525f60048201819052916001600160a01b031690633931ab529060240161019e565b5f6102808361027b61026a6012600a6104e1565b6102759060646104ec565b85610372565b61037d565b90505b92915050565b5f6102808361027b61029d6012600a6104e1565b6102a89060646104ec565b856103a9565b6004805460035460405163c661065760e01b81526001938101939093525f926001600160a01b03928316929091169063c661065790602401602060405180830381865afa158015610301573d5f5f3e3d5ffd5b505050506040513d601f19601f820116820180604052508101906103259190610503565b6001600160a01b03161415905090565b5f5f61033f610145565b90505f61034a610159565b90508184101561035b575092915050565b8084111561036a579392505050565b509192915050565b5f6102808284610530565b5f61038a6012600a6104e1565b6103959060646104ec565b61039f83856104ec565b61028091906103df565b5f6102808284610543565b5f602082840312156103c4575f5ffd5b5051919050565b634e487b7160e01b5f52601160045260245ffd5b5f826103f957634e487b7160e01b5f52601260045260245ffd5b500490565b6001815b60018411156104395780850481111561041d5761041d6103cb565b600184161561042b57908102905b60019390931c928002610402565b935093915050565b5f8261044f57506001610283565b8161045b57505f610283565b8160018114610471576002811461047b57610497565b6001915050610283565b60ff84111561048c5761048c6103cb565b50506001821b610283565b5060208310610133831016604e8410600b84101617156104ba575081810a610283565b6104c65f1984846103fe565b805f19048211156104d9576104d96103cb565b029392505050565b5f6102808383610441565b8082028115828204841417610283576102836103cb565b5f60208284031215610513575f5ffd5b81516001600160a01b0381168114610529575f5ffd5b9392505050565b81810381811115610283576102836103cb565b80820180821115610283576102836103cb56fea2646970667358221220af9cc5ee9cce33d08dfb64edecfe59d3fec5e828b33cd80a1ac19397db42208c64736f6c634300081c0033","linkReferences":{}},"methodIdentifiers":{"basePrice()":"c7876ea4","baseToken()":"c55dae63","curveSwap()":"d8fca1ac","getExchangeRate()":"e6aa216c","getExchangeRateEma()":"4318a726","getLowerBound()":"1de0f095","getSafeExchangeRate()":"955c7bc0","getSafeExchangeRateEma()":"d70ec14a","getUpperBound()":"22c180b5","lowerPercentageRange()":"a968a776","upperPercentageRange()":"ba3f4fb2"},"id":276}