{"abi":[{"type":"constructor","inputs":[{"name":"_summer","type":"address","internalType":"address"},{"name":"_accessManager","type":"address","internalType":"address"},{"name":"_configurationManager","type":"address","internalType":"address"},{"name":"_defaultParameters","type":"tuple","internalType":"struct AuctionDefaultParameters","components":[{"name":"duration","type":"uint40","internalType":"uint40"},{"name":"startPrice","type":"uint256","internalType":"uint256"},{"name":"endPrice","type":"uint256","internalType":"uint256"},{"name":"kickerRewardPercentage","type":"uint256","internalType":"Percentage"},{"name":"decayType","type":"uint8","internalType":"enum DecayFunctions.DecayType"}]}],"stateMutability":"nonpayable"},{"type":"function","name":"auctionDefaultParameters","inputs":[],"outputs":[{"name":"duration","type":"uint40","internalType":"uint40"},{"name":"startPrice","type":"uint256","internalType":"uint256"},{"name":"endPrice","type":"uint256","internalType":"uint256"},{"name":"kickerRewardPercentage","type":"uint256","internalType":"Percentage"},{"name":"decayType","type":"uint8","internalType":"enum DecayFunctions.DecayType"}],"stateMutability":"view"},{"type":"function","name":"auctionSummerRaised","inputs":[{"name":"auctionId","type":"uint256","internalType":"uint256"}],"outputs":[{"name":"amountRaised","type":"uint256","internalType":"uint256"}],"stateMutability":"view"},{"type":"function","name":"auctions","inputs":[{"name":"auctionId","type":"uint256","internalType":"uint256"}],"outputs":[{"name":"config","type":"tuple","internalType":"struct DutchAuctionLibrary.AuctionConfig","components":[{"name":"auctionToken","type":"address","internalType":"contract IERC20"},{"name":"paymentToken","type":"address","internalType":"contract IERC20"},{"name":"startTime","type":"uint40","internalType":"uint40"},{"name":"endTime","type":"uint40","internalType":"uint40"},{"name":"auctionTokenDecimals","type":"uint8","internalType":"uint8"},{"name":"paymentTokenDecimals","type":"uint8","internalType":"uint8"},{"name":"auctionKicker","type":"address","internalType":"address"},{"name":"unsoldTokensRecipient","type":"address","internalType":"address"},{"name":"id","type":"uint40","internalType":"uint40"},{"name":"decayType","type":"uint8","internalType":"enum DecayFunctions.DecayType"},{"name":"startPrice","type":"uint256","internalType":"uint256"},{"name":"endPrice","type":"uint256","internalType":"uint256"},{"name":"totalTokens","type":"uint256","internalType":"uint256"},{"name":"kickerRewardAmount","type":"uint256","internalType":"uint256"}]},{"name":"state","type":"tuple","internalType":"struct DutchAuctionLibrary.AuctionState","components":[{"name":"remainingTokens","type":"uint256","internalType":"uint256"},{"name":"isFinalized","type":"bool","internalType":"bool"}]}],"stateMutability":"view"},{"type":"function","name":"buyTokens","inputs":[{"name":"auctionId","type":"uint256","internalType":"uint256"},{"name":"amount","type":"uint256","internalType":"uint256"}],"outputs":[{"name":"summerAmount","type":"uint256","internalType":"uint256"}],"stateMutability":"nonpayable"},{"type":"function","name":"configurationManager","inputs":[],"outputs":[{"name":"","type":"address","internalType":"contract IConfigurationManager"}],"stateMutability":"view"},{"type":"function","name":"finalizeAuction","inputs":[{"name":"auctionId","type":"uint256","internalType":"uint256"}],"outputs":[],"stateMutability":"nonpayable"},{"type":"function","name":"fleetCommanderRewardsManagerFactory","inputs":[],"outputs":[{"name":"","type":"address","internalType":"address"}],"stateMutability":"view"},{"type":"function","name":"generateRole","inputs":[{"name":"roleName","type":"uint8","internalType":"enum ContractSpecificRoles"},{"name":"roleTargetContract","type":"address","internalType":"address"}],"outputs":[{"name":"","type":"bytes32","internalType":"bytes32"}],"stateMutability":"pure"},{"type":"function","name":"getAuctionInfo","inputs":[{"name":"auctionId","type":"uint256","internalType":"uint256"}],"outputs":[{"name":"","type":"tuple","internalType":"struct DutchAuctionLibrary.Auction","components":[{"name":"config","type":"tuple","internalType":"struct DutchAuctionLibrary.AuctionConfig","components":[{"name":"auctionToken","type":"address","internalType":"contract IERC20"},{"name":"paymentToken","type":"address","internalType":"contract IERC20"},{"name":"startTime","type":"uint40","internalType":"uint40"},{"name":"endTime","type":"uint40","internalType":"uint40"},{"name":"auctionTokenDecimals","type":"uint8","internalType":"uint8"},{"name":"paymentTokenDecimals","type":"uint8","internalType":"uint8"},{"name":"auctionKicker","type":"address","internalType":"address"},{"name":"unsoldTokensRecipient","type":"address","internalType":"address"},{"name":"id","type":"uint40","internalType":"uint40"},{"name":"decayType","type":"uint8","internalType":"enum DecayFunctions.DecayType"},{"name":"startPrice","type":"uint256","internalType":"uint256"},{"name":"endPrice","type":"uint256","internalType":"uint256"},{"name":"totalTokens","type":"uint256","internalType":"uint256"},{"name":"kickerRewardAmount","type":"uint256","internalType":"uint256"}]},{"name":"state","type":"tuple","internalType":"struct DutchAuctionLibrary.AuctionState","components":[{"name":"remainingTokens","type":"uint256","internalType":"uint256"},{"name":"isFinalized","type":"bool","internalType":"bool"}]}]}],"stateMutability":"view"},{"type":"function","name":"getCurrentPrice","inputs":[{"name":"auctionId","type":"uint256","internalType":"uint256"}],"outputs":[{"name":"","type":"uint256","internalType":"uint256"}],"stateMutability":"view"},{"type":"function","name":"harborCommand","inputs":[],"outputs":[{"name":"","type":"address","internalType":"address"}],"stateMutability":"view"},{"type":"function","name":"nextAuctionId","inputs":[],"outputs":[{"name":"","type":"uint256","internalType":"uint256"}],"stateMutability":"view"},{"type":"function","name":"ongoingAuctions","inputs":[{"name":"tokenAddress","type":"address","internalType":"address"}],"outputs":[{"name":"auctionId","type":"uint256","internalType":"uint256"}],"stateMutability":"view"},{"type":"function","name":"raft","inputs":[],"outputs":[{"name":"","type":"address","internalType":"address"}],"stateMutability":"view"},{"type":"function","name":"startAuction","inputs":[{"name":"tokenToAuction","type":"address","internalType":"address"}],"outputs":[],"stateMutability":"nonpayable"},{"type":"function","name":"summerToken","inputs":[],"outputs":[{"name":"","type":"address","internalType":"contract ERC20Burnable"}],"stateMutability":"view"},{"type":"function","name":"tipJar","inputs":[],"outputs":[{"name":"","type":"address","internalType":"address"}],"stateMutability":"view"},{"type":"function","name":"treasury","inputs":[],"outputs":[{"name":"","type":"address","internalType":"address"}],"stateMutability":"view"},{"type":"function","name":"updateAuctionDefaultParameters","inputs":[{"name":"newParameters","type":"tuple","internalType":"struct AuctionDefaultParameters","components":[{"name":"duration","type":"uint40","internalType":"uint40"},{"name":"startPrice","type":"uint256","internalType":"uint256"},{"name":"endPrice","type":"uint256","internalType":"uint256"},{"name":"kickerRewardPercentage","type":"uint256","internalType":"Percentage"},{"name":"decayType","type":"uint8","internalType":"enum DecayFunctions.DecayType"}]}],"outputs":[],"stateMutability":"nonpayable"},{"type":"event","name":"AuctionDefaultParametersUpdated","inputs":[{"name":"newConfig","type":"tuple","indexed":false,"internalType":"struct AuctionDefaultParameters","components":[{"name":"duration","type":"uint40","internalType":"uint40"},{"name":"startPrice","type":"uint256","internalType":"uint256"},{"name":"endPrice","type":"uint256","internalType":"uint256"},{"name":"kickerRewardPercentage","type":"uint256","internalType":"Percentage"},{"name":"decayType","type":"uint8","internalType":"enum DecayFunctions.DecayType"}]}],"anonymous":false},{"type":"event","name":"AuctionFinalized","inputs":[{"name":"auctionId","type":"uint256","indexed":true,"internalType":"uint256"},{"name":"soldTokens","type":"uint256","indexed":false,"internalType":"uint256"},{"name":"unsoldTokens","type":"uint256","indexed":false,"internalType":"uint256"}],"anonymous":false},{"type":"event","name":"BuyAndBurnAuctionStarted","inputs":[{"name":"auctionId","type":"uint256","indexed":true,"internalType":"uint256"},{"name":"tokenToAuction","type":"address","indexed":true,"internalType":"address"},{"name":"amount","type":"uint256","indexed":false,"internalType":"uint256"}],"anonymous":false},{"type":"event","name":"SummerBurned","inputs":[{"name":"amount","type":"uint256","indexed":false,"internalType":"uint256"}],"anonymous":false},{"type":"event","name":"TokensPurchased","inputs":[{"name":"auctionId","type":"uint256","indexed":true,"internalType":"uint256"},{"name":"buyer","type":"address","indexed":true,"internalType":"address"},{"name":"amount","type":"uint256","indexed":false,"internalType":"uint256"},{"name":"price","type":"uint256","indexed":false,"internalType":"uint256"}],"anonymous":false},{"type":"error","name":"AuctionAlreadyFinalized","inputs":[{"name":"auctionId","type":"uint256","internalType":"uint256"}]},{"type":"error","name":"AuctionNotActive","inputs":[{"name":"auctionId","type":"uint256","internalType":"uint256"}]},{"type":"error","name":"AuctionNotEnded","inputs":[{"name":"auctionId","type":"uint256","internalType":"uint256"}]},{"type":"error","name":"AuctionNotFound","inputs":[]},{"type":"error","name":"BuyAndBurnAuctionAlreadyRunning","inputs":[{"name":"tokenToAuction","type":"address","internalType":"address"}]},{"type":"error","name":"CallerIsNotAdmin","inputs":[{"name":"caller","type":"address","internalType":"address"}]},{"type":"error","name":"CallerIsNotAuthorizedToBoard","inputs":[{"name":"caller","type":"address","internalType":"address"}]},{"type":"error","name":"CallerIsNotCommander","inputs":[{"name":"caller","type":"address","internalType":"address"}]},{"type":"error","name":"CallerIsNotContractSpecificRole","inputs":[{"name":"caller","type":"address","internalType":"address"},{"name":"role","type":"bytes32","internalType":"bytes32"}]},{"type":"error","name":"CallerIsNotCurator","inputs":[{"name":"caller","type":"address","internalType":"address"}]},{"type":"error","name":"CallerIsNotDecayController","inputs":[{"name":"caller","type":"address","internalType":"address"}]},{"type":"error","name":"CallerIsNotGovernor","inputs":[{"name":"caller","type":"address","internalType":"address"}]},{"type":"error","name":"CallerIsNotGuardian","inputs":[{"name":"caller","type":"address","internalType":"address"}]},{"type":"error","name":"CallerIsNotGuardianOrGovernor","inputs":[{"name":"caller","type":"address","internalType":"address"}]},{"type":"error","name":"CallerIsNotKeeper","inputs":[{"name":"caller","type":"address","internalType":"address"}]},{"type":"error","name":"CallerIsNotRaft","inputs":[{"name":"caller","type":"address","internalType":"address"}]},{"type":"error","name":"CallerIsNotRaftOrCommander","inputs":[{"name":"caller","type":"address","internalType":"address"}]},{"type":"error","name":"CallerIsNotSuperKeeper","inputs":[{"name":"caller","type":"address","internalType":"address"}]},{"type":"error","name":"ConfigurationManagerZeroAddress","inputs":[]},{"type":"error","name":"DirectGrantIsDisabled","inputs":[{"name":"caller","type":"address","internalType":"address"}]},{"type":"error","name":"DirectRevokeIsDisabled","inputs":[{"name":"caller","type":"address","internalType":"address"}]},{"type":"error","name":"InsufficientTokensAvailable","inputs":[]},{"type":"error","name":"InvalidAccessManagerAddress","inputs":[{"name":"invalidAddress","type":"address","internalType":"address"}]},{"type":"error","name":"InvalidDecayType","inputs":[]},{"type":"error","name":"PRBMath_MulDiv18_Overflow","inputs":[{"name":"x","type":"uint256","internalType":"uint256"},{"name":"y","type":"uint256","internalType":"uint256"}]},{"type":"error","name":"PRBMath_MulDiv_Overflow","inputs":[{"name":"x","type":"uint256","internalType":"uint256"},{"name":"y","type":"uint256","internalType":"uint256"},{"name":"denominator","type":"uint256","internalType":"uint256"}]},{"type":"error","name":"PRBMath_UD60x18_Convert_Overflow","inputs":[{"name":"x","type":"uint256","internalType":"uint256"}]},{"type":"error","name":"SafeERC20FailedOperation","inputs":[{"name":"token","type":"address","internalType":"address"}]}],"bytecode":{"object":"0x60c060405234801561000f575f5ffd5b506040516129ce3803806129ce83398101604081905261002e916101f7565b8181846001600160a01b03811661005f576040516347bd7c1d60e01b81525f60048201526024015b60405180910390fd5b6040516301ffc9a760e01b8152639bd1803160e01b60048201526001600160a01b038216906301ffc9a790602401602060405180830381865afa1580156100a8573d5f5f3e3d5ffd5b505050506040513d601f19601f820116820180604052508101906100cc91906102be565b6100f4576040516347bd7c1d60e01b81526001600160a01b0382166004820152602401610056565b5f80546001600160a01b0319166001600160a01b039290921691909117905580516001805464ffffffffff191664ffffffffff909216919091178155602082015160025560408201516003556060820151600455608082015160058054849392919060ff191683838181111561016c5761016c6102e4565b021790555050506001600160a01b038216905061019c5760405163f1634df960e01b815260040160405180910390fd5b6001600160a01b039081166080529390931660a052506102f8915050565b80516001600160a01b03811681146101d0575f5ffd5b919050565b805164ffffffffff811681146101d0575f5ffd5b8051600281106101d0575f5ffd5b5f5f5f5f84860361010081121561020c575f5ffd5b610215866101ba565b9450610223602087016101ba565b9350610231604087016101ba565b925060a0605f1982011215610244575f5ffd5b5060405160a081016001600160401b038111828210171561027357634e487b7160e01b5f52604160045260245ffd5b604052610282606087016101d5565b81526080860151602082015260a0860151604082015260c086015160608201526102ae60e087016101e9565b6080820152939692955090935050565b5f602082840312156102ce575f5ffd5b815180151581146102dd575f5ffd5b9392505050565b634e487b7160e01b5f52602160045260245ffd5b60805160a05161268461034a5f395f81816102a701528181610430015261128701525f8181610265015281816102f5015281816108090152818161086601528181610a710152610cbb01526126845ff3fe608060405234801561000f575f5ffd5b506004361061011c575f3560e01c8063a11a9121116100a9578063e80838631161006e578063e808386314610287578063f7e533ec1461029a578063f9ddf50d146102a2578063fc3fc4ed146102c9578063fc528482146102e9575f5ffd5b8063a11a9121146101e6578063c13526b4146101f9578063c2f8b52614610218578063c55d0f561461024d578063c9c667e314610260575f5ffd5b80635b0f83f3116100ef5780635b0f83f3146101a857806361d027b3146101b057806369b3054b146101b85780637975ce28146101cb5780637aaceb95146101de575f5ffd5b8063117d8ae0146101205780634075fa0f14610145578063473d18c21461015a578063571a26a014610187575b5f5ffd5b6101286102f2565b6040516001600160a01b0390911681526020015b60405180910390f35b610158610153366004611dd9565b610378565b005b610179610168366004611df4565b60096020525f908152604090205481565b60405190815260200161013c565b61019a610195366004611df4565b6106d8565b60405161013c929190611f51565b610128610806565b610128610863565b6101796101c6366004611f7a565b6108c0565b6101796101d9366004611fb4565b6108f3565b610128610a6e565b6101586101f4366004611fd4565b610acb565b610179610207366004611dd9565b60086020525f908152604090205481565b60015460025460035460045460055461023c9464ffffffffff169392919060ff1685565b60405161013c959493929190611fed565b61017961025b366004611df4565b610bcd565b6101287f000000000000000000000000000000000000000000000000000000000000000081565b610158610295366004611df4565b610be3565b610128610cb8565b6101287f000000000000000000000000000000000000000000000000000000000000000081565b6102dc6102d7366004611df4565b610d15565b60405161013c919061201d565b61017960065481565b5f7f00000000000000000000000000000000000000000000000000000000000000006001600160a01b031663117d8ae06040518163ffffffff1660e01b8152600401602060405180830381865afa15801561034f573d5f5f3e3d5ffd5b505050506040513d601f19601f82011682018060405250810190610373919061205f565b905090565b6001600160a01b0381165f90815260086020526040902054156103bd57604051627f39b160e81b81526001600160a01b03821660048201526024015b60405180910390fd5b6040516370a0823160e01b815230600482015281905f906001600160a01b038316906370a0823190602401602060405180830381865afa158015610403573d5f5f3e3d5ffd5b505050506040513d601f19601f82011682018060405250810190610427919061207a565b90505f61045d837f000000000000000000000000000000000000000000000000000000000000000084610458610863565b610e56565b90505f60065490508160075f8381526020019081526020015f205f820151815f015f820151815f015f6101000a8154816001600160a01b0302191690836001600160a01b031602179055506020820151816001015f6101000a8154816001600160a01b0302191690836001600160a01b0316021790555060408201518160010160146101000a81548164ffffffffff021916908364ffffffffff16021790555060608201518160010160196101000a81548164ffffffffff021916908364ffffffffff160217905550608082015181600101601e6101000a81548160ff021916908360ff16021790555060a082015181600101601f6101000a81548160ff021916908360ff16021790555060c0820151816002015f6101000a8154816001600160a01b0302191690836001600160a01b0316021790555060e0820151816003015f6101000a8154816001600160a01b0302191690836001600160a01b031602179055506101008201518160030160146101000a81548164ffffffffff021916908364ffffffffff1602179055506101208201518160030160196101000a81548160ff0219169083600181111561061557610615611e0b565b02179055506101408201516004820155610160820151600582015561018082015160068201556101a0909101516007909101556020918201518051600880840191909155908301516009928301805491151560ff199092169190911790556001600160a01b0388165f818152918452604080832086905585835292909352818120555182907fa47aeb694c2a8362d1f64935968e9a4884fe70b503208843d370bd3952f1243e906106c99087815260200190565b60405180910390a35050505050565b600760209081525f91825260409182902082516101c08101845281546001600160a01b0390811682526001808401548083169584019590955264ffffffffff600160a01b808704821697850197909752600160c81b8087048216606086015260ff600160f01b880481166080870152600160f81b909704871660a08601526002860154841660c0860152600386015493841660e086015296830416610100840152929491938593610120860193909204169081111561079957610799611e0b565b60018111156107aa576107aa611e0b565b8152600482015460208083019190915260058301546040808401919091526006840154606084015260079093015460809092019190915281518083019092526008840154825260099093015460ff161515928101929092529082565b5f7f00000000000000000000000000000000000000000000000000000000000000006001600160a01b0316635b0f83f36040518163ffffffff1660e01b8152600401602060405180830381865afa15801561034f573d5f5f3e3d5ffd5b5f7f00000000000000000000000000000000000000000000000000000000000000006001600160a01b03166361d027b36040518163ffffffff1660e01b8152600401602060405180830381865afa15801561034f573d5f5f3e3d5ffd5b5f82826040516020016108d4929190612091565b6040516020818303038152906040528051906020012090505b92915050565b5f82815260076020526040812061090a8184610f7a565b91508160095f8681526020019081526020015f205f82825461092c91906120dc565b909155505060088101545f03610a6757604080516102008101825282546001600160a01b03908116928201928352600180850154808316606085015264ffffffffff600160a01b80830482166080870152600160c81b808404831660a088015260ff600160f01b8504811660c0890152600160f81b909404841660e0880152600289015486166101008801526003890154958616610120880152908504909116610140860152610a67958794869491938693610160870193920416908111156109f7576109f7611e0b565b6001811115610a0857610a08611e0b565b8152600482015460208083019190915260058301546040808401919091526006840154606084015260079093015460809092019190915291835280518082019091526008840154815260099093015460ff161515838201520152611254565b5092915050565b5f7f00000000000000000000000000000000000000000000000000000000000000006001600160a01b0316637aaceb956040518163ffffffff1660e01b8152600401602060405180830381865afa15801561034f573d5f5f3e3d5ffd5b5f5460408051630ccc574960e41b815290516001600160a01b03909216916391d1485491839163ccc57490916004808201926020929091908290030181865afa158015610b1a573d5f5f3e3d5ffd5b505050506040513d601f19601f82011682018060405250810190610b3e919061207a565b6040516001600160e01b031960e084901b1681526004810191909152336024820152604401602060405180830381865afa158015610b7e573d5f5f3e3d5ffd5b505050506040513d601f19601f82011682018060405250810190610ba291906120fe565b610bc157604051630ea7d7ed60e21b81523360048201526024016103b4565b610bca81611359565b50565b5f8181526007602052604081206108ed906113a3565b5f818152600760205260409020610bf98161153d565b604080516102008101825282546001600160a01b03908116928201928352600180850154808316606085015264ffffffffff600160a01b80830482166080870152600160c81b808404831660a088015260ff600160f01b8504811660c0890152600160f81b909404841660e0880152600289015486166101008801526003890154958616610120880152908504909116610140860152610cb4958794869491938693610160870193920416908111156109f7576109f7611e0b565b5050565b5f7f00000000000000000000000000000000000000000000000000000000000000006001600160a01b031663f7e533ec6040518163ffffffff1660e01b8152600401602060405180830381865afa15801561034f573d5f5f3e3d5ffd5b610d1d611d24565b5f828152600760205260409081902081516102008101835281546001600160a01b03908116938201938452600180840154808316606085015264ffffffffff600160a01b80830482166080870152600160c81b808404831660a088015260ff600160f01b8504811660c0890152600160f81b909404841660e088015260028801548616610100880152600388015495861661012088015290850490911661014086015293958694909386936101608701939290910490911690811115610de557610de5611e0b565b6001811115610df657610df6611e0b565b8152600482015460208083019190915260058301546040808401919091526006840154606084015260079093015460809092019190915291835280518082019091526008840154815260099093015460ff16151583820152015292915050565b610e5e611d24565b5f60405180610160016040528060065f8154610e7990612117565b918290555081526001600160a01b03808916602083015287811660408301526001805464ffffffffff166060840152600254608084015260035460a084015260c0830188905260045460e0840152336101008401529086166101208301526005546101409092019160ff1690811115610ef457610ef4611e0b565b9052604051631bd590b960e11b815290915073__$87c00a11f154e19488f2e9ac8cdbd9f046$__906337ab217290610f3090849060040161212f565b61020060405180830381865af4158015610f4c573d5f5f3e3d5ffd5b505050506040513d601f19601f82011682018060405250810190610f7091906122dc565b9695505050505050565b81545f906001600160a01b0316610fa4576040516307145c5f60e11b815260040160405180910390fd5b600983015460ff1615610fdf57600383015460405163d9e3dd8360e01b8152600160a01b90910464ffffffffff1660048201526024016103b4565b6001830154600160c81b900464ffffffffff16421061102657600383015460405163aff5aad960e01b8152600160a01b90910464ffffffffff1660048201526024016103b4565b600883015482111561104b57604051632783839d60e01b815260040160405180910390fd5b604080516102008101825284546001600160a01b03908116928201928352600180870154808316606085015264ffffffffff600160a01b80830482166080870152600160c81b808404831660a088015260ff600160f01b8504811660c0890152600160f81b909404841660e088015260028b0154861661010088015260038b01549586166101208801529085049091166101408601525f9561117b95948a9486949293869361016087019391909104169081111561110b5761110b611e0b565b600181111561111c5761111c611e0b565b8152600482015460208083019190915260058301546040808401919091526006840154606084015260079093015460809092019190915291835280518082019091526008840154815260099093015460ff1615158382015201526115f1565b60018501549091506111a5908290859060ff600160f81b8204811691600160f01b90041681611668565b915082846008015f015f8282546111bc9190612402565b909155505060018401546111db906001600160a01b03163330856116a7565b83546111f1906001600160a01b03163385611714565b600384015460408051858152602081018490523392600160a01b900464ffffffffff16917fe8d7e55108ae7ddb60173461d2950c7a8e22a7ac7f442825564fe84c8c6f9a38910160405180910390a360088401545f03610a6757610a678461174a565b8051610100015164ffffffffff165f9081526009602052604090819020549051630852cd8d60e31b8152600481018290527f00000000000000000000000000000000000000000000000000000000000000006001600160a01b0316906342966c68906024015f604051808303815f87803b1580156112d0575f5ffd5b505af11580156112e2573d5f5f3e3d5ffd5b505050507fbb7b92357c58ac7f76efa146802fb325f7a147f953e808b572d851e8406b2f1e8160405161131791815260200190565b60405180910390a1508051516001600160a01b03165f9081526008602090815260408083208390559251610100015164ffffffffff1682526009905290812055565b8060016113668282612415565b9050507fe9d5a90069e830741fa6df4fbb146dc3c0918e85d57eb372c70e743198179c7981604051611398919061248c565b60405180910390a150565b604080516102008101825282546001600160a01b03908116928201928352600180850154808316606085015264ffffffffff600160a01b80830482166080870152600160c81b808404831660a088015260ff600160f01b8504811660c0890152600160f81b909404841660e08801526002890154861661010088015260038901549586166101208801529085049091166101408601525f9587948694919386936101608701939204169081111561145c5761145c611e0b565b600181111561146d5761146d611e0b565b8152600482810154602080840191909152600584015460408085019190915260068501546060850152600790940154608090930192909252928452815180830183526008860154815260099095015460ff161515858201529290920192909252516370d8532160e11b815273__$87c00a11f154e19488f2e9ac8cdbd9f046$__9263e1b0a642926114fe920161201d565b602060405180830381865af4158015611519573d5f5f3e3d5ffd5b505050506040513d601f19601f820116820180604052508101906108ed919061207a565b80546001600160a01b0316611565576040516307145c5f60e11b815260040160405180910390fd5b600981015460ff16156115a057600381015460405163d9e3dd8360e01b8152600160a01b90910464ffffffffff1660048201526024016103b4565b6001810154600160c81b900464ffffffffff164210156115e857600381015460405163e30e8d4760e01b8152600160a01b90910464ffffffffff1660048201526024016103b4565b610bca8161174a565b8051604001515f90819061160c9064ffffffffff1642612402565b835160408101516060909101519192505f9161162891906124dd565b845161012081015161014082015161016083015160a09093015164ffffffffff949094169450611660939192909186908690806117f7565b949350505050565b5f80611674878661187e565b90505f611681878661187e565b90505f61168e83836118eb565b905061169a81866118fc565b9998505050505050505050565b6040516001600160a01b03848116602483015283811660448301526064820183905261170e9186918216906323b872dd906084015b604051602081830303815290604052915060e01b6020820180516001600160e01b03838183161783525050505061195b565b50505050565b6040516001600160a01b0383811660248301526044820183905261174591859182169063a9059cbb906064016116dc565b505050565b600881015460068201545f9161175f91612402565b60098301805460ff1916600117905560088301549091501561179f5760038201546008830154835461179f926001600160a01b0391821692911690611714565b60038201546008830154604080518481526020810192909252600160a01b90920464ffffffffff16917fd11fb103f8d5c913b9e132f165c0cfa304fc230f10796a7a5d63bc3d8de4d3c3910160405180910390a25050565b5f838510611806575084611873565b5f88600181111561181957611819611e0b565b036118335761182c8787878787876119c7565b9050611873565b600188600181111561184757611847611e0b565b0361185a5761182c878787878787611a4a565b6040516346b2fddf60e11b815260040160405180910390fd5b979650505050505050565b5f8160ff166012036118915750816108ed565b60128260ff1611156118c4576118a86012836124fa565b6118b390600a6125f6565b6118bd9084612618565b90506108ed565b6118cf8260126124fa565b6118da90600a6125f6565b6118e49084612637565b9392505050565b5f6118e46118f98484611aef565b90565b5f8160ff1660120361190f5750816108ed565b60128260ff16111561193b576119266012836124fa565b61193190600a6125f6565b6118bd9084612637565b6119468260126124fa565b61195190600a6125f6565b6118e49084612618565b5f5f60205f8451602086015f885af18061197a576040513d5f823e3d81fd5b50505f513d9150811561199157806001141561199e565b6001600160a01b0384163b155b1561170e57604051635274afe760e01b81526001600160a01b03851660048201526024016103b4565b5f806119d3888561187e565b90505f6119e0888661187e565b90505f6119f06118f98385612402565b90505f6119fc89611ba1565b90505f611a0889611ba1565b90505f611a1f82611a1986866118eb565b90611be6565b90505f611a2c8288612402565b9050611a38818a6118fc565b9e9d5050505050505050505050505050565b5f80611a56888561187e565b90505f611a63888661187e565b90505f611a736118f98385612402565b90505f611a88611a838a8a612402565b611ba1565b90505f611a9489611ba1565b90505f611aa2836002611bfd565b90505f611ab0836002611bfd565b90505f611ac182611a1988866118eb565b90505f611ace82896120dc565b9050611ada818c6118fc565b99505050505050505050509695505050505050565b5f80805f19848609848602925082811083820303915050805f03611b205750670de0b6b3a7640000900490506108ed565b670de0b6b3a76400008110611b5257604051635173648d60e01b815260048101869052602481018590526044016103b4565b5f670de0b6b3a764000085870962040000818503049310909103600160ee1b02919091177faccb18165bd6fe31ae1cf318dc5b51eee0e1ba569b88cd74c1773b91fac106690291505092915050565b5f611bb5670de0b6b3a76400005f19612618565b821115611bd857604051631cd951a760e01b8152600481018390526024016103b4565b50670de0b6b3a76400000290565b5f6118e46118f984670de0b6b3a764000085611c56565b5f828160018416611c1657670de0b6b3a7640000611c18565b815b9050600184901c93505b831561166057611c328283611aef565b91506001841615611c4a57611c478183611aef565b90505b600184901c9350611c22565b5f80805f19858709858702925082811083820303915050805f03611c8d57838281611c8357611c83612604565b04925050506118e4565b838110611cbe57604051630c740aef60e31b81526004810187905260248101869052604481018590526064016103b4565b5f84868809600260036001881981018916988990049182028318808302840302808302840302808302840302808302840302808302840302918202909203025f889003889004909101858311909403939093029303949094049190911702949350505050565b6040518060400160405280611d9e604080516101c0810182525f80825260208201819052918101829052606081018290526080810182905260a0810182905260c0810182905260e0810182905261010081018290529061012082019081526020015f81526020015f81526020015f81526020015f81525090565b8152602001611dc060405180604001604052805f81526020015f151581525090565b905290565b6001600160a01b0381168114610bca575f5ffd5b5f60208284031215611de9575f5ffd5b81356118e481611dc5565b5f60208284031215611e04575f5ffd5b5035919050565b634e487b7160e01b5f52602160045260245ffd5b60028110611e2f57611e2f611e0b565b9052565b80516001600160a01b031682526020810151611e5a60208401826001600160a01b03169052565b506040810151611e73604084018264ffffffffff169052565b506060810151611e8c606084018264ffffffffff169052565b506080810151611ea1608084018260ff169052565b5060a0810151611eb660a084018260ff169052565b5060c0810151611ed160c08401826001600160a01b03169052565b5060e0810151611eec60e08401826001600160a01b03169052565b50610100810151611f0761010084018264ffffffffff169052565b50610120810151611f1c610120840182611e1f565b506101408101516101408301526101608101516101608301526101808101516101808301526101a08101516101a08301525050565b6102008101611f608285611e33565b82516101c0830152602083015115156101e08301526118e4565b5f5f60408385031215611f8b575f5ffd5b823560038110611f99575f5ffd5b91506020830135611fa981611dc5565b809150509250929050565b5f5f60408385031215611fc5575f5ffd5b50508035926020909101359150565b5f60a0828403128015611fe5575f5ffd5b509092915050565b5f60a08201905064ffffffffff87168252856020830152846040830152836060830152610f706080830184611e1f565b5f61020082019050612030828451611e33565b60208381015180516101c08501529081015115156101e0840152610a67565b805161205a81611dc5565b919050565b5f6020828403121561206f575f5ffd5b81516118e481611dc5565b5f6020828403121561208a575f5ffd5b5051919050565b5f600384106120a2576120a2611e0b565b5060f89290921b825260601b6bffffffffffffffffffffffff1916600182015260150190565b634e487b7160e01b5f52601160045260245ffd5b808201808211156108ed576108ed6120c8565b8051801515811461205a575f5ffd5b5f6020828403121561210e575f5ffd5b6118e4826120ef565b5f60018201612128576121286120c8565b5060010190565b81518152602080830151610160830191612153908401826001600160a01b03169052565b50604083015161216e60408401826001600160a01b03169052565b506060830151612187606084018264ffffffffff169052565b506080830151608083015260a083015160a083015260c083015160c083015260e083015160e08301526101008301516121cc6101008401826001600160a01b03169052565b506101208301516121e96101208401826001600160a01b03169052565b50610140830151610a67610140840182611e1f565b6040805190810167ffffffffffffffff8111828210171561222d57634e487b7160e01b5f52604160045260245ffd5b60405290565b6040516101c0810167ffffffffffffffff8111828210171561222d57634e487b7160e01b5f52604160045260245ffd5b64ffffffffff81168114610bca575f5ffd5b805161205a81612263565b805160ff8116811461205a575f5ffd5b60028110610bca575f5ffd5b805161205a81612290565b5f604082840312156122b7575f5ffd5b6122bf6121fe565b8251815290506122d1602083016120ef565b602082015292915050565b5f818303610200811280156122ef575f5ffd5b506122f86121fe565b6101c0821215612306575f5ffd5b61230e612233565b91506123198461204f565b82526123276020850161204f565b602083015261233860408501612275565b604083015261234960608501612275565b606083015261235a60808501612280565b608083015261236b60a08501612280565b60a083015261237c60c0850161204f565b60c083015261238d60e0850161204f565b60e083015261239f6101008501612275565b6101008301526123b2610120850161229c565b6101208301526101408481015190830152610160808501519083015261018080850151908301526101a080850151908301528181526123f5856101c086016122a7565b6020820152949350505050565b818103818111156108ed576108ed6120c8565b813561242081612263565b815464ffffffffff191664ffffffffff9190911617815560208201356001820155604082013560028201556060820135600382015560048101608083013561246781612290565b6002811061247757612477611e0b565b60ff1982541660ff8216811783555050505050565b60a08101823561249b81612263565b64ffffffffff16825260208381013590830152604080840135908301526060808401359083015260808301356124d081612290565b610a676080840182611e1f565b64ffffffffff82811682821603908111156108ed576108ed6120c8565b60ff82811682821603908111156108ed576108ed6120c8565b6001815b600184111561254e57808504811115612532576125326120c8565b600184161561254057908102905b60019390931c928002612517565b935093915050565b5f82612564575060016108ed565b8161257057505f6108ed565b81600181146125865760028114612590576125ac565b60019150506108ed565b60ff8411156125a1576125a16120c8565b50506001821b6108ed565b5060208310610133831016604e8410600b84101617156125cf575081810a6108ed565b6125db5f198484612513565b805f19048211156125ee576125ee6120c8565b029392505050565b5f6118e460ff841683612556565b634e487b7160e01b5f52601260045260245ffd5b5f8261263257634e487b7160e01b5f52601260045260245ffd5b500490565b80820281158282048414176108ed576108ed6120c856fea264697066735822122089d692fdc019ec9beae9dd0e2d3ff49b7331d7a4a6e2f3c49a633d11acce053864736f6c634300081c0033","linkReferences":{"node_modules/@summerfi/dutch-auction/src/DutchAuctionLibrary.sol":{"DutchAuctionLibrary":[{"start":4690,"length":20},{"start":6180,"length":20}]}}},"methodIdentifiers":{"auctionDefaultParameters()":"c2f8b526","auctionSummerRaised(uint256)":"473d18c2","auctions(uint256)":"571a26a0","buyTokens(uint256,uint256)":"7975ce28","configurationManager()":"c9c667e3","finalizeAuction(uint256)":"e8083863","fleetCommanderRewardsManagerFactory()":"f7e533ec","generateRole(uint8,address)":"69b3054b","getAuctionInfo(uint256)":"fc3fc4ed","getCurrentPrice(uint256)":"c55d0f56","harborCommand()":"5b0f83f3","nextAuctionId()":"fc528482","ongoingAuctions(address)":"c13526b4","raft()":"117d8ae0","startAuction(address)":"4075fa0f","summerToken()":"f9ddf50d","tipJar()":"7aaceb95","treasury()":"61d027b3","updateAuctionDefaultParameters((uint40,uint256,uint256,uint256,uint8))":"a11a9121"},"id":190}