{"abi":[{"type":"constructor","inputs":[{"name":"_summer","type":"address","internalType":"address"},{"name":"_treasury","type":"address","internalType":"address"},{"name":"_accessManager","type":"address","internalType":"address"},{"name":"_defaultParameters","type":"tuple","internalType":"struct AuctionDefaultParameters","components":[{"name":"duration","type":"uint40","internalType":"uint40"},{"name":"startPrice","type":"uint256","internalType":"uint256"},{"name":"endPrice","type":"uint256","internalType":"uint256"},{"name":"kickerRewardPercentage","type":"uint256","internalType":"Percentage"},{"name":"decayType","type":"uint8","internalType":"enum DecayFunctions.DecayType"}]}],"stateMutability":"nonpayable"},{"type":"function","name":"auctionDefaultParameters","inputs":[],"outputs":[{"name":"duration","type":"uint40","internalType":"uint40"},{"name":"startPrice","type":"uint256","internalType":"uint256"},{"name":"endPrice","type":"uint256","internalType":"uint256"},{"name":"kickerRewardPercentage","type":"uint256","internalType":"Percentage"},{"name":"decayType","type":"uint8","internalType":"enum DecayFunctions.DecayType"}],"stateMutability":"view"},{"type":"function","name":"auctionSummerRaised","inputs":[{"name":"auctionId","type":"uint256","internalType":"uint256"}],"outputs":[{"name":"amountRaised","type":"uint256","internalType":"uint256"}],"stateMutability":"view"},{"type":"function","name":"auctions","inputs":[{"name":"auctionId","type":"uint256","internalType":"uint256"}],"outputs":[{"name":"config","type":"tuple","internalType":"struct DutchAuctionLibrary.AuctionConfig","components":[{"name":"auctionToken","type":"address","internalType":"contract IERC20"},{"name":"paymentToken","type":"address","internalType":"contract IERC20"},{"name":"startTime","type":"uint40","internalType":"uint40"},{"name":"endTime","type":"uint40","internalType":"uint40"},{"name":"auctionTokenDecimals","type":"uint8","internalType":"uint8"},{"name":"paymentTokenDecimals","type":"uint8","internalType":"uint8"},{"name":"auctionKicker","type":"address","internalType":"address"},{"name":"unsoldTokensRecipient","type":"address","internalType":"address"},{"name":"id","type":"uint40","internalType":"uint40"},{"name":"decayType","type":"uint8","internalType":"enum DecayFunctions.DecayType"},{"name":"startPrice","type":"uint256","internalType":"uint256"},{"name":"endPrice","type":"uint256","internalType":"uint256"},{"name":"totalTokens","type":"uint256","internalType":"uint256"},{"name":"kickerRewardAmount","type":"uint256","internalType":"uint256"}]},{"name":"state","type":"tuple","internalType":"struct DutchAuctionLibrary.AuctionState","components":[{"name":"remainingTokens","type":"uint256","internalType":"uint256"},{"name":"isFinalized","type":"bool","internalType":"bool"}]}],"stateMutability":"view"},{"type":"function","name":"buyTokens","inputs":[{"name":"auctionId","type":"uint256","internalType":"uint256"},{"name":"amount","type":"uint256","internalType":"uint256"}],"outputs":[{"name":"summerAmount","type":"uint256","internalType":"uint256"}],"stateMutability":"nonpayable"},{"type":"function","name":"finalizeAuction","inputs":[{"name":"auctionId","type":"uint256","internalType":"uint256"}],"outputs":[],"stateMutability":"nonpayable"},{"type":"function","name":"getAuctionInfo","inputs":[{"name":"auctionId","type":"uint256","internalType":"uint256"}],"outputs":[{"name":"","type":"tuple","internalType":"struct DutchAuctionLibrary.Auction","components":[{"name":"config","type":"tuple","internalType":"struct DutchAuctionLibrary.AuctionConfig","components":[{"name":"auctionToken","type":"address","internalType":"contract IERC20"},{"name":"paymentToken","type":"address","internalType":"contract IERC20"},{"name":"startTime","type":"uint40","internalType":"uint40"},{"name":"endTime","type":"uint40","internalType":"uint40"},{"name":"auctionTokenDecimals","type":"uint8","internalType":"uint8"},{"name":"paymentTokenDecimals","type":"uint8","internalType":"uint8"},{"name":"auctionKicker","type":"address","internalType":"address"},{"name":"unsoldTokensRecipient","type":"address","internalType":"address"},{"name":"id","type":"uint40","internalType":"uint40"},{"name":"decayType","type":"uint8","internalType":"enum DecayFunctions.DecayType"},{"name":"startPrice","type":"uint256","internalType":"uint256"},{"name":"endPrice","type":"uint256","internalType":"uint256"},{"name":"totalTokens","type":"uint256","internalType":"uint256"},{"name":"kickerRewardAmount","type":"uint256","internalType":"uint256"}]},{"name":"state","type":"tuple","internalType":"struct DutchAuctionLibrary.AuctionState","components":[{"name":"remainingTokens","type":"uint256","internalType":"uint256"},{"name":"isFinalized","type":"bool","internalType":"bool"}]}]}],"stateMutability":"view"},{"type":"function","name":"getCurrentPrice","inputs":[{"name":"auctionId","type":"uint256","internalType":"uint256"}],"outputs":[{"name":"","type":"uint256","internalType":"uint256"}],"stateMutability":"view"},{"type":"function","name":"nextAuctionId","inputs":[],"outputs":[{"name":"","type":"uint256","internalType":"uint256"}],"stateMutability":"view"},{"type":"function","name":"ongoingAuctions","inputs":[{"name":"tokenAddress","type":"address","internalType":"address"}],"outputs":[{"name":"auctionId","type":"uint256","internalType":"uint256"}],"stateMutability":"view"},{"type":"function","name":"setTreasury","inputs":[{"name":"newTreasury","type":"address","internalType":"address"}],"outputs":[],"stateMutability":"nonpayable"},{"type":"function","name":"startAuction","inputs":[{"name":"tokenToAuction","type":"address","internalType":"address"}],"outputs":[],"stateMutability":"nonpayable"},{"type":"function","name":"summerToken","inputs":[],"outputs":[{"name":"","type":"address","internalType":"contract ERC20Burnable"}],"stateMutability":"view"},{"type":"function","name":"treasury","inputs":[],"outputs":[{"name":"","type":"address","internalType":"address"}],"stateMutability":"view"},{"type":"function","name":"updateAuctionDefaultParameters","inputs":[{"name":"newParameters","type":"tuple","internalType":"struct AuctionDefaultParameters","components":[{"name":"duration","type":"uint40","internalType":"uint40"},{"name":"startPrice","type":"uint256","internalType":"uint256"},{"name":"endPrice","type":"uint256","internalType":"uint256"},{"name":"kickerRewardPercentage","type":"uint256","internalType":"Percentage"},{"name":"decayType","type":"uint8","internalType":"enum DecayFunctions.DecayType"}]}],"outputs":[],"stateMutability":"nonpayable"},{"type":"event","name":"AuctionDefaultParametersUpdated","inputs":[{"name":"newConfig","type":"tuple","indexed":false,"internalType":"struct AuctionDefaultParameters","components":[{"name":"duration","type":"uint40","internalType":"uint40"},{"name":"startPrice","type":"uint256","internalType":"uint256"},{"name":"endPrice","type":"uint256","internalType":"uint256"},{"name":"kickerRewardPercentage","type":"uint256","internalType":"Percentage"},{"name":"decayType","type":"uint8","internalType":"enum DecayFunctions.DecayType"}]}],"anonymous":false},{"type":"event","name":"AuctionFinalized","inputs":[{"name":"auctionId","type":"uint256","indexed":true,"internalType":"uint256"},{"name":"soldTokens","type":"uint256","indexed":false,"internalType":"uint256"},{"name":"unsoldTokens","type":"uint256","indexed":false,"internalType":"uint256"}],"anonymous":false},{"type":"event","name":"BuyAndBurnAuctionStarted","inputs":[{"name":"auctionId","type":"uint256","indexed":true,"internalType":"uint256"},{"name":"tokenToAuction","type":"address","indexed":true,"internalType":"address"},{"name":"amount","type":"uint256","indexed":false,"internalType":"uint256"}],"anonymous":false},{"type":"event","name":"SummerBurned","inputs":[{"name":"amount","type":"uint256","indexed":false,"internalType":"uint256"}],"anonymous":false},{"type":"event","name":"TokensPurchased","inputs":[{"name":"auctionId","type":"uint256","indexed":true,"internalType":"uint256"},{"name":"buyer","type":"address","indexed":true,"internalType":"address"},{"name":"amount","type":"uint256","indexed":false,"internalType":"uint256"},{"name":"price","type":"uint256","indexed":false,"internalType":"uint256"}],"anonymous":false},{"type":"error","name":"AddressEmptyCode","inputs":[{"name":"target","type":"address","internalType":"address"}]},{"type":"error","name":"AddressInsufficientBalance","inputs":[{"name":"account","type":"address","internalType":"address"}]},{"type":"error","name":"AuctionAlreadyFinalized","inputs":[{"name":"auctionId","type":"uint256","internalType":"uint256"}]},{"type":"error","name":"AuctionNotActive","inputs":[{"name":"auctionId","type":"uint256","internalType":"uint256"}]},{"type":"error","name":"AuctionNotEnded","inputs":[{"name":"auctionId","type":"uint256","internalType":"uint256"}]},{"type":"error","name":"AuctionNotFound","inputs":[]},{"type":"error","name":"BuyAndBurnAuctionAlreadyRunning","inputs":[{"name":"tokenToAuction","type":"address","internalType":"address"}]},{"type":"error","name":"CallerIsNotGovernor","inputs":[{"name":"caller","type":"address","internalType":"address"}]},{"type":"error","name":"FailedInnerCall","inputs":[]},{"type":"error","name":"InsufficientTokensAvailable","inputs":[]},{"type":"error","name":"InvalidAccessManagerAddress","inputs":[{"name":"invalidAddress","type":"address","internalType":"address"}]},{"type":"error","name":"PRBMath_MulDiv18_Overflow","inputs":[{"name":"x","type":"uint256","internalType":"uint256"},{"name":"y","type":"uint256","internalType":"uint256"}]},{"type":"error","name":"PRBMath_MulDiv_Overflow","inputs":[{"name":"x","type":"uint256","internalType":"uint256"},{"name":"y","type":"uint256","internalType":"uint256"},{"name":"denominator","type":"uint256","internalType":"uint256"}]},{"type":"error","name":"PRBMath_UD60x18_Convert_Overflow","inputs":[{"name":"x","type":"uint256","internalType":"uint256"}]},{"type":"error","name":"SafeERC20FailedOperation","inputs":[{"name":"token","type":"address","internalType":"address"}]}],"bytecode":{"object":"0x60a060405234801561000f575f80fd5b50604051612a76380380612a7683398101604081905261002e916101da565b80826001600160a01b03811661005e576040516347bd7c1d60e01b81525f60048201526024015b60405180910390fd5b6040516301ffc9a760e01b815263f87138b560e01b60048201526001600160a01b038216906301ffc9a790602401602060405180830381865afa1580156100a7573d5f803e3d5ffd5b505050506040513d601f19601f820116820180604052508101906100cb91906102a1565b6100f3576040516347bd7c1d60e01b81526001600160a01b0382166004820152602401610055565b5f80546001600160a01b0319166001600160a01b039290921691909117905580516001805464ffffffffff191664ffffffffff909216919091178155602082015160025560408201516003556060820151600455608082015160058054849392919060ff191683838181111561016b5761016b6102c7565b02179055505050506001600160a01b039384166080525050600780546001600160a01b031916919092161790556102db565b80516001600160a01b03811681146101b3575f80fd5b919050565b805164ffffffffff811681146101b3575f80fd5b8051600281106101b3575f80fd5b5f805f808486036101008112156101ef575f80fd5b6101f88661019d565b94506102066020870161019d565b93506102146040870161019d565b925060a0605f1982011215610227575f80fd5b5060405160a081016001600160401b038111828210171561025657634e487b7160e01b5f52604160045260245ffd5b604052610265606087016101b8565b81526080860151602082015260a0860151604082015260c0860151606082015261029160e087016101cc565b6080820152939692955090935050565b5f602082840312156102b1575f80fd5b815180151581146102c0575f80fd5b9392505050565b634e487b7160e01b5f52602160045260245ffd5b6080516127756103015f395f81816102340152818161043401526112f101526127755ff3fe608060405234801561000f575f80fd5b50600436106100e5575f3560e01c8063c2f8b52611610088578063f0f4426011610063578063f0f442601461021c578063f9ddf50d1461022f578063fc3fc4ed14610256578063fc52848214610276575f80fd5b8063c2f8b526146101c1578063c55d0f56146101f6578063e808386314610209575f80fd5b806361d027b3116100c357806361d027b3146101515780637975ce281461017c578063a11a91211461018f578063c13526b4146101a2575f80fd5b80634075fa0f146100e9578063473d18c2146100fe578063571a26a014610130575b5f80fd5b6100fc6100f7366004611f28565b61027f565b005b61011d61010c366004611f43565b600a6020525f908152604090205481565b6040519081526020015b60405180910390f35b61014361013e366004611f43565b6106d5565b6040516101279291906120ac565b600754610164906001600160a01b031681565b6040516001600160a01b039091168152602001610127565b61011d61018a3660046120d5565b610803565b6100fc61019d3660046120f5565b61097e565b61011d6101b0366004611f28565b60096020525f908152604090205481565b6001546002546003546004546005546101e59464ffffffffff169392919060ff1685565b60405161012795949392919061210e565b61011d610204366004611f43565b610a80565b6100fc610217366004611f43565b610a9c565b6100fc61022a366004611f28565b610c67565b6101647f000000000000000000000000000000000000000000000000000000000000000081565b610269610264366004611f43565b610d7f565b604051610127919061213e565b61011d60065481565b5f5460408051630ccc574960e41b815290516001600160a01b03909216916391d1485491839163ccc57490916004808201926020929091908290030181865afa1580156102ce573d5f803e3d5ffd5b505050506040513d601f19601f820116820180604052508101906102f29190612170565b6040516001600160e01b031960e084901b1681526004810191909152336024820152604401602060405180830381865afa158015610332573d5f803e3d5ffd5b505050506040513d601f19601f82011682018060405250810190610356919061219b565b61037a57604051630ea7d7ed60e21b81523360048201526024015b60405180910390fd5b6001600160a01b0381165f90815260096020526040902054156103ba57604051627f39b160e81b81526001600160a01b0382166004820152602401610371565b6040516370a0823160e01b815230600482015281905f906001600160a01b038316906370a0823190602401602060405180830381865afa158015610400573d5f803e3d5ffd5b505050506040513d601f19601f820116820180604052508101906104249190612170565b6007549091505f906104649084907f00000000000000000000000000000000000000000000000000000000000000009085906001600160a01b0316610ec0565b90505f60065490508160085f8381526020019081526020015f205f820151815f015f820151815f015f6101000a8154816001600160a01b0302191690836001600160a01b031602179055506020820151816001015f6101000a8154816001600160a01b0302191690836001600160a01b0316021790555060408201518160010160146101000a81548164ffffffffff021916908364ffffffffff16021790555060608201518160010160196101000a81548164ffffffffff021916908364ffffffffff160217905550608082015181600101601e6101000a81548160ff021916908360ff16021790555060a082015181600101601f6101000a81548160ff021916908360ff16021790555060c0820151816002015f6101000a8154816001600160a01b0302191690836001600160a01b0316021790555060e0820151816003015f6101000a8154816001600160a01b0302191690836001600160a01b031602179055506101008201518160030160146101000a81548164ffffffffff021916908364ffffffffff1602179055506101208201518160030160196101000a81548160ff0219169083600181111561061c5761061c611f5a565b02179055506101408201516004820155610160820151600582015561018082015160068201556101a090910151600790910155602091820151805160088301558201516009918201805460ff19169115159190911790556001600160a01b0387165f8181529183526040808320859055848352600a8452808320929092559051858152909183917fa47aeb694c2a8362d1f64935968e9a4884fe70b503208843d370bd3952f1243e910160405180910390a35050505050565b600860209081525f91825260409182902082516101c08101845281546001600160a01b0390811682526001808401548083169584019590955264ffffffffff600160a01b808704821697850197909752600160c81b8087048216606086015260ff600160f01b880481166080870152600160f81b909704871660a08601526002860154841660c0860152600386015493841660e086015296830416610100840152929491938593610120860193909204169081111561079657610796611f5a565b60018111156107a7576107a7611f5a565b8152600482015460208083019190915260058301546040808401919091526006840154606084015260079093015460809092019190915281518083019092526008840154825260099093015460ff161515928101929092529082565b5f82815260086020526040812061081a8184610fe4565b915081600a5f8681526020019081526020015f205f82825461083c91906121c8565b909155505060088101545f0361097757604080516102008101825282546001600160a01b03908116928201928352600180850154808316606085015264ffffffffff600160a01b80830482166080870152600160c81b808404831660a088015260ff600160f01b8504811660c0890152600160f81b909404841660e08801526002890154861661010088015260038901549586166101208801529085049091166101408601526109779587948694919386936101608701939204169081111561090757610907611f5a565b600181111561091857610918611f5a565b8152600482015460208083019190915260058301546040808401919091526006840154606084015260079093015460809092019190915291835280518082019091526008840154815260099093015460ff1615158382015201526112be565b5092915050565b5f5460408051630ccc574960e41b815290516001600160a01b03909216916391d1485491839163ccc57490916004808201926020929091908290030181865afa1580156109cd573d5f803e3d5ffd5b505050506040513d601f19601f820116820180604052508101906109f19190612170565b6040516001600160e01b031960e084901b1681526004810191909152336024820152604401602060405180830381865afa158015610a31573d5f803e3d5ffd5b505050506040513d601f19601f82011682018060405250810190610a55919061219b565b610a7457604051630ea7d7ed60e21b8152336004820152602401610371565b610a7d816113c3565b50565b5f818152600860205260408120610a969061140d565b92915050565b5f5460408051630ccc574960e41b815290516001600160a01b03909216916391d1485491839163ccc57490916004808201926020929091908290030181865afa158015610aeb573d5f803e3d5ffd5b505050506040513d601f19601f82011682018060405250810190610b0f9190612170565b6040516001600160e01b031960e084901b1681526004810191909152336024820152604401602060405180830381865afa158015610b4f573d5f803e3d5ffd5b505050506040513d601f19601f82011682018060405250810190610b73919061219b565b610b9257604051630ea7d7ed60e21b8152336004820152602401610371565b5f818152600860205260409020610ba8816115a7565b604080516102008101825282546001600160a01b03908116928201928352600180850154808316606085015264ffffffffff600160a01b80830482166080870152600160c81b808404831660a088015260ff600160f01b8504811660c0890152600160f81b909404841660e0880152600289015486166101008801526003890154958616610120880152908504909116610140860152610c639587948694919386936101608701939204169081111561090757610907611f5a565b5050565b5f5460408051630ccc574960e41b815290516001600160a01b03909216916391d1485491839163ccc57490916004808201926020929091908290030181865afa158015610cb6573d5f803e3d5ffd5b505050506040513d601f19601f82011682018060405250810190610cda9190612170565b6040516001600160e01b031960e084901b1681526004810191909152336024820152604401602060405180830381865afa158015610d1a573d5f803e3d5ffd5b505050506040513d601f19601f82011682018060405250810190610d3e919061219b565b610d5d57604051630ea7d7ed60e21b8152336004820152602401610371565b600780546001600160a01b0319166001600160a01b0392909216919091179055565b610d87611e73565b5f828152600860205260409081902081516102008101835281546001600160a01b03908116938201938452600180840154808316606085015264ffffffffff600160a01b80830482166080870152600160c81b808404831660a088015260ff600160f01b8504811660c0890152600160f81b909404841660e088015260028801548616610100880152600388015495861661012088015290850490911661014086015293958694909386936101608701939290910490911690811115610e4f57610e4f611f5a565b6001811115610e6057610e60611f5a565b8152600482015460208083019190915260058301546040808401919091526006840154606084015260079093015460809092019190915291835280518082019091526008840154815260099093015460ff16151583820152015292915050565b610ec8611e73565b5f60405180610160016040528060065f8154610ee3906121db565b918290555081526001600160a01b03808916602083015287811660408301526001805464ffffffffff166060840152600254608084015260035460a084015260c0830188905260045460e0840152336101008401529086166101208301526005546101409092019160ff1690811115610f5e57610f5e611f5a565b9052604051631bd590b960e11b815290915073__$87c00a11f154e19488f2e9ac8cdbd9f046$__906337ab217290610f9a9084906004016121f3565b61020060405180830381865af4158015610fb6573d5f803e3d5ffd5b505050506040513d601f19601f82011682018060405250810190610fda91906123ab565b9695505050505050565b81545f906001600160a01b031661100e576040516307145c5f60e11b815260040160405180910390fd5b600983015460ff161561104957600383015460405163d9e3dd8360e01b8152600160a01b90910464ffffffffff166004820152602401610371565b6001830154600160c81b900464ffffffffff16421061109057600383015460405163aff5aad960e01b8152600160a01b90910464ffffffffff166004820152602401610371565b60088301548211156110b557604051632783839d60e01b815260040160405180910390fd5b604080516102008101825284546001600160a01b03908116928201928352600180870154808316606085015264ffffffffff600160a01b80830482166080870152600160c81b808404831660a088015260ff600160f01b8504811660c0890152600160f81b909404841660e088015260028b0154861661010088015260038b01549586166101208801529085049091166101408601525f956111e595948a9486949293869361016087019391909104169081111561117557611175611f5a565b600181111561118657611186611f5a565b8152600482015460208083019190915260058301546040808401919091526006840154606084015260079093015460809092019190915291835280518082019091526008840154815260099093015460ff16151583820152015261165b565b600185015490915061120f908290859060ff600160f81b8204811691600160f01b900416816116d2565b915082846008015f015f82825461122691906124d1565b90915550506001840154611245906001600160a01b0316333085611711565b835461125b906001600160a01b0316338561177e565b600384015460408051858152602081018490523392600160a01b900464ffffffffff16917fe8d7e55108ae7ddb60173461d2950c7a8e22a7ac7f442825564fe84c8c6f9a38910160405180910390a360088401545f0361097757610977846117b4565b8051610100015164ffffffffff165f908152600a602052604090819020549051630852cd8d60e31b8152600481018290527f00000000000000000000000000000000000000000000000000000000000000006001600160a01b0316906342966c68906024015f604051808303815f87803b15801561133a575f80fd5b505af115801561134c573d5f803e3d5ffd5b505050507fbb7b92357c58ac7f76efa146802fb325f7a147f953e808b572d851e8406b2f1e8160405161138191815260200190565b60405180910390a1508051516001600160a01b03165f9081526009602090815260408083208390559251610100015164ffffffffff168252600a905290812055565b8060016113d082826124e4565b9050507fe9d5a90069e830741fa6df4fbb146dc3c0918e85d57eb372c70e743198179c79816040516114029190612567565b60405180910390a150565b604080516102008101825282546001600160a01b03908116928201928352600180850154808316606085015264ffffffffff600160a01b80830482166080870152600160c81b808404831660a088015260ff600160f01b8504811660c0890152600160f81b909404841660e08801526002890154861661010088015260038901549586166101208801529085049091166101408601525f958794869491938693610160870193920416908111156114c6576114c6611f5a565b60018111156114d7576114d7611f5a565b8152600482810154602080840191909152600584015460408085019190915260068501546060850152600790940154608090930192909252928452815180830183526008860154815260099095015460ff161515858201529290920192909252516370d8532160e11b815273__$87c00a11f154e19488f2e9ac8cdbd9f046$__9263e1b0a64292611568920161213e565b602060405180830381865af4158015611583573d5f803e3d5ffd5b505050506040513d601f19601f82011682018060405250810190610a969190612170565b80546001600160a01b03166115cf576040516307145c5f60e11b815260040160405180910390fd5b600981015460ff161561160a57600381015460405163d9e3dd8360e01b8152600160a01b90910464ffffffffff166004820152602401610371565b6001810154600160c81b900464ffffffffff1642101561165257600381015460405163e30e8d4760e01b8152600160a01b90910464ffffffffff166004820152602401610371565b610a7d816117b4565b8051604001515f9081906116769064ffffffffff16426124d1565b835160408101516060909101519192505f9161169291906125b8565b845161012081015161014082015161016083015160a09093015164ffffffffff9490941694506116ca93919290918690869080611861565b949350505050565b5f806116de87866118b6565b90505f6116eb87866118b6565b90505f6116f88383611923565b90506117048186611934565b9998505050505050505050565b6040516001600160a01b0384811660248301528381166044830152606482018390526117789186918216906323b872dd906084015b604051602081830303815290604052915060e01b6020820180516001600160e01b038381831617835250505050611993565b50505050565b6040516001600160a01b038381166024830152604482018390526117af91859182169063a9059cbb90606401611746565b505050565b600881015460068201545f916117c9916124d1565b60098301805460ff1916600117905560088301549091501561180957600382015460088301548354611809926001600160a01b039182169291169061177e565b60038201546008830154604080518481526020810192909252600160a01b90920464ffffffffff16917fd11fb103f8d5c913b9e132f165c0cfa304fc230f10796a7a5d63bc3d8de4d3c3910160405180910390a25050565b5f8385106118705750846118ab565b5f88600181111561188357611883611f5a565b0361189d576118968787878787876119f4565b90506118ab565b611896878787878787611a77565b979650505050505050565b5f8160ff166012036118c9575081610a96565b60128260ff1611156118fc576118e06012836125d5565b6118eb90600a6126d1565b6118f590846126f3565b9050610a96565b6119078260126125d5565b61191290600a6126d1565b61191c9084612712565b9392505050565b5f61191c6119318484611b1c565b90565b5f8160ff16601203611947575081610a96565b60128260ff1611156119735761195e6012836125d5565b61196990600a6126d1565b6118f59084612712565b61197e8260126125d5565b61198990600a6126d1565b61191c90846126f3565b5f6119a76001600160a01b03841683611bce565b905080515f141580156119cb5750808060200190518101906119c9919061219b565b155b156117af57604051635274afe760e01b81526001600160a01b0384166004820152602401610371565b5f80611a0088856118b6565b90505f611a0d88866118b6565b90505f611a1d61193183856124d1565b90505f611a2989611bdb565b90505f611a3589611bdb565b90505f611a4c82611a468686611923565b90611c20565b90505f611a5982886124d1565b9050611a65818a611934565b9e9d5050505050505050505050505050565b5f80611a8388856118b6565b90505f611a9088866118b6565b90505f611aa061193183856124d1565b90505f611ab5611ab08a8a6124d1565b611bdb565b90505f611ac189611bdb565b90505f611acf836002611c37565b90505f611add836002611c37565b90505f611aee82611a468886611923565b90505f611afb82896121c8565b9050611b07818c611934565b99505050505050505050509695505050505050565b5f80805f19848609848602925082811083820303915050805f03611b4d5750670de0b6b3a764000090049050610a96565b670de0b6b3a76400008110611b7f57604051635173648d60e01b81526004810186905260248101859052604401610371565b5f670de0b6b3a764000085870962040000818503049310909103600160ee1b02919091177faccb18165bd6fe31ae1cf318dc5b51eee0e1ba569b88cd74c1773b91fac106690291505092915050565b606061191c83835f611c90565b5f611bef670de0b6b3a76400005f196126f3565b821115611c1257604051631cd951a760e01b815260048101839052602401610371565b50670de0b6b3a76400000290565b5f61191c61193184670de0b6b3a764000085611d1f565b5f828160018416611c5057670de0b6b3a7640000611c52565b815b9050600184901c93505b83156116ca57611c6c8283611b1c565b91506001841615611c8457611c818183611b1c565b90505b600184901c9350611c5c565b606081471015611cb55760405163cd78605960e01b8152306004820152602401610371565b5f80856001600160a01b03168486604051611cd09190612729565b5f6040518083038185875af1925050503d805f8114611d0a576040519150601f19603f3d011682016040523d82523d5f602084013e611d0f565b606091505b5091509150610fda868383611dee565b5f80805f19858709858702925082811083820303915050805f03611d5657838281611d4c57611d4c6126df565b049250505061191c565b838110611d8757604051630c740aef60e31b8152600481018790526024810186905260448101859052606401610371565b5f8486880960026001871981018816978890046003810283188082028403028082028403028082028403028082028403028082028403029081029092039091025f889003889004909101858311909403939093029303949094049190911702949350505050565b606082611e0357611dfe82611e4a565b61191c565b8151158015611e1a57506001600160a01b0384163b155b15611e4357604051639996b31560e01b81526001600160a01b0385166004820152602401610371565b508061191c565b805115611e5a5780518082602001fd5b604051630a12f52160e11b815260040160405180910390fd5b6040518060400160405280611eed604080516101c0810182525f80825260208201819052918101829052606081018290526080810182905260a0810182905260c0810182905260e0810182905261010081018290529061012082019081526020015f81526020015f81526020015f81526020015f81525090565b8152602001611f0f60405180604001604052805f81526020015f151581525090565b905290565b6001600160a01b0381168114610a7d575f80fd5b5f60208284031215611f38575f80fd5b813561191c81611f14565b5f60208284031215611f53575f80fd5b5035919050565b634e487b7160e01b5f52602160045260245ffd5b60028110611f8a57634e487b7160e01b5f52602160045260245ffd5b9052565b80516001600160a01b031682526020810151611fb560208401826001600160a01b03169052565b506040810151611fce604084018264ffffffffff169052565b506060810151611fe7606084018264ffffffffff169052565b506080810151611ffc608084018260ff169052565b5060a081015161201160a084018260ff169052565b5060c081015161202c60c08401826001600160a01b03169052565b5060e081015161204760e08401826001600160a01b03169052565b5061010081015161206261010084018264ffffffffff169052565b50610120810151612077610120840182611f6e565b506101408101516101408301526101608101516101608301526101808101516101808301526101a08101516101a08301525050565b61020081016120bb8285611f8e565b82516101c0830152602083015115156101e083015261191c565b5f80604083850312156120e6575f80fd5b50508035926020909101359150565b5f60a0828403128015612106575f80fd5b509092915050565b5f60a08201905064ffffffffff87168252856020830152846040830152836060830152610fda6080830184611f6e565b5f61020082019050612151828451611f8e565b60208381015180516101c08501529081015115156101e0840152610977565b5f60208284031215612180575f80fd5b5051919050565b80518015158114612196575f80fd5b919050565b5f602082840312156121ab575f80fd5b61191c82612187565b634e487b7160e01b5f52601160045260245ffd5b80820180821115610a9657610a966121b4565b5f600182016121ec576121ec6121b4565b5060010190565b81518152602080830151610160830191612217908401826001600160a01b03169052565b50604083015161223260408401826001600160a01b03169052565b50606083015161224b606084018264ffffffffff169052565b506080830151608083015260a083015160a083015260c083015160c083015260e083015160e08301526101008301516122906101008401826001600160a01b03169052565b506101208301516122ad6101208401826001600160a01b03169052565b50610140830151610977610140840182611f6e565b6040805190810167ffffffffffffffff811182821017156122f157634e487b7160e01b5f52604160045260245ffd5b60405290565b6040516101c0810167ffffffffffffffff811182821017156122f157634e487b7160e01b5f52604160045260245ffd5b805161219681611f14565b64ffffffffff81168114610a7d575f80fd5b805161219681612332565b805160ff81168114612196575f80fd5b60028110610a7d575f80fd5b80516121968161235f565b5f60408284031215612386575f80fd5b61238e6122c2565b8251815290506123a060208301612187565b602082015292915050565b5f818303610200811280156123be575f80fd5b506123c76122c2565b6101c08212156123d5575f80fd5b6123dd6122f7565b91506123e884612327565b82526123f660208501612327565b602083015261240760408501612344565b604083015261241860608501612344565b60608301526124296080850161234f565b608083015261243a60a0850161234f565b60a083015261244b60c08501612327565b60c083015261245c60e08501612327565b60e083015261246e6101008501612344565b610100830152612481610120850161236b565b6101208301526101408481015190830152610160808501519083015261018080850151908301526101a080850151908301528181526124c4856101c08601612376565b6020820152949350505050565b81810381811115610a9657610a966121b4565b81356124ef81612332565b815464ffffffffff191664ffffffffff919091161781556020820135600182015560408201356002820155606082013560038201556004810160808301356125368161235f565b6002811061255257634e487b7160e01b5f52602160045260245ffd5b60ff1982541660ff8216811783555050505050565b60a08101823561257681612332565b64ffffffffff16825260208381013590830152604080840135908301526060808401359083015260808301356125ab8161235f565b6109776080840182611f6e565b64ffffffffff8281168282160390811115610a9657610a966121b4565b60ff8281168282160390811115610a9657610a966121b4565b6001815b60018411156126295780850481111561260d5761260d6121b4565b600184161561261b57908102905b60019390931c9280026125f2565b935093915050565b5f8261263f57506001610a96565b8161264b57505f610a96565b8160018114612661576002811461266b57612687565b6001915050610a96565b60ff84111561267c5761267c6121b4565b50506001821b610a96565b5060208310610133831016604e8410600b84101617156126aa575081810a610a96565b6126b65f1984846125ee565b805f19048211156126c9576126c96121b4565b029392505050565b5f61191c60ff841683612631565b634e487b7160e01b5f52601260045260245ffd5b5f8261270d57634e487b7160e01b5f52601260045260245ffd5b500490565b8082028115828204841417610a9657610a966121b4565b5f82518060208501845e5f92019182525091905056fea26469706673582212205f43b3a5a1207532c8522b15dca1c4326344caa34af8bc966b9b47bd9b7b5bbe64736f6c634300081a0033","linkReferences":{"node_modules/@summerfi/dutch-auction/src/DutchAuctionLibrary.sol":{"DutchAuctionLibrary":[{"start":4723,"length":20},{"start":6213,"length":20}]}}},"methodIdentifiers":{"auctionDefaultParameters()":"c2f8b526","auctionSummerRaised(uint256)":"473d18c2","auctions(uint256)":"571a26a0","buyTokens(uint256,uint256)":"7975ce28","finalizeAuction(uint256)":"e8083863","getAuctionInfo(uint256)":"fc3fc4ed","getCurrentPrice(uint256)":"c55d0f56","nextAuctionId()":"fc528482","ongoingAuctions(address)":"c13526b4","setTreasury(address)":"f0f44260","startAuction(address)":"4075fa0f","summerToken()":"f9ddf50d","treasury()":"61d027b3","updateAuctionDefaultParameters((uint40,uint256,uint256,uint256,uint8))":"a11a9121"},"id":133}