{"abi":[{"type":"constructor","inputs":[{"name":"_summer","type":"address","internalType":"address"},{"name":"_accessManager","type":"address","internalType":"address"},{"name":"_configurationManager","type":"address","internalType":"address"},{"name":"_defaultParameters","type":"tuple","internalType":"struct AuctionDefaultParameters","components":[{"name":"duration","type":"uint40","internalType":"uint40"},{"name":"startPrice","type":"uint256","internalType":"uint256"},{"name":"endPrice","type":"uint256","internalType":"uint256"},{"name":"kickerRewardPercentage","type":"uint256","internalType":"Percentage"},{"name":"decayType","type":"uint8","internalType":"enum DecayFunctions.DecayType"}]}],"stateMutability":"nonpayable"},{"type":"function","name":"auctionDefaultParameters","inputs":[],"outputs":[{"name":"duration","type":"uint40","internalType":"uint40"},{"name":"startPrice","type":"uint256","internalType":"uint256"},{"name":"endPrice","type":"uint256","internalType":"uint256"},{"name":"kickerRewardPercentage","type":"uint256","internalType":"Percentage"},{"name":"decayType","type":"uint8","internalType":"enum DecayFunctions.DecayType"}],"stateMutability":"view"},{"type":"function","name":"auctionSummerRaised","inputs":[{"name":"auctionId","type":"uint256","internalType":"uint256"}],"outputs":[{"name":"amountRaised","type":"uint256","internalType":"uint256"}],"stateMutability":"view"},{"type":"function","name":"auctions","inputs":[{"name":"auctionId","type":"uint256","internalType":"uint256"}],"outputs":[{"name":"config","type":"tuple","internalType":"struct DutchAuctionLibrary.AuctionConfig","components":[{"name":"auctionToken","type":"address","internalType":"contract IERC20"},{"name":"paymentToken","type":"address","internalType":"contract IERC20"},{"name":"startTime","type":"uint40","internalType":"uint40"},{"name":"endTime","type":"uint40","internalType":"uint40"},{"name":"auctionTokenDecimals","type":"uint8","internalType":"uint8"},{"name":"paymentTokenDecimals","type":"uint8","internalType":"uint8"},{"name":"auctionKicker","type":"address","internalType":"address"},{"name":"unsoldTokensRecipient","type":"address","internalType":"address"},{"name":"id","type":"uint40","internalType":"uint40"},{"name":"decayType","type":"uint8","internalType":"enum DecayFunctions.DecayType"},{"name":"startPrice","type":"uint256","internalType":"uint256"},{"name":"endPrice","type":"uint256","internalType":"uint256"},{"name":"totalTokens","type":"uint256","internalType":"uint256"},{"name":"kickerRewardAmount","type":"uint256","internalType":"uint256"}]},{"name":"state","type":"tuple","internalType":"struct DutchAuctionLibrary.AuctionState","components":[{"name":"remainingTokens","type":"uint256","internalType":"uint256"},{"name":"isFinalized","type":"bool","internalType":"bool"}]}],"stateMutability":"view"},{"type":"function","name":"buyTokens","inputs":[{"name":"auctionId","type":"uint256","internalType":"uint256"},{"name":"amount","type":"uint256","internalType":"uint256"}],"outputs":[{"name":"summerAmount","type":"uint256","internalType":"uint256"}],"stateMutability":"nonpayable"},{"type":"function","name":"configurationManager","inputs":[],"outputs":[{"name":"","type":"address","internalType":"contract IConfigurationManager"}],"stateMutability":"view"},{"type":"function","name":"finalizeAuction","inputs":[{"name":"auctionId","type":"uint256","internalType":"uint256"}],"outputs":[],"stateMutability":"nonpayable"},{"type":"function","name":"fleetCommanderRewardsManagerFactory","inputs":[],"outputs":[{"name":"","type":"address","internalType":"address"}],"stateMutability":"view"},{"type":"function","name":"generateRole","inputs":[{"name":"roleName","type":"uint8","internalType":"enum ContractSpecificRoles"},{"name":"roleTargetContract","type":"address","internalType":"address"}],"outputs":[{"name":"","type":"bytes32","internalType":"bytes32"}],"stateMutability":"pure"},{"type":"function","name":"getAuctionInfo","inputs":[{"name":"auctionId","type":"uint256","internalType":"uint256"}],"outputs":[{"name":"","type":"tuple","internalType":"struct DutchAuctionLibrary.Auction","components":[{"name":"config","type":"tuple","internalType":"struct DutchAuctionLibrary.AuctionConfig","components":[{"name":"auctionToken","type":"address","internalType":"contract IERC20"},{"name":"paymentToken","type":"address","internalType":"contract IERC20"},{"name":"startTime","type":"uint40","internalType":"uint40"},{"name":"endTime","type":"uint40","internalType":"uint40"},{"name":"auctionTokenDecimals","type":"uint8","internalType":"uint8"},{"name":"paymentTokenDecimals","type":"uint8","internalType":"uint8"},{"name":"auctionKicker","type":"address","internalType":"address"},{"name":"unsoldTokensRecipient","type":"address","internalType":"address"},{"name":"id","type":"uint40","internalType":"uint40"},{"name":"decayType","type":"uint8","internalType":"enum DecayFunctions.DecayType"},{"name":"startPrice","type":"uint256","internalType":"uint256"},{"name":"endPrice","type":"uint256","internalType":"uint256"},{"name":"totalTokens","type":"uint256","internalType":"uint256"},{"name":"kickerRewardAmount","type":"uint256","internalType":"uint256"}]},{"name":"state","type":"tuple","internalType":"struct DutchAuctionLibrary.AuctionState","components":[{"name":"remainingTokens","type":"uint256","internalType":"uint256"},{"name":"isFinalized","type":"bool","internalType":"bool"}]}]}],"stateMutability":"view"},{"type":"function","name":"getCurrentPrice","inputs":[{"name":"auctionId","type":"uint256","internalType":"uint256"}],"outputs":[{"name":"","type":"uint256","internalType":"uint256"}],"stateMutability":"view"},{"type":"function","name":"harborCommand","inputs":[],"outputs":[{"name":"","type":"address","internalType":"address"}],"stateMutability":"view"},{"type":"function","name":"hasAdmiralsQuartersRole","inputs":[{"name":"account","type":"address","internalType":"address"}],"outputs":[{"name":"","type":"bool","internalType":"bool"}],"stateMutability":"view"},{"type":"function","name":"nextAuctionId","inputs":[],"outputs":[{"name":"","type":"uint256","internalType":"uint256"}],"stateMutability":"view"},{"type":"function","name":"ongoingAuctions","inputs":[{"name":"tokenAddress","type":"address","internalType":"address"}],"outputs":[{"name":"auctionId","type":"uint256","internalType":"uint256"}],"stateMutability":"view"},{"type":"function","name":"raft","inputs":[],"outputs":[{"name":"","type":"address","internalType":"address"}],"stateMutability":"view"},{"type":"function","name":"startAuction","inputs":[{"name":"tokenToAuction","type":"address","internalType":"address"}],"outputs":[],"stateMutability":"nonpayable"},{"type":"function","name":"summerToken","inputs":[],"outputs":[{"name":"","type":"address","internalType":"contract ERC20Burnable"}],"stateMutability":"view"},{"type":"function","name":"tipJar","inputs":[],"outputs":[{"name":"","type":"address","internalType":"address"}],"stateMutability":"view"},{"type":"function","name":"treasury","inputs":[],"outputs":[{"name":"","type":"address","internalType":"address"}],"stateMutability":"view"},{"type":"function","name":"updateAuctionDefaultParameters","inputs":[{"name":"newParameters","type":"tuple","internalType":"struct AuctionDefaultParameters","components":[{"name":"duration","type":"uint40","internalType":"uint40"},{"name":"startPrice","type":"uint256","internalType":"uint256"},{"name":"endPrice","type":"uint256","internalType":"uint256"},{"name":"kickerRewardPercentage","type":"uint256","internalType":"Percentage"},{"name":"decayType","type":"uint8","internalType":"enum DecayFunctions.DecayType"}]}],"outputs":[],"stateMutability":"nonpayable"},{"type":"event","name":"AuctionDefaultParametersUpdated","inputs":[{"name":"newConfig","type":"tuple","indexed":false,"internalType":"struct AuctionDefaultParameters","components":[{"name":"duration","type":"uint40","internalType":"uint40"},{"name":"startPrice","type":"uint256","internalType":"uint256"},{"name":"endPrice","type":"uint256","internalType":"uint256"},{"name":"kickerRewardPercentage","type":"uint256","internalType":"Percentage"},{"name":"decayType","type":"uint8","internalType":"enum DecayFunctions.DecayType"}]}],"anonymous":false},{"type":"event","name":"AuctionFinalized","inputs":[{"name":"auctionId","type":"uint256","indexed":true,"internalType":"uint256"},{"name":"soldTokens","type":"uint256","indexed":false,"internalType":"uint256"},{"name":"unsoldTokens","type":"uint256","indexed":false,"internalType":"uint256"}],"anonymous":false},{"type":"event","name":"BuyAndBurnAuctionStarted","inputs":[{"name":"auctionId","type":"uint256","indexed":true,"internalType":"uint256"},{"name":"tokenToAuction","type":"address","indexed":true,"internalType":"address"},{"name":"amount","type":"uint256","indexed":false,"internalType":"uint256"}],"anonymous":false},{"type":"event","name":"SummerBurned","inputs":[{"name":"amount","type":"uint256","indexed":false,"internalType":"uint256"}],"anonymous":false},{"type":"event","name":"TokensPurchased","inputs":[{"name":"auctionId","type":"uint256","indexed":true,"internalType":"uint256"},{"name":"buyer","type":"address","indexed":true,"internalType":"address"},{"name":"amount","type":"uint256","indexed":false,"internalType":"uint256"},{"name":"price","type":"uint256","indexed":false,"internalType":"uint256"}],"anonymous":false},{"type":"error","name":"AuctionAlreadyFinalized","inputs":[{"name":"auctionId","type":"uint256","internalType":"uint256"}]},{"type":"error","name":"AuctionNotActive","inputs":[{"name":"auctionId","type":"uint256","internalType":"uint256"}]},{"type":"error","name":"AuctionNotEnded","inputs":[{"name":"auctionId","type":"uint256","internalType":"uint256"}]},{"type":"error","name":"AuctionNotFound","inputs":[]},{"type":"error","name":"BuyAndBurnAuctionAlreadyRunning","inputs":[{"name":"tokenToAuction","type":"address","internalType":"address"}]},{"type":"error","name":"CallerIsNotAdmin","inputs":[{"name":"caller","type":"address","internalType":"address"}]},{"type":"error","name":"CallerIsNotAuthorizedToBoard","inputs":[{"name":"caller","type":"address","internalType":"address"}]},{"type":"error","name":"CallerIsNotCommander","inputs":[{"name":"caller","type":"address","internalType":"address"}]},{"type":"error","name":"CallerIsNotContractSpecificRole","inputs":[{"name":"caller","type":"address","internalType":"address"},{"name":"role","type":"bytes32","internalType":"bytes32"}]},{"type":"error","name":"CallerIsNotCurator","inputs":[{"name":"caller","type":"address","internalType":"address"}]},{"type":"error","name":"CallerIsNotDecayController","inputs":[{"name":"caller","type":"address","internalType":"address"}]},{"type":"error","name":"CallerIsNotGovernor","inputs":[{"name":"caller","type":"address","internalType":"address"}]},{"type":"error","name":"CallerIsNotGuardian","inputs":[{"name":"caller","type":"address","internalType":"address"}]},{"type":"error","name":"CallerIsNotGuardianOrGovernor","inputs":[{"name":"caller","type":"address","internalType":"address"}]},{"type":"error","name":"CallerIsNotKeeper","inputs":[{"name":"caller","type":"address","internalType":"address"}]},{"type":"error","name":"CallerIsNotRaft","inputs":[{"name":"caller","type":"address","internalType":"address"}]},{"type":"error","name":"CallerIsNotRaftOrCommander","inputs":[{"name":"caller","type":"address","internalType":"address"}]},{"type":"error","name":"CallerIsNotSuperKeeper","inputs":[{"name":"caller","type":"address","internalType":"address"}]},{"type":"error","name":"ConfigurationManagerZeroAddress","inputs":[]},{"type":"error","name":"DirectGrantIsDisabled","inputs":[{"name":"caller","type":"address","internalType":"address"}]},{"type":"error","name":"DirectRevokeIsDisabled","inputs":[{"name":"caller","type":"address","internalType":"address"}]},{"type":"error","name":"InsufficientTokensAvailable","inputs":[]},{"type":"error","name":"InvalidAccessManagerAddress","inputs":[{"name":"invalidAddress","type":"address","internalType":"address"}]},{"type":"error","name":"InvalidDecayType","inputs":[]},{"type":"error","name":"PRBMath_MulDiv18_Overflow","inputs":[{"name":"x","type":"uint256","internalType":"uint256"},{"name":"y","type":"uint256","internalType":"uint256"}]},{"type":"error","name":"PRBMath_MulDiv_Overflow","inputs":[{"name":"x","type":"uint256","internalType":"uint256"},{"name":"y","type":"uint256","internalType":"uint256"},{"name":"denominator","type":"uint256","internalType":"uint256"}]},{"type":"error","name":"PRBMath_UD60x18_Convert_Overflow","inputs":[{"name":"x","type":"uint256","internalType":"uint256"}]},{"type":"error","name":"SafeERC20FailedOperation","inputs":[{"name":"token","type":"address","internalType":"address"}]}],"bytecode":{"object":"0x60c060405234801561000f575f5ffd5b50604051612add380380612add83398101604081905261002e916101f7565b8181846001600160a01b03811661005f576040516347bd7c1d60e01b81525f60048201526024015b60405180910390fd5b6040516301ffc9a760e01b81526338c7ccdb60e01b60048201526001600160a01b038216906301ffc9a790602401602060405180830381865afa1580156100a8573d5f5f3e3d5ffd5b505050506040513d601f19601f820116820180604052508101906100cc91906102be565b6100f4576040516347bd7c1d60e01b81526001600160a01b0382166004820152602401610056565b5f80546001600160a01b0319166001600160a01b039290921691909117905580516001805464ffffffffff191664ffffffffff909216919091178155602082015160025560408201516003556060820151600455608082015160058054849392919060ff191683838181111561016c5761016c6102e4565b021790555050506001600160a01b038216905061019c5760405163f1634df960e01b815260040160405180910390fd5b6001600160a01b039081166080529390931660a052506102f8915050565b80516001600160a01b03811681146101d0575f5ffd5b919050565b805164ffffffffff811681146101d0575f5ffd5b8051600281106101d0575f5ffd5b5f5f5f5f84860361010081121561020c575f5ffd5b610215866101ba565b9450610223602087016101ba565b9350610231604087016101ba565b925060a0605f1982011215610244575f5ffd5b5060405160a081016001600160401b038111828210171561027357634e487b7160e01b5f52604160045260245ffd5b604052610282606087016101d5565b81526080860151602082015260a0860151604082015260c086015160608201526102ae60e087016101e9565b6080820152939692955090935050565b5f602082840312156102ce575f5ffd5b815180151581146102dd575f5ffd5b9392505050565b634e487b7160e01b5f52602160045260245ffd5b60805160a05161279361034a5f395f81816102d50152818161045e015261139601525f818161027001528181610323015281816108370152818161089401528181610a9f0152610dca01526127935ff3fe608060405234801561000f575f5ffd5b5060043610610127575f3560e01c8063c13526b4116100a9578063ebc136d01161006e578063ebc136d0146102a5578063f7e533ec146102c8578063f9ddf50d146102d0578063fc3fc4ed146102f7578063fc52848214610317575f5ffd5b8063c13526b414610204578063c2f8b52614610223578063c55d0f5614610258578063c9c667e31461026b578063e808386314610292575f5ffd5b806361d027b3116100ef57806361d027b3146101bb57806369b3054b146101c35780637975ce28146101d65780637aaceb95146101e9578063a11a9121146101f1575f5ffd5b8063117d8ae01461012b5780634075fa0f14610150578063473d18c214610165578063571a26a0146101925780635b0f83f3146101b3575b5f5ffd5b610133610320565b6040516001600160a01b0390911681526020015b60405180910390f35b61016361015e366004611ee8565b6103a6565b005b610184610173366004611f03565b60096020525f908152604090205481565b604051908152602001610147565b6101a56101a0366004611f03565b610706565b604051610147929190612060565b610133610834565b610133610891565b6101846101d1366004612089565b6108ee565b6101846101e43660046120c3565b610921565b610133610a9c565b6101636101ff3660046120e3565b610af9565b610184610212366004611ee8565b60086020525f908152604090205481565b6001546002546003546004546005546102479464ffffffffff169392919060ff1685565b6040516101479594939291906120fc565b610184610266366004611f03565b610bfb565b6101337f000000000000000000000000000000000000000000000000000000000000000081565b6101636102a0366004611f03565b610c11565b6102b86102b3366004611ee8565b610ce6565b6040519015158152602001610147565b610133610dc7565b6101337f000000000000000000000000000000000000000000000000000000000000000081565b61030a610305366004611f03565b610e24565b604051610147919061212c565b61018460065481565b5f7f00000000000000000000000000000000000000000000000000000000000000006001600160a01b031663117d8ae06040518163ffffffff1660e01b8152600401602060405180830381865afa15801561037d573d5f5f3e3d5ffd5b505050506040513d601f19601f820116820180604052508101906103a1919061216e565b905090565b6001600160a01b0381165f90815260086020526040902054156103eb57604051627f39b160e81b81526001600160a01b03821660048201526024015b60405180910390fd5b6040516370a0823160e01b815230600482015281905f906001600160a01b038316906370a0823190602401602060405180830381865afa158015610431573d5f5f3e3d5ffd5b505050506040513d601f19601f820116820180604052508101906104559190612189565b90505f61048b837f000000000000000000000000000000000000000000000000000000000000000084610486610891565b610f65565b90505f60065490508160075f8381526020019081526020015f205f820151815f015f820151815f015f6101000a8154816001600160a01b0302191690836001600160a01b031602179055506020820151816001015f6101000a8154816001600160a01b0302191690836001600160a01b0316021790555060408201518160010160146101000a81548164ffffffffff021916908364ffffffffff16021790555060608201518160010160196101000a81548164ffffffffff021916908364ffffffffff160217905550608082015181600101601e6101000a81548160ff021916908360ff16021790555060a082015181600101601f6101000a81548160ff021916908360ff16021790555060c0820151816002015f6101000a8154816001600160a01b0302191690836001600160a01b0316021790555060e0820151816003015f6101000a8154816001600160a01b0302191690836001600160a01b031602179055506101008201518160030160146101000a81548164ffffffffff021916908364ffffffffff1602179055506101208201518160030160196101000a81548160ff0219169083600181111561064357610643611f1a565b02179055506101408201516004820155610160820151600582015561018082015160068201556101a0909101516007909101556020918201518051600880840191909155908301516009928301805491151560ff199092169190911790556001600160a01b0388165f818152918452604080832086905585835292909352818120555182907fa47aeb694c2a8362d1f64935968e9a4884fe70b503208843d370bd3952f1243e906106f79087815260200190565b60405180910390a35050505050565b600760209081525f91825260409182902082516101c08101845281546001600160a01b0390811682526001808401548083169584019590955264ffffffffff600160a01b808704821697850197909752600160c81b8087048216606086015260ff600160f01b880481166080870152600160f81b909704871660a08601526002860154841660c0860152600386015493841660e08601529683041661010084015292949193859361012086019390920416908111156107c7576107c7611f1a565b60018111156107d8576107d8611f1a565b8152600482015460208083019190915260058301546040808401919091526006840154606084015260079093015460809092019190915281518083019092526008840154825260099093015460ff161515928101929092529082565b5f7f00000000000000000000000000000000000000000000000000000000000000006001600160a01b0316635b0f83f36040518163ffffffff1660e01b8152600401602060405180830381865afa15801561037d573d5f5f3e3d5ffd5b5f7f00000000000000000000000000000000000000000000000000000000000000006001600160a01b03166361d027b36040518163ffffffff1660e01b8152600401602060405180830381865afa15801561037d573d5f5f3e3d5ffd5b5f82826040516020016109029291906121a0565b6040516020818303038152906040528051906020012090505b92915050565b5f8281526007602052604081206109388184611089565b91508160095f8681526020019081526020015f205f82825461095a91906121eb565b909155505060088101545f03610a9557604080516102008101825282546001600160a01b03908116928201928352600180850154808316606085015264ffffffffff600160a01b80830482166080870152600160c81b808404831660a088015260ff600160f01b8504811660c0890152600160f81b909404841660e0880152600289015486166101008801526003890154958616610120880152908504909116610140860152610a9595879486949193869361016087019392041690811115610a2557610a25611f1a565b6001811115610a3657610a36611f1a565b8152600482015460208083019190915260058301546040808401919091526006840154606084015260079093015460809092019190915291835280518082019091526008840154815260099093015460ff161515838201520152611363565b5092915050565b5f7f00000000000000000000000000000000000000000000000000000000000000006001600160a01b0316637aaceb956040518163ffffffff1660e01b8152600401602060405180830381865afa15801561037d573d5f5f3e3d5ffd5b5f5460408051630ccc574960e41b815290516001600160a01b03909216916391d1485491839163ccc57490916004808201926020929091908290030181865afa158015610b48573d5f5f3e3d5ffd5b505050506040513d601f19601f82011682018060405250810190610b6c9190612189565b6040516001600160e01b031960e084901b1681526004810191909152336024820152604401602060405180830381865afa158015610bac573d5f5f3e3d5ffd5b505050506040513d601f19601f82011682018060405250810190610bd0919061220d565b610bef57604051630ea7d7ed60e21b81523360048201526024016103e2565b610bf881611468565b50565b5f81815260076020526040812061091b906114b2565b5f818152600760205260409020610c278161164c565b604080516102008101825282546001600160a01b03908116928201928352600180850154808316606085015264ffffffffff600160a01b80830482166080870152600160c81b808404831660a088015260ff600160f01b8504811660c0890152600160f81b909404841660e0880152600289015486166101008801526003890154958616610120880152908504909116610140860152610ce295879486949193869361016087019392041690811115610a2557610a25611f1a565b5050565b5f80546040805163a89f38a360e01b815290516001600160a01b03909216916391d1485491839163a89f38a3916004808201926020929091908290030181865afa158015610d36573d5f5f3e3d5ffd5b505050506040513d601f19601f82011682018060405250810190610d5a9190612189565b6040516001600160e01b031960e084901b16815260048101919091526001600160a01b0385166024820152604401602060405180830381865afa158015610da3573d5f5f3e3d5ffd5b505050506040513d601f19601f8201168201806040525081019061091b919061220d565b5f7f00000000000000000000000000000000000000000000000000000000000000006001600160a01b031663f7e533ec6040518163ffffffff1660e01b8152600401602060405180830381865afa15801561037d573d5f5f3e3d5ffd5b610e2c611e33565b5f828152600760205260409081902081516102008101835281546001600160a01b03908116938201938452600180840154808316606085015264ffffffffff600160a01b80830482166080870152600160c81b808404831660a088015260ff600160f01b8504811660c0890152600160f81b909404841660e088015260028801548616610100880152600388015495861661012088015290850490911661014086015293958694909386936101608701939290910490911690811115610ef457610ef4611f1a565b6001811115610f0557610f05611f1a565b8152600482015460208083019190915260058301546040808401919091526006840154606084015260079093015460809092019190915291835280518082019091526008840154815260099093015460ff16151583820152015292915050565b610f6d611e33565b5f60405180610160016040528060065f8154610f8890612226565b918290555081526001600160a01b03808916602083015287811660408301526001805464ffffffffff166060840152600254608084015260035460a084015260c0830188905260045460e0840152336101008401529086166101208301526005546101409092019160ff169081111561100357611003611f1a565b9052604051631bd590b960e11b815290915073__$87c00a11f154e19488f2e9ac8cdbd9f046$__906337ab21729061103f90849060040161223e565b61020060405180830381865af415801561105b573d5f5f3e3d5ffd5b505050506040513d601f19601f8201168201806040525081019061107f91906123eb565b9695505050505050565b81545f906001600160a01b03166110b3576040516307145c5f60e11b815260040160405180910390fd5b600983015460ff16156110ee57600383015460405163d9e3dd8360e01b8152600160a01b90910464ffffffffff1660048201526024016103e2565b6001830154600160c81b900464ffffffffff16421061113557600383015460405163aff5aad960e01b8152600160a01b90910464ffffffffff1660048201526024016103e2565b600883015482111561115a57604051632783839d60e01b815260040160405180910390fd5b604080516102008101825284546001600160a01b03908116928201928352600180870154808316606085015264ffffffffff600160a01b80830482166080870152600160c81b808404831660a088015260ff600160f01b8504811660c0890152600160f81b909404841660e088015260028b0154861661010088015260038b01549586166101208801529085049091166101408601525f9561128a95948a9486949293869361016087019391909104169081111561121a5761121a611f1a565b600181111561122b5761122b611f1a565b8152600482015460208083019190915260058301546040808401919091526006840154606084015260079093015460809092019190915291835280518082019091526008840154815260099093015460ff161515838201520152611700565b60018501549091506112b4908290859060ff600160f81b8204811691600160f01b90041681611777565b915082846008015f015f8282546112cb9190612511565b909155505060018401546112ea906001600160a01b03163330856117b6565b8354611300906001600160a01b03163385611823565b600384015460408051858152602081018490523392600160a01b900464ffffffffff16917fe8d7e55108ae7ddb60173461d2950c7a8e22a7ac7f442825564fe84c8c6f9a38910160405180910390a360088401545f03610a9557610a9584611859565b8051610100015164ffffffffff165f9081526009602052604090819020549051630852cd8d60e31b8152600481018290527f00000000000000000000000000000000000000000000000000000000000000006001600160a01b0316906342966c68906024015f604051808303815f87803b1580156113df575f5ffd5b505af11580156113f1573d5f5f3e3d5ffd5b505050507fbb7b92357c58ac7f76efa146802fb325f7a147f953e808b572d851e8406b2f1e8160405161142691815260200190565b60405180910390a1508051516001600160a01b03165f9081526008602090815260408083208390559251610100015164ffffffffff1682526009905290812055565b8060016114758282612524565b9050507fe9d5a90069e830741fa6df4fbb146dc3c0918e85d57eb372c70e743198179c79816040516114a7919061259b565b60405180910390a150565b604080516102008101825282546001600160a01b03908116928201928352600180850154808316606085015264ffffffffff600160a01b80830482166080870152600160c81b808404831660a088015260ff600160f01b8504811660c0890152600160f81b909404841660e08801526002890154861661010088015260038901549586166101208801529085049091166101408601525f9587948694919386936101608701939204169081111561156b5761156b611f1a565b600181111561157c5761157c611f1a565b8152600482810154602080840191909152600584015460408085019190915260068501546060850152600790940154608090930192909252928452815180830183526008860154815260099095015460ff161515858201529290920192909252516370d8532160e11b815273__$87c00a11f154e19488f2e9ac8cdbd9f046$__9263e1b0a6429261160d920161212c565b602060405180830381865af4158015611628573d5f5f3e3d5ffd5b505050506040513d601f19601f8201168201806040525081019061091b9190612189565b80546001600160a01b0316611674576040516307145c5f60e11b815260040160405180910390fd5b600981015460ff16156116af57600381015460405163d9e3dd8360e01b8152600160a01b90910464ffffffffff1660048201526024016103e2565b6001810154600160c81b900464ffffffffff164210156116f757600381015460405163e30e8d4760e01b8152600160a01b90910464ffffffffff1660048201526024016103e2565b610bf881611859565b8051604001515f90819061171b9064ffffffffff1642612511565b835160408101516060909101519192505f9161173791906125ec565b845161012081015161014082015161016083015160a09093015164ffffffffff94909416945061176f93919290918690869080611906565b949350505050565b5f80611783878661198d565b90505f611790878661198d565b90505f61179d83836119fa565b90506117a98186611a0b565b9998505050505050505050565b6040516001600160a01b03848116602483015283811660448301526064820183905261181d9186918216906323b872dd906084015b604051602081830303815290604052915060e01b6020820180516001600160e01b038381831617835250505050611a6a565b50505050565b6040516001600160a01b0383811660248301526044820183905261185491859182169063a9059cbb906064016117eb565b505050565b600881015460068201545f9161186e91612511565b60098301805460ff191660011790556008830154909150156118ae576003820154600883015483546118ae926001600160a01b0391821692911690611823565b60038201546008830154604080518481526020810192909252600160a01b90920464ffffffffff16917fd11fb103f8d5c913b9e132f165c0cfa304fc230f10796a7a5d63bc3d8de4d3c3910160405180910390a25050565b5f838510611915575084611982565b5f88600181111561192857611928611f1a565b036119425761193b878787878787611ad6565b9050611982565b600188600181111561195657611956611f1a565b036119695761193b878787878787611b59565b6040516346b2fddf60e11b815260040160405180910390fd5b979650505050505050565b5f8160ff166012036119a057508161091b565b60128260ff1611156119d3576119b7601283612609565b6119c290600a612705565b6119cc9084612727565b905061091b565b6119de826012612609565b6119e990600a612705565b6119f39084612746565b9392505050565b5f6119f3611a088484611bfe565b90565b5f8160ff16601203611a1e57508161091b565b60128260ff161115611a4a57611a35601283612609565b611a4090600a612705565b6119cc9084612746565b611a55826012612609565b611a6090600a612705565b6119f39084612727565b5f5f60205f8451602086015f885af180611a89576040513d5f823e3d81fd5b50505f513d91508115611aa0578060011415611aad565b6001600160a01b0384163b155b1561181d57604051635274afe760e01b81526001600160a01b03851660048201526024016103e2565b5f80611ae2888561198d565b90505f611aef888661198d565b90505f611aff611a088385612511565b90505f611b0b89611cb0565b90505f611b1789611cb0565b90505f611b2e82611b2886866119fa565b90611cf5565b90505f611b3b8288612511565b9050611b47818a611a0b565b9e9d5050505050505050505050505050565b5f80611b65888561198d565b90505f611b72888661198d565b90505f611b82611a088385612511565b90505f611b97611b928a8a612511565b611cb0565b90505f611ba389611cb0565b90505f611bb1836002611d0c565b90505f611bbf836002611d0c565b90505f611bd082611b2888866119fa565b90505f611bdd82896121eb565b9050611be9818c611a0b565b99505050505050505050509695505050505050565b5f80805f19848609848602925082811083820303915050805f03611c2f5750670de0b6b3a76400009004905061091b565b670de0b6b3a76400008110611c6157604051635173648d60e01b815260048101869052602481018590526044016103e2565b5f670de0b6b3a764000085870962040000818503049310909103600160ee1b02919091177faccb18165bd6fe31ae1cf318dc5b51eee0e1ba569b88cd74c1773b91fac106690291505092915050565b5f611cc4670de0b6b3a76400005f19612727565b821115611ce757604051631cd951a760e01b8152600481018390526024016103e2565b50670de0b6b3a76400000290565b5f6119f3611a0884670de0b6b3a764000085611d65565b5f828160018416611d2557670de0b6b3a7640000611d27565b815b9050600184901c93505b831561176f57611d418283611bfe565b91506001841615611d5957611d568183611bfe565b90505b600184901c9350611d31565b5f80805f19858709858702925082811083820303915050805f03611d9c57838281611d9257611d92612713565b04925050506119f3565b838110611dcd57604051630c740aef60e31b81526004810187905260248101869052604481018590526064016103e2565b5f84868809600260036001881981018916988990049182028318808302840302808302840302808302840302808302840302808302840302918202909203025f889003889004909101858311909403939093029303949094049190911702949350505050565b6040518060400160405280611ead604080516101c0810182525f80825260208201819052918101829052606081018290526080810182905260a0810182905260c0810182905260e0810182905261010081018290529061012082019081526020015f81526020015f81526020015f81526020015f81525090565b8152602001611ecf60405180604001604052805f81526020015f151581525090565b905290565b6001600160a01b0381168114610bf8575f5ffd5b5f60208284031215611ef8575f5ffd5b81356119f381611ed4565b5f60208284031215611f13575f5ffd5b5035919050565b634e487b7160e01b5f52602160045260245ffd5b60028110611f3e57611f3e611f1a565b9052565b80516001600160a01b031682526020810151611f6960208401826001600160a01b03169052565b506040810151611f82604084018264ffffffffff169052565b506060810151611f9b606084018264ffffffffff169052565b506080810151611fb0608084018260ff169052565b5060a0810151611fc560a084018260ff169052565b5060c0810151611fe060c08401826001600160a01b03169052565b5060e0810151611ffb60e08401826001600160a01b03169052565b5061010081015161201661010084018264ffffffffff169052565b5061012081015161202b610120840182611f2e565b506101408101516101408301526101608101516101608301526101808101516101808301526101a08101516101a08301525050565b610200810161206f8285611f42565b82516101c0830152602083015115156101e08301526119f3565b5f5f6040838503121561209a575f5ffd5b8235600381106120a8575f5ffd5b915060208301356120b881611ed4565b809150509250929050565b5f5f604083850312156120d4575f5ffd5b50508035926020909101359150565b5f60a08284031280156120f4575f5ffd5b509092915050565b5f60a08201905064ffffffffff8716825285602083015284604083015283606083015261107f6080830184611f2e565b5f6102008201905061213f828451611f42565b60208381015180516101c08501529081015115156101e0840152610a95565b805161216981611ed4565b919050565b5f6020828403121561217e575f5ffd5b81516119f381611ed4565b5f60208284031215612199575f5ffd5b5051919050565b5f600384106121b1576121b1611f1a565b5060f89290921b825260601b6bffffffffffffffffffffffff1916600182015260150190565b634e487b7160e01b5f52601160045260245ffd5b8082018082111561091b5761091b6121d7565b80518015158114612169575f5ffd5b5f6020828403121561221d575f5ffd5b6119f3826121fe565b5f60018201612237576122376121d7565b5060010190565b81518152602080830151610160830191612262908401826001600160a01b03169052565b50604083015161227d60408401826001600160a01b03169052565b506060830151612296606084018264ffffffffff169052565b506080830151608083015260a083015160a083015260c083015160c083015260e083015160e08301526101008301516122db6101008401826001600160a01b03169052565b506101208301516122f86101208401826001600160a01b03169052565b50610140830151610a95610140840182611f2e565b6040805190810167ffffffffffffffff8111828210171561233c57634e487b7160e01b5f52604160045260245ffd5b60405290565b6040516101c0810167ffffffffffffffff8111828210171561233c57634e487b7160e01b5f52604160045260245ffd5b64ffffffffff81168114610bf8575f5ffd5b805161216981612372565b805160ff81168114612169575f5ffd5b60028110610bf8575f5ffd5b80516121698161239f565b5f604082840312156123c6575f5ffd5b6123ce61230d565b8251815290506123e0602083016121fe565b602082015292915050565b5f818303610200811280156123fe575f5ffd5b5061240761230d565b6101c0821215612415575f5ffd5b61241d612342565b91506124288461215e565b82526124366020850161215e565b602083015261244760408501612384565b604083015261245860608501612384565b60608301526124696080850161238f565b608083015261247a60a0850161238f565b60a083015261248b60c0850161215e565b60c083015261249c60e0850161215e565b60e08301526124ae6101008501612384565b6101008301526124c161012085016123ab565b6101208301526101408481015190830152610160808501519083015261018080850151908301526101a08085015190830152818152612504856101c086016123b6565b6020820152949350505050565b8181038181111561091b5761091b6121d7565b813561252f81612372565b815464ffffffffff191664ffffffffff919091161781556020820135600182015560408201356002820155606082013560038201556004810160808301356125768161239f565b6002811061258657612586611f1a565b60ff1982541660ff8216811783555050505050565b60a0810182356125aa81612372565b64ffffffffff16825260208381013590830152604080840135908301526060808401359083015260808301356125df8161239f565b610a956080840182611f2e565b64ffffffffff828116828216039081111561091b5761091b6121d7565b60ff828116828216039081111561091b5761091b6121d7565b6001815b600184111561265d57808504811115612641576126416121d7565b600184161561264f57908102905b60019390931c928002612626565b935093915050565b5f826126735750600161091b565b8161267f57505f61091b565b8160018114612695576002811461269f576126bb565b600191505061091b565b60ff8411156126b0576126b06121d7565b50506001821b61091b565b5060208310610133831016604e8410600b84101617156126de575081810a61091b565b6126ea5f198484612622565b805f19048211156126fd576126fd6121d7565b029392505050565b5f6119f360ff841683612665565b634e487b7160e01b5f52601260045260245ffd5b5f8261274157634e487b7160e01b5f52601260045260245ffd5b500490565b808202811582820484141761091b5761091b6121d756fea26469706673582212203bde52f07eb9199e722a31f76da61bddb509687a99d16bd81beac3632bf6c97164736f6c634300081c0033","linkReferences":{"node_modules/@summerfi/dutch-auction/src/DutchAuctionLibrary.sol":{"DutchAuctionLibrary":[{"start":4961,"length":20},{"start":6451,"length":20}]}}},"methodIdentifiers":{"auctionDefaultParameters()":"c2f8b526","auctionSummerRaised(uint256)":"473d18c2","auctions(uint256)":"571a26a0","buyTokens(uint256,uint256)":"7975ce28","configurationManager()":"c9c667e3","finalizeAuction(uint256)":"e8083863","fleetCommanderRewardsManagerFactory()":"f7e533ec","generateRole(uint8,address)":"69b3054b","getAuctionInfo(uint256)":"fc3fc4ed","getCurrentPrice(uint256)":"c55d0f56","harborCommand()":"5b0f83f3","hasAdmiralsQuartersRole(address)":"ebc136d0","nextAuctionId()":"fc528482","ongoingAuctions(address)":"c13526b4","raft()":"117d8ae0","startAuction(address)":"4075fa0f","summerToken()":"f9ddf50d","tipJar()":"7aaceb95","treasury()":"61d027b3","updateAuctionDefaultParameters((uint40,uint256,uint256,uint256,uint8))":"a11a9121"},"id":192}