{"abi":[{"type":"constructor","inputs":[{"name":"_summer","type":"address","internalType":"address"},{"name":"_accessManager","type":"address","internalType":"address"},{"name":"_configurationManager","type":"address","internalType":"address"},{"name":"_defaultParameters","type":"tuple","internalType":"struct AuctionDefaultParameters","components":[{"name":"duration","type":"uint40","internalType":"uint40"},{"name":"startPrice","type":"uint256","internalType":"uint256"},{"name":"endPrice","type":"uint256","internalType":"uint256"},{"name":"kickerRewardPercentage","type":"uint256","internalType":"Percentage"},{"name":"decayType","type":"uint8","internalType":"enum DecayFunctions.DecayType"}]}],"stateMutability":"nonpayable"},{"type":"function","name":"auctionDefaultParameters","inputs":[],"outputs":[{"name":"duration","type":"uint40","internalType":"uint40"},{"name":"startPrice","type":"uint256","internalType":"uint256"},{"name":"endPrice","type":"uint256","internalType":"uint256"},{"name":"kickerRewardPercentage","type":"uint256","internalType":"Percentage"},{"name":"decayType","type":"uint8","internalType":"enum DecayFunctions.DecayType"}],"stateMutability":"view"},{"type":"function","name":"auctionSummerRaised","inputs":[{"name":"auctionId","type":"uint256","internalType":"uint256"}],"outputs":[{"name":"amountRaised","type":"uint256","internalType":"uint256"}],"stateMutability":"view"},{"type":"function","name":"auctions","inputs":[{"name":"auctionId","type":"uint256","internalType":"uint256"}],"outputs":[{"name":"config","type":"tuple","internalType":"struct DutchAuctionLibrary.AuctionConfig","components":[{"name":"auctionToken","type":"address","internalType":"contract IERC20"},{"name":"paymentToken","type":"address","internalType":"contract IERC20"},{"name":"startTime","type":"uint40","internalType":"uint40"},{"name":"endTime","type":"uint40","internalType":"uint40"},{"name":"auctionTokenDecimals","type":"uint8","internalType":"uint8"},{"name":"paymentTokenDecimals","type":"uint8","internalType":"uint8"},{"name":"auctionKicker","type":"address","internalType":"address"},{"name":"unsoldTokensRecipient","type":"address","internalType":"address"},{"name":"id","type":"uint40","internalType":"uint40"},{"name":"decayType","type":"uint8","internalType":"enum DecayFunctions.DecayType"},{"name":"startPrice","type":"uint256","internalType":"uint256"},{"name":"endPrice","type":"uint256","internalType":"uint256"},{"name":"totalTokens","type":"uint256","internalType":"uint256"},{"name":"kickerRewardAmount","type":"uint256","internalType":"uint256"}]},{"name":"state","type":"tuple","internalType":"struct DutchAuctionLibrary.AuctionState","components":[{"name":"remainingTokens","type":"uint256","internalType":"uint256"},{"name":"isFinalized","type":"bool","internalType":"bool"}]}],"stateMutability":"view"},{"type":"function","name":"buyTokens","inputs":[{"name":"auctionId","type":"uint256","internalType":"uint256"},{"name":"amount","type":"uint256","internalType":"uint256"}],"outputs":[{"name":"summerAmount","type":"uint256","internalType":"uint256"}],"stateMutability":"nonpayable"},{"type":"function","name":"configurationManager","inputs":[],"outputs":[{"name":"","type":"address","internalType":"contract IConfigurationManager"}],"stateMutability":"view"},{"type":"function","name":"finalizeAuction","inputs":[{"name":"auctionId","type":"uint256","internalType":"uint256"}],"outputs":[],"stateMutability":"nonpayable"},{"type":"function","name":"generateRole","inputs":[{"name":"roleName","type":"uint8","internalType":"enum ContractSpecificRoles"},{"name":"roleTargetContract","type":"address","internalType":"address"}],"outputs":[{"name":"","type":"bytes32","internalType":"bytes32"}],"stateMutability":"pure"},{"type":"function","name":"getAuctionInfo","inputs":[{"name":"auctionId","type":"uint256","internalType":"uint256"}],"outputs":[{"name":"","type":"tuple","internalType":"struct DutchAuctionLibrary.Auction","components":[{"name":"config","type":"tuple","internalType":"struct DutchAuctionLibrary.AuctionConfig","components":[{"name":"auctionToken","type":"address","internalType":"contract IERC20"},{"name":"paymentToken","type":"address","internalType":"contract IERC20"},{"name":"startTime","type":"uint40","internalType":"uint40"},{"name":"endTime","type":"uint40","internalType":"uint40"},{"name":"auctionTokenDecimals","type":"uint8","internalType":"uint8"},{"name":"paymentTokenDecimals","type":"uint8","internalType":"uint8"},{"name":"auctionKicker","type":"address","internalType":"address"},{"name":"unsoldTokensRecipient","type":"address","internalType":"address"},{"name":"id","type":"uint40","internalType":"uint40"},{"name":"decayType","type":"uint8","internalType":"enum DecayFunctions.DecayType"},{"name":"startPrice","type":"uint256","internalType":"uint256"},{"name":"endPrice","type":"uint256","internalType":"uint256"},{"name":"totalTokens","type":"uint256","internalType":"uint256"},{"name":"kickerRewardAmount","type":"uint256","internalType":"uint256"}]},{"name":"state","type":"tuple","internalType":"struct DutchAuctionLibrary.AuctionState","components":[{"name":"remainingTokens","type":"uint256","internalType":"uint256"},{"name":"isFinalized","type":"bool","internalType":"bool"}]}]}],"stateMutability":"view"},{"type":"function","name":"getCurrentPrice","inputs":[{"name":"auctionId","type":"uint256","internalType":"uint256"}],"outputs":[{"name":"","type":"uint256","internalType":"uint256"}],"stateMutability":"view"},{"type":"function","name":"harborCommand","inputs":[],"outputs":[{"name":"","type":"address","internalType":"address"}],"stateMutability":"view"},{"type":"function","name":"nextAuctionId","inputs":[],"outputs":[{"name":"","type":"uint256","internalType":"uint256"}],"stateMutability":"view"},{"type":"function","name":"ongoingAuctions","inputs":[{"name":"tokenAddress","type":"address","internalType":"address"}],"outputs":[{"name":"auctionId","type":"uint256","internalType":"uint256"}],"stateMutability":"view"},{"type":"function","name":"raft","inputs":[],"outputs":[{"name":"","type":"address","internalType":"address"}],"stateMutability":"view"},{"type":"function","name":"startAuction","inputs":[{"name":"tokenToAuction","type":"address","internalType":"address"}],"outputs":[],"stateMutability":"nonpayable"},{"type":"function","name":"summerToken","inputs":[],"outputs":[{"name":"","type":"address","internalType":"contract ERC20Burnable"}],"stateMutability":"view"},{"type":"function","name":"tipJar","inputs":[],"outputs":[{"name":"","type":"address","internalType":"address"}],"stateMutability":"view"},{"type":"function","name":"treasury","inputs":[],"outputs":[{"name":"","type":"address","internalType":"address"}],"stateMutability":"view"},{"type":"function","name":"updateAuctionDefaultParameters","inputs":[{"name":"newParameters","type":"tuple","internalType":"struct AuctionDefaultParameters","components":[{"name":"duration","type":"uint40","internalType":"uint40"},{"name":"startPrice","type":"uint256","internalType":"uint256"},{"name":"endPrice","type":"uint256","internalType":"uint256"},{"name":"kickerRewardPercentage","type":"uint256","internalType":"Percentage"},{"name":"decayType","type":"uint8","internalType":"enum DecayFunctions.DecayType"}]}],"outputs":[],"stateMutability":"nonpayable"},{"type":"event","name":"AuctionDefaultParametersUpdated","inputs":[{"name":"newConfig","type":"tuple","indexed":false,"internalType":"struct AuctionDefaultParameters","components":[{"name":"duration","type":"uint40","internalType":"uint40"},{"name":"startPrice","type":"uint256","internalType":"uint256"},{"name":"endPrice","type":"uint256","internalType":"uint256"},{"name":"kickerRewardPercentage","type":"uint256","internalType":"Percentage"},{"name":"decayType","type":"uint8","internalType":"enum DecayFunctions.DecayType"}]}],"anonymous":false},{"type":"event","name":"AuctionFinalized","inputs":[{"name":"auctionId","type":"uint256","indexed":true,"internalType":"uint256"},{"name":"soldTokens","type":"uint256","indexed":false,"internalType":"uint256"},{"name":"unsoldTokens","type":"uint256","indexed":false,"internalType":"uint256"}],"anonymous":false},{"type":"event","name":"BuyAndBurnAuctionStarted","inputs":[{"name":"auctionId","type":"uint256","indexed":true,"internalType":"uint256"},{"name":"tokenToAuction","type":"address","indexed":true,"internalType":"address"},{"name":"amount","type":"uint256","indexed":false,"internalType":"uint256"}],"anonymous":false},{"type":"event","name":"SummerBurned","inputs":[{"name":"amount","type":"uint256","indexed":false,"internalType":"uint256"}],"anonymous":false},{"type":"event","name":"TokensPurchased","inputs":[{"name":"auctionId","type":"uint256","indexed":true,"internalType":"uint256"},{"name":"buyer","type":"address","indexed":true,"internalType":"address"},{"name":"amount","type":"uint256","indexed":false,"internalType":"uint256"},{"name":"price","type":"uint256","indexed":false,"internalType":"uint256"}],"anonymous":false},{"type":"error","name":"AuctionAlreadyFinalized","inputs":[{"name":"auctionId","type":"uint256","internalType":"uint256"}]},{"type":"error","name":"AuctionNotActive","inputs":[{"name":"auctionId","type":"uint256","internalType":"uint256"}]},{"type":"error","name":"AuctionNotEnded","inputs":[{"name":"auctionId","type":"uint256","internalType":"uint256"}]},{"type":"error","name":"AuctionNotFound","inputs":[]},{"type":"error","name":"BuyAndBurnAuctionAlreadyRunning","inputs":[{"name":"tokenToAuction","type":"address","internalType":"address"}]},{"type":"error","name":"CallerIsNotAdmin","inputs":[{"name":"caller","type":"address","internalType":"address"}]},{"type":"error","name":"CallerIsNotAuthorizedToBoard","inputs":[{"name":"caller","type":"address","internalType":"address"}]},{"type":"error","name":"CallerIsNotCommander","inputs":[{"name":"caller","type":"address","internalType":"address"}]},{"type":"error","name":"CallerIsNotContractSpecificRole","inputs":[{"name":"caller","type":"address","internalType":"address"},{"name":"role","type":"bytes32","internalType":"bytes32"}]},{"type":"error","name":"CallerIsNotCurator","inputs":[{"name":"caller","type":"address","internalType":"address"}]},{"type":"error","name":"CallerIsNotGovernor","inputs":[{"name":"caller","type":"address","internalType":"address"}]},{"type":"error","name":"CallerIsNotGuardian","inputs":[{"name":"caller","type":"address","internalType":"address"}]},{"type":"error","name":"CallerIsNotGuardianOrGovernor","inputs":[{"name":"caller","type":"address","internalType":"address"}]},{"type":"error","name":"CallerIsNotKeeper","inputs":[{"name":"caller","type":"address","internalType":"address"}]},{"type":"error","name":"CallerIsNotRaft","inputs":[{"name":"caller","type":"address","internalType":"address"}]},{"type":"error","name":"CallerIsNotRaftOrCommander","inputs":[{"name":"caller","type":"address","internalType":"address"}]},{"type":"error","name":"CallerIsNotSuperKeeper","inputs":[{"name":"caller","type":"address","internalType":"address"}]},{"type":"error","name":"ConfigurationManagerZeroAddress","inputs":[]},{"type":"error","name":"DirectGrantIsDisabled","inputs":[{"name":"caller","type":"address","internalType":"address"}]},{"type":"error","name":"DirectRevokeIsDisabled","inputs":[{"name":"caller","type":"address","internalType":"address"}]},{"type":"error","name":"InsufficientTokensAvailable","inputs":[]},{"type":"error","name":"InvalidAccessManagerAddress","inputs":[{"name":"invalidAddress","type":"address","internalType":"address"}]},{"type":"error","name":"InvalidDecayType","inputs":[]},{"type":"error","name":"PRBMath_MulDiv18_Overflow","inputs":[{"name":"x","type":"uint256","internalType":"uint256"},{"name":"y","type":"uint256","internalType":"uint256"}]},{"type":"error","name":"PRBMath_MulDiv_Overflow","inputs":[{"name":"x","type":"uint256","internalType":"uint256"},{"name":"y","type":"uint256","internalType":"uint256"},{"name":"denominator","type":"uint256","internalType":"uint256"}]},{"type":"error","name":"PRBMath_UD60x18_Convert_Overflow","inputs":[{"name":"x","type":"uint256","internalType":"uint256"}]},{"type":"error","name":"SafeERC20FailedOperation","inputs":[{"name":"token","type":"address","internalType":"address"}]}],"bytecode":{"object":"0x60c060405234801561000f575f5ffd5b5060405161295738038061295783398101604081905261002e916101f7565b8181846001600160a01b03811661005f576040516347bd7c1d60e01b81525f60048201526024015b60405180910390fd5b6040516301ffc9a760e01b815263fe1a291f60e01b60048201526001600160a01b038216906301ffc9a790602401602060405180830381865afa1580156100a8573d5f5f3e3d5ffd5b505050506040513d601f19601f820116820180604052508101906100cc91906102be565b6100f4576040516347bd7c1d60e01b81526001600160a01b0382166004820152602401610056565b5f80546001600160a01b0319166001600160a01b039290921691909117905580516001805464ffffffffff191664ffffffffff909216919091178155602082015160025560408201516003556060820151600455608082015160058054849392919060ff191683838181111561016c5761016c6102e4565b021790555050506001600160a01b038216905061019c5760405163f1634df960e01b815260040160405180910390fd5b6001600160a01b039081166080529390931660a052506102f8915050565b80516001600160a01b03811681146101d0575f5ffd5b919050565b805164ffffffffff811681146101d0575f5ffd5b8051600281106101d0575f5ffd5b5f5f5f5f84860361010081121561020c575f5ffd5b610215866101ba565b9450610223602087016101ba565b9350610231604087016101ba565b925060a0605f1982011215610244575f5ffd5b5060405160a081016001600160401b038111828210171561027357634e487b7160e01b5f52604160045260245ffd5b604052610282606087016101d5565b81526080860151602082015260a0860151604082015260c086015160608201526102ae60e087016101e9565b6080820152939692955090935050565b5f602082840312156102ce575f5ffd5b815180151581146102dd575f5ffd5b9392505050565b634e487b7160e01b5f52602160045260245ffd5b60805160a0516126146103435f395f81816102940152818161041d015261121701525f818161025a015281816102e2015281816107f6015281816108530152610a5e01526126145ff3fe608060405234801561000f575f5ffd5b5060043610610111575f3560e01c8063a11a91211161009e578063c9c667e31161006e578063c9c667e314610255578063e80838631461027c578063f9ddf50d1461028f578063fc3fc4ed146102b6578063fc528482146102d6575f5ffd5b8063a11a9121146101db578063c13526b4146101ee578063c2f8b5261461020d578063c55d0f5614610242575f5ffd5b80635b0f83f3116100e45780635b0f83f31461019d57806361d027b3146101a557806369b3054b146101ad5780637975ce28146101c05780637aaceb95146101d3575f5ffd5b8063117d8ae0146101155780634075fa0f1461013a578063473d18c21461014f578063571a26a01461017c575b5f5ffd5b61011d6102df565b6040516001600160a01b0390911681526020015b60405180910390f35b61014d610148366004611d69565b610365565b005b61016e61015d366004611d84565b60096020525f908152604090205481565b604051908152602001610131565b61018f61018a366004611d84565b6106c5565b604051610131929190611ee1565b61011d6107f3565b61011d610850565b61016e6101bb366004611f0a565b6108ad565b61016e6101ce366004611f44565b6108e0565b61011d610a5b565b61014d6101e9366004611f64565b610ab8565b61016e6101fc366004611d69565b60086020525f908152604090205481565b6001546002546003546004546005546102319464ffffffffff169392919060ff1685565b604051610131959493929190611f7d565b61016e610250366004611d84565b610bba565b61011d7f000000000000000000000000000000000000000000000000000000000000000081565b61014d61028a366004611d84565b610bd0565b61011d7f000000000000000000000000000000000000000000000000000000000000000081565b6102c96102c4366004611d84565b610ca5565b6040516101319190611fad565b61016e60065481565b5f7f00000000000000000000000000000000000000000000000000000000000000006001600160a01b031663117d8ae06040518163ffffffff1660e01b8152600401602060405180830381865afa15801561033c573d5f5f3e3d5ffd5b505050506040513d601f19601f820116820180604052508101906103609190611fef565b905090565b6001600160a01b0381165f90815260086020526040902054156103aa57604051627f39b160e81b81526001600160a01b03821660048201526024015b60405180910390fd5b6040516370a0823160e01b815230600482015281905f906001600160a01b038316906370a0823190602401602060405180830381865afa1580156103f0573d5f5f3e3d5ffd5b505050506040513d601f19601f82011682018060405250810190610414919061200a565b90505f61044a837f000000000000000000000000000000000000000000000000000000000000000084610445610850565b610de6565b90505f60065490508160075f8381526020019081526020015f205f820151815f015f820151815f015f6101000a8154816001600160a01b0302191690836001600160a01b031602179055506020820151816001015f6101000a8154816001600160a01b0302191690836001600160a01b0316021790555060408201518160010160146101000a81548164ffffffffff021916908364ffffffffff16021790555060608201518160010160196101000a81548164ffffffffff021916908364ffffffffff160217905550608082015181600101601e6101000a81548160ff021916908360ff16021790555060a082015181600101601f6101000a81548160ff021916908360ff16021790555060c0820151816002015f6101000a8154816001600160a01b0302191690836001600160a01b0316021790555060e0820151816003015f6101000a8154816001600160a01b0302191690836001600160a01b031602179055506101008201518160030160146101000a81548164ffffffffff021916908364ffffffffff1602179055506101208201518160030160196101000a81548160ff0219169083600181111561060257610602611d9b565b02179055506101408201516004820155610160820151600582015561018082015160068201556101a0909101516007909101556020918201518051600880840191909155908301516009928301805491151560ff199092169190911790556001600160a01b0388165f818152918452604080832086905585835292909352818120555182907fa47aeb694c2a8362d1f64935968e9a4884fe70b503208843d370bd3952f1243e906106b69087815260200190565b60405180910390a35050505050565b600760209081525f91825260409182902082516101c08101845281546001600160a01b0390811682526001808401548083169584019590955264ffffffffff600160a01b808704821697850197909752600160c81b8087048216606086015260ff600160f01b880481166080870152600160f81b909704871660a08601526002860154841660c0860152600386015493841660e086015296830416610100840152929491938593610120860193909204169081111561078657610786611d9b565b600181111561079757610797611d9b565b8152600482015460208083019190915260058301546040808401919091526006840154606084015260079093015460809092019190915281518083019092526008840154825260099093015460ff161515928101929092529082565b5f7f00000000000000000000000000000000000000000000000000000000000000006001600160a01b0316635b0f83f36040518163ffffffff1660e01b8152600401602060405180830381865afa15801561033c573d5f5f3e3d5ffd5b5f7f00000000000000000000000000000000000000000000000000000000000000006001600160a01b03166361d027b36040518163ffffffff1660e01b8152600401602060405180830381865afa15801561033c573d5f5f3e3d5ffd5b5f82826040516020016108c1929190612021565b6040516020818303038152906040528051906020012090505b92915050565b5f8281526007602052604081206108f78184610f0a565b91508160095f8681526020019081526020015f205f828254610919919061206c565b909155505060088101545f03610a5457604080516102008101825282546001600160a01b03908116928201928352600180850154808316606085015264ffffffffff600160a01b80830482166080870152600160c81b808404831660a088015260ff600160f01b8504811660c0890152600160f81b909404841660e0880152600289015486166101008801526003890154958616610120880152908504909116610140860152610a54958794869491938693610160870193920416908111156109e4576109e4611d9b565b60018111156109f5576109f5611d9b565b8152600482015460208083019190915260058301546040808401919091526006840154606084015260079093015460809092019190915291835280518082019091526008840154815260099093015460ff1615158382015201526111e4565b5092915050565b5f7f00000000000000000000000000000000000000000000000000000000000000006001600160a01b0316637aaceb956040518163ffffffff1660e01b8152600401602060405180830381865afa15801561033c573d5f5f3e3d5ffd5b5f5460408051630ccc574960e41b815290516001600160a01b03909216916391d1485491839163ccc57490916004808201926020929091908290030181865afa158015610b07573d5f5f3e3d5ffd5b505050506040513d601f19601f82011682018060405250810190610b2b919061200a565b6040516001600160e01b031960e084901b1681526004810191909152336024820152604401602060405180830381865afa158015610b6b573d5f5f3e3d5ffd5b505050506040513d601f19601f82011682018060405250810190610b8f919061208e565b610bae57604051630ea7d7ed60e21b81523360048201526024016103a1565b610bb7816112e9565b50565b5f8181526007602052604081206108da90611333565b5f818152600760205260409020610be6816114cd565b604080516102008101825282546001600160a01b03908116928201928352600180850154808316606085015264ffffffffff600160a01b80830482166080870152600160c81b808404831660a088015260ff600160f01b8504811660c0890152600160f81b909404841660e0880152600289015486166101008801526003890154958616610120880152908504909116610140860152610ca1958794869491938693610160870193920416908111156109e4576109e4611d9b565b5050565b610cad611cb4565b5f828152600760205260409081902081516102008101835281546001600160a01b03908116938201938452600180840154808316606085015264ffffffffff600160a01b80830482166080870152600160c81b808404831660a088015260ff600160f01b8504811660c0890152600160f81b909404841660e088015260028801548616610100880152600388015495861661012088015290850490911661014086015293958694909386936101608701939290910490911690811115610d7557610d75611d9b565b6001811115610d8657610d86611d9b565b8152600482015460208083019190915260058301546040808401919091526006840154606084015260079093015460809092019190915291835280518082019091526008840154815260099093015460ff16151583820152015292915050565b610dee611cb4565b5f60405180610160016040528060065f8154610e09906120a7565b918290555081526001600160a01b03808916602083015287811660408301526001805464ffffffffff166060840152600254608084015260035460a084015260c0830188905260045460e0840152336101008401529086166101208301526005546101409092019160ff1690811115610e8457610e84611d9b565b9052604051631bd590b960e11b815290915073__$87c00a11f154e19488f2e9ac8cdbd9f046$__906337ab217290610ec09084906004016120bf565b61020060405180830381865af4158015610edc573d5f5f3e3d5ffd5b505050506040513d601f19601f82011682018060405250810190610f00919061226c565b9695505050505050565b81545f906001600160a01b0316610f34576040516307145c5f60e11b815260040160405180910390fd5b600983015460ff1615610f6f57600383015460405163d9e3dd8360e01b8152600160a01b90910464ffffffffff1660048201526024016103a1565b6001830154600160c81b900464ffffffffff164210610fb657600383015460405163aff5aad960e01b8152600160a01b90910464ffffffffff1660048201526024016103a1565b6008830154821115610fdb57604051632783839d60e01b815260040160405180910390fd5b604080516102008101825284546001600160a01b03908116928201928352600180870154808316606085015264ffffffffff600160a01b80830482166080870152600160c81b808404831660a088015260ff600160f01b8504811660c0890152600160f81b909404841660e088015260028b0154861661010088015260038b01549586166101208801529085049091166101408601525f9561110b95948a9486949293869361016087019391909104169081111561109b5761109b611d9b565b60018111156110ac576110ac611d9b565b8152600482015460208083019190915260058301546040808401919091526006840154606084015260079093015460809092019190915291835280518082019091526008840154815260099093015460ff161515838201520152611581565b6001850154909150611135908290859060ff600160f81b8204811691600160f01b900416816115f8565b915082846008015f015f82825461114c9190612392565b9091555050600184015461116b906001600160a01b0316333085611637565b8354611181906001600160a01b031633856116a4565b600384015460408051858152602081018490523392600160a01b900464ffffffffff16917fe8d7e55108ae7ddb60173461d2950c7a8e22a7ac7f442825564fe84c8c6f9a38910160405180910390a360088401545f03610a5457610a54846116da565b8051610100015164ffffffffff165f9081526009602052604090819020549051630852cd8d60e31b8152600481018290527f00000000000000000000000000000000000000000000000000000000000000006001600160a01b0316906342966c68906024015f604051808303815f87803b158015611260575f5ffd5b505af1158015611272573d5f5f3e3d5ffd5b505050507fbb7b92357c58ac7f76efa146802fb325f7a147f953e808b572d851e8406b2f1e816040516112a791815260200190565b60405180910390a1508051516001600160a01b03165f9081526008602090815260408083208390559251610100015164ffffffffff1682526009905290812055565b8060016112f682826123a5565b9050507fe9d5a90069e830741fa6df4fbb146dc3c0918e85d57eb372c70e743198179c7981604051611328919061241c565b60405180910390a150565b604080516102008101825282546001600160a01b03908116928201928352600180850154808316606085015264ffffffffff600160a01b80830482166080870152600160c81b808404831660a088015260ff600160f01b8504811660c0890152600160f81b909404841660e08801526002890154861661010088015260038901549586166101208801529085049091166101408601525f958794869491938693610160870193920416908111156113ec576113ec611d9b565b60018111156113fd576113fd611d9b565b8152600482810154602080840191909152600584015460408085019190915260068501546060850152600790940154608090930192909252928452815180830183526008860154815260099095015460ff161515858201529290920192909252516370d8532160e11b815273__$87c00a11f154e19488f2e9ac8cdbd9f046$__9263e1b0a6429261148e9201611fad565b602060405180830381865af41580156114a9573d5f5f3e3d5ffd5b505050506040513d601f19601f820116820180604052508101906108da919061200a565b80546001600160a01b03166114f5576040516307145c5f60e11b815260040160405180910390fd5b600981015460ff161561153057600381015460405163d9e3dd8360e01b8152600160a01b90910464ffffffffff1660048201526024016103a1565b6001810154600160c81b900464ffffffffff1642101561157857600381015460405163e30e8d4760e01b8152600160a01b90910464ffffffffff1660048201526024016103a1565b610bb7816116da565b8051604001515f90819061159c9064ffffffffff1642612392565b835160408101516060909101519192505f916115b8919061246d565b845161012081015161014082015161016083015160a09093015164ffffffffff9490941694506115f093919290918690869080611787565b949350505050565b5f80611604878661180e565b90505f611611878661180e565b90505f61161e838361187b565b905061162a818661188c565b9998505050505050505050565b6040516001600160a01b03848116602483015283811660448301526064820183905261169e9186918216906323b872dd906084015b604051602081830303815290604052915060e01b6020820180516001600160e01b0383818316178352505050506118eb565b50505050565b6040516001600160a01b038381166024830152604482018390526116d591859182169063a9059cbb9060640161166c565b505050565b600881015460068201545f916116ef91612392565b60098301805460ff1916600117905560088301549091501561172f5760038201546008830154835461172f926001600160a01b03918216929116906116a4565b60038201546008830154604080518481526020810192909252600160a01b90920464ffffffffff16917fd11fb103f8d5c913b9e132f165c0cfa304fc230f10796a7a5d63bc3d8de4d3c3910160405180910390a25050565b5f838510611796575084611803565b5f8860018111156117a9576117a9611d9b565b036117c3576117bc878787878787611957565b9050611803565b60018860018111156117d7576117d7611d9b565b036117ea576117bc8787878787876119da565b6040516346b2fddf60e11b815260040160405180910390fd5b979650505050505050565b5f8160ff166012036118215750816108da565b60128260ff1611156118545761183860128361248a565b61184390600a612586565b61184d90846125a8565b90506108da565b61185f82601261248a565b61186a90600a612586565b61187490846125c7565b9392505050565b5f6118746118898484611a7f565b90565b5f8160ff1660120361189f5750816108da565b60128260ff1611156118cb576118b660128361248a565b6118c190600a612586565b61184d90846125c7565b6118d682601261248a565b6118e190600a612586565b61187490846125a8565b5f5f60205f8451602086015f885af18061190a576040513d5f823e3d81fd5b50505f513d9150811561192157806001141561192e565b6001600160a01b0384163b155b1561169e57604051635274afe760e01b81526001600160a01b03851660048201526024016103a1565b5f80611963888561180e565b90505f611970888661180e565b90505f6119806118898385612392565b90505f61198c89611b31565b90505f61199889611b31565b90505f6119af826119a9868661187b565b90611b76565b90505f6119bc8288612392565b90506119c8818a61188c565b9e9d5050505050505050505050505050565b5f806119e6888561180e565b90505f6119f3888661180e565b90505f611a036118898385612392565b90505f611a18611a138a8a612392565b611b31565b90505f611a2489611b31565b90505f611a32836002611b8d565b90505f611a40836002611b8d565b90505f611a51826119a9888661187b565b90505f611a5e828961206c565b9050611a6a818c61188c565b99505050505050505050509695505050505050565b5f80805f19848609848602925082811083820303915050805f03611ab05750670de0b6b3a7640000900490506108da565b670de0b6b3a76400008110611ae257604051635173648d60e01b815260048101869052602481018590526044016103a1565b5f670de0b6b3a764000085870962040000818503049310909103600160ee1b02919091177faccb18165bd6fe31ae1cf318dc5b51eee0e1ba569b88cd74c1773b91fac106690291505092915050565b5f611b45670de0b6b3a76400005f196125a8565b821115611b6857604051631cd951a760e01b8152600481018390526024016103a1565b50670de0b6b3a76400000290565b5f61187461188984670de0b6b3a764000085611be6565b5f828160018416611ba657670de0b6b3a7640000611ba8565b815b9050600184901c93505b83156115f057611bc28283611a7f565b91506001841615611bda57611bd78183611a7f565b90505b600184901c9350611bb2565b5f80805f19858709858702925082811083820303915050805f03611c1d57838281611c1357611c13612594565b0492505050611874565b838110611c4e57604051630c740aef60e31b81526004810187905260248101869052604481018590526064016103a1565b5f84868809600260036001881981018916988990049182028318808302840302808302840302808302840302808302840302808302840302918202909203025f889003889004909101858311909403939093029303949094049190911702949350505050565b6040518060400160405280611d2e604080516101c0810182525f80825260208201819052918101829052606081018290526080810182905260a0810182905260c0810182905260e0810182905261010081018290529061012082019081526020015f81526020015f81526020015f81526020015f81525090565b8152602001611d5060405180604001604052805f81526020015f151581525090565b905290565b6001600160a01b0381168114610bb7575f5ffd5b5f60208284031215611d79575f5ffd5b813561187481611d55565b5f60208284031215611d94575f5ffd5b5035919050565b634e487b7160e01b5f52602160045260245ffd5b60028110611dbf57611dbf611d9b565b9052565b80516001600160a01b031682526020810151611dea60208401826001600160a01b03169052565b506040810151611e03604084018264ffffffffff169052565b506060810151611e1c606084018264ffffffffff169052565b506080810151611e31608084018260ff169052565b5060a0810151611e4660a084018260ff169052565b5060c0810151611e6160c08401826001600160a01b03169052565b5060e0810151611e7c60e08401826001600160a01b03169052565b50610100810151611e9761010084018264ffffffffff169052565b50610120810151611eac610120840182611daf565b506101408101516101408301526101608101516101608301526101808101516101808301526101a08101516101a08301525050565b6102008101611ef08285611dc3565b82516101c0830152602083015115156101e0830152611874565b5f5f60408385031215611f1b575f5ffd5b823560038110611f29575f5ffd5b91506020830135611f3981611d55565b809150509250929050565b5f5f60408385031215611f55575f5ffd5b50508035926020909101359150565b5f60a0828403128015611f75575f5ffd5b509092915050565b5f60a08201905064ffffffffff87168252856020830152846040830152836060830152610f006080830184611daf565b5f61020082019050611fc0828451611dc3565b60208381015180516101c08501529081015115156101e0840152610a54565b8051611fea81611d55565b919050565b5f60208284031215611fff575f5ffd5b815161187481611d55565b5f6020828403121561201a575f5ffd5b5051919050565b5f6003841061203257612032611d9b565b5060f89290921b825260601b6bffffffffffffffffffffffff1916600182015260150190565b634e487b7160e01b5f52601160045260245ffd5b808201808211156108da576108da612058565b80518015158114611fea575f5ffd5b5f6020828403121561209e575f5ffd5b6118748261207f565b5f600182016120b8576120b8612058565b5060010190565b815181526020808301516101608301916120e3908401826001600160a01b03169052565b5060408301516120fe60408401826001600160a01b03169052565b506060830151612117606084018264ffffffffff169052565b506080830151608083015260a083015160a083015260c083015160c083015260e083015160e083015261010083015161215c6101008401826001600160a01b03169052565b506101208301516121796101208401826001600160a01b03169052565b50610140830151610a54610140840182611daf565b6040805190810167ffffffffffffffff811182821017156121bd57634e487b7160e01b5f52604160045260245ffd5b60405290565b6040516101c0810167ffffffffffffffff811182821017156121bd57634e487b7160e01b5f52604160045260245ffd5b64ffffffffff81168114610bb7575f5ffd5b8051611fea816121f3565b805160ff81168114611fea575f5ffd5b60028110610bb7575f5ffd5b8051611fea81612220565b5f60408284031215612247575f5ffd5b61224f61218e565b8251815290506122616020830161207f565b602082015292915050565b5f8183036102008112801561227f575f5ffd5b5061228861218e565b6101c0821215612296575f5ffd5b61229e6121c3565b91506122a984611fdf565b82526122b760208501611fdf565b60208301526122c860408501612205565b60408301526122d960608501612205565b60608301526122ea60808501612210565b60808301526122fb60a08501612210565b60a083015261230c60c08501611fdf565b60c083015261231d60e08501611fdf565b60e083015261232f6101008501612205565b610100830152612342610120850161222c565b6101208301526101408481015190830152610160808501519083015261018080850151908301526101a08085015190830152818152612385856101c08601612237565b6020820152949350505050565b818103818111156108da576108da612058565b81356123b0816121f3565b815464ffffffffff191664ffffffffff919091161781556020820135600182015560408201356002820155606082013560038201556004810160808301356123f781612220565b6002811061240757612407611d9b565b60ff1982541660ff8216811783555050505050565b60a08101823561242b816121f3565b64ffffffffff168252602083810135908301526040808401359083015260608084013590830152608083013561246081612220565b610a546080840182611daf565b64ffffffffff82811682821603908111156108da576108da612058565b60ff82811682821603908111156108da576108da612058565b6001815b60018411156124de578085048111156124c2576124c2612058565b60018416156124d057908102905b60019390931c9280026124a7565b935093915050565b5f826124f4575060016108da565b8161250057505f6108da565b816001811461251657600281146125205761253c565b60019150506108da565b60ff84111561253157612531612058565b50506001821b6108da565b5060208310610133831016604e8410600b841016171561255f575081810a6108da565b61256b5f1984846124a3565b805f190482111561257e5761257e612058565b029392505050565b5f61187460ff8416836124e6565b634e487b7160e01b5f52601260045260245ffd5b5f826125c257634e487b7160e01b5f52601260045260245ffd5b500490565b80820281158282048414176108da576108da61205856fea26469706673582212200511a62d41e6c5ad2ded2194a89b390f7bb280c022bbf17229ce31bb45739ff664736f6c634300081c0033","linkReferences":{"node_modules/@summerfi/dutch-auction/src/DutchAuctionLibrary.sol":{"DutchAuctionLibrary":[{"start":4571,"length":20},{"start":6061,"length":20}]}}},"methodIdentifiers":{"auctionDefaultParameters()":"c2f8b526","auctionSummerRaised(uint256)":"473d18c2","auctions(uint256)":"571a26a0","buyTokens(uint256,uint256)":"7975ce28","configurationManager()":"c9c667e3","finalizeAuction(uint256)":"e8083863","generateRole(uint8,address)":"69b3054b","getAuctionInfo(uint256)":"fc3fc4ed","getCurrentPrice(uint256)":"c55d0f56","harborCommand()":"5b0f83f3","nextAuctionId()":"fc528482","ongoingAuctions(address)":"c13526b4","raft()":"117d8ae0","startAuction(address)":"4075fa0f","summerToken()":"f9ddf50d","tipJar()":"7aaceb95","treasury()":"61d027b3","updateAuctionDefaultParameters((uint40,uint256,uint256,uint256,uint8))":"a11a9121"},"id":182}