{"abi":[{"type":"constructor","inputs":[{"name":"params","type":"tuple","internalType":"struct FleetCommanderParams","components":[{"name":"name","type":"string","internalType":"string"},{"name":"details","type":"string","internalType":"string"},{"name":"symbol","type":"string","internalType":"string"},{"name":"configurationManager","type":"address","internalType":"address"},{"name":"accessManager","type":"address","internalType":"address"},{"name":"asset","type":"address","internalType":"address"},{"name":"initialMinimumBufferBalance","type":"uint256","internalType":"uint256"},{"name":"initialRebalanceCooldown","type":"uint256","internalType":"uint256"},{"name":"depositCap","type":"uint256","internalType":"uint256"},{"name":"initialTipRate","type":"uint256","internalType":"Percentage"}]}],"stateMutability":"nonpayable"},{"type":"function","name":"DEFAULT_MAX_REBALANCE_OPERATIONS","inputs":[],"outputs":[{"name":"","type":"uint256","internalType":"uint256"}],"stateMutability":"view"},{"type":"function","name":"INITIAL_MINIMUM_PAUSE_TIME","inputs":[],"outputs":[{"name":"","type":"uint256","internalType":"uint256"}],"stateMutability":"view"},{"type":"function","name":"MAX_REBALANCE_OPERATIONS","inputs":[],"outputs":[{"name":"","type":"uint256","internalType":"uint256"}],"stateMutability":"view"},{"type":"function","name":"addArk","inputs":[{"name":"ark","type":"address","internalType":"address"}],"outputs":[],"stateMutability":"nonpayable"},{"type":"function","name":"addArks","inputs":[{"name":"_arkAddresses","type":"address[]","internalType":"address[]"}],"outputs":[],"stateMutability":"nonpayable"},{"type":"function","name":"adjustBuffer","inputs":[{"name":"rebalanceData","type":"tuple[]","internalType":"struct RebalanceData[]","components":[{"name":"fromArk","type":"address","internalType":"address"},{"name":"toArk","type":"address","internalType":"address"},{"name":"amount","type":"uint256","internalType":"uint256"},{"name":"boardData","type":"bytes","internalType":"bytes"},{"name":"disembarkData","type":"bytes","internalType":"bytes"}]}],"outputs":[],"stateMutability":"nonpayable"},{"type":"function","name":"allowance","inputs":[{"name":"owner","type":"address","internalType":"address"},{"name":"spender","type":"address","internalType":"address"}],"outputs":[{"name":"","type":"uint256","internalType":"uint256"}],"stateMutability":"view"},{"type":"function","name":"approve","inputs":[{"name":"spender","type":"address","internalType":"address"},{"name":"value","type":"uint256","internalType":"uint256"}],"outputs":[{"name":"","type":"bool","internalType":"bool"}],"stateMutability":"nonpayable"},{"type":"function","name":"arks","inputs":[{"name":"index","type":"uint256","internalType":"uint256"}],"outputs":[{"name":"","type":"address","internalType":"address"}],"stateMutability":"view"},{"type":"function","name":"asset","inputs":[],"outputs":[{"name":"","type":"address","internalType":"address"}],"stateMutability":"view"},{"type":"function","name":"balanceOf","inputs":[{"name":"account","type":"address","internalType":"address"}],"outputs":[{"name":"","type":"uint256","internalType":"uint256"}],"stateMutability":"view"},{"type":"function","name":"bufferArk","inputs":[],"outputs":[{"name":"","type":"address","internalType":"address"}],"stateMutability":"view"},{"type":"function","name":"config","inputs":[],"outputs":[{"name":"bufferArk","type":"address","internalType":"contract IArk"},{"name":"minimumBufferBalance","type":"uint256","internalType":"uint256"},{"name":"depositCap","type":"uint256","internalType":"uint256"},{"name":"maxRebalanceOperations","type":"uint256","internalType":"uint256"},{"name":"stakingRewardsManager","type":"address","internalType":"address"}],"stateMutability":"view"},{"type":"function","name":"configurationManager","inputs":[],"outputs":[{"name":"","type":"address","internalType":"contract IConfigurationManager"}],"stateMutability":"view"},{"type":"function","name":"convertToAssets","inputs":[{"name":"shares","type":"uint256","internalType":"uint256"}],"outputs":[{"name":"","type":"uint256","internalType":"uint256"}],"stateMutability":"view"},{"type":"function","name":"convertToShares","inputs":[{"name":"assets","type":"uint256","internalType":"uint256"}],"outputs":[{"name":"","type":"uint256","internalType":"uint256"}],"stateMutability":"view"},{"type":"function","name":"decimals","inputs":[],"outputs":[{"name":"","type":"uint8","internalType":"uint8"}],"stateMutability":"view"},{"type":"function","name":"deposit","inputs":[{"name":"assets","type":"uint256","internalType":"uint256"},{"name":"receiver","type":"address","internalType":"address"}],"outputs":[{"name":"shares","type":"uint256","internalType":"uint256"}],"stateMutability":"nonpayable"},{"type":"function","name":"deposit","inputs":[{"name":"assets","type":"uint256","internalType":"uint256"},{"name":"receiver","type":"address","internalType":"address"},{"name":"referralCode","type":"bytes","internalType":"bytes"}],"outputs":[{"name":"","type":"uint256","internalType":"uint256"}],"stateMutability":"nonpayable"},{"type":"function","name":"details","inputs":[],"outputs":[{"name":"","type":"string","internalType":"string"}],"stateMutability":"view"},{"type":"function","name":"estimateAccruedTip","inputs":[],"outputs":[{"name":"","type":"uint256","internalType":"uint256"}],"stateMutability":"view"},{"type":"function","name":"fleetCommanderRewardsManagerFactory","inputs":[],"outputs":[{"name":"","type":"address","internalType":"address"}],"stateMutability":"view"},{"type":"function","name":"forceRebalance","inputs":[{"name":"rebalanceData","type":"tuple[]","internalType":"struct RebalanceData[]","components":[{"name":"fromArk","type":"address","internalType":"address"},{"name":"toArk","type":"address","internalType":"address"},{"name":"amount","type":"uint256","internalType":"uint256"},{"name":"boardData","type":"bytes","internalType":"bytes"},{"name":"disembarkData","type":"bytes","internalType":"bytes"}]}],"outputs":[],"stateMutability":"nonpayable"},{"type":"function","name":"generateRole","inputs":[{"name":"roleName","type":"uint8","internalType":"enum ContractSpecificRoles"},{"name":"roleTargetContract","type":"address","internalType":"address"}],"outputs":[{"name":"","type":"bytes32","internalType":"bytes32"}],"stateMutability":"pure"},{"type":"function","name":"getArks","inputs":[],"outputs":[{"name":"","type":"address[]","internalType":"address[]"}],"stateMutability":"view"},{"type":"function","name":"getConfig","inputs":[],"outputs":[{"name":"","type":"tuple","internalType":"struct FleetConfig","components":[{"name":"bufferArk","type":"address","internalType":"contract IArk"},{"name":"minimumBufferBalance","type":"uint256","internalType":"uint256"},{"name":"depositCap","type":"uint256","internalType":"uint256"},{"name":"maxRebalanceOperations","type":"uint256","internalType":"uint256"},{"name":"stakingRewardsManager","type":"address","internalType":"address"}]}],"stateMutability":"view"},{"type":"function","name":"getCooldown","inputs":[],"outputs":[{"name":"","type":"uint256","internalType":"uint256"}],"stateMutability":"view"},{"type":"function","name":"getEffectiveArkDepositCap","inputs":[{"name":"ark","type":"address","internalType":"contract IArk"}],"outputs":[{"name":"","type":"uint256","internalType":"uint256"}],"stateMutability":"view"},{"type":"function","name":"getLastActionTimestamp","inputs":[],"outputs":[{"name":"","type":"uint256","internalType":"uint256"}],"stateMutability":"view"},{"type":"function","name":"harborCommand","inputs":[],"outputs":[{"name":"","type":"address","internalType":"address"}],"stateMutability":"view"},{"type":"function","name":"hasAdmiralsQuartersRole","inputs":[{"name":"account","type":"address","internalType":"address"}],"outputs":[{"name":"","type":"bool","internalType":"bool"}],"stateMutability":"view"},{"type":"function","name":"isArkActive","inputs":[{"name":"arkAddress","type":"address","internalType":"address"}],"outputs":[{"name":"","type":"bool","internalType":"bool"}],"stateMutability":"view"},{"type":"function","name":"isArkWithdrawable","inputs":[{"name":"ark","type":"address","internalType":"address"}],"outputs":[{"name":"isWithdrawable","type":"bool","internalType":"bool"}],"stateMutability":"view"},{"type":"function","name":"lastTipTimestamp","inputs":[],"outputs":[{"name":"","type":"uint256","internalType":"uint256"}],"stateMutability":"view"},{"type":"function","name":"maxBufferRedeem","inputs":[{"name":"owner","type":"address","internalType":"address"}],"outputs":[{"name":"_maxBufferRedeem","type":"uint256","internalType":"uint256"}],"stateMutability":"view"},{"type":"function","name":"maxBufferWithdraw","inputs":[{"name":"owner","type":"address","internalType":"address"}],"outputs":[{"name":"_maxBufferWithdraw","type":"uint256","internalType":"uint256"}],"stateMutability":"view"},{"type":"function","name":"maxDeposit","inputs":[{"name":"owner","type":"address","internalType":"address"}],"outputs":[{"name":"_maxDeposit","type":"uint256","internalType":"uint256"}],"stateMutability":"view"},{"type":"function","name":"maxMint","inputs":[{"name":"owner","type":"address","internalType":"address"}],"outputs":[{"name":"_maxMint","type":"uint256","internalType":"uint256"}],"stateMutability":"view"},{"type":"function","name":"maxRedeem","inputs":[{"name":"owner","type":"address","internalType":"address"}],"outputs":[{"name":"_maxRedeem","type":"uint256","internalType":"uint256"}],"stateMutability":"view"},{"type":"function","name":"maxWithdraw","inputs":[{"name":"owner","type":"address","internalType":"address"}],"outputs":[{"name":"_maxWithdraw","type":"uint256","internalType":"uint256"}],"stateMutability":"view"},{"type":"function","name":"minimumPauseTime","inputs":[],"outputs":[{"name":"","type":"uint256","internalType":"uint256"}],"stateMutability":"view"},{"type":"function","name":"mint","inputs":[{"name":"shares","type":"uint256","internalType":"uint256"},{"name":"receiver","type":"address","internalType":"address"}],"outputs":[{"name":"assets","type":"uint256","internalType":"uint256"}],"stateMutability":"nonpayable"},{"type":"function","name":"name","inputs":[],"outputs":[{"name":"","type":"string","internalType":"string"}],"stateMutability":"view"},{"type":"function","name":"pause","inputs":[],"outputs":[],"stateMutability":"nonpayable"},{"type":"function","name":"pauseStartTime","inputs":[],"outputs":[{"name":"","type":"uint256","internalType":"uint256"}],"stateMutability":"view"},{"type":"function","name":"paused","inputs":[],"outputs":[{"name":"","type":"bool","internalType":"bool"}],"stateMutability":"view"},{"type":"function","name":"previewDeposit","inputs":[{"name":"assets","type":"uint256","internalType":"uint256"}],"outputs":[{"name":"","type":"uint256","internalType":"uint256"}],"stateMutability":"view"},{"type":"function","name":"previewMint","inputs":[{"name":"shares","type":"uint256","internalType":"uint256"}],"outputs":[{"name":"","type":"uint256","internalType":"uint256"}],"stateMutability":"view"},{"type":"function","name":"previewRedeem","inputs":[{"name":"shares","type":"uint256","internalType":"uint256"}],"outputs":[{"name":"","type":"uint256","internalType":"uint256"}],"stateMutability":"view"},{"type":"function","name":"previewWithdraw","inputs":[{"name":"assets","type":"uint256","internalType":"uint256"}],"outputs":[{"name":"","type":"uint256","internalType":"uint256"}],"stateMutability":"view"},{"type":"function","name":"raft","inputs":[],"outputs":[{"name":"","type":"address","internalType":"address"}],"stateMutability":"view"},{"type":"function","name":"rebalance","inputs":[{"name":"rebalanceData","type":"tuple[]","internalType":"struct RebalanceData[]","components":[{"name":"fromArk","type":"address","internalType":"address"},{"name":"toArk","type":"address","internalType":"address"},{"name":"amount","type":"uint256","internalType":"uint256"},{"name":"boardData","type":"bytes","internalType":"bytes"},{"name":"disembarkData","type":"bytes","internalType":"bytes"}]}],"outputs":[],"stateMutability":"nonpayable"},{"type":"function","name":"redeem","inputs":[{"name":"shares","type":"uint256","internalType":"uint256"},{"name":"receiver","type":"address","internalType":"address"},{"name":"owner","type":"address","internalType":"address"}],"outputs":[{"name":"assets","type":"uint256","internalType":"uint256"}],"stateMutability":"nonpayable"},{"type":"function","name":"redeemFromArks","inputs":[{"name":"shares","type":"uint256","internalType":"uint256"},{"name":"receiver","type":"address","internalType":"address"},{"name":"owner","type":"address","internalType":"address"}],"outputs":[{"name":"totalAssetsToWithdraw","type":"uint256","internalType":"uint256"}],"stateMutability":"nonpayable"},{"type":"function","name":"redeemFromBuffer","inputs":[{"name":"shares","type":"uint256","internalType":"uint256"},{"name":"receiver","type":"address","internalType":"address"},{"name":"owner","type":"address","internalType":"address"}],"outputs":[{"name":"assets","type":"uint256","internalType":"uint256"}],"stateMutability":"nonpayable"},{"type":"function","name":"removeArk","inputs":[{"name":"ark","type":"address","internalType":"address"}],"outputs":[],"stateMutability":"nonpayable"},{"type":"function","name":"setArkDepositCap","inputs":[{"name":"ark","type":"address","internalType":"address"},{"name":"newDepositCap","type":"uint256","internalType":"uint256"}],"outputs":[],"stateMutability":"nonpayable"},{"type":"function","name":"setArkMaxDepositPercentageOfTVL","inputs":[{"name":"ark","type":"address","internalType":"address"},{"name":"newMaxDepositPercentageOfTVL","type":"uint256","internalType":"Percentage"}],"outputs":[],"stateMutability":"nonpayable"},{"type":"function","name":"setArkMaxRebalanceInflow","inputs":[{"name":"ark","type":"address","internalType":"address"},{"name":"newMaxRebalanceInflow","type":"uint256","internalType":"uint256"}],"outputs":[],"stateMutability":"nonpayable"},{"type":"function","name":"setArkMaxRebalanceOutflow","inputs":[{"name":"ark","type":"address","internalType":"address"},{"name":"newMaxRebalanceOutflow","type":"uint256","internalType":"uint256"}],"outputs":[],"stateMutability":"nonpayable"},{"type":"function","name":"setFleetDepositCap","inputs":[{"name":"newCap","type":"uint256","internalType":"uint256"}],"outputs":[],"stateMutability":"nonpayable"},{"type":"function","name":"setMaxRebalanceOperations","inputs":[{"name":"newMaxRebalanceOperations","type":"uint256","internalType":"uint256"}],"outputs":[],"stateMutability":"nonpayable"},{"type":"function","name":"setMinimumBufferBalance","inputs":[{"name":"newMinimumBalance","type":"uint256","internalType":"uint256"}],"outputs":[],"stateMutability":"nonpayable"},{"type":"function","name":"setMinimumPauseTime","inputs":[{"name":"_newMinimumPauseTime","type":"uint256","internalType":"uint256"}],"outputs":[],"stateMutability":"nonpayable"},{"type":"function","name":"setStakingRewardsManager","inputs":[{"name":"newStakingRewardsManager","type":"address","internalType":"address"}],"outputs":[],"stateMutability":"nonpayable"},{"type":"function","name":"setTipRate","inputs":[{"name":"newTipRate","type":"uint256","internalType":"Percentage"}],"outputs":[],"stateMutability":"nonpayable"},{"type":"function","name":"symbol","inputs":[],"outputs":[{"name":"","type":"string","internalType":"string"}],"stateMutability":"view"},{"type":"function","name":"tip","inputs":[],"outputs":[{"name":"","type":"uint256","internalType":"uint256"}],"stateMutability":"nonpayable"},{"type":"function","name":"tipJar","inputs":[],"outputs":[{"name":"","type":"address","internalType":"address"}],"stateMutability":"view"},{"type":"function","name":"tipRate","inputs":[],"outputs":[{"name":"","type":"uint256","internalType":"Percentage"}],"stateMutability":"view"},{"type":"function","name":"totalAssets","inputs":[],"outputs":[{"name":"","type":"uint256","internalType":"uint256"}],"stateMutability":"view"},{"type":"function","name":"totalSupply","inputs":[],"outputs":[{"name":"","type":"uint256","internalType":"uint256"}],"stateMutability":"view"},{"type":"function","name":"transfer","inputs":[{"name":"to","type":"address","internalType":"address"},{"name":"amount","type":"uint256","internalType":"uint256"}],"outputs":[{"name":"","type":"bool","internalType":"bool"}],"stateMutability":"nonpayable"},{"type":"function","name":"transferFrom","inputs":[{"name":"from","type":"address","internalType":"address"},{"name":"to","type":"address","internalType":"address"},{"name":"amount","type":"uint256","internalType":"uint256"}],"outputs":[{"name":"","type":"bool","internalType":"bool"}],"stateMutability":"nonpayable"},{"type":"function","name":"treasury","inputs":[],"outputs":[{"name":"","type":"address","internalType":"address"}],"stateMutability":"view"},{"type":"function","name":"unpause","inputs":[],"outputs":[],"stateMutability":"nonpayable"},{"type":"function","name":"updateRebalanceCooldown","inputs":[{"name":"newCooldown","type":"uint256","internalType":"uint256"}],"outputs":[],"stateMutability":"nonpayable"},{"type":"function","name":"withdraw","inputs":[{"name":"assets","type":"uint256","internalType":"uint256"},{"name":"receiver","type":"address","internalType":"address"},{"name":"owner","type":"address","internalType":"address"}],"outputs":[{"name":"shares","type":"uint256","internalType":"uint256"}],"stateMutability":"nonpayable"},{"type":"function","name":"withdrawFromArks","inputs":[{"name":"assets","type":"uint256","internalType":"uint256"},{"name":"receiver","type":"address","internalType":"address"},{"name":"owner","type":"address","internalType":"address"}],"outputs":[{"name":"totalSharesToRedeem","type":"uint256","internalType":"uint256"}],"stateMutability":"nonpayable"},{"type":"function","name":"withdrawFromBuffer","inputs":[{"name":"assets","type":"uint256","internalType":"uint256"},{"name":"receiver","type":"address","internalType":"address"},{"name":"owner","type":"address","internalType":"address"}],"outputs":[{"name":"shares","type":"uint256","internalType":"uint256"}],"stateMutability":"nonpayable"},{"type":"function","name":"withdrawableTotalAssets","inputs":[],"outputs":[{"name":"","type":"uint256","internalType":"uint256"}],"stateMutability":"view"},{"type":"event","name":"Approval","inputs":[{"name":"owner","type":"address","indexed":true,"internalType":"address"},{"name":"spender","type":"address","indexed":true,"internalType":"address"},{"name":"value","type":"uint256","indexed":false,"internalType":"uint256"}],"anonymous":false},{"type":"event","name":"ArkAdded","inputs":[{"name":"ark","type":"address","indexed":true,"internalType":"address"}],"anonymous":false},{"type":"event","name":"ArkRemoved","inputs":[{"name":"ark","type":"address","indexed":true,"internalType":"address"}],"anonymous":false},{"type":"event","name":"CooldownUpdated","inputs":[{"name":"previousCooldown","type":"uint256","indexed":false,"internalType":"uint256"},{"name":"newCooldown","type":"uint256","indexed":false,"internalType":"uint256"}],"anonymous":false},{"type":"event","name":"Deposit","inputs":[{"name":"sender","type":"address","indexed":true,"internalType":"address"},{"name":"owner","type":"address","indexed":true,"internalType":"address"},{"name":"assets","type":"uint256","indexed":false,"internalType":"uint256"},{"name":"shares","type":"uint256","indexed":false,"internalType":"uint256"}],"anonymous":false},{"type":"event","name":"FeeAddressUpdated","inputs":[{"name":"newAddress","type":"address","indexed":false,"internalType":"address"}],"anonymous":false},{"type":"event","name":"FleetCommanderBufferAdjusted","inputs":[{"name":"keeper","type":"address","indexed":true,"internalType":"address"},{"name":"totalMoved","type":"uint256","indexed":false,"internalType":"uint256"}],"anonymous":false},{"type":"event","name":"FleetCommanderDepositCapUpdated","inputs":[{"name":"newCap","type":"uint256","indexed":false,"internalType":"uint256"}],"anonymous":false},{"type":"event","name":"FleetCommanderMaxRebalanceOperationsUpdated","inputs":[{"name":"newMaxRebalanceOperations","type":"uint256","indexed":false,"internalType":"uint256"}],"anonymous":false},{"type":"event","name":"FleetCommanderRedeemedFromArks","inputs":[{"name":"owner","type":"address","indexed":true,"internalType":"address"},{"name":"receiver","type":"address","indexed":false,"internalType":"address"},{"name":"totalRedeemed","type":"uint256","indexed":false,"internalType":"uint256"}],"anonymous":false},{"type":"event","name":"FleetCommanderReferral","inputs":[{"name":"referee","type":"address","indexed":true,"internalType":"address"},{"name":"referralCode","type":"bytes","indexed":true,"internalType":"bytes"}],"anonymous":false},{"type":"event","name":"FleetCommanderStakingRewardsUpdated","inputs":[{"name":"newStakingRewards","type":"address","indexed":false,"internalType":"address"}],"anonymous":false},{"type":"event","name":"FleetCommanderWithdrawnFromArks","inputs":[{"name":"owner","type":"address","indexed":true,"internalType":"address"},{"name":"receiver","type":"address","indexed":false,"internalType":"address"},{"name":"totalWithdrawn","type":"uint256","indexed":false,"internalType":"uint256"}],"anonymous":false},{"type":"event","name":"FleetCommanderminimumBufferBalanceUpdated","inputs":[{"name":"newBalance","type":"uint256","indexed":false,"internalType":"uint256"}],"anonymous":false},{"type":"event","name":"FundsBufferBalanceUpdated","inputs":[{"name":"user","type":"address","indexed":true,"internalType":"address"},{"name":"prevBalance","type":"uint256","indexed":false,"internalType":"uint256"},{"name":"newBalance","type":"uint256","indexed":false,"internalType":"uint256"}],"anonymous":false},{"type":"event","name":"FundsQueueRefilled","inputs":[{"name":"keeper","type":"address","indexed":true,"internalType":"address"},{"name":"prevBalance","type":"uint256","indexed":false,"internalType":"uint256"},{"name":"newBalance","type":"uint256","indexed":false,"internalType":"uint256"}],"anonymous":false},{"type":"event","name":"MinFundsQueueBalanceUpdated","inputs":[{"name":"keeper","type":"address","indexed":true,"internalType":"address"},{"name":"newBalance","type":"uint256","indexed":false,"internalType":"uint256"}],"anonymous":false},{"type":"event","name":"MinimumPauseTimeUpdated","inputs":[{"name":"newMinimumPauseTime","type":"uint256","indexed":false,"internalType":"uint256"}],"anonymous":false},{"type":"event","name":"Paused","inputs":[{"name":"account","type":"address","indexed":false,"internalType":"address"}],"anonymous":false},{"type":"event","name":"QueuedFundsCommitted","inputs":[{"name":"keeper","type":"address","indexed":true,"internalType":"address"},{"name":"prevBalance","type":"uint256","indexed":false,"internalType":"uint256"},{"name":"newBalance","type":"uint256","indexed":false,"internalType":"uint256"}],"anonymous":false},{"type":"event","name":"Rebalanced","inputs":[{"name":"keeper","type":"address","indexed":true,"internalType":"address"},{"name":"rebalances","type":"tuple[]","indexed":false,"internalType":"struct RebalanceData[]","components":[{"name":"fromArk","type":"address","internalType":"address"},{"name":"toArk","type":"address","internalType":"address"},{"name":"amount","type":"uint256","internalType":"uint256"},{"name":"boardData","type":"bytes","internalType":"bytes"},{"name":"disembarkData","type":"bytes","internalType":"bytes"}]}],"anonymous":false},{"type":"event","name":"TipAccrued","inputs":[{"name":"tipAmount","type":"uint256","indexed":false,"internalType":"uint256"}],"anonymous":false},{"type":"event","name":"TipJarUpdated","inputs":[{"name":"newTipJar","type":"address","indexed":false,"internalType":"address"}],"anonymous":false},{"type":"event","name":"TipRateUpdated","inputs":[{"name":"newTipRate","type":"uint256","indexed":false,"internalType":"Percentage"}],"anonymous":false},{"type":"event","name":"Transfer","inputs":[{"name":"from","type":"address","indexed":true,"internalType":"address"},{"name":"to","type":"address","indexed":true,"internalType":"address"},{"name":"value","type":"uint256","indexed":false,"internalType":"uint256"}],"anonymous":false},{"type":"event","name":"Unpaused","inputs":[{"name":"account","type":"address","indexed":false,"internalType":"address"}],"anonymous":false},{"type":"event","name":"Withdraw","inputs":[{"name":"sender","type":"address","indexed":true,"internalType":"address"},{"name":"receiver","type":"address","indexed":true,"internalType":"address"},{"name":"owner","type":"address","indexed":true,"internalType":"address"},{"name":"assets","type":"uint256","indexed":false,"internalType":"uint256"},{"name":"shares","type":"uint256","indexed":false,"internalType":"uint256"}],"anonymous":false},{"type":"error","name":"CallerIsNotAdmin","inputs":[{"name":"caller","type":"address","internalType":"address"}]},{"type":"error","name":"CallerIsNotAuthorizedToBoard","inputs":[{"name":"caller","type":"address","internalType":"address"}]},{"type":"error","name":"CallerIsNotCommander","inputs":[{"name":"caller","type":"address","internalType":"address"}]},{"type":"error","name":"CallerIsNotContractSpecificRole","inputs":[{"name":"caller","type":"address","internalType":"address"},{"name":"role","type":"bytes32","internalType":"bytes32"}]},{"type":"error","name":"CallerIsNotCurator","inputs":[{"name":"caller","type":"address","internalType":"address"}]},{"type":"error","name":"CallerIsNotDecayController","inputs":[{"name":"caller","type":"address","internalType":"address"}]},{"type":"error","name":"CallerIsNotGovernor","inputs":[{"name":"caller","type":"address","internalType":"address"}]},{"type":"error","name":"CallerIsNotGuardian","inputs":[{"name":"caller","type":"address","internalType":"address"}]},{"type":"error","name":"CallerIsNotGuardianOrGovernor","inputs":[{"name":"caller","type":"address","internalType":"address"}]},{"type":"error","name":"CallerIsNotKeeper","inputs":[{"name":"caller","type":"address","internalType":"address"}]},{"type":"error","name":"CallerIsNotRaft","inputs":[{"name":"caller","type":"address","internalType":"address"}]},{"type":"error","name":"CallerIsNotRaftOrCommander","inputs":[{"name":"caller","type":"address","internalType":"address"}]},{"type":"error","name":"CallerIsNotSuperKeeper","inputs":[{"name":"caller","type":"address","internalType":"address"}]},{"type":"error","name":"ConfigurationManagerZeroAddress","inputs":[]},{"type":"error","name":"CooldownNotElapsed","inputs":[{"name":"lastActionTimestamp","type":"uint256","internalType":"uint256"},{"name":"cooldown","type":"uint256","internalType":"uint256"},{"name":"currentTimestamp","type":"uint256","internalType":"uint256"}]},{"type":"error","name":"DirectGrantIsDisabled","inputs":[{"name":"caller","type":"address","internalType":"address"}]},{"type":"error","name":"DirectRevokeIsDisabled","inputs":[{"name":"caller","type":"address","internalType":"address"}]},{"type":"error","name":"ERC20InsufficientAllowance","inputs":[{"name":"spender","type":"address","internalType":"address"},{"name":"allowance","type":"uint256","internalType":"uint256"},{"name":"needed","type":"uint256","internalType":"uint256"}]},{"type":"error","name":"ERC20InsufficientBalance","inputs":[{"name":"sender","type":"address","internalType":"address"},{"name":"balance","type":"uint256","internalType":"uint256"},{"name":"needed","type":"uint256","internalType":"uint256"}]},{"type":"error","name":"ERC20InvalidApprover","inputs":[{"name":"approver","type":"address","internalType":"address"}]},{"type":"error","name":"ERC20InvalidReceiver","inputs":[{"name":"receiver","type":"address","internalType":"address"}]},{"type":"error","name":"ERC20InvalidSender","inputs":[{"name":"sender","type":"address","internalType":"address"}]},{"type":"error","name":"ERC20InvalidSpender","inputs":[{"name":"spender","type":"address","internalType":"address"}]},{"type":"error","name":"ERC4626ExceededMaxDeposit","inputs":[{"name":"receiver","type":"address","internalType":"address"},{"name":"assets","type":"uint256","internalType":"uint256"},{"name":"max","type":"uint256","internalType":"uint256"}]},{"type":"error","name":"ERC4626ExceededMaxMint","inputs":[{"name":"receiver","type":"address","internalType":"address"},{"name":"shares","type":"uint256","internalType":"uint256"},{"name":"max","type":"uint256","internalType":"uint256"}]},{"type":"error","name":"ERC4626ExceededMaxRedeem","inputs":[{"name":"owner","type":"address","internalType":"address"},{"name":"shares","type":"uint256","internalType":"uint256"},{"name":"max","type":"uint256","internalType":"uint256"}]},{"type":"error","name":"ERC4626ExceededMaxWithdraw","inputs":[{"name":"owner","type":"address","internalType":"address"},{"name":"assets","type":"uint256","internalType":"uint256"},{"name":"max","type":"uint256","internalType":"uint256"}]},{"type":"error","name":"EnforcedPause","inputs":[]},{"type":"error","name":"ExpectedPause","inputs":[]},{"type":"error","name":"FleetCommanderArkAlreadyExists","inputs":[{"name":"ark","type":"address","internalType":"address"}]},{"type":"error","name":"FleetCommanderArkAlreadyHasCommander","inputs":[]},{"type":"error","name":"FleetCommanderArkAssetsNotZero","inputs":[{"name":"ark","type":"address","internalType":"address"}]},{"type":"error","name":"FleetCommanderArkDepositCapGreaterThanZero","inputs":[{"name":"ark","type":"address","internalType":"address"}]},{"type":"error","name":"FleetCommanderArkDepositCapZero","inputs":[{"name":"ark","type":"address","internalType":"address"}]},{"type":"error","name":"FleetCommanderArkNotActive","inputs":[{"name":"ark","type":"address","internalType":"address"}]},{"type":"error","name":"FleetCommanderArkNotFound","inputs":[{"name":"ark","type":"address","internalType":"address"}]},{"type":"error","name":"FleetCommanderCantUseMaxUintMovingFromBuffer","inputs":[]},{"type":"error","name":"FleetCommanderCantUseRebalanceOnBufferArk","inputs":[]},{"type":"error","name":"FleetCommanderEffectiveDepositCapExceeded","inputs":[{"name":"ark","type":"address","internalType":"address"},{"name":"amount","type":"uint256","internalType":"uint256"},{"name":"effectiveDepositCap","type":"uint256","internalType":"uint256"}]},{"type":"error","name":"FleetCommanderExceedsMaxInflow","inputs":[{"name":"fromArk","type":"address","internalType":"address"},{"name":"amount","type":"uint256","internalType":"uint256"},{"name":"maxRebalanceInflow","type":"uint256","internalType":"uint256"}]},{"type":"error","name":"FleetCommanderExceedsMaxOutflow","inputs":[{"name":"fromArk","type":"address","internalType":"address"},{"name":"amount","type":"uint256","internalType":"uint256"},{"name":"maxRebalanceOutflow","type":"uint256","internalType":"uint256"}]},{"type":"error","name":"FleetCommanderInsufficientBuffer","inputs":[]},{"type":"error","name":"FleetCommanderInvalidArkAddress","inputs":[]},{"type":"error","name":"FleetCommanderInvalidBufferAdjustment","inputs":[]},{"type":"error","name":"FleetCommanderInvalidSourceArk","inputs":[{"name":"ark","type":"address","internalType":"address"}]},{"type":"error","name":"FleetCommanderInvalidStakingRewardsManager","inputs":[]},{"type":"error","name":"FleetCommanderMovedMoreThanAvailable","inputs":[]},{"type":"error","name":"FleetCommanderNoExcessFunds","inputs":[]},{"type":"error","name":"FleetCommanderNoFundsMoved","inputs":[]},{"type":"error","name":"FleetCommanderPausableMinimumPauseTimeNotElapsed","inputs":[]},{"type":"error","name":"FleetCommanderRebalanceAmountZero","inputs":[{"name":"ark","type":"address","internalType":"address"}]},{"type":"error","name":"FleetCommanderRebalanceNoOperations","inputs":[]},{"type":"error","name":"FleetCommanderRebalanceTooManyOperations","inputs":[{"name":"operationsCount","type":"uint256","internalType":"uint256"}]},{"type":"error","name":"FleetCommanderStakingRewardsManagerNotSet","inputs":[]},{"type":"error","name":"FleetCommanderTransfersDisabled","inputs":[]},{"type":"error","name":"FleetCommanderUnauthorizedRedemption","inputs":[{"name":"caller","type":"address","internalType":"address"},{"name":"owner","type":"address","internalType":"address"}]},{"type":"error","name":"FleetCommanderUnauthorizedWithdrawal","inputs":[{"name":"caller","type":"address","internalType":"address"},{"name":"owner","type":"address","internalType":"address"}]},{"type":"error","name":"InvalidAccessManagerAddress","inputs":[{"name":"invalidAddress","type":"address","internalType":"address"}]},{"type":"error","name":"InvalidFleetCommanderAddress","inputs":[]},{"type":"error","name":"InvalidTipJarAddress","inputs":[]},{"type":"error","name":"SafeERC20FailedOperation","inputs":[{"name":"token","type":"address","internalType":"address"}]},{"type":"error","name":"TipRateCannotExceedOneHundredPercent","inputs":[]},{"type":"error","name":"WithdrawalAmountExceedsMaxBufferLimit","inputs":[]}],"bytecode":{"object":"0x60e060405234801561000f575f5ffd5b5060405161a65e38038061a65e83398101604081905261002e91610669565b8060e001515f8261012001518360a001518480606001516201fa408260800151885f015189604001518160039081610066919061080b565b506004610073828261080b565b5050506001600160a01b0381166100a4576040516347bd7c1d60e01b81525f60048201526024015b60405180910390fd5b6040516301ffc9a760e01b81526338c7ccdb60e01b60048201526001600160a01b038216906301ffc9a790602401602060405180830381865afa1580156100ed573d5f5f3e3d5ffd5b505050506040513d601f19601f8201168201806040525081019061011191906108c5565b610139576040516347bd7c1d60e01b81526001600160a01b038216600482015260240161009b565b600580546001600160a81b0319166001600160a01b03928316179055600691909155811661017a5760405163f1634df960e01b815260040160405180910390fd5b806001600160a01b03166080816001600160a01b031681525050505f6040518061014001604052806040518060400160405280600981526020016842756666657241726b60b81b81525081526020016040518060400160405280601181526020017042756666657241726b2064657461696c7360781b815250815260200183608001516001600160a01b0316815260200183606001516001600160a01b031681526020018360a001516001600160a01b031681526020015f1981526020015f1981526020015f1981526020015f151581526020016012600a61025c91906109e4565b6102679060646109ef565b815250306040516102779061057b565b610282929190610a34565b604051809103905ff08015801561029b573d5f5f3e3d5ffd5b5090506103af6040518060a00160405280836001600160a01b031681526020018460c0015181526020018461010001518152602001600a81526020016102e561043d60201b60201c565b600554604051630f07f82960e01b81526001600160a01b039182166004820152306024820152911690630f07f829906044016020604051808303815f875af1158015610333573d5f5f3e3d5ffd5b505050506040513d601f19601f820116820180604052508101906103579190610b0e565b6001600160a01b031690528051600880546001600160a01b03199081166001600160a01b039384161790915560208301516009556040830151600a556060830151600b55608090920151600c80549093169116179055565b6001600160a01b0381165f908152601060209081526040909120805460ff19166001179055820151600d906103e4908261080b565b5050505f5f6103f8836104a560201b60201c565b915091508161040857601261040a565b805b60ff1660c05250506001600160a01b031660a052601155426012556013829055801561043557426014555b505050610b54565b5f6080516001600160a01b031663f7e533ec6040518163ffffffff1660e01b8152600401602060405180830381865afa15801561047c573d5f5f3e3d5ffd5b505050506040513d601f19601f820116820180604052508101906104a09190610b0e565b905090565b60408051600481526024810182526020810180516001600160e01b031663313ce56760e01b17905290515f918291829182916001600160a01b038716916104eb91610b27565b5f60405180830381855afa9150503d805f8114610523576040519150601f19603f3d011682016040523d82523d5f602084013e610528565b606091505b509150915081801561053c57506020815110155b1561056f575f818060200190518101906105569190610b3d565b905060ff811161056d576001969095509350505050565b505b505f9485945092505050565b6129b680617ca883390190565b634e487b7160e01b5f52604160045260245ffd5b60405161014081016001600160401b03811182821017156105bf576105bf610588565b60405290565b5f82601f8301126105d4575f5ffd5b81516001600160401b038111156105ed576105ed610588565b604051601f8201601f19908116603f011681016001600160401b038111828210171561061b5761061b610588565b604052818152838201602001851015610632575f5ffd5b8160208501602083015e5f918101602001919091529392505050565b80516001600160a01b0381168114610664575f5ffd5b919050565b5f60208284031215610679575f5ffd5b81516001600160401b0381111561068e575f5ffd5b820161014081850312156106a0575f5ffd5b6106a861059c565b81516001600160401b038111156106bd575f5ffd5b6106c9868285016105c5565b82525060208201516001600160401b038111156106e4575f5ffd5b6106f0868285016105c5565b60208301525060408201516001600160401b0381111561070e575f5ffd5b61071a868285016105c5565b60408301525061072c6060830161064e565b606082015261073d6080830161064e565b608082015261074e60a0830161064e565b60a082015260c0828101519082015260e08083015190820152610100808301519082015261012091820151918101919091529392505050565b600181811c9082168061079b57607f821691505b6020821081036107b957634e487b7160e01b5f52602260045260245ffd5b50919050565b601f82111561080657805f5260205f20601f840160051c810160208510156107e45750805b601f840160051c820191505b81811015610803575f81556001016107f0565b50505b505050565b81516001600160401b0381111561082457610824610588565b610838816108328454610787565b846107bf565b6020601f82116001811461086a575f83156108535750848201515b5f19600385901b1c1916600184901b178455610803565b5f84815260208120601f198516915b828110156108995787850151825560209485019460019092019101610879565b50848210156108b657868401515f19600387901b60f8161c191681555b50505050600190811b01905550565b5f602082840312156108d5575f5ffd5b815180151581146108e4575f5ffd5b9392505050565b634e487b7160e01b5f52601160045260245ffd5b6001815b600184111561093a5780850481111561091e5761091e6108eb565b600184161561092c57908102905b60019390931c928002610903565b935093915050565b5f82610950575060016109de565b8161095c57505f6109de565b8160018114610972576002811461097c57610998565b60019150506109de565b60ff84111561098d5761098d6108eb565b50506001821b6109de565b5060208310610133831016604e8410600b84101617156109bb575081810a6109de565b6109c75f1984846108ff565b805f19048211156109da576109da6108eb565b0290505b92915050565b5f6108e48383610942565b80820281158282048414176109de576109de6108eb565b5f81518084528060208401602086015e5f602082860101526020601f19601f83011685010191505092915050565b604081525f83516101406040840152610a51610180840182610a06565b90506020850151603f19848303016060850152610a6e8282610a06565b9150506040850151610a8b60808501826001600160a01b03169052565b5060608501516001600160a01b03811660a08501525060808501516001600160a01b03811660c08501525060a085015160e084015260c085015161010084015260e0850151610120840152610100850151610aeb61014085018215159052565b506101208501516101608401526001600160a01b038416602084015290506108e4565b5f60208284031215610b1e575f5ffd5b6108e48261064e565b5f82518060208501845e5f920191825250919050565b5f60208284031215610b4d575f5ffd5b5051919050565b60805160a05160c0516170e4610bc45f395f610d6d01525f818161059601528181611236015281816124d501528181613beb0152818161425c01526142eb01525f81816108c101528181610b7f01528181611543015281816118ab01528181611b58015261338f01526170e45ff3fe608060405234801561000f575f5ffd5b506004361061047a575f3560e01c80638456cb5911610258578063ce96cb771161014b578063e7b20e5b116100ca578063f35778161161008f578063f357781614610a2f578063f3ba553e14610a42578063f7e533ec14610a55578063faa9bce914610a5d578063fcf2849f14610a70578063ff32a42a14610a83575f5ffd5b8063e7b20e5b146109e1578063ebc136d0146109f4578063ef2fc47214610a07578063ef8b30f714610898578063f1cd665b14610a1a575f5ffd5b8063d905777e11610110578063d905777e1461095d578063dc9de0a814610970578063dd62ed3e14610983578063e193858f146109bb578063e37d5b7f146109ce575f5ffd5b8063ce96cb7714610909578063d25dd1011461091c578063d45a07a11461092f578063d570ee4714610942578063d902d41a1461094a575f5ffd5b8063b460af94116101d7578063c6e6f5921161019c578063c6e6f59214610898578063c8169aa1146108ab578063c9c667e3146108bc578063cada5143146108e3578063cc5b1e55146108f6575f5ffd5b8063b460af94146107fb578063b637766c1461080e578063ba08765214610821578063c3f909d414610834578063c63d75b614610885575f5ffd5b806396c25a381161021d57806396c25a38146107a5578063a039e944146107b8578063a0506f0b146107cb578063a9059cbb146107d5578063b3d7f6b9146107e8575f5ffd5b80638456cb59146107665780639265b76e1461076e57806394bf804d1461078157806394d7eaa41461079457806395d89b411461079d575f5ffd5b8063498e76a0116103705780635f538f6f116102ef5780636e553f65116102b45780636e553f65146106c057806370a08231146106d357806371aedbc1146106fb57806379502c55146107045780637aaceb951461075e575f5ffd5b80635f538f6f1461068157806361d027b314610694578063680e57ab1461069c57806368482626146106a557806369b3054b146106ad575f5ffd5b80635822198f116103355780635822198f146106415780635b0f83f3146106545780635c975abb1461065c5780635e5a9ea91461066e5780635ed975e51461052c575f5ffd5b8063498e76a0146105fb5780634cdad506146104ae5780634daecb9c146106045780635340c01214610617578063565974d314610639575f5ffd5b806323b872dd116103fc57806338d52e0f116103c157806338d52e0f146105945780633a7c9f0e146105ba5780633e314c76146105cd5780633f4ba83a146105e0578063402d267d146105e8575f5ffd5b806323b872dd146105445780632755cd2d14610557578063313ce5671461055f5780633152d5d1146105795780633405056014610581575f5ffd5b8063117d8ae011610442578063117d8ae0146104f7578063133ab57914610517578063168b813a1461052c57806318160ddd14610534578063218e4a151461053c575f5ffd5b806301e1d1141461047e57806306fdde031461049957806307a2d13a146104ae578063095ea7b3146104c15780630a28a477146104e4575b5f5ffd5b610486610a96565b6040519081526020015b60405180910390f35b6104a1610ab8565b604051610490919061656e565b6104866104bc366004616580565b610b48565b6104d46104cf3660046165ab565b610b59565b6040519015158152602001610490565b6104866104f2366004616580565b610b70565b6104ff610b7c565b6040516001600160a01b039091168152602001610490565b61052a610525366004616580565b610bfd565b005b610486600a81565b600254610486565b601354610486565b6104d46105523660046165d5565b610cea565b610486610d4d565b610567610d66565b60405160ff9091168152602001610490565b601454610486565b61052a61058f3660046165ab565b610d91565b7f00000000000000000000000000000000000000000000000000000000000000006104ff565b6104866105c8366004616613565b610ecc565b6104866105db366004616652565b610f82565b61052a611022565b6104866105f6366004616652565b611200565b61048660115481565b61052a610612366004616580565b6112c8565b6104d4610625366004616652565b60106020525f908152604090205460ff1681565b6104a16113a8565b61052a61064f366004616580565b611434565b6104ff611540565b600554600160a01b900460ff166104d4565b61052a61067c366004616652565b61159d565b61048661068f366004616613565b611737565b6104ff6118a8565b61048660065481565b610486611905565b6104866106bb36600461666d565b61198b565b6104866106ce3660046166a7565b6119bd565b6104866106e1366004616652565b6001600160a01b03165f9081526020819052604090205490565b61048660125481565b600854600954600a54600b54600c5461072a946001600160a01b03908116949392911685565b604080516001600160a01b03968716815260208101959095528401929092526060830152909116608082015260a001610490565b6104ff611b55565b61052a611bb2565b61048661077c366004616652565b611d8e565b61048661078f3660046166a7565b611e28565b61048660075481565b6104a1611eec565b61052a6107b3366004616652565b611efb565b6104866107c6366004616613565b611ffc565b6104866201fa4081565b6104d46107e33660046165ab565b612094565b6104866107f6366004616580565b61212d565b610486610809366004616613565b612139565b61052a61081c3660046165ab565b612222565b61048661082f366004616613565b61232e565b61083c61241a565b604051610490919081516001600160a01b039081168252602080840151908301526040808401519083015260608084015190830152608092830151169181019190915260a00190565b610486610893366004616652565b61249c565b6104866108a6366004616580565b612524565b6008546001600160a01b03166104ff565b6104ff7f000000000000000000000000000000000000000000000000000000000000000081565b61052a6108f1366004616711565b61252f565b61052a610904366004616711565b61275b565b610486610917366004616652565b612899565b6104d461092a366004616652565b6128a5565b61052a61093d3660046165ab565b6128cc565b6104866129d8565b61052a610958366004616580565b6129f7565b61048661096b366004616652565b612ad7565b61052a61097e366004616580565b612ae6565b61048661099136600461674f565b6001600160a01b039182165f90815260016020908152604080832093909416825291909152205490565b61052a6109c9366004616580565b612be7565b61052a6109dc366004616652565b612ce8565b61052a6109ef366004616711565b612de9565b6104d4610a02366004616652565b612f0b565b610486610a15366004616652565b612fdb565b610a226130ec565b604051610490919061676b565b610486610a3d366004616613565b6130f8565b61052a610a503660046165ab565b613280565b6104ff61338c565b610486610a6b3660046168bd565b6133e9565b61052a610a7e366004616711565b613444565b6104ff610a91366004616580565b61360b565b5f610ab3610aa26130ec565b6008546001600160a01b0316613617565b905090565b606060038054610ac790616911565b80601f0160208091040260200160405190810160405280929190818152602001828054610af390616911565b8015610b3e5780601f10610b1557610100808354040283529160200191610b3e565b820191905f5260205f20905b815481529060010190602001808311610b2157829003601f168201915b5050505050905090565b5f610b53825f6136cb565b92915050565b5f33610b66818585613703565b5060019392505050565b5f610b53826001613710565b5f7f00000000000000000000000000000000000000000000000000000000000000006001600160a01b031663117d8ae06040518163ffffffff1660e01b8152600401602060405180830381865afa158015610bd9573d5f5f3e3d5ffd5b505050506040513d601f19601f82011682018060405250810190610ab39190616953565b30801580610c8057506005546001600160a01b03166391d14854610c215f8461198b565b336040518363ffffffff1660e01b8152600401610c3f92919061696e565b602060405180830381865afa158015610c5a573d5f5f3e3d5ffd5b505050506040513d601f19601f82011682018060405250810190610c7e9190616994565b155b15610ca5576040516363b52ed760e11b81523360048201526024015b60405180910390fd5b610cad61373f565b600b8290556040518281527f4f4bedc5354096786a0fb857b12fdd6488cc973b2348cedb78088bdceaa906b5906020015b60405180910390a15050565b600c545f906001600160a01b0316336001600160a01b03161480610d1657506001600160a01b03831630145b15610d2d57610d2684848461376a565b9050610d46565b60405163ec47ea8b60e01b815260040160405180910390fd5b9392505050565b5f610d5661373f565b610ab3610d61611b55565b61378d565b5f610ab3817f00000000000000000000000000000000000000000000000000000000000000006169c1565b30801580610e1457506005546001600160a01b03166391d14854610db55f8461198b565b336040518363ffffffff1660e01b8152600401610dd392919061696e565b602060405180830381865afa158015610dee573d5f5f3e3d5ffd5b505050506040513d601f19601f82011682018060405250810190610e129190616994565b155b15610e34576040516363b52ed760e11b8152336004820152602401610c9c565b82610e40600e8261388e565b610e6857604051632767039f60e01b81526001600160a01b0382166004820152602401610c9c565b610e7061373f565b604051638665120360e01b8152600481018490526001600160a01b038516906386651203906024015b5f604051808303815f87803b158015610eb0575f5ffd5b505af1158015610ec2573d5f5f3e3d5ffd5b5050505050505050565b5f610ed8610d61611b55565b50610ef7610ee46130ec565b6008546001600160a01b031660106138af565b610eff61373f565b610f098483613a21565b610f1284610b48565b9050610f1d81613b0c565b610f2a3384848488613bb8565b610f335f601455565b604080516001600160a01b038581168252602082018790528416917f09fbb654e02253d6c37ecb473c5ed6f4557cac3fe5abc1d559523f6e257ee18591015b60405180910390a2610d46613c78565b5f610b5360085f015f9054906101000a90046001600160a01b03166001600160a01b03166301e1d1146040518163ffffffff1660e01b8152600401602060405180830381865afa158015610fd8573d5f5f3e3d5ffd5b505050506040513d601f19601f82011682018060405250810190610ffc91906169da565b61101d6104bc856001600160a01b03165f9081526020819052604090205490565b613d52565b6005546040805163093a953d60e21b815290516001600160a01b03909216916391d148549183916324ea54f4916004808201926020929091908290030181865afa158015611072573d5f5f3e3d5ffd5b505050506040513d601f19601f8201168201806040525081019061109691906169da565b336040518363ffffffff1660e01b81526004016110b492919061696e565b602060405180830381865afa1580156110cf573d5f5f3e3d5ffd5b505050506040513d601f19601f820116820180604052508101906110f39190616994565b1580156111ce575060055460408051630ccc574960e41b815290516001600160a01b03909216916391d1485491839163ccc57490916004808201926020929091908290030181865afa15801561114b573d5f5f3e3d5ffd5b505050506040513d601f19601f8201168201806040525081019061116f91906169da565b336040518363ffffffff1660e01b815260040161118d92919061696e565b602060405180830381865afa1580156111a8573d5f5f3e3d5ffd5b505050506040513d601f19601f820116820180604052508101906111cc9190616994565b155b156111ee57604051636b2a758d60e01b8152336004820152602401610c9c565b6111f6613d61565b6111fe613d8b565b565b5f5f61120a610a96565b90505f600860020154821161122c57600a546112279083906169f1565b61122e565b5f5b90506112c0817f00000000000000000000000000000000000000000000000000000000000000006040516370a0823160e01b81526001600160a01b03888116600483015291909116906370a08231906024015b602060405180830381865afa15801561129c573d5f5f3e3d5ffd5b505050506040513d601f19601f8201168201806040525081019061101d91906169da565b949350505050565b3080158061134b57506005546001600160a01b03166391d148546112ec5f8461198b565b336040518363ffffffff1660e01b815260040161130a92919061696e565b602060405180830381865afa158015611325573d5f5f3e3d5ffd5b505050506040513d601f19601f820116820180604052508101906113499190616994565b155b1561136b576040516363b52ed760e11b8152336004820152602401610c9c565b61137361373f565b60098290556040518281527f3ba130ec8df44f0a71243af1b7f9f4239616bafda97ae766b3c40a9d202b21a490602001610cde565b600d80546113b590616911565b80601f01602080910402602001604051908101604052809291908181526020018280546113e190616911565b801561142c5780601f106114035761010080835404028352916020019161142c565b820191905f5260205f20905b81548152906001019060200180831161140f57829003601f168201915b505050505081565b60055460408051630ccc574960e41b815290516001600160a01b03909216916391d1485491839163ccc57490916004808201926020929091908290030181865afa158015611484573d5f5f3e3d5ffd5b505050506040513d601f19601f820116820180604052508101906114a891906169da565b336040518363ffffffff1660e01b81526004016114c692919061696e565b602060405180830381865afa1580156114e1573d5f5f3e3d5ffd5b505050506040513d601f19601f820116820180604052508101906115059190616994565b61152457604051630ea7d7ed60e21b8152336004820152602401610c9c565b61152c61373f565b61153d81611538611b55565b613dc3565b50565b5f7f00000000000000000000000000000000000000000000000000000000000000006001600160a01b0316635b0f83f36040518163ffffffff1660e01b8152600401602060405180830381865afa158015610bd9573d5f5f3e3d5ffd5b3080158061162057506005546001600160a01b03166391d148546115c15f8461198b565b336040518363ffffffff1660e01b81526004016115df92919061696e565b602060405180830381865afa1580156115fa573d5f5f3e3d5ffd5b505050506040513d601f19601f8201168201806040525081019061161e9190616994565b155b15611640576040516363b52ed760e11b8152336004820152602401610c9c565b61164861373f565b6001600160a01b03821661166f5760405163a0394e6160e01b815260040160405180910390fd5b61167761338c565b600554604051630f07f82960e01b81526001600160a01b039182166004820152306024820152911690630f07f829906044016020604051808303815f875af11580156116c5573d5f5f3e3d5ffd5b505050506040513d601f19601f820116820180604052508101906116e99190616953565b600c80546001600160a01b0319166001600160a01b0392831617905560405190831681527f8f407169a2fff9de40408b8d482b293eff9e2dbc448da0593fa9a39d428a410490602001610cde565b5f61174061373f565b61174984610b70565b9050611756848284613e28565b600854604080516278744560e21b815290515f926001600160a01b0316916301e1d1149160048083019260209291908290030181865afa15801561179c573d5f5f3e3d5ffd5b505050506040513d601f19601f820116820180604052508101906117c091906169da565b6008549091506117d9906001600160a01b031686613f13565b6117e63385858886613bb8565b336001600160a01b03167fe68a55afda2dca8343871fe0e5575a383291a40ae7d53e4dee12faf79cde144e8260085f015f9054906101000a90046001600160a01b03166001600160a01b03166301e1d1146040518163ffffffff1660e01b8152600401602060405180830381865afa158015611864573d5f5f3e3d5ffd5b505050506040513d601f19601f8201168201806040525081019061188891906169da565b6040805192835260208301919091520160405180910390a2509392505050565b5f7f00000000000000000000000000000000000000000000000000000000000000006001600160a01b03166361d027b36040518163ffffffff1660e01b8152600401602060405180830381865afa158015610bd9573d5f5f3e3d5ffd5b5f5f6012544261191591906169f1565b90505f306001600160a01b03166318160ddd6040518163ffffffff1660e01b8152600401602060405180830381865afa158015611954573d5f5f3e3d5ffd5b505050506040513d601f19601f8201168201806040525081019061197891906169da565b90506119848183613f7c565b9250505090565b5f828260405160200161199f929190616a18565b60405160208183030381529060405280519060200120905092915050565b5f6119c9610d61611b55565b506119e66119d56130ec565b6008546001600160a01b0316613ff6565b506119ef61373f565b6119f98333614224565b600854604080516278744560e21b815290515f926001600160a01b0316916301e1d1149160048083019260209291908290030181865afa158015611a3f573d5f5f3e3d5ffd5b505050506040513d601f19601f82011682018060405250810190611a6391906169da565b9050611a6e84612524565b9150611a7c33848685614257565b600854611a92906001600160a01b0316856142e9565b336001600160a01b03167fe68a55afda2dca8343871fe0e5575a383291a40ae7d53e4dee12faf79cde144e8260085f015f9054906101000a90046001600160a01b03166001600160a01b03166301e1d1146040518163ffffffff1660e01b8152600401602060405180830381865afa158015611b10573d5f5f3e3d5ffd5b505050506040513d601f19601f82011682018060405250810190611b3491906169da565b6040805192835260208301919091520160405180910390a250610b53613c78565b5f7f00000000000000000000000000000000000000000000000000000000000000006001600160a01b0316637aaceb956040518163ffffffff1660e01b8152600401602060405180830381865afa158015610bd9573d5f5f3e3d5ffd5b6005546040805163093a953d60e21b815290516001600160a01b03909216916391d148549183916324ea54f4916004808201926020929091908290030181865afa158015611c02573d5f5f3e3d5ffd5b505050506040513d601f19601f82011682018060405250810190611c2691906169da565b336040518363ffffffff1660e01b8152600401611c4492919061696e565b602060405180830381865afa158015611c5f573d5f5f3e3d5ffd5b505050506040513d601f19601f82011682018060405250810190611c839190616994565b158015611d5e575060055460408051630ccc574960e41b815290516001600160a01b03909216916391d1485491839163ccc57490916004808201926020929091908290030181865afa158015611cdb573d5f5f3e3d5ffd5b505050506040513d601f19601f82011682018060405250810190611cff91906169da565b336040518363ffffffff1660e01b8152600401611d1d92919061696e565b602060405180830381865afa158015611d38573d5f5f3e3d5ffd5b505050506040513d601f19601f82011682018060405250810190611d5c9190616994565b155b15611d7e57604051636b2a758d60e01b8152336004820152602401610c9c565b611d8661373f565b6111fe6143b5565b5f610b53611e0b60085f015f9054906101000a90046001600160a01b03166001600160a01b03166301e1d1146040518163ffffffff1660e01b8152600401602060405180830381865afa158015611de7573d5f5f3e3d5ffd5b505050506040513d601f19601f820116820180604052508101906104f291906169da565b6001600160a01b0384165f90815260208190526040902054613d52565b5f611e34610d61611b55565b50611e406119d56130ec565b50611e4961373f565b611e5383336143c3565b600854604080516278744560e21b815290515f926001600160a01b0316916301e1d1149160048083019260209291908290030181865afa158015611e99573d5f5f3e3d5ffd5b505050506040513d601f19601f82011682018060405250810190611ebd91906169da565b9050611ec88461212d565b9150611ed633848487614257565b600854611a92906001600160a01b0316836142e9565b606060048054610ac790616911565b60055460408051630ccc574960e41b815290516001600160a01b03909216916391d1485491839163ccc57490916004808201926020929091908290030181865afa158015611f4b573d5f5f3e3d5ffd5b505050506040513d601f19601f82011682018060405250810190611f6f91906169da565b336040518363ffffffff1660e01b8152600401611f8d92919061696e565b602060405180830381865afa158015611fa8573d5f5f3e3d5ffd5b505050506040513d601f19601f82011682018060405250810190611fcc9190616994565b611feb57604051630ea7d7ed60e21b8152336004820152602401610c9c565b611ff361373f565b61153d816143f6565b5f612008610d61611b55565b50612014610ee46130ec565b61201c61373f565b61202584610b70565b9050612032848284614520565b61203b84613b0c565b6120483384848785613bb8565b6120515f601455565b604080516001600160a01b038581168252602082018790528416917fd4383faec5079b2ec7ac0ff240326baa0d584b03d51b9742f7c1a034f6fc015b9101610f72565b5f5f306001600160a01b031663c3f909d46040518163ffffffff1660e01b815260040160a060405180830381865afa1580156120d2573d5f5f3e3d5ffd5b505050506040513d601f19601f820116820180604052508101906120f69190616a5b565b905080608001516001600160a01b031661210d3390565b6001600160a01b031603610d2d5761212584846145b9565b915050610b53565b5f610b538260016136cb565b5f612145610d61611b55565b50612151610ee46130ec565b61215961373f565b600854604080516278744560e21b815290515f926001600160a01b0316916301e1d1149160048083019260209291908290030181865afa15801561219f573d5f5f3e3d5ffd5b505050506040513d601f19601f820116820180604052508101906121c391906169da565b90505f1985036121f2576001600160a01b0383165f908152602081905260409020546121ee81610b48565b9550505b80851161220b57612204858585611737565b9150612219565b612216858585611ffc565b91505b50610d46613c78565b308015806122a557506005546001600160a01b03166391d148546122465f8461198b565b336040518363ffffffff1660e01b815260040161226492919061696e565b602060405180830381865afa15801561227f573d5f5f3e3d5ffd5b505050506040513d601f19601f820116820180604052508101906122a39190616994565b155b156122c5576040516363b52ed760e11b8152336004820152602401610c9c565b826122d1600e8261388e565b6122f957604051632767039f60e01b81526001600160a01b0382166004820152602401610c9c565b61230161373f565b6040516361f5cd8b60e01b8152600481018490526001600160a01b038516906361f5cd8b90602401610e99565b5f61233a610d61611b55565b50612346610ee46130ec565b61234e61373f565b600854604080516278744560e21b815290515f926001600160a01b0316916301e1d1149160048083019260209291908290030181865afa158015612394573d5f5f3e3d5ffd5b505050506040513d601f19601f820116820180604052508101906123b891906169da565b90505f6123c482612524565b90505f1986036123e9576001600160a01b0384165f9081526020819052604090205495505b808611612402576123fb8686866130f8565b9250612410565b61240d868686610ecc565b92505b5050610d46613c78565b6124596040518060a001604052805f6001600160a01b031681526020015f81526020015f81526020015f81526020015f6001600160a01b031681525090565b506040805160a0810182526008546001600160a01b0390811682526009546020830152600a5492820192909252600b546060820152600c54909116608082015290565b5f5f6124a6610a96565b90505f60086002015482116124c857600a546124c39083906169f1565b6124ca565b5f5b90506112c06108a6827f00000000000000000000000000000000000000000000000000000000000000006040516370a0823160e01b81526001600160a01b03898116600483015291909116906370a0823190602401611281565b5f610b53825f613710565b6005546001600160a01b03166391d1485461254b60013061198b565b336040518363ffffffff1660e01b815260040161256992919061696e565b602060405180830381865afa158015612584573d5f5f3e3d5ffd5b505050506040513d601f19601f820116820180604052508101906125a89190616994565b1580156126835750600554604080516366e943f160e01b815290516001600160a01b03909216916391d148549183916366e943f1916004808201926020929091908290030181865afa158015612600573d5f5f3e3d5ffd5b505050506040513d601f19601f8201168201806040525081019061262491906169da565b336040518363ffffffff1660e01b815260040161264292919061696e565b602060405180830381865afa15801561265d573d5f5f3e3d5ffd5b505050506040513d601f19601f820116820180604052508101906126819190616994565b155b156126a3576040516329068e8160e21b8152336004820152602401610c9c565b6013546014546126b390426169f1565b10156126e757601454601354604051630924dbf160e21b815260048101929092526024820152426044820152606401610c9c565b426014556126f6610d61611b55565b506126ff61373f565b61270982826145c6565b61271382826146b6565b5f61271e83836148ce565b60405181815290915033907f4bd1a9dd6e8410a6d85178f9a75d601cb7b266e228771c213fe39ffffad2d3299060200160405180910390a2505050565b60055460408051630ccc574960e41b815290516001600160a01b03909216916391d1485491839163ccc57490916004808201926020929091908290030181865afa1580156127ab573d5f5f3e3d5ffd5b505050506040513d601f19601f820116820180604052508101906127cf91906169da565b336040518363ffffffff1660e01b81526004016127ed92919061696e565b602060405180830381865afa158015612808573d5f5f3e3d5ffd5b505050506040513d601f19601f8201168201806040525081019061282c9190616994565b61284b57604051630ea7d7ed60e21b8152336004820152602401610c9c565b61285361373f565b5f5b818110156128945761288c83838381811061287257612872616aba565b90506020020160208101906128879190616652565b61496c565b600101612855565b505050565b5f610b53610ffc6129d8565b5f6128b1600e8361388e565b80610b535750506008546001600160a01b0390811691161490565b3080158061294f57506005546001600160a01b03166391d148546128f05f8461198b565b336040518363ffffffff1660e01b815260040161290e92919061696e565b602060405180830381865afa158015612929573d5f5f3e3d5ffd5b505050506040513d601f19601f8201168201806040525081019061294d9190616994565b155b1561296f576040516363b52ed760e11b8152336004820152602401610c9c565b8261297b600e8261388e565b6129a357604051632767039f60e01b81526001600160a01b0382166004820152602401610c9c565b6129ab61373f565b60405163497af41960e11b8152600481018490526001600160a01b038516906392f5e83290602401610e99565b5f610ab36129e46130ec565b6008546001600160a01b03166010614b6b565b30801580612a7a57506005546001600160a01b03166391d14854612a1b5f8461198b565b336040518363ffffffff1660e01b8152600401612a3992919061696e565b602060405180830381865afa158015612a54573d5f5f3e3d5ffd5b505050506040513d601f19601f82011682018060405250810190612a789190616994565b155b15612a9a576040516363b52ed760e11b8152336004820152602401610c9c565b612aa261373f565b600a8290556040518281527f4faeac5aec9fa2e6f82ae7ccfef27a03ca3ff9d8c5356fea9acb2caad1c4c34490602001610cde565b5f610b53611e0b6108a66129d8565b60055460408051630ccc574960e41b815290516001600160a01b03909216916391d1485491839163ccc57490916004808201926020929091908290030181865afa158015612b36573d5f5f3e3d5ffd5b505050506040513d601f19601f82011682018060405250810190612b5a91906169da565b336040518363ffffffff1660e01b8152600401612b7892919061696e565b602060405180830381865afa158015612b93573d5f5f3e3d5ffd5b505050506040513d601f19601f82011682018060405250810190612bb79190616994565b612bd657604051630ea7d7ed60e21b8152336004820152602401610c9c565b612bde61373f565b61153d81614ceb565b60055460408051630ccc574960e41b815290516001600160a01b03909216916391d1485491839163ccc57490916004808201926020929091908290030181865afa158015612c37573d5f5f3e3d5ffd5b505050506040513d601f19601f82011682018060405250810190612c5b91906169da565b336040518363ffffffff1660e01b8152600401612c7992919061696e565b602060405180830381865afa158015612c94573d5f5f3e3d5ffd5b505050506040513d601f19601f82011682018060405250810190612cb89190616994565b612cd757604051630ea7d7ed60e21b8152336004820152602401610c9c565b612cdf61373f565b61153d81614d2c565b60055460408051630ccc574960e41b815290516001600160a01b03909216916391d1485491839163ccc57490916004808201926020929091908290030181865afa158015612d38573d5f5f3e3d5ffd5b505050506040513d601f19601f82011682018060405250810190612d5c91906169da565b336040518363ffffffff1660e01b8152600401612d7a92919061696e565b602060405180830381865afa158015612d95573d5f5f3e3d5ffd5b505050506040513d601f19601f82011682018060405250810190612db99190616994565b612dd857604051630ea7d7ed60e21b8152336004820152602401610c9c565b612de061373f565b61153d8161496c565b60055460408051630ccc574960e41b815290516001600160a01b03909216916391d1485491839163ccc57490916004808201926020929091908290030181865afa158015612e39573d5f5f3e3d5ffd5b505050506040513d601f19601f82011682018060405250810190612e5d91906169da565b336040518363ffffffff1660e01b8152600401612e7b92919061696e565b602060405180830381865afa158015612e96573d5f5f3e3d5ffd5b505050506040513d601f19601f82011682018060405250810190612eba9190616994565b612ed957604051630ea7d7ed60e21b8152336004820152602401610c9c565b612ee4610d61611b55565b50612eed61373f565b612ef782826145c6565b612f018282614d67565b61289482826148ce565b6005546040805163a89f38a360e01b815290515f926001600160a01b0316916391d1485491839163a89f38a39160048083019260209291908290030181865afa158015612f5a573d5f5f3e3d5ffd5b505050506040513d601f19601f82011682018060405250810190612f7e91906169da565b846040518363ffffffff1660e01b8152600401612f9c92919061696e565b602060405180830381865afa158015612fb7573d5f5f3e3d5ffd5b505050506040513d601f19601f82011682018060405250810190610b539190616994565b5f5f306001600160a01b03166301e1d1146040518163ffffffff1660e01b8152600401602060405180830381865afa158015613019573d5f5f3e3d5ffd5b505050506040513d601f19601f8201168201806040525081019061303d91906169da565b90505f6130aa846001600160a01b031663bdcdd8826040518163ffffffff1660e01b8152600401602060405180830381865afa15801561307f573d5f5f3e3d5ffd5b505050506040513d601f19601f820116820180604052508101906130a391906169da565b8390614dae565b90506112c081856001600160a01b031663dbd5edc76040518163ffffffff1660e01b8152600401602060405180830381865afa15801561129c573d5f5f3e3d5ffd5b6060610ab3600e614dda565b5f613104610d61611b55565b50613110610ee46130ec565b61311861373f565b6131228483614de6565b600854604080516278744560e21b815290515f926001600160a01b0316916301e1d1149160048083019260209291908290030181865afa158015613168573d5f5f3e3d5ffd5b505050506040513d601f19601f8201168201806040525081019061318c91906169da565b905061319785610b48565b6008549092506131b0906001600160a01b031683613f13565b6131bd3385858589613bb8565b336001600160a01b03167fe68a55afda2dca8343871fe0e5575a383291a40ae7d53e4dee12faf79cde144e8260085f015f9054906101000a90046001600160a01b03166001600160a01b03166301e1d1146040518163ffffffff1660e01b8152600401602060405180830381865afa15801561323b573d5f5f3e3d5ffd5b505050506040513d601f19601f8201168201806040525081019061325f91906169da565b6040805192835260208301919091520160405180910390a250610d46613c78565b3080158061330357506005546001600160a01b03166391d148546132a45f8461198b565b336040518363ffffffff1660e01b81526004016132c292919061696e565b602060405180830381865afa1580156132dd573d5f5f3e3d5ffd5b505050506040513d601f19601f820116820180604052508101906133019190616994565b155b15613323576040516363b52ed760e11b8152336004820152602401610c9c565b8261332f600e8261388e565b61335757604051632767039f60e01b81526001600160a01b0382166004820152602401610c9c565b61335f61373f565b604051634fc7fac360e01b8152600481018490526001600160a01b03851690634fc7fac390602401610e99565b5f7f00000000000000000000000000000000000000000000000000000000000000006001600160a01b031663f7e533ec6040518163ffffffff1660e01b8152600401602060405180830381865afa158015610bd9573d5f5f3e3d5ffd5b5f6133f261373f565b816040516134009190616ace565b604051908190038120906001600160a01b038516907f38383a2eb7bd8ee888f12fb942a2e22e84f2d7240f1f8541ad4bbddace6e3442905f90a36112c084846119bd565b6005546001600160a01b03166391d1485461346060013061198b565b336040518363ffffffff1660e01b815260040161347e92919061696e565b602060405180830381865afa158015613499573d5f5f3e3d5ffd5b505050506040513d601f19601f820116820180604052508101906134bd9190616994565b1580156135985750600554604080516366e943f160e01b815290516001600160a01b03909216916391d148549183916366e943f1916004808201926020929091908290030181865afa158015613515573d5f5f3e3d5ffd5b505050506040513d601f19601f8201168201806040525081019061353991906169da565b336040518363ffffffff1660e01b815260040161355792919061696e565b602060405180830381865afa158015613572573d5f5f3e3d5ffd5b505050506040513d601f19601f820116820180604052508101906135969190616994565b155b156135b8576040516329068e8160e21b8152336004820152602401610c9c565b6013546014546135c890426169f1565b10156135fc57601454601354604051630924dbf160e21b815260048101929092526024820152426044820152606401610c9c565b42601455612ee4610d61611b55565b5f610b53600e83614e7f565b5f8061367d61367960ff1961364d60017fa44c7cc604645fc9d906e0a5aeb821ecf76e473a1a4d03393ebd52161430e41b6169f1565b60405160200161365f91815260200190565b604051602081830303815290604052805190602001201690565b5c90565b905080156136b95761212561367960ff1961364d60017fa9898051640582db44f19359a5df62a03dbff55353a9f388ea332d75dfa80fa16169f1565b6112c06136c68585614e8a565b614f6a565b5f610d466136d7610a96565b6136e2906001616ae4565b6136ed5f600a616bda565b6002546136fa9190616ae4565b85919085615009565b6128948383836001615054565b5f610d4661371f82600a616bda565b60025461372c9190616ae4565b613734610a96565b6136fa906001616ae4565b600554600160a01b900460ff16156111fe5760405163d93c066560e01b815260040160405180910390fd5b5f33613777858285615118565b61378285858561517a565b506001949350505050565b5f6137a160115461379d5f6151d7565b1490565b156137b0575050426012555f90565b5f601254426137bf91906169f1565b9050805f036137d057505f92915050565b5f306001600160a01b03166318160ddd6040518163ffffffff1660e01b8152600401602060405180830381865afa15801561380d573d5f5f3e3d5ffd5b505050506040513d601f19601f8201168201806040525081019061383191906169da565b905061383d8183613f7c565b925082156138875761384f84846151ee565b426012556040518381527f698f29fe990d4e7770f7e74cd309da261dd03ca828f7bb3c2ea8b8c9adcc0ecd9060200160405180910390a15b5050919050565b6001600160a01b0381165f9081526001830160205260408120541515610d46565b5f6138ba8484613ff6565b90505f81516001600160401b038111156138d6576138d66167b6565b60405190808252806020026020018201604052801561391a57816020015b604080518082019091525f80825260208201528152602001906001900390816138f45790505b5090505f80805b84518110156139f9576001855161393891906169f1565b81148061397c5750855f86838151811061395457613954616aba565b602090810291909101810151516001600160a01b031682528101919091526040015f205460ff165b156139f15784818151811061399357613993616aba565b60200260200101518483815181106139ad576139ad616aba565b60200260200101819052508481815181106139ca576139ca616aba565b602002602001015160200151836139e19190616ae4565b9250816139ed81616be8565b9250505b600101613921565b50808352613a06826151fc565b613a0f83615266565b613a188361534b565b50505050505050565b336001600160a01b03821614801590613aa55750604051636eb1769f60e11b81526001600160a01b03821660048201523360248201528290309063dd62ed3e90604401602060405180830381865afa158015613a7f573d5f5f3e3d5ffd5b505050506040513d601f19601f82011682018060405250810190613aa391906169da565b105b15613ad957335b604051630c849df760e41b81526001600160a01b0391821660048201529082166024820152604401610c9c565b5f613ae382612ad7565b90508083111561289457818382604051632e52afbb60e21b8152600401610c9c93929190616c00565b5f613b1561545d565b90505f5b8151811015612894575f828281518110613b3557613b35616aba565b6020026020010151602001519050838110613b7657613b70838381518110613b5f57613b5f616aba565b60200260200101515f015185613f13565b50505050565b8015613baf57613ba2838381518110613b9157613b91616aba565b60200260200101515f015182613f13565b613bac81856169f1565b93505b50600101613b19565b826001600160a01b0316856001600160a01b031614613bdc57613bdc838683615118565b613be6838261561e565b613c117f00000000000000000000000000000000000000000000000000000000000000008584615652565b826001600160a01b0316846001600160a01b0316866001600160a01b03167ffbde797d201c681b91056529119e0b02407c7bb96a4a2c75c01fc9667232c8db8585604051613c69929190918252602082015260400190565b60405180910390a45050505050565b613cb35f613cad60ff1961364d60017fa44c7cc604645fc9d906e0a5aeb821ecf76e473a1a4d03393ebd52161430e41b6169f1565b906156b1565b613ce85f613cad60ff1961364d60017f98932279f8646d348f86cf154406d1fab3c6a0c52686d604c7d4a6a1400381096169f1565b613d1d5f613cad60ff1961364d60017f410d83ac3c7a0c2a0669e43e3a5ca6694ee49455f748efa9954a95c3752e9fc96169f1565b6111fe5f613cad60ff1961364d60017f2e756c3932ba771b80f1bae53d1177d9f7a4ced0ce66d74053b09f874cec6fff6169f1565b5f828218828410028218610d46565b600554600160a01b900460ff166111fe57604051638dfc202b60e01b815260040160405180910390fd5b600654600754613d9b9190616ae4565b421015613dbb576040516304a59e3b60e01b815260040160405180910390fd5b6111fe6156b8565b613dcc8261570d565b613de9576040516319ecf1a560e31b815260040160405180910390fd5b613df28161378d565b5060118290556040518281527f186e864438b783eec69fd7ce4871c28accfc0b45558ea08c48540f76094fecde90602001610cde565b336001600160a01b03821614801590613eac5750604051636eb1769f60e11b81526001600160a01b03821660048201523360248201528290309063dd62ed3e90604401602060405180830381865afa158015613e86573d5f5f3e3d5ffd5b505050506040513d601f19601f82011682018060405250810190613eaa91906169da565b105b15613ee057335b604051638b27f8ed60e01b81526001600160a01b0391821660048201529082166024820152604401610c9c565b5f613eea82610f82565b905080841115613b7057818482604051633fa733bb60e21b8152600401610c9c93929190616c00565b604080516020810182525f81529051630278811f60e31b81526001600160a01b038416916313c408f891613f4b918591600401616c21565b5f604051808303815f87803b158015613f62575f5ffd5b505af1158015613f74573d5f5f3e3d5ffd5b505050505050565b5f5f6301e13380601154613f909190616c4d565b90505f613fd3613fb6613fa56012600a616c60565b613fb0906064616c6b565b8461572e565b85613fc36012600a616c60565b613fce906064616c6b565b615739565b90505f613fe08683614dae565b9050613fec86826169f1565b9695505050505050565b6060825160016140069190616ae4565b6001600160401b0381111561401d5761401d6167b6565b60405190808252806020026020018201604052801561406157816020015b604080518082019091525f808252602082015281526020019060019003908161403b5790505b5090505f805b8451811015614155575f85828151811061408357614083616aba565b60200260200101516001600160a01b03166301e1d1146040518163ffffffff1660e01b8152600401602060405180830381865afa1580156140c6573d5f5f3e3d5ffd5b505050506040513d601f19601f820116820180604052508101906140ea91906169da565b9050604051806040016040528087848151811061410957614109616aba565b60200260200101516001600160a01b031681526020018281525084838151811061413557614135616aba565b602090810291909101015261414a8184616ae4565b925050600101614067565b505f836001600160a01b03166301e1d1146040518163ffffffff1660e01b8152600401602060405180830381865afa158015614193573d5f5f3e3d5ffd5b505050506040513d601f19601f820116820180604052508101906141b791906169da565b90506040518060400160405280856001600160a01b0316815260200182815250838651815181106141ea576141ea616aba565b60209081029190910101526141ff8183616ae4565b915061420a83615266565b61421382615747565b61421c836157b1565b505092915050565b5f61422e82611200565b90508083111561289457818382604051633c8097d960e11b8152600401610c9c93929190616c00565b6142837f0000000000000000000000000000000000000000000000000000000000000000853085615895565b61428d83826158ce565b826001600160a01b0316846001600160a01b03167fdcbc1c05240f31ff3ad067ef1ee35ce4997762752e3a095284754544f4c709d784846040516142db929190918252602082015260400190565b60405180910390a350505050565b7f000000000000000000000000000000000000000000000000000000000000000060405163095ea7b360e01b81526001600160a01b03848116600483015260248201849052919091169063095ea7b3906044016020604051808303815f875af1158015614358573d5f5f3e3d5ffd5b505050506040513d601f19601f8201168201806040525081019061437c9190616994565b50604080516020810182525f81529051632db6d39960e01b81526001600160a01b03841691632db6d39991613f4b918591600401616c21565b6143bd615902565b42600755565b5f6143cd8261249c565b9050808311156128945781838260405163284ff66760e01b8152600401610c9c93929190616c00565b6143ff816128a5565b61442757604051632767039f60e01b81526001600160a01b0382166004820152602401610c9c565b61443081615945565b61443b600e82615a5d565b50806001600160a01b031663ebf311316040518163ffffffff1660e01b81526004015f604051808303815f87803b158015614474575f5ffd5b505af1158015614486573d5f5f3e3d5ffd5b505060055460405163d55dd62b60e01b81526001600160a01b03909116925063d55dd62b91506144bd906002908590600401616c82565b5f604051808303815f87803b1580156144d4575f5ffd5b505af11580156144e6573d5f5f3e3d5ffd5b50506040516001600160a01b03841692507f66d72a91b52f63fb063c4f672763d7ef15ce4d7c9a268a7f9b5133e41c1709a591505f90a250565b336001600160a01b038216148015906145a45750604051636eb1769f60e11b81526001600160a01b03821660048201523360248201528290309063dd62ed3e90604401602060405180830381865afa15801561457e573d5f5f3e3d5ffd5b505050506040513d601f19601f820116820180604052508101906145a291906169da565b105b156145af5733613eb3565b5f613eea82612899565b5f33610b6681858561517a565b600b548111156145ec5760405163899a5d8160e01b815260048101829052602401610c9c565b5f81900361460d576040516304dcdcd560e31b815260040160405180910390fd5b5f5b81811015612894576146ae83838381811061462c5761462c616aba565b905060200281019061463e9190616cba565b61464c906020810190616652565b84848481811061465e5761465e616aba565b90506020028101906146709190616cba565b614681906040810190602001616652565b85858581811061469357614693616aba565b90506020028101906146a59190616cba565b60400135615a71565b60010161460f565b6008545f906001600160a01b0316838383816146d4576146d4616aba565b90506020028101906146e69190616cba565b6146f7906040810190602001616652565b6001600160a01b03161490505f60085f015f9054906101000a90046001600160a01b03166001600160a01b03166301e1d1146040518163ffffffff1660e01b8152600401602060405180830381865afa158015614756573d5f5f3e3d5ffd5b505050506040513d601f19601f8201168201806040525081019061477a91906169da565b90505f805b848110156148b7576147bd8487878481811061479d5761479d616aba565b90506020028101906147af9190616cba565b6147b890616cd8565b615d00565b5f8686838181106147d0576147d0616aba565b90506020028101906147e29190616cba565b6040013590505f1981036148a2578461480e5760405163055bb2a160e41b815260040160405180910390fd5b86868381811061482057614820616aba565b90506020028101906148329190616cba565b614840906020810190616652565b6001600160a01b03166301e1d1146040518163ffffffff1660e01b8152600401602060405180830381865afa15801561487b573d5f5f3e3d5ffd5b505050506040513d601f19601f8201168201806040525081019061489f91906169da565b90505b6148ac8184616ae4565b92505060010161477f565b50826148c7576148c78282615d62565b5050505050565b5f805b828110156149225761490e8484838181106148ee576148ee616aba565b90506020028101906149009190616cba565b61490990616cd8565b615db9565b6149189083616ae4565b91506001016148d1565b50336001600160a01b03167f507d790d4c0157977bb25bd8941f5f91c3118eab68b257c1d1c0825cb0051fd9848460405161495e929190616ddd565b60405180910390a292915050565b6001600160a01b0381166149935760405163210e96cb60e01b815260040160405180910390fd5b61499c816128a5565b156149c557604051637eadea0960e11b81526001600160a01b0382166004820152602401610c9c565b806001600160a01b031663303dbaf36040518163ffffffff1660e01b8152600401602060405180830381865afa158015614a01573d5f5f3e3d5ffd5b505050506040513d601f19601f82011682018060405250810190614a259190616994565b6001600160a01b0382165f81815260106020526040808220805460ff191694159490941790935582516330fe427560e21b81529251909263c3f909d491600480830192869291908290030181865afa158015614a83573d5f5f3e3d5ffd5b505050506040513d5f823e601f3d908101601f19168201604052614aaa9190810190616f1a565b516001600160a01b031614614ad257604051631089e45f60e21b815260040160405180910390fd5b806001600160a01b0316638a8b99766040518163ffffffff1660e01b81526004015f604051808303815f87803b158015614b0a575f5ffd5b505af1158015614b1c573d5f5f3e3d5ffd5b50505050614b3481600e615efc90919063ffffffff16565b506040516001600160a01b038216907fcb4a29d359e86f179111dcba8714def1a859612f729f2d224d13efeac51b36bc905f90a250565b5f80614ba161367960ff1961364d60017f98932279f8646d348f86cf154406d1fab3c6a0c52686d604c7d4a6a1400381096169f1565b90508015614be557614bdd61367960ff1961364d60017f3d5fcbe10cf86b117683d0d4967b64a0c0fa4bdda7d07499d3c9dc5e388b69416169f1565b915050610d46565b5f614bf08686614e8a565b90505f5b8151811015614ce15760018251614c0b91906169f1565b811480614c4e5750845f838381518110614c2757614c27616aba565b6020908102919091018101516001600160a01b031682528101919091526040015f205460ff165b15614cd957818181518110614c6557614c65616aba565b60200260200101516001600160a01b03166301e1d1146040518163ffffffff1660e01b8152600401602060405180830381865afa158015614ca8573d5f5f3e3d5ffd5b505050506040513d601f19601f82011682018060405250810190614ccc91906169da565b614cd69085616ae4565b93505b600101614bf4565b5050509392505050565b60135460408051918252602082018390527f5953b565c074c2cce1866b4e69c9efc4908556bb6fca70f735907c94d9405515910160405180910390a1601355565b60068190556040518181527f3cf175d91d8c5823f3729423b5a64130e40d4b09e88c6dc1925a260f26818c259060200160405180910390a150565b5f5b8181101561289457614da6838383818110614d8657614d86616aba565b9050602002810190614d989190616cba565b614da190616cd8565b615f10565b600101614d69565b5f614dbb6012600a616c60565b614dc6906064616c6b565b614dd08385616c6b565b610d469190616c4d565b60605f610d4683615f5e565b336001600160a01b03821614801590614e6a5750604051636eb1769f60e11b81526001600160a01b03821660048201523360248201528290309063dd62ed3e90604401602060405180830381865afa158015614e44573d5f5f3e3d5ffd5b505050506040513d601f19601f82011682018060405250810190614e6891906169da565b105b15614e755733613aac565b5f613ae382611d8e565b5f610d468383615fb7565b60605f83516001614e9b9190616ae4565b6001600160401b03811115614eb257614eb26167b6565b604051908082528060200260200182016040528015614edb578160200160208202803683370190505b5090505f5b8451811015614f3557848181518110614efb57614efb616aba565b6020026020010151828281518110614f1557614f15616aba565b6001600160a01b0390921660209283029190910190910152600101614ee0565b508281855181518110614f4a57614f4a616aba565b6001600160a01b0390921660209283029190910190910152905092915050565b5f805b825181101561500357828181518110614f8857614f88616aba565b60200260200101516001600160a01b03166301e1d1146040518163ffffffff1660e01b8152600401602060405180830381865afa158015614fcb573d5f5f3e3d5ffd5b505050506040513d601f19601f82011682018060405250810190614fef91906169da565b614ff99083616ae4565b9150600101614f6d565b50919050565b5f61503661501683615fdd565b801561503157505f848061502c5761502c616c39565b868809115b151590565b615041868686616009565b61504b9190616ae4565b95945050505050565b6001600160a01b03841661507d5760405163e602df0560e01b81525f6004820152602401610c9c565b6001600160a01b0383166150a657604051634a1406b160e11b81525f6004820152602401610c9c565b6001600160a01b038085165f9081526001602090815260408083209387168352929052208290558015613b7057826001600160a01b0316846001600160a01b03167f8c5be1e5ebec7d5bd14f71427d1e84f3dd0314c0f7b2291e5b200ac8c7c3b925846040516142db91815260200190565b6001600160a01b038381165f908152600160209081526040808320938616835292905220545f198114613b70578181101561516c57828183604051637dc7a0d960e11b8152600401610c9c93929190616c00565b613b7084848484035f615054565b6001600160a01b0383166151a357604051634b637e8f60e11b81525f6004820152602401610c9c565b6001600160a01b0382166151cc5760405163ec442f0560e01b81525f6004820152602401610c9c565b6128948383836160bf565b5f6151e46012600a616c60565b610b539083616c6b565b6151f882826158ce565b5050565b61523181613cad60ff1961364d60017f3d5fcbe10cf86b117683d0d4967b64a0c0fa4bdda7d07499d3c9dc5e388b69416169f1565b61153d6001613cad60ff1961364d837f98932279f8646d348f86cf154406d1fab3c6a0c52686d604c7d4a6a1400381096169f1565b5f5b81518110156151f8575f61527d826001616ae4565b90505b82518110156153425782818151811061529b5761529b616aba565b6020026020010151602001518383815181106152b9576152b9616aba565b602002602001015160200151111561533a578281815181106152dd576152dd616aba565b60200260200101518383815181106152f7576152f7616aba565b602002602001015184848151811061531157615311616aba565b6020026020010185848151811061532a5761532a616aba565b6020026020010182905282905250505b600101615280565b50600101615268565b61153d8160ff1961537d60017f8f2b8f2fcb6f2e256bfd8c09fcca564574482705250cb5c8dbe56c4f4fce37c96169f1565b60405160200161538f91815260200190565b60408051601f1981840301815291905280516020909101201660ff196153d660017f05abb041f8dc8945baa4f2792e2109e9d9e22dea3aa665ccf2f030209c7415ae6169f1565b6040516020016153e891815260200190565b60408051601f1981840301815291905280516020909101201660ff1961542f60017f410d83ac3c7a0c2a0669e43e3a5ca6694ee49455f748efa9954a95c3752e9fc96169f1565b60405160200161544191815260200190565b60405160208183030381529060405280519060200120166161d2565b60605f61549461367960ff1961364d60017f410d83ac3c7a0c2a0669e43e3a5ca6694ee49455f748efa9954a95c3752e9fc96169f1565b9050806001600160401b038111156154ae576154ae6167b6565b6040519080825280602002602001820160405280156154f257816020015b604080518082019091525f80825260208201528152602001906001900390816154cc5790505b5091505f5b81811015615619575f61556961367961556660ff1961553760017f05abb041f8dc8945baa4f2792e2109e9d9e22dea3aa665ccf2f030209c7415ae6169f1565b60405160200161554991815260200190565b60405160208183030381529060405280519060200120168561624d565b90565b90505f6155d261367961556660ff196155a360017f8f2b8f2fcb6f2e256bfd8c09fcca564574482705250cb5c8dbe56c4f4fce37c96169f1565b6040516020016155b591815260200190565b60405160208183030381529060405280519060200120168661624d565b90506040518060400160405280836001600160a01b031681526020018281525085848151811061560457615604616aba565b602090810291909101015250506001016154f7565b505090565b6001600160a01b03821661564757604051634b637e8f60e11b81525f6004820152602401610c9c565b6151f8825f836160bf565b6040516001600160a01b0383811660248301526044820183905261289491859182169063a9059cbb906064015b604051602081830303815290604052915060e01b6020820180516001600160e01b038381831617835250505050616268565b80825d5050565b6156c0613d61565b6005805460ff60a01b191690557f5db9ee0a495bf2e6ff9c91a7834c1ba4fdd244a5e8aa4e537bd38aeae4b073aa335b6040516001600160a01b03909116815260200160405180910390a1565b5f610b538261571e6012600a616c60565b615729906064616c6b565b101590565b5f610d468284616ae4565b5f8382613fec8286836162d4565b61577c81613cad60ff1961364d60017fa9898051640582db44f19359a5df62a03dbff55353a9f388ea332d75dfa80fa16169f1565b61153d6001613cad60ff1961364d837fa44c7cc604645fc9d906e0a5aeb821ecf76e473a1a4d03393ebd52161430e41b6169f1565b61153d8160ff196157e360017f5720a3c83eb8242bbe1a4159c3b45ed663cd9e207a02bdea64844c6c583da9de6169f1565b6040516020016157f591815260200190565b60408051601f1981840301815291905280516020909101201660ff1961583c60017fb4b00da68d43fac77a22bb187c63cb88989e294cfebeb79b3789ae1629639d996169f1565b60405160200161584e91815260200190565b60408051601f1981840301815291905280516020909101201660ff1961542f60017f2e756c3932ba771b80f1bae53d1177d9f7a4ced0ce66d74053b09f874cec6fff6169f1565b6040516001600160a01b038481166024830152838116604483015260648201839052613b709186918216906323b872dd9060840161567f565b6001600160a01b0382166158f75760405163ec442f0560e01b81525f6004820152602401610c9c565b6151f85f83836160bf565b61590a61373f565b6005805460ff60a01b1916600160a01b1790557f62e78cea01bee320cd4e420270b5ea74000d11b0c9f74754ebdbfc544b05a2586156f03390565b5f8190505f816001600160a01b031663dbd5edc76040518163ffffffff1660e01b8152600401602060405180830381865afa158015615986573d5f5f3e3d5ffd5b505050506040513d601f19601f820116820180604052508101906159aa91906169da565b11156159d457604051632a4d8fbb60e01b81526001600160a01b0383166004820152602401610c9c565b806001600160a01b03166301e1d1146040518163ffffffff1660e01b8152600401602060405180830381865afa158015615a10573d5f5f3e3d5ffd5b505050506040513d601f19601f82011682018060405250810190615a3491906169da565b156151f85760405163ca4a18b360e01b81526001600160a01b0383166004820152602401610c9c565b5f610d46836001600160a01b03841661639a565b805f03615a9c57604051630a16952b60e21b81526001600160a01b0383166004820152602401610c9c565b6001600160a01b038216615ace57604051632767039f60e01b81526001600160a01b0383166004820152602401610c9c565b6001600160a01b038316615b0057604051632767039f60e01b81526001600160a01b0384166004820152602401610c9c565b615b09826128a5565b615b315760405163c80e655f60e01b81526001600160a01b0383166004820152602401610c9c565b615b3a836128a5565b615b625760405163c80e655f60e01b81526001600160a01b0384166004820152602401610c9c565b5f836001600160a01b0316633194549e6040518163ffffffff1660e01b8152600401602060405180830381865afa158015615b9f573d5f5f3e3d5ffd5b505050506040513d601f19601f82011682018060405250810190615bc391906169da565b905080821115615bec57838282604051637d7bf8e160e01b8152600401610c9c93929190616c00565b5f836001600160a01b031663ad5a356f6040518163ffffffff1660e01b8152600401602060405180830381865afa158015615c29573d5f5f3e3d5ffd5b505050506040513d601f19601f82011682018060405250810190615c4d91906169da565b905080831115615c765783838260405163016b606760e21b8152600401610c9c93929190616c00565b836001600160a01b031663dbd5edc76040518163ffffffff1660e01b8152600401602060405180830381865afa158015615cb2573d5f5f3e3d5ffd5b505050506040513d601f19601f82011682018060405250810190615cd691906169da565b5f036148c757604051630b9cb3f960e11b81526001600160a01b0385166004820152602401610c9c565b818015615d20575060085460208201516001600160a01b03908116911614155b80615d44575081158015615d44575060085481516001600160a01b03908116911614155b156151f857604051633abef25360e21b815260040160405180910390fd5b6009548211615d8757604051600162efa20760e01b0319815260040160405180910390fd5b6009545f90615d9690846169f1565b90508082111561289457604051633b5391f960e01b815260040160405180910390fd5b6020810151815160408301515f929190600101615e3757806001600160a01b03166301e1d1146040518163ffffffff1660e01b8152600401602060405180830381865afa158015615e0c573d5f5f3e3d5ffd5b505050506040513d601f19601f82011682018060405250810190615e3091906169da565b9250615e3f565b836040015192505b5f615e4983612fdb565b90505f836001600160a01b03166301e1d1146040518163ffffffff1660e01b8152600401602060405180830381865afa158015615e88573d5f5f3e3d5ffd5b505050506040513d601f19601f82011682018060405250810190615eac91906169da565b905081615eb98683616ae4565b1115615ede578385836040516316e05b4760e21b8152600401610c9c93929190616c00565b615ef383858789606001518a6080015161647d565b50505050919050565b5f610d46836001600160a01b0384166164e3565b60085460208201516001600160a01b0390811691161480615f40575060085481516001600160a01b039081169116145b1561153d57604051630394d1d160e21b815260040160405180910390fd5b6060815f01805480602002602001604051908101604052809291908181526020018280548015615fab57602002820191905f5260205f20905b815481526020019060010190808311615f97575b50505050509050919050565b5f825f018281548110615fcc57615fcc616aba565b905f5260205f200154905092915050565b5f6002826003811115615ff257615ff2616a04565b615ffc9190617020565b60ff166001149050919050565b5f838302815f1985870982811083820303915050805f0361603d5783828161603357616033616c39565b0492505050610d46565b80841161605457616054600385150260111861652f565b5f848688095f868103871696879004966002600389028118808a02820302808a02820302808a02820302808a02820302808a02820302808a02909103029181900381900460010186841190950394909402919094039290920491909117919091029150509392505050565b6001600160a01b0383166160e9578060025f8282546160de9190616ae4565b909155506161469050565b6001600160a01b0383165f90815260208190526040902054818110156161285783818360405163391434e360e21b8152600401610c9c93929190616c00565b6001600160a01b0384165f9081526020819052604090209082900390555b6001600160a01b03821661616257600280548290039055616180565b6001600160a01b0382165f9081526020819052604090208054820190555b816001600160a01b0316836001600160a01b03167fddf252ad1be2c89b69c2b068fc378daa952ba7f163c4a11628f55a4df523b3ef836040516161c591815260200190565b60405180910390a3505050565b5f5b84518110156162405761620b8582815181106161f2576161f2616aba565b602002602001015160200151613cad615566878561624d565b61623885828151811061622057616220616aba565b60200260200101515f0151613cad615566868561624d565b6001016161d4565b50613b708451613cad8390565b60408051602081018490529081018290525f9060600161199f565b5f5f60205f8451602086015f885af180616287576040513d5f823e3d81fd5b50505f513d9150811561629e5780600114156162ab565b6001600160a01b0384163b155b15613b7057604051635274afe760e01b81526001600160a01b0385166004820152602401610c9c565b5f8315806162e0575082155b156162f85782156162f1575f610d26565b5080610d46565b616303600284617041565b1561630e5783616310565b815b90505f61631e600284616c4d565b90506002840493505b831561639257848502858682041461633d575f5ffd5b8181018181101561634c575f5ffd5b8490049550506001841615616387578482028286820414158615151615616371575f5ffd5b81810181811015616380575f5ffd5b8490049250505b600284049350616327565b509392505050565b5f8181526001830160205260408120548015616474575f6163bc6001836169f1565b85549091505f906163cf906001906169f1565b905080821461642e575f865f0182815481106163ed576163ed616aba565b905f5260205f200154905080875f01848154811061640d5761640d616aba565b5f918252602080832090910192909255918252600188019052604090208390555b855486908061643f5761643f617054565b600190038181905f5260205f20015f90559055856001015f8681526020019081526020015f205f905560019350505050610b53565b5f915050610b53565b60405163c38a6f0b60e01b81526001600160a01b0386169063c38a6f0b906164af908690889087908790600401617068565b5f604051808303815f87803b1580156164c6575f5ffd5b505af11580156164d8573d5f5f3e3d5ffd5b505050505050505050565b5f81815260018301602052604081205461652857508154600181810184555f848152602080822090930184905584548482528286019093526040902091909155610b53565b505f610b53565b634e487b715f52806020526024601cfd5b5f81518084528060208401602086015e5f602082860101526020601f19601f83011685010191505092915050565b602081525f610d466020830184616540565b5f60208284031215616590575f5ffd5b5035919050565b6001600160a01b038116811461153d575f5ffd5b5f5f604083850312156165bc575f5ffd5b82356165c781616597565b946020939093013593505050565b5f5f5f606084860312156165e7575f5ffd5b83356165f281616597565b9250602084013561660281616597565b929592945050506040919091013590565b5f5f5f60608486031215616625575f5ffd5b83359250602084013561663781616597565b9150604084013561664781616597565b809150509250925092565b5f60208284031215616662575f5ffd5b8135610d4681616597565b5f5f6040838503121561667e575f5ffd5b82356003811061668c575f5ffd5b9150602083013561669c81616597565b809150509250929050565b5f5f604083850312156166b8575f5ffd5b82359150602083013561669c81616597565b5f5f83601f8401126166da575f5ffd5b5081356001600160401b038111156166f0575f5ffd5b6020830191508360208260051b850101111561670a575f5ffd5b9250929050565b5f5f60208385031215616722575f5ffd5b82356001600160401b03811115616737575f5ffd5b616743858286016166ca565b90969095509350505050565b5f5f60408385031215616760575f5ffd5b823561668c81616597565b602080825282518282018190525f918401906040840190835b818110156167ab5783516001600160a01b0316835260209384019390920191600101616784565b509095945050505050565b634e487b7160e01b5f52604160045260245ffd5b60405160a081016001600160401b03811182821017156167ec576167ec6167b6565b60405290565b60405161014081016001600160401b03811182821017156167ec576167ec6167b6565b604051601f8201601f191681016001600160401b038111828210171561683d5761683d6167b6565b604052919050565b5f6001600160401b0382111561685d5761685d6167b6565b50601f01601f191660200190565b5f82601f83011261687a575f5ffd5b813561688d61688882616845565b616815565b8181528460208386010111156168a1575f5ffd5b816020850160208301375f918101602001919091529392505050565b5f5f5f606084860312156168cf575f5ffd5b8335925060208401356168e181616597565b915060408401356001600160401b038111156168fb575f5ffd5b6169078682870161686b565b9150509250925092565b600181811c9082168061692557607f821691505b60208210810361500357634e487b7160e01b5f52602260045260245ffd5b805161694e81616597565b919050565b5f60208284031215616963575f5ffd5b8151610d4681616597565b9182526001600160a01b0316602082015260400190565b8051801515811461694e575f5ffd5b5f602082840312156169a4575f5ffd5b610d4682616985565b634e487b7160e01b5f52601160045260245ffd5b60ff8181168382160190811115610b5357610b536169ad565b5f602082840312156169ea575f5ffd5b5051919050565b81810381811115610b5357610b536169ad565b634e487b7160e01b5f52602160045260245ffd5b5f60038410616a3557634e487b7160e01b5f52602160045260245ffd5b5060f89290921b825260601b6bffffffffffffffffffffffff1916600182015260150190565b5f60a0828403128015616a6c575f5ffd5b50616a756167ca565b8251616a8081616597565b81526020838101519082015260408084015190820152606080840151908201526080830151616aae81616597565b60808201529392505050565b634e487b7160e01b5f52603260045260245ffd5b5f82518060208501845e5f920191825250919050565b80820180821115610b5357610b536169ad565b6001815b6001841115616b3257808504811115616b1657616b166169ad565b6001841615616b2457908102905b60019390931c928002616afb565b935093915050565b5f82616b4857506001610b53565b81616b5457505f610b53565b8160018114616b6a5760028114616b7457616b90565b6001915050610b53565b60ff841115616b8557616b856169ad565b50506001821b610b53565b5060208310610133831016604e8410600b8410161715616bb3575081810a610b53565b616bbf5f198484616af7565b805f1904821115616bd257616bd26169ad565b029392505050565b5f610d4660ff841683616b3a565b5f60018201616bf957616bf96169ad565b5060010190565b6001600160a01b039390931683526020830191909152604082015260600190565b828152604060208201525f6112c06040830184616540565b634e487b7160e01b5f52601260045260245ffd5b5f82616c5b57616c5b616c39565b500490565b5f610d468383616b3a565b8082028115828204841417610b5357610b536169ad565b6040810160038410616ca257634e487b7160e01b5f52602160045260245ffd5b9281526001600160a01b039190911660209091015290565b5f8235609e19833603018112616cce575f5ffd5b9190910192915050565b5f60a08236031215616ce8575f5ffd5b616cf06167ca565b8235616cfb81616597565b81526020830135616d0b81616597565b60208201526040838101359082015260608301356001600160401b03811115616d32575f5ffd5b616d3e3682860161686b565b60608301525060808301356001600160401b03811115616d5c575f5ffd5b616d683682860161686b565b60808301525092915050565b5f5f8335601e19843603018112616d89575f5ffd5b83016020810192503590506001600160401b03811115616da7575f5ffd5b80360382131561670a575f5ffd5b81835281816020850137505f828201602090810191909152601f909101601f19169091010190565b602080825281018290525f6040600584901b830181019083018583609e1936839003015b87821015616ec057868503603f190184528235818112616e1f575f5ffd5b89018035616e2c81616597565b6001600160a01b031686526020810135616e4581616597565b6001600160a01b0316602087015260408181013590870152616e6a6060820182616d74565b60a06060890152616e7f60a089018284616db5565b915050616e8f6080830183616d74565b92508782036080890152616ea4828483616db5565b9750505050602083019250602084019350600182019150616e01565b5092979650505050505050565b5f82601f830112616edc575f5ffd5b8151616eea61688882616845565b818152846020838601011115616efe575f5ffd5b8160208501602083015e5f918101602001919091529392505050565b5f60208284031215616f2a575f5ffd5b81516001600160401b03811115616f3f575f5ffd5b82016101408185031215616f51575f5ffd5b616f596167f2565b616f6282616943565b8152616f7060208301616943565b6020820152616f8160408301616943565b6040820152606082810151908201526080808301519082015260a0808301519082015260c08201516001600160401b03811115616fbc575f5ffd5b616fc886828501616ecd565b60c08301525060e08201516001600160401b03811115616fe6575f5ffd5b616ff286828501616ecd565b60e0830152506170056101008301616985565b61010082015261012091820151918101919091529392505050565b5f60ff83168061703257617032616c39565b8060ff84160691505092915050565b5f8261704f5761704f616c39565b500690565b634e487b7160e01b5f52603160045260245ffd5b8481526001600160a01b03841660208201526080604082018190525f9061709190830185616540565b82810360608401526170a38185616540565b97965050505050505056fea26469706673582212201bedc2431f77dca4e3df40748335adaa0ae7d6d453fe7c7f7a077abd57b3046064736f6c634300081c003360a060405234801561000f575f5ffd5b506040516129b63803806129b683398101604081905261002e9161049a565b6060820151604083015183918291806001600160a01b03811661006b576040516347bd7c1d60e01b81525f60048201526024015b60405180910390fd5b6040516301ffc9a760e01b81526338c7ccdb60e01b60048201526001600160a01b038216906301ffc9a790602401602060405180830381865afa1580156100b4573d5f5f3e3d5ffd5b505050506040513d601f19601f820116820180604052508101906100d891906105b1565b610100576040516347bd7c1d60e01b81526001600160a01b0382166004820152602401610062565b5f80546001600160a01b0319166001600160a01b039283161790558216905061013c5760405163f1634df960e01b815260040160405180910390fd5b6001600160a01b0390811660805260608201511661016d5760405163b53c493160e01b815260040160405180910390fd5b60808101516001600160a01b031661019b576040516001620a810f60e11b0319815260040160405180910390fd5b8051515f036101bd5760405163268c072960e01b815260040160405180910390fd5b5f6101c6610342565b6001600160a01b0316036101ed57604051633a4f9cdb60e21b815260040160405180910390fd5b6040805161014081019091525f815260208101610208610342565b6001600160a01b039081168252608080850151821660208085019190915260a08087015160408087019190915260c08089015160608089019190915260e0808b0151878a01528a51858a01528a860151838a0152610100808c01511515918a01919091526101208b01519801979097528751600180549188166001600160a01b031992831617815594890151600280549189169183169190911790559188015160038054919097169216919091179094559385015160045590840151600555918301516006558201516007906102de9082610655565b5060e082015160078201906102f39082610655565b5061010082015160088201805460ff1916911515919091179055610120909101516009909101555050600180546001600160a01b0319166001600160a01b039290921691909117905550610728565b5f6080516001600160a01b031663117d8ae06040518163ffffffff1660e01b8152600401602060405180830381865afa158015610381573d5f5f3e3d5ffd5b505050506040513d601f19601f820116820180604052508101906103a5919061070f565b905090565b634e487b7160e01b5f52604160045260245ffd5b60405161014081016001600160401b03811182821017156103e1576103e16103aa565b60405290565b5f82601f8301126103f6575f5ffd5b81516001600160401b0381111561040f5761040f6103aa565b604051601f8201601f19908116603f011681016001600160401b038111828210171561043d5761043d6103aa565b604052818152838201602001851015610454575f5ffd5b8160208501602083015e5f918101602001919091529392505050565b80516001600160a01b0381168114610486575f5ffd5b919050565b80518015158114610486575f5ffd5b5f5f604083850312156104ab575f5ffd5b82516001600160401b038111156104c0575f5ffd5b830161014081860312156104d2575f5ffd5b6104da6103be565b81516001600160401b038111156104ef575f5ffd5b6104fb878285016103e7565b82525060208201516001600160401b03811115610516575f5ffd5b610522878285016103e7565b60208301525061053460408301610470565b604082015261054560608301610470565b606082015261055660808301610470565b608082015260a0828101519082015260c0808301519082015260e08083015190820152610586610100830161048b565b610100820152610120918201519181019190915291506105a860208401610470565b90509250929050565b5f602082840312156105c1575f5ffd5b6105ca8261048b565b9392505050565b600181811c908216806105e557607f821691505b60208210810361060357634e487b7160e01b5f52602260045260245ffd5b50919050565b601f82111561065057805f5260205f20601f840160051c8101602085101561062e5750805b601f840160051c820191505b8181101561064d575f815560010161063a565b50505b505050565b81516001600160401b0381111561066e5761066e6103aa565b6106828161067c84546105d1565b84610609565b6020601f8211600181146106b4575f831561069d5750848201515b5f19600385901b1c1916600184901b17845561064d565b5f84815260208120601f198516915b828110156106e357878501518255602094850194600190920191016106c3565b508482101561070057868401515f19600387901b60f8161c191681555b50505050600190811b01905550565b5f6020828403121561071f575f5ffd5b6105ca82610470565b6080516122536107635f395f8181610389015281816104ee01528181610886015281816108e3015281816110a6015261175801526122535ff3fe608060405234801561000f575f5ffd5b50600436106101d1575f3560e01c806379502c55116100fe578063c38a6f0b1161009e578063dbd5edc71161006e578063dbd5edc7146103be578063ebc136d0146103c6578063ebf31131146103d9578063f7e533ec146103e1575f5ffd5b8063c38a6f0b1461035c578063c3f909d41461036f578063c9c667e314610384578063ce5c7f61146103ab575f5ffd5b80638a8b9976116100d95780638a8b99761461033157806392f5e83214610339578063ad5a356f1461034c578063bdcdd88214610354575f5ffd5b806379502c55146102f85780637aaceb9514610316578063866512031461031e575f5ffd5b8063372709361161017457806361d027b31161014457806361d027b3146102a957806361f5cd8b146102b157806369b3054b146102c4578063780469bb146102d7575f5ffd5b8063372709361461026c57806338d52e0f1461027d5780634fc7fac31461028e5780635b0f83f3146102a1575f5ffd5b806313c408f8116101af57806313c408f8146102255780632db6d3991461023a578063303dbaf31461024d5780633194549e14610264575f5ffd5b806301e1d114146101d557806306fdde03146101f0578063117d8ae014610205575b5f5ffd5b6101dd6103e9565b6040519081526020015b60405180910390f35b6101f8610458565b6040516101e79190611b4d565b61020d6104eb565b6040516001600160a01b0390911681526020016101e7565b610238610233366004611ba4565b61056c565b005b610238610248366004611ba4565b61062a565b60095460ff165b60405190151581526020016101e7565b6005546101dd565b6001546001600160a01b031661020d565b6003546001600160a01b031661020d565b61023861029c366004611bec565b610835565b61020d610883565b61020d6108e0565b6102386102bf366004611bec565b61093d565b6101dd6102d2366004611c1a565b610984565b6102ea6102e5366004611c99565b6109b6565b6040516101e7929190611d4d565b610300610f4c565b6040516101e79a99989796959493929190611dd6565b61020d6110a3565b61023861032c366004611bec565b611100565b610238611147565b610238610347366004611bec565b6111a4565b6006546101dd565b600a546101dd565b61023861036a366004611e4d565b6111eb565b610377611331565b6040516101e79190611ed8565b61020d7f000000000000000000000000000000000000000000000000000000000000000081565b6102ea6103b9366004611fa9565b61152a565b6004546101dd565b6102546103d4366004611fe8565b61161c565b610238611703565b61020d611755565b6003546040516370a0823160e01b81523060048201525f916001600160a01b0316906370a0823190602401602060405180830381865afa15801561042f573d5f5f3e3d5ffd5b505050506040513d601f19601f820116820180604052508101906104539190612003565b905090565b60606001600601805461046a9061201a565b80601f01602080910402602001604051908101604052809291908181526020018280546104969061201a565b80156104e15780601f106104b8576101008083540402835291602001916104e1565b820191905f5260205f20905b8154815290600101906020018083116104c457829003601f168201915b5050505050905090565b5f7f00000000000000000000000000000000000000000000000000000000000000006001600160a01b031663117d8ae06040518163ffffffff1660e01b8152600401602060405180830381865afa158015610548573d5f5f3e3d5ffd5b505050506040513d601f19601f820116820180604052508101906104539190612052565b6105746117b2565b6105a457335b604051631564c0e160e11b81526001600160a01b0390911660048201526024015b60405180910390fd5b6105ac61183b565b81816105b882826118aa565b336003546105d0906001600160a01b0316828861190c565b600354604080516001600160a01b03928316815260208101899052918316917fd5e872c5ecfb1bb8820b2e6a20e31b883682282da886621541f71e31ec11947e910160405180910390a250505061062561196b565b505050565b61063261183b565b306001600160a01b031663372709366040518163ffffffff1660e01b8152600401602060405180830381865afa15801561066e573d5f5f3e3d5ffd5b505050506040513d601f19601f820116820180604052508101906106929190612052565b61069a6117b2565b6107b9575f3390505f306001600160a01b031663117d8ae06040518163ffffffff1660e01b8152600401602060405180830381865afa1580156106df573d5f5f3e3d5ffd5b505050506040513d601f19601f820116820180604052508101906107039190612052565b6001600160a01b0316826001600160a01b0316149050806107b65760405163d25dd10160e01b81526001600160a01b0383811660048301525f919085169063d25dd10190602401602060405180830381865afa158015610765573d5f5f3e3d5ffd5b505050506040513d601f19601f82011682018060405250810190610789919061206d565b9050806107b457604051638f7a567d60e01b81526001600160a01b038416600482015260240161059b565b505b50505b82826107c582826118aa565b60035433906107df906001600160a01b031682308a611995565b600354604080516001600160a01b039283168152602081018a9052918316917fcbaa1442ac205415c9d69643e7b60ec73d1de35dbc807c21ec288c70ddc4207b910160405180910390a25050505061062561196b565b61083d6117b2565b610847573361057a565b600a8190556040518181527fd3c6d0ab315f2f1352f036cd9f401b49e38e1b90907e195225e8105f9a0b6f02906020015b60405180910390a150565b5f7f00000000000000000000000000000000000000000000000000000000000000006001600160a01b0316635b0f83f36040518163ffffffff1660e01b8152600401602060405180830381865afa158015610548573d5f5f3e3d5ffd5b5f7f00000000000000000000000000000000000000000000000000000000000000006001600160a01b03166361d027b36040518163ffffffff1660e01b8152600401602060405180830381865afa158015610548573d5f5f3e3d5ffd5b6109456117b2565b61094f573361057a565b60058190556040518181527ffbe2d5c01ea8ba5596d6c4e6c82c6d4a0a0ee1128689993a4a5ba0169273d69f90602001610878565b5f828260405160200161099892919061208c565b60405160208183030381529060405280519060200120905092915050565b606080306001600160a01b031663117d8ae06040518163ffffffff1660e01b8152600401602060405180830381865afa1580156109f5573d5f5f3e3d5ffd5b505050506040513d601f19601f82011682018060405250810190610a199190612052565b6001600160a01b0316336001600160a01b031614610a5857335b604051631184b31b60e21b81526001600160a01b03909116600482015260240161059b565b610a6061183b565b825167ffffffffffffffff811115610a7a57610a7a611c54565b604051908082528060200260200182016040528015610aa3578160200160208202803683370190505b509150825167ffffffffffffffff811115610ac057610ac0611c54565b604051908082528060200260200182016040528015610ae9578160200160208202803683370190505b506003546040516370a0823160e01b81523060048201529192505f916001600160a01b03909116906370a0823190602401602060405180830381865afa158015610b35573d5f5f3e3d5ffd5b505050506040513d601f19601f82011682018060405250810190610b599190612003565b1115610d1d57600154604080516330fe427560e21b815290515f926001600160a01b03169163c3f909d49160048083019260a09291908290030181865afa158015610ba6573d5f5f3e3d5ffd5b505050506040513d601f19601f82011682018060405250810190610bca91906120cf565b516003546040516370a0823160e01b8152306004820152919250610c4f9183916001600160a01b0316906370a0823190602401602060405180830381865afa158015610c18573d5f5f3e3d5ffd5b505050506040513d601f19601f82011682018060405250810190610c3c9190612003565b6003546001600160a01b031691906119d4565b6003546040516370a0823160e01b81523060048201526001600160a01b0383811692632db6d399929116906370a0823190602401602060405180830381865afa158015610c9e573d5f5f3e3d5ffd5b505050506040513d601f19601f82011682018060405250810190610cc29190612003565b60405180602001604052805f8152506040518363ffffffff1660e01b8152600401610cee92919061214c565b5f604051808303815f87803b158015610d05575f5ffd5b505af1158015610d17573d5f5f3e3d5ffd5b50505050505b5f5b8351811015610eeb575f848281518110610d3b57610d3b61216c565b60209081029190910101516040516370a0823160e01b81523060048201526001600160a01b03909116906370a0823190602401602060405180830381865afa158015610d89573d5f5f3e3d5ffd5b505050506040513d601f19601f82011682018060405250810190610dad9190612003565b90508015610ee257610e76610dc06104eb565b868481518110610dd257610dd261216c565b60209081029190910101516040516370a0823160e01b81523060048201526001600160a01b03909116906370a0823190602401602060405180830381865afa158015610e20573d5f5f3e3d5ffd5b505050506040513d601f19601f82011682018060405250810190610e449190612003565b878581518110610e5657610e5661216c565b60200260200101516001600160a01b031661190c9092919063ffffffff16565b848281518110610e8857610e8861216c565b6020026020010151848381518110610ea257610ea261216c565b60200260200101906001600160a01b031690816001600160a01b03168152505080838381518110610ed557610ed561216c565b6020026020010181815250505b50600101610d1f565b5080604051610efa9190612180565b604051809103902082604051610f1091906121b5565b604051908190038120907f46b8771620f6acf56cb03d3e835ea8024c7dcbcf05fcc3f6ade9e19d1a3e212b905f90a3610f4761196b565b915091565b60018054600254600354600454600554600654600780546001600160a01b03978816989688169790951695939492939192610f869061201a565b80601f0160208091040260200160405190810160405280929190818152602001828054610fb29061201a565b8015610ffd5780601f10610fd457610100808354040283529160200191610ffd565b820191905f5260205f20905b815481529060010190602001808311610fe057829003601f168201915b5050505050908060070180546110129061201a565b80601f016020809104026020016040519081016040528092919081815260200182805461103e9061201a565b80156110895780601f1061106057610100808354040283529160200191611089565b820191905f5260205f20905b81548152906001019060200180831161106c57829003601f168201915b505050506008830154600990930154919260ff169190508a565b5f7f00000000000000000000000000000000000000000000000000000000000000006001600160a01b0316637aaceb956040518163ffffffff1660e01b8152600401602060405180830381865afa158015610548573d5f5f3e3d5ffd5b6111086117b2565b611112573361057a565b60048190556040518181527f333b26cca69716ad4680ddb07663f5bfb4f06045671f336af9a83690a3ae00f990602001610878565b61114f6117b2565b611159573361057a565b600180546001600160a01b031916339081179091556040519081527f55489ce0259bd691120d8860861be1c401c7c16a3cd268d21045756af4ecc5ca906020015b60405180910390a1565b6111ac6117b2565b6111b6573361057a565b60068190556040518181527fb6ac66853c4e59c71e118d25ab494bb847c4e5eb0c8894898c5343e6f61afc1290602001610878565b6111f36117b2565b6111fd573361057a565b818161120982826118aa565b60035460405163095ea7b360e01b81526001600160a01b038981166004830152602482018b90529091169063095ea7b3906044016020604051808303815f875af1158015611259573d5f5f3e3d5ffd5b505050506040513d601f19601f8201168201806040525081019061127d919061206d565b50604051632db6d39960e01b81526001600160a01b03881690632db6d399906112ae908b908a908a906004016121e8565b5f604051808303815f87803b1580156112c5575f5ffd5b505af11580156112d7573d5f5f3e3d5ffd5b5050600354604080516001600160a01b039283168152602081018d9052918b1693503092507f9f784fc02a186f1c98b2d9f15fda084da27cdd291a3785d978f91911d880516b910160405180910390a35050505050505050565b61139c6040518061014001604052805f6001600160a01b031681526020015f6001600160a01b031681526020015f6001600160a01b031681526020015f81526020015f81526020015f815260200160608152602001606081526020015f151581526020015f81525090565b6040805161014081018252600180546001600160a01b0390811683526002548116602084015260035416928201929092526004546060820152600554608082015260065460a08201526007805491929160c0840191906113fb9061201a565b80601f01602080910402602001604051908101604052809291908181526020018280546114279061201a565b80156114725780601f1061144957610100808354040283529160200191611472565b820191905f5260205f20905b81548152906001019060200180831161145557829003601f168201915b5050505050815260200160078201805461148b9061201a565b80601f01602080910402602001604051908101604052809291908181526020018280546114b79061201a565b80156115025780601f106114d957610100808354040283529160200191611502565b820191905f5260205f20905b8154815290600101906020018083116114e557829003601f168201915b5050509183525050600882015460ff1615156020820152600990910154604090910152919050565b606080306001600160a01b031663117d8ae06040518163ffffffff1660e01b8152600401602060405180830381865afa158015611569573d5f5f3e3d5ffd5b505050506040513d601f19601f8201168201806040525081019061158d9190612052565b6001600160a01b0316336001600160a01b0316146115ab5733610a33565b6115b361183b565b505060405160609081906115c8908290612180565b6040518091039020826040516115de91906121b5565b604051908190038120907f3e3e7958121b3e39c7a49392d1aa9cdce870c2a059744f9e15cf66fff7865455905f90a361161561196b565b9250929050565b5f80546040805163a89f38a360e01b815290516001600160a01b03909216916391d1485491839163a89f38a3916004808201926020929091908290030181865afa15801561166c573d5f5f3e3d5ffd5b505050506040513d601f19601f820116820180604052508101906116909190612003565b6040516001600160e01b031960e084901b16815260048101919091526001600160a01b0385166024820152604401602060405180830381865afa1580156116d9573d5f5f3e3d5ffd5b505050506040513d601f19601f820116820180604052508101906116fd919061206d565b92915050565b61170b6117b2565b611715573361057a565b600180546001600160a01b03191690556040513381527f7cb941d7b1708e5b3bcd35ca960d6c6311188cec18886e5b67630552676b04879060200161119a565b5f7f00000000000000000000000000000000000000000000000000000000000000006001600160a01b031663f7e533ec6040518163ffffffff1660e01b8152600401602060405180830381865afa158015610548573d5f5f3e3d5ffd5b5f80546001600160a01b03166391d148546117ce600230610984565b336040516001600160e01b031960e085901b16815260048101929092526001600160a01b03166024820152604401602060405180830381865afa158015611817573d5f5f3e3d5ffd5b505050506040513d601f19601f82011682018060405250810190610453919061206d565b7f9b779b17422d0df92223018b32b4d1fa46e071723d6817e2486d003becc55f005c1561187b57604051633ee5aeb560e01b815260040160405180910390fd5b6118a860017f9b779b17422d0df92223018b32b4d1fa46e071723d6817e2486d003becc55f005b90611a63565b565b80158015906118bc575060095460ff16155b156118da57604051630cd0fdf960e01b815260040160405180910390fd5b801580156118ea575060095460ff165b156119085760405163332863a960e11b815260040160405180910390fd5b5050565b6040516001600160a01b0383811660248301526044820183905261062591859182169063a9059cbb906064015b604051602081830303815290604052915060e01b6020820180516001600160e01b038381831617835250505050611a6a565b6118a85f7f9b779b17422d0df92223018b32b4d1fa46e071723d6817e2486d003becc55f006118a2565b6040516001600160a01b0384811660248301528381166044830152606482018390526119ce9186918216906323b872dd90608401611939565b50505050565b604080516001600160a01b038416602482015260448082018490528251808303909101815260649091019091526020810180516001600160e01b031663095ea7b360e01b179052611a258482611ad6565b6119ce576040516001600160a01b0384811660248301525f6044830152611a5991869182169063095ea7b390606401611939565b6119ce8482611a6a565b80825d5050565b5f5f60205f8451602086015f885af180611a89576040513d5f823e3d81fd5b50505f513d91508115611aa0578060011415611aad565b6001600160a01b0384163b155b156119ce57604051635274afe760e01b81526001600160a01b038516600482015260240161059b565b5f5f5f5f60205f8651602088015f8a5af192503d91505f519050828015611b1557508115611b075780600114611b15565b5f866001600160a01b03163b115b9695505050505050565b5f81518084528060208401602086015e5f602082860101526020601f19601f83011685010191505092915050565b602081525f611b5f6020830184611b1f565b9392505050565b5f5f83601f840112611b76575f5ffd5b50813567ffffffffffffffff811115611b8d575f5ffd5b602083019150836020828501011115611615575f5ffd5b5f5f5f60408486031215611bb6575f5ffd5b83359250602084013567ffffffffffffffff811115611bd3575f5ffd5b611bdf86828701611b66565b9497909650939450505050565b5f60208284031215611bfc575f5ffd5b5035919050565b6001600160a01b0381168114611c17575f5ffd5b50565b5f5f60408385031215611c2b575f5ffd5b823560038110611c39575f5ffd5b91506020830135611c4981611c03565b809150509250929050565b634e487b7160e01b5f52604160045260245ffd5b604051601f8201601f1916810167ffffffffffffffff81118282101715611c9157611c91611c54565b604052919050565b5f60208284031215611ca9575f5ffd5b813567ffffffffffffffff811115611cbf575f5ffd5b8201601f81018413611ccf575f5ffd5b803567ffffffffffffffff811115611ce957611ce9611c54565b8060051b611cf960208201611c68565b91825260208184018101929081019087841115611d14575f5ffd5b6020850194505b83851015611d425784359250611d3083611c03565b82825260209485019490910190611d1b565b979650505050505050565b604080825283519082018190525f9060208501906060840190835b81811015611d8f5783516001600160a01b0316835260209384019390920191600101611d68565b5050838103602080860191909152855180835291810192508501905f5b81811015611dca578251845260209384019390920191600101611dac565b50919695505050505050565b6001600160a01b038b811682528a8116602083015289166040820152606081018890526080810187905260a0810186905261014060c082018190525f90611e1f90830187611b1f565b82810360e0840152611e318187611b1f565b9415156101008401525050610120015298975050505050505050565b5f5f5f5f5f5f60808789031215611e62575f5ffd5b863595506020870135611e7481611c03565b9450604087013567ffffffffffffffff811115611e8f575f5ffd5b611e9b89828a01611b66565b909550935050606087013567ffffffffffffffff811115611eba575f5ffd5b611ec689828a01611b66565b979a9699509497509295939492505050565b60208152611ef26020820183516001600160a01b03169052565b5f6020830151611f0d60408401826001600160a01b03169052565b5060408301516001600160a01b03811660608401525060608301516080830152608083015160a083015260a083015160c083015260c083015161014060e0840152611f5c610160840182611b1f565b905060e0840151601f1984830301610100850152611f7a8282611b1f565b915050610100840151611f9261012085018215159052565b506101208401516101408401528091505092915050565b5f5f60208385031215611fba575f5ffd5b823567ffffffffffffffff811115611fd0575f5ffd5b611fdc85828601611b66565b90969095509350505050565b5f60208284031215611ff8575f5ffd5b8135611b5f81611c03565b5f60208284031215612013575f5ffd5b5051919050565b600181811c9082168061202e57607f821691505b60208210810361204c57634e487b7160e01b5f52602260045260245ffd5b50919050565b5f60208284031215612062575f5ffd5b8151611b5f81611c03565b5f6020828403121561207d575f5ffd5b81518015158114611b5f575f5ffd5b5f600384106120a957634e487b7160e01b5f52602160045260245ffd5b5060f89290921b825260601b6bffffffffffffffffffffffff1916600182015260150190565b5f60a08284031280156120e0575f5ffd5b5060405160a0810167ffffffffffffffff8111828210171561210457612104611c54565b604052825161211281611c03565b8152602083810151908201526040808401519082015260608084015190820152608083015161214081611c03565b60808201529392505050565b828152604060208201525f6121646040830184611b1f565b949350505050565b634e487b7160e01b5f52603260045260245ffd5b81515f90829060208501835b828110156121aa57815184526020938401939091019060010161218c565b509195945050505050565b81515f90829060208501835b828110156121aa5781516001600160a01b03168452602093840193909101906001016121c1565b83815260406020820152816040820152818360608301375f818301606090810191909152601f909201601f191601019291505056fea2646970667358221220362b39d42923ac5201b71dbfdb99a4a8e69a463a006ebf2bc228aef2297728a264736f6c634300081c0033","linkReferences":{}},"methodIdentifiers":{"DEFAULT_MAX_REBALANCE_OPERATIONS()":"168b813a","INITIAL_MINIMUM_PAUSE_TIME()":"a0506f0b","MAX_REBALANCE_OPERATIONS()":"5ed975e5","addArk(address)":"e37d5b7f","addArks(address[])":"cc5b1e55","adjustBuffer((address,address,uint256,bytes,bytes)[])":"cada5143","allowance(address,address)":"dd62ed3e","approve(address,uint256)":"095ea7b3","arks(uint256)":"ff32a42a","asset()":"38d52e0f","balanceOf(address)":"70a08231","bufferArk()":"c8169aa1","config()":"79502c55","configurationManager()":"c9c667e3","convertToAssets(uint256)":"07a2d13a","convertToShares(uint256)":"c6e6f592","decimals()":"313ce567","deposit(uint256,address)":"6e553f65","deposit(uint256,address,bytes)":"faa9bce9","details()":"565974d3","estimateAccruedTip()":"68482626","fleetCommanderRewardsManagerFactory()":"f7e533ec","forceRebalance((address,address,uint256,bytes,bytes)[])":"e7b20e5b","generateRole(uint8,address)":"69b3054b","getArks()":"f1cd665b","getConfig()":"c3f909d4","getCooldown()":"218e4a15","getEffectiveArkDepositCap(address)":"ef2fc472","getLastActionTimestamp()":"3152d5d1","harborCommand()":"5b0f83f3","hasAdmiralsQuartersRole(address)":"ebc136d0","isArkActive(address)":"d25dd101","isArkWithdrawable(address)":"5340c012","lastTipTimestamp()":"71aedbc1","maxBufferRedeem(address)":"9265b76e","maxBufferWithdraw(address)":"3e314c76","maxDeposit(address)":"402d267d","maxMint(address)":"c63d75b6","maxRedeem(address)":"d905777e","maxWithdraw(address)":"ce96cb77","minimumPauseTime()":"680e57ab","mint(uint256,address)":"94bf804d","name()":"06fdde03","pause()":"8456cb59","pauseStartTime()":"94d7eaa4","paused()":"5c975abb","previewDeposit(uint256)":"ef8b30f7","previewMint(uint256)":"b3d7f6b9","previewRedeem(uint256)":"4cdad506","previewWithdraw(uint256)":"0a28a477","raft()":"117d8ae0","rebalance((address,address,uint256,bytes,bytes)[])":"fcf2849f","redeem(uint256,address,address)":"ba087652","redeemFromArks(uint256,address,address)":"3a7c9f0e","redeemFromBuffer(uint256,address,address)":"f3577816","removeArk(address)":"96c25a38","setArkDepositCap(address,uint256)":"34050560","setArkMaxDepositPercentageOfTVL(address,uint256)":"f3ba553e","setArkMaxRebalanceInflow(address,uint256)":"d45a07a1","setArkMaxRebalanceOutflow(address,uint256)":"b637766c","setFleetDepositCap(uint256)":"d902d41a","setMaxRebalanceOperations(uint256)":"133ab579","setMinimumBufferBalance(uint256)":"4daecb9c","setMinimumPauseTime(uint256)":"e193858f","setStakingRewardsManager(address)":"5e5a9ea9","setTipRate(uint256)":"5822198f","symbol()":"95d89b41","tip()":"2755cd2d","tipJar()":"7aaceb95","tipRate()":"498e76a0","totalAssets()":"01e1d114","totalSupply()":"18160ddd","transfer(address,uint256)":"a9059cbb","transferFrom(address,address,uint256)":"23b872dd","treasury()":"61d027b3","unpause()":"3f4ba83a","updateRebalanceCooldown(uint256)":"dc9de0a8","withdraw(uint256,address,address)":"b460af94","withdrawFromArks(uint256,address,address)":"a039e944","withdrawFromBuffer(uint256,address,address)":"5f538f6f","withdrawableTotalAssets()":"d570ee47"},"id":195}