{"abi":[{"type":"constructor","inputs":[{"name":"params","type":"tuple","internalType":"struct FleetCommanderParams","components":[{"name":"name","type":"string","internalType":"string"},{"name":"symbol","type":"string","internalType":"string"},{"name":"configurationManager","type":"address","internalType":"address"},{"name":"accessManager","type":"address","internalType":"address"},{"name":"asset","type":"address","internalType":"address"},{"name":"initialMinimumBufferBalance","type":"uint256","internalType":"uint256"},{"name":"initialRebalanceCooldown","type":"uint256","internalType":"uint256"},{"name":"depositCap","type":"uint256","internalType":"uint256"},{"name":"initialTipRate","type":"uint256","internalType":"Percentage"}]}],"stateMutability":"nonpayable"},{"type":"function","name":"DEFAULT_MAX_REBALANCE_OPERATIONS","inputs":[],"outputs":[{"name":"","type":"uint256","internalType":"uint256"}],"stateMutability":"view"},{"type":"function","name":"INITIAL_MINIMUM_PAUSE_TIME","inputs":[],"outputs":[{"name":"","type":"uint256","internalType":"uint256"}],"stateMutability":"view"},{"type":"function","name":"MAX_REBALANCE_OPERATIONS","inputs":[],"outputs":[{"name":"","type":"uint256","internalType":"uint256"}],"stateMutability":"view"},{"type":"function","name":"addArk","inputs":[{"name":"ark","type":"address","internalType":"address"}],"outputs":[],"stateMutability":"nonpayable"},{"type":"function","name":"addArks","inputs":[{"name":"_arkAddresses","type":"address[]","internalType":"address[]"}],"outputs":[],"stateMutability":"nonpayable"},{"type":"function","name":"adjustBuffer","inputs":[{"name":"rebalanceData","type":"tuple[]","internalType":"struct RebalanceData[]","components":[{"name":"fromArk","type":"address","internalType":"address"},{"name":"toArk","type":"address","internalType":"address"},{"name":"amount","type":"uint256","internalType":"uint256"},{"name":"boardData","type":"bytes","internalType":"bytes"},{"name":"disembarkData","type":"bytes","internalType":"bytes"}]}],"outputs":[],"stateMutability":"nonpayable"},{"type":"function","name":"allowance","inputs":[{"name":"owner","type":"address","internalType":"address"},{"name":"spender","type":"address","internalType":"address"}],"outputs":[{"name":"","type":"uint256","internalType":"uint256"}],"stateMutability":"view"},{"type":"function","name":"approve","inputs":[{"name":"spender","type":"address","internalType":"address"},{"name":"value","type":"uint256","internalType":"uint256"}],"outputs":[{"name":"","type":"bool","internalType":"bool"}],"stateMutability":"nonpayable"},{"type":"function","name":"arks","inputs":[{"name":"index","type":"uint256","internalType":"uint256"}],"outputs":[{"name":"","type":"address","internalType":"address"}],"stateMutability":"view"},{"type":"function","name":"asset","inputs":[],"outputs":[{"name":"","type":"address","internalType":"address"}],"stateMutability":"view"},{"type":"function","name":"balanceOf","inputs":[{"name":"account","type":"address","internalType":"address"}],"outputs":[{"name":"","type":"uint256","internalType":"uint256"}],"stateMutability":"view"},{"type":"function","name":"bufferArk","inputs":[],"outputs":[{"name":"","type":"address","internalType":"address"}],"stateMutability":"view"},{"type":"function","name":"config","inputs":[],"outputs":[{"name":"bufferArk","type":"address","internalType":"contract IArk"},{"name":"minimumBufferBalance","type":"uint256","internalType":"uint256"},{"name":"depositCap","type":"uint256","internalType":"uint256"},{"name":"maxRebalanceOperations","type":"uint256","internalType":"uint256"},{"name":"stakingRewardsManager","type":"address","internalType":"contract IFleetStakingRewardsManager"}],"stateMutability":"view"},{"type":"function","name":"configurationManager","inputs":[],"outputs":[{"name":"","type":"address","internalType":"contract IConfigurationManager"}],"stateMutability":"view"},{"type":"function","name":"convertToAssets","inputs":[{"name":"shares","type":"uint256","internalType":"uint256"}],"outputs":[{"name":"","type":"uint256","internalType":"uint256"}],"stateMutability":"view"},{"type":"function","name":"convertToShares","inputs":[{"name":"assets","type":"uint256","internalType":"uint256"}],"outputs":[{"name":"","type":"uint256","internalType":"uint256"}],"stateMutability":"view"},{"type":"function","name":"decimals","inputs":[],"outputs":[{"name":"","type":"uint8","internalType":"uint8"}],"stateMutability":"view"},{"type":"function","name":"deposit","inputs":[{"name":"assets","type":"uint256","internalType":"uint256"},{"name":"receiver","type":"address","internalType":"address"}],"outputs":[{"name":"shares","type":"uint256","internalType":"uint256"}],"stateMutability":"nonpayable"},{"type":"function","name":"deposit","inputs":[{"name":"assets","type":"uint256","internalType":"uint256"},{"name":"receiver","type":"address","internalType":"address"},{"name":"referralCode","type":"bytes","internalType":"bytes"}],"outputs":[{"name":"","type":"uint256","internalType":"uint256"}],"stateMutability":"nonpayable"},{"type":"function","name":"depositAndStake","inputs":[{"name":"assets","type":"uint256","internalType":"uint256"},{"name":"receiver","type":"address","internalType":"address"},{"name":"referralCode","type":"bytes","internalType":"bytes"}],"outputs":[{"name":"shares","type":"uint256","internalType":"uint256"}],"stateMutability":"nonpayable"},{"type":"function","name":"depositAndStake","inputs":[{"name":"assets","type":"uint256","internalType":"uint256"},{"name":"receiver","type":"address","internalType":"address"}],"outputs":[{"name":"shares","type":"uint256","internalType":"uint256"}],"stateMutability":"nonpayable"},{"type":"function","name":"estimateAccruedTip","inputs":[],"outputs":[{"name":"","type":"uint256","internalType":"uint256"}],"stateMutability":"view"},{"type":"function","name":"forceRebalance","inputs":[{"name":"rebalanceData","type":"tuple[]","internalType":"struct RebalanceData[]","components":[{"name":"fromArk","type":"address","internalType":"address"},{"name":"toArk","type":"address","internalType":"address"},{"name":"amount","type":"uint256","internalType":"uint256"},{"name":"boardData","type":"bytes","internalType":"bytes"},{"name":"disembarkData","type":"bytes","internalType":"bytes"}]}],"outputs":[],"stateMutability":"nonpayable"},{"type":"function","name":"generateRole","inputs":[{"name":"roleName","type":"uint8","internalType":"enum ContractSpecificRoles"},{"name":"roleTargetContract","type":"address","internalType":"address"}],"outputs":[{"name":"","type":"bytes32","internalType":"bytes32"}],"stateMutability":"pure"},{"type":"function","name":"getArks","inputs":[],"outputs":[{"name":"","type":"address[]","internalType":"address[]"}],"stateMutability":"view"},{"type":"function","name":"getConfig","inputs":[],"outputs":[{"name":"","type":"tuple","internalType":"struct FleetConfig","components":[{"name":"bufferArk","type":"address","internalType":"contract IArk"},{"name":"minimumBufferBalance","type":"uint256","internalType":"uint256"},{"name":"depositCap","type":"uint256","internalType":"uint256"},{"name":"maxRebalanceOperations","type":"uint256","internalType":"uint256"},{"name":"stakingRewardsManager","type":"address","internalType":"contract IFleetStakingRewardsManager"}]}],"stateMutability":"view"},{"type":"function","name":"getCooldown","inputs":[],"outputs":[{"name":"","type":"uint256","internalType":"uint256"}],"stateMutability":"view"},{"type":"function","name":"getEffectiveArkDepositCap","inputs":[{"name":"ark","type":"address","internalType":"contract IArk"}],"outputs":[{"name":"","type":"uint256","internalType":"uint256"}],"stateMutability":"view"},{"type":"function","name":"getLastActionTimestamp","inputs":[],"outputs":[{"name":"","type":"uint256","internalType":"uint256"}],"stateMutability":"view"},{"type":"function","name":"harborCommand","inputs":[],"outputs":[{"name":"","type":"address","internalType":"address"}],"stateMutability":"view"},{"type":"function","name":"isArkActive","inputs":[{"name":"arkAddress","type":"address","internalType":"address"}],"outputs":[{"name":"","type":"bool","internalType":"bool"}],"stateMutability":"view"},{"type":"function","name":"isArkWithdrawable","inputs":[{"name":"ark","type":"address","internalType":"address"}],"outputs":[{"name":"isWithdrawable","type":"bool","internalType":"bool"}],"stateMutability":"view"},{"type":"function","name":"lastTipTimestamp","inputs":[],"outputs":[{"name":"","type":"uint256","internalType":"uint256"}],"stateMutability":"view"},{"type":"function","name":"maxBufferRedeem","inputs":[{"name":"owner","type":"address","internalType":"address"}],"outputs":[{"name":"_maxBufferRedeem","type":"uint256","internalType":"uint256"}],"stateMutability":"view"},{"type":"function","name":"maxBufferWithdraw","inputs":[{"name":"owner","type":"address","internalType":"address"}],"outputs":[{"name":"_maxBufferWithdraw","type":"uint256","internalType":"uint256"}],"stateMutability":"view"},{"type":"function","name":"maxDeposit","inputs":[{"name":"owner","type":"address","internalType":"address"}],"outputs":[{"name":"_maxDeposit","type":"uint256","internalType":"uint256"}],"stateMutability":"view"},{"type":"function","name":"maxMint","inputs":[{"name":"owner","type":"address","internalType":"address"}],"outputs":[{"name":"_maxMint","type":"uint256","internalType":"uint256"}],"stateMutability":"view"},{"type":"function","name":"maxRedeem","inputs":[{"name":"owner","type":"address","internalType":"address"}],"outputs":[{"name":"_maxRedeem","type":"uint256","internalType":"uint256"}],"stateMutability":"view"},{"type":"function","name":"maxWithdraw","inputs":[{"name":"owner","type":"address","internalType":"address"}],"outputs":[{"name":"_maxWithdraw","type":"uint256","internalType":"uint256"}],"stateMutability":"view"},{"type":"function","name":"minimumPauseTime","inputs":[],"outputs":[{"name":"","type":"uint256","internalType":"uint256"}],"stateMutability":"view"},{"type":"function","name":"mint","inputs":[{"name":"shares","type":"uint256","internalType":"uint256"},{"name":"receiver","type":"address","internalType":"address"}],"outputs":[{"name":"assets","type":"uint256","internalType":"uint256"}],"stateMutability":"nonpayable"},{"type":"function","name":"name","inputs":[],"outputs":[{"name":"","type":"string","internalType":"string"}],"stateMutability":"view"},{"type":"function","name":"pause","inputs":[],"outputs":[],"stateMutability":"nonpayable"},{"type":"function","name":"pauseStartTime","inputs":[],"outputs":[{"name":"","type":"uint256","internalType":"uint256"}],"stateMutability":"view"},{"type":"function","name":"paused","inputs":[],"outputs":[{"name":"","type":"bool","internalType":"bool"}],"stateMutability":"view"},{"type":"function","name":"previewDeposit","inputs":[{"name":"assets","type":"uint256","internalType":"uint256"}],"outputs":[{"name":"","type":"uint256","internalType":"uint256"}],"stateMutability":"view"},{"type":"function","name":"previewMint","inputs":[{"name":"shares","type":"uint256","internalType":"uint256"}],"outputs":[{"name":"","type":"uint256","internalType":"uint256"}],"stateMutability":"view"},{"type":"function","name":"previewRedeem","inputs":[{"name":"shares","type":"uint256","internalType":"uint256"}],"outputs":[{"name":"","type":"uint256","internalType":"uint256"}],"stateMutability":"view"},{"type":"function","name":"previewWithdraw","inputs":[{"name":"assets","type":"uint256","internalType":"uint256"}],"outputs":[{"name":"","type":"uint256","internalType":"uint256"}],"stateMutability":"view"},{"type":"function","name":"raft","inputs":[],"outputs":[{"name":"","type":"address","internalType":"address"}],"stateMutability":"view"},{"type":"function","name":"rebalance","inputs":[{"name":"rebalanceData","type":"tuple[]","internalType":"struct RebalanceData[]","components":[{"name":"fromArk","type":"address","internalType":"address"},{"name":"toArk","type":"address","internalType":"address"},{"name":"amount","type":"uint256","internalType":"uint256"},{"name":"boardData","type":"bytes","internalType":"bytes"},{"name":"disembarkData","type":"bytes","internalType":"bytes"}]}],"outputs":[],"stateMutability":"nonpayable"},{"type":"function","name":"redeem","inputs":[{"name":"shares","type":"uint256","internalType":"uint256"},{"name":"receiver","type":"address","internalType":"address"},{"name":"owner","type":"address","internalType":"address"}],"outputs":[{"name":"assets","type":"uint256","internalType":"uint256"}],"stateMutability":"nonpayable"},{"type":"function","name":"redeemFromArks","inputs":[{"name":"shares","type":"uint256","internalType":"uint256"},{"name":"receiver","type":"address","internalType":"address"},{"name":"owner","type":"address","internalType":"address"}],"outputs":[{"name":"totalAssetsToWithdraw","type":"uint256","internalType":"uint256"}],"stateMutability":"nonpayable"},{"type":"function","name":"redeemFromBuffer","inputs":[{"name":"shares","type":"uint256","internalType":"uint256"},{"name":"receiver","type":"address","internalType":"address"},{"name":"owner","type":"address","internalType":"address"}],"outputs":[{"name":"assets","type":"uint256","internalType":"uint256"}],"stateMutability":"nonpayable"},{"type":"function","name":"removeArk","inputs":[{"name":"ark","type":"address","internalType":"address"}],"outputs":[],"stateMutability":"nonpayable"},{"type":"function","name":"setArkDepositCap","inputs":[{"name":"ark","type":"address","internalType":"address"},{"name":"newDepositCap","type":"uint256","internalType":"uint256"}],"outputs":[],"stateMutability":"nonpayable"},{"type":"function","name":"setArkMaxDepositPercentageOfTVL","inputs":[{"name":"ark","type":"address","internalType":"address"},{"name":"newMaxDepositPercentageOfTVL","type":"uint256","internalType":"Percentage"}],"outputs":[],"stateMutability":"nonpayable"},{"type":"function","name":"setArkMaxRebalanceInflow","inputs":[{"name":"ark","type":"address","internalType":"address"},{"name":"newMaxRebalanceInflow","type":"uint256","internalType":"uint256"}],"outputs":[],"stateMutability":"nonpayable"},{"type":"function","name":"setArkMaxRebalanceOutflow","inputs":[{"name":"ark","type":"address","internalType":"address"},{"name":"newMaxRebalanceOutflow","type":"uint256","internalType":"uint256"}],"outputs":[],"stateMutability":"nonpayable"},{"type":"function","name":"setFleetDepositCap","inputs":[{"name":"newCap","type":"uint256","internalType":"uint256"}],"outputs":[],"stateMutability":"nonpayable"},{"type":"function","name":"setMaxRebalanceOperations","inputs":[{"name":"newMaxRebalanceOperations","type":"uint256","internalType":"uint256"}],"outputs":[],"stateMutability":"nonpayable"},{"type":"function","name":"setMinimumBufferBalance","inputs":[{"name":"newMinimumBalance","type":"uint256","internalType":"uint256"}],"outputs":[],"stateMutability":"nonpayable"},{"type":"function","name":"setMinimumPauseTime","inputs":[{"name":"_newMinimumPauseTime","type":"uint256","internalType":"uint256"}],"outputs":[],"stateMutability":"nonpayable"},{"type":"function","name":"setStakingRewardsManager","inputs":[{"name":"newStakingRewardsManager","type":"address","internalType":"address"}],"outputs":[],"stateMutability":"nonpayable"},{"type":"function","name":"setTipRate","inputs":[{"name":"newTipRate","type":"uint256","internalType":"Percentage"}],"outputs":[],"stateMutability":"nonpayable"},{"type":"function","name":"stake","inputs":[{"name":"shares","type":"uint256","internalType":"uint256"}],"outputs":[],"stateMutability":"nonpayable"},{"type":"function","name":"symbol","inputs":[],"outputs":[{"name":"","type":"string","internalType":"string"}],"stateMutability":"view"},{"type":"function","name":"tip","inputs":[],"outputs":[{"name":"","type":"uint256","internalType":"uint256"}],"stateMutability":"nonpayable"},{"type":"function","name":"tipJar","inputs":[],"outputs":[{"name":"","type":"address","internalType":"address"}],"stateMutability":"view"},{"type":"function","name":"tipRate","inputs":[],"outputs":[{"name":"","type":"uint256","internalType":"Percentage"}],"stateMutability":"view"},{"type":"function","name":"totalAssets","inputs":[],"outputs":[{"name":"","type":"uint256","internalType":"uint256"}],"stateMutability":"view"},{"type":"function","name":"totalSupply","inputs":[],"outputs":[{"name":"","type":"uint256","internalType":"uint256"}],"stateMutability":"view"},{"type":"function","name":"transfer","inputs":[{"name":"to","type":"address","internalType":"address"},{"name":"amount","type":"uint256","internalType":"uint256"}],"outputs":[{"name":"","type":"bool","internalType":"bool"}],"stateMutability":"nonpayable"},{"type":"function","name":"transferFrom","inputs":[{"name":"from","type":"address","internalType":"address"},{"name":"to","type":"address","internalType":"address"},{"name":"amount","type":"uint256","internalType":"uint256"}],"outputs":[{"name":"","type":"bool","internalType":"bool"}],"stateMutability":"nonpayable"},{"type":"function","name":"treasury","inputs":[],"outputs":[{"name":"","type":"address","internalType":"address"}],"stateMutability":"view"},{"type":"function","name":"unpause","inputs":[],"outputs":[],"stateMutability":"nonpayable"},{"type":"function","name":"updateRebalanceCooldown","inputs":[{"name":"newCooldown","type":"uint256","internalType":"uint256"}],"outputs":[],"stateMutability":"nonpayable"},{"type":"function","name":"withdraw","inputs":[{"name":"assets","type":"uint256","internalType":"uint256"},{"name":"receiver","type":"address","internalType":"address"},{"name":"owner","type":"address","internalType":"address"}],"outputs":[{"name":"shares","type":"uint256","internalType":"uint256"}],"stateMutability":"nonpayable"},{"type":"function","name":"withdrawFromArks","inputs":[{"name":"assets","type":"uint256","internalType":"uint256"},{"name":"receiver","type":"address","internalType":"address"},{"name":"owner","type":"address","internalType":"address"}],"outputs":[{"name":"totalSharesToRedeem","type":"uint256","internalType":"uint256"}],"stateMutability":"nonpayable"},{"type":"function","name":"withdrawFromBuffer","inputs":[{"name":"assets","type":"uint256","internalType":"uint256"},{"name":"receiver","type":"address","internalType":"address"},{"name":"owner","type":"address","internalType":"address"}],"outputs":[{"name":"shares","type":"uint256","internalType":"uint256"}],"stateMutability":"nonpayable"},{"type":"function","name":"withdrawableTotalAssets","inputs":[],"outputs":[{"name":"","type":"uint256","internalType":"uint256"}],"stateMutability":"view"},{"type":"event","name":"Approval","inputs":[{"name":"owner","type":"address","indexed":true,"internalType":"address"},{"name":"spender","type":"address","indexed":true,"internalType":"address"},{"name":"value","type":"uint256","indexed":false,"internalType":"uint256"}],"anonymous":false},{"type":"event","name":"ArkAdded","inputs":[{"name":"ark","type":"address","indexed":true,"internalType":"address"}],"anonymous":false},{"type":"event","name":"ArkRemoved","inputs":[{"name":"ark","type":"address","indexed":true,"internalType":"address"}],"anonymous":false},{"type":"event","name":"CooldownUpdated","inputs":[{"name":"previousCooldown","type":"uint256","indexed":false,"internalType":"uint256"},{"name":"newCooldown","type":"uint256","indexed":false,"internalType":"uint256"}],"anonymous":false},{"type":"event","name":"Deposit","inputs":[{"name":"sender","type":"address","indexed":true,"internalType":"address"},{"name":"owner","type":"address","indexed":true,"internalType":"address"},{"name":"assets","type":"uint256","indexed":false,"internalType":"uint256"},{"name":"shares","type":"uint256","indexed":false,"internalType":"uint256"}],"anonymous":false},{"type":"event","name":"FeeAddressUpdated","inputs":[{"name":"newAddress","type":"address","indexed":false,"internalType":"address"}],"anonymous":false},{"type":"event","name":"FleetCommanderBufferAdjusted","inputs":[{"name":"keeper","type":"address","indexed":true,"internalType":"address"},{"name":"totalMoved","type":"uint256","indexed":false,"internalType":"uint256"}],"anonymous":false},{"type":"event","name":"FleetCommanderDepositCapUpdated","inputs":[{"name":"newCap","type":"uint256","indexed":false,"internalType":"uint256"}],"anonymous":false},{"type":"event","name":"FleetCommanderMaxRebalanceOperationsUpdated","inputs":[{"name":"newMaxRebalanceOperations","type":"uint256","indexed":false,"internalType":"uint256"}],"anonymous":false},{"type":"event","name":"FleetCommanderRedeemedFromArks","inputs":[{"name":"owner","type":"address","indexed":true,"internalType":"address"},{"name":"receiver","type":"address","indexed":false,"internalType":"address"},{"name":"totalRedeemed","type":"uint256","indexed":false,"internalType":"uint256"}],"anonymous":false},{"type":"event","name":"FleetCommanderReferral","inputs":[{"name":"referee","type":"address","indexed":true,"internalType":"address"},{"name":"referralCode","type":"bytes","indexed":true,"internalType":"bytes"}],"anonymous":false},{"type":"event","name":"FleetCommanderStakingRewardsUpdated","inputs":[{"name":"newStakingRewards","type":"address","indexed":false,"internalType":"address"}],"anonymous":false},{"type":"event","name":"FleetCommanderWithdrawnFromArks","inputs":[{"name":"owner","type":"address","indexed":true,"internalType":"address"},{"name":"receiver","type":"address","indexed":false,"internalType":"address"},{"name":"totalWithdrawn","type":"uint256","indexed":false,"internalType":"uint256"}],"anonymous":false},{"type":"event","name":"FleetCommanderminimumBufferBalanceUpdated","inputs":[{"name":"newBalance","type":"uint256","indexed":false,"internalType":"uint256"}],"anonymous":false},{"type":"event","name":"FundsBufferBalanceUpdated","inputs":[{"name":"user","type":"address","indexed":true,"internalType":"address"},{"name":"prevBalance","type":"uint256","indexed":false,"internalType":"uint256"},{"name":"newBalance","type":"uint256","indexed":false,"internalType":"uint256"}],"anonymous":false},{"type":"event","name":"FundsQueueRefilled","inputs":[{"name":"keeper","type":"address","indexed":true,"internalType":"address"},{"name":"prevBalance","type":"uint256","indexed":false,"internalType":"uint256"},{"name":"newBalance","type":"uint256","indexed":false,"internalType":"uint256"}],"anonymous":false},{"type":"event","name":"MinFundsQueueBalanceUpdated","inputs":[{"name":"keeper","type":"address","indexed":true,"internalType":"address"},{"name":"newBalance","type":"uint256","indexed":false,"internalType":"uint256"}],"anonymous":false},{"type":"event","name":"MinimumPauseTimeUpdated","inputs":[{"name":"newMinimumPauseTime","type":"uint256","indexed":false,"internalType":"uint256"}],"anonymous":false},{"type":"event","name":"Paused","inputs":[{"name":"account","type":"address","indexed":false,"internalType":"address"}],"anonymous":false},{"type":"event","name":"QueuedFundsCommitted","inputs":[{"name":"keeper","type":"address","indexed":true,"internalType":"address"},{"name":"prevBalance","type":"uint256","indexed":false,"internalType":"uint256"},{"name":"newBalance","type":"uint256","indexed":false,"internalType":"uint256"}],"anonymous":false},{"type":"event","name":"Rebalanced","inputs":[{"name":"keeper","type":"address","indexed":true,"internalType":"address"},{"name":"rebalances","type":"tuple[]","indexed":false,"internalType":"struct RebalanceData[]","components":[{"name":"fromArk","type":"address","internalType":"address"},{"name":"toArk","type":"address","internalType":"address"},{"name":"amount","type":"uint256","internalType":"uint256"},{"name":"boardData","type":"bytes","internalType":"bytes"},{"name":"disembarkData","type":"bytes","internalType":"bytes"}]}],"anonymous":false},{"type":"event","name":"TipAccrued","inputs":[{"name":"tipAmount","type":"uint256","indexed":false,"internalType":"uint256"}],"anonymous":false},{"type":"event","name":"TipJarUpdated","inputs":[{"name":"newTipJar","type":"address","indexed":false,"internalType":"address"}],"anonymous":false},{"type":"event","name":"TipRateUpdated","inputs":[{"name":"newTipRate","type":"uint256","indexed":false,"internalType":"Percentage"}],"anonymous":false},{"type":"event","name":"Transfer","inputs":[{"name":"from","type":"address","indexed":true,"internalType":"address"},{"name":"to","type":"address","indexed":true,"internalType":"address"},{"name":"value","type":"uint256","indexed":false,"internalType":"uint256"}],"anonymous":false},{"type":"event","name":"Unpaused","inputs":[{"name":"account","type":"address","indexed":false,"internalType":"address"}],"anonymous":false},{"type":"event","name":"Withdraw","inputs":[{"name":"sender","type":"address","indexed":true,"internalType":"address"},{"name":"receiver","type":"address","indexed":true,"internalType":"address"},{"name":"owner","type":"address","indexed":true,"internalType":"address"},{"name":"assets","type":"uint256","indexed":false,"internalType":"uint256"},{"name":"shares","type":"uint256","indexed":false,"internalType":"uint256"}],"anonymous":false},{"type":"error","name":"CallerIsNotAdmin","inputs":[{"name":"caller","type":"address","internalType":"address"}]},{"type":"error","name":"CallerIsNotAuthorizedToBoard","inputs":[{"name":"caller","type":"address","internalType":"address"}]},{"type":"error","name":"CallerIsNotCommander","inputs":[{"name":"caller","type":"address","internalType":"address"}]},{"type":"error","name":"CallerIsNotContractSpecificRole","inputs":[{"name":"caller","type":"address","internalType":"address"},{"name":"role","type":"bytes32","internalType":"bytes32"}]},{"type":"error","name":"CallerIsNotCurator","inputs":[{"name":"caller","type":"address","internalType":"address"}]},{"type":"error","name":"CallerIsNotGovernor","inputs":[{"name":"caller","type":"address","internalType":"address"}]},{"type":"error","name":"CallerIsNotGuardian","inputs":[{"name":"caller","type":"address","internalType":"address"}]},{"type":"error","name":"CallerIsNotGuardianOrGovernor","inputs":[{"name":"caller","type":"address","internalType":"address"}]},{"type":"error","name":"CallerIsNotKeeper","inputs":[{"name":"caller","type":"address","internalType":"address"}]},{"type":"error","name":"CallerIsNotRaft","inputs":[{"name":"caller","type":"address","internalType":"address"}]},{"type":"error","name":"CallerIsNotRaftOrCommander","inputs":[{"name":"caller","type":"address","internalType":"address"}]},{"type":"error","name":"CallerIsNotSuperKeeper","inputs":[{"name":"caller","type":"address","internalType":"address"}]},{"type":"error","name":"ConfigurationManagerZeroAddress","inputs":[]},{"type":"error","name":"CooldownNotElapsed","inputs":[{"name":"lastActionTimestamp","type":"uint256","internalType":"uint256"},{"name":"cooldown","type":"uint256","internalType":"uint256"},{"name":"currentTimestamp","type":"uint256","internalType":"uint256"}]},{"type":"error","name":"DirectGrantIsDisabled","inputs":[{"name":"caller","type":"address","internalType":"address"}]},{"type":"error","name":"DirectRevokeIsDisabled","inputs":[{"name":"caller","type":"address","internalType":"address"}]},{"type":"error","name":"ERC20InsufficientAllowance","inputs":[{"name":"spender","type":"address","internalType":"address"},{"name":"allowance","type":"uint256","internalType":"uint256"},{"name":"needed","type":"uint256","internalType":"uint256"}]},{"type":"error","name":"ERC20InsufficientBalance","inputs":[{"name":"sender","type":"address","internalType":"address"},{"name":"balance","type":"uint256","internalType":"uint256"},{"name":"needed","type":"uint256","internalType":"uint256"}]},{"type":"error","name":"ERC20InvalidApprover","inputs":[{"name":"approver","type":"address","internalType":"address"}]},{"type":"error","name":"ERC20InvalidReceiver","inputs":[{"name":"receiver","type":"address","internalType":"address"}]},{"type":"error","name":"ERC20InvalidSender","inputs":[{"name":"sender","type":"address","internalType":"address"}]},{"type":"error","name":"ERC20InvalidSpender","inputs":[{"name":"spender","type":"address","internalType":"address"}]},{"type":"error","name":"ERC4626ExceededMaxDeposit","inputs":[{"name":"receiver","type":"address","internalType":"address"},{"name":"assets","type":"uint256","internalType":"uint256"},{"name":"max","type":"uint256","internalType":"uint256"}]},{"type":"error","name":"ERC4626ExceededMaxMint","inputs":[{"name":"receiver","type":"address","internalType":"address"},{"name":"shares","type":"uint256","internalType":"uint256"},{"name":"max","type":"uint256","internalType":"uint256"}]},{"type":"error","name":"ERC4626ExceededMaxRedeem","inputs":[{"name":"owner","type":"address","internalType":"address"},{"name":"shares","type":"uint256","internalType":"uint256"},{"name":"max","type":"uint256","internalType":"uint256"}]},{"type":"error","name":"ERC4626ExceededMaxWithdraw","inputs":[{"name":"owner","type":"address","internalType":"address"},{"name":"assets","type":"uint256","internalType":"uint256"},{"name":"max","type":"uint256","internalType":"uint256"}]},{"type":"error","name":"EnforcedPause","inputs":[]},{"type":"error","name":"ExpectedPause","inputs":[]},{"type":"error","name":"FleetCommanderArkAlreadyExists","inputs":[{"name":"ark","type":"address","internalType":"address"}]},{"type":"error","name":"FleetCommanderArkAlreadyHasCommander","inputs":[]},{"type":"error","name":"FleetCommanderArkAssetsNotZero","inputs":[{"name":"ark","type":"address","internalType":"address"}]},{"type":"error","name":"FleetCommanderArkDepositCapGreaterThanZero","inputs":[{"name":"ark","type":"address","internalType":"address"}]},{"type":"error","name":"FleetCommanderArkDepositCapZero","inputs":[{"name":"ark","type":"address","internalType":"address"}]},{"type":"error","name":"FleetCommanderArkNotActive","inputs":[{"name":"ark","type":"address","internalType":"address"}]},{"type":"error","name":"FleetCommanderArkNotFound","inputs":[{"name":"ark","type":"address","internalType":"address"}]},{"type":"error","name":"FleetCommanderCantUseMaxUintMovingFromBuffer","inputs":[]},{"type":"error","name":"FleetCommanderCantUseRebalanceOnBufferArk","inputs":[]},{"type":"error","name":"FleetCommanderEffectiveDepositCapExceeded","inputs":[{"name":"ark","type":"address","internalType":"address"},{"name":"amount","type":"uint256","internalType":"uint256"},{"name":"effectiveDepositCap","type":"uint256","internalType":"uint256"}]},{"type":"error","name":"FleetCommanderExceedsMaxInflow","inputs":[{"name":"fromArk","type":"address","internalType":"address"},{"name":"amount","type":"uint256","internalType":"uint256"},{"name":"maxRebalanceInflow","type":"uint256","internalType":"uint256"}]},{"type":"error","name":"FleetCommanderExceedsMaxOutflow","inputs":[{"name":"fromArk","type":"address","internalType":"address"},{"name":"amount","type":"uint256","internalType":"uint256"},{"name":"maxRebalanceOutflow","type":"uint256","internalType":"uint256"}]},{"type":"error","name":"FleetCommanderInsufficientBuffer","inputs":[]},{"type":"error","name":"FleetCommanderInvalidArkAddress","inputs":[]},{"type":"error","name":"FleetCommanderInvalidBufferAdjustment","inputs":[]},{"type":"error","name":"FleetCommanderInvalidSourceArk","inputs":[{"name":"ark","type":"address","internalType":"address"}]},{"type":"error","name":"FleetCommanderInvalidStakingRewardsManager","inputs":[]},{"type":"error","name":"FleetCommanderMovedMoreThanAvailable","inputs":[]},{"type":"error","name":"FleetCommanderNoExcessFunds","inputs":[]},{"type":"error","name":"FleetCommanderNoFundsMoved","inputs":[]},{"type":"error","name":"FleetCommanderPausableMinimumPauseTimeNotElapsed","inputs":[]},{"type":"error","name":"FleetCommanderRebalanceAmountZero","inputs":[{"name":"ark","type":"address","internalType":"address"}]},{"type":"error","name":"FleetCommanderRebalanceNoOperations","inputs":[]},{"type":"error","name":"FleetCommanderRebalanceTooManyOperations","inputs":[{"name":"operationsCount","type":"uint256","internalType":"uint256"}]},{"type":"error","name":"FleetCommanderTransfersDisabled","inputs":[]},{"type":"error","name":"FleetCommanderUnauthorizedRedemption","inputs":[{"name":"caller","type":"address","internalType":"address"},{"name":"owner","type":"address","internalType":"address"}]},{"type":"error","name":"FleetCommanderUnauthorizedWithdrawal","inputs":[{"name":"caller","type":"address","internalType":"address"},{"name":"owner","type":"address","internalType":"address"}]},{"type":"error","name":"InvalidAccessManagerAddress","inputs":[{"name":"invalidAddress","type":"address","internalType":"address"}]},{"type":"error","name":"InvalidFleetCommanderAddress","inputs":[]},{"type":"error","name":"InvalidTipJarAddress","inputs":[]},{"type":"error","name":"SafeERC20FailedOperation","inputs":[{"name":"token","type":"address","internalType":"address"}]},{"type":"error","name":"TipRateCannotExceedOneHundredPercent","inputs":[]},{"type":"error","name":"WithdrawalAmountExceedsMaxBufferLimit","inputs":[]}],"bytecode":{"object":"0x60e060405234801561000f575f5ffd5b5060405161d68c38038061d68c83398101604081905261002e91610567565b8060c001515f8260400151836101000151818560800151866201fa408160600151895f01518a60200151816003908161006791906106de565b50600461007482826106de565b5050506001600160a01b0381166100a5576040516347bd7c1d60e01b81525f60048201526024015b60405180910390fd5b6040516301ffc9a760e01b815263fe1a291f60e01b60048201526001600160a01b038216906301ffc9a790602401602060405180830381865afa1580156100ee573d5f5f3e3d5ffd5b505050506040513d601f19601f820116820180604052508101906101129190610798565b61013a576040516347bd7c1d60e01b81526001600160a01b038216600482015260240161009c565b600580546001600160a81b0319166001600160a01b039283161790556006919091556040805161016081018252600961012082019081526842756666657241726b60b81b61014083015281526060808501518416602083015284830151841692820192909252608080850151909316918101919091525f1991810182905260a0810182905260c08101919091525f60e082018190529061010081016101e16012600a6108b7565b6101ec9060646108c2565b815250306040516101fc9061046c565b610207929190610907565b604051809103905ff080158015610220573d5f5f3e3d5ffd5b5090506102f66040518060a00160405280836001600160a01b031681526020018460a0015181526020018460e001518152602001600a815260200184606001513060405161026d90610479565b6001600160a01b03928316815291166020820152604001604051809103905ff08015801561029d573d5f5f3e3d5ffd5b506001600160a01b031690528051600880546001600160a01b03199081166001600160a01b039384161790915560208301516009556040830151600a556060830151600b55608090920151600c80549093169116179055565b6001600160a01b03165f908152600f60205260408120805460ff1916600117905590508061032383610396565b9150915081610333576012610335565b805b60ff1660a05250506001600160a01b03908116608052811661036a5760405163f1634df960e01b815260040160405180910390fd5b6001600160a01b031660c05260105550426011556012829055801561038e57426013555b5050506109ee565b60408051600481526024810182526020810180516001600160e01b031663313ce56760e01b17905290515f918291829182916001600160a01b038716916103dc916109c1565b5f60405180830381855afa9150503d805f8114610414576040519150601f19603f3d011682016040523d82523d5f602084013e610419565b606091505b509150915081801561042d57506020815110155b15610460575f8180602001905181019061044791906109d7565b905060ff811161045e576001969095509350505050565b505b505f9485945092505050565b6126568061958983390190565b611aad8061bbdf83390190565b634e487b7160e01b5f52604160045260245ffd5b60405161012081016001600160401b03811182821017156104bd576104bd610486565b60405290565b5f82601f8301126104d2575f5ffd5b81516001600160401b038111156104eb576104eb610486565b604051601f8201601f19908116603f011681016001600160401b038111828210171561051957610519610486565b604052818152838201602001851015610530575f5ffd5b8160208501602083015e5f918101602001919091529392505050565b80516001600160a01b0381168114610562575f5ffd5b919050565b5f60208284031215610577575f5ffd5b81516001600160401b0381111561058c575f5ffd5b8201610120818503121561059e575f5ffd5b6105a661049a565b81516001600160401b038111156105bb575f5ffd5b6105c7868285016104c3565b82525060208201516001600160401b038111156105e2575f5ffd5b6105ee868285016104c3565b6020830152506106006040830161054c565b60408201526106116060830161054c565b60608201526106226080830161054c565b608082015260a0828101519082015260c0808301519082015260e0808301519082015261010091820151918101919091529392505050565b600181811c9082168061066e57607f821691505b60208210810361068c57634e487b7160e01b5f52602260045260245ffd5b50919050565b601f8211156106d957805f5260205f20601f840160051c810160208510156106b75750805b601f840160051c820191505b818110156106d6575f81556001016106c3565b50505b505050565b81516001600160401b038111156106f7576106f7610486565b61070b81610705845461065a565b84610692565b6020601f82116001811461073d575f83156107265750848201515b5f19600385901b1c1916600184901b1784556106d6565b5f84815260208120601f198516915b8281101561076c578785015182556020948501946001909201910161074c565b508482101561078957868401515f19600387901b60f8161c191681555b50505050600190811b01905550565b5f602082840312156107a8575f5ffd5b815180151581146107b7575f5ffd5b9392505050565b634e487b7160e01b5f52601160045260245ffd5b6001815b600184111561080d578085048111156107f1576107f16107be565b60018416156107ff57908102905b60019390931c9280026107d6565b935093915050565b5f82610823575060016108b1565b8161082f57505f6108b1565b8160018114610845576002811461084f5761086b565b60019150506108b1565b60ff841115610860576108606107be565b50506001821b6108b1565b5060208310610133831016604e8410600b841016171561088e575081810a6108b1565b61089a5f1984846107d2565b805f19048211156108ad576108ad6107be565b0290505b92915050565b5f6107b78383610815565b80820281158282048414176108b1576108b16107be565b5f81518084528060208401602086015e5f602082860101526020601f19601f83011685010191505092915050565b604081525f835161012060408401526109246101608401826108d9565b9050602085015161094060608501826001600160a01b03169052565b5060408501516001600160a01b03811660808501525060608501516001600160a01b03811660a085015250608085015160c084015260a085015160e084015260c085015161010084015260e085015161099e61012085018215159052565b506101008501516101408401526001600160a01b038416602084015290506107b7565b5f82518060208501845e5f920191825250919050565b5f602082840312156109e7575f5ffd5b5051919050565b60805160a05160c051618b32610a575f395f81816108df01528181610b95015281816114ef0152818161181f0152611ac901525f610d6e01525f8181610596015281816112270152818161252701528181613b6d015281816141dd015261426c0152618b325ff3fe608060405234801561000f575f5ffd5b506004361061047a575f3560e01c80638456cb5911610258578063cc5b1e551161014b578063e193858f116100ca578063f1cd665b1161008f578063f1cd665b14610a38578063f357781614610a4d578063f3ba553e14610a60578063faa9bce914610a73578063fcf2849f14610a86578063ff32a42a14610a99575f5ffd5b8063e193858f146109ec578063e37d5b7f146109ff578063e7b20e5b14610a12578063ef2fc47214610a25578063ef8b30f7146108b6575f5ffd5b8063d570ee4711610110578063d570ee4714610973578063d902d41a1461097b578063d905777e1461098e578063dc9de0a8146109a1578063dd62ed3e146109b4575f5ffd5b8063cc5b1e5514610914578063ce96cb7714610927578063d25dd1011461093a578063d45a07a11461094d578063d537092f14610960575f5ffd5b8063b3d7f6b9116101d7578063c63d75b61161019c578063c63d75b6146108a3578063c6e6f592146108b6578063c8169aa1146108c9578063c9c667e3146108da578063cada514314610901575f5ffd5b8063b3d7f6b914610806578063b460af9414610819578063b637766c1461082c578063ba0876521461083f578063c3f909d414610852575f5ffd5b806396c25a381161021d57806396c25a38146107b0578063a039e944146107c3578063a0506f0b146107d6578063a694fc3a146107e0578063a9059cbb146107f3575f5ffd5b80638456cb59146107715780639265b76e1461077957806394bf804d1461078c57806394d7eaa41461079f57806395d89b41146107a8575f5ffd5b8063498e76a0116103705780635f538f6f116102ef5780636e553f65116102b45780636e553f65146106cb57806370a08231146106de57806371aedbc11461070657806379502c551461070f5780637aaceb9514610769575f5ffd5b80635f538f6f1461068c57806361d027b31461069f578063680e57ab146106a757806368482626146106b057806369b3054b146106b8575f5ffd5b80635822198f116103355780635822198f1461064c5780635b0f83f31461065f5780635c975abb146106675780635e5a9ea9146106795780635ed975e51461052c575f5ffd5b8063498e76a0146105fb5780634cdad506146104ae5780634daecb9c146106045780634fee7627146106175780635340c0121461062a575f5ffd5b806323b872dd116103fc57806338d52e0f116103c157806338d52e0f146105945780633a7c9f0e146105ba5780633e314c76146105cd5780633f4ba83a146105e0578063402d267d146105e8575f5ffd5b806323b872dd146105445780632755cd2d14610557578063313ce5671461055f5780633152d5d1146105795780633405056014610581575f5ffd5b8063117d8ae011610442578063117d8ae0146104f7578063133ab57914610517578063168b813a1461052c57806318160ddd14610534578063218e4a151461053c575f5ffd5b806301e1d1141461047e57806306fdde031461049957806307a2d13a146104ae578063095ea7b3146104c15780630a28a477146104e4575b5f5ffd5b610486610aac565b6040519081526020015b60405180910390f35b6104a1610ace565b604051610490919061653b565b6104866104bc36600461654d565b610b5e565b6104d46104cf366004616578565b610b6f565b6040519015158152602001610490565b6104866104f236600461654d565b610b86565b6104ff610b92565b6040516001600160a01b039091168152602001610490565b61052a61052536600461654d565b610c13565b005b610486600a81565b600254610486565b601254610486565b6104d46105523660046165a2565b610cf3565b610486610d56565b610567610d67565b60405160ff9091168152602001610490565b601354610486565b61052a61058f366004616578565b610d92565b7f00000000000000000000000000000000000000000000000000000000000000006104ff565b6104866105c83660046165e0565b610ec0565b6104866105db36600461661f565b610f73565b61052a611013565b6104866105f636600461661f565b6111f1565b61048660105481565b61052a61061236600461654d565b6112b9565b610486610625366004616741565b61138d565b6104d461063836600461661f565b600f6020525f908152604090205460ff1681565b61052a61065a36600461654d565b6113e8565b6104ff6114ec565b600554600160a01b900460ff166104d4565b61052a61068736600461661f565b611549565b61048661069a3660046165e0565b6116ab565b6104ff61181c565b61048660065481565b610486611879565b6104866106c6366004616795565b6118ff565b6104866106d93660046167cf565b611931565b6104866106ec36600461661f565b6001600160a01b03165f9081526020819052604090205490565b61048660115481565b600854600954600a54600b54600c54610735946001600160a01b03908116949392911685565b604080516001600160a01b03968716815260208101959095528401929092526060830152909116608082015260a001610490565b6104ff611ac6565b61052a611b23565b61048661078736600461661f565b611cff565b61048661079a3660046167cf565b611d99565b61048660075481565b6104a1611e5a565b61052a6107be36600461661f565b611e69565b6104866107d13660046165e0565b611f6a565b6104866201fa4081565b61052a6107ee36600461654d565b611fff565b6104d4610801366004616578565b6120f8565b61048661081436600461654d565b612191565b6104866108273660046165e0565b61219d565b61052a61083a366004616578565b612283565b61048661084d3660046165e0565b612383565b61085a61246c565b604051610490919081516001600160a01b039081168252602080840151908301526040808401519083015260608084015190830152608092830151169181019190915260a00190565b6104866108b136600461661f565b6124ee565b6104866108c436600461654d565b612576565b6008546001600160a01b03166104ff565b6104ff7f000000000000000000000000000000000000000000000000000000000000000081565b61052a61090f366004616839565b612581565b61052a610922366004616839565b6127aa565b61048661093536600461661f565b6128e8565b6104d461094836600461661f565b6128f4565b61052a61095b366004616578565b61291b565b61048661096e3660046167cf565b612a1b565b610486612aae565b61052a61098936600461654d565b612acd565b61048661099c36600461661f565b612ba1565b61052a6109af36600461654d565b612bb0565b6104866109c2366004616877565b6001600160a01b039182165f90815260016020908152604080832093909416825291909152205490565b61052a6109fa36600461654d565b612cb1565b61052a610a0d36600461661f565b612db2565b61052a610a20366004616839565b612eb3565b610486610a3336600461661f565b612fd2565b610a406130e3565b6040516104909190616893565b610486610a5b3660046165e0565b6130ef565b61052a610a6e366004616578565b613274565b610486610a81366004616741565b613374565b61052a610a94366004616839565b6133cf565b6104ff610aa736600461654d565b613593565b5f610ac9610ab86130e3565b6008546001600160a01b031661359f565b905090565b606060038054610add906168de565b80601f0160208091040260200160405190810160405280929190818152602001828054610b09906168de565b8015610b545780601f10610b2b57610100808354040283529160200191610b54565b820191905f5260205f20905b815481529060010190602001808311610b3757829003601f168201915b5050505050905090565b5f610b69825f613653565b92915050565b5f33610b7c81858561368b565b5060019392505050565b5f610b69826001613698565b5f7f00000000000000000000000000000000000000000000000000000000000000006001600160a01b031663117d8ae06040518163ffffffff1660e01b8152600401602060405180830381865afa158015610bef573d5f5f3e3d5ffd5b505050506040513d601f19601f82011682018060405250810190610ac99190616920565b6005546001600160a01b03166391d14854610c2e5f306118ff565b336040518363ffffffff1660e01b8152600401610c4c92919061693b565b602060405180830381865afa158015610c67573d5f5f3e3d5ffd5b505050506040513d601f19601f82011682018060405250810190610c8b9190616961565b610caf576040516363b52ed760e11b81523360048201526024015b60405180910390fd5b610cb76136c7565b600b8190556040518181527f4f4bedc5354096786a0fb857b12fdd6488cc973b2348cedb78088bdceaa906b5906020015b60405180910390a150565b600c545f906001600160a01b0316336001600160a01b03161480610d1f57506001600160a01b03831630145b15610d3657610d2f8484846136f2565b9050610d4f565b60405163ec47ea8b60e01b815260040160405180910390fd5b9392505050565b5f610d5f6136c7565b610ac9613715565b5f610ac9817f000000000000000000000000000000000000000000000000000000000000000061698e565b6005546001600160a01b03166391d14854610dad5f306118ff565b336040518363ffffffff1660e01b8152600401610dcb92919061693b565b602060405180830381865afa158015610de6573d5f5f3e3d5ffd5b505050506040513d601f19601f82011682018060405250810190610e0a9190616961565b610e29576040516363b52ed760e11b8152336004820152602401610ca6565b81610e35600d82613819565b610e5d57604051632767039f60e01b81526001600160a01b0382166004820152602401610ca6565b610e656136c7565b604051638665120360e01b8152600481018390526001600160a01b038416906386651203906024015b5f604051808303815f87803b158015610ea5575f5ffd5b505af1158015610eb7573d5f5f3e3d5ffd5b50505050505050565b5f610ec9613715565b50610ee8610ed56130e3565b6008546001600160a01b0316600f61383a565b610ef06136c7565b610efa84836139a3565b610f0384610b5e565b9050610f0e81613a8e565b610f1b3384848488613b3a565b610f245f601355565b604080516001600160a01b038581168252602082018790528416917f09fbb654e02253d6c37ecb473c5ed6f4557cac3fe5abc1d559523f6e257ee18591015b60405180910390a2610d4f613bfa565b5f610b6960085f015f9054906101000a90046001600160a01b03166001600160a01b03166301e1d1146040518163ffffffff1660e01b8152600401602060405180830381865afa158015610fc9573d5f5f3e3d5ffd5b505050506040513d601f19601f82011682018060405250810190610fed91906169a7565b61100e6104bc856001600160a01b03165f9081526020819052604090205490565b613cd4565b6005546040805163093a953d60e21b815290516001600160a01b03909216916391d148549183916324ea54f4916004808201926020929091908290030181865afa158015611063573d5f5f3e3d5ffd5b505050506040513d601f19601f8201168201806040525081019061108791906169a7565b336040518363ffffffff1660e01b81526004016110a592919061693b565b602060405180830381865afa1580156110c0573d5f5f3e3d5ffd5b505050506040513d601f19601f820116820180604052508101906110e49190616961565b1580156111bf575060055460408051630ccc574960e41b815290516001600160a01b03909216916391d1485491839163ccc57490916004808201926020929091908290030181865afa15801561113c573d5f5f3e3d5ffd5b505050506040513d601f19601f8201168201806040525081019061116091906169a7565b336040518363ffffffff1660e01b815260040161117e92919061693b565b602060405180830381865afa158015611199573d5f5f3e3d5ffd5b505050506040513d601f19601f820116820180604052508101906111bd9190616961565b155b156111df57604051636b2a758d60e01b8152336004820152602401610ca6565b6111e7613ce3565b6111ef613d0d565b565b5f5f6111fb610aac565b90505f600860020154821161121d57600a546112189083906169be565b61121f565b5f5b90506112b1817f00000000000000000000000000000000000000000000000000000000000000006040516370a0823160e01b81526001600160a01b03888116600483015291909116906370a08231906024015b602060405180830381865afa15801561128d573d5f5f3e3d5ffd5b505050506040513d601f19601f8201168201806040525081019061100e91906169a7565b949350505050565b6005546001600160a01b03166391d148546112d45f306118ff565b336040518363ffffffff1660e01b81526004016112f292919061693b565b602060405180830381865afa15801561130d573d5f5f3e3d5ffd5b505050506040513d601f19601f820116820180604052508101906113319190616961565b611350576040516363b52ed760e11b8152336004820152602401610ca6565b6113586136c7565b60098190556040518181527f3ba130ec8df44f0a71243af1b7f9f4239616bafda97ae766b3c40a9d202b21a490602001610ce8565b5f6113966136c7565b816040516113a491906169d1565b604051908190038120906001600160a01b038516907f38383a2eb7bd8ee888f12fb942a2e22e84f2d7240f1f8541ad4bbddace6e3442905f90a36112b18484612a1b565b60055460408051630ccc574960e41b815290516001600160a01b03909216916391d1485491839163ccc57490916004808201926020929091908290030181865afa158015611438573d5f5f3e3d5ffd5b505050506040513d601f19601f8201168201806040525081019061145c91906169a7565b336040518363ffffffff1660e01b815260040161147a92919061693b565b602060405180830381865afa158015611495573d5f5f3e3d5ffd5b505050506040513d601f19601f820116820180604052508101906114b99190616961565b6114d857604051630ea7d7ed60e21b8152336004820152602401610ca6565b6114e06136c7565b6114e981613d45565b50565b5f7f00000000000000000000000000000000000000000000000000000000000000006001600160a01b0316635b0f83f36040518163ffffffff1660e01b8152600401602060405180830381865afa158015610bef573d5f5f3e3d5ffd5b6005546001600160a01b03166391d148546115645f306118ff565b336040518363ffffffff1660e01b815260040161158292919061693b565b602060405180830381865afa15801561159d573d5f5f3e3d5ffd5b505050506040513d601f19601f820116820180604052508101906115c19190616961565b6115e0576040516363b52ed760e11b8152336004820152602401610ca6565b6115e86136c7565b6001600160a01b03811661160f5760405163a0394e6160e01b815260040160405180910390fd5b6005546040516001600160a01b0390911690309061162c90616500565b6001600160a01b03928316815291166020820152604001604051809103905ff08015801561165c573d5f5f3e3d5ffd5b50600c80546001600160a01b0319166001600160a01b0392831617905560405190821681527f8f407169a2fff9de40408b8d482b293eff9e2dbc448da0593fa9a39d428a410490602001610ce8565b5f6116b46136c7565b6116bd84610b86565b90506116ca848284613da9565b600854604080516278744560e21b815290515f926001600160a01b0316916301e1d1149160048083019260209291908290030181865afa158015611710573d5f5f3e3d5ffd5b505050506040513d601f19601f8201168201806040525081019061173491906169a7565b60085490915061174d906001600160a01b031686613e94565b61175a3385858886613b3a565b336001600160a01b03167fe68a55afda2dca8343871fe0e5575a383291a40ae7d53e4dee12faf79cde144e8260085f015f9054906101000a90046001600160a01b03166001600160a01b03166301e1d1146040518163ffffffff1660e01b8152600401602060405180830381865afa1580156117d8573d5f5f3e3d5ffd5b505050506040513d601f19601f820116820180604052508101906117fc91906169a7565b6040805192835260208301919091520160405180910390a2509392505050565b5f7f00000000000000000000000000000000000000000000000000000000000000006001600160a01b03166361d027b36040518163ffffffff1660e01b8152600401602060405180830381865afa158015610bef573d5f5f3e3d5ffd5b5f5f6011544261188991906169be565b90505f306001600160a01b03166318160ddd6040518163ffffffff1660e01b8152600401602060405180830381865afa1580156118c8573d5f5f3e3d5ffd5b505050506040513d601f19601f820116820180604052508101906118ec91906169a7565b90506118f88183613efd565b9250505090565b5f82826040516020016119139291906169fb565b60405160208183030381529060405280519060200120905092915050565b5f61193a613715565b506119576119466130e3565b6008546001600160a01b0316613f77565b506119606136c7565b61196a83336141a5565b600854604080516278744560e21b815290515f926001600160a01b0316916301e1d1149160048083019260209291908290030181865afa1580156119b0573d5f5f3e3d5ffd5b505050506040513d601f19601f820116820180604052508101906119d491906169a7565b90506119df84612576565b91506119ed338486856141d8565b600854611a03906001600160a01b03168561426a565b336001600160a01b03167fe68a55afda2dca8343871fe0e5575a383291a40ae7d53e4dee12faf79cde144e8260085f015f9054906101000a90046001600160a01b03166001600160a01b03166301e1d1146040518163ffffffff1660e01b8152600401602060405180830381865afa158015611a81573d5f5f3e3d5ffd5b505050506040513d601f19601f82011682018060405250810190611aa591906169a7565b6040805192835260208301919091520160405180910390a250610b69613bfa565b5f7f00000000000000000000000000000000000000000000000000000000000000006001600160a01b0316637aaceb956040518163ffffffff1660e01b8152600401602060405180830381865afa158015610bef573d5f5f3e3d5ffd5b6005546040805163093a953d60e21b815290516001600160a01b03909216916391d148549183916324ea54f4916004808201926020929091908290030181865afa158015611b73573d5f5f3e3d5ffd5b505050506040513d601f19601f82011682018060405250810190611b9791906169a7565b336040518363ffffffff1660e01b8152600401611bb592919061693b565b602060405180830381865afa158015611bd0573d5f5f3e3d5ffd5b505050506040513d601f19601f82011682018060405250810190611bf49190616961565b158015611ccf575060055460408051630ccc574960e41b815290516001600160a01b03909216916391d1485491839163ccc57490916004808201926020929091908290030181865afa158015611c4c573d5f5f3e3d5ffd5b505050506040513d601f19601f82011682018060405250810190611c7091906169a7565b336040518363ffffffff1660e01b8152600401611c8e92919061693b565b602060405180830381865afa158015611ca9573d5f5f3e3d5ffd5b505050506040513d601f19601f82011682018060405250810190611ccd9190616961565b155b15611cef57604051636b2a758d60e01b8152336004820152602401610ca6565b611cf76136c7565b6111ef614336565b5f610b69611d7c60085f015f9054906101000a90046001600160a01b03166001600160a01b03166301e1d1146040518163ffffffff1660e01b8152600401602060405180830381865afa158015611d58573d5f5f3e3d5ffd5b505050506040513d601f19601f820116820180604052508101906104f291906169a7565b6001600160a01b0384165f90815260208190526040902054613cd4565b5f611da2613715565b50611dae6119466130e3565b50611db76136c7565b611dc18333614344565b600854604080516278744560e21b815290515f926001600160a01b0316916301e1d1149160048083019260209291908290030181865afa158015611e07573d5f5f3e3d5ffd5b505050506040513d601f19601f82011682018060405250810190611e2b91906169a7565b9050611e3684612191565b9150611e44338484876141d8565b600854611a03906001600160a01b03168361426a565b606060048054610add906168de565b60055460408051630ccc574960e41b815290516001600160a01b03909216916391d1485491839163ccc57490916004808201926020929091908290030181865afa158015611eb9573d5f5f3e3d5ffd5b505050506040513d601f19601f82011682018060405250810190611edd91906169a7565b336040518363ffffffff1660e01b8152600401611efb92919061693b565b602060405180830381865afa158015611f16573d5f5f3e3d5ffd5b505050506040513d601f19601f82011682018060405250810190611f3a9190616961565b611f5957604051630ea7d7ed60e21b8152336004820152602401610ca6565b611f616136c7565b6114e981614377565b5f611f73613715565b50611f7f610ed56130e3565b611f876136c7565b611f9084610b86565b9050611f9d8482846144a1565b611fa684613a8e565b611fb33384848785613b3a565b611fbc5f601355565b604080516001600160a01b038581168252602082018790528416917fd4383faec5079b2ec7ac0ff240326baa0d584b03d51b9742f7c1a034f6fc015b9101610f63565b306323b872dd336040516001600160e01b031960e084901b1681526001600160a01b039091166004820152306024820152604481018490526064016020604051808303815f875af1158015612056573d5f5f3e3d5ffd5b505050506040513d601f19601f8201168201806040525081019061207a9190616961565b50600c5460405163095ea7b360e01b81526001600160a01b03909116600482015260248101829052309063095ea7b3906044016020604051808303815f875af11580156120c9573d5f5f3e3d5ffd5b505050506040513d601f19601f820116820180604052508101906120ed9190616961565b506114e9338261453a565b5f5f306001600160a01b031663c3f909d46040518163ffffffff1660e01b815260040160a060405180830381865afa158015612136573d5f5f3e3d5ffd5b505050506040513d601f19601f8201168201806040525081019061215a9190616a3e565b905080608001516001600160a01b03166121713390565b6001600160a01b031603610d36576121898484614588565b915050610b69565b5f610b69826001613653565b5f6121a6613715565b506121b2610ed56130e3565b6121ba6136c7565b600854604080516278744560e21b815290515f926001600160a01b0316916301e1d1149160048083019260209291908290030181865afa158015612200573d5f5f3e3d5ffd5b505050506040513d601f19601f8201168201806040525081019061222491906169a7565b90505f198503612253576001600160a01b0383165f9081526020819052604090205461224f81610b5e565b9550505b80851161226c576122658585856116ab565b915061227a565b612277858585611f6a565b91505b50610d4f613bfa565b6005546001600160a01b03166391d1485461229e5f306118ff565b336040518363ffffffff1660e01b81526004016122bc92919061693b565b602060405180830381865afa1580156122d7573d5f5f3e3d5ffd5b505050506040513d601f19601f820116820180604052508101906122fb9190616961565b61231a576040516363b52ed760e11b8152336004820152602401610ca6565b81612326600d82613819565b61234e57604051632767039f60e01b81526001600160a01b0382166004820152602401610ca6565b6123566136c7565b6040516361f5cd8b60e01b8152600481018390526001600160a01b038416906361f5cd8b90602401610e8e565b5f61238c613715565b50612398610ed56130e3565b6123a06136c7565b600854604080516278744560e21b815290515f926001600160a01b0316916301e1d1149160048083019260209291908290030181865afa1580156123e6573d5f5f3e3d5ffd5b505050506040513d601f19601f8201168201806040525081019061240a91906169a7565b90505f61241682612576565b90505f19860361243b576001600160a01b0384165f9081526020819052604090205495505b8086116124545761244d8686866130ef565b9250612462565b61245f868686610ec0565b92505b5050610d4f613bfa565b6124ab6040518060a001604052805f6001600160a01b031681526020015f81526020015f81526020015f81526020015f6001600160a01b031681525090565b506040805160a0810182526008546001600160a01b0390811682526009546020830152600a5492820192909252600b546060820152600c54909116608082015290565b5f5f6124f8610aac565b90505f600860020154821161251a57600a546125159083906169be565b61251c565b5f5b90506112b16108c4827f00000000000000000000000000000000000000000000000000000000000000006040516370a0823160e01b81526001600160a01b03898116600483015291909116906370a0823190602401611272565b5f610b69825f613698565b6005546001600160a01b03166391d1485461259d6001306118ff565b336040518363ffffffff1660e01b81526004016125bb92919061693b565b602060405180830381865afa1580156125d6573d5f5f3e3d5ffd5b505050506040513d601f19601f820116820180604052508101906125fa9190616961565b1580156126d55750600554604080516366e943f160e01b815290516001600160a01b03909216916391d148549183916366e943f1916004808201926020929091908290030181865afa158015612652573d5f5f3e3d5ffd5b505050506040513d601f19601f8201168201806040525081019061267691906169a7565b336040518363ffffffff1660e01b815260040161269492919061693b565b602060405180830381865afa1580156126af573d5f5f3e3d5ffd5b505050506040513d601f19601f820116820180604052508101906126d39190616961565b155b156126f5576040516329068e8160e21b8152336004820152602401610ca6565b60125460135461270590426169be565b101561273957601354601254604051630924dbf160e21b815260048101929092526024820152426044820152606401610ca6565b42601355612745613715565b5061274e6136c7565b6127588282614595565b6127628282614685565b5f61276d838361489d565b60405181815290915033907f4bd1a9dd6e8410a6d85178f9a75d601cb7b266e228771c213fe39ffffad2d3299060200160405180910390a2505050565b60055460408051630ccc574960e41b815290516001600160a01b03909216916391d1485491839163ccc57490916004808201926020929091908290030181865afa1580156127fa573d5f5f3e3d5ffd5b505050506040513d601f19601f8201168201806040525081019061281e91906169a7565b336040518363ffffffff1660e01b815260040161283c92919061693b565b602060405180830381865afa158015612857573d5f5f3e3d5ffd5b505050506040513d601f19601f8201168201806040525081019061287b9190616961565b61289a57604051630ea7d7ed60e21b8152336004820152602401610ca6565b6128a26136c7565b5f5b818110156128e3576128db8383838181106128c1576128c1616a9d565b90506020020160208101906128d6919061661f565b61493b565b6001016128a4565b505050565b5f610b69610fed612aae565b5f612900600d83613819565b80610b695750506008546001600160a01b0390811691161490565b6005546001600160a01b03166391d148546129365f306118ff565b336040518363ffffffff1660e01b815260040161295492919061693b565b602060405180830381865afa15801561296f573d5f5f3e3d5ffd5b505050506040513d601f19601f820116820180604052508101906129939190616961565b6129b2576040516363b52ed760e11b8152336004820152602401610ca6565b816129be600d82613819565b6129e657604051632767039f60e01b81526001600160a01b0382166004820152602401610ca6565b6129ee6136c7565b60405163497af41960e11b8152600481018390526001600160a01b038416906392f5e83290602401610e8e565b5f612a246136c7565b612a2e8330611931565b600c5460405163095ea7b360e01b81526001600160a01b03909116600482015260248101829052909150309063095ea7b3906044016020604051808303815f875af1158015612a7f573d5f5f3e3d5ffd5b505050506040513d601f19601f82011682018060405250810190612aa39190616961565b50610b69828261453a565b5f610ac9612aba6130e3565b6008546001600160a01b0316600f614b3a565b6005546001600160a01b03166391d14854612ae85f306118ff565b336040518363ffffffff1660e01b8152600401612b0692919061693b565b602060405180830381865afa158015612b21573d5f5f3e3d5ffd5b505050506040513d601f19601f82011682018060405250810190612b459190616961565b612b64576040516363b52ed760e11b8152336004820152602401610ca6565b612b6c6136c7565b600a8190556040518181527f4faeac5aec9fa2e6f82ae7ccfef27a03ca3ff9d8c5356fea9acb2caad1c4c34490602001610ce8565b5f610b69611d7c6108c4612aae565b60055460408051630ccc574960e41b815290516001600160a01b03909216916391d1485491839163ccc57490916004808201926020929091908290030181865afa158015612c00573d5f5f3e3d5ffd5b505050506040513d601f19601f82011682018060405250810190612c2491906169a7565b336040518363ffffffff1660e01b8152600401612c4292919061693b565b602060405180830381865afa158015612c5d573d5f5f3e3d5ffd5b505050506040513d601f19601f82011682018060405250810190612c819190616961565b612ca057604051630ea7d7ed60e21b8152336004820152602401610ca6565b612ca86136c7565b6114e981614cba565b60055460408051630ccc574960e41b815290516001600160a01b03909216916391d1485491839163ccc57490916004808201926020929091908290030181865afa158015612d01573d5f5f3e3d5ffd5b505050506040513d601f19601f82011682018060405250810190612d2591906169a7565b336040518363ffffffff1660e01b8152600401612d4392919061693b565b602060405180830381865afa158015612d5e573d5f5f3e3d5ffd5b505050506040513d601f19601f82011682018060405250810190612d829190616961565b612da157604051630ea7d7ed60e21b8152336004820152602401610ca6565b612da96136c7565b6114e981614cfb565b60055460408051630ccc574960e41b815290516001600160a01b03909216916391d1485491839163ccc57490916004808201926020929091908290030181865afa158015612e02573d5f5f3e3d5ffd5b505050506040513d601f19601f82011682018060405250810190612e2691906169a7565b336040518363ffffffff1660e01b8152600401612e4492919061693b565b602060405180830381865afa158015612e5f573d5f5f3e3d5ffd5b505050506040513d601f19601f82011682018060405250810190612e839190616961565b612ea257604051630ea7d7ed60e21b8152336004820152602401610ca6565b612eaa6136c7565b6114e98161493b565b60055460408051630ccc574960e41b815290516001600160a01b03909216916391d1485491839163ccc57490916004808201926020929091908290030181865afa158015612f03573d5f5f3e3d5ffd5b505050506040513d601f19601f82011682018060405250810190612f2791906169a7565b336040518363ffffffff1660e01b8152600401612f4592919061693b565b602060405180830381865afa158015612f60573d5f5f3e3d5ffd5b505050506040513d601f19601f82011682018060405250810190612f849190616961565b612fa357604051630ea7d7ed60e21b8152336004820152602401610ca6565b612fab613715565b50612fb46136c7565b612fbe8282614595565b612fc88282614d30565b6128e3828261489d565b5f5f306001600160a01b03166301e1d1146040518163ffffffff1660e01b8152600401602060405180830381865afa158015613010573d5f5f3e3d5ffd5b505050506040513d601f19601f8201168201806040525081019061303491906169a7565b90505f6130a1846001600160a01b031663bdcdd8826040518163ffffffff1660e01b8152600401602060405180830381865afa158015613076573d5f5f3e3d5ffd5b505050506040513d601f19601f8201168201806040525081019061309a91906169a7565b8390614d77565b90506112b181856001600160a01b031663dbd5edc76040518163ffffffff1660e01b8152600401602060405180830381865afa15801561128d573d5f5f3e3d5ffd5b6060610ac9600d614da3565b5f6130f8613715565b50613104610ed56130e3565b61310c6136c7565b6131168483614daf565b600854604080516278744560e21b815290515f926001600160a01b0316916301e1d1149160048083019260209291908290030181865afa15801561315c573d5f5f3e3d5ffd5b505050506040513d601f19601f8201168201806040525081019061318091906169a7565b905061318b85610b5e565b6008549092506131a4906001600160a01b031683613e94565b6131b13385858589613b3a565b336001600160a01b03167fe68a55afda2dca8343871fe0e5575a383291a40ae7d53e4dee12faf79cde144e8260085f015f9054906101000a90046001600160a01b03166001600160a01b03166301e1d1146040518163ffffffff1660e01b8152600401602060405180830381865afa15801561322f573d5f5f3e3d5ffd5b505050506040513d601f19601f8201168201806040525081019061325391906169a7565b6040805192835260208301919091520160405180910390a250610d4f613bfa565b6005546001600160a01b03166391d1485461328f5f306118ff565b336040518363ffffffff1660e01b81526004016132ad92919061693b565b602060405180830381865afa1580156132c8573d5f5f3e3d5ffd5b505050506040513d601f19601f820116820180604052508101906132ec9190616961565b61330b576040516363b52ed760e11b8152336004820152602401610ca6565b81613317600d82613819565b61333f57604051632767039f60e01b81526001600160a01b0382166004820152602401610ca6565b6133476136c7565b604051634fc7fac360e01b8152600481018390526001600160a01b03841690634fc7fac390602401610e8e565b5f61337d6136c7565b8160405161338b91906169d1565b604051908190038120906001600160a01b038516907f38383a2eb7bd8ee888f12fb942a2e22e84f2d7240f1f8541ad4bbddace6e3442905f90a36112b18484611931565b6005546001600160a01b03166391d148546133eb6001306118ff565b336040518363ffffffff1660e01b815260040161340992919061693b565b602060405180830381865afa158015613424573d5f5f3e3d5ffd5b505050506040513d601f19601f820116820180604052508101906134489190616961565b1580156135235750600554604080516366e943f160e01b815290516001600160a01b03909216916391d148549183916366e943f1916004808201926020929091908290030181865afa1580156134a0573d5f5f3e3d5ffd5b505050506040513d601f19601f820116820180604052508101906134c491906169a7565b336040518363ffffffff1660e01b81526004016134e292919061693b565b602060405180830381865afa1580156134fd573d5f5f3e3d5ffd5b505050506040513d601f19601f820116820180604052508101906135219190616961565b155b15613543576040516329068e8160e21b8152336004820152602401610ca6565b60125460135461355390426169be565b101561358757601354601254604051630924dbf160e21b815260048101929092526024820152426044820152606401610ca6565b42601355612fab613715565b5f610b69600d83614e48565b5f8061360561360160ff196135d560017fa44c7cc604645fc9d906e0a5aeb821ecf76e473a1a4d03393ebd52161430e41b6169be565b6040516020016135e791815260200190565b604051602081830303815290604052805190602001201690565b5c90565b905080156136415761218961360160ff196135d560017fa9898051640582db44f19359a5df62a03dbff55353a9f388ea332d75dfa80fa16169be565b6112b161364e8585614e53565b614f33565b5f610d4f61365f610aac565b61366a906001616ab1565b6136755f600a616ba7565b6002546136829190616ab1565b85919085614fd2565b6128e3838383600161501d565b5f610d4f6136a782600a616ba7565b6002546136b49190616ab1565b6136bc610aac565b613682906001616ab1565b600554600160a01b900460ff16156111ef5760405163d93c066560e01b815260040160405180910390fd5b5f336136ff8582856150e1565b61370a858585615143565b506001949350505050565b5f6137296010546137255f6151a0565b1490565b156137375750426011555f90565b5f6011544261374691906169be565b9050805f03613756575f91505090565b5f306001600160a01b03166318160ddd6040518163ffffffff1660e01b8152600401602060405180830381865afa158015613793573d5f5f3e3d5ffd5b505050506040513d601f19601f820116820180604052508101906137b791906169a7565b90506137c38183613efd565b92508215613814576137dc6137d6611ac6565b846151b7565b426011556040518381527f698f29fe990d4e7770f7e74cd309da261dd03ca828f7bb3c2ea8b8c9adcc0ecd9060200160405180910390a15b505090565b6001600160a01b0381165f9081526001830160205260408120541515610d4f565b5f6138458484613f77565b90505f81516001600160401b038111156138615761386161663a565b6040519080825280602002602001820160405280156138a557816020015b604080518082019091525f808252602082015281526020019060019003908161387f5790505b5090505f80805b845181101561398457600185516138c391906169be565b8114806139075750855f8683815181106138df576138df616a9d565b602090810291909101810151516001600160a01b031682528101919091526040015f205460ff165b1561397c5784818151811061391e5761391e616a9d565b602002602001015184838151811061393857613938616a9d565b602002602001018190525084818151811061395557613955616a9d565b6020026020010151602001518361396c9190616ab1565b92508161397881616bb5565b9250505b6001016138ac565b50808352613991826151c1565b61399a8361522b565b610eb783615310565b336001600160a01b03821614801590613a275750604051636eb1769f60e11b81526001600160a01b03821660048201523360248201528290309063dd62ed3e90604401602060405180830381865afa158015613a01573d5f5f3e3d5ffd5b505050506040513d601f19601f82011682018060405250810190613a2591906169a7565b105b15613a5b57335b604051630c849df760e41b81526001600160a01b0391821660048201529082166024820152604401610ca6565b5f613a6582612ba1565b9050808311156128e357818382604051632e52afbb60e21b8152600401610ca693929190616bcd565b5f613a97615422565b90505f5b81518110156128e3575f828281518110613ab757613ab7616a9d565b6020026020010151602001519050838110613af857613af2838381518110613ae157613ae1616a9d565b60200260200101515f015185613e94565b50505050565b8015613b3157613b24838381518110613b1357613b13616a9d565b60200260200101515f015182613e94565b613b2e81856169be565b93505b50600101613a9b565b826001600160a01b0316856001600160a01b031614613b5e57613b5e8386836150e1565b613b6883826155de565b613b937f00000000000000000000000000000000000000000000000000000000000000008584615612565b826001600160a01b0316846001600160a01b0316866001600160a01b03167ffbde797d201c681b91056529119e0b02407c7bb96a4a2c75c01fc9667232c8db8585604051613beb929190918252602082015260400190565b60405180910390a45050505050565b613c355f613c2f60ff196135d560017fa44c7cc604645fc9d906e0a5aeb821ecf76e473a1a4d03393ebd52161430e41b6169be565b90615671565b613c6a5f613c2f60ff196135d560017f98932279f8646d348f86cf154406d1fab3c6a0c52686d604c7d4a6a1400381096169be565b613c9f5f613c2f60ff196135d560017f410d83ac3c7a0c2a0669e43e3a5ca6694ee49455f748efa9954a95c3752e9fc96169be565b6111ef5f613c2f60ff196135d560017f2e756c3932ba771b80f1bae53d1177d9f7a4ced0ce66d74053b09f874cec6fff6169be565b5f828218828410028218610d4f565b600554600160a01b900460ff166111ef57604051638dfc202b60e01b815260040160405180910390fd5b600654600754613d1d9190616ab1565b421015613d3d576040516304a59e3b60e01b815260040160405180910390fd5b6111ef615678565b613d4e816156cd565b613d6b576040516319ecf1a560e31b815260040160405180910390fd5b613d73613715565b5060108190556040518181527f186e864438b783eec69fd7ce4871c28accfc0b45558ea08c48540f76094fecde90602001610ce8565b336001600160a01b03821614801590613e2d5750604051636eb1769f60e11b81526001600160a01b03821660048201523360248201528290309063dd62ed3e90604401602060405180830381865afa158015613e07573d5f5f3e3d5ffd5b505050506040513d601f19601f82011682018060405250810190613e2b91906169a7565b105b15613e6157335b604051638b27f8ed60e01b81526001600160a01b0391821660048201529082166024820152604401610ca6565b5f613e6b82610f73565b905080841115613af257818482604051633fa733bb60e21b8152600401610ca693929190616bcd565b604080516020810182525f81529051630278811f60e31b81526001600160a01b038416916313c408f891613ecc918591600401616bee565b5f604051808303815f87803b158015613ee3575f5ffd5b505af1158015613ef5573d5f5f3e3d5ffd5b505050505050565b5f5f6301e13380601054613f119190616c1a565b90505f613f54613f37613f266012600a616c2d565b613f31906064616c38565b846156ee565b85613f446012600a616c2d565b613f4f906064616c38565b6156f9565b90505f613f618683614d77565b9050613f6d86826169be565b9695505050505050565b606082516001613f879190616ab1565b6001600160401b03811115613f9e57613f9e61663a565b604051908082528060200260200182016040528015613fe257816020015b604080518082019091525f8082526020820152815260200190600190039081613fbc5790505b5090505f805b84518110156140d6575f85828151811061400457614004616a9d565b60200260200101516001600160a01b03166301e1d1146040518163ffffffff1660e01b8152600401602060405180830381865afa158015614047573d5f5f3e3d5ffd5b505050506040513d601f19601f8201168201806040525081019061406b91906169a7565b9050604051806040016040528087848151811061408a5761408a616a9d565b60200260200101516001600160a01b03168152602001828152508483815181106140b6576140b6616a9d565b60209081029190910101526140cb8184616ab1565b925050600101613fe8565b505f836001600160a01b03166301e1d1146040518163ffffffff1660e01b8152600401602060405180830381865afa158015614114573d5f5f3e3d5ffd5b505050506040513d601f19601f8201168201806040525081019061413891906169a7565b90506040518060400160405280856001600160a01b03168152602001828152508386518151811061416b5761416b616a9d565b60209081029190910101526141808183616ab1565b915061418b8361522b565b61419482615707565b61419d83615771565b505092915050565b5f6141af826111f1565b9050808311156128e357818382604051633c8097d960e11b8152600401610ca693929190616bcd565b6142047f0000000000000000000000000000000000000000000000000000000000000000853085615855565b61420e838261588e565b826001600160a01b0316846001600160a01b03167fdcbc1c05240f31ff3ad067ef1ee35ce4997762752e3a095284754544f4c709d7848460405161425c929190918252602082015260400190565b60405180910390a350505050565b7f000000000000000000000000000000000000000000000000000000000000000060405163095ea7b360e01b81526001600160a01b03848116600483015260248201849052919091169063095ea7b3906044016020604051808303815f875af11580156142d9573d5f5f3e3d5ffd5b505050506040513d601f19601f820116820180604052508101906142fd9190616961565b50604080516020810182525f81529051632db6d39960e01b81526001600160a01b03841691632db6d39991613ecc918591600401616bee565b61433e6158c2565b42600755565b5f61434e826124ee565b9050808311156128e35781838260405163284ff66760e01b8152600401610ca693929190616bcd565b614380816128f4565b6143a857604051632767039f60e01b81526001600160a01b0382166004820152602401610ca6565b6143b181615905565b6143bc600d82615a1d565b50806001600160a01b031663ebf311316040518163ffffffff1660e01b81526004015f604051808303815f87803b1580156143f5575f5ffd5b505af1158015614407573d5f5f3e3d5ffd5b505060055460405163d55dd62b60e01b81526001600160a01b03909116925063d55dd62b915061443e906002908590600401616c4f565b5f604051808303815f87803b158015614455575f5ffd5b505af1158015614467573d5f5f3e3d5ffd5b50506040516001600160a01b03841692507f66d72a91b52f63fb063c4f672763d7ef15ce4d7c9a268a7f9b5133e41c1709a591505f90a250565b336001600160a01b038216148015906145255750604051636eb1769f60e11b81526001600160a01b03821660048201523360248201528290309063dd62ed3e90604401602060405180830381865afa1580156144ff573d5f5f3e3d5ffd5b505050506040513d601f19601f8201168201806040525081019061452391906169a7565b105b156145305733613e34565b5f613e6b826128e8565b600c546001600160a01b03161561458457600c54604051632305af7160e11b81526001600160a01b038481166004830152602482018490529091169063460b5ee290604401613ecc565b5050565b5f33610b7c818585615143565b600b548111156145bb5760405163899a5d8160e01b815260048101829052602401610ca6565b5f8190036145dc576040516304dcdcd560e31b815260040160405180910390fd5b5f5b818110156128e35761467d8383838181106145fb576145fb616a9d565b905060200281019061460d9190616c87565b61461b90602081019061661f565b84848481811061462d5761462d616a9d565b905060200281019061463f9190616c87565b61465090604081019060200161661f565b85858581811061466257614662616a9d565b90506020028101906146749190616c87565b60400135615a31565b6001016145de565b6008545f906001600160a01b0316838383816146a3576146a3616a9d565b90506020028101906146b59190616c87565b6146c690604081019060200161661f565b6001600160a01b03161490505f60085f015f9054906101000a90046001600160a01b03166001600160a01b03166301e1d1146040518163ffffffff1660e01b8152600401602060405180830381865afa158015614725573d5f5f3e3d5ffd5b505050506040513d601f19601f8201168201806040525081019061474991906169a7565b90505f805b848110156148865761478c8487878481811061476c5761476c616a9d565b905060200281019061477e9190616c87565b61478790616ca5565b615cc0565b5f86868381811061479f5761479f616a9d565b90506020028101906147b19190616c87565b6040013590505f19810361487157846147dd5760405163055bb2a160e41b815260040160405180910390fd5b8686838181106147ef576147ef616a9d565b90506020028101906148019190616c87565b61480f90602081019061661f565b6001600160a01b03166301e1d1146040518163ffffffff1660e01b8152600401602060405180830381865afa15801561484a573d5f5f3e3d5ffd5b505050506040513d601f19601f8201168201806040525081019061486e91906169a7565b90505b61487b8184616ab1565b92505060010161474e565b5082614896576148968282615d22565b5050505050565b5f805b828110156148f1576148dd8484838181106148bd576148bd616a9d565b90506020028101906148cf9190616c87565b6148d890616ca5565b615d79565b6148e79083616ab1565b91506001016148a0565b50336001600160a01b03167f507d790d4c0157977bb25bd8941f5f91c3118eab68b257c1d1c0825cb0051fd9848460405161492d929190616daa565b60405180910390a292915050565b6001600160a01b0381166149625760405163210e96cb60e01b815260040160405180910390fd5b61496b816128f4565b1561499457604051637eadea0960e11b81526001600160a01b0382166004820152602401610ca6565b806001600160a01b031663303dbaf36040518163ffffffff1660e01b8152600401602060405180830381865afa1580156149d0573d5f5f3e3d5ffd5b505050506040513d601f19601f820116820180604052508101906149f49190616961565b6001600160a01b0382165f818152600f6020526040808220805460ff191694159490941790935582516330fe427560e21b81529251909263c3f909d491600480830192869291908290030181865afa158015614a52573d5f5f3e3d5ffd5b505050506040513d5f823e601f3d908101601f19168201604052614a799190810190616ee7565b516001600160a01b031614614aa157604051631089e45f60e21b815260040160405180910390fd5b806001600160a01b0316638a8b99766040518163ffffffff1660e01b81526004015f604051808303815f87803b158015614ad9575f5ffd5b505af1158015614aeb573d5f5f3e3d5ffd5b50505050614b0381600d615ebc90919063ffffffff16565b506040516001600160a01b038216907fcb4a29d359e86f179111dcba8714def1a859612f729f2d224d13efeac51b36bc905f90a250565b5f80614b7061360160ff196135d560017f98932279f8646d348f86cf154406d1fab3c6a0c52686d604c7d4a6a1400381096169be565b90508015614bb457614bac61360160ff196135d560017f3d5fcbe10cf86b117683d0d4967b64a0c0fa4bdda7d07499d3c9dc5e388b69416169be565b915050610d4f565b5f614bbf8686614e53565b90505f5b8151811015614cb05760018251614bda91906169be565b811480614c1d5750845f838381518110614bf657614bf6616a9d565b6020908102919091018101516001600160a01b031682528101919091526040015f205460ff165b15614ca857818181518110614c3457614c34616a9d565b60200260200101516001600160a01b03166301e1d1146040518163ffffffff1660e01b8152600401602060405180830381865afa158015614c77573d5f5f3e3d5ffd5b505050506040513d601f19601f82011682018060405250810190614c9b91906169a7565b614ca59085616ab1565b93505b600101614bc3565b5050509392505050565b60125460408051918252602082018390527f5953b565c074c2cce1866b4e69c9efc4908556bb6fca70f735907c94d9405515910160405180910390a1601255565b60068190556040518181527f3cf175d91d8c5823f3729423b5a64130e40d4b09e88c6dc1925a260f26818c2590602001610ce8565b5f5b818110156128e357614d6f838383818110614d4f57614d4f616a9d565b9050602002810190614d619190616c87565b614d6a90616ca5565b615ed0565b600101614d32565b5f614d846012600a616c2d565b614d8f906064616c38565b614d998385616c38565b610d4f9190616c1a565b60605f610d4f83615f1e565b336001600160a01b03821614801590614e335750604051636eb1769f60e11b81526001600160a01b03821660048201523360248201528290309063dd62ed3e90604401602060405180830381865afa158015614e0d573d5f5f3e3d5ffd5b505050506040513d601f19601f82011682018060405250810190614e3191906169a7565b105b15614e3e5733613a2e565b5f613a6582611cff565b5f610d4f8383615f77565b60605f83516001614e649190616ab1565b6001600160401b03811115614e7b57614e7b61663a565b604051908082528060200260200182016040528015614ea4578160200160208202803683370190505b5090505f5b8451811015614efe57848181518110614ec457614ec4616a9d565b6020026020010151828281518110614ede57614ede616a9d565b6001600160a01b0390921660209283029190910190910152600101614ea9565b508281855181518110614f1357614f13616a9d565b6001600160a01b0390921660209283029190910190910152905092915050565b5f805b8251811015614fcc57828181518110614f5157614f51616a9d565b60200260200101516001600160a01b03166301e1d1146040518163ffffffff1660e01b8152600401602060405180830381865afa158015614f94573d5f5f3e3d5ffd5b505050506040513d601f19601f82011682018060405250810190614fb891906169a7565b614fc29083616ab1565b9150600101614f36565b50919050565b5f614fff614fdf83615f9d565b8015614ffa57505f8480614ff557614ff5616c06565b868809115b151590565b61500a868686615fc9565b6150149190616ab1565b95945050505050565b6001600160a01b0384166150465760405163e602df0560e01b81525f6004820152602401610ca6565b6001600160a01b03831661506f57604051634a1406b160e11b81525f6004820152602401610ca6565b6001600160a01b038085165f9081526001602090815260408083209387168352929052208290558015613af257826001600160a01b0316846001600160a01b03167f8c5be1e5ebec7d5bd14f71427d1e84f3dd0314c0f7b2291e5b200ac8c7c3b9258460405161425c91815260200190565b6001600160a01b038381165f908152600160209081526040808320938616835292905220545f198114613af2578181101561513557828183604051637dc7a0d960e11b8152600401610ca693929190616bcd565b613af284848484035f61501d565b6001600160a01b03831661516c57604051634b637e8f60e11b81525f6004820152602401610ca6565b6001600160a01b0382166151955760405163ec442f0560e01b81525f6004820152602401610ca6565b6128e383838361607f565b5f6151ad6012600a616c2d565b610b699083616c38565b614584828261588e565b6151f681613c2f60ff196135d560017f3d5fcbe10cf86b117683d0d4967b64a0c0fa4bdda7d07499d3c9dc5e388b69416169be565b6114e96001613c2f60ff196135d5837f98932279f8646d348f86cf154406d1fab3c6a0c52686d604c7d4a6a1400381096169be565b5f5b8151811015614584575f615242826001616ab1565b90505b82518110156153075782818151811061526057615260616a9d565b60200260200101516020015183838151811061527e5761527e616a9d565b60200260200101516020015111156152ff578281815181106152a2576152a2616a9d565b60200260200101518383815181106152bc576152bc616a9d565b60200260200101518484815181106152d6576152d6616a9d565b602002602001018584815181106152ef576152ef616a9d565b6020026020010182905282905250505b600101615245565b5060010161522d565b6114e98160ff1961534260017f8f2b8f2fcb6f2e256bfd8c09fcca564574482705250cb5c8dbe56c4f4fce37c96169be565b60405160200161535491815260200190565b60408051601f1981840301815291905280516020909101201660ff1961539b60017f05abb041f8dc8945baa4f2792e2109e9d9e22dea3aa665ccf2f030209c7415ae6169be565b6040516020016153ad91815260200190565b60408051601f1981840301815291905280516020909101201660ff196153f460017f410d83ac3c7a0c2a0669e43e3a5ca6694ee49455f748efa9954a95c3752e9fc96169be565b60405160200161540691815260200190565b6040516020818303038152906040528051906020012016616192565b60605f61545961360160ff196135d560017f410d83ac3c7a0c2a0669e43e3a5ca6694ee49455f748efa9954a95c3752e9fc96169be565b9050806001600160401b038111156154735761547361663a565b6040519080825280602002602001820160405280156154b757816020015b604080518082019091525f80825260208201528152602001906001900390816154915790505b5091505f5b81811015613814575f61552e61360161552b60ff196154fc60017f05abb041f8dc8945baa4f2792e2109e9d9e22dea3aa665ccf2f030209c7415ae6169be565b60405160200161550e91815260200190565b60405160208183030381529060405280519060200120168561620d565b90565b90505f61559761360161552b60ff1961556860017f8f2b8f2fcb6f2e256bfd8c09fcca564574482705250cb5c8dbe56c4f4fce37c96169be565b60405160200161557a91815260200190565b60405160208183030381529060405280519060200120168661620d565b90506040518060400160405280836001600160a01b03168152602001828152508584815181106155c9576155c9616a9d565b602090810291909101015250506001016154bc565b6001600160a01b03821661560757604051634b637e8f60e11b81525f6004820152602401610ca6565b614584825f8361607f565b6040516001600160a01b038381166024830152604482018390526128e391859182169063a9059cbb906064015b604051602081830303815290604052915060e01b6020820180516001600160e01b038381831617835250505050616228565b80825d5050565b615680613ce3565b6005805460ff60a01b191690557f5db9ee0a495bf2e6ff9c91a7834c1ba4fdd244a5e8aa4e537bd38aeae4b073aa335b6040516001600160a01b03909116815260200160405180910390a1565b5f610b69826156de6012600a616c2d565b6156e9906064616c38565b101590565b5f610d4f8284616ab1565b5f8382613f6d828683616294565b61573c81613c2f60ff196135d560017fa9898051640582db44f19359a5df62a03dbff55353a9f388ea332d75dfa80fa16169be565b6114e96001613c2f60ff196135d5837fa44c7cc604645fc9d906e0a5aeb821ecf76e473a1a4d03393ebd52161430e41b6169be565b6114e98160ff196157a360017f5720a3c83eb8242bbe1a4159c3b45ed663cd9e207a02bdea64844c6c583da9de6169be565b6040516020016157b591815260200190565b60408051601f1981840301815291905280516020909101201660ff196157fc60017fb4b00da68d43fac77a22bb187c63cb88989e294cfebeb79b3789ae1629639d996169be565b60405160200161580e91815260200190565b60408051601f1981840301815291905280516020909101201660ff196153f460017f2e756c3932ba771b80f1bae53d1177d9f7a4ced0ce66d74053b09f874cec6fff6169be565b6040516001600160a01b038481166024830152838116604483015260648201839052613af29186918216906323b872dd9060840161563f565b6001600160a01b0382166158b75760405163ec442f0560e01b81525f6004820152602401610ca6565b6145845f838361607f565b6158ca6136c7565b6005805460ff60a01b1916600160a01b1790557f62e78cea01bee320cd4e420270b5ea74000d11b0c9f74754ebdbfc544b05a2586156b03390565b5f8190505f816001600160a01b031663dbd5edc76040518163ffffffff1660e01b8152600401602060405180830381865afa158015615946573d5f5f3e3d5ffd5b505050506040513d601f19601f8201168201806040525081019061596a91906169a7565b111561599457604051632a4d8fbb60e01b81526001600160a01b0383166004820152602401610ca6565b806001600160a01b03166301e1d1146040518163ffffffff1660e01b8152600401602060405180830381865afa1580156159d0573d5f5f3e3d5ffd5b505050506040513d601f19601f820116820180604052508101906159f491906169a7565b156145845760405163ca4a18b360e01b81526001600160a01b0383166004820152602401610ca6565b5f610d4f836001600160a01b03841661635a565b805f03615a5c57604051630a16952b60e21b81526001600160a01b0383166004820152602401610ca6565b6001600160a01b038216615a8e57604051632767039f60e01b81526001600160a01b0383166004820152602401610ca6565b6001600160a01b038316615ac057604051632767039f60e01b81526001600160a01b0384166004820152602401610ca6565b615ac9826128f4565b615af15760405163c80e655f60e01b81526001600160a01b0383166004820152602401610ca6565b615afa836128f4565b615b225760405163c80e655f60e01b81526001600160a01b0384166004820152602401610ca6565b5f836001600160a01b0316633194549e6040518163ffffffff1660e01b8152600401602060405180830381865afa158015615b5f573d5f5f3e3d5ffd5b505050506040513d601f19601f82011682018060405250810190615b8391906169a7565b905080821115615bac57838282604051637d7bf8e160e01b8152600401610ca693929190616bcd565b5f836001600160a01b031663ad5a356f6040518163ffffffff1660e01b8152600401602060405180830381865afa158015615be9573d5f5f3e3d5ffd5b505050506040513d601f19601f82011682018060405250810190615c0d91906169a7565b905080831115615c365783838260405163016b606760e21b8152600401610ca693929190616bcd565b836001600160a01b031663dbd5edc76040518163ffffffff1660e01b8152600401602060405180830381865afa158015615c72573d5f5f3e3d5ffd5b505050506040513d601f19601f82011682018060405250810190615c9691906169a7565b5f0361489657604051630b9cb3f960e11b81526001600160a01b0385166004820152602401610ca6565b818015615ce0575060085460208201516001600160a01b03908116911614155b80615d04575081158015615d04575060085481516001600160a01b03908116911614155b1561458457604051633abef25360e21b815260040160405180910390fd5b6009548211615d4757604051600162efa20760e01b0319815260040160405180910390fd5b6009545f90615d5690846169be565b9050808211156128e357604051633b5391f960e01b815260040160405180910390fd5b6020810151815160408301515f929190600101615df757806001600160a01b03166301e1d1146040518163ffffffff1660e01b8152600401602060405180830381865afa158015615dcc573d5f5f3e3d5ffd5b505050506040513d601f19601f82011682018060405250810190615df091906169a7565b9250615dff565b836040015192505b5f615e0983612fd2565b90505f836001600160a01b03166301e1d1146040518163ffffffff1660e01b8152600401602060405180830381865afa158015615e48573d5f5f3e3d5ffd5b505050506040513d601f19601f82011682018060405250810190615e6c91906169a7565b905081615e798683616ab1565b1115615e9e578385836040516316e05b4760e21b8152600401610ca693929190616bcd565b615eb383858789606001518a6080015161643d565b50505050919050565b5f610d4f836001600160a01b0384166164a3565b60085460208201516001600160a01b0390811691161480615f00575060085481516001600160a01b039081169116145b156114e957604051630394d1d160e21b815260040160405180910390fd5b6060815f01805480602002602001604051908101604052809291908181526020018280548015615f6b57602002820191905f5260205f20905b815481526020019060010190808311615f57575b50505050509050919050565b5f825f018281548110615f8c57615f8c616a9d565b905f5260205f200154905092915050565b5f6002826003811115615fb257615fb26169e7565b615fbc9190616fc1565b60ff166001149050919050565b5f838302815f1985870982811083820303915050805f03615ffd57838281615ff357615ff3616c06565b0492505050610d4f565b8084116160145761601460038515026011186164ef565b5f848688095f868103871696879004966002600389028118808a02820302808a02820302808a02820302808a02820302808a02820302808a02909103029181900381900460010186841190950394909402919094039290920491909117919091029150509392505050565b6001600160a01b0383166160a9578060025f82825461609e9190616ab1565b909155506161069050565b6001600160a01b0383165f90815260208190526040902054818110156160e85783818360405163391434e360e21b8152600401610ca693929190616bcd565b6001600160a01b0384165f9081526020819052604090209082900390555b6001600160a01b03821661612257600280548290039055616140565b6001600160a01b0382165f9081526020819052604090208054820190555b816001600160a01b0316836001600160a01b03167fddf252ad1be2c89b69c2b068fc378daa952ba7f163c4a11628f55a4df523b3ef8360405161618591815260200190565b60405180910390a3505050565b5f5b8451811015616200576161cb8582815181106161b2576161b2616a9d565b602002602001015160200151613c2f61552b878561620d565b6161f88582815181106161e0576161e0616a9d565b60200260200101515f0151613c2f61552b868561620d565b600101616194565b50613af28451613c2f8390565b60408051602081018490529081018290525f90606001611913565b5f5f60205f8451602086015f885af180616247576040513d5f823e3d81fd5b50505f513d9150811561625e57806001141561626b565b6001600160a01b0384163b155b15613af257604051635274afe760e01b81526001600160a01b0385166004820152602401610ca6565b5f8315806162a0575082155b156162b85782156162b1575f610d2f565b5080610d4f565b6162c3600284616fe2565b156162ce57836162d0565b815b90505f6162de600284616c1a565b90506002840493505b83156163525784850285868204146162fd575f5ffd5b8181018181101561630c575f5ffd5b8490049550506001841615616347578482028286820414158615151615616331575f5ffd5b81810181811015616340575f5ffd5b8490049250505b6002840493506162e7565b509392505050565b5f8181526001830160205260408120548015616434575f61637c6001836169be565b85549091505f9061638f906001906169be565b90508082146163ee575f865f0182815481106163ad576163ad616a9d565b905f5260205f200154905080875f0184815481106163cd576163cd616a9d565b5f918252602080832090910192909255918252600188019052604090208390555b85548690806163ff576163ff616ff5565b600190038181905f5260205f20015f90559055856001015f8681526020019081526020015f205f905560019350505050610b69565b5f915050610b69565b60405163c38a6f0b60e01b81526001600160a01b0386169063c38a6f0b9061646f908690889087908790600401617009565b5f604051808303815f87803b158015616486575f5ffd5b505af1158015616498573d5f5f3e3d5ffd5b505050505050505050565b5f8181526001830160205260408120546164e857508154600181810184555f848152602080822090930184905584548482528286019093526040902091909155610b69565b505f610b69565b634e487b715f52806020526024601cfd5b611aad8061705083390190565b5f81518084528060208401602086015e5f602082860101526020601f19601f83011685010191505092915050565b602081525f610d4f602083018461650d565b5f6020828403121561655d575f5ffd5b5035919050565b6001600160a01b03811681146114e9575f5ffd5b5f5f60408385031215616589575f5ffd5b823561659481616564565b946020939093013593505050565b5f5f5f606084860312156165b4575f5ffd5b83356165bf81616564565b925060208401356165cf81616564565b929592945050506040919091013590565b5f5f5f606084860312156165f2575f5ffd5b83359250602084013561660481616564565b9150604084013561661481616564565b809150509250925092565b5f6020828403121561662f575f5ffd5b8135610d4f81616564565b634e487b7160e01b5f52604160045260245ffd5b60405160a081016001600160401b03811182821017156166705761667061663a565b60405290565b60405161012081016001600160401b03811182821017156166705761667061663a565b604051601f8201601f191681016001600160401b03811182821017156166c1576166c161663a565b604052919050565b5f6001600160401b038211156166e1576166e161663a565b50601f01601f191660200190565b5f82601f8301126166fe575f5ffd5b813561671161670c826166c9565b616699565b818152846020838601011115616725575f5ffd5b816020850160208301375f918101602001919091529392505050565b5f5f5f60608486031215616753575f5ffd5b83359250602084013561676581616564565b915060408401356001600160401b0381111561677f575f5ffd5b61678b868287016166ef565b9150509250925092565b5f5f604083850312156167a6575f5ffd5b8235600381106167b4575f5ffd5b915060208301356167c481616564565b809150509250929050565b5f5f604083850312156167e0575f5ffd5b8235915060208301356167c481616564565b5f5f83601f840112616802575f5ffd5b5081356001600160401b03811115616818575f5ffd5b6020830191508360208260051b8501011115616832575f5ffd5b9250929050565b5f5f6020838503121561684a575f5ffd5b82356001600160401b0381111561685f575f5ffd5b61686b858286016167f2565b90969095509350505050565b5f5f60408385031215616888575f5ffd5b82356167b481616564565b602080825282518282018190525f918401906040840190835b818110156168d35783516001600160a01b03168352602093840193909201916001016168ac565b509095945050505050565b600181811c908216806168f257607f821691505b602082108103614fcc57634e487b7160e01b5f52602260045260245ffd5b805161691b81616564565b919050565b5f60208284031215616930575f5ffd5b8151610d4f81616564565b9182526001600160a01b0316602082015260400190565b8051801515811461691b575f5ffd5b5f60208284031215616971575f5ffd5b610d4f82616952565b634e487b7160e01b5f52601160045260245ffd5b60ff8181168382160190811115610b6957610b6961697a565b5f602082840312156169b7575f5ffd5b5051919050565b81810381811115610b6957610b6961697a565b5f82518060208501845e5f920191825250919050565b634e487b7160e01b5f52602160045260245ffd5b5f60038410616a1857634e487b7160e01b5f52602160045260245ffd5b5060f89290921b825260601b6bffffffffffffffffffffffff1916600182015260150190565b5f60a0828403128015616a4f575f5ffd5b50616a5861664e565b8251616a6381616564565b81526020838101519082015260408084015190820152606080840151908201526080830151616a9181616564565b60808201529392505050565b634e487b7160e01b5f52603260045260245ffd5b80820180821115610b6957610b6961697a565b6001815b6001841115616aff57808504811115616ae357616ae361697a565b6001841615616af157908102905b60019390931c928002616ac8565b935093915050565b5f82616b1557506001610b69565b81616b2157505f610b69565b8160018114616b375760028114616b4157616b5d565b6001915050610b69565b60ff841115616b5257616b5261697a565b50506001821b610b69565b5060208310610133831016604e8410600b8410161715616b80575081810a610b69565b616b8c5f198484616ac4565b805f1904821115616b9f57616b9f61697a565b029392505050565b5f610d4f60ff841683616b07565b5f60018201616bc657616bc661697a565b5060010190565b6001600160a01b039390931683526020830191909152604082015260600190565b828152604060208201525f6112b1604083018461650d565b634e487b7160e01b5f52601260045260245ffd5b5f82616c2857616c28616c06565b500490565b5f610d4f8383616b07565b8082028115828204841417610b6957610b6961697a565b6040810160038410616c6f57634e487b7160e01b5f52602160045260245ffd5b9281526001600160a01b039190911660209091015290565b5f8235609e19833603018112616c9b575f5ffd5b9190910192915050565b5f60a08236031215616cb5575f5ffd5b616cbd61664e565b8235616cc881616564565b81526020830135616cd881616564565b60208201526040838101359082015260608301356001600160401b03811115616cff575f5ffd5b616d0b368286016166ef565b60608301525060808301356001600160401b03811115616d29575f5ffd5b616d35368286016166ef565b60808301525092915050565b5f5f8335601e19843603018112616d56575f5ffd5b83016020810192503590506001600160401b03811115616d74575f5ffd5b803603821315616832575f5ffd5b81835281816020850137505f828201602090810191909152601f909101601f19169091010190565b602080825281018290525f6040600584901b830181019083018583609e1936839003015b87821015616e8d57868503603f190184528235818112616dec575f5ffd5b89018035616df981616564565b6001600160a01b031686526020810135616e1281616564565b6001600160a01b0316602087015260408181013590870152616e376060820182616d41565b60a06060890152616e4c60a089018284616d82565b915050616e5c6080830183616d41565b92508782036080890152616e71828483616d82565b9750505050602083019250602084019350600182019150616dce565b5092979650505050505050565b5f82601f830112616ea9575f5ffd5b8151616eb761670c826166c9565b818152846020838601011115616ecb575f5ffd5b8160208501602083015e5f918101602001919091529392505050565b5f60208284031215616ef7575f5ffd5b81516001600160401b03811115616f0c575f5ffd5b82016101208185031215616f1e575f5ffd5b616f26616676565b616f2f82616910565b8152616f3d60208301616910565b6020820152616f4e60408301616910565b6040820152606082810151908201526080808301519082015260a0808301519082015260c08201516001600160401b03811115616f89575f5ffd5b616f9586828501616e9a565b60c083015250616fa760e08301616952565b60e082015261010091820151918101919091529392505050565b5f60ff831680616fd357616fd3616c06565b8060ff84160691505092915050565b5f82616ff057616ff0616c06565b500690565b634e487b7160e01b5f52603160045260245ffd5b8481526001600160a01b03841660208201526080604082018190525f906170329083018561650d565b8281036060840152617044818561650d565b97965050505050505056fe608060405234801561000f575f5ffd5b50604051611aad380380611aad83398101604081905261002e916101a0565b81806001600160a01b03811661005e576040516347bd7c1d60e01b81525f60048201526024015b60405180910390fd5b6040516301ffc9a760e01b815263fe1a291f60e01b60048201526001600160a01b038216906301ffc9a790602401602060405180830381865afa1580156100a7573d5f5f3e3d5ffd5b505050506040513d601f19601f820116820180604052508101906100cb91906101d1565b6100f3576040516347bd7c1d60e01b81526001600160a01b0382166004820152602401610055565b5f80546001600160a01b039283166001600160a01b03199182161790915560098054928516929091168217905561012a9150610131565b50506101f7565b600380546001600160a01b0319166001600160a01b0383169081179091556040519081527ffbed9b88bd11cf6ebffbe6fe489ac5bf7a88b31de62cf9bbc5e63e6eb01760039060200160405180910390a150565b80516001600160a01b038116811461019b575f5ffd5b919050565b5f5f604083850312156101b1575f5ffd5b6101ba83610185565b91506101c860208401610185565b90509250929050565b5f602082840312156101e1575f5ffd5b815180151581146101f0575f5ffd5b9392505050565b6118a9806102045f395ff3fe608060405234801561000f575f5ffd5b5060043610610132575f3560e01c80637035ab98116100b4578063a694fc3a11610079578063a694fc3a146102e9578063bcd11014146102fc578063e24bf4fe1461030f578063e70b9e2714610322578063e9fad8ee1461034c578063f122977714610354575f5ffd5b80637035ab981461024657806370a082311461027057806372f702f3146102985780637bb7bed1146102c3578063a3cd8ac4146102d6575f5ffd5b80633d509c97116100fa5780633d509c9714610195578063460b5ee2146101a857806348e5d9f8146101bb578063638634ee1461022057806369b3054b14610233575f5ffd5b806318160ddd14610136578063211dc32d146101525780632378bea6146101655780632e1a7d4d1461017a5780633d18b9121461018d575b5f5ffd5b61013f60075481565b6040519081526020015b60405180910390f35b61013f61016036600461167e565b610367565b6101786101733660046116b5565b6103ff565b005b6101786101883660046116df565b61057d565b610178610652565b6101786101a33660046116f6565b6107fd565b6101786101b63660046116b5565b610a68565b6101f86101c93660046116f6565b600460208190525f91825260409091208054600182015460028301546003840154939094015491939092909185565b604080519586526020860194909452928401919091526060830152608082015260a001610149565b61013f61022e3660046116f6565b610b40565b61013f610241366004611711565b610b82565b61013f61025436600461167e565b600560209081525f928352604080842090915290825290205481565b61013f61027e3660046116f6565b6001600160a01b03165f9081526008602052604090205490565b6003546102ab906001600160a01b031681565b6040516001600160a01b039091168152602001610149565b6102ab6102d13660046116df565b610bb4565b6101786102e4366004611730565b610bf1565b6101786102f73660046116df565b610fe3565b61013f61030a3660046116f6565b6110b5565b6009546102ab906001600160a01b031681565b61013f61033036600461167e565b600660209081525f928352604080842090915290825290205481565b6101786110e1565b61013f6103623660046116f6565b611101565b6001600160a01b038082165f818152600660209081526040808320948716808452948252808320549383526005825280832094835293905291822054670de0b6b3a7640000906103b685611101565b6103c09190611776565b6001600160a01b0386165f908152600860205260409020546103e29190611789565b6103ec91906117a0565b6103f691906117bf565b90505b92915050565b5f5460408051630ccc574960e41b815290516001600160a01b03909216916391d1485491839163ccc57490916004808201926020929091908290030181865afa15801561044e573d5f5f3e3d5ffd5b505050506040513d601f19601f8201168201806040525081019061047291906117d2565b6040516001600160e01b031960e084901b1681526004810191909152336024820152604401602060405180830381865afa1580156104b2573d5f5f3e3d5ffd5b505050506040513d601f19601f820116820180604052508101906104d691906117e9565b6104fa57604051630ea7d7ed60e21b81523360048201526024015b60405180910390fd5b6001600160a01b0382165f908152600460205260409020805442116105325760405163d9ba1add60e01b815260040160405180910390fd5b600281018290556040518281526001600160a01b038416907fad2f86b01ed93b4b3a150d448c61a4f5d8d38075d3c0c64cc0a26fd6e1f49545906020015b60405180910390a2505050565b335f61058960016111ae565b90505f5b81811015610643575f6105a16001836111b7565b6001600160a01b0381165f90815260046020526040902090915081906105c682611101565b60048201556105d482610b40565b60038201556001600160a01b03861615610638576105f28683610367565b6001600160a01b038084165f818152600660209081526040808320948c168084529482528083209590955560048601549282526005815284822093825292909252919020555b50505060010161058d565b5061064d836111c2565b505050565b61065a61126a565b335f61066660016111ae565b90505f5b81811015610720575f61067e6001836111b7565b6001600160a01b0381165f90815260046020526040902090915081906106a382611101565b60048201556106b182610b40565b60038201556001600160a01b03861615610715576106cf8683610367565b6001600160a01b038084165f818152600660209081526040808320948c168084529482528083209590955560048601549282526005815284822093825292909252919020555b50505060010161066a565b505f61072c60016111ae565b90505f5b818110156107ef575f6107446001836111b7565b6001600160a01b0381165f908152600660209081526040808320338452909152902054909150819080156107e4576001600160a01b0382165f8181526006602090815260408083203380855292528220919091556107a39190836112d7565b6040518181526001600160a01b0383169033907f540798df468d7b23d11f156fdb954cb19ad414d150722a7b6d55ba369dea792e9060200160405180910390a35b505050600101610730565b505050506107fb611336565b565b5f5460408051630ccc574960e41b815290516001600160a01b03909216916391d1485491839163ccc57490916004808201926020929091908290030181865afa15801561084c573d5f5f3e3d5ffd5b505050506040513d601f19601f8201168201806040525081019061087091906117d2565b6040516001600160e01b031960e084901b1681526004810191909152336024820152604401602060405180830381865afa1580156108b0573d5f5f3e3d5ffd5b505050506040513d601f19601f820116820180604052508101906108d491906117e9565b6108f357604051630ea7d7ed60e21b81523360048201526024016104f1565b6001600160a01b0381165f90815260046020526040812060020154900361092d5760405163064fed9960e31b815260040160405180910390fd5b6001600160a01b0381165f9081526004602052604090205442116109645760405163d9ba1add60e01b815260040160405180910390fd5b6040516370a0823160e01b81523060048201525f906001600160a01b038316906370a0823190602401602060405180830381865afa1580156109a8573d5f5f3e3d5ffd5b505050506040513d601f19601f820116820180604052508101906109cc91906117d2565b905080156109f057604051633007cea360e01b8152600481018290526024016104f1565b6109fb600183611360565b506001600160a01b0382165f81815260046020818152604080842084815560018101859055600281018590556003810185905590920192909255519182527f66257bcef574219c04f7c05f7a1c78d599da10491294c92a5805c48b4cdf5009910160405180910390a15050565b815f610a7460016111ae565b90505f5b81811015610b2e575f610a8c6001836111b7565b6001600160a01b0381165f9081526004602052604090209091508190610ab182611101565b6004820155610abf82610b40565b60038201556001600160a01b03861615610b2357610add8683610367565b6001600160a01b038084165f818152600660209081526040808320948c168084529482528083209590955560048601549282526005815284822093825292909252919020555b505050600101610a78565b50610b3a338585611374565b50505050565b6001600160a01b0381165f908152600460205260408120544210610b7b576001600160a01b0382165f908152600460205260409020546103f9565b4292915050565b5f8282604051602001610b96929190611808565b60405160208183030381529060405280519060200120905092915050565b5f610bbf60016111ae565b8210610bde57604051634e23d03560e01b815260040160405180910390fd5b5f610bea6001846111b7565b9392505050565b5f5460408051630ccc574960e41b815290516001600160a01b03909216916391d1485491839163ccc57490916004808201926020929091908290030181865afa158015610c40573d5f5f3e3d5ffd5b505050506040513d601f19601f82011682018060405250810190610c6491906117d2565b6040516001600160e01b031960e084901b1681526004810191909152336024820152604401602060405180830381865afa158015610ca4573d5f5f3e3d5ffd5b505050506040513d601f19601f82011682018060405250810190610cc891906117e9565b610ce757604051630ea7d7ed60e21b81523360048201526024016104f1565b5f5f610cf360016111ae565b90505f5b81811015610dad575f610d0b6001836111b7565b6001600160a01b0381165f9081526004602052604090209091508190610d3082611101565b6004820155610d3e82610b40565b60038201556001600160a01b03861615610da257610d5c8683610367565b6001600160a01b038084165f818152600660209081526040808320948c168084529482528083209590955560048601549282526005815284822093825292909252919020555b505050600101610cf7565b506001600160a01b0385165f9081526004602052604081206002810154909103610e4e57835f03610df45760405160016203036160e11b0319815260040160405180910390fd5b610dff600187611452565b5060028101849055604080516001600160a01b0388168152602081018690527f68e3e9397770d9dfa88c0953a34e1a70a05416b3895957f5b689787a920791c4910160405180910390a1610e7f565b5f84118015610e61575080600201548414155b15610e7f576040516333fec8c760e21b815260040160405180910390fd5b80544210610ea0576002810154610e9690866117a0565b6001820155610ee6565b80545f90610eaf904290611776565b90505f826001015482610ec29190611789565b6002840154909150610ed482896117bf565b610ede91906117a0565b600184015550505b6040516370a0823160e01b81523060048201525f906001600160a01b038816906370a0823190602401602060405180830381865afa158015610f2a573d5f5f3e3d5ffd5b505050506040513d601f19601f82011682018060405250810190610f4e91906117d2565b9050816002015481610f6091906117a0565b82600101541115610f845760405163010ee96f60e31b815260040160405180910390fd5b42600383018190556002830154610f9a916117bf565b82556040518681526001600160a01b038816907fac24935fd910bc682b5ccb1a07b718cadf8cf2f6d1404c4f3ddc3662dae40e299060200160405180910390a250505050505050565b335f610fef60016111ae565b90505f5b818110156110a9575f6110076001836111b7565b6001600160a01b0381165f908152600460205260409020909150819061102c82611101565b600482015561103a82610b40565b60038201556001600160a01b0386161561109e576110588683610367565b6001600160a01b038084165f818152600660209081526040808320948c168084529482528083209590955560048601549282526005815284822093825292909252919020555b505050600101610ff3565b5061064d333385611374565b6001600160a01b0381165f90815260046020526040812060028101546001909101546103f99190611789565b6110e9610652565b335f908152600860205260409020546107fb906111c2565b5f6007545f0361112a57506001600160a01b03165f908152600460208190526040909120015490565b6007546001600160a01b0383165f908152600460205260409020600181015460039091015461115885610b40565b6111629190611776565b61116c9190611789565b61117e90670de0b6b3a7640000611789565b61118891906117a0565b6001600160a01b0383165f90815260046020819052604090912001546103f991906117bf565b5f6103f9825490565b5f6103f68383611466565b805f036111e25760405163061bb89b60e51b815260040160405180910390fd5b8060075f8282546111f39190611776565b9091555050335f9081526008602052604081208054839290611216908490611776565b9091555050600354611232906001600160a01b031633836112d7565b60405181815233907f7084f5476618d8e60b11ef0d7d3f06914655adb8793e28ff7f018d4c76d505d59060200160405180910390a250565b7f9b779b17422d0df92223018b32b4d1fa46e071723d6817e2486d003becc55f005c156112aa57604051633ee5aeb560e01b815260040160405180910390fd5b6107fb60017f9b779b17422d0df92223018b32b4d1fa46e071723d6817e2486d003becc55f005b9061148c565b6040516001600160a01b0383811660248301526044820183905261064d91859182169063a9059cbb906064015b604051602081830303815290604052915060e01b6020820180516001600160e01b038381831617835250505050611493565b6107fb5f7f9b779b17422d0df92223018b32b4d1fa46e071723d6817e2486d003becc55f006112d1565b5f6103f6836001600160a01b0384166114ff565b805f0361139457604051636a76ff9f60e01b815260040160405180910390fd5b6003546001600160a01b03166113bd5760405163417198d360e01b815260040160405180910390fd5b8060075f8282546113ce91906117bf565b90915550506001600160a01b0382165f90815260086020526040812080548392906113fa9084906117bf565b9091555050600354611417906001600160a01b03168430846115e2565b816001600160a01b03167f9e71bc8eea02a63969f509818f2dafb9254532904319f9dbda79b67bd34a5f3d8260405161057091815260200190565b5f6103f6836001600160a01b03841661161b565b5f825f01828154811061147b5761147b61184b565b905f5260205f200154905092915050565b80825d5050565b5f5f60205f8451602086015f885af1806114b2576040513d5f823e3d81fd5b50505f513d915081156114c95780600114156114d6565b6001600160a01b0384163b155b15610b3a57604051635274afe760e01b81526001600160a01b03851660048201526024016104f1565b5f81815260018301602052604081205480156115d9575f611521600183611776565b85549091505f9061153490600190611776565b9050808214611593575f865f0182815481106115525761155261184b565b905f5260205f200154905080875f0184815481106115725761157261184b565b5f918252602080832090910192909255918252600188019052604090208390555b85548690806115a4576115a461185f565b600190038181905f5260205f20015f90559055856001015f8681526020019081526020015f205f9055600193505050506103f9565b5f9150506103f9565b6040516001600160a01b038481166024830152838116604483015260648201839052610b3a9186918216906323b872dd90608401611304565b5f81815260018301602052604081205461166057508154600181810184555f8481526020808220909301849055845484825282860190935260409020919091556103f9565b505f6103f9565b6001600160a01b038116811461167b575f5ffd5b50565b5f5f6040838503121561168f575f5ffd5b823561169a81611667565b915060208301356116aa81611667565b809150509250929050565b5f5f604083850312156116c6575f5ffd5b82356116d181611667565b946020939093013593505050565b5f602082840312156116ef575f5ffd5b5035919050565b5f60208284031215611706575f5ffd5b8135610bea81611667565b5f5f60408385031215611722575f5ffd5b82356003811061169a575f5ffd5b5f5f5f60608486031215611742575f5ffd5b833561174d81611667565b95602085013595506040909401359392505050565b634e487b7160e01b5f52601160045260245ffd5b818103818111156103f9576103f9611762565b80820281158282048414176103f9576103f9611762565b5f826117ba57634e487b7160e01b5f52601260045260245ffd5b500490565b808201808211156103f9576103f9611762565b5f602082840312156117e2575f5ffd5b5051919050565b5f602082840312156117f9575f5ffd5b81518015158114610bea575f5ffd5b5f6003841061182557634e487b7160e01b5f52602160045260245ffd5b5060f89290921b825260601b6bffffffffffffffffffffffff1916600182015260150190565b634e487b7160e01b5f52603260045260245ffd5b634e487b7160e01b5f52603160045260245ffdfea2646970667358221220b973fa74d37cba50823d2585d23ab0df5d2bd01a5ca059a79d63645e6030929b64736f6c634300081c0033a26469706673582212209cec49b9919faea8ff9fb0c24887360aad077dca7a2426b60aabe4adae94ae7264736f6c634300081c003360a060405234801561000f575f5ffd5b5060405161265638038061265683398101604081905261002e91610474565b6040820151602083015183918291806001600160a01b03811661006b576040516347bd7c1d60e01b81525f60048201526024015b60405180910390fd5b6040516301ffc9a760e01b815263fe1a291f60e01b60048201526001600160a01b038216906301ffc9a790602401602060405180830381865afa1580156100b4573d5f5f3e3d5ffd5b505050506040513d601f19601f820116820180604052508101906100d8919061055f565b610100576040516347bd7c1d60e01b81526001600160a01b0382166004820152602401610062565b5f80546001600160a01b0319166001600160a01b039283161790558216905061013c5760405163f1634df960e01b815260040160405180910390fd5b6001600160a01b0390811660805260408201511661016d5760405163b53c493160e01b815260040160405180910390fd5b60608101516001600160a01b031661019b576040516001620a810f60e11b0319815260040160405180910390fd5b8051515f036101bd5760405163268c072960e01b815260040160405180910390fd5b5f6101c661031c565b6001600160a01b0316036101ed57604051633a4f9cdb60e21b815260040160405180910390fd5b6040805161012081019091525f81526020810161020861031c565b6001600160a01b039081168252606080850151821660208085019190915260808087015160408087019190915260a0808901518588015260c0808a01518489015289518289015260e0808b01511515828a01526101008b01519801979097528751600180549188166001600160a01b03199283161781559489015160028054918916918316919091179055918801516003805491909716921691909117909455918501516004559084015160055590830151600655908201516007906102ce9082610603565b5060e082015160078201805460ff1916911515919091179055610100909101516008909101555050600180546001600160a01b0319166001600160a01b0392909216919091179055506106d6565b5f6080516001600160a01b031663117d8ae06040518163ffffffff1660e01b8152600401602060405180830381865afa15801561035b573d5f5f3e3d5ffd5b505050506040513d601f19601f8201168201806040525081019061037f91906106bd565b905090565b634e487b7160e01b5f52604160045260245ffd5b60405161012081016001600160401b03811182821017156103bb576103bb610384565b60405290565b5f82601f8301126103d0575f5ffd5b81516001600160401b038111156103e9576103e9610384565b604051601f8201601f19908116603f011681016001600160401b038111828210171561041757610417610384565b60405281815283820160200185101561042e575f5ffd5b8160208501602083015e5f918101602001919091529392505050565b80516001600160a01b0381168114610460575f5ffd5b919050565b80518015158114610460575f5ffd5b5f5f60408385031215610485575f5ffd5b82516001600160401b0381111561049a575f5ffd5b830161012081860312156104ac575f5ffd5b6104b4610398565b81516001600160401b038111156104c9575f5ffd5b6104d5878285016103c1565b8252506104e46020830161044a565b60208201526104f56040830161044a565b60408201526105066060830161044a565b60608201526080828101519082015260a0808301519082015260c0808301519082015261053560e08301610465565b60e0820152610100918201519181019190915291506105566020840161044a565b90509250929050565b5f6020828403121561056f575f5ffd5b61057882610465565b9392505050565b600181811c9082168061059357607f821691505b6020821081036105b157634e487b7160e01b5f52602260045260245ffd5b50919050565b601f8211156105fe57805f5260205f20601f840160051c810160208510156105dc5750805b601f840160051c820191505b818110156105fb575f81556001016105e8565b50505b505050565b81516001600160401b0381111561061c5761061c610384565b6106308161062a845461057f565b846105b7565b6020601f821160018114610662575f831561064b5750848201515b5f19600385901b1c1916600184901b1784556105fb565b5f84815260208120601f198516915b828110156106915787850151825560209485019460019092019101610671565b50848210156106ae57868401515f19600387901b60f8161c191681555b50505050600190811b01905550565b5f602082840312156106cd575f5ffd5b6105788261044a565b608051611f4c61070a5f395f8181610360015281816104bb01528181610853015281816108b00152610fe70152611f4c5ff3fe608060405234801561000f575f5ffd5b50600436106101bb575f3560e01c806379502c55116100f3578063c38a6f0b11610093578063ce5c7f611161006e578063ce5c7f6114610382578063dbd5edc714610395578063ebf311311461039d578063fc0c546a146103a5575f5ffd5b8063c38a6f0b14610333578063c3f909d414610346578063c9c667e31461035b575f5ffd5b80638a8b9976116100ce5780638a8b99761461030857806392f5e83214610310578063ad5a356f14610323578063bdcdd8821461032b575f5ffd5b806379502c55146102d05780637aaceb95146102ed57806386651203146102f5575f5ffd5b8063372709361161015e57806361d027b31161013957806361d027b31461028157806361f5cd8b1461028957806369b3054b1461029c578063780469bb146102af575f5ffd5b806337270936146102555780634fc7fac3146102665780635b0f83f314610279575f5ffd5b806313c408f81161019957806313c408f81461020f5780632db6d39914610224578063303dbaf3146102375780633194549e1461024d575f5ffd5b806301e1d114146101bf57806306fdde03146101da578063117d8ae0146101ef575b5f5ffd5b6101c76103b6565b6040519081526020015b60405180910390f35b6101e2610425565b6040516101d19190611896565b6101f76104b8565b6040516001600160a01b0390911681526020016101d1565b61022261021d3660046118ed565b610539565b005b6102226102323660046118ed565b6105f7565b60085460ff1660405190151581526020016101d1565b6005546101c7565b6001546001600160a01b03166101f7565b610222610274366004611935565b610802565b6101f7610850565b6101f76108ad565b610222610297366004611935565b61090a565b6101c76102aa366004611963565b610951565b6102c26102bd3660046119e2565b610983565b6040516101d1929190611a96565b6102d8610f19565b6040516101d199989796959493929190611b1f565b6101f7610fe4565b610222610303366004611935565b611041565b610222611088565b61022261031e366004611935565b6110e5565b6006546101c7565b6009546101c7565b610222610341366004611b81565b61112c565b61034e611272565b6040516101d19190611c0c565b6101f77f000000000000000000000000000000000000000000000000000000000000000081565b6102c2610390366004611cbd565b6113b7565b6004546101c7565b6102226114a9565b6003546001600160a01b03166101f7565b6003546040516370a0823160e01b81523060048201525f916001600160a01b0316906370a0823190602401602060405180830381865afa1580156103fc573d5f5f3e3d5ffd5b505050506040513d601f19601f820116820180604052508101906104209190611cfc565b905090565b60606001600601805461043790611d13565b80601f016020809104026020016040519081016040528092919081815260200182805461046390611d13565b80156104ae5780601f10610485576101008083540402835291602001916104ae565b820191905f5260205f20905b81548152906001019060200180831161049157829003601f168201915b5050505050905090565b5f7f00000000000000000000000000000000000000000000000000000000000000006001600160a01b031663117d8ae06040518163ffffffff1660e01b8152600401602060405180830381865afa158015610515573d5f5f3e3d5ffd5b505050506040513d601f19601f820116820180604052508101906104209190611d4b565b6105416114fb565b61057157335b604051631564c0e160e11b81526001600160a01b0390911660048201526024015b60405180910390fd5b610579611584565b818161058582826115f3565b3360035461059d906001600160a01b03168288611655565b600354604080516001600160a01b03928316815260208101899052918316917fd5e872c5ecfb1bb8820b2e6a20e31b883682282da886621541f71e31ec11947e910160405180910390a25050506105f26116b4565b505050565b6105ff611584565b306001600160a01b031663372709366040518163ffffffff1660e01b8152600401602060405180830381865afa15801561063b573d5f5f3e3d5ffd5b505050506040513d601f19601f8201168201806040525081019061065f9190611d4b565b6106676114fb565b610786575f3390505f306001600160a01b031663117d8ae06040518163ffffffff1660e01b8152600401602060405180830381865afa1580156106ac573d5f5f3e3d5ffd5b505050506040513d601f19601f820116820180604052508101906106d09190611d4b565b6001600160a01b0316826001600160a01b0316149050806107835760405163d25dd10160e01b81526001600160a01b0383811660048301525f919085169063d25dd10190602401602060405180830381865afa158015610732573d5f5f3e3d5ffd5b505050506040513d601f19601f820116820180604052508101906107569190611d66565b90508061078157604051638f7a567d60e01b81526001600160a01b0384166004820152602401610568565b505b50505b828261079282826115f3565b60035433906107ac906001600160a01b031682308a6116de565b600354604080516001600160a01b039283168152602081018a9052918316917fcbaa1442ac205415c9d69643e7b60ec73d1de35dbc807c21ec288c70ddc4207b910160405180910390a2505050506105f26116b4565b61080a6114fb565b6108145733610547565b60098190556040518181527fd3c6d0ab315f2f1352f036cd9f401b49e38e1b90907e195225e8105f9a0b6f02906020015b60405180910390a150565b5f7f00000000000000000000000000000000000000000000000000000000000000006001600160a01b0316635b0f83f36040518163ffffffff1660e01b8152600401602060405180830381865afa158015610515573d5f5f3e3d5ffd5b5f7f00000000000000000000000000000000000000000000000000000000000000006001600160a01b03166361d027b36040518163ffffffff1660e01b8152600401602060405180830381865afa158015610515573d5f5f3e3d5ffd5b6109126114fb565b61091c5733610547565b60058190556040518181527ffbe2d5c01ea8ba5596d6c4e6c82c6d4a0a0ee1128689993a4a5ba0169273d69f90602001610845565b5f8282604051602001610965929190611d85565b60405160208183030381529060405280519060200120905092915050565b606080306001600160a01b031663117d8ae06040518163ffffffff1660e01b8152600401602060405180830381865afa1580156109c2573d5f5f3e3d5ffd5b505050506040513d601f19601f820116820180604052508101906109e69190611d4b565b6001600160a01b0316336001600160a01b031614610a2557335b604051631184b31b60e21b81526001600160a01b039091166004820152602401610568565b610a2d611584565b825167ffffffffffffffff811115610a4757610a4761199d565b604051908082528060200260200182016040528015610a70578160200160208202803683370190505b509150825167ffffffffffffffff811115610a8d57610a8d61199d565b604051908082528060200260200182016040528015610ab6578160200160208202803683370190505b506003546040516370a0823160e01b81523060048201529192505f916001600160a01b03909116906370a0823190602401602060405180830381865afa158015610b02573d5f5f3e3d5ffd5b505050506040513d601f19601f82011682018060405250810190610b269190611cfc565b1115610cea57600154604080516330fe427560e21b815290515f926001600160a01b03169163c3f909d49160048083019260a09291908290030181865afa158015610b73573d5f5f3e3d5ffd5b505050506040513d601f19601f82011682018060405250810190610b979190611dc8565b516003546040516370a0823160e01b8152306004820152919250610c1c9183916001600160a01b0316906370a0823190602401602060405180830381865afa158015610be5573d5f5f3e3d5ffd5b505050506040513d601f19601f82011682018060405250810190610c099190611cfc565b6003546001600160a01b0316919061171d565b6003546040516370a0823160e01b81523060048201526001600160a01b0383811692632db6d399929116906370a0823190602401602060405180830381865afa158015610c6b573d5f5f3e3d5ffd5b505050506040513d601f19601f82011682018060405250810190610c8f9190611cfc565b60405180602001604052805f8152506040518363ffffffff1660e01b8152600401610cbb929190611e45565b5f604051808303815f87803b158015610cd2575f5ffd5b505af1158015610ce4573d5f5f3e3d5ffd5b50505050505b5f5b8351811015610eb8575f848281518110610d0857610d08611e65565b60209081029190910101516040516370a0823160e01b81523060048201526001600160a01b03909116906370a0823190602401602060405180830381865afa158015610d56573d5f5f3e3d5ffd5b505050506040513d601f19601f82011682018060405250810190610d7a9190611cfc565b90508015610eaf57610e43610d8d6104b8565b868481518110610d9f57610d9f611e65565b60209081029190910101516040516370a0823160e01b81523060048201526001600160a01b03909116906370a0823190602401602060405180830381865afa158015610ded573d5f5f3e3d5ffd5b505050506040513d601f19601f82011682018060405250810190610e119190611cfc565b878581518110610e2357610e23611e65565b60200260200101516001600160a01b03166116559092919063ffffffff16565b848281518110610e5557610e55611e65565b6020026020010151848381518110610e6f57610e6f611e65565b60200260200101906001600160a01b031690816001600160a01b03168152505080838381518110610ea257610ea2611e65565b6020026020010181815250505b50600101610cec565b5080604051610ec79190611e79565b604051809103902082604051610edd9190611eae565b604051908190038120907f46b8771620f6acf56cb03d3e835ea8024c7dcbcf05fcc3f6ade9e19d1a3e212b905f90a3610f146116b4565b915091565b60018054600254600354600454600554600654600780546001600160a01b03978816989688169790951695939492939192610f5390611d13565b80601f0160208091040260200160405190810160405280929190818152602001828054610f7f90611d13565b8015610fca5780601f10610fa157610100808354040283529160200191610fca565b820191905f5260205f20905b815481529060010190602001808311610fad57829003601f168201915b505050506007830154600890930154919260ff1691905089565b5f7f00000000000000000000000000000000000000000000000000000000000000006001600160a01b0316637aaceb956040518163ffffffff1660e01b8152600401602060405180830381865afa158015610515573d5f5f3e3d5ffd5b6110496114fb565b6110535733610547565b60048190556040518181527f333b26cca69716ad4680ddb07663f5bfb4f06045671f336af9a83690a3ae00f990602001610845565b6110906114fb565b61109a5733610547565b600180546001600160a01b031916339081179091556040519081527f55489ce0259bd691120d8860861be1c401c7c16a3cd268d21045756af4ecc5ca906020015b60405180910390a1565b6110ed6114fb565b6110f75733610547565b60068190556040518181527fb6ac66853c4e59c71e118d25ab494bb847c4e5eb0c8894898c5343e6f61afc1290602001610845565b6111346114fb565b61113e5733610547565b818161114a82826115f3565b60035460405163095ea7b360e01b81526001600160a01b038981166004830152602482018b90529091169063095ea7b3906044016020604051808303815f875af115801561119a573d5f5f3e3d5ffd5b505050506040513d601f19601f820116820180604052508101906111be9190611d66565b50604051632db6d39960e01b81526001600160a01b03881690632db6d399906111ef908b908a908a90600401611ee1565b5f604051808303815f87803b158015611206575f5ffd5b505af1158015611218573d5f5f3e3d5ffd5b5050600354604080516001600160a01b039283168152602081018d9052918b1693503092507f9f784fc02a186f1c98b2d9f15fda084da27cdd291a3785d978f91911d880516b910160405180910390a35050505050505050565b60408051610120810182525f8082526020820181905291810182905260608082018390526080820183905260a0820183905260c082015260e081018290526101008101919091526040805161012081018252600180546001600160a01b0390811683526002548116602084015260035416928201929092526004546060820152600554608082015260065460a08201526007805491929160c08401919061131890611d13565b80601f016020809104026020016040519081016040528092919081815260200182805461134490611d13565b801561138f5780601f106113665761010080835404028352916020019161138f565b820191905f5260205f20905b81548152906001019060200180831161137257829003601f168201915b5050509183525050600782015460ff1615156020820152600890910154604090910152919050565b606080306001600160a01b031663117d8ae06040518163ffffffff1660e01b8152600401602060405180830381865afa1580156113f6573d5f5f3e3d5ffd5b505050506040513d601f19601f8201168201806040525081019061141a9190611d4b565b6001600160a01b0316336001600160a01b0316146114385733610a00565b611440611584565b50506040516060908190611455908290611e79565b60405180910390208260405161146b9190611eae565b604051908190038120907f3e3e7958121b3e39c7a49392d1aa9cdce870c2a059744f9e15cf66fff7865455905f90a36114a26116b4565b9250929050565b6114b16114fb565b6114bb5733610547565b600180546001600160a01b03191690556040513381527f7cb941d7b1708e5b3bcd35ca960d6c6311188cec18886e5b67630552676b0487906020016110db565b5f80546001600160a01b03166391d14854611517600230610951565b336040516001600160e01b031960e085901b16815260048101929092526001600160a01b03166024820152604401602060405180830381865afa158015611560573d5f5f3e3d5ffd5b505050506040513d601f19601f820116820180604052508101906104209190611d66565b7f9b779b17422d0df92223018b32b4d1fa46e071723d6817e2486d003becc55f005c156115c457604051633ee5aeb560e01b815260040160405180910390fd5b6115f160017f9b779b17422d0df92223018b32b4d1fa46e071723d6817e2486d003becc55f005b906117ac565b565b8015801590611605575060085460ff16155b1561162357604051630cd0fdf960e01b815260040160405180910390fd5b80158015611633575060085460ff165b156116515760405163332863a960e11b815260040160405180910390fd5b5050565b6040516001600160a01b038381166024830152604482018390526105f291859182169063a9059cbb906064015b604051602081830303815290604052915060e01b6020820180516001600160e01b0383818316178352505050506117b3565b6115f15f7f9b779b17422d0df92223018b32b4d1fa46e071723d6817e2486d003becc55f006115eb565b6040516001600160a01b0384811660248301528381166044830152606482018390526117179186918216906323b872dd90608401611682565b50505050565b604080516001600160a01b038416602482015260448082018490528251808303909101815260649091019091526020810180516001600160e01b031663095ea7b360e01b17905261176e848261181f565b611717576040516001600160a01b0384811660248301525f60448301526117a291869182169063095ea7b390606401611682565b61171784826117b3565b80825d5050565b5f5f60205f8451602086015f885af1806117d2576040513d5f823e3d81fd5b50505f513d915081156117e95780600114156117f6565b6001600160a01b0384163b155b1561171757604051635274afe760e01b81526001600160a01b0385166004820152602401610568565b5f5f5f5f60205f8651602088015f8a5af192503d91505f51905082801561185e57508115611850578060011461185e565b5f866001600160a01b03163b115b9695505050505050565b5f81518084528060208401602086015e5f602082860101526020601f19601f83011685010191505092915050565b602081525f6118a86020830184611868565b9392505050565b5f5f83601f8401126118bf575f5ffd5b50813567ffffffffffffffff8111156118d6575f5ffd5b6020830191508360208285010111156114a2575f5ffd5b5f5f5f604084860312156118ff575f5ffd5b83359250602084013567ffffffffffffffff81111561191c575f5ffd5b611928868287016118af565b9497909650939450505050565b5f60208284031215611945575f5ffd5b5035919050565b6001600160a01b0381168114611960575f5ffd5b50565b5f5f60408385031215611974575f5ffd5b823560038110611982575f5ffd5b915060208301356119928161194c565b809150509250929050565b634e487b7160e01b5f52604160045260245ffd5b604051601f8201601f1916810167ffffffffffffffff811182821017156119da576119da61199d565b604052919050565b5f602082840312156119f2575f5ffd5b813567ffffffffffffffff811115611a08575f5ffd5b8201601f81018413611a18575f5ffd5b803567ffffffffffffffff811115611a3257611a3261199d565b8060051b611a42602082016119b1565b91825260208184018101929081019087841115611a5d575f5ffd5b6020850194505b83851015611a8b5784359250611a798361194c565b82825260209485019490910190611a64565b979650505050505050565b604080825283519082018190525f9060208501906060840190835b81811015611ad85783516001600160a01b0316835260209384019390920191600101611ab1565b5050838103602080860191909152855180835291810192508501905f5b81811015611b13578251845260209384019390920191600101611af5565b50919695505050505050565b6001600160a01b038a81168252898116602083015288166040820152606081018790526080810186905260a0810185905261012060c082018190525f90611b6890830186611868565b93151560e0830152506101000152979650505050505050565b5f5f5f5f5f5f60808789031215611b96575f5ffd5b863595506020870135611ba88161194c565b9450604087013567ffffffffffffffff811115611bc3575f5ffd5b611bcf89828a016118af565b909550935050606087013567ffffffffffffffff811115611bee575f5ffd5b611bfa89828a016118af565b979a9699509497509295939492505050565b60208152611c266020820183516001600160a01b03169052565b5f6020830151611c4160408401826001600160a01b03169052565b5060408301516001600160a01b03811660608401525060608301516080830152608083015160a083015260a083015160c083015260c083015161012060e0840152611c90610140840182611868565b905060e0840151611ca661010085018215159052565b506101008401516101208401528091505092915050565b5f5f60208385031215611cce575f5ffd5b823567ffffffffffffffff811115611ce4575f5ffd5b611cf0858286016118af565b90969095509350505050565b5f60208284031215611d0c575f5ffd5b5051919050565b600181811c90821680611d2757607f821691505b602082108103611d4557634e487b7160e01b5f52602260045260245ffd5b50919050565b5f60208284031215611d5b575f5ffd5b81516118a88161194c565b5f60208284031215611d76575f5ffd5b815180151581146118a8575f5ffd5b5f60038410611da257634e487b7160e01b5f52602160045260245ffd5b5060f89290921b825260601b6bffffffffffffffffffffffff1916600182015260150190565b5f60a0828403128015611dd9575f5ffd5b5060405160a0810167ffffffffffffffff81118282101715611dfd57611dfd61199d565b6040528251611e0b8161194c565b81526020838101519082015260408084015190820152606080840151908201526080830151611e398161194c565b60808201529392505050565b828152604060208201525f611e5d6040830184611868565b949350505050565b634e487b7160e01b5f52603260045260245ffd5b81515f90829060208501835b82811015611ea3578151845260209384019390910190600101611e85565b509195945050505050565b81515f90829060208501835b82811015611ea35781516001600160a01b0316845260209384019390910190600101611eba565b83815260406020820152816040820152818360608301375f818301606090810191909152601f909201601f191601019291505056fea264697066735822122034287c2bd9e4093ba106511801bda85fcd339fa01e5d164d2f976e032e57c78164736f6c634300081c0033608060405234801561000f575f5ffd5b50604051611aad380380611aad83398101604081905261002e916101a0565b81806001600160a01b03811661005e576040516347bd7c1d60e01b81525f60048201526024015b60405180910390fd5b6040516301ffc9a760e01b815263fe1a291f60e01b60048201526001600160a01b038216906301ffc9a790602401602060405180830381865afa1580156100a7573d5f5f3e3d5ffd5b505050506040513d601f19601f820116820180604052508101906100cb91906101d1565b6100f3576040516347bd7c1d60e01b81526001600160a01b0382166004820152602401610055565b5f80546001600160a01b039283166001600160a01b03199182161790915560098054928516929091168217905561012a9150610131565b50506101f7565b600380546001600160a01b0319166001600160a01b0383169081179091556040519081527ffbed9b88bd11cf6ebffbe6fe489ac5bf7a88b31de62cf9bbc5e63e6eb01760039060200160405180910390a150565b80516001600160a01b038116811461019b575f5ffd5b919050565b5f5f604083850312156101b1575f5ffd5b6101ba83610185565b91506101c860208401610185565b90509250929050565b5f602082840312156101e1575f5ffd5b815180151581146101f0575f5ffd5b9392505050565b6118a9806102045f395ff3fe608060405234801561000f575f5ffd5b5060043610610132575f3560e01c80637035ab98116100b4578063a694fc3a11610079578063a694fc3a146102e9578063bcd11014146102fc578063e24bf4fe1461030f578063e70b9e2714610322578063e9fad8ee1461034c578063f122977714610354575f5ffd5b80637035ab981461024657806370a082311461027057806372f702f3146102985780637bb7bed1146102c3578063a3cd8ac4146102d6575f5ffd5b80633d509c97116100fa5780633d509c9714610195578063460b5ee2146101a857806348e5d9f8146101bb578063638634ee1461022057806369b3054b14610233575f5ffd5b806318160ddd14610136578063211dc32d146101525780632378bea6146101655780632e1a7d4d1461017a5780633d18b9121461018d575b5f5ffd5b61013f60075481565b6040519081526020015b60405180910390f35b61013f61016036600461167e565b610367565b6101786101733660046116b5565b6103ff565b005b6101786101883660046116df565b61057d565b610178610652565b6101786101a33660046116f6565b6107fd565b6101786101b63660046116b5565b610a68565b6101f86101c93660046116f6565b600460208190525f91825260409091208054600182015460028301546003840154939094015491939092909185565b604080519586526020860194909452928401919091526060830152608082015260a001610149565b61013f61022e3660046116f6565b610b40565b61013f610241366004611711565b610b82565b61013f61025436600461167e565b600560209081525f928352604080842090915290825290205481565b61013f61027e3660046116f6565b6001600160a01b03165f9081526008602052604090205490565b6003546102ab906001600160a01b031681565b6040516001600160a01b039091168152602001610149565b6102ab6102d13660046116df565b610bb4565b6101786102e4366004611730565b610bf1565b6101786102f73660046116df565b610fe3565b61013f61030a3660046116f6565b6110b5565b6009546102ab906001600160a01b031681565b61013f61033036600461167e565b600660209081525f928352604080842090915290825290205481565b6101786110e1565b61013f6103623660046116f6565b611101565b6001600160a01b038082165f818152600660209081526040808320948716808452948252808320549383526005825280832094835293905291822054670de0b6b3a7640000906103b685611101565b6103c09190611776565b6001600160a01b0386165f908152600860205260409020546103e29190611789565b6103ec91906117a0565b6103f691906117bf565b90505b92915050565b5f5460408051630ccc574960e41b815290516001600160a01b03909216916391d1485491839163ccc57490916004808201926020929091908290030181865afa15801561044e573d5f5f3e3d5ffd5b505050506040513d601f19601f8201168201806040525081019061047291906117d2565b6040516001600160e01b031960e084901b1681526004810191909152336024820152604401602060405180830381865afa1580156104b2573d5f5f3e3d5ffd5b505050506040513d601f19601f820116820180604052508101906104d691906117e9565b6104fa57604051630ea7d7ed60e21b81523360048201526024015b60405180910390fd5b6001600160a01b0382165f908152600460205260409020805442116105325760405163d9ba1add60e01b815260040160405180910390fd5b600281018290556040518281526001600160a01b038416907fad2f86b01ed93b4b3a150d448c61a4f5d8d38075d3c0c64cc0a26fd6e1f49545906020015b60405180910390a2505050565b335f61058960016111ae565b90505f5b81811015610643575f6105a16001836111b7565b6001600160a01b0381165f90815260046020526040902090915081906105c682611101565b60048201556105d482610b40565b60038201556001600160a01b03861615610638576105f28683610367565b6001600160a01b038084165f818152600660209081526040808320948c168084529482528083209590955560048601549282526005815284822093825292909252919020555b50505060010161058d565b5061064d836111c2565b505050565b61065a61126a565b335f61066660016111ae565b90505f5b81811015610720575f61067e6001836111b7565b6001600160a01b0381165f90815260046020526040902090915081906106a382611101565b60048201556106b182610b40565b60038201556001600160a01b03861615610715576106cf8683610367565b6001600160a01b038084165f818152600660209081526040808320948c168084529482528083209590955560048601549282526005815284822093825292909252919020555b50505060010161066a565b505f61072c60016111ae565b90505f5b818110156107ef575f6107446001836111b7565b6001600160a01b0381165f908152600660209081526040808320338452909152902054909150819080156107e4576001600160a01b0382165f8181526006602090815260408083203380855292528220919091556107a39190836112d7565b6040518181526001600160a01b0383169033907f540798df468d7b23d11f156fdb954cb19ad414d150722a7b6d55ba369dea792e9060200160405180910390a35b505050600101610730565b505050506107fb611336565b565b5f5460408051630ccc574960e41b815290516001600160a01b03909216916391d1485491839163ccc57490916004808201926020929091908290030181865afa15801561084c573d5f5f3e3d5ffd5b505050506040513d601f19601f8201168201806040525081019061087091906117d2565b6040516001600160e01b031960e084901b1681526004810191909152336024820152604401602060405180830381865afa1580156108b0573d5f5f3e3d5ffd5b505050506040513d601f19601f820116820180604052508101906108d491906117e9565b6108f357604051630ea7d7ed60e21b81523360048201526024016104f1565b6001600160a01b0381165f90815260046020526040812060020154900361092d5760405163064fed9960e31b815260040160405180910390fd5b6001600160a01b0381165f9081526004602052604090205442116109645760405163d9ba1add60e01b815260040160405180910390fd5b6040516370a0823160e01b81523060048201525f906001600160a01b038316906370a0823190602401602060405180830381865afa1580156109a8573d5f5f3e3d5ffd5b505050506040513d601f19601f820116820180604052508101906109cc91906117d2565b905080156109f057604051633007cea360e01b8152600481018290526024016104f1565b6109fb600183611360565b506001600160a01b0382165f81815260046020818152604080842084815560018101859055600281018590556003810185905590920192909255519182527f66257bcef574219c04f7c05f7a1c78d599da10491294c92a5805c48b4cdf5009910160405180910390a15050565b815f610a7460016111ae565b90505f5b81811015610b2e575f610a8c6001836111b7565b6001600160a01b0381165f9081526004602052604090209091508190610ab182611101565b6004820155610abf82610b40565b60038201556001600160a01b03861615610b2357610add8683610367565b6001600160a01b038084165f818152600660209081526040808320948c168084529482528083209590955560048601549282526005815284822093825292909252919020555b505050600101610a78565b50610b3a338585611374565b50505050565b6001600160a01b0381165f908152600460205260408120544210610b7b576001600160a01b0382165f908152600460205260409020546103f9565b4292915050565b5f8282604051602001610b96929190611808565b60405160208183030381529060405280519060200120905092915050565b5f610bbf60016111ae565b8210610bde57604051634e23d03560e01b815260040160405180910390fd5b5f610bea6001846111b7565b9392505050565b5f5460408051630ccc574960e41b815290516001600160a01b03909216916391d1485491839163ccc57490916004808201926020929091908290030181865afa158015610c40573d5f5f3e3d5ffd5b505050506040513d601f19601f82011682018060405250810190610c6491906117d2565b6040516001600160e01b031960e084901b1681526004810191909152336024820152604401602060405180830381865afa158015610ca4573d5f5f3e3d5ffd5b505050506040513d601f19601f82011682018060405250810190610cc891906117e9565b610ce757604051630ea7d7ed60e21b81523360048201526024016104f1565b5f5f610cf360016111ae565b90505f5b81811015610dad575f610d0b6001836111b7565b6001600160a01b0381165f9081526004602052604090209091508190610d3082611101565b6004820155610d3e82610b40565b60038201556001600160a01b03861615610da257610d5c8683610367565b6001600160a01b038084165f818152600660209081526040808320948c168084529482528083209590955560048601549282526005815284822093825292909252919020555b505050600101610cf7565b506001600160a01b0385165f9081526004602052604081206002810154909103610e4e57835f03610df45760405160016203036160e11b0319815260040160405180910390fd5b610dff600187611452565b5060028101849055604080516001600160a01b0388168152602081018690527f68e3e9397770d9dfa88c0953a34e1a70a05416b3895957f5b689787a920791c4910160405180910390a1610e7f565b5f84118015610e61575080600201548414155b15610e7f576040516333fec8c760e21b815260040160405180910390fd5b80544210610ea0576002810154610e9690866117a0565b6001820155610ee6565b80545f90610eaf904290611776565b90505f826001015482610ec29190611789565b6002840154909150610ed482896117bf565b610ede91906117a0565b600184015550505b6040516370a0823160e01b81523060048201525f906001600160a01b038816906370a0823190602401602060405180830381865afa158015610f2a573d5f5f3e3d5ffd5b505050506040513d601f19601f82011682018060405250810190610f4e91906117d2565b9050816002015481610f6091906117a0565b82600101541115610f845760405163010ee96f60e31b815260040160405180910390fd5b42600383018190556002830154610f9a916117bf565b82556040518681526001600160a01b038816907fac24935fd910bc682b5ccb1a07b718cadf8cf2f6d1404c4f3ddc3662dae40e299060200160405180910390a250505050505050565b335f610fef60016111ae565b90505f5b818110156110a9575f6110076001836111b7565b6001600160a01b0381165f908152600460205260409020909150819061102c82611101565b600482015561103a82610b40565b60038201556001600160a01b0386161561109e576110588683610367565b6001600160a01b038084165f818152600660209081526040808320948c168084529482528083209590955560048601549282526005815284822093825292909252919020555b505050600101610ff3565b5061064d333385611374565b6001600160a01b0381165f90815260046020526040812060028101546001909101546103f99190611789565b6110e9610652565b335f908152600860205260409020546107fb906111c2565b5f6007545f0361112a57506001600160a01b03165f908152600460208190526040909120015490565b6007546001600160a01b0383165f908152600460205260409020600181015460039091015461115885610b40565b6111629190611776565b61116c9190611789565b61117e90670de0b6b3a7640000611789565b61118891906117a0565b6001600160a01b0383165f90815260046020819052604090912001546103f991906117bf565b5f6103f9825490565b5f6103f68383611466565b805f036111e25760405163061bb89b60e51b815260040160405180910390fd5b8060075f8282546111f39190611776565b9091555050335f9081526008602052604081208054839290611216908490611776565b9091555050600354611232906001600160a01b031633836112d7565b60405181815233907f7084f5476618d8e60b11ef0d7d3f06914655adb8793e28ff7f018d4c76d505d59060200160405180910390a250565b7f9b779b17422d0df92223018b32b4d1fa46e071723d6817e2486d003becc55f005c156112aa57604051633ee5aeb560e01b815260040160405180910390fd5b6107fb60017f9b779b17422d0df92223018b32b4d1fa46e071723d6817e2486d003becc55f005b9061148c565b6040516001600160a01b0383811660248301526044820183905261064d91859182169063a9059cbb906064015b604051602081830303815290604052915060e01b6020820180516001600160e01b038381831617835250505050611493565b6107fb5f7f9b779b17422d0df92223018b32b4d1fa46e071723d6817e2486d003becc55f006112d1565b5f6103f6836001600160a01b0384166114ff565b805f0361139457604051636a76ff9f60e01b815260040160405180910390fd5b6003546001600160a01b03166113bd5760405163417198d360e01b815260040160405180910390fd5b8060075f8282546113ce91906117bf565b90915550506001600160a01b0382165f90815260086020526040812080548392906113fa9084906117bf565b9091555050600354611417906001600160a01b03168430846115e2565b816001600160a01b03167f9e71bc8eea02a63969f509818f2dafb9254532904319f9dbda79b67bd34a5f3d8260405161057091815260200190565b5f6103f6836001600160a01b03841661161b565b5f825f01828154811061147b5761147b61184b565b905f5260205f200154905092915050565b80825d5050565b5f5f60205f8451602086015f885af1806114b2576040513d5f823e3d81fd5b50505f513d915081156114c95780600114156114d6565b6001600160a01b0384163b155b15610b3a57604051635274afe760e01b81526001600160a01b03851660048201526024016104f1565b5f81815260018301602052604081205480156115d9575f611521600183611776565b85549091505f9061153490600190611776565b9050808214611593575f865f0182815481106115525761155261184b565b905f5260205f200154905080875f0184815481106115725761157261184b565b5f918252602080832090910192909255918252600188019052604090208390555b85548690806115a4576115a461185f565b600190038181905f5260205f20015f90559055856001015f8681526020019081526020015f205f9055600193505050506103f9565b5f9150506103f9565b6040516001600160a01b038481166024830152838116604483015260648201839052610b3a9186918216906323b872dd90608401611304565b5f81815260018301602052604081205461166057508154600181810184555f8481526020808220909301849055845484825282860190935260409020919091556103f9565b505f6103f9565b6001600160a01b038116811461167b575f5ffd5b50565b5f5f6040838503121561168f575f5ffd5b823561169a81611667565b915060208301356116aa81611667565b809150509250929050565b5f5f604083850312156116c6575f5ffd5b82356116d181611667565b946020939093013593505050565b5f602082840312156116ef575f5ffd5b5035919050565b5f60208284031215611706575f5ffd5b8135610bea81611667565b5f5f60408385031215611722575f5ffd5b82356003811061169a575f5ffd5b5f5f5f60608486031215611742575f5ffd5b833561174d81611667565b95602085013595506040909401359392505050565b634e487b7160e01b5f52601160045260245ffd5b818103818111156103f9576103f9611762565b80820281158282048414176103f9576103f9611762565b5f826117ba57634e487b7160e01b5f52601260045260245ffd5b500490565b808201808211156103f9576103f9611762565b5f602082840312156117e2575f5ffd5b5051919050565b5f602082840312156117f9575f5ffd5b81518015158114610bea575f5ffd5b5f6003841061182557634e487b7160e01b5f52602160045260245ffd5b5060f89290921b825260601b6bffffffffffffffffffffffff1916600182015260150190565b634e487b7160e01b5f52603260045260245ffd5b634e487b7160e01b5f52603160045260245ffdfea2646970667358221220b973fa74d37cba50823d2585d23ab0df5d2bd01a5ca059a79d63645e6030929b64736f6c634300081c0033","linkReferences":{}},"methodIdentifiers":{"DEFAULT_MAX_REBALANCE_OPERATIONS()":"168b813a","INITIAL_MINIMUM_PAUSE_TIME()":"a0506f0b","MAX_REBALANCE_OPERATIONS()":"5ed975e5","addArk(address)":"e37d5b7f","addArks(address[])":"cc5b1e55","adjustBuffer((address,address,uint256,bytes,bytes)[])":"cada5143","allowance(address,address)":"dd62ed3e","approve(address,uint256)":"095ea7b3","arks(uint256)":"ff32a42a","asset()":"38d52e0f","balanceOf(address)":"70a08231","bufferArk()":"c8169aa1","config()":"79502c55","configurationManager()":"c9c667e3","convertToAssets(uint256)":"07a2d13a","convertToShares(uint256)":"c6e6f592","decimals()":"313ce567","deposit(uint256,address)":"6e553f65","deposit(uint256,address,bytes)":"faa9bce9","depositAndStake(uint256,address)":"d537092f","depositAndStake(uint256,address,bytes)":"4fee7627","estimateAccruedTip()":"68482626","forceRebalance((address,address,uint256,bytes,bytes)[])":"e7b20e5b","generateRole(uint8,address)":"69b3054b","getArks()":"f1cd665b","getConfig()":"c3f909d4","getCooldown()":"218e4a15","getEffectiveArkDepositCap(address)":"ef2fc472","getLastActionTimestamp()":"3152d5d1","harborCommand()":"5b0f83f3","isArkActive(address)":"d25dd101","isArkWithdrawable(address)":"5340c012","lastTipTimestamp()":"71aedbc1","maxBufferRedeem(address)":"9265b76e","maxBufferWithdraw(address)":"3e314c76","maxDeposit(address)":"402d267d","maxMint(address)":"c63d75b6","maxRedeem(address)":"d905777e","maxWithdraw(address)":"ce96cb77","minimumPauseTime()":"680e57ab","mint(uint256,address)":"94bf804d","name()":"06fdde03","pause()":"8456cb59","pauseStartTime()":"94d7eaa4","paused()":"5c975abb","previewDeposit(uint256)":"ef8b30f7","previewMint(uint256)":"b3d7f6b9","previewRedeem(uint256)":"4cdad506","previewWithdraw(uint256)":"0a28a477","raft()":"117d8ae0","rebalance((address,address,uint256,bytes,bytes)[])":"fcf2849f","redeem(uint256,address,address)":"ba087652","redeemFromArks(uint256,address,address)":"3a7c9f0e","redeemFromBuffer(uint256,address,address)":"f3577816","removeArk(address)":"96c25a38","setArkDepositCap(address,uint256)":"34050560","setArkMaxDepositPercentageOfTVL(address,uint256)":"f3ba553e","setArkMaxRebalanceInflow(address,uint256)":"d45a07a1","setArkMaxRebalanceOutflow(address,uint256)":"b637766c","setFleetDepositCap(uint256)":"d902d41a","setMaxRebalanceOperations(uint256)":"133ab579","setMinimumBufferBalance(uint256)":"4daecb9c","setMinimumPauseTime(uint256)":"e193858f","setStakingRewardsManager(address)":"5e5a9ea9","setTipRate(uint256)":"5822198f","stake(uint256)":"a694fc3a","symbol()":"95d89b41","tip()":"2755cd2d","tipJar()":"7aaceb95","tipRate()":"498e76a0","totalAssets()":"01e1d114","totalSupply()":"18160ddd","transfer(address,uint256)":"a9059cbb","transferFrom(address,address,uint256)":"23b872dd","treasury()":"61d027b3","unpause()":"3f4ba83a","updateRebalanceCooldown(uint256)":"dc9de0a8","withdraw(uint256,address,address)":"b460af94","withdrawFromArks(uint256,address,address)":"a039e944","withdrawFromBuffer(uint256,address,address)":"5f538f6f","withdrawableTotalAssets()":"d570ee47"},"id":185}