{"abi":[{"type":"constructor","inputs":[{"name":"params","type":"tuple","internalType":"struct FleetCommanderParams","components":[{"name":"name","type":"string","internalType":"string"},{"name":"details","type":"string","internalType":"string"},{"name":"symbol","type":"string","internalType":"string"},{"name":"configurationManager","type":"address","internalType":"address"},{"name":"accessManager","type":"address","internalType":"address"},{"name":"asset","type":"address","internalType":"address"},{"name":"initialMinimumBufferBalance","type":"uint256","internalType":"uint256"},{"name":"initialRebalanceCooldown","type":"uint256","internalType":"uint256"},{"name":"depositCap","type":"uint256","internalType":"uint256"},{"name":"initialTipRate","type":"uint256","internalType":"Percentage"}]}],"stateMutability":"nonpayable"},{"type":"function","name":"ADMIRALS_QUARTERS_ROLE","inputs":[],"outputs":[{"name":"","type":"bytes32","internalType":"bytes32"}],"stateMutability":"view"},{"type":"function","name":"DECAY_CONTROLLER_ROLE","inputs":[],"outputs":[{"name":"","type":"bytes32","internalType":"bytes32"}],"stateMutability":"view"},{"type":"function","name":"GOVERNOR_ROLE","inputs":[],"outputs":[{"name":"","type":"bytes32","internalType":"bytes32"}],"stateMutability":"view"},{"type":"function","name":"GUARDIAN_ROLE","inputs":[],"outputs":[{"name":"","type":"bytes32","internalType":"bytes32"}],"stateMutability":"view"},{"type":"function","name":"INITIAL_MINIMUM_PAUSE_TIME","inputs":[],"outputs":[{"name":"","type":"uint256","internalType":"uint256"}],"stateMutability":"view"},{"type":"function","name":"MAX_REBALANCE_OPERATIONS","inputs":[],"outputs":[{"name":"","type":"uint256","internalType":"uint256"}],"stateMutability":"view"},{"type":"function","name":"SUPER_KEEPER_ROLE","inputs":[],"outputs":[{"name":"","type":"bytes32","internalType":"bytes32"}],"stateMutability":"view"},{"type":"function","name":"addArk","inputs":[{"name":"ark","type":"address","internalType":"address"}],"outputs":[],"stateMutability":"nonpayable"},{"type":"function","name":"addArks","inputs":[{"name":"_arkAddresses","type":"address[]","internalType":"address[]"}],"outputs":[],"stateMutability":"nonpayable"},{"type":"function","name":"allowance","inputs":[{"name":"owner","type":"address","internalType":"address"},{"name":"spender","type":"address","internalType":"address"}],"outputs":[{"name":"","type":"uint256","internalType":"uint256"}],"stateMutability":"view"},{"type":"function","name":"approve","inputs":[{"name":"spender","type":"address","internalType":"address"},{"name":"value","type":"uint256","internalType":"uint256"}],"outputs":[{"name":"","type":"bool","internalType":"bool"}],"stateMutability":"nonpayable"},{"type":"function","name":"arks","inputs":[{"name":"index","type":"uint256","internalType":"uint256"}],"outputs":[{"name":"","type":"address","internalType":"address"}],"stateMutability":"view"},{"type":"function","name":"asset","inputs":[],"outputs":[{"name":"","type":"address","internalType":"address"}],"stateMutability":"view"},{"type":"function","name":"balanceOf","inputs":[{"name":"account","type":"address","internalType":"address"}],"outputs":[{"name":"","type":"uint256","internalType":"uint256"}],"stateMutability":"view"},{"type":"function","name":"bufferArk","inputs":[],"outputs":[{"name":"","type":"address","internalType":"address"}],"stateMutability":"view"},{"type":"function","name":"config","inputs":[],"outputs":[{"name":"bufferArk","type":"address","internalType":"contract IArk"},{"name":"minimumBufferBalance","type":"uint256","internalType":"uint256"},{"name":"depositCap","type":"uint256","internalType":"uint256"},{"name":"maxRebalanceOperations","type":"uint256","internalType":"uint256"},{"name":"stakingRewardsManager","type":"address","internalType":"address"}],"stateMutability":"view"},{"type":"function","name":"configurationManager","inputs":[],"outputs":[{"name":"","type":"address","internalType":"contract IConfigurationManager"}],"stateMutability":"view"},{"type":"function","name":"convertToAssets","inputs":[{"name":"shares","type":"uint256","internalType":"uint256"}],"outputs":[{"name":"","type":"uint256","internalType":"uint256"}],"stateMutability":"view"},{"type":"function","name":"convertToShares","inputs":[{"name":"assets","type":"uint256","internalType":"uint256"}],"outputs":[{"name":"","type":"uint256","internalType":"uint256"}],"stateMutability":"view"},{"type":"function","name":"decimals","inputs":[],"outputs":[{"name":"","type":"uint8","internalType":"uint8"}],"stateMutability":"view"},{"type":"function","name":"deposit","inputs":[{"name":"assets","type":"uint256","internalType":"uint256"},{"name":"receiver","type":"address","internalType":"address"}],"outputs":[{"name":"shares","type":"uint256","internalType":"uint256"}],"stateMutability":"nonpayable"},{"type":"function","name":"deposit","inputs":[{"name":"assets","type":"uint256","internalType":"uint256"},{"name":"receiver","type":"address","internalType":"address"},{"name":"referralCode","type":"bytes","internalType":"bytes"}],"outputs":[{"name":"","type":"uint256","internalType":"uint256"}],"stateMutability":"nonpayable"},{"type":"function","name":"details","inputs":[],"outputs":[{"name":"","type":"string","internalType":"string"}],"stateMutability":"view"},{"type":"function","name":"fleetCommanderRewardsManagerFactory","inputs":[],"outputs":[{"name":"","type":"address","internalType":"address"}],"stateMutability":"view"},{"type":"function","name":"forceRebalance","inputs":[{"name":"rebalanceData","type":"tuple[]","internalType":"struct RebalanceData[]","components":[{"name":"fromArk","type":"address","internalType":"address"},{"name":"toArk","type":"address","internalType":"address"},{"name":"amount","type":"uint256","internalType":"uint256"},{"name":"boardData","type":"bytes","internalType":"bytes"},{"name":"disembarkData","type":"bytes","internalType":"bytes"}]}],"outputs":[],"stateMutability":"nonpayable"},{"type":"function","name":"generateRole","inputs":[{"name":"roleName","type":"uint8","internalType":"enum ContractSpecificRoles"},{"name":"roleTargetContract","type":"address","internalType":"address"}],"outputs":[{"name":"","type":"bytes32","internalType":"bytes32"}],"stateMutability":"pure"},{"type":"function","name":"getActiveArks","inputs":[],"outputs":[{"name":"","type":"address[]","internalType":"address[]"}],"stateMutability":"view"},{"type":"function","name":"getConfig","inputs":[],"outputs":[{"name":"","type":"tuple","internalType":"struct FleetConfig","components":[{"name":"bufferArk","type":"address","internalType":"contract IArk"},{"name":"minimumBufferBalance","type":"uint256","internalType":"uint256"},{"name":"depositCap","type":"uint256","internalType":"uint256"},{"name":"maxRebalanceOperations","type":"uint256","internalType":"uint256"},{"name":"stakingRewardsManager","type":"address","internalType":"address"}]}],"stateMutability":"view"},{"type":"function","name":"getCooldown","inputs":[],"outputs":[{"name":"","type":"uint256","internalType":"uint256"}],"stateMutability":"view"},{"type":"function","name":"getEffectiveArkDepositCap","inputs":[{"name":"ark","type":"address","internalType":"contract IArk"}],"outputs":[{"name":"","type":"uint256","internalType":"uint256"}],"stateMutability":"view"},{"type":"function","name":"getLastActionTimestamp","inputs":[],"outputs":[{"name":"","type":"uint256","internalType":"uint256"}],"stateMutability":"view"},{"type":"function","name":"harborCommand","inputs":[],"outputs":[{"name":"","type":"address","internalType":"address"}],"stateMutability":"view"},{"type":"function","name":"hasAdmiralsQuartersRole","inputs":[{"name":"account","type":"address","internalType":"address"}],"outputs":[{"name":"","type":"bool","internalType":"bool"}],"stateMutability":"view"},{"type":"function","name":"isArkActiveOrBufferArk","inputs":[{"name":"arkAddress","type":"address","internalType":"address"}],"outputs":[{"name":"","type":"bool","internalType":"bool"}],"stateMutability":"view"},{"type":"function","name":"lastTipTimestamp","inputs":[],"outputs":[{"name":"","type":"uint256","internalType":"uint256"}],"stateMutability":"view"},{"type":"function","name":"maxBufferRedeem","inputs":[{"name":"owner","type":"address","internalType":"address"}],"outputs":[{"name":"_maxBufferRedeem","type":"uint256","internalType":"uint256"}],"stateMutability":"view"},{"type":"function","name":"maxBufferWithdraw","inputs":[{"name":"owner","type":"address","internalType":"address"}],"outputs":[{"name":"_maxBufferWithdraw","type":"uint256","internalType":"uint256"}],"stateMutability":"view"},{"type":"function","name":"maxDeposit","inputs":[{"name":"owner","type":"address","internalType":"address"}],"outputs":[{"name":"_maxDeposit","type":"uint256","internalType":"uint256"}],"stateMutability":"view"},{"type":"function","name":"maxMint","inputs":[{"name":"owner","type":"address","internalType":"address"}],"outputs":[{"name":"_maxMint","type":"uint256","internalType":"uint256"}],"stateMutability":"view"},{"type":"function","name":"maxRedeem","inputs":[{"name":"owner","type":"address","internalType":"address"}],"outputs":[{"name":"_maxRedeem","type":"uint256","internalType":"uint256"}],"stateMutability":"view"},{"type":"function","name":"maxWithdraw","inputs":[{"name":"owner","type":"address","internalType":"address"}],"outputs":[{"name":"_maxWithdraw","type":"uint256","internalType":"uint256"}],"stateMutability":"view"},{"type":"function","name":"minimumPauseTime","inputs":[],"outputs":[{"name":"","type":"uint256","internalType":"uint256"}],"stateMutability":"view"},{"type":"function","name":"mint","inputs":[{"name":"shares","type":"uint256","internalType":"uint256"},{"name":"receiver","type":"address","internalType":"address"}],"outputs":[{"name":"assets","type":"uint256","internalType":"uint256"}],"stateMutability":"nonpayable"},{"type":"function","name":"name","inputs":[],"outputs":[{"name":"","type":"string","internalType":"string"}],"stateMutability":"view"},{"type":"function","name":"pause","inputs":[],"outputs":[],"stateMutability":"nonpayable"},{"type":"function","name":"pauseStartTime","inputs":[],"outputs":[{"name":"","type":"uint256","internalType":"uint256"}],"stateMutability":"view"},{"type":"function","name":"paused","inputs":[],"outputs":[{"name":"","type":"bool","internalType":"bool"}],"stateMutability":"view"},{"type":"function","name":"previewDeposit","inputs":[{"name":"assets","type":"uint256","internalType":"uint256"}],"outputs":[{"name":"","type":"uint256","internalType":"uint256"}],"stateMutability":"view"},{"type":"function","name":"previewMint","inputs":[{"name":"shares","type":"uint256","internalType":"uint256"}],"outputs":[{"name":"","type":"uint256","internalType":"uint256"}],"stateMutability":"view"},{"type":"function","name":"previewRedeem","inputs":[{"name":"shares","type":"uint256","internalType":"uint256"}],"outputs":[{"name":"","type":"uint256","internalType":"uint256"}],"stateMutability":"view"},{"type":"function","name":"previewTip","inputs":[{"name":"tipJar","type":"address","internalType":"address"},{"name":"totalSupply","type":"uint256","internalType":"uint256"}],"outputs":[{"name":"tippedShares","type":"uint256","internalType":"uint256"}],"stateMutability":"view"},{"type":"function","name":"previewWithdraw","inputs":[{"name":"assets","type":"uint256","internalType":"uint256"}],"outputs":[{"name":"","type":"uint256","internalType":"uint256"}],"stateMutability":"view"},{"type":"function","name":"raft","inputs":[],"outputs":[{"name":"","type":"address","internalType":"address"}],"stateMutability":"view"},{"type":"function","name":"rebalance","inputs":[{"name":"rebalanceData","type":"tuple[]","internalType":"struct RebalanceData[]","components":[{"name":"fromArk","type":"address","internalType":"address"},{"name":"toArk","type":"address","internalType":"address"},{"name":"amount","type":"uint256","internalType":"uint256"},{"name":"boardData","type":"bytes","internalType":"bytes"},{"name":"disembarkData","type":"bytes","internalType":"bytes"}]}],"outputs":[],"stateMutability":"nonpayable"},{"type":"function","name":"redeem","inputs":[{"name":"shares","type":"uint256","internalType":"uint256"},{"name":"receiver","type":"address","internalType":"address"},{"name":"owner","type":"address","internalType":"address"}],"outputs":[{"name":"assets","type":"uint256","internalType":"uint256"}],"stateMutability":"nonpayable"},{"type":"function","name":"redeemFromArks","inputs":[{"name":"shares","type":"uint256","internalType":"uint256"},{"name":"receiver","type":"address","internalType":"address"},{"name":"owner","type":"address","internalType":"address"}],"outputs":[{"name":"totalAssetsToWithdraw","type":"uint256","internalType":"uint256"}],"stateMutability":"nonpayable"},{"type":"function","name":"redeemFromBuffer","inputs":[{"name":"shares","type":"uint256","internalType":"uint256"},{"name":"receiver","type":"address","internalType":"address"},{"name":"owner","type":"address","internalType":"address"}],"outputs":[{"name":"assets","type":"uint256","internalType":"uint256"}],"stateMutability":"nonpayable"},{"type":"function","name":"removeArk","inputs":[{"name":"ark","type":"address","internalType":"address"}],"outputs":[],"stateMutability":"nonpayable"},{"type":"function","name":"setArkDepositCap","inputs":[{"name":"ark","type":"address","internalType":"address"},{"name":"newDepositCap","type":"uint256","internalType":"uint256"}],"outputs":[],"stateMutability":"nonpayable"},{"type":"function","name":"setArkMaxDepositPercentageOfTVL","inputs":[{"name":"ark","type":"address","internalType":"address"},{"name":"newMaxDepositPercentageOfTVL","type":"uint256","internalType":"Percentage"}],"outputs":[],"stateMutability":"nonpayable"},{"type":"function","name":"setArkMaxRebalanceInflow","inputs":[{"name":"ark","type":"address","internalType":"address"},{"name":"newMaxRebalanceInflow","type":"uint256","internalType":"uint256"}],"outputs":[],"stateMutability":"nonpayable"},{"type":"function","name":"setArkMaxRebalanceOutflow","inputs":[{"name":"ark","type":"address","internalType":"address"},{"name":"newMaxRebalanceOutflow","type":"uint256","internalType":"uint256"}],"outputs":[],"stateMutability":"nonpayable"},{"type":"function","name":"setFleetDepositCap","inputs":[{"name":"newCap","type":"uint256","internalType":"uint256"}],"outputs":[],"stateMutability":"nonpayable"},{"type":"function","name":"setMaxRebalanceOperations","inputs":[{"name":"newMaxRebalanceOperations","type":"uint256","internalType":"uint256"}],"outputs":[],"stateMutability":"nonpayable"},{"type":"function","name":"setMinimumBufferBalance","inputs":[{"name":"newMinimumBalance","type":"uint256","internalType":"uint256"}],"outputs":[],"stateMutability":"nonpayable"},{"type":"function","name":"setMinimumPauseTime","inputs":[{"name":"_newMinimumPauseTime","type":"uint256","internalType":"uint256"}],"outputs":[],"stateMutability":"nonpayable"},{"type":"function","name":"setTipRate","inputs":[{"name":"newTipRate","type":"uint256","internalType":"Percentage"}],"outputs":[],"stateMutability":"nonpayable"},{"type":"function","name":"symbol","inputs":[],"outputs":[{"name":"","type":"string","internalType":"string"}],"stateMutability":"view"},{"type":"function","name":"tip","inputs":[],"outputs":[{"name":"","type":"uint256","internalType":"uint256"}],"stateMutability":"nonpayable"},{"type":"function","name":"tipJar","inputs":[],"outputs":[{"name":"","type":"address","internalType":"address"}],"stateMutability":"view"},{"type":"function","name":"tipRate","inputs":[],"outputs":[{"name":"","type":"uint256","internalType":"Percentage"}],"stateMutability":"view"},{"type":"function","name":"totalAssets","inputs":[],"outputs":[{"name":"","type":"uint256","internalType":"uint256"}],"stateMutability":"view"},{"type":"function","name":"totalSupply","inputs":[],"outputs":[{"name":"","type":"uint256","internalType":"uint256"}],"stateMutability":"view"},{"type":"function","name":"transfer","inputs":[{"name":"to","type":"address","internalType":"address"},{"name":"amount","type":"uint256","internalType":"uint256"}],"outputs":[{"name":"","type":"bool","internalType":"bool"}],"stateMutability":"nonpayable"},{"type":"function","name":"transferFrom","inputs":[{"name":"from","type":"address","internalType":"address"},{"name":"to","type":"address","internalType":"address"},{"name":"amount","type":"uint256","internalType":"uint256"}],"outputs":[{"name":"","type":"bool","internalType":"bool"}],"stateMutability":"nonpayable"},{"type":"function","name":"treasury","inputs":[],"outputs":[{"name":"","type":"address","internalType":"address"}],"stateMutability":"view"},{"type":"function","name":"unpause","inputs":[],"outputs":[],"stateMutability":"nonpayable"},{"type":"function","name":"updateRebalanceCooldown","inputs":[{"name":"newCooldown","type":"uint256","internalType":"uint256"}],"outputs":[],"stateMutability":"nonpayable"},{"type":"function","name":"updateStakingRewardsManager","inputs":[],"outputs":[],"stateMutability":"nonpayable"},{"type":"function","name":"withdraw","inputs":[{"name":"assets","type":"uint256","internalType":"uint256"},{"name":"receiver","type":"address","internalType":"address"},{"name":"owner","type":"address","internalType":"address"}],"outputs":[{"name":"shares","type":"uint256","internalType":"uint256"}],"stateMutability":"nonpayable"},{"type":"function","name":"withdrawFromArks","inputs":[{"name":"assets","type":"uint256","internalType":"uint256"},{"name":"receiver","type":"address","internalType":"address"},{"name":"owner","type":"address","internalType":"address"}],"outputs":[{"name":"totalSharesToRedeem","type":"uint256","internalType":"uint256"}],"stateMutability":"nonpayable"},{"type":"function","name":"withdrawFromBuffer","inputs":[{"name":"assets","type":"uint256","internalType":"uint256"},{"name":"receiver","type":"address","internalType":"address"},{"name":"owner","type":"address","internalType":"address"}],"outputs":[{"name":"shares","type":"uint256","internalType":"uint256"}],"stateMutability":"nonpayable"},{"type":"function","name":"withdrawableTotalAssets","inputs":[],"outputs":[{"name":"","type":"uint256","internalType":"uint256"}],"stateMutability":"view"},{"type":"event","name":"Approval","inputs":[{"name":"owner","type":"address","indexed":true,"internalType":"address"},{"name":"spender","type":"address","indexed":true,"internalType":"address"},{"name":"value","type":"uint256","indexed":false,"internalType":"uint256"}],"anonymous":false},{"type":"event","name":"ArkAdded","inputs":[{"name":"ark","type":"address","indexed":true,"internalType":"address"}],"anonymous":false},{"type":"event","name":"ArkRemoved","inputs":[{"name":"ark","type":"address","indexed":true,"internalType":"address"}],"anonymous":false},{"type":"event","name":"CooldownUpdated","inputs":[{"name":"previousCooldown","type":"uint256","indexed":false,"internalType":"uint256"},{"name":"newCooldown","type":"uint256","indexed":false,"internalType":"uint256"}],"anonymous":false},{"type":"event","name":"Deposit","inputs":[{"name":"sender","type":"address","indexed":true,"internalType":"address"},{"name":"owner","type":"address","indexed":true,"internalType":"address"},{"name":"assets","type":"uint256","indexed":false,"internalType":"uint256"},{"name":"shares","type":"uint256","indexed":false,"internalType":"uint256"}],"anonymous":false},{"type":"event","name":"FeeAddressUpdated","inputs":[{"name":"newAddress","type":"address","indexed":false,"internalType":"address"}],"anonymous":false},{"type":"event","name":"FleetCommanderDepositCapUpdated","inputs":[{"name":"newCap","type":"uint256","indexed":false,"internalType":"uint256"}],"anonymous":false},{"type":"event","name":"FleetCommanderMaxRebalanceOperationsUpdated","inputs":[{"name":"newMaxRebalanceOperations","type":"uint256","indexed":false,"internalType":"uint256"}],"anonymous":false},{"type":"event","name":"FleetCommanderRedeemedFromArks","inputs":[{"name":"owner","type":"address","indexed":true,"internalType":"address"},{"name":"receiver","type":"address","indexed":false,"internalType":"address"},{"name":"totalRedeemed","type":"uint256","indexed":false,"internalType":"uint256"}],"anonymous":false},{"type":"event","name":"FleetCommanderReferral","inputs":[{"name":"referee","type":"address","indexed":true,"internalType":"address"},{"name":"referralCode","type":"bytes","indexed":true,"internalType":"bytes"}],"anonymous":false},{"type":"event","name":"FleetCommanderStakingRewardsUpdated","inputs":[{"name":"newStakingRewards","type":"address","indexed":false,"internalType":"address"}],"anonymous":false},{"type":"event","name":"FleetCommanderWithdrawnFromArks","inputs":[{"name":"owner","type":"address","indexed":true,"internalType":"address"},{"name":"receiver","type":"address","indexed":false,"internalType":"address"},{"name":"totalWithdrawn","type":"uint256","indexed":false,"internalType":"uint256"}],"anonymous":false},{"type":"event","name":"FleetCommanderminimumBufferBalanceUpdated","inputs":[{"name":"newBalance","type":"uint256","indexed":false,"internalType":"uint256"}],"anonymous":false},{"type":"event","name":"FundsBufferBalanceUpdated","inputs":[{"name":"user","type":"address","indexed":true,"internalType":"address"},{"name":"prevBalance","type":"uint256","indexed":false,"internalType":"uint256"},{"name":"newBalance","type":"uint256","indexed":false,"internalType":"uint256"}],"anonymous":false},{"type":"event","name":"FundsQueueRefilled","inputs":[{"name":"keeper","type":"address","indexed":true,"internalType":"address"},{"name":"prevBalance","type":"uint256","indexed":false,"internalType":"uint256"},{"name":"newBalance","type":"uint256","indexed":false,"internalType":"uint256"}],"anonymous":false},{"type":"event","name":"MinFundsQueueBalanceUpdated","inputs":[{"name":"keeper","type":"address","indexed":true,"internalType":"address"},{"name":"newBalance","type":"uint256","indexed":false,"internalType":"uint256"}],"anonymous":false},{"type":"event","name":"MinimumPauseTimeUpdated","inputs":[{"name":"newMinimumPauseTime","type":"uint256","indexed":false,"internalType":"uint256"}],"anonymous":false},{"type":"event","name":"Paused","inputs":[{"name":"account","type":"address","indexed":false,"internalType":"address"}],"anonymous":false},{"type":"event","name":"QueuedFundsCommitted","inputs":[{"name":"keeper","type":"address","indexed":true,"internalType":"address"},{"name":"prevBalance","type":"uint256","indexed":false,"internalType":"uint256"},{"name":"newBalance","type":"uint256","indexed":false,"internalType":"uint256"}],"anonymous":false},{"type":"event","name":"Rebalanced","inputs":[{"name":"keeper","type":"address","indexed":true,"internalType":"address"},{"name":"rebalances","type":"tuple[]","indexed":false,"internalType":"struct RebalanceData[]","components":[{"name":"fromArk","type":"address","internalType":"address"},{"name":"toArk","type":"address","internalType":"address"},{"name":"amount","type":"uint256","internalType":"uint256"},{"name":"boardData","type":"bytes","internalType":"bytes"},{"name":"disembarkData","type":"bytes","internalType":"bytes"}]}],"anonymous":false},{"type":"event","name":"TipAccrued","inputs":[{"name":"tipAmount","type":"uint256","indexed":false,"internalType":"uint256"}],"anonymous":false},{"type":"event","name":"TipJarUpdated","inputs":[{"name":"newTipJar","type":"address","indexed":false,"internalType":"address"}],"anonymous":false},{"type":"event","name":"TipRateUpdated","inputs":[{"name":"newTipRate","type":"uint256","indexed":false,"internalType":"Percentage"}],"anonymous":false},{"type":"event","name":"Transfer","inputs":[{"name":"from","type":"address","indexed":true,"internalType":"address"},{"name":"to","type":"address","indexed":true,"internalType":"address"},{"name":"value","type":"uint256","indexed":false,"internalType":"uint256"}],"anonymous":false},{"type":"event","name":"Unpaused","inputs":[{"name":"account","type":"address","indexed":false,"internalType":"address"}],"anonymous":false},{"type":"event","name":"Withdraw","inputs":[{"name":"sender","type":"address","indexed":true,"internalType":"address"},{"name":"receiver","type":"address","indexed":true,"internalType":"address"},{"name":"owner","type":"address","indexed":true,"internalType":"address"},{"name":"assets","type":"uint256","indexed":false,"internalType":"uint256"},{"name":"shares","type":"uint256","indexed":false,"internalType":"uint256"}],"anonymous":false},{"type":"error","name":"CallerIsNotAdmin","inputs":[{"name":"caller","type":"address","internalType":"address"}]},{"type":"error","name":"CallerIsNotAuthorizedToBoard","inputs":[{"name":"caller","type":"address","internalType":"address"}]},{"type":"error","name":"CallerIsNotCommander","inputs":[{"name":"caller","type":"address","internalType":"address"}]},{"type":"error","name":"CallerIsNotContractSpecificRole","inputs":[{"name":"caller","type":"address","internalType":"address"},{"name":"role","type":"bytes32","internalType":"bytes32"}]},{"type":"error","name":"CallerIsNotCurator","inputs":[{"name":"caller","type":"address","internalType":"address"}]},{"type":"error","name":"CallerIsNotDecayController","inputs":[{"name":"caller","type":"address","internalType":"address"}]},{"type":"error","name":"CallerIsNotGovernor","inputs":[{"name":"caller","type":"address","internalType":"address"}]},{"type":"error","name":"CallerIsNotGuardian","inputs":[{"name":"caller","type":"address","internalType":"address"}]},{"type":"error","name":"CallerIsNotGuardianOrGovernor","inputs":[{"name":"caller","type":"address","internalType":"address"}]},{"type":"error","name":"CallerIsNotKeeper","inputs":[{"name":"caller","type":"address","internalType":"address"}]},{"type":"error","name":"CallerIsNotRaft","inputs":[{"name":"caller","type":"address","internalType":"address"}]},{"type":"error","name":"CallerIsNotRaftOrCommander","inputs":[{"name":"caller","type":"address","internalType":"address"}]},{"type":"error","name":"CallerIsNotSuperKeeper","inputs":[{"name":"caller","type":"address","internalType":"address"}]},{"type":"error","name":"ConfigurationManagerZeroAddress","inputs":[]},{"type":"error","name":"CooldownEnforcerCooldownTooLong","inputs":[]},{"type":"error","name":"CooldownEnforcerCooldownTooShort","inputs":[]},{"type":"error","name":"CooldownNotElapsed","inputs":[{"name":"lastActionTimestamp","type":"uint256","internalType":"uint256"},{"name":"cooldown","type":"uint256","internalType":"uint256"},{"name":"currentTimestamp","type":"uint256","internalType":"uint256"}]},{"type":"error","name":"DirectGrantIsDisabled","inputs":[{"name":"caller","type":"address","internalType":"address"}]},{"type":"error","name":"DirectRevokeIsDisabled","inputs":[{"name":"caller","type":"address","internalType":"address"}]},{"type":"error","name":"ERC20InsufficientAllowance","inputs":[{"name":"spender","type":"address","internalType":"address"},{"name":"allowance","type":"uint256","internalType":"uint256"},{"name":"needed","type":"uint256","internalType":"uint256"}]},{"type":"error","name":"ERC20InsufficientBalance","inputs":[{"name":"sender","type":"address","internalType":"address"},{"name":"balance","type":"uint256","internalType":"uint256"},{"name":"needed","type":"uint256","internalType":"uint256"}]},{"type":"error","name":"ERC20InvalidApprover","inputs":[{"name":"approver","type":"address","internalType":"address"}]},{"type":"error","name":"ERC20InvalidReceiver","inputs":[{"name":"receiver","type":"address","internalType":"address"}]},{"type":"error","name":"ERC20InvalidSender","inputs":[{"name":"sender","type":"address","internalType":"address"}]},{"type":"error","name":"ERC20InvalidSpender","inputs":[{"name":"spender","type":"address","internalType":"address"}]},{"type":"error","name":"ERC4626ExceededMaxDeposit","inputs":[{"name":"receiver","type":"address","internalType":"address"},{"name":"assets","type":"uint256","internalType":"uint256"},{"name":"max","type":"uint256","internalType":"uint256"}]},{"type":"error","name":"ERC4626ExceededMaxMint","inputs":[{"name":"receiver","type":"address","internalType":"address"},{"name":"shares","type":"uint256","internalType":"uint256"},{"name":"max","type":"uint256","internalType":"uint256"}]},{"type":"error","name":"ERC4626ExceededMaxRedeem","inputs":[{"name":"owner","type":"address","internalType":"address"},{"name":"shares","type":"uint256","internalType":"uint256"},{"name":"max","type":"uint256","internalType":"uint256"}]},{"type":"error","name":"ERC4626ExceededMaxWithdraw","inputs":[{"name":"owner","type":"address","internalType":"address"},{"name":"assets","type":"uint256","internalType":"uint256"},{"name":"max","type":"uint256","internalType":"uint256"}]},{"type":"error","name":"EnforcedPause","inputs":[]},{"type":"error","name":"ExpectedPause","inputs":[]},{"type":"error","name":"FleetCommanderArkAlreadyExists","inputs":[{"name":"ark","type":"address","internalType":"address"}]},{"type":"error","name":"FleetCommanderArkAssetsNotZero","inputs":[{"name":"ark","type":"address","internalType":"address"}]},{"type":"error","name":"FleetCommanderArkDepositCapGreaterThanZero","inputs":[{"name":"ark","type":"address","internalType":"address"}]},{"type":"error","name":"FleetCommanderArkDepositCapZero","inputs":[{"name":"ark","type":"address","internalType":"address"}]},{"type":"error","name":"FleetCommanderArkNotActive","inputs":[{"name":"ark","type":"address","internalType":"address"}]},{"type":"error","name":"FleetCommanderArkNotFound","inputs":[{"name":"ark","type":"address","internalType":"address"}]},{"type":"error","name":"FleetCommanderAssetMismatch","inputs":[]},{"type":"error","name":"FleetCommanderCantUseMaxUintMovingFromBuffer","inputs":[]},{"type":"error","name":"FleetCommanderCantUseRebalanceOnBufferArk","inputs":[]},{"type":"error","name":"FleetCommanderEffectiveDepositCapExceeded","inputs":[{"name":"ark","type":"address","internalType":"address"},{"name":"amount","type":"uint256","internalType":"uint256"},{"name":"effectiveDepositCap","type":"uint256","internalType":"uint256"}]},{"type":"error","name":"FleetCommanderExceedsMaxInflow","inputs":[{"name":"fromArk","type":"address","internalType":"address"},{"name":"amount","type":"uint256","internalType":"uint256"},{"name":"maxRebalanceInflow","type":"uint256","internalType":"uint256"}]},{"type":"error","name":"FleetCommanderExceedsMaxOutflow","inputs":[{"name":"fromArk","type":"address","internalType":"address"},{"name":"amount","type":"uint256","internalType":"uint256"},{"name":"maxRebalanceOutflow","type":"uint256","internalType":"uint256"}]},{"type":"error","name":"FleetCommanderInsufficientBuffer","inputs":[]},{"type":"error","name":"FleetCommanderInvalidArkAddress","inputs":[]},{"type":"error","name":"FleetCommanderInvalidSourceArk","inputs":[{"name":"ark","type":"address","internalType":"address"}]},{"type":"error","name":"FleetCommanderInvalidStakingRewardsManager","inputs":[]},{"type":"error","name":"FleetCommanderMaxRebalanceOperationsTooHigh","inputs":[{"name":"newMaxRebalanceOperations","type":"uint256","internalType":"uint256"}]},{"type":"error","name":"FleetCommanderMovedMoreThanAvailable","inputs":[]},{"type":"error","name":"FleetCommanderNoExcessFunds","inputs":[]},{"type":"error","name":"FleetCommanderNoFundsMoved","inputs":[]},{"type":"error","name":"FleetCommanderPausableMinimumPauseTimeNotElapsed","inputs":[]},{"type":"error","name":"FleetCommanderPausableMinimumPauseTimeTooShort","inputs":[]},{"type":"error","name":"FleetCommanderRebalanceAmountZero","inputs":[{"name":"ark","type":"address","internalType":"address"}]},{"type":"error","name":"FleetCommanderRebalanceNoOperations","inputs":[]},{"type":"error","name":"FleetCommanderRebalanceTooManyOperations","inputs":[{"name":"operationsCount","type":"uint256","internalType":"uint256"}]},{"type":"error","name":"FleetCommanderStakingRewardsManagerNotSet","inputs":[]},{"type":"error","name":"FleetCommanderTransfersDisabled","inputs":[]},{"type":"error","name":"FleetCommanderUnauthorizedRedemption","inputs":[{"name":"caller","type":"address","internalType":"address"},{"name":"owner","type":"address","internalType":"address"}]},{"type":"error","name":"FleetCommanderUnauthorizedWithdrawal","inputs":[{"name":"caller","type":"address","internalType":"address"},{"name":"owner","type":"address","internalType":"address"}]},{"type":"error","name":"FleetCommanderZeroAmount","inputs":[]},{"type":"error","name":"InvalidAccessManagerAddress","inputs":[{"name":"invalidAddress","type":"address","internalType":"address"}]},{"type":"error","name":"InvalidFleetCommanderAddress","inputs":[]},{"type":"error","name":"InvalidTipJarAddress","inputs":[]},{"type":"error","name":"SafeERC20FailedOperation","inputs":[{"name":"token","type":"address","internalType":"address"}]},{"type":"error","name":"TipRateCannotExceedFivePercent","inputs":[]},{"type":"error","name":"WithdrawalAmountExceedsMaxBufferLimit","inputs":[]}],"bytecode":{"object":"0x610120604052674563918244f400006101005234801561001d575f5ffd5b5060405161aa5938038061aa5983398101604081905261003c91610737565b8060e001515f8261012001518360a001518480606001516202a3008260800151885f01518960400151816003908161007491906108d9565b50600461008182826108d9565b5050506001600160a01b0381166100b2576040516347bd7c1d60e01b81525f60048201526024015b60405180910390fd5b6040516301ffc9a760e01b815263cb695ef560e01b60048201526001600160a01b038216906301ffc9a790602401602060405180830381865afa1580156100fb573d5f5f3e3d5ffd5b505050506040513d601f19601f8201168201806040525081019061011f9190610993565b610147576040516347bd7c1d60e01b81526001600160a01b03821660048201526024016100a9565b6001600160a01b03166080526005805460ff191690556202a3008110156101815760405163f710d83560e01b815260040160405180910390fd5b60068190556040518181527f3cf175d91d8c5823f3729423b5a64130e40d4b09e88c6dc1925a260f26818c259060200160405180910390a1506001600160a01b0381166101e15760405163f1634df960e01b815260040160405180910390fd5b6001600160a01b0390811660a09081526040805161018081018252600961014082019081526842756666657241726b60b81b610160830152815281518083018352601181527042756666657241726b2064657461696c7360781b60208281019190915282015260808086015185169282019290925260608581015185169082015284830151909316908301525f1990820181905260c0820181905260e08201525f610100820181905290610120810161029c6012600a610ab0565b6102a7906064610abb565b815250306040516102b790610649565b6102c2929190610b00565b604051809103905ff0801580156102db573d5f5f3e3d5ffd5b506040519091506001600160a01b038216907fcb4a29d359e86f179111dcba8714def1a859612f729f2d224d13efeac51b36bc905f90a26104236040518060a00160405280836001600160a01b031681526020018460c00151815260200184610100015181526020016032815260200161035961050160201b60201c565b608051604051630f07f82960e01b81526001600160a01b039182166004820152306024820152911690630f07f829906044016020604051808303815f875af11580156103a7573d5f5f3e3d5ffd5b505050506040513d601f19601f820116820180604052508101906103cb9190610bda565b6001600160a01b031690528051600880546001600160a01b03199081166001600160a01b039384161790915560208301516009556040830151600a556060830151600b55608090920151600c80549093169116179055565b6020820151600d9061043590826108d9565b5050505f5f6104498361056960201b60201c565b915091508161045957601261045b565b805b60ff1660e05250506001600160a01b031660c0526101005161047e90829061063f565b1561049c5760405163ab9a408f60e01b815260040160405180910390fd5b60105542601155603c8210156104c55760405163d93a8d8760e01b815260040160405180910390fd5b620151808211156104e957604051637092ddf560e01b815260040160405180910390fd5b601282905580156104f957426013555b505050610c20565b5f60a0516001600160a01b031663f7e533ec6040518163ffffffff1660e01b8152600401602060405180830381865afa158015610540573d5f5f3e3d5ffd5b505050506040513d601f19601f820116820180604052508101906105649190610bda565b905090565b60408051600481526024810182526020810180516001600160e01b031663313ce56760e01b17905290515f918291829182916001600160a01b038716916105af91610bf3565b5f60405180830381855afa9150503d805f81146105e7576040519150601f19603f3d011682016040523d82523d5f602084013e6105ec565b606091505b509150915081801561060057506020815110155b15610633575f8180602001905181019061061a9190610c09565b905060ff8111610631576001969095509350505050565b505b505f9485945092505050565b8082115b92915050565b612dcf80617c8a83390190565b634e487b7160e01b5f52604160045260245ffd5b60405161014081016001600160401b038111828210171561068d5761068d610656565b60405290565b5f82601f8301126106a2575f5ffd5b81516001600160401b038111156106bb576106bb610656565b604051601f8201601f19908116603f011681016001600160401b03811182821017156106e9576106e9610656565b604052818152838201602001851015610700575f5ffd5b8160208501602083015e5f918101602001919091529392505050565b80516001600160a01b0381168114610732575f5ffd5b919050565b5f60208284031215610747575f5ffd5b81516001600160401b0381111561075c575f5ffd5b8201610140818503121561076e575f5ffd5b61077661066a565b81516001600160401b0381111561078b575f5ffd5b61079786828501610693565b82525060208201516001600160401b038111156107b2575f5ffd5b6107be86828501610693565b60208301525060408201516001600160401b038111156107dc575f5ffd5b6107e886828501610693565b6040830152506107fa6060830161071c565b606082015261080b6080830161071c565b608082015261081c60a0830161071c565b60a082015260c0828101519082015260e08083015190820152610100808301519082015261012091820151918101919091529392505050565b600181811c9082168061086957607f821691505b60208210810361088757634e487b7160e01b5f52602260045260245ffd5b50919050565b601f8211156108d457805f5260205f20601f840160051c810160208510156108b25750805b601f840160051c820191505b818110156108d1575f81556001016108be565b50505b505050565b81516001600160401b038111156108f2576108f2610656565b610906816109008454610855565b8461088d565b6020601f821160018114610938575f83156109215750848201515b5f19600385901b1c1916600184901b1784556108d1565b5f84815260208120601f198516915b828110156109675787850151825560209485019460019092019101610947565b508482101561098457868401515f19600387901b60f8161c191681555b50505050600190811b01905550565b5f602082840312156109a3575f5ffd5b815180151581146109b2575f5ffd5b9392505050565b634e487b7160e01b5f52601160045260245ffd5b6001815b6001841115610a08578085048111156109ec576109ec6109b9565b60018416156109fa57908102905b60019390931c9280026109d1565b935093915050565b5f82610a1e57506001610643565b81610a2a57505f610643565b8160018114610a405760028114610a4a57610a66565b6001915050610643565b60ff841115610a5b57610a5b6109b9565b50506001821b610643565b5060208310610133831016604e8410600b8410161715610a89575081810a610643565b610a955f1984846109cd565b805f1904821115610aa857610aa86109b9565b029392505050565b5f6109b28383610a10565b8082028115828204841417610643576106436109b9565b5f81518084528060208401602086015e5f602082860101526020601f19601f83011685010191505092915050565b604081525f83516101406040840152610b1d610180840182610ad2565b90506020850151603f19848303016060850152610b3a8282610ad2565b9150506040850151610b5760808501826001600160a01b03169052565b5060608501516001600160a01b03811660a08501525060808501516001600160a01b03811660c08501525060a085015160e084015260c085015161010084015260e0850151610120840152610100850151610bb761014085018215159052565b506101208501516101608401526001600160a01b038416602084015290506109b2565b5f60208284031215610bea575f5ffd5b6109b28261071c565b5f82518060208501845e5f920191825250919050565b5f60208284031215610c19575f5ffd5b5051919050565b60805160a05160c05160e05161010051616f46610d445f395f613b6801525f610e7101525f81816105e0015281816113030152818161261a015281816139e00152818161401f01526140ae01525f818161095f01528181610c07015281816115ff015281816117fe01528181611a35015261312b01525f8181610c9001528181610ea0015281816111690152818161121e015281816113a00152818161153601528181611b7001528181611c2501528181611d7701528181611e54015281816120260152818161233b0152818161268b015281816127b9015281816128fe01528181612a1701528181612ae101528181612bab01528181612c7501528181612d7901528181613009015281816131da0152818161328e01526142c70152616f465ff3fe608060405234801561000f575f5ffd5b5060043610610490575f3560e01c80639265b76e11610263578063ccc574901161014b578063e37d5b7f116100ca578063f35778161161008f578063f357781614610ab9578063f3ba553e14610acc578063f7e533ec14610adf578063faa9bce914610ae7578063fcf2849f14610afa578063ff32a42a14610b0d575f5ffd5b8063e37d5b7f14610a6d578063e7b20e5b14610a80578063ebc136d014610a93578063ef2fc47214610aa6578063ef8b30f714610936575f5ffd5b8063d902d41a11610110578063d902d41a146109e9578063d905777e146109fc578063dc9de0a814610a0f578063dd62ed3e14610a22578063e193858f14610a5a575f5ffd5b8063ccc5749014610994578063ce96cb77146109a8578063d206a059146109bb578063d45a07a1146109ce578063d570ee47146109e1575f5ffd5b8063b3d7f6b9116101e2578063c3f909d4116101a7578063c3f909d4146108d2578063c63d75b614610923578063c6e6f59214610936578063c8169aa114610949578063c9c667e31461095a578063cc5b1e5514610981575f5ffd5b8063b3d7f6b91461085f578063b460af9414610872578063b637766c14610885578063ba08765214610898578063c0b534c2146108ab575f5ffd5b806396c25a381161022857806396c25a38146107f5578063a039e94414610808578063a0506f0b1461081b578063a89f38a314610825578063a9059cbb1461084c575f5ffd5b80639265b76e146107b657806393417052146107c957806394bf804d146107d157806394d7eaa4146107e457806395d89b41146107ed575f5ffd5b8063402d267d1161038657806361d027b31161030557806370a08231116102ca57806370a082311461070857806371aedbc11461073057806379502c55146107395780637aaceb951461079357806383cf3d4a1461079b5780638456cb59146107ae575f5ffd5b806361d027b3146106aa57806366e943f1146106b2578063680e57ab146106d957806369b3054b146106e25780636e553f65146106f5575f5ffd5b80635822198f1161034b5780635822198f146106695780635b0f83f31461067c5780635c975abb146106845780635ed975e51461068f5780635f538f6f14610697575f5ffd5b8063402d267d14610632578063498e76a0146106455780634cdad506146104c45780634daecb9c1461064e578063565974d314610661575f5ffd5b8063240ecd601161041257806334050560116103d757806334050560146105cb57806338d52e0f146105de5780633a7c9f0e146106045780633e314c76146106175780633f4ba83a1461062a575f5ffd5b8063240ecd601461056557806324ea54f41461057a5780632755cd2d146105a1578063313ce567146105a95780633152d5d1146105c3575f5ffd5b8063117d8ae011610458578063117d8ae01461050d578063133ab5791461052d57806318160ddd14610542578063218e4a151461054a57806323b872dd14610552575f5ffd5b806301e1d1141461049457806306fdde03146104af57806307a2d13a146104c4578063095ea7b3146104d75780630a28a477146104fa575b5f5ffd5b61049c610b20565b6040519081526020015b60405180910390f35b6104b7610b40565b6040516104a691906164d1565b61049c6104d23660046164e3565b610bd0565b6104ea6104e536600461650e565b610be1565b60405190151581526020016104a6565b61049c6105083660046164e3565b610bf8565b610515610c04565b6040516001600160a01b0390911681526020016104a6565b61054061053b3660046164e3565b610c85565b005b61049c610db5565b60125461049c565b6104ea610560366004616538565b610df7565b61056d610e3d565b6040516104a69190616576565b61049c7f55435dd261a4b9b3364963f7738a7a662ad9c84396d64be3365284bb7f0a504181565b61049c610e49565b6105b1610e6a565b60405160ff90911681526020016104a6565b60135461049c565b6105406105d936600461650e565b610e95565b7f0000000000000000000000000000000000000000000000000000000000000000610515565b61049c6106123660046165c1565b610fee565b61049c610625366004616600565b6110b2565b610540611152565b61049c610640366004616600565b6112cd565b61049c60105481565b61054061065c3660046164e3565b611395565b6104b7611493565b6105406106773660046164e3565b61151f565b6105156115fc565b60055460ff166104ea565b61049c603281565b61049c6106a53660046165c1565b611659565b6105156117fb565b61049c7f0d186688925976bbe6755ae984501c8e3e2b103a7af59fd803ab9c6d891ae7e081565b61049c60065481565b61049c6106f036600461661b565b611858565b61049c610703366004616655565b61188a565b61049c610716366004616600565b6001600160a01b03165f9081526020819052604090205490565b61049c60115481565b600854600954600a54600b54600c5461075f946001600160a01b03908116949392911685565b604080516001600160a01b03968716815260208101959095528401929092526060830152909116608082015260a0016104a6565b610515611a32565b61049c6107a936600461650e565b611a8f565b610540611b59565b61049c6107c4366004616600565b611cd2565b610540611d6c565b61049c6107df366004616655565b611f24565b61049c60075481565b6104b7612000565b610540610803366004616600565b61200f565b61049c6108163660046165c1565b6120d9565b61049c6202a30081565b61049c7fb00be3d6a5434b97b328543d1486d56adcb7e74080170d1cdd7e0306c3d9ba3d81565b6104ea61085a36600461650e565b612189565b61049c61086d3660046164e3565b612222565b61049c6108803660046165c1565b61222e565b61054061089336600461650e565b612330565b61049c6108a63660046165c1565b61245a565b61049c7f025d8bbf3268be680d2605ebf6da15063b9915615bf1087dab336efc1bf970cb81565b6108da61255f565b6040516104a6919081516001600160a01b039081168252602080840151908301526040808401519083015260608084015190830152608092830151169181019190915260a00190565b61049c610931366004616600565b6125e1565b61049c6109443660046164e3565b612669565b6008546001600160a01b0316610515565b6105157f000000000000000000000000000000000000000000000000000000000000000081565b61054061098f3660046166bf565b612674565b61049c5f516020616ed15f395f51905f5281565b61049c6109b6366004616600565b61277b565b6104ea6109c9366004616600565b612787565b6105406109dc36600461650e565b6127ae565b61049c6128d8565b6105406109f73660046164e3565b6128f3565b61049c610a0a366004616600565b6129f1565b610540610a1d3660046164e3565b612a00565b61049c610a303660046166fd565b6001600160a01b039182165f90815260016020908152604080832093909416825291909152205490565b610540610a683660046164e3565b612aca565b610540610a7b366004616600565b612b94565b610540610a8e3660046166bf565b612c5e565b6104ea610aa1366004616600565b612d60565b61049c610ab4366004616600565b612e0f565b61049c610ac73660046165c1565b612f20565b610540610ada36600461650e565b612ffe565b610515613128565b61049c610af53660046167de565b613185565b610540610b083660046166bf565b6131d8565b610515610b1b3660046164e3565b613398565b6008545f90610b3b90610e3d906001600160a01b03166133a4565b905090565b606060038054610b4f90616832565b80601f0160208091040260200160405190810160405280929190818152602001828054610b7b90616832565b8015610bc65780601f10610b9d57610100808354040283529160200191610bc6565b820191905f5260205f20905b815481529060010190602001808311610ba957829003601f168201915b5050505050905090565b5f610bdb825f613450565b92915050565b5f33610bee81858561348d565b5060019392505050565b5f610bdb82600161349a565b5f7f00000000000000000000000000000000000000000000000000000000000000006001600160a01b031663117d8ae06040518163ffffffff1660e01b8152600401602060405180830381865afa158015610c61573d5f5f3e3d5ffd5b505050506040513d601f19601f82011682018060405250810190610b3b9190616864565b30801580610d2657507f00000000000000000000000000000000000000000000000000000000000000006001600160a01b03166391d14854610cc75f84611858565b336040518363ffffffff1660e01b8152600401610ce592919061687f565b602060405180830381865afa158015610d00573d5f5f3e3d5ffd5b505050506040513d601f19601f82011682018060405250810190610d249190616896565b155b15610d4b576040516363b52ed760e11b81523360048201526024015b60405180910390fd5b610d536134ce565b6032821115610d7857604051631c94cf1160e11b815260048101839052602401610d42565b600b8290556040518281527f4f4bedc5354096786a0fb857b12fdd6488cc973b2348cedb78088bdceaa906b5906020015b60405180910390a15050565b5f610dbe6134f2565b15610dca575060025490565b5f610dd460025490565b9050610de7610de1611a32565b82611a8f565b610df190826168c9565b91505090565b600c545f906001600160a01b03163303610e1d57610e16848484613527565b9050610e36565b60405163ec47ea8b60e01b815260040160405180910390fd5b9392505050565b6060610b3b600e61354a565b5f610e526134ce565b610b3b610e5d611a32565b610e65610db5565b613556565b5f610b3b817f00000000000000000000000000000000000000000000000000000000000000006168dc565b30801580610f3657507f00000000000000000000000000000000000000000000000000000000000000006001600160a01b03166391d14854610ed75f84611858565b336040518363ffffffff1660e01b8152600401610ef592919061687f565b602060405180830381865afa158015610f10573d5f5f3e3d5ffd5b505050506040513d601f19601f82011682018060405250810190610f349190616896565b155b15610f56576040516363b52ed760e11b8152336004820152602401610d42565b82610f62600e826135cf565b610f8a57604051632767039f60e01b81526001600160a01b0382166004820152602401610d42565b610f926134ce565b604051638665120360e01b8152600481018490526001600160a01b038516906386651203906024015b5f604051808303815f87803b158015610fd2575f5ffd5b505af1158015610fe4573d5f5f3e3d5ffd5b5050505050505050565b5f610ff960016135f0565b611004610e5d611a32565b5060085461101e90610e3d906001600160a01b031661362b565b6110266134ce565b61103084836137f6565b61103984610bd0565b905061104481613901565b61105133848484886139ad565b61105a5f601355565b604080516001600160a01b038581168252602082018790528416917f09fbb654e02253d6c37ecb473c5ed6f4557cac3fe5abc1d559523f6e257ee18591015b60405180910390a26110a9613a6d565b610e365f6135f0565b5f610bdb60085f015f9054906101000a90046001600160a01b03166001600160a01b03166301e1d1146040518163ffffffff1660e01b8152600401602060405180830381865afa158015611108573d5f5f3e3d5ffd5b505050506040513d601f19601f8201168201806040525081019061112c91906168f5565b61114d6104d2856001600160a01b03165f9081526020819052604090205490565b613b1b565b604051632474521560e21b81526001600160a01b037f000000000000000000000000000000000000000000000000000000000000000016906391d14854906111c0907f55435dd261a4b9b3364963f7738a7a662ad9c84396d64be3365284bb7f0a504190339060040161687f565b602060405180830381865afa1580156111db573d5f5f3e3d5ffd5b505050506040513d601f19601f820116820180604052508101906111ff9190616896565b1580156112a35750604051632474521560e21b81526001600160a01b037f000000000000000000000000000000000000000000000000000000000000000016906391d1485490611262905f516020616ed15f395f51905f5290339060040161687f565b602060405180830381865afa15801561127d573d5f5f3e3d5ffd5b505050506040513d601f19601f820116820180604052508101906112a19190616896565b155b156112c357604051636b2a758d60e01b8152336004820152602401610d42565b6112cb613b2a565b565b5f5f6112d7610b20565b90505f60086002015482116112f957600a546112f490839061690c565b6112fb565b5f5b905061138d817f00000000000000000000000000000000000000000000000000000000000000006040516370a0823160e01b81526001600160a01b03888116600483015291909116906370a08231906024015b602060405180830381865afa158015611369573d5f5f3e3d5ffd5b505050506040513d601f19601f8201168201806040525081019061114d91906168f5565b949350505050565b3080158061143657507f00000000000000000000000000000000000000000000000000000000000000006001600160a01b03166391d148546113d75f84611858565b336040518363ffffffff1660e01b81526004016113f592919061687f565b602060405180830381865afa158015611410573d5f5f3e3d5ffd5b505050506040513d601f19601f820116820180604052508101906114349190616896565b155b15611456576040516363b52ed760e11b8152336004820152602401610d42565b61145e6134ce565b60098290556040518281527f3ba130ec8df44f0a71243af1b7f9f4239616bafda97ae766b3c40a9d202b21a490602001610da9565b600d80546114a090616832565b80601f01602080910402602001604051908101604052809291908181526020018280546114cc90616832565b80156115175780601f106114ee57610100808354040283529160200191611517565b820191905f5260205f20905b8154815290600101906020018083116114fa57829003601f168201915b505050505081565b604051632474521560e21b81526001600160a01b037f000000000000000000000000000000000000000000000000000000000000000016906391d148549061157a905f516020616ed15f395f51905f5290339060040161687f565b602060405180830381865afa158015611595573d5f5f3e3d5ffd5b505050506040513d601f19601f820116820180604052508101906115b99190616896565b6115d857604051630ea7d7ed60e21b8152336004820152602401610d42565b6115e06134ce565b6115f9816115ec611a32565b6115f4610db5565b613b62565b50565b5f7f00000000000000000000000000000000000000000000000000000000000000006001600160a01b0316635b0f83f36040518163ffffffff1660e01b8152600401602060405180830381865afa158015610c61573d5f5f3e3d5ffd5b5f6116626134ce565b61166c60016135f0565b611677610e5d611a32565b5060085461169190610e3d906001600160a01b0316613bf1565b5061169b84610bf8565b90506116a8848284613e5b565b600854604080516278744560e21b815290515f926001600160a01b0316916301e1d1149160048083019260209291908290030181865afa1580156116ee573d5f5f3e3d5ffd5b505050506040513d601f19601f8201168201806040525081019061171291906168f5565b60085490915061172b906001600160a01b031686613f66565b61173833858588866139ad565b336001600160a01b03167fe68a55afda2dca8343871fe0e5575a383291a40ae7d53e4dee12faf79cde144e8260085f015f9054906101000a90046001600160a01b03166001600160a01b03166301e1d1146040518163ffffffff1660e01b8152600401602060405180830381865afa1580156117b6573d5f5f3e3d5ffd5b505050506040513d601f19601f820116820180604052508101906117da91906168f5565b6040805192835260208301919091520160405180910390a2506110a9613a6d565b5f7f00000000000000000000000000000000000000000000000000000000000000006001600160a01b03166361d027b36040518163ffffffff1660e01b8152600401602060405180830381865afa158015610c61573d5f5f3e3d5ffd5b5f828260405160200161186c929190616933565b60405160208183030381529060405280519060200120905092915050565b5f61189560016135f0565b6118a0610e5d611a32565b506008546118ba90610e3d906001600160a01b0316613bf1565b506118c36134ce565b6118cd8333613fc7565b600854604080516278744560e21b815290515f926001600160a01b0316916301e1d1149160048083019260209291908290030181865afa158015611913573d5f5f3e3d5ffd5b505050506040513d601f19601f8201168201806040525081019061193791906168f5565b905061194284612669565b91506119503384868561401a565b600854611966906001600160a01b0316856140ac565b336001600160a01b03167fe68a55afda2dca8343871fe0e5575a383291a40ae7d53e4dee12faf79cde144e8260085f015f9054906101000a90046001600160a01b03166001600160a01b03166301e1d1146040518163ffffffff1660e01b8152600401602060405180830381865afa1580156119e4573d5f5f3e3d5ffd5b505050506040513d601f19601f82011682018060405250810190611a0891906168f5565b6040805192835260208301919091520160405180910390a250611a29613a6d565b610bdb5f6135f0565b5f7f00000000000000000000000000000000000000000000000000000000000000006001600160a01b0316637aaceb956040518163ffffffff1660e01b8152600401602060405180830381865afa158015610c61573d5f5f3e3d5ffd5b5f5f60115442611a9f919061690c565b9050805f03611ab1575f915050610bdb565b611ac4601054611ac05f614178565b1490565b15611ad2575f915050610bdb565b6040516370a0823160e01b81526001600160a01b03851660048201525f9030906370a0823190602401602060405180830381865afa158015611b16573d5f5f3e3d5ffd5b505050506040513d601f19601f82011682018060405250810190611b3a91906168f5565b611b44908561690c565b9050611b50818361418f565b95945050505050565b604051632474521560e21b81526001600160a01b037f000000000000000000000000000000000000000000000000000000000000000016906391d1485490611bc7907f55435dd261a4b9b3364963f7738a7a662ad9c84396d64be3365284bb7f0a504190339060040161687f565b602060405180830381865afa158015611be2573d5f5f3e3d5ffd5b505050506040513d601f19601f82011682018060405250810190611c069190616896565b158015611caa5750604051632474521560e21b81526001600160a01b037f000000000000000000000000000000000000000000000000000000000000000016906391d1485490611c69905f516020616ed15f395f51905f5290339060040161687f565b602060405180830381865afa158015611c84573d5f5f3e3d5ffd5b505050506040513d601f19601f82011682018060405250810190611ca89190616896565b155b15611cca57604051636b2a758d60e01b8152336004820152602401610d42565b6112cb6141ba565b5f610bdb611d4f60085f015f9054906101000a90046001600160a01b03166001600160a01b03166301e1d1146040518163ffffffff1660e01b8152600401602060405180830381865afa158015611d2b573d5f5f3e3d5ffd5b505050506040513d601f19601f8201168201806040525081019061050891906168f5565b6001600160a01b0384165f90815260208190526040902054613b1b565b30801580611e0d57507f00000000000000000000000000000000000000000000000000000000000000006001600160a01b03166391d14854611dae5f84611858565b336040518363ffffffff1660e01b8152600401611dcc92919061687f565b602060405180830381865afa158015611de7573d5f5f3e3d5ffd5b505050506040513d601f19601f82011682018060405250810190611e0b9190616896565b155b15611e2d576040516363b52ed760e11b8152336004820152602401610d42565b611e356134ce565b611e3d613128565b604051630f07f82960e01b81526001600160a01b037f0000000000000000000000000000000000000000000000000000000000000000811660048301523060248301529190911690630f07f829906044016020604051808303815f875af1158015611eaa573d5f5f3e3d5ffd5b505050506040513d601f19601f82011682018060405250810190611ece9190616864565b600c80546001600160a01b0319166001600160a01b039290921691821790556040519081527f8f407169a2fff9de40408b8d482b293eff9e2dbc448da0593fa9a39d428a4104906020015b60405180910390a150565b5f611f2f60016135f0565b611f3a610e5d611a32565b50600854611f5490610e3d906001600160a01b0316613bf1565b50611f5d6134ce565b611f6783336141c8565b600854604080516278744560e21b815290515f926001600160a01b0316916301e1d1149160048083019260209291908290030181865afa158015611fad573d5f5f3e3d5ffd5b505050506040513d601f19601f82011682018060405250810190611fd191906168f5565b9050611fdc84612222565b9150611fea3384848761401a565b600854611966906001600160a01b0316836140ac565b606060048054610b4f90616832565b604051632474521560e21b81526001600160a01b037f000000000000000000000000000000000000000000000000000000000000000016906391d148549061206a905f516020616ed15f395f51905f5290339060040161687f565b602060405180830381865afa158015612085573d5f5f3e3d5ffd5b505050506040513d601f19601f820116820180604052508101906120a99190616896565b6120c857604051630ea7d7ed60e21b8152336004820152602401610d42565b6120d06134ce565b6115f98161421b565b5f6120e460016135f0565b6120ef610e5d611a32565b5060085461210990610e3d906001600160a01b031661362b565b6121116134ce565b61211a84610bf8565b9050612127848284614365565b61213084613901565b61213d33848487856139ad565b6121465f601355565b604080516001600160a01b038581168252602082018790528416917fd4383faec5079b2ec7ac0ff240326baa0d584b03d51b9742f7c1a034f6fc015b9101611099565b5f5f306001600160a01b031663c3f909d46040518163ffffffff1660e01b815260040160a060405180830381865afa1580156121c7573d5f5f3e3d5ffd5b505050506040513d601f19601f820116820180604052508101906121eb9190616976565b905080608001516001600160a01b03166122023390565b6001600160a01b031603610e1d5761221a848461441e565b915050610bdb565b5f610bdb826001613450565b5f61223960016135f0565b612244610e5d611a32565b5060085461225e90610e3d906001600160a01b0316613bf1565b506122676134ce565b600854604080516278744560e21b815290515f926001600160a01b0316916301e1d1149160048083019260209291908290030181865afa1580156122ad573d5f5f3e3d5ffd5b505050506040513d601f19601f820116820180604052508101906122d191906168f5565b90505f198503612300576001600160a01b0383165f908152602081905260409020546122fc81610bd0565b9550505b80851161231957612312858585611659565b9150612327565b6123248585856120d9565b91505b506110a9613a6d565b308015806123d157507f00000000000000000000000000000000000000000000000000000000000000006001600160a01b03166391d148546123725f84611858565b336040518363ffffffff1660e01b815260040161239092919061687f565b602060405180830381865afa1580156123ab573d5f5f3e3d5ffd5b505050506040513d601f19601f820116820180604052508101906123cf9190616896565b155b156123f1576040516363b52ed760e11b8152336004820152602401610d42565b826123fd600e826135cf565b61242557604051632767039f60e01b81526001600160a01b0382166004820152602401610d42565b61242d6134ce565b6040516361f5cd8b60e01b8152600481018490526001600160a01b038516906361f5cd8b90602401610fbb565b5f61246560016135f0565b612470610e5d611a32565b5060085461248a90610e3d906001600160a01b0316613bf1565b506124936134ce565b600854604080516278744560e21b815290515f926001600160a01b0316916301e1d1149160048083019260209291908290030181865afa1580156124d9573d5f5f3e3d5ffd5b505050506040513d601f19601f820116820180604052508101906124fd91906168f5565b90505f61250982612669565b90505f19860361252e576001600160a01b0384165f9081526020819052604090205495505b80861161254757612540868686612f20565b9250612555565b612552868686610fee565b92505b50506110a9613a6d565b61259e6040518060a001604052805f6001600160a01b031681526020015f81526020015f81526020015f81526020015f6001600160a01b031681525090565b506040805160a0810182526008546001600160a01b0390811682526009546020830152600a5492820192909252600b546060820152600c54909116608082015290565b5f5f6125eb610b20565b90505f600860020154821161260d57600a5461260890839061690c565b61260f565b5f5b905061138d610944827f00000000000000000000000000000000000000000000000000000000000000006040516370a0823160e01b81526001600160a01b03898116600483015291909116906370a082319060240161134e565b5f610bdb825f61349a565b604051632474521560e21b81526001600160a01b037f000000000000000000000000000000000000000000000000000000000000000016906391d14854906126cf905f516020616ed15f395f51905f5290339060040161687f565b602060405180830381865afa1580156126ea573d5f5f3e3d5ffd5b505050506040513d601f19601f8201168201806040525081019061270e9190616896565b61272d57604051630ea7d7ed60e21b8152336004820152602401610d42565b6127356134ce565b5f5b818110156127765761276e838383818110612754576127546169d5565b90506020020160208101906127699190616600565b61442b565b600101612737565b505050565b5f610bdb61112c6128d8565b5f612793600e836135cf565b80610bdb5750506008546001600160a01b0390811691161490565b3080158061284f57507f00000000000000000000000000000000000000000000000000000000000000006001600160a01b03166391d148546127f05f84611858565b336040518363ffffffff1660e01b815260040161280e92919061687f565b602060405180830381865afa158015612829573d5f5f3e3d5ffd5b505050506040513d601f19601f8201168201806040525081019061284d9190616896565b155b1561286f576040516363b52ed760e11b8152336004820152602401610d42565b8261287b600e826135cf565b6128a357604051632767039f60e01b81526001600160a01b0382166004820152602401610d42565b6128ab6134ce565b60405163497af41960e11b8152600481018490526001600160a01b038516906392f5e83290602401610fbb565b6008545f90610b3b90610e3d906001600160a01b031661460d565b3080158061299457507f00000000000000000000000000000000000000000000000000000000000000006001600160a01b03166391d148546129355f84611858565b336040518363ffffffff1660e01b815260040161295392919061687f565b602060405180830381865afa15801561296e573d5f5f3e3d5ffd5b505050506040513d601f19601f820116820180604052508101906129929190616896565b155b156129b4576040516363b52ed760e11b8152336004820152602401610d42565b6129bc6134ce565b600a8290556040518281527f4faeac5aec9fa2e6f82ae7ccfef27a03ca3ff9d8c5356fea9acb2caad1c4c34490602001610da9565b5f610bdb611d4f6109446128d8565b604051632474521560e21b81526001600160a01b037f000000000000000000000000000000000000000000000000000000000000000016906391d1485490612a5b905f516020616ed15f395f51905f5290339060040161687f565b602060405180830381865afa158015612a76573d5f5f3e3d5ffd5b505050506040513d601f19601f82011682018060405250810190612a9a9190616896565b612ab957604051630ea7d7ed60e21b8152336004820152602401610d42565b612ac16134ce565b6115f981614721565b604051632474521560e21b81526001600160a01b037f000000000000000000000000000000000000000000000000000000000000000016906391d1485490612b25905f516020616ed15f395f51905f5290339060040161687f565b602060405180830381865afa158015612b40573d5f5f3e3d5ffd5b505050506040513d601f19601f82011682018060405250810190612b649190616896565b612b8357604051630ea7d7ed60e21b8152336004820152602401610d42565b612b8b6134ce565b6115f9816147a8565b604051632474521560e21b81526001600160a01b037f000000000000000000000000000000000000000000000000000000000000000016906391d1485490612bef905f516020616ed15f395f51905f5290339060040161687f565b602060405180830381865afa158015612c0a573d5f5f3e3d5ffd5b505050506040513d601f19601f82011682018060405250810190612c2e9190616896565b612c4d57604051630ea7d7ed60e21b8152336004820152602401610d42565b612c556134ce565b6115f98161442b565b604051632474521560e21b81526001600160a01b037f000000000000000000000000000000000000000000000000000000000000000016906391d1485490612cb9905f516020616ed15f395f51905f5290339060040161687f565b602060405180830381865afa158015612cd4573d5f5f3e3d5ffd5b505050506040513d601f19601f82011682018060405250810190612cf89190616896565b612d1757604051630ea7d7ed60e21b8152336004820152602401610d42565b612d2160016135f0565b612d2c610e5d611a32565b50612d356134ce565b612d3f8282614801565b612d498282614848565b612d538282614aea565b612d5c5f6135f0565b5050565b604051632474521560e21b81525f906001600160a01b037f000000000000000000000000000000000000000000000000000000000000000016906391d1485490612dd0907fb00be3d6a5434b97b328543d1486d56adcb7e74080170d1cdd7e0306c3d9ba3d90869060040161687f565b602060405180830381865afa158015612deb573d5f5f3e3d5ffd5b505050506040513d601f19601f82011682018060405250810190610bdb9190616896565b5f5f306001600160a01b03166301e1d1146040518163ffffffff1660e01b8152600401602060405180830381865afa158015612e4d573d5f5f3e3d5ffd5b505050506040513d601f19601f82011682018060405250810190612e7191906168f5565b90505f612ede846001600160a01b031663bdcdd8826040518163ffffffff1660e01b8152600401602060405180830381865afa158015612eb3573d5f5f3e3d5ffd5b505050506040513d601f19601f82011682018060405250810190612ed791906168f5565b8390614b79565b905061138d81856001600160a01b031663dbd5edc76040518163ffffffff1660e01b8152600401602060405180830381865afa158015611369573d5f5f3e3d5ffd5b5f612f2b60016135f0565b612f36610e5d611a32565b50600854612f5090610e3d906001600160a01b0316613bf1565b50612f596134ce565b612f638483614ba5565b600854604080516278744560e21b815290515f926001600160a01b0316916301e1d1149160048083019260209291908290030181865afa158015612fa9573d5f5f3e3d5ffd5b505050506040513d601f19601f82011682018060405250810190612fcd91906168f5565b9050612fd885610bd0565b600854909250612ff1906001600160a01b031683613f66565b61173833858585896139ad565b3080158061309f57507f00000000000000000000000000000000000000000000000000000000000000006001600160a01b03166391d148546130405f84611858565b336040518363ffffffff1660e01b815260040161305e92919061687f565b602060405180830381865afa158015613079573d5f5f3e3d5ffd5b505050506040513d601f19601f8201168201806040525081019061309d9190616896565b155b156130bf576040516363b52ed760e11b8152336004820152602401610d42565b826130cb600e826135cf565b6130f357604051632767039f60e01b81526001600160a01b0382166004820152602401610d42565b6130fb6134ce565b604051634fc7fac360e01b8152600481018490526001600160a01b03851690634fc7fac390602401610fbb565b5f7f00000000000000000000000000000000000000000000000000000000000000006001600160a01b031663f7e533ec6040518163ffffffff1660e01b8152600401602060405180830381865afa158015610c61573d5f5f3e3d5ffd5b5f8160405161319491906169e9565b604051908190038120906001600160a01b038516907f38383a2eb7bd8ee888f12fb942a2e22e84f2d7240f1f8541ad4bbddace6e3442905f90a361138d848461188a565b7f00000000000000000000000000000000000000000000000000000000000000006001600160a01b03166391d14854613212600130611858565b336040518363ffffffff1660e01b815260040161323092919061687f565b602060405180830381865afa15801561324b573d5f5f3e3d5ffd5b505050506040513d601f19601f8201168201806040525081019061326f9190616896565b1580156133265750604051632474521560e21b81526001600160a01b037f000000000000000000000000000000000000000000000000000000000000000016906391d14854906132e5907f0d186688925976bbe6755ae984501c8e3e2b103a7af59fd803ab9c6d891ae7e090339060040161687f565b602060405180830381865afa158015613300573d5f5f3e3d5ffd5b505050506040513d601f19601f820116820180604052508101906133249190616896565b155b15613346576040516329068e8160e21b8152336004820152602401610d42565b601254601354613356904261690c565b101561338a57601354601254604051630924dbf160e21b815260048101929092526024820152426044820152606401610d42565b42601355612d2160016135f0565b5f610bdb600e83614c5e565b5f806133f76133f360ff196133c760015f516020616ef15f395f51905f5261690c565b6040516020016133d991815260200190565b604051602081830303815290604052805190602001201690565b5c90565b905080156134335761221a6133f360ff196133c760017fa9898051640582db44f19359a5df62a03dbff55353a9f388ea332d75dfa80fa161690c565b61138d61344b6134458663ffffffff16565b85614c69565b614d49565b5f610e3661345c610b20565b6134679060016168c9565b6134725f600a616ae2565b61347a610db5565b61348491906168c9565b85919085614de8565b6127768383836001614e2a565b5f610e366134a982600a616ae2565b6134b1610db5565b6134bb91906168c9565b6134c3610b20565b6134849060016168c9565b60055460ff16156112cb5760405163d93c066560e01b815260040160405180910390fd5b5f610b3b6133f360ff196133c760017f4e71cabede5261c2c661c1a41d0d13331711e62f0548c4fdf8ade97c9c524d4261690c565b5f33613534858285614eee565b61353f858585614f50565b506001949350505050565b60605f610e3683614fad565b5f613566601054611ac05f614178565b156135765750426011555f610bdb565b6135808383611a8f565b90508015610bdb57426011556135968382615006565b6040518181527f698f29fe990d4e7770f7e74cd309da261dd03ca828f7bb3c2ea8b8c9adcc0ecd9060200160405180910390a192915050565b6001600160a01b0381165f9081526001830160205260408120541515610e36565b6115f98161362560ff196133c760017f4e71cabede5261c2c661c1a41d0d13331711e62f0548c4fdf8ade97c9c524d4261690c565b90615010565b61364c6133f360ff196133c760015f516020616eb15f395f51905f5261690c565b15613655575050565b5f6136608383613bf1565b90505f81516001600160401b0381111561367c5761367c616719565b6040519080825280602002602001820160405280156136c057816020015b604080518082019091525f808252602082015281526020019060019003908161369a5790505b5090505f80805b84518110156137cf575f8582815181106136e3576136e36169d5565b60200260200101515f01516001600160a01b031663d570ee476040518163ffffffff1660e01b8152600401602060405180830381865afa158015613729573d5f5f3e3d5ffd5b505050506040513d601f19601f8201168201806040525081019061374d91906168f5565b905080156137c6576040518060400160405280878481518110613772576137726169d5565b60200260200101515f01516001600160a01b03168152602001828152508584815181106137a1576137a16169d5565b60209081029190910101526137b681856168c9565b9350826137c281616af0565b9350505b506001016136c7565b508083526137dc82615017565b6137e58361506e565b6137ee83615153565b505050505050565b815f0361381657604051632334425960e21b815260040160405180910390fd5b336001600160a01b0382161480159061389a5750604051636eb1769f60e11b81526001600160a01b03821660048201523360248201528290309063dd62ed3e90604401602060405180830381865afa158015613874573d5f5f3e3d5ffd5b505050506040513d601f19601f8201168201806040525081019061389891906168f5565b105b156138ce57335b604051630c849df760e41b81526001600160a01b0391821660048201529082166024820152604401610d42565b5f6138d8826129f1565b90508083111561277657818382604051632e52afbb60e21b8152600401610d4293929190616b08565b5f61390a615265565b90505f5b8151811015612776575f82828151811061392a5761392a6169d5565b602002602001015160200151905083811061396b57613965838381518110613954576139546169d5565b60200260200101515f015185613f66565b50505050565b80156139a457613997838381518110613986576139866169d5565b60200260200101515f015182613f66565b6139a1818561690c565b93505b5060010161390e565b826001600160a01b0316856001600160a01b0316146139d1576139d1838683614eee565b6139db8382615426565b613a067f0000000000000000000000000000000000000000000000000000000000000000858461545a565b826001600160a01b0316846001600160a01b0316866001600160a01b03167ffbde797d201c681b91056529119e0b02407c7bb96a4a2c75c01fc9667232c8db8585604051613a5e929190918252602082015260400190565b60405180910390a45050505050565b613a8f5f61362560ff196133c760015f516020616ef15f395f51905f5261690c565b613ab15f61362560ff196133c760015f516020616eb15f395f51905f5261690c565b613ae65f61362560ff196133c760017f410d83ac3c7a0c2a0669e43e3a5ca6694ee49455f748efa9954a95c3752e9fc961690c565b6112cb5f61362560ff196133c760017f2e756c3932ba771b80f1bae53d1177d9f7a4ced0ce66d74053b09f874cec6fff61690c565b5f828218828410028218610e36565b600654600754613b3a91906168c9565b421015613b5a576040516304a59e3b60e01b815260040160405180910390fd5b6112cb6154b9565b613b8b837f00000000000000000000000000000000000000000000000000000000000000001090565b15613ba95760405163ab9a408f60e01b815260040160405180910390fd5b613bb38282613556565b5060108390556040518381527f186e864438b783eec69fd7ce4871c28accfc0b45558ea08c48540f76094fecde9060200160405180910390a1505050565b6060613c146133f360ff196133c760015f516020616ef15f395f51905f5261690c565b15613c2857613c2161550b565b9050610bdb565b5f613c358463ffffffff16565b905080516001613c4591906168c9565b6001600160401b03811115613c5c57613c5c616719565b604051908082528060200260200182016040528015613ca057816020015b604080518082019091525f8082526020820152815260200190600190039081613c7a5790505b5091505f805b8251811015613d94575f838281518110613cc257613cc26169d5565b60200260200101516001600160a01b03166301e1d1146040518163ffffffff1660e01b8152600401602060405180830381865afa158015613d05573d5f5f3e3d5ffd5b505050506040513d601f19601f82011682018060405250810190613d2991906168f5565b90506040518060400160405280858481518110613d4857613d486169d5565b60200260200101516001600160a01b0316815260200182815250858381518110613d7457613d746169d5565b6020908102919091010152613d8981846168c9565b925050600101613ca6565b505f846001600160a01b03166301e1d1146040518163ffffffff1660e01b8152600401602060405180830381865afa158015613dd2573d5f5f3e3d5ffd5b505050506040513d601f19601f82011682018060405250810190613df691906168f5565b90506040518060400160405280866001600160a01b031681526020018281525084845181518110613e2957613e296169d5565b6020908102919091010152613e3e81836168c9565b9150613e4982615666565b613e52846156bd565b50505092915050565b815f03613e7b57604051632334425960e21b815260040160405180910390fd5b336001600160a01b03821614801590613eff5750604051636eb1769f60e11b81526001600160a01b03821660048201523360248201528290309063dd62ed3e90604401602060405180830381865afa158015613ed9573d5f5f3e3d5ffd5b505050506040513d601f19601f82011682018060405250810190613efd91906168f5565b105b15613f3357335b604051638b27f8ed60e01b81526001600160a01b0391821660048201529082166024820152604401610d42565b5f613f3d826110b2565b90508084111561396557818482604051633fa733bb60e21b8152600401610d4293929190616b08565b604080516020810182525f81529051630278811f60e31b81526001600160a01b038416916313c408f891613f9e918591600401616b29565b5f604051808303815f87803b158015613fb5575f5ffd5b505af11580156137ee573d5f5f3e3d5ffd5b815f03613fe757604051632334425960e21b815260040160405180910390fd5b5f613ff1826112cd565b90508083111561277657818382604051633c8097d960e11b8152600401610d4293929190616b08565b6140467f00000000000000000000000000000000000000000000000000000000000000008530856157a1565b61405083826157da565b826001600160a01b0316846001600160a01b03167fdcbc1c05240f31ff3ad067ef1ee35ce4997762752e3a095284754544f4c709d7848460405161409e929190918252602082015260400190565b60405180910390a350505050565b7f000000000000000000000000000000000000000000000000000000000000000060405163095ea7b360e01b81526001600160a01b03848116600483015260248201849052919091169063095ea7b3906044016020604051808303815f875af115801561411b573d5f5f3e3d5ffd5b505050506040513d601f19601f8201168201806040525081019061413f9190616896565b50604080516020810182525f81529051632db6d39960e01b81526001600160a01b03841691632db6d39991613f9e918591600401616b29565b5f6141856012600a616b41565b610bdb9083616b4c565b5f5f6301e13380601054846141a49190616b4c565b6141ae9190616b77565b905061138d8482614b79565b6141c261580e565b42600755565b815f036141e857604051632334425960e21b815260040160405180910390fd5b5f6141f2826125e1565b9050808311156127765781838260405163284ff66760e01b8152600401610d4293929190616b08565b80614227600e826135cf565b61424f57604051632767039f60e01b81526001600160a01b0382166004820152602401610d42565b6142588261584b565b614263600e83615963565b50816001600160a01b031663ebf311316040518163ffffffff1660e01b81526004015f604051808303815f87803b15801561429c575f5ffd5b505af11580156142ae573d5f5f3e3d5ffd5b505060405163d55dd62b60e01b81526001600160a01b037f000000000000000000000000000000000000000000000000000000000000000016925063d55dd62b9150614301906002908690600401616b8a565b5f604051808303815f87803b158015614318575f5ffd5b505af115801561432a573d5f5f3e3d5ffd5b50506040516001600160a01b03851692507f66d72a91b52f63fb063c4f672763d7ef15ce4d7c9a268a7f9b5133e41c1709a591505f90a25050565b815f0361438557604051632334425960e21b815260040160405180910390fd5b336001600160a01b038216148015906144095750604051636eb1769f60e11b81526001600160a01b03821660048201523360248201528290309063dd62ed3e90604401602060405180830381865afa1580156143e3573d5f5f3e3d5ffd5b505050506040513d601f19601f8201168201806040525081019061440791906168f5565b105b156144145733613f06565b5f613f3d8261277b565b5f33610bee818585614f50565b6001600160a01b0381166144525760405163210e96cb60e01b815260040160405180910390fd5b61445b81612787565b1561448457604051637eadea0960e11b81526001600160a01b0382166004820152602401610d42565b306001600160a01b03166338d52e0f6040518163ffffffff1660e01b8152600401602060405180830381865afa1580156144c0573d5f5f3e3d5ffd5b505050506040513d601f19601f820116820180604052508101906144e49190616864565b6001600160a01b0316816001600160a01b03166338d52e0f6040518163ffffffff1660e01b8152600401602060405180830381865afa158015614529573d5f5f3e3d5ffd5b505050506040513d601f19601f8201168201806040525081019061454d9190616864565b6001600160a01b03161461457457604051631692ea4f60e31b815260040160405180910390fd5b806001600160a01b0316638a8b99766040518163ffffffff1660e01b81526004015f604051808303815f87803b1580156145ac575f5ffd5b505af11580156145be573d5f5f3e3d5ffd5b505050506145d681600e61597790919063ffffffff16565b506040516001600160a01b038216907fcb4a29d359e86f179111dcba8714def1a859612f729f2d224d13efeac51b36bc905f90a250565b5f806146306133f360ff196133c760015f516020616eb15f395f51905f5261690c565b9050801561466c5761221a6133f360ff196133c760017f3d5fcbe10cf86b117683d0d4967b64a0c0fa4bdda7d07499d3c9dc5e388b694161690c565b5f61467c6134458663ffffffff16565b90505f5b8151811015613e52575f82828151811061469c5761469c6169d5565b60200260200101516001600160a01b031663d570ee476040518163ffffffff1660e01b8152600401602060405180830381865afa1580156146df573d5f5f3e3d5ffd5b505050506040513d601f19601f8201168201806040525081019061470391906168f5565b905080156147185761471581866168c9565b94505b50600101614680565b603c8110156147435760405163d93a8d8760e01b815260040160405180910390fd5b6201518081111561476757604051637092ddf560e01b815260040160405180910390fd5b60125460408051918252602082018390527f5953b565c074c2cce1866b4e69c9efc4908556bb6fca70f735907c94d9405515910160405180910390a1601255565b6202a3008110156147cc5760405163f710d83560e01b815260040160405180910390fd5b60068190556040518181527f3cf175d91d8c5823f3729423b5a64130e40d4b09e88c6dc1925a260f26818c2590602001611f19565b600b548111156148275760405163899a5d8160e01b815260048101829052602401610d42565b5f819003612d5c576040516304dcdcd560e31b815260040160405180910390fd5b600854604080516278744560e21b815290515f926001600160a01b0316916301e1d1149160048083019260209291908290030181865afa15801561488e573d5f5f3e3d5ffd5b505050506040513d601f19601f820116820180604052508101906148b291906168f5565b6008549091505f906001600160a01b0316815b84811015614ac857816001600160a01b03168686838181106148e9576148e96169d5565b90506020028101906148fb9190616bc2565b61490c906040810190602001616600565b6001600160a01b031614806149635750816001600160a01b0316868683818110614938576149386169d5565b905060200281019061494a9190616bc2565b614958906020810190616600565b6001600160a01b0316145b15614ac0575f826001600160a01b0316878784818110614985576149856169d5565b90506020028101906149979190616bc2565b6149a8906040810190602001616600565b6001600160a01b03161490505f8787848181106149c7576149c76169d5565b90506020028101906149d99190616bc2565b6040013590505f198103614a995781614a055760405163055bb2a160e41b815260040160405180910390fd5b878784818110614a1757614a176169d5565b9050602002810190614a299190616bc2565b614a37906020810190616600565b6001600160a01b03166301e1d1146040518163ffffffff1660e01b8152600401602060405180830381865afa158015614a72573d5f5f3e3d5ffd5b505050506040513d601f19601f82011682018060405250810190614a9691906168f5565b90505b8115614ab057614aa98186616be0565b9450614abd565b614aba8186616c07565b94505b50505b6001016148c5565b505f821215614ae357614ae383614ade84616c26565b61598b565b5050505050565b5f5b81811015614b3157614b29838383818110614b0957614b096169d5565b9050602002810190614b1b9190616bc2565b614b2490616c40565b6159df565b600101614aec565b50336001600160a01b03167f507d790d4c0157977bb25bd8941f5f91c3118eab68b257c1d1c0825cb0051fd98383604051614b6d929190616d45565b60405180910390a25050565b5f614b866012600a616b41565b614b91906064616b4c565b614b9b8385616b4c565b610e369190616b77565b815f03614bc557604051632334425960e21b815260040160405180910390fd5b336001600160a01b03821614801590614c495750604051636eb1769f60e11b81526001600160a01b03821660048201523360248201528290309063dd62ed3e90604401602060405180830381865afa158015614c23573d5f5f3e3d5ffd5b505050506040513d601f19601f82011682018060405250810190614c4791906168f5565b105b15614c5457336138a1565b5f6138d882611cd2565b5f610e368383615b28565b60605f83516001614c7a91906168c9565b6001600160401b03811115614c9157614c91616719565b604051908082528060200260200182016040528015614cba578160200160208202803683370190505b5090505f5b8451811015614d1457848181518110614cda57614cda6169d5565b6020026020010151828281518110614cf457614cf46169d5565b6001600160a01b0390921660209283029190910190910152600101614cbf565b508281855181518110614d2957614d296169d5565b6001600160a01b0390921660209283029190910190910152905092915050565b5f805b8251811015614de257828181518110614d6757614d676169d5565b60200260200101516001600160a01b03166301e1d1146040518163ffffffff1660e01b8152600401602060405180830381865afa158015614daa573d5f5f3e3d5ffd5b505050506040513d601f19601f82011682018060405250810190614dce91906168f5565b614dd890836168c9565b9150600101614d4c565b50919050565b5f614e15614df583615b4e565b8015614e1057505f8480614e0b57614e0b616b63565b868809115b151590565b614e20868686615b7a565b611b5091906168c9565b6001600160a01b038416614e535760405163e602df0560e01b81525f6004820152602401610d42565b6001600160a01b038316614e7c57604051634a1406b160e11b81525f6004820152602401610d42565b6001600160a01b038085165f908152600160209081526040808320938716835292905220829055801561396557826001600160a01b0316846001600160a01b03167f8c5be1e5ebec7d5bd14f71427d1e84f3dd0314c0f7b2291e5b200ac8c7c3b9258460405161409e91815260200190565b6001600160a01b038381165f908152600160209081526040808320938616835292905220545f1981146139655781811015614f4257828183604051637dc7a0d960e11b8152600401610d4293929190616b08565b61396584848484035f614e2a565b6001600160a01b038316614f7957604051634b637e8f60e11b81525f6004820152602401610d42565b6001600160a01b038216614fa25760405163ec442f0560e01b81525f6004820152602401610d42565b612776838383615c30565b6060815f01805480602002602001604051908101604052809291908181526020018280548015614ffa57602002820191905f5260205f20905b815481526020019060010190808311614fe6575b50505050509050919050565b612d5c82826157da565b80825d5050565b61504c8161362560ff196133c760017f3d5fcbe10cf86b117683d0d4967b64a0c0fa4bdda7d07499d3c9dc5e388b694161690c565b6115f9600161362560ff196133c7835f516020616eb15f395f51905f5261690c565b5f5b8151811015612d5c575f6150858260016168c9565b90505b825181101561514a578281815181106150a3576150a36169d5565b6020026020010151602001518383815181106150c1576150c16169d5565b6020026020010151602001511115615142578281815181106150e5576150e56169d5565b60200260200101518383815181106150ff576150ff6169d5565b6020026020010151848481518110615119576151196169d5565b60200260200101858481518110615132576151326169d5565b6020026020010182905282905250505b600101615088565b50600101615070565b6115f98160ff1961518560017f8f2b8f2fcb6f2e256bfd8c09fcca564574482705250cb5c8dbe56c4f4fce37c961690c565b60405160200161519791815260200190565b60408051601f1981840301815291905280516020909101201660ff196151de60017f05abb041f8dc8945baa4f2792e2109e9d9e22dea3aa665ccf2f030209c7415ae61690c565b6040516020016151f091815260200190565b60408051601f1981840301815291905280516020909101201660ff1961523760017f410d83ac3c7a0c2a0669e43e3a5ca6694ee49455f748efa9954a95c3752e9fc961690c565b60405160200161524991815260200190565b6040516020818303038152906040528051906020012016615d43565b60605f61529c6133f360ff196133c760017f410d83ac3c7a0c2a0669e43e3a5ca6694ee49455f748efa9954a95c3752e9fc961690c565b9050806001600160401b038111156152b6576152b6616719565b6040519080825280602002602001820160405280156152fa57816020015b604080518082019091525f80825260208201528152602001906001900390816152d45790505b5091505f5b81811015615421575f6153716133f361536e60ff1961533f60017f05abb041f8dc8945baa4f2792e2109e9d9e22dea3aa665ccf2f030209c7415ae61690c565b60405160200161535191815260200190565b604051602081830303815290604052805190602001201685615dbe565b90565b90505f6153da6133f361536e60ff196153ab60017f8f2b8f2fcb6f2e256bfd8c09fcca564574482705250cb5c8dbe56c4f4fce37c961690c565b6040516020016153bd91815260200190565b604051602081830303815290604052805190602001201686615dbe565b90506040518060400160405280836001600160a01b031681526020018281525085848151811061540c5761540c6169d5565b602090810291909101015250506001016152ff565b505090565b6001600160a01b03821661544f57604051634b637e8f60e11b81525f6004820152602401610d42565b612d5c825f83615c30565b6040516001600160a01b0383811660248301526044820183905261277691859182169063a9059cbb906064015b604051602081830303815290604052915060e01b6020820180516001600160e01b038381831617835250505050615dd9565b6154c1615e45565b6005805460ff191690557f5db9ee0a495bf2e6ff9c91a7834c1ba4fdd244a5e8aa4e537bd38aeae4b073aa335b6040516001600160a01b03909116815260200160405180910390a1565b60605f6155426133f360ff196133c760017f2e756c3932ba771b80f1bae53d1177d9f7a4ced0ce66d74053b09f874cec6fff61690c565b9050806001600160401b0381111561555c5761555c616719565b6040519080825280602002602001820160405280156155a057816020015b604080518082019091525f808252602082015281526020019060019003908161557a5790505b5091505f5b81811015615421575f6155e56133f361536e60ff1961533f60017fb4b00da68d43fac77a22bb187c63cb88989e294cfebeb79b3789ae1629639d9961690c565b90505f61561f6133f361536e60ff196153ab60017f5720a3c83eb8242bbe1a4159c3b45ed663cd9e207a02bdea64844c6c583da9de61690c565b90506040518060400160405280836001600160a01b0316815260200182815250858481518110615651576156516169d5565b602090810291909101015250506001016155a5565b61569b8161362560ff196133c760017fa9898051640582db44f19359a5df62a03dbff55353a9f388ea332d75dfa80fa161690c565b6115f9600161362560ff196133c7835f516020616ef15f395f51905f5261690c565b6115f98160ff196156ef60017f5720a3c83eb8242bbe1a4159c3b45ed663cd9e207a02bdea64844c6c583da9de61690c565b60405160200161570191815260200190565b60408051601f1981840301815291905280516020909101201660ff1961574860017fb4b00da68d43fac77a22bb187c63cb88989e294cfebeb79b3789ae1629639d9961690c565b60405160200161575a91815260200190565b60408051601f1981840301815291905280516020909101201660ff1961523760017f2e756c3932ba771b80f1bae53d1177d9f7a4ced0ce66d74053b09f874cec6fff61690c565b6040516001600160a01b0384811660248301528381166044830152606482018390526139659186918216906323b872dd90608401615487565b6001600160a01b0382166158035760405163ec442f0560e01b81525f6004820152602401610d42565b612d5c5f8383615c30565b6158166134ce565b6005805460ff191660011790557f62e78cea01bee320cd4e420270b5ea74000d11b0c9f74754ebdbfc544b05a2586154ee3390565b5f8190505f816001600160a01b031663dbd5edc76040518163ffffffff1660e01b8152600401602060405180830381865afa15801561588c573d5f5f3e3d5ffd5b505050506040513d601f19601f820116820180604052508101906158b091906168f5565b11156158da57604051632a4d8fbb60e01b81526001600160a01b0383166004820152602401610d42565b806001600160a01b03166301e1d1146040518163ffffffff1660e01b8152600401602060405180830381865afa158015615916573d5f5f3e3d5ffd5b505050506040513d601f19601f8201168201806040525081019061593a91906168f5565b15612d5c5760405163ca4a18b360e01b81526001600160a01b0383166004820152602401610d42565b5f610e36836001600160a01b038416615e68565b5f610e36836001600160a01b038416615f52565b6009548083116159b157604051600162efa20760e01b0319815260040160405180910390fd5b5f6159bc828561690c565b90508083111561396557604051633b5391f960e01b815260040160405180910390fd5b6020810151815160408301515f90600101615a5b57816001600160a01b03166301e1d1146040518163ffffffff1660e01b8152600401602060405180830381865afa158015615a30573d5f5f3e3d5ffd5b505050506040513d601f19601f82011682018060405250810190615a5491906168f5565b9050615a62565b5060408301515b615a74845f0151856020015183615f9e565b5f615a7e84612e0f565b90505f846001600160a01b03166301e1d1146040518163ffffffff1660e01b8152600401602060405180830381865afa158015615abd573d5f5f3e3d5ffd5b505050506040513d601f19601f82011682018060405250810190615ae191906168f5565b905081615aee84836168c9565b1115615b13578483836040516316e05b4760e21b8152600401610d4293929190616b08565b6137ee84868589606001518a60800151616187565b5f825f018281548110615b3d57615b3d6169d5565b905f5260205f200154905092915050565b5f6002826003811115615b6357615b6361691f565b615b6d9190616e35565b60ff166001149050919050565b5f838302815f1985870982811083820303915050805f03615bae57838281615ba457615ba4616b63565b0492505050610e36565b808411615bc557615bc560038515026011186161ed565b5f848688095f868103871696879004966002600389028118808a02820302808a02820302808a02820302808a02820302808a02820302808a02909103029181900381900460010186841190950394909402919094039290920491909117919091029150509392505050565b6001600160a01b038316615c5a578060025f828254615c4f91906168c9565b90915550615cb79050565b6001600160a01b0383165f9081526020819052604090205481811015615c995783818360405163391434e360e21b8152600401610d4293929190616b08565b6001600160a01b0384165f9081526020819052604090209082900390555b6001600160a01b038216615cd357600280548290039055615cf1565b6001600160a01b0382165f9081526020819052604090208054820190555b816001600160a01b0316836001600160a01b03167fddf252ad1be2c89b69c2b068fc378daa952ba7f163c4a11628f55a4df523b3ef83604051615d3691815260200190565b60405180910390a3505050565b5f5b8451811015615db157615d7c858281518110615d6357615d636169d5565b60200260200101516020015161362561536e8785615dbe565b615da9858281518110615d9157615d916169d5565b60200260200101515f015161362561536e8685615dbe565b600101615d45565b5061396584516136258390565b60408051602081018490529081018290525f9060600161186c565b5f5f60205f8451602086015f885af180615df8576040513d5f823e3d81fd5b50505f513d91508115615e0f578060011415615e1c565b6001600160a01b0384163b155b1561396557604051635274afe760e01b81526001600160a01b0385166004820152602401610d42565b60055460ff166112cb57604051638dfc202b60e01b815260040160405180910390fd5b5f8181526001830160205260408120548015615f42575f615e8a60018361690c565b85549091505f90615e9d9060019061690c565b9050808214615efc575f865f018281548110615ebb57615ebb6169d5565b905f5260205f200154905080875f018481548110615edb57615edb6169d5565b5f918252602080832090910192909255918252600188019052604090208390555b8554869080615f0d57615f0d616e56565b600190038181905f5260205f20015f90559055856001015f8681526020019081526020015f205f905560019350505050610bdb565b5f915050610bdb565b5092915050565b5f818152600183016020526040812054615f9757508154600181810184555f848152602080822090930184905584548482528286019093526040902091909155610bdb565b505f610bdb565b805f03615fc957604051630a16952b60e21b81526001600160a01b0383166004820152602401610d42565b6001600160a01b038216615ffb57604051632767039f60e01b81526001600160a01b0383166004820152602401610d42565b6001600160a01b03831661602d57604051632767039f60e01b81526001600160a01b0384166004820152602401610d42565b61603682612787565b61605e5760405163c80e655f60e01b81526001600160a01b0383166004820152602401610d42565b61606783612787565b61608f5760405163c80e655f60e01b81526001600160a01b0384166004820152602401610d42565b816001600160a01b031663dbd5edc76040518163ffffffff1660e01b8152600401602060405180830381865afa1580156160cb573d5f5f3e3d5ffd5b505050506040513d601f19601f820116820180604052508101906160ef91906168f5565b5f0361611957604051630b9cb3f960e11b81526001600160a01b0383166004820152602401610d42565b5f5f5f5f6161288787876161fe565b93509350935093508083111561615757868382604051637d7bf8e160e01b8152600401610d4293929190616b08565b8184111561617e5785848360405163016b606760e21b8152600401610d4293929190616b08565b50505050505050565b60405163c38a6f0b60e01b81526001600160a01b0386169063c38a6f0b906161b9908690889087908790600401616e6a565b5f604051808303815f87803b1580156161d0575f5ffd5b505af11580156161e2573d5f5f3e3d5ffd5b505050505050505050565b634e487b715f52806020526024601cfd5b5f8080808061626c60ff1961623460017fd6ca653d633b7805e7a09d886857226f949d3ea7294700814274fe35008a00e161690c565b60405160200161624691815260200190565b6040516020818303038152906040528051906020012016886001600160a01b0316615dbe565b90505f6162d860ff196162a060017f546815194d984b29286d5b6f432093bc0b41f225a5a8e27984a1c97f6c2c975f61690c565b6040516020016162b291815260200190565b60405160208183030381529060405280519060200120168a6001600160a01b0316615dbe565b90505f61630c60ff196162a060017fd06b3f94ec7e002c6893cd0c8991bb46b1dd8a8de8b084874f6c9702acf7834761690c565b90505f61637860ff1961634060017f880bdf4b1569fe9025df88e4aa4034209a7b27fcb16c5e9fc1f6231643aa93e561690c565b60405160200161635291815260200190565b60405160208183030381529060405280519060200120168c6001600160a01b0316615dbe565b9050815c9550805c9450855f036163f557896001600160a01b031663ad5a356f6040518163ffffffff1660e01b8152600401602060405180830381865afa1580156163c5573d5f5f3e3d5ffd5b505050506040513d601f19601f820116820180604052508101906163e991906168f5565b95506163f58683613625565b845f03616468578a6001600160a01b0316633194549e6040518163ffffffff1660e01b8152600401602060405180830381865afa158015616438573d5f5f3e3d5ffd5b505050506040513d601f19601f8201168201806040525081019061645c91906168f5565b94506164688582613625565b61647389855c6168c9565b975061648089845c6168c9565b965061648c8885613625565b6164968784613625565b5050505093509350935093565b5f81518084528060208401602086015e5f602082860101526020601f19601f83011685010191505092915050565b602081525f610e3660208301846164a3565b5f602082840312156164f3575f5ffd5b5035919050565b6001600160a01b03811681146115f9575f5ffd5b5f5f6040838503121561651f575f5ffd5b823561652a816164fa565b946020939093013593505050565b5f5f5f6060848603121561654a575f5ffd5b8335616555816164fa565b92506020840135616565816164fa565b929592945050506040919091013590565b602080825282518282018190525f918401906040840190835b818110156165b65783516001600160a01b031683526020938401939092019160010161658f565b509095945050505050565b5f5f5f606084860312156165d3575f5ffd5b8335925060208401356165e5816164fa565b915060408401356165f5816164fa565b809150509250925092565b5f60208284031215616610575f5ffd5b8135610e36816164fa565b5f5f6040838503121561662c575f5ffd5b82356003811061663a575f5ffd5b9150602083013561664a816164fa565b809150509250929050565b5f5f60408385031215616666575f5ffd5b82359150602083013561664a816164fa565b5f5f83601f840112616688575f5ffd5b5081356001600160401b0381111561669e575f5ffd5b6020830191508360208260051b85010111156166b8575f5ffd5b9250929050565b5f5f602083850312156166d0575f5ffd5b82356001600160401b038111156166e5575f5ffd5b6166f185828601616678565b90969095509350505050565b5f5f6040838503121561670e575f5ffd5b823561663a816164fa565b634e487b7160e01b5f52604160045260245ffd5b60405160a081016001600160401b038111828210171561674f5761674f616719565b60405290565b5f82601f830112616764575f5ffd5b81356001600160401b0381111561677d5761677d616719565b604051601f8201601f19908116603f011681016001600160401b03811182821017156167ab576167ab616719565b6040528181528382016020018510156167c2575f5ffd5b816020850160208301375f918101602001919091529392505050565b5f5f5f606084860312156167f0575f5ffd5b833592506020840135616802816164fa565b915060408401356001600160401b0381111561681c575f5ffd5b61682886828701616755565b9150509250925092565b600181811c9082168061684657607f821691505b602082108103614de257634e487b7160e01b5f52602260045260245ffd5b5f60208284031215616874575f5ffd5b8151610e36816164fa565b9182526001600160a01b0316602082015260400190565b5f602082840312156168a6575f5ffd5b81518015158114610e36575f5ffd5b634e487b7160e01b5f52601160045260245ffd5b80820180821115610bdb57610bdb6168b5565b60ff8181168382160190811115610bdb57610bdb6168b5565b5f60208284031215616905575f5ffd5b5051919050565b81810381811115610bdb57610bdb6168b5565b634e487b7160e01b5f52602160045260245ffd5b5f6003841061695057634e487b7160e01b5f52602160045260245ffd5b5060f89290921b825260601b6bffffffffffffffffffffffff1916600182015260150190565b5f60a0828403128015616987575f5ffd5b5061699061672d565b825161699b816164fa565b815260208381015190820152604080840151908201526060808401519082015260808301516169c9816164fa565b60808201529392505050565b634e487b7160e01b5f52603260045260245ffd5b5f82518060208501845e5f920191825250919050565b6001815b6001841115616a3a57808504811115616a1e57616a1e6168b5565b6001841615616a2c57908102905b60019390931c928002616a03565b935093915050565b5f82616a5057506001610bdb565b81616a5c57505f610bdb565b8160018114616a725760028114616a7c57616a98565b6001915050610bdb565b60ff841115616a8d57616a8d6168b5565b50506001821b610bdb565b5060208310610133831016604e8410600b8410161715616abb575081810a610bdb565b616ac75f1984846169ff565b805f1904821115616ada57616ada6168b5565b029392505050565b5f610e3660ff841683616a42565b5f60018201616b0157616b016168b5565b5060010190565b6001600160a01b039390931683526020830191909152604082015260600190565b828152604060208201525f61138d60408301846164a3565b5f610e368383616a42565b8082028115828204841417610bdb57610bdb6168b5565b634e487b7160e01b5f52601260045260245ffd5b5f82616b8557616b85616b63565b500490565b6040810160038410616baa57634e487b7160e01b5f52602160045260245ffd5b9281526001600160a01b039190911660209091015290565b5f8235609e19833603018112616bd6575f5ffd5b9190910192915050565b8082018281125f831280158216821582161715616bff57616bff6168b5565b505092915050565b8181035f831280158383131683831282161715615f4b57615f4b6168b5565b5f600160ff1b8201616c3a57616c3a6168b5565b505f0390565b5f60a08236031215616c50575f5ffd5b616c5861672d565b8235616c63816164fa565b81526020830135616c73816164fa565b60208201526040838101359082015260608301356001600160401b03811115616c9a575f5ffd5b616ca636828601616755565b60608301525060808301356001600160401b03811115616cc4575f5ffd5b616cd036828601616755565b60808301525092915050565b5f5f8335601e19843603018112616cf1575f5ffd5b83016020810192503590506001600160401b03811115616d0f575f5ffd5b8036038213156166b8575f5ffd5b81835281816020850137505f828201602090810191909152601f909101601f19169091010190565b602080825281018290525f6040600584901b830181019083018583609e1936839003015b87821015616e2857868503603f190184528235818112616d87575f5ffd5b89018035616d94816164fa565b6001600160a01b031686526020810135616dad816164fa565b6001600160a01b0316602087015260408181013590870152616dd26060820182616cdc565b60a06060890152616de760a089018284616d1d565b915050616df76080830183616cdc565b92508782036080890152616e0c828483616d1d565b9750505050602083019250602084019350600182019150616d69565b5092979650505050505050565b5f60ff831680616e4757616e47616b63565b8060ff84160691505092915050565b634e487b7160e01b5f52603160045260245ffd5b8481526001600160a01b03841660208201526080604082018190525f90616e93908301856164a3565b8281036060840152616ea581856164a3565b97965050505050505056fe98932279f8646d348f86cf154406d1fab3c6a0c52686d604c7d4a6a1400381097935bd0ae54bc31f548c14dba4d37c5c64b3f8ca900cb468fb8abd54d5894f55a44c7cc604645fc9d906e0a5aeb821ecf76e473a1a4d03393ebd52161430e41ba26469706673582212202da50cafbbbcf44a217384263c2a88af4cbf374b89b8a0d17a4b5974c805cf4964736f6c634300081c003360c060405234801561000f575f5ffd5b50604051612dcf380380612dcf83398101604081905261002e916104b3565b6060820151604083015183918291806001600160a01b03811661006b576040516347bd7c1d60e01b81525f60048201526024015b60405180910390fd5b6040516301ffc9a760e01b815263cb695ef560e01b60048201526001600160a01b038216906301ffc9a790602401602060405180830381865afa1580156100b4573d5f5f3e3d5ffd5b505050506040513d601f19601f820116820180604052508101906100d891906105ca565b610100576040516347bd7c1d60e01b81526001600160a01b0382166004820152602401610062565b6001600160a01b039081166080528216905061012f5760405163f1634df960e01b815260040160405180910390fd5b6001600160a01b0390811660a052608082015116610163576040516001620a810f60e11b0319815260040160405180910390fd5b8051515f036101855760405163268c072960e01b815260040160405180910390fd5b5f61018e610334565b6001600160a01b0316036101b557604051633a4f9cdb60e21b815260040160405180910390fd5b6101208101516101c49061039c565b6101e157604051634ef9dfe360e01b815260040160405180910390fd5b6040805161014081019091525f8152602081016101fc610334565b6001600160a01b039081168252608080850151821660208085019190915260a08087015160408087019190915260c08089015160608089019190915260e0808b0151878a01528a51858a01528a860151838a0152610100808c01511515918a01919091526101208b015198019790975287515f80549188166001600160a01b031992831617815594890151600180549189169183169190911790559188015160028054919097169216919091179094559385015160035590840151600455918301516005558201516006906102d1908261066e565b5060e082015160078201906102e6908261066e565b5061010082015160088201805460ff19169115159190911790556101209091015160099091015550505f80546001600160a01b0319166001600160a01b03929092169190911790555061085a565b5f60a0516001600160a01b031663117d8ae06040518163ffffffff1660e01b8152600401602060405180830381865afa158015610373573d5f5f3e3d5ffd5b505050506040513d601f19601f820116820180604052508101906103979190610728565b905090565b5f6103bd826103ad6012600a610838565b6103b8906064610843565b101590565b92915050565b634e487b7160e01b5f52604160045260245ffd5b60405161014081016001600160401b03811182821017156103fa576103fa6103c3565b60405290565b5f82601f83011261040f575f5ffd5b81516001600160401b03811115610428576104286103c3565b604051601f8201601f19908116603f011681016001600160401b0381118282101715610456576104566103c3565b60405281815283820160200185101561046d575f5ffd5b8160208501602083015e5f918101602001919091529392505050565b80516001600160a01b038116811461049f575f5ffd5b919050565b8051801515811461049f575f5ffd5b5f5f604083850312156104c4575f5ffd5b82516001600160401b038111156104d9575f5ffd5b830161014081860312156104eb575f5ffd5b6104f36103d7565b81516001600160401b03811115610508575f5ffd5b61051487828501610400565b82525060208201516001600160401b0381111561052f575f5ffd5b61053b87828501610400565b60208301525061054d60408301610489565b604082015261055e60608301610489565b606082015261056f60808301610489565b608082015260a0828101519082015260c0808301519082015260e0808301519082015261059f61010083016104a4565b610100820152610120918201519181019190915291506105c160208401610489565b90509250929050565b5f602082840312156105da575f5ffd5b6105e3826104a4565b9392505050565b600181811c908216806105fe57607f821691505b60208210810361061c57634e487b7160e01b5f52602260045260245ffd5b50919050565b601f82111561066957805f5260205f20601f840160051c810160208510156106475750805b601f840160051c820191505b81811015610666575f8155600101610653565b50505b505050565b81516001600160401b03811115610687576106876103c3565b61069b8161069584546105ea565b84610622565b6020601f8211600181146106cd575f83156106b65750848201515b5f19600385901b1c1916600184901b178455610666565b5f84815260208120601f198516915b828110156106fc57878501518255602094850194600190920191016106dc565b508482101561071957868401515f19600387901b60f8161c191681555b50505050600190811b01905550565b5f60208284031215610738575f5ffd5b6105e382610489565b634e487b7160e01b5f52601160045260245ffd5b6001815b60018411156107905780850481111561077457610774610741565b600184161561078257908102905b60019390931c928002610759565b935093915050565b5f826107a6575060016103bd565b816107b257505f6103bd565b81600181146107c857600281146107d2576107ee565b60019150506103bd565b60ff8411156107e3576107e3610741565b50506001821b6103bd565b5060208310610133831016604e8410600b8410161715610811575081810a6103bd565b61081d5f198484610755565b805f190482111561083057610830610741565b029392505050565b5f6105e38383610798565b80820281158282048414176103bd576103bd610741565b60805160a05161252a6108a55f395f81816104790152818161060c015281816109f601528181610a5301528181611238015261195401525f81816118740152611bfa015261252a5ff3fe608060405234801561000f575f5ffd5b506004361061021e575f3560e01c806379502c551161012a578063c38a6f0b116100b4578063d570ee4711610079578063d570ee47146104d5578063dbd5edc7146104dd578063ebc136d0146104e5578063ebf31131146104f8578063f7e533ec14610500575f5ffd5b8063c38a6f0b1461044c578063c3f909d41461045f578063c9c667e314610474578063ccc574901461049b578063ce5c7f61146104c2575f5ffd5b806392f5e832116100fa57806392f5e832146103db578063a89f38a3146103ee578063ad5a356f14610415578063bdcdd8821461041d578063c0b534c214610425575f5ffd5b806379502c551461039a5780637aaceb95146103b857806386651203146103c05780638a8b9976146103d3575f5ffd5b806338d52e0f116101ab57806361d027b31161017b57806361d027b31461032457806361f5cd8b1461032c57806366e943f11461033f57806369b3054b14610366578063780469bb14610379575f5ffd5b806338d52e0f146102f05780634fc7fac314610301578063565974d3146103145780635b0f83f31461031c575f5ffd5b806324ea54f4116101f157806324ea54f4146102875780632db6d399146102ae578063303dbaf3146102c15780633194549e146102d857806337270936146102e0575f5ffd5b806301e1d1141461022257806306fdde031461023d578063117d8ae01461025257806313c408f814610272575b5f5ffd5b61022a610508565b6040519081526020015b60405180910390f35b610245610577565b6040516102349190611d92565b61025a610609565b6040516001600160a01b039091168152602001610234565b610285610280366004611de9565b61068a565b005b61022a7f55435dd261a4b9b3364963f7738a7a662ad9c84396d64be3365284bb7f0a504181565b6102856102bc366004611de9565b610754565b60085460ff165b6040519015158152602001610234565b60045461022a565b5f546001600160a01b031661025a565b6002546001600160a01b031661025a565b61028561030f366004611e31565b610960565b6102456109e2565b61025a6109f3565b61025a610a50565b61028561033a366004611e31565b610aad565b61022a7f0d186688925976bbe6755ae984501c8e3e2b103a7af59fd803ab9c6d891ae7e081565b61022a610374366004611e6f565b610b02565b61038c610387366004611ebd565b610b35565b604051610234929190611f88565b6103a26110df565b6040516102349a99989796959493929190612011565b61025a611235565b6102856103ce366004611e31565b611292565b6102856112e7565b6102856103e9366004611e31565b611381565b61022a7fb00be3d6a5434b97b328543d1486d56adcb7e74080170d1cdd7e0306c3d9ba3d81565b60055461022a565b60095461022a565b61022a7f025d8bbf3268be680d2605ebf6da15063b9915615bf1087dab336efc1bf970cb81565b61028561045a366004612088565b6113d6565b610467611529565b6040516102349190612113565b61025a7f000000000000000000000000000000000000000000000000000000000000000081565b61022a7f7935bd0ae54bc31f548c14dba4d37c5c64b3f8ca900cb468fb8abd54d5894f5581565b61038c6104d03660046121e4565b611721565b61022a611813565b60035461022a565b6102c86104f3366004612223565b61182d565b6102856118df565b61025a611951565b6002546040516370a0823160e01b81523060048201525f916001600160a01b0316906370a0823190602401602060405180830381865afa15801561054e573d5f5f3e3d5ffd5b505050506040513d601f19601f82011682018060405250810190610572919061223e565b905090565b60605f600601805461058890612255565b80601f01602080910402602001604051908101604052809291908181526020018280546105b490612255565b80156105ff5780601f106105d6576101008083540402835291602001916105ff565b820191905f5260205f20905b8154815290600101906020018083116105e257829003601f168201915b5050505050905090565b5f7f00000000000000000000000000000000000000000000000000000000000000006001600160a01b031663117d8ae06040518163ffffffff1660e01b8152600401602060405180830381865afa158015610666573d5f5f3e3d5ffd5b505050506040513d601f19601f82011682018060405250810190610572919061228d565b5f546001600160a01b0316336001600160a01b0316146106d057335b604051631564c0e160e11b81526001600160a01b0390911660048201526024015b60405180910390fd5b6106d86119ae565b81816106e48282611a1d565b60025433906001600160a01b03166106fd818389611a7f565b604080516001600160a01b038381168252602082018a90528416917fd5e872c5ecfb1bb8820b2e6a20e31b883682282da886621541f71e31ec11947e910160405180910390a25050505061074f611ade565b505050565b61075c6119ae565b306001600160a01b031663372709366040518163ffffffff1660e01b8152600401602060405180830381865afa158015610798573d5f5f3e3d5ffd5b505050506040513d601f19601f820116820180604052508101906107bc919061228d565b6001600160a01b03811633146108e7575f3390505f306001600160a01b031663117d8ae06040518163ffffffff1660e01b8152600401602060405180830381865afa15801561080d573d5f5f3e3d5ffd5b505050506040513d601f19601f82011682018060405250810190610831919061228d565b6001600160a01b0316826001600160a01b0316149050806108e45760405163d206a05960e01b81526001600160a01b0383811660048301525f919085169063d206a05990602401602060405180830381865afa158015610893573d5f5f3e3d5ffd5b505050506040513d601f19601f820116820180604052508101906108b791906122a8565b9050806108e257604051638f7a567d60e01b81526001600160a01b03841660048201526024016106c7565b505b50505b82826108f38282611a1d565b60025433906001600160a01b031661090d8183308b611b08565b604080516001600160a01b038381168252602082018b90528416917fcbaa1442ac205415c9d69643e7b60ec73d1de35dbc807c21ec288c70ddc4207b910160405180910390a2505050505061074f611ade565b5f546001600160a01b0316336001600160a01b03161461098057336106a6565b61098981611b47565b6109a657604051634ef9dfe360e01b815260040160405180910390fd5b60098190556040518181527fd3c6d0ab315f2f1352f036cd9f401b49e38e1b90907e195225e8105f9a0b6f02906020015b60405180910390a150565b60605f600701805461058890612255565b5f7f00000000000000000000000000000000000000000000000000000000000000006001600160a01b0316635b0f83f36040518163ffffffff1660e01b8152600401602060405180830381865afa158015610666573d5f5f3e3d5ffd5b5f7f00000000000000000000000000000000000000000000000000000000000000006001600160a01b03166361d027b36040518163ffffffff1660e01b8152600401602060405180830381865afa158015610666573d5f5f3e3d5ffd5b5f546001600160a01b0316336001600160a01b031614610acd57336106a6565b60048190556040518181527ffbe2d5c01ea8ba5596d6c4e6c82c6d4a0a0ee1128689993a4a5ba0169273d69f906020016109d7565b5f8282604051602001610b169291906122c7565b6040516020818303038152906040528051906020012090505b92915050565b606080306001600160a01b031663117d8ae06040518163ffffffff1660e01b8152600401602060405180830381865afa158015610b74573d5f5f3e3d5ffd5b505050506040513d601f19601f82011682018060405250810190610b98919061228d565b6001600160a01b0316336001600160a01b031614610bd757335b604051631184b31b60e21b81526001600160a01b0390911660048201526024016106c7565b610bdf6119ae565b825167ffffffffffffffff811115610bf957610bf9611ea9565b604051908082528060200260200182016040528015610c22578160200160208202803683370190505b509150825167ffffffffffffffff811115610c3f57610c3f611ea9565b604051908082528060200260200182016040528015610c68578160200160208202803683370190505b506002545f80546040805163c8169aa160e01b815290519495506001600160a01b039384169492939091169163c8169aa1916004808201926020929091908290030181865afa158015610cbd573d5f5f3e3d5ffd5b505050506040513d601f19601f82011682018060405250810190610ce1919061228d565b6040516370a0823160e01b81523060048201529091505f906001600160a01b038416906370a0823190602401602060405180830381865afa158015610d28573d5f5f3e3d5ffd5b505050506040513d601f19601f82011682018060405250810190610d4c919061223e565b118015610d625750306001600160a01b03821614155b15610eae576040516370a0823160e01b8152306004820152610de49082906001600160a01b038516906370a0823190602401602060405180830381865afa158015610daf573d5f5f3e3d5ffd5b505050506040513d601f19601f82011682018060405250810190610dd3919061223e565b6001600160a01b0385169190611b68565b6040516370a0823160e01b81523060048201526001600160a01b0380831691632db6d399918516906370a0823190602401602060405180830381865afa158015610e30573d5f5f3e3d5ffd5b505050506040513d601f19601f82011682018060405250810190610e54919061223e565b60405180602001604052805f8152506040518363ffffffff1660e01b8152600401610e8092919061230a565b5f604051808303815f87803b158015610e97575f5ffd5b505af1158015610ea9573d5f5f3e3d5ffd5b505050505b5f5b855181101561107c575f868281518110610ecc57610ecc61232a565b60209081029190910101516040516370a0823160e01b81523060048201526001600160a01b03909116906370a0823190602401602060405180830381865afa158015610f1a573d5f5f3e3d5ffd5b505050506040513d601f19601f82011682018060405250810190610f3e919061223e565b9050801561107357611007610f51610609565b888481518110610f6357610f6361232a565b60209081029190910101516040516370a0823160e01b81523060048201526001600160a01b03909116906370a0823190602401602060405180830381865afa158015610fb1573d5f5f3e3d5ffd5b505050506040513d601f19601f82011682018060405250810190610fd5919061223e565b898581518110610fe757610fe761232a565b60200260200101516001600160a01b0316611a7f9092919063ffffffff16565b8682815181106110195761101961232a565b60200260200101518683815181106110335761103361232a565b60200260200101906001600160a01b031690816001600160a01b031681525050808583815181106110665761106661232a565b6020026020010181815250505b50600101610eb0565b508260405161108b919061233e565b6040518091039020846040516110a19190612373565b604051908190038120907f46b8771620f6acf56cb03d3e835ea8024c7dcbcf05fcc3f6ade9e19d1a3e212b905f90a350506110da611ade565b915091565b5f8054600154600254600354600454600554600680546001600160a01b0397881698968816979095169593949293919261111890612255565b80601f016020809104026020016040519081016040528092919081815260200182805461114490612255565b801561118f5780601f106111665761010080835404028352916020019161118f565b820191905f5260205f20905b81548152906001019060200180831161117257829003601f168201915b5050505050908060070180546111a490612255565b80601f01602080910402602001604051908101604052809291908181526020018280546111d090612255565b801561121b5780601f106111f25761010080835404028352916020019161121b565b820191905f5260205f20905b8154815290600101906020018083116111fe57829003601f168201915b505050506008830154600990930154919260ff169190508a565b5f7f00000000000000000000000000000000000000000000000000000000000000006001600160a01b0316637aaceb956040518163ffffffff1660e01b8152600401602060405180830381865afa158015610666573d5f5f3e3d5ffd5b5f546001600160a01b0316336001600160a01b0316146112b257336106a6565b60038190556040518181527f333b26cca69716ad4680ddb07663f5bfb4f06045671f336af9a83690a3ae00f9906020016109d7565b6112ef611bf7565b61130e57604051631564c0e160e11b81523360048201526024016106c7565b5f546001600160a01b03161561133757604051636a79b97d60e11b815260040160405180910390fd5b5f80546001600160a01b031916339081179091556040519081527f55489ce0259bd691120d8860861be1c401c7c16a3cd268d21045756af4ecc5ca906020015b60405180910390a1565b5f546001600160a01b0316336001600160a01b0316146113a157336106a6565b60058190556040518181527fb6ac66853c4e59c71e118d25ab494bb847c4e5eb0c8894898c5343e6f61afc12906020016109d7565b5f546001600160a01b0316336001600160a01b0316146113f657336106a6565b81816114028282611a1d565b60025460405163095ea7b360e01b81526001600160a01b038981166004830152602482018b905290911690819063095ea7b3906044016020604051808303815f875af1158015611454573d5f5f3e3d5ffd5b505050506040513d601f19601f8201168201806040525081019061147891906122a8565b50604051632db6d39960e01b81526001600160a01b03891690632db6d399906114a9908c908b908b906004016123a6565b5f604051808303815f87803b1580156114c0575f5ffd5b505af11580156114d2573d5f5f3e3d5ffd5b5050604080516001600160a01b038581168252602082018e90528c1693503092507f9f784fc02a186f1c98b2d9f15fda084da27cdd291a3785d978f91911d880516b910160405180910390a3505050505050505050565b6115946040518061014001604052805f6001600160a01b031681526020015f6001600160a01b031681526020015f6001600160a01b031681526020015f81526020015f81526020015f815260200160608152602001606081526020015f151581526020015f81525090565b60408051610140810182525f80546001600160a01b0390811683526001548116602084015260025416928201929092526003546060820152600454608082015260055460a08201526006805491929160c0840191906115f290612255565b80601f016020809104026020016040519081016040528092919081815260200182805461161e90612255565b80156116695780601f1061164057610100808354040283529160200191611669565b820191905f5260205f20905b81548152906001019060200180831161164c57829003601f168201915b5050505050815260200160078201805461168290612255565b80601f01602080910402602001604051908101604052809291908181526020018280546116ae90612255565b80156116f95780601f106116d0576101008083540402835291602001916116f9565b820191905f5260205f20905b8154815290600101906020018083116116dc57829003601f168201915b5050509183525050600882015460ff1615156020820152600990910154604090910152919050565b606080306001600160a01b031663117d8ae06040518163ffffffff1660e01b8152600401602060405180830381865afa158015611760573d5f5f3e3d5ffd5b505050506040513d601f19601f82011682018060405250810190611784919061228d565b6001600160a01b0316336001600160a01b0316146117a25733610bb2565b6117aa6119ae565b505060405160609081906117bf90829061233e565b6040518091039020826040516117d59190612373565b604051908190038120907f3e3e7958121b3e39c7a49392d1aa9cdce870c2a059744f9e15cf66fff7865455905f90a361180c611ade565b9250929050565b6008545f9060ff161561182557505f90565b610572611c9f565b604051632474521560e21b81527fb00be3d6a5434b97b328543d1486d56adcb7e74080170d1cdd7e0306c3d9ba3d60048201526001600160a01b0382811660248301525f917f0000000000000000000000000000000000000000000000000000000000000000909116906391d1485490604401602060405180830381865afa1580156118bb573d5f5f3e3d5ffd5b505050506040513d601f19601f82011682018060405250810190610b2f91906122a8565b5f546001600160a01b0316336001600160a01b0316146119125760405163430da47160e01b815260040160405180910390fd5b5f80546001600160a01b03191690556040513381527f7cb941d7b1708e5b3bcd35ca960d6c6311188cec18886e5b67630552676b048790602001611377565b5f7f00000000000000000000000000000000000000000000000000000000000000006001600160a01b031663f7e533ec6040518163ffffffff1660e01b8152600401602060405180830381865afa158015610666573d5f5f3e3d5ffd5b7f9b779b17422d0df92223018b32b4d1fa46e071723d6817e2486d003becc55f005c156119ee57604051633ee5aeb560e01b815260040160405180910390fd5b611a1b60017f9b779b17422d0df92223018b32b4d1fa46e071723d6817e2486d003becc55f005b90611ca8565b565b8015801590611a2f575060085460ff16155b15611a4d57604051630cd0fdf960e01b815260040160405180910390fd5b80158015611a5d575060085460ff165b15611a7b5760405163332863a960e11b815260040160405180910390fd5b5050565b6040516001600160a01b0383811660248301526044820183905261074f91859182169063a9059cbb906064015b604051602081830303815290604052915060e01b6020820180516001600160e01b038381831617835250505050611caf565b611a1b5f7f9b779b17422d0df92223018b32b4d1fa46e071723d6817e2486d003becc55f00611a15565b6040516001600160a01b038481166024830152838116604483015260648201839052611b419186918216906323b872dd90608401611aac565b50505050565b5f610b2f82611b586012600a6124d2565b611b639060646124dd565b101590565b604080516001600160a01b038416602482015260448082018490528251808303909101815260649091019091526020810180516001600160e01b031663095ea7b360e01b179052611bb98482611d1b565b611b41576040516001600160a01b0384811660248301525f6044830152611bed91869182169063095ea7b390606401611aac565b611b418482611caf565b5f7f00000000000000000000000000000000000000000000000000000000000000006001600160a01b03166391d14854611c32600230610b02565b336040516001600160e01b031960e085901b16815260048101929092526001600160a01b03166024820152604401602060405180830381865afa158015611c7b573d5f5f3e3d5ffd5b505050506040513d601f19601f8201168201806040525081019061057291906122a8565b5f610572610508565b80825d5050565b5f5f60205f8451602086015f885af180611cce576040513d5f823e3d81fd5b50505f513d91508115611ce5578060011415611cf2565b6001600160a01b0384163b155b15611b4157604051635274afe760e01b81526001600160a01b03851660048201526024016106c7565b5f5f5f5f60205f8651602088015f8a5af192503d91505f519050828015611d5a57508115611d4c5780600114611d5a565b5f866001600160a01b03163b115b9695505050505050565b5f81518084528060208401602086015e5f602082860101526020601f19601f83011685010191505092915050565b602081525f611da46020830184611d64565b9392505050565b5f5f83601f840112611dbb575f5ffd5b50813567ffffffffffffffff811115611dd2575f5ffd5b60208301915083602082850101111561180c575f5ffd5b5f5f5f60408486031215611dfb575f5ffd5b83359250602084013567ffffffffffffffff811115611e18575f5ffd5b611e2486828701611dab565b9497909650939450505050565b5f60208284031215611e41575f5ffd5b5035919050565b6001600160a01b0381168114611e5c575f5ffd5b50565b8035611e6a81611e48565b919050565b5f5f60408385031215611e80575f5ffd5b823560038110611e8e575f5ffd5b91506020830135611e9e81611e48565b809150509250929050565b634e487b7160e01b5f52604160045260245ffd5b5f60208284031215611ecd575f5ffd5b813567ffffffffffffffff811115611ee3575f5ffd5b8201601f81018413611ef3575f5ffd5b803567ffffffffffffffff811115611f0d57611f0d611ea9565b8060051b604051601f19603f830116810181811067ffffffffffffffff82111715611f3a57611f3a611ea9565b604052918252602081840181019290810187841115611f57575f5ffd5b6020850194505b83851015611f7d57611f6f85611e5f565b815260209485019401611f5e565b509695505050505050565b604080825283519082018190525f9060208501906060840190835b81811015611fca5783516001600160a01b0316835260209384019390920191600101611fa3565b5050838103602080860191909152855180835291810192508501905f5b81811015612005578251845260209384019390920191600101611fe7565b50919695505050505050565b6001600160a01b038b811682528a8116602083015289166040820152606081018890526080810187905260a0810186905261014060c082018190525f9061205a90830187611d64565b82810360e084015261206c8187611d64565b9415156101008401525050610120015298975050505050505050565b5f5f5f5f5f5f6080878903121561209d575f5ffd5b8635955060208701356120af81611e48565b9450604087013567ffffffffffffffff8111156120ca575f5ffd5b6120d689828a01611dab565b909550935050606087013567ffffffffffffffff8111156120f5575f5ffd5b61210189828a01611dab565b979a9699509497509295939492505050565b6020815261212d6020820183516001600160a01b03169052565b5f602083015161214860408401826001600160a01b03169052565b5060408301516001600160a01b03811660608401525060608301516080830152608083015160a083015260a083015160c083015260c083015161014060e0840152612197610160840182611d64565b905060e0840151601f19848303016101008501526121b58282611d64565b9150506101008401516121cd61012085018215159052565b506101208401516101408401528091505092915050565b5f5f602083850312156121f5575f5ffd5b823567ffffffffffffffff81111561220b575f5ffd5b61221785828601611dab565b90969095509350505050565b5f60208284031215612233575f5ffd5b8135611da481611e48565b5f6020828403121561224e575f5ffd5b5051919050565b600181811c9082168061226957607f821691505b60208210810361228757634e487b7160e01b5f52602260045260245ffd5b50919050565b5f6020828403121561229d575f5ffd5b8151611da481611e48565b5f602082840312156122b8575f5ffd5b81518015158114611da4575f5ffd5b5f600384106122e457634e487b7160e01b5f52602160045260245ffd5b5060f89290921b825260601b6bffffffffffffffffffffffff1916600182015260150190565b828152604060208201525f6123226040830184611d64565b949350505050565b634e487b7160e01b5f52603260045260245ffd5b81515f90829060208501835b8281101561236857815184526020938401939091019060010161234a565b509195945050505050565b81515f90829060208501835b828110156123685781516001600160a01b031684526020938401939091019060010161237f565b83815260406020820152816040820152818360608301375f818301606090810191909152601f909201601f1916010192915050565b634e487b7160e01b5f52601160045260245ffd5b6001815b600184111561242a5780850481111561240e5761240e6123db565b600184161561241c57908102905b60019390931c9280026123f3565b935093915050565b5f8261244057506001610b2f565b8161244c57505f610b2f565b8160018114612462576002811461246c57612488565b6001915050610b2f565b60ff84111561247d5761247d6123db565b50506001821b610b2f565b5060208310610133831016604e8410600b84101617156124ab575081810a610b2f565b6124b75f1984846123ef565b805f19048211156124ca576124ca6123db565b029392505050565b5f611da48383612432565b8082028115828204841417610b2f57610b2f6123db56fea2646970667358221220d68a21e6f6c497e5bd1db15ba6a6d75851c45bc6d91276a1a6b8dab3ddcc05e464736f6c634300081c0033","linkReferences":{}},"methodIdentifiers":{"ADMIRALS_QUARTERS_ROLE()":"a89f38a3","DECAY_CONTROLLER_ROLE()":"c0b534c2","GOVERNOR_ROLE()":"ccc57490","GUARDIAN_ROLE()":"24ea54f4","INITIAL_MINIMUM_PAUSE_TIME()":"a0506f0b","MAX_REBALANCE_OPERATIONS()":"5ed975e5","SUPER_KEEPER_ROLE()":"66e943f1","addArk(address)":"e37d5b7f","addArks(address[])":"cc5b1e55","allowance(address,address)":"dd62ed3e","approve(address,uint256)":"095ea7b3","arks(uint256)":"ff32a42a","asset()":"38d52e0f","balanceOf(address)":"70a08231","bufferArk()":"c8169aa1","config()":"79502c55","configurationManager()":"c9c667e3","convertToAssets(uint256)":"07a2d13a","convertToShares(uint256)":"c6e6f592","decimals()":"313ce567","deposit(uint256,address)":"6e553f65","deposit(uint256,address,bytes)":"faa9bce9","details()":"565974d3","fleetCommanderRewardsManagerFactory()":"f7e533ec","forceRebalance((address,address,uint256,bytes,bytes)[])":"e7b20e5b","generateRole(uint8,address)":"69b3054b","getActiveArks()":"240ecd60","getConfig()":"c3f909d4","getCooldown()":"218e4a15","getEffectiveArkDepositCap(address)":"ef2fc472","getLastActionTimestamp()":"3152d5d1","harborCommand()":"5b0f83f3","hasAdmiralsQuartersRole(address)":"ebc136d0","isArkActiveOrBufferArk(address)":"d206a059","lastTipTimestamp()":"71aedbc1","maxBufferRedeem(address)":"9265b76e","maxBufferWithdraw(address)":"3e314c76","maxDeposit(address)":"402d267d","maxMint(address)":"c63d75b6","maxRedeem(address)":"d905777e","maxWithdraw(address)":"ce96cb77","minimumPauseTime()":"680e57ab","mint(uint256,address)":"94bf804d","name()":"06fdde03","pause()":"8456cb59","pauseStartTime()":"94d7eaa4","paused()":"5c975abb","previewDeposit(uint256)":"ef8b30f7","previewMint(uint256)":"b3d7f6b9","previewRedeem(uint256)":"4cdad506","previewTip(address,uint256)":"83cf3d4a","previewWithdraw(uint256)":"0a28a477","raft()":"117d8ae0","rebalance((address,address,uint256,bytes,bytes)[])":"fcf2849f","redeem(uint256,address,address)":"ba087652","redeemFromArks(uint256,address,address)":"3a7c9f0e","redeemFromBuffer(uint256,address,address)":"f3577816","removeArk(address)":"96c25a38","setArkDepositCap(address,uint256)":"34050560","setArkMaxDepositPercentageOfTVL(address,uint256)":"f3ba553e","setArkMaxRebalanceInflow(address,uint256)":"d45a07a1","setArkMaxRebalanceOutflow(address,uint256)":"b637766c","setFleetDepositCap(uint256)":"d902d41a","setMaxRebalanceOperations(uint256)":"133ab579","setMinimumBufferBalance(uint256)":"4daecb9c","setMinimumPauseTime(uint256)":"e193858f","setTipRate(uint256)":"5822198f","symbol()":"95d89b41","tip()":"2755cd2d","tipJar()":"7aaceb95","tipRate()":"498e76a0","totalAssets()":"01e1d114","totalSupply()":"18160ddd","transfer(address,uint256)":"a9059cbb","transferFrom(address,address,uint256)":"23b872dd","treasury()":"61d027b3","unpause()":"3f4ba83a","updateRebalanceCooldown(uint256)":"dc9de0a8","updateStakingRewardsManager()":"93417052","withdraw(uint256,address,address)":"b460af94","withdrawFromArks(uint256,address,address)":"a039e944","withdrawFromBuffer(uint256,address,address)":"5f538f6f","withdrawableTotalAssets()":"d570ee47"},"id":196}