{"abi":[{"type":"constructor","inputs":[{"name":"params","type":"tuple","internalType":"struct FleetCommanderParams","components":[{"name":"name","type":"string","internalType":"string"},{"name":"symbol","type":"string","internalType":"string"},{"name":"initialArks","type":"address[]","internalType":"address[]"},{"name":"configurationManager","type":"address","internalType":"address"},{"name":"accessManager","type":"address","internalType":"address"},{"name":"asset","type":"address","internalType":"address"},{"name":"bufferArk","type":"address","internalType":"address"},{"name":"initialMinimumBufferBalance","type":"uint256","internalType":"uint256"},{"name":"initialRebalanceCooldown","type":"uint256","internalType":"uint256"},{"name":"depositCap","type":"uint256","internalType":"uint256"},{"name":"initialTipRate","type":"uint256","internalType":"Percentage"}]}],"stateMutability":"nonpayable"},{"type":"function","name":"MAX_REBALANCE_OPERATIONS","inputs":[],"outputs":[{"name":"","type":"uint256","internalType":"uint256"}],"stateMutability":"view"},{"type":"function","name":"addArk","inputs":[{"name":"ark","type":"address","internalType":"address"}],"outputs":[],"stateMutability":"nonpayable"},{"type":"function","name":"addArks","inputs":[{"name":"_arkAddresses","type":"address[]","internalType":"address[]"}],"outputs":[],"stateMutability":"nonpayable"},{"type":"function","name":"adjustBuffer","inputs":[{"name":"rebalanceData","type":"tuple[]","internalType":"struct RebalanceData[]","components":[{"name":"fromArk","type":"address","internalType":"address"},{"name":"toArk","type":"address","internalType":"address"},{"name":"amount","type":"uint256","internalType":"uint256"}]}],"outputs":[],"stateMutability":"nonpayable"},{"type":"function","name":"allowance","inputs":[{"name":"owner","type":"address","internalType":"address"},{"name":"spender","type":"address","internalType":"address"}],"outputs":[{"name":"","type":"uint256","internalType":"uint256"}],"stateMutability":"view"},{"type":"function","name":"approve","inputs":[{"name":"spender","type":"address","internalType":"address"},{"name":"value","type":"uint256","internalType":"uint256"}],"outputs":[{"name":"","type":"bool","internalType":"bool"}],"stateMutability":"nonpayable"},{"type":"function","name":"arks","inputs":[{"name":"","type":"uint256","internalType":"uint256"}],"outputs":[{"name":"","type":"address","internalType":"address"}],"stateMutability":"view"},{"type":"function","name":"asset","inputs":[],"outputs":[{"name":"","type":"address","internalType":"address"}],"stateMutability":"view"},{"type":"function","name":"balanceOf","inputs":[{"name":"account","type":"address","internalType":"address"}],"outputs":[{"name":"","type":"uint256","internalType":"uint256"}],"stateMutability":"view"},{"type":"function","name":"config","inputs":[],"outputs":[{"name":"bufferArk","type":"address","internalType":"contract IArk"},{"name":"minimumBufferBalance","type":"uint256","internalType":"uint256"},{"name":"depositCap","type":"uint256","internalType":"uint256"}],"stateMutability":"view"},{"type":"function","name":"convertToAssets","inputs":[{"name":"shares","type":"uint256","internalType":"uint256"}],"outputs":[{"name":"","type":"uint256","internalType":"uint256"}],"stateMutability":"view"},{"type":"function","name":"convertToShares","inputs":[{"name":"assets","type":"uint256","internalType":"uint256"}],"outputs":[{"name":"","type":"uint256","internalType":"uint256"}],"stateMutability":"view"},{"type":"function","name":"decimals","inputs":[],"outputs":[{"name":"","type":"uint8","internalType":"uint8"}],"stateMutability":"view"},{"type":"function","name":"deposit","inputs":[{"name":"assets","type":"uint256","internalType":"uint256"},{"name":"receiver","type":"address","internalType":"address"}],"outputs":[{"name":"shares","type":"uint256","internalType":"uint256"}],"stateMutability":"nonpayable"},{"type":"function","name":"emergencyShutdown","inputs":[],"outputs":[],"stateMutability":"nonpayable"},{"type":"function","name":"estimateAccruedTip","inputs":[],"outputs":[{"name":"","type":"uint256","internalType":"uint256"}],"stateMutability":"view"},{"type":"function","name":"forceRebalance","inputs":[{"name":"rebalanceData","type":"tuple[]","internalType":"struct RebalanceData[]","components":[{"name":"fromArk","type":"address","internalType":"address"},{"name":"toArk","type":"address","internalType":"address"},{"name":"amount","type":"uint256","internalType":"uint256"}]}],"outputs":[],"stateMutability":"nonpayable"},{"type":"function","name":"getArks","inputs":[],"outputs":[{"name":"","type":"address[]","internalType":"address[]"}],"stateMutability":"view"},{"type":"function","name":"getCooldown","inputs":[],"outputs":[{"name":"","type":"uint256","internalType":"uint256"}],"stateMutability":"view"},{"type":"function","name":"getLastActionTimestamp","inputs":[],"outputs":[{"name":"","type":"uint256","internalType":"uint256"}],"stateMutability":"view"},{"type":"function","name":"isArkActive","inputs":[{"name":"","type":"address","internalType":"address"}],"outputs":[{"name":"","type":"bool","internalType":"bool"}],"stateMutability":"view"},{"type":"function","name":"lastTipTimestamp","inputs":[],"outputs":[{"name":"","type":"uint256","internalType":"uint256"}],"stateMutability":"view"},{"type":"function","name":"manager","inputs":[],"outputs":[{"name":"","type":"address","internalType":"contract IConfigurationManager"}],"stateMutability":"view"},{"type":"function","name":"maxBufferRedeem","inputs":[{"name":"owner","type":"address","internalType":"address"}],"outputs":[{"name":"_maxBufferRedeem","type":"uint256","internalType":"uint256"}],"stateMutability":"view"},{"type":"function","name":"maxBufferWithdraw","inputs":[{"name":"owner","type":"address","internalType":"address"}],"outputs":[{"name":"_maxBufferWithdraw","type":"uint256","internalType":"uint256"}],"stateMutability":"view"},{"type":"function","name":"maxDeposit","inputs":[{"name":"owner","type":"address","internalType":"address"}],"outputs":[{"name":"_maxDeposit","type":"uint256","internalType":"uint256"}],"stateMutability":"view"},{"type":"function","name":"maxMint","inputs":[{"name":"owner","type":"address","internalType":"address"}],"outputs":[{"name":"_maxMint","type":"uint256","internalType":"uint256"}],"stateMutability":"view"},{"type":"function","name":"maxRedeem","inputs":[{"name":"owner","type":"address","internalType":"address"}],"outputs":[{"name":"_maxRedeem","type":"uint256","internalType":"uint256"}],"stateMutability":"view"},{"type":"function","name":"maxWithdraw","inputs":[{"name":"owner","type":"address","internalType":"address"}],"outputs":[{"name":"_maxWithdraw","type":"uint256","internalType":"uint256"}],"stateMutability":"view"},{"type":"function","name":"mint","inputs":[{"name":"shares","type":"uint256","internalType":"uint256"},{"name":"receiver","type":"address","internalType":"address"}],"outputs":[{"name":"assets","type":"uint256","internalType":"uint256"}],"stateMutability":"nonpayable"},{"type":"function","name":"name","inputs":[],"outputs":[{"name":"","type":"string","internalType":"string"}],"stateMutability":"view"},{"type":"function","name":"previewDeposit","inputs":[{"name":"assets","type":"uint256","internalType":"uint256"}],"outputs":[{"name":"","type":"uint256","internalType":"uint256"}],"stateMutability":"view"},{"type":"function","name":"previewMint","inputs":[{"name":"shares","type":"uint256","internalType":"uint256"}],"outputs":[{"name":"","type":"uint256","internalType":"uint256"}],"stateMutability":"view"},{"type":"function","name":"previewRedeem","inputs":[{"name":"shares","type":"uint256","internalType":"uint256"}],"outputs":[{"name":"","type":"uint256","internalType":"uint256"}],"stateMutability":"view"},{"type":"function","name":"previewWithdraw","inputs":[{"name":"assets","type":"uint256","internalType":"uint256"}],"outputs":[{"name":"","type":"uint256","internalType":"uint256"}],"stateMutability":"view"},{"type":"function","name":"rebalance","inputs":[{"name":"rebalanceData","type":"tuple[]","internalType":"struct RebalanceData[]","components":[{"name":"fromArk","type":"address","internalType":"address"},{"name":"toArk","type":"address","internalType":"address"},{"name":"amount","type":"uint256","internalType":"uint256"}]}],"outputs":[],"stateMutability":"nonpayable"},{"type":"function","name":"redeem","inputs":[{"name":"shares","type":"uint256","internalType":"uint256"},{"name":"receiver","type":"address","internalType":"address"},{"name":"owner","type":"address","internalType":"address"}],"outputs":[{"name":"assets","type":"uint256","internalType":"uint256"}],"stateMutability":"nonpayable"},{"type":"function","name":"redeemFromArks","inputs":[{"name":"shares","type":"uint256","internalType":"uint256"},{"name":"receiver","type":"address","internalType":"address"},{"name":"owner","type":"address","internalType":"address"}],"outputs":[{"name":"totalAssetsToWithdraw","type":"uint256","internalType":"uint256"}],"stateMutability":"nonpayable"},{"type":"function","name":"redeemFromBuffer","inputs":[{"name":"shares","type":"uint256","internalType":"uint256"},{"name":"receiver","type":"address","internalType":"address"},{"name":"owner","type":"address","internalType":"address"}],"outputs":[{"name":"assets","type":"uint256","internalType":"uint256"}],"stateMutability":"nonpayable"},{"type":"function","name":"removeArk","inputs":[{"name":"ark","type":"address","internalType":"address"}],"outputs":[],"stateMutability":"nonpayable"},{"type":"function","name":"setArkDepositCap","inputs":[{"name":"ark","type":"address","internalType":"address"},{"name":"newDepositCap","type":"uint256","internalType":"uint256"}],"outputs":[],"stateMutability":"nonpayable"},{"type":"function","name":"setArkMaxRebalanceInflow","inputs":[{"name":"ark","type":"address","internalType":"address"},{"name":"newMaxRebalanceInflow","type":"uint256","internalType":"uint256"}],"outputs":[],"stateMutability":"nonpayable"},{"type":"function","name":"setArkMaxRebalanceOutflow","inputs":[{"name":"ark","type":"address","internalType":"address"},{"name":"newMaxRebalanceOutflow","type":"uint256","internalType":"uint256"}],"outputs":[],"stateMutability":"nonpayable"},{"type":"function","name":"setFleetDepositCap","inputs":[{"name":"newCap","type":"uint256","internalType":"uint256"}],"outputs":[],"stateMutability":"nonpayable"},{"type":"function","name":"setMinimumBufferBalance","inputs":[{"name":"newMinimumBalance","type":"uint256","internalType":"uint256"}],"outputs":[],"stateMutability":"nonpayable"},{"type":"function","name":"setTipJar","inputs":[],"outputs":[],"stateMutability":"nonpayable"},{"type":"function","name":"setTipRate","inputs":[{"name":"newTipRate","type":"uint256","internalType":"Percentage"}],"outputs":[],"stateMutability":"nonpayable"},{"type":"function","name":"symbol","inputs":[],"outputs":[{"name":"","type":"string","internalType":"string"}],"stateMutability":"view"},{"type":"function","name":"tip","inputs":[],"outputs":[{"name":"","type":"uint256","internalType":"uint256"}],"stateMutability":"nonpayable"},{"type":"function","name":"tipJar","inputs":[],"outputs":[{"name":"","type":"address","internalType":"address"}],"stateMutability":"view"},{"type":"function","name":"tipRate","inputs":[],"outputs":[{"name":"","type":"uint256","internalType":"Percentage"}],"stateMutability":"view"},{"type":"function","name":"totalAssets","inputs":[],"outputs":[{"name":"total","type":"uint256","internalType":"uint256"}],"stateMutability":"view"},{"type":"function","name":"totalSupply","inputs":[],"outputs":[{"name":"","type":"uint256","internalType":"uint256"}],"stateMutability":"view"},{"type":"function","name":"transfer","inputs":[{"name":"","type":"address","internalType":"address"},{"name":"","type":"uint256","internalType":"uint256"}],"outputs":[{"name":"","type":"bool","internalType":"bool"}],"stateMutability":"pure"},{"type":"function","name":"transferFrom","inputs":[{"name":"","type":"address","internalType":"address"},{"name":"","type":"address","internalType":"address"},{"name":"","type":"uint256","internalType":"uint256"}],"outputs":[{"name":"","type":"bool","internalType":"bool"}],"stateMutability":"pure"},{"type":"function","name":"updateRebalanceCooldown","inputs":[{"name":"newCooldown","type":"uint256","internalType":"uint256"}],"outputs":[],"stateMutability":"nonpayable"},{"type":"function","name":"withdraw","inputs":[{"name":"assets","type":"uint256","internalType":"uint256"},{"name":"receiver","type":"address","internalType":"address"},{"name":"owner","type":"address","internalType":"address"}],"outputs":[{"name":"shares","type":"uint256","internalType":"uint256"}],"stateMutability":"nonpayable"},{"type":"function","name":"withdrawFromArks","inputs":[{"name":"assets","type":"uint256","internalType":"uint256"},{"name":"receiver","type":"address","internalType":"address"},{"name":"owner","type":"address","internalType":"address"}],"outputs":[{"name":"totalSharesToRedeem","type":"uint256","internalType":"uint256"}],"stateMutability":"nonpayable"},{"type":"function","name":"withdrawFromBuffer","inputs":[{"name":"assets","type":"uint256","internalType":"uint256"},{"name":"receiver","type":"address","internalType":"address"},{"name":"owner","type":"address","internalType":"address"}],"outputs":[{"name":"shares","type":"uint256","internalType":"uint256"}],"stateMutability":"nonpayable"},{"type":"event","name":"Approval","inputs":[{"name":"owner","type":"address","indexed":true,"internalType":"address"},{"name":"spender","type":"address","indexed":true,"internalType":"address"},{"name":"value","type":"uint256","indexed":false,"internalType":"uint256"}],"anonymous":false},{"type":"event","name":"ArkAdded","inputs":[{"name":"ark","type":"address","indexed":true,"internalType":"address"}],"anonymous":false},{"type":"event","name":"ArkRemoved","inputs":[{"name":"ark","type":"address","indexed":true,"internalType":"address"}],"anonymous":false},{"type":"event","name":"CooldownUpdated","inputs":[{"name":"previousCooldown","type":"uint256","indexed":false,"internalType":"uint256"},{"name":"newCooldown","type":"uint256","indexed":false,"internalType":"uint256"}],"anonymous":false},{"type":"event","name":"Deposit","inputs":[{"name":"sender","type":"address","indexed":true,"internalType":"address"},{"name":"owner","type":"address","indexed":true,"internalType":"address"},{"name":"assets","type":"uint256","indexed":false,"internalType":"uint256"},{"name":"shares","type":"uint256","indexed":false,"internalType":"uint256"}],"anonymous":false},{"type":"event","name":"DepositCapUpdated","inputs":[{"name":"newCap","type":"uint256","indexed":false,"internalType":"uint256"}],"anonymous":false},{"type":"event","name":"FeeAddressUpdated","inputs":[{"name":"newAddress","type":"address","indexed":false,"internalType":"address"}],"anonymous":false},{"type":"event","name":"FleetCommanderBufferAdjusted","inputs":[{"name":"keeper","type":"address","indexed":true,"internalType":"address"},{"name":"totalMoved","type":"uint256","indexed":false,"internalType":"uint256"}],"anonymous":false},{"type":"event","name":"FleetCommanderRedeemedFromArks","inputs":[{"name":"owner","type":"address","indexed":true,"internalType":"address"},{"name":"receiver","type":"address","indexed":false,"internalType":"address"},{"name":"totalRedeemed","type":"uint256","indexed":false,"internalType":"uint256"}],"anonymous":false},{"type":"event","name":"FleetCommanderWithdrawnFromArks","inputs":[{"name":"owner","type":"address","indexed":true,"internalType":"address"},{"name":"receiver","type":"address","indexed":false,"internalType":"address"},{"name":"totalWithdrawn","type":"uint256","indexed":false,"internalType":"uint256"}],"anonymous":false},{"type":"event","name":"FleetCommanderminimumBufferBalanceUpdated","inputs":[{"name":"newBalance","type":"uint256","indexed":false,"internalType":"uint256"}],"anonymous":false},{"type":"event","name":"FundsBufferBalanceUpdated","inputs":[{"name":"user","type":"address","indexed":true,"internalType":"address"},{"name":"prevBalance","type":"uint256","indexed":false,"internalType":"uint256"},{"name":"newBalance","type":"uint256","indexed":false,"internalType":"uint256"}],"anonymous":false},{"type":"event","name":"FundsQueueRefilled","inputs":[{"name":"keeper","type":"address","indexed":true,"internalType":"address"},{"name":"prevBalance","type":"uint256","indexed":false,"internalType":"uint256"},{"name":"newBalance","type":"uint256","indexed":false,"internalType":"uint256"}],"anonymous":false},{"type":"event","name":"MinFundsQueueBalanceUpdated","inputs":[{"name":"keeper","type":"address","indexed":true,"internalType":"address"},{"name":"newBalance","type":"uint256","indexed":false,"internalType":"uint256"}],"anonymous":false},{"type":"event","name":"QueuedFundsCommitted","inputs":[{"name":"keeper","type":"address","indexed":true,"internalType":"address"},{"name":"prevBalance","type":"uint256","indexed":false,"internalType":"uint256"},{"name":"newBalance","type":"uint256","indexed":false,"internalType":"uint256"}],"anonymous":false},{"type":"event","name":"Rebalanced","inputs":[{"name":"keeper","type":"address","indexed":true,"internalType":"address"},{"name":"rebalances","type":"tuple[]","indexed":false,"internalType":"struct RebalanceData[]","components":[{"name":"fromArk","type":"address","internalType":"address"},{"name":"toArk","type":"address","internalType":"address"},{"name":"amount","type":"uint256","internalType":"uint256"}]}],"anonymous":false},{"type":"event","name":"TipAccrued","inputs":[{"name":"tipAmount","type":"uint256","indexed":false,"internalType":"uint256"}],"anonymous":false},{"type":"event","name":"TipJarUpdated","inputs":[{"name":"newTipJar","type":"address","indexed":false,"internalType":"address"}],"anonymous":false},{"type":"event","name":"TipRateUpdated","inputs":[{"name":"newTipRate","type":"uint256","indexed":false,"internalType":"Percentage"}],"anonymous":false},{"type":"event","name":"Transfer","inputs":[{"name":"from","type":"address","indexed":true,"internalType":"address"},{"name":"to","type":"address","indexed":true,"internalType":"address"},{"name":"value","type":"uint256","indexed":false,"internalType":"uint256"}],"anonymous":false},{"type":"event","name":"Withdraw","inputs":[{"name":"sender","type":"address","indexed":true,"internalType":"address"},{"name":"receiver","type":"address","indexed":true,"internalType":"address"},{"name":"owner","type":"address","indexed":true,"internalType":"address"},{"name":"assets","type":"uint256","indexed":false,"internalType":"uint256"},{"name":"shares","type":"uint256","indexed":false,"internalType":"uint256"}],"anonymous":false},{"type":"error","name":"AddressEmptyCode","inputs":[{"name":"target","type":"address","internalType":"address"}]},{"type":"error","name":"AddressInsufficientBalance","inputs":[{"name":"account","type":"address","internalType":"address"}]},{"type":"error","name":"CallerIsNotGovernor","inputs":[{"name":"caller","type":"address","internalType":"address"}]},{"type":"error","name":"CallerIsNotKeeper","inputs":[{"name":"caller","type":"address","internalType":"address"}]},{"type":"error","name":"CooldownNotElapsed","inputs":[{"name":"lastActionTimestamp","type":"uint256","internalType":"uint256"},{"name":"cooldown","type":"uint256","internalType":"uint256"},{"name":"currentTimestamp","type":"uint256","internalType":"uint256"}]},{"type":"error","name":"ERC20InsufficientAllowance","inputs":[{"name":"spender","type":"address","internalType":"address"},{"name":"allowance","type":"uint256","internalType":"uint256"},{"name":"needed","type":"uint256","internalType":"uint256"}]},{"type":"error","name":"ERC20InsufficientBalance","inputs":[{"name":"sender","type":"address","internalType":"address"},{"name":"balance","type":"uint256","internalType":"uint256"},{"name":"needed","type":"uint256","internalType":"uint256"}]},{"type":"error","name":"ERC20InvalidApprover","inputs":[{"name":"approver","type":"address","internalType":"address"}]},{"type":"error","name":"ERC20InvalidReceiver","inputs":[{"name":"receiver","type":"address","internalType":"address"}]},{"type":"error","name":"ERC20InvalidSender","inputs":[{"name":"sender","type":"address","internalType":"address"}]},{"type":"error","name":"ERC20InvalidSpender","inputs":[{"name":"spender","type":"address","internalType":"address"}]},{"type":"error","name":"ERC4626ExceededMaxDeposit","inputs":[{"name":"receiver","type":"address","internalType":"address"},{"name":"assets","type":"uint256","internalType":"uint256"},{"name":"max","type":"uint256","internalType":"uint256"}]},{"type":"error","name":"ERC4626ExceededMaxMint","inputs":[{"name":"receiver","type":"address","internalType":"address"},{"name":"shares","type":"uint256","internalType":"uint256"},{"name":"max","type":"uint256","internalType":"uint256"}]},{"type":"error","name":"ERC4626ExceededMaxRedeem","inputs":[{"name":"owner","type":"address","internalType":"address"},{"name":"shares","type":"uint256","internalType":"uint256"},{"name":"max","type":"uint256","internalType":"uint256"}]},{"type":"error","name":"ERC4626ExceededMaxWithdraw","inputs":[{"name":"owner","type":"address","internalType":"address"},{"name":"assets","type":"uint256","internalType":"uint256"},{"name":"max","type":"uint256","internalType":"uint256"}]},{"type":"error","name":"FailedInnerCall","inputs":[]},{"type":"error","name":"FleetCommanderArkAlreadyExists","inputs":[{"name":"ark","type":"address","internalType":"address"}]},{"type":"error","name":"FleetCommanderArkAssetsNotZero","inputs":[{"name":"ark","type":"address","internalType":"address"}]},{"type":"error","name":"FleetCommanderArkDepositCapGreaterThanZero","inputs":[{"name":"ark","type":"address","internalType":"address"}]},{"type":"error","name":"FleetCommanderArkDepositCapZero","inputs":[{"name":"ark","type":"address","internalType":"address"}]},{"type":"error","name":"FleetCommanderArkNotActive","inputs":[{"name":"ark","type":"address","internalType":"address"}]},{"type":"error","name":"FleetCommanderArkNotFound","inputs":[{"name":"ark","type":"address","internalType":"address"}]},{"type":"error","name":"FleetCommanderCantRebalanceToArk","inputs":[{"name":"ark","type":"address","internalType":"address"}]},{"type":"error","name":"FleetCommanderCantUseMaxUintForBufferAdjustement","inputs":[]},{"type":"error","name":"FleetCommanderCantUseRebalanceOnBufferArk","inputs":[]},{"type":"error","name":"FleetCommanderExceedsMaxInflow","inputs":[{"name":"fromArk","type":"address","internalType":"address"},{"name":"amount","type":"uint256","internalType":"uint256"},{"name":"maxRebalanceInflow","type":"uint256","internalType":"uint256"}]},{"type":"error","name":"FleetCommanderExceedsMaxOutflow","inputs":[{"name":"fromArk","type":"address","internalType":"address"},{"name":"amount","type":"uint256","internalType":"uint256"},{"name":"maxRebalanceOutflow","type":"uint256","internalType":"uint256"}]},{"type":"error","name":"FleetCommanderInsufficientBuffer","inputs":[]},{"type":"error","name":"FleetCommanderInvalidArkAddress","inputs":[]},{"type":"error","name":"FleetCommanderInvalidBufferAdjustment","inputs":[]},{"type":"error","name":"FleetCommanderNoExcessFunds","inputs":[]},{"type":"error","name":"FleetCommanderRebalanceAmountZero","inputs":[{"name":"ark","type":"address","internalType":"address"}]},{"type":"error","name":"FleetCommanderRebalanceNoOperations","inputs":[]},{"type":"error","name":"FleetCommanderRebalanceTooManyOperations","inputs":[{"name":"operationsCount","type":"uint256","internalType":"uint256"}]},{"type":"error","name":"FleetCommanderTransfersDisabled","inputs":[]},{"type":"error","name":"FleetCommanderUnauthorizedRedemption","inputs":[{"name":"caller","type":"address","internalType":"address"},{"name":"owner","type":"address","internalType":"address"}]},{"type":"error","name":"FleetCommanderUnauthorizedWithdrawal","inputs":[{"name":"caller","type":"address","internalType":"address"},{"name":"owner","type":"address","internalType":"address"}]},{"type":"error","name":"InvalidAccessManagerAddress","inputs":[{"name":"invalidAddress","type":"address","internalType":"address"}]},{"type":"error","name":"InvalidTipJarAddress","inputs":[]},{"type":"error","name":"MathOverflowedMulDiv","inputs":[]},{"type":"error","name":"SafeERC20FailedOperation","inputs":[{"name":"token","type":"address","internalType":"address"}]},{"type":"error","name":"TipRateCannotExceedOneHundredPercent","inputs":[]}],"bytecode":{"object":"0x60c060405234801561000f575f80fd5b506040516158a33803806158a383398101604081905261002e9161062e565b8061010001515f826060015183610140015184608001518560a00151865f01518760200151816003908161006291906107e2565b50600461006f82826107e2565b5050505f80610083836102aa60201b60201c565b9150915081610093576012610095565b805b60ff1660a05250506001600160a01b0390811660805281166100d1576040516347bd7c1d60e01b81525f60048201526024015b60405180910390fd5b6040516301ffc9a760e01b815263f87138b560e01b60048201526001600160a01b038216906301ffc9a790602401602060405180830381865afa15801561011a573d5f803e3d5ffd5b505050506040513d601f19601f8201168201806040525081019061013e919061089c565b610166576040516347bd7c1d60e01b81526001600160a01b03821660048201526024016100c8565b600580546001600160a01b039283166001600160a01b031991821617909155600980549285169290911682179055600682905560408051637aaceb9560e01b81529051637aaceb959160048082019260209290919082900301815f875af11580156101d3573d5f803e3d5ffd5b505050506040513d601f19601f820116820180604052508101906101f791906108c2565b600880546001600160a01b0319166001600160a01b0392909216919091179055505042600755600a829055801561022d5742600b555b50506040805160608101825260c08301516001600160a01b031680825260e08401516020808401829052610120860151938501849052600c80546001600160a01b03191684179055600d91909155600e929092555f9081526010909152819020805460ff191660011790558101516102a490610380565b5061091c565b60408051600481526024810182526020810180516001600160e01b031663313ce56760e01b17905290515f918291829182916001600160a01b038716916102f0916108db565b5f60405180830381855afa9150503d805f8114610328576040519150601f19603f3d011682016040523d82523d5f602084013e61032d565b606091505b509150915081801561034157506020815110155b15610374575f8180602001905181019061035b91906108f1565b905060ff8111610372576001969095509350505050565b505b505f9485945092505050565b5f5b81518110156103bb576103b38282815181106103a0576103a0610908565b60200260200101516103bf60201b60201c565b600101610382565b5050565b6001600160a01b0381166103e65760405163210e96cb60e01b815260040160405180910390fd5b6001600160a01b0381165f9081526010602052604090205460ff161561042a57604051637eadea0960e11b81526001600160a01b03821660048201526024016100c8565b6001600160a01b0381165f81815260106020526040808220805460ff19166001908117909155600f8054918201815583527f8d1108e10bcb7c27dddfc02ed9d693a074039d026cf4ea4240b40f7d581ac8020180546001600160a01b03191684179055517fcb4a29d359e86f179111dcba8714def1a859612f729f2d224d13efeac51b36bc9190a250565b634e487b7160e01b5f52604160045260245ffd5b60405161016081016001600160401b03811182821017156104ec576104ec6104b5565b60405290565b604051601f8201601f191681016001600160401b038111828210171561051a5761051a6104b5565b604052919050565b5f82601f830112610531575f80fd5b81516001600160401b0381111561054a5761054a6104b5565b61055d601f8201601f19166020016104f2565b818152846020838601011115610571575f80fd5b8160208501602083015e5f918101602001919091529392505050565b80516001600160a01b03811681146105a3575f80fd5b919050565b5f82601f8301126105b7575f80fd5b81516001600160401b038111156105d0576105d06104b5565b8060051b6105e0602082016104f2565b918252602081850181019290810190868411156105fb575f80fd5b6020860192505b83831015610624576106138361058d565b825260209283019290910190610602565b9695505050505050565b5f6020828403121561063e575f80fd5b81516001600160401b03811115610653575f80fd5b82016101608185031215610665575f80fd5b61066d6104c9565b81516001600160401b03811115610682575f80fd5b61068e86828501610522565b82525060208201516001600160401b038111156106a9575f80fd5b6106b586828501610522565b60208301525060408201516001600160401b038111156106d3575f80fd5b6106df868285016105a8565b6040830152506106f16060830161058d565b60608201526107026080830161058d565b608082015261071360a0830161058d565b60a082015261072460c0830161058d565b60c082015260e082810151908201526101008083015190820152610120808301519082015261014091820151918101919091529392505050565b600181811c9082168061077257607f821691505b60208210810361079057634e487b7160e01b5f52602260045260245ffd5b50919050565b601f8211156107dd57805f5260205f20601f840160051c810160208510156107bb5750805b601f840160051c820191505b818110156107da575f81556001016107c7565b50505b505050565b81516001600160401b038111156107fb576107fb6104b5565b61080f81610809845461075e565b84610796565b6020601f821160018114610841575f831561082a5750848201515b5f19600385901b1c1916600184901b1784556107da565b5f84815260208120601f198516915b828110156108705787850151825560209485019460019092019101610850565b508482101561088d57868401515f19600387901b60f8161c191681555b50505050600190811b01905550565b5f602082840312156108ac575f80fd5b815180151581146108bb575f80fd5b9392505050565b5f602082840312156108d2575f80fd5b6108bb8261058d565b5f82518060208501845e5f920191825250919050565b5f60208284031215610901575f80fd5b5051919050565b634e487b7160e01b5f52603260045260245ffd5b60805160a051614f436109605f395f610e4701525f818161049f0152818161125101528181611fdd0152818161329b0152818161356b01526135fa0152614f435ff3fe608060405234801561000f575f80fd5b5060043610610388575f3560e01c806370a08231116101df578063c63d75b611610109578063d905777e116100a9578063ef8b30f711610079578063ef8b30f7146106b5578063f1cd665b146107a7578063f3577816146107bc578063ff32a42a146107cf575f80fd5b8063d905777e14610736578063dc9de0a814610749578063dd62ed3e1461075c578063e37d5b7f14610794575f80fd5b8063ce96cb77116100e4578063ce96cb77146106db578063d25dd101146106ee578063d45a07a114610710578063d902d41a14610723575f80fd5b8063c63d75b6146106a2578063c6e6f592146106b5578063cc5b1e55146106c8575f80fd5b806396c25a381161017f578063b460af941161014f578063b460af9414610656578063b637766c14610669578063b64d620e1461067c578063ba0876521461068f575f80fd5b806396c25a381461060f578063a039e94414610622578063a9059cbb14610635578063b3d7f6b914610643575f80fd5b80637aaceb95116101ba5780637aaceb95146105ce5780639265b76e146105e157806394bf804d146105f457806395d89b4114610607575f80fd5b806370a082311461058857806371aedbc11461059b57806379502c55146105a4575f80fd5b80633403c2fc116102c0578063498e76a0116102605780635ed975e5116102305780635ed975e5146105525780635f538f6f1461055a578063684826261461056d5780636e553f6514610575575f80fd5b8063498e76a0146105235780634cdad506146103bc5780634daecb9c1461052c5780635822198f1461053f575f80fd5b80633a7c9f0e1161029b5780633a7c9f0e146104d75780633e314c76146104ea578063402d267d146104fd578063481c6a7514610510575f80fd5b80633403c2fc14610482578063340505601461048a57806338d52e0f1461049d575f80fd5b806318160ddd1161032b57806323b872dd1161030657806323b872dd146104455780632755cd2d14610458578063313ce567146104605780633152d5d11461047a575f80fd5b806318160ddd1461042d57806318d08d0b14610435578063218e4a151461043d575f80fd5b8063095ea7b311610366578063095ea7b3146103cf5780630a28a477146103f25780630cf0654e146104055780630e4a840d1461041a575f80fd5b806301e1d1141461038c57806306fdde03146103a757806307a2d13a146103bc575b5f80fd5b6103946107e2565b6040519081526020015b60405180910390f35b6103af610987565b60405161039e91906148ba565b6103946103ca3660046148ef565b610a17565b6103e26103dd36600461491a565b610a28565b604051901515815260200161039e565b6103946104003660046148ef565b610a3f565b610418610413366004614944565b610a4b565b005b610418610428366004614944565b610b73565b600254610394565b610418610d17565b600a54610394565b6103e26104533660046149b5565b610e18565b610394610e32565b610468610e40565b60405160ff909116815260200161039e565b600b54610394565b610418610e6b565b61041861049836600461491a565b610f62565b7f00000000000000000000000000000000000000000000000000000000000000005b6040516001600160a01b03909116815260200161039e565b6103946104e53660046149f3565b6110f6565b6103946104f8366004614a32565b611190565b61039461050b366004614a32565b61121b565b6009546104bf906001600160a01b031681565b61039460065481565b61041861053a3660046148ef565b6112e3565b61041861054d3660046148ef565b611416565b610394600a81565b6103946105683660046149f3565b611519565b610394611684565b610394610583366004614a4d565b61170a565b610394610596366004614a32565b611878565b61039460075481565b600c54600d54600e546105bf926001600160a01b0316919083565b60405161039e93929190614a7b565b6008546104bf906001600160a01b031681565b6103946105ef366004614a32565b611892565b610394610602366004614a4d565b611918565b6103af6119c5565b61041861061d366004614a32565b6119d4565b6103946106303660046149f3565b611ad4565b6103e261045336600461491a565b6103946106513660046148ef565b611b5e565b6103946106643660046149f3565b611b6a565b61041861067736600461491a565b611c30565b61041861068a366004614944565b611d97565b61039461069d3660046149f3565b611ede565b6103946106b0366004614a32565b611fa4565b6103946106c33660046148ef565b61202c565b6104186106d6366004614a9c565b612037565b6103946106e9366004614a32565b61216f565b6103e26106fc366004614a32565b60106020525f908152604090205460ff1681565b61041861071e36600461491a565b61217c565b6104186107313660046148ef565b6122e3565b610394610744366004614a32565b61240f565b6104186107573660046148ef565b612419565b61039461076a366004614afd565b6001600160a01b039182165f90815260016020908152604080832093909416825291909152205490565b6104186107a2366004614a32565b612519565b6107af612619565b60405161039e9190614b29565b6103946107ca3660046149f3565b612678565b6104bf6107dd3660046148ef565b612723565b600f545f9081906107f4906001614b88565b67ffffffffffffffff81111561080c5761080c614b9b565b604051908082528060200260200182016040528015610835578160200160208202803683370190505b5090505f5b600f548110156108a457600f818154811061085757610857614baf565b905f5260205f20015f9054906101000a90046001600160a01b031682828151811061088457610884614baf565b6001600160a01b039092166020928302919091019091015260010161083a565b50600c54600f5482516001600160a01b039092169183919081106108ca576108ca614baf565b60200260200101906001600160a01b031690816001600160a01b0316815250505f5b81518110156109825781818151811061090757610907614baf565b60200260200101516001600160a01b03166301e1d1146040518163ffffffff1660e01b8152600401602060405180830381865afa15801561094a573d5f803e3d5ffd5b505050506040513d601f19601f8201168201806040525081019061096e9190614bc3565b6109789084614b88565b92506001016108ec565b505090565b60606003805461099690614bda565b80601f01602080910402602001604051908101604052809291908181526020018280546109c290614bda565b8015610a0d5780601f106109e457610100808354040283529160200191610a0d565b820191905f5260205f20905b8154815290600101906020018083116109f057829003601f168201915b5050505050905090565b5f610a22825f61274b565b92915050565b5f33610a3581858561278a565b5060019392505050565b5f610a22826001612797565b60055460408051630ccc574960e41b815290516001600160a01b03909216916391d1485491839163ccc57490916004808201926020929091908290030181865afa158015610a9b573d5f803e3d5ffd5b505050506040513d601f19601f82011682018060405250810190610abf9190614bc3565b6040516001600160e01b031960e084901b1681526004810191909152336024820152604401602060405180830381865afa158015610aff573d5f803e3d5ffd5b505050506040513d601f19601f82011682018060405250810190610b239190614c12565b610b4757604051630ea7d7ed60e21b81523360048201526024015b60405180910390fd5b610b4f6127c6565b50610b5a82826128ce565b610b6482826129ab565b610b6e82826129ed565b505050565b60055460408051631b25e0ad60e11b815290516001600160a01b03909216916391d1485491839163364bc15a916004808201926020929091908290030181865afa158015610bc3573d5f803e3d5ffd5b505050506040513d601f19601f82011682018060405250810190610be79190614bc3565b6040516001600160e01b031960e084901b1681526004810191909152336024820152604401602060405180830381865afa158015610c27573d5f803e3d5ffd5b505050506040513d601f19601f82011682018060405250810190610c4b9190614c12565b610c6a576040516329068e8160e21b8152336004820152602401610b3e565b600a54600b54610c7a9042614c31565b1015610cae57600b54600a54604051630924dbf160e21b815260048101929092526024820152426044820152606401610b3e565b42600b55610cba6127c6565b50610cc582826128ce565b610ccf8282612a86565b5f610cda83836129ed565b60405181815290915033907f4bd1a9dd6e8410a6d85178f9a75d601cb7b266e228771c213fe39ffffad2d3299060200160405180910390a2505050565b60055460408051630ccc574960e41b815290516001600160a01b03909216916391d1485491839163ccc57490916004808201926020929091908290030181865afa158015610d67573d5f803e3d5ffd5b505050506040513d601f19601f82011682018060405250810190610d8b9190614bc3565b6040516001600160e01b031960e084901b1681526004810191909152336024820152604401602060405180830381865afa158015610dcb573d5f803e3d5ffd5b505050506040513d601f19601f82011682018060405250810190610def9190614c12565b610e0e57604051630ea7d7ed60e21b8152336004820152602401610b3e565b610e16612ce0565b565b5f60405163ec47ea8b60e01b815260040160405180910390fd5b5f610e3b6127c6565b905090565b5f610e3b817f0000000000000000000000000000000000000000000000000000000000000000614c44565b60055460408051630ccc574960e41b815290516001600160a01b03909216916391d1485491839163ccc57490916004808201926020929091908290030181865afa158015610ebb573d5f803e3d5ffd5b505050506040513d601f19601f82011682018060405250810190610edf9190614bc3565b6040516001600160e01b031960e084901b1681526004810191909152336024820152604401602060405180830381865afa158015610f1f573d5f803e3d5ffd5b505050506040513d601f19601f82011682018060405250810190610f439190614c12565b610e1657604051630ea7d7ed60e21b8152336004820152602401610b3e565b60055460408051630ccc574960e41b815290516001600160a01b03909216916391d1485491839163ccc57490916004808201926020929091908290030181865afa158015610fb2573d5f803e3d5ffd5b505050506040513d601f19601f82011682018060405250810190610fd69190614bc3565b6040516001600160e01b031960e084901b1681526004810191909152336024820152604401602060405180830381865afa158015611016573d5f803e3d5ffd5b505050506040513d601f19601f8201168201806040525081019061103a9190614c12565b61105957604051630ea7d7ed60e21b8152336004820152602401610b3e565b6001600160a01b0382165f9081526010602052604090205460ff1661109c57604051632767039f60e01b81526001600160a01b0383166004820152602401610b3e565b604051638665120360e01b8152600481018290526001600160a01b038316906386651203906024015b5f604051808303815f87803b1580156110dc575f80fd5b505af11580156110ee573d5f803e3d5ffd5b505050505050565b5f6110ff6127c6565b5061110a8483612e3a565b61111384610a17565b90505f61111e612f20565b905061112a8183613172565b611138335b85858589613268565b6111415f600b55565b604080516001600160a01b038681168252602082018890528516917f09fbb654e02253d6c37ecb473c5ed6f4557cac3fe5abc1d559523f6e257ee18591015b60405180910390a2509392505050565b5f610a22600c5f015f9054906101000a90046001600160a01b03166001600160a01b03166301e1d1146040518163ffffffff1660e01b8152600401602060405180830381865afa1580156111e6573d5f803e3d5ffd5b505050506040513d601f19601f8201168201806040525081019061120a9190614bc3565b6112166103ca85611878565b613328565b5f806112256107e2565b90505f600c60020154821161124757600e54611242908390614c31565b611249565b5f5b90506112db817f00000000000000000000000000000000000000000000000000000000000000006040516370a0823160e01b81526001600160a01b03888116600483015291909116906370a08231906024015b602060405180830381865afa1580156112b7573d5f803e3d5ffd5b505050506040513d601f19601f820116820180604052508101906112169190614bc3565b949350505050565b60055460408051630ccc574960e41b815290516001600160a01b03909216916391d1485491839163ccc57490916004808201926020929091908290030181865afa158015611333573d5f803e3d5ffd5b505050506040513d601f19601f820116820180604052508101906113579190614bc3565b6040516001600160e01b031960e084901b1681526004810191909152336024820152604401602060405180830381865afa158015611397573d5f803e3d5ffd5b505050506040513d601f19601f820116820180604052508101906113bb9190614c12565b6113da57604051630ea7d7ed60e21b8152336004820152602401610b3e565b600d8190556040518181527f3ba130ec8df44f0a71243af1b7f9f4239616bafda97ae766b3c40a9d202b21a4906020015b60405180910390a150565b60055460408051630ccc574960e41b815290516001600160a01b03909216916391d1485491839163ccc57490916004808201926020929091908290030181865afa158015611466573d5f803e3d5ffd5b505050506040513d601f19601f8201168201806040525081019061148a9190614bc3565b6040516001600160e01b031960e084901b1681526004810191909152336024820152604401602060405180830381865afa1580156114ca573d5f803e3d5ffd5b505050506040513d601f19601f820116820180604052508101906114ee9190614c12565b61150d57604051630ea7d7ed60e21b8152336004820152602401610b3e565b6115168161333d565b50565b5f80600c5f015f9054906101000a90046001600160a01b03166001600160a01b03166301e1d1146040518163ffffffff1660e01b8152600401602060405180830381865afa15801561156d573d5f803e3d5ffd5b505050506040513d601f19601f820116820180604052508101906115919190614bc3565b905061159c85610a3f565b91506115a98583856133a1565b600c546115bf906001600160a01b03168661348c565b6115cd335b85858886613268565b336001600160a01b03167fe68a55afda2dca8343871fe0e5575a383291a40ae7d53e4dee12faf79cde144e82600c5f015f9054906101000a90046001600160a01b03166001600160a01b03166301e1d1146040518163ffffffff1660e01b8152600401602060405180830381865afa15801561164b573d5f803e3d5ffd5b505050506040513d601f19601f8201168201806040525081019061166f9190614bc3565b60408051928352602083019190915201611180565b5f80600754426116949190614c31565b90505f306001600160a01b03166318160ddd6040518163ffffffff1660e01b8152600401602060405180830381865afa1580156116d3573d5f803e3d5ffd5b505050506040513d601f19601f820116820180604052508101906116f79190614bc3565b905061170381836134b9565b9250505090565b5f6117136127c6565b5061171e8333613533565b600c54604080516278744560e21b815290515f926001600160a01b0316916301e1d1149160048083019260209291908290030181865afa158015611764573d5f803e3d5ffd5b505050506040513d601f19601f820116820180604052508101906117889190614bc3565b90506117938461202c565b91506117a133848685613566565b600c546117b7906001600160a01b0316856135f8565b336001600160a01b03167fe68a55afda2dca8343871fe0e5575a383291a40ae7d53e4dee12faf79cde144e82600c5f015f9054906101000a90046001600160a01b03166001600160a01b03166301e1d1146040518163ffffffff1660e01b8152600401602060405180830381865afa158015611835573d5f803e3d5ffd5b505050506040513d601f19601f820116820180604052508101906118599190614bc3565b6040805192835260208301919091520160405180910390a25092915050565b6001600160a01b03165f9081526020819052604090205490565b5f610a2261190f600c5f015f9054906101000a90046001600160a01b03166001600160a01b03166301e1d1146040518163ffffffff1660e01b8152600401602060405180830381865afa1580156118eb573d5f803e3d5ffd5b505050506040513d601f19601f820116820180604052508101906104009190614bc3565b61121684611878565b5f6119216127c6565b5061192c83336136b9565b600c54604080516278744560e21b815290515f926001600160a01b0316916301e1d1149160048083019260209291908290030181865afa158015611972573d5f803e3d5ffd5b505050506040513d601f19601f820116820180604052508101906119969190614bc3565b90506119a184611b5e565b91506119af33848487613566565b600c546117b7906001600160a01b0316836135f8565b60606004805461099690614bda565b60055460408051630ccc574960e41b815290516001600160a01b03909216916391d1485491839163ccc57490916004808201926020929091908290030181865afa158015611a24573d5f803e3d5ffd5b505050506040513d601f19601f82011682018060405250810190611a489190614bc3565b6040516001600160e01b031960e084901b1681526004810191909152336024820152604401602060405180830381865afa158015611a88573d5f803e3d5ffd5b505050506040513d601f19601f82011682018060405250810190611aac9190614c12565b611acb57604051630ea7d7ed60e21b8152336004820152602401610b3e565b611516816136ec565b5f611add6127c6565b50611ae784610a3f565b9050611af4848284613877565b5f611afd612f20565b9050611b098186613172565b611b12336115c4565b611b1b5f600b55565b604080516001600160a01b038681168252602082018890528516917fd4383faec5079b2ec7ac0ff240326baa0d584b03d51b9742f7c1a034f6fc015b9101611180565b5f610a2282600161274b565b5f611b736127c6565b50600c54604080516278744560e21b815290515f926001600160a01b0316916301e1d1149160048083019260209291908290030181865afa158015611bba573d5f803e3d5ffd5b505050506040513d601f19601f82011682018060405250810190611bde9190614bc3565b90505f198503611c01575f611bf284611878565b9050611bfd81610a17565b9550505b808511611c1a57611c13858585611519565b9150611c28565b611c25858585611ad4565b91505b509392505050565b60055460408051630ccc574960e41b815290516001600160a01b03909216916391d1485491839163ccc57490916004808201926020929091908290030181865afa158015611c80573d5f803e3d5ffd5b505050506040513d601f19601f82011682018060405250810190611ca49190614bc3565b6040516001600160e01b031960e084901b1681526004810191909152336024820152604401602060405180830381865afa158015611ce4573d5f803e3d5ffd5b505050506040513d601f19601f82011682018060405250810190611d089190614c12565b611d2757604051630ea7d7ed60e21b8152336004820152602401610b3e565b6001600160a01b0382165f9081526010602052604090205460ff16611d6a57604051632767039f60e01b81526001600160a01b0383166004820152602401610b3e565b6040516361f5cd8b60e01b8152600481018290526001600160a01b038316906361f5cd8b906024016110c5565b60055460408051631b25e0ad60e11b815290516001600160a01b03909216916391d1485491839163364bc15a916004808201926020929091908290030181865afa158015611de7573d5f803e3d5ffd5b505050506040513d601f19601f82011682018060405250810190611e0b9190614bc3565b6040516001600160e01b031960e084901b1681526004810191909152336024820152604401602060405180830381865afa158015611e4b573d5f803e3d5ffd5b505050506040513d601f19601f82011682018060405250810190611e6f9190614c12565b611e8e576040516329068e8160e21b8152336004820152602401610b3e565b600a54600b54611e9e9042614c31565b1015611ed257600b54600a54604051630924dbf160e21b815260048101929092526024820152426044820152606401610b3e565b42600b55610b4f6127c6565b5f611ee76127c6565b50600c54604080516278744560e21b815290515f926001600160a01b0316916301e1d1149160048083019260209291908290030181865afa158015611f2e573d5f803e3d5ffd5b505050506040513d601f19601f82011682018060405250810190611f529190614bc3565b90505f611f5e8261202c565b90505f198603611f7457611f7184611878565b95505b808611611f8d57611f86868686612678565b9250611f9b565b611f988686866110f6565b92505b50509392505050565b5f80611fae6107e2565b90505f600c600201548211611fd057600e54611fcb908390614c31565b611fd2565b5f5b90506112db6106c3827f00000000000000000000000000000000000000000000000000000000000000006040516370a0823160e01b81526001600160a01b03898116600483015291909116906370a082319060240161129c565b5f610a22825f612797565b60055460408051630ccc574960e41b815290516001600160a01b03909216916391d1485491839163ccc57490916004808201926020929091908290030181865afa158015612087573d5f803e3d5ffd5b505050506040513d601f19601f820116820180604052508101906120ab9190614bc3565b6040516001600160e01b031960e084901b1681526004810191909152336024820152604401602060405180830381865afa1580156120eb573d5f803e3d5ffd5b505050506040513d601f19601f8201168201806040525081019061210f9190614c12565b61212e57604051630ea7d7ed60e21b8152336004820152602401610b3e565b5f5b81811015610b6e5761216783838381811061214d5761214d614baf565b90506020020160208101906121629190614a32565b613910565b600101612130565b5f610a226103ca83611878565b60055460408051630ccc574960e41b815290516001600160a01b03909216916391d1485491839163ccc57490916004808201926020929091908290030181865afa1580156121cc573d5f803e3d5ffd5b505050506040513d601f19601f820116820180604052508101906121f09190614bc3565b6040516001600160e01b031960e084901b1681526004810191909152336024820152604401602060405180830381865afa158015612230573d5f803e3d5ffd5b505050506040513d601f19601f820116820180604052508101906122549190614c12565b61227357604051630ea7d7ed60e21b8152336004820152602401610b3e565b6001600160a01b0382165f9081526010602052604090205460ff166122b657604051632767039f60e01b81526001600160a01b0383166004820152602401610b3e565b60405163497af41960e11b8152600481018290526001600160a01b038316906392f5e832906024016110c5565b60055460408051630ccc574960e41b815290516001600160a01b03909216916391d1485491839163ccc57490916004808201926020929091908290030181865afa158015612333573d5f803e3d5ffd5b505050506040513d601f19601f820116820180604052508101906123579190614bc3565b6040516001600160e01b031960e084901b1681526004810191909152336024820152604401602060405180830381865afa158015612397573d5f803e3d5ffd5b505050506040513d601f19601f820116820180604052508101906123bb9190614c12565b6123da57604051630ea7d7ed60e21b8152336004820152602401610b3e565b600e8190556040518181527f333b26cca69716ad4680ddb07663f5bfb4f06045671f336af9a83690a3ae00f99060200161140b565b5f610a2282611878565b60055460408051630ccc574960e41b815290516001600160a01b03909216916391d1485491839163ccc57490916004808201926020929091908290030181865afa158015612469573d5f803e3d5ffd5b505050506040513d601f19601f8201168201806040525081019061248d9190614bc3565b6040516001600160e01b031960e084901b1681526004810191909152336024820152604401602060405180830381865afa1580156124cd573d5f803e3d5ffd5b505050506040513d601f19601f820116820180604052508101906124f19190614c12565b61251057604051630ea7d7ed60e21b8152336004820152602401610b3e565b61151681613a06565b60055460408051630ccc574960e41b815290516001600160a01b03909216916391d1485491839163ccc57490916004808201926020929091908290030181865afa158015612569573d5f803e3d5ffd5b505050506040513d601f19601f8201168201806040525081019061258d9190614bc3565b6040516001600160e01b031960e084901b1681526004810191909152336024820152604401602060405180830381865afa1580156125cd573d5f803e3d5ffd5b505050506040513d601f19601f820116820180604052508101906125f19190614c12565b61261057604051630ea7d7ed60e21b8152336004820152602401610b3e565b61151681613910565b6060600f805480602002602001604051908101604052809291908181526020018280548015610a0d57602002820191905f5260205f20905b81546001600160a01b03168152600190910190602001808311612651575050505050905090565b5f6126816127c6565b5061268c8483612e3a565b600c54604080516278744560e21b815290515f926001600160a01b0316916301e1d1149160048083019260209291908290030181865afa1580156126d2573d5f803e3d5ffd5b505050506040513d601f19601f820116820180604052508101906126f69190614bc3565b905061270185610a17565b600c5490925061271a906001600160a01b03168361348c565b6115cd3361112f565b600f8181548110612732575f80fd5b5f918252602090912001546001600160a01b0316905081565b5f6127836127576107e2565b612762906001614b88565b61276d5f600a614d40565b60025461277a9190614b88565b85919085613a47565b9392505050565b610b6e8383836001613a96565b5f6127836127a682600a614d40565b6002546127b39190614b88565b6127bb6107e2565b61277a906001614b88565b5f6127da6006546127d65f613b5a565b1490565b156127e85750426007555f90565b5f600754426127f79190614c31565b9050805f03612807575f91505090565b5f306001600160a01b03166318160ddd6040518163ffffffff1660e01b8152600401602060405180830381865afa158015612844573d5f803e3d5ffd5b505050506040513d601f19601f820116820180604052508101906128689190614bc3565b905061287481836134b9565b9250821561098257600854612892906001600160a01b031684613b71565b426007556040518381527f698f29fe990d4e7770f7e74cd309da261dd03ca828f7bb3c2ea8b8c9adcc0ecd9060200160405180910390a1505090565b600a8111156128f35760405163899a5d8160e01b815260048101829052602401610b3e565b5f819003612914576040516304dcdcd560e31b815260040160405180910390fd5b5f5b81811015610b6e575f83838381811061293157612931614baf565b6129479260206060909202019081019150614a32565b90505f84848481811061295c5761295c614baf565b90506060020160200160208101906129749190614a32565b90505f85858581811061298957612989614baf565b9050606002016040013590506129a0838383613b7f565b505050600101612916565b5f5b81811015610b6e576129e58383838181106129ca576129ca614baf565b9050606002018036038101906129e09190614d4e565b613e32565b6001016129ad565b5f805b82811015612a3c57612a28848483818110612a0d57612a0d614baf565b905060600201803603810190612a239190614d4e565b613e80565b612a329083614b88565b91506001016129f0565b50336001600160a01b03167f45db9ca78132c596e471d71a17273b2fb3edf8bc5052dba93052bc208d322b348484604051612a78929190614dc5565b60405180910390a292915050565b600c545f906001600160a01b031683838381612aa457612aa4614baf565b9050606002016020016020810190612abc9190614a32565b6001600160a01b03161490505f600c5f015f9054906101000a90046001600160a01b03166001600160a01b03166301e1d1146040518163ffffffff1660e01b8152600401602060405180830381865afa158015612b1b573d5f803e3d5ffd5b505050506040513d601f19601f82011682018060405250810190612b3f9190614bc3565b90505f805b84811015612c7c575f19868683818110612b6057612b60614baf565b9050606002016040013503612b885760405163cf7ab75360e01b815260040160405180910390fd5b858582818110612b9a57612b9a614baf565b9050606002016040013582612baf9190614b88565b91508315612c1957600c546001600160a01b0316868683818110612bd557612bd5614baf565b9050606002016020016020810190612bed9190614a32565b6001600160a01b031614612c1457604051633abef25360e21b815260040160405180910390fd5b612c74565b600c546001600160a01b0316868683818110612c3757612c37614baf565b612c4d9260206060909202019081019150614a32565b6001600160a01b031614612c7457604051633abef25360e21b815260040160405180910390fd5b600101612b44565b5082612cd957600d548211612ca757604051600162efa20760e01b0319815260040160405180910390fd5b600d545f90612cb69084614c31565b9050808211156110ee57604051633b5391f960e01b815260040160405180910390fd5b5050505050565b60095f9054906101000a90046001600160a01b03166001600160a01b0316637aaceb956040518163ffffffff1660e01b81526004016020604051808303815f875af1158015612d31573d5f803e3d5ffd5b505050506040513d601f19601f82011682018060405250810190612d559190614e37565b600880546001600160a01b0319166001600160a01b03929092169182179055612d9157604051631d2f8a9960e01b815260040160405180910390fd5b60095460408051637aaceb9560e01b815290517fba7f8033d690b39fb06e1eb3a0ef57ae8ce342fa4cd8d4f24f870e1e22931644926001600160a01b031691637aaceb9591600480830192602092919082900301815f875af1158015612df9573d5f803e3d5ffd5b505050506040513d601f19601f82011682018060405250810190612e1d9190614e37565b6040516001600160a01b03909116815260200160405180910390a1565b336001600160a01b03821614801590612ebe5750604051636eb1769f60e11b81526001600160a01b03821660048201523360248201528290309063dd62ed3e90604401602060405180830381865afa158015612e98573d5f803e3d5ffd5b505050506040513d601f19601f82011682018060405250810190612ebc9190614bc3565b105b15612eed57604051630c849df760e41b81523360048201526001600160a01b0382166024820152604401610b3e565b5f612ef78261240f565b905080831115610b6e57818382604051632e52afbb60e21b8152600401610b3e93929190614a7b565b600f546060905f90612f33906001614b88565b67ffffffffffffffff811115612f4b57612f4b614b9b565b604051908082528060200260200182016040528015612f74578160200160208202803683370190505b50600f549091505f9067ffffffffffffffff811115612f9557612f95614b9b565b604051908082528060200260200182016040528015612fbe578160200160208202803683370190505b5090505f5b600f548110156130cc57600f8181548110612fe057612fe0614baf565b5f9182526020918290200154604080516278744560e21b815290516001600160a01b03909216926301e1d114926004808401938290030181865afa15801561302a573d5f803e3d5ffd5b505050506040513d601f19601f8201168201806040525081019061304e9190614bc3565b82828151811061306057613060614baf565b602002602001018181525050600f818154811061307f5761307f614baf565b905f5260205f20015f9054906101000a90046001600160a01b03168382815181106130ac576130ac614baf565b6001600160a01b0390921660209283029190910190910152600101612fc3565b5061312f600f80548060200260200160405190810160405280929190818152602001828054801561312457602002820191905f5260205f20905b81546001600160a01b03168152600190910190602001808311613106575b505050505082614015565b600c54600f5483516001600160a01b0390921691849190811061315457613154614baf565b6001600160a01b039092166020928302919091019091015250919050565b5f5b8251811015610b6e575f83828151811061319057613190614baf565b60200260200101516001600160a01b03166301e1d1146040518163ffffffff1660e01b8152600401602060405180830381865afa1580156131d3573d5f803e3d5ffd5b505050506040513d601f19601f820116820180604052508101906131f79190614bc3565b90508281106132295761322384838151811061321557613215614baf565b60200260200101518461348c565b50505050565b801561325f5761325284838151811061324457613244614baf565b60200260200101518261348c565b61325c8184614c31565b92505b50600101613174565b826001600160a01b0316856001600160a01b03161461328c5761328c83868361416d565b61329683826141cf565b6132c17f00000000000000000000000000000000000000000000000000000000000000008584614203565b826001600160a01b0316846001600160a01b0316866001600160a01b03167ffbde797d201c681b91056529119e0b02407c7bb96a4a2c75c01fc9667232c8db8585604051613319929190918252602082015260400190565b60405180910390a45050505050565b5f8183106133365781612783565b5090919050565b61334681614262565b613363576040516319ecf1a560e31b815260040160405180910390fd5b61336b6127c6565b5060068190556040518181527f186e864438b783eec69fd7ce4871c28accfc0b45558ea08c48540f76094fecde9060200161140b565b336001600160a01b038216148015906134255750604051636eb1769f60e11b81526001600160a01b03821660048201523360248201528290309063dd62ed3e90604401602060405180830381865afa1580156133ff573d5f803e3d5ffd5b505050506040513d601f19601f820116820180604052508101906134239190614bc3565b105b1561345957335b604051638b27f8ed60e01b81526001600160a01b0391821660048201529082166024820152604401610b3e565b5f61346382611190565b90508084111561322357818482604051633fa733bb60e21b8152600401610b3e93929190614a7b565b6040516326ea3f5d60e11b8152600481018290526001600160a01b03831690634dd47eba906024016110c5565b5f806301e133806006546134cd9190614e66565b90505f6135106134f36134e26012600a614e79565b6134ed906064614e84565b84614283565b856135006012600a614e79565b61350b906064614e84565b61428e565b90505f61351d868361429c565b90506135298682614c31565b9695505050505050565b5f61353d8261121b565b905080831115610b6e57818382604051633c8097d960e11b8152600401610b3e93929190614a7b565b6135927f00000000000000000000000000000000000000000000000000000000000000008530856142c8565b61359c8382614301565b826001600160a01b0316846001600160a01b03167fdcbc1c05240f31ff3ad067ef1ee35ce4997762752e3a095284754544f4c709d784846040516135ea929190918252602082015260400190565b60405180910390a350505050565b7f000000000000000000000000000000000000000000000000000000000000000060405163095ea7b360e01b81526001600160a01b03848116600483015260248201849052919091169063095ea7b3906044016020604051808303815f875af1158015613667573d5f803e3d5ffd5b505050506040513d601f19601f8201168201806040525081019061368b9190614c12565b506040516328ed6e3f60e01b8152600481018290526001600160a01b038316906328ed6e3f906024016110c5565b5f6136c382611fa4565b905080831115610b6e5781838260405163284ff66760e01b8152600401610b3e93929190614a7b565b6001600160a01b0381165f9081526010602052604090205460ff1661372f57604051632767039f60e01b81526001600160a01b0382166004820152602401610b3e565b5f5b600f5481101561382e57816001600160a01b0316600f828154811061375857613758614baf565b5f918252602090912001546001600160a01b0316036138265761377a82614335565b600f805461378a90600190614c31565b8154811061379a5761379a614baf565b5f91825260209091200154600f80546001600160a01b0390921691839081106137c5576137c5614baf565b905f5260205f20015f6101000a8154816001600160a01b0302191690836001600160a01b03160217905550600f80548061380157613801614e9b565b5f8281526020902081015f1990810180546001600160a01b031916905501905561382e565b600101613731565b506001600160a01b0381165f81815260106020526040808220805460ff19169055517f66d72a91b52f63fb063c4f672763d7ef15ce4d7c9a268a7f9b5133e41c1709a59190a250565b336001600160a01b038216148015906138fb5750604051636eb1769f60e11b81526001600160a01b03821660048201523360248201528290309063dd62ed3e90604401602060405180830381865afa1580156138d5573d5f803e3d5ffd5b505050506040513d601f19601f820116820180604052508101906138f99190614bc3565b105b15613906573361342c565b5f6134638261216f565b6001600160a01b0381166139375760405163210e96cb60e01b815260040160405180910390fd5b6001600160a01b0381165f9081526010602052604090205460ff161561397b57604051637eadea0960e11b81526001600160a01b0382166004820152602401610b3e565b6001600160a01b0381165f81815260106020526040808220805460ff19166001908117909155600f8054918201815583527f8d1108e10bcb7c27dddfc02ed9d693a074039d026cf4ea4240b40f7d581ac8020180546001600160a01b03191684179055517fcb4a29d359e86f179111dcba8714def1a859612f729f2d224d13efeac51b36bc9190a250565b600a5460408051918252602082018390527f5953b565c074c2cce1866b4e69c9efc4908556bb6fca70f735907c94d9405515910160405180910390a1600a55565b5f80613a5486868661444d565b9050613a5f8361450c565b8015613a7a57505f8480613a7557613a75614e52565b868809115b15613a8d57613a8a600182614b88565b90505b95945050505050565b6001600160a01b038416613abf5760405163e602df0560e01b81525f6004820152602401610b3e565b6001600160a01b038316613ae857604051634a1406b160e11b81525f6004820152602401610b3e565b6001600160a01b038085165f908152600160209081526040808320938716835292905220829055801561322357826001600160a01b0316846001600160a01b03167f8c5be1e5ebec7d5bd14f71427d1e84f3dd0314c0f7b2291e5b200ac8c7c3b925846040516135ea91815260200190565b5f613b676012600a614e79565b610a229083614e84565b613b7b8282614301565b5050565b805f03613baa57604051630a16952b60e21b81526001600160a01b0383166004820152602401610b3e565b6001600160a01b038216613bdc57604051632767039f60e01b81526001600160a01b0383166004820152602401610b3e565b6001600160a01b038316613c0e57604051632767039f60e01b81526001600160a01b0384166004820152602401610b3e565b6001600160a01b0382165f9081526010602052604090205460ff16613c515760405163c80e655f60e01b81526001600160a01b0383166004820152602401610b3e565b6001600160a01b0383165f9081526010602052604090205460ff16613c945760405163c80e655f60e01b81526001600160a01b0384166004820152602401610b3e565b5f836001600160a01b0316633194549e6040518163ffffffff1660e01b8152600401602060405180830381865afa158015613cd1573d5f803e3d5ffd5b505050506040513d601f19601f82011682018060405250810190613cf59190614bc3565b905080821115613d1e57838282604051637d7bf8e160e01b8152600401610b3e93929190614a7b565b5f836001600160a01b031663ad5a356f6040518163ffffffff1660e01b8152600401602060405180830381865afa158015613d5b573d5f803e3d5ffd5b505050506040513d601f19601f82011682018060405250810190613d7f9190614bc3565b905080831115613da85783838260405163016b606760e21b8152600401610b3e93929190614a7b565b836001600160a01b031663dbd5edc76040518163ffffffff1660e01b8152600401602060405180830381865afa158015613de4573d5f803e3d5ffd5b505050506040513d601f19601f82011682018060405250810190613e089190614bc3565b5f03612cd957604051630b9cb3f960e11b81526001600160a01b0385166004820152602401610b3e565b600c5460208201516001600160a01b0390811691161480613e625750600c5481516001600160a01b039081169116145b1561151657604051630394d1d160e21b815260040160405180910390fd5b6020810151815160408301515f929190600101613efe57806001600160a01b03166301e1d1146040518163ffffffff1660e01b8152600401602060405180830381865afa158015613ed3573d5f803e3d5ffd5b505050506040513d601f19601f82011682018060405250810190613ef79190614bc3565b9250613f06565b836040015192505b5f826001600160a01b031663dbd5edc76040518163ffffffff1660e01b8152600401602060405180830381865afa158015613f43573d5f803e3d5ffd5b505050506040513d601f19601f82011682018060405250810190613f679190614bc3565b90505f836001600160a01b03166301e1d1146040518163ffffffff1660e01b8152600401602060405180830381865afa158015613fa6573d5f803e3d5ffd5b505050506040513d601f19601f82011682018060405250810190613fca9190614bc3565b905081613fd78683614b88565b11156140015760405163077fc1ab60e51b81526001600160a01b0385166004820152602401610b3e565b61400c838587614538565b50505050919050565b5f5b8151811015610b6e575f61402c826001614b88565b90505b82518110156141645782818151811061404a5761404a614baf565b602002602001015183838151811061406457614064614baf565b6020026020010151111561415c5782818151811061408457614084614baf565b602002602001015183838151811061409e5761409e614baf565b60200260200101518484815181106140b8576140b8614baf565b602002602001018584815181106140d1576140d1614baf565b60200260200101828152508281525050508381815181106140f4576140f4614baf565b602002602001015184838151811061410e5761410e614baf565b602002602001015185848151811061412857614128614baf565b6020026020010186848151811061414157614141614baf565b6001600160a01b039384166020918202929092010152911690525b60010161402f565b50600101614017565b6001600160a01b038381165f908152600160209081526040808320938616835292905220545f19811461322357818110156141c157828183604051637dc7a0d960e11b8152600401610b3e93929190614a7b565b61322384848484035f613a96565b6001600160a01b0382166141f857604051634b637e8f60e11b81525f6004820152602401610b3e565b613b7b825f8361459a565b6040516001600160a01b03838116602483015260448201839052610b6e91859182169063a9059cbb906064015b604051602081830303815290604052915060e01b6020820180516001600160e01b0383818316178352505050506146ad565b5f610a22826142736012600a614e79565b61427e906064614e84565b101590565b5f6127838284614b88565b5f8382611f9882868361470e565b5f6142a96012600a614e79565b6142b4906064614e84565b6142be8385614e84565b6127839190614e66565b6040516001600160a01b0384811660248301528381166044830152606482018390526132239186918216906323b872dd90608401614230565b6001600160a01b03821661432a5760405163ec442f0560e01b81525f6004820152602401610b3e565b613b7b5f838361459a565b5f8190505f816001600160a01b031663dbd5edc76040518163ffffffff1660e01b8152600401602060405180830381865afa158015614376573d5f803e3d5ffd5b505050506040513d601f19601f8201168201806040525081019061439a9190614bc3565b11156143c457604051632a4d8fbb60e01b81526001600160a01b0383166004820152602401610b3e565b806001600160a01b03166301e1d1146040518163ffffffff1660e01b8152600401602060405180830381865afa158015614400573d5f803e3d5ffd5b505050506040513d601f19601f820116820180604052508101906144249190614bc3565b15613b7b5760405163ca4a18b360e01b81526001600160a01b0383166004820152602401610b3e565b5f838302815f1985870982811083820303915050805f036144815783828161447757614477614e52565b0492505050612783565b8084116144a15760405163227bc15360e01b815260040160405180910390fd5b5f848688095f868103871696879004966002600389028118808a02820302808a02820302808a02820302808a02820302808a02820302808a02909103029181900381900460010186841190950394909402919094039290920491909117919091029150509392505050565b5f600282600381111561452157614521614eaf565b61452b9190614ec3565b60ff166001149050919050565b604051636c54701d60e11b8152600481018290526001600160a01b03838116602483015284169063d8a8e03a906044015f604051808303815f87803b15801561457f575f80fd5b505af1158015614591573d5f803e3d5ffd5b50505050505050565b6001600160a01b0383166145c4578060025f8282546145b99190614b88565b909155506146219050565b6001600160a01b0383165f90815260208190526040902054818110156146035783818360405163391434e360e21b8152600401610b3e93929190614a7b565b6001600160a01b0384165f9081526020819052604090209082900390555b6001600160a01b03821661463d5760028054829003905561465b565b6001600160a01b0382165f9081526020819052604090208054820190555b816001600160a01b0316836001600160a01b03167fddf252ad1be2c89b69c2b068fc378daa952ba7f163c4a11628f55a4df523b3ef836040516146a091815260200190565b60405180910390a3505050565b5f6146c16001600160a01b038416836147ce565b905080515f141580156146e55750808060200190518101906146e39190614c12565b155b15610b6e57604051635274afe760e01b81526001600160a01b0384166004820152602401610b3e565b5f83158061471a575082155b1561473457821561472b575f61472d565b815b9050612783565b61473f600284614ee4565b1561474a578361474c565b815b90505f61475a600284614e66565b90506002840493505b8315611c28578485028586820414614779575f80fd5b81810181811015614788575f80fd5b84900495505060018416156147c35784820282868204141586151516156147ad575f80fd5b818101818110156147bc575f80fd5b8490049250505b600284049350614763565b606061278383835f845f80856001600160a01b031684866040516147f29190614ef7565b5f6040518083038185875af1925050503d805f811461482c576040519150601f19603f3d011682016040523d82523d5f602084013e614831565b606091505b5091509150611f988683836060826148515761484c82614891565b612783565b815115801561486857506001600160a01b0384163b155b1561472b57604051639996b31560e01b81526001600160a01b0385166004820152602401610b3e565b8051156148a15780518082602001fd5b604051630a12f52160e11b815260040160405180910390fd5b602081525f82518060208401528060208501604085015e5f604082850101526040601f19601f83011684010191505092915050565b5f602082840312156148ff575f80fd5b5035919050565b6001600160a01b0381168114611516575f80fd5b5f806040838503121561492b575f80fd5b823561493681614906565b946020939093013593505050565b5f8060208385031215614955575f80fd5b823567ffffffffffffffff81111561496b575f80fd5b8301601f8101851361497b575f80fd5b803567ffffffffffffffff811115614991575f80fd5b8560206060830284010111156149a5575f80fd5b6020919091019590945092505050565b5f805f606084860312156149c7575f80fd5b83356149d281614906565b925060208401356149e281614906565b929592945050506040919091013590565b5f805f60608486031215614a05575f80fd5b833592506020840135614a1781614906565b91506040840135614a2781614906565b809150509250925092565b5f60208284031215614a42575f80fd5b813561278381614906565b5f8060408385031215614a5e575f80fd5b823591506020830135614a7081614906565b809150509250929050565b6001600160a01b039390931683526020830191909152604082015260600190565b5f8060208385031215614aad575f80fd5b823567ffffffffffffffff811115614ac3575f80fd5b8301601f81018513614ad3575f80fd5b803567ffffffffffffffff811115614ae9575f80fd5b8560208260051b84010111156149a5575f80fd5b5f8060408385031215614b0e575f80fd5b8235614b1981614906565b91506020830135614a7081614906565b602080825282518282018190525f918401906040840190835b81811015614b695783516001600160a01b0316835260209384019390920191600101614b42565b509095945050505050565b634e487b7160e01b5f52601160045260245ffd5b80820180821115610a2257610a22614b74565b634e487b7160e01b5f52604160045260245ffd5b634e487b7160e01b5f52603260045260245ffd5b5f60208284031215614bd3575f80fd5b5051919050565b600181811c90821680614bee57607f821691505b602082108103614c0c57634e487b7160e01b5f52602260045260245ffd5b50919050565b5f60208284031215614c22575f80fd5b81518015158114612783575f80fd5b81810381811115610a2257610a22614b74565b60ff8181168382160190811115610a2257610a22614b74565b6001815b6001841115614c9857808504811115614c7c57614c7c614b74565b6001841615614c8a57908102905b60019390931c928002614c61565b935093915050565b5f82614cae57506001610a22565b81614cba57505f610a22565b8160018114614cd05760028114614cda57614cf6565b6001915050610a22565b60ff841115614ceb57614ceb614b74565b50506001821b610a22565b5060208310610133831016604e8410600b8410161715614d19575081810a610a22565b614d255f198484614c5d565b805f1904821115614d3857614d38614b74565b029392505050565b5f61278360ff841683614ca0565b5f6060828403128015614d5f575f80fd5b506040516060810167ffffffffffffffff81118282101715614d8f57634e487b7160e01b5f52604160045260245ffd5b6040528235614d9d81614906565b81526020830135614dad81614906565b60208201526040928301359281019290925250919050565b602080825281018290525f8360408301825b85811015614e2d578235614dea81614906565b6001600160a01b031682526020830135614e0381614906565b6001600160a01b031660208301526040838101359083015260609283019290910190600101614dd7565b5095945050505050565b5f60208284031215614e47575f80fd5b815161278381614906565b634e487b7160e01b5f52601260045260245ffd5b5f82614e7457614e74614e52565b500490565b5f6127838383614ca0565b8082028115828204841417610a2257610a22614b74565b634e487b7160e01b5f52603160045260245ffd5b634e487b7160e01b5f52602160045260245ffd5b5f60ff831680614ed557614ed5614e52565b8060ff84160691505092915050565b5f82614ef257614ef2614e52565b500690565b5f82518060208501845e5f92019182525091905056fea2646970667358221220dddb76868ad7637f4452f25d9591f750a95a23141e7b343928f3477454e0f85864736f6c634300081a0033","linkReferences":{}},"methodIdentifiers":{"MAX_REBALANCE_OPERATIONS()":"5ed975e5","addArk(address)":"e37d5b7f","addArks(address[])":"cc5b1e55","adjustBuffer((address,address,uint256)[])":"0e4a840d","allowance(address,address)":"dd62ed3e","approve(address,uint256)":"095ea7b3","arks(uint256)":"ff32a42a","asset()":"38d52e0f","balanceOf(address)":"70a08231","config()":"79502c55","convertToAssets(uint256)":"07a2d13a","convertToShares(uint256)":"c6e6f592","decimals()":"313ce567","deposit(uint256,address)":"6e553f65","emergencyShutdown()":"3403c2fc","estimateAccruedTip()":"68482626","forceRebalance((address,address,uint256)[])":"0cf0654e","getArks()":"f1cd665b","getCooldown()":"218e4a15","getLastActionTimestamp()":"3152d5d1","isArkActive(address)":"d25dd101","lastTipTimestamp()":"71aedbc1","manager()":"481c6a75","maxBufferRedeem(address)":"9265b76e","maxBufferWithdraw(address)":"3e314c76","maxDeposit(address)":"402d267d","maxMint(address)":"c63d75b6","maxRedeem(address)":"d905777e","maxWithdraw(address)":"ce96cb77","mint(uint256,address)":"94bf804d","name()":"06fdde03","previewDeposit(uint256)":"ef8b30f7","previewMint(uint256)":"b3d7f6b9","previewRedeem(uint256)":"4cdad506","previewWithdraw(uint256)":"0a28a477","rebalance((address,address,uint256)[])":"b64d620e","redeem(uint256,address,address)":"ba087652","redeemFromArks(uint256,address,address)":"3a7c9f0e","redeemFromBuffer(uint256,address,address)":"f3577816","removeArk(address)":"96c25a38","setArkDepositCap(address,uint256)":"34050560","setArkMaxRebalanceInflow(address,uint256)":"d45a07a1","setArkMaxRebalanceOutflow(address,uint256)":"b637766c","setFleetDepositCap(uint256)":"d902d41a","setMinimumBufferBalance(uint256)":"4daecb9c","setTipJar()":"18d08d0b","setTipRate(uint256)":"5822198f","symbol()":"95d89b41","tip()":"2755cd2d","tipJar()":"7aaceb95","tipRate()":"498e76a0","totalAssets()":"01e1d114","totalSupply()":"18160ddd","transfer(address,uint256)":"a9059cbb","transferFrom(address,address,uint256)":"23b872dd","updateRebalanceCooldown(uint256)":"dc9de0a8","withdraw(uint256,address,address)":"b460af94","withdrawFromArks(uint256,address,address)":"a039e944","withdrawFromBuffer(uint256,address,address)":"5f538f6f"},"id":135}