{"abi":[{"type":"constructor","inputs":[{"name":"params","type":"tuple","internalType":"struct FleetCommanderParams","components":[{"name":"name","type":"string","internalType":"string"},{"name":"symbol","type":"string","internalType":"string"},{"name":"initialArks","type":"address[]","internalType":"address[]"},{"name":"configurationManager","type":"address","internalType":"address"},{"name":"accessManager","type":"address","internalType":"address"},{"name":"asset","type":"address","internalType":"address"},{"name":"bufferArk","type":"address","internalType":"address"},{"name":"initialMinimumFundsBufferBalance","type":"uint256","internalType":"uint256"},{"name":"initialRebalanceCooldown","type":"uint256","internalType":"uint256"},{"name":"depositCap","type":"uint256","internalType":"uint256"},{"name":"initialTipRate","type":"uint256","internalType":"Percentage"}]}],"stateMutability":"nonpayable"},{"type":"function","name":"MAX_REBALANCE_OPERATIONS","inputs":[],"outputs":[{"name":"","type":"uint256","internalType":"uint256"}],"stateMutability":"view"},{"type":"function","name":"addArk","inputs":[{"name":"ark","type":"address","internalType":"address"}],"outputs":[],"stateMutability":"nonpayable"},{"type":"function","name":"addArks","inputs":[{"name":"_arkAddresses","type":"address[]","internalType":"address[]"}],"outputs":[],"stateMutability":"nonpayable"},{"type":"function","name":"adjustBuffer","inputs":[{"name":"rebalanceData","type":"tuple[]","internalType":"struct RebalanceData[]","components":[{"name":"fromArk","type":"address","internalType":"address"},{"name":"toArk","type":"address","internalType":"address"},{"name":"amount","type":"uint256","internalType":"uint256"}]}],"outputs":[],"stateMutability":"nonpayable"},{"type":"function","name":"allowance","inputs":[{"name":"owner","type":"address","internalType":"address"},{"name":"spender","type":"address","internalType":"address"}],"outputs":[{"name":"","type":"uint256","internalType":"uint256"}],"stateMutability":"view"},{"type":"function","name":"approve","inputs":[{"name":"spender","type":"address","internalType":"address"},{"name":"value","type":"uint256","internalType":"uint256"}],"outputs":[{"name":"","type":"bool","internalType":"bool"}],"stateMutability":"nonpayable"},{"type":"function","name":"arks","inputs":[{"name":"","type":"uint256","internalType":"uint256"}],"outputs":[{"name":"","type":"address","internalType":"address"}],"stateMutability":"view"},{"type":"function","name":"asset","inputs":[],"outputs":[{"name":"","type":"address","internalType":"address"}],"stateMutability":"view"},{"type":"function","name":"balanceOf","inputs":[{"name":"account","type":"address","internalType":"address"}],"outputs":[{"name":"","type":"uint256","internalType":"uint256"}],"stateMutability":"view"},{"type":"function","name":"bufferArk","inputs":[],"outputs":[{"name":"","type":"address","internalType":"contract IArk"}],"stateMutability":"view"},{"type":"function","name":"convertToAssets","inputs":[{"name":"shares","type":"uint256","internalType":"uint256"}],"outputs":[{"name":"","type":"uint256","internalType":"uint256"}],"stateMutability":"view"},{"type":"function","name":"convertToShares","inputs":[{"name":"assets","type":"uint256","internalType":"uint256"}],"outputs":[{"name":"","type":"uint256","internalType":"uint256"}],"stateMutability":"view"},{"type":"function","name":"decimals","inputs":[],"outputs":[{"name":"","type":"uint8","internalType":"uint8"}],"stateMutability":"view"},{"type":"function","name":"deposit","inputs":[{"name":"assets","type":"uint256","internalType":"uint256"},{"name":"receiver","type":"address","internalType":"address"}],"outputs":[{"name":"","type":"uint256","internalType":"uint256"}],"stateMutability":"nonpayable"},{"type":"function","name":"depositCap","inputs":[],"outputs":[{"name":"","type":"uint256","internalType":"uint256"}],"stateMutability":"view"},{"type":"function","name":"emergencyShutdown","inputs":[],"outputs":[],"stateMutability":"nonpayable"},{"type":"function","name":"estimateAccruedTip","inputs":[],"outputs":[{"name":"","type":"uint256","internalType":"uint256"}],"stateMutability":"view"},{"type":"function","name":"forceRebalance","inputs":[{"name":"rebalanceData","type":"tuple[]","internalType":"struct RebalanceData[]","components":[{"name":"fromArk","type":"address","internalType":"address"},{"name":"toArk","type":"address","internalType":"address"},{"name":"amount","type":"uint256","internalType":"uint256"}]}],"outputs":[],"stateMutability":"nonpayable"},{"type":"function","name":"forceWithdraw","inputs":[{"name":"assets","type":"uint256","internalType":"uint256"},{"name":"receiver","type":"address","internalType":"address"},{"name":"owner","type":"address","internalType":"address"}],"outputs":[{"name":"","type":"uint256","internalType":"uint256"}],"stateMutability":"nonpayable"},{"type":"function","name":"getArks","inputs":[],"outputs":[{"name":"","type":"address[]","internalType":"address[]"}],"stateMutability":"view"},{"type":"function","name":"getCooldown","inputs":[],"outputs":[{"name":"","type":"uint256","internalType":"uint256"}],"stateMutability":"view"},{"type":"function","name":"getLastActionTimestamp","inputs":[],"outputs":[{"name":"","type":"uint256","internalType":"uint256"}],"stateMutability":"view"},{"type":"function","name":"isArkActive","inputs":[{"name":"","type":"address","internalType":"address"}],"outputs":[{"name":"","type":"bool","internalType":"bool"}],"stateMutability":"view"},{"type":"function","name":"lastTipTimestamp","inputs":[],"outputs":[{"name":"","type":"uint256","internalType":"uint256"}],"stateMutability":"view"},{"type":"function","name":"manager","inputs":[],"outputs":[{"name":"","type":"address","internalType":"contract IConfigurationManager"}],"stateMutability":"view"},{"type":"function","name":"maxDeposit","inputs":[{"name":"owner","type":"address","internalType":"address"}],"outputs":[{"name":"","type":"uint256","internalType":"uint256"}],"stateMutability":"view"},{"type":"function","name":"maxForceWithdraw","inputs":[{"name":"owner","type":"address","internalType":"address"}],"outputs":[{"name":"","type":"uint256","internalType":"uint256"}],"stateMutability":"view"},{"type":"function","name":"maxMint","inputs":[{"name":"owner","type":"address","internalType":"address"}],"outputs":[{"name":"","type":"uint256","internalType":"uint256"}],"stateMutability":"view"},{"type":"function","name":"maxRedeem","inputs":[{"name":"owner","type":"address","internalType":"address"}],"outputs":[{"name":"","type":"uint256","internalType":"uint256"}],"stateMutability":"view"},{"type":"function","name":"maxWithdraw","inputs":[{"name":"owner","type":"address","internalType":"address"}],"outputs":[{"name":"","type":"uint256","internalType":"uint256"}],"stateMutability":"view"},{"type":"function","name":"minFundsBufferBalance","inputs":[],"outputs":[{"name":"","type":"uint256","internalType":"uint256"}],"stateMutability":"view"},{"type":"function","name":"mint","inputs":[{"name":"shares","type":"uint256","internalType":"uint256"},{"name":"receiver","type":"address","internalType":"address"}],"outputs":[{"name":"","type":"uint256","internalType":"uint256"}],"stateMutability":"nonpayable"},{"type":"function","name":"name","inputs":[],"outputs":[{"name":"","type":"string","internalType":"string"}],"stateMutability":"view"},{"type":"function","name":"previewDeposit","inputs":[{"name":"assets","type":"uint256","internalType":"uint256"}],"outputs":[{"name":"","type":"uint256","internalType":"uint256"}],"stateMutability":"view"},{"type":"function","name":"previewMint","inputs":[{"name":"shares","type":"uint256","internalType":"uint256"}],"outputs":[{"name":"","type":"uint256","internalType":"uint256"}],"stateMutability":"view"},{"type":"function","name":"previewRedeem","inputs":[{"name":"shares","type":"uint256","internalType":"uint256"}],"outputs":[{"name":"","type":"uint256","internalType":"uint256"}],"stateMutability":"view"},{"type":"function","name":"previewWithdraw","inputs":[{"name":"assets","type":"uint256","internalType":"uint256"}],"outputs":[{"name":"","type":"uint256","internalType":"uint256"}],"stateMutability":"view"},{"type":"function","name":"rebalance","inputs":[{"name":"rebalanceData","type":"tuple[]","internalType":"struct RebalanceData[]","components":[{"name":"fromArk","type":"address","internalType":"address"},{"name":"toArk","type":"address","internalType":"address"},{"name":"amount","type":"uint256","internalType":"uint256"}]}],"outputs":[],"stateMutability":"nonpayable"},{"type":"function","name":"redeem","inputs":[{"name":"shares","type":"uint256","internalType":"uint256"},{"name":"receiver","type":"address","internalType":"address"},{"name":"owner","type":"address","internalType":"address"}],"outputs":[{"name":"","type":"uint256","internalType":"uint256"}],"stateMutability":"nonpayable"},{"type":"function","name":"removeArk","inputs":[{"name":"ark","type":"address","internalType":"address"}],"outputs":[],"stateMutability":"nonpayable"},{"type":"function","name":"setDepositCap","inputs":[{"name":"newCap","type":"uint256","internalType":"uint256"}],"outputs":[],"stateMutability":"nonpayable"},{"type":"function","name":"setMaxAllocation","inputs":[{"name":"ark","type":"address","internalType":"address"},{"name":"newMaxAllocation","type":"uint256","internalType":"uint256"}],"outputs":[],"stateMutability":"nonpayable"},{"type":"function","name":"setMinBufferBalance","inputs":[{"name":"newBalance","type":"uint256","internalType":"uint256"}],"outputs":[],"stateMutability":"nonpayable"},{"type":"function","name":"setTipJar","inputs":[],"outputs":[],"stateMutability":"nonpayable"},{"type":"function","name":"setTipRate","inputs":[{"name":"newTipRate","type":"uint256","internalType":"Percentage"}],"outputs":[],"stateMutability":"nonpayable"},{"type":"function","name":"symbol","inputs":[],"outputs":[{"name":"","type":"string","internalType":"string"}],"stateMutability":"view"},{"type":"function","name":"tip","inputs":[],"outputs":[{"name":"","type":"uint256","internalType":"uint256"}],"stateMutability":"nonpayable"},{"type":"function","name":"tipJar","inputs":[],"outputs":[{"name":"","type":"address","internalType":"address"}],"stateMutability":"view"},{"type":"function","name":"tipRate","inputs":[],"outputs":[{"name":"","type":"uint256","internalType":"Percentage"}],"stateMutability":"view"},{"type":"function","name":"totalAssets","inputs":[],"outputs":[{"name":"total","type":"uint256","internalType":"uint256"}],"stateMutability":"view"},{"type":"function","name":"totalSupply","inputs":[],"outputs":[{"name":"","type":"uint256","internalType":"uint256"}],"stateMutability":"view"},{"type":"function","name":"transfer","inputs":[{"name":"","type":"address","internalType":"address"},{"name":"","type":"uint256","internalType":"uint256"}],"outputs":[{"name":"","type":"bool","internalType":"bool"}],"stateMutability":"pure"},{"type":"function","name":"transferFrom","inputs":[{"name":"from","type":"address","internalType":"address"},{"name":"to","type":"address","internalType":"address"},{"name":"value","type":"uint256","internalType":"uint256"}],"outputs":[{"name":"","type":"bool","internalType":"bool"}],"stateMutability":"nonpayable"},{"type":"function","name":"updateRebalanceCooldown","inputs":[{"name":"newCooldown","type":"uint256","internalType":"uint256"}],"outputs":[],"stateMutability":"nonpayable"},{"type":"function","name":"withdraw","inputs":[{"name":"assets","type":"uint256","internalType":"uint256"},{"name":"receiver","type":"address","internalType":"address"},{"name":"owner","type":"address","internalType":"address"}],"outputs":[{"name":"","type":"uint256","internalType":"uint256"}],"stateMutability":"nonpayable"},{"type":"event","name":"Approval","inputs":[{"name":"owner","type":"address","indexed":true,"internalType":"address"},{"name":"spender","type":"address","indexed":true,"internalType":"address"},{"name":"value","type":"uint256","indexed":false,"internalType":"uint256"}],"anonymous":false},{"type":"event","name":"ArkAdded","inputs":[{"name":"ark","type":"address","indexed":true,"internalType":"address"}],"anonymous":false},{"type":"event","name":"ArkMaxAllocationUpdated","inputs":[{"name":"ark","type":"address","indexed":true,"internalType":"address"},{"name":"newMaxAllocation","type":"uint256","indexed":false,"internalType":"uint256"}],"anonymous":false},{"type":"event","name":"ArkRemoved","inputs":[{"name":"ark","type":"address","indexed":true,"internalType":"address"}],"anonymous":false},{"type":"event","name":"CooldownUpdated","inputs":[{"name":"previousCooldown","type":"uint256","indexed":false,"internalType":"uint256"},{"name":"newCooldown","type":"uint256","indexed":false,"internalType":"uint256"}],"anonymous":false},{"type":"event","name":"Deposit","inputs":[{"name":"sender","type":"address","indexed":true,"internalType":"address"},{"name":"owner","type":"address","indexed":true,"internalType":"address"},{"name":"assets","type":"uint256","indexed":false,"internalType":"uint256"},{"name":"shares","type":"uint256","indexed":false,"internalType":"uint256"}],"anonymous":false},{"type":"event","name":"DepositCapUpdated","inputs":[{"name":"newCap","type":"uint256","indexed":false,"internalType":"uint256"}],"anonymous":false},{"type":"event","name":"FeeAddressUpdated","inputs":[{"name":"newAddress","type":"address","indexed":false,"internalType":"address"}],"anonymous":false},{"type":"event","name":"FleetCommanderBufferAdjusted","inputs":[{"name":"keeper","type":"address","indexed":true,"internalType":"address"},{"name":"totalMoved","type":"uint256","indexed":false,"internalType":"uint256"}],"anonymous":false},{"type":"event","name":"FleetCommanderMinFundsBufferBalanceUpdated","inputs":[{"name":"newBalance","type":"uint256","indexed":false,"internalType":"uint256"}],"anonymous":false},{"type":"event","name":"FundsBufferBalanceUpdated","inputs":[{"name":"user","type":"address","indexed":true,"internalType":"address"},{"name":"prevBalance","type":"uint256","indexed":false,"internalType":"uint256"},{"name":"newBalance","type":"uint256","indexed":false,"internalType":"uint256"}],"anonymous":false},{"type":"event","name":"FundsQueueRefilled","inputs":[{"name":"keeper","type":"address","indexed":true,"internalType":"address"},{"name":"prevBalance","type":"uint256","indexed":false,"internalType":"uint256"},{"name":"newBalance","type":"uint256","indexed":false,"internalType":"uint256"}],"anonymous":false},{"type":"event","name":"MinFundsQueueBalanceUpdated","inputs":[{"name":"keeper","type":"address","indexed":true,"internalType":"address"},{"name":"newBalance","type":"uint256","indexed":false,"internalType":"uint256"}],"anonymous":false},{"type":"event","name":"QueuedFundsCommitted","inputs":[{"name":"keeper","type":"address","indexed":true,"internalType":"address"},{"name":"prevBalance","type":"uint256","indexed":false,"internalType":"uint256"},{"name":"newBalance","type":"uint256","indexed":false,"internalType":"uint256"}],"anonymous":false},{"type":"event","name":"Rebalanced","inputs":[{"name":"keeper","type":"address","indexed":true,"internalType":"address"},{"name":"rebalances","type":"tuple[]","indexed":false,"internalType":"struct RebalanceData[]","components":[{"name":"fromArk","type":"address","internalType":"address"},{"name":"toArk","type":"address","internalType":"address"},{"name":"amount","type":"uint256","internalType":"uint256"}]}],"anonymous":false},{"type":"event","name":"TipAccrued","inputs":[{"name":"tipAmount","type":"uint256","indexed":false,"internalType":"uint256"}],"anonymous":false},{"type":"event","name":"TipJarUpdated","inputs":[{"name":"newTipJar","type":"address","indexed":false,"internalType":"address"}],"anonymous":false},{"type":"event","name":"TipRateUpdated","inputs":[{"name":"newTipRate","type":"uint256","indexed":false,"internalType":"Percentage"}],"anonymous":false},{"type":"event","name":"Transfer","inputs":[{"name":"from","type":"address","indexed":true,"internalType":"address"},{"name":"to","type":"address","indexed":true,"internalType":"address"},{"name":"value","type":"uint256","indexed":false,"internalType":"uint256"}],"anonymous":false},{"type":"event","name":"Withdraw","inputs":[{"name":"sender","type":"address","indexed":true,"internalType":"address"},{"name":"receiver","type":"address","indexed":true,"internalType":"address"},{"name":"owner","type":"address","indexed":true,"internalType":"address"},{"name":"assets","type":"uint256","indexed":false,"internalType":"uint256"},{"name":"shares","type":"uint256","indexed":false,"internalType":"uint256"}],"anonymous":false},{"type":"error","name":"AddressEmptyCode","inputs":[{"name":"target","type":"address","internalType":"address"}]},{"type":"error","name":"AddressInsufficientBalance","inputs":[{"name":"account","type":"address","internalType":"address"}]},{"type":"error","name":"CallerIsNotGovernor","inputs":[{"name":"caller","type":"address","internalType":"address"}]},{"type":"error","name":"CallerIsNotKeeper","inputs":[{"name":"caller","type":"address","internalType":"address"}]},{"type":"error","name":"CooldownNotElapsed","inputs":[{"name":"lastActionTimestamp","type":"uint256","internalType":"uint256"},{"name":"cooldown","type":"uint256","internalType":"uint256"},{"name":"currentTimestamp","type":"uint256","internalType":"uint256"}]},{"type":"error","name":"ERC20InsufficientAllowance","inputs":[{"name":"spender","type":"address","internalType":"address"},{"name":"allowance","type":"uint256","internalType":"uint256"},{"name":"needed","type":"uint256","internalType":"uint256"}]},{"type":"error","name":"ERC20InsufficientBalance","inputs":[{"name":"sender","type":"address","internalType":"address"},{"name":"balance","type":"uint256","internalType":"uint256"},{"name":"needed","type":"uint256","internalType":"uint256"}]},{"type":"error","name":"ERC20InvalidApprover","inputs":[{"name":"approver","type":"address","internalType":"address"}]},{"type":"error","name":"ERC20InvalidReceiver","inputs":[{"name":"receiver","type":"address","internalType":"address"}]},{"type":"error","name":"ERC20InvalidSender","inputs":[{"name":"sender","type":"address","internalType":"address"}]},{"type":"error","name":"ERC20InvalidSpender","inputs":[{"name":"spender","type":"address","internalType":"address"}]},{"type":"error","name":"ERC4626ExceededMaxDeposit","inputs":[{"name":"receiver","type":"address","internalType":"address"},{"name":"assets","type":"uint256","internalType":"uint256"},{"name":"max","type":"uint256","internalType":"uint256"}]},{"type":"error","name":"ERC4626ExceededMaxMint","inputs":[{"name":"receiver","type":"address","internalType":"address"},{"name":"shares","type":"uint256","internalType":"uint256"},{"name":"max","type":"uint256","internalType":"uint256"}]},{"type":"error","name":"ERC4626ExceededMaxRedeem","inputs":[{"name":"owner","type":"address","internalType":"address"},{"name":"shares","type":"uint256","internalType":"uint256"},{"name":"max","type":"uint256","internalType":"uint256"}]},{"type":"error","name":"ERC4626ExceededMaxWithdraw","inputs":[{"name":"owner","type":"address","internalType":"address"},{"name":"assets","type":"uint256","internalType":"uint256"},{"name":"max","type":"uint256","internalType":"uint256"}]},{"type":"error","name":"FailedInnerCall","inputs":[]},{"type":"error","name":"FleetCommanderArkAlreadyExists","inputs":[{"name":"ark","type":"address","internalType":"address"}]},{"type":"error","name":"FleetCommanderArkAssetsNotZero","inputs":[{"name":"ark","type":"address","internalType":"address"}]},{"type":"error","name":"FleetCommanderArkMaxAllocationGreaterThanZero","inputs":[{"name":"ark","type":"address","internalType":"address"}]},{"type":"error","name":"FleetCommanderArkMaxAllocationZero","inputs":[{"name":"ark","type":"address","internalType":"address"}]},{"type":"error","name":"FleetCommanderArkNotActive","inputs":[{"name":"ark","type":"address","internalType":"address"}]},{"type":"error","name":"FleetCommanderArkNotFound","inputs":[{"name":"ark","type":"address","internalType":"address"}]},{"type":"error","name":"FleetCommanderCantRebalanceToArk","inputs":[{"name":"ark","type":"address","internalType":"address"}]},{"type":"error","name":"FleetCommanderCantUseRebalanceOnBufferArk","inputs":[]},{"type":"error","name":"FleetCommanderInsufficientBuffer","inputs":[]},{"type":"error","name":"FleetCommanderInvalidArkAddress","inputs":[]},{"type":"error","name":"FleetCommanderInvalidBufferAdjustment","inputs":[]},{"type":"error","name":"FleetCommanderNoExcessFunds","inputs":[]},{"type":"error","name":"FleetCommanderRebalanceAmountZero","inputs":[{"name":"ark","type":"address","internalType":"address"}]},{"type":"error","name":"FleetCommanderRebalanceNoOperations","inputs":[]},{"type":"error","name":"FleetCommanderRebalanceTooManyOperations","inputs":[{"name":"operationsCount","type":"uint256","internalType":"uint256"}]},{"type":"error","name":"FleetCommanderTargetArkRateTooLow","inputs":[{"name":"ark","type":"address","internalType":"address"},{"name":"targetRate","type":"uint256","internalType":"uint256"},{"name":"currentRate","type":"uint256","internalType":"uint256"}]},{"type":"error","name":"FleetCommanderTransfersDisabled","inputs":[]},{"type":"error","name":"FleetCommanderUnauthorizedRedemption","inputs":[{"name":"caller","type":"address","internalType":"address"},{"name":"owner","type":"address","internalType":"address"}]},{"type":"error","name":"FleetCommanderUnauthorizedWithdrawal","inputs":[{"name":"caller","type":"address","internalType":"address"},{"name":"owner","type":"address","internalType":"address"}]},{"type":"error","name":"InvalidAccessManagerAddress","inputs":[{"name":"invalidAddress","type":"address","internalType":"address"}]},{"type":"error","name":"InvalidTipJarAddress","inputs":[]},{"type":"error","name":"MathOverflowedMulDiv","inputs":[]},{"type":"error","name":"SafeERC20FailedOperation","inputs":[{"name":"token","type":"address","internalType":"address"}]},{"type":"error","name":"TipRateCannotExceedOneHundredPercent","inputs":[]}],"bytecode":{"object":"0x60c060405234801561000f575f80fd5b5060405161556c38038061556c83398101604081905261002e91610611565b8061010001515f826060015183610140015184608001518560a00151865f01518760200151816003908161006291906107c5565b50600461006f82826107c5565b5050505f806100838361028d60201b60201c565b9150915081610093576012610095565b805b60ff1660a05250506001600160a01b0390811660805281166100d1576040516347bd7c1d60e01b81525f60048201526024015b60405180910390fd5b6040516301ffc9a760e01b815263f87138b560e01b60048201526001600160a01b038216906301ffc9a790602401602060405180830381865afa15801561011a573d5f803e3d5ffd5b505050506040513d601f19601f8201168201806040525081019061013e919061087f565b610166576040516347bd7c1d60e01b81526001600160a01b03821660048201526024016100c8565b600580546001600160a01b039283166001600160a01b031991821617909155600980549285169290911682179055600682905560408051637aaceb9560e01b81529051637aaceb959160048082019260209290919082900301815f875af11580156101d3573d5f803e3d5ffd5b505050506040513d601f19601f820116820180604052508101906101f791906108a5565b600880546001600160a01b0319166001600160a01b0392909216919091179055505042600755600a829055801561022d5742600b555b5050604081015161023d90610363565b60e0810151600f5561012081015160105560c00151600d80546001600160a01b0319166001600160a01b0390921691821790555f908152600e60205260409020805460ff191660011790556108ff565b60408051600481526024810182526020810180516001600160e01b031663313ce56760e01b17905290515f918291829182916001600160a01b038716916102d3916108be565b5f60405180830381855afa9150503d805f811461030b576040519150601f19603f3d011682016040523d82523d5f602084013e610310565b606091505b509150915081801561032457506020815110155b15610357575f8180602001905181019061033e91906108d4565b905060ff8111610355576001969095509350505050565b505b505f9485945092505050565b5f5b815181101561039e57610396828281518110610383576103836108eb565b60200260200101516103a260201b60201c565b600101610365565b5050565b6001600160a01b0381166103c95760405163210e96cb60e01b815260040160405180910390fd5b6001600160a01b0381165f908152600e602052604090205460ff161561040d57604051637eadea0960e11b81526001600160a01b03821660048201526024016100c8565b6001600160a01b0381165f818152600e6020526040808220805460ff19166001908117909155600c8054918201815583527fdf6966c971051c3d54ec59162606531493a51404a002842f56009d7e5cf4a8c70180546001600160a01b03191684179055517fcb4a29d359e86f179111dcba8714def1a859612f729f2d224d13efeac51b36bc9190a250565b634e487b7160e01b5f52604160045260245ffd5b60405161016081016001600160401b03811182821017156104cf576104cf610498565b60405290565b604051601f8201601f191681016001600160401b03811182821017156104fd576104fd610498565b604052919050565b5f82601f830112610514575f80fd5b81516001600160401b0381111561052d5761052d610498565b610540601f8201601f19166020016104d5565b818152846020838601011115610554575f80fd5b8160208501602083015e5f918101602001919091529392505050565b80516001600160a01b0381168114610586575f80fd5b919050565b5f82601f83011261059a575f80fd5b81516001600160401b038111156105b3576105b3610498565b8060051b6105c3602082016104d5565b918252602081850181019290810190868411156105de575f80fd5b6020860192505b83831015610607576105f683610570565b8252602092830192909101906105e5565b9695505050505050565b5f60208284031215610621575f80fd5b81516001600160401b03811115610636575f80fd5b82016101608185031215610648575f80fd5b6106506104ac565b81516001600160401b03811115610665575f80fd5b61067186828501610505565b82525060208201516001600160401b0381111561068c575f80fd5b61069886828501610505565b60208301525060408201516001600160401b038111156106b6575f80fd5b6106c28682850161058b565b6040830152506106d460608301610570565b60608201526106e560808301610570565b60808201526106f660a08301610570565b60a082015261070760c08301610570565b60c082015260e082810151908201526101008083015190820152610120808301519082015261014091820151918101919091529392505050565b600181811c9082168061075557607f821691505b60208210810361077357634e487b7160e01b5f52602260045260245ffd5b50919050565b601f8211156107c057805f5260205f20601f840160051c8101602085101561079e5750805b601f840160051c820191505b818110156107bd575f81556001016107aa565b50505b505050565b81516001600160401b038111156107de576107de610498565b6107f2816107ec8454610741565b84610779565b6020601f821160018114610824575f831561080d5750848201515b5f19600385901b1c1916600184901b1784556107bd565b5f84815260208120601f198516915b828110156108535787850151825560209485019460019092019101610833565b508482101561087057868401515f19600387901b60f8161c191681555b50505050600190811b01905550565b5f6020828403121561088f575f80fd5b8151801515811461089e575f80fd5b9392505050565b5f602082840312156108b5575f80fd5b61089e82610570565b5f82518060208501845e5f920191825250919050565b5f602082840312156108e4575f80fd5b5051919050565b634e487b7160e01b5f52603260045260245ffd5b60805160a051614c296109435f395f610da501525f818161045901528181610ef301528181611ded01528181612b7301528181612c0201526130f70152614c295ff3fe608060405234801561000f575f80fd5b506004361061034c575f3560e01c806371aedbc1116101c9578063c63d75b6116100fe578063dbd5edc71161009e578063e37d5b7f11610079578063e37d5b7f1461070e578063ef8b30f714610639578063f1cd665b14610721578063ff32a42a14610736575f80fd5b8063dbd5edc7146106ba578063dc9de0a8146106c3578063dd62ed3e146106d6575f80fd5b8063cc5b1e55116100d9578063cc5b1e551461065f578063ce96cb7714610672578063d25dd10114610685578063d905777e146106a7575f80fd5b8063c63d75b614610626578063c6e6f59214610639578063c8169aa11461064c575f80fd5b806396c25a3811610169578063b460af9411610144578063b460af94146105da578063b64d620e146105ed578063ba08765214610600578063bb5adaea14610613575f80fd5b806396c25a38146105a1578063a9059cbb146105b4578063b3d7f6b9146105c7575f80fd5b806386651203116101a457806386651203146105605780639170b6681461057357806394bf804d1461058657806395d89b4114610599575f80fd5b806371aedbc1146105315780637943fdc21461053a5780637aaceb951461054d575f80fd5b8063313ce5671161029f578063498e76a01161023f5780635ed975e51161021a5780635ed975e5146104e657806368482626146104ee5780636e553f65146104f657806370a0823114610509575f80fd5b8063498e76a0146104ca5780634cdad506146103895780635822198f146104d3575f80fd5b806338d52e0f1161027a57806338d52e0f14610457578063402d267d14610491578063481c6a75146104a45780634834bd86146104b7575f80fd5b8063313ce5671461042d5780633152d5d1146104475780633403c2fc1461044f575f80fd5b80630cf0654e1161030a57806318d08d0b116102e557806318d08d0b14610402578063218e4a151461040a57806323b872dd146104125780632755cd2d14610425575f80fd5b80630cf0654e146103d25780630e4a840d146103e757806318160ddd146103fa575f80fd5b80620dbedd1461035057806301e1d1141461036c57806306fdde031461037457806307a2d13a14610389578063095ea7b31461039c5780630a28a477146103bf575b5f80fd5b610359600f5481565b6040519081526020015b60405180910390f35b610359610749565b61037c6108ee565b604051610363919061458b565b6103596103973660046145c0565b61097e565b6103af6103aa3660046145eb565b61098f565b6040519015158152602001610363565b6103596103cd3660046145c0565b6109a6565b6103e56103e0366004614615565b6109b2565b005b6103e56103f5366004614615565b610ad0565b600254610359565b6103e5610c6a565b600a54610359565b6103af610420366004614686565b610d6b565b610359610d90565b610435610d9e565b60405160ff9091168152602001610363565b600b54610359565b6103e5610dc9565b7f00000000000000000000000000000000000000000000000000000000000000005b6040516001600160a01b039091168152602001610363565b61035961049f3660046146c4565b610ec0565b600954610479906001600160a01b031681565b6103596104c53660046146c4565b610f8a565b61035960065481565b6103e56104e13660046145c0565b610fab565b610359600a81565b6103596110ae565b6103596105043660046146df565b611134565b6103596105173660046146c4565b6001600160a01b03165f9081526020819052604090205490565b61035960075481565b61035961054836600461470d565b611290565b600854610479906001600160a01b031681565b6103e561056e3660046145c0565b6112ee565b6103e56105813660046145c0565b611421565b6103596105943660046146df565b61154d565b61037c6116a8565b6103e56105af3660046146c4565b6116b7565b6103af6105c23660046145eb565b6117b7565b6103596105d53660046145c0565b6117d1565b6103596105e836600461470d565b6117dd565b6103e56105fb366004614615565b61193c565b61035961060e36600461470d565b611a83565b6103e56106213660046145eb565b611be1565b6103596106343660046146c4565b611db7565b6103596106473660046145c0565b611e3c565b600d54610479906001600160a01b031681565b6103e561066d36600461474c565b611e47565b6103596106803660046146c4565b611f7f565b6103af6106933660046146c4565b600e6020525f908152604090205460ff1681565b6103596106b53660046146c4565b612018565b61035960105481565b6103e56106d13660046145c0565b6120b0565b6103596106e43660046147ad565b6001600160a01b039182165f90815260016020908152604080832093909416825291909152205490565b6103e561071c3660046146c4565b6121b0565b6107296122b0565b60405161036391906147d9565b6104796107443660046145c0565b61230f565b600c545f90819061075b90600161482d565b67ffffffffffffffff81111561077357610773614840565b60405190808252806020026020018201604052801561079c578160200160208202803683370190505b5090505f5b600c5481101561080b57600c81815481106107be576107be614854565b905f5260205f20015f9054906101000a90046001600160a01b03168282815181106107eb576107eb614854565b6001600160a01b03909216602092830291909101909101526001016107a1565b50600d54600c5482516001600160a01b0390921691839190811061083157610831614854565b60200260200101906001600160a01b031690816001600160a01b0316815250505f5b81518110156108e95781818151811061086e5761086e614854565b60200260200101516001600160a01b03166301e1d1146040518163ffffffff1660e01b8152600401602060405180830381865afa1580156108b1573d5f803e3d5ffd5b505050506040513d601f19601f820116820180604052508101906108d59190614868565b6108df908461482d565b9250600101610853565b505090565b6060600380546108fd9061487f565b80601f01602080910402602001604051908101604052809291908181526020018280546109299061487f565b80156109745780601f1061094b57610100808354040283529160200191610974565b820191905f5260205f20905b81548152906001019060200180831161095757829003601f168201915b5050505050905090565b5f610989825f612337565b92915050565b5f3361099c81858561236f565b5060019392505050565b5f61098982600161237c565b60055460408051630ccc574960e41b815290516001600160a01b03909216916391d1485491839163ccc57490916004808201926020929091908290030181865afa158015610a02573d5f803e3d5ffd5b505050506040513d601f19601f82011682018060405250810190610a269190614868565b6040516001600160e01b031960e084901b1681526004810191909152336024820152604401602060405180830381865afa158015610a66573d5f803e3d5ffd5b505050506040513d601f19601f82011682018060405250810190610a8a91906148b7565b610aae57604051630ea7d7ed60e21b81523360048201526024015b60405180910390fd5b610ab66123ab565b50610ac182826124b3565b610acb8282612568565b505050565b60055460408051631b25e0ad60e11b815290516001600160a01b03909216916391d1485491839163364bc15a916004808201926020929091908290030181865afa158015610b20573d5f803e3d5ffd5b505050506040513d601f19601f82011682018060405250810190610b449190614868565b6040516001600160e01b031960e084901b1681526004810191909152336024820152604401602060405180830381865afa158015610b84573d5f803e3d5ffd5b505050506040513d601f19601f82011682018060405250810190610ba891906148b7565b610bc7576040516329068e8160e21b8152336004820152602401610aa5565b600a54600b54610bd790426148d6565b1015610c0b57600b54600a54604051630924dbf160e21b815260048101929092526024820152426044820152606401610aa5565b42600b55610c176123ab565b50610c22828261260b565b5f610c2d8383612568565b60405181815290915033907f4bd1a9dd6e8410a6d85178f9a75d601cb7b266e228771c213fe39ffffad2d3299060200160405180910390a2505050565b60055460408051630ccc574960e41b815290516001600160a01b03909216916391d1485491839163ccc57490916004808201926020929091908290030181865afa158015610cba573d5f803e3d5ffd5b505050506040513d601f19601f82011682018060405250810190610cde9190614868565b6040516001600160e01b031960e084901b1681526004810191909152336024820152604401602060405180830381865afa158015610d1e573d5f803e3d5ffd5b505050506040513d601f19601f82011682018060405250810190610d4291906148b7565b610d6157604051630ea7d7ed60e21b8152336004820152602401610aa5565b610d69612829565b565b5f33610d78858285612983565b610d838585856129eb565b60019150505b9392505050565b5f610d996123ab565b905090565b5f610d99817f00000000000000000000000000000000000000000000000000000000000000006148e9565b60055460408051630ccc574960e41b815290516001600160a01b03909216916391d1485491839163ccc57490916004808201926020929091908290030181865afa158015610e19573d5f803e3d5ffd5b505050506040513d601f19601f82011682018060405250810190610e3d9190614868565b6040516001600160e01b031960e084901b1681526004810191909152336024820152604401602060405180830381865afa158015610e7d573d5f803e3d5ffd5b505050506040513d601f19601f82011682018060405250810190610ea191906148b7565b610d6957604051630ea7d7ed60e21b8152336004820152602401610aa5565b5f80610eca610749565b90505f6010548211610ee95781601054610ee491906148d6565b610eeb565b5f5b9050610f82817f00000000000000000000000000000000000000000000000000000000000000006040516370a0823160e01b81526001600160a01b03888116600483015291909116906370a08231906024015b602060405180830381865afa158015610f59573d5f803e3d5ffd5b505050506040513d601f19601f82011682018060405250810190610f7d9190614868565b612a48565b949350505050565b6001600160a01b0381165f908152602081905260408120546109899061097e565b60055460408051630ccc574960e41b815290516001600160a01b03909216916391d1485491839163ccc57490916004808201926020929091908290030181865afa158015610ffb573d5f803e3d5ffd5b505050506040513d601f19601f8201168201806040525081019061101f9190614868565b6040516001600160e01b031960e084901b1681526004810191909152336024820152604401602060405180830381865afa15801561105f573d5f803e3d5ffd5b505050506040513d601f19601f8201168201806040525081019061108391906148b7565b6110a257604051630ea7d7ed60e21b8152336004820152602401610aa5565b6110ab81612a5d565b50565b5f80600754426110be91906148d6565b90505f306001600160a01b03166318160ddd6040518163ffffffff1660e01b8152600401602060405180830381865afa1580156110fd573d5f803e3d5ffd5b505050506040513d601f19601f820116820180604052508101906111219190614868565b905061112d8183612ac1565b9250505090565b5f61113d6123ab565b506111488333612b3b565b600d54604080516278744560e21b815290515f926001600160a01b0316916301e1d1149160048083019260209291908290030181865afa15801561118e573d5f803e3d5ffd5b505050506040513d601f19601f820116820180604052508101906111b29190614868565b90505f6111be85611e3c565b90506111cc33858784612b6e565b600d546111e2906001600160a01b031686612c00565b336001600160a01b03165f80516020614bd483398151915283600d5f9054906101000a90046001600160a01b03166001600160a01b03166301e1d1146040518163ffffffff1660e01b8152600401602060405180830381865afa15801561124b573d5f803e3d5ffd5b505050506040513d601f19601f8201168201806040525081019061126f9190614868565b6040805192835260208301919091520160405180910390a250929392505050565b5f6112996123ab565b506112a48483612ce6565b5f6112ae856109a6565b90505f6112b9612dd9565b90506112c58187612fd4565b6112d233868689866130c4565b6112db5f600b55565b6112e36123ab565b509495945050505050565b60055460408051630ccc574960e41b815290516001600160a01b03909216916391d1485491839163ccc57490916004808201926020929091908290030181865afa15801561133e573d5f803e3d5ffd5b505050506040513d601f19601f820116820180604052508101906113629190614868565b6040516001600160e01b031960e084901b1681526004810191909152336024820152604401602060405180830381865afa1580156113a2573d5f803e3d5ffd5b505050506040513d601f19601f820116820180604052508101906113c691906148b7565b6113e557604051630ea7d7ed60e21b8152336004820152602401610aa5565b60108190556040518181527f333b26cca69716ad4680ddb07663f5bfb4f06045671f336af9a83690a3ae00f9906020015b60405180910390a150565b60055460408051630ccc574960e41b815290516001600160a01b03909216916391d1485491839163ccc57490916004808201926020929091908290030181865afa158015611471573d5f803e3d5ffd5b505050506040513d601f19601f820116820180604052508101906114959190614868565b6040516001600160e01b031960e084901b1681526004810191909152336024820152604401602060405180830381865afa1580156114d5573d5f803e3d5ffd5b505050506040513d601f19601f820116820180604052508101906114f991906148b7565b61151857604051630ea7d7ed60e21b8152336004820152602401610aa5565b600f8190556040518181527f921fd87b17ccdcd7fe519f0ce2dbc43d06caa754f69aea63f232e5d790aaf6cd90602001611416565b5f6115566123ab565b506115618333613184565b600d54604080516278744560e21b815290515f926001600160a01b0316916301e1d1149160048083019260209291908290030181865afa1580156115a7573d5f803e3d5ffd5b505050506040513d601f19601f820116820180604052508101906115cb9190614868565b90505f6115d7856117d1565b90506115e533858388612b6e565b600d546115fb906001600160a01b031682612c00565b336001600160a01b03165f80516020614bd483398151915283600d5f9054906101000a90046001600160a01b03166001600160a01b03166301e1d1146040518163ffffffff1660e01b8152600401602060405180830381865afa158015611664573d5f803e3d5ffd5b505050506040513d601f19601f820116820180604052508101906116889190614868565b6040805192835260208301919091520160405180910390a2949350505050565b6060600480546108fd9061487f565b60055460408051630ccc574960e41b815290516001600160a01b03909216916391d1485491839163ccc57490916004808201926020929091908290030181865afa158015611707573d5f803e3d5ffd5b505050506040513d601f19601f8201168201806040525081019061172b9190614868565b6040516001600160e01b031960e084901b1681526004810191909152336024820152604401602060405180830381865afa15801561176b573d5f803e3d5ffd5b505050506040513d601f19601f8201168201806040525081019061178f91906148b7565b6117ae57604051630ea7d7ed60e21b8152336004820152602401610aa5565b6110ab816131b7565b5f60405163ec47ea8b60e01b815260040160405180910390fd5b5f610989826001612337565b5f6117e66123ab565b506117f18483613342565b600d54604080516278744560e21b815290515f926001600160a01b0316916301e1d1149160048083019260209291908290030181865afa158015611837573d5f803e3d5ffd5b505050506040513d601f19601f8201168201806040525081019061185b9190614868565b90505f611867866109a6565b600d54909150611880906001600160a01b0316876133e3565b61188d33868689856130c4565b336001600160a01b03165f80516020614bd483398151915283600d5f9054906101000a90046001600160a01b03166001600160a01b03166301e1d1146040518163ffffffff1660e01b8152600401602060405180830381865afa1580156118f6573d5f803e3d5ffd5b505050506040513d601f19601f8201168201806040525081019061191a9190614868565b6040805192835260208301919091520160405180910390a25093949350505050565b60055460408051631b25e0ad60e11b815290516001600160a01b03909216916391d1485491839163364bc15a916004808201926020929091908290030181865afa15801561198c573d5f803e3d5ffd5b505050506040513d601f19601f820116820180604052508101906119b09190614868565b6040516001600160e01b031960e084901b1681526004810191909152336024820152604401602060405180830381865afa1580156119f0573d5f803e3d5ffd5b505050506040513d601f19601f82011682018060405250810190611a1491906148b7565b611a33576040516329068e8160e21b8152336004820152602401610aa5565b600a54600b54611a4390426148d6565b1015611a7757600b54600a54604051630924dbf160e21b815260048101929092526024820152426044820152606401610aa5565b42600b55610ab66123ab565b5f611a8c6123ab565b50611a978483613410565b600d54604080516278744560e21b815290515f926001600160a01b0316916301e1d1149160048083019260209291908290030181865afa158015611add573d5f803e3d5ffd5b505050506040513d601f19601f82011682018060405250810190611b019190614868565b90505f611b0d8661097e565b600d54909150611b26906001600160a01b0316826133e3565b611b33338686848a6130c4565b336001600160a01b03165f80516020614bd483398151915283600d5f9054906101000a90046001600160a01b03166001600160a01b03166301e1d1146040518163ffffffff1660e01b8152600401602060405180830381865afa158015611b9c573d5f803e3d5ffd5b505050506040513d601f19601f82011682018060405250810190611bc09190614868565b6040805192835260208301919091520160405180910390a295945050505050565b60055460408051630ccc574960e41b815290516001600160a01b03909216916391d1485491839163ccc57490916004808201926020929091908290030181865afa158015611c31573d5f803e3d5ffd5b505050506040513d601f19601f82011682018060405250810190611c559190614868565b6040516001600160e01b031960e084901b1681526004810191909152336024820152604401602060405180830381865afa158015611c95573d5f803e3d5ffd5b505050506040513d601f19601f82011682018060405250810190611cb991906148b7565b611cd857604051630ea7d7ed60e21b8152336004820152602401610aa5565b6001600160a01b0382165f908152600e602052604090205460ff16611d1b57604051632767039f60e01b81526001600160a01b0383166004820152602401610aa5565b604051631cbc48d160e21b8152600481018290526001600160a01b038316906372f12344906024015f604051808303815f87803b158015611d5a575f80fd5b505af1158015611d6c573d5f803e3d5ffd5b50505050816001600160a01b03167fbbf394c9e49425a17dd7804e3bfb9eeedf2ab63b75919b681032584d46785b7282604051611dab91815260200190565b60405180910390a25050565b5f80611dc1610749565b90505f6010548211611de05781601054611ddb91906148d6565b611de2565b5f5b9050610f82610647827f00000000000000000000000000000000000000000000000000000000000000006040516370a0823160e01b81526001600160a01b03898116600483015291909116906370a0823190602401610f3e565b5f610989825f61237c565b60055460408051630ccc574960e41b815290516001600160a01b03909216916391d1485491839163ccc57490916004808201926020929091908290030181865afa158015611e97573d5f803e3d5ffd5b505050506040513d601f19601f82011682018060405250810190611ebb9190614868565b6040516001600160e01b031960e084901b1681526004810191909152336024820152604401602060405180830381865afa158015611efb573d5f803e3d5ffd5b505050506040513d601f19601f82011682018060405250810190611f1f91906148b7565b611f3e57604051630ea7d7ed60e21b8152336004820152602401610aa5565b5f5b81811015610acb57611f77838383818110611f5d57611f5d614854565b9050602002016020810190611f7291906146c4565b6134fe565b600101611f40565b5f610989600d5f9054906101000a90046001600160a01b03166001600160a01b03166301e1d1146040518163ffffffff1660e01b8152600401602060405180830381865afa158015611fd3573d5f803e3d5ffd5b505050506040513d601f19601f82011682018060405250810190611ff79190614868565b610f7d610397856001600160a01b03165f9081526020819052604090205490565b5f610989612093600d5f9054906101000a90046001600160a01b03166001600160a01b03166301e1d1146040518163ffffffff1660e01b8152600401602060405180830381865afa15801561206f573d5f803e3d5ffd5b505050506040513d601f19601f820116820180604052508101906103cd9190614868565b6001600160a01b0384165f90815260208190526040902054612a48565b60055460408051630ccc574960e41b815290516001600160a01b03909216916391d1485491839163ccc57490916004808201926020929091908290030181865afa158015612100573d5f803e3d5ffd5b505050506040513d601f19601f820116820180604052508101906121249190614868565b6040516001600160e01b031960e084901b1681526004810191909152336024820152604401602060405180830381865afa158015612164573d5f803e3d5ffd5b505050506040513d601f19601f8201168201806040525081019061218891906148b7565b6121a757604051630ea7d7ed60e21b8152336004820152602401610aa5565b6110ab816135f4565b60055460408051630ccc574960e41b815290516001600160a01b03909216916391d1485491839163ccc57490916004808201926020929091908290030181865afa158015612200573d5f803e3d5ffd5b505050506040513d601f19601f820116820180604052508101906122249190614868565b6040516001600160e01b031960e084901b1681526004810191909152336024820152604401602060405180830381865afa158015612264573d5f803e3d5ffd5b505050506040513d601f19601f8201168201806040525081019061228891906148b7565b6122a757604051630ea7d7ed60e21b8152336004820152602401610aa5565b6110ab816134fe565b6060600c80548060200260200160405190810160405280929190818152602001828054801561097457602002820191905f5260205f20905b81546001600160a01b031681526001909101906020018083116122e8575050505050905090565b600c818154811061231e575f80fd5b5f918252602090912001546001600160a01b0316905081565b5f610d89612343610749565b61234e90600161482d565b6123595f600a6149e5565b600254612366919061482d565b85919085613635565b610acb8383836001613684565b5f610d8961238b82600a6149e5565b600254612398919061482d565b6123a0610749565b61236690600161482d565b5f6123bf6006546123bb5f613748565b1490565b156123cd5750426007555f90565b5f600754426123dc91906148d6565b9050805f036123ec575f91505090565b5f306001600160a01b03166318160ddd6040518163ffffffff1660e01b8152600401602060405180830381865afa158015612429573d5f803e3d5ffd5b505050506040513d601f19601f8201168201806040525081019061244d9190614868565b90506124598183612ac1565b925082156108e957600854612477906001600160a01b03168461375f565b426007556040518381527f698f29fe990d4e7770f7e74cd309da261dd03ca828f7bb3c2ea8b8c9adcc0ecd9060200160405180910390a1505090565b5f5b81811015610acb57600d546001600160a01b03168383838181106124db576124db614854565b90506060020160200160208101906124f391906146c4565b6001600160a01b031614806125425750600d546001600160a01b031683838381811061252157612521614854565b61253792602060609092020190810191506146c4565b6001600160a01b0316145b1561256057604051630394d1d160e21b815260040160405180910390fd5b6001016124b5565b5f612573838361376d565b5f5b828110156125c1576125ad84848381811061259257612592614854565b9050606002018036038101906125a891906149f3565b613b0a565b6125b7908361482d565b9150600101612575565b50336001600160a01b03167f45db9ca78132c596e471d71a17273b2fb3edf8bc5052dba93052bc208d322b3484846040516125fd929190614a6a565b60405180910390a292915050565b600d545f906001600160a01b03168383838161262957612629614854565b905060600201602001602081019061264191906146c4565b6001600160a01b03161490505f600d5f9054906101000a90046001600160a01b03166001600160a01b03166301e1d1146040518163ffffffff1660e01b8152600401602060405180830381865afa15801561269e573d5f803e3d5ffd5b505050506040513d601f19601f820116820180604052508101906126c29190614868565b90505f805b848110156127c3578585828181106126e1576126e1614854565b90506060020160400135826126f6919061482d565b9150831561276057600d546001600160a01b031686868381811061271c5761271c614854565b905060600201602001602081019061273491906146c4565b6001600160a01b03161461275b57604051633abef25360e21b815260040160405180910390fd5b6127bb565b600d546001600160a01b031686868381811061277e5761277e614854565b61279492602060609092020190810191506146c4565b6001600160a01b0316146127bb57604051633abef25360e21b815260040160405180910390fd5b6001016126c7565b508261282257600f5482116127ee57604051600162efa20760e01b0319815260040160405180910390fd5b5f600f54836127fd91906148d6565b90508082111561282057604051633b5391f960e01b815260040160405180910390fd5b505b5050505050565b60095f9054906101000a90046001600160a01b03166001600160a01b0316637aaceb956040518163ffffffff1660e01b81526004016020604051808303815f875af115801561287a573d5f803e3d5ffd5b505050506040513d601f19601f8201168201806040525081019061289e9190614adc565b600880546001600160a01b0319166001600160a01b039290921691821790556128da57604051631d2f8a9960e01b815260040160405180910390fd5b60095460408051637aaceb9560e01b815290517fba7f8033d690b39fb06e1eb3a0ef57ae8ce342fa4cd8d4f24f870e1e22931644926001600160a01b031691637aaceb9591600480830192602092919082900301815f875af1158015612942573d5f803e3d5ffd5b505050506040513d601f19601f820116820180604052508101906129669190614adc565b6040516001600160a01b03909116815260200160405180910390a1565b6001600160a01b038381165f908152600160209081526040808320938616835292905220545f1981146129e557818110156129d757828183604051637dc7a0d960e11b8152600401610aa593929190614af7565b6129e584848484035f613684565b50505050565b6001600160a01b038316612a1457604051634b637e8f60e11b81525f6004820152602401610aa5565b6001600160a01b038216612a3d5760405163ec442f0560e01b81525f6004820152602401610aa5565b610acb838383613d36565b5f818310612a565781610d89565b5090919050565b612a6681613e49565b612a83576040516319ecf1a560e31b815260040160405180910390fd5b612a8b6123ab565b5060068190556040518181527f186e864438b783eec69fd7ce4871c28accfc0b45558ea08c48540f76094fecde90602001611416565b5f806301e13380600654612ad59190614b2c565b90505f612b18612afb612aea6012600a614b3f565b612af5906064614b4a565b84613e6a565b85612b086012600a614b3f565b612b13906064614b4a565b613e75565b90505f612b258683613f4e565b9050612b3186826148d6565b9695505050505050565b5f612b4582610ec0565b905080831115610acb57818382604051633c8097d960e11b8152600401610aa593929190614af7565b612b9a7f0000000000000000000000000000000000000000000000000000000000000000853085613f7a565b612ba48382613fe1565b826001600160a01b0316846001600160a01b03167fdcbc1c05240f31ff3ad067ef1ee35ce4997762752e3a095284754544f4c709d78484604051612bf2929190918252602082015260400190565b60405180910390a350505050565b7f000000000000000000000000000000000000000000000000000000000000000060405163095ea7b360e01b81526001600160a01b03848116600483015260248201849052919091169063095ea7b3906044016020604051808303815f875af1158015612c6f573d5f803e3d5ffd5b505050506040513d601f19601f82011682018060405250810190612c9391906148b7565b506040516328ed6e3f60e01b8152600481018290526001600160a01b038316906328ed6e3f906024015b5f604051808303815f87803b158015612cd4575f80fd5b505af1158015612820573d5f803e3d5ffd5b336001600160a01b03821614801590612d725750813063dd62ed3e83336040516001600160e01b031960e085901b1681526001600160a01b03928316600482015291166024820152604401602060405180830381865afa158015612d4c573d5f803e3d5ffd5b505050506040513d601f19601f82011682018060405250810190612d709190614868565b105b15612da657335b604051638b27f8ed60e01b81526001600160a01b0391821660048201529082166024820152604401610aa5565b5f612db082610f8a565b905080831115610acb57818382604051633fa733bb60e21b8152600401610aa593929190614af7565b600c546060905f90612dec90600161482d565b67ffffffffffffffff811115612e0457612e04614840565b604051908082528060200260200182016040528015612e2d578160200160208202803683370190505b50600c549091505f9067ffffffffffffffff811115612e4e57612e4e614840565b604051908082528060200260200182016040528015612e77578160200160208202803683370190505b5090505f5b600c54811015612f8657600c8181548110612e9957612e99614854565b5f918252602091829020015460408051631627391760e11b815290516001600160a01b0390921692632c4e722e926004808401938290030181865afa158015612ee4573d5f803e3d5ffd5b505050506040513d601f19601f82011682018060405250810190612f089190614868565b828281518110612f1a57612f1a614854565b602002602001018181525050600c8181548110612f3957612f39614854565b905f5260205f20015f9054906101000a90046001600160a01b0316838281518110612f6657612f66614854565b6001600160a01b0390921660209283029190910190910152600101612e7c565b50612f918282614015565b600d54600c5483516001600160a01b03909216918491908110612fb657612fb6614854565b6001600160a01b039092166020928302919091019091015250919050565b5f5b8251811015610acb575f838281518110612ff257612ff2614854565b60200260200101516001600160a01b03166301e1d1146040518163ffffffff1660e01b8152600401602060405180830381865afa158015613035573d5f803e3d5ffd5b505050506040513d601f19601f820116820180604052508101906130599190614868565b9050828110613085576129e584838151811061307757613077614854565b6020026020010151846133e3565b80156130bb576130ae8483815181106130a0576130a0614854565b6020026020010151826133e3565b6130b881846148d6565b92505b50600101612fd6565b826001600160a01b0316856001600160a01b0316146130e8576130e8838683612983565b6130f2838261416d565b61311d7f000000000000000000000000000000000000000000000000000000000000000085846141a1565b826001600160a01b0316846001600160a01b0316866001600160a01b03167ffbde797d201c681b91056529119e0b02407c7bb96a4a2c75c01fc9667232c8db8585604051613175929190918252602082015260400190565b60405180910390a45050505050565b5f61318e82611db7565b905080831115610acb5781838260405163284ff66760e01b8152600401610aa593929190614af7565b6001600160a01b0381165f908152600e602052604090205460ff166131fa57604051632767039f60e01b81526001600160a01b0382166004820152602401610aa5565b5f5b600c548110156132f957816001600160a01b0316600c828154811061322357613223614854565b5f918252602090912001546001600160a01b0316036132f157613245826141d2565b600c8054613255906001906148d6565b8154811061326557613265614854565b5f91825260209091200154600c80546001600160a01b03909216918390811061329057613290614854565b905f5260205f20015f6101000a8154816001600160a01b0302191690836001600160a01b03160217905550600c8054806132cc576132cc614b61565b5f8281526020902081015f1990810180546001600160a01b03191690550190556132f9565b6001016131fc565b506001600160a01b0381165f818152600e6020526040808220805460ff19169055517f66d72a91b52f63fb063c4f672763d7ef15ce4d7c9a268a7f9b5133e41c1709a59190a250565b336001600160a01b038216148015906133ce5750813063dd62ed3e83336040516001600160e01b031960e085901b1681526001600160a01b03928316600482015291166024820152604401602060405180830381865afa1580156133a8573d5f803e3d5ffd5b505050506040513d601f19601f820116820180604052508101906133cc9190614868565b105b156133d95733612d79565b5f612db082611f7f565b6040516326ea3f5d60e11b8152600481018290526001600160a01b03831690634dd47eba90602401612cbd565b336001600160a01b0382161480159061349c5750813063dd62ed3e83336040516001600160e01b031960e085901b1681526001600160a01b03928316600482015291166024820152604401602060405180830381865afa158015613476573d5f803e3d5ffd5b505050506040513d601f19601f8201168201806040525081019061349a9190614868565b105b156134cb57604051630c849df760e41b81523360048201526001600160a01b0382166024820152604401610aa5565b5f6134d582612018565b905080831115610acb57818382604051632e52afbb60e21b8152600401610aa593929190614af7565b6001600160a01b0381166135255760405163210e96cb60e01b815260040160405180910390fd5b6001600160a01b0381165f908152600e602052604090205460ff161561356957604051637eadea0960e11b81526001600160a01b0382166004820152602401610aa5565b6001600160a01b0381165f818152600e6020526040808220805460ff19166001908117909155600c8054918201815583527fdf6966c971051c3d54ec59162606531493a51404a002842f56009d7e5cf4a8c70180546001600160a01b03191684179055517fcb4a29d359e86f179111dcba8714def1a859612f729f2d224d13efeac51b36bc9190a250565b600a5460408051918252602082018390527f5953b565c074c2cce1866b4e69c9efc4908556bb6fca70f735907c94d9405515910160405180910390a1600a55565b5f806136428686866142ea565b905061364d836143a9565b801561366857505f848061366357613663614b18565b868809115b1561367b5761367860018261482d565b90505b95945050505050565b6001600160a01b0384166136ad5760405163e602df0560e01b81525f6004820152602401610aa5565b6001600160a01b0383166136d657604051634a1406b160e11b81525f6004820152602401610aa5565b6001600160a01b038085165f90815260016020908152604080832093871683529290522082905580156129e557826001600160a01b0316846001600160a01b03167f8c5be1e5ebec7d5bd14f71427d1e84f3dd0314c0f7b2291e5b200ac8c7c3b92584604051612bf291815260200190565b5f6137556012600a614b3f565b6109899083614b4a565b6137698282613fe1565b5050565b600a8111156137925760405163899a5d8160e01b815260048101829052602401610aa5565b5f8190036137b3576040516304dcdcd560e31b815260040160405180910390fd5b5f5b81811015610acb578282828181106137cf576137cf614854565b905060600201604001355f0361382e578282828181106137f1576137f1614854565b905060600201602001602081019061380991906146c4565b604051630a16952b60e21b81526001600160a01b039091166004820152602401610aa5565b5f83838381811061384157613841614854565b905060600201602001602081019061385991906146c4565b6001600160a01b0316036138b65782828281811061387957613879614854565b905060600201602001602081019061389191906146c4565b604051632767039f60e01b81526001600160a01b039091166004820152602401610aa5565b5f8383838181106138c9576138c9614854565b6138df92602060609092020190810191506146c4565b6001600160a01b031603613915578282828181106138ff576138ff614854565b61389192602060609092020190810191506146c4565b600e5f84848481811061392a5761392a614854565b905060600201602001602081019061394291906146c4565b6001600160a01b0316815260208101919091526040015f205460ff166139b15782828281811061397457613974614854565b905060600201602001602081019061398c91906146c4565b60405163c80e655f60e01b81526001600160a01b039091166004820152602401610aa5565b600e5f8484848181106139c6576139c6614854565b6139dc92602060609092020190810191506146c4565b6001600160a01b0316815260208101919091526040015f205460ff16613a2457828282818110613a0e57613a0e614854565b61398c92602060609092020190810191506146c4565b828282818110613a3657613a36614854565b9050606002016020016020810190613a4e91906146c4565b6001600160a01b0316639b3ba79f6040518163ffffffff1660e01b8152600401602060405180830381865afa158015613a89573d5f803e3d5ffd5b505050506040513d601f19601f82011682018060405250810190613aad9190614868565b5f03613b0257828282818110613ac557613ac5614854565b9050606002016020016020810190613add91906146c4565b604051635e49a2c160e01b81526001600160a01b039091166004820152602401610aa5565b6001016137b5565b60208082015182516040808501518151639b3ba79f60e01b815291515f95919286926001600160a01b03871692639b3ba79f9260048082019392918290030181865afa158015613b5c573d5f803e3d5ffd5b505050506040513d601f19601f82011682018060405250810190613b809190614868565b600d549091506001600160a01b03858116911614613c88575f846001600160a01b0316632c4e722e6040518163ffffffff1660e01b8152600401602060405180830381865afa158015613bd5573d5f803e3d5ffd5b505050506040513d601f19601f82011682018060405250810190613bf99190614868565b90505f846001600160a01b0316632c4e722e6040518163ffffffff1660e01b8152600401602060405180830381865afa158015613c38573d5f803e3d5ffd5b505050506040513d601f19601f82011682018060405250810190613c5c9190614868565b905080821015613c8557858282604051630cf7396960e11b8152600401610aa593929190614af7565b50505b5f846001600160a01b03166301e1d1146040518163ffffffff1660e01b8152600401602060405180830381865afa158015613cc5573d5f803e3d5ffd5b505050506040513d601f19601f82011682018060405250810190613ce99190614868565b905081613cf6848361482d565b1115613d205760405163077fc1ab60e51b81526001600160a01b0386166004820152602401610aa5565b613d2b8486856143d5565b509095945050505050565b6001600160a01b038316613d60578060025f828254613d55919061482d565b90915550613dbd9050565b6001600160a01b0383165f9081526020819052604090205481811015613d9f5783818360405163391434e360e21b8152600401610aa593929190614af7565b6001600160a01b0384165f9081526020819052604090209082900390555b6001600160a01b038216613dd957600280548290039055613df7565b6001600160a01b0382165f9081526020819052604090208054820190555b816001600160a01b0316836001600160a01b03167fddf252ad1be2c89b69c2b068fc378daa952ba7f163c4a11628f55a4df523b3ef83604051613e3c91815260200190565b60405180910390a3505050565b5f61098982613e5a6012600a614b3f565b613e65906064614b4a565b101590565b5f610d89828461482d565b5f838282821580613e84575085155b15613ea9578515613e9d57613e985f613748565b613e9f565b845b9350505050610d89565b613eb4600287614b75565b15613ebf5782613ec1565b815b90505f613ecf600284614b2c565b90506002870496505b8615613f43578384028485820414613eee575f80fd5b81810181811015613efd575f80fd5b8490049450506001871615613f38578382028285820414158515151615613f22575f80fd5b81810181811015613f31575f80fd5b8490049250505b600287049650613ed8565b509695505050505050565b5f613f5b6012600a614b3f565b613f66906064614b4a565b613f708385614b4a565b610d899190614b2c565b6040516001600160a01b0384811660248301528381166044830152606482018390526129e59186918216906323b872dd906084015b604051602081830303815290604052915060e01b6020820180516001600160e01b038381831617835250505050614437565b6001600160a01b03821661400a5760405163ec442f0560e01b81525f6004820152602401610aa5565b6137695f8383613d36565b5f5b8151811015610acb575f61402c82600161482d565b90505b82518110156141645782818151811061404a5761404a614854565b602002602001015183838151811061406457614064614854565b6020026020010151111561415c5782818151811061408457614084614854565b602002602001015183838151811061409e5761409e614854565b60200260200101518484815181106140b8576140b8614854565b602002602001018584815181106140d1576140d1614854565b60200260200101828152508281525050508381815181106140f4576140f4614854565b602002602001015184838151811061410e5761410e614854565b602002602001015185848151811061412857614128614854565b6020026020010186848151811061414157614141614854565b6001600160a01b039384166020918202929092010152911690525b60010161402f565b50600101614017565b6001600160a01b03821661419657604051634b637e8f60e11b81525f6004820152602401610aa5565b613769825f83613d36565b6040516001600160a01b03838116602483015260448201839052610acb91859182169063a9059cbb90606401613faf565b5f8190505f816001600160a01b0316639b3ba79f6040518163ffffffff1660e01b8152600401602060405180830381865afa158015614213573d5f803e3d5ffd5b505050506040513d601f19601f820116820180604052508101906142379190614868565b111561426157604051631f80e32960e31b81526001600160a01b0383166004820152602401610aa5565b806001600160a01b03166301e1d1146040518163ffffffff1660e01b8152600401602060405180830381865afa15801561429d573d5f803e3d5ffd5b505050506040513d601f19601f820116820180604052508101906142c19190614868565b156137695760405163ca4a18b360e01b81526001600160a01b0383166004820152602401610aa5565b5f838302815f1985870982811083820303915050805f0361431e5783828161431457614314614b18565b0492505050610d89565b80841161433e5760405163227bc15360e01b815260040160405180910390fd5b5f848688095f868103871696879004966002600389028118808a02820302808a02820302808a02820302808a02820302808a02820302808a02909103029181900381900460010186841190950394909402919094039290920491909117919091029150509392505050565b5f60028260038111156143be576143be614b88565b6143c89190614b9c565b60ff166001149050919050565b604051636c54701d60e11b8152600481018290526001600160a01b03838116602483015284169063d8a8e03a906044015f604051808303815f87803b15801561441c575f80fd5b505af115801561442e573d5f803e3d5ffd5b50505050505050565b5f61444b6001600160a01b03841683614498565b905080515f1415801561446f57508080602001905181019061446d91906148b7565b155b15610acb57604051635274afe760e01b81526001600160a01b0384166004820152602401610aa5565b6060610d8983835f845f80856001600160a01b031684866040516144bc9190614bbd565b5f6040518083038185875af1925050503d805f81146144f6576040519150601f19603f3d011682016040523d82523d5f602084013e6144fb565b606091505b5091509150612b3186838360608261451b5761451682614562565b610d89565b815115801561453257506001600160a01b0384163b155b1561455b57604051639996b31560e01b81526001600160a01b0385166004820152602401610aa5565b5080610d89565b8051156145725780518082602001fd5b604051630a12f52160e11b815260040160405180910390fd5b602081525f82518060208401528060208501604085015e5f604082850101526040601f19601f83011684010191505092915050565b5f602082840312156145d0575f80fd5b5035919050565b6001600160a01b03811681146110ab575f80fd5b5f80604083850312156145fc575f80fd5b8235614607816145d7565b946020939093013593505050565b5f8060208385031215614626575f80fd5b823567ffffffffffffffff81111561463c575f80fd5b8301601f8101851361464c575f80fd5b803567ffffffffffffffff811115614662575f80fd5b856020606083028401011115614676575f80fd5b6020919091019590945092505050565b5f805f60608486031215614698575f80fd5b83356146a3816145d7565b925060208401356146b3816145d7565b929592945050506040919091013590565b5f602082840312156146d4575f80fd5b8135610d89816145d7565b5f80604083850312156146f0575f80fd5b823591506020830135614702816145d7565b809150509250929050565b5f805f6060848603121561471f575f80fd5b833592506020840135614731816145d7565b91506040840135614741816145d7565b809150509250925092565b5f806020838503121561475d575f80fd5b823567ffffffffffffffff811115614773575f80fd5b8301601f81018513614783575f80fd5b803567ffffffffffffffff811115614799575f80fd5b8560208260051b8401011115614676575f80fd5b5f80604083850312156147be575f80fd5b82356147c9816145d7565b91506020830135614702816145d7565b602080825282518282018190525f918401906040840190835b81811015613d2b5783516001600160a01b03168352602093840193909201916001016147f2565b634e487b7160e01b5f52601160045260245ffd5b8082018082111561098957610989614819565b634e487b7160e01b5f52604160045260245ffd5b634e487b7160e01b5f52603260045260245ffd5b5f60208284031215614878575f80fd5b5051919050565b600181811c9082168061489357607f821691505b6020821081036148b157634e487b7160e01b5f52602260045260245ffd5b50919050565b5f602082840312156148c7575f80fd5b81518015158114610d89575f80fd5b8181038181111561098957610989614819565b60ff818116838216019081111561098957610989614819565b6001815b600184111561493d5780850481111561492157614921614819565b600184161561492f57908102905b60019390931c928002614906565b935093915050565b5f8261495357506001610989565b8161495f57505f610989565b8160018114614975576002811461497f5761499b565b6001915050610989565b60ff84111561499057614990614819565b50506001821b610989565b5060208310610133831016604e8410600b84101617156149be575081810a610989565b6149ca5f198484614902565b805f19048211156149dd576149dd614819565b029392505050565b5f610d8960ff841683614945565b5f6060828403128015614a04575f80fd5b506040516060810167ffffffffffffffff81118282101715614a3457634e487b7160e01b5f52604160045260245ffd5b6040528235614a42816145d7565b81526020830135614a52816145d7565b60208201526040928301359281019290925250919050565b602080825281018290525f8360408301825b85811015614ad2578235614a8f816145d7565b6001600160a01b031682526020830135614aa8816145d7565b6001600160a01b031660208301526040838101359083015260609283019290910190600101614a7c565b5095945050505050565b5f60208284031215614aec575f80fd5b8151610d89816145d7565b6001600160a01b039390931683526020830191909152604082015260600190565b634e487b7160e01b5f52601260045260245ffd5b5f82614b3a57614b3a614b18565b500490565b5f610d898383614945565b808202811582820484141761098957610989614819565b634e487b7160e01b5f52603160045260245ffd5b5f82614b8357614b83614b18565b500690565b634e487b7160e01b5f52602160045260245ffd5b5f60ff831680614bae57614bae614b18565b8060ff84160691505092915050565b5f82518060208501845e5f92019182525091905056fee68a55afda2dca8343871fe0e5575a383291a40ae7d53e4dee12faf79cde144ea26469706673582212203e33c0db1723143a80101128fd5367a7697412c4655651e66a00d69d044927e464736f6c634300081a0033","linkReferences":{}},"methodIdentifiers":{"MAX_REBALANCE_OPERATIONS()":"5ed975e5","addArk(address)":"e37d5b7f","addArks(address[])":"cc5b1e55","adjustBuffer((address,address,uint256)[])":"0e4a840d","allowance(address,address)":"dd62ed3e","approve(address,uint256)":"095ea7b3","arks(uint256)":"ff32a42a","asset()":"38d52e0f","balanceOf(address)":"70a08231","bufferArk()":"c8169aa1","convertToAssets(uint256)":"07a2d13a","convertToShares(uint256)":"c6e6f592","decimals()":"313ce567","deposit(uint256,address)":"6e553f65","depositCap()":"dbd5edc7","emergencyShutdown()":"3403c2fc","estimateAccruedTip()":"68482626","forceRebalance((address,address,uint256)[])":"0cf0654e","forceWithdraw(uint256,address,address)":"7943fdc2","getArks()":"f1cd665b","getCooldown()":"218e4a15","getLastActionTimestamp()":"3152d5d1","isArkActive(address)":"d25dd101","lastTipTimestamp()":"71aedbc1","manager()":"481c6a75","maxDeposit(address)":"402d267d","maxForceWithdraw(address)":"4834bd86","maxMint(address)":"c63d75b6","maxRedeem(address)":"d905777e","maxWithdraw(address)":"ce96cb77","minFundsBufferBalance()":"000dbedd","mint(uint256,address)":"94bf804d","name()":"06fdde03","previewDeposit(uint256)":"ef8b30f7","previewMint(uint256)":"b3d7f6b9","previewRedeem(uint256)":"4cdad506","previewWithdraw(uint256)":"0a28a477","rebalance((address,address,uint256)[])":"b64d620e","redeem(uint256,address,address)":"ba087652","removeArk(address)":"96c25a38","setDepositCap(uint256)":"86651203","setMaxAllocation(address,uint256)":"bb5adaea","setMinBufferBalance(uint256)":"9170b668","setTipJar()":"18d08d0b","setTipRate(uint256)":"5822198f","symbol()":"95d89b41","tip()":"2755cd2d","tipJar()":"7aaceb95","tipRate()":"498e76a0","totalAssets()":"01e1d114","totalSupply()":"18160ddd","transfer(address,uint256)":"a9059cbb","transferFrom(address,address,uint256)":"23b872dd","updateRebalanceCooldown(uint256)":"dc9de0a8","withdraw(uint256,address,address)":"b460af94"},"id":60}