{"abi":[{"type":"constructor","inputs":[{"name":"params","type":"tuple","internalType":"struct FleetCommanderParams","components":[{"name":"name","type":"string","internalType":"string"},{"name":"details","type":"string","internalType":"string"},{"name":"symbol","type":"string","internalType":"string"},{"name":"configurationManager","type":"address","internalType":"address"},{"name":"accessManager","type":"address","internalType":"address"},{"name":"asset","type":"address","internalType":"address"},{"name":"initialMinimumBufferBalance","type":"uint256","internalType":"uint256"},{"name":"initialRebalanceCooldown","type":"uint256","internalType":"uint256"},{"name":"depositCap","type":"uint256","internalType":"uint256"},{"name":"initialTipRate","type":"uint256","internalType":"Percentage"}]}],"stateMutability":"nonpayable"},{"type":"function","name":"DEFAULT_MAX_REBALANCE_OPERATIONS","inputs":[],"outputs":[{"name":"","type":"uint256","internalType":"uint256"}],"stateMutability":"view"},{"type":"function","name":"INITIAL_MINIMUM_PAUSE_TIME","inputs":[],"outputs":[{"name":"","type":"uint256","internalType":"uint256"}],"stateMutability":"view"},{"type":"function","name":"MAX_REBALANCE_OPERATIONS","inputs":[],"outputs":[{"name":"","type":"uint256","internalType":"uint256"}],"stateMutability":"view"},{"type":"function","name":"addArk","inputs":[{"name":"ark","type":"address","internalType":"address"}],"outputs":[],"stateMutability":"nonpayable"},{"type":"function","name":"addArks","inputs":[{"name":"_arkAddresses","type":"address[]","internalType":"address[]"}],"outputs":[],"stateMutability":"nonpayable"},{"type":"function","name":"adjustBuffer","inputs":[{"name":"rebalanceData","type":"tuple[]","internalType":"struct RebalanceData[]","components":[{"name":"fromArk","type":"address","internalType":"address"},{"name":"toArk","type":"address","internalType":"address"},{"name":"amount","type":"uint256","internalType":"uint256"},{"name":"boardData","type":"bytes","internalType":"bytes"},{"name":"disembarkData","type":"bytes","internalType":"bytes"}]}],"outputs":[],"stateMutability":"nonpayable"},{"type":"function","name":"allowance","inputs":[{"name":"owner","type":"address","internalType":"address"},{"name":"spender","type":"address","internalType":"address"}],"outputs":[{"name":"","type":"uint256","internalType":"uint256"}],"stateMutability":"view"},{"type":"function","name":"approve","inputs":[{"name":"spender","type":"address","internalType":"address"},{"name":"value","type":"uint256","internalType":"uint256"}],"outputs":[{"name":"","type":"bool","internalType":"bool"}],"stateMutability":"nonpayable"},{"type":"function","name":"arks","inputs":[{"name":"index","type":"uint256","internalType":"uint256"}],"outputs":[{"name":"","type":"address","internalType":"address"}],"stateMutability":"view"},{"type":"function","name":"asset","inputs":[],"outputs":[{"name":"","type":"address","internalType":"address"}],"stateMutability":"view"},{"type":"function","name":"balanceOf","inputs":[{"name":"account","type":"address","internalType":"address"}],"outputs":[{"name":"","type":"uint256","internalType":"uint256"}],"stateMutability":"view"},{"type":"function","name":"bufferArk","inputs":[],"outputs":[{"name":"","type":"address","internalType":"address"}],"stateMutability":"view"},{"type":"function","name":"config","inputs":[],"outputs":[{"name":"bufferArk","type":"address","internalType":"contract IArk"},{"name":"minimumBufferBalance","type":"uint256","internalType":"uint256"},{"name":"depositCap","type":"uint256","internalType":"uint256"},{"name":"maxRebalanceOperations","type":"uint256","internalType":"uint256"},{"name":"stakingRewardsManager","type":"address","internalType":"address"}],"stateMutability":"view"},{"type":"function","name":"configurationManager","inputs":[],"outputs":[{"name":"","type":"address","internalType":"contract IConfigurationManager"}],"stateMutability":"view"},{"type":"function","name":"convertToAssets","inputs":[{"name":"shares","type":"uint256","internalType":"uint256"}],"outputs":[{"name":"","type":"uint256","internalType":"uint256"}],"stateMutability":"view"},{"type":"function","name":"convertToShares","inputs":[{"name":"assets","type":"uint256","internalType":"uint256"}],"outputs":[{"name":"","type":"uint256","internalType":"uint256"}],"stateMutability":"view"},{"type":"function","name":"decimals","inputs":[],"outputs":[{"name":"","type":"uint8","internalType":"uint8"}],"stateMutability":"view"},{"type":"function","name":"deposit","inputs":[{"name":"assets","type":"uint256","internalType":"uint256"},{"name":"receiver","type":"address","internalType":"address"}],"outputs":[{"name":"shares","type":"uint256","internalType":"uint256"}],"stateMutability":"nonpayable"},{"type":"function","name":"deposit","inputs":[{"name":"assets","type":"uint256","internalType":"uint256"},{"name":"receiver","type":"address","internalType":"address"},{"name":"referralCode","type":"bytes","internalType":"bytes"}],"outputs":[{"name":"","type":"uint256","internalType":"uint256"}],"stateMutability":"nonpayable"},{"type":"function","name":"details","inputs":[],"outputs":[{"name":"","type":"string","internalType":"string"}],"stateMutability":"view"},{"type":"function","name":"estimateAccruedTip","inputs":[],"outputs":[{"name":"","type":"uint256","internalType":"uint256"}],"stateMutability":"view"},{"type":"function","name":"fleetCommanderRewardsManagerFactory","inputs":[],"outputs":[{"name":"","type":"address","internalType":"address"}],"stateMutability":"view"},{"type":"function","name":"forceRebalance","inputs":[{"name":"rebalanceData","type":"tuple[]","internalType":"struct RebalanceData[]","components":[{"name":"fromArk","type":"address","internalType":"address"},{"name":"toArk","type":"address","internalType":"address"},{"name":"amount","type":"uint256","internalType":"uint256"},{"name":"boardData","type":"bytes","internalType":"bytes"},{"name":"disembarkData","type":"bytes","internalType":"bytes"}]}],"outputs":[],"stateMutability":"nonpayable"},{"type":"function","name":"generateRole","inputs":[{"name":"roleName","type":"uint8","internalType":"enum ContractSpecificRoles"},{"name":"roleTargetContract","type":"address","internalType":"address"}],"outputs":[{"name":"","type":"bytes32","internalType":"bytes32"}],"stateMutability":"pure"},{"type":"function","name":"getArks","inputs":[],"outputs":[{"name":"","type":"address[]","internalType":"address[]"}],"stateMutability":"view"},{"type":"function","name":"getConfig","inputs":[],"outputs":[{"name":"","type":"tuple","internalType":"struct FleetConfig","components":[{"name":"bufferArk","type":"address","internalType":"contract IArk"},{"name":"minimumBufferBalance","type":"uint256","internalType":"uint256"},{"name":"depositCap","type":"uint256","internalType":"uint256"},{"name":"maxRebalanceOperations","type":"uint256","internalType":"uint256"},{"name":"stakingRewardsManager","type":"address","internalType":"address"}]}],"stateMutability":"view"},{"type":"function","name":"getCooldown","inputs":[],"outputs":[{"name":"","type":"uint256","internalType":"uint256"}],"stateMutability":"view"},{"type":"function","name":"getEffectiveArkDepositCap","inputs":[{"name":"ark","type":"address","internalType":"contract IArk"}],"outputs":[{"name":"","type":"uint256","internalType":"uint256"}],"stateMutability":"view"},{"type":"function","name":"getLastActionTimestamp","inputs":[],"outputs":[{"name":"","type":"uint256","internalType":"uint256"}],"stateMutability":"view"},{"type":"function","name":"harborCommand","inputs":[],"outputs":[{"name":"","type":"address","internalType":"address"}],"stateMutability":"view"},{"type":"function","name":"isArkActive","inputs":[{"name":"arkAddress","type":"address","internalType":"address"}],"outputs":[{"name":"","type":"bool","internalType":"bool"}],"stateMutability":"view"},{"type":"function","name":"isArkWithdrawable","inputs":[{"name":"ark","type":"address","internalType":"address"}],"outputs":[{"name":"isWithdrawable","type":"bool","internalType":"bool"}],"stateMutability":"view"},{"type":"function","name":"lastTipTimestamp","inputs":[],"outputs":[{"name":"","type":"uint256","internalType":"uint256"}],"stateMutability":"view"},{"type":"function","name":"maxBufferRedeem","inputs":[{"name":"owner","type":"address","internalType":"address"}],"outputs":[{"name":"_maxBufferRedeem","type":"uint256","internalType":"uint256"}],"stateMutability":"view"},{"type":"function","name":"maxBufferWithdraw","inputs":[{"name":"owner","type":"address","internalType":"address"}],"outputs":[{"name":"_maxBufferWithdraw","type":"uint256","internalType":"uint256"}],"stateMutability":"view"},{"type":"function","name":"maxDeposit","inputs":[{"name":"owner","type":"address","internalType":"address"}],"outputs":[{"name":"_maxDeposit","type":"uint256","internalType":"uint256"}],"stateMutability":"view"},{"type":"function","name":"maxMint","inputs":[{"name":"owner","type":"address","internalType":"address"}],"outputs":[{"name":"_maxMint","type":"uint256","internalType":"uint256"}],"stateMutability":"view"},{"type":"function","name":"maxRedeem","inputs":[{"name":"owner","type":"address","internalType":"address"}],"outputs":[{"name":"_maxRedeem","type":"uint256","internalType":"uint256"}],"stateMutability":"view"},{"type":"function","name":"maxWithdraw","inputs":[{"name":"owner","type":"address","internalType":"address"}],"outputs":[{"name":"_maxWithdraw","type":"uint256","internalType":"uint256"}],"stateMutability":"view"},{"type":"function","name":"minimumPauseTime","inputs":[],"outputs":[{"name":"","type":"uint256","internalType":"uint256"}],"stateMutability":"view"},{"type":"function","name":"mint","inputs":[{"name":"shares","type":"uint256","internalType":"uint256"},{"name":"receiver","type":"address","internalType":"address"}],"outputs":[{"name":"assets","type":"uint256","internalType":"uint256"}],"stateMutability":"nonpayable"},{"type":"function","name":"name","inputs":[],"outputs":[{"name":"","type":"string","internalType":"string"}],"stateMutability":"view"},{"type":"function","name":"pause","inputs":[],"outputs":[],"stateMutability":"nonpayable"},{"type":"function","name":"pauseStartTime","inputs":[],"outputs":[{"name":"","type":"uint256","internalType":"uint256"}],"stateMutability":"view"},{"type":"function","name":"paused","inputs":[],"outputs":[{"name":"","type":"bool","internalType":"bool"}],"stateMutability":"view"},{"type":"function","name":"previewDeposit","inputs":[{"name":"assets","type":"uint256","internalType":"uint256"}],"outputs":[{"name":"","type":"uint256","internalType":"uint256"}],"stateMutability":"view"},{"type":"function","name":"previewMint","inputs":[{"name":"shares","type":"uint256","internalType":"uint256"}],"outputs":[{"name":"","type":"uint256","internalType":"uint256"}],"stateMutability":"view"},{"type":"function","name":"previewRedeem","inputs":[{"name":"shares","type":"uint256","internalType":"uint256"}],"outputs":[{"name":"","type":"uint256","internalType":"uint256"}],"stateMutability":"view"},{"type":"function","name":"previewWithdraw","inputs":[{"name":"assets","type":"uint256","internalType":"uint256"}],"outputs":[{"name":"","type":"uint256","internalType":"uint256"}],"stateMutability":"view"},{"type":"function","name":"raft","inputs":[],"outputs":[{"name":"","type":"address","internalType":"address"}],"stateMutability":"view"},{"type":"function","name":"rebalance","inputs":[{"name":"rebalanceData","type":"tuple[]","internalType":"struct RebalanceData[]","components":[{"name":"fromArk","type":"address","internalType":"address"},{"name":"toArk","type":"address","internalType":"address"},{"name":"amount","type":"uint256","internalType":"uint256"},{"name":"boardData","type":"bytes","internalType":"bytes"},{"name":"disembarkData","type":"bytes","internalType":"bytes"}]}],"outputs":[],"stateMutability":"nonpayable"},{"type":"function","name":"redeem","inputs":[{"name":"shares","type":"uint256","internalType":"uint256"},{"name":"receiver","type":"address","internalType":"address"},{"name":"owner","type":"address","internalType":"address"}],"outputs":[{"name":"assets","type":"uint256","internalType":"uint256"}],"stateMutability":"nonpayable"},{"type":"function","name":"redeemFromArks","inputs":[{"name":"shares","type":"uint256","internalType":"uint256"},{"name":"receiver","type":"address","internalType":"address"},{"name":"owner","type":"address","internalType":"address"}],"outputs":[{"name":"totalAssetsToWithdraw","type":"uint256","internalType":"uint256"}],"stateMutability":"nonpayable"},{"type":"function","name":"redeemFromBuffer","inputs":[{"name":"shares","type":"uint256","internalType":"uint256"},{"name":"receiver","type":"address","internalType":"address"},{"name":"owner","type":"address","internalType":"address"}],"outputs":[{"name":"assets","type":"uint256","internalType":"uint256"}],"stateMutability":"nonpayable"},{"type":"function","name":"removeArk","inputs":[{"name":"ark","type":"address","internalType":"address"}],"outputs":[],"stateMutability":"nonpayable"},{"type":"function","name":"setArkDepositCap","inputs":[{"name":"ark","type":"address","internalType":"address"},{"name":"newDepositCap","type":"uint256","internalType":"uint256"}],"outputs":[],"stateMutability":"nonpayable"},{"type":"function","name":"setArkMaxDepositPercentageOfTVL","inputs":[{"name":"ark","type":"address","internalType":"address"},{"name":"newMaxDepositPercentageOfTVL","type":"uint256","internalType":"Percentage"}],"outputs":[],"stateMutability":"nonpayable"},{"type":"function","name":"setArkMaxRebalanceInflow","inputs":[{"name":"ark","type":"address","internalType":"address"},{"name":"newMaxRebalanceInflow","type":"uint256","internalType":"uint256"}],"outputs":[],"stateMutability":"nonpayable"},{"type":"function","name":"setArkMaxRebalanceOutflow","inputs":[{"name":"ark","type":"address","internalType":"address"},{"name":"newMaxRebalanceOutflow","type":"uint256","internalType":"uint256"}],"outputs":[],"stateMutability":"nonpayable"},{"type":"function","name":"setFleetDepositCap","inputs":[{"name":"newCap","type":"uint256","internalType":"uint256"}],"outputs":[],"stateMutability":"nonpayable"},{"type":"function","name":"setMaxRebalanceOperations","inputs":[{"name":"newMaxRebalanceOperations","type":"uint256","internalType":"uint256"}],"outputs":[],"stateMutability":"nonpayable"},{"type":"function","name":"setMinimumBufferBalance","inputs":[{"name":"newMinimumBalance","type":"uint256","internalType":"uint256"}],"outputs":[],"stateMutability":"nonpayable"},{"type":"function","name":"setMinimumPauseTime","inputs":[{"name":"_newMinimumPauseTime","type":"uint256","internalType":"uint256"}],"outputs":[],"stateMutability":"nonpayable"},{"type":"function","name":"setStakingRewardsManager","inputs":[{"name":"newStakingRewardsManager","type":"address","internalType":"address"}],"outputs":[],"stateMutability":"nonpayable"},{"type":"function","name":"setTipRate","inputs":[{"name":"newTipRate","type":"uint256","internalType":"Percentage"}],"outputs":[],"stateMutability":"nonpayable"},{"type":"function","name":"symbol","inputs":[],"outputs":[{"name":"","type":"string","internalType":"string"}],"stateMutability":"view"},{"type":"function","name":"tip","inputs":[],"outputs":[{"name":"","type":"uint256","internalType":"uint256"}],"stateMutability":"nonpayable"},{"type":"function","name":"tipJar","inputs":[],"outputs":[{"name":"","type":"address","internalType":"address"}],"stateMutability":"view"},{"type":"function","name":"tipRate","inputs":[],"outputs":[{"name":"","type":"uint256","internalType":"Percentage"}],"stateMutability":"view"},{"type":"function","name":"totalAssets","inputs":[],"outputs":[{"name":"","type":"uint256","internalType":"uint256"}],"stateMutability":"view"},{"type":"function","name":"totalSupply","inputs":[],"outputs":[{"name":"","type":"uint256","internalType":"uint256"}],"stateMutability":"view"},{"type":"function","name":"transfer","inputs":[{"name":"to","type":"address","internalType":"address"},{"name":"amount","type":"uint256","internalType":"uint256"}],"outputs":[{"name":"","type":"bool","internalType":"bool"}],"stateMutability":"nonpayable"},{"type":"function","name":"transferFrom","inputs":[{"name":"from","type":"address","internalType":"address"},{"name":"to","type":"address","internalType":"address"},{"name":"amount","type":"uint256","internalType":"uint256"}],"outputs":[{"name":"","type":"bool","internalType":"bool"}],"stateMutability":"nonpayable"},{"type":"function","name":"treasury","inputs":[],"outputs":[{"name":"","type":"address","internalType":"address"}],"stateMutability":"view"},{"type":"function","name":"unpause","inputs":[],"outputs":[],"stateMutability":"nonpayable"},{"type":"function","name":"updateRebalanceCooldown","inputs":[{"name":"newCooldown","type":"uint256","internalType":"uint256"}],"outputs":[],"stateMutability":"nonpayable"},{"type":"function","name":"withdraw","inputs":[{"name":"assets","type":"uint256","internalType":"uint256"},{"name":"receiver","type":"address","internalType":"address"},{"name":"owner","type":"address","internalType":"address"}],"outputs":[{"name":"shares","type":"uint256","internalType":"uint256"}],"stateMutability":"nonpayable"},{"type":"function","name":"withdrawFromArks","inputs":[{"name":"assets","type":"uint256","internalType":"uint256"},{"name":"receiver","type":"address","internalType":"address"},{"name":"owner","type":"address","internalType":"address"}],"outputs":[{"name":"totalSharesToRedeem","type":"uint256","internalType":"uint256"}],"stateMutability":"nonpayable"},{"type":"function","name":"withdrawFromBuffer","inputs":[{"name":"assets","type":"uint256","internalType":"uint256"},{"name":"receiver","type":"address","internalType":"address"},{"name":"owner","type":"address","internalType":"address"}],"outputs":[{"name":"shares","type":"uint256","internalType":"uint256"}],"stateMutability":"nonpayable"},{"type":"function","name":"withdrawableTotalAssets","inputs":[],"outputs":[{"name":"","type":"uint256","internalType":"uint256"}],"stateMutability":"view"},{"type":"event","name":"Approval","inputs":[{"name":"owner","type":"address","indexed":true,"internalType":"address"},{"name":"spender","type":"address","indexed":true,"internalType":"address"},{"name":"value","type":"uint256","indexed":false,"internalType":"uint256"}],"anonymous":false},{"type":"event","name":"ArkAdded","inputs":[{"name":"ark","type":"address","indexed":true,"internalType":"address"}],"anonymous":false},{"type":"event","name":"ArkRemoved","inputs":[{"name":"ark","type":"address","indexed":true,"internalType":"address"}],"anonymous":false},{"type":"event","name":"CooldownUpdated","inputs":[{"name":"previousCooldown","type":"uint256","indexed":false,"internalType":"uint256"},{"name":"newCooldown","type":"uint256","indexed":false,"internalType":"uint256"}],"anonymous":false},{"type":"event","name":"Deposit","inputs":[{"name":"sender","type":"address","indexed":true,"internalType":"address"},{"name":"owner","type":"address","indexed":true,"internalType":"address"},{"name":"assets","type":"uint256","indexed":false,"internalType":"uint256"},{"name":"shares","type":"uint256","indexed":false,"internalType":"uint256"}],"anonymous":false},{"type":"event","name":"FeeAddressUpdated","inputs":[{"name":"newAddress","type":"address","indexed":false,"internalType":"address"}],"anonymous":false},{"type":"event","name":"FleetCommanderBufferAdjusted","inputs":[{"name":"keeper","type":"address","indexed":true,"internalType":"address"},{"name":"totalMoved","type":"uint256","indexed":false,"internalType":"uint256"}],"anonymous":false},{"type":"event","name":"FleetCommanderDepositCapUpdated","inputs":[{"name":"newCap","type":"uint256","indexed":false,"internalType":"uint256"}],"anonymous":false},{"type":"event","name":"FleetCommanderMaxRebalanceOperationsUpdated","inputs":[{"name":"newMaxRebalanceOperations","type":"uint256","indexed":false,"internalType":"uint256"}],"anonymous":false},{"type":"event","name":"FleetCommanderRedeemedFromArks","inputs":[{"name":"owner","type":"address","indexed":true,"internalType":"address"},{"name":"receiver","type":"address","indexed":false,"internalType":"address"},{"name":"totalRedeemed","type":"uint256","indexed":false,"internalType":"uint256"}],"anonymous":false},{"type":"event","name":"FleetCommanderReferral","inputs":[{"name":"referee","type":"address","indexed":true,"internalType":"address"},{"name":"referralCode","type":"bytes","indexed":true,"internalType":"bytes"}],"anonymous":false},{"type":"event","name":"FleetCommanderStakingRewardsUpdated","inputs":[{"name":"newStakingRewards","type":"address","indexed":false,"internalType":"address"}],"anonymous":false},{"type":"event","name":"FleetCommanderWithdrawnFromArks","inputs":[{"name":"owner","type":"address","indexed":true,"internalType":"address"},{"name":"receiver","type":"address","indexed":false,"internalType":"address"},{"name":"totalWithdrawn","type":"uint256","indexed":false,"internalType":"uint256"}],"anonymous":false},{"type":"event","name":"FleetCommanderminimumBufferBalanceUpdated","inputs":[{"name":"newBalance","type":"uint256","indexed":false,"internalType":"uint256"}],"anonymous":false},{"type":"event","name":"FundsBufferBalanceUpdated","inputs":[{"name":"user","type":"address","indexed":true,"internalType":"address"},{"name":"prevBalance","type":"uint256","indexed":false,"internalType":"uint256"},{"name":"newBalance","type":"uint256","indexed":false,"internalType":"uint256"}],"anonymous":false},{"type":"event","name":"FundsQueueRefilled","inputs":[{"name":"keeper","type":"address","indexed":true,"internalType":"address"},{"name":"prevBalance","type":"uint256","indexed":false,"internalType":"uint256"},{"name":"newBalance","type":"uint256","indexed":false,"internalType":"uint256"}],"anonymous":false},{"type":"event","name":"MinFundsQueueBalanceUpdated","inputs":[{"name":"keeper","type":"address","indexed":true,"internalType":"address"},{"name":"newBalance","type":"uint256","indexed":false,"internalType":"uint256"}],"anonymous":false},{"type":"event","name":"MinimumPauseTimeUpdated","inputs":[{"name":"newMinimumPauseTime","type":"uint256","indexed":false,"internalType":"uint256"}],"anonymous":false},{"type":"event","name":"Paused","inputs":[{"name":"account","type":"address","indexed":false,"internalType":"address"}],"anonymous":false},{"type":"event","name":"QueuedFundsCommitted","inputs":[{"name":"keeper","type":"address","indexed":true,"internalType":"address"},{"name":"prevBalance","type":"uint256","indexed":false,"internalType":"uint256"},{"name":"newBalance","type":"uint256","indexed":false,"internalType":"uint256"}],"anonymous":false},{"type":"event","name":"Rebalanced","inputs":[{"name":"keeper","type":"address","indexed":true,"internalType":"address"},{"name":"rebalances","type":"tuple[]","indexed":false,"internalType":"struct RebalanceData[]","components":[{"name":"fromArk","type":"address","internalType":"address"},{"name":"toArk","type":"address","internalType":"address"},{"name":"amount","type":"uint256","internalType":"uint256"},{"name":"boardData","type":"bytes","internalType":"bytes"},{"name":"disembarkData","type":"bytes","internalType":"bytes"}]}],"anonymous":false},{"type":"event","name":"TipAccrued","inputs":[{"name":"tipAmount","type":"uint256","indexed":false,"internalType":"uint256"}],"anonymous":false},{"type":"event","name":"TipJarUpdated","inputs":[{"name":"newTipJar","type":"address","indexed":false,"internalType":"address"}],"anonymous":false},{"type":"event","name":"TipRateUpdated","inputs":[{"name":"newTipRate","type":"uint256","indexed":false,"internalType":"Percentage"}],"anonymous":false},{"type":"event","name":"Transfer","inputs":[{"name":"from","type":"address","indexed":true,"internalType":"address"},{"name":"to","type":"address","indexed":true,"internalType":"address"},{"name":"value","type":"uint256","indexed":false,"internalType":"uint256"}],"anonymous":false},{"type":"event","name":"Unpaused","inputs":[{"name":"account","type":"address","indexed":false,"internalType":"address"}],"anonymous":false},{"type":"event","name":"Withdraw","inputs":[{"name":"sender","type":"address","indexed":true,"internalType":"address"},{"name":"receiver","type":"address","indexed":true,"internalType":"address"},{"name":"owner","type":"address","indexed":true,"internalType":"address"},{"name":"assets","type":"uint256","indexed":false,"internalType":"uint256"},{"name":"shares","type":"uint256","indexed":false,"internalType":"uint256"}],"anonymous":false},{"type":"error","name":"CallerIsNotAdmin","inputs":[{"name":"caller","type":"address","internalType":"address"}]},{"type":"error","name":"CallerIsNotAuthorizedToBoard","inputs":[{"name":"caller","type":"address","internalType":"address"}]},{"type":"error","name":"CallerIsNotCommander","inputs":[{"name":"caller","type":"address","internalType":"address"}]},{"type":"error","name":"CallerIsNotContractSpecificRole","inputs":[{"name":"caller","type":"address","internalType":"address"},{"name":"role","type":"bytes32","internalType":"bytes32"}]},{"type":"error","name":"CallerIsNotCurator","inputs":[{"name":"caller","type":"address","internalType":"address"}]},{"type":"error","name":"CallerIsNotDecayController","inputs":[{"name":"caller","type":"address","internalType":"address"}]},{"type":"error","name":"CallerIsNotGovernor","inputs":[{"name":"caller","type":"address","internalType":"address"}]},{"type":"error","name":"CallerIsNotGuardian","inputs":[{"name":"caller","type":"address","internalType":"address"}]},{"type":"error","name":"CallerIsNotGuardianOrGovernor","inputs":[{"name":"caller","type":"address","internalType":"address"}]},{"type":"error","name":"CallerIsNotKeeper","inputs":[{"name":"caller","type":"address","internalType":"address"}]},{"type":"error","name":"CallerIsNotRaft","inputs":[{"name":"caller","type":"address","internalType":"address"}]},{"type":"error","name":"CallerIsNotRaftOrCommander","inputs":[{"name":"caller","type":"address","internalType":"address"}]},{"type":"error","name":"CallerIsNotSuperKeeper","inputs":[{"name":"caller","type":"address","internalType":"address"}]},{"type":"error","name":"ConfigurationManagerZeroAddress","inputs":[]},{"type":"error","name":"CooldownNotElapsed","inputs":[{"name":"lastActionTimestamp","type":"uint256","internalType":"uint256"},{"name":"cooldown","type":"uint256","internalType":"uint256"},{"name":"currentTimestamp","type":"uint256","internalType":"uint256"}]},{"type":"error","name":"DirectGrantIsDisabled","inputs":[{"name":"caller","type":"address","internalType":"address"}]},{"type":"error","name":"DirectRevokeIsDisabled","inputs":[{"name":"caller","type":"address","internalType":"address"}]},{"type":"error","name":"ERC20InsufficientAllowance","inputs":[{"name":"spender","type":"address","internalType":"address"},{"name":"allowance","type":"uint256","internalType":"uint256"},{"name":"needed","type":"uint256","internalType":"uint256"}]},{"type":"error","name":"ERC20InsufficientBalance","inputs":[{"name":"sender","type":"address","internalType":"address"},{"name":"balance","type":"uint256","internalType":"uint256"},{"name":"needed","type":"uint256","internalType":"uint256"}]},{"type":"error","name":"ERC20InvalidApprover","inputs":[{"name":"approver","type":"address","internalType":"address"}]},{"type":"error","name":"ERC20InvalidReceiver","inputs":[{"name":"receiver","type":"address","internalType":"address"}]},{"type":"error","name":"ERC20InvalidSender","inputs":[{"name":"sender","type":"address","internalType":"address"}]},{"type":"error","name":"ERC20InvalidSpender","inputs":[{"name":"spender","type":"address","internalType":"address"}]},{"type":"error","name":"ERC4626ExceededMaxDeposit","inputs":[{"name":"receiver","type":"address","internalType":"address"},{"name":"assets","type":"uint256","internalType":"uint256"},{"name":"max","type":"uint256","internalType":"uint256"}]},{"type":"error","name":"ERC4626ExceededMaxMint","inputs":[{"name":"receiver","type":"address","internalType":"address"},{"name":"shares","type":"uint256","internalType":"uint256"},{"name":"max","type":"uint256","internalType":"uint256"}]},{"type":"error","name":"ERC4626ExceededMaxRedeem","inputs":[{"name":"owner","type":"address","internalType":"address"},{"name":"shares","type":"uint256","internalType":"uint256"},{"name":"max","type":"uint256","internalType":"uint256"}]},{"type":"error","name":"ERC4626ExceededMaxWithdraw","inputs":[{"name":"owner","type":"address","internalType":"address"},{"name":"assets","type":"uint256","internalType":"uint256"},{"name":"max","type":"uint256","internalType":"uint256"}]},{"type":"error","name":"EnforcedPause","inputs":[]},{"type":"error","name":"ExpectedPause","inputs":[]},{"type":"error","name":"FleetCommanderArkAlreadyExists","inputs":[{"name":"ark","type":"address","internalType":"address"}]},{"type":"error","name":"FleetCommanderArkAlreadyHasCommander","inputs":[]},{"type":"error","name":"FleetCommanderArkAssetsNotZero","inputs":[{"name":"ark","type":"address","internalType":"address"}]},{"type":"error","name":"FleetCommanderArkDepositCapGreaterThanZero","inputs":[{"name":"ark","type":"address","internalType":"address"}]},{"type":"error","name":"FleetCommanderArkDepositCapZero","inputs":[{"name":"ark","type":"address","internalType":"address"}]},{"type":"error","name":"FleetCommanderArkNotActive","inputs":[{"name":"ark","type":"address","internalType":"address"}]},{"type":"error","name":"FleetCommanderArkNotFound","inputs":[{"name":"ark","type":"address","internalType":"address"}]},{"type":"error","name":"FleetCommanderCantUseMaxUintMovingFromBuffer","inputs":[]},{"type":"error","name":"FleetCommanderCantUseRebalanceOnBufferArk","inputs":[]},{"type":"error","name":"FleetCommanderEffectiveDepositCapExceeded","inputs":[{"name":"ark","type":"address","internalType":"address"},{"name":"amount","type":"uint256","internalType":"uint256"},{"name":"effectiveDepositCap","type":"uint256","internalType":"uint256"}]},{"type":"error","name":"FleetCommanderExceedsMaxInflow","inputs":[{"name":"fromArk","type":"address","internalType":"address"},{"name":"amount","type":"uint256","internalType":"uint256"},{"name":"maxRebalanceInflow","type":"uint256","internalType":"uint256"}]},{"type":"error","name":"FleetCommanderExceedsMaxOutflow","inputs":[{"name":"fromArk","type":"address","internalType":"address"},{"name":"amount","type":"uint256","internalType":"uint256"},{"name":"maxRebalanceOutflow","type":"uint256","internalType":"uint256"}]},{"type":"error","name":"FleetCommanderInsufficientBuffer","inputs":[]},{"type":"error","name":"FleetCommanderInvalidArkAddress","inputs":[]},{"type":"error","name":"FleetCommanderInvalidBufferAdjustment","inputs":[]},{"type":"error","name":"FleetCommanderInvalidSourceArk","inputs":[{"name":"ark","type":"address","internalType":"address"}]},{"type":"error","name":"FleetCommanderInvalidStakingRewardsManager","inputs":[]},{"type":"error","name":"FleetCommanderMovedMoreThanAvailable","inputs":[]},{"type":"error","name":"FleetCommanderNoExcessFunds","inputs":[]},{"type":"error","name":"FleetCommanderNoFundsMoved","inputs":[]},{"type":"error","name":"FleetCommanderPausableMinimumPauseTimeNotElapsed","inputs":[]},{"type":"error","name":"FleetCommanderRebalanceAmountZero","inputs":[{"name":"ark","type":"address","internalType":"address"}]},{"type":"error","name":"FleetCommanderRebalanceNoOperations","inputs":[]},{"type":"error","name":"FleetCommanderRebalanceTooManyOperations","inputs":[{"name":"operationsCount","type":"uint256","internalType":"uint256"}]},{"type":"error","name":"FleetCommanderStakingRewardsManagerNotSet","inputs":[]},{"type":"error","name":"FleetCommanderTransfersDisabled","inputs":[]},{"type":"error","name":"FleetCommanderUnauthorizedRedemption","inputs":[{"name":"caller","type":"address","internalType":"address"},{"name":"owner","type":"address","internalType":"address"}]},{"type":"error","name":"FleetCommanderUnauthorizedWithdrawal","inputs":[{"name":"caller","type":"address","internalType":"address"},{"name":"owner","type":"address","internalType":"address"}]},{"type":"error","name":"InvalidAccessManagerAddress","inputs":[{"name":"invalidAddress","type":"address","internalType":"address"}]},{"type":"error","name":"InvalidFleetCommanderAddress","inputs":[]},{"type":"error","name":"InvalidTipJarAddress","inputs":[]},{"type":"error","name":"SafeERC20FailedOperation","inputs":[{"name":"token","type":"address","internalType":"address"}]},{"type":"error","name":"TipRateCannotExceedOneHundredPercent","inputs":[]},{"type":"error","name":"WithdrawalAmountExceedsMaxBufferLimit","inputs":[]}],"bytecode":{"object":"0x60e060405234801561000f575f5ffd5b5060405161a44f38038061a44f83398101604081905261002e91610669565b8060e001515f8261012001518360a001518480606001516201fa408260800151885f015189604001518160039081610066919061080b565b506004610073828261080b565b5050506001600160a01b0381166100a4576040516347bd7c1d60e01b81525f60048201526024015b60405180910390fd5b6040516301ffc9a760e01b8152639bd1803160e01b60048201526001600160a01b038216906301ffc9a790602401602060405180830381865afa1580156100ed573d5f5f3e3d5ffd5b505050506040513d601f19601f8201168201806040525081019061011191906108c5565b610139576040516347bd7c1d60e01b81526001600160a01b038216600482015260240161009b565b600580546001600160a81b0319166001600160a01b03928316179055600691909155811661017a5760405163f1634df960e01b815260040160405180910390fd5b806001600160a01b03166080816001600160a01b031681525050505f6040518061014001604052806040518060400160405280600981526020016842756666657241726b60b81b81525081526020016040518060400160405280601181526020017042756666657241726b2064657461696c7360781b815250815260200183608001516001600160a01b0316815260200183606001516001600160a01b031681526020018360a001516001600160a01b031681526020015f1981526020015f1981526020015f1981526020015f151581526020016012600a61025c91906109e4565b6102679060646109ef565b815250306040516102779061057b565b610282929190610a34565b604051809103905ff08015801561029b573d5f5f3e3d5ffd5b5090506103af6040518060a00160405280836001600160a01b031681526020018460c0015181526020018461010001518152602001600a81526020016102e561043d60201b60201c565b600554604051630f07f82960e01b81526001600160a01b039182166004820152306024820152911690630f07f829906044016020604051808303815f875af1158015610333573d5f5f3e3d5ffd5b505050506040513d601f19601f820116820180604052508101906103579190610b0e565b6001600160a01b031690528051600880546001600160a01b03199081166001600160a01b039384161790915560208301516009556040830151600a556060830151600b55608090920151600c80549093169116179055565b6001600160a01b0381165f908152601060209081526040909120805460ff19166001179055820151600d906103e4908261080b565b5050505f5f6103f8836104a560201b60201c565b915091508161040857601261040a565b805b60ff1660c05250506001600160a01b031660a052601155426012556013829055801561043557426014555b505050610b54565b5f6080516001600160a01b031663f7e533ec6040518163ffffffff1660e01b8152600401602060405180830381865afa15801561047c573d5f5f3e3d5ffd5b505050506040513d601f19601f820116820180604052508101906104a09190610b0e565b905090565b60408051600481526024810182526020810180516001600160e01b031663313ce56760e01b17905290515f918291829182916001600160a01b038716916104eb91610b27565b5f60405180830381855afa9150503d805f8114610523576040519150601f19603f3d011682016040523d82523d5f602084013e610528565b606091505b509150915081801561053c57506020815110155b1561056f575f818060200190518101906105569190610b3d565b905060ff811161056d576001969095509350505050565b505b505f9485945092505050565b61289580617bba83390190565b634e487b7160e01b5f52604160045260245ffd5b60405161014081016001600160401b03811182821017156105bf576105bf610588565b60405290565b5f82601f8301126105d4575f5ffd5b81516001600160401b038111156105ed576105ed610588565b604051601f8201601f19908116603f011681016001600160401b038111828210171561061b5761061b610588565b604052818152838201602001851015610632575f5ffd5b8160208501602083015e5f918101602001919091529392505050565b80516001600160a01b0381168114610664575f5ffd5b919050565b5f60208284031215610679575f5ffd5b81516001600160401b0381111561068e575f5ffd5b820161014081850312156106a0575f5ffd5b6106a861059c565b81516001600160401b038111156106bd575f5ffd5b6106c9868285016105c5565b82525060208201516001600160401b038111156106e4575f5ffd5b6106f0868285016105c5565b60208301525060408201516001600160401b0381111561070e575f5ffd5b61071a868285016105c5565b60408301525061072c6060830161064e565b606082015261073d6080830161064e565b608082015261074e60a0830161064e565b60a082015260c0828101519082015260e08083015190820152610100808301519082015261012091820151918101919091529392505050565b600181811c9082168061079b57607f821691505b6020821081036107b957634e487b7160e01b5f52602260045260245ffd5b50919050565b601f82111561080657805f5260205f20601f840160051c810160208510156107e45750805b601f840160051c820191505b81811015610803575f81556001016107f0565b50505b505050565b81516001600160401b0381111561082457610824610588565b610838816108328454610787565b846107bf565b6020601f82116001811461086a575f83156108535750848201515b5f19600385901b1c1916600184901b178455610803565b5f84815260208120601f198516915b828110156108995787850151825560209485019460019092019101610879565b50848210156108b657868401515f19600387901b60f8161c191681555b50505050600190811b01905550565b5f602082840312156108d5575f5ffd5b815180151581146108e4575f5ffd5b9392505050565b634e487b7160e01b5f52601160045260245ffd5b6001815b600184111561093a5780850481111561091e5761091e6108eb565b600184161561092c57908102905b60019390931c928002610903565b935093915050565b5f82610950575060016109de565b8161095c57505f6109de565b8160018114610972576002811461097c57610998565b60019150506109de565b60ff84111561098d5761098d6108eb565b50506001821b6109de565b5060208310610133831016604e8410600b84101617156109bb575081810a6109de565b6109c75f1984846108ff565b805f19048211156109da576109da6108eb565b0290505b92915050565b5f6108e48383610942565b80820281158282048414176109de576109de6108eb565b5f81518084528060208401602086015e5f602082860101526020601f19601f83011685010191505092915050565b604081525f83516101406040840152610a51610180840182610a06565b90506020850151603f19848303016060850152610a6e8282610a06565b9150506040850151610a8b60808501826001600160a01b03169052565b5060608501516001600160a01b03811660a08501525060808501516001600160a01b03811660c08501525060a085015160e084015260c085015161010084015260e0850151610120840152610100850151610aeb61014085018215159052565b506101208501516101608401526001600160a01b038416602084015290506108e4565b5f60208284031215610b1e575f5ffd5b6108e48261064e565b5f82518060208501845e5f920191825250919050565b5f60208284031215610b4d575f5ffd5b5051919050565b60805160a05160c051616ff6610bc45f395f610d4f01525f818161058b01528181611218015281816124b701528181613afd0152818161416e01526141fd01525f81816108b601528181610b61015281816115250152818161188d01528181611b3a01526132a10152616ff65ff3fe608060405234801561000f575f5ffd5b506004361061046f575f3560e01c80638456cb591161024d578063ce96cb7711610140578063e7b20e5b116100bf578063f3ba553e11610084578063f3ba553e14610a24578063f7e533ec14610a37578063faa9bce914610a3f578063fcf2849f14610a52578063ff32a42a14610a65575f5ffd5b8063e7b20e5b146109d6578063ef2fc472146109e9578063ef8b30f71461088d578063f1cd665b146109fc578063f357781614610a11575f5ffd5b8063d905777e11610105578063d905777e14610952578063dc9de0a814610965578063dd62ed3e14610978578063e193858f146109b0578063e37d5b7f146109c3575f5ffd5b8063ce96cb77146108fe578063d25dd10114610911578063d45a07a114610924578063d570ee4714610937578063d902d41a1461093f575f5ffd5b8063b460af94116101cc578063c6e6f59211610191578063c6e6f5921461088d578063c8169aa1146108a0578063c9c667e3146108b1578063cada5143146108d8578063cc5b1e55146108eb575f5ffd5b8063b460af94146107f0578063b637766c14610803578063ba08765214610816578063c3f909d414610829578063c63d75b61461087a575f5ffd5b806396c25a381161021257806396c25a381461079a578063a039e944146107ad578063a0506f0b146107c0578063a9059cbb146107ca578063b3d7f6b9146107dd575f5ffd5b80638456cb591461075b5780639265b76e1461076357806394bf804d1461077657806394d7eaa41461078957806395d89b4114610792575f5ffd5b8063498e76a0116103655780635f538f6f116102e45780636e553f65116102a95780636e553f65146106b557806370a08231146106c857806371aedbc1146106f057806379502c55146106f95780637aaceb9514610753575f5ffd5b80635f538f6f1461067657806361d027b314610689578063680e57ab14610691578063684826261461069a57806369b3054b146106a2575f5ffd5b80635822198f1161032a5780635822198f146106365780635b0f83f3146106495780635c975abb146106515780635e5a9ea9146106635780635ed975e514610521575f5ffd5b8063498e76a0146105f05780634cdad506146104a35780634daecb9c146105f95780635340c0121461060c578063565974d31461062e575f5ffd5b806323b872dd116103f157806338d52e0f116103b657806338d52e0f146105895780633a7c9f0e146105af5780633e314c76146105c25780633f4ba83a146105d5578063402d267d146105dd575f5ffd5b806323b872dd146105395780632755cd2d1461054c578063313ce567146105545780633152d5d11461056e5780633405056014610576575f5ffd5b8063117d8ae011610437578063117d8ae0146104ec578063133ab5791461050c578063168b813a1461052157806318160ddd14610529578063218e4a1514610531575f5ffd5b806301e1d1141461047357806306fdde031461048e57806307a2d13a146104a3578063095ea7b3146104b65780630a28a477146104d9575b5f5ffd5b61047b610a78565b6040519081526020015b60405180910390f35b610496610a9a565b6040516104859190616480565b61047b6104b1366004616492565b610b2a565b6104c96104c43660046164bd565b610b3b565b6040519015158152602001610485565b61047b6104e7366004616492565b610b52565b6104f4610b5e565b6040516001600160a01b039091168152602001610485565b61051f61051a366004616492565b610bdf565b005b61047b600a81565b60025461047b565b60135461047b565b6104c96105473660046164e7565b610ccc565b61047b610d2f565b61055c610d48565b60405160ff9091168152602001610485565b60145461047b565b61051f6105843660046164bd565b610d73565b7f00000000000000000000000000000000000000000000000000000000000000006104f4565b61047b6105bd366004616525565b610eae565b61047b6105d0366004616564565b610f64565b61051f611004565b61047b6105eb366004616564565b6111e2565b61047b60115481565b61051f610607366004616492565b6112aa565b6104c961061a366004616564565b60106020525f908152604090205460ff1681565b61049661138a565b61051f610644366004616492565b611416565b6104f4611522565b600554600160a01b900460ff166104c9565b61051f610671366004616564565b61157f565b61047b610684366004616525565b611719565b6104f461188a565b61047b60065481565b61047b6118e7565b61047b6106b036600461657f565b61196d565b61047b6106c33660046165b9565b61199f565b61047b6106d6366004616564565b6001600160a01b03165f9081526020819052604090205490565b61047b60125481565b600854600954600a54600b54600c5461071f946001600160a01b03908116949392911685565b604080516001600160a01b03968716815260208101959095528401929092526060830152909116608082015260a001610485565b6104f4611b37565b61051f611b94565b61047b610771366004616564565b611d70565b61047b6107843660046165b9565b611e0a565b61047b60075481565b610496611ece565b61051f6107a8366004616564565b611edd565b61047b6107bb366004616525565b611fde565b61047b6201fa4081565b6104c96107d83660046164bd565b612076565b61047b6107eb366004616492565b61210f565b61047b6107fe366004616525565b61211b565b61051f6108113660046164bd565b612204565b61047b610824366004616525565b612310565b6108316123fc565b604051610485919081516001600160a01b039081168252602080840151908301526040808401519083015260608084015190830152608092830151169181019190915260a00190565b61047b610888366004616564565b61247e565b61047b61089b366004616492565b612506565b6008546001600160a01b03166104f4565b6104f47f000000000000000000000000000000000000000000000000000000000000000081565b61051f6108e6366004616623565b612511565b61051f6108f9366004616623565b61273d565b61047b61090c366004616564565b61287b565b6104c961091f366004616564565b612887565b61051f6109323660046164bd565b6128ae565b61047b6129ba565b61051f61094d366004616492565b6129d9565b61047b610960366004616564565b612ab9565b61051f610973366004616492565b612ac8565b61047b610986366004616661565b6001600160a01b039182165f90815260016020908152604080832093909416825291909152205490565b61051f6109be366004616492565b612bc9565b61051f6109d1366004616564565b612cca565b61051f6109e4366004616623565b612dcb565b61047b6109f7366004616564565b612eed565b610a04612ffe565b604051610485919061667d565b61047b610a1f366004616525565b61300a565b61051f610a323660046164bd565b613192565b6104f461329e565b61047b610a4d3660046167cf565b6132fb565b61051f610a60366004616623565b613356565b6104f4610a73366004616492565b61351d565b5f610a95610a84612ffe565b6008546001600160a01b0316613529565b905090565b606060038054610aa990616823565b80601f0160208091040260200160405190810160405280929190818152602001828054610ad590616823565b8015610b205780601f10610af757610100808354040283529160200191610b20565b820191905f5260205f20905b815481529060010190602001808311610b0357829003601f168201915b5050505050905090565b5f610b35825f6135dd565b92915050565b5f33610b48818585613615565b5060019392505050565b5f610b35826001613622565b5f7f00000000000000000000000000000000000000000000000000000000000000006001600160a01b031663117d8ae06040518163ffffffff1660e01b8152600401602060405180830381865afa158015610bbb573d5f5f3e3d5ffd5b505050506040513d601f19601f82011682018060405250810190610a959190616865565b30801580610c6257506005546001600160a01b03166391d14854610c035f8461196d565b336040518363ffffffff1660e01b8152600401610c21929190616880565b602060405180830381865afa158015610c3c573d5f5f3e3d5ffd5b505050506040513d601f19601f82011682018060405250810190610c6091906168a6565b155b15610c87576040516363b52ed760e11b81523360048201526024015b60405180910390fd5b610c8f613651565b600b8290556040518281527f4f4bedc5354096786a0fb857b12fdd6488cc973b2348cedb78088bdceaa906b5906020015b60405180910390a15050565b600c545f906001600160a01b0316336001600160a01b03161480610cf857506001600160a01b03831630145b15610d0f57610d0884848461367c565b9050610d28565b60405163ec47ea8b60e01b815260040160405180910390fd5b9392505050565b5f610d38613651565b610a95610d43611b37565b61369f565b5f610a95817f00000000000000000000000000000000000000000000000000000000000000006168d3565b30801580610df657506005546001600160a01b03166391d14854610d975f8461196d565b336040518363ffffffff1660e01b8152600401610db5929190616880565b602060405180830381865afa158015610dd0573d5f5f3e3d5ffd5b505050506040513d601f19601f82011682018060405250810190610df491906168a6565b155b15610e16576040516363b52ed760e11b8152336004820152602401610c7e565b82610e22600e826137a0565b610e4a57604051632767039f60e01b81526001600160a01b0382166004820152602401610c7e565b610e52613651565b604051638665120360e01b8152600481018490526001600160a01b038516906386651203906024015b5f604051808303815f87803b158015610e92575f5ffd5b505af1158015610ea4573d5f5f3e3d5ffd5b5050505050505050565b5f610eba610d43611b37565b50610ed9610ec6612ffe565b6008546001600160a01b031660106137c1565b610ee1613651565b610eeb8483613933565b610ef484610b2a565b9050610eff81613a1e565b610f0c3384848488613aca565b610f155f601455565b604080516001600160a01b038581168252602082018790528416917f09fbb654e02253d6c37ecb473c5ed6f4557cac3fe5abc1d559523f6e257ee18591015b60405180910390a2610d28613b8a565b5f610b3560085f015f9054906101000a90046001600160a01b03166001600160a01b03166301e1d1146040518163ffffffff1660e01b8152600401602060405180830381865afa158015610fba573d5f5f3e3d5ffd5b505050506040513d601f19601f82011682018060405250810190610fde91906168ec565b610fff6104b1856001600160a01b03165f9081526020819052604090205490565b613c64565b6005546040805163093a953d60e21b815290516001600160a01b03909216916391d148549183916324ea54f4916004808201926020929091908290030181865afa158015611054573d5f5f3e3d5ffd5b505050506040513d601f19601f8201168201806040525081019061107891906168ec565b336040518363ffffffff1660e01b8152600401611096929190616880565b602060405180830381865afa1580156110b1573d5f5f3e3d5ffd5b505050506040513d601f19601f820116820180604052508101906110d591906168a6565b1580156111b0575060055460408051630ccc574960e41b815290516001600160a01b03909216916391d1485491839163ccc57490916004808201926020929091908290030181865afa15801561112d573d5f5f3e3d5ffd5b505050506040513d601f19601f8201168201806040525081019061115191906168ec565b336040518363ffffffff1660e01b815260040161116f929190616880565b602060405180830381865afa15801561118a573d5f5f3e3d5ffd5b505050506040513d601f19601f820116820180604052508101906111ae91906168a6565b155b156111d057604051636b2a758d60e01b8152336004820152602401610c7e565b6111d8613c73565b6111e0613c9d565b565b5f5f6111ec610a78565b90505f600860020154821161120e57600a54611209908390616903565b611210565b5f5b90506112a2817f00000000000000000000000000000000000000000000000000000000000000006040516370a0823160e01b81526001600160a01b03888116600483015291909116906370a08231906024015b602060405180830381865afa15801561127e573d5f5f3e3d5ffd5b505050506040513d601f19601f82011682018060405250810190610fff91906168ec565b949350505050565b3080158061132d57506005546001600160a01b03166391d148546112ce5f8461196d565b336040518363ffffffff1660e01b81526004016112ec929190616880565b602060405180830381865afa158015611307573d5f5f3e3d5ffd5b505050506040513d601f19601f8201168201806040525081019061132b91906168a6565b155b1561134d576040516363b52ed760e11b8152336004820152602401610c7e565b611355613651565b60098290556040518281527f3ba130ec8df44f0a71243af1b7f9f4239616bafda97ae766b3c40a9d202b21a490602001610cc0565b600d805461139790616823565b80601f01602080910402602001604051908101604052809291908181526020018280546113c390616823565b801561140e5780601f106113e55761010080835404028352916020019161140e565b820191905f5260205f20905b8154815290600101906020018083116113f157829003601f168201915b505050505081565b60055460408051630ccc574960e41b815290516001600160a01b03909216916391d1485491839163ccc57490916004808201926020929091908290030181865afa158015611466573d5f5f3e3d5ffd5b505050506040513d601f19601f8201168201806040525081019061148a91906168ec565b336040518363ffffffff1660e01b81526004016114a8929190616880565b602060405180830381865afa1580156114c3573d5f5f3e3d5ffd5b505050506040513d601f19601f820116820180604052508101906114e791906168a6565b61150657604051630ea7d7ed60e21b8152336004820152602401610c7e565b61150e613651565b61151f8161151a611b37565b613cd5565b50565b5f7f00000000000000000000000000000000000000000000000000000000000000006001600160a01b0316635b0f83f36040518163ffffffff1660e01b8152600401602060405180830381865afa158015610bbb573d5f5f3e3d5ffd5b3080158061160257506005546001600160a01b03166391d148546115a35f8461196d565b336040518363ffffffff1660e01b81526004016115c1929190616880565b602060405180830381865afa1580156115dc573d5f5f3e3d5ffd5b505050506040513d601f19601f8201168201806040525081019061160091906168a6565b155b15611622576040516363b52ed760e11b8152336004820152602401610c7e565b61162a613651565b6001600160a01b0382166116515760405163a0394e6160e01b815260040160405180910390fd5b61165961329e565b600554604051630f07f82960e01b81526001600160a01b039182166004820152306024820152911690630f07f829906044016020604051808303815f875af11580156116a7573d5f5f3e3d5ffd5b505050506040513d601f19601f820116820180604052508101906116cb9190616865565b600c80546001600160a01b0319166001600160a01b0392831617905560405190831681527f8f407169a2fff9de40408b8d482b293eff9e2dbc448da0593fa9a39d428a410490602001610cc0565b5f611722613651565b61172b84610b52565b9050611738848284613d3a565b600854604080516278744560e21b815290515f926001600160a01b0316916301e1d1149160048083019260209291908290030181865afa15801561177e573d5f5f3e3d5ffd5b505050506040513d601f19601f820116820180604052508101906117a291906168ec565b6008549091506117bb906001600160a01b031686613e25565b6117c83385858886613aca565b336001600160a01b03167fe68a55afda2dca8343871fe0e5575a383291a40ae7d53e4dee12faf79cde144e8260085f015f9054906101000a90046001600160a01b03166001600160a01b03166301e1d1146040518163ffffffff1660e01b8152600401602060405180830381865afa158015611846573d5f5f3e3d5ffd5b505050506040513d601f19601f8201168201806040525081019061186a91906168ec565b6040805192835260208301919091520160405180910390a2509392505050565b5f7f00000000000000000000000000000000000000000000000000000000000000006001600160a01b03166361d027b36040518163ffffffff1660e01b8152600401602060405180830381865afa158015610bbb573d5f5f3e3d5ffd5b5f5f601254426118f79190616903565b90505f306001600160a01b03166318160ddd6040518163ffffffff1660e01b8152600401602060405180830381865afa158015611936573d5f5f3e3d5ffd5b505050506040513d601f19601f8201168201806040525081019061195a91906168ec565b90506119668183613e8e565b9250505090565b5f828260405160200161198192919061692a565b60405160208183030381529060405280519060200120905092915050565b5f6119ab610d43611b37565b506119c86119b7612ffe565b6008546001600160a01b0316613f08565b506119d1613651565b6119db8333614136565b600854604080516278744560e21b815290515f926001600160a01b0316916301e1d1149160048083019260209291908290030181865afa158015611a21573d5f5f3e3d5ffd5b505050506040513d601f19601f82011682018060405250810190611a4591906168ec565b9050611a5084612506565b9150611a5e33848685614169565b600854611a74906001600160a01b0316856141fb565b336001600160a01b03167fe68a55afda2dca8343871fe0e5575a383291a40ae7d53e4dee12faf79cde144e8260085f015f9054906101000a90046001600160a01b03166001600160a01b03166301e1d1146040518163ffffffff1660e01b8152600401602060405180830381865afa158015611af2573d5f5f3e3d5ffd5b505050506040513d601f19601f82011682018060405250810190611b1691906168ec565b6040805192835260208301919091520160405180910390a250610b35613b8a565b5f7f00000000000000000000000000000000000000000000000000000000000000006001600160a01b0316637aaceb956040518163ffffffff1660e01b8152600401602060405180830381865afa158015610bbb573d5f5f3e3d5ffd5b6005546040805163093a953d60e21b815290516001600160a01b03909216916391d148549183916324ea54f4916004808201926020929091908290030181865afa158015611be4573d5f5f3e3d5ffd5b505050506040513d601f19601f82011682018060405250810190611c0891906168ec565b336040518363ffffffff1660e01b8152600401611c26929190616880565b602060405180830381865afa158015611c41573d5f5f3e3d5ffd5b505050506040513d601f19601f82011682018060405250810190611c6591906168a6565b158015611d40575060055460408051630ccc574960e41b815290516001600160a01b03909216916391d1485491839163ccc57490916004808201926020929091908290030181865afa158015611cbd573d5f5f3e3d5ffd5b505050506040513d601f19601f82011682018060405250810190611ce191906168ec565b336040518363ffffffff1660e01b8152600401611cff929190616880565b602060405180830381865afa158015611d1a573d5f5f3e3d5ffd5b505050506040513d601f19601f82011682018060405250810190611d3e91906168a6565b155b15611d6057604051636b2a758d60e01b8152336004820152602401610c7e565b611d68613651565b6111e06142c7565b5f610b35611ded60085f015f9054906101000a90046001600160a01b03166001600160a01b03166301e1d1146040518163ffffffff1660e01b8152600401602060405180830381865afa158015611dc9573d5f5f3e3d5ffd5b505050506040513d601f19601f820116820180604052508101906104e791906168ec565b6001600160a01b0384165f90815260208190526040902054613c64565b5f611e16610d43611b37565b50611e226119b7612ffe565b50611e2b613651565b611e3583336142d5565b600854604080516278744560e21b815290515f926001600160a01b0316916301e1d1149160048083019260209291908290030181865afa158015611e7b573d5f5f3e3d5ffd5b505050506040513d601f19601f82011682018060405250810190611e9f91906168ec565b9050611eaa8461210f565b9150611eb833848487614169565b600854611a74906001600160a01b0316836141fb565b606060048054610aa990616823565b60055460408051630ccc574960e41b815290516001600160a01b03909216916391d1485491839163ccc57490916004808201926020929091908290030181865afa158015611f2d573d5f5f3e3d5ffd5b505050506040513d601f19601f82011682018060405250810190611f5191906168ec565b336040518363ffffffff1660e01b8152600401611f6f929190616880565b602060405180830381865afa158015611f8a573d5f5f3e3d5ffd5b505050506040513d601f19601f82011682018060405250810190611fae91906168a6565b611fcd57604051630ea7d7ed60e21b8152336004820152602401610c7e565b611fd5613651565b61151f81614308565b5f611fea610d43611b37565b50611ff6610ec6612ffe565b611ffe613651565b61200784610b52565b9050612014848284614432565b61201d84613a1e565b61202a3384848785613aca565b6120335f601455565b604080516001600160a01b038581168252602082018790528416917fd4383faec5079b2ec7ac0ff240326baa0d584b03d51b9742f7c1a034f6fc015b9101610f54565b5f5f306001600160a01b031663c3f909d46040518163ffffffff1660e01b815260040160a060405180830381865afa1580156120b4573d5f5f3e3d5ffd5b505050506040513d601f19601f820116820180604052508101906120d8919061696d565b905080608001516001600160a01b03166120ef3390565b6001600160a01b031603610d0f5761210784846144cb565b915050610b35565b5f610b358260016135dd565b5f612127610d43611b37565b50612133610ec6612ffe565b61213b613651565b600854604080516278744560e21b815290515f926001600160a01b0316916301e1d1149160048083019260209291908290030181865afa158015612181573d5f5f3e3d5ffd5b505050506040513d601f19601f820116820180604052508101906121a591906168ec565b90505f1985036121d4576001600160a01b0383165f908152602081905260409020546121d081610b2a565b9550505b8085116121ed576121e6858585611719565b91506121fb565b6121f8858585611fde565b91505b50610d28613b8a565b3080158061228757506005546001600160a01b03166391d148546122285f8461196d565b336040518363ffffffff1660e01b8152600401612246929190616880565b602060405180830381865afa158015612261573d5f5f3e3d5ffd5b505050506040513d601f19601f8201168201806040525081019061228591906168a6565b155b156122a7576040516363b52ed760e11b8152336004820152602401610c7e565b826122b3600e826137a0565b6122db57604051632767039f60e01b81526001600160a01b0382166004820152602401610c7e565b6122e3613651565b6040516361f5cd8b60e01b8152600481018490526001600160a01b038516906361f5cd8b90602401610e7b565b5f61231c610d43611b37565b50612328610ec6612ffe565b612330613651565b600854604080516278744560e21b815290515f926001600160a01b0316916301e1d1149160048083019260209291908290030181865afa158015612376573d5f5f3e3d5ffd5b505050506040513d601f19601f8201168201806040525081019061239a91906168ec565b90505f6123a682612506565b90505f1986036123cb576001600160a01b0384165f9081526020819052604090205495505b8086116123e4576123dd86868661300a565b92506123f2565b6123ef868686610eae565b92505b5050610d28613b8a565b61243b6040518060a001604052805f6001600160a01b031681526020015f81526020015f81526020015f81526020015f6001600160a01b031681525090565b506040805160a0810182526008546001600160a01b0390811682526009546020830152600a5492820192909252600b546060820152600c54909116608082015290565b5f5f612488610a78565b90505f60086002015482116124aa57600a546124a5908390616903565b6124ac565b5f5b90506112a261089b827f00000000000000000000000000000000000000000000000000000000000000006040516370a0823160e01b81526001600160a01b03898116600483015291909116906370a0823190602401611263565b5f610b35825f613622565b6005546001600160a01b03166391d1485461252d60013061196d565b336040518363ffffffff1660e01b815260040161254b929190616880565b602060405180830381865afa158015612566573d5f5f3e3d5ffd5b505050506040513d601f19601f8201168201806040525081019061258a91906168a6565b1580156126655750600554604080516366e943f160e01b815290516001600160a01b03909216916391d148549183916366e943f1916004808201926020929091908290030181865afa1580156125e2573d5f5f3e3d5ffd5b505050506040513d601f19601f8201168201806040525081019061260691906168ec565b336040518363ffffffff1660e01b8152600401612624929190616880565b602060405180830381865afa15801561263f573d5f5f3e3d5ffd5b505050506040513d601f19601f8201168201806040525081019061266391906168a6565b155b15612685576040516329068e8160e21b8152336004820152602401610c7e565b6013546014546126959042616903565b10156126c957601454601354604051630924dbf160e21b815260048101929092526024820152426044820152606401610c7e565b426014556126d8610d43611b37565b506126e1613651565b6126eb82826144d8565b6126f582826145c8565b5f61270083836147e0565b60405181815290915033907f4bd1a9dd6e8410a6d85178f9a75d601cb7b266e228771c213fe39ffffad2d3299060200160405180910390a2505050565b60055460408051630ccc574960e41b815290516001600160a01b03909216916391d1485491839163ccc57490916004808201926020929091908290030181865afa15801561278d573d5f5f3e3d5ffd5b505050506040513d601f19601f820116820180604052508101906127b191906168ec565b336040518363ffffffff1660e01b81526004016127cf929190616880565b602060405180830381865afa1580156127ea573d5f5f3e3d5ffd5b505050506040513d601f19601f8201168201806040525081019061280e91906168a6565b61282d57604051630ea7d7ed60e21b8152336004820152602401610c7e565b612835613651565b5f5b818110156128765761286e838383818110612854576128546169cc565b90506020020160208101906128699190616564565b61487e565b600101612837565b505050565b5f610b35610fde6129ba565b5f612893600e836137a0565b80610b355750506008546001600160a01b0390811691161490565b3080158061293157506005546001600160a01b03166391d148546128d25f8461196d565b336040518363ffffffff1660e01b81526004016128f0929190616880565b602060405180830381865afa15801561290b573d5f5f3e3d5ffd5b505050506040513d601f19601f8201168201806040525081019061292f91906168a6565b155b15612951576040516363b52ed760e11b8152336004820152602401610c7e565b8261295d600e826137a0565b61298557604051632767039f60e01b81526001600160a01b0382166004820152602401610c7e565b61298d613651565b60405163497af41960e11b8152600481018490526001600160a01b038516906392f5e83290602401610e7b565b5f610a956129c6612ffe565b6008546001600160a01b03166010614a7d565b30801580612a5c57506005546001600160a01b03166391d148546129fd5f8461196d565b336040518363ffffffff1660e01b8152600401612a1b929190616880565b602060405180830381865afa158015612a36573d5f5f3e3d5ffd5b505050506040513d601f19601f82011682018060405250810190612a5a91906168a6565b155b15612a7c576040516363b52ed760e11b8152336004820152602401610c7e565b612a84613651565b600a8290556040518281527f4faeac5aec9fa2e6f82ae7ccfef27a03ca3ff9d8c5356fea9acb2caad1c4c34490602001610cc0565b5f610b35611ded61089b6129ba565b60055460408051630ccc574960e41b815290516001600160a01b03909216916391d1485491839163ccc57490916004808201926020929091908290030181865afa158015612b18573d5f5f3e3d5ffd5b505050506040513d601f19601f82011682018060405250810190612b3c91906168ec565b336040518363ffffffff1660e01b8152600401612b5a929190616880565b602060405180830381865afa158015612b75573d5f5f3e3d5ffd5b505050506040513d601f19601f82011682018060405250810190612b9991906168a6565b612bb857604051630ea7d7ed60e21b8152336004820152602401610c7e565b612bc0613651565b61151f81614bfd565b60055460408051630ccc574960e41b815290516001600160a01b03909216916391d1485491839163ccc57490916004808201926020929091908290030181865afa158015612c19573d5f5f3e3d5ffd5b505050506040513d601f19601f82011682018060405250810190612c3d91906168ec565b336040518363ffffffff1660e01b8152600401612c5b929190616880565b602060405180830381865afa158015612c76573d5f5f3e3d5ffd5b505050506040513d601f19601f82011682018060405250810190612c9a91906168a6565b612cb957604051630ea7d7ed60e21b8152336004820152602401610c7e565b612cc1613651565b61151f81614c3e565b60055460408051630ccc574960e41b815290516001600160a01b03909216916391d1485491839163ccc57490916004808201926020929091908290030181865afa158015612d1a573d5f5f3e3d5ffd5b505050506040513d601f19601f82011682018060405250810190612d3e91906168ec565b336040518363ffffffff1660e01b8152600401612d5c929190616880565b602060405180830381865afa158015612d77573d5f5f3e3d5ffd5b505050506040513d601f19601f82011682018060405250810190612d9b91906168a6565b612dba57604051630ea7d7ed60e21b8152336004820152602401610c7e565b612dc2613651565b61151f8161487e565b60055460408051630ccc574960e41b815290516001600160a01b03909216916391d1485491839163ccc57490916004808201926020929091908290030181865afa158015612e1b573d5f5f3e3d5ffd5b505050506040513d601f19601f82011682018060405250810190612e3f91906168ec565b336040518363ffffffff1660e01b8152600401612e5d929190616880565b602060405180830381865afa158015612e78573d5f5f3e3d5ffd5b505050506040513d601f19601f82011682018060405250810190612e9c91906168a6565b612ebb57604051630ea7d7ed60e21b8152336004820152602401610c7e565b612ec6610d43611b37565b50612ecf613651565b612ed982826144d8565b612ee38282614c79565b61287682826147e0565b5f5f306001600160a01b03166301e1d1146040518163ffffffff1660e01b8152600401602060405180830381865afa158015612f2b573d5f5f3e3d5ffd5b505050506040513d601f19601f82011682018060405250810190612f4f91906168ec565b90505f612fbc846001600160a01b031663bdcdd8826040518163ffffffff1660e01b8152600401602060405180830381865afa158015612f91573d5f5f3e3d5ffd5b505050506040513d601f19601f82011682018060405250810190612fb591906168ec565b8390614cc0565b90506112a281856001600160a01b031663dbd5edc76040518163ffffffff1660e01b8152600401602060405180830381865afa15801561127e573d5f5f3e3d5ffd5b6060610a95600e614cec565b5f613016610d43611b37565b50613022610ec6612ffe565b61302a613651565b6130348483614cf8565b600854604080516278744560e21b815290515f926001600160a01b0316916301e1d1149160048083019260209291908290030181865afa15801561307a573d5f5f3e3d5ffd5b505050506040513d601f19601f8201168201806040525081019061309e91906168ec565b90506130a985610b2a565b6008549092506130c2906001600160a01b031683613e25565b6130cf3385858589613aca565b336001600160a01b03167fe68a55afda2dca8343871fe0e5575a383291a40ae7d53e4dee12faf79cde144e8260085f015f9054906101000a90046001600160a01b03166001600160a01b03166301e1d1146040518163ffffffff1660e01b8152600401602060405180830381865afa15801561314d573d5f5f3e3d5ffd5b505050506040513d601f19601f8201168201806040525081019061317191906168ec565b6040805192835260208301919091520160405180910390a250610d28613b8a565b3080158061321557506005546001600160a01b03166391d148546131b65f8461196d565b336040518363ffffffff1660e01b81526004016131d4929190616880565b602060405180830381865afa1580156131ef573d5f5f3e3d5ffd5b505050506040513d601f19601f8201168201806040525081019061321391906168a6565b155b15613235576040516363b52ed760e11b8152336004820152602401610c7e565b82613241600e826137a0565b61326957604051632767039f60e01b81526001600160a01b0382166004820152602401610c7e565b613271613651565b604051634fc7fac360e01b8152600481018490526001600160a01b03851690634fc7fac390602401610e7b565b5f7f00000000000000000000000000000000000000000000000000000000000000006001600160a01b031663f7e533ec6040518163ffffffff1660e01b8152600401602060405180830381865afa158015610bbb573d5f5f3e3d5ffd5b5f613304613651565b8160405161331291906169e0565b604051908190038120906001600160a01b038516907f38383a2eb7bd8ee888f12fb942a2e22e84f2d7240f1f8541ad4bbddace6e3442905f90a36112a2848461199f565b6005546001600160a01b03166391d1485461337260013061196d565b336040518363ffffffff1660e01b8152600401613390929190616880565b602060405180830381865afa1580156133ab573d5f5f3e3d5ffd5b505050506040513d601f19601f820116820180604052508101906133cf91906168a6565b1580156134aa5750600554604080516366e943f160e01b815290516001600160a01b03909216916391d148549183916366e943f1916004808201926020929091908290030181865afa158015613427573d5f5f3e3d5ffd5b505050506040513d601f19601f8201168201806040525081019061344b91906168ec565b336040518363ffffffff1660e01b8152600401613469929190616880565b602060405180830381865afa158015613484573d5f5f3e3d5ffd5b505050506040513d601f19601f820116820180604052508101906134a891906168a6565b155b156134ca576040516329068e8160e21b8152336004820152602401610c7e565b6013546014546134da9042616903565b101561350e57601454601354604051630924dbf160e21b815260048101929092526024820152426044820152606401610c7e565b42601455612ec6610d43611b37565b5f610b35600e83614d91565b5f8061358f61358b60ff1961355f60017fa44c7cc604645fc9d906e0a5aeb821ecf76e473a1a4d03393ebd52161430e41b616903565b60405160200161357191815260200190565b604051602081830303815290604052805190602001201690565b5c90565b905080156135cb5761210761358b60ff1961355f60017fa9898051640582db44f19359a5df62a03dbff55353a9f388ea332d75dfa80fa1616903565b6112a26135d88585614d9c565b614e7c565b5f610d286135e9610a78565b6135f49060016169f6565b6135ff5f600a616aec565b60025461360c91906169f6565b85919085614f1b565b6128768383836001614f66565b5f610d2861363182600a616aec565b60025461363e91906169f6565b613646610a78565b61360c9060016169f6565b600554600160a01b900460ff16156111e05760405163d93c066560e01b815260040160405180910390fd5b5f3361368985828561502a565b61369485858561508c565b506001949350505050565b5f6136b36011546136af5f6150e9565b1490565b156136c2575050426012555f90565b5f601254426136d19190616903565b9050805f036136e257505f92915050565b5f306001600160a01b03166318160ddd6040518163ffffffff1660e01b8152600401602060405180830381865afa15801561371f573d5f5f3e3d5ffd5b505050506040513d601f19601f8201168201806040525081019061374391906168ec565b905061374f8183613e8e565b92508215613799576137618484615100565b426012556040518381527f698f29fe990d4e7770f7e74cd309da261dd03ca828f7bb3c2ea8b8c9adcc0ecd9060200160405180910390a15b5050919050565b6001600160a01b0381165f9081526001830160205260408120541515610d28565b5f6137cc8484613f08565b90505f81516001600160401b038111156137e8576137e86166c8565b60405190808252806020026020018201604052801561382c57816020015b604080518082019091525f80825260208201528152602001906001900390816138065790505b5090505f80805b845181101561390b576001855161384a9190616903565b81148061388e5750855f868381518110613866576138666169cc565b602090810291909101810151516001600160a01b031682528101919091526040015f205460ff165b15613903578481815181106138a5576138a56169cc565b60200260200101518483815181106138bf576138bf6169cc565b60200260200101819052508481815181106138dc576138dc6169cc565b602002602001015160200151836138f391906169f6565b9250816138ff81616afa565b9250505b600101613833565b508083526139188261510e565b61392183615178565b61392a8361525d565b50505050505050565b336001600160a01b038216148015906139b75750604051636eb1769f60e11b81526001600160a01b03821660048201523360248201528290309063dd62ed3e90604401602060405180830381865afa158015613991573d5f5f3e3d5ffd5b505050506040513d601f19601f820116820180604052508101906139b591906168ec565b105b156139eb57335b604051630c849df760e41b81526001600160a01b0391821660048201529082166024820152604401610c7e565b5f6139f582612ab9565b90508083111561287657818382604051632e52afbb60e21b8152600401610c7e93929190616b12565b5f613a2761536f565b90505f5b8151811015612876575f828281518110613a4757613a476169cc565b6020026020010151602001519050838110613a8857613a82838381518110613a7157613a716169cc565b60200260200101515f015185613e25565b50505050565b8015613ac157613ab4838381518110613aa357613aa36169cc565b60200260200101515f015182613e25565b613abe8185616903565b93505b50600101613a2b565b826001600160a01b0316856001600160a01b031614613aee57613aee83868361502a565b613af88382615530565b613b237f00000000000000000000000000000000000000000000000000000000000000008584615564565b826001600160a01b0316846001600160a01b0316866001600160a01b03167ffbde797d201c681b91056529119e0b02407c7bb96a4a2c75c01fc9667232c8db8585604051613b7b929190918252602082015260400190565b60405180910390a45050505050565b613bc55f613bbf60ff1961355f60017fa44c7cc604645fc9d906e0a5aeb821ecf76e473a1a4d03393ebd52161430e41b616903565b906155c3565b613bfa5f613bbf60ff1961355f60017f98932279f8646d348f86cf154406d1fab3c6a0c52686d604c7d4a6a140038109616903565b613c2f5f613bbf60ff1961355f60017f410d83ac3c7a0c2a0669e43e3a5ca6694ee49455f748efa9954a95c3752e9fc9616903565b6111e05f613bbf60ff1961355f60017f2e756c3932ba771b80f1bae53d1177d9f7a4ced0ce66d74053b09f874cec6fff616903565b5f828218828410028218610d28565b600554600160a01b900460ff166111e057604051638dfc202b60e01b815260040160405180910390fd5b600654600754613cad91906169f6565b421015613ccd576040516304a59e3b60e01b815260040160405180910390fd5b6111e06155ca565b613cde8261561f565b613cfb576040516319ecf1a560e31b815260040160405180910390fd5b613d048161369f565b5060118290556040518281527f186e864438b783eec69fd7ce4871c28accfc0b45558ea08c48540f76094fecde90602001610cc0565b336001600160a01b03821614801590613dbe5750604051636eb1769f60e11b81526001600160a01b03821660048201523360248201528290309063dd62ed3e90604401602060405180830381865afa158015613d98573d5f5f3e3d5ffd5b505050506040513d601f19601f82011682018060405250810190613dbc91906168ec565b105b15613df257335b604051638b27f8ed60e01b81526001600160a01b0391821660048201529082166024820152604401610c7e565b5f613dfc82610f64565b905080841115613a8257818482604051633fa733bb60e21b8152600401610c7e93929190616b12565b604080516020810182525f81529051630278811f60e31b81526001600160a01b038416916313c408f891613e5d918591600401616b33565b5f604051808303815f87803b158015613e74575f5ffd5b505af1158015613e86573d5f5f3e3d5ffd5b505050505050565b5f5f6301e13380601154613ea29190616b5f565b90505f613ee5613ec8613eb76012600a616b72565b613ec2906064616b7d565b84615640565b85613ed56012600a616b72565b613ee0906064616b7d565b61564b565b90505f613ef28683614cc0565b9050613efe8682616903565b9695505050505050565b606082516001613f1891906169f6565b6001600160401b03811115613f2f57613f2f6166c8565b604051908082528060200260200182016040528015613f7357816020015b604080518082019091525f8082526020820152815260200190600190039081613f4d5790505b5090505f805b8451811015614067575f858281518110613f9557613f956169cc565b60200260200101516001600160a01b03166301e1d1146040518163ffffffff1660e01b8152600401602060405180830381865afa158015613fd8573d5f5f3e3d5ffd5b505050506040513d601f19601f82011682018060405250810190613ffc91906168ec565b9050604051806040016040528087848151811061401b5761401b6169cc565b60200260200101516001600160a01b0316815260200182815250848381518110614047576140476169cc565b602090810291909101015261405c81846169f6565b925050600101613f79565b505f836001600160a01b03166301e1d1146040518163ffffffff1660e01b8152600401602060405180830381865afa1580156140a5573d5f5f3e3d5ffd5b505050506040513d601f19601f820116820180604052508101906140c991906168ec565b90506040518060400160405280856001600160a01b0316815260200182815250838651815181106140fc576140fc6169cc565b602090810291909101015261411181836169f6565b915061411c83615178565b61412582615659565b61412e836156c3565b505092915050565b5f614140826111e2565b90508083111561287657818382604051633c8097d960e11b8152600401610c7e93929190616b12565b6141957f00000000000000000000000000000000000000000000000000000000000000008530856157a7565b61419f83826157e0565b826001600160a01b0316846001600160a01b03167fdcbc1c05240f31ff3ad067ef1ee35ce4997762752e3a095284754544f4c709d784846040516141ed929190918252602082015260400190565b60405180910390a350505050565b7f000000000000000000000000000000000000000000000000000000000000000060405163095ea7b360e01b81526001600160a01b03848116600483015260248201849052919091169063095ea7b3906044016020604051808303815f875af115801561426a573d5f5f3e3d5ffd5b505050506040513d601f19601f8201168201806040525081019061428e91906168a6565b50604080516020810182525f81529051632db6d39960e01b81526001600160a01b03841691632db6d39991613e5d918591600401616b33565b6142cf615814565b42600755565b5f6142df8261247e565b9050808311156128765781838260405163284ff66760e01b8152600401610c7e93929190616b12565b61431181612887565b61433957604051632767039f60e01b81526001600160a01b0382166004820152602401610c7e565b61434281615857565b61434d600e8261596f565b50806001600160a01b031663ebf311316040518163ffffffff1660e01b81526004015f604051808303815f87803b158015614386575f5ffd5b505af1158015614398573d5f5f3e3d5ffd5b505060055460405163d55dd62b60e01b81526001600160a01b03909116925063d55dd62b91506143cf906002908590600401616b94565b5f604051808303815f87803b1580156143e6575f5ffd5b505af11580156143f8573d5f5f3e3d5ffd5b50506040516001600160a01b03841692507f66d72a91b52f63fb063c4f672763d7ef15ce4d7c9a268a7f9b5133e41c1709a591505f90a250565b336001600160a01b038216148015906144b65750604051636eb1769f60e11b81526001600160a01b03821660048201523360248201528290309063dd62ed3e90604401602060405180830381865afa158015614490573d5f5f3e3d5ffd5b505050506040513d601f19601f820116820180604052508101906144b491906168ec565b105b156144c15733613dc5565b5f613dfc8261287b565b5f33610b4881858561508c565b600b548111156144fe5760405163899a5d8160e01b815260048101829052602401610c7e565b5f81900361451f576040516304dcdcd560e31b815260040160405180910390fd5b5f5b81811015612876576145c083838381811061453e5761453e6169cc565b90506020028101906145509190616bcc565b61455e906020810190616564565b848484818110614570576145706169cc565b90506020028101906145829190616bcc565b614593906040810190602001616564565b8585858181106145a5576145a56169cc565b90506020028101906145b79190616bcc565b60400135615983565b600101614521565b6008545f906001600160a01b0316838383816145e6576145e66169cc565b90506020028101906145f89190616bcc565b614609906040810190602001616564565b6001600160a01b03161490505f60085f015f9054906101000a90046001600160a01b03166001600160a01b03166301e1d1146040518163ffffffff1660e01b8152600401602060405180830381865afa158015614668573d5f5f3e3d5ffd5b505050506040513d601f19601f8201168201806040525081019061468c91906168ec565b90505f805b848110156147c9576146cf848787848181106146af576146af6169cc565b90506020028101906146c19190616bcc565b6146ca90616bea565b615c12565b5f8686838181106146e2576146e26169cc565b90506020028101906146f49190616bcc565b6040013590505f1981036147b457846147205760405163055bb2a160e41b815260040160405180910390fd5b868683818110614732576147326169cc565b90506020028101906147449190616bcc565b614752906020810190616564565b6001600160a01b03166301e1d1146040518163ffffffff1660e01b8152600401602060405180830381865afa15801561478d573d5f5f3e3d5ffd5b505050506040513d601f19601f820116820180604052508101906147b191906168ec565b90505b6147be81846169f6565b925050600101614691565b50826147d9576147d98282615c74565b5050505050565b5f805b8281101561483457614820848483818110614800576148006169cc565b90506020028101906148129190616bcc565b61481b90616bea565b615ccb565b61482a90836169f6565b91506001016147e3565b50336001600160a01b03167f507d790d4c0157977bb25bd8941f5f91c3118eab68b257c1d1c0825cb0051fd98484604051614870929190616cef565b60405180910390a292915050565b6001600160a01b0381166148a55760405163210e96cb60e01b815260040160405180910390fd5b6148ae81612887565b156148d757604051637eadea0960e11b81526001600160a01b0382166004820152602401610c7e565b806001600160a01b031663303dbaf36040518163ffffffff1660e01b8152600401602060405180830381865afa158015614913573d5f5f3e3d5ffd5b505050506040513d601f19601f8201168201806040525081019061493791906168a6565b6001600160a01b0382165f81815260106020526040808220805460ff191694159490941790935582516330fe427560e21b81529251909263c3f909d491600480830192869291908290030181865afa158015614995573d5f5f3e3d5ffd5b505050506040513d5f823e601f3d908101601f191682016040526149bc9190810190616e2c565b516001600160a01b0316146149e457604051631089e45f60e21b815260040160405180910390fd5b806001600160a01b0316638a8b99766040518163ffffffff1660e01b81526004015f604051808303815f87803b158015614a1c575f5ffd5b505af1158015614a2e573d5f5f3e3d5ffd5b50505050614a4681600e615e0e90919063ffffffff16565b506040516001600160a01b038216907fcb4a29d359e86f179111dcba8714def1a859612f729f2d224d13efeac51b36bc905f90a250565b5f80614ab361358b60ff1961355f60017f98932279f8646d348f86cf154406d1fab3c6a0c52686d604c7d4a6a140038109616903565b90508015614af757614aef61358b60ff1961355f60017f3d5fcbe10cf86b117683d0d4967b64a0c0fa4bdda7d07499d3c9dc5e388b6941616903565b915050610d28565b5f614b028686614d9c565b90505f5b8151811015614bf35760018251614b1d9190616903565b811480614b605750845f838381518110614b3957614b396169cc565b6020908102919091018101516001600160a01b031682528101919091526040015f205460ff165b15614beb57818181518110614b7757614b776169cc565b60200260200101516001600160a01b03166301e1d1146040518163ffffffff1660e01b8152600401602060405180830381865afa158015614bba573d5f5f3e3d5ffd5b505050506040513d601f19601f82011682018060405250810190614bde91906168ec565b614be890856169f6565b93505b600101614b06565b5050509392505050565b60135460408051918252602082018390527f5953b565c074c2cce1866b4e69c9efc4908556bb6fca70f735907c94d9405515910160405180910390a1601355565b60068190556040518181527f3cf175d91d8c5823f3729423b5a64130e40d4b09e88c6dc1925a260f26818c259060200160405180910390a150565b5f5b8181101561287657614cb8838383818110614c9857614c986169cc565b9050602002810190614caa9190616bcc565b614cb390616bea565b615e22565b600101614c7b565b5f614ccd6012600a616b72565b614cd8906064616b7d565b614ce28385616b7d565b610d289190616b5f565b60605f610d2883615e70565b336001600160a01b03821614801590614d7c5750604051636eb1769f60e11b81526001600160a01b03821660048201523360248201528290309063dd62ed3e90604401602060405180830381865afa158015614d56573d5f5f3e3d5ffd5b505050506040513d601f19601f82011682018060405250810190614d7a91906168ec565b105b15614d8757336139be565b5f6139f582611d70565b5f610d288383615ec9565b60605f83516001614dad91906169f6565b6001600160401b03811115614dc457614dc46166c8565b604051908082528060200260200182016040528015614ded578160200160208202803683370190505b5090505f5b8451811015614e4757848181518110614e0d57614e0d6169cc565b6020026020010151828281518110614e2757614e276169cc565b6001600160a01b0390921660209283029190910190910152600101614df2565b508281855181518110614e5c57614e5c6169cc565b6001600160a01b0390921660209283029190910190910152905092915050565b5f805b8251811015614f1557828181518110614e9a57614e9a6169cc565b60200260200101516001600160a01b03166301e1d1146040518163ffffffff1660e01b8152600401602060405180830381865afa158015614edd573d5f5f3e3d5ffd5b505050506040513d601f19601f82011682018060405250810190614f0191906168ec565b614f0b90836169f6565b9150600101614e7f565b50919050565b5f614f48614f2883615eef565b8015614f4357505f8480614f3e57614f3e616b4b565b868809115b151590565b614f53868686615f1b565b614f5d91906169f6565b95945050505050565b6001600160a01b038416614f8f5760405163e602df0560e01b81525f6004820152602401610c7e565b6001600160a01b038316614fb857604051634a1406b160e11b81525f6004820152602401610c7e565b6001600160a01b038085165f9081526001602090815260408083209387168352929052208290558015613a8257826001600160a01b0316846001600160a01b03167f8c5be1e5ebec7d5bd14f71427d1e84f3dd0314c0f7b2291e5b200ac8c7c3b925846040516141ed91815260200190565b6001600160a01b038381165f908152600160209081526040808320938616835292905220545f198114613a82578181101561507e57828183604051637dc7a0d960e11b8152600401610c7e93929190616b12565b613a8284848484035f614f66565b6001600160a01b0383166150b557604051634b637e8f60e11b81525f6004820152602401610c7e565b6001600160a01b0382166150de5760405163ec442f0560e01b81525f6004820152602401610c7e565b612876838383615fd1565b5f6150f66012600a616b72565b610b359083616b7d565b61510a82826157e0565b5050565b61514381613bbf60ff1961355f60017f3d5fcbe10cf86b117683d0d4967b64a0c0fa4bdda7d07499d3c9dc5e388b6941616903565b61151f6001613bbf60ff1961355f837f98932279f8646d348f86cf154406d1fab3c6a0c52686d604c7d4a6a140038109616903565b5f5b815181101561510a575f61518f8260016169f6565b90505b8251811015615254578281815181106151ad576151ad6169cc565b6020026020010151602001518383815181106151cb576151cb6169cc565b602002602001015160200151111561524c578281815181106151ef576151ef6169cc565b6020026020010151838381518110615209576152096169cc565b6020026020010151848481518110615223576152236169cc565b6020026020010185848151811061523c5761523c6169cc565b6020026020010182905282905250505b600101615192565b5060010161517a565b61151f8160ff1961528f60017f8f2b8f2fcb6f2e256bfd8c09fcca564574482705250cb5c8dbe56c4f4fce37c9616903565b6040516020016152a191815260200190565b60408051601f1981840301815291905280516020909101201660ff196152e860017f05abb041f8dc8945baa4f2792e2109e9d9e22dea3aa665ccf2f030209c7415ae616903565b6040516020016152fa91815260200190565b60408051601f1981840301815291905280516020909101201660ff1961534160017f410d83ac3c7a0c2a0669e43e3a5ca6694ee49455f748efa9954a95c3752e9fc9616903565b60405160200161535391815260200190565b60405160208183030381529060405280519060200120166160e4565b60605f6153a661358b60ff1961355f60017f410d83ac3c7a0c2a0669e43e3a5ca6694ee49455f748efa9954a95c3752e9fc9616903565b9050806001600160401b038111156153c0576153c06166c8565b60405190808252806020026020018201604052801561540457816020015b604080518082019091525f80825260208201528152602001906001900390816153de5790505b5091505f5b8181101561552b575f61547b61358b61547860ff1961544960017f05abb041f8dc8945baa4f2792e2109e9d9e22dea3aa665ccf2f030209c7415ae616903565b60405160200161545b91815260200190565b60405160208183030381529060405280519060200120168561615f565b90565b90505f6154e461358b61547860ff196154b560017f8f2b8f2fcb6f2e256bfd8c09fcca564574482705250cb5c8dbe56c4f4fce37c9616903565b6040516020016154c791815260200190565b60405160208183030381529060405280519060200120168661615f565b90506040518060400160405280836001600160a01b0316815260200182815250858481518110615516576155166169cc565b60209081029190910101525050600101615409565b505090565b6001600160a01b03821661555957604051634b637e8f60e11b81525f6004820152602401610c7e565b61510a825f83615fd1565b6040516001600160a01b0383811660248301526044820183905261287691859182169063a9059cbb906064015b604051602081830303815290604052915060e01b6020820180516001600160e01b03838183161783525050505061617a565b80825d5050565b6155d2613c73565b6005805460ff60a01b191690557f5db9ee0a495bf2e6ff9c91a7834c1ba4fdd244a5e8aa4e537bd38aeae4b073aa335b6040516001600160a01b03909116815260200160405180910390a1565b5f610b35826156306012600a616b72565b61563b906064616b7d565b101590565b5f610d2882846169f6565b5f8382613efe8286836161e6565b61568e81613bbf60ff1961355f60017fa9898051640582db44f19359a5df62a03dbff55353a9f388ea332d75dfa80fa1616903565b61151f6001613bbf60ff1961355f837fa44c7cc604645fc9d906e0a5aeb821ecf76e473a1a4d03393ebd52161430e41b616903565b61151f8160ff196156f560017f5720a3c83eb8242bbe1a4159c3b45ed663cd9e207a02bdea64844c6c583da9de616903565b60405160200161570791815260200190565b60408051601f1981840301815291905280516020909101201660ff1961574e60017fb4b00da68d43fac77a22bb187c63cb88989e294cfebeb79b3789ae1629639d99616903565b60405160200161576091815260200190565b60408051601f1981840301815291905280516020909101201660ff1961534160017f2e756c3932ba771b80f1bae53d1177d9f7a4ced0ce66d74053b09f874cec6fff616903565b6040516001600160a01b038481166024830152838116604483015260648201839052613a829186918216906323b872dd90608401615591565b6001600160a01b0382166158095760405163ec442f0560e01b81525f6004820152602401610c7e565b61510a5f8383615fd1565b61581c613651565b6005805460ff60a01b1916600160a01b1790557f62e78cea01bee320cd4e420270b5ea74000d11b0c9f74754ebdbfc544b05a2586156023390565b5f8190505f816001600160a01b031663dbd5edc76040518163ffffffff1660e01b8152600401602060405180830381865afa158015615898573d5f5f3e3d5ffd5b505050506040513d601f19601f820116820180604052508101906158bc91906168ec565b11156158e657604051632a4d8fbb60e01b81526001600160a01b0383166004820152602401610c7e565b806001600160a01b03166301e1d1146040518163ffffffff1660e01b8152600401602060405180830381865afa158015615922573d5f5f3e3d5ffd5b505050506040513d601f19601f8201168201806040525081019061594691906168ec565b1561510a5760405163ca4a18b360e01b81526001600160a01b0383166004820152602401610c7e565b5f610d28836001600160a01b0384166162ac565b805f036159ae57604051630a16952b60e21b81526001600160a01b0383166004820152602401610c7e565b6001600160a01b0382166159e057604051632767039f60e01b81526001600160a01b0383166004820152602401610c7e565b6001600160a01b038316615a1257604051632767039f60e01b81526001600160a01b0384166004820152602401610c7e565b615a1b82612887565b615a435760405163c80e655f60e01b81526001600160a01b0383166004820152602401610c7e565b615a4c83612887565b615a745760405163c80e655f60e01b81526001600160a01b0384166004820152602401610c7e565b5f836001600160a01b0316633194549e6040518163ffffffff1660e01b8152600401602060405180830381865afa158015615ab1573d5f5f3e3d5ffd5b505050506040513d601f19601f82011682018060405250810190615ad591906168ec565b905080821115615afe57838282604051637d7bf8e160e01b8152600401610c7e93929190616b12565b5f836001600160a01b031663ad5a356f6040518163ffffffff1660e01b8152600401602060405180830381865afa158015615b3b573d5f5f3e3d5ffd5b505050506040513d601f19601f82011682018060405250810190615b5f91906168ec565b905080831115615b885783838260405163016b606760e21b8152600401610c7e93929190616b12565b836001600160a01b031663dbd5edc76040518163ffffffff1660e01b8152600401602060405180830381865afa158015615bc4573d5f5f3e3d5ffd5b505050506040513d601f19601f82011682018060405250810190615be891906168ec565b5f036147d957604051630b9cb3f960e11b81526001600160a01b0385166004820152602401610c7e565b818015615c32575060085460208201516001600160a01b03908116911614155b80615c56575081158015615c56575060085481516001600160a01b03908116911614155b1561510a57604051633abef25360e21b815260040160405180910390fd5b6009548211615c9957604051600162efa20760e01b0319815260040160405180910390fd5b6009545f90615ca89084616903565b90508082111561287657604051633b5391f960e01b815260040160405180910390fd5b6020810151815160408301515f929190600101615d4957806001600160a01b03166301e1d1146040518163ffffffff1660e01b8152600401602060405180830381865afa158015615d1e573d5f5f3e3d5ffd5b505050506040513d601f19601f82011682018060405250810190615d4291906168ec565b9250615d51565b836040015192505b5f615d5b83612eed565b90505f836001600160a01b03166301e1d1146040518163ffffffff1660e01b8152600401602060405180830381865afa158015615d9a573d5f5f3e3d5ffd5b505050506040513d601f19601f82011682018060405250810190615dbe91906168ec565b905081615dcb86836169f6565b1115615df0578385836040516316e05b4760e21b8152600401610c7e93929190616b12565b615e0583858789606001518a6080015161638f565b50505050919050565b5f610d28836001600160a01b0384166163f5565b60085460208201516001600160a01b0390811691161480615e52575060085481516001600160a01b039081169116145b1561151f57604051630394d1d160e21b815260040160405180910390fd5b6060815f01805480602002602001604051908101604052809291908181526020018280548015615ebd57602002820191905f5260205f20905b815481526020019060010190808311615ea9575b50505050509050919050565b5f825f018281548110615ede57615ede6169cc565b905f5260205f200154905092915050565b5f6002826003811115615f0457615f04616916565b615f0e9190616f32565b60ff166001149050919050565b5f838302815f1985870982811083820303915050805f03615f4f57838281615f4557615f45616b4b565b0492505050610d28565b808411615f6657615f666003851502601118616441565b5f848688095f868103871696879004966002600389028118808a02820302808a02820302808a02820302808a02820302808a02820302808a02909103029181900381900460010186841190950394909402919094039290920491909117919091029150509392505050565b6001600160a01b038316615ffb578060025f828254615ff091906169f6565b909155506160589050565b6001600160a01b0383165f908152602081905260409020548181101561603a5783818360405163391434e360e21b8152600401610c7e93929190616b12565b6001600160a01b0384165f9081526020819052604090209082900390555b6001600160a01b03821661607457600280548290039055616092565b6001600160a01b0382165f9081526020819052604090208054820190555b816001600160a01b0316836001600160a01b03167fddf252ad1be2c89b69c2b068fc378daa952ba7f163c4a11628f55a4df523b3ef836040516160d791815260200190565b60405180910390a3505050565b5f5b84518110156161525761611d858281518110616104576161046169cc565b602002602001015160200151613bbf615478878561615f565b61614a858281518110616132576161326169cc565b60200260200101515f0151613bbf615478868561615f565b6001016160e6565b50613a828451613bbf8390565b60408051602081018490529081018290525f90606001611981565b5f5f60205f8451602086015f885af180616199576040513d5f823e3d81fd5b50505f513d915081156161b05780600114156161bd565b6001600160a01b0384163b155b15613a8257604051635274afe760e01b81526001600160a01b0385166004820152602401610c7e565b5f8315806161f2575082155b1561620a578215616203575f610d08565b5080610d28565b616215600284616f53565b156162205783616222565b815b90505f616230600284616b5f565b90506002840493505b83156162a457848502858682041461624f575f5ffd5b8181018181101561625e575f5ffd5b8490049550506001841615616299578482028286820414158615151615616283575f5ffd5b81810181811015616292575f5ffd5b8490049250505b600284049350616239565b509392505050565b5f8181526001830160205260408120548015616386575f6162ce600183616903565b85549091505f906162e190600190616903565b9050808214616340575f865f0182815481106162ff576162ff6169cc565b905f5260205f200154905080875f01848154811061631f5761631f6169cc565b5f918252602080832090910192909255918252600188019052604090208390555b855486908061635157616351616f66565b600190038181905f5260205f20015f90559055856001015f8681526020019081526020015f205f905560019350505050610b35565b5f915050610b35565b60405163c38a6f0b60e01b81526001600160a01b0386169063c38a6f0b906163c1908690889087908790600401616f7a565b5f604051808303815f87803b1580156163d8575f5ffd5b505af11580156163ea573d5f5f3e3d5ffd5b505050505050505050565b5f81815260018301602052604081205461643a57508154600181810184555f848152602080822090930184905584548482528286019093526040902091909155610b35565b505f610b35565b634e487b715f52806020526024601cfd5b5f81518084528060208401602086015e5f602082860101526020601f19601f83011685010191505092915050565b602081525f610d286020830184616452565b5f602082840312156164a2575f5ffd5b5035919050565b6001600160a01b038116811461151f575f5ffd5b5f5f604083850312156164ce575f5ffd5b82356164d9816164a9565b946020939093013593505050565b5f5f5f606084860312156164f9575f5ffd5b8335616504816164a9565b92506020840135616514816164a9565b929592945050506040919091013590565b5f5f5f60608486031215616537575f5ffd5b833592506020840135616549816164a9565b91506040840135616559816164a9565b809150509250925092565b5f60208284031215616574575f5ffd5b8135610d28816164a9565b5f5f60408385031215616590575f5ffd5b82356003811061659e575f5ffd5b915060208301356165ae816164a9565b809150509250929050565b5f5f604083850312156165ca575f5ffd5b8235915060208301356165ae816164a9565b5f5f83601f8401126165ec575f5ffd5b5081356001600160401b03811115616602575f5ffd5b6020830191508360208260051b850101111561661c575f5ffd5b9250929050565b5f5f60208385031215616634575f5ffd5b82356001600160401b03811115616649575f5ffd5b616655858286016165dc565b90969095509350505050565b5f5f60408385031215616672575f5ffd5b823561659e816164a9565b602080825282518282018190525f918401906040840190835b818110156166bd5783516001600160a01b0316835260209384019390920191600101616696565b509095945050505050565b634e487b7160e01b5f52604160045260245ffd5b60405160a081016001600160401b03811182821017156166fe576166fe6166c8565b60405290565b60405161014081016001600160401b03811182821017156166fe576166fe6166c8565b604051601f8201601f191681016001600160401b038111828210171561674f5761674f6166c8565b604052919050565b5f6001600160401b0382111561676f5761676f6166c8565b50601f01601f191660200190565b5f82601f83011261678c575f5ffd5b813561679f61679a82616757565b616727565b8181528460208386010111156167b3575f5ffd5b816020850160208301375f918101602001919091529392505050565b5f5f5f606084860312156167e1575f5ffd5b8335925060208401356167f3816164a9565b915060408401356001600160401b0381111561680d575f5ffd5b6168198682870161677d565b9150509250925092565b600181811c9082168061683757607f821691505b602082108103614f1557634e487b7160e01b5f52602260045260245ffd5b8051616860816164a9565b919050565b5f60208284031215616875575f5ffd5b8151610d28816164a9565b9182526001600160a01b0316602082015260400190565b80518015158114616860575f5ffd5b5f602082840312156168b6575f5ffd5b610d2882616897565b634e487b7160e01b5f52601160045260245ffd5b60ff8181168382160190811115610b3557610b356168bf565b5f602082840312156168fc575f5ffd5b5051919050565b81810381811115610b3557610b356168bf565b634e487b7160e01b5f52602160045260245ffd5b5f6003841061694757634e487b7160e01b5f52602160045260245ffd5b5060f89290921b825260601b6bffffffffffffffffffffffff1916600182015260150190565b5f60a082840312801561697e575f5ffd5b506169876166dc565b8251616992816164a9565b815260208381015190820152604080840151908201526060808401519082015260808301516169c0816164a9565b60808201529392505050565b634e487b7160e01b5f52603260045260245ffd5b5f82518060208501845e5f920191825250919050565b80820180821115610b3557610b356168bf565b6001815b6001841115616a4457808504811115616a2857616a286168bf565b6001841615616a3657908102905b60019390931c928002616a0d565b935093915050565b5f82616a5a57506001610b35565b81616a6657505f610b35565b8160018114616a7c5760028114616a8657616aa2565b6001915050610b35565b60ff841115616a9757616a976168bf565b50506001821b610b35565b5060208310610133831016604e8410600b8410161715616ac5575081810a610b35565b616ad15f198484616a09565b805f1904821115616ae457616ae46168bf565b029392505050565b5f610d2860ff841683616a4c565b5f60018201616b0b57616b0b6168bf565b5060010190565b6001600160a01b039390931683526020830191909152604082015260600190565b828152604060208201525f6112a26040830184616452565b634e487b7160e01b5f52601260045260245ffd5b5f82616b6d57616b6d616b4b565b500490565b5f610d288383616a4c565b8082028115828204841417610b3557610b356168bf565b6040810160038410616bb457634e487b7160e01b5f52602160045260245ffd5b9281526001600160a01b039190911660209091015290565b5f8235609e19833603018112616be0575f5ffd5b9190910192915050565b5f60a08236031215616bfa575f5ffd5b616c026166dc565b8235616c0d816164a9565b81526020830135616c1d816164a9565b60208201526040838101359082015260608301356001600160401b03811115616c44575f5ffd5b616c503682860161677d565b60608301525060808301356001600160401b03811115616c6e575f5ffd5b616c7a3682860161677d565b60808301525092915050565b5f5f8335601e19843603018112616c9b575f5ffd5b83016020810192503590506001600160401b03811115616cb9575f5ffd5b80360382131561661c575f5ffd5b81835281816020850137505f828201602090810191909152601f909101601f19169091010190565b602080825281018290525f6040600584901b830181019083018583609e1936839003015b87821015616dd257868503603f190184528235818112616d31575f5ffd5b89018035616d3e816164a9565b6001600160a01b031686526020810135616d57816164a9565b6001600160a01b0316602087015260408181013590870152616d7c6060820182616c86565b60a06060890152616d9160a089018284616cc7565b915050616da16080830183616c86565b92508782036080890152616db6828483616cc7565b9750505050602083019250602084019350600182019150616d13565b5092979650505050505050565b5f82601f830112616dee575f5ffd5b8151616dfc61679a82616757565b818152846020838601011115616e10575f5ffd5b8160208501602083015e5f918101602001919091529392505050565b5f60208284031215616e3c575f5ffd5b81516001600160401b03811115616e51575f5ffd5b82016101408185031215616e63575f5ffd5b616e6b616704565b616e7482616855565b8152616e8260208301616855565b6020820152616e9360408301616855565b6040820152606082810151908201526080808301519082015260a0808301519082015260c08201516001600160401b03811115616ece575f5ffd5b616eda86828501616ddf565b60c08301525060e08201516001600160401b03811115616ef8575f5ffd5b616f0486828501616ddf565b60e083015250616f176101008301616897565b61010082015261012091820151918101919091529392505050565b5f60ff831680616f4457616f44616b4b565b8060ff84160691505092915050565b5f82616f6157616f61616b4b565b500690565b634e487b7160e01b5f52603160045260245ffd5b8481526001600160a01b03841660208201526080604082018190525f90616fa390830185616452565b8281036060840152616fb58185616452565b97965050505050505056fea26469706673582212202fd6a2bac22ad3ae8c733d837ea3db4d7c2b5a67307686c1691516d55f2b773a64736f6c634300081c003360a060405234801561000f575f5ffd5b5060405161289538038061289583398101604081905261002e9161049a565b6060820151604083015183918291806001600160a01b03811661006b576040516347bd7c1d60e01b81525f60048201526024015b60405180910390fd5b6040516301ffc9a760e01b8152639bd1803160e01b60048201526001600160a01b038216906301ffc9a790602401602060405180830381865afa1580156100b4573d5f5f3e3d5ffd5b505050506040513d601f19601f820116820180604052508101906100d891906105b1565b610100576040516347bd7c1d60e01b81526001600160a01b0382166004820152602401610062565b5f80546001600160a01b0319166001600160a01b039283161790558216905061013c5760405163f1634df960e01b815260040160405180910390fd5b6001600160a01b0390811660805260608201511661016d5760405163b53c493160e01b815260040160405180910390fd5b60808101516001600160a01b031661019b576040516001620a810f60e11b0319815260040160405180910390fd5b8051515f036101bd5760405163268c072960e01b815260040160405180910390fd5b5f6101c6610342565b6001600160a01b0316036101ed57604051633a4f9cdb60e21b815260040160405180910390fd5b6040805161014081019091525f815260208101610208610342565b6001600160a01b039081168252608080850151821660208085019190915260a08087015160408087019190915260c08089015160608089019190915260e0808b0151878a01528a51858a01528a860151838a0152610100808c01511515918a01919091526101208b01519801979097528751600180549188166001600160a01b031992831617815594890151600280549189169183169190911790559188015160038054919097169216919091179094559385015160045590840151600555918301516006558201516007906102de9082610655565b5060e082015160078201906102f39082610655565b5061010082015160088201805460ff1916911515919091179055610120909101516009909101555050600180546001600160a01b0319166001600160a01b039290921691909117905550610728565b5f6080516001600160a01b031663117d8ae06040518163ffffffff1660e01b8152600401602060405180830381865afa158015610381573d5f5f3e3d5ffd5b505050506040513d601f19601f820116820180604052508101906103a5919061070f565b905090565b634e487b7160e01b5f52604160045260245ffd5b60405161014081016001600160401b03811182821017156103e1576103e16103aa565b60405290565b5f82601f8301126103f6575f5ffd5b81516001600160401b0381111561040f5761040f6103aa565b604051601f8201601f19908116603f011681016001600160401b038111828210171561043d5761043d6103aa565b604052818152838201602001851015610454575f5ffd5b8160208501602083015e5f918101602001919091529392505050565b80516001600160a01b0381168114610486575f5ffd5b919050565b80518015158114610486575f5ffd5b5f5f604083850312156104ab575f5ffd5b82516001600160401b038111156104c0575f5ffd5b830161014081860312156104d2575f5ffd5b6104da6103be565b81516001600160401b038111156104ef575f5ffd5b6104fb878285016103e7565b82525060208201516001600160401b03811115610516575f5ffd5b610522878285016103e7565b60208301525061053460408301610470565b604082015261054560608301610470565b606082015261055660808301610470565b608082015260a0828101519082015260c0808301519082015260e08083015190820152610586610100830161048b565b610100820152610120918201519181019190915291506105a860208401610470565b90509250929050565b5f602082840312156105c1575f5ffd5b6105ca8261048b565b9392505050565b600181811c908216806105e557607f821691505b60208210810361060357634e487b7160e01b5f52602260045260245ffd5b50919050565b601f82111561065057805f5260205f20601f840160051c8101602085101561062e5750805b601f840160051c820191505b8181101561064d575f815560010161063a565b50505b505050565b81516001600160401b0381111561066e5761066e6103aa565b6106828161067c84546105d1565b84610609565b6020601f8211600181146106b4575f831561069d5750848201515b5f19600385901b1c1916600184901b17845561064d565b5f84815260208120601f198516915b828110156106e357878501518255602094850194600190920191016106c3565b508482101561070057868401515f19600387901b60f8161c191681555b50505050600190811b01905550565b5f6020828403121561071f575f5ffd5b6105ca82610470565b6080516121326107635f395f818161037d015281816104cf01528181610867015281816108c401528181611087015261165201526121325ff3fe608060405234801561000f575f5ffd5b50600436106101c6575f3560e01c8063780469bb116100fe578063bdcdd8821161009e578063ce5c7f611161006e578063ce5c7f611461039f578063dbd5edc7146103b2578063ebf31131146103ba578063f7e533ec146103c2575f5ffd5b8063bdcdd88214610348578063c38a6f0b14610350578063c3f909d414610363578063c9c667e314610378575f5ffd5b806386651203116100d957806386651203146103125780638a8b99761461032557806392f5e8321461032d578063ad5a356f14610340575f5ffd5b8063780469bb146102cb57806379502c55146102ec5780637aaceb951461030a575f5ffd5b806337270936116101695780635b0f83f3116101445780635b0f83f31461029557806361d027b31461029d57806361f5cd8b146102a557806369b3054b146102b8575f5ffd5b8063372709361461026057806338d52e0f146102715780634fc7fac314610282575f5ffd5b806313c408f8116101a457806313c408f81461021a5780632db6d3991461022f578063303dbaf3146102425780633194549e14610258575f5ffd5b806301e1d114146101ca57806306fdde03146101e5578063117d8ae0146101fa575b5f5ffd5b6101d26103ca565b6040519081526020015b60405180910390f35b6101ed610439565b6040516101dc9190611a47565b6102026104cc565b6040516001600160a01b0390911681526020016101dc565b61022d610228366004611a9e565b61054d565b005b61022d61023d366004611a9e565b61060b565b60095460ff1660405190151581526020016101dc565b6005546101d2565b6001546001600160a01b0316610202565b6003546001600160a01b0316610202565b61022d610290366004611ae6565b610816565b610202610864565b6102026108c1565b61022d6102b3366004611ae6565b61091e565b6101d26102c6366004611b14565b610965565b6102de6102d9366004611b93565b610997565b6040516101dc929190611c47565b6102f4610f2d565b6040516101dc9a99989796959493929190611cd0565b610202611084565b61022d610320366004611ae6565b6110e1565b61022d611128565b61022d61033b366004611ae6565b611185565b6006546101d2565b600a546101d2565b61022d61035e366004611d47565b6111cc565b61036b611312565b6040516101dc9190611dd2565b6102027f000000000000000000000000000000000000000000000000000000000000000081565b6102de6103ad366004611ea3565b61150b565b6004546101d2565b61022d6115fd565b61020261164f565b6003546040516370a0823160e01b81523060048201525f916001600160a01b0316906370a0823190602401602060405180830381865afa158015610410573d5f5f3e3d5ffd5b505050506040513d601f19601f820116820180604052508101906104349190611ee2565b905090565b60606001600601805461044b90611ef9565b80601f016020809104026020016040519081016040528092919081815260200182805461047790611ef9565b80156104c25780601f10610499576101008083540402835291602001916104c2565b820191905f5260205f20905b8154815290600101906020018083116104a557829003601f168201915b5050505050905090565b5f7f00000000000000000000000000000000000000000000000000000000000000006001600160a01b031663117d8ae06040518163ffffffff1660e01b8152600401602060405180830381865afa158015610529573d5f5f3e3d5ffd5b505050506040513d601f19601f820116820180604052508101906104349190611f31565b6105556116ac565b61058557335b604051631564c0e160e11b81526001600160a01b0390911660048201526024015b60405180910390fd5b61058d611735565b818161059982826117a4565b336003546105b1906001600160a01b03168288611806565b600354604080516001600160a01b03928316815260208101899052918316917fd5e872c5ecfb1bb8820b2e6a20e31b883682282da886621541f71e31ec11947e910160405180910390a2505050610606611865565b505050565b610613611735565b306001600160a01b031663372709366040518163ffffffff1660e01b8152600401602060405180830381865afa15801561064f573d5f5f3e3d5ffd5b505050506040513d601f19601f820116820180604052508101906106739190611f31565b61067b6116ac565b61079a575f3390505f306001600160a01b031663117d8ae06040518163ffffffff1660e01b8152600401602060405180830381865afa1580156106c0573d5f5f3e3d5ffd5b505050506040513d601f19601f820116820180604052508101906106e49190611f31565b6001600160a01b0316826001600160a01b0316149050806107975760405163d25dd10160e01b81526001600160a01b0383811660048301525f919085169063d25dd10190602401602060405180830381865afa158015610746573d5f5f3e3d5ffd5b505050506040513d601f19601f8201168201806040525081019061076a9190611f4c565b90508061079557604051638f7a567d60e01b81526001600160a01b038416600482015260240161057c565b505b50505b82826107a682826117a4565b60035433906107c0906001600160a01b031682308a61188f565b600354604080516001600160a01b039283168152602081018a9052918316917fcbaa1442ac205415c9d69643e7b60ec73d1de35dbc807c21ec288c70ddc4207b910160405180910390a250505050610606611865565b61081e6116ac565b610828573361055b565b600a8190556040518181527fd3c6d0ab315f2f1352f036cd9f401b49e38e1b90907e195225e8105f9a0b6f02906020015b60405180910390a150565b5f7f00000000000000000000000000000000000000000000000000000000000000006001600160a01b0316635b0f83f36040518163ffffffff1660e01b8152600401602060405180830381865afa158015610529573d5f5f3e3d5ffd5b5f7f00000000000000000000000000000000000000000000000000000000000000006001600160a01b03166361d027b36040518163ffffffff1660e01b8152600401602060405180830381865afa158015610529573d5f5f3e3d5ffd5b6109266116ac565b610930573361055b565b60058190556040518181527ffbe2d5c01ea8ba5596d6c4e6c82c6d4a0a0ee1128689993a4a5ba0169273d69f90602001610859565b5f8282604051602001610979929190611f6b565b60405160208183030381529060405280519060200120905092915050565b606080306001600160a01b031663117d8ae06040518163ffffffff1660e01b8152600401602060405180830381865afa1580156109d6573d5f5f3e3d5ffd5b505050506040513d601f19601f820116820180604052508101906109fa9190611f31565b6001600160a01b0316336001600160a01b031614610a3957335b604051631184b31b60e21b81526001600160a01b03909116600482015260240161057c565b610a41611735565b825167ffffffffffffffff811115610a5b57610a5b611b4e565b604051908082528060200260200182016040528015610a84578160200160208202803683370190505b509150825167ffffffffffffffff811115610aa157610aa1611b4e565b604051908082528060200260200182016040528015610aca578160200160208202803683370190505b506003546040516370a0823160e01b81523060048201529192505f916001600160a01b03909116906370a0823190602401602060405180830381865afa158015610b16573d5f5f3e3d5ffd5b505050506040513d601f19601f82011682018060405250810190610b3a9190611ee2565b1115610cfe57600154604080516330fe427560e21b815290515f926001600160a01b03169163c3f909d49160048083019260a09291908290030181865afa158015610b87573d5f5f3e3d5ffd5b505050506040513d601f19601f82011682018060405250810190610bab9190611fae565b516003546040516370a0823160e01b8152306004820152919250610c309183916001600160a01b0316906370a0823190602401602060405180830381865afa158015610bf9573d5f5f3e3d5ffd5b505050506040513d601f19601f82011682018060405250810190610c1d9190611ee2565b6003546001600160a01b031691906118ce565b6003546040516370a0823160e01b81523060048201526001600160a01b0383811692632db6d399929116906370a0823190602401602060405180830381865afa158015610c7f573d5f5f3e3d5ffd5b505050506040513d601f19601f82011682018060405250810190610ca39190611ee2565b60405180602001604052805f8152506040518363ffffffff1660e01b8152600401610ccf92919061202b565b5f604051808303815f87803b158015610ce6575f5ffd5b505af1158015610cf8573d5f5f3e3d5ffd5b50505050505b5f5b8351811015610ecc575f848281518110610d1c57610d1c61204b565b60209081029190910101516040516370a0823160e01b81523060048201526001600160a01b03909116906370a0823190602401602060405180830381865afa158015610d6a573d5f5f3e3d5ffd5b505050506040513d601f19601f82011682018060405250810190610d8e9190611ee2565b90508015610ec357610e57610da16104cc565b868481518110610db357610db361204b565b60209081029190910101516040516370a0823160e01b81523060048201526001600160a01b03909116906370a0823190602401602060405180830381865afa158015610e01573d5f5f3e3d5ffd5b505050506040513d601f19601f82011682018060405250810190610e259190611ee2565b878581518110610e3757610e3761204b565b60200260200101516001600160a01b03166118069092919063ffffffff16565b848281518110610e6957610e6961204b565b6020026020010151848381518110610e8357610e8361204b565b60200260200101906001600160a01b031690816001600160a01b03168152505080838381518110610eb657610eb661204b565b6020026020010181815250505b50600101610d00565b5080604051610edb919061205f565b604051809103902082604051610ef19190612094565b604051908190038120907f46b8771620f6acf56cb03d3e835ea8024c7dcbcf05fcc3f6ade9e19d1a3e212b905f90a3610f28611865565b915091565b60018054600254600354600454600554600654600780546001600160a01b03978816989688169790951695939492939192610f6790611ef9565b80601f0160208091040260200160405190810160405280929190818152602001828054610f9390611ef9565b8015610fde5780601f10610fb557610100808354040283529160200191610fde565b820191905f5260205f20905b815481529060010190602001808311610fc157829003601f168201915b505050505090806007018054610ff390611ef9565b80601f016020809104026020016040519081016040528092919081815260200182805461101f90611ef9565b801561106a5780601f106110415761010080835404028352916020019161106a565b820191905f5260205f20905b81548152906001019060200180831161104d57829003601f168201915b505050506008830154600990930154919260ff169190508a565b5f7f00000000000000000000000000000000000000000000000000000000000000006001600160a01b0316637aaceb956040518163ffffffff1660e01b8152600401602060405180830381865afa158015610529573d5f5f3e3d5ffd5b6110e96116ac565b6110f3573361055b565b60048190556040518181527f333b26cca69716ad4680ddb07663f5bfb4f06045671f336af9a83690a3ae00f990602001610859565b6111306116ac565b61113a573361055b565b600180546001600160a01b031916339081179091556040519081527f55489ce0259bd691120d8860861be1c401c7c16a3cd268d21045756af4ecc5ca906020015b60405180910390a1565b61118d6116ac565b611197573361055b565b60068190556040518181527fb6ac66853c4e59c71e118d25ab494bb847c4e5eb0c8894898c5343e6f61afc1290602001610859565b6111d46116ac565b6111de573361055b565b81816111ea82826117a4565b60035460405163095ea7b360e01b81526001600160a01b038981166004830152602482018b90529091169063095ea7b3906044016020604051808303815f875af115801561123a573d5f5f3e3d5ffd5b505050506040513d601f19601f8201168201806040525081019061125e9190611f4c565b50604051632db6d39960e01b81526001600160a01b03881690632db6d3999061128f908b908a908a906004016120c7565b5f604051808303815f87803b1580156112a6575f5ffd5b505af11580156112b8573d5f5f3e3d5ffd5b5050600354604080516001600160a01b039283168152602081018d9052918b1693503092507f9f784fc02a186f1c98b2d9f15fda084da27cdd291a3785d978f91911d880516b910160405180910390a35050505050505050565b61137d6040518061014001604052805f6001600160a01b031681526020015f6001600160a01b031681526020015f6001600160a01b031681526020015f81526020015f81526020015f815260200160608152602001606081526020015f151581526020015f81525090565b6040805161014081018252600180546001600160a01b0390811683526002548116602084015260035416928201929092526004546060820152600554608082015260065460a08201526007805491929160c0840191906113dc90611ef9565b80601f016020809104026020016040519081016040528092919081815260200182805461140890611ef9565b80156114535780601f1061142a57610100808354040283529160200191611453565b820191905f5260205f20905b81548152906001019060200180831161143657829003601f168201915b5050505050815260200160078201805461146c90611ef9565b80601f016020809104026020016040519081016040528092919081815260200182805461149890611ef9565b80156114e35780601f106114ba576101008083540402835291602001916114e3565b820191905f5260205f20905b8154815290600101906020018083116114c657829003601f168201915b5050509183525050600882015460ff1615156020820152600990910154604090910152919050565b606080306001600160a01b031663117d8ae06040518163ffffffff1660e01b8152600401602060405180830381865afa15801561154a573d5f5f3e3d5ffd5b505050506040513d601f19601f8201168201806040525081019061156e9190611f31565b6001600160a01b0316336001600160a01b03161461158c5733610a14565b611594611735565b505060405160609081906115a990829061205f565b6040518091039020826040516115bf9190612094565b604051908190038120907f3e3e7958121b3e39c7a49392d1aa9cdce870c2a059744f9e15cf66fff7865455905f90a36115f6611865565b9250929050565b6116056116ac565b61160f573361055b565b600180546001600160a01b03191690556040513381527f7cb941d7b1708e5b3bcd35ca960d6c6311188cec18886e5b67630552676b04879060200161117b565b5f7f00000000000000000000000000000000000000000000000000000000000000006001600160a01b031663f7e533ec6040518163ffffffff1660e01b8152600401602060405180830381865afa158015610529573d5f5f3e3d5ffd5b5f80546001600160a01b03166391d148546116c8600230610965565b336040516001600160e01b031960e085901b16815260048101929092526001600160a01b03166024820152604401602060405180830381865afa158015611711573d5f5f3e3d5ffd5b505050506040513d601f19601f820116820180604052508101906104349190611f4c565b7f9b779b17422d0df92223018b32b4d1fa46e071723d6817e2486d003becc55f005c1561177557604051633ee5aeb560e01b815260040160405180910390fd5b6117a260017f9b779b17422d0df92223018b32b4d1fa46e071723d6817e2486d003becc55f005b9061195d565b565b80158015906117b6575060095460ff16155b156117d457604051630cd0fdf960e01b815260040160405180910390fd5b801580156117e4575060095460ff165b156118025760405163332863a960e11b815260040160405180910390fd5b5050565b6040516001600160a01b0383811660248301526044820183905261060691859182169063a9059cbb906064015b604051602081830303815290604052915060e01b6020820180516001600160e01b038381831617835250505050611964565b6117a25f7f9b779b17422d0df92223018b32b4d1fa46e071723d6817e2486d003becc55f0061179c565b6040516001600160a01b0384811660248301528381166044830152606482018390526118c89186918216906323b872dd90608401611833565b50505050565b604080516001600160a01b038416602482015260448082018490528251808303909101815260649091019091526020810180516001600160e01b031663095ea7b360e01b17905261191f84826119d0565b6118c8576040516001600160a01b0384811660248301525f604483015261195391869182169063095ea7b390606401611833565b6118c88482611964565b80825d5050565b5f5f60205f8451602086015f885af180611983576040513d5f823e3d81fd5b50505f513d9150811561199a5780600114156119a7565b6001600160a01b0384163b155b156118c857604051635274afe760e01b81526001600160a01b038516600482015260240161057c565b5f5f5f5f60205f8651602088015f8a5af192503d91505f519050828015611a0f57508115611a015780600114611a0f565b5f866001600160a01b03163b115b9695505050505050565b5f81518084528060208401602086015e5f602082860101526020601f19601f83011685010191505092915050565b602081525f611a596020830184611a19565b9392505050565b5f5f83601f840112611a70575f5ffd5b50813567ffffffffffffffff811115611a87575f5ffd5b6020830191508360208285010111156115f6575f5ffd5b5f5f5f60408486031215611ab0575f5ffd5b83359250602084013567ffffffffffffffff811115611acd575f5ffd5b611ad986828701611a60565b9497909650939450505050565b5f60208284031215611af6575f5ffd5b5035919050565b6001600160a01b0381168114611b11575f5ffd5b50565b5f5f60408385031215611b25575f5ffd5b823560038110611b33575f5ffd5b91506020830135611b4381611afd565b809150509250929050565b634e487b7160e01b5f52604160045260245ffd5b604051601f8201601f1916810167ffffffffffffffff81118282101715611b8b57611b8b611b4e565b604052919050565b5f60208284031215611ba3575f5ffd5b813567ffffffffffffffff811115611bb9575f5ffd5b8201601f81018413611bc9575f5ffd5b803567ffffffffffffffff811115611be357611be3611b4e565b8060051b611bf360208201611b62565b91825260208184018101929081019087841115611c0e575f5ffd5b6020850194505b83851015611c3c5784359250611c2a83611afd565b82825260209485019490910190611c15565b979650505050505050565b604080825283519082018190525f9060208501906060840190835b81811015611c895783516001600160a01b0316835260209384019390920191600101611c62565b5050838103602080860191909152855180835291810192508501905f5b81811015611cc4578251845260209384019390920191600101611ca6565b50919695505050505050565b6001600160a01b038b811682528a8116602083015289166040820152606081018890526080810187905260a0810186905261014060c082018190525f90611d1990830187611a19565b82810360e0840152611d2b8187611a19565b9415156101008401525050610120015298975050505050505050565b5f5f5f5f5f5f60808789031215611d5c575f5ffd5b863595506020870135611d6e81611afd565b9450604087013567ffffffffffffffff811115611d89575f5ffd5b611d9589828a01611a60565b909550935050606087013567ffffffffffffffff811115611db4575f5ffd5b611dc089828a01611a60565b979a9699509497509295939492505050565b60208152611dec6020820183516001600160a01b03169052565b5f6020830151611e0760408401826001600160a01b03169052565b5060408301516001600160a01b03811660608401525060608301516080830152608083015160a083015260a083015160c083015260c083015161014060e0840152611e56610160840182611a19565b905060e0840151601f1984830301610100850152611e748282611a19565b915050610100840151611e8c61012085018215159052565b506101208401516101408401528091505092915050565b5f5f60208385031215611eb4575f5ffd5b823567ffffffffffffffff811115611eca575f5ffd5b611ed685828601611a60565b90969095509350505050565b5f60208284031215611ef2575f5ffd5b5051919050565b600181811c90821680611f0d57607f821691505b602082108103611f2b57634e487b7160e01b5f52602260045260245ffd5b50919050565b5f60208284031215611f41575f5ffd5b8151611a5981611afd565b5f60208284031215611f5c575f5ffd5b81518015158114611a59575f5ffd5b5f60038410611f8857634e487b7160e01b5f52602160045260245ffd5b5060f89290921b825260601b6bffffffffffffffffffffffff1916600182015260150190565b5f60a0828403128015611fbf575f5ffd5b5060405160a0810167ffffffffffffffff81118282101715611fe357611fe3611b4e565b6040528251611ff181611afd565b8152602083810151908201526040808401519082015260608084015190820152608083015161201f81611afd565b60808201529392505050565b828152604060208201525f6120436040830184611a19565b949350505050565b634e487b7160e01b5f52603260045260245ffd5b81515f90829060208501835b8281101561208957815184526020938401939091019060010161206b565b509195945050505050565b81515f90829060208501835b828110156120895781516001600160a01b03168452602093840193909101906001016120a0565b83815260406020820152816040820152818360608301375f818301606090810191909152601f909201601f191601019291505056fea2646970667358221220ffa19ab329298b86316e3c389d1c6efa5e6af714a2583f3a82360ba88064a95464736f6c634300081c0033","linkReferences":{}},"methodIdentifiers":{"DEFAULT_MAX_REBALANCE_OPERATIONS()":"168b813a","INITIAL_MINIMUM_PAUSE_TIME()":"a0506f0b","MAX_REBALANCE_OPERATIONS()":"5ed975e5","addArk(address)":"e37d5b7f","addArks(address[])":"cc5b1e55","adjustBuffer((address,address,uint256,bytes,bytes)[])":"cada5143","allowance(address,address)":"dd62ed3e","approve(address,uint256)":"095ea7b3","arks(uint256)":"ff32a42a","asset()":"38d52e0f","balanceOf(address)":"70a08231","bufferArk()":"c8169aa1","config()":"79502c55","configurationManager()":"c9c667e3","convertToAssets(uint256)":"07a2d13a","convertToShares(uint256)":"c6e6f592","decimals()":"313ce567","deposit(uint256,address)":"6e553f65","deposit(uint256,address,bytes)":"faa9bce9","details()":"565974d3","estimateAccruedTip()":"68482626","fleetCommanderRewardsManagerFactory()":"f7e533ec","forceRebalance((address,address,uint256,bytes,bytes)[])":"e7b20e5b","generateRole(uint8,address)":"69b3054b","getArks()":"f1cd665b","getConfig()":"c3f909d4","getCooldown()":"218e4a15","getEffectiveArkDepositCap(address)":"ef2fc472","getLastActionTimestamp()":"3152d5d1","harborCommand()":"5b0f83f3","isArkActive(address)":"d25dd101","isArkWithdrawable(address)":"5340c012","lastTipTimestamp()":"71aedbc1","maxBufferRedeem(address)":"9265b76e","maxBufferWithdraw(address)":"3e314c76","maxDeposit(address)":"402d267d","maxMint(address)":"c63d75b6","maxRedeem(address)":"d905777e","maxWithdraw(address)":"ce96cb77","minimumPauseTime()":"680e57ab","mint(uint256,address)":"94bf804d","name()":"06fdde03","pause()":"8456cb59","pauseStartTime()":"94d7eaa4","paused()":"5c975abb","previewDeposit(uint256)":"ef8b30f7","previewMint(uint256)":"b3d7f6b9","previewRedeem(uint256)":"4cdad506","previewWithdraw(uint256)":"0a28a477","raft()":"117d8ae0","rebalance((address,address,uint256,bytes,bytes)[])":"fcf2849f","redeem(uint256,address,address)":"ba087652","redeemFromArks(uint256,address,address)":"3a7c9f0e","redeemFromBuffer(uint256,address,address)":"f3577816","removeArk(address)":"96c25a38","setArkDepositCap(address,uint256)":"34050560","setArkMaxDepositPercentageOfTVL(address,uint256)":"f3ba553e","setArkMaxRebalanceInflow(address,uint256)":"d45a07a1","setArkMaxRebalanceOutflow(address,uint256)":"b637766c","setFleetDepositCap(uint256)":"d902d41a","setMaxRebalanceOperations(uint256)":"133ab579","setMinimumBufferBalance(uint256)":"4daecb9c","setMinimumPauseTime(uint256)":"e193858f","setStakingRewardsManager(address)":"5e5a9ea9","setTipRate(uint256)":"5822198f","symbol()":"95d89b41","tip()":"2755cd2d","tipJar()":"7aaceb95","tipRate()":"498e76a0","totalAssets()":"01e1d114","totalSupply()":"18160ddd","transfer(address,uint256)":"a9059cbb","transferFrom(address,address,uint256)":"23b872dd","treasury()":"61d027b3","unpause()":"3f4ba83a","updateRebalanceCooldown(uint256)":"dc9de0a8","withdraw(uint256,address,address)":"b460af94","withdrawFromArks(uint256,address,address)":"a039e944","withdrawFromBuffer(uint256,address,address)":"5f538f6f","withdrawableTotalAssets()":"d570ee47"},"id":193}