{"abi":[{"type":"constructor","inputs":[{"name":"params","type":"tuple","internalType":"struct FleetCommanderParams","components":[{"name":"name","type":"string","internalType":"string"},{"name":"symbol","type":"string","internalType":"string"},{"name":"configurationManager","type":"address","internalType":"address"},{"name":"accessManager","type":"address","internalType":"address"},{"name":"asset","type":"address","internalType":"address"},{"name":"initialMinimumBufferBalance","type":"uint256","internalType":"uint256"},{"name":"initialRebalanceCooldown","type":"uint256","internalType":"uint256"},{"name":"depositCap","type":"uint256","internalType":"uint256"},{"name":"initialTipRate","type":"uint256","internalType":"Percentage"}]}],"stateMutability":"nonpayable"},{"type":"function","name":"DEFAULT_MAX_REBALANCE_OPERATIONS","inputs":[],"outputs":[{"name":"","type":"uint256","internalType":"uint256"}],"stateMutability":"view"},{"type":"function","name":"INITIAL_MINIMUM_PAUSE_TIME","inputs":[],"outputs":[{"name":"","type":"uint256","internalType":"uint256"}],"stateMutability":"view"},{"type":"function","name":"MAX_REBALANCE_OPERATIONS","inputs":[],"outputs":[{"name":"","type":"uint256","internalType":"uint256"}],"stateMutability":"view"},{"type":"function","name":"addArk","inputs":[{"name":"ark","type":"address","internalType":"address"}],"outputs":[],"stateMutability":"nonpayable"},{"type":"function","name":"addArks","inputs":[{"name":"_arkAddresses","type":"address[]","internalType":"address[]"}],"outputs":[],"stateMutability":"nonpayable"},{"type":"function","name":"adjustBuffer","inputs":[{"name":"rebalanceData","type":"tuple[]","internalType":"struct RebalanceData[]","components":[{"name":"fromArk","type":"address","internalType":"address"},{"name":"toArk","type":"address","internalType":"address"},{"name":"amount","type":"uint256","internalType":"uint256"},{"name":"boardData","type":"bytes","internalType":"bytes"},{"name":"disembarkData","type":"bytes","internalType":"bytes"}]}],"outputs":[],"stateMutability":"nonpayable"},{"type":"function","name":"allowance","inputs":[{"name":"owner","type":"address","internalType":"address"},{"name":"spender","type":"address","internalType":"address"}],"outputs":[{"name":"","type":"uint256","internalType":"uint256"}],"stateMutability":"view"},{"type":"function","name":"approve","inputs":[{"name":"spender","type":"address","internalType":"address"},{"name":"value","type":"uint256","internalType":"uint256"}],"outputs":[{"name":"","type":"bool","internalType":"bool"}],"stateMutability":"nonpayable"},{"type":"function","name":"arks","inputs":[{"name":"","type":"uint256","internalType":"uint256"}],"outputs":[{"name":"","type":"address","internalType":"address"}],"stateMutability":"view"},{"type":"function","name":"asset","inputs":[],"outputs":[{"name":"","type":"address","internalType":"address"}],"stateMutability":"view"},{"type":"function","name":"balanceOf","inputs":[{"name":"account","type":"address","internalType":"address"}],"outputs":[{"name":"","type":"uint256","internalType":"uint256"}],"stateMutability":"view"},{"type":"function","name":"bufferArk","inputs":[],"outputs":[{"name":"","type":"address","internalType":"address"}],"stateMutability":"view"},{"type":"function","name":"config","inputs":[],"outputs":[{"name":"bufferArk","type":"address","internalType":"contract IArk"},{"name":"minimumBufferBalance","type":"uint256","internalType":"uint256"},{"name":"depositCap","type":"uint256","internalType":"uint256"},{"name":"maxRebalanceOperations","type":"uint256","internalType":"uint256"}],"stateMutability":"view"},{"type":"function","name":"configurationManager","inputs":[],"outputs":[{"name":"","type":"address","internalType":"contract IConfigurationManager"}],"stateMutability":"view"},{"type":"function","name":"convertToAssets","inputs":[{"name":"shares","type":"uint256","internalType":"uint256"}],"outputs":[{"name":"","type":"uint256","internalType":"uint256"}],"stateMutability":"view"},{"type":"function","name":"convertToShares","inputs":[{"name":"assets","type":"uint256","internalType":"uint256"}],"outputs":[{"name":"","type":"uint256","internalType":"uint256"}],"stateMutability":"view"},{"type":"function","name":"decimals","inputs":[],"outputs":[{"name":"","type":"uint8","internalType":"uint8"}],"stateMutability":"view"},{"type":"function","name":"deposit","inputs":[{"name":"assets","type":"uint256","internalType":"uint256"},{"name":"receiver","type":"address","internalType":"address"}],"outputs":[{"name":"shares","type":"uint256","internalType":"uint256"}],"stateMutability":"nonpayable"},{"type":"function","name":"deposit","inputs":[{"name":"assets","type":"uint256","internalType":"uint256"},{"name":"receiver","type":"address","internalType":"address"},{"name":"referralCode","type":"bytes","internalType":"bytes"}],"outputs":[{"name":"","type":"uint256","internalType":"uint256"}],"stateMutability":"nonpayable"},{"type":"function","name":"estimateAccruedTip","inputs":[],"outputs":[{"name":"","type":"uint256","internalType":"uint256"}],"stateMutability":"view"},{"type":"function","name":"forceRebalance","inputs":[{"name":"rebalanceData","type":"tuple[]","internalType":"struct RebalanceData[]","components":[{"name":"fromArk","type":"address","internalType":"address"},{"name":"toArk","type":"address","internalType":"address"},{"name":"amount","type":"uint256","internalType":"uint256"},{"name":"boardData","type":"bytes","internalType":"bytes"},{"name":"disembarkData","type":"bytes","internalType":"bytes"}]}],"outputs":[],"stateMutability":"nonpayable"},{"type":"function","name":"generateRole","inputs":[{"name":"roleName","type":"uint8","internalType":"enum ContractSpecificRoles"},{"name":"roleTargetContract","type":"address","internalType":"address"}],"outputs":[{"name":"","type":"bytes32","internalType":"bytes32"}],"stateMutability":"pure"},{"type":"function","name":"getArks","inputs":[],"outputs":[{"name":"","type":"address[]","internalType":"address[]"}],"stateMutability":"view"},{"type":"function","name":"getConfig","inputs":[],"outputs":[{"name":"","type":"tuple","internalType":"struct FleetConfig","components":[{"name":"bufferArk","type":"address","internalType":"contract IArk"},{"name":"minimumBufferBalance","type":"uint256","internalType":"uint256"},{"name":"depositCap","type":"uint256","internalType":"uint256"},{"name":"maxRebalanceOperations","type":"uint256","internalType":"uint256"}]}],"stateMutability":"view"},{"type":"function","name":"getCooldown","inputs":[],"outputs":[{"name":"","type":"uint256","internalType":"uint256"}],"stateMutability":"view"},{"type":"function","name":"getLastActionTimestamp","inputs":[],"outputs":[{"name":"","type":"uint256","internalType":"uint256"}],"stateMutability":"view"},{"type":"function","name":"harborCommand","inputs":[],"outputs":[{"name":"","type":"address","internalType":"address"}],"stateMutability":"view"},{"type":"function","name":"isArkActive","inputs":[{"name":"","type":"address","internalType":"address"}],"outputs":[{"name":"","type":"bool","internalType":"bool"}],"stateMutability":"view"},{"type":"function","name":"isArkWithdrawable","inputs":[{"name":"","type":"address","internalType":"address"}],"outputs":[{"name":"","type":"bool","internalType":"bool"}],"stateMutability":"view"},{"type":"function","name":"lastTipTimestamp","inputs":[],"outputs":[{"name":"","type":"uint256","internalType":"uint256"}],"stateMutability":"view"},{"type":"function","name":"maxBufferRedeem","inputs":[{"name":"owner","type":"address","internalType":"address"}],"outputs":[{"name":"_maxBufferRedeem","type":"uint256","internalType":"uint256"}],"stateMutability":"view"},{"type":"function","name":"maxBufferWithdraw","inputs":[{"name":"owner","type":"address","internalType":"address"}],"outputs":[{"name":"_maxBufferWithdraw","type":"uint256","internalType":"uint256"}],"stateMutability":"view"},{"type":"function","name":"maxDeposit","inputs":[{"name":"owner","type":"address","internalType":"address"}],"outputs":[{"name":"_maxDeposit","type":"uint256","internalType":"uint256"}],"stateMutability":"view"},{"type":"function","name":"maxMint","inputs":[{"name":"owner","type":"address","internalType":"address"}],"outputs":[{"name":"_maxMint","type":"uint256","internalType":"uint256"}],"stateMutability":"view"},{"type":"function","name":"maxRedeem","inputs":[{"name":"owner","type":"address","internalType":"address"}],"outputs":[{"name":"_maxRedeem","type":"uint256","internalType":"uint256"}],"stateMutability":"view"},{"type":"function","name":"maxWithdraw","inputs":[{"name":"owner","type":"address","internalType":"address"}],"outputs":[{"name":"_maxWithdraw","type":"uint256","internalType":"uint256"}],"stateMutability":"view"},{"type":"function","name":"minimumPauseTime","inputs":[],"outputs":[{"name":"","type":"uint256","internalType":"uint256"}],"stateMutability":"view"},{"type":"function","name":"mint","inputs":[{"name":"shares","type":"uint256","internalType":"uint256"},{"name":"receiver","type":"address","internalType":"address"}],"outputs":[{"name":"assets","type":"uint256","internalType":"uint256"}],"stateMutability":"nonpayable"},{"type":"function","name":"name","inputs":[],"outputs":[{"name":"","type":"string","internalType":"string"}],"stateMutability":"view"},{"type":"function","name":"pause","inputs":[],"outputs":[],"stateMutability":"nonpayable"},{"type":"function","name":"pauseStartTime","inputs":[],"outputs":[{"name":"","type":"uint256","internalType":"uint256"}],"stateMutability":"view"},{"type":"function","name":"paused","inputs":[],"outputs":[{"name":"","type":"bool","internalType":"bool"}],"stateMutability":"view"},{"type":"function","name":"previewDeposit","inputs":[{"name":"assets","type":"uint256","internalType":"uint256"}],"outputs":[{"name":"","type":"uint256","internalType":"uint256"}],"stateMutability":"view"},{"type":"function","name":"previewMint","inputs":[{"name":"shares","type":"uint256","internalType":"uint256"}],"outputs":[{"name":"","type":"uint256","internalType":"uint256"}],"stateMutability":"view"},{"type":"function","name":"previewRedeem","inputs":[{"name":"shares","type":"uint256","internalType":"uint256"}],"outputs":[{"name":"","type":"uint256","internalType":"uint256"}],"stateMutability":"view"},{"type":"function","name":"previewWithdraw","inputs":[{"name":"assets","type":"uint256","internalType":"uint256"}],"outputs":[{"name":"","type":"uint256","internalType":"uint256"}],"stateMutability":"view"},{"type":"function","name":"raft","inputs":[],"outputs":[{"name":"","type":"address","internalType":"address"}],"stateMutability":"view"},{"type":"function","name":"rebalance","inputs":[{"name":"rebalanceData","type":"tuple[]","internalType":"struct RebalanceData[]","components":[{"name":"fromArk","type":"address","internalType":"address"},{"name":"toArk","type":"address","internalType":"address"},{"name":"amount","type":"uint256","internalType":"uint256"},{"name":"boardData","type":"bytes","internalType":"bytes"},{"name":"disembarkData","type":"bytes","internalType":"bytes"}]}],"outputs":[],"stateMutability":"nonpayable"},{"type":"function","name":"redeem","inputs":[{"name":"shares","type":"uint256","internalType":"uint256"},{"name":"receiver","type":"address","internalType":"address"},{"name":"owner","type":"address","internalType":"address"}],"outputs":[{"name":"assets","type":"uint256","internalType":"uint256"}],"stateMutability":"nonpayable"},{"type":"function","name":"redeemFromArks","inputs":[{"name":"shares","type":"uint256","internalType":"uint256"},{"name":"receiver","type":"address","internalType":"address"},{"name":"owner","type":"address","internalType":"address"}],"outputs":[{"name":"totalAssetsToWithdraw","type":"uint256","internalType":"uint256"}],"stateMutability":"nonpayable"},{"type":"function","name":"redeemFromBuffer","inputs":[{"name":"shares","type":"uint256","internalType":"uint256"},{"name":"receiver","type":"address","internalType":"address"},{"name":"owner","type":"address","internalType":"address"}],"outputs":[{"name":"assets","type":"uint256","internalType":"uint256"}],"stateMutability":"nonpayable"},{"type":"function","name":"removeArk","inputs":[{"name":"ark","type":"address","internalType":"address"}],"outputs":[],"stateMutability":"nonpayable"},{"type":"function","name":"setArkDepositCap","inputs":[{"name":"ark","type":"address","internalType":"address"},{"name":"newDepositCap","type":"uint256","internalType":"uint256"}],"outputs":[],"stateMutability":"nonpayable"},{"type":"function","name":"setArkMaxRebalanceInflow","inputs":[{"name":"ark","type":"address","internalType":"address"},{"name":"newMaxRebalanceInflow","type":"uint256","internalType":"uint256"}],"outputs":[],"stateMutability":"nonpayable"},{"type":"function","name":"setArkMaxRebalanceOutflow","inputs":[{"name":"ark","type":"address","internalType":"address"},{"name":"newMaxRebalanceOutflow","type":"uint256","internalType":"uint256"}],"outputs":[],"stateMutability":"nonpayable"},{"type":"function","name":"setFleetDepositCap","inputs":[{"name":"newCap","type":"uint256","internalType":"uint256"}],"outputs":[],"stateMutability":"nonpayable"},{"type":"function","name":"setMaxRebalanceOperations","inputs":[{"name":"newMaxRebalanceOperations","type":"uint256","internalType":"uint256"}],"outputs":[],"stateMutability":"nonpayable"},{"type":"function","name":"setMinimumBufferBalance","inputs":[{"name":"newMinimumBalance","type":"uint256","internalType":"uint256"}],"outputs":[],"stateMutability":"nonpayable"},{"type":"function","name":"setMinimumPauseTime","inputs":[{"name":"_newMinimumPauseTime","type":"uint256","internalType":"uint256"}],"outputs":[],"stateMutability":"nonpayable"},{"type":"function","name":"setTipRate","inputs":[{"name":"newTipRate","type":"uint256","internalType":"Percentage"}],"outputs":[],"stateMutability":"nonpayable"},{"type":"function","name":"symbol","inputs":[],"outputs":[{"name":"","type":"string","internalType":"string"}],"stateMutability":"view"},{"type":"function","name":"tip","inputs":[],"outputs":[{"name":"","type":"uint256","internalType":"uint256"}],"stateMutability":"nonpayable"},{"type":"function","name":"tipJar","inputs":[],"outputs":[{"name":"","type":"address","internalType":"address"}],"stateMutability":"view"},{"type":"function","name":"tipRate","inputs":[],"outputs":[{"name":"","type":"uint256","internalType":"Percentage"}],"stateMutability":"view"},{"type":"function","name":"totalAssets","inputs":[],"outputs":[{"name":"","type":"uint256","internalType":"uint256"}],"stateMutability":"view"},{"type":"function","name":"totalSupply","inputs":[],"outputs":[{"name":"","type":"uint256","internalType":"uint256"}],"stateMutability":"view"},{"type":"function","name":"transfer","inputs":[{"name":"","type":"address","internalType":"address"},{"name":"","type":"uint256","internalType":"uint256"}],"outputs":[{"name":"","type":"bool","internalType":"bool"}],"stateMutability":"pure"},{"type":"function","name":"transferFrom","inputs":[{"name":"","type":"address","internalType":"address"},{"name":"","type":"address","internalType":"address"},{"name":"","type":"uint256","internalType":"uint256"}],"outputs":[{"name":"","type":"bool","internalType":"bool"}],"stateMutability":"pure"},{"type":"function","name":"treasury","inputs":[],"outputs":[{"name":"","type":"address","internalType":"address"}],"stateMutability":"view"},{"type":"function","name":"unpause","inputs":[],"outputs":[],"stateMutability":"nonpayable"},{"type":"function","name":"updateRebalanceCooldown","inputs":[{"name":"newCooldown","type":"uint256","internalType":"uint256"}],"outputs":[],"stateMutability":"nonpayable"},{"type":"function","name":"withdraw","inputs":[{"name":"assets","type":"uint256","internalType":"uint256"},{"name":"receiver","type":"address","internalType":"address"},{"name":"owner","type":"address","internalType":"address"}],"outputs":[{"name":"shares","type":"uint256","internalType":"uint256"}],"stateMutability":"nonpayable"},{"type":"function","name":"withdrawFromArks","inputs":[{"name":"assets","type":"uint256","internalType":"uint256"},{"name":"receiver","type":"address","internalType":"address"},{"name":"owner","type":"address","internalType":"address"}],"outputs":[{"name":"totalSharesToRedeem","type":"uint256","internalType":"uint256"}],"stateMutability":"nonpayable"},{"type":"function","name":"withdrawFromBuffer","inputs":[{"name":"assets","type":"uint256","internalType":"uint256"},{"name":"receiver","type":"address","internalType":"address"},{"name":"owner","type":"address","internalType":"address"}],"outputs":[{"name":"shares","type":"uint256","internalType":"uint256"}],"stateMutability":"nonpayable"},{"type":"function","name":"withdrawableTotalAssets","inputs":[],"outputs":[{"name":"","type":"uint256","internalType":"uint256"}],"stateMutability":"view"},{"type":"event","name":"Approval","inputs":[{"name":"owner","type":"address","indexed":true,"internalType":"address"},{"name":"spender","type":"address","indexed":true,"internalType":"address"},{"name":"value","type":"uint256","indexed":false,"internalType":"uint256"}],"anonymous":false},{"type":"event","name":"ArkAdded","inputs":[{"name":"ark","type":"address","indexed":true,"internalType":"address"}],"anonymous":false},{"type":"event","name":"ArkRemoved","inputs":[{"name":"ark","type":"address","indexed":true,"internalType":"address"}],"anonymous":false},{"type":"event","name":"CooldownUpdated","inputs":[{"name":"previousCooldown","type":"uint256","indexed":false,"internalType":"uint256"},{"name":"newCooldown","type":"uint256","indexed":false,"internalType":"uint256"}],"anonymous":false},{"type":"event","name":"Deposit","inputs":[{"name":"sender","type":"address","indexed":true,"internalType":"address"},{"name":"owner","type":"address","indexed":true,"internalType":"address"},{"name":"assets","type":"uint256","indexed":false,"internalType":"uint256"},{"name":"shares","type":"uint256","indexed":false,"internalType":"uint256"}],"anonymous":false},{"type":"event","name":"FeeAddressUpdated","inputs":[{"name":"newAddress","type":"address","indexed":false,"internalType":"address"}],"anonymous":false},{"type":"event","name":"FleetCommanderBufferAdjusted","inputs":[{"name":"keeper","type":"address","indexed":true,"internalType":"address"},{"name":"totalMoved","type":"uint256","indexed":false,"internalType":"uint256"}],"anonymous":false},{"type":"event","name":"FleetCommanderDepositCapUpdated","inputs":[{"name":"newCap","type":"uint256","indexed":false,"internalType":"uint256"}],"anonymous":false},{"type":"event","name":"FleetCommanderMaxRebalanceOperationsUpdated","inputs":[{"name":"newMaxRebalanceOperations","type":"uint256","indexed":false,"internalType":"uint256"}],"anonymous":false},{"type":"event","name":"FleetCommanderRedeemedFromArks","inputs":[{"name":"owner","type":"address","indexed":true,"internalType":"address"},{"name":"receiver","type":"address","indexed":false,"internalType":"address"},{"name":"totalRedeemed","type":"uint256","indexed":false,"internalType":"uint256"}],"anonymous":false},{"type":"event","name":"FleetCommanderReferral","inputs":[{"name":"referee","type":"address","indexed":true,"internalType":"address"},{"name":"referralCode","type":"bytes","indexed":true,"internalType":"bytes"}],"anonymous":false},{"type":"event","name":"FleetCommanderWithdrawnFromArks","inputs":[{"name":"owner","type":"address","indexed":true,"internalType":"address"},{"name":"receiver","type":"address","indexed":false,"internalType":"address"},{"name":"totalWithdrawn","type":"uint256","indexed":false,"internalType":"uint256"}],"anonymous":false},{"type":"event","name":"FleetCommanderminimumBufferBalanceUpdated","inputs":[{"name":"newBalance","type":"uint256","indexed":false,"internalType":"uint256"}],"anonymous":false},{"type":"event","name":"FundsBufferBalanceUpdated","inputs":[{"name":"user","type":"address","indexed":true,"internalType":"address"},{"name":"prevBalance","type":"uint256","indexed":false,"internalType":"uint256"},{"name":"newBalance","type":"uint256","indexed":false,"internalType":"uint256"}],"anonymous":false},{"type":"event","name":"FundsQueueRefilled","inputs":[{"name":"keeper","type":"address","indexed":true,"internalType":"address"},{"name":"prevBalance","type":"uint256","indexed":false,"internalType":"uint256"},{"name":"newBalance","type":"uint256","indexed":false,"internalType":"uint256"}],"anonymous":false},{"type":"event","name":"MinFundsQueueBalanceUpdated","inputs":[{"name":"keeper","type":"address","indexed":true,"internalType":"address"},{"name":"newBalance","type":"uint256","indexed":false,"internalType":"uint256"}],"anonymous":false},{"type":"event","name":"MinimumPauseTimeUpdated","inputs":[{"name":"newMinimumPauseTime","type":"uint256","indexed":false,"internalType":"uint256"}],"anonymous":false},{"type":"event","name":"Paused","inputs":[{"name":"account","type":"address","indexed":false,"internalType":"address"}],"anonymous":false},{"type":"event","name":"QueuedFundsCommitted","inputs":[{"name":"keeper","type":"address","indexed":true,"internalType":"address"},{"name":"prevBalance","type":"uint256","indexed":false,"internalType":"uint256"},{"name":"newBalance","type":"uint256","indexed":false,"internalType":"uint256"}],"anonymous":false},{"type":"event","name":"Rebalanced","inputs":[{"name":"keeper","type":"address","indexed":true,"internalType":"address"},{"name":"rebalances","type":"tuple[]","indexed":false,"internalType":"struct RebalanceData[]","components":[{"name":"fromArk","type":"address","internalType":"address"},{"name":"toArk","type":"address","internalType":"address"},{"name":"amount","type":"uint256","internalType":"uint256"},{"name":"boardData","type":"bytes","internalType":"bytes"},{"name":"disembarkData","type":"bytes","internalType":"bytes"}]}],"anonymous":false},{"type":"event","name":"TipAccrued","inputs":[{"name":"tipAmount","type":"uint256","indexed":false,"internalType":"uint256"}],"anonymous":false},{"type":"event","name":"TipJarUpdated","inputs":[{"name":"newTipJar","type":"address","indexed":false,"internalType":"address"}],"anonymous":false},{"type":"event","name":"TipRateUpdated","inputs":[{"name":"newTipRate","type":"uint256","indexed":false,"internalType":"Percentage"}],"anonymous":false},{"type":"event","name":"Transfer","inputs":[{"name":"from","type":"address","indexed":true,"internalType":"address"},{"name":"to","type":"address","indexed":true,"internalType":"address"},{"name":"value","type":"uint256","indexed":false,"internalType":"uint256"}],"anonymous":false},{"type":"event","name":"Unpaused","inputs":[{"name":"account","type":"address","indexed":false,"internalType":"address"}],"anonymous":false},{"type":"event","name":"Withdraw","inputs":[{"name":"sender","type":"address","indexed":true,"internalType":"address"},{"name":"receiver","type":"address","indexed":true,"internalType":"address"},{"name":"owner","type":"address","indexed":true,"internalType":"address"},{"name":"assets","type":"uint256","indexed":false,"internalType":"uint256"},{"name":"shares","type":"uint256","indexed":false,"internalType":"uint256"}],"anonymous":false},{"type":"error","name":"CallerIsNotAdmin","inputs":[{"name":"caller","type":"address","internalType":"address"}]},{"type":"error","name":"CallerIsNotAuthorizedToBoard","inputs":[{"name":"caller","type":"address","internalType":"address"}]},{"type":"error","name":"CallerIsNotCommander","inputs":[{"name":"caller","type":"address","internalType":"address"}]},{"type":"error","name":"CallerIsNotContractSpecificRole","inputs":[{"name":"caller","type":"address","internalType":"address"},{"name":"role","type":"bytes32","internalType":"bytes32"}]},{"type":"error","name":"CallerIsNotCurator","inputs":[{"name":"caller","type":"address","internalType":"address"}]},{"type":"error","name":"CallerIsNotGovernor","inputs":[{"name":"caller","type":"address","internalType":"address"}]},{"type":"error","name":"CallerIsNotGuardian","inputs":[{"name":"caller","type":"address","internalType":"address"}]},{"type":"error","name":"CallerIsNotGuardianOrGovernor","inputs":[{"name":"caller","type":"address","internalType":"address"}]},{"type":"error","name":"CallerIsNotKeeper","inputs":[{"name":"caller","type":"address","internalType":"address"}]},{"type":"error","name":"CallerIsNotRaft","inputs":[{"name":"caller","type":"address","internalType":"address"}]},{"type":"error","name":"CallerIsNotRaftOrCommander","inputs":[{"name":"caller","type":"address","internalType":"address"}]},{"type":"error","name":"CallerIsNotSuperKeeper","inputs":[{"name":"caller","type":"address","internalType":"address"}]},{"type":"error","name":"ConfigurationManagerZeroAddress","inputs":[]},{"type":"error","name":"CooldownNotElapsed","inputs":[{"name":"lastActionTimestamp","type":"uint256","internalType":"uint256"},{"name":"cooldown","type":"uint256","internalType":"uint256"},{"name":"currentTimestamp","type":"uint256","internalType":"uint256"}]},{"type":"error","name":"DirectGrantIsDisabled","inputs":[{"name":"caller","type":"address","internalType":"address"}]},{"type":"error","name":"DirectRevokeIsDisabled","inputs":[{"name":"caller","type":"address","internalType":"address"}]},{"type":"error","name":"ERC20InsufficientAllowance","inputs":[{"name":"spender","type":"address","internalType":"address"},{"name":"allowance","type":"uint256","internalType":"uint256"},{"name":"needed","type":"uint256","internalType":"uint256"}]},{"type":"error","name":"ERC20InsufficientBalance","inputs":[{"name":"sender","type":"address","internalType":"address"},{"name":"balance","type":"uint256","internalType":"uint256"},{"name":"needed","type":"uint256","internalType":"uint256"}]},{"type":"error","name":"ERC20InvalidApprover","inputs":[{"name":"approver","type":"address","internalType":"address"}]},{"type":"error","name":"ERC20InvalidReceiver","inputs":[{"name":"receiver","type":"address","internalType":"address"}]},{"type":"error","name":"ERC20InvalidSender","inputs":[{"name":"sender","type":"address","internalType":"address"}]},{"type":"error","name":"ERC20InvalidSpender","inputs":[{"name":"spender","type":"address","internalType":"address"}]},{"type":"error","name":"ERC4626ExceededMaxDeposit","inputs":[{"name":"receiver","type":"address","internalType":"address"},{"name":"assets","type":"uint256","internalType":"uint256"},{"name":"max","type":"uint256","internalType":"uint256"}]},{"type":"error","name":"ERC4626ExceededMaxMint","inputs":[{"name":"receiver","type":"address","internalType":"address"},{"name":"shares","type":"uint256","internalType":"uint256"},{"name":"max","type":"uint256","internalType":"uint256"}]},{"type":"error","name":"ERC4626ExceededMaxRedeem","inputs":[{"name":"owner","type":"address","internalType":"address"},{"name":"shares","type":"uint256","internalType":"uint256"},{"name":"max","type":"uint256","internalType":"uint256"}]},{"type":"error","name":"ERC4626ExceededMaxWithdraw","inputs":[{"name":"owner","type":"address","internalType":"address"},{"name":"assets","type":"uint256","internalType":"uint256"},{"name":"max","type":"uint256","internalType":"uint256"}]},{"type":"error","name":"EnforcedPause","inputs":[]},{"type":"error","name":"ExpectedPause","inputs":[]},{"type":"error","name":"FleetCommanderArkAlreadyExists","inputs":[{"name":"ark","type":"address","internalType":"address"}]},{"type":"error","name":"FleetCommanderArkAlreadyHasCommander","inputs":[]},{"type":"error","name":"FleetCommanderArkAssetsNotZero","inputs":[{"name":"ark","type":"address","internalType":"address"}]},{"type":"error","name":"FleetCommanderArkDepositCapGreaterThanZero","inputs":[{"name":"ark","type":"address","internalType":"address"}]},{"type":"error","name":"FleetCommanderArkDepositCapZero","inputs":[{"name":"ark","type":"address","internalType":"address"}]},{"type":"error","name":"FleetCommanderArkNotActive","inputs":[{"name":"ark","type":"address","internalType":"address"}]},{"type":"error","name":"FleetCommanderArkNotFound","inputs":[{"name":"ark","type":"address","internalType":"address"}]},{"type":"error","name":"FleetCommanderCantRebalanceToArk","inputs":[{"name":"ark","type":"address","internalType":"address"}]},{"type":"error","name":"FleetCommanderCantUseMaxUintForBufferAdjustement","inputs":[]},{"type":"error","name":"FleetCommanderCantUseRebalanceOnBufferArk","inputs":[]},{"type":"error","name":"FleetCommanderExceedsMaxInflow","inputs":[{"name":"fromArk","type":"address","internalType":"address"},{"name":"amount","type":"uint256","internalType":"uint256"},{"name":"maxRebalanceInflow","type":"uint256","internalType":"uint256"}]},{"type":"error","name":"FleetCommanderExceedsMaxOutflow","inputs":[{"name":"fromArk","type":"address","internalType":"address"},{"name":"amount","type":"uint256","internalType":"uint256"},{"name":"maxRebalanceOutflow","type":"uint256","internalType":"uint256"}]},{"type":"error","name":"FleetCommanderInsufficientBuffer","inputs":[]},{"type":"error","name":"FleetCommanderInvalidArkAddress","inputs":[]},{"type":"error","name":"FleetCommanderInvalidBufferAdjustment","inputs":[]},{"type":"error","name":"FleetCommanderInvalidSourceArk","inputs":[{"name":"ark","type":"address","internalType":"address"}]},{"type":"error","name":"FleetCommanderMovedMoreThanAvailable","inputs":[]},{"type":"error","name":"FleetCommanderNoExcessFunds","inputs":[]},{"type":"error","name":"FleetCommanderNoFundsMoved","inputs":[]},{"type":"error","name":"FleetCommanderPausableMinimumPauseTimeNotElapsed","inputs":[]},{"type":"error","name":"FleetCommanderRebalanceAmountZero","inputs":[{"name":"ark","type":"address","internalType":"address"}]},{"type":"error","name":"FleetCommanderRebalanceNoOperations","inputs":[]},{"type":"error","name":"FleetCommanderRebalanceTooManyOperations","inputs":[{"name":"operationsCount","type":"uint256","internalType":"uint256"}]},{"type":"error","name":"FleetCommanderTransfersDisabled","inputs":[]},{"type":"error","name":"FleetCommanderUnauthorizedRedemption","inputs":[{"name":"caller","type":"address","internalType":"address"},{"name":"owner","type":"address","internalType":"address"}]},{"type":"error","name":"FleetCommanderUnauthorizedWithdrawal","inputs":[{"name":"caller","type":"address","internalType":"address"},{"name":"owner","type":"address","internalType":"address"}]},{"type":"error","name":"InvalidAccessManagerAddress","inputs":[{"name":"invalidAddress","type":"address","internalType":"address"}]},{"type":"error","name":"InvalidFleetCommanderAddress","inputs":[]},{"type":"error","name":"InvalidTipJarAddress","inputs":[]},{"type":"error","name":"SafeERC20FailedOperation","inputs":[{"name":"token","type":"address","internalType":"address"}]},{"type":"error","name":"TipRateCannotExceedOneHundredPercent","inputs":[]},{"type":"error","name":"WithdrawalAmountExceedsMaxBufferLimit","inputs":[]}],"bytecode":{"object":"0x60e060405234801561000f575f5ffd5b506040516196d33803806196d383398101604081905261002e916104f6565b8060c001515f8260400151836101000151818560800151866201fa408160600151895f01518a602001518160039081610067919061066d565b506004610074828261066d565b5050506001600160a01b0381166100a5576040516347bd7c1d60e01b81525f60048201526024015b60405180910390fd5b6040516301ffc9a760e01b815263a237592160e01b60048201526001600160a01b038216906301ffc9a790602401602060405180830381865afa1580156100ee573d5f5f3e3d5ffd5b505050506040513d601f19601f820116820180604052508101906101129190610727565b61013a576040516347bd7c1d60e01b81526001600160a01b038216600482015260240161009c565b600580546001600160a81b0319166001600160a01b039283161790556006919091556040805161014081018252600961010082019081526842756666657241726b60b81b61012083015281526060808501518416602083015284830151841682840152608080860151909416908201525f1992810183905260a0810183905260c08101929092525f60e08301819052905190919030906101d990610408565b6101e492919061074d565b604051809103905ff0801580156101fd573d5f5f3e3d5ffd5b5090506102416040518060800160405280836001600160a01b031681526020018460a0015181526020018460e001518152602001600a8152506102f860201b60201c565b6001600160a01b03165f908152600d602090815260408083208054600160ff199182168117909255600e909352908320805490921617905590508061028583610332565b9150915081610295576012610297565b805b60ff1660a05250506001600160a01b0390811660805281166102cc5760405163f1634df960e01b815260040160405180910390fd5b6001600160a01b031660c052600f555042601055601182905580156102f057426012555b505050610843565b8051600880546001600160a01b0319166001600160a01b0390921691909117905560208101516009556040810151600a5560600151600b55565b60408051600481526024810182526020810180516001600160e01b031663313ce56760e01b17905290515f918291829182916001600160a01b0387169161037891610816565b5f60405180830381855afa9150503d805f81146103b0576040519150601f19603f3d011682016040523d82523d5f602084013e6103b5565b606091505b50915091508180156103c957506020815110155b156103fc575f818060200190518101906103e3919061082c565b905060ff81116103fa576001969095509350505050565b505b505f9485945092505050565b6122bf8061741483390190565b634e487b7160e01b5f52604160045260245ffd5b60405161012081016001600160401b038111828210171561044c5761044c610415565b60405290565b5f82601f830112610461575f5ffd5b81516001600160401b0381111561047a5761047a610415565b604051601f8201601f19908116603f011681016001600160401b03811182821017156104a8576104a8610415565b6040528181528382016020018510156104bf575f5ffd5b8160208501602083015e5f918101602001919091529392505050565b80516001600160a01b03811681146104f1575f5ffd5b919050565b5f60208284031215610506575f5ffd5b81516001600160401b0381111561051b575f5ffd5b8201610120818503121561052d575f5ffd5b610535610429565b81516001600160401b0381111561054a575f5ffd5b61055686828501610452565b82525060208201516001600160401b03811115610571575f5ffd5b61057d86828501610452565b60208301525061058f604083016104db565b60408201526105a0606083016104db565b60608201526105b1608083016104db565b608082015260a0828101519082015260c0808301519082015260e0808301519082015261010091820151918101919091529392505050565b600181811c908216806105fd57607f821691505b60208210810361061b57634e487b7160e01b5f52602260045260245ffd5b50919050565b601f82111561066857805f5260205f20601f840160051c810160208510156106465750805b601f840160051c820191505b81811015610665575f8155600101610652565b50505b505050565b81516001600160401b0381111561068657610686610415565b61069a8161069484546105e9565b84610621565b6020601f8211600181146106cc575f83156106b55750848201515b5f19600385901b1c1916600184901b178455610665565b5f84815260208120601f198516915b828110156106fb57878501518255602094850194600190920191016106db565b508482101561071857868401515f19600387901b60f8161c191681555b50505050600190811b01905550565b5f60208284031215610737575f5ffd5b81518015158114610746575f5ffd5b9392505050565b604081525f83516101006040840152805180610140850152806020830161016086015e5f848201610160015260208601516001600160a01b0381166060860152915060408601516001600160a01b0381166080860152915060608601516001600160a01b03811660a08601529150608086015160c085015260a086015160e085015260c086015161010085015260e086015191506107f061012085018315159052565b601f01601f19168301610160019150610746905060208301846001600160a01b03169052565b5f82518060208501845e5f920191825250919050565b5f6020828403121561083c575f5ffd5b5051919050565b60805160a05160c051616b686108ac5f395f818161084101528181610b200152818161143f0152818161160d015261190a01525f610cb001525f8181610554015281816111d20152818161235a015281816137d901528181613e180152613ea70152616b685ff3fe608060405234801561000f575f5ffd5b5060043610610438575f3560e01c80637aaceb9511610237578063cada514311610135578063dd62ed3e116100bf578063f1cd665b11610084578063f1cd665b14610983578063f357781614610998578063faa9bce9146109ab578063fcf2849f146109be578063ff32a42a146109d1575f5ffd5b8063dd62ed3e14610912578063e193858f1461094a578063e37d5b7f1461095d578063e7b20e5b14610970578063ef8b30f714610818575f5ffd5b8063d45a07a111610105578063d45a07a1146108be578063d570ee47146108d1578063d902d41a146108d9578063d905777e146108ec578063dc9de0a8146108ff575f5ffd5b8063cada514314610863578063cc5b1e5514610876578063ce96cb7714610889578063d25dd1011461089c575f5ffd5b8063a9059cbb116101c1578063c3f909d411610186578063c3f909d4146107c1578063c63d75b614610805578063c6e6f59214610818578063c8169aa11461082b578063c9c667e31461083c575f5ffd5b8063a9059cbb14610767578063b3d7f6b914610775578063b460af9414610788578063b637766c1461079b578063ba087652146107ae575f5ffd5b806394d7eaa41161020757806394d7eaa41461072657806395d89b411461072f57806396c25a3814610737578063a039e9441461074a578063a0506f0b1461075d575f5ffd5b80637aaceb95146106f05780638456cb59146106f85780639265b76e1461070057806394bf804d14610713575f5ffd5b80633f4ba83a116103445780635ed975e5116102ce57806369b3054b1161029357806369b3054b146106505780636e553f651461066357806370a082311461067657806371aedbc11461069e57806379502c55146106a7575f5ffd5b80635ed975e5146104ea5780635f538f6f1461062457806361d027b314610637578063680e57ab1461063f5780636848262614610648575f5ffd5b80634daecb9c116103145780634daecb9c146105c25780635340c012146105d55780635822198f146105f75780635b0f83f31461060a5780635c975abb14610612575f5ffd5b80633f4ba83a1461059e578063402d267d146105a6578063498e76a0146105b95780634cdad5061461046c575f5ffd5b8063218e4a15116103c55780633152d5d1116103955780633152d5d114610537578063340505601461053f57806338d52e0f146105525780633a7c9f0e146105785780633e314c761461058b575f5ffd5b8063218e4a15146104fa57806323b872dd146105025780632755cd2d14610515578063313ce5671461051d575f5ffd5b80630a28a4771161040b5780630a28a477146104a2578063117d8ae0146104b5578063133ab579146104d5578063168b813a146104ea57806318160ddd146104f2575f5ffd5b806301e1d1141461043c57806306fdde031461045757806307a2d13a1461046c578063095ea7b31461047f575b5f5ffd5b6104446109e4565b6040519081526020015b60405180910390f35b61045f610a59565b60405161044e919061608a565b61044461047a36600461609c565b610ae9565b61049261048d3660046160c7565b610afa565b604051901515815260200161044e565b6104446104b036600461609c565b610b11565b6104bd610b1d565b6040516001600160a01b03909116815260200161044e565b6104e86104e336600461609c565b610b9e565b005b610444600a81565b600254610444565b601154610444565b6104926105103660046160f1565b610c7e565b610444610c98565b610525610ca9565b60405160ff909116815260200161044e565b601254610444565b6104e861054d3660046160c7565b610cd4565b7f00000000000000000000000000000000000000000000000000000000000000006104bd565b61044461058636600461612f565b610e10565b61044461059936600461616e565b610f1e565b6104e8610fbe565b6104446105b436600461616e565b61119c565b610444600f5481565b6104e86105d036600461609c565b611264565b6104926105e336600461616e565b600e6020525f908152604090205460ff1681565b6104e861060536600461609c565b611338565b6104bd61143c565b600554600160a01b900460ff16610492565b61044461063236600461612f565b611499565b6104bd61160a565b61044460065481565b610444611667565b61044461065e366004616189565b6116ed565b6104446106713660046161c3565b61171f565b61044461068436600461616e565b6001600160a01b03165f9081526020819052604090205490565b61044460105481565b600854600954600a54600b546106c6936001600160a01b031692919084565b604080516001600160a01b039095168552602085019390935291830152606082015260800161044e565b6104bd611907565b6104e8611964565b61044461070e36600461616e565b611b40565b6104446107213660046161c3565b611bda565b61044460075481565b61045f611cfd565b6104e861074536600461616e565b611d0c565b61044461075836600461612f565b611e0d565b6104446201fa4081565b6104926105103660046160c7565b61044461078336600461609c565b611f07565b61044461079636600461612f565b611f13565b6104e86107a93660046160c7565b61205e565b6104446107bc36600461612f565b61216d565b6107c96122bb565b60405161044e919081516001600160a01b0316815260208083015190820152604080830151908201526060918201519181019190915260800190565b61044461081336600461616e565b612321565b61044461082636600461609c565b6123a9565b6008546001600160a01b03166104bd565b6104bd7f000000000000000000000000000000000000000000000000000000000000000081565b6104e861087136600461622d565b6123b4565b6104e861088436600461622d565b6125dd565b61044461089736600461616e565b61271b565b6104926108aa36600461616e565b600d6020525f908152604090205460ff1681565b6104e86108cc3660046160c7565b612727565b610444612836565b6104e86108e736600461609c565b6128a9565b6104446108fa36600461616e565b61297d565b6104e861090d36600461609c565b61298c565b61044461092036600461626b565b6001600160a01b039182165f90815260016020908152604080832093909416825291909152205490565b6104e861095836600461609c565b612a8d565b6104e861096b36600461616e565b612b8e565b6104e861097e36600461622d565b612c8f565b61098b612dae565b60405161044e9190616287565b6104446109a636600461612f565b612e0d565b6104446109b93660046163d9565b612ff7565b6104e86109cc36600461622d565b613052565b6104bd6109df36600461609c565b613216565b5f610a54600c805480602002602001604051908101604052809291908181526020018280548015610a3c57602002820191905f5260205f20905b81546001600160a01b03168152600190910190602001808311610a1e575b50506008546001600160a01b0316925061323e915050565b905090565b606060038054610a689061642d565b80601f0160208091040260200160405190810160405280929190818152602001828054610a949061642d565b8015610adf5780601f10610ab657610100808354040283529160200191610adf565b820191905f5260205f20905b815481529060010190602001808311610ac257829003601f168201915b5050505050905090565b5f610af4825f6132fa565b92915050565b5f33610b07818585613332565b5060019392505050565b5f610af482600161333f565b5f7f00000000000000000000000000000000000000000000000000000000000000006001600160a01b031663117d8ae06040518163ffffffff1660e01b8152600401602060405180830381865afa158015610b7a573d5f5f3e3d5ffd5b505050506040513d601f19601f82011682018060405250810190610a54919061646f565b6005546001600160a01b03166391d14854610bb95f306116ed565b336040518363ffffffff1660e01b8152600401610bd792919061648a565b602060405180830381865afa158015610bf2573d5f5f3e3d5ffd5b505050506040513d601f19601f82011682018060405250810190610c1691906164b0565b610c3a576040516363b52ed760e11b81523360048201526024015b60405180910390fd5b610c4261336e565b600b8190556040518181527f4f4bedc5354096786a0fb857b12fdd6488cc973b2348cedb78088bdceaa906b5906020015b60405180910390a150565b5f60405163ec47ea8b60e01b815260040160405180910390fd5b5f610ca161336e565b610a54613399565b5f610a54817f00000000000000000000000000000000000000000000000000000000000000006164dd565b6005546001600160a01b03166391d14854610cef5f306116ed565b336040518363ffffffff1660e01b8152600401610d0d92919061648a565b602060405180830381865afa158015610d28573d5f5f3e3d5ffd5b505050506040513d601f19601f82011682018060405250810190610d4c91906164b0565b610d6b576040516363b52ed760e11b8152336004820152602401610c31565b610d7361336e565b6001600160a01b0382165f908152600d602052604090205460ff16610db657604051632767039f60e01b81526001600160a01b0383166004820152602401610c31565b604051638665120360e01b8152600481018290526001600160a01b038316906386651203906024015b5f604051808303815f87803b158015610df6575f5ffd5b505af1158015610e08573d5f5f3e3d5ffd5b505050505050565b5f610e19613399565b50610e8c600c805480602002602001604051908101604052809291908181526020018280548015610e7157602002820191905f5260205f20905b81546001600160a01b03168152600190910190602001808311610e53575b50506008546001600160a01b03169250600e915061349d9050565b610e9461336e565b610e9e848361360f565b610ea784610ae9565b9050610eb2816136fa565b610ebf33848484886137a6565b610ec85f601255565b604080516001600160a01b038581168252602082018790528416917f09fbb654e02253d6c37ecb473c5ed6f4557cac3fe5abc1d559523f6e257ee18591015b60405180910390a2610f17613866565b9392505050565b5f610af460085f015f9054906101000a90046001600160a01b03166001600160a01b03166301e1d1146040518163ffffffff1660e01b8152600401602060405180830381865afa158015610f74573d5f5f3e3d5ffd5b505050506040513d601f19601f82011682018060405250810190610f9891906164f6565b610fb961047a856001600160a01b03165f9081526020819052604090205490565b613940565b6005546040805163093a953d60e21b815290516001600160a01b03909216916391d148549183916324ea54f4916004808201926020929091908290030181865afa15801561100e573d5f5f3e3d5ffd5b505050506040513d601f19601f8201168201806040525081019061103291906164f6565b336040518363ffffffff1660e01b815260040161105092919061648a565b602060405180830381865afa15801561106b573d5f5f3e3d5ffd5b505050506040513d601f19601f8201168201806040525081019061108f91906164b0565b15801561116a575060055460408051630ccc574960e41b815290516001600160a01b03909216916391d1485491839163ccc57490916004808201926020929091908290030181865afa1580156110e7573d5f5f3e3d5ffd5b505050506040513d601f19601f8201168201806040525081019061110b91906164f6565b336040518363ffffffff1660e01b815260040161112992919061648a565b602060405180830381865afa158015611144573d5f5f3e3d5ffd5b505050506040513d601f19601f8201168201806040525081019061116891906164b0565b155b1561118a57604051636b2a758d60e01b8152336004820152602401610c31565b61119261394f565b61119a613979565b565b5f5f6111a66109e4565b90505f60086002015482116111c857600a546111c390839061650d565b6111ca565b5f5b905061125c817f00000000000000000000000000000000000000000000000000000000000000006040516370a0823160e01b81526001600160a01b03888116600483015291909116906370a08231906024015b602060405180830381865afa158015611238573d5f5f3e3d5ffd5b505050506040513d601f19601f82011682018060405250810190610fb991906164f6565b949350505050565b6005546001600160a01b03166391d1485461127f5f306116ed565b336040518363ffffffff1660e01b815260040161129d92919061648a565b602060405180830381865afa1580156112b8573d5f5f3e3d5ffd5b505050506040513d601f19601f820116820180604052508101906112dc91906164b0565b6112fb576040516363b52ed760e11b8152336004820152602401610c31565b61130361336e565b60098190556040518181527f3ba130ec8df44f0a71243af1b7f9f4239616bafda97ae766b3c40a9d202b21a490602001610c73565b60055460408051630ccc574960e41b815290516001600160a01b03909216916391d1485491839163ccc57490916004808201926020929091908290030181865afa158015611388573d5f5f3e3d5ffd5b505050506040513d601f19601f820116820180604052508101906113ac91906164f6565b336040518363ffffffff1660e01b81526004016113ca92919061648a565b602060405180830381865afa1580156113e5573d5f5f3e3d5ffd5b505050506040513d601f19601f8201168201806040525081019061140991906164b0565b61142857604051630ea7d7ed60e21b8152336004820152602401610c31565b61143061336e565b611439816139b1565b50565b5f7f00000000000000000000000000000000000000000000000000000000000000006001600160a01b0316635b0f83f36040518163ffffffff1660e01b8152600401602060405180830381865afa158015610b7a573d5f5f3e3d5ffd5b5f6114a261336e565b6114ab84610b11565b90506114b8848284613a15565b600854604080516278744560e21b815290515f926001600160a01b0316916301e1d1149160048083019260209291908290030181865afa1580156114fe573d5f5f3e3d5ffd5b505050506040513d601f19601f8201168201806040525081019061152291906164f6565b60085490915061153b906001600160a01b031686613b00565b61154833858588866137a6565b336001600160a01b03167fe68a55afda2dca8343871fe0e5575a383291a40ae7d53e4dee12faf79cde144e8260085f015f9054906101000a90046001600160a01b03166001600160a01b03166301e1d1146040518163ffffffff1660e01b8152600401602060405180830381865afa1580156115c6573d5f5f3e3d5ffd5b505050506040513d601f19601f820116820180604052508101906115ea91906164f6565b6040805192835260208301919091520160405180910390a2509392505050565b5f7f00000000000000000000000000000000000000000000000000000000000000006001600160a01b03166361d027b36040518163ffffffff1660e01b8152600401602060405180830381865afa158015610b7a573d5f5f3e3d5ffd5b5f5f60105442611677919061650d565b90505f306001600160a01b03166318160ddd6040518163ffffffff1660e01b8152600401602060405180830381865afa1580156116b6573d5f5f3e3d5ffd5b505050506040513d601f19601f820116820180604052508101906116da91906164f6565b90506116e68183613b38565b9250505090565b5f8282604051602001611701929190616534565b60405160208183030381529060405280519060200120905092915050565b5f611728613399565b50611798600c80548060200260200160405190810160405280929190818152602001828054801561178057602002820191905f5260205f20905b81546001600160a01b03168152600190910190602001808311611762575b50506008546001600160a01b03169250613bb2915050565b506117a161336e565b6117ab8333613de0565b600854604080516278744560e21b815290515f926001600160a01b0316916301e1d1149160048083019260209291908290030181865afa1580156117f1573d5f5f3e3d5ffd5b505050506040513d601f19601f8201168201806040525081019061181591906164f6565b9050611820846123a9565b915061182e33848685613e13565b600854611844906001600160a01b031685613ea5565b336001600160a01b03167fe68a55afda2dca8343871fe0e5575a383291a40ae7d53e4dee12faf79cde144e8260085f015f9054906101000a90046001600160a01b03166001600160a01b03166301e1d1146040518163ffffffff1660e01b8152600401602060405180830381865afa1580156118c2573d5f5f3e3d5ffd5b505050506040513d601f19601f820116820180604052508101906118e691906164f6565b6040805192835260208301919091520160405180910390a250610af4613866565b5f7f00000000000000000000000000000000000000000000000000000000000000006001600160a01b0316637aaceb956040518163ffffffff1660e01b8152600401602060405180830381865afa158015610b7a573d5f5f3e3d5ffd5b6005546040805163093a953d60e21b815290516001600160a01b03909216916391d148549183916324ea54f4916004808201926020929091908290030181865afa1580156119b4573d5f5f3e3d5ffd5b505050506040513d601f19601f820116820180604052508101906119d891906164f6565b336040518363ffffffff1660e01b81526004016119f692919061648a565b602060405180830381865afa158015611a11573d5f5f3e3d5ffd5b505050506040513d601f19601f82011682018060405250810190611a3591906164b0565b158015611b10575060055460408051630ccc574960e41b815290516001600160a01b03909216916391d1485491839163ccc57490916004808201926020929091908290030181865afa158015611a8d573d5f5f3e3d5ffd5b505050506040513d601f19601f82011682018060405250810190611ab191906164f6565b336040518363ffffffff1660e01b8152600401611acf92919061648a565b602060405180830381865afa158015611aea573d5f5f3e3d5ffd5b505050506040513d601f19601f82011682018060405250810190611b0e91906164b0565b155b15611b3057604051636b2a758d60e01b8152336004820152602401610c31565b611b3861336e565b61119a613f71565b5f610af4611bbd60085f015f9054906101000a90046001600160a01b03166001600160a01b03166301e1d1146040518163ffffffff1660e01b8152600401602060405180830381865afa158015611b99573d5f5f3e3d5ffd5b505050506040513d601f19601f820116820180604052508101906104b091906164f6565b6001600160a01b0384165f90815260208190526040902054613940565b5f611be3613399565b50611c51600c80548060200260200160405190810160405280929190818152602001828054801561178057602002820191905f5260205f209081546001600160a01b031681526001909101906020018083116117625750506008546001600160a01b03169250613bb2915050565b50611c5a61336e565b611c648333613f7f565b600854604080516278744560e21b815290515f926001600160a01b0316916301e1d1149160048083019260209291908290030181865afa158015611caa573d5f5f3e3d5ffd5b505050506040513d601f19601f82011682018060405250810190611cce91906164f6565b9050611cd984611f07565b9150611ce733848487613e13565b600854611844906001600160a01b031683613ea5565b606060048054610a689061642d565b60055460408051630ccc574960e41b815290516001600160a01b03909216916391d1485491839163ccc57490916004808201926020929091908290030181865afa158015611d5c573d5f5f3e3d5ffd5b505050506040513d601f19601f82011682018060405250810190611d8091906164f6565b336040518363ffffffff1660e01b8152600401611d9e92919061648a565b602060405180830381865afa158015611db9573d5f5f3e3d5ffd5b505050506040513d601f19601f82011682018060405250810190611ddd91906164b0565b611dfc57604051630ea7d7ed60e21b8152336004820152602401610c31565b611e0461336e565b61143981613fb2565b5f611e16613399565b50611e87600c805480602002602001604051908101604052809291908181526020018280548015610e7157602002820191905f5260205f209081546001600160a01b03168152600190910190602001808311610e535750506008546001600160a01b03169250600e915061349d9050565b611e8f61336e565b611e9884610b11565b9050611ea58482846141f2565b611eae846136fa565b611ebb33848487856137a6565b611ec45f601255565b604080516001600160a01b038581168252602082018790528416917fd4383faec5079b2ec7ac0ff240326baa0d584b03d51b9742f7c1a034f6fc015b9101610f07565b5f610af48260016132fa565b5f611f1c613399565b50611f8d600c805480602002602001604051908101604052809291908181526020018280548015610e7157602002820191905f5260205f209081546001600160a01b03168152600190910190602001808311610e535750506008546001600160a01b03169250600e915061349d9050565b611f9561336e565b600854604080516278744560e21b815290515f926001600160a01b0316916301e1d1149160048083019260209291908290030181865afa158015611fdb573d5f5f3e3d5ffd5b505050506040513d601f19601f82011682018060405250810190611fff91906164f6565b90505f19850361202e576001600160a01b0383165f9081526020819052604090205461202a81610ae9565b9550505b80851161204757612040858585611499565b9150612055565b612052858585611e0d565b91505b50610f17613866565b6005546001600160a01b03166391d148546120795f306116ed565b336040518363ffffffff1660e01b815260040161209792919061648a565b602060405180830381865afa1580156120b2573d5f5f3e3d5ffd5b505050506040513d601f19601f820116820180604052508101906120d691906164b0565b6120f5576040516363b52ed760e11b8152336004820152602401610c31565b6120fd61336e565b6001600160a01b0382165f908152600d602052604090205460ff1661214057604051632767039f60e01b81526001600160a01b0383166004820152602401610c31565b6040516361f5cd8b60e01b8152600481018290526001600160a01b038316906361f5cd8b90602401610ddf565b5f612176613399565b506121e7600c805480602002602001604051908101604052809291908181526020018280548015610e7157602002820191905f5260205f209081546001600160a01b03168152600190910190602001808311610e535750506008546001600160a01b03169250600e915061349d9050565b6121ef61336e565b600854604080516278744560e21b815290515f926001600160a01b0316916301e1d1149160048083019260209291908290030181865afa158015612235573d5f5f3e3d5ffd5b505050506040513d601f19601f8201168201806040525081019061225991906164f6565b90505f612265826123a9565b90505f19860361228a576001600160a01b0384165f9081526020819052604090205495505b8086116122a35761229c868686612e0d565b92506122b1565b6122ae868686610e10565b92505b5050610f17613866565b6122eb60405180608001604052805f6001600160a01b031681526020015f81526020015f81526020015f81525090565b50604080516080810182526008546001600160a01b031681526009546020820152600a5491810191909152600b54606082015290565b5f5f61232b6109e4565b90505f600860020154821161234d57600a5461234890839061650d565b61234f565b5f5b905061125c610826827f00000000000000000000000000000000000000000000000000000000000000006040516370a0823160e01b81526001600160a01b03898116600483015291909116906370a082319060240161121d565b5f610af4825f61333f565b6005546001600160a01b03166391d148546123d06001306116ed565b336040518363ffffffff1660e01b81526004016123ee92919061648a565b602060405180830381865afa158015612409573d5f5f3e3d5ffd5b505050506040513d601f19601f8201168201806040525081019061242d91906164b0565b1580156125085750600554604080516366e943f160e01b815290516001600160a01b03909216916391d148549183916366e943f1916004808201926020929091908290030181865afa158015612485573d5f5f3e3d5ffd5b505050506040513d601f19601f820116820180604052508101906124a991906164f6565b336040518363ffffffff1660e01b81526004016124c792919061648a565b602060405180830381865afa1580156124e2573d5f5f3e3d5ffd5b505050506040513d601f19601f8201168201806040525081019061250691906164b0565b155b15612528576040516329068e8160e21b8152336004820152602401610c31565b601154601254612538904261650d565b101561256c57601254601154604051630924dbf160e21b815260048101929092526024820152426044820152606401610c31565b42601255612578613399565b5061258161336e565b61258b828261428b565b612595828261438a565b5f6125a0838361461b565b60405181815290915033907f4bd1a9dd6e8410a6d85178f9a75d601cb7b266e228771c213fe39ffffad2d3299060200160405180910390a2505050565b60055460408051630ccc574960e41b815290516001600160a01b03909216916391d1485491839163ccc57490916004808201926020929091908290030181865afa15801561262d573d5f5f3e3d5ffd5b505050506040513d601f19601f8201168201806040525081019061265191906164f6565b336040518363ffffffff1660e01b815260040161266f92919061648a565b602060405180830381865afa15801561268a573d5f5f3e3d5ffd5b505050506040513d601f19601f820116820180604052508101906126ae91906164b0565b6126cd57604051630ea7d7ed60e21b8152336004820152602401610c31565b6126d561336e565b5f5b818110156127165761270e8383838181106126f4576126f4616577565b9050602002016020810190612709919061616e565b6146b9565b6001016126d7565b505050565b5f610af4610f98612836565b6005546001600160a01b03166391d148546127425f306116ed565b336040518363ffffffff1660e01b815260040161276092919061648a565b602060405180830381865afa15801561277b573d5f5f3e3d5ffd5b505050506040513d601f19601f8201168201806040525081019061279f91906164b0565b6127be576040516363b52ed760e11b8152336004820152602401610c31565b6127c661336e565b6001600160a01b0382165f908152600d602052604090205460ff1661280957604051632767039f60e01b81526001600160a01b0383166004820152602401610c31565b60405163497af41960e11b8152600481018290526001600160a01b038316906392f5e83290602401610ddf565b5f610a54600c80548060200260200160405190810160405280929190818152602001828054801561288e57602002820191905f5260205f20905b81546001600160a01b03168152600190910190602001808311612870575b50506008546001600160a01b03169250600e91506149139050565b6005546001600160a01b03166391d148546128c45f306116ed565b336040518363ffffffff1660e01b81526004016128e292919061648a565b602060405180830381865afa1580156128fd573d5f5f3e3d5ffd5b505050506040513d601f19601f8201168201806040525081019061292191906164b0565b612940576040516363b52ed760e11b8152336004820152602401610c31565b61294861336e565b600a8190556040518181527f4faeac5aec9fa2e6f82ae7ccfef27a03ca3ff9d8c5356fea9acb2caad1c4c34490602001610c73565b5f610af4611bbd610826612836565b60055460408051630ccc574960e41b815290516001600160a01b03909216916391d1485491839163ccc57490916004808201926020929091908290030181865afa1580156129dc573d5f5f3e3d5ffd5b505050506040513d601f19601f82011682018060405250810190612a0091906164f6565b336040518363ffffffff1660e01b8152600401612a1e92919061648a565b602060405180830381865afa158015612a39573d5f5f3e3d5ffd5b505050506040513d601f19601f82011682018060405250810190612a5d91906164b0565b612a7c57604051630ea7d7ed60e21b8152336004820152602401610c31565b612a8461336e565b61143981614a93565b60055460408051630ccc574960e41b815290516001600160a01b03909216916391d1485491839163ccc57490916004808201926020929091908290030181865afa158015612add573d5f5f3e3d5ffd5b505050506040513d601f19601f82011682018060405250810190612b0191906164f6565b336040518363ffffffff1660e01b8152600401612b1f92919061648a565b602060405180830381865afa158015612b3a573d5f5f3e3d5ffd5b505050506040513d601f19601f82011682018060405250810190612b5e91906164b0565b612b7d57604051630ea7d7ed60e21b8152336004820152602401610c31565b612b8561336e565b61143981614ad4565b60055460408051630ccc574960e41b815290516001600160a01b03909216916391d1485491839163ccc57490916004808201926020929091908290030181865afa158015612bde573d5f5f3e3d5ffd5b505050506040513d601f19601f82011682018060405250810190612c0291906164f6565b336040518363ffffffff1660e01b8152600401612c2092919061648a565b602060405180830381865afa158015612c3b573d5f5f3e3d5ffd5b505050506040513d601f19601f82011682018060405250810190612c5f91906164b0565b612c7e57604051630ea7d7ed60e21b8152336004820152602401610c31565b612c8661336e565b611439816146b9565b60055460408051630ccc574960e41b815290516001600160a01b03909216916391d1485491839163ccc57490916004808201926020929091908290030181865afa158015612cdf573d5f5f3e3d5ffd5b505050506040513d601f19601f82011682018060405250810190612d0391906164f6565b336040518363ffffffff1660e01b8152600401612d2192919061648a565b602060405180830381865afa158015612d3c573d5f5f3e3d5ffd5b505050506040513d601f19601f82011682018060405250810190612d6091906164b0565b612d7f57604051630ea7d7ed60e21b8152336004820152602401610c31565b612d87613399565b50612d9061336e565b612d9a828261428b565b612da48282614b09565b612716828261461b565b6060600c805480602002602001604051908101604052809291908181526020018280548015610adf57602002820191905f5260205f20905b81546001600160a01b03168152600190910190602001808311612de6575050505050905090565b5f612e16613399565b50612e87600c805480602002602001604051908101604052809291908181526020018280548015610e7157602002820191905f5260205f209081546001600160a01b03168152600190910190602001808311610e535750506008546001600160a01b03169250600e915061349d9050565b612e8f61336e565b612e998483614b50565b600854604080516278744560e21b815290515f926001600160a01b0316916301e1d1149160048083019260209291908290030181865afa158015612edf573d5f5f3e3d5ffd5b505050506040513d601f19601f82011682018060405250810190612f0391906164f6565b9050612f0e85610ae9565b600854909250612f27906001600160a01b031683613b00565b612f3433858585896137a6565b336001600160a01b03167fe68a55afda2dca8343871fe0e5575a383291a40ae7d53e4dee12faf79cde144e8260085f015f9054906101000a90046001600160a01b03166001600160a01b03166301e1d1146040518163ffffffff1660e01b8152600401602060405180830381865afa158015612fb2573d5f5f3e3d5ffd5b505050506040513d601f19601f82011682018060405250810190612fd691906164f6565b6040805192835260208301919091520160405180910390a250610f17613866565b5f61300061336e565b8160405161300e919061658b565b604051908190038120906001600160a01b038516907f38383a2eb7bd8ee888f12fb942a2e22e84f2d7240f1f8541ad4bbddace6e3442905f90a361125c848461171f565b6005546001600160a01b03166391d1485461306e6001306116ed565b336040518363ffffffff1660e01b815260040161308c92919061648a565b602060405180830381865afa1580156130a7573d5f5f3e3d5ffd5b505050506040513d601f19601f820116820180604052508101906130cb91906164b0565b1580156131a65750600554604080516366e943f160e01b815290516001600160a01b03909216916391d148549183916366e943f1916004808201926020929091908290030181865afa158015613123573d5f5f3e3d5ffd5b505050506040513d601f19601f8201168201806040525081019061314791906164f6565b336040518363ffffffff1660e01b815260040161316592919061648a565b602060405180830381865afa158015613180573d5f5f3e3d5ffd5b505050506040513d601f19601f820116820180604052508101906131a491906164b0565b155b156131c6576040516329068e8160e21b8152336004820152602401610c31565b6011546012546131d6904261650d565b101561320a57601254601154604051630924dbf160e21b815260048101929092526024820152426044820152606401610c31565b42601255612d87613399565b600c8181548110613225575f80fd5b5f918252602090912001546001600160a01b0316905081565b5f806132a46132a060ff1961327460017fa44c7cc604645fc9d906e0a5aeb821ecf76e473a1a4d03393ebd52161430e41b61650d565b60405160200161328691815260200190565b604051602081830303815290604052805190602001201690565b5c90565b905080156132e8576132e06132a060ff1961327460017fa9898051640582db44f19359a5df62a03dbff55353a9f388ea332d75dfa80fa161650d565b915050610af4565b61125c6132f58585614be9565b614cc9565b5f610f176133066109e4565b6133119060016165a1565b61331c5f600a616697565b60025461332991906165a1565b85919085614d68565b6127168383836001614db3565b5f610f1761334e82600a616697565b60025461335b91906165a1565b6133636109e4565b6133299060016165a1565b600554600160a01b900460ff161561119a5760405163d93c066560e01b815260040160405180910390fd5b5f6133ad600f546133a95f614e77565b1490565b156133bb5750426010555f90565b5f601054426133ca919061650d565b9050805f036133da575f91505090565b5f306001600160a01b03166318160ddd6040518163ffffffff1660e01b8152600401602060405180830381865afa158015613417573d5f5f3e3d5ffd5b505050506040513d601f19601f8201168201806040525081019061343b91906164f6565b90506134478183613b38565b925082156134985761346061345a611907565b84614e8e565b426010556040518381527f698f29fe990d4e7770f7e74cd309da261dd03ca828f7bb3c2ea8b8c9adcc0ecd9060200160405180910390a15b505090565b5f6134a88484613bb2565b90505f81516001600160401b038111156134c4576134c46162d2565b60405190808252806020026020018201604052801561350857816020015b604080518082019091525f80825260208201528152602001906001900390816134e25790505b5090505f80805b84518110156135e75760018551613526919061650d565b81148061356a5750855f86838151811061354257613542616577565b602090810291909101810151516001600160a01b031682528101919091526040015f205460ff165b156135df5784818151811061358157613581616577565b602002602001015184838151811061359b5761359b616577565b60200260200101819052508481815181106135b8576135b8616577565b602002602001015160200151836135cf91906165a1565b9250816135db816166a5565b9250505b60010161350f565b508083526135f482614e9c565b6135fd83614f06565b61360683614feb565b50505050505050565b336001600160a01b038216148015906136935750604051636eb1769f60e11b81526001600160a01b03821660048201523360248201528290309063dd62ed3e90604401602060405180830381865afa15801561366d573d5f5f3e3d5ffd5b505050506040513d601f19601f8201168201806040525081019061369191906164f6565b105b156136c757335b604051630c849df760e41b81526001600160a01b0391821660048201529082166024820152604401610c31565b5f6136d18261297d565b90508083111561271657818382604051632e52afbb60e21b8152600401610c31939291906166bd565b5f6137036150fd565b90505f5b8151811015612716575f82828151811061372357613723616577565b60200260200101516020015190508381106137645761375e83838151811061374d5761374d616577565b60200260200101515f015185613b00565b50505050565b801561379d5761379083838151811061377f5761377f616577565b60200260200101515f015182613b00565b61379a818561650d565b93505b50600101613707565b826001600160a01b0316856001600160a01b0316146137ca576137ca8386836152b9565b6137d4838261531b565b6137ff7f0000000000000000000000000000000000000000000000000000000000000000858461534f565b826001600160a01b0316846001600160a01b0316866001600160a01b03167ffbde797d201c681b91056529119e0b02407c7bb96a4a2c75c01fc9667232c8db8585604051613857929190918252602082015260400190565b60405180910390a45050505050565b6138a15f61389b60ff1961327460017fa44c7cc604645fc9d906e0a5aeb821ecf76e473a1a4d03393ebd52161430e41b61650d565b906153ae565b6138d65f61389b60ff1961327460017f98932279f8646d348f86cf154406d1fab3c6a0c52686d604c7d4a6a14003810961650d565b61390b5f61389b60ff1961327460017f410d83ac3c7a0c2a0669e43e3a5ca6694ee49455f748efa9954a95c3752e9fc961650d565b61119a5f61389b60ff1961327460017f2e756c3932ba771b80f1bae53d1177d9f7a4ced0ce66d74053b09f874cec6fff61650d565b5f828218828410028218610f17565b600554600160a01b900460ff1661119a57604051638dfc202b60e01b815260040160405180910390fd5b60065460075461398991906165a1565b4210156139a9576040516304a59e3b60e01b815260040160405180910390fd5b61119a6153b5565b6139ba8161540a565b6139d7576040516319ecf1a560e31b815260040160405180910390fd5b6139df613399565b50600f8190556040518181527f186e864438b783eec69fd7ce4871c28accfc0b45558ea08c48540f76094fecde90602001610c73565b336001600160a01b03821614801590613a995750604051636eb1769f60e11b81526001600160a01b03821660048201523360248201528290309063dd62ed3e90604401602060405180830381865afa158015613a73573d5f5f3e3d5ffd5b505050506040513d601f19601f82011682018060405250810190613a9791906164f6565b105b15613acd57335b604051638b27f8ed60e01b81526001600160a01b0391821660048201529082166024820152604401610c31565b5f613ad782610f1e565b90508084111561375e57818482604051633fa733bb60e21b8152600401610c31939291906166bd565b604080516020810182525f81529051630278811f60e31b81526001600160a01b038416916313c408f891610ddf9185916004016166de565b5f5f6301e13380600f54613b4c919061670a565b90505f613b8f613b72613b616012600a61671d565b613b6c906064616728565b8461542b565b85613b7f6012600a61671d565b613b8a906064616728565b615436565b90505f613b9c8683615444565b9050613ba8868261650d565b9695505050505050565b606082516001613bc291906165a1565b6001600160401b03811115613bd957613bd96162d2565b604051908082528060200260200182016040528015613c1d57816020015b604080518082019091525f8082526020820152815260200190600190039081613bf75790505b5090505f805b8451811015613d11575f858281518110613c3f57613c3f616577565b60200260200101516001600160a01b03166301e1d1146040518163ffffffff1660e01b8152600401602060405180830381865afa158015613c82573d5f5f3e3d5ffd5b505050506040513d601f19601f82011682018060405250810190613ca691906164f6565b90506040518060400160405280878481518110613cc557613cc5616577565b60200260200101516001600160a01b0316815260200182815250848381518110613cf157613cf1616577565b6020908102919091010152613d0681846165a1565b925050600101613c23565b505f836001600160a01b03166301e1d1146040518163ffffffff1660e01b8152600401602060405180830381865afa158015613d4f573d5f5f3e3d5ffd5b505050506040513d601f19601f82011682018060405250810190613d7391906164f6565b90506040518060400160405280856001600160a01b031681526020018281525083865181518110613da657613da6616577565b6020908102919091010152613dbb81836165a1565b9150613dc683614f06565b613dcf82615470565b613dd8836154da565b505092915050565b5f613dea8261119c565b90508083111561271657818382604051633c8097d960e11b8152600401610c31939291906166bd565b613e3f7f00000000000000000000000000000000000000000000000000000000000000008530856155be565b613e4983826155f7565b826001600160a01b0316846001600160a01b03167fdcbc1c05240f31ff3ad067ef1ee35ce4997762752e3a095284754544f4c709d78484604051613e97929190918252602082015260400190565b60405180910390a350505050565b7f000000000000000000000000000000000000000000000000000000000000000060405163095ea7b360e01b81526001600160a01b03848116600483015260248201849052919091169063095ea7b3906044016020604051808303815f875af1158015613f14573d5f5f3e3d5ffd5b505050506040513d601f19601f82011682018060405250810190613f3891906164b0565b50604080516020810182525f81529051632db6d39960e01b81526001600160a01b03841691632db6d39991610ddf9185916004016166de565b613f7961562b565b42600755565b5f613f8982612321565b9050808311156127165781838260405163284ff66760e01b8152600401610c31939291906166bd565b6001600160a01b0381165f908152600d602052604090205460ff16613ff557604051632767039f60e01b81526001600160a01b0382166004820152602401610c31565b5f5b600c548110156140f457816001600160a01b0316600c828154811061401e5761401e616577565b5f918252602090912001546001600160a01b0316036140ec576140408261566e565b600c80546140509060019061650d565b8154811061406057614060616577565b5f91825260209091200154600c80546001600160a01b03909216918390811061408b5761408b616577565b905f5260205f20015f6101000a8154816001600160a01b0302191690836001600160a01b03160217905550600c8054806140c7576140c761673f565b5f8281526020902081015f1990810180546001600160a01b03191690550190556140f4565b600101613ff7565b506001600160a01b0381165f818152600d6020526040808220805460ff19169055805163ebf3113160e01b8152905163ebf311319260048084019391929182900301818387803b158015614146575f5ffd5b505af1158015614158573d5f5f3e3d5ffd5b505060055460405163d55dd62b60e01b81526001600160a01b03909116925063d55dd62b915061418f906002908590600401616753565b5f604051808303815f87803b1580156141a6575f5ffd5b505af11580156141b8573d5f5f3e3d5ffd5b50506040516001600160a01b03841692507f66d72a91b52f63fb063c4f672763d7ef15ce4d7c9a268a7f9b5133e41c1709a591505f90a250565b336001600160a01b038216148015906142765750604051636eb1769f60e11b81526001600160a01b03821660048201523360248201528290309063dd62ed3e90604401602060405180830381865afa158015614250573d5f5f3e3d5ffd5b505050506040513d601f19601f8201168201806040525081019061427491906164f6565b105b156142815733613aa0565b5f613ad78261271b565b600b548111156142b15760405163899a5d8160e01b815260048101829052602401610c31565b5f8190036142d2576040516304dcdcd560e31b815260040160405180910390fd5b5f5b81811015612716575f8383838181106142ef576142ef616577565b9050602002810190614301919061678b565b61430f90602081019061616e565b90505f84848481811061432457614324616577565b9050602002810190614336919061678b565b61434790604081019060200161616e565b90505f85858581811061435c5761435c616577565b905060200281019061436e919061678b565b60400135905061437f838383615786565b5050506001016142d4565b6008545f906001600160a01b0316838383816143a8576143a8616577565b90506020028101906143ba919061678b565b6143cb90604081019060200161616e565b6001600160a01b03161490505f60085f015f9054906101000a90046001600160a01b03166001600160a01b03166301e1d1146040518163ffffffff1660e01b8152600401602060405180830381865afa15801561442a573d5f5f3e3d5ffd5b505050506040513d601f19601f8201168201806040525081019061444e91906164f6565b90505f805b848110156145b7575f1986868381811061446f5761446f616577565b9050602002810190614481919061678b565b60400135036144a35760405163cf7ab75360e01b815260040160405180910390fd5b8585828181106144b5576144b5616577565b90506020028101906144c7919061678b565b6144d59060400135836165a1565b9150831561454a576008546001600160a01b03168686838181106144fb576144fb616577565b905060200281019061450d919061678b565b61451e90604081019060200161616e565b6001600160a01b03161461454557604051633abef25360e21b815260040160405180910390fd5b6145af565b6008546001600160a01b031686868381811061456857614568616577565b905060200281019061457a919061678b565b61458890602081019061616e565b6001600160a01b0316146145af57604051633abef25360e21b815260040160405180910390fd5b600101614453565b50826146145760095482116145e257604051600162efa20760e01b0319815260040160405180910390fd5b6009545f906145f1908461650d565b905080821115610e0857604051633b5391f960e01b815260040160405180910390fd5b5050505050565b5f805b8281101561466f5761465b84848381811061463b5761463b616577565b905060200281019061464d919061678b565b614656906167a9565b615a39565b61466590836165a1565b915060010161461e565b50336001600160a01b03167f507d790d4c0157977bb25bd8941f5f91c3118eab68b257c1d1c0825cb0051fd984846040516146ab9291906168ae565b60405180910390a292915050565b6001600160a01b0381166146e05760405163210e96cb60e01b815260040160405180910390fd5b6001600160a01b0381165f908152600d602052604090205460ff161561472457604051637eadea0960e11b81526001600160a01b0382166004820152602401610c31565b6001600160a01b0381165f818152600d6020908152604091829020805460ff19166001179055815163303dbaf360e01b8152915163303dbaf39260048082019392918290030181865afa15801561477d573d5f5f3e3d5ffd5b505050506040513d601f19601f820116820180604052508101906147a191906164b0565b6001600160a01b0382165f818152600e6020526040808220805460ff191694159490941790935582516330fe427560e21b81529251909263c3f909d491600480830192869291908290030181865afa1580156147ff573d5f5f3e3d5ffd5b505050506040513d5f823e601f3d908101601f1916820160405261482691908101906169eb565b516001600160a01b03161461484e57604051631089e45f60e21b815260040160405180910390fd5b806001600160a01b0316638a8b99766040518163ffffffff1660e01b81526004015f604051808303815f87803b158015614886575f5ffd5b505af1158015614898573d5f5f3e3d5ffd5b5050600c80546001810182555f9182527fdf6966c971051c3d54ec59162606531493a51404a002842f56009d7e5cf4a8c70180546001600160a01b0319166001600160a01b0386169081179091556040519093507fcb4a29d359e86f179111dcba8714def1a859612f729f2d224d13efeac51b36bc9250a250565b5f806149496132a060ff1961327460017f98932279f8646d348f86cf154406d1fab3c6a0c52686d604c7d4a6a14003810961650d565b9050801561498d576149856132a060ff1961327460017f3d5fcbe10cf86b117683d0d4967b64a0c0fa4bdda7d07499d3c9dc5e388b694161650d565b915050610f17565b5f6149988686614be9565b90505f5b8151811015614a8957600182516149b3919061650d565b8114806149f65750845f8383815181106149cf576149cf616577565b6020908102919091018101516001600160a01b031682528101919091526040015f205460ff165b15614a8157818181518110614a0d57614a0d616577565b60200260200101516001600160a01b03166301e1d1146040518163ffffffff1660e01b8152600401602060405180830381865afa158015614a50573d5f5f3e3d5ffd5b505050506040513d601f19601f82011682018060405250810190614a7491906164f6565b614a7e90856165a1565b93505b60010161499c565b5050509392505050565b60115460408051918252602082018390527f5953b565c074c2cce1866b4e69c9efc4908556bb6fca70f735907c94d9405515910160405180910390a1601155565b60068190556040518181527f3cf175d91d8c5823f3729423b5a64130e40d4b09e88c6dc1925a260f26818c2590602001610c73565b5f5b8181101561271657614b48838383818110614b2857614b28616577565b9050602002810190614b3a919061678b565b614b43906167a9565b615bd8565b600101614b0b565b336001600160a01b03821614801590614bd45750604051636eb1769f60e11b81526001600160a01b03821660048201523360248201528290309063dd62ed3e90604401602060405180830381865afa158015614bae573d5f5f3e3d5ffd5b505050506040513d601f19601f82011682018060405250810190614bd291906164f6565b105b15614bdf573361369a565b5f6136d182611b40565b60605f83516001614bfa91906165a1565b6001600160401b03811115614c1157614c116162d2565b604051908082528060200260200182016040528015614c3a578160200160208202803683370190505b5090505f5b8451811015614c9457848181518110614c5a57614c5a616577565b6020026020010151828281518110614c7457614c74616577565b6001600160a01b0390921660209283029190910190910152600101614c3f565b508281855181518110614ca957614ca9616577565b6001600160a01b0390921660209283029190910190910152905092915050565b5f805b8251811015614d6257828181518110614ce757614ce7616577565b60200260200101516001600160a01b03166301e1d1146040518163ffffffff1660e01b8152600401602060405180830381865afa158015614d2a573d5f5f3e3d5ffd5b505050506040513d601f19601f82011682018060405250810190614d4e91906164f6565b614d5890836165a1565b9150600101614ccc565b50919050565b5f614d95614d7583615c26565b8015614d9057505f8480614d8b57614d8b6166f6565b868809115b151590565b614da0868686615c52565b614daa91906165a1565b95945050505050565b6001600160a01b038416614ddc5760405163e602df0560e01b81525f6004820152602401610c31565b6001600160a01b038316614e0557604051634a1406b160e11b81525f6004820152602401610c31565b6001600160a01b038085165f908152600160209081526040808320938716835292905220829055801561375e57826001600160a01b0316846001600160a01b03167f8c5be1e5ebec7d5bd14f71427d1e84f3dd0314c0f7b2291e5b200ac8c7c3b92584604051613e9791815260200190565b5f614e846012600a61671d565b610af49083616728565b614e9882826155f7565b5050565b614ed18161389b60ff1961327460017f3d5fcbe10cf86b117683d0d4967b64a0c0fa4bdda7d07499d3c9dc5e388b694161650d565b611439600161389b60ff19613274837f98932279f8646d348f86cf154406d1fab3c6a0c52686d604c7d4a6a14003810961650d565b5f5b8151811015614e98575f614f1d8260016165a1565b90505b8251811015614fe257828181518110614f3b57614f3b616577565b602002602001015160200151838381518110614f5957614f59616577565b6020026020010151602001511115614fda57828181518110614f7d57614f7d616577565b6020026020010151838381518110614f9757614f97616577565b6020026020010151848481518110614fb157614fb1616577565b60200260200101858481518110614fca57614fca616577565b6020026020010182905282905250505b600101614f20565b50600101614f08565b6114398160ff1961501d60017f8f2b8f2fcb6f2e256bfd8c09fcca564574482705250cb5c8dbe56c4f4fce37c961650d565b60405160200161502f91815260200190565b60408051601f1981840301815291905280516020909101201660ff1961507660017f05abb041f8dc8945baa4f2792e2109e9d9e22dea3aa665ccf2f030209c7415ae61650d565b60405160200161508891815260200190565b60408051601f1981840301815291905280516020909101201660ff196150cf60017f410d83ac3c7a0c2a0669e43e3a5ca6694ee49455f748efa9954a95c3752e9fc961650d565b6040516020016150e191815260200190565b6040516020818303038152906040528051906020012016615d08565b60605f6151346132a060ff1961327460017f410d83ac3c7a0c2a0669e43e3a5ca6694ee49455f748efa9954a95c3752e9fc961650d565b9050806001600160401b0381111561514e5761514e6162d2565b60405190808252806020026020018201604052801561519257816020015b604080518082019091525f808252602082015281526020019060019003908161516c5790505b5091505f5b81811015613498575f6152096132a061520660ff196151d760017f05abb041f8dc8945baa4f2792e2109e9d9e22dea3aa665ccf2f030209c7415ae61650d565b6040516020016151e991815260200190565b604051602081830303815290604052805190602001201685615d83565b90565b90505f6152726132a061520660ff1961524360017f8f2b8f2fcb6f2e256bfd8c09fcca564574482705250cb5c8dbe56c4f4fce37c961650d565b60405160200161525591815260200190565b604051602081830303815290604052805190602001201686615d83565b90506040518060400160405280836001600160a01b03168152602001828152508584815181106152a4576152a4616577565b60209081029190910101525050600101615197565b6001600160a01b038381165f908152600160209081526040808320938616835292905220545f19811461375e578181101561530d57828183604051637dc7a0d960e11b8152600401610c31939291906166bd565b61375e84848484035f614db3565b6001600160a01b03821661534457604051634b637e8f60e11b81525f6004820152602401610c31565b614e98825f83615d9e565b6040516001600160a01b0383811660248301526044820183905261271691859182169063a9059cbb906064015b604051602081830303815290604052915060e01b6020820180516001600160e01b038381831617835250505050615eb1565b80825d5050565b6153bd61394f565b6005805460ff60a01b191690557f5db9ee0a495bf2e6ff9c91a7834c1ba4fdd244a5e8aa4e537bd38aeae4b073aa335b6040516001600160a01b03909116815260200160405180910390a1565b5f610af48261541b6012600a61671d565b615426906064616728565b101590565b5f610f1782846165a1565b5f8382613ba8828683615f1d565b5f6154516012600a61671d565b61545c906064616728565b6154668385616728565b610f17919061670a565b6154a58161389b60ff1961327460017fa9898051640582db44f19359a5df62a03dbff55353a9f388ea332d75dfa80fa161650d565b611439600161389b60ff19613274837fa44c7cc604645fc9d906e0a5aeb821ecf76e473a1a4d03393ebd52161430e41b61650d565b6114398160ff1961550c60017f5720a3c83eb8242bbe1a4159c3b45ed663cd9e207a02bdea64844c6c583da9de61650d565b60405160200161551e91815260200190565b60408051601f1981840301815291905280516020909101201660ff1961556560017fb4b00da68d43fac77a22bb187c63cb88989e294cfebeb79b3789ae1629639d9961650d565b60405160200161557791815260200190565b60408051601f1981840301815291905280516020909101201660ff196150cf60017f2e756c3932ba771b80f1bae53d1177d9f7a4ced0ce66d74053b09f874cec6fff61650d565b6040516001600160a01b03848116602483015283811660448301526064820183905261375e9186918216906323b872dd9060840161537c565b6001600160a01b0382166156205760405163ec442f0560e01b81525f6004820152602401610c31565b614e985f8383615d9e565b61563361336e565b6005805460ff60a01b1916600160a01b1790557f62e78cea01bee320cd4e420270b5ea74000d11b0c9f74754ebdbfc544b05a2586153ed3390565b5f8190505f816001600160a01b031663dbd5edc76040518163ffffffff1660e01b8152600401602060405180830381865afa1580156156af573d5f5f3e3d5ffd5b505050506040513d601f19601f820116820180604052508101906156d391906164f6565b11156156fd57604051632a4d8fbb60e01b81526001600160a01b0383166004820152602401610c31565b806001600160a01b03166301e1d1146040518163ffffffff1660e01b8152600401602060405180830381865afa158015615739573d5f5f3e3d5ffd5b505050506040513d601f19601f8201168201806040525081019061575d91906164f6565b15614e985760405163ca4a18b360e01b81526001600160a01b0383166004820152602401610c31565b805f036157b157604051630a16952b60e21b81526001600160a01b0383166004820152602401610c31565b6001600160a01b0382166157e357604051632767039f60e01b81526001600160a01b0383166004820152602401610c31565b6001600160a01b03831661581557604051632767039f60e01b81526001600160a01b0384166004820152602401610c31565b6001600160a01b0382165f908152600d602052604090205460ff166158585760405163c80e655f60e01b81526001600160a01b0383166004820152602401610c31565b6001600160a01b0383165f908152600d602052604090205460ff1661589b5760405163c80e655f60e01b81526001600160a01b0384166004820152602401610c31565b5f836001600160a01b0316633194549e6040518163ffffffff1660e01b8152600401602060405180830381865afa1580156158d8573d5f5f3e3d5ffd5b505050506040513d601f19601f820116820180604052508101906158fc91906164f6565b90508082111561592557838282604051637d7bf8e160e01b8152600401610c31939291906166bd565b5f836001600160a01b031663ad5a356f6040518163ffffffff1660e01b8152600401602060405180830381865afa158015615962573d5f5f3e3d5ffd5b505050506040513d601f19601f8201168201806040525081019061598691906164f6565b9050808311156159af5783838260405163016b606760e21b8152600401610c31939291906166bd565b836001600160a01b031663dbd5edc76040518163ffffffff1660e01b8152600401602060405180830381865afa1580156159eb573d5f5f3e3d5ffd5b505050506040513d601f19601f82011682018060405250810190615a0f91906164f6565b5f0361461457604051630b9cb3f960e11b81526001600160a01b0385166004820152602401610c31565b6020810151815160408301515f929190600101615ab757806001600160a01b03166301e1d1146040518163ffffffff1660e01b8152600401602060405180830381865afa158015615a8c573d5f5f3e3d5ffd5b505050506040513d601f19601f82011682018060405250810190615ab091906164f6565b9250615abf565b836040015192505b5f826001600160a01b031663dbd5edc76040518163ffffffff1660e01b8152600401602060405180830381865afa158015615afc573d5f5f3e3d5ffd5b505050506040513d601f19601f82011682018060405250810190615b2091906164f6565b90505f836001600160a01b03166301e1d1146040518163ffffffff1660e01b8152600401602060405180830381865afa158015615b5f573d5f5f3e3d5ffd5b505050506040513d601f19601f82011682018060405250810190615b8391906164f6565b905081615b9086836165a1565b1115615bba5760405163077fc1ab60e51b81526001600160a01b0385166004820152602401610c31565b615bcf83858789606001518a60800151615fe5565b50505050919050565b60085460208201516001600160a01b0390811691161480615c08575060085481516001600160a01b039081169116145b1561143957604051630394d1d160e21b815260040160405180910390fd5b5f6002826003811115615c3b57615c3b616520565b615c459190616ab8565b60ff166001149050919050565b5f838302815f1985870982811083820303915050805f03615c8657838281615c7c57615c7c6166f6565b0492505050610f17565b808411615c9d57615c9d600385150260111861604b565b5f848688095f868103871696879004966002600389028118808a02820302808a02820302808a02820302808a02820302808a02820302808a02909103029181900381900460010186841190950394909402919094039290920491909117919091029150509392505050565b5f5b8451811015615d7657615d41858281518110615d2857615d28616577565b60200260200101516020015161389b6152068785615d83565b615d6e858281518110615d5657615d56616577565b60200260200101515f015161389b6152068685615d83565b600101615d0a565b5061375e845161389b8390565b60408051602081018490529081018290525f90606001611701565b6001600160a01b038316615dc8578060025f828254615dbd91906165a1565b90915550615e259050565b6001600160a01b0383165f9081526020819052604090205481811015615e075783818360405163391434e360e21b8152600401610c31939291906166bd565b6001600160a01b0384165f9081526020819052604090209082900390555b6001600160a01b038216615e4157600280548290039055615e5f565b6001600160a01b0382165f9081526020819052604090208054820190555b816001600160a01b0316836001600160a01b03167fddf252ad1be2c89b69c2b068fc378daa952ba7f163c4a11628f55a4df523b3ef83604051615ea491815260200190565b60405180910390a3505050565b5f5f60205f8451602086015f885af180615ed0576040513d5f823e3d81fd5b50505f513d91508115615ee7578060011415615ef4565b6001600160a01b0384163b155b1561375e57604051635274afe760e01b81526001600160a01b0385166004820152602401610c31565b5f831580615f29575082155b15615f43578215615f3a575f615f3c565b815b9050610f17565b615f4e600284616ad9565b15615f595783615f5b565b815b90505f615f6960028461670a565b90506002840493505b8315615fdd578485028586820414615f88575f5ffd5b81810181811015615f97575f5ffd5b8490049550506001841615615fd2578482028286820414158615151615615fbc575f5ffd5b81810181811015615fcb575f5ffd5b8490049250505b600284049350615f72565b509392505050565b60405163c38a6f0b60e01b81526001600160a01b0386169063c38a6f0b90616017908690889087908790600401616aec565b5f604051808303815f87803b15801561602e575f5ffd5b505af1158015616040573d5f5f3e3d5ffd5b505050505050505050565b634e487b715f52806020526024601cfd5b5f81518084528060208401602086015e5f602082860101526020601f19601f83011685010191505092915050565b602081525f610f17602083018461605c565b5f602082840312156160ac575f5ffd5b5035919050565b6001600160a01b0381168114611439575f5ffd5b5f5f604083850312156160d8575f5ffd5b82356160e3816160b3565b946020939093013593505050565b5f5f5f60608486031215616103575f5ffd5b833561610e816160b3565b9250602084013561611e816160b3565b929592945050506040919091013590565b5f5f5f60608486031215616141575f5ffd5b833592506020840135616153816160b3565b91506040840135616163816160b3565b809150509250925092565b5f6020828403121561617e575f5ffd5b8135610f17816160b3565b5f5f6040838503121561619a575f5ffd5b8235600381106161a8575f5ffd5b915060208301356161b8816160b3565b809150509250929050565b5f5f604083850312156161d4575f5ffd5b8235915060208301356161b8816160b3565b5f5f83601f8401126161f6575f5ffd5b5081356001600160401b0381111561620c575f5ffd5b6020830191508360208260051b8501011115616226575f5ffd5b9250929050565b5f5f6020838503121561623e575f5ffd5b82356001600160401b03811115616253575f5ffd5b61625f858286016161e6565b90969095509350505050565b5f5f6040838503121561627c575f5ffd5b82356161a8816160b3565b602080825282518282018190525f918401906040840190835b818110156162c75783516001600160a01b03168352602093840193909201916001016162a0565b509095945050505050565b634e487b7160e01b5f52604160045260245ffd5b60405160a081016001600160401b0381118282101715616308576163086162d2565b60405290565b60405161010081016001600160401b0381118282101715616308576163086162d2565b604051601f8201601f191681016001600160401b0381118282101715616359576163596162d2565b604052919050565b5f6001600160401b03821115616379576163796162d2565b50601f01601f191660200190565b5f82601f830112616396575f5ffd5b81356163a96163a482616361565b616331565b8181528460208386010111156163bd575f5ffd5b816020850160208301375f918101602001919091529392505050565b5f5f5f606084860312156163eb575f5ffd5b8335925060208401356163fd816160b3565b915060408401356001600160401b03811115616417575f5ffd5b61642386828701616387565b9150509250925092565b600181811c9082168061644157607f821691505b602082108103614d6257634e487b7160e01b5f52602260045260245ffd5b805161646a816160b3565b919050565b5f6020828403121561647f575f5ffd5b8151610f17816160b3565b9182526001600160a01b0316602082015260400190565b8051801515811461646a575f5ffd5b5f602082840312156164c0575f5ffd5b610f17826164a1565b634e487b7160e01b5f52601160045260245ffd5b60ff8181168382160190811115610af457610af46164c9565b5f60208284031215616506575f5ffd5b5051919050565b81810381811115610af457610af46164c9565b634e487b7160e01b5f52602160045260245ffd5b5f6003841061655157634e487b7160e01b5f52602160045260245ffd5b5060f89290921b825260601b6bffffffffffffffffffffffff1916600182015260150190565b634e487b7160e01b5f52603260045260245ffd5b5f82518060208501845e5f920191825250919050565b80820180821115610af457610af46164c9565b6001815b60018411156165ef578085048111156165d3576165d36164c9565b60018416156165e157908102905b60019390931c9280026165b8565b935093915050565b5f8261660557506001610af4565b8161661157505f610af4565b816001811461662757600281146166315761664d565b6001915050610af4565b60ff841115616642576166426164c9565b50506001821b610af4565b5060208310610133831016604e8410600b8410161715616670575081810a610af4565b61667c5f1984846165b4565b805f190482111561668f5761668f6164c9565b029392505050565b5f610f1760ff8416836165f7565b5f600182016166b6576166b66164c9565b5060010190565b6001600160a01b039390931683526020830191909152604082015260600190565b828152604060208201525f61125c604083018461605c565b634e487b7160e01b5f52601260045260245ffd5b5f82616718576167186166f6565b500490565b5f610f1783836165f7565b8082028115828204841417610af457610af46164c9565b634e487b7160e01b5f52603160045260245ffd5b604081016003841061677357634e487b7160e01b5f52602160045260245ffd5b9281526001600160a01b039190911660209091015290565b5f8235609e1983360301811261679f575f5ffd5b9190910192915050565b5f60a082360312156167b9575f5ffd5b6167c16162e6565b82356167cc816160b3565b815260208301356167dc816160b3565b60208201526040838101359082015260608301356001600160401b03811115616803575f5ffd5b61680f36828601616387565b60608301525060808301356001600160401b0381111561682d575f5ffd5b61683936828601616387565b60808301525092915050565b5f5f8335601e1984360301811261685a575f5ffd5b83016020810192503590506001600160401b03811115616878575f5ffd5b803603821315616226575f5ffd5b81835281816020850137505f828201602090810191909152601f909101601f19169091010190565b602080825281018290525f6040600584901b830181019083018583609e1936839003015b8782101561699157868503603f1901845282358181126168f0575f5ffd5b890180356168fd816160b3565b6001600160a01b031686526020810135616916816160b3565b6001600160a01b031660208701526040818101359087015261693b6060820182616845565b60a0606089015261695060a089018284616886565b9150506169606080830183616845565b92508782036080890152616975828483616886565b97505050506020830192506020840193506001820191506168d2565b5092979650505050505050565b5f82601f8301126169ad575f5ffd5b81516169bb6163a482616361565b8181528460208386010111156169cf575f5ffd5b8160208501602083015e5f918101602001919091529392505050565b5f602082840312156169fb575f5ffd5b81516001600160401b03811115616a10575f5ffd5b82016101008185031215616a22575f5ffd5b616a2a61630e565b616a338261645f565b8152616a416020830161645f565b6020820152616a526040830161645f565b6040820152606082810151908201526080808301519082015260a0808301519082015260c08201516001600160401b03811115616a8d575f5ffd5b616a998682850161699e565b60c083015250616aab60e083016164a1565b60e0820152949350505050565b5f60ff831680616aca57616aca6166f6565b8060ff84160691505092915050565b5f82616ae757616ae76166f6565b500690565b8481526001600160a01b03841660208201526080604082018190525f90616b159083018561605c565b8281036060840152616b27818561605c565b97965050505050505056fea264697066735822122084671ec7c639f285f127cbf909420c9f117fab1a4cf4540a5adccd67bf01e9b564736f6c634300081b003360a060405234801561000f575f5ffd5b506040516122bf3803806122bf83398101604081905261002e91610460565b6040820151602083015183918291806001600160a01b03811661006b576040516347bd7c1d60e01b81525f60048201526024015b60405180910390fd5b6040516301ffc9a760e01b815263a237592160e01b60048201526001600160a01b038216906301ffc9a790602401602060405180830381865afa1580156100b4573d5f5f3e3d5ffd5b505050506040513d601f19601f820116820180604052508101906100d8919061053f565b610100576040516347bd7c1d60e01b81526001600160a01b0382166004820152602401610062565b5f80546001600160a01b0319166001600160a01b039283161790558216905061013c5760405163f1634df960e01b815260040160405180910390fd5b6001600160a01b0390811660805260408201511661016d5760405163b53c493160e01b815260040160405180910390fd5b60608101516001600160a01b031661019b576040516001620a810f60e11b0319815260040160405180910390fd5b8051515f036101bd5760405163268c072960e01b815260040160405180910390fd5b5f6101c6610308565b6001600160a01b0316036101ed57604051633a4f9cdb60e21b815260040160405180910390fd5b6040805161010081019091525f815260208101610208610308565b6001600160a01b039081168252606080850151821660208085019190915260808087015160408087019190915260a0808901518588015260c0808a01518489015289518289015260e08a01511515978101979097528751600180549188166001600160a01b03199283161781559489015160028054918916918316919091179055918801516003805491909716921691909117909455918501516004559084015160055590830151600655908201516007906102c490826105e3565b5060e091909101516007909101805460ff19169115159190911790555050600180546001600160a01b0319166001600160a01b0392909216919091179055506106b6565b5f6080516001600160a01b031663117d8ae06040518163ffffffff1660e01b8152600401602060405180830381865afa158015610347573d5f5f3e3d5ffd5b505050506040513d601f19601f8201168201806040525081019061036b919061069d565b905090565b634e487b7160e01b5f52604160045260245ffd5b60405161010081016001600160401b03811182821017156103a7576103a7610370565b60405290565b5f82601f8301126103bc575f5ffd5b81516001600160401b038111156103d5576103d5610370565b604051601f8201601f19908116603f011681016001600160401b038111828210171561040357610403610370565b60405281815283820160200185101561041a575f5ffd5b8160208501602083015e5f918101602001919091529392505050565b80516001600160a01b038116811461044c575f5ffd5b919050565b8051801515811461044c575f5ffd5b5f5f60408385031215610471575f5ffd5b82516001600160401b03811115610486575f5ffd5b83016101008186031215610498575f5ffd5b6104a0610384565b81516001600160401b038111156104b5575f5ffd5b6104c1878285016103ad565b8252506104d060208301610436565b60208201526104e160408301610436565b60408201526104f260608301610436565b60608201526080828101519082015260a0808301519082015260c0808301519082015261052160e08301610451565b60e08201529250610536905060208401610436565b90509250929050565b5f6020828403121561054f575f5ffd5b61055882610451565b9392505050565b600181811c9082168061057357607f821691505b60208210810361059157634e487b7160e01b5f52602260045260245ffd5b50919050565b601f8211156105de57805f5260205f20601f840160051c810160208510156105bc5750805b601f840160051c820191505b818110156105db575f81556001016105c8565b50505b505050565b81516001600160401b038111156105fc576105fc610370565b6106108161060a845461055f565b84610597565b6020601f821160018114610642575f831561062b5750848201515b5f19600385901b1c1916600184901b1784556105db565b5f84815260208120601f198516915b828110156106715787850151825560209485019460019092019101610651565b508482101561068e57868401515f19600387901b60f8161c191681555b50505050600190811b01905550565b5f602082840312156106ad575f5ffd5b61055882610436565b608051611bd56106ea5f395f81816103100152818161046b0152818161079a015281816107f70152610e4b0152611bd55ff3fe608060405234801561000f575f5ffd5b5060043610610187575f3560e01c806379502c55116100d9578063c38a6f0b11610093578063ce5c7f611161006e578063ce5c7f6114610332578063dbd5edc714610345578063ebf311311461034d578063fc0c546a14610355575f5ffd5b8063c38a6f0b146102e3578063c3f909d4146102f6578063c9c667e31461030b575f5ffd5b806379502c55146102895780637aaceb95146102a557806386651203146102ad5780638a8b9976146102c057806392f5e832146102c8578063ad5a356f146102db575f5ffd5b80633194549e1161014457806361d027b31161011f57806361d027b31461023a57806361f5cd8b1461024257806369b3054b14610255578063780469bb14610268575f5ffd5b80633194549e1461021957806337270936146102215780635b0f83f314610232575f5ffd5b806301e1d1141461018b57806306fdde03146101a6578063117d8ae0146101bb57806313c408f8146101db5780632db6d399146101f0578063303dbaf314610203575b5f5ffd5b610193610366565b6040519081526020015b60405180910390f35b6101ae6103d5565b60405161019d9190611566565b6101c3610468565b6040516001600160a01b03909116815260200161019d565b6101ee6101e93660046115c4565b6104e9565b005b6101ee6101fe3660046115c4565b610597565b60085460ff16604051901515815260200161019d565b600554610193565b6001546001600160a01b03166101c3565b6101c3610797565b6101c36107f4565b6101ee61025036600461160c565b610851565b61019361026336600461163a565b61089f565b61027b6102763660046116b9565b6108d1565b60405161019d92919061176d565b610291610d84565b60405161019d9897969594939291906117f6565b6101c3610e48565b6101ee6102bb36600461160c565b610ea5565b6101ee610eec565b6101ee6102d636600461160c565b610f49565b600654610193565b6101ee6102f1366004611856565b610f90565b6102fe6110d6565b60405161019d91906118e1565b6101c37f000000000000000000000000000000000000000000000000000000000000000081565b61027b610340366004611977565b61120a565b600454610193565b6101ee6112ec565b6003546001600160a01b03166101c3565b6003546040516370a0823160e01b81523060048201525f916001600160a01b0316906370a0823190602401602060405180830381865afa1580156103ac573d5f5f3e3d5ffd5b505050506040513d601f19601f820116820180604052508101906103d091906119b6565b905090565b6060600160060180546103e7906119cd565b80601f0160208091040260200160405190810160405280929190818152602001828054610413906119cd565b801561045e5780601f106104355761010080835404028352916020019161045e565b820191905f5260205f20905b81548152906001019060200180831161044157829003601f168201915b5050505050905090565b5f7f00000000000000000000000000000000000000000000000000000000000000006001600160a01b031663117d8ae06040518163ffffffff1660e01b8152600401602060405180830381865afa1580156104c5573d5f5f3e3d5ffd5b505050506040513d601f19601f820116820180604052508101906103d09190611a05565b6104f161133e565b61052157335b604051631564c0e160e11b81526001600160a01b0390911660048201526024015b60405180910390fd5b818161052d82826113c7565b33600354610545906001600160a01b0316828861142e565b600354604080516001600160a01b03928316815260208101899052918316917fd5e872c5ecfb1bb8820b2e6a20e31b883682282da886621541f71e31ec11947e910160405180910390a2505050505050565b306001600160a01b031663372709366040518163ffffffff1660e01b8152600401602060405180830381865afa1580156105d3573d5f5f3e3d5ffd5b505050506040513d601f19601f820116820180604052508101906105f79190611a05565b6105ff61133e565b61071e575f3390505f306001600160a01b031663117d8ae06040518163ffffffff1660e01b8152600401602060405180830381865afa158015610644573d5f5f3e3d5ffd5b505050506040513d601f19601f820116820180604052508101906106689190611a05565b6001600160a01b0316826001600160a01b03161490508061071b5760405163d25dd10160e01b81526001600160a01b0383811660048301525f919085169063d25dd10190602401602060405180830381865afa1580156106ca573d5f5f3e3d5ffd5b505050506040513d601f19601f820116820180604052508101906106ee9190611a20565b90508061071957604051638f7a567d60e01b81526001600160a01b0384166004820152602401610518565b505b50505b828261072a82826113c7565b6003543390610744906001600160a01b031682308a61148d565b600354604080516001600160a01b039283168152602081018a9052918316917fcbaa1442ac205415c9d69643e7b60ec73d1de35dbc807c21ec288c70ddc4207b910160405180910390a250505050505050565b5f7f00000000000000000000000000000000000000000000000000000000000000006001600160a01b0316635b0f83f36040518163ffffffff1660e01b8152600401602060405180830381865afa1580156104c5573d5f5f3e3d5ffd5b5f7f00000000000000000000000000000000000000000000000000000000000000006001600160a01b03166361d027b36040518163ffffffff1660e01b8152600401602060405180830381865afa1580156104c5573d5f5f3e3d5ffd5b61085961133e565b61086357336104f7565b60058190556040518181527ffbe2d5c01ea8ba5596d6c4e6c82c6d4a0a0ee1128689993a4a5ba0169273d69f906020015b60405180910390a150565b5f82826040516020016108b3929190611a3f565b60405160208183030381529060405280519060200120905092915050565b606080306001600160a01b031663117d8ae06040518163ffffffff1660e01b8152600401602060405180830381865afa158015610910573d5f5f3e3d5ffd5b505050506040513d601f19601f820116820180604052508101906109349190611a05565b6001600160a01b0316336001600160a01b03161461097357335b604051631184b31b60e21b81526001600160a01b039091166004820152602401610518565b825167ffffffffffffffff81111561098d5761098d611674565b6040519080825280602002602001820160405280156109b6578160200160208202803683370190505b509150825167ffffffffffffffff8111156109d3576109d3611674565b6040519080825280602002602001820160405280156109fc578160200160208202803683370190505b506003546040516370a0823160e01b81523060048201529192505f916001600160a01b03909116906370a0823190602401602060405180830381865afa158015610a48573d5f5f3e3d5ffd5b505050506040513d601f19601f82011682018060405250810190610a6c91906119b6565b1115610b5d57600154604080516330fe427560e21b81529051610b5d926001600160a01b03169163c3f909d49160048083019260809291908290030181865afa158015610abb573d5f5f3e3d5ffd5b505050506040513d601f19601f82011682018060405250810190610adf9190611a82565b516003546040516370a0823160e01b81523060048201526001600160a01b03909116906370a0823190602401602060405180830381865afa158015610b26573d5f5f3e3d5ffd5b505050506040513d601f19601f82011682018060405250810190610b4a91906119b6565b6003546001600160a01b0316919061142e565b5f5b8351811015610d2b575f848281518110610b7b57610b7b611aee565b60209081029190910101516040516370a0823160e01b81523060048201526001600160a01b03909116906370a0823190602401602060405180830381865afa158015610bc9573d5f5f3e3d5ffd5b505050506040513d601f19601f82011682018060405250810190610bed91906119b6565b90508015610d2257610cb6610c00610468565b868481518110610c1257610c12611aee565b60209081029190910101516040516370a0823160e01b81523060048201526001600160a01b03909116906370a0823190602401602060405180830381865afa158015610c60573d5f5f3e3d5ffd5b505050506040513d601f19601f82011682018060405250810190610c8491906119b6565b878581518110610c9657610c96611aee565b60200260200101516001600160a01b031661142e9092919063ffffffff16565b848281518110610cc857610cc8611aee565b6020026020010151848381518110610ce257610ce2611aee565b60200260200101906001600160a01b031690816001600160a01b03168152505080838381518110610d1557610d15611aee565b6020026020010181815250505b50600101610b5f565b5080604051610d3a9190611b02565b604051809103902082604051610d509190611b37565b604051908190038120907f46b8771620f6acf56cb03d3e835ea8024c7dcbcf05fcc3f6ade9e19d1a3e212b905f90a3915091565b60018054600254600354600454600554600654600780546001600160a01b03978816989688169790951695939492939192610dbe906119cd565b80601f0160208091040260200160405190810160405280929190818152602001828054610dea906119cd565b8015610e355780601f10610e0c57610100808354040283529160200191610e35565b820191905f5260205f20905b815481529060010190602001808311610e1857829003601f168201915b5050506007909301549192505060ff1688565b5f7f00000000000000000000000000000000000000000000000000000000000000006001600160a01b0316637aaceb956040518163ffffffff1660e01b8152600401602060405180830381865afa1580156104c5573d5f5f3e3d5ffd5b610ead61133e565b610eb757336104f7565b60048190556040518181527f333b26cca69716ad4680ddb07663f5bfb4f06045671f336af9a83690a3ae00f990602001610894565b610ef461133e565b610efe57336104f7565b600180546001600160a01b031916339081179091556040519081527f55489ce0259bd691120d8860861be1c401c7c16a3cd268d21045756af4ecc5ca906020015b60405180910390a1565b610f5161133e565b610f5b57336104f7565b60068190556040518181527fb6ac66853c4e59c71e118d25ab494bb847c4e5eb0c8894898c5343e6f61afc1290602001610894565b610f9861133e565b610fa257336104f7565b8181610fae82826113c7565b60035460405163095ea7b360e01b81526001600160a01b038981166004830152602482018b90529091169063095ea7b3906044016020604051808303815f875af1158015610ffe573d5f5f3e3d5ffd5b505050506040513d601f19601f820116820180604052508101906110229190611a20565b50604051632db6d39960e01b81526001600160a01b03881690632db6d39990611053908b908a908a90600401611b6a565b5f604051808303815f87803b15801561106a575f5ffd5b505af115801561107c573d5f5f3e3d5ffd5b5050600354604080516001600160a01b039283168152602081018d9052918b1693503092507f9f784fc02a186f1c98b2d9f15fda084da27cdd291a3785d978f91911d880516b910160405180910390a35050505050505050565b60408051610100810182525f8082526020820181905291810182905260608082018390526080820183905260a0820183905260c082015260e08101919091526040805161010081018252600180546001600160a01b0390811683526002548116602084015260035416928201929092526004546060820152600554608082015260065460a08201526007805491929160c084019190611174906119cd565b80601f01602080910402602001604051908101604052809291908181526020018280546111a0906119cd565b80156111eb5780601f106111c2576101008083540402835291602001916111eb565b820191905f5260205f20905b8154815290600101906020018083116111ce57829003601f168201915b50505091835250506007919091015460ff161515602090910152919050565b606080306001600160a01b031663117d8ae06040518163ffffffff1660e01b8152600401602060405180830381865afa158015611249573d5f5f3e3d5ffd5b505050506040513d601f19601f8201168201806040525081019061126d9190611a05565b6001600160a01b0316336001600160a01b03161461128b573361094e565b505060405160609081906112a0908290611b02565b6040518091039020826040516112b69190611b37565b604051908190038120907f3e3e7958121b3e39c7a49392d1aa9cdce870c2a059744f9e15cf66fff7865455905f90a39250929050565b6112f461133e565b6112fe57336104f7565b600180546001600160a01b03191690556040513381527f7cb941d7b1708e5b3bcd35ca960d6c6311188cec18886e5b67630552676b048790602001610f3f565b5f80546001600160a01b03166391d1485461135a60023061089f565b336040516001600160e01b031960e085901b16815260048101929092526001600160a01b03166024820152604401602060405180830381865afa1580156113a3573d5f5f3e3d5ffd5b505050506040513d601f19601f820116820180604052508101906103d09190611a20565b80158015906113d9575060085460ff16155b156113f757604051630cd0fdf960e01b815260040160405180910390fd5b80158015611407575060085460ff165b156114255760405163332863a960e11b815260040160405180910390fd5b5050565b505050565b6040516001600160a01b0383811660248301526044820183905261142991859182169063a9059cbb906064015b604051602081830303815290604052915060e01b6020820180516001600160e01b0383818316178352505050506114cc565b6040516001600160a01b0384811660248301528381166044830152606482018390526114c69186918216906323b872dd9060840161145b565b50505050565b5f5f60205f8451602086015f885af1806114eb576040513d5f823e3d81fd5b50505f513d9150811561150257806001141561150f565b6001600160a01b0384163b155b156114c657604051635274afe760e01b81526001600160a01b0385166004820152602401610518565b5f81518084528060208401602086015e5f602082860101526020601f19601f83011685010191505092915050565b602081525f6115786020830184611538565b9392505050565b5f5f83601f84011261158f575f5ffd5b50813567ffffffffffffffff8111156115a6575f5ffd5b6020830191508360208285010111156115bd575f5ffd5b9250929050565b5f5f5f604084860312156115d6575f5ffd5b83359250602084013567ffffffffffffffff8111156115f3575f5ffd5b6115ff8682870161157f565b9497909650939450505050565b5f6020828403121561161c575f5ffd5b5035919050565b6001600160a01b0381168114611637575f5ffd5b50565b5f5f6040838503121561164b575f5ffd5b823560038110611659575f5ffd5b9150602083013561166981611623565b809150509250929050565b634e487b7160e01b5f52604160045260245ffd5b604051601f8201601f1916810167ffffffffffffffff811182821017156116b1576116b1611674565b604052919050565b5f602082840312156116c9575f5ffd5b813567ffffffffffffffff8111156116df575f5ffd5b8201601f810184136116ef575f5ffd5b803567ffffffffffffffff81111561170957611709611674565b8060051b61171960208201611688565b91825260208184018101929081019087841115611734575f5ffd5b6020850194505b83851015611762578435925061175083611623565b8282526020948501949091019061173b565b979650505050505050565b604080825283519082018190525f9060208501906060840190835b818110156117af5783516001600160a01b0316835260209384019390920191600101611788565b5050838103602080860191909152855180835291810192508501905f5b818110156117ea5782518452602093840193909201916001016117cc565b50919695505050505050565b6001600160a01b038981168252888116602083015287166040820152606081018690526080810185905260a0810184905261010060c082018190525f9061183f90830185611538565b905082151560e08301529998505050505050505050565b5f5f5f5f5f5f6080878903121561186b575f5ffd5b86359550602087013561187d81611623565b9450604087013567ffffffffffffffff811115611898575f5ffd5b6118a489828a0161157f565b909550935050606087013567ffffffffffffffff8111156118c3575f5ffd5b6118cf89828a0161157f565b979a9699509497509295939492505050565b602080825282516001600160a01b039081168383015290830151166040808301919091528201515f9061191f60608401826001600160a01b03169052565b5060608301516080830152608083015160a083015260a083015160c083015260c083015161010060e0840152611959610120840182611538565b905060e084015161196f61010085018215159052565b509392505050565b5f5f60208385031215611988575f5ffd5b823567ffffffffffffffff81111561199e575f5ffd5b6119aa8582860161157f565b90969095509350505050565b5f602082840312156119c6575f5ffd5b5051919050565b600181811c908216806119e157607f821691505b6020821081036119ff57634e487b7160e01b5f52602260045260245ffd5b50919050565b5f60208284031215611a15575f5ffd5b815161157881611623565b5f60208284031215611a30575f5ffd5b81518015158114611578575f5ffd5b5f60038410611a5c57634e487b7160e01b5f52602160045260245ffd5b5060f89290921b825260601b6bffffffffffffffffffffffff1916600182015260150190565b5f6080828403128015611a93575f5ffd5b506040516080810167ffffffffffffffff81118282101715611ab757611ab7611674565b6040528251611ac581611623565b815260208381015190820152604080840151908201526060928301519281019290925250919050565b634e487b7160e01b5f52603260045260245ffd5b81515f90829060208501835b82811015611b2c578151845260209384019390910190600101611b0e565b509195945050505050565b81515f90829060208501835b82811015611b2c5781516001600160a01b0316845260209384019390910190600101611b43565b83815260406020820152816040820152818360608301375f818301606090810191909152601f909201601f191601019291505056fea26469706673582212209f6079c606119d5e88d7e8160dbb1253e841c646cdf5de3a99780afd7b9c271364736f6c634300081b0033","linkReferences":{}},"methodIdentifiers":{"DEFAULT_MAX_REBALANCE_OPERATIONS()":"168b813a","INITIAL_MINIMUM_PAUSE_TIME()":"a0506f0b","MAX_REBALANCE_OPERATIONS()":"5ed975e5","addArk(address)":"e37d5b7f","addArks(address[])":"cc5b1e55","adjustBuffer((address,address,uint256,bytes,bytes)[])":"cada5143","allowance(address,address)":"dd62ed3e","approve(address,uint256)":"095ea7b3","arks(uint256)":"ff32a42a","asset()":"38d52e0f","balanceOf(address)":"70a08231","bufferArk()":"c8169aa1","config()":"79502c55","configurationManager()":"c9c667e3","convertToAssets(uint256)":"07a2d13a","convertToShares(uint256)":"c6e6f592","decimals()":"313ce567","deposit(uint256,address)":"6e553f65","deposit(uint256,address,bytes)":"faa9bce9","estimateAccruedTip()":"68482626","forceRebalance((address,address,uint256,bytes,bytes)[])":"e7b20e5b","generateRole(uint8,address)":"69b3054b","getArks()":"f1cd665b","getConfig()":"c3f909d4","getCooldown()":"218e4a15","getLastActionTimestamp()":"3152d5d1","harborCommand()":"5b0f83f3","isArkActive(address)":"d25dd101","isArkWithdrawable(address)":"5340c012","lastTipTimestamp()":"71aedbc1","maxBufferRedeem(address)":"9265b76e","maxBufferWithdraw(address)":"3e314c76","maxDeposit(address)":"402d267d","maxMint(address)":"c63d75b6","maxRedeem(address)":"d905777e","maxWithdraw(address)":"ce96cb77","minimumPauseTime()":"680e57ab","mint(uint256,address)":"94bf804d","name()":"06fdde03","pause()":"8456cb59","pauseStartTime()":"94d7eaa4","paused()":"5c975abb","previewDeposit(uint256)":"ef8b30f7","previewMint(uint256)":"b3d7f6b9","previewRedeem(uint256)":"4cdad506","previewWithdraw(uint256)":"0a28a477","raft()":"117d8ae0","rebalance((address,address,uint256,bytes,bytes)[])":"fcf2849f","redeem(uint256,address,address)":"ba087652","redeemFromArks(uint256,address,address)":"3a7c9f0e","redeemFromBuffer(uint256,address,address)":"f3577816","removeArk(address)":"96c25a38","setArkDepositCap(address,uint256)":"34050560","setArkMaxRebalanceInflow(address,uint256)":"d45a07a1","setArkMaxRebalanceOutflow(address,uint256)":"b637766c","setFleetDepositCap(uint256)":"d902d41a","setMaxRebalanceOperations(uint256)":"133ab579","setMinimumBufferBalance(uint256)":"4daecb9c","setMinimumPauseTime(uint256)":"e193858f","setTipRate(uint256)":"5822198f","symbol()":"95d89b41","tip()":"2755cd2d","tipJar()":"7aaceb95","tipRate()":"498e76a0","totalAssets()":"01e1d114","totalSupply()":"18160ddd","transfer(address,uint256)":"a9059cbb","transferFrom(address,address,uint256)":"23b872dd","treasury()":"61d027b3","unpause()":"3f4ba83a","updateRebalanceCooldown(uint256)":"dc9de0a8","withdraw(uint256,address,address)":"b460af94","withdrawFromArks(uint256,address,address)":"a039e944","withdrawFromBuffer(uint256,address,address)":"5f538f6f","withdrawableTotalAssets()":"d570ee47"},"id":155}