{"abi":[{"type":"function","name":"decodeUnoswapData","inputs":[{"name":"data","type":"bytes","internalType":"bytes"}],"outputs":[{"name":"token","type":"address","internalType":"address"},{"name":"amount","type":"uint256","internalType":"uint256"},{"name":"minReturn","type":"uint256","internalType":"uint256"},{"name":"dex","type":"address","internalType":"address"},{"name":"protocol","type":"uint8","internalType":"enum OneInchHelpers.Protocol"},{"name":"shouldUnwrapWeth","type":"bool","internalType":"bool"},{"name":"shouldWrapWeth","type":"bool","internalType":"bool"},{"name":"usePermit2","type":"bool","internalType":"bool"}],"stateMutability":"pure"},{"type":"function","name":"encodeUnoswapData","inputs":[{"name":"token","type":"address","internalType":"address"},{"name":"amount","type":"uint256","internalType":"uint256"},{"name":"minReturn","type":"uint256","internalType":"uint256"},{"name":"dex","type":"address","internalType":"address"},{"name":"protocol","type":"uint8","internalType":"enum OneInchHelpers.Protocol"},{"name":"shouldUnwrapWeth","type":"bool","internalType":"bool"},{"name":"shouldWrapWeth","type":"bool","internalType":"bool"},{"name":"zeroForOne","type":"bool","internalType":"bool"},{"name":"usePermit2","type":"bool","internalType":"bool"}],"outputs":[{"name":"","type":"bytes","internalType":"bytes"}],"stateMutability":"pure"},{"type":"function","name":"testSkip","inputs":[],"outputs":[],"stateMutability":"pure"}],"bytecode":{"object":"0x6080604052348015600e575f80fd5b506107ab8061001c5f395ff3fe608060405234801561000f575f80fd5b506004361061003f575f3560e01c80635c35ceec146100435780637cc17ba4146100735780638986ecf814610075575b5f80fd5b6100566100513660046104cc565b610095565b60405161006a989796959493929190610593565b60405180910390f35b005b610088610083366004610628565b610304565b60405161006a91906106ef565b5f805f805f805f805f60208a015190507f83800a8e1b35cbf2a66472f1d14a68cbd34e4e6f01a3dbac1ea48261d0858c596001600160e01b031916816001600160e01b0319161461011f5760405162461bcd60e51b815260206004820152601060248201526f24b73b30b634b21039b2b632b1ba37b960811b604482015260640160405180910390fd5b60248a015160448b015160648c015160848d0151929b5090995097508060fd81901c60028111156101525761015261057f565b6040805180820190915260068152652a37b5b2b71d60d11b60208201526001600160a01b0384169950909750600160fc1b821615159650600160fb1b8216159550600160fa1b8216151594506101a8908c6103bd565b6101d16040518060400160405280600781526020016620b6b7bab73a1d60c91b8152508b610406565b6101fe6040518060400160405280600b81526020016a26b4b7102932ba3ab9371d60a91b8152508a610406565b610224604051806040016040528060048152602001632222ac1d60e11b815250896103bd565b61026060405180604001604052806009815260200168283937ba37b1b7b61d60b91b81525088600281111561025b5761025b61057f565b610406565b6102956040518060400160405280601381526020017229b437bab632102ab73bb930b8102ba2aa241d60691b8152508761044b565b6102c86040518060400160405280601181526020017029b437bab632102bb930b8102ba2aa241d60791b8152508661044b565b6102f66040518060400160405280600c81526020016b2ab9b2902832b936b4ba191d60a11b8152508561044b565b505050919395975091939597565b60606001600160a01b03871660fd8760028111156103245761032461057f565b901b17851561033457600160fc1b175b8461034057600160fb1b175b821561034d57600160fa1b175b831561035a57600160f71b175b604080516001600160a01b039c909c1660248d015260448c019a909a5260648b0198909852505050506084808701949094525050825180850390920182525060a490920190526020810180516001600160e01b03166341c0054760e11b17905290565b61040282826040516024016103d3929190610708565b60408051601f198184030181529190526020810180516001600160e01b031663319af33360e01b17905261048c565b5050565b610402828260405160240161041c929190610731565b60408051601f198184030181529190526020810180516001600160e01b03166309710a9d60e41b17905261048c565b6104028282604051602401610461929190610752565b60408051601f198184030181529190526020810180516001600160e01b031663c3b5563560e01b1790525b61049581610498565b50565b80516a636f6e736f6c652e6c6f67602083015f808483855afa5050505050565b634e487b7160e01b5f52604160045260245ffd5b5f602082840312156104dc575f80fd5b813567ffffffffffffffff8111156104f2575f80fd5b8201601f81018413610502575f80fd5b803567ffffffffffffffff81111561051c5761051c6104b8565b604051601f8201601f19908116603f0116810167ffffffffffffffff8111828210171561054b5761054b6104b8565b604052818152828201602001861015610562575f80fd5b816020840160208301375f91810160200191909152949350505050565b634e487b7160e01b5f52602160045260245ffd5b6001600160a01b0389811682526020820189905260408201889052861660608201526101008101600386106105d657634e487b7160e01b5f52602160045260245ffd5b608082019590955292151560a084015290151560c0830152151560e090910152949350505050565b80356001600160a01b0381168114610614575f80fd5b919050565b80358015158114610614575f80fd5b5f805f805f805f805f6101208a8c031215610641575f80fd5b61064a8a6105fe565b985060208a0135975060408a0135965061066660608b016105fe565b955060808a013560038110610679575f80fd5b945061068760a08b01610619565b935061069560c08b01610619565b92506106a360e08b01610619565b91506106b26101008b01610619565b90509295985092959850929598565b5f81518084528060208401602086015e5f602082860101526020601f19601f83011685010191505092915050565b602081525f61070160208301846106c1565b9392505050565b604081525f61071a60408301856106c1565b905060018060a01b03831660208301529392505050565b604081525f61074360408301856106c1565b90508260208301529392505050565b604081525f61076460408301856106c1565b90508215156020830152939250505056fea2646970667358221220086d3cc9f42e6f36b23018f8c3caa84e6baa5b4d4b888e362b114e0fea1b0bfc64736f6c634300081a0033","linkReferences":{}},"methodIdentifiers":{"decodeUnoswapData(bytes)":"5c35ceec","encodeUnoswapData(address,uint256,uint256,address,uint8,bool,bool,bool,bool)":"8986ecf8","testSkip()":"7cc17ba4"},"id":244}