{"abi":[{"type":"constructor","inputs":[{"name":"cooldown_","type":"uint256","internalType":"uint256"},{"name":"enforceFromNow","type":"bool","internalType":"bool"}],"stateMutability":"nonpayable"},{"type":"function","name":"doEnforceCooldown","inputs":[],"outputs":[],"stateMutability":"nonpayable"},{"type":"function","name":"getCooldown","inputs":[],"outputs":[{"name":"","type":"uint256","internalType":"uint256"}],"stateMutability":"view"},{"type":"function","name":"getLastActionTimestamp","inputs":[],"outputs":[{"name":"","type":"uint256","internalType":"uint256"}],"stateMutability":"view"},{"type":"function","name":"updateCooldown","inputs":[{"name":"cooldown_","type":"uint256","internalType":"uint256"}],"outputs":[],"stateMutability":"nonpayable"},{"type":"event","name":"CooldownUpdated","inputs":[{"name":"previousCooldown","type":"uint256","indexed":false,"internalType":"uint256"},{"name":"newCooldown","type":"uint256","indexed":false,"internalType":"uint256"}],"anonymous":false},{"type":"error","name":"CooldownNotElapsed","inputs":[{"name":"lastActionTimestamp","type":"uint256","internalType":"uint256"},{"name":"cooldown","type":"uint256","internalType":"uint256"},{"name":"currentTimestamp","type":"uint256","internalType":"uint256"}]}],"bytecode":{"object":"0x6080604052348015600e575f5ffd5b50604051610211380380610211833981016040819052602b916043565b5f82905581818015603b57426001555b505050506073565b5f5f604083850312156053575f5ffd5b82519150602083015180151581146068575f5ffd5b809150509250929050565b610191806100805f395ff3fe608060405234801561000f575f5ffd5b506004361061004a575f3560e01c806319cb4d981461004e578063218e4a15146100585780633152d5d11461006d57806355119df914610075575b5f5ffd5b610056610088565b005b5f545b60405190815260200160405180910390f35b60015461005b565b61005661008336600461011f565b6100d4565b5f546001546100979042610136565b10156100ce576001545f54604051630924dbf160e21b81526004810192909252602482015242604482015260640160405180910390fd5b42600155565b6100dd816100e0565b50565b5f5460408051918252602082018390527f5953b565c074c2cce1866b4e69c9efc4908556bb6fca70f735907c94d9405515910160405180910390a15f55565b5f6020828403121561012f575f5ffd5b5035919050565b8181038181111561015557634e487b7160e01b5f52601160045260245ffd5b9291505056fea2646970667358221220fbcb8fdd8fa93fffda25e3d8e01b3d551a0c0ccd4841a7f2501f1009a2067f2464736f6c634300081b0033","linkReferences":{}},"methodIdentifiers":{"doEnforceCooldown()":"19cb4d98","getCooldown()":"218e4a15","getLastActionTimestamp()":"3152d5d1","updateCooldown(uint256)":"55119df9"},"id":282}