{"abi":[{"type":"constructor","inputs":[{"name":"governor","type":"address","internalType":"address"}],"stateMutability":"nonpayable"},{"type":"function","name":"COMMANDER_ROLE","inputs":[],"outputs":[{"name":"","type":"bytes32","internalType":"bytes32"}],"stateMutability":"view"},{"type":"function","name":"DEFAULT_ADMIN_ROLE","inputs":[],"outputs":[{"name":"","type":"bytes32","internalType":"bytes32"}],"stateMutability":"view"},{"type":"function","name":"GOVERNOR_ROLE","inputs":[],"outputs":[{"name":"","type":"bytes32","internalType":"bytes32"}],"stateMutability":"view"},{"type":"function","name":"KEEPER_ROLE","inputs":[],"outputs":[{"name":"","type":"bytes32","internalType":"bytes32"}],"stateMutability":"view"},{"type":"function","name":"getRoleAdmin","inputs":[{"name":"role","type":"bytes32","internalType":"bytes32"}],"outputs":[{"name":"","type":"bytes32","internalType":"bytes32"}],"stateMutability":"view"},{"type":"function","name":"grantAdminRole","inputs":[{"name":"account","type":"address","internalType":"address"}],"outputs":[],"stateMutability":"nonpayable"},{"type":"function","name":"grantGovernorRole","inputs":[{"name":"account","type":"address","internalType":"address"}],"outputs":[],"stateMutability":"nonpayable"},{"type":"function","name":"grantKeeperRole","inputs":[{"name":"account","type":"address","internalType":"address"}],"outputs":[],"stateMutability":"nonpayable"},{"type":"function","name":"grantRole","inputs":[{"name":"role","type":"bytes32","internalType":"bytes32"},{"name":"account","type":"address","internalType":"address"}],"outputs":[],"stateMutability":"view"},{"type":"function","name":"hasRole","inputs":[{"name":"role","type":"bytes32","internalType":"bytes32"},{"name":"account","type":"address","internalType":"address"}],"outputs":[{"name":"","type":"bool","internalType":"bool"}],"stateMutability":"view"},{"type":"function","name":"renounceRole","inputs":[{"name":"role","type":"bytes32","internalType":"bytes32"},{"name":"callerConfirmation","type":"address","internalType":"address"}],"outputs":[],"stateMutability":"nonpayable"},{"type":"function","name":"revokeAdminRole","inputs":[{"name":"account","type":"address","internalType":"address"}],"outputs":[],"stateMutability":"nonpayable"},{"type":"function","name":"revokeGovernorRole","inputs":[{"name":"account","type":"address","internalType":"address"}],"outputs":[],"stateMutability":"nonpayable"},{"type":"function","name":"revokeKeeperRole","inputs":[{"name":"account","type":"address","internalType":"address"}],"outputs":[],"stateMutability":"nonpayable"},{"type":"function","name":"revokeRole","inputs":[{"name":"role","type":"bytes32","internalType":"bytes32"},{"name":"account","type":"address","internalType":"address"}],"outputs":[],"stateMutability":"view"},{"type":"function","name":"supportsInterface","inputs":[{"name":"interfaceId","type":"bytes4","internalType":"bytes4"}],"outputs":[{"name":"","type":"bool","internalType":"bool"}],"stateMutability":"view"},{"type":"event","name":"RoleAdminChanged","inputs":[{"name":"role","type":"bytes32","indexed":true,"internalType":"bytes32"},{"name":"previousAdminRole","type":"bytes32","indexed":true,"internalType":"bytes32"},{"name":"newAdminRole","type":"bytes32","indexed":true,"internalType":"bytes32"}],"anonymous":false},{"type":"event","name":"RoleGranted","inputs":[{"name":"role","type":"bytes32","indexed":true,"internalType":"bytes32"},{"name":"account","type":"address","indexed":true,"internalType":"address"},{"name":"sender","type":"address","indexed":true,"internalType":"address"}],"anonymous":false},{"type":"event","name":"RoleRevoked","inputs":[{"name":"role","type":"bytes32","indexed":true,"internalType":"bytes32"},{"name":"account","type":"address","indexed":true,"internalType":"address"},{"name":"sender","type":"address","indexed":true,"internalType":"address"}],"anonymous":false},{"type":"error","name":"AccessControlBadConfirmation","inputs":[]},{"type":"error","name":"AccessControlUnauthorizedAccount","inputs":[{"name":"account","type":"address","internalType":"address"},{"name":"neededRole","type":"bytes32","internalType":"bytes32"}]},{"type":"error","name":"CallerIsNotAdmin","inputs":[{"name":"caller","type":"address","internalType":"address"}]},{"type":"error","name":"CallerIsNotGovernor","inputs":[{"name":"caller","type":"address","internalType":"address"}]},{"type":"error","name":"DirectGrantIsDisabled","inputs":[{"name":"caller","type":"address","internalType":"address"}]},{"type":"error","name":"DirectRevokeIsDisabled","inputs":[{"name":"caller","type":"address","internalType":"address"}]}],"bytecode":{"object":"0x608060405234801561000f575f80fd5b5060405161086138038061086183398101604081905261002e91610113565b6100385f8261006a565b506100637f7935bd0ae54bc31f548c14dba4d37c5c64b3f8ca900cb468fb8abd54d5894f558261006a565b5050610140565b5f828152602081815260408083206001600160a01b038516845290915281205460ff1661010a575f838152602081815260408083206001600160a01b03861684529091529020805460ff191660011790556100c23390565b6001600160a01b0316826001600160a01b0316847f2f8788117e7eff1d82e926ec794901d17c78024a50270940304540a733656f0d60405160405180910390a450600161010d565b505f5b92915050565b5f60208284031215610123575f80fd5b81516001600160a01b0381168114610139575f80fd5b9392505050565b6107148061014d5f395ff3fe608060405234801561000f575f80fd5b50600436106100fb575f3560e01c80639a19c7b011610093578063ccc5749011610063578063ccc5749014610233578063d547741f14610247578063e4dd1dca1461025a578063fb914c391461026d575f80fd5b80639a19c7b0146101f3578063a217fddf14610206578063c634b78e1461020d578063cc1f071a14610220575f80fd5b806336568abe116100ce57806336568abe146101935780634106d274146101a657806345b817bb146101b957806391d14854146101e0575f80fd5b806301ffc9a7146100ff578063248a9ca3146101275780632f2ff15d14610157578063364bc15a1461016c575b5f80fd5b61011261010d36600461061b565b610280565b60405190151581526020015b60405180910390f35b610149610135366004610649565b5f9081526020819052604090206001015490565b60405190815260200161011e565b61016a61016536600461067b565b6102aa565b005b6101497ffc8737ab85eb45125971625a9ebdb75cc78e01d5c1fa80c4c6e5203f47bc4fab81565b61016a6101a136600461067b565b6102ca565b61016a6101b43660046106a5565b610302565b6101497f4d30e780ddaa8d94b73282aef7f15ebc8bd13895bbcc2ae410396cabb542d27c81565b6101126101ee36600461067b565b610366565b61016a6102013660046106a5565b61038e565b6101495f81565b61016a61021b3660046106a5565b6103c1565b61016a61022e3660046106a5565b6103f4565b6101495f805160206106bf83398151915281565b61016a61025536600461067b565b610454565b61016a6102683660046106a5565b61046f565b61016a61027b3660046106a5565b6104af565b5f6001600160e01b0319821663ce78f4a360e01b14806102a457506102a4826104ef565b92915050565b604051630e15200f60e21b81523360048201526024015b60405180910390fd5b6001600160a01b03811633146102f35760405163334bd91960e11b815260040160405180910390fd5b6102fd8282610523565b505050565b6103195f805160206106bf83398151915233610366565b61033857604051630ea7d7ed60e21b81523360048201526024016102c1565b6103627ffc8737ab85eb45125971625a9ebdb75cc78e01d5c1fa80c4c6e5203f47bc4fab82610593565b5050565b5f918252602082815260408084206001600160a01b0393909316845291905290205460ff1690565b6103985f33610366565b6103b7576040516376660ab760e11b81523360048201526024016102c1565b6103625f82610523565b6103cb5f33610366565b6103ea576040516376660ab760e11b81523360048201526024016102c1565b6103625f82610593565b61040b5f805160206106bf83398151915233610366565b61042a57604051630ea7d7ed60e21b81523360048201526024016102c1565b6103627ffc8737ab85eb45125971625a9ebdb75cc78e01d5c1fa80c4c6e5203f47bc4fab82610523565b604051636344978560e11b81523360048201526024016102c1565b6104795f33610366565b610498576040516376660ab760e11b81523360048201526024016102c1565b6103625f805160206106bf83398151915282610593565b6104b95f33610366565b6104d8576040516376660ab760e11b81523360048201526024016102c1565b6103625f805160206106bf83398151915282610523565b5f6001600160e01b03198216637965db0b60e01b14806102a457506301ffc9a760e01b6001600160e01b03198316146102a4565b5f61052e8383610366565b1561058c575f838152602081815260408083206001600160a01b0386168085529252808320805460ff1916905551339286917ff6391f5c32d9c69d2a47ea670b442974b53935d1edc7fd64eb21e047a839171b9190a45060016102a4565b505f6102a4565b5f61059e8383610366565b61058c575f838152602081815260408083206001600160a01b03861684529091529020805460ff191660011790556105d33390565b6001600160a01b0316826001600160a01b0316847f2f8788117e7eff1d82e926ec794901d17c78024a50270940304540a733656f0d60405160405180910390a45060016102a4565b5f6020828403121561062b575f80fd5b81356001600160e01b031981168114610642575f80fd5b9392505050565b5f60208284031215610659575f80fd5b5035919050565b80356001600160a01b0381168114610676575f80fd5b919050565b5f806040838503121561068c575f80fd5b8235915061069c60208401610660565b90509250929050565b5f602082840312156106b5575f80fd5b6106428261066056fe7935bd0ae54bc31f548c14dba4d37c5c64b3f8ca900cb468fb8abd54d5894f55a2646970667358221220db4432c5daf25eba430b700843ea713422d75aacef15fda6502b638c7fde55bc64736f6c634300081a0033","linkReferences":{}},"methodIdentifiers":{"COMMANDER_ROLE()":"45b817bb","DEFAULT_ADMIN_ROLE()":"a217fddf","GOVERNOR_ROLE()":"ccc57490","KEEPER_ROLE()":"364bc15a","getRoleAdmin(bytes32)":"248a9ca3","grantAdminRole(address)":"c634b78e","grantGovernorRole(address)":"e4dd1dca","grantKeeperRole(address)":"4106d274","grantRole(bytes32,address)":"2f2ff15d","hasRole(bytes32,address)":"91d14854","renounceRole(bytes32,address)":"36568abe","revokeAdminRole(address)":"9a19c7b0","revokeGovernorRole(address)":"fb914c39","revokeKeeperRole(address)":"cc1f071a","revokeRole(bytes32,address)":"d547741f","supportsInterface(bytes4)":"01ffc9a7"},"id":63}