{"abi":[{"type":"function","name":"ARKS_ADDRESS_ARRAY_STORAGE","inputs":[],"outputs":[{"name":"","type":"bytes32","internalType":"bytes32"}],"stateMutability":"view"},{"type":"function","name":"ARKS_LENGTH_STORAGE","inputs":[],"outputs":[{"name":"","type":"bytes32","internalType":"bytes32"}],"stateMutability":"view"},{"type":"function","name":"ARKS_TOTAL_ASSETS_ARRAY_STORAGE","inputs":[],"outputs":[{"name":"","type":"bytes32","internalType":"bytes32"}],"stateMutability":"view"},{"type":"function","name":"IS_TOTAL_ASSETS_CACHED_STORAGE","inputs":[],"outputs":[{"name":"","type":"bytes32","internalType":"bytes32"}],"stateMutability":"view"},{"type":"function","name":"IS_WITHDRAWABLE_ARKS_TOTAL_ASSETS_CACHED_STORAGE","inputs":[],"outputs":[{"name":"","type":"bytes32","internalType":"bytes32"}],"stateMutability":"view"},{"type":"function","name":"TOTAL_ASSETS_STORAGE","inputs":[],"outputs":[{"name":"","type":"bytes32","internalType":"bytes32"}],"stateMutability":"view"},{"type":"function","name":"WITHDRAWABLE_ARKS_ADDRESS_ARRAY_STORAGE","inputs":[],"outputs":[{"name":"","type":"bytes32","internalType":"bytes32"}],"stateMutability":"view"},{"type":"function","name":"WITHDRAWABLE_ARKS_LENGTH_STORAGE","inputs":[],"outputs":[{"name":"","type":"bytes32","internalType":"bytes32"}],"stateMutability":"view"},{"type":"function","name":"WITHDRAWABLE_ARKS_TOTAL_ASSETS_ARRAY_STORAGE","inputs":[],"outputs":[{"name":"","type":"bytes32","internalType":"bytes32"}],"stateMutability":"view"},{"type":"function","name":"WITHDRAWABLE_ARKS_TOTAL_ASSETS_STORAGE","inputs":[],"outputs":[{"name":"","type":"bytes32","internalType":"bytes32"}],"stateMutability":"view"}],"bytecode":{"object":"0x61035b610034600b8282823980515f1a607314602857634e487b7160e01b5f525f60045260245ffd5b305f52607381538281f3fe73000000000000000000000000000000000000000030146080604052600436106100a6575f3560e01c80638241d7da1161006e5780638241d7da146100e4578063af1a8084146100ec578063b138261a146100f4578063bf2eef15146100fc578063fa470eef14610104575f5ffd5b806307c4e731146100aa578063188f64a6146100c45780631f6687e1146100cc5780636865110f146100d4578063693d7d60146100dc575b5f5ffd5b6100b261010c565b60405190815260200160405180910390f35b6100b2610166565b6100b2610194565b6100b26101c2565b6100b26101f0565b6100b261021e565b6100b261024c565b6100b261027a565b6100b26102a8565b6100b26102d6565b60ff1961013a60017f3d5fcbe10cf86b117683d0d4967b64a0c0fa4bdda7d07499d3c9dc5e388b6941610300565b60405160200161014c91815260200190565b604051602081830303815290604052805190602001201681565b60ff1961013a60017f5720a3c83eb8242bbe1a4159c3b45ed663cd9e207a02bdea64844c6c583da9de610300565b60ff1961013a60017fa44c7cc604645fc9d906e0a5aeb821ecf76e473a1a4d03393ebd52161430e41b610300565b60ff1961013a60017fa9898051640582db44f19359a5df62a03dbff55353a9f388ea332d75dfa80fa1610300565b60ff1961013a60017fb4b00da68d43fac77a22bb187c63cb88989e294cfebeb79b3789ae1629639d99610300565b60ff1961013a60017f05abb041f8dc8945baa4f2792e2109e9d9e22dea3aa665ccf2f030209c7415ae610300565b60ff1961013a60017f410d83ac3c7a0c2a0669e43e3a5ca6694ee49455f748efa9954a95c3752e9fc9610300565b60ff1961013a60017f8f2b8f2fcb6f2e256bfd8c09fcca564574482705250cb5c8dbe56c4f4fce37c9610300565b60ff1961013a60017f98932279f8646d348f86cf154406d1fab3c6a0c52686d604c7d4a6a140038109610300565b60ff1961013a60017f2e756c3932ba771b80f1bae53d1177d9f7a4ced0ce66d74053b09f874cec6fff5b8181038181111561031f57634e487b7160e01b5f52601160045260245ffd5b9291505056fea26469706673582212202cd357259d03aec7bf7936ca88c39eb0cdf9b6b9b2eae1cc34858844f6c3362c64736f6c634300081b0033","linkReferences":{}},"methodIdentifiers":{"ARKS_ADDRESS_ARRAY_STORAGE()":"693d7d60","ARKS_LENGTH_STORAGE()":"fa470eef","ARKS_TOTAL_ASSETS_ARRAY_STORAGE()":"188f64a6","IS_TOTAL_ASSETS_CACHED_STORAGE()":"1f6687e1","IS_WITHDRAWABLE_ARKS_TOTAL_ASSETS_CACHED_STORAGE()":"bf2eef15","TOTAL_ASSETS_STORAGE()":"6865110f","WITHDRAWABLE_ARKS_ADDRESS_ARRAY_STORAGE()":"8241d7da","WITHDRAWABLE_ARKS_LENGTH_STORAGE()":"af1a8084","WITHDRAWABLE_ARKS_TOTAL_ASSETS_ARRAY_STORAGE()":"b138261a","WITHDRAWABLE_ARKS_TOTAL_ASSETS_STORAGE()":"07c4e731"},"id":176}