{"abi":[{"type":"constructor","inputs":[{"name":"_aaveV3Pool","type":"address","internalType":"address"},{"name":"_rewardsController","type":"address","internalType":"address"},{"name":"_params","type":"tuple","internalType":"struct ArkParams","components":[{"name":"name","type":"string","internalType":"string"},{"name":"accessManager","type":"address","internalType":"address"},{"name":"configurationManager","type":"address","internalType":"address"},{"name":"token","type":"address","internalType":"address"},{"name":"depositCap","type":"uint256","internalType":"uint256"},{"name":"maxRebalanceOutflow","type":"uint256","internalType":"uint256"},{"name":"maxRebalanceInflow","type":"uint256","internalType":"uint256"}]}],"stateMutability":"nonpayable"},{"type":"function","name":"DEFAULT_ADMIN_ROLE","inputs":[],"outputs":[{"name":"","type":"bytes32","internalType":"bytes32"}],"stateMutability":"view"},{"type":"function","name":"MAX_UINT256","inputs":[],"outputs":[{"name":"","type":"uint256","internalType":"uint256"}],"stateMutability":"view"},{"type":"function","name":"RAY","inputs":[],"outputs":[{"name":"","type":"uint256","internalType":"uint256"}],"stateMutability":"view"},{"type":"function","name":"SECONDS_PER_DAY","inputs":[],"outputs":[{"name":"","type":"uint256","internalType":"uint256"}],"stateMutability":"view"},{"type":"function","name":"SECONDS_PER_YEAR","inputs":[],"outputs":[{"name":"","type":"uint256","internalType":"uint256"}],"stateMutability":"view"},{"type":"function","name":"WAD","inputs":[],"outputs":[{"name":"","type":"uint256","internalType":"uint256"}],"stateMutability":"view"},{"type":"function","name":"WAD_TO_RAY","inputs":[],"outputs":[{"name":"","type":"uint256","internalType":"uint256"}],"stateMutability":"view"},{"type":"function","name":"aToken","inputs":[],"outputs":[{"name":"","type":"address","internalType":"address"}],"stateMutability":"view"},{"type":"function","name":"aaveV3DataProvider","inputs":[],"outputs":[{"name":"","type":"address","internalType":"contract IPoolDataProvider"}],"stateMutability":"view"},{"type":"function","name":"aaveV3Pool","inputs":[],"outputs":[{"name":"","type":"address","internalType":"contract IPoolV3"}],"stateMutability":"view"},{"type":"function","name":"board","inputs":[{"name":"amount","type":"uint256","internalType":"uint256"}],"outputs":[],"stateMutability":"nonpayable"},{"type":"function","name":"commander","inputs":[],"outputs":[{"name":"","type":"address","internalType":"address"}],"stateMutability":"view"},{"type":"function","name":"config","inputs":[],"outputs":[{"name":"commander","type":"address","internalType":"address"},{"name":"raft","type":"address","internalType":"address"},{"name":"token","type":"address","internalType":"contract IERC20"},{"name":"depositCap","type":"uint256","internalType":"uint256"},{"name":"maxRebalanceOutflow","type":"uint256","internalType":"uint256"},{"name":"maxRebalanceInflow","type":"uint256","internalType":"uint256"},{"name":"name","type":"string","internalType":"string"}],"stateMutability":"view"},{"type":"function","name":"depositCap","inputs":[],"outputs":[{"name":"","type":"uint256","internalType":"uint256"}],"stateMutability":"view"},{"type":"function","name":"disembark","inputs":[{"name":"amount","type":"uint256","internalType":"uint256"}],"outputs":[],"stateMutability":"nonpayable"},{"type":"function","name":"getRoleAdmin","inputs":[{"name":"role","type":"bytes32","internalType":"bytes32"}],"outputs":[{"name":"","type":"bytes32","internalType":"bytes32"}],"stateMutability":"view"},{"type":"function","name":"grantCommanderRole","inputs":[{"name":"account","type":"address","internalType":"address"}],"outputs":[],"stateMutability":"nonpayable"},{"type":"function","name":"grantRole","inputs":[{"name":"","type":"bytes32","internalType":"bytes32"},{"name":"","type":"address","internalType":"address"}],"outputs":[],"stateMutability":"view"},{"type":"function","name":"harvest","inputs":[{"name":"rewardToken","type":"address","internalType":"address"},{"name":"additionalData","type":"bytes","internalType":"bytes"}],"outputs":[{"name":"","type":"uint256","internalType":"uint256"}],"stateMutability":"nonpayable"},{"type":"function","name":"hasRole","inputs":[{"name":"role","type":"bytes32","internalType":"bytes32"},{"name":"account","type":"address","internalType":"address"}],"outputs":[{"name":"","type":"bool","internalType":"bool"}],"stateMutability":"view"},{"type":"function","name":"manager","inputs":[],"outputs":[{"name":"","type":"address","internalType":"contract IConfigurationManager"}],"stateMutability":"view"},{"type":"function","name":"maxRebalanceInflow","inputs":[],"outputs":[{"name":"","type":"uint256","internalType":"uint256"}],"stateMutability":"view"},{"type":"function","name":"maxRebalanceOutflow","inputs":[],"outputs":[{"name":"","type":"uint256","internalType":"uint256"}],"stateMutability":"view"},{"type":"function","name":"move","inputs":[{"name":"amount","type":"uint256","internalType":"uint256"},{"name":"receiverArk","type":"address","internalType":"address"}],"outputs":[],"stateMutability":"nonpayable"},{"type":"function","name":"name","inputs":[],"outputs":[{"name":"","type":"string","internalType":"string"}],"stateMutability":"view"},{"type":"function","name":"poke","inputs":[],"outputs":[],"stateMutability":"nonpayable"},{"type":"function","name":"raft","inputs":[],"outputs":[{"name":"","type":"address","internalType":"address"}],"stateMutability":"view"},{"type":"function","name":"rate","inputs":[],"outputs":[{"name":"","type":"uint256","internalType":"uint256"}],"stateMutability":"view"},{"type":"function","name":"renounceRole","inputs":[{"name":"role","type":"bytes32","internalType":"bytes32"},{"name":"callerConfirmation","type":"address","internalType":"address"}],"outputs":[],"stateMutability":"nonpayable"},{"type":"function","name":"revokeCommanderRole","inputs":[{"name":"account","type":"address","internalType":"address"}],"outputs":[],"stateMutability":"nonpayable"},{"type":"function","name":"revokeRole","inputs":[{"name":"","type":"bytes32","internalType":"bytes32"},{"name":"","type":"address","internalType":"address"}],"outputs":[],"stateMutability":"view"},{"type":"function","name":"rewardsController","inputs":[],"outputs":[{"name":"","type":"address","internalType":"contract IRewardsController"}],"stateMutability":"view"},{"type":"function","name":"setDepositCap","inputs":[{"name":"newDepositCap","type":"uint256","internalType":"uint256"}],"outputs":[],"stateMutability":"nonpayable"},{"type":"function","name":"setMaxRebalanceInflow","inputs":[{"name":"newMaxRebalanceInflow","type":"uint256","internalType":"uint256"}],"outputs":[],"stateMutability":"nonpayable"},{"type":"function","name":"setMaxRebalanceOutflow","inputs":[{"name":"newMaxRebalanceOutflow","type":"uint256","internalType":"uint256"}],"outputs":[],"stateMutability":"nonpayable"},{"type":"function","name":"supportsInterface","inputs":[{"name":"interfaceId","type":"bytes4","internalType":"bytes4"}],"outputs":[{"name":"","type":"bool","internalType":"bool"}],"stateMutability":"view"},{"type":"function","name":"token","inputs":[],"outputs":[{"name":"","type":"address","internalType":"contract IERC20"}],"stateMutability":"view"},{"type":"function","name":"totalAssets","inputs":[],"outputs":[{"name":"","type":"uint256","internalType":"uint256"}],"stateMutability":"view"},{"type":"event","name":"ArkPoked","inputs":[{"name":"currentPrice","type":"uint256","indexed":false,"internalType":"uint256"},{"name":"timestamp","type":"uint256","indexed":false,"internalType":"uint256"}],"anonymous":false},{"type":"event","name":"ArkPokedNoChange","inputs":[],"anonymous":false},{"type":"event","name":"ArkPokedTooSoon","inputs":[],"anonymous":false},{"type":"event","name":"Boarded","inputs":[{"name":"commander","type":"address","indexed":true,"internalType":"address"},{"name":"token","type":"address","indexed":false,"internalType":"address"},{"name":"amount","type":"uint256","indexed":false,"internalType":"uint256"}],"anonymous":false},{"type":"event","name":"DepositCapUpdated","inputs":[{"name":"newCap","type":"uint256","indexed":false,"internalType":"uint256"}],"anonymous":false},{"type":"event","name":"Disembarked","inputs":[{"name":"commander","type":"address","indexed":true,"internalType":"address"},{"name":"token","type":"address","indexed":false,"internalType":"address"},{"name":"amount","type":"uint256","indexed":false,"internalType":"uint256"}],"anonymous":false},{"type":"event","name":"Harvested","inputs":[{"name":"amount","type":"uint256","indexed":false,"internalType":"uint256"}],"anonymous":false},{"type":"event","name":"MaxRebalanceInflowUpdated","inputs":[{"name":"newMaxInflow","type":"uint256","indexed":false,"internalType":"uint256"}],"anonymous":false},{"type":"event","name":"MaxRebalanceOutflowUpdated","inputs":[{"name":"newMaxOutflow","type":"uint256","indexed":false,"internalType":"uint256"}],"anonymous":false},{"type":"event","name":"Moved","inputs":[{"name":"from","type":"address","indexed":true,"internalType":"address"},{"name":"to","type":"address","indexed":true,"internalType":"address"},{"name":"token","type":"address","indexed":false,"internalType":"address"},{"name":"amount","type":"uint256","indexed":false,"internalType":"uint256"}],"anonymous":false},{"type":"event","name":"RaftUpdated","inputs":[{"name":"newRaft","type":"address","indexed":false,"internalType":"address"}],"anonymous":false},{"type":"event","name":"RoleAdminChanged","inputs":[{"name":"role","type":"bytes32","indexed":true,"internalType":"bytes32"},{"name":"previousAdminRole","type":"bytes32","indexed":true,"internalType":"bytes32"},{"name":"newAdminRole","type":"bytes32","indexed":true,"internalType":"bytes32"}],"anonymous":false},{"type":"event","name":"RoleGranted","inputs":[{"name":"role","type":"bytes32","indexed":true,"internalType":"bytes32"},{"name":"account","type":"address","indexed":true,"internalType":"address"},{"name":"sender","type":"address","indexed":true,"internalType":"address"}],"anonymous":false},{"type":"event","name":"RoleRevoked","inputs":[{"name":"role","type":"bytes32","indexed":true,"internalType":"bytes32"},{"name":"account","type":"address","indexed":true,"internalType":"address"},{"name":"sender","type":"address","indexed":true,"internalType":"address"}],"anonymous":false},{"type":"error","name":"AccessControlBadConfirmation","inputs":[]},{"type":"error","name":"AccessControlUnauthorizedAccount","inputs":[{"name":"account","type":"address","internalType":"address"},{"name":"neededRole","type":"bytes32","internalType":"bytes32"}]},{"type":"error","name":"AddressEmptyCode","inputs":[{"name":"target","type":"address","internalType":"address"}]},{"type":"error","name":"AddressInsufficientBalance","inputs":[{"name":"account","type":"address","internalType":"address"}]},{"type":"error","name":"CallerIsNotAuthorizedToBoard","inputs":[{"name":"caller","type":"address","internalType":"address"}]},{"type":"error","name":"CallerIsNotCommander","inputs":[{"name":"caller","type":"address","internalType":"address"}]},{"type":"error","name":"CallerIsNotGovernor","inputs":[{"name":"caller","type":"address","internalType":"address"}]},{"type":"error","name":"CannotAddCommanderToArkWithCommander","inputs":[]},{"type":"error","name":"CannotDeployArkWithEmptyName","inputs":[]},{"type":"error","name":"CannotDeployArkWithoutConfigurationManager","inputs":[]},{"type":"error","name":"CannotDeployArkWithoutRaft","inputs":[]},{"type":"error","name":"CannotDeployArkWithoutToken","inputs":[]},{"type":"error","name":"CannotRemoveCommanderFromArkWithAssets","inputs":[]},{"type":"error","name":"DirectGrantIsDisabled","inputs":[{"name":"caller","type":"address","internalType":"address"}]},{"type":"error","name":"DirectRevokeIsDisabled","inputs":[{"name":"caller","type":"address","internalType":"address"}]},{"type":"error","name":"FailedInnerCall","inputs":[]},{"type":"error","name":"InvalidAccessManagerAddress","inputs":[{"name":"invalidAddress","type":"address","internalType":"address"}]},{"type":"error","name":"SafeERC20FailedOperation","inputs":[{"name":"token","type":"address","internalType":"address"}]}],"bytecode":{"object":"0x608060405234801561000f575f80fd5b5060405161252138038061252183398101604081905261002e9161062c565b60208101518190806001600160a01b038116610064576040516347bd7c1d60e01b81525f60048201526024015b60405180910390fd5b6040516301ffc9a760e01b815263f87138b560e01b60048201526001600160a01b038216906301ffc9a790602401602060405180830381865afa1580156100ad573d5f803e3d5ffd5b505050506040513d601f19601f820116820180604052508101906100d19190610712565b6100f9576040516347bd7c1d60e01b81526001600160a01b038216600482015260240161005b565b5f80546001600160a01b0319166001600160a01b0392831617905560408301511690506101395760405163b53c493160e01b815260040160405180910390fd5b60608101516001600160a01b0316610167576040516001620a810f60e11b0319815260040160405180910390fd5b8051515f036101895760405163268c072960e01b815260040160405180910390fd5b604081810151600980546001600160a01b0319166001600160a01b0390921691821790558151628bec5760e51b815291515f9263117d8ae0916004808301926020929190829003018187875af11580156101e5573d5f803e3d5ffd5b505050506040513d601f19601f820116820180604052508101906102099190610738565b6001600160a01b03160361023057604051633a4f9cdb60e21b815260040160405180910390fd5b6040518060e001604052805f6001600160a01b0316815260200160095f9054906101000a90046001600160a01b03166001600160a01b031663117d8ae06040518163ffffffff1660e01b81526004016020604051808303815f875af115801561029b573d5f803e3d5ffd5b505050506040513d601f19601f820116820180604052508101906102bf9190610738565b6001600160a01b039081168252606080850151821660208085019190915260808087015160408087019190915260a0808901518588015260c0808a0151848901528951978201979097528751600280549188166001600160a01b031992831617815594890151600380549189169183169190911790559188015160048054919097169216919091179094559185015160055590840151600655908301516007559082015160089061037090826107d7565b5050600b80546001600160a01b0319166001600160a01b03871690811790915560408051630150a5d760e21b815290515f9450919250630542975c9160048083019260209291908290030181865afa1580156103ce573d5f803e3d5ffd5b505050506040513d601f19601f820116820180604052508101906103f29190610738565b9050806001600160a01b031663e860accb6040518163ffffffff1660e01b8152600401602060405180830381865afa158015610430573d5f803e3d5ffd5b505050506040513d601f19601f820116820180604052508101906104549190610738565b600c80546001600160a01b0319166001600160a01b03928316179055600b54600480546040516335ea6a7560e01b8152908416918101919091525f9291909116906335ea6a75906024016101e060405180830381865afa1580156104ba573d5f803e3d5ffd5b505050506040513d601f19601f820116820180604052508101906104de919061090b565b6101000151600a80546001600160a01b039283166001600160a01b031991821617909155600d80549690921695169490941790935550610a3592505050565b6001600160a01b0381168114610531575f80fd5b50565b805161053f8161051d565b919050565b634e487b7160e01b5f52604160045260245ffd5b60405160e081016001600160401b038111828210171561057a5761057a610544565b60405290565b6040516101e081016001600160401b038111828210171561057a5761057a610544565b5f82601f8301126105b2575f80fd5b81516001600160401b038111156105cb576105cb610544565b604051601f8201601f19908116603f011681016001600160401b03811182821017156105f9576105f9610544565b604052818152838201602001851015610610575f80fd5b8160208501602083015e5f918101602001919091529392505050565b5f805f6060848603121561063e575f80fd5b83516106498161051d565b602085015190935061065a8161051d565b60408501519092506001600160401b03811115610675575f80fd5b840160e08187031215610686575f80fd5b61068e610558565b81516001600160401b038111156106a3575f80fd5b6106af888285016105a3565b8252506106be60208301610534565b60208201526106cf60408301610534565b60408201526106e060608301610534565b60608201526080828101519082015260a0808301519082015260c0918201519181019190915292959194509192509050565b5f60208284031215610722575f80fd5b81518015158114610731575f80fd5b9392505050565b5f60208284031215610748575f80fd5b81516107318161051d565b600181811c9082168061076757607f821691505b60208210810361078557634e487b7160e01b5f52602260045260245ffd5b50919050565b601f8211156107d257805f5260205f20601f840160051c810160208510156107b05750805b601f840160051c820191505b818110156107cf575f81556001016107bc565b50505b505050565b81516001600160401b038111156107f0576107f0610544565b610804816107fe8454610753565b8461078b565b6020601f821160018114610836575f831561081f5750848201515b5f19600385901b1c1916600184901b1784556107cf565b5f84815260208120601f198516915b828110156108655787850151825560209485019460019092019101610845565b508482101561088257868401515f19600387901b60f8161c191681555b50505050600190811b01905550565b5f602082840312156108a1575f80fd5b604051602081016001600160401b03811182821017156108c3576108c3610544565b6040529151825250919050565b80516001600160801b038116811461053f575f80fd5b805164ffffffffff8116811461053f575f80fd5b805161ffff8116811461053f575f80fd5b5f6101e082840312801561091d575f80fd5b50610926610580565b6109308484610891565b815261093e602084016108d0565b602082015261094f604084016108d0565b6040820152610960606084016108d0565b6060820152610971608084016108d0565b608082015261098260a084016108d0565b60a082015261099360c084016108e6565b60c08201526109a460e084016108fa565b60e08201526109b66101008401610534565b6101008201526109c96101208401610534565b6101208201526109dc6101408401610534565b6101408201526109ef6101608401610534565b610160820152610a0261018084016108d0565b610180820152610a156101a084016108d0565b6101a0820152610a286101c084016108d0565b6101c08201529392505050565b611adf80610a425f395ff3fe608060405234801561000f575f80fd5b5060043610610229575f3560e01c80636bb65f531161012a5780639403e41f116100b4578063d547741f11610079578063d547741f14610482578063d8a8e03a14610495578063dbd5edc7146104a8578063e6a69ab8146104b0578063fc0c546a146104bb575f80fd5b80639403e41f1461043a578063a0c1f15e1461044d578063a217fddf14610460578063ad5a356f14610467578063cce47e551461046f575f80fd5b806381d3ce26116100fa57806381d3ce26146103db57806386651203146103ee57806386a06ff01461040157806391d148541461041457806392f5e83214610427575f80fd5b80636bb65f53146103905780637399bfe8146103a357806374f0314f146103b657806379502c55146103c0575f80fd5b80632f2ff15d116101b6578063481c6a751161017b578063481c6a75146103355780634dd47eba14610348578063552033c41461035b57806361f5cd8b1461036e5780636a14602414610381575f80fd5b80632f2ff15d146102ee5780633194549e1461030157806333a581d21461030957806336568abe146103115780633727093614610324575f80fd5b8063163c8381116101fc578063163c8381146102a557806318178358146102b0578063248a9ca3146102b257806328ed6e3f146102d55780632c4e722e146102e8575f80fd5b806301e1d1141461022d57806301ffc9a71461024857806306fdde031461026b578063117d8ae014610280575b5f80fd5b6102356104cc565b6040519081526020015b60405180910390f35b61025b610256366004611797565b61053b565b604051901515815260200161023f565b610273610571565b60405161023f91906117ec565b6003546001600160a01b03165b6040516001600160a01b03909116815260200161023f565b610235633b9aca0081565b005b6102356102c03660046117fe565b5f908152600160208190526040909120015490565b6102b06102e33660046117fe565b610604565b5f610235565b6102b06102fc366004611829565b6107ae565b600654610235565b6102355f1981565b6102b061031f366004611829565b6107c9565b6002546001600160a01b031661028d565b60095461028d906001600160a01b031681565b6102b06103563660046117fe565b610801565b6102356b033b2e3c9fd0803ce800000081565b6102b061037c3660046117fe565b610897565b610235670de0b6b3a764000081565b600d5461028d906001600160a01b031681565b6102356103b1366004611857565b6108fa565b6102356201518081565b6103c861098b565b60405161023f97969594939291906118d7565b6102b06103e936600461192c565b610a46565b6102b06103fc3660046117fe565b610bbb565b600b5461028d906001600160a01b031681565b61025b610422366004611829565b610c17565b6102b06104353660046117fe565b610c41565b6102b061044836600461192c565b610c9d565b600a5461028d906001600160a01b031681565b6102355f81565b600754610235565b600c5461028d906001600160a01b031681565b6102b0610490366004611829565b610e0e565b6102b06104a3366004611829565b610e29565b600554610235565b6102356301e1338081565b6004546001600160a01b031661028d565b600a546040516370a0823160e01b81523060048201525f916001600160a01b0316906370a0823190602401602060405180830381865afa158015610512573d5f803e3d5ffd5b505050506040513d601f19601f820116820180604052508101906105369190611947565b905090565b5f6001600160e01b03198216637965db0b60e01b148061056b57506301ffc9a760e01b6001600160e01b03198316145b92915050565b6060600260060180546105839061195e565b80601f01602080910402602001604051908101604052809291908181526020018280546105af9061195e565b80156105fa5780601f106105d1576101008083540402835291602001916105fa565b820191905f5260205f20905b8154815290600101906020018083116105dd57829003601f168201915b5050505050905090565b6002546001600160a01b0316610618610f75565b61073c575f3390505f306001600160a01b031663117d8ae06040518163ffffffff1660e01b8152600401602060405180830381865afa15801561065d573d5f803e3d5ffd5b505050506040513d601f19601f820116820180604052508101906106819190611996565b6001600160a01b0316826001600160a01b0316149050806107395760405163d25dd10160e01b81526001600160a01b0383811660048301525f919085169063d25dd10190602401602060405180830381865afa1580156106e3573d5f803e3d5ffd5b505050506040513d601f19601f8201168201806040525081019061070791906119b1565b90508061073757604051638f7a567d60e01b81526001600160a01b03841660048201526024015b60405180910390fd5b505b50505b6004543390610756906001600160a01b0316823086610fe8565b61075f83611055565b600454604080516001600160a01b03928316815260208101869052918316917fcbaa1442ac205415c9d69643e7b60ec73d1de35dbc807c21ec288c70ddc4207b910160405180910390a2505050565b604051630e15200f60e21b815233600482015260240161072e565b6001600160a01b03811633146107f25760405163334bd91960e11b815260040160405180910390fd5b6107fc8282611144565b505050565b610809610f75565b61082857604051631564c0e160e11b815233600482015260240161072e565b33610832826111b6565b600454610849906001600160a01b03168284611236565b600454604080516001600160a01b03928316815260208101859052918316917fd5e872c5ecfb1bb8820b2e6a20e31b883682282da886621541f71e31ec11947e910160405180910390a25050565b61089f610f75565b6108be57604051631564c0e160e11b815233600482015260240161072e565b60068190556040518181527ffbe2d5c01ea8ba5596d6c4e6c82c6d4a0a0ee1128689993a4a5ba0169273d69f906020015b60405180910390a150565b5f61097660095f9054906101000a90046001600160a01b03166001600160a01b031663117d8ae06040518163ffffffff1660e01b81526004016020604051808303815f875af115801561094f573d5f803e3d5ffd5b505050506040513d601f19601f820116820180604052508101906109739190611996565b50565b610981848484611267565b90505b9392505050565b60028054600354600454600554600654600754600880546001600160a01b039788169896881697909516959394929391926109c59061195e565b80601f01602080910402602001604051908101604052809291908181526020018280546109f19061195e565b8015610a3c5780601f10610a1357610100808354040283529160200191610a3c565b820191905f5260205f20905b815481529060010190602001808311610a1f57829003601f168201915b5050505050905087565b5f5460408051630ccc574960e41b815290516001600160a01b03909216916391d1485491839163ccc57490916004808201926020929091908290030181865afa158015610a95573d5f803e3d5ffd5b505050506040513d601f19601f82011682018060405250810190610ab99190611947565b6040516001600160e01b031960e084901b1681526004810191909152336024820152604401602060405180830381865afa158015610af9573d5f803e3d5ffd5b505050506040513d601f19601f82011682018060405250810190610b1d91906119b1565b610b3c57604051630ea7d7ed60e21b815233600482015260240161072e565b610b45816113f0565b5f54604080516345b817bb60e01b81529051610bb7926001600160a01b0316916345b817bb9160048083019260209291908290030181865afa158015610b8d573d5f803e3d5ffd5b505050506040513d601f19601f82011682018060405250810190610bb19190611947565b82611144565b5050565b610bc3610f75565b610be257604051631564c0e160e11b815233600482015260240161072e565b60058190556040518181527f333b26cca69716ad4680ddb07663f5bfb4f06045671f336af9a83690a3ae00f9906020016108ef565b5f9182526001602090815260408084206001600160a01b0393909316845291905290205460ff1690565b610c49610f75565b610c6857604051631564c0e160e11b815233600482015260240161072e565b60078190556040518181527fb6ac66853c4e59c71e118d25ab494bb847c4e5eb0c8894898c5343e6f61afc12906020016108ef565b5f5460408051630ccc574960e41b815290516001600160a01b03909216916391d1485491839163ccc57490916004808201926020929091908290030181865afa158015610cec573d5f803e3d5ffd5b505050506040513d601f19601f82011682018060405250810190610d109190611947565b6040516001600160e01b031960e084901b1681526004810191909152336024820152604401602060405180830381865afa158015610d50573d5f803e3d5ffd5b505050506040513d601f19601f82011682018060405250810190610d7491906119b1565b610d9357604051630ea7d7ed60e21b815233600482015260240161072e565b610d9c81611483565b5f54604080516345b817bb60e01b81529051610bb7926001600160a01b0316916345b817bb9160048083019260209291908290030181865afa158015610de4573d5f803e3d5ffd5b505050506040513d601f19601f82011682018060405250810190610e089190611947565b826115c5565b604051636344978560e11b815233600482015260240161072e565b610e31610f75565b610e5057604051631564c0e160e11b815233600482015260240161072e565b610e59826111b6565b6004805460405163095ea7b360e01b81526001600160a01b03848116938201939093526024810185905291169063095ea7b3906044016020604051808303815f875af1158015610eab573d5f803e3d5ffd5b505050506040513d601f19601f82011682018060405250810190610ecf91906119b1565b506040516328ed6e3f60e01b8152600481018390526001600160a01b038216906328ed6e3f906024015f604051808303815f87803b158015610f0f575f80fd5b505af1158015610f21573d5f803e3d5ffd5b5050600454604080516001600160a01b0392831681526020810187905291851693503092507f9f784fc02a186f1c98b2d9f15fda084da27cdd291a3785d978f91911d880516b910160405180910390a35050565b5f8054604080516345b817bb60e01b81529051610536926001600160a01b0316916345b817bb9160048083019260209291908290030181865afa158015610fbe573d5f803e3d5ffd5b505050506040513d601f19601f82011682018060405250810190610fe29190611947565b33610c17565b6040516001600160a01b03848116602483015283811660448301526064820183905261104f9186918216906323b872dd906084015b604051602081830303815290604052915060e01b6020820180516001600160e01b038381831617835250505050611634565b50505050565b60048054600b5460405163095ea7b360e01b81526001600160a01b039182169381019390935260248301849052169063095ea7b3906044016020604051808303815f875af11580156110a9573d5f803e3d5ffd5b505050506040513d601f19601f820116820180604052508101906110cd91906119b1565b50600b546004805460405163617ba03760e01b81526001600160a01b0391821692810192909252602482018490523060448301525f60648301529091169063617ba037906084015f604051808303815f87803b15801561112b575f80fd5b505af115801561113d573d5f803e3d5ffd5b5050505050565b5f61114f8383610c17565b156111af575f8381526001602090815260408083206001600160a01b0386168085529252808320805460ff1916905551339286917ff6391f5c32d9c69d2a47ea670b442974b53935d1edc7fd64eb21e047a839171b9190a450600161056b565b505f61056b565b600b5460048054604051631a4ca37b60e21b81526001600160a01b039182169281019290925260248201849052306044830152909116906369328dec906064016020604051808303815f875af1158015611212573d5f803e3d5ffd5b505050506040513d601f19601f82011682018060405250810190610bb79190611947565b6040516001600160a01b038381166024830152604482018390526107fc91859182169063a9059cbb9060640161101d565b600c54600480546040516334924edb60e21b81526001600160a01b03918216928101929092525f92839291169063d2493b6c90602401606060405180830381865afa1580156112b8573d5f803e3d5ffd5b505050506040513d601f19601f820116820180604052508101906112dc91906119d0565b506040805160018082528183019092529193505f92506020808301908036833701905050905081815f8151811061131557611315611a1a565b6001600160a01b039283166020918202929092010152600d546040516357b8988360e01b81529116906357b89883906113579084905f19908b90600401611a2e565b6020604051808303815f875af1158015611373573d5f803e3d5ffd5b505050506040513d601f19601f820116820180604052508101906113979190611947565b6003549093506113b4906001600160a01b03888116911685611236565b6040518381527f8e55ccfc9778ff8eba1646d765cf1982537ce0f9257054a17b48aad7452501839060200160405180910390a150509392505050565b5f306001600160a01b03166301e1d1146040518163ffffffff1660e01b8152600401602060405180830381865afa15801561142d573d5f803e3d5ffd5b505050506040513d601f19601f820116820180604052508101906114519190611947565b1115611470576040516373a075f360e01b815260040160405180910390fd5b50600280546001600160a01b0319169055565b5f5460408051630ccc574960e41b815290516001600160a01b03909216916391d1485491839163ccc57490916004808201926020929091908290030181865afa1580156114d2573d5f803e3d5ffd5b505050506040513d601f19601f820116820180604052508101906114f69190611947565b6040516001600160e01b031960e084901b1681526004810191909152336024820152604401602060405180830381865afa158015611536573d5f803e3d5ffd5b505050506040513d601f19601f8201168201806040525081019061155a91906119b1565b61157957604051630ea7d7ed60e21b815233600482015260240161072e565b6002546001600160a01b0316156115a35760405163d32184ed60e01b815260040160405180910390fd5b600280546001600160a01b0319166001600160a01b0392909216919091179055565b5f6115d08383610c17565b6111af575f8381526001602081815260408084206001600160a01b0387168086529252808420805460ff19169093179092559051339286917f2f8788117e7eff1d82e926ec794901d17c78024a50270940304540a733656f0d9190a450600161056b565b5f6116486001600160a01b03841683611695565b905080515f1415801561166c57508080602001905181019061166a91906119b1565b155b156107fc57604051635274afe760e01b81526001600160a01b038416600482015260240161072e565b606061098483835f845f80856001600160a01b031684866040516116b99190611a93565b5f6040518083038185875af1925050503d805f81146116f3576040519150601f19603f3d011682016040523d82523d5f602084013e6116f8565b606091505b5091509150611708868383611712565b9695505050505050565b606082611727576117228261176e565b610984565b815115801561173e57506001600160a01b0384163b155b1561176757604051639996b31560e01b81526001600160a01b038516600482015260240161072e565b5080610984565b80511561177e5780518082602001fd5b604051630a12f52160e11b815260040160405180910390fd5b5f602082840312156117a7575f80fd5b81356001600160e01b031981168114610984575f80fd5b5f81518084528060208401602086015e5f602082860101526020601f19601f83011685010191505092915050565b602081525f61098460208301846117be565b5f6020828403121561180e575f80fd5b5035919050565b6001600160a01b0381168114610973575f80fd5b5f806040838503121561183a575f80fd5b82359150602083013561184c81611815565b809150509250929050565b5f805f60408486031215611869575f80fd5b833561187481611815565b9250602084013567ffffffffffffffff81111561188f575f80fd5b8401601f8101861361189f575f80fd5b803567ffffffffffffffff8111156118b5575f80fd5b8660208284010111156118c6575f80fd5b939660209190910195509293505050565b6001600160a01b038881168252878116602083015286166040820152606081018590526080810184905260a0810183905260e060c082018190525f9061191f908301846117be565b9998505050505050505050565b5f6020828403121561193c575f80fd5b813561098481611815565b5f60208284031215611957575f80fd5b5051919050565b600181811c9082168061197257607f821691505b60208210810361199057634e487b7160e01b5f52602260045260245ffd5b50919050565b5f602082840312156119a6575f80fd5b815161098481611815565b5f602082840312156119c1575f80fd5b81518015158114610984575f80fd5b5f805f606084860312156119e2575f80fd5b83516119ed81611815565b60208501519093506119fe81611815565b6040850151909250611a0f81611815565b809150509250925092565b634e487b7160e01b5f52603260045260245ffd5b606080825284519082018190525f9060208601906080840190835b81811015611a705783516001600160a01b0316835260209384019390920191600101611a49565b5050602084019590955250506001600160a01b0391909116604090910152919050565b5f82518060208501845e5f92019182525091905056fea26469706673582212208ed41d5511c63e2539f7e3a6ce1c24904a06d7fa46977f8895323358e0c0acf464736f6c634300081a0033","linkReferences":{}},"methodIdentifiers":{"DEFAULT_ADMIN_ROLE()":"a217fddf","MAX_UINT256()":"33a581d2","RAY()":"552033c4","SECONDS_PER_DAY()":"74f0314f","SECONDS_PER_YEAR()":"e6a69ab8","WAD()":"6a146024","WAD_TO_RAY()":"163c8381","aToken()":"a0c1f15e","aaveV3DataProvider()":"cce47e55","aaveV3Pool()":"86a06ff0","board(uint256)":"28ed6e3f","commander()":"37270936","config()":"79502c55","depositCap()":"dbd5edc7","disembark(uint256)":"4dd47eba","getRoleAdmin(bytes32)":"248a9ca3","grantCommanderRole(address)":"9403e41f","grantRole(bytes32,address)":"2f2ff15d","harvest(address,bytes)":"7399bfe8","hasRole(bytes32,address)":"91d14854","manager()":"481c6a75","maxRebalanceInflow()":"ad5a356f","maxRebalanceOutflow()":"3194549e","move(uint256,address)":"d8a8e03a","name()":"06fdde03","poke()":"18178358","raft()":"117d8ae0","rate()":"2c4e722e","renounceRole(bytes32,address)":"36568abe","revokeCommanderRole(address)":"81d3ce26","revokeRole(bytes32,address)":"d547741f","rewardsController()":"6bb65f53","setDepositCap(uint256)":"86651203","setMaxRebalanceInflow(uint256)":"92f5e832","setMaxRebalanceOutflow(uint256)":"61f5cd8b","supportsInterface(bytes4)":"01ffc9a7","token()":"fc0c546a","totalAssets()":"01e1d114"},"id":144}