{"abi":[{"type":"constructor","inputs":[{"name":"_aaveV3Pool","type":"address","internalType":"address"},{"name":"_rewardsController","type":"address","internalType":"address"},{"name":"_params","type":"tuple","internalType":"struct ArkParams","components":[{"name":"name","type":"string","internalType":"string"},{"name":"accessManager","type":"address","internalType":"address"},{"name":"configurationManager","type":"address","internalType":"address"},{"name":"token","type":"address","internalType":"address"},{"name":"depositCap","type":"uint256","internalType":"uint256"},{"name":"maxRebalanceOutflow","type":"uint256","internalType":"uint256"},{"name":"maxRebalanceInflow","type":"uint256","internalType":"uint256"},{"name":"requiresKeeperData","type":"bool","internalType":"bool"},{"name":"maxDepositPercentageOfTVL","type":"uint256","internalType":"Percentage"}]}],"stateMutability":"nonpayable"},{"type":"function","name":"aToken","inputs":[],"outputs":[{"name":"","type":"address","internalType":"address"}],"stateMutability":"view"},{"type":"function","name":"aaveV3Pool","inputs":[],"outputs":[{"name":"","type":"address","internalType":"contract IPoolV3"}],"stateMutability":"view"},{"type":"function","name":"board","inputs":[{"name":"amount","type":"uint256","internalType":"uint256"},{"name":"boardData","type":"bytes","internalType":"bytes"}],"outputs":[],"stateMutability":"nonpayable"},{"type":"function","name":"commander","inputs":[],"outputs":[{"name":"","type":"address","internalType":"address"}],"stateMutability":"view"},{"type":"function","name":"config","inputs":[],"outputs":[{"name":"commander","type":"address","internalType":"address"},{"name":"raft","type":"address","internalType":"address"},{"name":"token","type":"address","internalType":"contract IERC20"},{"name":"depositCap","type":"uint256","internalType":"uint256"},{"name":"maxRebalanceOutflow","type":"uint256","internalType":"uint256"},{"name":"maxRebalanceInflow","type":"uint256","internalType":"uint256"},{"name":"name","type":"string","internalType":"string"},{"name":"requiresKeeperData","type":"bool","internalType":"bool"},{"name":"maxDepositPercentageOfTVL","type":"uint256","internalType":"Percentage"}],"stateMutability":"view"},{"type":"function","name":"configurationManager","inputs":[],"outputs":[{"name":"","type":"address","internalType":"contract IConfigurationManager"}],"stateMutability":"view"},{"type":"function","name":"depositCap","inputs":[],"outputs":[{"name":"","type":"uint256","internalType":"uint256"}],"stateMutability":"view"},{"type":"function","name":"disembark","inputs":[{"name":"amount","type":"uint256","internalType":"uint256"},{"name":"disembarkData","type":"bytes","internalType":"bytes"}],"outputs":[],"stateMutability":"nonpayable"},{"type":"function","name":"generateRole","inputs":[{"name":"roleName","type":"uint8","internalType":"enum ContractSpecificRoles"},{"name":"roleTargetContract","type":"address","internalType":"address"}],"outputs":[{"name":"","type":"bytes32","internalType":"bytes32"}],"stateMutability":"pure"},{"type":"function","name":"getConfig","inputs":[],"outputs":[{"name":"","type":"tuple","internalType":"struct ArkConfig","components":[{"name":"commander","type":"address","internalType":"address"},{"name":"raft","type":"address","internalType":"address"},{"name":"token","type":"address","internalType":"contract IERC20"},{"name":"depositCap","type":"uint256","internalType":"uint256"},{"name":"maxRebalanceOutflow","type":"uint256","internalType":"uint256"},{"name":"maxRebalanceInflow","type":"uint256","internalType":"uint256"},{"name":"name","type":"string","internalType":"string"},{"name":"requiresKeeperData","type":"bool","internalType":"bool"},{"name":"maxDepositPercentageOfTVL","type":"uint256","internalType":"Percentage"}]}],"stateMutability":"view"},{"type":"function","name":"harborCommand","inputs":[],"outputs":[{"name":"","type":"address","internalType":"address"}],"stateMutability":"view"},{"type":"function","name":"harvest","inputs":[{"name":"additionalData","type":"bytes","internalType":"bytes"}],"outputs":[{"name":"rewardTokens","type":"address[]","internalType":"address[]"},{"name":"rewardAmounts","type":"uint256[]","internalType":"uint256[]"}],"stateMutability":"nonpayable"},{"type":"function","name":"maxDepositPercentageOfTVL","inputs":[],"outputs":[{"name":"","type":"uint256","internalType":"Percentage"}],"stateMutability":"view"},{"type":"function","name":"maxRebalanceInflow","inputs":[],"outputs":[{"name":"","type":"uint256","internalType":"uint256"}],"stateMutability":"view"},{"type":"function","name":"maxRebalanceOutflow","inputs":[],"outputs":[{"name":"","type":"uint256","internalType":"uint256"}],"stateMutability":"view"},{"type":"function","name":"move","inputs":[{"name":"amount","type":"uint256","internalType":"uint256"},{"name":"receiverArk","type":"address","internalType":"address"},{"name":"boardData","type":"bytes","internalType":"bytes"},{"name":"disembarkData","type":"bytes","internalType":"bytes"}],"outputs":[],"stateMutability":"nonpayable"},{"type":"function","name":"name","inputs":[],"outputs":[{"name":"","type":"string","internalType":"string"}],"stateMutability":"view"},{"type":"function","name":"raft","inputs":[],"outputs":[{"name":"","type":"address","internalType":"address"}],"stateMutability":"view"},{"type":"function","name":"registerFleetCommander","inputs":[],"outputs":[],"stateMutability":"nonpayable"},{"type":"function","name":"requiresKeeperData","inputs":[],"outputs":[{"name":"","type":"bool","internalType":"bool"}],"stateMutability":"view"},{"type":"function","name":"rewardsController","inputs":[],"outputs":[{"name":"","type":"address","internalType":"contract IRewardsController"}],"stateMutability":"view"},{"type":"function","name":"setDepositCap","inputs":[{"name":"newDepositCap","type":"uint256","internalType":"uint256"}],"outputs":[],"stateMutability":"nonpayable"},{"type":"function","name":"setMaxDepositPercentageOfTVL","inputs":[{"name":"newMaxDepositPercentageOfTVL","type":"uint256","internalType":"Percentage"}],"outputs":[],"stateMutability":"nonpayable"},{"type":"function","name":"setMaxRebalanceInflow","inputs":[{"name":"newMaxRebalanceInflow","type":"uint256","internalType":"uint256"}],"outputs":[],"stateMutability":"nonpayable"},{"type":"function","name":"setMaxRebalanceOutflow","inputs":[{"name":"newMaxRebalanceOutflow","type":"uint256","internalType":"uint256"}],"outputs":[],"stateMutability":"nonpayable"},{"type":"function","name":"sweep","inputs":[{"name":"tokens","type":"address[]","internalType":"address[]"}],"outputs":[{"name":"sweptTokens","type":"address[]","internalType":"address[]"},{"name":"sweptAmounts","type":"uint256[]","internalType":"uint256[]"}],"stateMutability":"nonpayable"},{"type":"function","name":"tipJar","inputs":[],"outputs":[{"name":"","type":"address","internalType":"address"}],"stateMutability":"view"},{"type":"function","name":"token","inputs":[],"outputs":[{"name":"","type":"address","internalType":"contract IERC20"}],"stateMutability":"view"},{"type":"function","name":"totalAssets","inputs":[],"outputs":[{"name":"","type":"uint256","internalType":"uint256"}],"stateMutability":"view"},{"type":"function","name":"treasury","inputs":[],"outputs":[{"name":"","type":"address","internalType":"address"}],"stateMutability":"view"},{"type":"function","name":"unregisterFleetCommander","inputs":[],"outputs":[],"stateMutability":"nonpayable"},{"type":"event","name":"ArkHarvested","inputs":[{"name":"rewardTokens","type":"address[]","indexed":true,"internalType":"address[]"},{"name":"rewardAmounts","type":"uint256[]","indexed":true,"internalType":"uint256[]"}],"anonymous":false},{"type":"event","name":"ArkPoked","inputs":[{"name":"currentPrice","type":"uint256","indexed":false,"internalType":"uint256"},{"name":"timestamp","type":"uint256","indexed":false,"internalType":"uint256"}],"anonymous":false},{"type":"event","name":"ArkSwept","inputs":[{"name":"sweptTokens","type":"address[]","indexed":true,"internalType":"address[]"},{"name":"sweptAmounts","type":"uint256[]","indexed":true,"internalType":"uint256[]"}],"anonymous":false},{"type":"event","name":"Boarded","inputs":[{"name":"commander","type":"address","indexed":true,"internalType":"address"},{"name":"token","type":"address","indexed":false,"internalType":"address"},{"name":"amount","type":"uint256","indexed":false,"internalType":"uint256"}],"anonymous":false},{"type":"event","name":"DepositCapUpdated","inputs":[{"name":"newCap","type":"uint256","indexed":false,"internalType":"uint256"}],"anonymous":false},{"type":"event","name":"Disembarked","inputs":[{"name":"commander","type":"address","indexed":true,"internalType":"address"},{"name":"token","type":"address","indexed":false,"internalType":"address"},{"name":"amount","type":"uint256","indexed":false,"internalType":"uint256"}],"anonymous":false},{"type":"event","name":"FleetCommanderRegistered","inputs":[{"name":"commander","type":"address","indexed":false,"internalType":"address"}],"anonymous":false},{"type":"event","name":"FleetCommanderUnregistered","inputs":[{"name":"commander","type":"address","indexed":false,"internalType":"address"}],"anonymous":false},{"type":"event","name":"MaxDepositPercentageOfTVLUpdated","inputs":[{"name":"newMaxDepositPercentageOfTVL","type":"uint256","indexed":false,"internalType":"Percentage"}],"anonymous":false},{"type":"event","name":"MaxRebalanceInflowUpdated","inputs":[{"name":"newMaxInflow","type":"uint256","indexed":false,"internalType":"uint256"}],"anonymous":false},{"type":"event","name":"MaxRebalanceOutflowUpdated","inputs":[{"name":"newMaxOutflow","type":"uint256","indexed":false,"internalType":"uint256"}],"anonymous":false},{"type":"event","name":"Moved","inputs":[{"name":"from","type":"address","indexed":true,"internalType":"address"},{"name":"to","type":"address","indexed":true,"internalType":"address"},{"name":"token","type":"address","indexed":false,"internalType":"address"},{"name":"amount","type":"uint256","indexed":false,"internalType":"uint256"}],"anonymous":false},{"type":"event","name":"RaftUpdated","inputs":[{"name":"newRaft","type":"address","indexed":false,"internalType":"address"}],"anonymous":false},{"type":"error","name":"CallerIsNotAdmin","inputs":[{"name":"caller","type":"address","internalType":"address"}]},{"type":"error","name":"CallerIsNotAuthorizedToBoard","inputs":[{"name":"caller","type":"address","internalType":"address"}]},{"type":"error","name":"CallerIsNotCommander","inputs":[{"name":"caller","type":"address","internalType":"address"}]},{"type":"error","name":"CallerIsNotContractSpecificRole","inputs":[{"name":"caller","type":"address","internalType":"address"},{"name":"role","type":"bytes32","internalType":"bytes32"}]},{"type":"error","name":"CallerIsNotCurator","inputs":[{"name":"caller","type":"address","internalType":"address"}]},{"type":"error","name":"CallerIsNotGovernor","inputs":[{"name":"caller","type":"address","internalType":"address"}]},{"type":"error","name":"CallerIsNotGuardian","inputs":[{"name":"caller","type":"address","internalType":"address"}]},{"type":"error","name":"CallerIsNotGuardianOrGovernor","inputs":[{"name":"caller","type":"address","internalType":"address"}]},{"type":"error","name":"CallerIsNotKeeper","inputs":[{"name":"caller","type":"address","internalType":"address"}]},{"type":"error","name":"CallerIsNotRaft","inputs":[{"name":"caller","type":"address","internalType":"address"}]},{"type":"error","name":"CallerIsNotRaftOrCommander","inputs":[{"name":"caller","type":"address","internalType":"address"}]},{"type":"error","name":"CallerIsNotSuperKeeper","inputs":[{"name":"caller","type":"address","internalType":"address"}]},{"type":"error","name":"CannotAddCommanderToArkWithCommander","inputs":[]},{"type":"error","name":"CannotDeployArkWithEmptyName","inputs":[]},{"type":"error","name":"CannotDeployArkWithoutConfigurationManager","inputs":[]},{"type":"error","name":"CannotDeployArkWithoutRaft","inputs":[]},{"type":"error","name":"CannotDeployArkWithoutToken","inputs":[]},{"type":"error","name":"CannotRemoveCommanderFromArkWithAssets","inputs":[]},{"type":"error","name":"CannotUseKeeperDataWhenNotRequired","inputs":[]},{"type":"error","name":"ConfigurationManagerZeroAddress","inputs":[]},{"type":"error","name":"DirectGrantIsDisabled","inputs":[{"name":"caller","type":"address","internalType":"address"}]},{"type":"error","name":"DirectRevokeIsDisabled","inputs":[{"name":"caller","type":"address","internalType":"address"}]},{"type":"error","name":"ERC4626AssetMismatch","inputs":[]},{"type":"error","name":"InvalidAccessManagerAddress","inputs":[{"name":"invalidAddress","type":"address","internalType":"address"}]},{"type":"error","name":"InvalidBoardData","inputs":[]},{"type":"error","name":"InvalidDisembarkData","inputs":[]},{"type":"error","name":"InvalidVaultAddress","inputs":[]},{"type":"error","name":"KeeperDataRequired","inputs":[]},{"type":"error","name":"ReentrancyGuardReentrantCall","inputs":[]},{"type":"error","name":"SafeERC20FailedOperation","inputs":[{"name":"token","type":"address","internalType":"address"}]}],"bytecode":{"object":"0x610100604052348015610010575f5ffd5b50604051612e4a380380612e4a83398101604081905261002f91610507565b6040810151602082015182918291806001600160a01b03811661006c576040516347bd7c1d60e01b81525f60048201526024015b60405180910390fd5b6040516301ffc9a760e01b815263fe1a291f60e01b60048201526001600160a01b038216906301ffc9a790602401602060405180830381865afa1580156100b5573d5f5f3e3d5ffd5b505050506040513d601f19601f820116820180604052508101906100d99190610605565b610101576040516347bd7c1d60e01b81526001600160a01b0382166004820152602401610063565b5f80546001600160a01b0319166001600160a01b039283161790558216905061013d5760405163f1634df960e01b815260040160405180910390fd5b6001600160a01b0390811660805260408201511661016e5760405163b53c493160e01b815260040160405180910390fd5b60608101516001600160a01b031661019c576040516001620a810f60e11b0319815260040160405180910390fd5b8051515f036101be5760405163268c072960e01b815260040160405180910390fd5b5f6101c761038c565b6001600160a01b0316036101ee57604051633a4f9cdb60e21b815260040160405180910390fd5b6040805161012081019091525f81526020810161020961038c565b6001600160a01b039081168252606080850151821660208085019190915260808087015160408087019190915260a0808901518588015260c0808a01518489015289518289015260e0808b01511515828a01526101008b01519801979097528751600180549188166001600160a01b03199283161781559489015160028054918916918316919091179055918801516003805491909716921691909117909455918501516004559084015160055590830151600655908201516007906102cf90826106a9565b5060e082015160078201805460ff19169115159190911790556101009091015160089091015550506001600160a01b0383811660c08190526003546040516335ea6a7560e01b8152921660048301525f916335ea6a75906024016101e060405180830381865afa158015610345573d5f5f3e3d5ffd5b505050506040513d601f19601f8201168201806040525081019061036991906107dd565b61010001516001600160a01b0390811660a0529290921660e05250610920915050565b5f6080516001600160a01b031663117d8ae06040518163ffffffff1660e01b8152600401602060405180830381865afa1580156103cb573d5f5f3e3d5ffd5b505050506040513d601f19601f820116820180604052508101906103ef9190610907565b905090565b80516001600160a01b038116811461040a575f5ffd5b919050565b634e487b7160e01b5f52604160045260245ffd5b60405161012081016001600160401b03811182821017156104465761044661040f565b60405290565b6040516101e081016001600160401b03811182821017156104465761044661040f565b5f82601f83011261047e575f5ffd5b81516001600160401b038111156104975761049761040f565b604051601f8201601f19908116603f011681016001600160401b03811182821017156104c5576104c561040f565b6040528181528382016020018510156104dc575f5ffd5b8160208501602083015e5f918101602001919091529392505050565b8051801515811461040a575f5ffd5b5f5f5f60608486031215610519575f5ffd5b610522846103f4565b9250610530602085016103f4565b60408501519092506001600160401b0381111561054b575f5ffd5b8401610120818703121561055d575f5ffd5b610565610423565b81516001600160401b0381111561057a575f5ffd5b6105868882850161046f565b825250610595602083016103f4565b60208201526105a6604083016103f4565b60408201526105b7606083016103f4565b60608201526080828101519082015260a0808301519082015260c080830151908201526105e660e083016104f8565b60e0820152610100918201519181019190915292959194509192509050565b5f60208284031215610615575f5ffd5b61061e826104f8565b9392505050565b600181811c9082168061063957607f821691505b60208210810361065757634e487b7160e01b5f52602260045260245ffd5b50919050565b601f8211156106a457805f5260205f20601f840160051c810160208510156106825750805b601f840160051c820191505b818110156106a1575f815560010161068e565b50505b505050565b81516001600160401b038111156106c2576106c261040f565b6106d6816106d08454610625565b8461065d565b6020601f821160018114610708575f83156106f15750848201515b5f19600385901b1c1916600184901b1784556106a1565b5f84815260208120601f198516915b828110156107375787850151825560209485019460019092019101610717565b508482101561075457868401515f19600387901b60f8161c191681555b50505050600190811b01905550565b5f60208284031215610773575f5ffd5b604051602081016001600160401b03811182821017156107955761079561040f565b6040529151825250919050565b80516001600160801b038116811461040a575f5ffd5b805164ffffffffff8116811461040a575f5ffd5b805161ffff8116811461040a575f5ffd5b5f6101e08284031280156107ef575f5ffd5b506107f861044c565b6108028484610763565b8152610810602084016107a2565b6020820152610821604084016107a2565b6040820152610832606084016107a2565b6060820152610843608084016107a2565b608082015261085460a084016107a2565b60a082015261086560c084016107b8565b60c082015261087660e084016107cc565b60e082015261088861010084016103f4565b61010082015261089b61012084016103f4565b6101208201526108ae61014084016103f4565b6101408201526108c161016084016103f4565b6101608201526108d461018084016107a2565b6101808201526108e76101a084016107a2565b6101a08201526108fa6101c084016107a2565b6101c08201529392505050565b5f60208284031215610917575f5ffd5b61061e826103f4565b60805160a05160c05160e0516124b16109995f395f81816102d50152611b4c01525f818161035501528181611761015281816118af015261195f01525f8181610397015281816104630152611af401525f81816103f60152818161056f0152818161091d0152818161097a01526110b101526124b15ff3fe608060405234801561000f575f5ffd5b50600436106101dc575f3560e01c806379502c5511610109578063bdcdd8821161009e578063ce5c7f611161006e578063ce5c7f6114610418578063dbd5edc71461042b578063ebf3113114610433578063fc0c546a1461043b575f5ffd5b8063bdcdd882146103c1578063c38a6f0b146103c9578063c3f909d4146103dc578063c9c667e3146103f1575f5ffd5b80638a8b9976116100d95780638a8b99761461037757806392f5e8321461037f578063a0c1f15e14610392578063ad5a356f146103b9575f5ffd5b806379502c55146103185780637aaceb9514610335578063866512031461033d57806386a06ff014610350575f5ffd5b8063372709361161017f57806361f5cd8b1161014f57806361f5cd8b146102aa57806369b3054b146102bd5780636bb65f53146102d0578063780469bb146102f7575f5ffd5b806337270936146102765780634fc7fac3146102875780635b0f83f31461029a57806361d027b3146102a2575f5ffd5b806313c408f8116101ba57806313c408f8146102305780632db6d39914610245578063303dbaf3146102585780633194549e1461026e575f5ffd5b806301e1d114146101e057806306fdde03146101fb578063117d8ae014610210575b5f5ffd5b6101e861044c565b6040519081526020015b60405180910390f35b6102036104d9565b6040516101f29190611d6b565b61021861056c565b6040516001600160a01b0390911681526020016101f2565b61024361023e366004611dc2565b6105ed565b005b610243610253366004611dc2565b6106b6565b60085460ff1660405190151581526020016101f2565b6005546101e8565b6001546001600160a01b0316610218565b610243610295366004611e0a565b6108cc565b61021861091a565b610218610977565b6102436102b8366004611e0a565b6109d4565b6101e86102cb366004611e38565b610a1b565b6102187f000000000000000000000000000000000000000000000000000000000000000081565b61030a610305366004611eb7565b610a4d565b6040516101f2929190611fae565b610320610fe3565b6040516101f299989796959493929190612006565b6102186110ae565b61024361034b366004611e0a565b61110b565b6102187f000000000000000000000000000000000000000000000000000000000000000081565b610243611152565b61024361038d366004611e0a565b6111af565b6102187f000000000000000000000000000000000000000000000000000000000000000081565b6006546101e8565b6009546101e8565b6102436103d7366004612068565b6111f6565b6103e4611347565b6040516101f291906120f3565b6102187f000000000000000000000000000000000000000000000000000000000000000081565b61030a6104263660046121a4565b61148c565b6004546101e8565b610243611586565b6003546001600160a01b0316610218565b6040516370a0823160e01b81523060048201525f907f00000000000000000000000000000000000000000000000000000000000000006001600160a01b0316906370a0823190602401602060405180830381865afa1580156104b0573d5f5f3e3d5ffd5b505050506040513d601f19601f820116820180604052508101906104d491906121e3565b905090565b6060600160060180546104eb906121fa565b80601f0160208091040260200160405190810160405280929190818152602001828054610517906121fa565b80156105625780601f1061053957610100808354040283529160200191610562565b820191905f5260205f20905b81548152906001019060200180831161054557829003601f168201915b5050505050905090565b5f7f00000000000000000000000000000000000000000000000000000000000000006001600160a01b031663117d8ae06040518163ffffffff1660e01b8152600401602060405180830381865afa1580156105c9573d5f5f3e3d5ffd5b505050506040513d601f19601f820116820180604052508101906104d49190612232565b6105f56115d8565b61062557335b604051631564c0e160e11b81526001600160a01b0390911660048201526024015b60405180910390fd5b61062d611661565b818161063982826116d0565b33610645868686611732565b60035461065c906001600160a01b031682886117d3565b600354604080516001600160a01b03928316815260208101899052918316917fd5e872c5ecfb1bb8820b2e6a20e31b883682282da886621541f71e31ec11947e910160405180910390a25050506106b1611832565b505050565b6106be611661565b306001600160a01b031663372709366040518163ffffffff1660e01b8152600401602060405180830381865afa1580156106fa573d5f5f3e3d5ffd5b505050506040513d601f19601f8201168201806040525081019061071e9190612232565b6107266115d8565b610845575f3390505f306001600160a01b031663117d8ae06040518163ffffffff1660e01b8152600401602060405180830381865afa15801561076b573d5f5f3e3d5ffd5b505050506040513d601f19601f8201168201806040525081019061078f9190612232565b6001600160a01b0316826001600160a01b0316149050806108425760405163d25dd10160e01b81526001600160a01b0383811660048301525f919085169063d25dd10190602401602060405180830381865afa1580156107f1573d5f5f3e3d5ffd5b505050506040513d601f19601f82011682018060405250810190610815919061224d565b90508061084057604051638f7a567d60e01b81526001600160a01b038416600482015260240161061c565b505b50505b828261085182826116d0565b600354339061086b906001600160a01b031682308a61185c565b610876878787611895565b600354604080516001600160a01b039283168152602081018a9052918316917fcbaa1442ac205415c9d69643e7b60ec73d1de35dbc807c21ec288c70ddc4207b910160405180910390a2505050506106b1611832565b6108d46115d8565b6108de57336105fb565b60098190556040518181527fd3c6d0ab315f2f1352f036cd9f401b49e38e1b90907e195225e8105f9a0b6f02906020015b60405180910390a150565b5f7f00000000000000000000000000000000000000000000000000000000000000006001600160a01b0316635b0f83f36040518163ffffffff1660e01b8152600401602060405180830381865afa1580156105c9573d5f5f3e3d5ffd5b5f7f00000000000000000000000000000000000000000000000000000000000000006001600160a01b03166361d027b36040518163ffffffff1660e01b8152600401602060405180830381865afa1580156105c9573d5f5f3e3d5ffd5b6109dc6115d8565b6109e657336105fb565b60058190556040518181527ffbe2d5c01ea8ba5596d6c4e6c82c6d4a0a0ee1128689993a4a5ba0169273d69f9060200161090f565b5f8282604051602001610a2f92919061226c565b60405160208183030381529060405280519060200120905092915050565b606080306001600160a01b031663117d8ae06040518163ffffffff1660e01b8152600401602060405180830381865afa158015610a8c573d5f5f3e3d5ffd5b505050506040513d601f19601f82011682018060405250810190610ab09190612232565b6001600160a01b0316336001600160a01b031614610aef57335b604051631184b31b60e21b81526001600160a01b03909116600482015260240161061c565b610af7611661565b825167ffffffffffffffff811115610b1157610b11611e72565b604051908082528060200260200182016040528015610b3a578160200160208202803683370190505b509150825167ffffffffffffffff811115610b5757610b57611e72565b604051908082528060200260200182016040528015610b80578160200160208202803683370190505b506003546040516370a0823160e01b81523060048201529192505f916001600160a01b03909116906370a0823190602401602060405180830381865afa158015610bcc573d5f5f3e3d5ffd5b505050506040513d601f19601f82011682018060405250810190610bf091906121e3565b1115610db457600154604080516330fe427560e21b815290515f926001600160a01b03169163c3f909d49160048083019260a09291908290030181865afa158015610c3d573d5f5f3e3d5ffd5b505050506040513d601f19601f82011682018060405250810190610c6191906122af565b516003546040516370a0823160e01b8152306004820152919250610ce69183916001600160a01b0316906370a0823190602401602060405180830381865afa158015610caf573d5f5f3e3d5ffd5b505050506040513d601f19601f82011682018060405250810190610cd391906121e3565b6003546001600160a01b031691906119bd565b6003546040516370a0823160e01b81523060048201526001600160a01b0383811692632db6d399929116906370a0823190602401602060405180830381865afa158015610d35573d5f5f3e3d5ffd5b505050506040513d601f19601f82011682018060405250810190610d5991906121e3565b60405180602001604052805f8152506040518363ffffffff1660e01b8152600401610d8592919061232c565b5f604051808303815f87803b158015610d9c575f5ffd5b505af1158015610dae573d5f5f3e3d5ffd5b50505050505b5f5b8351811015610f82575f848281518110610dd257610dd261234c565b60209081029190910101516040516370a0823160e01b81523060048201526001600160a01b03909116906370a0823190602401602060405180830381865afa158015610e20573d5f5f3e3d5ffd5b505050506040513d601f19601f82011682018060405250810190610e4491906121e3565b90508015610f7957610f0d610e5761056c565b868481518110610e6957610e6961234c565b60209081029190910101516040516370a0823160e01b81523060048201526001600160a01b03909116906370a0823190602401602060405180830381865afa158015610eb7573d5f5f3e3d5ffd5b505050506040513d601f19601f82011682018060405250810190610edb91906121e3565b878581518110610eed57610eed61234c565b60200260200101516001600160a01b03166117d39092919063ffffffff16565b848281518110610f1f57610f1f61234c565b6020026020010151848381518110610f3957610f3961234c565b60200260200101906001600160a01b031690816001600160a01b03168152505080838381518110610f6c57610f6c61234c565b6020026020010181815250505b50600101610db6565b5080604051610f919190612360565b604051809103902082604051610fa79190612395565b604051908190038120907f46b8771620f6acf56cb03d3e835ea8024c7dcbcf05fcc3f6ade9e19d1a3e212b905f90a3610fde611832565b915091565b60018054600254600354600454600554600654600780546001600160a01b0397881698968816979095169593949293919261101d906121fa565b80601f0160208091040260200160405190810160405280929190818152602001828054611049906121fa565b80156110945780601f1061106b57610100808354040283529160200191611094565b820191905f5260205f20905b81548152906001019060200180831161107757829003601f168201915b505050506007830154600890930154919260ff1691905089565b5f7f00000000000000000000000000000000000000000000000000000000000000006001600160a01b0316637aaceb956040518163ffffffff1660e01b8152600401602060405180830381865afa1580156105c9573d5f5f3e3d5ffd5b6111136115d8565b61111d57336105fb565b60048190556040518181527f333b26cca69716ad4680ddb07663f5bfb4f06045671f336af9a83690a3ae00f99060200161090f565b61115a6115d8565b61116457336105fb565b600180546001600160a01b031916339081179091556040519081527f55489ce0259bd691120d8860861be1c401c7c16a3cd268d21045756af4ecc5ca906020015b60405180910390a1565b6111b76115d8565b6111c157336105fb565b60068190556040518181527fb6ac66853c4e59c71e118d25ab494bb847c4e5eb0c8894898c5343e6f61afc129060200161090f565b6111fe6115d8565b61120857336105fb565b818161121482826116d0565b61121f888585611732565b60035460405163095ea7b360e01b81526001600160a01b038981166004830152602482018b90529091169063095ea7b3906044016020604051808303815f875af115801561126f573d5f5f3e3d5ffd5b505050506040513d601f19601f82011682018060405250810190611293919061224d565b50604051632db6d39960e01b81526001600160a01b03881690632db6d399906112c4908b908a908a906004016123c8565b5f604051808303815f87803b1580156112db575f5ffd5b505af11580156112ed573d5f5f3e3d5ffd5b5050600354604080516001600160a01b039283168152602081018d9052918b1693503092507f9f784fc02a186f1c98b2d9f15fda084da27cdd291a3785d978f91911d880516b910160405180910390a35050505050505050565b60408051610120810182525f8082526020820181905291810182905260608082018390526080820183905260a0820183905260c082015260e081018290526101008101919091526040805161012081018252600180546001600160a01b0390811683526002548116602084015260035416928201929092526004546060820152600554608082015260065460a08201526007805491929160c0840191906113ed906121fa565b80601f0160208091040260200160405190810160405280929190818152602001828054611419906121fa565b80156114645780601f1061143b57610100808354040283529160200191611464565b820191905f5260205f20905b81548152906001019060200180831161144757829003601f168201915b5050509183525050600782015460ff1615156020820152600890910154604090910152919050565b606080306001600160a01b031663117d8ae06040518163ffffffff1660e01b8152600401602060405180830381865afa1580156114cb573d5f5f3e3d5ffd5b505050506040513d601f19601f820116820180604052508101906114ef9190612232565b6001600160a01b0316336001600160a01b03161461150d5733610aca565b611515611661565b61151f8484611a4c565b6040519193509150611532908290612360565b6040518091039020826040516115489190612395565b604051908190038120907f3e3e7958121b3e39c7a49392d1aa9cdce870c2a059744f9e15cf66fff7865455905f90a361157f611832565b9250929050565b61158e6115d8565b61159857336105fb565b600180546001600160a01b03191690556040513381527f7cb941d7b1708e5b3bcd35ca960d6c6311188cec18886e5b67630552676b0487906020016111a5565b5f80546001600160a01b03166391d148546115f4600230610a1b565b336040516001600160e01b031960e085901b16815260048101929092526001600160a01b03166024820152604401602060405180830381865afa15801561163d573d5f5f3e3d5ffd5b505050506040513d601f19601f820116820180604052508101906104d4919061224d565b7f9b779b17422d0df92223018b32b4d1fa46e071723d6817e2486d003becc55f005c156116a157604051633ee5aeb560e01b815260040160405180910390fd5b6116ce60017f9b779b17422d0df92223018b32b4d1fa46e071723d6817e2486d003becc55f005b90611c81565b565b80158015906116e2575060085460ff16155b1561170057604051630cd0fdf960e01b815260040160405180910390fd5b80158015611710575060085460ff165b1561172e5760405163332863a960e11b815260040160405180910390fd5b5050565b600354604051631a4ca37b60e21b81526001600160a01b039182166004820152602481018590523060448201527f0000000000000000000000000000000000000000000000000000000000000000909116906369328dec906064016020604051808303815f875af11580156117a9573d5f5f3e3d5ffd5b505050506040513d601f19601f820116820180604052508101906117cd91906121e3565b50505050565b6040516001600160a01b038381166024830152604482018390526106b191859182169063a9059cbb906064015b604051602081830303815290604052915060e01b6020820180516001600160e01b038381831617835250505050611c88565b6116ce5f7f9b779b17422d0df92223018b32b4d1fa46e071723d6817e2486d003becc55f006116c8565b6040516001600160a01b0384811660248301528381166044830152606482018390526117cd9186918216906323b872dd90608401611800565b60035460405163095ea7b360e01b81526001600160a01b037f000000000000000000000000000000000000000000000000000000000000000081166004830152602482018690529091169063095ea7b3906044016020604051808303815f875af1158015611905573d5f5f3e3d5ffd5b505050506040513d601f19601f82011682018060405250810190611929919061224d565b5060035460405163617ba03760e01b81526001600160a01b039182166004820152602481018590523060448201525f60648201527f00000000000000000000000000000000000000000000000000000000000000009091169063617ba037906084015f604051808303815f87803b1580156119a2575f5ffd5b505af11580156119b4573d5f5f3e3d5ffd5b50505050505050565b604080516001600160a01b038416602482015260448082018490528251808303909101815260649091019091526020810180516001600160e01b031663095ea7b360e01b179052611a0e8482611cf4565b6117cd576040516001600160a01b0384811660248301525f6044830152611a4291869182169063095ea7b390606401611800565b6117cd8482611c88565b6040805160018082528183019092526060918291906020808301908036833750506040805160018082528183019092529294509050602080830190803683370190505090505f611a9e848601866123fd565b9050805f0151835f81518110611ab657611ab661234c565b6001600160a01b0392909216602092830291909101909101526040805160018082528183019092525f918160200160208202803683370190505090507f0000000000000000000000000000000000000000000000000000000000000000815f81518110611b2557611b2561234c565b6001600160a01b03928316602091820292909201015282516040516357b8988360e01b81527f0000000000000000000000000000000000000000000000000000000000000000909216916357b8988391611b869185915f1991600401612449565b6020604051808303815f875af1158015611ba2573d5f5f3e3d5ffd5b505050506040513d601f19601f82011682018060405250810190611bc691906121e3565b835f81518110611bd857611bd861234c565b602002602001018181525050611c25611bef61056c565b845f81518110611c0157611c0161234c565b6020026020010151845f01516001600160a01b03166117d39092919063ffffffff16565b82604051611c339190612360565b604051809103902084604051611c499190612395565b604051908190038120907f3e3e7958121b3e39c7a49392d1aa9cdce870c2a059744f9e15cf66fff7865455905f90a350509250929050565b80825d5050565b5f5f60205f8451602086015f885af180611ca7576040513d5f823e3d81fd5b50505f513d91508115611cbe578060011415611ccb565b6001600160a01b0384163b155b156117cd57604051635274afe760e01b81526001600160a01b038516600482015260240161061c565b5f5f5f5f60205f8651602088015f8a5af192503d91505f519050828015611d3357508115611d255780600114611d33565b5f866001600160a01b03163b115b9695505050505050565b5f81518084528060208401602086015e5f602082860101526020601f19601f83011685010191505092915050565b602081525f611d7d6020830184611d3d565b9392505050565b5f5f83601f840112611d94575f5ffd5b50813567ffffffffffffffff811115611dab575f5ffd5b60208301915083602082850101111561157f575f5ffd5b5f5f5f60408486031215611dd4575f5ffd5b83359250602084013567ffffffffffffffff811115611df1575f5ffd5b611dfd86828701611d84565b9497909650939450505050565b5f60208284031215611e1a575f5ffd5b5035919050565b6001600160a01b0381168114611e35575f5ffd5b50565b5f5f60408385031215611e49575f5ffd5b823560038110611e57575f5ffd5b91506020830135611e6781611e21565b809150509250929050565b634e487b7160e01b5f52604160045260245ffd5b604051601f8201601f1916810167ffffffffffffffff81118282101715611eaf57611eaf611e72565b604052919050565b5f60208284031215611ec7575f5ffd5b813567ffffffffffffffff811115611edd575f5ffd5b8201601f81018413611eed575f5ffd5b803567ffffffffffffffff811115611f0757611f07611e72565b8060051b611f1760208201611e86565b91825260208184018101929081019087841115611f32575f5ffd5b6020850194505b83851015611f605784359250611f4e83611e21565b82825260209485019490910190611f39565b979650505050505050565b5f8151808452602084019350602083015f5b82811015611fa45781516001600160a01b0316865260209586019590910190600101611f7d565b5093949350505050565b604081525f611fc06040830185611f6b565b82810360208401528084518083526020830191506020860192505f5b81811015611ffa578351835260209384019390920191600101611fdc565b50909695505050505050565b6001600160a01b038a81168252898116602083015288166040820152606081018790526080810186905260a0810185905261012060c082018190525f9061204f90830186611d3d565b93151560e0830152506101000152979650505050505050565b5f5f5f5f5f5f6080878903121561207d575f5ffd5b86359550602087013561208f81611e21565b9450604087013567ffffffffffffffff8111156120aa575f5ffd5b6120b689828a01611d84565b909550935050606087013567ffffffffffffffff8111156120d5575f5ffd5b6120e189828a01611d84565b979a9699509497509295939492505050565b6020815261210d6020820183516001600160a01b03169052565b5f602083015161212860408401826001600160a01b03169052565b5060408301516001600160a01b03811660608401525060608301516080830152608083015160a083015260a083015160c083015260c083015161012060e0840152612177610140840182611d3d565b905060e084015161218d61010085018215159052565b506101008401516101208401528091505092915050565b5f5f602083850312156121b5575f5ffd5b823567ffffffffffffffff8111156121cb575f5ffd5b6121d785828601611d84565b90969095509350505050565b5f602082840312156121f3575f5ffd5b5051919050565b600181811c9082168061220e57607f821691505b60208210810361222c57634e487b7160e01b5f52602260045260245ffd5b50919050565b5f60208284031215612242575f5ffd5b8151611d7d81611e21565b5f6020828403121561225d575f5ffd5b81518015158114611d7d575f5ffd5b5f6003841061228957634e487b7160e01b5f52602160045260245ffd5b5060f89290921b825260601b6bffffffffffffffffffffffff1916600182015260150190565b5f60a08284031280156122c0575f5ffd5b5060405160a0810167ffffffffffffffff811182821017156122e4576122e4611e72565b60405282516122f281611e21565b8152602083810151908201526040808401519082015260608084015190820152608083015161232081611e21565b60808201529392505050565b828152604060208201525f6123446040830184611d3d565b949350505050565b634e487b7160e01b5f52603260045260245ffd5b81515f90829060208501835b8281101561238a57815184526020938401939091019060010161236c565b509195945050505050565b81515f90829060208501835b8281101561238a5781516001600160a01b03168452602093840193909101906001016123a1565b83815260406020820152816040820152818360608301375f818301606090810191909152601f909201601f1916010192915050565b5f602082840312801561240e575f5ffd5b506040516020810167ffffffffffffffff8111828210171561243257612432611e72565b604052823561244081611e21565b81529392505050565b606081525f61245b6060830186611f6b565b6020830194909452506001600160a01b039190911660409091015291905056fea2646970667358221220ceee06f8b113b9e40adef6cf5569abaf2c30b807ce0bb59a22497832977ae4bd64736f6c634300081c0033","linkReferences":{}},"methodIdentifiers":{"aToken()":"a0c1f15e","aaveV3Pool()":"86a06ff0","board(uint256,bytes)":"2db6d399","commander()":"37270936","config()":"79502c55","configurationManager()":"c9c667e3","depositCap()":"dbd5edc7","disembark(uint256,bytes)":"13c408f8","generateRole(uint8,address)":"69b3054b","getConfig()":"c3f909d4","harborCommand()":"5b0f83f3","harvest(bytes)":"ce5c7f61","maxDepositPercentageOfTVL()":"bdcdd882","maxRebalanceInflow()":"ad5a356f","maxRebalanceOutflow()":"3194549e","move(uint256,address,bytes,bytes)":"c38a6f0b","name()":"06fdde03","raft()":"117d8ae0","registerFleetCommander()":"8a8b9976","requiresKeeperData()":"303dbaf3","rewardsController()":"6bb65f53","setDepositCap(uint256)":"86651203","setMaxDepositPercentageOfTVL(uint256)":"4fc7fac3","setMaxRebalanceInflow(uint256)":"92f5e832","setMaxRebalanceOutflow(uint256)":"61f5cd8b","sweep(address[])":"780469bb","tipJar()":"7aaceb95","token()":"fc0c546a","totalAssets()":"01e1d114","treasury()":"61d027b3","unregisterFleetCommander()":"ebf31131"},"id":198}