{"abi":[{"type":"constructor","inputs":[{"name":"_aaveV3Pool","type":"address","internalType":"address"},{"name":"_rewardsController","type":"address","internalType":"address"},{"name":"_params","type":"tuple","internalType":"struct ArkParams","components":[{"name":"name","type":"string","internalType":"string"},{"name":"details","type":"string","internalType":"string"},{"name":"accessManager","type":"address","internalType":"address"},{"name":"configurationManager","type":"address","internalType":"address"},{"name":"asset","type":"address","internalType":"address"},{"name":"depositCap","type":"uint256","internalType":"uint256"},{"name":"maxRebalanceOutflow","type":"uint256","internalType":"uint256"},{"name":"maxRebalanceInflow","type":"uint256","internalType":"uint256"},{"name":"requiresKeeperData","type":"bool","internalType":"bool"},{"name":"maxDepositPercentageOfTVL","type":"uint256","internalType":"Percentage"}]}],"stateMutability":"nonpayable"},{"type":"function","name":"aToken","inputs":[],"outputs":[{"name":"","type":"address","internalType":"address"}],"stateMutability":"view"},{"type":"function","name":"aaveV3Pool","inputs":[],"outputs":[{"name":"","type":"address","internalType":"contract IPoolV3"}],"stateMutability":"view"},{"type":"function","name":"asset","inputs":[],"outputs":[{"name":"","type":"address","internalType":"contract IERC20"}],"stateMutability":"view"},{"type":"function","name":"board","inputs":[{"name":"amount","type":"uint256","internalType":"uint256"},{"name":"boardData","type":"bytes","internalType":"bytes"}],"outputs":[],"stateMutability":"nonpayable"},{"type":"function","name":"commander","inputs":[],"outputs":[{"name":"","type":"address","internalType":"address"}],"stateMutability":"view"},{"type":"function","name":"config","inputs":[],"outputs":[{"name":"commander","type":"address","internalType":"address"},{"name":"raft","type":"address","internalType":"address"},{"name":"asset","type":"address","internalType":"contract IERC20"},{"name":"depositCap","type":"uint256","internalType":"uint256"},{"name":"maxRebalanceOutflow","type":"uint256","internalType":"uint256"},{"name":"maxRebalanceInflow","type":"uint256","internalType":"uint256"},{"name":"name","type":"string","internalType":"string"},{"name":"details","type":"string","internalType":"string"},{"name":"requiresKeeperData","type":"bool","internalType":"bool"},{"name":"maxDepositPercentageOfTVL","type":"uint256","internalType":"Percentage"}],"stateMutability":"view"},{"type":"function","name":"configurationManager","inputs":[],"outputs":[{"name":"","type":"address","internalType":"contract IConfigurationManager"}],"stateMutability":"view"},{"type":"function","name":"depositCap","inputs":[],"outputs":[{"name":"","type":"uint256","internalType":"uint256"}],"stateMutability":"view"},{"type":"function","name":"disembark","inputs":[{"name":"amount","type":"uint256","internalType":"uint256"},{"name":"disembarkData","type":"bytes","internalType":"bytes"}],"outputs":[],"stateMutability":"nonpayable"},{"type":"function","name":"fleetCommanderRewardsManagerFactory","inputs":[],"outputs":[{"name":"","type":"address","internalType":"address"}],"stateMutability":"view"},{"type":"function","name":"generateRole","inputs":[{"name":"roleName","type":"uint8","internalType":"enum ContractSpecificRoles"},{"name":"roleTargetContract","type":"address","internalType":"address"}],"outputs":[{"name":"","type":"bytes32","internalType":"bytes32"}],"stateMutability":"pure"},{"type":"function","name":"getConfig","inputs":[],"outputs":[{"name":"","type":"tuple","internalType":"struct ArkConfig","components":[{"name":"commander","type":"address","internalType":"address"},{"name":"raft","type":"address","internalType":"address"},{"name":"asset","type":"address","internalType":"contract IERC20"},{"name":"depositCap","type":"uint256","internalType":"uint256"},{"name":"maxRebalanceOutflow","type":"uint256","internalType":"uint256"},{"name":"maxRebalanceInflow","type":"uint256","internalType":"uint256"},{"name":"name","type":"string","internalType":"string"},{"name":"details","type":"string","internalType":"string"},{"name":"requiresKeeperData","type":"bool","internalType":"bool"},{"name":"maxDepositPercentageOfTVL","type":"uint256","internalType":"Percentage"}]}],"stateMutability":"view"},{"type":"function","name":"harborCommand","inputs":[],"outputs":[{"name":"","type":"address","internalType":"address"}],"stateMutability":"view"},{"type":"function","name":"harvest","inputs":[{"name":"additionalData","type":"bytes","internalType":"bytes"}],"outputs":[{"name":"rewardTokens","type":"address[]","internalType":"address[]"},{"name":"rewardAmounts","type":"uint256[]","internalType":"uint256[]"}],"stateMutability":"nonpayable"},{"type":"function","name":"hasAdmiralsQuartersRole","inputs":[{"name":"account","type":"address","internalType":"address"}],"outputs":[{"name":"","type":"bool","internalType":"bool"}],"stateMutability":"view"},{"type":"function","name":"maxDepositPercentageOfTVL","inputs":[],"outputs":[{"name":"","type":"uint256","internalType":"Percentage"}],"stateMutability":"view"},{"type":"function","name":"maxRebalanceInflow","inputs":[],"outputs":[{"name":"","type":"uint256","internalType":"uint256"}],"stateMutability":"view"},{"type":"function","name":"maxRebalanceOutflow","inputs":[],"outputs":[{"name":"","type":"uint256","internalType":"uint256"}],"stateMutability":"view"},{"type":"function","name":"move","inputs":[{"name":"amount","type":"uint256","internalType":"uint256"},{"name":"receiverArk","type":"address","internalType":"address"},{"name":"boardData","type":"bytes","internalType":"bytes"},{"name":"disembarkData","type":"bytes","internalType":"bytes"}],"outputs":[],"stateMutability":"nonpayable"},{"type":"function","name":"name","inputs":[],"outputs":[{"name":"","type":"string","internalType":"string"}],"stateMutability":"view"},{"type":"function","name":"raft","inputs":[],"outputs":[{"name":"","type":"address","internalType":"address"}],"stateMutability":"view"},{"type":"function","name":"registerFleetCommander","inputs":[],"outputs":[],"stateMutability":"nonpayable"},{"type":"function","name":"requiresKeeperData","inputs":[],"outputs":[{"name":"","type":"bool","internalType":"bool"}],"stateMutability":"view"},{"type":"function","name":"rewardsController","inputs":[],"outputs":[{"name":"","type":"address","internalType":"contract IRewardsController"}],"stateMutability":"view"},{"type":"function","name":"setDepositCap","inputs":[{"name":"newDepositCap","type":"uint256","internalType":"uint256"}],"outputs":[],"stateMutability":"nonpayable"},{"type":"function","name":"setMaxDepositPercentageOfTVL","inputs":[{"name":"newMaxDepositPercentageOfTVL","type":"uint256","internalType":"Percentage"}],"outputs":[],"stateMutability":"nonpayable"},{"type":"function","name":"setMaxRebalanceInflow","inputs":[{"name":"newMaxRebalanceInflow","type":"uint256","internalType":"uint256"}],"outputs":[],"stateMutability":"nonpayable"},{"type":"function","name":"setMaxRebalanceOutflow","inputs":[{"name":"newMaxRebalanceOutflow","type":"uint256","internalType":"uint256"}],"outputs":[],"stateMutability":"nonpayable"},{"type":"function","name":"sweep","inputs":[{"name":"tokens","type":"address[]","internalType":"address[]"}],"outputs":[{"name":"sweptTokens","type":"address[]","internalType":"address[]"},{"name":"sweptAmounts","type":"uint256[]","internalType":"uint256[]"}],"stateMutability":"nonpayable"},{"type":"function","name":"tipJar","inputs":[],"outputs":[{"name":"","type":"address","internalType":"address"}],"stateMutability":"view"},{"type":"function","name":"totalAssets","inputs":[],"outputs":[{"name":"","type":"uint256","internalType":"uint256"}],"stateMutability":"view"},{"type":"function","name":"treasury","inputs":[],"outputs":[{"name":"","type":"address","internalType":"address"}],"stateMutability":"view"},{"type":"function","name":"unregisterFleetCommander","inputs":[],"outputs":[],"stateMutability":"nonpayable"},{"type":"event","name":"ArkHarvested","inputs":[{"name":"rewardTokens","type":"address[]","indexed":true,"internalType":"address[]"},{"name":"rewardAmounts","type":"uint256[]","indexed":true,"internalType":"uint256[]"}],"anonymous":false},{"type":"event","name":"ArkPoked","inputs":[{"name":"currentPrice","type":"uint256","indexed":false,"internalType":"uint256"},{"name":"timestamp","type":"uint256","indexed":false,"internalType":"uint256"}],"anonymous":false},{"type":"event","name":"ArkSwept","inputs":[{"name":"sweptTokens","type":"address[]","indexed":true,"internalType":"address[]"},{"name":"sweptAmounts","type":"uint256[]","indexed":true,"internalType":"uint256[]"}],"anonymous":false},{"type":"event","name":"Boarded","inputs":[{"name":"commander","type":"address","indexed":true,"internalType":"address"},{"name":"token","type":"address","indexed":false,"internalType":"address"},{"name":"amount","type":"uint256","indexed":false,"internalType":"uint256"}],"anonymous":false},{"type":"event","name":"DepositCapUpdated","inputs":[{"name":"newCap","type":"uint256","indexed":false,"internalType":"uint256"}],"anonymous":false},{"type":"event","name":"Disembarked","inputs":[{"name":"commander","type":"address","indexed":true,"internalType":"address"},{"name":"token","type":"address","indexed":false,"internalType":"address"},{"name":"amount","type":"uint256","indexed":false,"internalType":"uint256"}],"anonymous":false},{"type":"event","name":"FleetCommanderRegistered","inputs":[{"name":"commander","type":"address","indexed":false,"internalType":"address"}],"anonymous":false},{"type":"event","name":"FleetCommanderUnregistered","inputs":[{"name":"commander","type":"address","indexed":false,"internalType":"address"}],"anonymous":false},{"type":"event","name":"MaxDepositPercentageOfTVLUpdated","inputs":[{"name":"newMaxDepositPercentageOfTVL","type":"uint256","indexed":false,"internalType":"Percentage"}],"anonymous":false},{"type":"event","name":"MaxRebalanceInflowUpdated","inputs":[{"name":"newMaxInflow","type":"uint256","indexed":false,"internalType":"uint256"}],"anonymous":false},{"type":"event","name":"MaxRebalanceOutflowUpdated","inputs":[{"name":"newMaxOutflow","type":"uint256","indexed":false,"internalType":"uint256"}],"anonymous":false},{"type":"event","name":"Moved","inputs":[{"name":"from","type":"address","indexed":true,"internalType":"address"},{"name":"to","type":"address","indexed":true,"internalType":"address"},{"name":"token","type":"address","indexed":false,"internalType":"address"},{"name":"amount","type":"uint256","indexed":false,"internalType":"uint256"}],"anonymous":false},{"type":"event","name":"RaftUpdated","inputs":[{"name":"newRaft","type":"address","indexed":false,"internalType":"address"}],"anonymous":false},{"type":"error","name":"CallerIsNotAdmin","inputs":[{"name":"caller","type":"address","internalType":"address"}]},{"type":"error","name":"CallerIsNotAuthorizedToBoard","inputs":[{"name":"caller","type":"address","internalType":"address"}]},{"type":"error","name":"CallerIsNotCommander","inputs":[{"name":"caller","type":"address","internalType":"address"}]},{"type":"error","name":"CallerIsNotContractSpecificRole","inputs":[{"name":"caller","type":"address","internalType":"address"},{"name":"role","type":"bytes32","internalType":"bytes32"}]},{"type":"error","name":"CallerIsNotCurator","inputs":[{"name":"caller","type":"address","internalType":"address"}]},{"type":"error","name":"CallerIsNotDecayController","inputs":[{"name":"caller","type":"address","internalType":"address"}]},{"type":"error","name":"CallerIsNotGovernor","inputs":[{"name":"caller","type":"address","internalType":"address"}]},{"type":"error","name":"CallerIsNotGuardian","inputs":[{"name":"caller","type":"address","internalType":"address"}]},{"type":"error","name":"CallerIsNotGuardianOrGovernor","inputs":[{"name":"caller","type":"address","internalType":"address"}]},{"type":"error","name":"CallerIsNotKeeper","inputs":[{"name":"caller","type":"address","internalType":"address"}]},{"type":"error","name":"CallerIsNotRaft","inputs":[{"name":"caller","type":"address","internalType":"address"}]},{"type":"error","name":"CallerIsNotRaftOrCommander","inputs":[{"name":"caller","type":"address","internalType":"address"}]},{"type":"error","name":"CallerIsNotSuperKeeper","inputs":[{"name":"caller","type":"address","internalType":"address"}]},{"type":"error","name":"CannotAddCommanderToArkWithCommander","inputs":[]},{"type":"error","name":"CannotDeployArkWithEmptyName","inputs":[]},{"type":"error","name":"CannotDeployArkWithoutConfigurationManager","inputs":[]},{"type":"error","name":"CannotDeployArkWithoutRaft","inputs":[]},{"type":"error","name":"CannotDeployArkWithoutToken","inputs":[]},{"type":"error","name":"CannotRemoveCommanderFromArkWithAssets","inputs":[]},{"type":"error","name":"CannotUseKeeperDataWhenNotRequired","inputs":[]},{"type":"error","name":"ConfigurationManagerZeroAddress","inputs":[]},{"type":"error","name":"DirectGrantIsDisabled","inputs":[{"name":"caller","type":"address","internalType":"address"}]},{"type":"error","name":"DirectRevokeIsDisabled","inputs":[{"name":"caller","type":"address","internalType":"address"}]},{"type":"error","name":"ERC4626AssetMismatch","inputs":[]},{"type":"error","name":"InvalidAccessManagerAddress","inputs":[{"name":"invalidAddress","type":"address","internalType":"address"}]},{"type":"error","name":"InvalidBoardData","inputs":[]},{"type":"error","name":"InvalidDisembarkData","inputs":[]},{"type":"error","name":"InvalidVaultAddress","inputs":[]},{"type":"error","name":"KeeperDataRequired","inputs":[]},{"type":"error","name":"ReentrancyGuardReentrantCall","inputs":[]},{"type":"error","name":"SafeERC20FailedOperation","inputs":[{"name":"token","type":"address","internalType":"address"}]}],"bytecode":{"object":"0x610100604052348015610010575f5ffd5b506040516131aa3803806131aa83398101604081905261002f9161052d565b6060810151604082015182918291806001600160a01b03811661006c576040516347bd7c1d60e01b81525f60048201526024015b60405180910390fd5b6040516301ffc9a760e01b81526338c7ccdb60e01b60048201526001600160a01b038216906301ffc9a790602401602060405180830381865afa1580156100b5573d5f5f3e3d5ffd5b505050506040513d601f19601f820116820180604052508101906100d99190610657565b610101576040516347bd7c1d60e01b81526001600160a01b0382166004820152602401610063565b5f80546001600160a01b0319166001600160a01b039283161790558216905061013d5760405163f1634df960e01b815260040160405180910390fd5b6001600160a01b0390811660805260608201511661016e5760405163b53c493160e01b815260040160405180910390fd5b60808101516001600160a01b031661019c576040516001620a810f60e11b0319815260040160405180910390fd5b8051515f036101be5760405163268c072960e01b815260040160405180910390fd5b5f6101c76103b2565b6001600160a01b0316036101ee57604051633a4f9cdb60e21b815260040160405180910390fd5b6040805161014081019091525f8152602081016102096103b2565b6001600160a01b039081168252608080850151821660208085019190915260a08087015160408087019190915260c08089015160608089019190915260e0808b0151878a01528a51858a01528a860151838a0152610100808c01511515918a01919091526101208b01519801979097528751600180549188166001600160a01b031992831617815594890151600280549189169183169190911790559188015160038054919097169216919091179094559385015160045590840151600555918301516006558201516007906102df90826106fb565b5060e082015160078201906102f490826106fb565b5061010082015160088201805460ff19169115159190911790556101209091015160099091015550506001600160a01b0383811660c08190526003546040516335ea6a7560e01b8152921660048301525f916335ea6a75906024016101e060405180830381865afa15801561036b573d5f5f3e3d5ffd5b505050506040513d601f19601f8201168201806040525081019061038f919061082f565b61010001516001600160a01b0390811660a0529290921660e05250610972915050565b5f6080516001600160a01b031663117d8ae06040518163ffffffff1660e01b8152600401602060405180830381865afa1580156103f1573d5f5f3e3d5ffd5b505050506040513d601f19601f820116820180604052508101906104159190610959565b905090565b80516001600160a01b0381168114610430575f5ffd5b919050565b634e487b7160e01b5f52604160045260245ffd5b60405161014081016001600160401b038111828210171561046c5761046c610435565b60405290565b6040516101e081016001600160401b038111828210171561046c5761046c610435565b5f82601f8301126104a4575f5ffd5b81516001600160401b038111156104bd576104bd610435565b604051601f8201601f19908116603f011681016001600160401b03811182821017156104eb576104eb610435565b604052818152838201602001851015610502575f5ffd5b8160208501602083015e5f918101602001919091529392505050565b80518015158114610430575f5ffd5b5f5f5f6060848603121561053f575f5ffd5b6105488461041a565b92506105566020850161041a565b60408501519092506001600160401b03811115610571575f5ffd5b84016101408187031215610583575f5ffd5b61058b610449565b81516001600160401b038111156105a0575f5ffd5b6105ac88828501610495565b82525060208201516001600160401b038111156105c7575f5ffd5b6105d388828501610495565b6020830152506105e56040830161041a565b60408201526105f66060830161041a565b60608201526106076080830161041a565b608082015260a0828101519082015260c0808301519082015260e08083015190820152610637610100830161051e565b610100820152610120918201519181019190915292959194509192509050565b5f60208284031215610667575f5ffd5b6106708261051e565b9392505050565b600181811c9082168061068b57607f821691505b6020821081036106a957634e487b7160e01b5f52602260045260245ffd5b50919050565b601f8211156106f657805f5260205f20601f840160051c810160208510156106d45750805b601f840160051c820191505b818110156106f3575f81556001016106e0565b50505b505050565b81516001600160401b0381111561071457610714610435565b610728816107228454610677565b846106af565b6020601f82116001811461075a575f83156107435750848201515b5f19600385901b1c1916600184901b1784556106f3565b5f84815260208120601f198516915b828110156107895787850151825560209485019460019092019101610769565b50848210156107a657868401515f19600387901b60f8161c191681555b50505050600190811b01905550565b5f602082840312156107c5575f5ffd5b604051602081016001600160401b03811182821017156107e7576107e7610435565b6040529151825250919050565b80516001600160801b0381168114610430575f5ffd5b805164ffffffffff81168114610430575f5ffd5b805161ffff81168114610430575f5ffd5b5f6101e0828403128015610841575f5ffd5b5061084a610472565b61085484846107b5565b8152610862602084016107f4565b6020820152610873604084016107f4565b6040820152610884606084016107f4565b6060820152610895608084016107f4565b60808201526108a660a084016107f4565b60a08201526108b760c0840161080a565b60c08201526108c860e0840161081e565b60e08201526108da610100840161041a565b6101008201526108ed610120840161041a565b610120820152610900610140840161041a565b610140820152610913610160840161041a565b61016082015261092661018084016107f4565b6101808201526109396101a084016107f4565b6101a082015261094c6101c084016107f4565b6101c08201529392505050565b5f60208284031215610969575f5ffd5b6106708261041a565b60805160a05160c05160e0516127b86109f25f395f81816102fd0152611e0301525f818161037e01528181611a1801528181611b660152611c1601525f81816103c0015281816104960152611dab01525f818161041f015281816105a201528181610950015281816109ad01528181611170015261183501526127b85ff3fe608060405234801561000f575f5ffd5b50600436106101f2575f3560e01c806379502c5511610114578063bdcdd882116100a9578063ce5c7f6111610079578063ce5c7f6114610441578063dbd5edc714610454578063ebc136d01461045c578063ebf311311461046f578063f7e533ec14610477575f5ffd5b8063bdcdd882146103ea578063c38a6f0b146103f2578063c3f909d414610405578063c9c667e31461041a575f5ffd5b80638a8b9976116100e45780638a8b9976146103a057806392f5e832146103a8578063a0c1f15e146103bb578063ad5a356f146103e2575f5ffd5b806379502c55146103405780637aaceb951461035e578063866512031461036657806386a06ff014610379575f5ffd5b806338d52e0f1161018a57806361f5cd8b1161015a57806361f5cd8b146102d257806369b3054b146102e55780636bb65f53146102f8578063780469bb1461031f575f5ffd5b806338d52e0f1461029e5780634fc7fac3146102af5780635b0f83f3146102c257806361d027b3146102ca575f5ffd5b80632db6d399116101c55780632db6d3991461025b578063303dbaf31461026e5780633194549e14610285578063372709361461028d575f5ffd5b806301e1d114146101f657806306fdde0314610211578063117d8ae01461022657806313c408f814610246575b5f5ffd5b6101fe61047f565b6040519081526020015b60405180910390f35b61021961050c565b6040516102089190612022565b61022e61059f565b6040516001600160a01b039091168152602001610208565b610259610254366004612079565b610620565b005b610259610269366004612079565b6106e9565b60095460ff165b6040519015158152602001610208565b6005546101fe565b6001546001600160a01b031661022e565b6003546001600160a01b031661022e565b6102596102bd3660046120c1565b6108ff565b61022e61094d565b61022e6109aa565b6102596102e03660046120c1565b610a07565b6101fe6102f33660046120ef565b610a4e565b61022e7f000000000000000000000000000000000000000000000000000000000000000081565b61033261032d36600461216e565b610a80565b604051610208929190612265565b610348611016565b6040516102089a999897969594939291906122bd565b61022e61116d565b6102596103743660046120c1565b6111ca565b61022e7f000000000000000000000000000000000000000000000000000000000000000081565b610259611211565b6102596103b63660046120c1565b61126e565b61022e7f000000000000000000000000000000000000000000000000000000000000000081565b6006546101fe565b600a546101fe565b610259610400366004612334565b6112b5565b61040d611406565b60405161020891906123bf565b61022e7f000000000000000000000000000000000000000000000000000000000000000081565b61033261044f366004612490565b6115ff565b6004546101fe565b61027561046a3660046124cf565b6116f9565b6102596117e0565b61022e611832565b6040516370a0823160e01b81523060048201525f907f00000000000000000000000000000000000000000000000000000000000000006001600160a01b0316906370a0823190602401602060405180830381865afa1580156104e3573d5f5f3e3d5ffd5b505050506040513d601f19601f8201168201806040525081019061050791906124ea565b905090565b60606001600601805461051e90612501565b80601f016020809104026020016040519081016040528092919081815260200182805461054a90612501565b80156105955780601f1061056c57610100808354040283529160200191610595565b820191905f5260205f20905b81548152906001019060200180831161057857829003601f168201915b5050505050905090565b5f7f00000000000000000000000000000000000000000000000000000000000000006001600160a01b031663117d8ae06040518163ffffffff1660e01b8152600401602060405180830381865afa1580156105fc573d5f5f3e3d5ffd5b505050506040513d601f19601f820116820180604052508101906105079190612539565b61062861188f565b61065857335b604051631564c0e160e11b81526001600160a01b0390911660048201526024015b60405180910390fd5b610660611918565b818161066c8282611987565b336106788686866119e9565b60035461068f906001600160a01b03168288611a8a565b600354604080516001600160a01b03928316815260208101899052918316917fd5e872c5ecfb1bb8820b2e6a20e31b883682282da886621541f71e31ec11947e910160405180910390a25050506106e4611ae9565b505050565b6106f1611918565b306001600160a01b031663372709366040518163ffffffff1660e01b8152600401602060405180830381865afa15801561072d573d5f5f3e3d5ffd5b505050506040513d601f19601f820116820180604052508101906107519190612539565b61075961188f565b610878575f3390505f306001600160a01b031663117d8ae06040518163ffffffff1660e01b8152600401602060405180830381865afa15801561079e573d5f5f3e3d5ffd5b505050506040513d601f19601f820116820180604052508101906107c29190612539565b6001600160a01b0316826001600160a01b0316149050806108755760405163d25dd10160e01b81526001600160a01b0383811660048301525f919085169063d25dd10190602401602060405180830381865afa158015610824573d5f5f3e3d5ffd5b505050506040513d601f19601f820116820180604052508101906108489190612554565b90508061087357604051638f7a567d60e01b81526001600160a01b038416600482015260240161064f565b505b50505b82826108848282611987565b600354339061089e906001600160a01b031682308a611b13565b6108a9878787611b4c565b600354604080516001600160a01b039283168152602081018a9052918316917fcbaa1442ac205415c9d69643e7b60ec73d1de35dbc807c21ec288c70ddc4207b910160405180910390a2505050506106e4611ae9565b61090761188f565b610911573361062e565b600a8190556040518181527fd3c6d0ab315f2f1352f036cd9f401b49e38e1b90907e195225e8105f9a0b6f02906020015b60405180910390a150565b5f7f00000000000000000000000000000000000000000000000000000000000000006001600160a01b0316635b0f83f36040518163ffffffff1660e01b8152600401602060405180830381865afa1580156105fc573d5f5f3e3d5ffd5b5f7f00000000000000000000000000000000000000000000000000000000000000006001600160a01b03166361d027b36040518163ffffffff1660e01b8152600401602060405180830381865afa1580156105fc573d5f5f3e3d5ffd5b610a0f61188f565b610a19573361062e565b60058190556040518181527ffbe2d5c01ea8ba5596d6c4e6c82c6d4a0a0ee1128689993a4a5ba0169273d69f90602001610942565b5f8282604051602001610a62929190612573565b60405160208183030381529060405280519060200120905092915050565b606080306001600160a01b031663117d8ae06040518163ffffffff1660e01b8152600401602060405180830381865afa158015610abf573d5f5f3e3d5ffd5b505050506040513d601f19601f82011682018060405250810190610ae39190612539565b6001600160a01b0316336001600160a01b031614610b2257335b604051631184b31b60e21b81526001600160a01b03909116600482015260240161064f565b610b2a611918565b825167ffffffffffffffff811115610b4457610b44612129565b604051908082528060200260200182016040528015610b6d578160200160208202803683370190505b509150825167ffffffffffffffff811115610b8a57610b8a612129565b604051908082528060200260200182016040528015610bb3578160200160208202803683370190505b506003546040516370a0823160e01b81523060048201529192505f916001600160a01b03909116906370a0823190602401602060405180830381865afa158015610bff573d5f5f3e3d5ffd5b505050506040513d601f19601f82011682018060405250810190610c2391906124ea565b1115610de757600154604080516330fe427560e21b815290515f926001600160a01b03169163c3f909d49160048083019260a09291908290030181865afa158015610c70573d5f5f3e3d5ffd5b505050506040513d601f19601f82011682018060405250810190610c9491906125b6565b516003546040516370a0823160e01b8152306004820152919250610d199183916001600160a01b0316906370a0823190602401602060405180830381865afa158015610ce2573d5f5f3e3d5ffd5b505050506040513d601f19601f82011682018060405250810190610d0691906124ea565b6003546001600160a01b03169190611c74565b6003546040516370a0823160e01b81523060048201526001600160a01b0383811692632db6d399929116906370a0823190602401602060405180830381865afa158015610d68573d5f5f3e3d5ffd5b505050506040513d601f19601f82011682018060405250810190610d8c91906124ea565b60405180602001604052805f8152506040518363ffffffff1660e01b8152600401610db8929190612633565b5f604051808303815f87803b158015610dcf575f5ffd5b505af1158015610de1573d5f5f3e3d5ffd5b50505050505b5f5b8351811015610fb5575f848281518110610e0557610e05612653565b60209081029190910101516040516370a0823160e01b81523060048201526001600160a01b03909116906370a0823190602401602060405180830381865afa158015610e53573d5f5f3e3d5ffd5b505050506040513d601f19601f82011682018060405250810190610e7791906124ea565b90508015610fac57610f40610e8a61059f565b868481518110610e9c57610e9c612653565b60209081029190910101516040516370a0823160e01b81523060048201526001600160a01b03909116906370a0823190602401602060405180830381865afa158015610eea573d5f5f3e3d5ffd5b505050506040513d601f19601f82011682018060405250810190610f0e91906124ea565b878581518110610f2057610f20612653565b60200260200101516001600160a01b0316611a8a9092919063ffffffff16565b848281518110610f5257610f52612653565b6020026020010151848381518110610f6c57610f6c612653565b60200260200101906001600160a01b031690816001600160a01b03168152505080838381518110610f9f57610f9f612653565b6020026020010181815250505b50600101610de9565b5080604051610fc49190612667565b604051809103902082604051610fda919061269c565b604051908190038120907f46b8771620f6acf56cb03d3e835ea8024c7dcbcf05fcc3f6ade9e19d1a3e212b905f90a3611011611ae9565b915091565b60018054600254600354600454600554600654600780546001600160a01b0397881698968816979095169593949293919261105090612501565b80601f016020809104026020016040519081016040528092919081815260200182805461107c90612501565b80156110c75780601f1061109e576101008083540402835291602001916110c7565b820191905f5260205f20905b8154815290600101906020018083116110aa57829003601f168201915b5050505050908060070180546110dc90612501565b80601f016020809104026020016040519081016040528092919081815260200182805461110890612501565b80156111535780601f1061112a57610100808354040283529160200191611153565b820191905f5260205f20905b81548152906001019060200180831161113657829003601f168201915b505050506008830154600990930154919260ff169190508a565b5f7f00000000000000000000000000000000000000000000000000000000000000006001600160a01b0316637aaceb956040518163ffffffff1660e01b8152600401602060405180830381865afa1580156105fc573d5f5f3e3d5ffd5b6111d261188f565b6111dc573361062e565b60048190556040518181527f333b26cca69716ad4680ddb07663f5bfb4f06045671f336af9a83690a3ae00f990602001610942565b61121961188f565b611223573361062e565b600180546001600160a01b031916339081179091556040519081527f55489ce0259bd691120d8860861be1c401c7c16a3cd268d21045756af4ecc5ca906020015b60405180910390a1565b61127661188f565b611280573361062e565b60068190556040518181527fb6ac66853c4e59c71e118d25ab494bb847c4e5eb0c8894898c5343e6f61afc1290602001610942565b6112bd61188f565b6112c7573361062e565b81816112d38282611987565b6112de8885856119e9565b60035460405163095ea7b360e01b81526001600160a01b038981166004830152602482018b90529091169063095ea7b3906044016020604051808303815f875af115801561132e573d5f5f3e3d5ffd5b505050506040513d601f19601f820116820180604052508101906113529190612554565b50604051632db6d39960e01b81526001600160a01b03881690632db6d39990611383908b908a908a906004016126cf565b5f604051808303815f87803b15801561139a575f5ffd5b505af11580156113ac573d5f5f3e3d5ffd5b5050600354604080516001600160a01b039283168152602081018d9052918b1693503092507f9f784fc02a186f1c98b2d9f15fda084da27cdd291a3785d978f91911d880516b910160405180910390a35050505050505050565b6114716040518061014001604052805f6001600160a01b031681526020015f6001600160a01b031681526020015f6001600160a01b031681526020015f81526020015f81526020015f815260200160608152602001606081526020015f151581526020015f81525090565b6040805161014081018252600180546001600160a01b0390811683526002548116602084015260035416928201929092526004546060820152600554608082015260065460a08201526007805491929160c0840191906114d090612501565b80601f01602080910402602001604051908101604052809291908181526020018280546114fc90612501565b80156115475780601f1061151e57610100808354040283529160200191611547565b820191905f5260205f20905b81548152906001019060200180831161152a57829003601f168201915b5050505050815260200160078201805461156090612501565b80601f016020809104026020016040519081016040528092919081815260200182805461158c90612501565b80156115d75780601f106115ae576101008083540402835291602001916115d7565b820191905f5260205f20905b8154815290600101906020018083116115ba57829003601f168201915b5050509183525050600882015460ff1615156020820152600990910154604090910152919050565b606080306001600160a01b031663117d8ae06040518163ffffffff1660e01b8152600401602060405180830381865afa15801561163e573d5f5f3e3d5ffd5b505050506040513d601f19601f820116820180604052508101906116629190612539565b6001600160a01b0316336001600160a01b0316146116805733610afd565b611688611918565b6116928484611d03565b60405191935091506116a5908290612667565b6040518091039020826040516116bb919061269c565b604051908190038120907f3e3e7958121b3e39c7a49392d1aa9cdce870c2a059744f9e15cf66fff7865455905f90a36116f2611ae9565b9250929050565b5f80546040805163a89f38a360e01b815290516001600160a01b03909216916391d1485491839163a89f38a3916004808201926020929091908290030181865afa158015611749573d5f5f3e3d5ffd5b505050506040513d601f19601f8201168201806040525081019061176d91906124ea565b6040516001600160e01b031960e084901b16815260048101919091526001600160a01b0385166024820152604401602060405180830381865afa1580156117b6573d5f5f3e3d5ffd5b505050506040513d601f19601f820116820180604052508101906117da9190612554565b92915050565b6117e861188f565b6117f2573361062e565b600180546001600160a01b03191690556040513381527f7cb941d7b1708e5b3bcd35ca960d6c6311188cec18886e5b67630552676b048790602001611264565b5f7f00000000000000000000000000000000000000000000000000000000000000006001600160a01b031663f7e533ec6040518163ffffffff1660e01b8152600401602060405180830381865afa1580156105fc573d5f5f3e3d5ffd5b5f80546001600160a01b03166391d148546118ab600230610a4e565b336040516001600160e01b031960e085901b16815260048101929092526001600160a01b03166024820152604401602060405180830381865afa1580156118f4573d5f5f3e3d5ffd5b505050506040513d601f19601f820116820180604052508101906105079190612554565b7f9b779b17422d0df92223018b32b4d1fa46e071723d6817e2486d003becc55f005c1561195857604051633ee5aeb560e01b815260040160405180910390fd5b61198560017f9b779b17422d0df92223018b32b4d1fa46e071723d6817e2486d003becc55f005b90611f38565b565b8015801590611999575060095460ff16155b156119b757604051630cd0fdf960e01b815260040160405180910390fd5b801580156119c7575060095460ff165b156119e55760405163332863a960e11b815260040160405180910390fd5b5050565b600354604051631a4ca37b60e21b81526001600160a01b039182166004820152602481018590523060448201527f0000000000000000000000000000000000000000000000000000000000000000909116906369328dec906064016020604051808303815f875af1158015611a60573d5f5f3e3d5ffd5b505050506040513d601f19601f82011682018060405250810190611a8491906124ea565b50505050565b6040516001600160a01b038381166024830152604482018390526106e491859182169063a9059cbb906064015b604051602081830303815290604052915060e01b6020820180516001600160e01b038381831617835250505050611f3f565b6119855f7f9b779b17422d0df92223018b32b4d1fa46e071723d6817e2486d003becc55f0061197f565b6040516001600160a01b038481166024830152838116604483015260648201839052611a849186918216906323b872dd90608401611ab7565b60035460405163095ea7b360e01b81526001600160a01b037f000000000000000000000000000000000000000000000000000000000000000081166004830152602482018690529091169063095ea7b3906044016020604051808303815f875af1158015611bbc573d5f5f3e3d5ffd5b505050506040513d601f19601f82011682018060405250810190611be09190612554565b5060035460405163617ba03760e01b81526001600160a01b039182166004820152602481018590523060448201525f60648201527f00000000000000000000000000000000000000000000000000000000000000009091169063617ba037906084015f604051808303815f87803b158015611c59575f5ffd5b505af1158015611c6b573d5f5f3e3d5ffd5b50505050505050565b604080516001600160a01b038416602482015260448082018490528251808303909101815260649091019091526020810180516001600160e01b031663095ea7b360e01b179052611cc58482611fab565b611a84576040516001600160a01b0384811660248301525f6044830152611cf991869182169063095ea7b390606401611ab7565b611a848482611f3f565b6040805160018082528183019092526060918291906020808301908036833750506040805160018082528183019092529294509050602080830190803683370190505090505f611d5584860186612704565b9050805f0151835f81518110611d6d57611d6d612653565b6001600160a01b0392909216602092830291909101909101526040805160018082528183019092525f918160200160208202803683370190505090507f0000000000000000000000000000000000000000000000000000000000000000815f81518110611ddc57611ddc612653565b6001600160a01b03928316602091820292909201015282516040516357b8988360e01b81527f0000000000000000000000000000000000000000000000000000000000000000909216916357b8988391611e3d9185915f1991600401612750565b6020604051808303815f875af1158015611e59573d5f5f3e3d5ffd5b505050506040513d601f19601f82011682018060405250810190611e7d91906124ea565b835f81518110611e8f57611e8f612653565b602002602001018181525050611edc611ea661059f565b845f81518110611eb857611eb8612653565b6020026020010151845f01516001600160a01b0316611a8a9092919063ffffffff16565b82604051611eea9190612667565b604051809103902084604051611f00919061269c565b604051908190038120907f3e3e7958121b3e39c7a49392d1aa9cdce870c2a059744f9e15cf66fff7865455905f90a350509250929050565b80825d5050565b5f5f60205f8451602086015f885af180611f5e576040513d5f823e3d81fd5b50505f513d91508115611f75578060011415611f82565b6001600160a01b0384163b155b15611a8457604051635274afe760e01b81526001600160a01b038516600482015260240161064f565b5f5f5f5f60205f8651602088015f8a5af192503d91505f519050828015611fea57508115611fdc5780600114611fea565b5f866001600160a01b03163b115b9695505050505050565b5f81518084528060208401602086015e5f602082860101526020601f19601f83011685010191505092915050565b602081525f6120346020830184611ff4565b9392505050565b5f5f83601f84011261204b575f5ffd5b50813567ffffffffffffffff811115612062575f5ffd5b6020830191508360208285010111156116f2575f5ffd5b5f5f5f6040848603121561208b575f5ffd5b83359250602084013567ffffffffffffffff8111156120a8575f5ffd5b6120b48682870161203b565b9497909650939450505050565b5f602082840312156120d1575f5ffd5b5035919050565b6001600160a01b03811681146120ec575f5ffd5b50565b5f5f60408385031215612100575f5ffd5b82356003811061210e575f5ffd5b9150602083013561211e816120d8565b809150509250929050565b634e487b7160e01b5f52604160045260245ffd5b604051601f8201601f1916810167ffffffffffffffff8111828210171561216657612166612129565b604052919050565b5f6020828403121561217e575f5ffd5b813567ffffffffffffffff811115612194575f5ffd5b8201601f810184136121a4575f5ffd5b803567ffffffffffffffff8111156121be576121be612129565b8060051b6121ce6020820161213d565b918252602081840181019290810190878411156121e9575f5ffd5b6020850194505b838510156122175784359250612205836120d8565b828252602094850194909101906121f0565b979650505050505050565b5f8151808452602084019350602083015f5b8281101561225b5781516001600160a01b0316865260209586019590910190600101612234565b5093949350505050565b604081525f6122776040830185612222565b82810360208401528084518083526020830191506020860192505f5b818110156122b1578351835260209384019390920191600101612293565b50909695505050505050565b6001600160a01b038b811682528a8116602083015289166040820152606081018890526080810187905260a0810186905261014060c082018190525f9061230690830187611ff4565b82810360e08401526123188187611ff4565b9415156101008401525050610120015298975050505050505050565b5f5f5f5f5f5f60808789031215612349575f5ffd5b86359550602087013561235b816120d8565b9450604087013567ffffffffffffffff811115612376575f5ffd5b61238289828a0161203b565b909550935050606087013567ffffffffffffffff8111156123a1575f5ffd5b6123ad89828a0161203b565b979a9699509497509295939492505050565b602081526123d96020820183516001600160a01b03169052565b5f60208301516123f460408401826001600160a01b03169052565b5060408301516001600160a01b03811660608401525060608301516080830152608083015160a083015260a083015160c083015260c083015161014060e0840152612443610160840182611ff4565b905060e0840151601f19848303016101008501526124618282611ff4565b91505061010084015161247961012085018215159052565b506101208401516101408401528091505092915050565b5f5f602083850312156124a1575f5ffd5b823567ffffffffffffffff8111156124b7575f5ffd5b6124c38582860161203b565b90969095509350505050565b5f602082840312156124df575f5ffd5b8135612034816120d8565b5f602082840312156124fa575f5ffd5b5051919050565b600181811c9082168061251557607f821691505b60208210810361253357634e487b7160e01b5f52602260045260245ffd5b50919050565b5f60208284031215612549575f5ffd5b8151612034816120d8565b5f60208284031215612564575f5ffd5b81518015158114612034575f5ffd5b5f6003841061259057634e487b7160e01b5f52602160045260245ffd5b5060f89290921b825260601b6bffffffffffffffffffffffff1916600182015260150190565b5f60a08284031280156125c7575f5ffd5b5060405160a0810167ffffffffffffffff811182821017156125eb576125eb612129565b60405282516125f9816120d8565b81526020838101519082015260408084015190820152606080840151908201526080830151612627816120d8565b60808201529392505050565b828152604060208201525f61264b6040830184611ff4565b949350505050565b634e487b7160e01b5f52603260045260245ffd5b81515f90829060208501835b82811015612691578151845260209384019390910190600101612673565b509195945050505050565b81515f90829060208501835b828110156126915781516001600160a01b03168452602093840193909101906001016126a8565b83815260406020820152816040820152818360608301375f818301606090810191909152601f909201601f1916010192915050565b5f6020828403128015612715575f5ffd5b506040516020810167ffffffffffffffff8111828210171561273957612739612129565b6040528235612747816120d8565b81529392505050565b606081525f6127626060830186612222565b6020830194909452506001600160a01b039190911660409091015291905056fea2646970667358221220c1fb85de80fa650331575a3bd4983f1d172dca903d97a0d89950cae282f81a0464736f6c634300081c0033","linkReferences":{}},"methodIdentifiers":{"aToken()":"a0c1f15e","aaveV3Pool()":"86a06ff0","asset()":"38d52e0f","board(uint256,bytes)":"2db6d399","commander()":"37270936","config()":"79502c55","configurationManager()":"c9c667e3","depositCap()":"dbd5edc7","disembark(uint256,bytes)":"13c408f8","fleetCommanderRewardsManagerFactory()":"f7e533ec","generateRole(uint8,address)":"69b3054b","getConfig()":"c3f909d4","harborCommand()":"5b0f83f3","harvest(bytes)":"ce5c7f61","hasAdmiralsQuartersRole(address)":"ebc136d0","maxDepositPercentageOfTVL()":"bdcdd882","maxRebalanceInflow()":"ad5a356f","maxRebalanceOutflow()":"3194549e","move(uint256,address,bytes,bytes)":"c38a6f0b","name()":"06fdde03","raft()":"117d8ae0","registerFleetCommander()":"8a8b9976","requiresKeeperData()":"303dbaf3","rewardsController()":"6bb65f53","setDepositCap(uint256)":"86651203","setMaxDepositPercentageOfTVL(uint256)":"4fc7fac3","setMaxRebalanceInflow(uint256)":"92f5e832","setMaxRebalanceOutflow(uint256)":"61f5cd8b","sweep(address[])":"780469bb","tipJar()":"7aaceb95","totalAssets()":"01e1d114","treasury()":"61d027b3","unregisterFleetCommander()":"ebf31131"},"id":206}