{"abi":[{"type":"constructor","inputs":[{"name":"_aaveV3Pool","type":"address","internalType":"address"},{"name":"_rewardsController","type":"address","internalType":"address"},{"name":"_params","type":"tuple","internalType":"struct ArkParams","components":[{"name":"accessManager","type":"address","internalType":"address"},{"name":"configurationManager","type":"address","internalType":"address"},{"name":"token","type":"address","internalType":"address"},{"name":"maxAllocation","type":"uint256","internalType":"uint256"}]}],"stateMutability":"nonpayable"},{"type":"function","name":"DEFAULT_ADMIN_ROLE","inputs":[],"outputs":[{"name":"","type":"bytes32","internalType":"bytes32"}],"stateMutability":"view"},{"type":"function","name":"RAY","inputs":[],"outputs":[{"name":"","type":"uint256","internalType":"uint256"}],"stateMutability":"view"},{"type":"function","name":"SECONDS_PER_YEAR","inputs":[],"outputs":[{"name":"","type":"uint256","internalType":"uint256"}],"stateMutability":"view"},{"type":"function","name":"WAD","inputs":[],"outputs":[{"name":"","type":"uint256","internalType":"uint256"}],"stateMutability":"view"},{"type":"function","name":"aToken","inputs":[],"outputs":[{"name":"","type":"address","internalType":"address"}],"stateMutability":"view"},{"type":"function","name":"aaveV3DataProvider","inputs":[],"outputs":[{"name":"","type":"address","internalType":"contract IPoolDataProvider"}],"stateMutability":"view"},{"type":"function","name":"aaveV3Pool","inputs":[],"outputs":[{"name":"","type":"address","internalType":"contract IPoolV3"}],"stateMutability":"view"},{"type":"function","name":"board","inputs":[{"name":"amount","type":"uint256","internalType":"uint256"}],"outputs":[],"stateMutability":"nonpayable"},{"type":"function","name":"commander","inputs":[],"outputs":[{"name":"","type":"address","internalType":"address"}],"stateMutability":"view"},{"type":"function","name":"disembark","inputs":[{"name":"amount","type":"uint256","internalType":"uint256"}],"outputs":[],"stateMutability":"nonpayable"},{"type":"function","name":"getRoleAdmin","inputs":[{"name":"role","type":"bytes32","internalType":"bytes32"}],"outputs":[{"name":"","type":"bytes32","internalType":"bytes32"}],"stateMutability":"view"},{"type":"function","name":"grantCommanderRole","inputs":[{"name":"account","type":"address","internalType":"address"}],"outputs":[],"stateMutability":"nonpayable"},{"type":"function","name":"grantRole","inputs":[{"name":"","type":"bytes32","internalType":"bytes32"},{"name":"","type":"address","internalType":"address"}],"outputs":[],"stateMutability":"view"},{"type":"function","name":"harvest","inputs":[{"name":"rewardToken","type":"address","internalType":"address"},{"name":"additionalData","type":"bytes","internalType":"bytes"}],"outputs":[{"name":"","type":"uint256","internalType":"uint256"}],"stateMutability":"nonpayable"},{"type":"function","name":"hasRole","inputs":[{"name":"role","type":"bytes32","internalType":"bytes32"},{"name":"account","type":"address","internalType":"address"}],"outputs":[{"name":"","type":"bool","internalType":"bool"}],"stateMutability":"view"},{"type":"function","name":"manager","inputs":[],"outputs":[{"name":"","type":"address","internalType":"contract IConfigurationManager"}],"stateMutability":"view"},{"type":"function","name":"maxAllocation","inputs":[],"outputs":[{"name":"","type":"uint256","internalType":"uint256"}],"stateMutability":"view"},{"type":"function","name":"move","inputs":[{"name":"amount","type":"uint256","internalType":"uint256"},{"name":"receiverArk","type":"address","internalType":"address"}],"outputs":[],"stateMutability":"nonpayable"},{"type":"function","name":"poke","inputs":[],"outputs":[],"stateMutability":"nonpayable"},{"type":"function","name":"raft","inputs":[],"outputs":[{"name":"","type":"address","internalType":"address"}],"stateMutability":"view"},{"type":"function","name":"rate","inputs":[],"outputs":[{"name":"","type":"uint256","internalType":"uint256"}],"stateMutability":"view"},{"type":"function","name":"renounceRole","inputs":[{"name":"role","type":"bytes32","internalType":"bytes32"},{"name":"callerConfirmation","type":"address","internalType":"address"}],"outputs":[],"stateMutability":"nonpayable"},{"type":"function","name":"revokeCommanderRole","inputs":[{"name":"account","type":"address","internalType":"address"}],"outputs":[],"stateMutability":"nonpayable"},{"type":"function","name":"revokeRole","inputs":[{"name":"","type":"bytes32","internalType":"bytes32"},{"name":"","type":"address","internalType":"address"}],"outputs":[],"stateMutability":"view"},{"type":"function","name":"rewardsController","inputs":[],"outputs":[{"name":"","type":"address","internalType":"contract IRewardsController"}],"stateMutability":"view"},{"type":"function","name":"setMaxAllocation","inputs":[{"name":"newMaxAllocation","type":"uint256","internalType":"uint256"}],"outputs":[],"stateMutability":"nonpayable"},{"type":"function","name":"supportsInterface","inputs":[{"name":"interfaceId","type":"bytes4","internalType":"bytes4"}],"outputs":[{"name":"","type":"bool","internalType":"bool"}],"stateMutability":"view"},{"type":"function","name":"token","inputs":[],"outputs":[{"name":"","type":"address","internalType":"contract IERC20"}],"stateMutability":"view"},{"type":"function","name":"totalAssets","inputs":[],"outputs":[{"name":"","type":"uint256","internalType":"uint256"}],"stateMutability":"view"},{"type":"event","name":"ArkPoked","inputs":[{"name":"currentPrice","type":"uint256","indexed":false,"internalType":"uint256"},{"name":"timestamp","type":"uint256","indexed":false,"internalType":"uint256"}],"anonymous":false},{"type":"event","name":"ArkPokedNoChange","inputs":[],"anonymous":false},{"type":"event","name":"ArkPokedTooSoon","inputs":[],"anonymous":false},{"type":"event","name":"Boarded","inputs":[{"name":"commander","type":"address","indexed":true,"internalType":"address"},{"name":"token","type":"address","indexed":false,"internalType":"address"},{"name":"amount","type":"uint256","indexed":false,"internalType":"uint256"}],"anonymous":false},{"type":"event","name":"DepositCapUpdated","inputs":[{"name":"newCap","type":"uint256","indexed":false,"internalType":"uint256"}],"anonymous":false},{"type":"event","name":"Disembarked","inputs":[{"name":"commander","type":"address","indexed":true,"internalType":"address"},{"name":"token","type":"address","indexed":false,"internalType":"address"},{"name":"amount","type":"uint256","indexed":false,"internalType":"uint256"}],"anonymous":false},{"type":"event","name":"Harvested","inputs":[{"name":"amount","type":"uint256","indexed":false,"internalType":"uint256"}],"anonymous":false},{"type":"event","name":"MaxAllocationUpdated","inputs":[{"name":"newMaxAllocation","type":"uint256","indexed":false,"internalType":"uint256"}],"anonymous":false},{"type":"event","name":"Moved","inputs":[{"name":"from","type":"address","indexed":true,"internalType":"address"},{"name":"to","type":"address","indexed":true,"internalType":"address"},{"name":"token","type":"address","indexed":false,"internalType":"address"},{"name":"amount","type":"uint256","indexed":false,"internalType":"uint256"}],"anonymous":false},{"type":"event","name":"RaftUpdated","inputs":[{"name":"newRaft","type":"address","indexed":false,"internalType":"address"}],"anonymous":false},{"type":"event","name":"RoleAdminChanged","inputs":[{"name":"role","type":"bytes32","indexed":true,"internalType":"bytes32"},{"name":"previousAdminRole","type":"bytes32","indexed":true,"internalType":"bytes32"},{"name":"newAdminRole","type":"bytes32","indexed":true,"internalType":"bytes32"}],"anonymous":false},{"type":"event","name":"RoleGranted","inputs":[{"name":"role","type":"bytes32","indexed":true,"internalType":"bytes32"},{"name":"account","type":"address","indexed":true,"internalType":"address"},{"name":"sender","type":"address","indexed":true,"internalType":"address"}],"anonymous":false},{"type":"event","name":"RoleRevoked","inputs":[{"name":"role","type":"bytes32","indexed":true,"internalType":"bytes32"},{"name":"account","type":"address","indexed":true,"internalType":"address"},{"name":"sender","type":"address","indexed":true,"internalType":"address"}],"anonymous":false},{"type":"error","name":"AccessControlBadConfirmation","inputs":[]},{"type":"error","name":"AccessControlUnauthorizedAccount","inputs":[{"name":"account","type":"address","internalType":"address"},{"name":"neededRole","type":"bytes32","internalType":"bytes32"}]},{"type":"error","name":"AddressEmptyCode","inputs":[{"name":"target","type":"address","internalType":"address"}]},{"type":"error","name":"AddressInsufficientBalance","inputs":[{"name":"account","type":"address","internalType":"address"}]},{"type":"error","name":"CallerIsNotAuthorizedToBoard","inputs":[{"name":"caller","type":"address","internalType":"address"}]},{"type":"error","name":"CallerIsNotCommander","inputs":[{"name":"caller","type":"address","internalType":"address"}]},{"type":"error","name":"CallerIsNotGovernor","inputs":[{"name":"caller","type":"address","internalType":"address"}]},{"type":"error","name":"CannotAddCommanderToArkWithCommander","inputs":[]},{"type":"error","name":"CannotRemoveCommanderFromArkWithAssets","inputs":[]},{"type":"error","name":"DirectGrantIsDisabled","inputs":[{"name":"caller","type":"address","internalType":"address"}]},{"type":"error","name":"DirectRevokeIsDisabled","inputs":[{"name":"caller","type":"address","internalType":"address"}]},{"type":"error","name":"FailedInnerCall","inputs":[]},{"type":"error","name":"InvalidAccessManagerAddress","inputs":[{"name":"invalidAddress","type":"address","internalType":"address"}]},{"type":"error","name":"InvalidVaultAddress","inputs":[]},{"type":"error","name":"SafeERC20FailedOperation","inputs":[{"name":"token","type":"address","internalType":"address"}]}],"bytecode":{"object":"0x608060405234801561000f575f80fd5b50604051611eee380380611eee83398101604081905261002e916103b3565b80518190806001600160a01b038116610061576040516347bd7c1d60e01b81525f60048201526024015b60405180910390fd5b6040516301ffc9a760e01b815263f87138b560e01b60048201526001600160a01b038216906301ffc9a790602401602060405180830381865afa1580156100aa573d5f803e3d5ffd5b505050506040513d601f19601f820116820180604052508101906100ce9190610471565b6100f6576040516347bd7c1d60e01b81526001600160a01b0382166004820152602401610058565b5f80546001600160a01b03199081166001600160a01b03938416178255602085810151600680549093169416938417909155606085015160035560408051628bec5760e51b8152905193945063117d8ae093600480830194919283900301908290875af1158015610169573d5f803e3d5ffd5b505050506040513d601f19601f8201168201806040525081019061018d9190610497565b600280546001600160a01b03199081166001600160a01b0393841617909155604092830151600480548316918416919091178155600780549092169287169283179091558251630150a5d760e21b815292515f93630542975c92818101926020929091908290030181865afa158015610208573d5f803e3d5ffd5b505050506040513d601f19601f8201168201806040525081019061022c9190610497565b9050806001600160a01b031663e860accb6040518163ffffffff1660e01b8152600401602060405180830381865afa15801561026a573d5f803e3d5ffd5b505050506040513d601f19601f8201168201806040525081019061028e9190610497565b600880546001600160a01b0319166001600160a01b03928316179055600754600480546040516335ea6a7560e01b8152908416918101919091525f9291909116906335ea6a75906024016101e060405180830381865afa1580156102f4573d5f803e3d5ffd5b505050506040513d601f19601f820116820180604052508101906103189190610538565b6101000151600980546001600160a01b039283166001600160a01b031991821617909155600a8054969092169516949094179093555061066292505050565b6001600160a01b038116811461036b575f80fd5b50565b805161037981610357565b919050565b6040516101e081016001600160401b03811182821017156103ad57634e487b7160e01b5f52604160045260245ffd5b60405290565b5f805f83850360c08112156103c6575f80fd5b84516103d181610357565b60208601519094506103e281610357565b92506080603f19820112156103f5575f80fd5b50604051608081016001600160401b038111828210171561042457634e487b7160e01b5f52604160045260245ffd5b604090815285015161043581610357565b8152606085015161044581610357565b6020820152608085015161045881610357565b604082015260a094909401516060850152509093909250565b5f60208284031215610481575f80fd5b81518015158114610490575f80fd5b9392505050565b5f602082840312156104a7575f80fd5b815161049081610357565b5f602082840312156104c2575f80fd5b604051602081016001600160401b03811182821017156104f057634e487b7160e01b5f52604160045260245ffd5b6040529151825250919050565b80516001600160801b0381168114610379575f80fd5b805164ffffffffff81168114610379575f80fd5b805161ffff81168114610379575f80fd5b5f6101e082840312801561054a575f80fd5b5061055361037e565b61055d84846104b2565b815261056b602084016104fd565b602082015261057c604084016104fd565b604082015261058d606084016104fd565b606082015261059e608084016104fd565b60808201526105af60a084016104fd565b60a08201526105c060c08401610513565b60c08201526105d160e08401610527565b60e08201526105e3610100840161036e565b6101008201526105f6610120840161036e565b610120820152610609610140840161036e565b61014082015261061c610160840161036e565b61016082015261062f61018084016104fd565b6101808201526106426101a084016104fd565b6101a08201526106556101c084016104fd565b6101c08201529392505050565b61187f8061066f5f395ff3fe608060405234801561000f575f80fd5b50600436106101c6575f3560e01c80636bb65f53116100fe5780639b3ba79f1161009e578063d547741f1161006e578063d547741f146103af578063d8a8e03a146103c2578063e6a69ab8146103d5578063fc0c546a146103e0575f80fd5b80639b3ba79f14610379578063a0c1f15e14610382578063a217fddf14610395578063cce47e551461039c575f80fd5b806381d3ce26116100d957806381d3ce261461032d57806386a06ff01461034057806391d14854146103535780639403e41f14610366575f80fd5b80636bb65f53146102f457806372f12344146103075780637399bfe81461031a575f80fd5b80632f2ff15d11610169578063481c6a7511610144578063481c6a75146102ac5780634dd47eba146102bf578063552033c4146102d25780636a146024146102e5575f80fd5b80632f2ff15d1461027357806336568abe146102865780633727093614610299575f80fd5b806318178358116101a45780631817835814610233578063248a9ca31461023557806328ed6e3f146102585780632c4e722e1461026b575f80fd5b806301e1d114146101ca57806301ffc9a7146101e5578063117d8ae014610208575b5f80fd5b6101d26103f3565b6040519081526020015b60405180910390f35b6101f86101f3366004611538565b610462565b60405190151581526020016101dc565b60025461021b906001600160a01b031681565b6040516001600160a01b0390911681526020016101dc565b005b6101d261024336600461155f565b5f908152600160208190526040909120015490565b61023361026636600461155f565b610498565b6101d261063b565b61023361028136600461158a565b6106c3565b61023361029436600461158a565b6106de565b60055461021b906001600160a01b031681565b60065461021b906001600160a01b031681565b6102336102cd36600461155f565b610716565b6101d26b033b2e3c9fd0803ce800000081565b6101d2670de0b6b3a764000081565b600a5461021b906001600160a01b031681565b61023361031536600461155f565b6107ac565b6101d26103283660046115b8565b61080e565b61023361033b366004611638565b61089f565b60075461021b906001600160a01b031681565b6101f861036136600461158a565b610a14565b610233610374366004611638565b610a3e565b6101d260035481565b60095461021b906001600160a01b031681565b6101d25f81565b60085461021b906001600160a01b031681565b6102336103bd36600461158a565b610baf565b6102336103d036600461158a565b610bca565b6101d26301e1338081565b60045461021b906001600160a01b031681565b6009546040516370a0823160e01b81523060048201525f916001600160a01b0316906370a0823190602401602060405180830381865afa158015610439573d5f803e3d5ffd5b505050506040513d601f19601f8201168201806040525081019061045d9190611653565b905090565b5f6001600160e01b03198216637965db0b60e01b148061049257506301ffc9a760e01b6001600160e01b03198316145b92915050565b6005546001600160a01b03166104ac610d16565b6105c9575f3390505f306001600160a01b031663117d8ae06040518163ffffffff1660e01b8152600401602060405180830381865afa1580156104f1573d5f803e3d5ffd5b505050506040513d601f19601f82011682018060405250810190610515919061166a565b60405163d25dd10160e01b81526001600160a01b038481166004830181905292811690921492505f9185169063d25dd10190602401602060405180830381865afa158015610565573d5f803e3d5ffd5b505050506040513d601f19601f820116820180604052508101906105899190611685565b905080158015610597575081155b156105c557604051638f7a567d60e01b81526001600160a01b03841660048201526024015b60405180910390fd5b5050505b60045433906105e3906001600160a01b0316823086610d89565b6105ec83610df6565b600454604080516001600160a01b03928316815260208101869052918316917fcbaa1442ac205415c9d69643e7b60ec73d1de35dbc807c21ec288c70ddc4207b910160405180910390a2505050565b600854600480546040516335ea6a7560e01b81526001600160a01b03918216928101929092525f9283929116906335ea6a759060240161018060405180830381865afa15801561068d573d5f803e3d5ffd5b505050506040513d601f19601f820116820180604052508101906106b191906116a4565b50949c9b505050505050505050505050565b604051630e15200f60e21b81523360048201526024016105bc565b6001600160a01b03811633146107075760405163334bd91960e11b815260040160405180910390fd5b6107118282610ee5565b505050565b61071e610d16565b61073d57604051631564c0e160e11b81523360048201526024016105bc565b3361074782610f57565b60045461075e906001600160a01b03168284610fd7565b600454604080516001600160a01b03928316815260208101859052918316917fd5e872c5ecfb1bb8820b2e6a20e31b883682282da886621541f71e31ec11947e910160405180910390a25050565b6107b4610d16565b6107d357604051631564c0e160e11b81523360048201526024016105bc565b60038190556040518181527ff71dfae69e41913414884e69a96ee28ef3f1ce5593bee0fb570cf9404e41a8089060200160405180910390a150565b5f61088a60065f9054906101000a90046001600160a01b03166001600160a01b031663117d8ae06040518163ffffffff1660e01b81526004016020604051808303815f875af1158015610863573d5f803e3d5ffd5b505050506040513d601f19601f82011682018060405250810190610887919061166a565b50565b610895848484611008565b90505b9392505050565b5f5460408051630ccc574960e41b815290516001600160a01b03909216916391d1485491839163ccc57490916004808201926020929091908290030181865afa1580156108ee573d5f803e3d5ffd5b505050506040513d601f19601f820116820180604052508101906109129190611653565b6040516001600160e01b031960e084901b1681526004810191909152336024820152604401602060405180830381865afa158015610952573d5f803e3d5ffd5b505050506040513d601f19601f820116820180604052508101906109769190611685565b61099557604051630ea7d7ed60e21b81523360048201526024016105bc565b61099e81611191565b5f54604080516345b817bb60e01b81529051610a10926001600160a01b0316916345b817bb9160048083019260209291908290030181865afa1580156109e6573d5f803e3d5ffd5b505050506040513d601f19601f82011682018060405250810190610a0a9190611653565b82610ee5565b5050565b5f9182526001602090815260408084206001600160a01b0393909316845291905290205460ff1690565b5f5460408051630ccc574960e41b815290516001600160a01b03909216916391d1485491839163ccc57490916004808201926020929091908290030181865afa158015610a8d573d5f803e3d5ffd5b505050506040513d601f19601f82011682018060405250810190610ab19190611653565b6040516001600160e01b031960e084901b1681526004810191909152336024820152604401602060405180830381865afa158015610af1573d5f803e3d5ffd5b505050506040513d601f19601f82011682018060405250810190610b159190611685565b610b3457604051630ea7d7ed60e21b81523360048201526024016105bc565b610b3d81611224565b5f54604080516345b817bb60e01b81529051610a10926001600160a01b0316916345b817bb9160048083019260209291908290030181865afa158015610b85573d5f803e3d5ffd5b505050506040513d601f19601f82011682018060405250810190610ba99190611653565b82611366565b604051636344978560e11b81523360048201526024016105bc565b610bd2610d16565b610bf157604051631564c0e160e11b81523360048201526024016105bc565b610bfa82610f57565b6004805460405163095ea7b360e01b81526001600160a01b03848116938201939093526024810185905291169063095ea7b3906044016020604051808303815f875af1158015610c4c573d5f803e3d5ffd5b505050506040513d601f19601f82011682018060405250810190610c709190611685565b506040516328ed6e3f60e01b8152600481018390526001600160a01b038216906328ed6e3f906024015f604051808303815f87803b158015610cb0575f80fd5b505af1158015610cc2573d5f803e3d5ffd5b5050600454604080516001600160a01b0392831681526020810187905291851693503092507f9f784fc02a186f1c98b2d9f15fda084da27cdd291a3785d978f91911d880516b910160405180910390a35050565b5f8054604080516345b817bb60e01b8152905161045d926001600160a01b0316916345b817bb9160048083019260209291908290030181865afa158015610d5f573d5f803e3d5ffd5b505050506040513d601f19601f82011682018060405250810190610d839190611653565b33610a14565b6040516001600160a01b038481166024830152838116604483015260648201839052610df09186918216906323b872dd906084015b604051602081830303815290604052915060e01b6020820180516001600160e01b0383818316178352505050506113d5565b50505050565b6004805460075460405163095ea7b360e01b81526001600160a01b039182169381019390935260248301849052169063095ea7b3906044016020604051808303815f875af1158015610e4a573d5f803e3d5ffd5b505050506040513d601f19601f82011682018060405250810190610e6e9190611685565b506007546004805460405163617ba03760e01b81526001600160a01b0391821692810192909252602482018490523060448301525f60648301529091169063617ba037906084015f604051808303815f87803b158015610ecc575f80fd5b505af1158015610ede573d5f803e3d5ffd5b5050505050565b5f610ef08383610a14565b15610f50575f8381526001602090815260408083206001600160a01b0386168085529252808320805460ff1916905551339286917ff6391f5c32d9c69d2a47ea670b442974b53935d1edc7fd64eb21e047a839171b9190a4506001610492565b505f610492565b60075460048054604051631a4ca37b60e21b81526001600160a01b039182169281019290925260248201849052306044830152909116906369328dec906064016020604051808303815f875af1158015610fb3573d5f803e3d5ffd5b505050506040513d601f19601f82011682018060405250810190610a109190611653565b6040516001600160a01b0383811660248301526044820183905261071191859182169063a9059cbb90606401610dbe565b600854600480546040516334924edb60e21b81526001600160a01b03918216928101929092525f92839291169063d2493b6c90602401606060405180830381865afa158015611059573d5f803e3d5ffd5b505050506040513d601f19601f8201168201806040525081019061107d9190611770565b506040805160018082528183019092529193505f92506020808301908036833701905050905081815f815181106110b6576110b66117ba565b6001600160a01b039283166020918202929092010152600a546040516357b8988360e01b81529116906357b89883906110f89084905f19908b906004016117ce565b6020604051808303815f875af1158015611114573d5f803e3d5ffd5b505050506040513d601f19601f820116820180604052508101906111389190611653565b600254909350611155906001600160a01b03888116911685610fd7565b6040518381527f8e55ccfc9778ff8eba1646d765cf1982537ce0f9257054a17b48aad7452501839060200160405180910390a150509392505050565b5f306001600160a01b03166301e1d1146040518163ffffffff1660e01b8152600401602060405180830381865afa1580156111ce573d5f803e3d5ffd5b505050506040513d601f19601f820116820180604052508101906111f29190611653565b1115611211576040516373a075f360e01b815260040160405180910390fd5b50600580546001600160a01b0319169055565b5f5460408051630ccc574960e41b815290516001600160a01b03909216916391d1485491839163ccc57490916004808201926020929091908290030181865afa158015611273573d5f803e3d5ffd5b505050506040513d601f19601f820116820180604052508101906112979190611653565b6040516001600160e01b031960e084901b1681526004810191909152336024820152604401602060405180830381865afa1580156112d7573d5f803e3d5ffd5b505050506040513d601f19601f820116820180604052508101906112fb9190611685565b61131a57604051630ea7d7ed60e21b81523360048201526024016105bc565b6005546001600160a01b0316156113445760405163d32184ed60e01b815260040160405180910390fd5b600580546001600160a01b0319166001600160a01b0392909216919091179055565b5f6113718383610a14565b610f50575f8381526001602081815260408084206001600160a01b0387168086529252808420805460ff19169093179092559051339286917f2f8788117e7eff1d82e926ec794901d17c78024a50270940304540a733656f0d9190a4506001610492565b5f6113e96001600160a01b03841683611436565b905080515f1415801561140d57508080602001905181019061140b9190611685565b155b1561071157604051635274afe760e01b81526001600160a01b03841660048201526024016105bc565b606061089883835f845f80856001600160a01b0316848660405161145a9190611833565b5f6040518083038185875af1925050503d805f8114611494576040519150601f19603f3d011682016040523d82523d5f602084013e611499565b606091505b50915091506114a98683836114b3565b9695505050505050565b6060826114c8576114c38261150f565b610898565b81511580156114df57506001600160a01b0384163b155b1561150857604051639996b31560e01b81526001600160a01b03851660048201526024016105bc565b5080610898565b80511561151f5780518082602001fd5b604051630a12f52160e11b815260040160405180910390fd5b5f60208284031215611548575f80fd5b81356001600160e01b031981168114610898575f80fd5b5f6020828403121561156f575f80fd5b5035919050565b6001600160a01b0381168114610887575f80fd5b5f806040838503121561159b575f80fd5b8235915060208301356115ad81611576565b809150509250929050565b5f805f604084860312156115ca575f80fd5b83356115d581611576565b9250602084013567ffffffffffffffff8111156115f0575f80fd5b8401601f81018613611600575f80fd5b803567ffffffffffffffff811115611616575f80fd5b866020828401011115611627575f80fd5b939660209190910195509293505050565b5f60208284031215611648575f80fd5b813561089881611576565b5f60208284031215611663575f80fd5b5051919050565b5f6020828403121561167a575f80fd5b815161089881611576565b5f60208284031215611695575f80fd5b81518015158114610898575f80fd5b5f805f805f805f805f805f806101808d8f0312156116c0575f80fd5b5f8d519050809c50505f60208e01519050809b50505f60408e01519050809a50505f60608e01519050809950505f60808e01519050809850505f60a08e01519050809750505f60c08e01519050809650505f60e08e01519050809550505f6101008e01519050809450505f6101208e01519050809350505f6101408e01519050809250506101608d015164ffffffffff8116811461175c575f80fd5b809150509295989b509295989b509295989b565b5f805f60608486031215611782575f80fd5b835161178d81611576565b602085015190935061179e81611576565b60408501519092506117af81611576565b809150509250925092565b634e487b7160e01b5f52603260045260245ffd5b606080825284519082018190525f9060208601906080840190835b818110156118105783516001600160a01b03168352602093840193909201916001016117e9565b5050602084019590955250506001600160a01b0391909116604090910152919050565b5f82518060208501845e5f92019182525091905056fea26469706673582212206acbac85c12141196131b8389876fb19d0f665bd9504819276c94072113996e664736f6c634300081a0033","linkReferences":{}},"methodIdentifiers":{"DEFAULT_ADMIN_ROLE()":"a217fddf","RAY()":"552033c4","SECONDS_PER_YEAR()":"e6a69ab8","WAD()":"6a146024","aToken()":"a0c1f15e","aaveV3DataProvider()":"cce47e55","aaveV3Pool()":"86a06ff0","board(uint256)":"28ed6e3f","commander()":"37270936","disembark(uint256)":"4dd47eba","getRoleAdmin(bytes32)":"248a9ca3","grantCommanderRole(address)":"9403e41f","grantRole(bytes32,address)":"2f2ff15d","harvest(address,bytes)":"7399bfe8","hasRole(bytes32,address)":"91d14854","manager()":"481c6a75","maxAllocation()":"9b3ba79f","move(uint256,address)":"d8a8e03a","poke()":"18178358","raft()":"117d8ae0","rate()":"2c4e722e","renounceRole(bytes32,address)":"36568abe","revokeCommanderRole(address)":"81d3ce26","revokeRole(bytes32,address)":"d547741f","rewardsController()":"6bb65f53","setMaxAllocation(uint256)":"72f12344","supportsInterface(bytes4)":"01ffc9a7","token()":"fc0c546a","totalAssets()":"01e1d114"},"id":68}