{"abi":[{"type":"constructor","inputs":[{"name":"_aaveV3Pool","type":"address","internalType":"address"},{"name":"_rewardsController","type":"address","internalType":"address"},{"name":"_params","type":"tuple","internalType":"struct ArkParams","components":[{"name":"name","type":"string","internalType":"string"},{"name":"accessManager","type":"address","internalType":"address"},{"name":"configurationManager","type":"address","internalType":"address"},{"name":"token","type":"address","internalType":"address"},{"name":"depositCap","type":"uint256","internalType":"uint256"},{"name":"maxRebalanceOutflow","type":"uint256","internalType":"uint256"},{"name":"maxRebalanceInflow","type":"uint256","internalType":"uint256"},{"name":"requiresKeeperData","type":"bool","internalType":"bool"}]}],"stateMutability":"nonpayable"},{"type":"function","name":"aToken","inputs":[],"outputs":[{"name":"","type":"address","internalType":"address"}],"stateMutability":"view"},{"type":"function","name":"aaveV3DataProvider","inputs":[],"outputs":[{"name":"","type":"address","internalType":"contract IPoolDataProvider"}],"stateMutability":"view"},{"type":"function","name":"aaveV3Pool","inputs":[],"outputs":[{"name":"","type":"address","internalType":"contract IPoolV3"}],"stateMutability":"view"},{"type":"function","name":"board","inputs":[{"name":"amount","type":"uint256","internalType":"uint256"},{"name":"boardData","type":"bytes","internalType":"bytes"}],"outputs":[],"stateMutability":"nonpayable"},{"type":"function","name":"commander","inputs":[],"outputs":[{"name":"","type":"address","internalType":"address"}],"stateMutability":"view"},{"type":"function","name":"config","inputs":[],"outputs":[{"name":"commander","type":"address","internalType":"address"},{"name":"raft","type":"address","internalType":"address"},{"name":"token","type":"address","internalType":"contract IERC20"},{"name":"depositCap","type":"uint256","internalType":"uint256"},{"name":"maxRebalanceOutflow","type":"uint256","internalType":"uint256"},{"name":"maxRebalanceInflow","type":"uint256","internalType":"uint256"},{"name":"name","type":"string","internalType":"string"},{"name":"requiresKeeperData","type":"bool","internalType":"bool"}],"stateMutability":"view"},{"type":"function","name":"configurationManager","inputs":[],"outputs":[{"name":"","type":"address","internalType":"contract IConfigurationManager"}],"stateMutability":"view"},{"type":"function","name":"depositCap","inputs":[],"outputs":[{"name":"","type":"uint256","internalType":"uint256"}],"stateMutability":"view"},{"type":"function","name":"disembark","inputs":[{"name":"amount","type":"uint256","internalType":"uint256"},{"name":"disembarkData","type":"bytes","internalType":"bytes"}],"outputs":[],"stateMutability":"nonpayable"},{"type":"function","name":"generateRole","inputs":[{"name":"roleName","type":"uint8","internalType":"enum ContractSpecificRoles"},{"name":"roleTargetContract","type":"address","internalType":"address"}],"outputs":[{"name":"","type":"bytes32","internalType":"bytes32"}],"stateMutability":"pure"},{"type":"function","name":"getConfig","inputs":[],"outputs":[{"name":"","type":"tuple","internalType":"struct ArkConfig","components":[{"name":"commander","type":"address","internalType":"address"},{"name":"raft","type":"address","internalType":"address"},{"name":"token","type":"address","internalType":"contract IERC20"},{"name":"depositCap","type":"uint256","internalType":"uint256"},{"name":"maxRebalanceOutflow","type":"uint256","internalType":"uint256"},{"name":"maxRebalanceInflow","type":"uint256","internalType":"uint256"},{"name":"name","type":"string","internalType":"string"},{"name":"requiresKeeperData","type":"bool","internalType":"bool"}]}],"stateMutability":"view"},{"type":"function","name":"harborCommand","inputs":[],"outputs":[{"name":"","type":"address","internalType":"address"}],"stateMutability":"view"},{"type":"function","name":"harvest","inputs":[{"name":"additionalData","type":"bytes","internalType":"bytes"}],"outputs":[{"name":"rewardTokens","type":"address[]","internalType":"address[]"},{"name":"rewardAmounts","type":"uint256[]","internalType":"uint256[]"}],"stateMutability":"nonpayable"},{"type":"function","name":"maxRebalanceInflow","inputs":[],"outputs":[{"name":"","type":"uint256","internalType":"uint256"}],"stateMutability":"view"},{"type":"function","name":"maxRebalanceOutflow","inputs":[],"outputs":[{"name":"","type":"uint256","internalType":"uint256"}],"stateMutability":"view"},{"type":"function","name":"move","inputs":[{"name":"amount","type":"uint256","internalType":"uint256"},{"name":"receiverArk","type":"address","internalType":"address"},{"name":"boardData","type":"bytes","internalType":"bytes"},{"name":"disembarkData","type":"bytes","internalType":"bytes"}],"outputs":[],"stateMutability":"nonpayable"},{"type":"function","name":"name","inputs":[],"outputs":[{"name":"","type":"string","internalType":"string"}],"stateMutability":"view"},{"type":"function","name":"raft","inputs":[],"outputs":[{"name":"","type":"address","internalType":"address"}],"stateMutability":"view"},{"type":"function","name":"registerFleetCommander","inputs":[],"outputs":[],"stateMutability":"nonpayable"},{"type":"function","name":"requiresKeeperData","inputs":[],"outputs":[{"name":"","type":"bool","internalType":"bool"}],"stateMutability":"view"},{"type":"function","name":"rewardsController","inputs":[],"outputs":[{"name":"","type":"address","internalType":"contract IRewardsController"}],"stateMutability":"view"},{"type":"function","name":"setDepositCap","inputs":[{"name":"newDepositCap","type":"uint256","internalType":"uint256"}],"outputs":[],"stateMutability":"nonpayable"},{"type":"function","name":"setMaxRebalanceInflow","inputs":[{"name":"newMaxRebalanceInflow","type":"uint256","internalType":"uint256"}],"outputs":[],"stateMutability":"nonpayable"},{"type":"function","name":"setMaxRebalanceOutflow","inputs":[{"name":"newMaxRebalanceOutflow","type":"uint256","internalType":"uint256"}],"outputs":[],"stateMutability":"nonpayable"},{"type":"function","name":"sweep","inputs":[{"name":"tokens","type":"address[]","internalType":"address[]"}],"outputs":[{"name":"sweptTokens","type":"address[]","internalType":"address[]"},{"name":"sweptAmounts","type":"uint256[]","internalType":"uint256[]"}],"stateMutability":"nonpayable"},{"type":"function","name":"tipJar","inputs":[],"outputs":[{"name":"","type":"address","internalType":"address"}],"stateMutability":"view"},{"type":"function","name":"token","inputs":[],"outputs":[{"name":"","type":"address","internalType":"contract IERC20"}],"stateMutability":"view"},{"type":"function","name":"totalAssets","inputs":[],"outputs":[{"name":"","type":"uint256","internalType":"uint256"}],"stateMutability":"view"},{"type":"function","name":"treasury","inputs":[],"outputs":[{"name":"","type":"address","internalType":"address"}],"stateMutability":"view"},{"type":"function","name":"unregisterFleetCommander","inputs":[],"outputs":[],"stateMutability":"nonpayable"},{"type":"event","name":"ArkHarvested","inputs":[{"name":"rewardTokens","type":"address[]","indexed":true,"internalType":"address[]"},{"name":"rewardAmounts","type":"uint256[]","indexed":true,"internalType":"uint256[]"}],"anonymous":false},{"type":"event","name":"ArkPoked","inputs":[{"name":"currentPrice","type":"uint256","indexed":false,"internalType":"uint256"},{"name":"timestamp","type":"uint256","indexed":false,"internalType":"uint256"}],"anonymous":false},{"type":"event","name":"ArkSwept","inputs":[{"name":"sweptTokens","type":"address[]","indexed":true,"internalType":"address[]"},{"name":"sweptAmounts","type":"uint256[]","indexed":true,"internalType":"uint256[]"}],"anonymous":false},{"type":"event","name":"Boarded","inputs":[{"name":"commander","type":"address","indexed":true,"internalType":"address"},{"name":"token","type":"address","indexed":false,"internalType":"address"},{"name":"amount","type":"uint256","indexed":false,"internalType":"uint256"}],"anonymous":false},{"type":"event","name":"DepositCapUpdated","inputs":[{"name":"newCap","type":"uint256","indexed":false,"internalType":"uint256"}],"anonymous":false},{"type":"event","name":"Disembarked","inputs":[{"name":"commander","type":"address","indexed":true,"internalType":"address"},{"name":"token","type":"address","indexed":false,"internalType":"address"},{"name":"amount","type":"uint256","indexed":false,"internalType":"uint256"}],"anonymous":false},{"type":"event","name":"FleetCommanderRegistered","inputs":[{"name":"commander","type":"address","indexed":false,"internalType":"address"}],"anonymous":false},{"type":"event","name":"FleetCommanderUnregistered","inputs":[{"name":"commander","type":"address","indexed":false,"internalType":"address"}],"anonymous":false},{"type":"event","name":"MaxRebalanceInflowUpdated","inputs":[{"name":"newMaxInflow","type":"uint256","indexed":false,"internalType":"uint256"}],"anonymous":false},{"type":"event","name":"MaxRebalanceOutflowUpdated","inputs":[{"name":"newMaxOutflow","type":"uint256","indexed":false,"internalType":"uint256"}],"anonymous":false},{"type":"event","name":"Moved","inputs":[{"name":"from","type":"address","indexed":true,"internalType":"address"},{"name":"to","type":"address","indexed":true,"internalType":"address"},{"name":"token","type":"address","indexed":false,"internalType":"address"},{"name":"amount","type":"uint256","indexed":false,"internalType":"uint256"}],"anonymous":false},{"type":"event","name":"RaftUpdated","inputs":[{"name":"newRaft","type":"address","indexed":false,"internalType":"address"}],"anonymous":false},{"type":"error","name":"CallerIsNotAdmin","inputs":[{"name":"caller","type":"address","internalType":"address"}]},{"type":"error","name":"CallerIsNotAuthorizedToBoard","inputs":[{"name":"caller","type":"address","internalType":"address"}]},{"type":"error","name":"CallerIsNotCommander","inputs":[{"name":"caller","type":"address","internalType":"address"}]},{"type":"error","name":"CallerIsNotContractSpecificRole","inputs":[{"name":"caller","type":"address","internalType":"address"},{"name":"role","type":"bytes32","internalType":"bytes32"}]},{"type":"error","name":"CallerIsNotCurator","inputs":[{"name":"caller","type":"address","internalType":"address"}]},{"type":"error","name":"CallerIsNotGovernor","inputs":[{"name":"caller","type":"address","internalType":"address"}]},{"type":"error","name":"CallerIsNotGuardian","inputs":[{"name":"caller","type":"address","internalType":"address"}]},{"type":"error","name":"CallerIsNotGuardianOrGovernor","inputs":[{"name":"caller","type":"address","internalType":"address"}]},{"type":"error","name":"CallerIsNotKeeper","inputs":[{"name":"caller","type":"address","internalType":"address"}]},{"type":"error","name":"CallerIsNotRaft","inputs":[{"name":"caller","type":"address","internalType":"address"}]},{"type":"error","name":"CallerIsNotRaftOrCommander","inputs":[{"name":"caller","type":"address","internalType":"address"}]},{"type":"error","name":"CallerIsNotSuperKeeper","inputs":[{"name":"caller","type":"address","internalType":"address"}]},{"type":"error","name":"CannotAddCommanderToArkWithCommander","inputs":[]},{"type":"error","name":"CannotDeployArkWithEmptyName","inputs":[]},{"type":"error","name":"CannotDeployArkWithoutConfigurationManager","inputs":[]},{"type":"error","name":"CannotDeployArkWithoutRaft","inputs":[]},{"type":"error","name":"CannotDeployArkWithoutToken","inputs":[]},{"type":"error","name":"CannotRemoveCommanderFromArkWithAssets","inputs":[]},{"type":"error","name":"CannotUseKeeperDataWhenNotRequired","inputs":[]},{"type":"error","name":"ConfigurationManagerZeroAddress","inputs":[]},{"type":"error","name":"DirectGrantIsDisabled","inputs":[{"name":"caller","type":"address","internalType":"address"}]},{"type":"error","name":"DirectRevokeIsDisabled","inputs":[{"name":"caller","type":"address","internalType":"address"}]},{"type":"error","name":"ERC4626AssetMismatch","inputs":[]},{"type":"error","name":"InvalidAccessManagerAddress","inputs":[{"name":"invalidAddress","type":"address","internalType":"address"}]},{"type":"error","name":"InvalidBoardData","inputs":[]},{"type":"error","name":"InvalidDisembarkData","inputs":[]},{"type":"error","name":"InvalidVaultAddress","inputs":[]},{"type":"error","name":"KeeperDataRequired","inputs":[]},{"type":"error","name":"SafeERC20FailedOperation","inputs":[{"name":"token","type":"address","internalType":"address"}]}],"bytecode":{"object":"0x60a060405234801561000f575f5ffd5b50604051612b8d380380612b8d83398101604081905261002e9161060e565b6040810151602082015182918291806001600160a01b03811661006b576040516347bd7c1d60e01b81525f60048201526024015b60405180910390fd5b6040516301ffc9a760e01b815263a237592160e01b60048201526001600160a01b038216906301ffc9a790602401602060405180830381865afa1580156100b4573d5f5f3e3d5ffd5b505050506040513d601f19601f820116820180604052508101906100d89190610703565b610100576040516347bd7c1d60e01b81526001600160a01b0382166004820152602401610062565b5f80546001600160a01b0319166001600160a01b039283161790558216905061013c5760405163f1634df960e01b815260040160405180910390fd5b6001600160a01b0390811660805260408201511661016d5760405163b53c493160e01b815260040160405180910390fd5b60608101516001600160a01b031661019b576040516001620a810f60e11b0319815260040160405180910390fd5b8051515f036101bd5760405163268c072960e01b815260040160405180910390fd5b5f6101c6610487565b6001600160a01b0316036101ed57604051633a4f9cdb60e21b815260040160405180910390fd5b6040805161010081019091525f815260208101610208610487565b6001600160a01b039081168252606080850151821660208085019190915260808087015160408087019190915260a0808901518588015260c0808a01518489015289518289015260e08a01511515978101979097528751600180549188166001600160a01b03199283161781559489015160028054918916918316919091179055918801516003805491909716921691909117909455918501516004559084015160055590830151600655908201516007906102c490826107a7565b5060e091909101516007909101805460ff19169115159190911790555050600a80546001600160a01b0319166001600160a01b03851690811790915560408051630150a5d760e21b815290515f9291630542975c9160048083019260209291908290030181865afa15801561033b573d5f5f3e3d5ffd5b505050506040513d601f19601f8201168201806040525081019061035f9190610861565b9050806001600160a01b031663e860accb6040518163ffffffff1660e01b8152600401602060405180830381865afa15801561039d573d5f5f3e3d5ffd5b505050506040513d601f19601f820116820180604052508101906103c19190610861565b600b80546001600160a01b0319166001600160a01b03928316179055600a546003546040516335ea6a7560e01b815290831660048201525f9291909116906335ea6a75906024016101e060405180830381865afa158015610424573d5f5f3e3d5ffd5b505050506040513d601f19601f8201168201806040525081019061044891906108f6565b6101000151600980546001600160a01b039283166001600160a01b031991821617909155600c80549690921695169490941790935550610a2092505050565b5f6080516001600160a01b031663117d8ae06040518163ffffffff1660e01b8152600401602060405180830381865afa1580156104c6573d5f5f3e3d5ffd5b505050506040513d601f19601f820116820180604052508101906104ea9190610861565b905090565b6001600160a01b0381168114610503575f5ffd5b50565b8051610511816104ef565b919050565b634e487b7160e01b5f52604160045260245ffd5b60405161010081016001600160401b038111828210171561054d5761054d610516565b60405290565b6040516101e081016001600160401b038111828210171561054d5761054d610516565b5f82601f830112610585575f5ffd5b81516001600160401b0381111561059e5761059e610516565b604051601f8201601f19908116603f011681016001600160401b03811182821017156105cc576105cc610516565b6040528181528382016020018510156105e3575f5ffd5b8160208501602083015e5f918101602001919091529392505050565b80518015158114610511575f5ffd5b5f5f5f60608486031215610620575f5ffd5b835161062b816104ef565b602085015190935061063c816104ef565b60408501519092506001600160401b03811115610657575f5ffd5b84016101008187031215610669575f5ffd5b61067161052a565b81516001600160401b03811115610686575f5ffd5b61069288828501610576565b8252506106a160208301610506565b60208201526106b260408301610506565b60408201526106c360608301610506565b60608201526080828101519082015260a0808301519082015260c080830151908201526106f260e083016105ff565b60e082015280925050509250925092565b5f60208284031215610713575f5ffd5b61071c826105ff565b9392505050565b600181811c9082168061073757607f821691505b60208210810361075557634e487b7160e01b5f52602260045260245ffd5b50919050565b601f8211156107a257805f5260205f20601f840160051c810160208510156107805750805b601f840160051c820191505b8181101561079f575f815560010161078c565b50505b505050565b81516001600160401b038111156107c0576107c0610516565b6107d4816107ce8454610723565b8461075b565b6020601f821160018114610806575f83156107ef5750848201515b5f19600385901b1c1916600184901b17845561079f565b5f84815260208120601f198516915b828110156108355787850151825560209485019460019092019101610815565b508482101561085257868401515f19600387901b60f8161c191681555b50505050600190811b01905550565b5f60208284031215610871575f5ffd5b815161071c816104ef565b5f6020828403121561088c575f5ffd5b604051602081016001600160401b03811182821017156108ae576108ae610516565b6040529151825250919050565b80516001600160801b0381168114610511575f5ffd5b805164ffffffffff81168114610511575f5ffd5b805161ffff81168114610511575f5ffd5b5f6101e0828403128015610908575f5ffd5b50610911610553565b61091b848461087c565b8152610929602084016108bb565b602082015261093a604084016108bb565b604082015261094b606084016108bb565b606082015261095c608084016108bb565b608082015261096d60a084016108bb565b60a082015261097e60c084016108d1565b60c082015261098f60e084016108e5565b60e08201526109a16101008401610506565b6101008201526109b46101208401610506565b6101208201526109c76101408401610506565b6101408201526109da6101608401610506565b6101608201526109ed61018084016108bb565b610180820152610a006101a084016108bb565b6101a0820152610a136101c084016108bb565b6101c08201529392505050565b608051612139610a545f395f81816103930152818161050101528181610846015281816108a30152610ef701526121395ff3fe608060405234801561000f575f5ffd5b50600436106101d1575f3560e01c80637aaceb95116100fe578063c38a6f0b1161009e578063ce5c7f611161006e578063ce5c7f61146103c8578063dbd5edc7146103db578063ebf31131146103e3578063fc0c546a146103eb575f5ffd5b8063c38a6f0b14610366578063c3f909d414610379578063c9c667e31461038e578063cce47e55146103b5575f5ffd5b80638a8b9976116100d95780638a8b99761461033057806392f5e83214610338578063a0c1f15e1461034b578063ad5a356f1461035e575f5ffd5b80637aaceb9514610302578063866512031461030a57806386a06ff01461031d575f5ffd5b8063372709361161017457806369b3054b1161014457806369b3054b1461029f5780636bb65f53146102b2578063780469bb146102c557806379502c55146102e6575f5ffd5b8063372709361461026b5780635b0f83f31461027c57806361d027b31461028457806361f5cd8b1461028c575f5ffd5b806313c408f8116101af57806313c408f8146102255780632db6d3991461023a578063303dbaf31461024d5780633194549e14610263575f5ffd5b806301e1d114146101d557806306fdde03146101f0578063117d8ae014610205575b5f5ffd5b6101dd6103fc565b6040519081526020015b60405180910390f35b6101f861046b565b6040516101e791906119f0565b61020d6104fe565b6040516001600160a01b0390911681526020016101e7565b610238610233366004611a4e565b61057f565b005b610238610248366004611a4e565b610638565b60085460ff1660405190151581526020016101e7565b6005546101dd565b6001546001600160a01b031661020d565b61020d610843565b61020d6108a0565b61023861029a366004611a96565b6108fd565b6101dd6102ad366004611ac4565b61094b565b600c5461020d906001600160a01b031681565b6102d86102d3366004611b43565b61097d565b6040516101e7929190611c3a565b6102ee610e30565b6040516101e7989796959493929190611c92565b61020d610ef4565b610238610318366004611a96565b610f51565b600a5461020d906001600160a01b031681565b610238610f98565b610238610346366004611a96565b610ff5565b60095461020d906001600160a01b031681565b6006546101dd565b610238610374366004611cf2565b61103c565b61038161118d565b6040516101e79190611d7d565b61020d7f000000000000000000000000000000000000000000000000000000000000000081565b600b5461020d906001600160a01b031681565b6102d86103d6366004611e13565b6112c1565b6004546101dd565b6102386113ab565b6003546001600160a01b031661020d565b6009546040516370a0823160e01b81523060048201525f916001600160a01b0316906370a0823190602401602060405180830381865afa158015610442573d5f5f3e3d5ffd5b505050506040513d601f19601f820116820180604052508101906104669190611e52565b905090565b60606001600601805461047d90611e69565b80601f01602080910402602001604051908101604052809291908181526020018280546104a990611e69565b80156104f45780601f106104cb576101008083540402835291602001916104f4565b820191905f5260205f20905b8154815290600101906020018083116104d757829003601f168201915b5050505050905090565b5f7f00000000000000000000000000000000000000000000000000000000000000006001600160a01b031663117d8ae06040518163ffffffff1660e01b8152600401602060405180830381865afa15801561055b573d5f5f3e3d5ffd5b505050506040513d601f19601f820116820180604052508101906104669190611ea1565b6105876113fd565b6105b757335b604051631564c0e160e11b81526001600160a01b0390911660048201526024015b60405180910390fd5b81816105c38282611486565b336105cf8686866114e8565b6003546105e6906001600160a01b0316828861156a565b600354604080516001600160a01b03928316815260208101899052918316917fd5e872c5ecfb1bb8820b2e6a20e31b883682282da886621541f71e31ec11947e910160405180910390a2505050505050565b306001600160a01b031663372709366040518163ffffffff1660e01b8152600401602060405180830381865afa158015610674573d5f5f3e3d5ffd5b505050506040513d601f19601f820116820180604052508101906106989190611ea1565b6106a06113fd565b6107bf575f3390505f306001600160a01b031663117d8ae06040518163ffffffff1660e01b8152600401602060405180830381865afa1580156106e5573d5f5f3e3d5ffd5b505050506040513d601f19601f820116820180604052508101906107099190611ea1565b6001600160a01b0316826001600160a01b0316149050806107bc5760405163d25dd10160e01b81526001600160a01b0383811660048301525f919085169063d25dd10190602401602060405180830381865afa15801561076b573d5f5f3e3d5ffd5b505050506040513d601f19601f8201168201806040525081019061078f9190611ebc565b9050806107ba57604051638f7a567d60e01b81526001600160a01b03841660048201526024016105ae565b505b50505b82826107cb8282611486565b60035433906107e5906001600160a01b031682308a6115ce565b6107f0878787611607565b600354604080516001600160a01b039283168152602081018a9052918316917fcbaa1442ac205415c9d69643e7b60ec73d1de35dbc807c21ec288c70ddc4207b910160405180910390a250505050505050565b5f7f00000000000000000000000000000000000000000000000000000000000000006001600160a01b0316635b0f83f36040518163ffffffff1660e01b8152600401602060405180830381865afa15801561055b573d5f5f3e3d5ffd5b5f7f00000000000000000000000000000000000000000000000000000000000000006001600160a01b03166361d027b36040518163ffffffff1660e01b8152600401602060405180830381865afa15801561055b573d5f5f3e3d5ffd5b6109056113fd565b61090f573361058d565b60058190556040518181527ffbe2d5c01ea8ba5596d6c4e6c82c6d4a0a0ee1128689993a4a5ba0169273d69f906020015b60405180910390a150565b5f828260405160200161095f929190611edb565b60405160208183030381529060405280519060200120905092915050565b606080306001600160a01b031663117d8ae06040518163ffffffff1660e01b8152600401602060405180830381865afa1580156109bc573d5f5f3e3d5ffd5b505050506040513d601f19601f820116820180604052508101906109e09190611ea1565b6001600160a01b0316336001600160a01b031614610a1f57335b604051631184b31b60e21b81526001600160a01b0390911660048201526024016105ae565b825167ffffffffffffffff811115610a3957610a39611afe565b604051908082528060200260200182016040528015610a62578160200160208202803683370190505b509150825167ffffffffffffffff811115610a7f57610a7f611afe565b604051908082528060200260200182016040528015610aa8578160200160208202803683370190505b506003546040516370a0823160e01b81523060048201529192505f916001600160a01b03909116906370a0823190602401602060405180830381865afa158015610af4573d5f5f3e3d5ffd5b505050506040513d601f19601f82011682018060405250810190610b189190611e52565b1115610c0957600154604080516330fe427560e21b81529051610c09926001600160a01b03169163c3f909d49160048083019260809291908290030181865afa158015610b67573d5f5f3e3d5ffd5b505050506040513d601f19601f82011682018060405250810190610b8b9190611f1e565b516003546040516370a0823160e01b81523060048201526001600160a01b03909116906370a0823190602401602060405180830381865afa158015610bd2573d5f5f3e3d5ffd5b505050506040513d601f19601f82011682018060405250810190610bf69190611e52565b6003546001600160a01b0316919061156a565b5f5b8351811015610dd7575f848281518110610c2757610c27611f8a565b60209081029190910101516040516370a0823160e01b81523060048201526001600160a01b03909116906370a0823190602401602060405180830381865afa158015610c75573d5f5f3e3d5ffd5b505050506040513d601f19601f82011682018060405250810190610c999190611e52565b90508015610dce57610d62610cac6104fe565b868481518110610cbe57610cbe611f8a565b60209081029190910101516040516370a0823160e01b81523060048201526001600160a01b03909116906370a0823190602401602060405180830381865afa158015610d0c573d5f5f3e3d5ffd5b505050506040513d601f19601f82011682018060405250810190610d309190611e52565b878581518110610d4257610d42611f8a565b60200260200101516001600160a01b031661156a9092919063ffffffff16565b848281518110610d7457610d74611f8a565b6020026020010151848381518110610d8e57610d8e611f8a565b60200260200101906001600160a01b031690816001600160a01b03168152505080838381518110610dc157610dc1611f8a565b6020026020010181815250505b50600101610c0b565b5080604051610de69190611f9e565b604051809103902082604051610dfc9190611fd3565b604051908190038120907f46b8771620f6acf56cb03d3e835ea8024c7dcbcf05fcc3f6ade9e19d1a3e212b905f90a3915091565b60018054600254600354600454600554600654600780546001600160a01b03978816989688169790951695939492939192610e6a90611e69565b80601f0160208091040260200160405190810160405280929190818152602001828054610e9690611e69565b8015610ee15780601f10610eb857610100808354040283529160200191610ee1565b820191905f5260205f20905b815481529060010190602001808311610ec457829003601f168201915b5050506007909301549192505060ff1688565b5f7f00000000000000000000000000000000000000000000000000000000000000006001600160a01b0316637aaceb956040518163ffffffff1660e01b8152600401602060405180830381865afa15801561055b573d5f5f3e3d5ffd5b610f596113fd565b610f63573361058d565b60048190556040518181527f333b26cca69716ad4680ddb07663f5bfb4f06045671f336af9a83690a3ae00f990602001610940565b610fa06113fd565b610faa573361058d565b600180546001600160a01b031916339081179091556040519081527f55489ce0259bd691120d8860861be1c401c7c16a3cd268d21045756af4ecc5ca906020015b60405180910390a1565b610ffd6113fd565b611007573361058d565b60068190556040518181527fb6ac66853c4e59c71e118d25ab494bb847c4e5eb0c8894898c5343e6f61afc1290602001610940565b6110446113fd565b61104e573361058d565b818161105a8282611486565b6110658885856114e8565b60035460405163095ea7b360e01b81526001600160a01b038981166004830152602482018b90529091169063095ea7b3906044016020604051808303815f875af11580156110b5573d5f5f3e3d5ffd5b505050506040513d601f19601f820116820180604052508101906110d99190611ebc565b50604051632db6d39960e01b81526001600160a01b03881690632db6d3999061110a908b908a908a90600401612006565b5f604051808303815f87803b158015611121575f5ffd5b505af1158015611133573d5f5f3e3d5ffd5b5050600354604080516001600160a01b039283168152602081018d9052918b1693503092507f9f784fc02a186f1c98b2d9f15fda084da27cdd291a3785d978f91911d880516b910160405180910390a35050505050505050565b60408051610100810182525f8082526020820181905291810182905260608082018390526080820183905260a0820183905260c082015260e08101919091526040805161010081018252600180546001600160a01b0390811683526002548116602084015260035416928201929092526004546060820152600554608082015260065460a08201526007805491929160c08401919061122b90611e69565b80601f016020809104026020016040519081016040528092919081815260200182805461125790611e69565b80156112a25780601f10611279576101008083540402835291602001916112a2565b820191905f5260205f20905b81548152906001019060200180831161128557829003601f168201915b50505091835250506007919091015460ff161515602090910152919050565b606080306001600160a01b031663117d8ae06040518163ffffffff1660e01b8152600401602060405180830381865afa158015611300573d5f5f3e3d5ffd5b505050506040513d601f19601f820116820180604052508101906113249190611ea1565b6001600160a01b0316336001600160a01b03161461134257336109fa565b61134c84846116f2565b604051919350915061135f908290611f9e565b6040518091039020826040516113759190611fd3565b604051908190038120907f3e3e7958121b3e39c7a49392d1aa9cdce870c2a059744f9e15cf66fff7865455905f90a39250929050565b6113b36113fd565b6113bd573361058d565b600180546001600160a01b03191690556040513381527f7cb941d7b1708e5b3bcd35ca960d6c6311188cec18886e5b67630552676b048790602001610feb565b5f80546001600160a01b03166391d1485461141960023061094b565b336040516001600160e01b031960e085901b16815260048101929092526001600160a01b03166024820152604401602060405180830381865afa158015611462573d5f5f3e3d5ffd5b505050506040513d601f19601f820116820180604052508101906104669190611ebc565b8015801590611498575060085460ff16155b156114b657604051630cd0fdf960e01b815260040160405180910390fd5b801580156114c6575060085460ff165b156114e45760405163332863a960e11b815260040160405180910390fd5b5050565b600a54600354604051631a4ca37b60e21b81526001600160a01b039182166004820152602481018690523060448201529116906369328dec906064016020604051808303815f875af1158015611540573d5f5f3e3d5ffd5b505050506040513d601f19601f820116820180604052508101906115649190611e52565b50505050565b6040516001600160a01b038381166024830152604482018390526115c991859182169063a9059cbb906064015b604051602081830303815290604052915060e01b6020820180516001600160e01b038381831617835250505050611956565b505050565b6040516001600160a01b0384811660248301528381166044830152606482018390526115649186918216906323b872dd90608401611597565b600354600a5460405163095ea7b360e01b81526001600160a01b0391821660048201526024810186905291169063095ea7b3906044016020604051808303815f875af1158015611659573d5f5f3e3d5ffd5b505050506040513d601f19601f8201168201806040525081019061167d9190611ebc565b50600a5460035460405163617ba03760e01b81526001600160a01b039182166004820152602481018690523060448201525f606482015291169063617ba037906084015f604051808303815f87803b1580156116d7575f5ffd5b505af11580156116e9573d5f5f3e3d5ffd5b50505050505050565b6040805160018082528183019092526060918291906020808301908036833750506040805160018082528183019092529294509050602080830190803683370190505090505f6117448486018661203b565b9050805f0151835f8151811061175c5761175c611f8a565b6001600160a01b039283166020918202929092010152600b546003546040516334924edb60e21b815290831660048201525f92919091169063d2493b6c90602401606060405180830381865afa1580156117b8573d5f5f3e3d5ffd5b505050506040513d601f19601f820116820180604052508101906117dc9190612087565b506040805160018082528183019092529193505f92506020808301908036833701905050905081815f8151811061181557611815611f8a565b6001600160a01b039283166020918202929092010152600c5484516040516357b8988360e01b815291909216916357b898839161185a9185915f1991906004016120d1565b6020604051808303815f875af1158015611876573d5f5f3e3d5ffd5b505050506040513d601f19601f8201168201806040525081019061189a9190611e52565b845f815181106118ac576118ac611f8a565b6020026020010181815250506118f96118c36104fe565b855f815181106118d5576118d5611f8a565b6020026020010151855f01516001600160a01b031661156a9092919063ffffffff16565b836040516119079190611f9e565b60405180910390208560405161191d9190611fd3565b604051908190038120907f3e3e7958121b3e39c7a49392d1aa9cdce870c2a059744f9e15cf66fff7865455905f90a35050509250929050565b5f5f60205f8451602086015f885af180611975576040513d5f823e3d81fd5b50505f513d9150811561198c578060011415611999565b6001600160a01b0384163b155b1561156457604051635274afe760e01b81526001600160a01b03851660048201526024016105ae565b5f81518084528060208401602086015e5f602082860101526020601f19601f83011685010191505092915050565b602081525f611a0260208301846119c2565b9392505050565b5f5f83601f840112611a19575f5ffd5b50813567ffffffffffffffff811115611a30575f5ffd5b602083019150836020828501011115611a47575f5ffd5b9250929050565b5f5f5f60408486031215611a60575f5ffd5b83359250602084013567ffffffffffffffff811115611a7d575f5ffd5b611a8986828701611a09565b9497909650939450505050565b5f60208284031215611aa6575f5ffd5b5035919050565b6001600160a01b0381168114611ac1575f5ffd5b50565b5f5f60408385031215611ad5575f5ffd5b823560038110611ae3575f5ffd5b91506020830135611af381611aad565b809150509250929050565b634e487b7160e01b5f52604160045260245ffd5b604051601f8201601f1916810167ffffffffffffffff81118282101715611b3b57611b3b611afe565b604052919050565b5f60208284031215611b53575f5ffd5b813567ffffffffffffffff811115611b69575f5ffd5b8201601f81018413611b79575f5ffd5b803567ffffffffffffffff811115611b9357611b93611afe565b8060051b611ba360208201611b12565b91825260208184018101929081019087841115611bbe575f5ffd5b6020850194505b83851015611bec5784359250611bda83611aad565b82825260209485019490910190611bc5565b979650505050505050565b5f8151808452602084019350602083015f5b82811015611c305781516001600160a01b0316865260209586019590910190600101611c09565b5093949350505050565b604081525f611c4c6040830185611bf7565b82810360208401528084518083526020830191506020860192505f5b81811015611c86578351835260209384019390920191600101611c68565b50909695505050505050565b6001600160a01b038981168252888116602083015287166040820152606081018690526080810185905260a0810184905261010060c082018190525f90611cdb908301856119c2565b905082151560e08301529998505050505050505050565b5f5f5f5f5f5f60808789031215611d07575f5ffd5b863595506020870135611d1981611aad565b9450604087013567ffffffffffffffff811115611d34575f5ffd5b611d4089828a01611a09565b909550935050606087013567ffffffffffffffff811115611d5f575f5ffd5b611d6b89828a01611a09565b979a9699509497509295939492505050565b602080825282516001600160a01b039081168383015290830151166040808301919091528201515f90611dbb60608401826001600160a01b03169052565b5060608301516080830152608083015160a083015260a083015160c083015260c083015161010060e0840152611df56101208401826119c2565b905060e0840151611e0b61010085018215159052565b509392505050565b5f5f60208385031215611e24575f5ffd5b823567ffffffffffffffff811115611e3a575f5ffd5b611e4685828601611a09565b90969095509350505050565b5f60208284031215611e62575f5ffd5b5051919050565b600181811c90821680611e7d57607f821691505b602082108103611e9b57634e487b7160e01b5f52602260045260245ffd5b50919050565b5f60208284031215611eb1575f5ffd5b8151611a0281611aad565b5f60208284031215611ecc575f5ffd5b81518015158114611a02575f5ffd5b5f60038410611ef857634e487b7160e01b5f52602160045260245ffd5b5060f89290921b825260601b6bffffffffffffffffffffffff1916600182015260150190565b5f6080828403128015611f2f575f5ffd5b506040516080810167ffffffffffffffff81118282101715611f5357611f53611afe565b6040528251611f6181611aad565b815260208381015190820152604080840151908201526060928301519281019290925250919050565b634e487b7160e01b5f52603260045260245ffd5b81515f90829060208501835b82811015611fc8578151845260209384019390910190600101611faa565b509195945050505050565b81515f90829060208501835b82811015611fc85781516001600160a01b0316845260209384019390910190600101611fdf565b83815260406020820152816040820152818360608301375f818301606090810191909152601f909201601f1916010192915050565b5f602082840312801561204c575f5ffd5b506040516020810167ffffffffffffffff8111828210171561207057612070611afe565b604052823561207e81611aad565b81529392505050565b5f5f5f60608486031215612099575f5ffd5b83516120a481611aad565b60208501519093506120b581611aad565b60408501519092506120c681611aad565b809150509250925092565b606081525f6120e36060830186611bf7565b6020830194909452506001600160a01b039190911660409091015291905056fea264697066735822122043642053c4573ff1fdb7dbf55af1bdae97b3713c6ff6f47cc3817902f16947e164736f6c634300081b0033","linkReferences":{}},"methodIdentifiers":{"aToken()":"a0c1f15e","aaveV3DataProvider()":"cce47e55","aaveV3Pool()":"86a06ff0","board(uint256,bytes)":"2db6d399","commander()":"37270936","config()":"79502c55","configurationManager()":"c9c667e3","depositCap()":"dbd5edc7","disembark(uint256,bytes)":"13c408f8","generateRole(uint8,address)":"69b3054b","getConfig()":"c3f909d4","harborCommand()":"5b0f83f3","harvest(bytes)":"ce5c7f61","maxRebalanceInflow()":"ad5a356f","maxRebalanceOutflow()":"3194549e","move(uint256,address,bytes,bytes)":"c38a6f0b","name()":"06fdde03","raft()":"117d8ae0","registerFleetCommander()":"8a8b9976","requiresKeeperData()":"303dbaf3","rewardsController()":"6bb65f53","setDepositCap(uint256)":"86651203","setMaxRebalanceInflow(uint256)":"92f5e832","setMaxRebalanceOutflow(uint256)":"61f5cd8b","sweep(address[])":"780469bb","tipJar()":"7aaceb95","token()":"fc0c546a","totalAssets()":"01e1d114","treasury()":"61d027b3","unregisterFleetCommander()":"ebf31131"},"id":166}