{"abi":[{"type":"constructor","inputs":[{"name":"_aaveV3Pool","type":"address","internalType":"address"},{"name":"_rewardsController","type":"address","internalType":"address"},{"name":"_params","type":"tuple","internalType":"struct ArkParams","components":[{"name":"name","type":"string","internalType":"string"},{"name":"details","type":"string","internalType":"string"},{"name":"accessManager","type":"address","internalType":"address"},{"name":"configurationManager","type":"address","internalType":"address"},{"name":"asset","type":"address","internalType":"address"},{"name":"depositCap","type":"uint256","internalType":"uint256"},{"name":"maxRebalanceOutflow","type":"uint256","internalType":"uint256"},{"name":"maxRebalanceInflow","type":"uint256","internalType":"uint256"},{"name":"requiresKeeperData","type":"bool","internalType":"bool"},{"name":"maxDepositPercentageOfTVL","type":"uint256","internalType":"Percentage"}]}],"stateMutability":"nonpayable"},{"type":"function","name":"aToken","inputs":[],"outputs":[{"name":"","type":"address","internalType":"address"}],"stateMutability":"view"},{"type":"function","name":"aaveV3Pool","inputs":[],"outputs":[{"name":"","type":"address","internalType":"contract IPoolV3"}],"stateMutability":"view"},{"type":"function","name":"asset","inputs":[],"outputs":[{"name":"","type":"address","internalType":"contract IERC20"}],"stateMutability":"view"},{"type":"function","name":"board","inputs":[{"name":"amount","type":"uint256","internalType":"uint256"},{"name":"boardData","type":"bytes","internalType":"bytes"}],"outputs":[],"stateMutability":"nonpayable"},{"type":"function","name":"commander","inputs":[],"outputs":[{"name":"","type":"address","internalType":"address"}],"stateMutability":"view"},{"type":"function","name":"config","inputs":[],"outputs":[{"name":"commander","type":"address","internalType":"address"},{"name":"raft","type":"address","internalType":"address"},{"name":"asset","type":"address","internalType":"contract IERC20"},{"name":"depositCap","type":"uint256","internalType":"uint256"},{"name":"maxRebalanceOutflow","type":"uint256","internalType":"uint256"},{"name":"maxRebalanceInflow","type":"uint256","internalType":"uint256"},{"name":"name","type":"string","internalType":"string"},{"name":"details","type":"string","internalType":"string"},{"name":"requiresKeeperData","type":"bool","internalType":"bool"},{"name":"maxDepositPercentageOfTVL","type":"uint256","internalType":"Percentage"}],"stateMutability":"view"},{"type":"function","name":"configurationManager","inputs":[],"outputs":[{"name":"","type":"address","internalType":"contract IConfigurationManager"}],"stateMutability":"view"},{"type":"function","name":"depositCap","inputs":[],"outputs":[{"name":"","type":"uint256","internalType":"uint256"}],"stateMutability":"view"},{"type":"function","name":"disembark","inputs":[{"name":"amount","type":"uint256","internalType":"uint256"},{"name":"disembarkData","type":"bytes","internalType":"bytes"}],"outputs":[],"stateMutability":"nonpayable"},{"type":"function","name":"fleetCommanderRewardsManagerFactory","inputs":[],"outputs":[{"name":"","type":"address","internalType":"address"}],"stateMutability":"view"},{"type":"function","name":"generateRole","inputs":[{"name":"roleName","type":"uint8","internalType":"enum ContractSpecificRoles"},{"name":"roleTargetContract","type":"address","internalType":"address"}],"outputs":[{"name":"","type":"bytes32","internalType":"bytes32"}],"stateMutability":"pure"},{"type":"function","name":"getConfig","inputs":[],"outputs":[{"name":"","type":"tuple","internalType":"struct ArkConfig","components":[{"name":"commander","type":"address","internalType":"address"},{"name":"raft","type":"address","internalType":"address"},{"name":"asset","type":"address","internalType":"contract IERC20"},{"name":"depositCap","type":"uint256","internalType":"uint256"},{"name":"maxRebalanceOutflow","type":"uint256","internalType":"uint256"},{"name":"maxRebalanceInflow","type":"uint256","internalType":"uint256"},{"name":"name","type":"string","internalType":"string"},{"name":"details","type":"string","internalType":"string"},{"name":"requiresKeeperData","type":"bool","internalType":"bool"},{"name":"maxDepositPercentageOfTVL","type":"uint256","internalType":"Percentage"}]}],"stateMutability":"view"},{"type":"function","name":"harborCommand","inputs":[],"outputs":[{"name":"","type":"address","internalType":"address"}],"stateMutability":"view"},{"type":"function","name":"harvest","inputs":[{"name":"additionalData","type":"bytes","internalType":"bytes"}],"outputs":[{"name":"rewardTokens","type":"address[]","internalType":"address[]"},{"name":"rewardAmounts","type":"uint256[]","internalType":"uint256[]"}],"stateMutability":"nonpayable"},{"type":"function","name":"maxDepositPercentageOfTVL","inputs":[],"outputs":[{"name":"","type":"uint256","internalType":"Percentage"}],"stateMutability":"view"},{"type":"function","name":"maxRebalanceInflow","inputs":[],"outputs":[{"name":"","type":"uint256","internalType":"uint256"}],"stateMutability":"view"},{"type":"function","name":"maxRebalanceOutflow","inputs":[],"outputs":[{"name":"","type":"uint256","internalType":"uint256"}],"stateMutability":"view"},{"type":"function","name":"move","inputs":[{"name":"amount","type":"uint256","internalType":"uint256"},{"name":"receiverArk","type":"address","internalType":"address"},{"name":"boardData","type":"bytes","internalType":"bytes"},{"name":"disembarkData","type":"bytes","internalType":"bytes"}],"outputs":[],"stateMutability":"nonpayable"},{"type":"function","name":"name","inputs":[],"outputs":[{"name":"","type":"string","internalType":"string"}],"stateMutability":"view"},{"type":"function","name":"raft","inputs":[],"outputs":[{"name":"","type":"address","internalType":"address"}],"stateMutability":"view"},{"type":"function","name":"registerFleetCommander","inputs":[],"outputs":[],"stateMutability":"nonpayable"},{"type":"function","name":"requiresKeeperData","inputs":[],"outputs":[{"name":"","type":"bool","internalType":"bool"}],"stateMutability":"view"},{"type":"function","name":"rewardsController","inputs":[],"outputs":[{"name":"","type":"address","internalType":"contract IRewardsController"}],"stateMutability":"view"},{"type":"function","name":"setDepositCap","inputs":[{"name":"newDepositCap","type":"uint256","internalType":"uint256"}],"outputs":[],"stateMutability":"nonpayable"},{"type":"function","name":"setMaxDepositPercentageOfTVL","inputs":[{"name":"newMaxDepositPercentageOfTVL","type":"uint256","internalType":"Percentage"}],"outputs":[],"stateMutability":"nonpayable"},{"type":"function","name":"setMaxRebalanceInflow","inputs":[{"name":"newMaxRebalanceInflow","type":"uint256","internalType":"uint256"}],"outputs":[],"stateMutability":"nonpayable"},{"type":"function","name":"setMaxRebalanceOutflow","inputs":[{"name":"newMaxRebalanceOutflow","type":"uint256","internalType":"uint256"}],"outputs":[],"stateMutability":"nonpayable"},{"type":"function","name":"sweep","inputs":[{"name":"tokens","type":"address[]","internalType":"address[]"}],"outputs":[{"name":"sweptTokens","type":"address[]","internalType":"address[]"},{"name":"sweptAmounts","type":"uint256[]","internalType":"uint256[]"}],"stateMutability":"nonpayable"},{"type":"function","name":"tipJar","inputs":[],"outputs":[{"name":"","type":"address","internalType":"address"}],"stateMutability":"view"},{"type":"function","name":"totalAssets","inputs":[],"outputs":[{"name":"","type":"uint256","internalType":"uint256"}],"stateMutability":"view"},{"type":"function","name":"treasury","inputs":[],"outputs":[{"name":"","type":"address","internalType":"address"}],"stateMutability":"view"},{"type":"function","name":"unregisterFleetCommander","inputs":[],"outputs":[],"stateMutability":"nonpayable"},{"type":"event","name":"ArkHarvested","inputs":[{"name":"rewardTokens","type":"address[]","indexed":true,"internalType":"address[]"},{"name":"rewardAmounts","type":"uint256[]","indexed":true,"internalType":"uint256[]"}],"anonymous":false},{"type":"event","name":"ArkPoked","inputs":[{"name":"currentPrice","type":"uint256","indexed":false,"internalType":"uint256"},{"name":"timestamp","type":"uint256","indexed":false,"internalType":"uint256"}],"anonymous":false},{"type":"event","name":"ArkSwept","inputs":[{"name":"sweptTokens","type":"address[]","indexed":true,"internalType":"address[]"},{"name":"sweptAmounts","type":"uint256[]","indexed":true,"internalType":"uint256[]"}],"anonymous":false},{"type":"event","name":"Boarded","inputs":[{"name":"commander","type":"address","indexed":true,"internalType":"address"},{"name":"token","type":"address","indexed":false,"internalType":"address"},{"name":"amount","type":"uint256","indexed":false,"internalType":"uint256"}],"anonymous":false},{"type":"event","name":"DepositCapUpdated","inputs":[{"name":"newCap","type":"uint256","indexed":false,"internalType":"uint256"}],"anonymous":false},{"type":"event","name":"Disembarked","inputs":[{"name":"commander","type":"address","indexed":true,"internalType":"address"},{"name":"token","type":"address","indexed":false,"internalType":"address"},{"name":"amount","type":"uint256","indexed":false,"internalType":"uint256"}],"anonymous":false},{"type":"event","name":"FleetCommanderRegistered","inputs":[{"name":"commander","type":"address","indexed":false,"internalType":"address"}],"anonymous":false},{"type":"event","name":"FleetCommanderUnregistered","inputs":[{"name":"commander","type":"address","indexed":false,"internalType":"address"}],"anonymous":false},{"type":"event","name":"MaxDepositPercentageOfTVLUpdated","inputs":[{"name":"newMaxDepositPercentageOfTVL","type":"uint256","indexed":false,"internalType":"Percentage"}],"anonymous":false},{"type":"event","name":"MaxRebalanceInflowUpdated","inputs":[{"name":"newMaxInflow","type":"uint256","indexed":false,"internalType":"uint256"}],"anonymous":false},{"type":"event","name":"MaxRebalanceOutflowUpdated","inputs":[{"name":"newMaxOutflow","type":"uint256","indexed":false,"internalType":"uint256"}],"anonymous":false},{"type":"event","name":"Moved","inputs":[{"name":"from","type":"address","indexed":true,"internalType":"address"},{"name":"to","type":"address","indexed":true,"internalType":"address"},{"name":"token","type":"address","indexed":false,"internalType":"address"},{"name":"amount","type":"uint256","indexed":false,"internalType":"uint256"}],"anonymous":false},{"type":"event","name":"RaftUpdated","inputs":[{"name":"newRaft","type":"address","indexed":false,"internalType":"address"}],"anonymous":false},{"type":"error","name":"CallerIsNotAdmin","inputs":[{"name":"caller","type":"address","internalType":"address"}]},{"type":"error","name":"CallerIsNotAuthorizedToBoard","inputs":[{"name":"caller","type":"address","internalType":"address"}]},{"type":"error","name":"CallerIsNotCommander","inputs":[{"name":"caller","type":"address","internalType":"address"}]},{"type":"error","name":"CallerIsNotContractSpecificRole","inputs":[{"name":"caller","type":"address","internalType":"address"},{"name":"role","type":"bytes32","internalType":"bytes32"}]},{"type":"error","name":"CallerIsNotCurator","inputs":[{"name":"caller","type":"address","internalType":"address"}]},{"type":"error","name":"CallerIsNotDecayController","inputs":[{"name":"caller","type":"address","internalType":"address"}]},{"type":"error","name":"CallerIsNotGovernor","inputs":[{"name":"caller","type":"address","internalType":"address"}]},{"type":"error","name":"CallerIsNotGuardian","inputs":[{"name":"caller","type":"address","internalType":"address"}]},{"type":"error","name":"CallerIsNotGuardianOrGovernor","inputs":[{"name":"caller","type":"address","internalType":"address"}]},{"type":"error","name":"CallerIsNotKeeper","inputs":[{"name":"caller","type":"address","internalType":"address"}]},{"type":"error","name":"CallerIsNotRaft","inputs":[{"name":"caller","type":"address","internalType":"address"}]},{"type":"error","name":"CallerIsNotRaftOrCommander","inputs":[{"name":"caller","type":"address","internalType":"address"}]},{"type":"error","name":"CallerIsNotSuperKeeper","inputs":[{"name":"caller","type":"address","internalType":"address"}]},{"type":"error","name":"CannotAddCommanderToArkWithCommander","inputs":[]},{"type":"error","name":"CannotDeployArkWithEmptyName","inputs":[]},{"type":"error","name":"CannotDeployArkWithoutConfigurationManager","inputs":[]},{"type":"error","name":"CannotDeployArkWithoutRaft","inputs":[]},{"type":"error","name":"CannotDeployArkWithoutToken","inputs":[]},{"type":"error","name":"CannotRemoveCommanderFromArkWithAssets","inputs":[]},{"type":"error","name":"CannotUseKeeperDataWhenNotRequired","inputs":[]},{"type":"error","name":"ConfigurationManagerZeroAddress","inputs":[]},{"type":"error","name":"DirectGrantIsDisabled","inputs":[{"name":"caller","type":"address","internalType":"address"}]},{"type":"error","name":"DirectRevokeIsDisabled","inputs":[{"name":"caller","type":"address","internalType":"address"}]},{"type":"error","name":"ERC4626AssetMismatch","inputs":[]},{"type":"error","name":"InvalidAccessManagerAddress","inputs":[{"name":"invalidAddress","type":"address","internalType":"address"}]},{"type":"error","name":"InvalidBoardData","inputs":[]},{"type":"error","name":"InvalidDisembarkData","inputs":[]},{"type":"error","name":"InvalidVaultAddress","inputs":[]},{"type":"error","name":"KeeperDataRequired","inputs":[]},{"type":"error","name":"ReentrancyGuardReentrantCall","inputs":[]},{"type":"error","name":"SafeERC20FailedOperation","inputs":[{"name":"token","type":"address","internalType":"address"}]}],"bytecode":{"object":"0x610100604052348015610010575f5ffd5b5060405161308938038061308983398101604081905261002f9161052d565b6060810151604082015182918291806001600160a01b03811661006c576040516347bd7c1d60e01b81525f60048201526024015b60405180910390fd5b6040516301ffc9a760e01b8152639bd1803160e01b60048201526001600160a01b038216906301ffc9a790602401602060405180830381865afa1580156100b5573d5f5f3e3d5ffd5b505050506040513d601f19601f820116820180604052508101906100d99190610657565b610101576040516347bd7c1d60e01b81526001600160a01b0382166004820152602401610063565b5f80546001600160a01b0319166001600160a01b039283161790558216905061013d5760405163f1634df960e01b815260040160405180910390fd5b6001600160a01b0390811660805260608201511661016e5760405163b53c493160e01b815260040160405180910390fd5b60808101516001600160a01b031661019c576040516001620a810f60e11b0319815260040160405180910390fd5b8051515f036101be5760405163268c072960e01b815260040160405180910390fd5b5f6101c76103b2565b6001600160a01b0316036101ee57604051633a4f9cdb60e21b815260040160405180910390fd5b6040805161014081019091525f8152602081016102096103b2565b6001600160a01b039081168252608080850151821660208085019190915260a08087015160408087019190915260c08089015160608089019190915260e0808b0151878a01528a51858a01528a860151838a0152610100808c01511515918a01919091526101208b01519801979097528751600180549188166001600160a01b031992831617815594890151600280549189169183169190911790559188015160038054919097169216919091179094559385015160045590840151600555918301516006558201516007906102df90826106fb565b5060e082015160078201906102f490826106fb565b5061010082015160088201805460ff19169115159190911790556101209091015160099091015550506001600160a01b0383811660c08190526003546040516335ea6a7560e01b8152921660048301525f916335ea6a75906024016101e060405180830381865afa15801561036b573d5f5f3e3d5ffd5b505050506040513d601f19601f8201168201806040525081019061038f919061082f565b61010001516001600160a01b0390811660a0529290921660e05250610972915050565b5f6080516001600160a01b031663117d8ae06040518163ffffffff1660e01b8152600401602060405180830381865afa1580156103f1573d5f5f3e3d5ffd5b505050506040513d601f19601f820116820180604052508101906104159190610959565b905090565b80516001600160a01b0381168114610430575f5ffd5b919050565b634e487b7160e01b5f52604160045260245ffd5b60405161014081016001600160401b038111828210171561046c5761046c610435565b60405290565b6040516101e081016001600160401b038111828210171561046c5761046c610435565b5f82601f8301126104a4575f5ffd5b81516001600160401b038111156104bd576104bd610435565b604051601f8201601f19908116603f011681016001600160401b03811182821017156104eb576104eb610435565b604052818152838201602001851015610502575f5ffd5b8160208501602083015e5f918101602001919091529392505050565b80518015158114610430575f5ffd5b5f5f5f6060848603121561053f575f5ffd5b6105488461041a565b92506105566020850161041a565b60408501519092506001600160401b03811115610571575f5ffd5b84016101408187031215610583575f5ffd5b61058b610449565b81516001600160401b038111156105a0575f5ffd5b6105ac88828501610495565b82525060208201516001600160401b038111156105c7575f5ffd5b6105d388828501610495565b6020830152506105e56040830161041a565b60408201526105f66060830161041a565b60608201526106076080830161041a565b608082015260a0828101519082015260c0808301519082015260e08083015190820152610637610100830161051e565b610100820152610120918201519181019190915292959194509192509050565b5f60208284031215610667575f5ffd5b6106708261051e565b9392505050565b600181811c9082168061068b57607f821691505b6020821081036106a957634e487b7160e01b5f52602260045260245ffd5b50919050565b601f8211156106f657805f5260205f20601f840160051c810160208510156106d45750805b601f840160051c820191505b818110156106f3575f81556001016106e0565b50505b505050565b81516001600160401b0381111561071457610714610435565b610728816107228454610677565b846106af565b6020601f82116001811461075a575f83156107435750848201515b5f19600385901b1c1916600184901b1784556106f3565b5f84815260208120601f198516915b828110156107895787850151825560209485019460019092019101610769565b50848210156107a657868401515f19600387901b60f8161c191681555b50505050600190811b01905550565b5f602082840312156107c5575f5ffd5b604051602081016001600160401b03811182821017156107e7576107e7610435565b6040529151825250919050565b80516001600160801b0381168114610430575f5ffd5b805164ffffffffff81168114610430575f5ffd5b805161ffff81168114610430575f5ffd5b5f6101e0828403128015610841575f5ffd5b5061084a610472565b61085484846107b5565b8152610862602084016107f4565b6020820152610873604084016107f4565b6040820152610884606084016107f4565b6060820152610895608084016107f4565b60808201526108a660a084016107f4565b60a08201526108b760c0840161080a565b60c08201526108c860e0840161081e565b60e08201526108da610100840161041a565b6101008201526108ed610120840161041a565b610120820152610900610140840161041a565b610140820152610913610160840161041a565b61016082015261092661018084016107f4565b6101808201526109396101a084016107f4565b6101a082015261094c6101c084016107f4565b6101c08201529392505050565b5f60208284031215610969575f5ffd5b6106708261041a565b60805160a05160c05160e0516126976109f25f395f81816102f10152611cfd01525f81816103720152818161191201528181611a600152611b1001525f81816103b4015281816104770152611ca501525f818161041301528181610583015281816109310152818161098e01528181611151015261172f01526126975ff3fe608060405234801561000f575f5ffd5b50600436106101e7575f3560e01c806379502c5511610109578063bdcdd8821161009e578063ce5c7f611161006e578063ce5c7f6114610435578063dbd5edc714610448578063ebf3113114610450578063f7e533ec14610458575f5ffd5b8063bdcdd882146103de578063c38a6f0b146103e6578063c3f909d4146103f9578063c9c667e31461040e575f5ffd5b80638a8b9976116100d95780638a8b99761461039457806392f5e8321461039c578063a0c1f15e146103af578063ad5a356f146103d6575f5ffd5b806379502c55146103345780637aaceb9514610352578063866512031461035a57806386a06ff01461036d575f5ffd5b806338d52e0f1161017f57806361f5cd8b1161014f57806361f5cd8b146102c657806369b3054b146102d95780636bb65f53146102ec578063780469bb14610313575f5ffd5b806338d52e0f146102925780634fc7fac3146102a35780635b0f83f3146102b657806361d027b3146102be575f5ffd5b80632db6d399116101ba5780632db6d39914610250578063303dbaf3146102635780633194549e146102795780633727093614610281575f5ffd5b806301e1d114146101eb57806306fdde0314610206578063117d8ae01461021b57806313c408f81461023b575b5f5ffd5b6101f3610460565b6040519081526020015b60405180910390f35b61020e6104ed565b6040516101fd9190611f1c565b610223610580565b6040516001600160a01b0390911681526020016101fd565b61024e610249366004611f73565b610601565b005b61024e61025e366004611f73565b6106ca565b60095460ff1660405190151581526020016101fd565b6005546101f3565b6001546001600160a01b0316610223565b6003546001600160a01b0316610223565b61024e6102b1366004611fbb565b6108e0565b61022361092e565b61022361098b565b61024e6102d4366004611fbb565b6109e8565b6101f36102e7366004611fe9565b610a2f565b6102237f000000000000000000000000000000000000000000000000000000000000000081565b610326610321366004612068565b610a61565b6040516101fd92919061215f565b61033c610ff7565b6040516101fd9a999897969594939291906121b7565b61022361114e565b61024e610368366004611fbb565b6111ab565b6102237f000000000000000000000000000000000000000000000000000000000000000081565b61024e6111f2565b61024e6103aa366004611fbb565b61124f565b6102237f000000000000000000000000000000000000000000000000000000000000000081565b6006546101f3565b600a546101f3565b61024e6103f436600461222e565b611296565b6104016113e7565b6040516101fd91906122b9565b6102237f000000000000000000000000000000000000000000000000000000000000000081565b61032661044336600461238a565b6115e0565b6004546101f3565b61024e6116da565b61022361172c565b6040516370a0823160e01b81523060048201525f907f00000000000000000000000000000000000000000000000000000000000000006001600160a01b0316906370a0823190602401602060405180830381865afa1580156104c4573d5f5f3e3d5ffd5b505050506040513d601f19601f820116820180604052508101906104e891906123c9565b905090565b6060600160060180546104ff906123e0565b80601f016020809104026020016040519081016040528092919081815260200182805461052b906123e0565b80156105765780601f1061054d57610100808354040283529160200191610576565b820191905f5260205f20905b81548152906001019060200180831161055957829003601f168201915b5050505050905090565b5f7f00000000000000000000000000000000000000000000000000000000000000006001600160a01b031663117d8ae06040518163ffffffff1660e01b8152600401602060405180830381865afa1580156105dd573d5f5f3e3d5ffd5b505050506040513d601f19601f820116820180604052508101906104e89190612418565b610609611789565b61063957335b604051631564c0e160e11b81526001600160a01b0390911660048201526024015b60405180910390fd5b610641611812565b818161064d8282611881565b336106598686866118e3565b600354610670906001600160a01b03168288611984565b600354604080516001600160a01b03928316815260208101899052918316917fd5e872c5ecfb1bb8820b2e6a20e31b883682282da886621541f71e31ec11947e910160405180910390a25050506106c56119e3565b505050565b6106d2611812565b306001600160a01b031663372709366040518163ffffffff1660e01b8152600401602060405180830381865afa15801561070e573d5f5f3e3d5ffd5b505050506040513d601f19601f820116820180604052508101906107329190612418565b61073a611789565b610859575f3390505f306001600160a01b031663117d8ae06040518163ffffffff1660e01b8152600401602060405180830381865afa15801561077f573d5f5f3e3d5ffd5b505050506040513d601f19601f820116820180604052508101906107a39190612418565b6001600160a01b0316826001600160a01b0316149050806108565760405163d25dd10160e01b81526001600160a01b0383811660048301525f919085169063d25dd10190602401602060405180830381865afa158015610805573d5f5f3e3d5ffd5b505050506040513d601f19601f820116820180604052508101906108299190612433565b90508061085457604051638f7a567d60e01b81526001600160a01b0384166004820152602401610630565b505b50505b82826108658282611881565b600354339061087f906001600160a01b031682308a611a0d565b61088a878787611a46565b600354604080516001600160a01b039283168152602081018a9052918316917fcbaa1442ac205415c9d69643e7b60ec73d1de35dbc807c21ec288c70ddc4207b910160405180910390a2505050506106c56119e3565b6108e8611789565b6108f2573361060f565b600a8190556040518181527fd3c6d0ab315f2f1352f036cd9f401b49e38e1b90907e195225e8105f9a0b6f02906020015b60405180910390a150565b5f7f00000000000000000000000000000000000000000000000000000000000000006001600160a01b0316635b0f83f36040518163ffffffff1660e01b8152600401602060405180830381865afa1580156105dd573d5f5f3e3d5ffd5b5f7f00000000000000000000000000000000000000000000000000000000000000006001600160a01b03166361d027b36040518163ffffffff1660e01b8152600401602060405180830381865afa1580156105dd573d5f5f3e3d5ffd5b6109f0611789565b6109fa573361060f565b60058190556040518181527ffbe2d5c01ea8ba5596d6c4e6c82c6d4a0a0ee1128689993a4a5ba0169273d69f90602001610923565b5f8282604051602001610a43929190612452565b60405160208183030381529060405280519060200120905092915050565b606080306001600160a01b031663117d8ae06040518163ffffffff1660e01b8152600401602060405180830381865afa158015610aa0573d5f5f3e3d5ffd5b505050506040513d601f19601f82011682018060405250810190610ac49190612418565b6001600160a01b0316336001600160a01b031614610b0357335b604051631184b31b60e21b81526001600160a01b039091166004820152602401610630565b610b0b611812565b825167ffffffffffffffff811115610b2557610b25612023565b604051908082528060200260200182016040528015610b4e578160200160208202803683370190505b509150825167ffffffffffffffff811115610b6b57610b6b612023565b604051908082528060200260200182016040528015610b94578160200160208202803683370190505b506003546040516370a0823160e01b81523060048201529192505f916001600160a01b03909116906370a0823190602401602060405180830381865afa158015610be0573d5f5f3e3d5ffd5b505050506040513d601f19601f82011682018060405250810190610c0491906123c9565b1115610dc857600154604080516330fe427560e21b815290515f926001600160a01b03169163c3f909d49160048083019260a09291908290030181865afa158015610c51573d5f5f3e3d5ffd5b505050506040513d601f19601f82011682018060405250810190610c759190612495565b516003546040516370a0823160e01b8152306004820152919250610cfa9183916001600160a01b0316906370a0823190602401602060405180830381865afa158015610cc3573d5f5f3e3d5ffd5b505050506040513d601f19601f82011682018060405250810190610ce791906123c9565b6003546001600160a01b03169190611b6e565b6003546040516370a0823160e01b81523060048201526001600160a01b0383811692632db6d399929116906370a0823190602401602060405180830381865afa158015610d49573d5f5f3e3d5ffd5b505050506040513d601f19601f82011682018060405250810190610d6d91906123c9565b60405180602001604052805f8152506040518363ffffffff1660e01b8152600401610d99929190612512565b5f604051808303815f87803b158015610db0575f5ffd5b505af1158015610dc2573d5f5f3e3d5ffd5b50505050505b5f5b8351811015610f96575f848281518110610de657610de6612532565b60209081029190910101516040516370a0823160e01b81523060048201526001600160a01b03909116906370a0823190602401602060405180830381865afa158015610e34573d5f5f3e3d5ffd5b505050506040513d601f19601f82011682018060405250810190610e5891906123c9565b90508015610f8d57610f21610e6b610580565b868481518110610e7d57610e7d612532565b60209081029190910101516040516370a0823160e01b81523060048201526001600160a01b03909116906370a0823190602401602060405180830381865afa158015610ecb573d5f5f3e3d5ffd5b505050506040513d601f19601f82011682018060405250810190610eef91906123c9565b878581518110610f0157610f01612532565b60200260200101516001600160a01b03166119849092919063ffffffff16565b848281518110610f3357610f33612532565b6020026020010151848381518110610f4d57610f4d612532565b60200260200101906001600160a01b031690816001600160a01b03168152505080838381518110610f8057610f80612532565b6020026020010181815250505b50600101610dca565b5080604051610fa59190612546565b604051809103902082604051610fbb919061257b565b604051908190038120907f46b8771620f6acf56cb03d3e835ea8024c7dcbcf05fcc3f6ade9e19d1a3e212b905f90a3610ff26119e3565b915091565b60018054600254600354600454600554600654600780546001600160a01b03978816989688169790951695939492939192611031906123e0565b80601f016020809104026020016040519081016040528092919081815260200182805461105d906123e0565b80156110a85780601f1061107f576101008083540402835291602001916110a8565b820191905f5260205f20905b81548152906001019060200180831161108b57829003601f168201915b5050505050908060070180546110bd906123e0565b80601f01602080910402602001604051908101604052809291908181526020018280546110e9906123e0565b80156111345780601f1061110b57610100808354040283529160200191611134565b820191905f5260205f20905b81548152906001019060200180831161111757829003601f168201915b505050506008830154600990930154919260ff169190508a565b5f7f00000000000000000000000000000000000000000000000000000000000000006001600160a01b0316637aaceb956040518163ffffffff1660e01b8152600401602060405180830381865afa1580156105dd573d5f5f3e3d5ffd5b6111b3611789565b6111bd573361060f565b60048190556040518181527f333b26cca69716ad4680ddb07663f5bfb4f06045671f336af9a83690a3ae00f990602001610923565b6111fa611789565b611204573361060f565b600180546001600160a01b031916339081179091556040519081527f55489ce0259bd691120d8860861be1c401c7c16a3cd268d21045756af4ecc5ca906020015b60405180910390a1565b611257611789565b611261573361060f565b60068190556040518181527fb6ac66853c4e59c71e118d25ab494bb847c4e5eb0c8894898c5343e6f61afc1290602001610923565b61129e611789565b6112a8573361060f565b81816112b48282611881565b6112bf8885856118e3565b60035460405163095ea7b360e01b81526001600160a01b038981166004830152602482018b90529091169063095ea7b3906044016020604051808303815f875af115801561130f573d5f5f3e3d5ffd5b505050506040513d601f19601f820116820180604052508101906113339190612433565b50604051632db6d39960e01b81526001600160a01b03881690632db6d39990611364908b908a908a906004016125ae565b5f604051808303815f87803b15801561137b575f5ffd5b505af115801561138d573d5f5f3e3d5ffd5b5050600354604080516001600160a01b039283168152602081018d9052918b1693503092507f9f784fc02a186f1c98b2d9f15fda084da27cdd291a3785d978f91911d880516b910160405180910390a35050505050505050565b6114526040518061014001604052805f6001600160a01b031681526020015f6001600160a01b031681526020015f6001600160a01b031681526020015f81526020015f81526020015f815260200160608152602001606081526020015f151581526020015f81525090565b6040805161014081018252600180546001600160a01b0390811683526002548116602084015260035416928201929092526004546060820152600554608082015260065460a08201526007805491929160c0840191906114b1906123e0565b80601f01602080910402602001604051908101604052809291908181526020018280546114dd906123e0565b80156115285780601f106114ff57610100808354040283529160200191611528565b820191905f5260205f20905b81548152906001019060200180831161150b57829003601f168201915b50505050508152602001600782018054611541906123e0565b80601f016020809104026020016040519081016040528092919081815260200182805461156d906123e0565b80156115b85780601f1061158f576101008083540402835291602001916115b8565b820191905f5260205f20905b81548152906001019060200180831161159b57829003601f168201915b5050509183525050600882015460ff1615156020820152600990910154604090910152919050565b606080306001600160a01b031663117d8ae06040518163ffffffff1660e01b8152600401602060405180830381865afa15801561161f573d5f5f3e3d5ffd5b505050506040513d601f19601f820116820180604052508101906116439190612418565b6001600160a01b0316336001600160a01b0316146116615733610ade565b611669611812565b6116738484611bfd565b6040519193509150611686908290612546565b60405180910390208260405161169c919061257b565b604051908190038120907f3e3e7958121b3e39c7a49392d1aa9cdce870c2a059744f9e15cf66fff7865455905f90a36116d36119e3565b9250929050565b6116e2611789565b6116ec573361060f565b600180546001600160a01b03191690556040513381527f7cb941d7b1708e5b3bcd35ca960d6c6311188cec18886e5b67630552676b048790602001611245565b5f7f00000000000000000000000000000000000000000000000000000000000000006001600160a01b031663f7e533ec6040518163ffffffff1660e01b8152600401602060405180830381865afa1580156105dd573d5f5f3e3d5ffd5b5f80546001600160a01b03166391d148546117a5600230610a2f565b336040516001600160e01b031960e085901b16815260048101929092526001600160a01b03166024820152604401602060405180830381865afa1580156117ee573d5f5f3e3d5ffd5b505050506040513d601f19601f820116820180604052508101906104e89190612433565b7f9b779b17422d0df92223018b32b4d1fa46e071723d6817e2486d003becc55f005c1561185257604051633ee5aeb560e01b815260040160405180910390fd5b61187f60017f9b779b17422d0df92223018b32b4d1fa46e071723d6817e2486d003becc55f005b90611e32565b565b8015801590611893575060095460ff16155b156118b157604051630cd0fdf960e01b815260040160405180910390fd5b801580156118c1575060095460ff165b156118df5760405163332863a960e11b815260040160405180910390fd5b5050565b600354604051631a4ca37b60e21b81526001600160a01b039182166004820152602481018590523060448201527f0000000000000000000000000000000000000000000000000000000000000000909116906369328dec906064016020604051808303815f875af115801561195a573d5f5f3e3d5ffd5b505050506040513d601f19601f8201168201806040525081019061197e91906123c9565b50505050565b6040516001600160a01b038381166024830152604482018390526106c591859182169063a9059cbb906064015b604051602081830303815290604052915060e01b6020820180516001600160e01b038381831617835250505050611e39565b61187f5f7f9b779b17422d0df92223018b32b4d1fa46e071723d6817e2486d003becc55f00611879565b6040516001600160a01b03848116602483015283811660448301526064820183905261197e9186918216906323b872dd906084016119b1565b60035460405163095ea7b360e01b81526001600160a01b037f000000000000000000000000000000000000000000000000000000000000000081166004830152602482018690529091169063095ea7b3906044016020604051808303815f875af1158015611ab6573d5f5f3e3d5ffd5b505050506040513d601f19601f82011682018060405250810190611ada9190612433565b5060035460405163617ba03760e01b81526001600160a01b039182166004820152602481018590523060448201525f60648201527f00000000000000000000000000000000000000000000000000000000000000009091169063617ba037906084015f604051808303815f87803b158015611b53575f5ffd5b505af1158015611b65573d5f5f3e3d5ffd5b50505050505050565b604080516001600160a01b038416602482015260448082018490528251808303909101815260649091019091526020810180516001600160e01b031663095ea7b360e01b179052611bbf8482611ea5565b61197e576040516001600160a01b0384811660248301525f6044830152611bf391869182169063095ea7b3906064016119b1565b61197e8482611e39565b6040805160018082528183019092526060918291906020808301908036833750506040805160018082528183019092529294509050602080830190803683370190505090505f611c4f848601866125e3565b9050805f0151835f81518110611c6757611c67612532565b6001600160a01b0392909216602092830291909101909101526040805160018082528183019092525f918160200160208202803683370190505090507f0000000000000000000000000000000000000000000000000000000000000000815f81518110611cd657611cd6612532565b6001600160a01b03928316602091820292909201015282516040516357b8988360e01b81527f0000000000000000000000000000000000000000000000000000000000000000909216916357b8988391611d379185915f199160040161262f565b6020604051808303815f875af1158015611d53573d5f5f3e3d5ffd5b505050506040513d601f19601f82011682018060405250810190611d7791906123c9565b835f81518110611d8957611d89612532565b602002602001018181525050611dd6611da0610580565b845f81518110611db257611db2612532565b6020026020010151845f01516001600160a01b03166119849092919063ffffffff16565b82604051611de49190612546565b604051809103902084604051611dfa919061257b565b604051908190038120907f3e3e7958121b3e39c7a49392d1aa9cdce870c2a059744f9e15cf66fff7865455905f90a350509250929050565b80825d5050565b5f5f60205f8451602086015f885af180611e58576040513d5f823e3d81fd5b50505f513d91508115611e6f578060011415611e7c565b6001600160a01b0384163b155b1561197e57604051635274afe760e01b81526001600160a01b0385166004820152602401610630565b5f5f5f5f60205f8651602088015f8a5af192503d91505f519050828015611ee457508115611ed65780600114611ee4565b5f866001600160a01b03163b115b9695505050505050565b5f81518084528060208401602086015e5f602082860101526020601f19601f83011685010191505092915050565b602081525f611f2e6020830184611eee565b9392505050565b5f5f83601f840112611f45575f5ffd5b50813567ffffffffffffffff811115611f5c575f5ffd5b6020830191508360208285010111156116d3575f5ffd5b5f5f5f60408486031215611f85575f5ffd5b83359250602084013567ffffffffffffffff811115611fa2575f5ffd5b611fae86828701611f35565b9497909650939450505050565b5f60208284031215611fcb575f5ffd5b5035919050565b6001600160a01b0381168114611fe6575f5ffd5b50565b5f5f60408385031215611ffa575f5ffd5b823560038110612008575f5ffd5b9150602083013561201881611fd2565b809150509250929050565b634e487b7160e01b5f52604160045260245ffd5b604051601f8201601f1916810167ffffffffffffffff8111828210171561206057612060612023565b604052919050565b5f60208284031215612078575f5ffd5b813567ffffffffffffffff81111561208e575f5ffd5b8201601f8101841361209e575f5ffd5b803567ffffffffffffffff8111156120b8576120b8612023565b8060051b6120c860208201612037565b918252602081840181019290810190878411156120e3575f5ffd5b6020850194505b8385101561211157843592506120ff83611fd2565b828252602094850194909101906120ea565b979650505050505050565b5f8151808452602084019350602083015f5b828110156121555781516001600160a01b031686526020958601959091019060010161212e565b5093949350505050565b604081525f612171604083018561211c565b82810360208401528084518083526020830191506020860192505f5b818110156121ab57835183526020938401939092019160010161218d565b50909695505050505050565b6001600160a01b038b811682528a8116602083015289166040820152606081018890526080810187905260a0810186905261014060c082018190525f9061220090830187611eee565b82810360e08401526122128187611eee565b9415156101008401525050610120015298975050505050505050565b5f5f5f5f5f5f60808789031215612243575f5ffd5b86359550602087013561225581611fd2565b9450604087013567ffffffffffffffff811115612270575f5ffd5b61227c89828a01611f35565b909550935050606087013567ffffffffffffffff81111561229b575f5ffd5b6122a789828a01611f35565b979a9699509497509295939492505050565b602081526122d36020820183516001600160a01b03169052565b5f60208301516122ee60408401826001600160a01b03169052565b5060408301516001600160a01b03811660608401525060608301516080830152608083015160a083015260a083015160c083015260c083015161014060e084015261233d610160840182611eee565b905060e0840151601f198483030161010085015261235b8282611eee565b91505061010084015161237361012085018215159052565b506101208401516101408401528091505092915050565b5f5f6020838503121561239b575f5ffd5b823567ffffffffffffffff8111156123b1575f5ffd5b6123bd85828601611f35565b90969095509350505050565b5f602082840312156123d9575f5ffd5b5051919050565b600181811c908216806123f457607f821691505b60208210810361241257634e487b7160e01b5f52602260045260245ffd5b50919050565b5f60208284031215612428575f5ffd5b8151611f2e81611fd2565b5f60208284031215612443575f5ffd5b81518015158114611f2e575f5ffd5b5f6003841061246f57634e487b7160e01b5f52602160045260245ffd5b5060f89290921b825260601b6bffffffffffffffffffffffff1916600182015260150190565b5f60a08284031280156124a6575f5ffd5b5060405160a0810167ffffffffffffffff811182821017156124ca576124ca612023565b60405282516124d881611fd2565b8152602083810151908201526040808401519082015260608084015190820152608083015161250681611fd2565b60808201529392505050565b828152604060208201525f61252a6040830184611eee565b949350505050565b634e487b7160e01b5f52603260045260245ffd5b81515f90829060208501835b82811015612570578151845260209384019390910190600101612552565b509195945050505050565b81515f90829060208501835b828110156125705781516001600160a01b0316845260209384019390910190600101612587565b83815260406020820152816040820152818360608301375f818301606090810191909152601f909201601f1916010192915050565b5f60208284031280156125f4575f5ffd5b506040516020810167ffffffffffffffff8111828210171561261857612618612023565b604052823561262681611fd2565b81529392505050565b606081525f612641606083018661211c565b6020830194909452506001600160a01b039190911660409091015291905056fea264697066735822122027b7b86da70cb7c343705a321e728374aa9dc42aeeed2144d8a0eff2631dd7da64736f6c634300081c0033","linkReferences":{}},"methodIdentifiers":{"aToken()":"a0c1f15e","aaveV3Pool()":"86a06ff0","asset()":"38d52e0f","board(uint256,bytes)":"2db6d399","commander()":"37270936","config()":"79502c55","configurationManager()":"c9c667e3","depositCap()":"dbd5edc7","disembark(uint256,bytes)":"13c408f8","fleetCommanderRewardsManagerFactory()":"f7e533ec","generateRole(uint8,address)":"69b3054b","getConfig()":"c3f909d4","harborCommand()":"5b0f83f3","harvest(bytes)":"ce5c7f61","maxDepositPercentageOfTVL()":"bdcdd882","maxRebalanceInflow()":"ad5a356f","maxRebalanceOutflow()":"3194549e","move(uint256,address,bytes,bytes)":"c38a6f0b","name()":"06fdde03","raft()":"117d8ae0","registerFleetCommander()":"8a8b9976","requiresKeeperData()":"303dbaf3","rewardsController()":"6bb65f53","setDepositCap(uint256)":"86651203","setMaxDepositPercentageOfTVL(uint256)":"4fc7fac3","setMaxRebalanceInflow(uint256)":"92f5e832","setMaxRebalanceOutflow(uint256)":"61f5cd8b","sweep(address[])":"780469bb","tipJar()":"7aaceb95","totalAssets()":"01e1d114","treasury()":"61d027b3","unregisterFleetCommander()":"ebf31131"},"id":203}