{"abi":[{"type":"constructor","inputs":[{"name":"name","type":"string","internalType":"string"},{"name":"symbol","type":"string","internalType":"string"}],"stateMutability":"nonpayable"},{"type":"function","name":"DOMAIN_SEPARATOR","inputs":[],"outputs":[{"name":"","type":"bytes32","internalType":"bytes32"}],"stateMutability":"pure"},{"type":"function","name":"allowance","inputs":[{"name":"owner","type":"address","internalType":"address"},{"name":"spender","type":"address","internalType":"address"}],"outputs":[{"name":"","type":"uint256","internalType":"uint256"}],"stateMutability":"view"},{"type":"function","name":"approve","inputs":[{"name":"spender","type":"address","internalType":"address"},{"name":"value","type":"uint256","internalType":"uint256"}],"outputs":[{"name":"","type":"bool","internalType":"bool"}],"stateMutability":"nonpayable"},{"type":"function","name":"balanceOf","inputs":[{"name":"account","type":"address","internalType":"address"}],"outputs":[{"name":"","type":"uint256","internalType":"uint256"}],"stateMutability":"view"},{"type":"function","name":"burn","inputs":[{"name":"value","type":"uint256","internalType":"uint256"}],"outputs":[],"stateMutability":"nonpayable"},{"type":"function","name":"burnFrom","inputs":[{"name":"account","type":"address","internalType":"address"},{"name":"value","type":"uint256","internalType":"uint256"}],"outputs":[],"stateMutability":"nonpayable"},{"type":"function","name":"createVestingWallet","inputs":[{"name":"","type":"address","internalType":"address"},{"name":"","type":"uint256","internalType":"uint256"},{"name":"","type":"uint256[]","internalType":"uint256[]"},{"name":"","type":"uint8","internalType":"enum ISummerVestingWallet.VestingType"}],"outputs":[],"stateMutability":"pure"},{"type":"function","name":"decimals","inputs":[],"outputs":[{"name":"","type":"uint8","internalType":"uint8"}],"stateMutability":"view"},{"type":"function","name":"mint","inputs":[{"name":"to","type":"address","internalType":"address"},{"name":"amount","type":"uint256","internalType":"uint256"}],"outputs":[],"stateMutability":"nonpayable"},{"type":"function","name":"name","inputs":[],"outputs":[{"name":"","type":"string","internalType":"string"}],"stateMutability":"view"},{"type":"function","name":"nonces","inputs":[{"name":"","type":"address","internalType":"address"}],"outputs":[{"name":"","type":"uint256","internalType":"uint256"}],"stateMutability":"pure"},{"type":"function","name":"permit","inputs":[{"name":"","type":"address","internalType":"address"},{"name":"","type":"address","internalType":"address"},{"name":"","type":"uint256","internalType":"uint256"},{"name":"","type":"uint256","internalType":"uint256"},{"name":"","type":"uint8","internalType":"uint8"},{"name":"","type":"bytes32","internalType":"bytes32"},{"name":"","type":"bytes32","internalType":"bytes32"}],"outputs":[],"stateMutability":"pure"},{"type":"function","name":"symbol","inputs":[],"outputs":[{"name":"","type":"string","internalType":"string"}],"stateMutability":"view"},{"type":"function","name":"testSkipper","inputs":[],"outputs":[],"stateMutability":"pure"},{"type":"function","name":"totalSupply","inputs":[],"outputs":[{"name":"","type":"uint256","internalType":"uint256"}],"stateMutability":"view"},{"type":"function","name":"transfer","inputs":[{"name":"to","type":"address","internalType":"address"},{"name":"value","type":"uint256","internalType":"uint256"}],"outputs":[{"name":"","type":"bool","internalType":"bool"}],"stateMutability":"nonpayable"},{"type":"function","name":"transferFrom","inputs":[{"name":"from","type":"address","internalType":"address"},{"name":"to","type":"address","internalType":"address"},{"name":"value","type":"uint256","internalType":"uint256"}],"outputs":[{"name":"","type":"bool","internalType":"bool"}],"stateMutability":"nonpayable"},{"type":"function","name":"vestingWallets","inputs":[{"name":"","type":"address","internalType":"address"}],"outputs":[{"name":"","type":"address","internalType":"address"}],"stateMutability":"pure"},{"type":"event","name":"Approval","inputs":[{"name":"owner","type":"address","indexed":true,"internalType":"address"},{"name":"spender","type":"address","indexed":true,"internalType":"address"},{"name":"value","type":"uint256","indexed":false,"internalType":"uint256"}],"anonymous":false},{"type":"event","name":"Transfer","inputs":[{"name":"from","type":"address","indexed":true,"internalType":"address"},{"name":"to","type":"address","indexed":true,"internalType":"address"},{"name":"value","type":"uint256","indexed":false,"internalType":"uint256"}],"anonymous":false},{"type":"event","name":"VestingWalletCreated","inputs":[{"name":"beneficiary","type":"address","indexed":true,"internalType":"address"},{"name":"vestingWallet","type":"address","indexed":true,"internalType":"address"},{"name":"timeBasedAmount","type":"uint256","indexed":false,"internalType":"uint256"},{"name":"goalAmounts","type":"uint256[]","indexed":false,"internalType":"uint256[]"},{"name":"vestingType","type":"uint8","indexed":false,"internalType":"enum ISummerVestingWallet.VestingType"}],"anonymous":false},{"type":"error","name":"ERC20InsufficientAllowance","inputs":[{"name":"spender","type":"address","internalType":"address"},{"name":"allowance","type":"uint256","internalType":"uint256"},{"name":"needed","type":"uint256","internalType":"uint256"}]},{"type":"error","name":"ERC20InsufficientBalance","inputs":[{"name":"sender","type":"address","internalType":"address"},{"name":"balance","type":"uint256","internalType":"uint256"},{"name":"needed","type":"uint256","internalType":"uint256"}]},{"type":"error","name":"ERC20InvalidApprover","inputs":[{"name":"approver","type":"address","internalType":"address"}]},{"type":"error","name":"ERC20InvalidReceiver","inputs":[{"name":"receiver","type":"address","internalType":"address"}]},{"type":"error","name":"ERC20InvalidSender","inputs":[{"name":"sender","type":"address","internalType":"address"}]},{"type":"error","name":"ERC20InvalidSpender","inputs":[{"name":"spender","type":"address","internalType":"address"}]}],"bytecode":{"object":"0x608060405234801561000f575f5ffd5b5060405161102038038061102083398101604081905261002e91610288565b8181600361003c8382610371565b5060046100498282610371565b50505061007c3361005e61008360201b60201c565b61006990600a610524565b61007790633b9aca00610539565b610088565b5050610563565b601290565b6001600160a01b0382166100b65760405163ec442f0560e01b81525f60048201526024015b60405180910390fd5b6100c15f83836100c5565b5050565b6001600160a01b0383166100ef578060025f8282546100e49190610550565b9091555061015f9050565b6001600160a01b0383165f90815260208190526040902054818110156101415760405163391434e360e21b81526001600160a01b038516600482015260248101829052604481018390526064016100ad565b6001600160a01b0384165f9081526020819052604090209082900390555b6001600160a01b03821661017b57600280548290039055610199565b6001600160a01b0382165f9081526020819052604090208054820190555b816001600160a01b0316836001600160a01b03167fddf252ad1be2c89b69c2b068fc378daa952ba7f163c4a11628f55a4df523b3ef836040516101de91815260200190565b60405180910390a3505050565b634e487b7160e01b5f52604160045260245ffd5b5f82601f83011261020e575f5ffd5b81516001600160401b03811115610227576102276101eb565b604051601f8201601f19908116603f011681016001600160401b0381118282101715610255576102556101eb565b60405281815283820160200185101561026c575f5ffd5b8160208501602083015e5f918101602001919091529392505050565b5f5f60408385031215610299575f5ffd5b82516001600160401b038111156102ae575f5ffd5b6102ba858286016101ff565b602085015190935090506001600160401b038111156102d7575f5ffd5b6102e3858286016101ff565b9150509250929050565b600181811c9082168061030157607f821691505b60208210810361031f57634e487b7160e01b5f52602260045260245ffd5b50919050565b601f82111561036c57805f5260205f20601f840160051c8101602085101561034a5750805b601f840160051c820191505b81811015610369575f8155600101610356565b50505b505050565b81516001600160401b0381111561038a5761038a6101eb565b61039e8161039884546102ed565b84610325565b6020601f8211600181146103d0575f83156103b95750848201515b5f19600385901b1c1916600184901b178455610369565b5f84815260208120601f198516915b828110156103ff57878501518255602094850194600190920191016103df565b508482101561041c57868401515f19600387901b60f8161c191681555b50505050600190811b01905550565b634e487b7160e01b5f52601160045260245ffd5b6001815b600184111561047a5780850481111561045e5761045e61042b565b600184161561046c57908102905b60019390931c928002610443565b935093915050565b5f826104905750600161051e565b8161049c57505f61051e565b81600181146104b257600281146104bc576104d8565b600191505061051e565b60ff8411156104cd576104cd61042b565b50506001821b61051e565b5060208310610133831016604e8410600b84101617156104fb575081810a61051e565b6105075f19848461043f565b805f190482111561051a5761051a61042b565b0290505b92915050565b5f61053260ff841683610482565b9392505050565b808202811582820484141761051e5761051e61042b565b8082018082111561051e5761051e61042b565b610ab0806105705f395ff3fe608060405234801561000f575f5ffd5b5060043610610111575f3560e01c806370a082311161009e57806395d89b411161006e57806395d89b4114610223578063a9059cbb1461022b578063baf351071461023e578063d505accf14610264578063dd62ed3e14610272575f5ffd5b806370a08231146101c257806379cc6790146101ea5780637ecebe00146101fd57806392f1d24f14610210575f5ffd5b8063313ce567116100e4578063313ce5671461017b5780633644e5151461018a57806340c10f191461019257806342966c68146101a75780635a77606b146101ba575f5ffd5b806306fdde0314610115578063095ea7b31461013357806318160ddd1461015657806323b872dd14610168575b5f5ffd5b61011d6102aa565b60405161012a9190610787565b60405180910390f35b6101466101413660046107d7565b61033a565b604051901515815260200161012a565b6002545b60405190815260200161012a565b6101466101763660046107ff565b610353565b6040516012815260200161012a565b61015a610376565b6101a56101a03660046107d7565b6103b7565b005b6101a56101b5366004610839565b6103c5565b6101a56103d2565b61015a6101d0366004610850565b6001600160a01b03165f9081526020819052604090205490565b6101a56101f83660046107d7565b61040c565b61015a61020b366004610850565b610376565b6101a561021e366004610892565b6103d2565b61011d610421565b6101466102393660046107d7565b610430565b61024c61020b366004610850565b6040516001600160a01b03909116815260200161012a565b6101a561021e366004610985565b61015a6102803660046109f2565b6001600160a01b039182165f90815260016020908152604080832093909416825291909152205490565b6060600380546102b990610a23565b80601f01602080910402602001604051908101604052809291908181526020018280546102e590610a23565b80156103305780601f1061030757610100808354040283529160200191610330565b820191905f5260205f20905b81548152906001019060200180831161031357829003601f168201915b5050505050905090565b5f3361034781858561043d565b60019150505b92915050565b5f3361036085828561044f565b61036b8585856104ca565b506001949350505050565b60405162461bcd60e51b815260206004820152600f60248201526e139bdd081a5b5c1b195b595b9d1959608a1b60448201525f906064015b60405180910390fd5b6103c18282610527565b5050565b6103cf338261055b565b50565b60405162461bcd60e51b815260206004820152600f60248201526e139bdd081a5b5c1b195b595b9d1959608a1b60448201526064016103ae565b61041782338361044f565b6103c1828261055b565b6060600480546102b990610a23565b5f336103478185856104ca565b61044a838383600161058f565b505050565b6001600160a01b038381165f908152600160209081526040808320938616835292905220545f1981146104c457818110156104b657604051637dc7a0d960e11b81526001600160a01b038416600482015260248101829052604481018390526064016103ae565b6104c484848484035f61058f565b50505050565b6001600160a01b0383166104f357604051634b637e8f60e11b81525f60048201526024016103ae565b6001600160a01b03821661051c5760405163ec442f0560e01b81525f60048201526024016103ae565b61044a838383610661565b6001600160a01b0382166105505760405163ec442f0560e01b81525f60048201526024016103ae565b6103c15f8383610661565b6001600160a01b03821661058457604051634b637e8f60e11b81525f60048201526024016103ae565b6103c1825f83610661565b6001600160a01b0384166105b85760405163e602df0560e01b81525f60048201526024016103ae565b6001600160a01b0383166105e157604051634a1406b160e11b81525f60048201526024016103ae565b6001600160a01b038085165f90815260016020908152604080832093871683529290522082905580156104c457826001600160a01b0316846001600160a01b03167f8c5be1e5ebec7d5bd14f71427d1e84f3dd0314c0f7b2291e5b200ac8c7c3b9258460405161065391815260200190565b60405180910390a350505050565b6001600160a01b03831661068b578060025f8282546106809190610a5b565b909155506106fb9050565b6001600160a01b0383165f90815260208190526040902054818110156106dd5760405163391434e360e21b81526001600160a01b038516600482015260248101829052604481018390526064016103ae565b6001600160a01b0384165f9081526020819052604090209082900390555b6001600160a01b03821661071757600280548290039055610735565b6001600160a01b0382165f9081526020819052604090208054820190555b816001600160a01b0316836001600160a01b03167fddf252ad1be2c89b69c2b068fc378daa952ba7f163c4a11628f55a4df523b3ef8360405161077a91815260200190565b60405180910390a3505050565b602081525f82518060208401528060208501604085015e5f604082850101526040601f19601f83011684010191505092915050565b80356001600160a01b03811681146107d2575f5ffd5b919050565b5f5f604083850312156107e8575f5ffd5b6107f1836107bc565b946020939093013593505050565b5f5f5f60608486031215610811575f5ffd5b61081a846107bc565b9250610828602085016107bc565b929592945050506040919091013590565b5f60208284031215610849575f5ffd5b5035919050565b5f60208284031215610860575f5ffd5b610869826107bc565b9392505050565b634e487b7160e01b5f52604160045260245ffd5b8035600281106107d2575f5ffd5b5f5f5f5f608085870312156108a5575f5ffd5b6108ae856107bc565b935060208501359250604085013567ffffffffffffffff8111156108d0575f5ffd5b8501601f810187136108e0575f5ffd5b803567ffffffffffffffff8111156108fa576108fa610870565b8060051b604051601f19603f830116810181811067ffffffffffffffff8211171561092757610927610870565b60405291825260208184018101929081018a841115610944575f5ffd5b6020850194505b838510156109675784358082526020958601959093500161094b565b50945061097a9250505060608601610884565b905092959194509250565b5f5f5f5f5f5f5f60e0888a03121561099b575f5ffd5b6109a4886107bc565b96506109b2602089016107bc565b95506040880135945060608801359350608088013560ff811681146109d5575f5ffd5b9699959850939692959460a0840135945060c09093013592915050565b5f5f60408385031215610a03575f5ffd5b610a0c836107bc565b9150610a1a602084016107bc565b90509250929050565b600181811c90821680610a3757607f821691505b602082108103610a5557634e487b7160e01b5f52602260045260245ffd5b50919050565b8082018082111561034d57634e487b7160e01b5f52601160045260245ffdfea2646970667358221220cd41d8c3232ff09a4208b653b1c406c7ef76d3f5550e2b8050a323f564b1aec864736f6c634300081c0033","linkReferences":{}},"methodIdentifiers":{"DOMAIN_SEPARATOR()":"3644e515","allowance(address,address)":"dd62ed3e","approve(address,uint256)":"095ea7b3","balanceOf(address)":"70a08231","burn(uint256)":"42966c68","burnFrom(address,uint256)":"79cc6790","createVestingWallet(address,uint256,uint256[],uint8)":"92f1d24f","decimals()":"313ce567","mint(address,uint256)":"40c10f19","name()":"06fdde03","nonces(address)":"7ecebe00","permit(address,address,uint256,uint256,uint8,bytes32,bytes32)":"d505accf","symbol()":"95d89b41","testSkipper()":"5a77606b","totalSupply()":"18160ddd","transfer(address,uint256)":"a9059cbb","transferFrom(address,address,uint256)":"23b872dd","vestingWallets(address)":"baf35107"},"id":324}