{"abi":[{"type":"constructor","inputs":[{"name":"name","type":"string","internalType":"string"},{"name":"symbol","type":"string","internalType":"string"}],"stateMutability":"nonpayable"},{"type":"function","name":"allowance","inputs":[{"name":"owner","type":"address","internalType":"address"},{"name":"spender","type":"address","internalType":"address"}],"outputs":[{"name":"","type":"uint256","internalType":"uint256"}],"stateMutability":"view"},{"type":"function","name":"approve","inputs":[{"name":"spender","type":"address","internalType":"address"},{"name":"value","type":"uint256","internalType":"uint256"}],"outputs":[{"name":"","type":"bool","internalType":"bool"}],"stateMutability":"nonpayable"},{"type":"function","name":"balanceOf","inputs":[{"name":"account","type":"address","internalType":"address"}],"outputs":[{"name":"","type":"uint256","internalType":"uint256"}],"stateMutability":"view"},{"type":"function","name":"burn","inputs":[{"name":"value","type":"uint256","internalType":"uint256"}],"outputs":[],"stateMutability":"nonpayable"},{"type":"function","name":"burnFrom","inputs":[{"name":"account","type":"address","internalType":"address"},{"name":"value","type":"uint256","internalType":"uint256"}],"outputs":[],"stateMutability":"nonpayable"},{"type":"function","name":"createVestingWallet","inputs":[{"name":"","type":"address","internalType":"address"},{"name":"","type":"uint256","internalType":"uint256"},{"name":"","type":"uint256[]","internalType":"uint256[]"},{"name":"","type":"uint8","internalType":"enum SummerVestingWallet.VestingType"}],"outputs":[],"stateMutability":"nonpayable"},{"type":"function","name":"decimals","inputs":[],"outputs":[{"name":"","type":"uint8","internalType":"uint8"}],"stateMutability":"view"},{"type":"function","name":"mint","inputs":[{"name":"to","type":"address","internalType":"address"},{"name":"amount","type":"uint256","internalType":"uint256"}],"outputs":[],"stateMutability":"nonpayable"},{"type":"function","name":"name","inputs":[],"outputs":[{"name":"","type":"string","internalType":"string"}],"stateMutability":"view"},{"type":"function","name":"symbol","inputs":[],"outputs":[{"name":"","type":"string","internalType":"string"}],"stateMutability":"view"},{"type":"function","name":"totalSupply","inputs":[],"outputs":[{"name":"","type":"uint256","internalType":"uint256"}],"stateMutability":"view"},{"type":"function","name":"transfer","inputs":[{"name":"to","type":"address","internalType":"address"},{"name":"value","type":"uint256","internalType":"uint256"}],"outputs":[{"name":"","type":"bool","internalType":"bool"}],"stateMutability":"nonpayable"},{"type":"function","name":"transferFrom","inputs":[{"name":"from","type":"address","internalType":"address"},{"name":"to","type":"address","internalType":"address"},{"name":"value","type":"uint256","internalType":"uint256"}],"outputs":[{"name":"","type":"bool","internalType":"bool"}],"stateMutability":"nonpayable"},{"type":"event","name":"Approval","inputs":[{"name":"owner","type":"address","indexed":true,"internalType":"address"},{"name":"spender","type":"address","indexed":true,"internalType":"address"},{"name":"value","type":"uint256","indexed":false,"internalType":"uint256"}],"anonymous":false},{"type":"event","name":"Transfer","inputs":[{"name":"from","type":"address","indexed":true,"internalType":"address"},{"name":"to","type":"address","indexed":true,"internalType":"address"},{"name":"value","type":"uint256","indexed":false,"internalType":"uint256"}],"anonymous":false},{"type":"error","name":"ERC20InsufficientAllowance","inputs":[{"name":"spender","type":"address","internalType":"address"},{"name":"allowance","type":"uint256","internalType":"uint256"},{"name":"needed","type":"uint256","internalType":"uint256"}]},{"type":"error","name":"ERC20InsufficientBalance","inputs":[{"name":"sender","type":"address","internalType":"address"},{"name":"balance","type":"uint256","internalType":"uint256"},{"name":"needed","type":"uint256","internalType":"uint256"}]},{"type":"error","name":"ERC20InvalidApprover","inputs":[{"name":"approver","type":"address","internalType":"address"}]},{"type":"error","name":"ERC20InvalidReceiver","inputs":[{"name":"receiver","type":"address","internalType":"address"}]},{"type":"error","name":"ERC20InvalidSender","inputs":[{"name":"sender","type":"address","internalType":"address"}]},{"type":"error","name":"ERC20InvalidSpender","inputs":[{"name":"spender","type":"address","internalType":"address"}]}],"bytecode":{"object":"0x608060405234801561000f575f5ffd5b50604051610eda380380610eda83398101604081905261002e91610288565b8181600361003c8382610371565b5060046100498282610371565b50505061007c3361005e61008360201b60201c565b61006990600a610524565b61007790633b9aca00610539565b610088565b5050610563565b601290565b6001600160a01b0382166100b65760405163ec442f0560e01b81525f60048201526024015b60405180910390fd5b6100c15f83836100c5565b5050565b6001600160a01b0383166100ef578060025f8282546100e49190610550565b9091555061015f9050565b6001600160a01b0383165f90815260208190526040902054818110156101415760405163391434e360e21b81526001600160a01b038516600482015260248101829052604481018390526064016100ad565b6001600160a01b0384165f9081526020819052604090209082900390555b6001600160a01b03821661017b57600280548290039055610199565b6001600160a01b0382165f9081526020819052604090208054820190555b816001600160a01b0316836001600160a01b03167fddf252ad1be2c89b69c2b068fc378daa952ba7f163c4a11628f55a4df523b3ef836040516101de91815260200190565b60405180910390a3505050565b634e487b7160e01b5f52604160045260245ffd5b5f82601f83011261020e575f5ffd5b81516001600160401b03811115610227576102276101eb565b604051601f8201601f19908116603f011681016001600160401b0381118282101715610255576102556101eb565b60405281815283820160200185101561026c575f5ffd5b8160208501602083015e5f918101602001919091529392505050565b5f5f60408385031215610299575f5ffd5b82516001600160401b038111156102ae575f5ffd5b6102ba858286016101ff565b602085015190935090506001600160401b038111156102d7575f5ffd5b6102e3858286016101ff565b9150509250929050565b600181811c9082168061030157607f821691505b60208210810361031f57634e487b7160e01b5f52602260045260245ffd5b50919050565b601f82111561036c57805f5260205f20601f840160051c8101602085101561034a5750805b601f840160051c820191505b81811015610369575f8155600101610356565b50505b505050565b81516001600160401b0381111561038a5761038a6101eb565b61039e8161039884546102ed565b84610325565b6020601f8211600181146103d0575f83156103b95750848201515b5f19600385901b1c1916600184901b178455610369565b5f84815260208120601f198516915b828110156103ff57878501518255602094850194600190920191016103df565b508482101561041c57868401515f19600387901b60f8161c191681555b50505050600190811b01905550565b634e487b7160e01b5f52601160045260245ffd5b6001815b600184111561047a5780850481111561045e5761045e61042b565b600184161561046c57908102905b60019390931c928002610443565b935093915050565b5f826104905750600161051e565b8161049c57505f61051e565b81600181146104b257600281146104bc576104d8565b600191505061051e565b60ff8411156104cd576104cd61042b565b50506001821b61051e565b5060208310610133831016604e8410600b84101617156104fb575081810a61051e565b6105075f19848461043f565b805f190482111561051a5761051a61042b565b0290505b92915050565b5f61053260ff841683610482565b9392505050565b808202811582820484141761051e5761051e61042b565b8082018082111561051e5761051e61042b565b61096a806105705f395ff3fe608060405234801561000f575f5ffd5b50600436106100cb575f3560e01c806342966c681161008857806392f1d24f1161006357806392f1d24f146101a757806395d89b41146101ba578063a9059cbb146101c2578063dd62ed3e146101d5575f5ffd5b806342966c681461015957806370a082311461016c57806379cc679014610194575f5ffd5b806306fdde03146100cf578063095ea7b3146100ed57806318160ddd1461011057806323b872dd14610122578063313ce5671461013557806340c10f1914610144575b5f5ffd5b6100d761020d565b6040516100e491906106ae565b60405180910390f35b6101006100fb3660046106fe565b61029d565b60405190151581526020016100e4565b6002545b6040519081526020016100e4565b610100610130366004610726565b6102b6565b604051601281526020016100e4565b6101576101523660046106fe565b6102d9565b005b610157610167366004610760565b6102e7565b61011461017a366004610777565b6001600160a01b03165f9081526020819052604090205490565b6101576101a23660046106fe565b6102f4565b6101576101b53660046107b9565b610309565b6100d7610348565b6101006101d03660046106fe565b610357565b6101146101e33660046108ac565b6001600160a01b039182165f90815260016020908152604080832093909416825291909152205490565b60606003805461021c906108dd565b80601f0160208091040260200160405190810160405280929190818152602001828054610248906108dd565b80156102935780601f1061026a57610100808354040283529160200191610293565b820191905f5260205f20905b81548152906001019060200180831161027657829003601f168201915b5050505050905090565b5f336102aa818585610364565b60019150505b92915050565b5f336102c3858285610376565b6102ce8585856103f1565b506001949350505050565b6102e3828261044e565b5050565b6102f13382610482565b50565b6102ff823383610376565b6102e38282610482565b60405162461bcd60e51b815260206004820152600f60248201526e139bdd081a5b5c1b195b595b9d1959608a1b60448201526064015b60405180910390fd5b60606004805461021c906108dd565b5f336102aa8185856103f1565b61037183838360016104b6565b505050565b6001600160a01b038381165f908152600160209081526040808320938616835292905220545f1981146103eb57818110156103dd57604051637dc7a0d960e11b81526001600160a01b0384166004820152602481018290526044810183905260640161033f565b6103eb84848484035f6104b6565b50505050565b6001600160a01b03831661041a57604051634b637e8f60e11b81525f600482015260240161033f565b6001600160a01b0382166104435760405163ec442f0560e01b81525f600482015260240161033f565b610371838383610588565b6001600160a01b0382166104775760405163ec442f0560e01b81525f600482015260240161033f565b6102e35f8383610588565b6001600160a01b0382166104ab57604051634b637e8f60e11b81525f600482015260240161033f565b6102e3825f83610588565b6001600160a01b0384166104df5760405163e602df0560e01b81525f600482015260240161033f565b6001600160a01b03831661050857604051634a1406b160e11b81525f600482015260240161033f565b6001600160a01b038085165f90815260016020908152604080832093871683529290522082905580156103eb57826001600160a01b0316846001600160a01b03167f8c5be1e5ebec7d5bd14f71427d1e84f3dd0314c0f7b2291e5b200ac8c7c3b9258460405161057a91815260200190565b60405180910390a350505050565b6001600160a01b0383166105b2578060025f8282546105a79190610915565b909155506106229050565b6001600160a01b0383165f90815260208190526040902054818110156106045760405163391434e360e21b81526001600160a01b0385166004820152602481018290526044810183905260640161033f565b6001600160a01b0384165f9081526020819052604090209082900390555b6001600160a01b03821661063e5760028054829003905561065c565b6001600160a01b0382165f9081526020819052604090208054820190555b816001600160a01b0316836001600160a01b03167fddf252ad1be2c89b69c2b068fc378daa952ba7f163c4a11628f55a4df523b3ef836040516106a191815260200190565b60405180910390a3505050565b602081525f82518060208401528060208501604085015e5f604082850101526040601f19601f83011684010191505092915050565b80356001600160a01b03811681146106f9575f5ffd5b919050565b5f5f6040838503121561070f575f5ffd5b610718836106e3565b946020939093013593505050565b5f5f5f60608486031215610738575f5ffd5b610741846106e3565b925061074f602085016106e3565b929592945050506040919091013590565b5f60208284031215610770575f5ffd5b5035919050565b5f60208284031215610787575f5ffd5b610790826106e3565b9392505050565b634e487b7160e01b5f52604160045260245ffd5b8035600281106106f9575f5ffd5b5f5f5f5f608085870312156107cc575f5ffd5b6107d5856106e3565b935060208501359250604085013567ffffffffffffffff8111156107f7575f5ffd5b8501601f81018713610807575f5ffd5b803567ffffffffffffffff81111561082157610821610797565b8060051b604051601f19603f830116810181811067ffffffffffffffff8211171561084e5761084e610797565b60405291825260208184018101929081018a84111561086b575f5ffd5b6020850194505b8385101561088e57843580825260209586019590935001610872565b5094506108a192505050606086016107ab565b905092959194509250565b5f5f604083850312156108bd575f5ffd5b6108c6836106e3565b91506108d4602084016106e3565b90509250929050565b600181811c908216806108f157607f821691505b60208210810361090f57634e487b7160e01b5f52602260045260245ffd5b50919050565b808201808211156102b057634e487b7160e01b5f52601160045260245ffdfea264697066735822122061da09d9dd73ac85decb0c39bd24104a9c4a1f8bf4f972065db4cbba489eb9f964736f6c634300081b0033","linkReferences":{}},"methodIdentifiers":{"allowance(address,address)":"dd62ed3e","approve(address,uint256)":"095ea7b3","balanceOf(address)":"70a08231","burn(uint256)":"42966c68","burnFrom(address,uint256)":"79cc6790","createVestingWallet(address,uint256,uint256[],uint8)":"92f1d24f","decimals()":"313ce567","mint(address,uint256)":"40c10f19","name()":"06fdde03","symbol()":"95d89b41","totalSupply()":"18160ddd","transfer(address,uint256)":"a9059cbb","transferFrom(address,address,uint256)":"23b872dd"},"id":286}