{"abi":[{"type":"constructor","inputs":[{"name":"_morpho","type":"address","internalType":"address"},{"name":"_marketId","type":"bytes32","internalType":"Id"},{"name":"_arkParams","type":"tuple","internalType":"struct ArkParams","components":[{"name":"name","type":"string","internalType":"string"},{"name":"details","type":"string","internalType":"string"},{"name":"accessManager","type":"address","internalType":"address"},{"name":"configurationManager","type":"address","internalType":"address"},{"name":"asset","type":"address","internalType":"address"},{"name":"depositCap","type":"uint256","internalType":"uint256"},{"name":"maxRebalanceOutflow","type":"uint256","internalType":"uint256"},{"name":"maxRebalanceInflow","type":"uint256","internalType":"uint256"},{"name":"requiresKeeperData","type":"bool","internalType":"bool"},{"name":"maxDepositPercentageOfTVL","type":"uint256","internalType":"Percentage"}]}],"stateMutability":"nonpayable"},{"type":"function","name":"MORPHO","inputs":[],"outputs":[{"name":"","type":"address","internalType":"contract IMorpho"}],"stateMutability":"view"},{"type":"function","name":"asset","inputs":[],"outputs":[{"name":"","type":"address","internalType":"contract IERC20"}],"stateMutability":"view"},{"type":"function","name":"board","inputs":[{"name":"amount","type":"uint256","internalType":"uint256"},{"name":"boardData","type":"bytes","internalType":"bytes"}],"outputs":[],"stateMutability":"nonpayable"},{"type":"function","name":"commander","inputs":[],"outputs":[{"name":"","type":"address","internalType":"address"}],"stateMutability":"view"},{"type":"function","name":"config","inputs":[],"outputs":[{"name":"commander","type":"address","internalType":"address"},{"name":"raft","type":"address","internalType":"address"},{"name":"asset","type":"address","internalType":"contract IERC20"},{"name":"depositCap","type":"uint256","internalType":"uint256"},{"name":"maxRebalanceOutflow","type":"uint256","internalType":"uint256"},{"name":"maxRebalanceInflow","type":"uint256","internalType":"uint256"},{"name":"name","type":"string","internalType":"string"},{"name":"details","type":"string","internalType":"string"},{"name":"requiresKeeperData","type":"bool","internalType":"bool"},{"name":"maxDepositPercentageOfTVL","type":"uint256","internalType":"Percentage"}],"stateMutability":"view"},{"type":"function","name":"configurationManager","inputs":[],"outputs":[{"name":"","type":"address","internalType":"contract IConfigurationManager"}],"stateMutability":"view"},{"type":"function","name":"depositCap","inputs":[],"outputs":[{"name":"","type":"uint256","internalType":"uint256"}],"stateMutability":"view"},{"type":"function","name":"disembark","inputs":[{"name":"amount","type":"uint256","internalType":"uint256"},{"name":"disembarkData","type":"bytes","internalType":"bytes"}],"outputs":[],"stateMutability":"nonpayable"},{"type":"function","name":"fleetCommanderRewardsManagerFactory","inputs":[],"outputs":[{"name":"","type":"address","internalType":"address"}],"stateMutability":"view"},{"type":"function","name":"generateRole","inputs":[{"name":"roleName","type":"uint8","internalType":"enum ContractSpecificRoles"},{"name":"roleTargetContract","type":"address","internalType":"address"}],"outputs":[{"name":"","type":"bytes32","internalType":"bytes32"}],"stateMutability":"pure"},{"type":"function","name":"getConfig","inputs":[],"outputs":[{"name":"","type":"tuple","internalType":"struct ArkConfig","components":[{"name":"commander","type":"address","internalType":"address"},{"name":"raft","type":"address","internalType":"address"},{"name":"asset","type":"address","internalType":"contract IERC20"},{"name":"depositCap","type":"uint256","internalType":"uint256"},{"name":"maxRebalanceOutflow","type":"uint256","internalType":"uint256"},{"name":"maxRebalanceInflow","type":"uint256","internalType":"uint256"},{"name":"name","type":"string","internalType":"string"},{"name":"details","type":"string","internalType":"string"},{"name":"requiresKeeperData","type":"bool","internalType":"bool"},{"name":"maxDepositPercentageOfTVL","type":"uint256","internalType":"Percentage"}]}],"stateMutability":"view"},{"type":"function","name":"harborCommand","inputs":[],"outputs":[{"name":"","type":"address","internalType":"address"}],"stateMutability":"view"},{"type":"function","name":"harvest","inputs":[{"name":"additionalData","type":"bytes","internalType":"bytes"}],"outputs":[{"name":"rewardTokens","type":"address[]","internalType":"address[]"},{"name":"rewardAmounts","type":"uint256[]","internalType":"uint256[]"}],"stateMutability":"nonpayable"},{"type":"function","name":"marketId","inputs":[],"outputs":[{"name":"","type":"bytes32","internalType":"Id"}],"stateMutability":"view"},{"type":"function","name":"marketParams","inputs":[],"outputs":[{"name":"loanToken","type":"address","internalType":"address"},{"name":"collateralToken","type":"address","internalType":"address"},{"name":"oracle","type":"address","internalType":"address"},{"name":"irm","type":"address","internalType":"address"},{"name":"lltv","type":"uint256","internalType":"uint256"}],"stateMutability":"view"},{"type":"function","name":"maxDepositPercentageOfTVL","inputs":[],"outputs":[{"name":"","type":"uint256","internalType":"Percentage"}],"stateMutability":"view"},{"type":"function","name":"maxRebalanceInflow","inputs":[],"outputs":[{"name":"","type":"uint256","internalType":"uint256"}],"stateMutability":"view"},{"type":"function","name":"maxRebalanceOutflow","inputs":[],"outputs":[{"name":"","type":"uint256","internalType":"uint256"}],"stateMutability":"view"},{"type":"function","name":"move","inputs":[{"name":"amount","type":"uint256","internalType":"uint256"},{"name":"receiverArk","type":"address","internalType":"address"},{"name":"boardData","type":"bytes","internalType":"bytes"},{"name":"disembarkData","type":"bytes","internalType":"bytes"}],"outputs":[],"stateMutability":"nonpayable"},{"type":"function","name":"name","inputs":[],"outputs":[{"name":"","type":"string","internalType":"string"}],"stateMutability":"view"},{"type":"function","name":"raft","inputs":[],"outputs":[{"name":"","type":"address","internalType":"address"}],"stateMutability":"view"},{"type":"function","name":"registerFleetCommander","inputs":[],"outputs":[],"stateMutability":"nonpayable"},{"type":"function","name":"requiresKeeperData","inputs":[],"outputs":[{"name":"","type":"bool","internalType":"bool"}],"stateMutability":"view"},{"type":"function","name":"setDepositCap","inputs":[{"name":"newDepositCap","type":"uint256","internalType":"uint256"}],"outputs":[],"stateMutability":"nonpayable"},{"type":"function","name":"setMaxDepositPercentageOfTVL","inputs":[{"name":"newMaxDepositPercentageOfTVL","type":"uint256","internalType":"Percentage"}],"outputs":[],"stateMutability":"nonpayable"},{"type":"function","name":"setMaxRebalanceInflow","inputs":[{"name":"newMaxRebalanceInflow","type":"uint256","internalType":"uint256"}],"outputs":[],"stateMutability":"nonpayable"},{"type":"function","name":"setMaxRebalanceOutflow","inputs":[{"name":"newMaxRebalanceOutflow","type":"uint256","internalType":"uint256"}],"outputs":[],"stateMutability":"nonpayable"},{"type":"function","name":"sweep","inputs":[{"name":"tokens","type":"address[]","internalType":"address[]"}],"outputs":[{"name":"sweptTokens","type":"address[]","internalType":"address[]"},{"name":"sweptAmounts","type":"uint256[]","internalType":"uint256[]"}],"stateMutability":"nonpayable"},{"type":"function","name":"tipJar","inputs":[],"outputs":[{"name":"","type":"address","internalType":"address"}],"stateMutability":"view"},{"type":"function","name":"totalAssets","inputs":[],"outputs":[{"name":"","type":"uint256","internalType":"uint256"}],"stateMutability":"view"},{"type":"function","name":"treasury","inputs":[],"outputs":[{"name":"","type":"address","internalType":"address"}],"stateMutability":"view"},{"type":"function","name":"unregisterFleetCommander","inputs":[],"outputs":[],"stateMutability":"nonpayable"},{"type":"event","name":"ArkHarvested","inputs":[{"name":"rewardTokens","type":"address[]","indexed":true,"internalType":"address[]"},{"name":"rewardAmounts","type":"uint256[]","indexed":true,"internalType":"uint256[]"}],"anonymous":false},{"type":"event","name":"ArkPoked","inputs":[{"name":"currentPrice","type":"uint256","indexed":false,"internalType":"uint256"},{"name":"timestamp","type":"uint256","indexed":false,"internalType":"uint256"}],"anonymous":false},{"type":"event","name":"ArkSwept","inputs":[{"name":"sweptTokens","type":"address[]","indexed":true,"internalType":"address[]"},{"name":"sweptAmounts","type":"uint256[]","indexed":true,"internalType":"uint256[]"}],"anonymous":false},{"type":"event","name":"Boarded","inputs":[{"name":"commander","type":"address","indexed":true,"internalType":"address"},{"name":"token","type":"address","indexed":false,"internalType":"address"},{"name":"amount","type":"uint256","indexed":false,"internalType":"uint256"}],"anonymous":false},{"type":"event","name":"DepositCapUpdated","inputs":[{"name":"newCap","type":"uint256","indexed":false,"internalType":"uint256"}],"anonymous":false},{"type":"event","name":"Disembarked","inputs":[{"name":"commander","type":"address","indexed":true,"internalType":"address"},{"name":"token","type":"address","indexed":false,"internalType":"address"},{"name":"amount","type":"uint256","indexed":false,"internalType":"uint256"}],"anonymous":false},{"type":"event","name":"FleetCommanderRegistered","inputs":[{"name":"commander","type":"address","indexed":false,"internalType":"address"}],"anonymous":false},{"type":"event","name":"FleetCommanderUnregistered","inputs":[{"name":"commander","type":"address","indexed":false,"internalType":"address"}],"anonymous":false},{"type":"event","name":"MaxDepositPercentageOfTVLUpdated","inputs":[{"name":"newMaxDepositPercentageOfTVL","type":"uint256","indexed":false,"internalType":"Percentage"}],"anonymous":false},{"type":"event","name":"MaxRebalanceInflowUpdated","inputs":[{"name":"newMaxInflow","type":"uint256","indexed":false,"internalType":"uint256"}],"anonymous":false},{"type":"event","name":"MaxRebalanceOutflowUpdated","inputs":[{"name":"newMaxOutflow","type":"uint256","indexed":false,"internalType":"uint256"}],"anonymous":false},{"type":"event","name":"Moved","inputs":[{"name":"from","type":"address","indexed":true,"internalType":"address"},{"name":"to","type":"address","indexed":true,"internalType":"address"},{"name":"token","type":"address","indexed":false,"internalType":"address"},{"name":"amount","type":"uint256","indexed":false,"internalType":"uint256"}],"anonymous":false},{"type":"event","name":"RaftUpdated","inputs":[{"name":"newRaft","type":"address","indexed":false,"internalType":"address"}],"anonymous":false},{"type":"error","name":"CallerIsNotAdmin","inputs":[{"name":"caller","type":"address","internalType":"address"}]},{"type":"error","name":"CallerIsNotAuthorizedToBoard","inputs":[{"name":"caller","type":"address","internalType":"address"}]},{"type":"error","name":"CallerIsNotCommander","inputs":[{"name":"caller","type":"address","internalType":"address"}]},{"type":"error","name":"CallerIsNotContractSpecificRole","inputs":[{"name":"caller","type":"address","internalType":"address"},{"name":"role","type":"bytes32","internalType":"bytes32"}]},{"type":"error","name":"CallerIsNotCurator","inputs":[{"name":"caller","type":"address","internalType":"address"}]},{"type":"error","name":"CallerIsNotDecayController","inputs":[{"name":"caller","type":"address","internalType":"address"}]},{"type":"error","name":"CallerIsNotGovernor","inputs":[{"name":"caller","type":"address","internalType":"address"}]},{"type":"error","name":"CallerIsNotGuardian","inputs":[{"name":"caller","type":"address","internalType":"address"}]},{"type":"error","name":"CallerIsNotGuardianOrGovernor","inputs":[{"name":"caller","type":"address","internalType":"address"}]},{"type":"error","name":"CallerIsNotKeeper","inputs":[{"name":"caller","type":"address","internalType":"address"}]},{"type":"error","name":"CallerIsNotRaft","inputs":[{"name":"caller","type":"address","internalType":"address"}]},{"type":"error","name":"CallerIsNotRaftOrCommander","inputs":[{"name":"caller","type":"address","internalType":"address"}]},{"type":"error","name":"CallerIsNotSuperKeeper","inputs":[{"name":"caller","type":"address","internalType":"address"}]},{"type":"error","name":"CannotAddCommanderToArkWithCommander","inputs":[]},{"type":"error","name":"CannotDeployArkWithEmptyName","inputs":[]},{"type":"error","name":"CannotDeployArkWithoutConfigurationManager","inputs":[]},{"type":"error","name":"CannotDeployArkWithoutRaft","inputs":[]},{"type":"error","name":"CannotDeployArkWithoutToken","inputs":[]},{"type":"error","name":"CannotRemoveCommanderFromArkWithAssets","inputs":[]},{"type":"error","name":"CannotUseKeeperDataWhenNotRequired","inputs":[]},{"type":"error","name":"ConfigurationManagerZeroAddress","inputs":[]},{"type":"error","name":"DirectGrantIsDisabled","inputs":[{"name":"caller","type":"address","internalType":"address"}]},{"type":"error","name":"DirectRevokeIsDisabled","inputs":[{"name":"caller","type":"address","internalType":"address"}]},{"type":"error","name":"ERC4626AssetMismatch","inputs":[]},{"type":"error","name":"InvalidAccessManagerAddress","inputs":[{"name":"invalidAddress","type":"address","internalType":"address"}]},{"type":"error","name":"InvalidBoardData","inputs":[]},{"type":"error","name":"InvalidDisembarkData","inputs":[]},{"type":"error","name":"InvalidMarketId","inputs":[]},{"type":"error","name":"InvalidMorphoAddress","inputs":[]},{"type":"error","name":"InvalidVaultAddress","inputs":[]},{"type":"error","name":"KeeperDataRequired","inputs":[]},{"type":"error","name":"ReentrancyGuardReentrantCall","inputs":[]},{"type":"error","name":"SafeERC20FailedOperation","inputs":[{"name":"token","type":"address","internalType":"address"}]}],"bytecode":{"object":"0x60c060405234801561000f575f5ffd5b506040516136b83803806136b883398101604081905261002e91610598565b6060810151604082015182918291806001600160a01b03811661006b576040516347bd7c1d60e01b81525f60048201526024015b60405180910390fd5b6040516301ffc9a760e01b8152639bd1803160e01b60048201526001600160a01b038216906301ffc9a790602401602060405180830381865afa1580156100b4573d5f5f3e3d5ffd5b505050506040513d601f19601f820116820180604052508101906100d891906106bb565b610100576040516347bd7c1d60e01b81526001600160a01b0382166004820152602401610062565b5f80546001600160a01b0319166001600160a01b039283161790558216905061013c5760405163f1634df960e01b815260040160405180910390fd5b6001600160a01b0390811660805260608201511661016d5760405163b53c493160e01b815260040160405180910390fd5b60808101516001600160a01b031661019b576040516001620a810f60e11b0319815260040160405180910390fd5b8051515f036101bd5760405163268c072960e01b815260040160405180910390fd5b5f6101c6610440565b6001600160a01b0316036101ed57604051633a4f9cdb60e21b815260040160405180910390fd5b6040805161014081019091525f815260208101610208610440565b6001600160a01b039081168252608080850151821660208085019190915260a08087015160408087019190915260c08089015160608089019190915260e0808b0151878a01528a51858a01528a860151838a0152610100808c01511515918a01919091526101208b01519801979097528751600180549188166001600160a01b031992831617815594890151600280549189169183169190911790559188015160038054919097169216919091179094559385015160045590840151600555918301516006558201516007906102de908261075f565b5060e082015160078201906102f3908261075f565b5061010082015160088201805460ff19169115159190911790556101209091015160099091015550506001600160a01b03831661034357604051630a875a6560e31b815260040160405180910390fd5b5f8290036103635760405162320bd360e51b815260040160405180910390fd5b6001600160a01b03831660a0819052600b839055604051632c3c915760e01b815260048101849052632c3c91579060240160a060405180830381865afa1580156103af573d5f5f3e3d5ffd5b505050506040513d601f19601f820116820180604052508101906103d39190610819565b8051600c80546001600160a01b039283166001600160a01b0319918216179091556020830151600d80549184169183169190911790556040830151600e80549184169183169190911790556060830151600f805491909316911617905560800151601055506108ba915050565b5f6080516001600160a01b031663117d8ae06040518163ffffffff1660e01b8152600401602060405180830381865afa15801561047f573d5f5f3e3d5ffd5b505050506040513d601f19601f820116820180604052508101906104a391906108a1565b905090565b80516001600160a01b03811681146104be575f5ffd5b919050565b634e487b7160e01b5f52604160045260245ffd5b60405161014081016001600160401b03811182821017156104fa576104fa6104c3565b60405290565b5f82601f83011261050f575f5ffd5b81516001600160401b03811115610528576105286104c3565b604051601f8201601f19908116603f011681016001600160401b0381118282101715610556576105566104c3565b60405281815283820160200185101561056d575f5ffd5b8160208501602083015e5f918101602001919091529392505050565b805180151581146104be575f5ffd5b5f5f5f606084860312156105aa575f5ffd5b6105b3846104a8565b6020850151604086015191945092506001600160401b038111156105d5575f5ffd5b840161014081870312156105e7575f5ffd5b6105ef6104d7565b81516001600160401b03811115610604575f5ffd5b61061088828501610500565b82525060208201516001600160401b0381111561062b575f5ffd5b61063788828501610500565b602083015250610649604083016104a8565b604082015261065a606083016104a8565b606082015261066b608083016104a8565b608082015260a0828101519082015260c0808301519082015260e0808301519082015261069b6101008301610589565b610100820152610120918201519181019190915292959194509192509050565b5f602082840312156106cb575f5ffd5b6106d482610589565b9392505050565b600181811c908216806106ef57607f821691505b60208210810361070d57634e487b7160e01b5f52602260045260245ffd5b50919050565b601f82111561075a57805f5260205f20601f840160051c810160208510156107385750805b601f840160051c820191505b81811015610757575f8155600101610744565b50505b505050565b81516001600160401b03811115610778576107786104c3565b61078c8161078684546106db565b84610713565b6020601f8211600181146107be575f83156107a75750848201515b5f19600385901b1c1916600184901b178455610757565b5f84815260208120601f198516915b828110156107ed57878501518255602094850194600190920191016107cd565b508482101561080a57868401515f19600387901b60f8161c191681555b50505050600190811b01905550565b5f60a082840312801561082a575f5ffd5b5060405160a081016001600160401b038111828210171561084d5761084d6104c3565b604052610859836104a8565b8152610867602084016104a8565b6020820152610878604084016104a8565b6040820152610889606084016104a8565b60608201526080928301519281019290925250919050565b5f602082840312156108b1575f5ffd5b6106d4826104a8565b60805160a051612d8961092f5f395f81816102a8015281816104ac0152818161051a01528181611a0e01528181611a8601528181611beb01528181611c660152611cfa01525f81816104330152818161066701528181610a1a01528181610a770152818161123901526118170152612d895ff3fe608060405234801561000f575f5ffd5b50600436106101e7575f3560e01c8063780469bb11610109578063bdcdd8821161009e578063ce5c7f611161006e578063ce5c7f6114610455578063dbd5edc714610468578063ebf3113114610470578063f7e533ec14610478575f5ffd5b8063bdcdd882146103fe578063c38a6f0b14610406578063c3f909d414610419578063c9c667e31461042e575f5ffd5b806386651203116100d957806386651203146103c85780638a8b9976146103db57806392f5e832146103e3578063ad5a356f146103f6575f5ffd5b8063780469bb1461031c57806379502c551461033d5780637aaceb951461035b5780637b9e68f214610363575f5ffd5b806338d52e0f1161017f57806361d027b31161014f57806361d027b3146102e557806361f5cd8b146102ed57806369b3054b146103005780636ed71ede14610313575f5ffd5b806338d52e0f146102925780633acb5624146102a35780634fc7fac3146102ca5780635b0f83f3146102dd575f5ffd5b80632db6d399116101ba5780632db6d39914610250578063303dbaf3146102635780633194549e146102795780633727093614610281575f5ffd5b806301e1d114146101eb57806306fdde0314610206578063117d8ae01461021b57806313c408f81461023b575b5f5ffd5b6101f3610480565b6040519081526020015b60405180910390f35b61020e6105d1565b6040516101fd9190612188565b610223610664565b6040516001600160a01b0390911681526020016101fd565b61024e6102493660046121de565b6106ea565b005b61024e61025e3660046121de565b6107b3565b60095460ff1660405190151581526020016101fd565b6005546101f3565b6001546001600160a01b0316610223565b6003546001600160a01b0316610223565b6102237f000000000000000000000000000000000000000000000000000000000000000081565b61024e6102d8366004612225565b6109c9565b610223610a17565b610223610a74565b61024e6102fb366004612225565b610ad1565b6101f361030e366004612253565b610b18565b6101f3600b5481565b61032f61032a36600461238e565b610b4b565b6040516101fd9291906123bf565b6103456110df565b6040516101fd9a99989796959493929190612448565b610223611236565b600c54600d54600e54600f5460105461038d946001600160a01b0390811694811693811692169085565b604080516001600160a01b0396871681529486166020860152928516928401929092529092166060820152608081019190915260a0016101fd565b61024e6103d6366004612225565b611293565b61024e6112da565b61024e6103f1366004612225565b611337565b6006546101f3565b600a546101f3565b61024e6104143660046124bf565b61137e565b6104216114cf565b6040516101fd9190612548565b6102237f000000000000000000000000000000000000000000000000000000000000000081565b61032f610463366004612619565b6116c8565b6004546101f3565b61024e6117c2565b610223611814565b600b546040516349e2903160e11b815260048101919091523060248201525f9081906001600160a01b037f000000000000000000000000000000000000000000000000000000000000000016906393c5206290604401606060405180830381865afa1580156104f1573d5f5f3e3d5ffd5b505050506040513d601f19601f820116820180604052508101906105159190612672565b90505f7f00000000000000000000000000000000000000000000000000000000000000006001600160a01b0316635c60e39a600b546040518263ffffffff1660e01b815260040161056891815260200190565b60c060405180830381865afa158015610583573d5f5f3e3d5ffd5b505050506040513d601f19601f820116820180604052508101906105a791906126d6565b8051602082015184519293506105ca92916001600160801b039081169116611871565b9250505090565b6060600160060180546105e390612774565b80601f016020809104026020016040519081016040528092919081815260200182805461060f90612774565b801561065a5780601f106106315761010080835404028352916020019161065a565b820191905f5260205f20905b81548152906001019060200180831161063d57829003601f168201915b5050505050905090565b5f7f00000000000000000000000000000000000000000000000000000000000000006001600160a01b031663117d8ae06040518163ffffffff1660e01b8152600401602060405180830381865afa1580156106c1573d5f5f3e3d5ffd5b505050506040513d601f19601f820116820180604052508101906106e591906127ac565b905090565b6106f261189d565b61072257335b604051631564c0e160e11b81526001600160a01b0390911660048201526024015b60405180910390fd5b61072a611926565b81816107368282611995565b336107428686866119f7565b600354610759906001600160a01b03168288611b0c565b600354604080516001600160a01b03928316815260208101899052918316917fd5e872c5ecfb1bb8820b2e6a20e31b883682282da886621541f71e31ec11947e910160405180910390a25050506107ae611b6b565b505050565b6107bb611926565b306001600160a01b031663372709366040518163ffffffff1660e01b8152600401602060405180830381865afa1580156107f7573d5f5f3e3d5ffd5b505050506040513d601f19601f8201168201806040525081019061081b91906127ac565b61082361189d565b610942575f3390505f306001600160a01b031663117d8ae06040518163ffffffff1660e01b8152600401602060405180830381865afa158015610868573d5f5f3e3d5ffd5b505050506040513d601f19601f8201168201806040525081019061088c91906127ac565b6001600160a01b0316826001600160a01b03161490508061093f5760405163d25dd10160e01b81526001600160a01b0383811660048301525f919085169063d25dd10190602401602060405180830381865afa1580156108ee573d5f5f3e3d5ffd5b505050506040513d601f19601f8201168201806040525081019061091291906127c7565b90508061093d57604051638f7a567d60e01b81526001600160a01b0384166004820152602401610719565b505b50505b828261094e8282611995565b6003543390610968906001600160a01b031682308a611b95565b610973878787611bd4565b600354604080516001600160a01b039283168152602081018a9052918316917fcbaa1442ac205415c9d69643e7b60ec73d1de35dbc807c21ec288c70ddc4207b910160405180910390a2505050506107ae611b6b565b6109d161189d565b6109db57336106f8565b600a8190556040518181527fd3c6d0ab315f2f1352f036cd9f401b49e38e1b90907e195225e8105f9a0b6f02906020015b60405180910390a150565b5f7f00000000000000000000000000000000000000000000000000000000000000006001600160a01b0316635b0f83f36040518163ffffffff1660e01b8152600401602060405180830381865afa1580156106c1573d5f5f3e3d5ffd5b5f7f00000000000000000000000000000000000000000000000000000000000000006001600160a01b03166361d027b36040518163ffffffff1660e01b8152600401602060405180830381865afa1580156106c1573d5f5f3e3d5ffd5b610ad961189d565b610ae357336106f8565b60058190556040518181527ffbe2d5c01ea8ba5596d6c4e6c82c6d4a0a0ee1128689993a4a5ba0169273d69f90602001610a0c565b5f8282604051602001610b2c9291906127e6565b6040516020818303038152906040528051906020012090505b92915050565b606080306001600160a01b031663117d8ae06040518163ffffffff1660e01b8152600401602060405180830381865afa158015610b8a573d5f5f3e3d5ffd5b505050506040513d601f19601f82011682018060405250810190610bae91906127ac565b6001600160a01b0316336001600160a01b031614610bed57335b604051631184b31b60e21b81526001600160a01b039091166004820152602401610719565b610bf5611926565b82516001600160401b03811115610c0e57610c0e61228d565b604051908082528060200260200182016040528015610c37578160200160208202803683370190505b50915082516001600160401b03811115610c5357610c5361228d565b604051908082528060200260200182016040528015610c7c578160200160208202803683370190505b506003546040516370a0823160e01b81523060048201529192505f916001600160a01b03909116906370a0823190602401602060405180830381865afa158015610cc8573d5f5f3e3d5ffd5b505050506040513d601f19601f82011682018060405250810190610cec9190612829565b1115610eb057600154604080516330fe427560e21b815290515f926001600160a01b03169163c3f909d49160048083019260a09291908290030181865afa158015610d39573d5f5f3e3d5ffd5b505050506040513d601f19601f82011682018060405250810190610d5d9190612840565b516003546040516370a0823160e01b8152306004820152919250610de29183916001600160a01b0316906370a0823190602401602060405180830381865afa158015610dab573d5f5f3e3d5ffd5b505050506040513d601f19601f82011682018060405250810190610dcf9190612829565b6003546001600160a01b03169190611d36565b6003546040516370a0823160e01b81523060048201526001600160a01b0383811692632db6d399929116906370a0823190602401602060405180830381865afa158015610e31573d5f5f3e3d5ffd5b505050506040513d601f19601f82011682018060405250810190610e559190612829565b60405180602001604052805f8152506040518363ffffffff1660e01b8152600401610e819291906128bc565b5f604051808303815f87803b158015610e98575f5ffd5b505af1158015610eaa573d5f5f3e3d5ffd5b50505050505b5f5b835181101561107e575f848281518110610ece57610ece6128d4565b60209081029190910101516040516370a0823160e01b81523060048201526001600160a01b03909116906370a0823190602401602060405180830381865afa158015610f1c573d5f5f3e3d5ffd5b505050506040513d601f19601f82011682018060405250810190610f409190612829565b9050801561107557611009610f53610664565b868481518110610f6557610f656128d4565b60209081029190910101516040516370a0823160e01b81523060048201526001600160a01b03909116906370a0823190602401602060405180830381865afa158015610fb3573d5f5f3e3d5ffd5b505050506040513d601f19601f82011682018060405250810190610fd79190612829565b878581518110610fe957610fe96128d4565b60200260200101516001600160a01b0316611b0c9092919063ffffffff16565b84828151811061101b5761101b6128d4565b6020026020010151848381518110611035576110356128d4565b60200260200101906001600160a01b031690816001600160a01b03168152505080838381518110611068576110686128d4565b6020026020010181815250505b50600101610eb2565b508060405161108d91906128e8565b6040518091039020826040516110a3919061291d565b604051908190038120907f46b8771620f6acf56cb03d3e835ea8024c7dcbcf05fcc3f6ade9e19d1a3e212b905f90a36110da611b6b565b915091565b60018054600254600354600454600554600654600780546001600160a01b0397881698968816979095169593949293919261111990612774565b80601f016020809104026020016040519081016040528092919081815260200182805461114590612774565b80156111905780601f1061116757610100808354040283529160200191611190565b820191905f5260205f20905b81548152906001019060200180831161117357829003601f168201915b5050505050908060070180546111a590612774565b80601f01602080910402602001604051908101604052809291908181526020018280546111d190612774565b801561121c5780601f106111f35761010080835404028352916020019161121c565b820191905f5260205f20905b8154815290600101906020018083116111ff57829003601f168201915b505050506008830154600990930154919260ff169190508a565b5f7f00000000000000000000000000000000000000000000000000000000000000006001600160a01b0316637aaceb956040518163ffffffff1660e01b8152600401602060405180830381865afa1580156106c1573d5f5f3e3d5ffd5b61129b61189d565b6112a557336106f8565b60048190556040518181527f333b26cca69716ad4680ddb07663f5bfb4f06045671f336af9a83690a3ae00f990602001610a0c565b6112e261189d565b6112ec57336106f8565b600180546001600160a01b031916339081179091556040519081527f55489ce0259bd691120d8860861be1c401c7c16a3cd268d21045756af4ecc5ca906020015b60405180910390a1565b61133f61189d565b61134957336106f8565b60068190556040518181527fb6ac66853c4e59c71e118d25ab494bb847c4e5eb0c8894898c5343e6f61afc1290602001610a0c565b61138661189d565b61139057336106f8565b818161139c8282611995565b6113a78885856119f7565b60035460405163095ea7b360e01b81526001600160a01b038981166004830152602482018b90529091169063095ea7b3906044016020604051808303815f875af11580156113f7573d5f5f3e3d5ffd5b505050506040513d601f19601f8201168201806040525081019061141b91906127c7565b50604051632db6d39960e01b81526001600160a01b03881690632db6d3999061144c908b908a908a90600401612950565b5f604051808303815f87803b158015611463575f5ffd5b505af1158015611475573d5f5f3e3d5ffd5b5050600354604080516001600160a01b039283168152602081018d9052918b1693503092507f9f784fc02a186f1c98b2d9f15fda084da27cdd291a3785d978f91911d880516b910160405180910390a35050505050505050565b61153a6040518061014001604052805f6001600160a01b031681526020015f6001600160a01b031681526020015f6001600160a01b031681526020015f81526020015f81526020015f815260200160608152602001606081526020015f151581526020015f81525090565b6040805161014081018252600180546001600160a01b0390811683526002548116602084015260035416928201929092526004546060820152600554608082015260065460a08201526007805491929160c08401919061159990612774565b80601f01602080910402602001604051908101604052809291908181526020018280546115c590612774565b80156116105780601f106115e757610100808354040283529160200191611610565b820191905f5260205f20905b8154815290600101906020018083116115f357829003601f168201915b5050505050815260200160078201805461162990612774565b80601f016020809104026020016040519081016040528092919081815260200182805461165590612774565b80156116a05780601f10611677576101008083540402835291602001916116a0565b820191905f5260205f20905b81548152906001019060200180831161168357829003601f168201915b5050509183525050600882015460ff1615156020820152600990910154604090910152919050565b606080306001600160a01b031663117d8ae06040518163ffffffff1660e01b8152600401602060405180830381865afa158015611707573d5f5f3e3d5ffd5b505050506040513d601f19601f8201168201806040525081019061172b91906127ac565b6001600160a01b0316336001600160a01b0316146117495733610bc8565b611751611926565b61175b8484611dc5565b604051919350915061176e9082906128e8565b604051809103902082604051611784919061291d565b604051908190038120907f3e3e7958121b3e39c7a49392d1aa9cdce870c2a059744f9e15cf66fff7865455905f90a36117bb611b6b565b9250929050565b6117ca61189d565b6117d457336106f8565b600180546001600160a01b03191690556040513381527f7cb941d7b1708e5b3bcd35ca960d6c6311188cec18886e5b67630552676b04879060200161132d565b5f7f00000000000000000000000000000000000000000000000000000000000000006001600160a01b031663f7e533ec6040518163ffffffff1660e01b8152600401602060405180830381865afa1580156106c1573d5f5f3e3d5ffd5b5f611895611880600185612999565b61188d620f424085612999565b869190612088565b949350505050565b5f80546001600160a01b03166391d148546118b9600230610b18565b336040516001600160e01b031960e085901b16815260048101929092526001600160a01b03166024820152604401602060405180830381865afa158015611902573d5f5f3e3d5ffd5b505050506040513d601f19601f820116820180604052508101906106e591906127c7565b7f9b779b17422d0df92223018b32b4d1fa46e071723d6817e2486d003becc55f005c1561196657604051633ee5aeb560e01b815260040160405180910390fd5b61199360017f9b779b17422d0df92223018b32b4d1fa46e071723d6817e2486d003becc55f005b9061209e565b565b80158015906119a7575060095460ff16155b156119c557604051630cd0fdf960e01b815260040160405180910390fd5b801580156119d5575060095460ff165b156119f35760405163332863a960e11b815260040160405180910390fd5b5050565b604051630a8e0d6f60e11b81526001600160a01b037f0000000000000000000000000000000000000000000000000000000000000000169063151c1ade90611a4490600c906004016129ea565b5f604051808303815f87803b158015611a5b575f5ffd5b505af1158015611a6d573d5f5f3e3d5ffd5b5050604051635c2bea4960e01b81526001600160a01b037f0000000000000000000000000000000000000000000000000000000000000000169250635c2bea499150611ac690600c9087905f90309081906004016129f8565b60408051808303815f875af1158015611ae1573d5f5f3e3d5ffd5b505050506040513d601f19601f82011682018060405250810190611b059190612a34565b5050505050565b6040516001600160a01b038381166024830152604482018390526107ae91859182169063a9059cbb906064015b604051602081830303815290604052915060e01b6020820180516001600160e01b0383818316178352505050506120a5565b6119935f7f9b779b17422d0df92223018b32b4d1fa46e071723d6817e2486d003becc55f0061198d565b6040516001600160a01b038481166024830152838116604483015260648201839052611bce9186918216906323b872dd90608401611b39565b50505050565b604051630a8e0d6f60e11b81526001600160a01b037f0000000000000000000000000000000000000000000000000000000000000000169063151c1ade90611c2190600c906004016129ea565b5f604051808303815f87803b158015611c38575f5ffd5b505af1158015611c4a573d5f5f3e3d5ffd5b505060035460405163095ea7b360e01b81526001600160a01b037f00000000000000000000000000000000000000000000000000000000000000008116600483015260248201889052909116925063095ea7b391506044016020604051808303815f875af1158015611cbe573d5f5f3e3d5ffd5b505050506040513d601f19601f82011682018060405250810190611ce291906127c7565b5060405163a99aad8960e01b81526001600160a01b037f0000000000000000000000000000000000000000000000000000000000000000169063a99aad8990611ac690600c9087905f903090600401612a56565b604080516001600160a01b038416602482015260448082018490528251808303909101815260649091019091526020810180516001600160e01b031663095ea7b360e01b179052611d878482612111565b611bce576040516001600160a01b0384811660248301525f6044830152611dbb91869182169063095ea7b390606401611b39565b611bce84826120a5565b6060805f611dd584860186612bcd565b90508060200151516001600160401b03811115611df457611df461228d565b604051908082528060200260200182016040528015611e1d578160200160208202803683370190505b5092508060200151516001600160401b03811115611e3d57611e3d61228d565b604051908082528060200260200182016040528015611e66578160200160208202803683370190505b5091505f5b81602001515181101561202c578151805182908110611e8c57611e8c6128d4565b60200260200101516001600160a01b031663fabed4123084602001518481518110611eb957611eb96128d4565b602002602001015185604001518581518110611ed757611ed76128d4565b602002602001015186606001518681518110611ef557611ef56128d4565b60200260200101516040518563ffffffff1660e01b8152600401611f1c9493929190612cb5565b6020604051808303815f875af1158015611f38573d5f5f3e3d5ffd5b505050506040513d601f19601f82011682018060405250810190611f5c9190612829565b5081602001518181518110611f7357611f736128d4565b6020026020010151848281518110611f8d57611f8d6128d4565b60200260200101906001600160a01b031690816001600160a01b03168152505081604001518181518110611fc357611fc36128d4565b6020026020010151838281518110611fdd57611fdd6128d4565b602002602001018181525050612024611ff4610664565b848381518110612006576120066128d4565b602002602001015184602001518481518110610fe957610fe96128d4565b600101611e6b565b508160405161203b91906128e8565b604051809103902083604051612051919061291d565b604051908190038120907f3e3e7958121b3e39c7a49392d1aa9cdce870c2a059744f9e15cf66fff7865455905f90a3509250929050565b5f816120948486612d1d565b6118959190612d34565b80825d5050565b5f5f60205f8451602086015f885af1806120c4576040513d5f823e3d81fd5b50505f513d915081156120db5780600114156120e8565b6001600160a01b0384163b155b15611bce57604051635274afe760e01b81526001600160a01b0385166004820152602401610719565b5f5f5f5f60205f8651602088015f8a5af192503d91505f519050828015612150575081156121425780600114612150565b5f866001600160a01b03163b115b9695505050505050565b5f81518084528060208401602086015e5f602082860101526020601f19601f83011685010191505092915050565b602081525f61219a602083018461215a565b9392505050565b5f5f83601f8401126121b1575f5ffd5b5081356001600160401b038111156121c7575f5ffd5b6020830191508360208285010111156117bb575f5ffd5b5f5f5f604084860312156121f0575f5ffd5b8335925060208401356001600160401b0381111561220c575f5ffd5b612218868287016121a1565b9497909650939450505050565b5f60208284031215612235575f5ffd5b5035919050565b6001600160a01b0381168114612250575f5ffd5b50565b5f5f60408385031215612264575f5ffd5b823560038110612272575f5ffd5b915060208301356122828161223c565b809150509250929050565b634e487b7160e01b5f52604160045260245ffd5b604051608081016001600160401b03811182821017156122c3576122c361228d565b60405290565b604051601f8201601f191681016001600160401b03811182821017156122f1576122f161228d565b604052919050565b5f6001600160401b038211156123115761231161228d565b5060051b60200190565b5f82601f83011261232a575f5ffd5b813561233d612338826122f9565b6122c9565b8082825260208201915060208360051b86010192508583111561235e575f5ffd5b602085015b838110156123845780356123768161223c565b835260209283019201612363565b5095945050505050565b5f6020828403121561239e575f5ffd5b81356001600160401b038111156123b3575f5ffd5b6118958482850161231b565b604080825283519082018190525f9060208501906060840190835b818110156124015783516001600160a01b03168352602093840193909201916001016123da565b5050838103602080860191909152855180835291810192508501905f5b8181101561243c57825184526020938401939092019160010161241e565b50919695505050505050565b6001600160a01b038b811682528a8116602083015289166040820152606081018890526080810187905260a0810186905261014060c082018190525f906124919083018761215a565b82810360e08401526124a3818761215a565b9415156101008401525050610120015298975050505050505050565b5f5f5f5f5f5f608087890312156124d4575f5ffd5b8635955060208701356124e68161223c565b945060408701356001600160401b03811115612500575f5ffd5b61250c89828a016121a1565b90955093505060608701356001600160401b0381111561252a575f5ffd5b61253689828a016121a1565b979a9699509497509295939492505050565b602081526125626020820183516001600160a01b03169052565b5f602083015161257d60408401826001600160a01b03169052565b5060408301516001600160a01b03811660608401525060608301516080830152608083015160a083015260a083015160c083015260c083015161014060e08401526125cc61016084018261215a565b905060e0840151601f19848303016101008501526125ea828261215a565b91505061010084015161260261012085018215159052565b506101208401516101408401528091505092915050565b5f5f6020838503121561262a575f5ffd5b82356001600160401b0381111561263f575f5ffd5b61264b858286016121a1565b90969095509350505050565b80516001600160801b038116811461266d575f5ffd5b919050565b5f6060828403128015612683575f5ffd5b50604051606081016001600160401b03811182821017156126a6576126a661228d565b604052825181526126b960208401612657565b60208201526126ca60408401612657565b60408201529392505050565b5f60c08284031280156126e7575f5ffd5b5060405160c081016001600160401b038111828210171561270a5761270a61228d565b60405261271683612657565b815261272460208401612657565b602082015261273560408401612657565b604082015261274660608401612657565b606082015261275760808401612657565b608082015261276860a08401612657565b60a08201529392505050565b600181811c9082168061278857607f821691505b6020821081036127a657634e487b7160e01b5f52602260045260245ffd5b50919050565b5f602082840312156127bc575f5ffd5b815161219a8161223c565b5f602082840312156127d7575f5ffd5b8151801515811461219a575f5ffd5b5f6003841061280357634e487b7160e01b5f52602160045260245ffd5b5060f89290921b825260601b6bffffffffffffffffffffffff1916600182015260150190565b5f60208284031215612839575f5ffd5b5051919050565b5f60a0828403128015612851575f5ffd5b5060405160a081016001600160401b03811182821017156128745761287461228d565b60405282516128828161223c565b815260208381015190820152604080840151908201526060808401519082015260808301516128b08161223c565b60808201529392505050565b828152604060208201525f611895604083018461215a565b634e487b7160e01b5f52603260045260245ffd5b81515f90829060208501835b828110156129125781518452602093840193909101906001016128f4565b509195945050505050565b81515f90829060208501835b828110156129125781516001600160a01b0316845260209384019390910190600101612929565b83815260406020820152816040820152818360608301375f818301606090810191909152601f909201601f1916010192915050565b634e487b7160e01b5f52601160045260245ffd5b80820180821115610b4557610b45612985565b80546001600160a01b039081168352600182015481166020840152600282015481166040840152600382015416606083015260040154608090910152565b60a08101610b4582846129ac565b6101208101612a0782886129ac565b60a082019590955260c08101939093526001600160a01b0391821660e08401521661010090910152919050565b5f5f60408385031215612a45575f5ffd5b505080516020909101519092909150565b612a6081866129ac565b60a081019390935260c08301919091526001600160a01b031660e082015261012061010082018190525f9082015261014001919050565b5f82601f830112612aa6575f5ffd5b8135612ab4612338826122f9565b8082825260208201915060208360051b860101925085831115612ad5575f5ffd5b602085015b83811015612384578035835260209283019201612ada565b5f82601f830112612b01575f5ffd5b8135612b0f612338826122f9565b8082825260208201915060208360051b860101925085831115612b30575f5ffd5b602085015b838110156123845780356001600160401b03811115612b52575f5ffd5b8601603f81018813612b62575f5ffd5b6020810135612b73612338826122f9565b808282526020820191506020808460051b8601010192508a831115612b96575f5ffd5b6040840193505b82841015612bb8578335825260209384019390910190612b9d565b86525050602093840193919091019050612b35565b5f60208284031215612bdd575f5ffd5b81356001600160401b03811115612bf2575f5ffd5b820160808185031215612c03575f5ffd5b612c0b6122a1565b81356001600160401b03811115612c20575f5ffd5b612c2c8682850161231b565b82525060208201356001600160401b03811115612c47575f5ffd5b612c538682850161231b565b60208301525060408201356001600160401b03811115612c71575f5ffd5b612c7d86828501612a97565b60408301525060608201356001600160401b03811115612c9b575f5ffd5b612ca786828501612af2565b606083015250949350505050565b6001600160a01b03858116825284166020808301919091526040820184905260806060830181905283519083018190525f9184019060a0840190835b81811015612d0f578351835260209384019390920191600101612cf1565b509098975050505050505050565b8082028115828204841417610b4557610b45612985565b5f82612d4e57634e487b7160e01b5f52601260045260245ffd5b50049056fea26469706673582212205d09834423a60bb87ca6910f86d13ee49acf8d8a06fc356f6217c36662c79f8664736f6c634300081c0033","linkReferences":{}},"methodIdentifiers":{"MORPHO()":"3acb5624","asset()":"38d52e0f","board(uint256,bytes)":"2db6d399","commander()":"37270936","config()":"79502c55","configurationManager()":"c9c667e3","depositCap()":"dbd5edc7","disembark(uint256,bytes)":"13c408f8","fleetCommanderRewardsManagerFactory()":"f7e533ec","generateRole(uint8,address)":"69b3054b","getConfig()":"c3f909d4","harborCommand()":"5b0f83f3","harvest(bytes)":"ce5c7f61","marketId()":"6ed71ede","marketParams()":"7b9e68f2","maxDepositPercentageOfTVL()":"bdcdd882","maxRebalanceInflow()":"ad5a356f","maxRebalanceOutflow()":"3194549e","move(uint256,address,bytes,bytes)":"c38a6f0b","name()":"06fdde03","raft()":"117d8ae0","registerFleetCommander()":"8a8b9976","requiresKeeperData()":"303dbaf3","setDepositCap(uint256)":"86651203","setMaxDepositPercentageOfTVL(uint256)":"4fc7fac3","setMaxRebalanceInflow(uint256)":"92f5e832","setMaxRebalanceOutflow(uint256)":"61f5cd8b","sweep(address[])":"780469bb","tipJar()":"7aaceb95","totalAssets()":"01e1d114","treasury()":"61d027b3","unregisterFleetCommander()":"ebf31131"},"id":209}