{"abi":[{"type":"constructor","inputs":[{"name":"_morpho","type":"address","internalType":"address"},{"name":"_marketId","type":"bytes32","internalType":"Id"},{"name":"_arkParams","type":"tuple","internalType":"struct ArkParams","components":[{"name":"accessManager","type":"address","internalType":"address"},{"name":"configurationManager","type":"address","internalType":"address"},{"name":"token","type":"address","internalType":"address"},{"name":"maxAllocation","type":"uint256","internalType":"uint256"}]}],"stateMutability":"nonpayable"},{"type":"function","name":"DEFAULT_ADMIN_ROLE","inputs":[],"outputs":[{"name":"","type":"bytes32","internalType":"bytes32"}],"stateMutability":"view"},{"type":"function","name":"MORPHO","inputs":[],"outputs":[{"name":"","type":"address","internalType":"contract IMorpho"}],"stateMutability":"view"},{"type":"function","name":"board","inputs":[{"name":"amount","type":"uint256","internalType":"uint256"}],"outputs":[],"stateMutability":"nonpayable"},{"type":"function","name":"commander","inputs":[],"outputs":[{"name":"","type":"address","internalType":"address"}],"stateMutability":"view"},{"type":"function","name":"disembark","inputs":[{"name":"amount","type":"uint256","internalType":"uint256"}],"outputs":[],"stateMutability":"nonpayable"},{"type":"function","name":"getRoleAdmin","inputs":[{"name":"role","type":"bytes32","internalType":"bytes32"}],"outputs":[{"name":"","type":"bytes32","internalType":"bytes32"}],"stateMutability":"view"},{"type":"function","name":"grantCommanderRole","inputs":[{"name":"account","type":"address","internalType":"address"}],"outputs":[],"stateMutability":"nonpayable"},{"type":"function","name":"grantRole","inputs":[{"name":"","type":"bytes32","internalType":"bytes32"},{"name":"","type":"address","internalType":"address"}],"outputs":[],"stateMutability":"view"},{"type":"function","name":"harvest","inputs":[{"name":"rewardToken","type":"address","internalType":"address"},{"name":"additionalData","type":"bytes","internalType":"bytes"}],"outputs":[{"name":"","type":"uint256","internalType":"uint256"}],"stateMutability":"nonpayable"},{"type":"function","name":"hasRole","inputs":[{"name":"role","type":"bytes32","internalType":"bytes32"},{"name":"account","type":"address","internalType":"address"}],"outputs":[{"name":"","type":"bool","internalType":"bool"}],"stateMutability":"view"},{"type":"function","name":"manager","inputs":[],"outputs":[{"name":"","type":"address","internalType":"contract IConfigurationManager"}],"stateMutability":"view"},{"type":"function","name":"marketId","inputs":[],"outputs":[{"name":"","type":"bytes32","internalType":"Id"}],"stateMutability":"view"},{"type":"function","name":"marketParams","inputs":[],"outputs":[{"name":"loanToken","type":"address","internalType":"address"},{"name":"collateralToken","type":"address","internalType":"address"},{"name":"oracle","type":"address","internalType":"address"},{"name":"irm","type":"address","internalType":"address"},{"name":"lltv","type":"uint256","internalType":"uint256"}],"stateMutability":"view"},{"type":"function","name":"maxAllocation","inputs":[],"outputs":[{"name":"","type":"uint256","internalType":"uint256"}],"stateMutability":"view"},{"type":"function","name":"move","inputs":[{"name":"amount","type":"uint256","internalType":"uint256"},{"name":"receiverArk","type":"address","internalType":"address"}],"outputs":[],"stateMutability":"nonpayable"},{"type":"function","name":"poke","inputs":[],"outputs":[],"stateMutability":"nonpayable"},{"type":"function","name":"raft","inputs":[],"outputs":[{"name":"","type":"address","internalType":"address"}],"stateMutability":"view"},{"type":"function","name":"rate","inputs":[],"outputs":[{"name":"","type":"uint256","internalType":"uint256"}],"stateMutability":"view"},{"type":"function","name":"renounceRole","inputs":[{"name":"role","type":"bytes32","internalType":"bytes32"},{"name":"callerConfirmation","type":"address","internalType":"address"}],"outputs":[],"stateMutability":"nonpayable"},{"type":"function","name":"revokeCommanderRole","inputs":[{"name":"account","type":"address","internalType":"address"}],"outputs":[],"stateMutability":"nonpayable"},{"type":"function","name":"revokeRole","inputs":[{"name":"","type":"bytes32","internalType":"bytes32"},{"name":"","type":"address","internalType":"address"}],"outputs":[],"stateMutability":"view"},{"type":"function","name":"setMaxAllocation","inputs":[{"name":"newMaxAllocation","type":"uint256","internalType":"uint256"}],"outputs":[],"stateMutability":"nonpayable"},{"type":"function","name":"supportsInterface","inputs":[{"name":"interfaceId","type":"bytes4","internalType":"bytes4"}],"outputs":[{"name":"","type":"bool","internalType":"bool"}],"stateMutability":"view"},{"type":"function","name":"token","inputs":[],"outputs":[{"name":"","type":"address","internalType":"contract IERC20"}],"stateMutability":"view"},{"type":"function","name":"totalAssets","inputs":[],"outputs":[{"name":"","type":"uint256","internalType":"uint256"}],"stateMutability":"view"},{"type":"event","name":"ArkPoked","inputs":[{"name":"currentPrice","type":"uint256","indexed":false,"internalType":"uint256"},{"name":"timestamp","type":"uint256","indexed":false,"internalType":"uint256"}],"anonymous":false},{"type":"event","name":"ArkPokedNoChange","inputs":[],"anonymous":false},{"type":"event","name":"ArkPokedTooSoon","inputs":[],"anonymous":false},{"type":"event","name":"Boarded","inputs":[{"name":"commander","type":"address","indexed":true,"internalType":"address"},{"name":"token","type":"address","indexed":false,"internalType":"address"},{"name":"amount","type":"uint256","indexed":false,"internalType":"uint256"}],"anonymous":false},{"type":"event","name":"DepositCapUpdated","inputs":[{"name":"newCap","type":"uint256","indexed":false,"internalType":"uint256"}],"anonymous":false},{"type":"event","name":"Disembarked","inputs":[{"name":"commander","type":"address","indexed":true,"internalType":"address"},{"name":"token","type":"address","indexed":false,"internalType":"address"},{"name":"amount","type":"uint256","indexed":false,"internalType":"uint256"}],"anonymous":false},{"type":"event","name":"Harvested","inputs":[{"name":"amount","type":"uint256","indexed":false,"internalType":"uint256"}],"anonymous":false},{"type":"event","name":"MaxAllocationUpdated","inputs":[{"name":"newMaxAllocation","type":"uint256","indexed":false,"internalType":"uint256"}],"anonymous":false},{"type":"event","name":"Moved","inputs":[{"name":"from","type":"address","indexed":true,"internalType":"address"},{"name":"to","type":"address","indexed":true,"internalType":"address"},{"name":"token","type":"address","indexed":false,"internalType":"address"},{"name":"amount","type":"uint256","indexed":false,"internalType":"uint256"}],"anonymous":false},{"type":"event","name":"RaftUpdated","inputs":[{"name":"newRaft","type":"address","indexed":false,"internalType":"address"}],"anonymous":false},{"type":"event","name":"RoleAdminChanged","inputs":[{"name":"role","type":"bytes32","indexed":true,"internalType":"bytes32"},{"name":"previousAdminRole","type":"bytes32","indexed":true,"internalType":"bytes32"},{"name":"newAdminRole","type":"bytes32","indexed":true,"internalType":"bytes32"}],"anonymous":false},{"type":"event","name":"RoleGranted","inputs":[{"name":"role","type":"bytes32","indexed":true,"internalType":"bytes32"},{"name":"account","type":"address","indexed":true,"internalType":"address"},{"name":"sender","type":"address","indexed":true,"internalType":"address"}],"anonymous":false},{"type":"event","name":"RoleRevoked","inputs":[{"name":"role","type":"bytes32","indexed":true,"internalType":"bytes32"},{"name":"account","type":"address","indexed":true,"internalType":"address"},{"name":"sender","type":"address","indexed":true,"internalType":"address"}],"anonymous":false},{"type":"error","name":"AccessControlBadConfirmation","inputs":[]},{"type":"error","name":"AccessControlUnauthorizedAccount","inputs":[{"name":"account","type":"address","internalType":"address"},{"name":"neededRole","type":"bytes32","internalType":"bytes32"}]},{"type":"error","name":"AddressEmptyCode","inputs":[{"name":"target","type":"address","internalType":"address"}]},{"type":"error","name":"AddressInsufficientBalance","inputs":[{"name":"account","type":"address","internalType":"address"}]},{"type":"error","name":"CallerIsNotAuthorizedToBoard","inputs":[{"name":"caller","type":"address","internalType":"address"}]},{"type":"error","name":"CallerIsNotCommander","inputs":[{"name":"caller","type":"address","internalType":"address"}]},{"type":"error","name":"CallerIsNotGovernor","inputs":[{"name":"caller","type":"address","internalType":"address"}]},{"type":"error","name":"CannotAddCommanderToArkWithCommander","inputs":[]},{"type":"error","name":"CannotRemoveCommanderFromArkWithAssets","inputs":[]},{"type":"error","name":"DirectGrantIsDisabled","inputs":[{"name":"caller","type":"address","internalType":"address"}]},{"type":"error","name":"DirectRevokeIsDisabled","inputs":[{"name":"caller","type":"address","internalType":"address"}]},{"type":"error","name":"FailedInnerCall","inputs":[]},{"type":"error","name":"InvalidAccessManagerAddress","inputs":[{"name":"invalidAddress","type":"address","internalType":"address"}]},{"type":"error","name":"InvalidMarketId","inputs":[]},{"type":"error","name":"InvalidMorphoAddress","inputs":[]},{"type":"error","name":"InvalidVaultAddress","inputs":[]},{"type":"error","name":"SafeERC20FailedOperation","inputs":[{"name":"token","type":"address","internalType":"address"}]}],"bytecode":{"object":"0x60a060405234801561000f575f80fd5b506040516120b33803806120b383398101604081905261002e916102f8565b80518190806001600160a01b038116610061576040516347bd7c1d60e01b81525f60048201526024015b60405180910390fd5b6040516301ffc9a760e01b815263f87138b560e01b60048201526001600160a01b038216906301ffc9a790602401602060405180830381865afa1580156100aa573d5f803e3d5ffd5b505050506040513d601f19601f820116820180604052508101906100ce91906103a6565b6100f6576040516347bd7c1d60e01b81526001600160a01b0382166004820152602401610058565b5f80546001600160a01b03199081166001600160a01b03938416178255602085810151600680549093169416938417909155606085015160035560408051628bec5760e51b8152905193945063117d8ae093600480830194919283900301908290875af1158015610169573d5f803e3d5ffd5b505050506040513d601f19601f8201168201806040525081019061018d91906103cc565b600280546001600160a01b039283166001600160a01b03199182161790915560409092015160048054918316919093161790915583166101e057604051630a875a6560e31b815260040160405180910390fd5b5f8290036102005760405162320bd360e51b815260040160405180910390fd5b6001600160a01b03831660808190526007839055604051632c3c915760e01b815260048101849052632c3c91579060240160a060405180830381865afa15801561024c573d5f803e3d5ffd5b505050506040513d601f19601f8201168201806040525081019061027091906103e5565b8051600880546001600160a01b039283166001600160a01b0319918216179091556020830151600980549184169183169190911790556040830151600a80549184169183169190911790556060830151600b805491909316911617905560800151600c5550610479915050565b80516001600160a01b03811681146102f3575f80fd5b919050565b5f805f83850360c081121561030b575f80fd5b610314856102dd565b9350602085015192506080603f198201121561032e575f80fd5b50604051608081016001600160401b038111828210171561035d57634e487b7160e01b5f52604160045260245ffd5b806040525061036e604086016102dd565b815261037c606086016102dd565b602082015261038d608086016102dd565b604082015260a094909401516060850152509093909250565b5f602082840312156103b6575f80fd5b815180151581146103c5575f80fd5b9392505050565b5f602082840312156103dc575f80fd5b6103c5826102dd565b5f60a08284031280156103f6575f80fd5b5060405160a081016001600160401b038111828210171561042557634e487b7160e01b5f52604160045260245ffd5b604052610431836102dd565b815261043f602084016102dd565b6020820152610450604084016102dd565b6040820152610461606084016102dd565b60608201526080928301519281019290925250919050565b608051611bea6104c95f395f8181610258015281816103e201528181610450015281816106e40152818161105d015281816110d90152818161116e0152818161127201526112ea0152611bea5ff3fe608060405234801561000f575f80fd5b506004361061016d575f3560e01c80634dd47eba116100d957806391d1485411610093578063a217fddf1161006e578063a217fddf14610376578063d547741f1461037d578063d8a8e03a14610390578063fc0c546a146103a3575f80fd5b806391d14854146103475780639403e41f1461035a5780639b3ba79f1461036d575f80fd5b80634dd47eba1461028d5780636ed71ede146102a057806372f12344146102a95780637399bfe8146102bc5780637b9e68f2146102cf57806381d3ce2614610334575f80fd5b80632c4e722e1161012a5780632c4e722e146102125780632f2ff15d1461021a57806336568abe1461022d57806337270936146102405780633acb562414610253578063481c6a751461027a575f80fd5b806301e1d1141461017157806301ffc9a71461018c578063117d8ae0146101af57806318178358146101da578063248a9ca3146101dc57806328ed6e3f146101ff575b5f80fd5b6101796103b6565b6040519081526020015b60405180910390f35b61019f61019a366004611718565b610507565b6040519015158152602001610183565b6002546101c2906001600160a01b031681565b6040516001600160a01b039091168152602001610183565b005b6101796101ea36600461173f565b5f908152600160208190526040909120015490565b6101da61020d36600461173f565b61053d565b6101796106e0565b6101da61022836600461176a565b6108f3565b6101da61023b36600461176a565b61090e565b6005546101c2906001600160a01b031681565b6101c27f000000000000000000000000000000000000000000000000000000000000000081565b6006546101c2906001600160a01b031681565b6101da61029b36600461173f565b610946565b61017960075481565b6101da6102b736600461173f565b6109dc565b6101796102ca366004611798565b610a3e565b600854600954600a54600b54600c546102f9946001600160a01b0390811694811693811692169085565b604080516001600160a01b0396871681529486166020860152928516928401929092529092166060820152608081019190915260a001610183565b6101da610342366004611818565b610ac6565b61019f61035536600461176a565b610c3b565b6101da610368366004611818565b610c65565b61017960035481565b6101795f81565b6101da61038b36600461176a565b610dd6565b6101da61039e36600461176a565b610df1565b6004546101c2906001600160a01b031681565b6007546040516349e2903160e11b815260048101919091523060248201525f9081906001600160a01b037f000000000000000000000000000000000000000000000000000000000000000016906393c5206290604401606060405180830381865afa158015610427573d5f803e3d5ffd5b505050506040513d601f19601f8201168201806040525081019061044b919061184e565b90505f7f00000000000000000000000000000000000000000000000000000000000000006001600160a01b0316635c60e39a6007546040518263ffffffff1660e01b815260040161049e91815260200190565b60c060405180830381865afa1580156104b9573d5f803e3d5ffd5b505050506040513d601f19601f820116820180604052508101906104dd91906118bf565b80516020820151845192935061050092916001600160801b039081169116610f3d565b9250505090565b5f6001600160e01b03198216637965db0b60e01b148061053757506301ffc9a760e01b6001600160e01b03198316145b92915050565b6005546001600160a01b0316610551610f61565b61066e575f3390505f306001600160a01b031663117d8ae06040518163ffffffff1660e01b8152600401602060405180830381865afa158015610596573d5f803e3d5ffd5b505050506040513d601f19601f820116820180604052508101906105ba919061196a565b60405163d25dd10160e01b81526001600160a01b038481166004830181905292811690921492505f9185169063d25dd10190602401602060405180830381865afa15801561060a573d5f803e3d5ffd5b505050506040513d601f19601f8201168201806040525081019061062e9190611985565b90508015801561063c575081155b1561066a57604051638f7a567d60e01b81526001600160a01b03841660048201526024015b60405180910390fd5b5050505b6004543390610688906001600160a01b0316823086610fd9565b61069183611046565b600454604080516001600160a01b03928316815260208101869052918316917fcbaa1442ac205415c9d69643e7b60ec73d1de35dbc807c21ec288c70ddc4207b910160405180910390a2505050565b5f807f00000000000000000000000000000000000000000000000000000000000000006001600160a01b0316635c60e39a6007546040518263ffffffff1660e01b815260040161073291815260200190565b60c060405180830381865afa15801561074d573d5f803e3d5ffd5b505050506040513d601f19601f8201168201806040525081019061077191906118bf565b905080608001516001600160801b03165f0361078e575f91505090565b600b54604051638c00bf6b60e01b81526001600160a01b03909116905f908290638c00bf6b906107c59060089087906004016119e2565b602060405180830381865afa1580156107e0573d5f803e3d5ffd5b505050506040513d601f19601f820116820180604052508101906108049190611a6a565b83519091505f906001600160801b03161561085657835f01516001600160801b0316670de0b6b3a764000085604001516001600160801b03166108479190611a95565b6108519190611aac565b610858565b5f5b90505f8460a001516001600160801b0316670de0b6b3a764000061087c9190611acb565b90505f610891670de0b6b3a764000080611a95565b8261089c8587611a95565b6108a69190611a95565b6108b09190611aac565b90506108d0670de0b6b3a76400006b033b2e3c9fd0803ce8000000611aac565b6108de6301e1338083611a95565b6108e89190611a95565b965050505050505090565b604051630e15200f60e21b8152336004820152602401610661565b6001600160a01b03811633146109375760405163334bd91960e11b815260040160405180910390fd5b61094182826111e9565b505050565b61094e610f61565b61096d57604051631564c0e160e11b8152336004820152602401610661565b336109778261125b565b60045461098e906001600160a01b0316828461132a565b600454604080516001600160a01b03928316815260208101859052918316917fd5e872c5ecfb1bb8820b2e6a20e31b883682282da886621541f71e31ec11947e910160405180910390a25050565b6109e4610f61565b610a0357604051631564c0e160e11b8152336004820152602401610661565b60038190556040518181527ff71dfae69e41913414884e69a96ee28ef3f1ce5593bee0fb570cf9404e41a8089060200160405180910390a150565b5f610aba60065f9054906101000a90046001600160a01b03166001600160a01b031663117d8ae06040518163ffffffff1660e01b81526004016020604051808303815f875af1158015610a93573d5f803e3d5ffd5b505050506040513d601f19601f82011682018060405250810190610ab7919061196a565b50565b5f5b90505b9392505050565b5f5460408051630ccc574960e41b815290516001600160a01b03909216916391d1485491839163ccc57490916004808201926020929091908290030181865afa158015610b15573d5f803e3d5ffd5b505050506040513d601f19601f82011682018060405250810190610b399190611a6a565b6040516001600160e01b031960e084901b1681526004810191909152336024820152604401602060405180830381865afa158015610b79573d5f803e3d5ffd5b505050506040513d601f19601f82011682018060405250810190610b9d9190611985565b610bbc57604051630ea7d7ed60e21b8152336004820152602401610661565b610bc58161135b565b5f54604080516345b817bb60e01b81529051610c37926001600160a01b0316916345b817bb9160048083019260209291908290030181865afa158015610c0d573d5f803e3d5ffd5b505050506040513d601f19601f82011682018060405250810190610c319190611a6a565b826111e9565b5050565b5f9182526001602090815260408084206001600160a01b0393909316845291905290205460ff1690565b5f5460408051630ccc574960e41b815290516001600160a01b03909216916391d1485491839163ccc57490916004808201926020929091908290030181865afa158015610cb4573d5f803e3d5ffd5b505050506040513d601f19601f82011682018060405250810190610cd89190611a6a565b6040516001600160e01b031960e084901b1681526004810191909152336024820152604401602060405180830381865afa158015610d18573d5f803e3d5ffd5b505050506040513d601f19601f82011682018060405250810190610d3c9190611985565b610d5b57604051630ea7d7ed60e21b8152336004820152602401610661565b610d64816113ee565b5f54604080516345b817bb60e01b81529051610c37926001600160a01b0316916345b817bb9160048083019260209291908290030181865afa158015610dac573d5f803e3d5ffd5b505050506040513d601f19601f82011682018060405250810190610dd09190611a6a565b82611530565b604051636344978560e11b8152336004820152602401610661565b610df9610f61565b610e1857604051631564c0e160e11b8152336004820152602401610661565b610e218261125b565b6004805460405163095ea7b360e01b81526001600160a01b03848116938201939093526024810185905291169063095ea7b3906044016020604051808303815f875af1158015610e73573d5f803e3d5ffd5b505050506040513d601f19601f82011682018060405250810190610e979190611985565b506040516328ed6e3f60e01b8152600481018390526001600160a01b038216906328ed6e3f906024015f604051808303815f87803b158015610ed7575f80fd5b505af1158015610ee9573d5f803e3d5ffd5b5050600454604080516001600160a01b0392831681526020810187905291851693503092507f9f784fc02a186f1c98b2d9f15fda084da27cdd291a3785d978f91911d880516b910160405180910390a35050565b5f610abc610f4c600185611ade565b610f59620f424085611ade565b86919061159f565b5f8054604080516345b817bb60e01b81529051610fd4926001600160a01b0316916345b817bb9160048083019260209291908290030181865afa158015610faa573d5f803e3d5ffd5b505050506040513d601f19601f82011682018060405250810190610fce9190611a6a565b33610c3b565b905090565b6040516001600160a01b0384811660248301528381166044830152606482018390526110409186918216906323b872dd906084015b604051602081830303815290604052915060e01b6020820180516001600160e01b0383818316178352505050506115b5565b50505050565b604051630a8e0d6f60e11b81526001600160a01b037f0000000000000000000000000000000000000000000000000000000000000000169063151c1ade9061109390600890600401611af1565b5f604051808303815f87803b1580156110aa575f80fd5b505af11580156110bc573d5f803e3d5ffd5b50506004805460405163095ea7b360e01b81526001600160a01b037f0000000000000000000000000000000000000000000000000000000000000000811693820193909352602481018690529116925063095ea7b391506044016020604051808303815f875af1158015611132573d5f803e3d5ffd5b505050506040513d601f19601f820116820180604052508101906111569190611985565b5060405163a99aad8960e01b81526001600160a01b037f0000000000000000000000000000000000000000000000000000000000000000169063a99aad89906111aa9060089085905f903090600401611aff565b60408051808303815f875af11580156111c5573d5f803e3d5ffd5b505050506040513d601f19601f820116820180604052508101906109419190611b40565b5f6111f48383610c3b565b15611254575f8381526001602090815260408083206001600160a01b0386168085529252808320805460ff1916905551339286917ff6391f5c32d9c69d2a47ea670b442974b53935d1edc7fd64eb21e047a839171b9190a4506001610537565b505f610537565b604051630a8e0d6f60e11b81526001600160a01b037f0000000000000000000000000000000000000000000000000000000000000000169063151c1ade906112a890600890600401611af1565b5f604051808303815f87803b1580156112bf575f80fd5b505af11580156112d1573d5f803e3d5ffd5b5050604051635c2bea4960e01b81526001600160a01b037f0000000000000000000000000000000000000000000000000000000000000000169250635c2bea4991506111aa9060089085905f9030908190600401611b62565b6040516001600160a01b0383811660248301526044820183905261094191859182169063a9059cbb9060640161100e565b5f306001600160a01b03166301e1d1146040518163ffffffff1660e01b8152600401602060405180830381865afa158015611398573d5f803e3d5ffd5b505050506040513d601f19601f820116820180604052508101906113bc9190611a6a565b11156113db576040516373a075f360e01b815260040160405180910390fd5b50600580546001600160a01b0319169055565b5f5460408051630ccc574960e41b815290516001600160a01b03909216916391d1485491839163ccc57490916004808201926020929091908290030181865afa15801561143d573d5f803e3d5ffd5b505050506040513d601f19601f820116820180604052508101906114619190611a6a565b6040516001600160e01b031960e084901b1681526004810191909152336024820152604401602060405180830381865afa1580156114a1573d5f803e3d5ffd5b505050506040513d601f19601f820116820180604052508101906114c59190611985565b6114e457604051630ea7d7ed60e21b8152336004820152602401610661565b6005546001600160a01b03161561150e5760405163d32184ed60e01b815260040160405180910390fd5b600580546001600160a01b0319166001600160a01b0392909216919091179055565b5f61153b8383610c3b565b611254575f8381526001602081815260408084206001600160a01b0387168086529252808420805460ff19169093179092559051339286917f2f8788117e7eff1d82e926ec794901d17c78024a50270940304540a733656f0d9190a4506001610537565b5f816115ab8486611a95565b610abc9190611aac565b5f6115c96001600160a01b03841683611616565b905080515f141580156115ed5750808060200190518101906115eb9190611985565b155b1561094157604051635274afe760e01b81526001600160a01b0384166004820152602401610661565b6060610abf83835f845f80856001600160a01b0316848660405161163a9190611b9e565b5f6040518083038185875af1925050503d805f8114611674576040519150601f19603f3d011682016040523d82523d5f602084013e611679565b606091505b5091509150611689868383611693565b9695505050505050565b6060826116a8576116a3826116ef565b610abf565b81511580156116bf57506001600160a01b0384163b155b156116e857604051639996b31560e01b81526001600160a01b0385166004820152602401610661565b5080610abf565b8051156116ff5780518082602001fd5b604051630a12f52160e11b815260040160405180910390fd5b5f60208284031215611728575f80fd5b81356001600160e01b031981168114610abf575f80fd5b5f6020828403121561174f575f80fd5b5035919050565b6001600160a01b0381168114610ab7575f80fd5b5f806040838503121561177b575f80fd5b82359150602083013561178d81611756565b809150509250929050565b5f805f604084860312156117aa575f80fd5b83356117b581611756565b9250602084013567ffffffffffffffff8111156117d0575f80fd5b8401601f810186136117e0575f80fd5b803567ffffffffffffffff8111156117f6575f80fd5b866020828401011115611807575f80fd5b939660209190910195509293505050565b5f60208284031215611828575f80fd5b8135610abf81611756565b80516001600160801b0381168114611849575f80fd5b919050565b5f606082840312801561185f575f80fd5b506040516060810167ffffffffffffffff8111828210171561188f57634e487b7160e01b5f52604160045260245ffd5b604052825181526118a260208401611833565b60208201526118b360408401611833565b60408201529392505050565b5f60c08284031280156118d0575f80fd5b5060405160c0810167ffffffffffffffff8111828210171561190057634e487b7160e01b5f52604160045260245ffd5b60405261190c83611833565b815261191a60208401611833565b602082015261192b60408401611833565b604082015261193c60608401611833565b606082015261194d60808401611833565b608082015261195e60a08401611833565b60a08201529392505050565b5f6020828403121561197a575f80fd5b8151610abf81611756565b5f60208284031215611995575f80fd5b81518015158114610abf575f80fd5b80546001600160a01b039081168352600182015481166020840152600282015481166040840152600382015416606083015260040154608090910152565b61016081016119f182856119a4565b6001600160801b0383511660a08301526001600160801b0360208401511660c08301526001600160801b0360408401511660e08301526001600160801b036060840151166101008301526001600160801b036080840151166101208301526001600160801b0360a0840151166101408301529392505050565b5f60208284031215611a7a575f80fd5b5051919050565b634e487b7160e01b5f52601160045260245ffd5b808202811582820484141761053757610537611a81565b5f82611ac657634e487b7160e01b5f52601260045260245ffd5b500490565b8181038181111561053757610537611a81565b8082018082111561053757610537611a81565b60a0810161053782846119a4565b611b0981866119a4565b60a081019390935260c08301919091526001600160a01b031660e082015261012061010082018190525f9082015261014001919050565b5f8060408385031215611b51575f80fd5b505080516020909101519092909150565b6101208101611b7182886119a4565b60a082019590955260c08101939093526001600160a01b0391821660e08401521661010090910152919050565b5f82518060208501845e5f92019182525091905056fea264697066735822122086b08c1d8d864f1c1002a00e673f282088109eab36aee258c006dee0c6d0bbc464736f6c634300081a0033","linkReferences":{}},"methodIdentifiers":{"DEFAULT_ADMIN_ROLE()":"a217fddf","MORPHO()":"3acb5624","board(uint256)":"28ed6e3f","commander()":"37270936","disembark(uint256)":"4dd47eba","getRoleAdmin(bytes32)":"248a9ca3","grantCommanderRole(address)":"9403e41f","grantRole(bytes32,address)":"2f2ff15d","harvest(address,bytes)":"7399bfe8","hasRole(bytes32,address)":"91d14854","manager()":"481c6a75","marketId()":"6ed71ede","marketParams()":"7b9e68f2","maxAllocation()":"9b3ba79f","move(uint256,address)":"d8a8e03a","poke()":"18178358","raft()":"117d8ae0","rate()":"2c4e722e","renounceRole(bytes32,address)":"36568abe","revokeCommanderRole(address)":"81d3ce26","revokeRole(bytes32,address)":"d547741f","setMaxAllocation(uint256)":"72f12344","supportsInterface(bytes4)":"01ffc9a7","token()":"fc0c546a","totalAssets()":"01e1d114"},"id":72}