{"abi":[{"type":"constructor","inputs":[{"name":"_morpho","type":"address","internalType":"address"},{"name":"_marketId","type":"bytes32","internalType":"Id"},{"name":"_arkParams","type":"tuple","internalType":"struct ArkParams","components":[{"name":"name","type":"string","internalType":"string"},{"name":"accessManager","type":"address","internalType":"address"},{"name":"configurationManager","type":"address","internalType":"address"},{"name":"token","type":"address","internalType":"address"},{"name":"depositCap","type":"uint256","internalType":"uint256"},{"name":"maxRebalanceOutflow","type":"uint256","internalType":"uint256"},{"name":"maxRebalanceInflow","type":"uint256","internalType":"uint256"},{"name":"requiresKeeperData","type":"bool","internalType":"bool"},{"name":"maxDepositPercentageOfTVL","type":"uint256","internalType":"Percentage"}]}],"stateMutability":"nonpayable"},{"type":"function","name":"MORPHO","inputs":[],"outputs":[{"name":"","type":"address","internalType":"contract IMorpho"}],"stateMutability":"view"},{"type":"function","name":"board","inputs":[{"name":"amount","type":"uint256","internalType":"uint256"},{"name":"boardData","type":"bytes","internalType":"bytes"}],"outputs":[],"stateMutability":"nonpayable"},{"type":"function","name":"commander","inputs":[],"outputs":[{"name":"","type":"address","internalType":"address"}],"stateMutability":"view"},{"type":"function","name":"config","inputs":[],"outputs":[{"name":"commander","type":"address","internalType":"address"},{"name":"raft","type":"address","internalType":"address"},{"name":"token","type":"address","internalType":"contract IERC20"},{"name":"depositCap","type":"uint256","internalType":"uint256"},{"name":"maxRebalanceOutflow","type":"uint256","internalType":"uint256"},{"name":"maxRebalanceInflow","type":"uint256","internalType":"uint256"},{"name":"name","type":"string","internalType":"string"},{"name":"requiresKeeperData","type":"bool","internalType":"bool"},{"name":"maxDepositPercentageOfTVL","type":"uint256","internalType":"Percentage"}],"stateMutability":"view"},{"type":"function","name":"configurationManager","inputs":[],"outputs":[{"name":"","type":"address","internalType":"contract IConfigurationManager"}],"stateMutability":"view"},{"type":"function","name":"depositCap","inputs":[],"outputs":[{"name":"","type":"uint256","internalType":"uint256"}],"stateMutability":"view"},{"type":"function","name":"disembark","inputs":[{"name":"amount","type":"uint256","internalType":"uint256"},{"name":"disembarkData","type":"bytes","internalType":"bytes"}],"outputs":[],"stateMutability":"nonpayable"},{"type":"function","name":"generateRole","inputs":[{"name":"roleName","type":"uint8","internalType":"enum ContractSpecificRoles"},{"name":"roleTargetContract","type":"address","internalType":"address"}],"outputs":[{"name":"","type":"bytes32","internalType":"bytes32"}],"stateMutability":"pure"},{"type":"function","name":"getConfig","inputs":[],"outputs":[{"name":"","type":"tuple","internalType":"struct ArkConfig","components":[{"name":"commander","type":"address","internalType":"address"},{"name":"raft","type":"address","internalType":"address"},{"name":"token","type":"address","internalType":"contract IERC20"},{"name":"depositCap","type":"uint256","internalType":"uint256"},{"name":"maxRebalanceOutflow","type":"uint256","internalType":"uint256"},{"name":"maxRebalanceInflow","type":"uint256","internalType":"uint256"},{"name":"name","type":"string","internalType":"string"},{"name":"requiresKeeperData","type":"bool","internalType":"bool"},{"name":"maxDepositPercentageOfTVL","type":"uint256","internalType":"Percentage"}]}],"stateMutability":"view"},{"type":"function","name":"harborCommand","inputs":[],"outputs":[{"name":"","type":"address","internalType":"address"}],"stateMutability":"view"},{"type":"function","name":"harvest","inputs":[{"name":"additionalData","type":"bytes","internalType":"bytes"}],"outputs":[{"name":"rewardTokens","type":"address[]","internalType":"address[]"},{"name":"rewardAmounts","type":"uint256[]","internalType":"uint256[]"}],"stateMutability":"nonpayable"},{"type":"function","name":"marketId","inputs":[],"outputs":[{"name":"","type":"bytes32","internalType":"Id"}],"stateMutability":"view"},{"type":"function","name":"marketParams","inputs":[],"outputs":[{"name":"loanToken","type":"address","internalType":"address"},{"name":"collateralToken","type":"address","internalType":"address"},{"name":"oracle","type":"address","internalType":"address"},{"name":"irm","type":"address","internalType":"address"},{"name":"lltv","type":"uint256","internalType":"uint256"}],"stateMutability":"view"},{"type":"function","name":"maxDepositPercentageOfTVL","inputs":[],"outputs":[{"name":"","type":"uint256","internalType":"Percentage"}],"stateMutability":"view"},{"type":"function","name":"maxRebalanceInflow","inputs":[],"outputs":[{"name":"","type":"uint256","internalType":"uint256"}],"stateMutability":"view"},{"type":"function","name":"maxRebalanceOutflow","inputs":[],"outputs":[{"name":"","type":"uint256","internalType":"uint256"}],"stateMutability":"view"},{"type":"function","name":"move","inputs":[{"name":"amount","type":"uint256","internalType":"uint256"},{"name":"receiverArk","type":"address","internalType":"address"},{"name":"boardData","type":"bytes","internalType":"bytes"},{"name":"disembarkData","type":"bytes","internalType":"bytes"}],"outputs":[],"stateMutability":"nonpayable"},{"type":"function","name":"name","inputs":[],"outputs":[{"name":"","type":"string","internalType":"string"}],"stateMutability":"view"},{"type":"function","name":"raft","inputs":[],"outputs":[{"name":"","type":"address","internalType":"address"}],"stateMutability":"view"},{"type":"function","name":"registerFleetCommander","inputs":[],"outputs":[],"stateMutability":"nonpayable"},{"type":"function","name":"requiresKeeperData","inputs":[],"outputs":[{"name":"","type":"bool","internalType":"bool"}],"stateMutability":"view"},{"type":"function","name":"setDepositCap","inputs":[{"name":"newDepositCap","type":"uint256","internalType":"uint256"}],"outputs":[],"stateMutability":"nonpayable"},{"type":"function","name":"setMaxDepositPercentageOfTVL","inputs":[{"name":"newMaxDepositPercentageOfTVL","type":"uint256","internalType":"Percentage"}],"outputs":[],"stateMutability":"nonpayable"},{"type":"function","name":"setMaxRebalanceInflow","inputs":[{"name":"newMaxRebalanceInflow","type":"uint256","internalType":"uint256"}],"outputs":[],"stateMutability":"nonpayable"},{"type":"function","name":"setMaxRebalanceOutflow","inputs":[{"name":"newMaxRebalanceOutflow","type":"uint256","internalType":"uint256"}],"outputs":[],"stateMutability":"nonpayable"},{"type":"function","name":"sweep","inputs":[{"name":"tokens","type":"address[]","internalType":"address[]"}],"outputs":[{"name":"sweptTokens","type":"address[]","internalType":"address[]"},{"name":"sweptAmounts","type":"uint256[]","internalType":"uint256[]"}],"stateMutability":"nonpayable"},{"type":"function","name":"tipJar","inputs":[],"outputs":[{"name":"","type":"address","internalType":"address"}],"stateMutability":"view"},{"type":"function","name":"token","inputs":[],"outputs":[{"name":"","type":"address","internalType":"contract IERC20"}],"stateMutability":"view"},{"type":"function","name":"totalAssets","inputs":[],"outputs":[{"name":"","type":"uint256","internalType":"uint256"}],"stateMutability":"view"},{"type":"function","name":"treasury","inputs":[],"outputs":[{"name":"","type":"address","internalType":"address"}],"stateMutability":"view"},{"type":"function","name":"unregisterFleetCommander","inputs":[],"outputs":[],"stateMutability":"nonpayable"},{"type":"event","name":"ArkHarvested","inputs":[{"name":"rewardTokens","type":"address[]","indexed":true,"internalType":"address[]"},{"name":"rewardAmounts","type":"uint256[]","indexed":true,"internalType":"uint256[]"}],"anonymous":false},{"type":"event","name":"ArkPoked","inputs":[{"name":"currentPrice","type":"uint256","indexed":false,"internalType":"uint256"},{"name":"timestamp","type":"uint256","indexed":false,"internalType":"uint256"}],"anonymous":false},{"type":"event","name":"ArkSwept","inputs":[{"name":"sweptTokens","type":"address[]","indexed":true,"internalType":"address[]"},{"name":"sweptAmounts","type":"uint256[]","indexed":true,"internalType":"uint256[]"}],"anonymous":false},{"type":"event","name":"Boarded","inputs":[{"name":"commander","type":"address","indexed":true,"internalType":"address"},{"name":"token","type":"address","indexed":false,"internalType":"address"},{"name":"amount","type":"uint256","indexed":false,"internalType":"uint256"}],"anonymous":false},{"type":"event","name":"DepositCapUpdated","inputs":[{"name":"newCap","type":"uint256","indexed":false,"internalType":"uint256"}],"anonymous":false},{"type":"event","name":"Disembarked","inputs":[{"name":"commander","type":"address","indexed":true,"internalType":"address"},{"name":"token","type":"address","indexed":false,"internalType":"address"},{"name":"amount","type":"uint256","indexed":false,"internalType":"uint256"}],"anonymous":false},{"type":"event","name":"FleetCommanderRegistered","inputs":[{"name":"commander","type":"address","indexed":false,"internalType":"address"}],"anonymous":false},{"type":"event","name":"FleetCommanderUnregistered","inputs":[{"name":"commander","type":"address","indexed":false,"internalType":"address"}],"anonymous":false},{"type":"event","name":"MaxDepositPercentageOfTVLUpdated","inputs":[{"name":"newMaxDepositPercentageOfTVL","type":"uint256","indexed":false,"internalType":"Percentage"}],"anonymous":false},{"type":"event","name":"MaxRebalanceInflowUpdated","inputs":[{"name":"newMaxInflow","type":"uint256","indexed":false,"internalType":"uint256"}],"anonymous":false},{"type":"event","name":"MaxRebalanceOutflowUpdated","inputs":[{"name":"newMaxOutflow","type":"uint256","indexed":false,"internalType":"uint256"}],"anonymous":false},{"type":"event","name":"Moved","inputs":[{"name":"from","type":"address","indexed":true,"internalType":"address"},{"name":"to","type":"address","indexed":true,"internalType":"address"},{"name":"token","type":"address","indexed":false,"internalType":"address"},{"name":"amount","type":"uint256","indexed":false,"internalType":"uint256"}],"anonymous":false},{"type":"event","name":"RaftUpdated","inputs":[{"name":"newRaft","type":"address","indexed":false,"internalType":"address"}],"anonymous":false},{"type":"error","name":"CallerIsNotAdmin","inputs":[{"name":"caller","type":"address","internalType":"address"}]},{"type":"error","name":"CallerIsNotAuthorizedToBoard","inputs":[{"name":"caller","type":"address","internalType":"address"}]},{"type":"error","name":"CallerIsNotCommander","inputs":[{"name":"caller","type":"address","internalType":"address"}]},{"type":"error","name":"CallerIsNotContractSpecificRole","inputs":[{"name":"caller","type":"address","internalType":"address"},{"name":"role","type":"bytes32","internalType":"bytes32"}]},{"type":"error","name":"CallerIsNotCurator","inputs":[{"name":"caller","type":"address","internalType":"address"}]},{"type":"error","name":"CallerIsNotGovernor","inputs":[{"name":"caller","type":"address","internalType":"address"}]},{"type":"error","name":"CallerIsNotGuardian","inputs":[{"name":"caller","type":"address","internalType":"address"}]},{"type":"error","name":"CallerIsNotGuardianOrGovernor","inputs":[{"name":"caller","type":"address","internalType":"address"}]},{"type":"error","name":"CallerIsNotKeeper","inputs":[{"name":"caller","type":"address","internalType":"address"}]},{"type":"error","name":"CallerIsNotRaft","inputs":[{"name":"caller","type":"address","internalType":"address"}]},{"type":"error","name":"CallerIsNotRaftOrCommander","inputs":[{"name":"caller","type":"address","internalType":"address"}]},{"type":"error","name":"CallerIsNotSuperKeeper","inputs":[{"name":"caller","type":"address","internalType":"address"}]},{"type":"error","name":"CannotAddCommanderToArkWithCommander","inputs":[]},{"type":"error","name":"CannotDeployArkWithEmptyName","inputs":[]},{"type":"error","name":"CannotDeployArkWithoutConfigurationManager","inputs":[]},{"type":"error","name":"CannotDeployArkWithoutRaft","inputs":[]},{"type":"error","name":"CannotDeployArkWithoutToken","inputs":[]},{"type":"error","name":"CannotRemoveCommanderFromArkWithAssets","inputs":[]},{"type":"error","name":"CannotUseKeeperDataWhenNotRequired","inputs":[]},{"type":"error","name":"ConfigurationManagerZeroAddress","inputs":[]},{"type":"error","name":"DirectGrantIsDisabled","inputs":[{"name":"caller","type":"address","internalType":"address"}]},{"type":"error","name":"DirectRevokeIsDisabled","inputs":[{"name":"caller","type":"address","internalType":"address"}]},{"type":"error","name":"ERC4626AssetMismatch","inputs":[]},{"type":"error","name":"InvalidAccessManagerAddress","inputs":[{"name":"invalidAddress","type":"address","internalType":"address"}]},{"type":"error","name":"InvalidBoardData","inputs":[]},{"type":"error","name":"InvalidDisembarkData","inputs":[]},{"type":"error","name":"InvalidMarketId","inputs":[]},{"type":"error","name":"InvalidMorphoAddress","inputs":[]},{"type":"error","name":"InvalidVaultAddress","inputs":[]},{"type":"error","name":"KeeperDataRequired","inputs":[]},{"type":"error","name":"ReentrancyGuardReentrantCall","inputs":[]},{"type":"error","name":"SafeERC20FailedOperation","inputs":[{"name":"token","type":"address","internalType":"address"}]}],"bytecode":{"object":"0x60c060405234801561000f575f5ffd5b5060405161347938038061347983398101604081905261002e91610572565b6040810151602082015182918291806001600160a01b03811661006b576040516347bd7c1d60e01b81525f60048201526024015b60405180910390fd5b6040516301ffc9a760e01b815263fe1a291f60e01b60048201526001600160a01b038216906301ffc9a790602401602060405180830381865afa1580156100b4573d5f5f3e3d5ffd5b505050506040513d601f19601f820116820180604052508101906100d89190610669565b610100576040516347bd7c1d60e01b81526001600160a01b0382166004820152602401610062565b5f80546001600160a01b0319166001600160a01b039283161790558216905061013c5760405163f1634df960e01b815260040160405180910390fd5b6001600160a01b0390811660805260408201511661016d5760405163b53c493160e01b815260040160405180910390fd5b60608101516001600160a01b031661019b576040516001620a810f60e11b0319815260040160405180910390fd5b8051515f036101bd5760405163268c072960e01b815260040160405180910390fd5b5f6101c661041a565b6001600160a01b0316036101ed57604051633a4f9cdb60e21b815260040160405180910390fd5b6040805161012081019091525f81526020810161020861041a565b6001600160a01b039081168252606080850151821660208085019190915260808087015160408087019190915260a0808901518588015260c0808a01518489015289518289015260e0808b01511515828a01526101008b01519801979097528751600180549188166001600160a01b03199283161781559489015160028054918916918316919091179055918801516003805491909716921691909117909455918501516004559084015160055590830151600655908201516007906102ce908261070d565b5060e082015160078201805460ff19169115159190911790556101009091015160089091015550506001600160a01b03831661031d57604051630a875a6560e31b815260040160405180910390fd5b5f82900361033d5760405162320bd360e51b815260040160405180910390fd5b6001600160a01b03831660a0819052600a839055604051632c3c915760e01b815260048101849052632c3c91579060240160a060405180830381865afa158015610389573d5f5f3e3d5ffd5b505050506040513d601f19601f820116820180604052508101906103ad91906107c7565b8051600b80546001600160a01b039283166001600160a01b0319918216179091556020830151600c80549184169183169190911790556040830151600d80549184169183169190911790556060830151600e805491909316911617905560800151600f5550610868915050565b5f6080516001600160a01b031663117d8ae06040518163ffffffff1660e01b8152600401602060405180830381865afa158015610459573d5f5f3e3d5ffd5b505050506040513d601f19601f8201168201806040525081019061047d919061084f565b905090565b80516001600160a01b0381168114610498575f5ffd5b919050565b634e487b7160e01b5f52604160045260245ffd5b60405161012081016001600160401b03811182821017156104d4576104d461049d565b60405290565b5f82601f8301126104e9575f5ffd5b81516001600160401b038111156105025761050261049d565b604051601f8201601f19908116603f011681016001600160401b03811182821017156105305761053061049d565b604052818152838201602001851015610547575f5ffd5b8160208501602083015e5f918101602001919091529392505050565b80518015158114610498575f5ffd5b5f5f5f60608486031215610584575f5ffd5b61058d84610482565b6020850151604086015191945092506001600160401b038111156105af575f5ffd5b840161012081870312156105c1575f5ffd5b6105c96104b1565b81516001600160401b038111156105de575f5ffd5b6105ea888285016104da565b8252506105f960208301610482565b602082015261060a60408301610482565b604082015261061b60608301610482565b60608201526080828101519082015260a0808301519082015260c0808301519082015261064a60e08301610563565b60e0820152610100918201519181019190915292959194509192509050565b5f60208284031215610679575f5ffd5b61068282610563565b9392505050565b600181811c9082168061069d57607f821691505b6020821081036106bb57634e487b7160e01b5f52602260045260245ffd5b50919050565b601f82111561070857805f5260205f20601f840160051c810160208510156106e65750805b601f840160051c820191505b81811015610705575f81556001016106f2565b50505b505050565b81516001600160401b038111156107265761072661049d565b61073a816107348454610689565b846106c1565b6020601f82116001811461076c575f83156107555750848201515b5f19600385901b1c1916600184901b178455610705565b5f84815260208120601f198516915b8281101561079b578785015182556020948501946001909201910161077b565b50848210156107b857868401515f19600387901b60f8161c191681555b50505050600190811b01905550565b5f60a08284031280156107d8575f5ffd5b5060405160a081016001600160401b03811182821017156107fb576107fb61049d565b60405261080783610482565b815261081560208401610482565b602082015261082660408401610482565b604082015261083760608401610482565b60608201526080928301519281019290925250919050565b5f6020828403121561085f575f5ffd5b61068282610482565b60805160a051612ba36108d65f395f818161028c01528181610498015281816105060152818161185d015281816118d501528181611a3a01528181611ab50152611b4901525f81816104160152818161065301528181610a0601528181610a6301526111990152612ba35ff3fe608060405234801561000f575f5ffd5b50600436106101dc575f3560e01c8063780469bb11610109578063bdcdd8821161009e578063ce5c7f611161006e578063ce5c7f6114610438578063dbd5edc71461044b578063ebf3113114610453578063fc0c546a1461045b575f5ffd5b8063bdcdd882146103e1578063c38a6f0b146103e9578063c3f909d4146103fc578063c9c667e314610411575f5ffd5b806386651203116100d957806386651203146103ab5780638a8b9976146103be57806392f5e832146103c6578063ad5a356f146103d9575f5ffd5b8063780469bb1461030057806379502c55146103215780637aaceb951461033e5780637b9e68f214610346575f5ffd5b8063372709361161017f57806361d027b31161014f57806361d027b3146102c957806361f5cd8b146102d157806369b3054b146102e45780636ed71ede146102f7575f5ffd5b806337270936146102765780633acb5624146102875780634fc7fac3146102ae5780635b0f83f3146102c1575f5ffd5b806313c408f8116101ba57806313c408f8146102305780632db6d39914610245578063303dbaf3146102585780633194549e1461026e575f5ffd5b806301e1d114146101e057806306fdde03146101fb578063117d8ae014610210575b5f5ffd5b6101e861046c565b6040519081526020015b60405180910390f35b6102036105bd565b6040516101f29190611fd7565b610218610650565b6040516001600160a01b0390911681526020016101f2565b61024361023e36600461202d565b6106d6565b005b61024361025336600461202d565b61079f565b60085460ff1660405190151581526020016101f2565b6005546101e8565b6001546001600160a01b0316610218565b6102187f000000000000000000000000000000000000000000000000000000000000000081565b6102436102bc366004612074565b6109b5565b610218610a03565b610218610a60565b6102436102df366004612074565b610abd565b6101e86102f23660046120a2565b610b04565b6101e8600a5481565b61031361030e3660046121dd565b610b37565b6040516101f292919061220e565b6103296110cb565b6040516101f299989796959493929190612297565b610218611196565b600b54600c54600d54600e54600f54610370946001600160a01b0390811694811693811692169085565b604080516001600160a01b0396871681529486166020860152928516928401929092529092166060820152608081019190915260a0016101f2565b6102436103b9366004612074565b6111f3565b61024361123a565b6102436103d4366004612074565b611297565b6006546101e8565b6009546101e8565b6102436103f73660046122f9565b6112de565b61040461142f565b6040516101f29190612382565b6102187f000000000000000000000000000000000000000000000000000000000000000081565b610313610446366004612433565b611574565b6004546101e8565b61024361166e565b6003546001600160a01b0316610218565b600a546040516349e2903160e11b815260048101919091523060248201525f9081906001600160a01b037f000000000000000000000000000000000000000000000000000000000000000016906393c5206290604401606060405180830381865afa1580156104dd573d5f5f3e3d5ffd5b505050506040513d601f19601f82011682018060405250810190610501919061248c565b90505f7f00000000000000000000000000000000000000000000000000000000000000006001600160a01b0316635c60e39a600a546040518263ffffffff1660e01b815260040161055491815260200190565b60c060405180830381865afa15801561056f573d5f5f3e3d5ffd5b505050506040513d601f19601f8201168201806040525081019061059391906124f0565b8051602082015184519293506105b692916001600160801b0390811691166116c0565b9250505090565b6060600160060180546105cf9061258e565b80601f01602080910402602001604051908101604052809291908181526020018280546105fb9061258e565b80156106465780601f1061061d57610100808354040283529160200191610646565b820191905f5260205f20905b81548152906001019060200180831161062957829003601f168201915b5050505050905090565b5f7f00000000000000000000000000000000000000000000000000000000000000006001600160a01b031663117d8ae06040518163ffffffff1660e01b8152600401602060405180830381865afa1580156106ad573d5f5f3e3d5ffd5b505050506040513d601f19601f820116820180604052508101906106d191906125c6565b905090565b6106de6116ec565b61070e57335b604051631564c0e160e11b81526001600160a01b0390911660048201526024015b60405180910390fd5b610716611775565b818161072282826117e4565b3361072e868686611846565b600354610745906001600160a01b0316828861195b565b600354604080516001600160a01b03928316815260208101899052918316917fd5e872c5ecfb1bb8820b2e6a20e31b883682282da886621541f71e31ec11947e910160405180910390a250505061079a6119ba565b505050565b6107a7611775565b306001600160a01b031663372709366040518163ffffffff1660e01b8152600401602060405180830381865afa1580156107e3573d5f5f3e3d5ffd5b505050506040513d601f19601f8201168201806040525081019061080791906125c6565b61080f6116ec565b61092e575f3390505f306001600160a01b031663117d8ae06040518163ffffffff1660e01b8152600401602060405180830381865afa158015610854573d5f5f3e3d5ffd5b505050506040513d601f19601f8201168201806040525081019061087891906125c6565b6001600160a01b0316826001600160a01b03161490508061092b5760405163d25dd10160e01b81526001600160a01b0383811660048301525f919085169063d25dd10190602401602060405180830381865afa1580156108da573d5f5f3e3d5ffd5b505050506040513d601f19601f820116820180604052508101906108fe91906125e1565b90508061092957604051638f7a567d60e01b81526001600160a01b0384166004820152602401610705565b505b50505b828261093a82826117e4565b6003543390610954906001600160a01b031682308a6119e4565b61095f878787611a23565b600354604080516001600160a01b039283168152602081018a9052918316917fcbaa1442ac205415c9d69643e7b60ec73d1de35dbc807c21ec288c70ddc4207b910160405180910390a25050505061079a6119ba565b6109bd6116ec565b6109c757336106e4565b60098190556040518181527fd3c6d0ab315f2f1352f036cd9f401b49e38e1b90907e195225e8105f9a0b6f02906020015b60405180910390a150565b5f7f00000000000000000000000000000000000000000000000000000000000000006001600160a01b0316635b0f83f36040518163ffffffff1660e01b8152600401602060405180830381865afa1580156106ad573d5f5f3e3d5ffd5b5f7f00000000000000000000000000000000000000000000000000000000000000006001600160a01b03166361d027b36040518163ffffffff1660e01b8152600401602060405180830381865afa1580156106ad573d5f5f3e3d5ffd5b610ac56116ec565b610acf57336106e4565b60058190556040518181527ffbe2d5c01ea8ba5596d6c4e6c82c6d4a0a0ee1128689993a4a5ba0169273d69f906020016109f8565b5f8282604051602001610b18929190612600565b6040516020818303038152906040528051906020012090505b92915050565b606080306001600160a01b031663117d8ae06040518163ffffffff1660e01b8152600401602060405180830381865afa158015610b76573d5f5f3e3d5ffd5b505050506040513d601f19601f82011682018060405250810190610b9a91906125c6565b6001600160a01b0316336001600160a01b031614610bd957335b604051631184b31b60e21b81526001600160a01b039091166004820152602401610705565b610be1611775565b82516001600160401b03811115610bfa57610bfa6120dc565b604051908082528060200260200182016040528015610c23578160200160208202803683370190505b50915082516001600160401b03811115610c3f57610c3f6120dc565b604051908082528060200260200182016040528015610c68578160200160208202803683370190505b506003546040516370a0823160e01b81523060048201529192505f916001600160a01b03909116906370a0823190602401602060405180830381865afa158015610cb4573d5f5f3e3d5ffd5b505050506040513d601f19601f82011682018060405250810190610cd89190612643565b1115610e9c57600154604080516330fe427560e21b815290515f926001600160a01b03169163c3f909d49160048083019260a09291908290030181865afa158015610d25573d5f5f3e3d5ffd5b505050506040513d601f19601f82011682018060405250810190610d49919061265a565b516003546040516370a0823160e01b8152306004820152919250610dce9183916001600160a01b0316906370a0823190602401602060405180830381865afa158015610d97573d5f5f3e3d5ffd5b505050506040513d601f19601f82011682018060405250810190610dbb9190612643565b6003546001600160a01b03169190611b85565b6003546040516370a0823160e01b81523060048201526001600160a01b0383811692632db6d399929116906370a0823190602401602060405180830381865afa158015610e1d573d5f5f3e3d5ffd5b505050506040513d601f19601f82011682018060405250810190610e419190612643565b60405180602001604052805f8152506040518363ffffffff1660e01b8152600401610e6d9291906126d6565b5f604051808303815f87803b158015610e84575f5ffd5b505af1158015610e96573d5f5f3e3d5ffd5b50505050505b5f5b835181101561106a575f848281518110610eba57610eba6126ee565b60209081029190910101516040516370a0823160e01b81523060048201526001600160a01b03909116906370a0823190602401602060405180830381865afa158015610f08573d5f5f3e3d5ffd5b505050506040513d601f19601f82011682018060405250810190610f2c9190612643565b9050801561106157610ff5610f3f610650565b868481518110610f5157610f516126ee565b60209081029190910101516040516370a0823160e01b81523060048201526001600160a01b03909116906370a0823190602401602060405180830381865afa158015610f9f573d5f5f3e3d5ffd5b505050506040513d601f19601f82011682018060405250810190610fc39190612643565b878581518110610fd557610fd56126ee565b60200260200101516001600160a01b031661195b9092919063ffffffff16565b848281518110611007576110076126ee565b6020026020010151848381518110611021576110216126ee565b60200260200101906001600160a01b031690816001600160a01b03168152505080838381518110611054576110546126ee565b6020026020010181815250505b50600101610e9e565b50806040516110799190612702565b60405180910390208260405161108f9190612737565b604051908190038120907f46b8771620f6acf56cb03d3e835ea8024c7dcbcf05fcc3f6ade9e19d1a3e212b905f90a36110c66119ba565b915091565b60018054600254600354600454600554600654600780546001600160a01b039788169896881697909516959394929391926111059061258e565b80601f01602080910402602001604051908101604052809291908181526020018280546111319061258e565b801561117c5780601f106111535761010080835404028352916020019161117c565b820191905f5260205f20905b81548152906001019060200180831161115f57829003601f168201915b505050506007830154600890930154919260ff1691905089565b5f7f00000000000000000000000000000000000000000000000000000000000000006001600160a01b0316637aaceb956040518163ffffffff1660e01b8152600401602060405180830381865afa1580156106ad573d5f5f3e3d5ffd5b6111fb6116ec565b61120557336106e4565b60048190556040518181527f333b26cca69716ad4680ddb07663f5bfb4f06045671f336af9a83690a3ae00f9906020016109f8565b6112426116ec565b61124c57336106e4565b600180546001600160a01b031916339081179091556040519081527f55489ce0259bd691120d8860861be1c401c7c16a3cd268d21045756af4ecc5ca906020015b60405180910390a1565b61129f6116ec565b6112a957336106e4565b60068190556040518181527fb6ac66853c4e59c71e118d25ab494bb847c4e5eb0c8894898c5343e6f61afc12906020016109f8565b6112e66116ec565b6112f057336106e4565b81816112fc82826117e4565b611307888585611846565b60035460405163095ea7b360e01b81526001600160a01b038981166004830152602482018b90529091169063095ea7b3906044016020604051808303815f875af1158015611357573d5f5f3e3d5ffd5b505050506040513d601f19601f8201168201806040525081019061137b91906125e1565b50604051632db6d39960e01b81526001600160a01b03881690632db6d399906113ac908b908a908a9060040161276a565b5f604051808303815f87803b1580156113c3575f5ffd5b505af11580156113d5573d5f5f3e3d5ffd5b5050600354604080516001600160a01b039283168152602081018d9052918b1693503092507f9f784fc02a186f1c98b2d9f15fda084da27cdd291a3785d978f91911d880516b910160405180910390a35050505050505050565b60408051610120810182525f8082526020820181905291810182905260608082018390526080820183905260a0820183905260c082015260e081018290526101008101919091526040805161012081018252600180546001600160a01b0390811683526002548116602084015260035416928201929092526004546060820152600554608082015260065460a08201526007805491929160c0840191906114d59061258e565b80601f01602080910402602001604051908101604052809291908181526020018280546115019061258e565b801561154c5780601f106115235761010080835404028352916020019161154c565b820191905f5260205f20905b81548152906001019060200180831161152f57829003601f168201915b5050509183525050600782015460ff1615156020820152600890910154604090910152919050565b606080306001600160a01b031663117d8ae06040518163ffffffff1660e01b8152600401602060405180830381865afa1580156115b3573d5f5f3e3d5ffd5b505050506040513d601f19601f820116820180604052508101906115d791906125c6565b6001600160a01b0316336001600160a01b0316146115f55733610bb4565b6115fd611775565b6116078484611c14565b604051919350915061161a908290612702565b6040518091039020826040516116309190612737565b604051908190038120907f3e3e7958121b3e39c7a49392d1aa9cdce870c2a059744f9e15cf66fff7865455905f90a36116676119ba565b9250929050565b6116766116ec565b61168057336106e4565b600180546001600160a01b03191690556040513381527f7cb941d7b1708e5b3bcd35ca960d6c6311188cec18886e5b67630552676b04879060200161128d565b5f6116e46116cf6001856127b3565b6116dc620f4240856127b3565b869190611ed7565b949350505050565b5f80546001600160a01b03166391d14854611708600230610b04565b336040516001600160e01b031960e085901b16815260048101929092526001600160a01b03166024820152604401602060405180830381865afa158015611751573d5f5f3e3d5ffd5b505050506040513d601f19601f820116820180604052508101906106d191906125e1565b7f9b779b17422d0df92223018b32b4d1fa46e071723d6817e2486d003becc55f005c156117b557604051633ee5aeb560e01b815260040160405180910390fd5b6117e260017f9b779b17422d0df92223018b32b4d1fa46e071723d6817e2486d003becc55f005b90611eed565b565b80158015906117f6575060085460ff16155b1561181457604051630cd0fdf960e01b815260040160405180910390fd5b80158015611824575060085460ff165b156118425760405163332863a960e11b815260040160405180910390fd5b5050565b604051630a8e0d6f60e11b81526001600160a01b037f0000000000000000000000000000000000000000000000000000000000000000169063151c1ade9061189390600b90600401612804565b5f604051808303815f87803b1580156118aa575f5ffd5b505af11580156118bc573d5f5f3e3d5ffd5b5050604051635c2bea4960e01b81526001600160a01b037f0000000000000000000000000000000000000000000000000000000000000000169250635c2bea49915061191590600b9087905f9030908190600401612812565b60408051808303815f875af1158015611930573d5f5f3e3d5ffd5b505050506040513d601f19601f82011682018060405250810190611954919061284e565b5050505050565b6040516001600160a01b0383811660248301526044820183905261079a91859182169063a9059cbb906064015b604051602081830303815290604052915060e01b6020820180516001600160e01b038381831617835250505050611ef4565b6117e25f7f9b779b17422d0df92223018b32b4d1fa46e071723d6817e2486d003becc55f006117dc565b6040516001600160a01b038481166024830152838116604483015260648201839052611a1d9186918216906323b872dd90608401611988565b50505050565b604051630a8e0d6f60e11b81526001600160a01b037f0000000000000000000000000000000000000000000000000000000000000000169063151c1ade90611a7090600b90600401612804565b5f604051808303815f87803b158015611a87575f5ffd5b505af1158015611a99573d5f5f3e3d5ffd5b505060035460405163095ea7b360e01b81526001600160a01b037f00000000000000000000000000000000000000000000000000000000000000008116600483015260248201889052909116925063095ea7b391506044016020604051808303815f875af1158015611b0d573d5f5f3e3d5ffd5b505050506040513d601f19601f82011682018060405250810190611b3191906125e1565b5060405163a99aad8960e01b81526001600160a01b037f0000000000000000000000000000000000000000000000000000000000000000169063a99aad899061191590600b9087905f903090600401612870565b604080516001600160a01b038416602482015260448082018490528251808303909101815260649091019091526020810180516001600160e01b031663095ea7b360e01b179052611bd68482611f60565b611a1d576040516001600160a01b0384811660248301525f6044830152611c0a91869182169063095ea7b390606401611988565b611a1d8482611ef4565b6060805f611c24848601866129e7565b90508060200151516001600160401b03811115611c4357611c436120dc565b604051908082528060200260200182016040528015611c6c578160200160208202803683370190505b5092508060200151516001600160401b03811115611c8c57611c8c6120dc565b604051908082528060200260200182016040528015611cb5578160200160208202803683370190505b5091505f5b816020015151811015611e7b578151805182908110611cdb57611cdb6126ee565b60200260200101516001600160a01b031663fabed4123084602001518481518110611d0857611d086126ee565b602002602001015185604001518581518110611d2657611d266126ee565b602002602001015186606001518681518110611d4457611d446126ee565b60200260200101516040518563ffffffff1660e01b8152600401611d6b9493929190612acf565b6020604051808303815f875af1158015611d87573d5f5f3e3d5ffd5b505050506040513d601f19601f82011682018060405250810190611dab9190612643565b5081602001518181518110611dc257611dc26126ee565b6020026020010151848281518110611ddc57611ddc6126ee565b60200260200101906001600160a01b031690816001600160a01b03168152505081604001518181518110611e1257611e126126ee565b6020026020010151838281518110611e2c57611e2c6126ee565b602002602001018181525050611e73611e43610650565b848381518110611e5557611e556126ee565b602002602001015184602001518481518110610fd557610fd56126ee565b600101611cba565b5081604051611e8a9190612702565b604051809103902083604051611ea09190612737565b604051908190038120907f3e3e7958121b3e39c7a49392d1aa9cdce870c2a059744f9e15cf66fff7865455905f90a3509250929050565b5f81611ee38486612b37565b6116e49190612b4e565b80825d5050565b5f5f60205f8451602086015f885af180611f13576040513d5f823e3d81fd5b50505f513d91508115611f2a578060011415611f37565b6001600160a01b0384163b155b15611a1d57604051635274afe760e01b81526001600160a01b0385166004820152602401610705565b5f5f5f5f60205f8651602088015f8a5af192503d91505f519050828015611f9f57508115611f915780600114611f9f565b5f866001600160a01b03163b115b9695505050505050565b5f81518084528060208401602086015e5f602082860101526020601f19601f83011685010191505092915050565b602081525f611fe96020830184611fa9565b9392505050565b5f5f83601f840112612000575f5ffd5b5081356001600160401b03811115612016575f5ffd5b602083019150836020828501011115611667575f5ffd5b5f5f5f6040848603121561203f575f5ffd5b8335925060208401356001600160401b0381111561205b575f5ffd5b61206786828701611ff0565b9497909650939450505050565b5f60208284031215612084575f5ffd5b5035919050565b6001600160a01b038116811461209f575f5ffd5b50565b5f5f604083850312156120b3575f5ffd5b8235600381106120c1575f5ffd5b915060208301356120d18161208b565b809150509250929050565b634e487b7160e01b5f52604160045260245ffd5b604051608081016001600160401b0381118282101715612112576121126120dc565b60405290565b604051601f8201601f191681016001600160401b0381118282101715612140576121406120dc565b604052919050565b5f6001600160401b03821115612160576121606120dc565b5060051b60200190565b5f82601f830112612179575f5ffd5b813561218c61218782612148565b612118565b8082825260208201915060208360051b8601019250858311156121ad575f5ffd5b602085015b838110156121d35780356121c58161208b565b8352602092830192016121b2565b5095945050505050565b5f602082840312156121ed575f5ffd5b81356001600160401b03811115612202575f5ffd5b6116e48482850161216a565b604080825283519082018190525f9060208501906060840190835b818110156122505783516001600160a01b0316835260209384019390920191600101612229565b5050838103602080860191909152855180835291810192508501905f5b8181101561228b57825184526020938401939092019160010161226d565b50919695505050505050565b6001600160a01b038a81168252898116602083015288166040820152606081018790526080810186905260a0810185905261012060c082018190525f906122e090830186611fa9565b93151560e0830152506101000152979650505050505050565b5f5f5f5f5f5f6080878903121561230e575f5ffd5b8635955060208701356123208161208b565b945060408701356001600160401b0381111561233a575f5ffd5b61234689828a01611ff0565b90955093505060608701356001600160401b03811115612364575f5ffd5b61237089828a01611ff0565b979a9699509497509295939492505050565b6020815261239c6020820183516001600160a01b03169052565b5f60208301516123b760408401826001600160a01b03169052565b5060408301516001600160a01b03811660608401525060608301516080830152608083015160a083015260a083015160c083015260c083015161012060e0840152612406610140840182611fa9565b905060e084015161241c61010085018215159052565b506101008401516101208401528091505092915050565b5f5f60208385031215612444575f5ffd5b82356001600160401b03811115612459575f5ffd5b61246585828601611ff0565b90969095509350505050565b80516001600160801b0381168114612487575f5ffd5b919050565b5f606082840312801561249d575f5ffd5b50604051606081016001600160401b03811182821017156124c0576124c06120dc565b604052825181526124d360208401612471565b60208201526124e460408401612471565b60408201529392505050565b5f60c0828403128015612501575f5ffd5b5060405160c081016001600160401b0381118282101715612524576125246120dc565b60405261253083612471565b815261253e60208401612471565b602082015261254f60408401612471565b604082015261256060608401612471565b606082015261257160808401612471565b608082015261258260a08401612471565b60a08201529392505050565b600181811c908216806125a257607f821691505b6020821081036125c057634e487b7160e01b5f52602260045260245ffd5b50919050565b5f602082840312156125d6575f5ffd5b8151611fe98161208b565b5f602082840312156125f1575f5ffd5b81518015158114611fe9575f5ffd5b5f6003841061261d57634e487b7160e01b5f52602160045260245ffd5b5060f89290921b825260601b6bffffffffffffffffffffffff1916600182015260150190565b5f60208284031215612653575f5ffd5b5051919050565b5f60a082840312801561266b575f5ffd5b5060405160a081016001600160401b038111828210171561268e5761268e6120dc565b604052825161269c8161208b565b815260208381015190820152604080840151908201526060808401519082015260808301516126ca8161208b565b60808201529392505050565b828152604060208201525f6116e46040830184611fa9565b634e487b7160e01b5f52603260045260245ffd5b81515f90829060208501835b8281101561272c57815184526020938401939091019060010161270e565b509195945050505050565b81515f90829060208501835b8281101561272c5781516001600160a01b0316845260209384019390910190600101612743565b83815260406020820152816040820152818360608301375f818301606090810191909152601f909201601f1916010192915050565b634e487b7160e01b5f52601160045260245ffd5b80820180821115610b3157610b3161279f565b80546001600160a01b039081168352600182015481166020840152600282015481166040840152600382015416606083015260040154608090910152565b60a08101610b3182846127c6565b610120810161282182886127c6565b60a082019590955260c08101939093526001600160a01b0391821660e08401521661010090910152919050565b5f5f6040838503121561285f575f5ffd5b505080516020909101519092909150565b61287a81866127c6565b60a081019390935260c08301919091526001600160a01b031660e082015261012061010082018190525f9082015261014001919050565b5f82601f8301126128c0575f5ffd5b81356128ce61218782612148565b8082825260208201915060208360051b8601019250858311156128ef575f5ffd5b602085015b838110156121d35780358352602092830192016128f4565b5f82601f83011261291b575f5ffd5b813561292961218782612148565b8082825260208201915060208360051b86010192508583111561294a575f5ffd5b602085015b838110156121d35780356001600160401b0381111561296c575f5ffd5b8601603f8101881361297c575f5ffd5b602081013561298d61218782612148565b808282526020820191506020808460051b8601010192508a8311156129b0575f5ffd5b6040840193505b828410156129d25783358252602093840193909101906129b7565b8652505060209384019391909101905061294f565b5f602082840312156129f7575f5ffd5b81356001600160401b03811115612a0c575f5ffd5b820160808185031215612a1d575f5ffd5b612a256120f0565b81356001600160401b03811115612a3a575f5ffd5b612a468682850161216a565b82525060208201356001600160401b03811115612a61575f5ffd5b612a6d8682850161216a565b60208301525060408201356001600160401b03811115612a8b575f5ffd5b612a97868285016128b1565b60408301525060608201356001600160401b03811115612ab5575f5ffd5b612ac18682850161290c565b606083015250949350505050565b6001600160a01b03858116825284166020808301919091526040820184905260806060830181905283519083018190525f9184019060a0840190835b81811015612b29578351835260209384019390920191600101612b0b565b509098975050505050505050565b8082028115828204841417610b3157610b3161279f565b5f82612b6857634e487b7160e01b5f52601260045260245ffd5b50049056fea26469706673582212206e3a4a93ae00cc20fe863974414fe64e8343e71ac9a55845305058775aa7843a64736f6c634300081c0033","linkReferences":{}},"methodIdentifiers":{"MORPHO()":"3acb5624","board(uint256,bytes)":"2db6d399","commander()":"37270936","config()":"79502c55","configurationManager()":"c9c667e3","depositCap()":"dbd5edc7","disembark(uint256,bytes)":"13c408f8","generateRole(uint8,address)":"69b3054b","getConfig()":"c3f909d4","harborCommand()":"5b0f83f3","harvest(bytes)":"ce5c7f61","marketId()":"6ed71ede","marketParams()":"7b9e68f2","maxDepositPercentageOfTVL()":"bdcdd882","maxRebalanceInflow()":"ad5a356f","maxRebalanceOutflow()":"3194549e","move(uint256,address,bytes,bytes)":"c38a6f0b","name()":"06fdde03","raft()":"117d8ae0","registerFleetCommander()":"8a8b9976","requiresKeeperData()":"303dbaf3","setDepositCap(uint256)":"86651203","setMaxDepositPercentageOfTVL(uint256)":"4fc7fac3","setMaxRebalanceInflow(uint256)":"92f5e832","setMaxRebalanceOutflow(uint256)":"61f5cd8b","sweep(address[])":"780469bb","tipJar()":"7aaceb95","token()":"fc0c546a","totalAssets()":"01e1d114","treasury()":"61d027b3","unregisterFleetCommander()":"ebf31131"},"id":204}