{"abi":[{"type":"constructor","inputs":[{"name":"_morpho","type":"address","internalType":"address"},{"name":"_marketId","type":"bytes32","internalType":"Id"},{"name":"_arkParams","type":"tuple","internalType":"struct ArkParams","components":[{"name":"name","type":"string","internalType":"string"},{"name":"accessManager","type":"address","internalType":"address"},{"name":"configurationManager","type":"address","internalType":"address"},{"name":"token","type":"address","internalType":"address"},{"name":"depositCap","type":"uint256","internalType":"uint256"},{"name":"maxRebalanceOutflow","type":"uint256","internalType":"uint256"},{"name":"maxRebalanceInflow","type":"uint256","internalType":"uint256"},{"name":"requiresKeeperData","type":"bool","internalType":"bool"}]}],"stateMutability":"nonpayable"},{"type":"function","name":"MORPHO","inputs":[],"outputs":[{"name":"","type":"address","internalType":"contract IMorpho"}],"stateMutability":"view"},{"type":"function","name":"board","inputs":[{"name":"amount","type":"uint256","internalType":"uint256"},{"name":"boardData","type":"bytes","internalType":"bytes"}],"outputs":[],"stateMutability":"nonpayable"},{"type":"function","name":"commander","inputs":[],"outputs":[{"name":"","type":"address","internalType":"address"}],"stateMutability":"view"},{"type":"function","name":"config","inputs":[],"outputs":[{"name":"commander","type":"address","internalType":"address"},{"name":"raft","type":"address","internalType":"address"},{"name":"token","type":"address","internalType":"contract IERC20"},{"name":"depositCap","type":"uint256","internalType":"uint256"},{"name":"maxRebalanceOutflow","type":"uint256","internalType":"uint256"},{"name":"maxRebalanceInflow","type":"uint256","internalType":"uint256"},{"name":"name","type":"string","internalType":"string"},{"name":"requiresKeeperData","type":"bool","internalType":"bool"}],"stateMutability":"view"},{"type":"function","name":"configurationManager","inputs":[],"outputs":[{"name":"","type":"address","internalType":"contract IConfigurationManager"}],"stateMutability":"view"},{"type":"function","name":"depositCap","inputs":[],"outputs":[{"name":"","type":"uint256","internalType":"uint256"}],"stateMutability":"view"},{"type":"function","name":"disembark","inputs":[{"name":"amount","type":"uint256","internalType":"uint256"},{"name":"disembarkData","type":"bytes","internalType":"bytes"}],"outputs":[],"stateMutability":"nonpayable"},{"type":"function","name":"generateRole","inputs":[{"name":"roleName","type":"uint8","internalType":"enum ContractSpecificRoles"},{"name":"roleTargetContract","type":"address","internalType":"address"}],"outputs":[{"name":"","type":"bytes32","internalType":"bytes32"}],"stateMutability":"pure"},{"type":"function","name":"getConfig","inputs":[],"outputs":[{"name":"","type":"tuple","internalType":"struct ArkConfig","components":[{"name":"commander","type":"address","internalType":"address"},{"name":"raft","type":"address","internalType":"address"},{"name":"token","type":"address","internalType":"contract IERC20"},{"name":"depositCap","type":"uint256","internalType":"uint256"},{"name":"maxRebalanceOutflow","type":"uint256","internalType":"uint256"},{"name":"maxRebalanceInflow","type":"uint256","internalType":"uint256"},{"name":"name","type":"string","internalType":"string"},{"name":"requiresKeeperData","type":"bool","internalType":"bool"}]}],"stateMutability":"view"},{"type":"function","name":"harborCommand","inputs":[],"outputs":[{"name":"","type":"address","internalType":"address"}],"stateMutability":"view"},{"type":"function","name":"harvest","inputs":[{"name":"additionalData","type":"bytes","internalType":"bytes"}],"outputs":[{"name":"rewardTokens","type":"address[]","internalType":"address[]"},{"name":"rewardAmounts","type":"uint256[]","internalType":"uint256[]"}],"stateMutability":"nonpayable"},{"type":"function","name":"marketId","inputs":[],"outputs":[{"name":"","type":"bytes32","internalType":"Id"}],"stateMutability":"view"},{"type":"function","name":"marketParams","inputs":[],"outputs":[{"name":"loanToken","type":"address","internalType":"address"},{"name":"collateralToken","type":"address","internalType":"address"},{"name":"oracle","type":"address","internalType":"address"},{"name":"irm","type":"address","internalType":"address"},{"name":"lltv","type":"uint256","internalType":"uint256"}],"stateMutability":"view"},{"type":"function","name":"maxRebalanceInflow","inputs":[],"outputs":[{"name":"","type":"uint256","internalType":"uint256"}],"stateMutability":"view"},{"type":"function","name":"maxRebalanceOutflow","inputs":[],"outputs":[{"name":"","type":"uint256","internalType":"uint256"}],"stateMutability":"view"},{"type":"function","name":"move","inputs":[{"name":"amount","type":"uint256","internalType":"uint256"},{"name":"receiverArk","type":"address","internalType":"address"},{"name":"boardData","type":"bytes","internalType":"bytes"},{"name":"disembarkData","type":"bytes","internalType":"bytes"}],"outputs":[],"stateMutability":"nonpayable"},{"type":"function","name":"name","inputs":[],"outputs":[{"name":"","type":"string","internalType":"string"}],"stateMutability":"view"},{"type":"function","name":"raft","inputs":[],"outputs":[{"name":"","type":"address","internalType":"address"}],"stateMutability":"view"},{"type":"function","name":"registerFleetCommander","inputs":[],"outputs":[],"stateMutability":"nonpayable"},{"type":"function","name":"requiresKeeperData","inputs":[],"outputs":[{"name":"","type":"bool","internalType":"bool"}],"stateMutability":"view"},{"type":"function","name":"setDepositCap","inputs":[{"name":"newDepositCap","type":"uint256","internalType":"uint256"}],"outputs":[],"stateMutability":"nonpayable"},{"type":"function","name":"setMaxRebalanceInflow","inputs":[{"name":"newMaxRebalanceInflow","type":"uint256","internalType":"uint256"}],"outputs":[],"stateMutability":"nonpayable"},{"type":"function","name":"setMaxRebalanceOutflow","inputs":[{"name":"newMaxRebalanceOutflow","type":"uint256","internalType":"uint256"}],"outputs":[],"stateMutability":"nonpayable"},{"type":"function","name":"sweep","inputs":[{"name":"tokens","type":"address[]","internalType":"address[]"}],"outputs":[{"name":"sweptTokens","type":"address[]","internalType":"address[]"},{"name":"sweptAmounts","type":"uint256[]","internalType":"uint256[]"}],"stateMutability":"nonpayable"},{"type":"function","name":"tipJar","inputs":[],"outputs":[{"name":"","type":"address","internalType":"address"}],"stateMutability":"view"},{"type":"function","name":"token","inputs":[],"outputs":[{"name":"","type":"address","internalType":"contract IERC20"}],"stateMutability":"view"},{"type":"function","name":"totalAssets","inputs":[],"outputs":[{"name":"","type":"uint256","internalType":"uint256"}],"stateMutability":"view"},{"type":"function","name":"treasury","inputs":[],"outputs":[{"name":"","type":"address","internalType":"address"}],"stateMutability":"view"},{"type":"function","name":"unregisterFleetCommander","inputs":[],"outputs":[],"stateMutability":"nonpayable"},{"type":"event","name":"ArkHarvested","inputs":[{"name":"rewardTokens","type":"address[]","indexed":true,"internalType":"address[]"},{"name":"rewardAmounts","type":"uint256[]","indexed":true,"internalType":"uint256[]"}],"anonymous":false},{"type":"event","name":"ArkPoked","inputs":[{"name":"currentPrice","type":"uint256","indexed":false,"internalType":"uint256"},{"name":"timestamp","type":"uint256","indexed":false,"internalType":"uint256"}],"anonymous":false},{"type":"event","name":"ArkSwept","inputs":[{"name":"sweptTokens","type":"address[]","indexed":true,"internalType":"address[]"},{"name":"sweptAmounts","type":"uint256[]","indexed":true,"internalType":"uint256[]"}],"anonymous":false},{"type":"event","name":"Boarded","inputs":[{"name":"commander","type":"address","indexed":true,"internalType":"address"},{"name":"token","type":"address","indexed":false,"internalType":"address"},{"name":"amount","type":"uint256","indexed":false,"internalType":"uint256"}],"anonymous":false},{"type":"event","name":"DepositCapUpdated","inputs":[{"name":"newCap","type":"uint256","indexed":false,"internalType":"uint256"}],"anonymous":false},{"type":"event","name":"Disembarked","inputs":[{"name":"commander","type":"address","indexed":true,"internalType":"address"},{"name":"token","type":"address","indexed":false,"internalType":"address"},{"name":"amount","type":"uint256","indexed":false,"internalType":"uint256"}],"anonymous":false},{"type":"event","name":"FleetCommanderRegistered","inputs":[{"name":"commander","type":"address","indexed":false,"internalType":"address"}],"anonymous":false},{"type":"event","name":"FleetCommanderUnregistered","inputs":[{"name":"commander","type":"address","indexed":false,"internalType":"address"}],"anonymous":false},{"type":"event","name":"MaxRebalanceInflowUpdated","inputs":[{"name":"newMaxInflow","type":"uint256","indexed":false,"internalType":"uint256"}],"anonymous":false},{"type":"event","name":"MaxRebalanceOutflowUpdated","inputs":[{"name":"newMaxOutflow","type":"uint256","indexed":false,"internalType":"uint256"}],"anonymous":false},{"type":"event","name":"Moved","inputs":[{"name":"from","type":"address","indexed":true,"internalType":"address"},{"name":"to","type":"address","indexed":true,"internalType":"address"},{"name":"token","type":"address","indexed":false,"internalType":"address"},{"name":"amount","type":"uint256","indexed":false,"internalType":"uint256"}],"anonymous":false},{"type":"event","name":"RaftUpdated","inputs":[{"name":"newRaft","type":"address","indexed":false,"internalType":"address"}],"anonymous":false},{"type":"error","name":"CallerIsNotAdmin","inputs":[{"name":"caller","type":"address","internalType":"address"}]},{"type":"error","name":"CallerIsNotAuthorizedToBoard","inputs":[{"name":"caller","type":"address","internalType":"address"}]},{"type":"error","name":"CallerIsNotCommander","inputs":[{"name":"caller","type":"address","internalType":"address"}]},{"type":"error","name":"CallerIsNotContractSpecificRole","inputs":[{"name":"caller","type":"address","internalType":"address"},{"name":"role","type":"bytes32","internalType":"bytes32"}]},{"type":"error","name":"CallerIsNotCurator","inputs":[{"name":"caller","type":"address","internalType":"address"}]},{"type":"error","name":"CallerIsNotGovernor","inputs":[{"name":"caller","type":"address","internalType":"address"}]},{"type":"error","name":"CallerIsNotGuardian","inputs":[{"name":"caller","type":"address","internalType":"address"}]},{"type":"error","name":"CallerIsNotGuardianOrGovernor","inputs":[{"name":"caller","type":"address","internalType":"address"}]},{"type":"error","name":"CallerIsNotKeeper","inputs":[{"name":"caller","type":"address","internalType":"address"}]},{"type":"error","name":"CallerIsNotRaft","inputs":[{"name":"caller","type":"address","internalType":"address"}]},{"type":"error","name":"CallerIsNotRaftOrCommander","inputs":[{"name":"caller","type":"address","internalType":"address"}]},{"type":"error","name":"CallerIsNotSuperKeeper","inputs":[{"name":"caller","type":"address","internalType":"address"}]},{"type":"error","name":"CannotAddCommanderToArkWithCommander","inputs":[]},{"type":"error","name":"CannotDeployArkWithEmptyName","inputs":[]},{"type":"error","name":"CannotDeployArkWithoutConfigurationManager","inputs":[]},{"type":"error","name":"CannotDeployArkWithoutRaft","inputs":[]},{"type":"error","name":"CannotDeployArkWithoutToken","inputs":[]},{"type":"error","name":"CannotRemoveCommanderFromArkWithAssets","inputs":[]},{"type":"error","name":"CannotUseKeeperDataWhenNotRequired","inputs":[]},{"type":"error","name":"ConfigurationManagerZeroAddress","inputs":[]},{"type":"error","name":"DirectGrantIsDisabled","inputs":[{"name":"caller","type":"address","internalType":"address"}]},{"type":"error","name":"DirectRevokeIsDisabled","inputs":[{"name":"caller","type":"address","internalType":"address"}]},{"type":"error","name":"ERC4626AssetMismatch","inputs":[]},{"type":"error","name":"InvalidAccessManagerAddress","inputs":[{"name":"invalidAddress","type":"address","internalType":"address"}]},{"type":"error","name":"InvalidBoardData","inputs":[]},{"type":"error","name":"InvalidDisembarkData","inputs":[]},{"type":"error","name":"InvalidMarketId","inputs":[]},{"type":"error","name":"InvalidMorphoAddress","inputs":[]},{"type":"error","name":"InvalidVaultAddress","inputs":[]},{"type":"error","name":"KeeperDataRequired","inputs":[]},{"type":"error","name":"SafeERC20FailedOperation","inputs":[{"name":"token","type":"address","internalType":"address"}]}],"bytecode":{"object":"0x60c060405234801561000f575f5ffd5b506040516130e93803806130e983398101604081905261002e9161055e565b6040810151602082015182918291806001600160a01b03811661006b576040516347bd7c1d60e01b81525f60048201526024015b60405180910390fd5b6040516301ffc9a760e01b815263a237592160e01b60048201526001600160a01b038216906301ffc9a790602401602060405180830381865afa1580156100b4573d5f5f3e3d5ffd5b505050506040513d601f19601f820116820180604052508101906100d89190610647565b610100576040516347bd7c1d60e01b81526001600160a01b0382166004820152602401610062565b5f80546001600160a01b0319166001600160a01b039283161790558216905061013c5760405163f1634df960e01b815260040160405180910390fd5b6001600160a01b0390811660805260408201511661016d5760405163b53c493160e01b815260040160405180910390fd5b60608101516001600160a01b031661019b576040516001620a810f60e11b0319815260040160405180910390fd5b8051515f036101bd5760405163268c072960e01b815260040160405180910390fd5b5f6101c6610406565b6001600160a01b0316036101ed57604051633a4f9cdb60e21b815260040160405180910390fd5b6040805161010081019091525f815260208101610208610406565b6001600160a01b039081168252606080850151821660208085019190915260808087015160408087019190915260a0808901518588015260c0808a01518489015289518289015260e08a01511515978101979097528751600180549188166001600160a01b03199283161781559489015160028054918916918316919091179055918801516003805491909716921691909117909455918501516004559084015160055590830151600655908201516007906102c490826106eb565b5060e091909101516007909101805460ff191691151591909117905550506001600160a01b03831661030957604051630a875a6560e31b815260040160405180910390fd5b5f8290036103295760405162320bd360e51b815260040160405180910390fd5b6001600160a01b03831660a08190526009839055604051632c3c915760e01b815260048101849052632c3c91579060240160a060405180830381865afa158015610375573d5f5f3e3d5ffd5b505050506040513d601f19601f8201168201806040525081019061039991906107a5565b8051600a80546001600160a01b039283166001600160a01b0319918216179091556020830151600b80549184169183169190911790556040830151600c80549184169183169190911790556060830151600d805491909316911617905560800151600e5550610846915050565b5f6080516001600160a01b031663117d8ae06040518163ffffffff1660e01b8152600401602060405180830381865afa158015610445573d5f5f3e3d5ffd5b505050506040513d601f19601f82011682018060405250810190610469919061082d565b905090565b80516001600160a01b0381168114610484575f5ffd5b919050565b634e487b7160e01b5f52604160045260245ffd5b60405161010081016001600160401b03811182821017156104c0576104c0610489565b60405290565b5f82601f8301126104d5575f5ffd5b81516001600160401b038111156104ee576104ee610489565b604051601f8201601f19908116603f011681016001600160401b038111828210171561051c5761051c610489565b604052818152838201602001851015610533575f5ffd5b8160208501602083015e5f918101602001919091529392505050565b80518015158114610484575f5ffd5b5f5f5f60608486031215610570575f5ffd5b6105798461046e565b6020850151604086015191945092506001600160401b0381111561059b575f5ffd5b840161010081870312156105ad575f5ffd5b6105b561049d565b81516001600160401b038111156105ca575f5ffd5b6105d6888285016104c6565b8252506105e56020830161046e565b60208201526105f66040830161046e565b60408201526106076060830161046e565b60608201526080828101519082015260a0808301519082015260c0808301519082015261063660e0830161054f565b60e082015280925050509250925092565b5f60208284031215610657575f5ffd5b6106608261054f565b9392505050565b600181811c9082168061067b57607f821691505b60208210810361069957634e487b7160e01b5f52602260045260245ffd5b50919050565b601f8211156106e657805f5260205f20601f840160051c810160208510156106c45750805b601f840160051c820191505b818110156106e3575f81556001016106d0565b50505b505050565b81516001600160401b0381111561070457610704610489565b610718816107128454610667565b8461069f565b6020601f82116001811461074a575f83156107335750848201515b5f19600385901b1c1916600184901b1784556106e3565b5f84815260208120601f198516915b828110156107795787850151825560209485019460019092019101610759565b508482101561079657868401515f19600387901b60f8161c191681555b50505050600190811b01905550565b5f60a08284031280156107b6575f5ffd5b5060405160a081016001600160401b03811182821017156107d9576107d9610489565b6040526107e58361046e565b81526107f36020840161046e565b60208201526108046040840161046e565b60408201526108156060840161046e565b60608201526080928301519281019290925250919050565b5f6020828403121561083d575f5ffd5b6106608261046e565b60805160a0516128356108b45f395f818161027601528181610466015281816104d40152818161164f015281816116c70152818161180701528181611882015261191601525f81816103e4015281816106210152818161096b015281816109c8015261101b01526128355ff3fe608060405234801561000f575f5ffd5b50600436106101c6575f3560e01c8063780469bb116100fe578063ad5a356f1161009e578063ce5c7f611161006e578063ce5c7f6114610406578063dbd5edc714610419578063ebf3113114610421578063fc0c546a14610429575f5ffd5b8063ad5a356f146103af578063c38a6f0b146103b7578063c3f909d4146103ca578063c9c667e3146103df575f5ffd5b80637b9e68f2116100d95780637b9e68f21461031c57806386651203146103815780638a8b99761461039457806392f5e8321461039c575f5ffd5b8063780469bb146102d757806379502c55146102f85780637aaceb9514610314575f5ffd5b8063372709361161016957806361d027b31161014457806361d027b3146102a057806361f5cd8b146102a857806369b3054b146102bb5780636ed71ede146102ce575f5ffd5b806337270936146102605780633acb5624146102715780635b0f83f314610298575f5ffd5b806313c408f8116101a457806313c408f81461021a5780632db6d3991461022f578063303dbaf3146102425780633194549e14610258575f5ffd5b806301e1d114146101ca57806306fdde03146101e5578063117d8ae0146101fa575b5f5ffd5b6101d261043a565b6040519081526020015b60405180910390f35b6101ed61058b565b6040516101dc9190611cc5565b61020261061e565b6040516001600160a01b0390911681526020016101dc565b61022d610228366004611d22565b6106a4565b005b61022d61023d366004611d22565b61075d565b60085460ff1660405190151581526020016101dc565b6005546101d2565b6001546001600160a01b0316610202565b6102027f000000000000000000000000000000000000000000000000000000000000000081565b610202610968565b6102026109c5565b61022d6102b6366004611d69565b610a22565b6101d26102c9366004611d97565b610a70565b6101d260095481565b6102ea6102e5366004611ed2565b610aa3565b6040516101dc929190611f03565b610300610f54565b6040516101dc989796959493929190611f8c565b610202611018565b600a54600b54600c54600d54600e54610346946001600160a01b0390811694811693811692169085565b604080516001600160a01b0396871681529486166020860152928516928401929092529092166060820152608081019190915260a0016101dc565b61022d61038f366004611d69565b611075565b61022d6110bc565b61022d6103aa366004611d69565b611119565b6006546101d2565b61022d6103c5366004611fec565b611160565b6103d26112b1565b6040516101dc9190612075565b6102027f000000000000000000000000000000000000000000000000000000000000000081565b6102ea61041436600461210b565b6113e5565b6004546101d2565b61022d6114cf565b6003546001600160a01b0316610202565b6009546040516349e2903160e11b815260048101919091523060248201525f9081906001600160a01b037f000000000000000000000000000000000000000000000000000000000000000016906393c5206290604401606060405180830381865afa1580156104ab573d5f5f3e3d5ffd5b505050506040513d601f19601f820116820180604052508101906104cf9190612164565b90505f7f00000000000000000000000000000000000000000000000000000000000000006001600160a01b0316635c60e39a6009546040518263ffffffff1660e01b815260040161052291815260200190565b60c060405180830381865afa15801561053d573d5f5f3e3d5ffd5b505050506040513d601f19601f8201168201806040525081019061056191906121c8565b80516020820151845192935061058492916001600160801b039081169116611521565b9250505090565b60606001600601805461059d90612266565b80601f01602080910402602001604051908101604052809291908181526020018280546105c990612266565b80156106145780601f106105eb57610100808354040283529160200191610614565b820191905f5260205f20905b8154815290600101906020018083116105f757829003601f168201915b5050505050905090565b5f7f00000000000000000000000000000000000000000000000000000000000000006001600160a01b031663117d8ae06040518163ffffffff1660e01b8152600401602060405180830381865afa15801561067b573d5f5f3e3d5ffd5b505050506040513d601f19601f8201168201806040525081019061069f919061229e565b905090565b6106ac61154d565b6106dc57335b604051631564c0e160e11b81526001600160a01b0390911660048201526024015b60405180910390fd5b81816106e882826115d6565b336106f4868686611638565b60035461070b906001600160a01b0316828861174d565b600354604080516001600160a01b03928316815260208101899052918316917fd5e872c5ecfb1bb8820b2e6a20e31b883682282da886621541f71e31ec11947e910160405180910390a2505050505050565b306001600160a01b031663372709366040518163ffffffff1660e01b8152600401602060405180830381865afa158015610799573d5f5f3e3d5ffd5b505050506040513d601f19601f820116820180604052508101906107bd919061229e565b6107c561154d565b6108e4575f3390505f306001600160a01b031663117d8ae06040518163ffffffff1660e01b8152600401602060405180830381865afa15801561080a573d5f5f3e3d5ffd5b505050506040513d601f19601f8201168201806040525081019061082e919061229e565b6001600160a01b0316826001600160a01b0316149050806108e15760405163d25dd10160e01b81526001600160a01b0383811660048301525f919085169063d25dd10190602401602060405180830381865afa158015610890573d5f5f3e3d5ffd5b505050506040513d601f19601f820116820180604052508101906108b491906122b9565b9050806108df57604051638f7a567d60e01b81526001600160a01b03841660048201526024016106d3565b505b50505b82826108f082826115d6565b600354339061090a906001600160a01b031682308a6117b1565b6109158787876117f0565b600354604080516001600160a01b039283168152602081018a9052918316917fcbaa1442ac205415c9d69643e7b60ec73d1de35dbc807c21ec288c70ddc4207b910160405180910390a250505050505050565b5f7f00000000000000000000000000000000000000000000000000000000000000006001600160a01b0316635b0f83f36040518163ffffffff1660e01b8152600401602060405180830381865afa15801561067b573d5f5f3e3d5ffd5b5f7f00000000000000000000000000000000000000000000000000000000000000006001600160a01b03166361d027b36040518163ffffffff1660e01b8152600401602060405180830381865afa15801561067b573d5f5f3e3d5ffd5b610a2a61154d565b610a3457336106b2565b60058190556040518181527ffbe2d5c01ea8ba5596d6c4e6c82c6d4a0a0ee1128689993a4a5ba0169273d69f906020015b60405180910390a150565b5f8282604051602001610a849291906122d8565b6040516020818303038152906040528051906020012090505b92915050565b606080306001600160a01b031663117d8ae06040518163ffffffff1660e01b8152600401602060405180830381865afa158015610ae2573d5f5f3e3d5ffd5b505050506040513d601f19601f82011682018060405250810190610b06919061229e565b6001600160a01b0316336001600160a01b031614610b4557335b604051631184b31b60e21b81526001600160a01b0390911660048201526024016106d3565b82516001600160401b03811115610b5e57610b5e611dd1565b604051908082528060200260200182016040528015610b87578160200160208202803683370190505b50915082516001600160401b03811115610ba357610ba3611dd1565b604051908082528060200260200182016040528015610bcc578160200160208202803683370190505b506003546040516370a0823160e01b81523060048201529192505f916001600160a01b03909116906370a0823190602401602060405180830381865afa158015610c18573d5f5f3e3d5ffd5b505050506040513d601f19601f82011682018060405250810190610c3c919061231b565b1115610d2d57600154604080516330fe427560e21b81529051610d2d926001600160a01b03169163c3f909d49160048083019260809291908290030181865afa158015610c8b573d5f5f3e3d5ffd5b505050506040513d601f19601f82011682018060405250810190610caf9190612332565b516003546040516370a0823160e01b81523060048201526001600160a01b03909116906370a0823190602401602060405180830381865afa158015610cf6573d5f5f3e3d5ffd5b505050506040513d601f19601f82011682018060405250810190610d1a919061231b565b6003546001600160a01b0316919061174d565b5f5b8351811015610efb575f848281518110610d4b57610d4b612380565b60209081029190910101516040516370a0823160e01b81523060048201526001600160a01b03909116906370a0823190602401602060405180830381865afa158015610d99573d5f5f3e3d5ffd5b505050506040513d601f19601f82011682018060405250810190610dbd919061231b565b90508015610ef257610e86610dd061061e565b868481518110610de257610de2612380565b60209081029190910101516040516370a0823160e01b81523060048201526001600160a01b03909116906370a0823190602401602060405180830381865afa158015610e30573d5f5f3e3d5ffd5b505050506040513d601f19601f82011682018060405250810190610e54919061231b565b878581518110610e6657610e66612380565b60200260200101516001600160a01b031661174d9092919063ffffffff16565b848281518110610e9857610e98612380565b6020026020010151848381518110610eb257610eb2612380565b60200260200101906001600160a01b031690816001600160a01b03168152505080838381518110610ee557610ee5612380565b6020026020010181815250505b50600101610d2f565b5080604051610f0a9190612394565b604051809103902082604051610f2091906123c9565b604051908190038120907f46b8771620f6acf56cb03d3e835ea8024c7dcbcf05fcc3f6ade9e19d1a3e212b905f90a3915091565b60018054600254600354600454600554600654600780546001600160a01b03978816989688169790951695939492939192610f8e90612266565b80601f0160208091040260200160405190810160405280929190818152602001828054610fba90612266565b80156110055780601f10610fdc57610100808354040283529160200191611005565b820191905f5260205f20905b815481529060010190602001808311610fe857829003601f168201915b5050506007909301549192505060ff1688565b5f7f00000000000000000000000000000000000000000000000000000000000000006001600160a01b0316637aaceb956040518163ffffffff1660e01b8152600401602060405180830381865afa15801561067b573d5f5f3e3d5ffd5b61107d61154d565b61108757336106b2565b60048190556040518181527f333b26cca69716ad4680ddb07663f5bfb4f06045671f336af9a83690a3ae00f990602001610a65565b6110c461154d565b6110ce57336106b2565b600180546001600160a01b031916339081179091556040519081527f55489ce0259bd691120d8860861be1c401c7c16a3cd268d21045756af4ecc5ca906020015b60405180910390a1565b61112161154d565b61112b57336106b2565b60068190556040518181527fb6ac66853c4e59c71e118d25ab494bb847c4e5eb0c8894898c5343e6f61afc1290602001610a65565b61116861154d565b61117257336106b2565b818161117e82826115d6565b611189888585611638565b60035460405163095ea7b360e01b81526001600160a01b038981166004830152602482018b90529091169063095ea7b3906044016020604051808303815f875af11580156111d9573d5f5f3e3d5ffd5b505050506040513d601f19601f820116820180604052508101906111fd91906122b9565b50604051632db6d39960e01b81526001600160a01b03881690632db6d3999061122e908b908a908a906004016123fc565b5f604051808303815f87803b158015611245575f5ffd5b505af1158015611257573d5f5f3e3d5ffd5b5050600354604080516001600160a01b039283168152602081018d9052918b1693503092507f9f784fc02a186f1c98b2d9f15fda084da27cdd291a3785d978f91911d880516b910160405180910390a35050505050505050565b60408051610100810182525f8082526020820181905291810182905260608082018390526080820183905260a0820183905260c082015260e08101919091526040805161010081018252600180546001600160a01b0390811683526002548116602084015260035416928201929092526004546060820152600554608082015260065460a08201526007805491929160c08401919061134f90612266565b80601f016020809104026020016040519081016040528092919081815260200182805461137b90612266565b80156113c65780601f1061139d576101008083540402835291602001916113c6565b820191905f5260205f20905b8154815290600101906020018083116113a957829003601f168201915b50505091835250506007919091015460ff161515602090910152919050565b606080306001600160a01b031663117d8ae06040518163ffffffff1660e01b8152600401602060405180830381865afa158015611424573d5f5f3e3d5ffd5b505050506040513d601f19601f82011682018060405250810190611448919061229e565b6001600160a01b0316336001600160a01b0316146114665733610b20565b6114708484611952565b6040519193509150611483908290612394565b60405180910390208260405161149991906123c9565b604051908190038120907f3e3e7958121b3e39c7a49392d1aa9cdce870c2a059744f9e15cf66fff7865455905f90a39250929050565b6114d761154d565b6114e157336106b2565b600180546001600160a01b03191690556040513381527f7cb941d7b1708e5b3bcd35ca960d6c6311188cec18886e5b67630552676b04879060200161110f565b5f611545611530600185612445565b61153d620f424085612445565b869190611c15565b949350505050565b5f80546001600160a01b03166391d14854611569600230610a70565b336040516001600160e01b031960e085901b16815260048101929092526001600160a01b03166024820152604401602060405180830381865afa1580156115b2573d5f5f3e3d5ffd5b505050506040513d601f19601f8201168201806040525081019061069f91906122b9565b80158015906115e8575060085460ff16155b1561160657604051630cd0fdf960e01b815260040160405180910390fd5b80158015611616575060085460ff165b156116345760405163332863a960e11b815260040160405180910390fd5b5050565b604051630a8e0d6f60e11b81526001600160a01b037f0000000000000000000000000000000000000000000000000000000000000000169063151c1ade9061168590600a90600401612496565b5f604051808303815f87803b15801561169c575f5ffd5b505af11580156116ae573d5f5f3e3d5ffd5b5050604051635c2bea4960e01b81526001600160a01b037f0000000000000000000000000000000000000000000000000000000000000000169250635c2bea49915061170790600a9087905f90309081906004016124a4565b60408051808303815f875af1158015611722573d5f5f3e3d5ffd5b505050506040513d601f19601f8201168201806040525081019061174691906124e0565b5050505050565b6040516001600160a01b038381166024830152604482018390526117ac91859182169063a9059cbb906064015b604051602081830303815290604052915060e01b6020820180516001600160e01b038381831617835250505050611c2b565b505050565b6040516001600160a01b0384811660248301528381166044830152606482018390526117ea9186918216906323b872dd9060840161177a565b50505050565b604051630a8e0d6f60e11b81526001600160a01b037f0000000000000000000000000000000000000000000000000000000000000000169063151c1ade9061183d90600a90600401612496565b5f604051808303815f87803b158015611854575f5ffd5b505af1158015611866573d5f5f3e3d5ffd5b505060035460405163095ea7b360e01b81526001600160a01b037f00000000000000000000000000000000000000000000000000000000000000008116600483015260248201889052909116925063095ea7b391506044016020604051808303815f875af11580156118da573d5f5f3e3d5ffd5b505050506040513d601f19601f820116820180604052508101906118fe91906122b9565b5060405163a99aad8960e01b81526001600160a01b037f0000000000000000000000000000000000000000000000000000000000000000169063a99aad899061170790600a9087905f903090600401612502565b6060805f61196284860186612679565b90508060200151516001600160401b0381111561198157611981611dd1565b6040519080825280602002602001820160405280156119aa578160200160208202803683370190505b5092508060200151516001600160401b038111156119ca576119ca611dd1565b6040519080825280602002602001820160405280156119f3578160200160208202803683370190505b5091505f5b816020015151811015611bb9578151805182908110611a1957611a19612380565b60200260200101516001600160a01b031663fabed4123084602001518481518110611a4657611a46612380565b602002602001015185604001518581518110611a6457611a64612380565b602002602001015186606001518681518110611a8257611a82612380565b60200260200101516040518563ffffffff1660e01b8152600401611aa99493929190612761565b6020604051808303815f875af1158015611ac5573d5f5f3e3d5ffd5b505050506040513d601f19601f82011682018060405250810190611ae9919061231b565b5081602001518181518110611b0057611b00612380565b6020026020010151848281518110611b1a57611b1a612380565b60200260200101906001600160a01b031690816001600160a01b03168152505081604001518181518110611b5057611b50612380565b6020026020010151838281518110611b6a57611b6a612380565b602002602001018181525050611bb1611b8161061e565b848381518110611b9357611b93612380565b602002602001015184602001518481518110610e6657610e66612380565b6001016119f8565b5081604051611bc89190612394565b604051809103902083604051611bde91906123c9565b604051908190038120907f3e3e7958121b3e39c7a49392d1aa9cdce870c2a059744f9e15cf66fff7865455905f90a3509250929050565b5f81611c2184866127c9565b61154591906127e0565b5f5f60205f8451602086015f885af180611c4a576040513d5f823e3d81fd5b50505f513d91508115611c61578060011415611c6e565b6001600160a01b0384163b155b156117ea57604051635274afe760e01b81526001600160a01b03851660048201526024016106d3565b5f81518084528060208401602086015e5f602082860101526020601f19601f83011685010191505092915050565b602081525f611cd76020830184611c97565b9392505050565b5f5f83601f840112611cee575f5ffd5b5081356001600160401b03811115611d04575f5ffd5b602083019150836020828501011115611d1b575f5ffd5b9250929050565b5f5f5f60408486031215611d34575f5ffd5b8335925060208401356001600160401b03811115611d50575f5ffd5b611d5c86828701611cde565b9497909650939450505050565b5f60208284031215611d79575f5ffd5b5035919050565b6001600160a01b0381168114611d94575f5ffd5b50565b5f5f60408385031215611da8575f5ffd5b823560038110611db6575f5ffd5b91506020830135611dc681611d80565b809150509250929050565b634e487b7160e01b5f52604160045260245ffd5b604051608081016001600160401b0381118282101715611e0757611e07611dd1565b60405290565b604051601f8201601f191681016001600160401b0381118282101715611e3557611e35611dd1565b604052919050565b5f6001600160401b03821115611e5557611e55611dd1565b5060051b60200190565b5f82601f830112611e6e575f5ffd5b8135611e81611e7c82611e3d565b611e0d565b8082825260208201915060208360051b860101925085831115611ea2575f5ffd5b602085015b83811015611ec8578035611eba81611d80565b835260209283019201611ea7565b5095945050505050565b5f60208284031215611ee2575f5ffd5b81356001600160401b03811115611ef7575f5ffd5b61154584828501611e5f565b604080825283519082018190525f9060208501906060840190835b81811015611f455783516001600160a01b0316835260209384019390920191600101611f1e565b5050838103602080860191909152855180835291810192508501905f5b81811015611f80578251845260209384019390920191600101611f62565b50919695505050505050565b6001600160a01b038981168252888116602083015287166040820152606081018690526080810185905260a0810184905261010060c082018190525f90611fd590830185611c97565b905082151560e08301529998505050505050505050565b5f5f5f5f5f5f60808789031215612001575f5ffd5b86359550602087013561201381611d80565b945060408701356001600160401b0381111561202d575f5ffd5b61203989828a01611cde565b90955093505060608701356001600160401b03811115612057575f5ffd5b61206389828a01611cde565b979a9699509497509295939492505050565b602080825282516001600160a01b039081168383015290830151166040808301919091528201515f906120b360608401826001600160a01b03169052565b5060608301516080830152608083015160a083015260a083015160c083015260c083015161010060e08401526120ed610120840182611c97565b905060e084015161210361010085018215159052565b509392505050565b5f5f6020838503121561211c575f5ffd5b82356001600160401b03811115612131575f5ffd5b61213d85828601611cde565b90969095509350505050565b80516001600160801b038116811461215f575f5ffd5b919050565b5f6060828403128015612175575f5ffd5b50604051606081016001600160401b038111828210171561219857612198611dd1565b604052825181526121ab60208401612149565b60208201526121bc60408401612149565b60408201529392505050565b5f60c08284031280156121d9575f5ffd5b5060405160c081016001600160401b03811182821017156121fc576121fc611dd1565b60405261220883612149565b815261221660208401612149565b602082015261222760408401612149565b604082015261223860608401612149565b606082015261224960808401612149565b608082015261225a60a08401612149565b60a08201529392505050565b600181811c9082168061227a57607f821691505b60208210810361229857634e487b7160e01b5f52602260045260245ffd5b50919050565b5f602082840312156122ae575f5ffd5b8151611cd781611d80565b5f602082840312156122c9575f5ffd5b81518015158114611cd7575f5ffd5b5f600384106122f557634e487b7160e01b5f52602160045260245ffd5b5060f89290921b825260601b6bffffffffffffffffffffffff1916600182015260150190565b5f6020828403121561232b575f5ffd5b5051919050565b5f6080828403128015612343575f5ffd5b5061234c611de5565b825161235781611d80565b815260208381015190820152604080840151908201526060928301519281019290925250919050565b634e487b7160e01b5f52603260045260245ffd5b81515f90829060208501835b828110156123be5781518452602093840193909101906001016123a0565b509195945050505050565b81515f90829060208501835b828110156123be5781516001600160a01b03168452602093840193909101906001016123d5565b83815260406020820152816040820152818360608301375f818301606090810191909152601f909201601f1916010192915050565b634e487b7160e01b5f52601160045260245ffd5b80820180821115610a9d57610a9d612431565b80546001600160a01b039081168352600182015481166020840152600282015481166040840152600382015416606083015260040154608090910152565b60a08101610a9d8284612458565b61012081016124b38288612458565b60a082019590955260c08101939093526001600160a01b0391821660e08401521661010090910152919050565b5f5f604083850312156124f1575f5ffd5b505080516020909101519092909150565b61250c8186612458565b60a081019390935260c08301919091526001600160a01b031660e082015261012061010082018190525f9082015261014001919050565b5f82601f830112612552575f5ffd5b8135612560611e7c82611e3d565b8082825260208201915060208360051b860101925085831115612581575f5ffd5b602085015b83811015611ec8578035835260209283019201612586565b5f82601f8301126125ad575f5ffd5b81356125bb611e7c82611e3d565b8082825260208201915060208360051b8601019250858311156125dc575f5ffd5b602085015b83811015611ec85780356001600160401b038111156125fe575f5ffd5b8601603f8101881361260e575f5ffd5b602081013561261f611e7c82611e3d565b808282526020820191506020808460051b8601010192508a831115612642575f5ffd5b6040840193505b82841015612664578335825260209384019390910190612649565b865250506020938401939190910190506125e1565b5f60208284031215612689575f5ffd5b81356001600160401b0381111561269e575f5ffd5b8201608081850312156126af575f5ffd5b6126b7611de5565b81356001600160401b038111156126cc575f5ffd5b6126d886828501611e5f565b82525060208201356001600160401b038111156126f3575f5ffd5b6126ff86828501611e5f565b60208301525060408201356001600160401b0381111561271d575f5ffd5b61272986828501612543565b60408301525060608201356001600160401b03811115612747575f5ffd5b6127538682850161259e565b606083015250949350505050565b6001600160a01b03858116825284166020808301919091526040820184905260806060830181905283519083018190525f9184019060a0840190835b818110156127bb57835183526020938401939092019160010161279d565b509098975050505050505050565b8082028115828204841417610a9d57610a9d612431565b5f826127fa57634e487b7160e01b5f52601260045260245ffd5b50049056fea2646970667358221220481be9537b894012af35286cee2c17d051c9b101cf6157ea081f7571986dd56164736f6c634300081b0033","linkReferences":{}},"methodIdentifiers":{"MORPHO()":"3acb5624","board(uint256,bytes)":"2db6d399","commander()":"37270936","config()":"79502c55","configurationManager()":"c9c667e3","depositCap()":"dbd5edc7","disembark(uint256,bytes)":"13c408f8","generateRole(uint8,address)":"69b3054b","getConfig()":"c3f909d4","harborCommand()":"5b0f83f3","harvest(bytes)":"ce5c7f61","marketId()":"6ed71ede","marketParams()":"7b9e68f2","maxRebalanceInflow()":"ad5a356f","maxRebalanceOutflow()":"3194549e","move(uint256,address,bytes,bytes)":"c38a6f0b","name()":"06fdde03","raft()":"117d8ae0","registerFleetCommander()":"8a8b9976","requiresKeeperData()":"303dbaf3","setDepositCap(uint256)":"86651203","setMaxRebalanceInflow(uint256)":"92f5e832","setMaxRebalanceOutflow(uint256)":"61f5cd8b","sweep(address[])":"780469bb","tipJar()":"7aaceb95","token()":"fc0c546a","totalAssets()":"01e1d114","treasury()":"61d027b3","unregisterFleetCommander()":"ebf31131"},"id":172}