{"abi":[{"type":"constructor","inputs":[{"name":"_morpho","type":"address","internalType":"address"},{"name":"_marketId","type":"bytes32","internalType":"Id"},{"name":"_arkParams","type":"tuple","internalType":"struct ArkParams","components":[{"name":"name","type":"string","internalType":"string"},{"name":"accessManager","type":"address","internalType":"address"},{"name":"configurationManager","type":"address","internalType":"address"},{"name":"token","type":"address","internalType":"address"},{"name":"depositCap","type":"uint256","internalType":"uint256"},{"name":"maxRebalanceOutflow","type":"uint256","internalType":"uint256"},{"name":"maxRebalanceInflow","type":"uint256","internalType":"uint256"}]}],"stateMutability":"nonpayable"},{"type":"function","name":"DEFAULT_ADMIN_ROLE","inputs":[],"outputs":[{"name":"","type":"bytes32","internalType":"bytes32"}],"stateMutability":"view"},{"type":"function","name":"MAX_UINT256","inputs":[],"outputs":[{"name":"","type":"uint256","internalType":"uint256"}],"stateMutability":"view"},{"type":"function","name":"MORPHO","inputs":[],"outputs":[{"name":"","type":"address","internalType":"contract IMorpho"}],"stateMutability":"view"},{"type":"function","name":"RAY","inputs":[],"outputs":[{"name":"","type":"uint256","internalType":"uint256"}],"stateMutability":"view"},{"type":"function","name":"SECONDS_PER_DAY","inputs":[],"outputs":[{"name":"","type":"uint256","internalType":"uint256"}],"stateMutability":"view"},{"type":"function","name":"SECONDS_PER_YEAR","inputs":[],"outputs":[{"name":"","type":"uint256","internalType":"uint256"}],"stateMutability":"view"},{"type":"function","name":"WAD","inputs":[],"outputs":[{"name":"","type":"uint256","internalType":"uint256"}],"stateMutability":"view"},{"type":"function","name":"WAD_TO_RAY","inputs":[],"outputs":[{"name":"","type":"uint256","internalType":"uint256"}],"stateMutability":"view"},{"type":"function","name":"board","inputs":[{"name":"amount","type":"uint256","internalType":"uint256"}],"outputs":[],"stateMutability":"nonpayable"},{"type":"function","name":"commander","inputs":[],"outputs":[{"name":"","type":"address","internalType":"address"}],"stateMutability":"view"},{"type":"function","name":"config","inputs":[],"outputs":[{"name":"commander","type":"address","internalType":"address"},{"name":"raft","type":"address","internalType":"address"},{"name":"token","type":"address","internalType":"contract IERC20"},{"name":"depositCap","type":"uint256","internalType":"uint256"},{"name":"maxRebalanceOutflow","type":"uint256","internalType":"uint256"},{"name":"maxRebalanceInflow","type":"uint256","internalType":"uint256"},{"name":"name","type":"string","internalType":"string"}],"stateMutability":"view"},{"type":"function","name":"depositCap","inputs":[],"outputs":[{"name":"","type":"uint256","internalType":"uint256"}],"stateMutability":"view"},{"type":"function","name":"disembark","inputs":[{"name":"amount","type":"uint256","internalType":"uint256"}],"outputs":[],"stateMutability":"nonpayable"},{"type":"function","name":"getRoleAdmin","inputs":[{"name":"role","type":"bytes32","internalType":"bytes32"}],"outputs":[{"name":"","type":"bytes32","internalType":"bytes32"}],"stateMutability":"view"},{"type":"function","name":"grantCommanderRole","inputs":[{"name":"account","type":"address","internalType":"address"}],"outputs":[],"stateMutability":"nonpayable"},{"type":"function","name":"grantRole","inputs":[{"name":"","type":"bytes32","internalType":"bytes32"},{"name":"","type":"address","internalType":"address"}],"outputs":[],"stateMutability":"view"},{"type":"function","name":"harvest","inputs":[{"name":"rewardToken","type":"address","internalType":"address"},{"name":"additionalData","type":"bytes","internalType":"bytes"}],"outputs":[{"name":"","type":"uint256","internalType":"uint256"}],"stateMutability":"nonpayable"},{"type":"function","name":"hasRole","inputs":[{"name":"role","type":"bytes32","internalType":"bytes32"},{"name":"account","type":"address","internalType":"address"}],"outputs":[{"name":"","type":"bool","internalType":"bool"}],"stateMutability":"view"},{"type":"function","name":"manager","inputs":[],"outputs":[{"name":"","type":"address","internalType":"contract IConfigurationManager"}],"stateMutability":"view"},{"type":"function","name":"marketId","inputs":[],"outputs":[{"name":"","type":"bytes32","internalType":"Id"}],"stateMutability":"view"},{"type":"function","name":"marketParams","inputs":[],"outputs":[{"name":"loanToken","type":"address","internalType":"address"},{"name":"collateralToken","type":"address","internalType":"address"},{"name":"oracle","type":"address","internalType":"address"},{"name":"irm","type":"address","internalType":"address"},{"name":"lltv","type":"uint256","internalType":"uint256"}],"stateMutability":"view"},{"type":"function","name":"maxRebalanceInflow","inputs":[],"outputs":[{"name":"","type":"uint256","internalType":"uint256"}],"stateMutability":"view"},{"type":"function","name":"maxRebalanceOutflow","inputs":[],"outputs":[{"name":"","type":"uint256","internalType":"uint256"}],"stateMutability":"view"},{"type":"function","name":"move","inputs":[{"name":"amount","type":"uint256","internalType":"uint256"},{"name":"receiverArk","type":"address","internalType":"address"}],"outputs":[],"stateMutability":"nonpayable"},{"type":"function","name":"name","inputs":[],"outputs":[{"name":"","type":"string","internalType":"string"}],"stateMutability":"view"},{"type":"function","name":"poke","inputs":[],"outputs":[],"stateMutability":"nonpayable"},{"type":"function","name":"raft","inputs":[],"outputs":[{"name":"","type":"address","internalType":"address"}],"stateMutability":"view"},{"type":"function","name":"rate","inputs":[],"outputs":[{"name":"","type":"uint256","internalType":"uint256"}],"stateMutability":"view"},{"type":"function","name":"renounceRole","inputs":[{"name":"role","type":"bytes32","internalType":"bytes32"},{"name":"callerConfirmation","type":"address","internalType":"address"}],"outputs":[],"stateMutability":"nonpayable"},{"type":"function","name":"revokeCommanderRole","inputs":[{"name":"account","type":"address","internalType":"address"}],"outputs":[],"stateMutability":"nonpayable"},{"type":"function","name":"revokeRole","inputs":[{"name":"","type":"bytes32","internalType":"bytes32"},{"name":"","type":"address","internalType":"address"}],"outputs":[],"stateMutability":"view"},{"type":"function","name":"setDepositCap","inputs":[{"name":"newDepositCap","type":"uint256","internalType":"uint256"}],"outputs":[],"stateMutability":"nonpayable"},{"type":"function","name":"setMaxRebalanceInflow","inputs":[{"name":"newMaxRebalanceInflow","type":"uint256","internalType":"uint256"}],"outputs":[],"stateMutability":"nonpayable"},{"type":"function","name":"setMaxRebalanceOutflow","inputs":[{"name":"newMaxRebalanceOutflow","type":"uint256","internalType":"uint256"}],"outputs":[],"stateMutability":"nonpayable"},{"type":"function","name":"supportsInterface","inputs":[{"name":"interfaceId","type":"bytes4","internalType":"bytes4"}],"outputs":[{"name":"","type":"bool","internalType":"bool"}],"stateMutability":"view"},{"type":"function","name":"token","inputs":[],"outputs":[{"name":"","type":"address","internalType":"contract IERC20"}],"stateMutability":"view"},{"type":"function","name":"totalAssets","inputs":[],"outputs":[{"name":"","type":"uint256","internalType":"uint256"}],"stateMutability":"view"},{"type":"event","name":"ArkPoked","inputs":[{"name":"currentPrice","type":"uint256","indexed":false,"internalType":"uint256"},{"name":"timestamp","type":"uint256","indexed":false,"internalType":"uint256"}],"anonymous":false},{"type":"event","name":"ArkPokedNoChange","inputs":[],"anonymous":false},{"type":"event","name":"ArkPokedTooSoon","inputs":[],"anonymous":false},{"type":"event","name":"Boarded","inputs":[{"name":"commander","type":"address","indexed":true,"internalType":"address"},{"name":"token","type":"address","indexed":false,"internalType":"address"},{"name":"amount","type":"uint256","indexed":false,"internalType":"uint256"}],"anonymous":false},{"type":"event","name":"DepositCapUpdated","inputs":[{"name":"newCap","type":"uint256","indexed":false,"internalType":"uint256"}],"anonymous":false},{"type":"event","name":"Disembarked","inputs":[{"name":"commander","type":"address","indexed":true,"internalType":"address"},{"name":"token","type":"address","indexed":false,"internalType":"address"},{"name":"amount","type":"uint256","indexed":false,"internalType":"uint256"}],"anonymous":false},{"type":"event","name":"Harvested","inputs":[{"name":"amount","type":"uint256","indexed":false,"internalType":"uint256"}],"anonymous":false},{"type":"event","name":"MaxRebalanceInflowUpdated","inputs":[{"name":"newMaxInflow","type":"uint256","indexed":false,"internalType":"uint256"}],"anonymous":false},{"type":"event","name":"MaxRebalanceOutflowUpdated","inputs":[{"name":"newMaxOutflow","type":"uint256","indexed":false,"internalType":"uint256"}],"anonymous":false},{"type":"event","name":"Moved","inputs":[{"name":"from","type":"address","indexed":true,"internalType":"address"},{"name":"to","type":"address","indexed":true,"internalType":"address"},{"name":"token","type":"address","indexed":false,"internalType":"address"},{"name":"amount","type":"uint256","indexed":false,"internalType":"uint256"}],"anonymous":false},{"type":"event","name":"RaftUpdated","inputs":[{"name":"newRaft","type":"address","indexed":false,"internalType":"address"}],"anonymous":false},{"type":"event","name":"RoleAdminChanged","inputs":[{"name":"role","type":"bytes32","indexed":true,"internalType":"bytes32"},{"name":"previousAdminRole","type":"bytes32","indexed":true,"internalType":"bytes32"},{"name":"newAdminRole","type":"bytes32","indexed":true,"internalType":"bytes32"}],"anonymous":false},{"type":"event","name":"RoleGranted","inputs":[{"name":"role","type":"bytes32","indexed":true,"internalType":"bytes32"},{"name":"account","type":"address","indexed":true,"internalType":"address"},{"name":"sender","type":"address","indexed":true,"internalType":"address"}],"anonymous":false},{"type":"event","name":"RoleRevoked","inputs":[{"name":"role","type":"bytes32","indexed":true,"internalType":"bytes32"},{"name":"account","type":"address","indexed":true,"internalType":"address"},{"name":"sender","type":"address","indexed":true,"internalType":"address"}],"anonymous":false},{"type":"error","name":"AccessControlBadConfirmation","inputs":[]},{"type":"error","name":"AccessControlUnauthorizedAccount","inputs":[{"name":"account","type":"address","internalType":"address"},{"name":"neededRole","type":"bytes32","internalType":"bytes32"}]},{"type":"error","name":"AddressEmptyCode","inputs":[{"name":"target","type":"address","internalType":"address"}]},{"type":"error","name":"AddressInsufficientBalance","inputs":[{"name":"account","type":"address","internalType":"address"}]},{"type":"error","name":"CallerIsNotAuthorizedToBoard","inputs":[{"name":"caller","type":"address","internalType":"address"}]},{"type":"error","name":"CallerIsNotCommander","inputs":[{"name":"caller","type":"address","internalType":"address"}]},{"type":"error","name":"CallerIsNotGovernor","inputs":[{"name":"caller","type":"address","internalType":"address"}]},{"type":"error","name":"CannotAddCommanderToArkWithCommander","inputs":[]},{"type":"error","name":"CannotDeployArkWithEmptyName","inputs":[]},{"type":"error","name":"CannotDeployArkWithoutConfigurationManager","inputs":[]},{"type":"error","name":"CannotDeployArkWithoutRaft","inputs":[]},{"type":"error","name":"CannotDeployArkWithoutToken","inputs":[]},{"type":"error","name":"CannotRemoveCommanderFromArkWithAssets","inputs":[]},{"type":"error","name":"DirectGrantIsDisabled","inputs":[{"name":"caller","type":"address","internalType":"address"}]},{"type":"error","name":"DirectRevokeIsDisabled","inputs":[{"name":"caller","type":"address","internalType":"address"}]},{"type":"error","name":"FailedInnerCall","inputs":[]},{"type":"error","name":"InvalidAccessManagerAddress","inputs":[{"name":"invalidAddress","type":"address","internalType":"address"}]},{"type":"error","name":"InvalidMarketId","inputs":[]},{"type":"error","name":"InvalidMorphoAddress","inputs":[]},{"type":"error","name":"SafeERC20FailedOperation","inputs":[{"name":"token","type":"address","internalType":"address"}]}],"bytecode":{"object":"0x60a060405234801561000f575f80fd5b5060405161260c38038061260c83398101604081905261002e91610579565b60208101518190806001600160a01b038116610064576040516347bd7c1d60e01b81525f60048201526024015b60405180910390fd5b6040516301ffc9a760e01b815263f87138b560e01b60048201526001600160a01b038216906301ffc9a790602401602060405180830381865afa1580156100ad573d5f803e3d5ffd5b505050506040513d601f19601f820116820180604052508101906100d19190610653565b6100f9576040516347bd7c1d60e01b81526001600160a01b038216600482015260240161005b565b5f80546001600160a01b0319166001600160a01b0392831617905560408301511690506101395760405163b53c493160e01b815260040160405180910390fd5b60608101516001600160a01b0316610167576040516001620a810f60e11b0319815260040160405180910390fd5b8051515f036101895760405163268c072960e01b815260040160405180910390fd5b604081810151600980546001600160a01b0319166001600160a01b0390921691821790558151628bec5760e51b815291515f9263117d8ae0916004808301926020929190829003018187875af11580156101e5573d5f803e3d5ffd5b505050506040513d601f19601f820116820180604052508101906102099190610679565b6001600160a01b03160361023057604051633a4f9cdb60e21b815260040160405180910390fd5b6040518060e001604052805f6001600160a01b0316815260200160095f9054906101000a90046001600160a01b03166001600160a01b031663117d8ae06040518163ffffffff1660e01b81526004016020604051808303815f875af115801561029b573d5f803e3d5ffd5b505050506040513d601f19601f820116820180604052508101906102bf9190610679565b6001600160a01b039081168252606080850151821660208085019190915260808087015160408087019190915260a0808901518588015260c0808a0151848901528951978201979097528751600280549188166001600160a01b03199283161781559489015160038054918916918316919091179055918801516004805491909716921691909117909455918501516005559084015160065590830151600755908201516008906103709082610716565b5050506001600160a01b038416905061039c57604051630a875a6560e31b815260040160405180910390fd5b5f8290036103bc5760405162320bd360e51b815260040160405180910390fd5b6001600160a01b0383166080819052600a839055604051632c3c915760e01b815260048101849052632c3c91579060240160a060405180830381865afa158015610408573d5f803e3d5ffd5b505050506040513d601f19601f8201168201806040525081019061042c91906107d0565b8051600b80546001600160a01b039283166001600160a01b0319918216179091556020830151600c80549184169183169190911790556040830151600d80549184169183169190911790556060830151600e805491909316911617905560800151600f5550610858915050565b80516001600160a01b03811681146104af575f80fd5b919050565b634e487b7160e01b5f52604160045260245ffd5b60405160e081016001600160401b03811182821017156104ea576104ea6104b4565b60405290565b5f82601f8301126104ff575f80fd5b81516001600160401b03811115610518576105186104b4565b604051601f8201601f19908116603f011681016001600160401b0381118282101715610546576105466104b4565b60405281815283820160200185101561055d575f80fd5b8160208501602083015e5f918101602001919091529392505050565b5f805f6060848603121561058b575f80fd5b61059484610499565b6020850151604086015191945092506001600160401b038111156105b6575f80fd5b840160e081870312156105c7575f80fd5b6105cf6104c8565b81516001600160401b038111156105e4575f80fd5b6105f0888285016104f0565b8252506105ff60208301610499565b602082015261061060408301610499565b604082015261062160608301610499565b60608201526080828101519082015260a0808301519082015260c0918201519181019190915292959194509192509050565b5f60208284031215610663575f80fd5b81518015158114610672575f80fd5b9392505050565b5f60208284031215610689575f80fd5b61067282610499565b600181811c908216806106a657607f821691505b6020821081036106c457634e487b7160e01b5f52602260045260245ffd5b50919050565b601f82111561071157805f5260205f20601f840160051c810160208510156106ef5750805b601f840160051c820191505b8181101561070e575f81556001016106fb565b50505b505050565b81516001600160401b0381111561072f5761072f6104b4565b6107438161073d8454610692565b846106ca565b6020601f821160018114610775575f831561075e5750848201515b5f19600385901b1c1916600184901b17845561070e565b5f84815260208120601f198516915b828110156107a45787850151825560209485019460019092019101610784565b50848210156107c157868401515f19600387901b60f8161c191681555b50505050600190811b01905550565b5f60a08284031280156107e1575f80fd5b5060405160a081016001600160401b0381118282101715610804576108046104b4565b60405261081083610499565b815261081e60208401610499565b602082015261082f60408401610499565b604082015261084060608401610499565b60608201526080928301519281019290925250919050565b608051611d6b6108a15f395f818161032f01528181610536015281816105a4015281816111ac01528181611228015281816112bd015281816113c101526114390152611d6b5ff3fe608060405234801561000f575f80fd5b506004361061021e575f3560e01c806361f5cd8b1161012a57806391d14854116100b4578063d547741f11610079578063d547741f146104c0578063d8a8e03a146104d3578063dbd5edc7146104e6578063e6a69ab8146104ee578063fc0c546a146104f9575f80fd5b806391d148541461047857806392f5e8321461048b5780639403e41f1461049e578063a217fddf146104b1578063ad5a356f146104b8575f80fd5b806374f0314f116100fa57806374f0314f146103c857806379502c55146103d25780637b9e68f2146103ed57806381d3ce26146104525780638665120314610465575f80fd5b806361f5cd8b1461038a5780636a1460241461039d5780636ed71ede146103ac5780637399bfe8146103b5575f80fd5b80632f2ff15d116101ab578063372709361161017b57806337270936146103195780633acb56241461032a578063481c6a75146103515780634dd47eba14610364578063552033c414610377575f80fd5b80632f2ff15d146102e35780633194549e146102f657806333a581d2146102fe57806336568abe14610306575f80fd5b8063163c8381116101f1578063163c83811461029a57806318178358146102a5578063248a9ca3146102a757806328ed6e3f146102ca5780632c4e722e146102dd575f80fd5b806301e1d1141461022257806301ffc9a71461023d57806306fdde0314610260578063117d8ae014610275575b5f80fd5b61022a61050a565b6040519081526020015b60405180910390f35b61025061024b366004611867565b61065b565b6040519015158152602001610234565b610268610691565b60405161023491906118bc565b6003546001600160a01b03165b6040516001600160a01b039091168152602001610234565b61022a633b9aca0081565b005b61022a6102b53660046118ce565b5f908152600160208190526040909120015490565b6102a56102d83660046118ce565b610724565b5f61022a565b6102a56102f13660046118f9565b6108ce565b60065461022a565b61022a5f1981565b6102a56103143660046118f9565b6108e9565b6002546001600160a01b0316610282565b6102827f000000000000000000000000000000000000000000000000000000000000000081565b600954610282906001600160a01b031681565b6102a56103723660046118ce565b610921565b61022a6b033b2e3c9fd0803ce800000081565b6102a56103983660046118ce565b6109b7565b61022a670de0b6b3a764000081565b61022a600a5481565b61022a6103c3366004611927565b610a1a565b61022a6201518081565b6103da610aa2565b60405161023497969594939291906119a7565b600b54600c54600d54600e54600f54610417946001600160a01b0390811694811693811692169085565b604080516001600160a01b0396871681529486166020860152928516928401929092529092166060820152608081019190915260a001610234565b6102a56104603660046119fc565b610b5d565b6102a56104733660046118ce565b610cd2565b6102506104863660046118f9565b610d2e565b6102a56104993660046118ce565b610d58565b6102a56104ac3660046119fc565b610db4565b61022a5f81565b60075461022a565b6102a56104ce3660046118f9565b610f25565b6102a56104e13660046118f9565b610f40565b60055461022a565b61022a6301e1338081565b6004546001600160a01b0316610282565b600a546040516349e2903160e11b815260048101919091523060248201525f9081906001600160a01b037f000000000000000000000000000000000000000000000000000000000000000016906393c5206290604401606060405180830381865afa15801561057b573d5f803e3d5ffd5b505050506040513d601f19601f8201168201806040525081019061059f9190611a32565b90505f7f00000000000000000000000000000000000000000000000000000000000000006001600160a01b0316635c60e39a600a546040518263ffffffff1660e01b81526004016105f291815260200190565b60c060405180830381865afa15801561060d573d5f803e3d5ffd5b505050506040513d601f19601f820116820180604052508101906106319190611aa3565b80516020820151845192935061065492916001600160801b03908116911661108c565b9250505090565b5f6001600160e01b03198216637965db0b60e01b148061068b57506301ffc9a760e01b6001600160e01b03198316145b92915050565b6060600260060180546106a390611b4e565b80601f01602080910402602001604051908101604052809291908181526020018280546106cf90611b4e565b801561071a5780601f106106f15761010080835404028352916020019161071a565b820191905f5260205f20905b8154815290600101906020018083116106fd57829003601f168201915b5050505050905090565b6002546001600160a01b03166107386110b0565b61085c575f3390505f306001600160a01b031663117d8ae06040518163ffffffff1660e01b8152600401602060405180830381865afa15801561077d573d5f803e3d5ffd5b505050506040513d601f19601f820116820180604052508101906107a19190611b86565b6001600160a01b0316826001600160a01b0316149050806108595760405163d25dd10160e01b81526001600160a01b0383811660048301525f919085169063d25dd10190602401602060405180830381865afa158015610803573d5f803e3d5ffd5b505050506040513d601f19601f820116820180604052508101906108279190611ba1565b90508061085757604051638f7a567d60e01b81526001600160a01b03841660048201526024015b60405180910390fd5b505b50505b6004543390610876906001600160a01b0316823086611128565b61087f83611195565b600454604080516001600160a01b03928316815260208101869052918316917fcbaa1442ac205415c9d69643e7b60ec73d1de35dbc807c21ec288c70ddc4207b910160405180910390a2505050565b604051630e15200f60e21b815233600482015260240161084e565b6001600160a01b03811633146109125760405163334bd91960e11b815260040160405180910390fd5b61091c8282611338565b505050565b6109296110b0565b61094857604051631564c0e160e11b815233600482015260240161084e565b33610952826113aa565b600454610969906001600160a01b03168284611479565b600454604080516001600160a01b03928316815260208101859052918316917fd5e872c5ecfb1bb8820b2e6a20e31b883682282da886621541f71e31ec11947e910160405180910390a25050565b6109bf6110b0565b6109de57604051631564c0e160e11b815233600482015260240161084e565b60068190556040518181527ffbe2d5c01ea8ba5596d6c4e6c82c6d4a0a0ee1128689993a4a5ba0169273d69f906020015b60405180910390a150565b5f610a9660095f9054906101000a90046001600160a01b03166001600160a01b031663117d8ae06040518163ffffffff1660e01b81526004016020604051808303815f875af1158015610a6f573d5f803e3d5ffd5b505050506040513d601f19601f82011682018060405250810190610a939190611b86565b50565b5f5b90505b9392505050565b60028054600354600454600554600654600754600880546001600160a01b03978816989688169790951695939492939192610adc90611b4e565b80601f0160208091040260200160405190810160405280929190818152602001828054610b0890611b4e565b8015610b535780601f10610b2a57610100808354040283529160200191610b53565b820191905f5260205f20905b815481529060010190602001808311610b3657829003601f168201915b5050505050905087565b5f5460408051630ccc574960e41b815290516001600160a01b03909216916391d1485491839163ccc57490916004808201926020929091908290030181865afa158015610bac573d5f803e3d5ffd5b505050506040513d601f19601f82011682018060405250810190610bd09190611bc0565b6040516001600160e01b031960e084901b1681526004810191909152336024820152604401602060405180830381865afa158015610c10573d5f803e3d5ffd5b505050506040513d601f19601f82011682018060405250810190610c349190611ba1565b610c5357604051630ea7d7ed60e21b815233600482015260240161084e565b610c5c816114aa565b5f54604080516345b817bb60e01b81529051610cce926001600160a01b0316916345b817bb9160048083019260209291908290030181865afa158015610ca4573d5f803e3d5ffd5b505050506040513d601f19601f82011682018060405250810190610cc89190611bc0565b82611338565b5050565b610cda6110b0565b610cf957604051631564c0e160e11b815233600482015260240161084e565b60058190556040518181527f333b26cca69716ad4680ddb07663f5bfb4f06045671f336af9a83690a3ae00f990602001610a0f565b5f9182526001602090815260408084206001600160a01b0393909316845291905290205460ff1690565b610d606110b0565b610d7f57604051631564c0e160e11b815233600482015260240161084e565b60078190556040518181527fb6ac66853c4e59c71e118d25ab494bb847c4e5eb0c8894898c5343e6f61afc1290602001610a0f565b5f5460408051630ccc574960e41b815290516001600160a01b03909216916391d1485491839163ccc57490916004808201926020929091908290030181865afa158015610e03573d5f803e3d5ffd5b505050506040513d601f19601f82011682018060405250810190610e279190611bc0565b6040516001600160e01b031960e084901b1681526004810191909152336024820152604401602060405180830381865afa158015610e67573d5f803e3d5ffd5b505050506040513d601f19601f82011682018060405250810190610e8b9190611ba1565b610eaa57604051630ea7d7ed60e21b815233600482015260240161084e565b610eb38161153d565b5f54604080516345b817bb60e01b81529051610cce926001600160a01b0316916345b817bb9160048083019260209291908290030181865afa158015610efb573d5f803e3d5ffd5b505050506040513d601f19601f82011682018060405250810190610f1f9190611bc0565b8261167f565b604051636344978560e11b815233600482015260240161084e565b610f486110b0565b610f6757604051631564c0e160e11b815233600482015260240161084e565b610f70826113aa565b6004805460405163095ea7b360e01b81526001600160a01b03848116938201939093526024810185905291169063095ea7b3906044016020604051808303815f875af1158015610fc2573d5f803e3d5ffd5b505050506040513d601f19601f82011682018060405250810190610fe69190611ba1565b506040516328ed6e3f60e01b8152600481018390526001600160a01b038216906328ed6e3f906024015f604051808303815f87803b158015611026575f80fd5b505af1158015611038573d5f803e3d5ffd5b5050600454604080516001600160a01b0392831681526020810187905291851693503092507f9f784fc02a186f1c98b2d9f15fda084da27cdd291a3785d978f91911d880516b910160405180910390a35050565b5f610a9861109b600185611beb565b6110a8620f424085611beb565b8691906116ee565b5f8054604080516345b817bb60e01b81529051611123926001600160a01b0316916345b817bb9160048083019260209291908290030181865afa1580156110f9573d5f803e3d5ffd5b505050506040513d601f19601f8201168201806040525081019061111d9190611bc0565b33610d2e565b905090565b6040516001600160a01b03848116602483015283811660448301526064820183905261118f9186918216906323b872dd906084015b604051602081830303815290604052915060e01b6020820180516001600160e01b038381831617835250505050611704565b50505050565b604051630a8e0d6f60e11b81526001600160a01b037f0000000000000000000000000000000000000000000000000000000000000000169063151c1ade906111e290600b90600401611c3c565b5f604051808303815f87803b1580156111f9575f80fd5b505af115801561120b573d5f803e3d5ffd5b50506004805460405163095ea7b360e01b81526001600160a01b037f0000000000000000000000000000000000000000000000000000000000000000811693820193909352602481018690529116925063095ea7b391506044016020604051808303815f875af1158015611281573d5f803e3d5ffd5b505050506040513d601f19601f820116820180604052508101906112a59190611ba1565b5060405163a99aad8960e01b81526001600160a01b037f0000000000000000000000000000000000000000000000000000000000000000169063a99aad89906112f990600b9085905f903090600401611c4a565b60408051808303815f875af1158015611314573d5f803e3d5ffd5b505050506040513d601f19601f8201168201806040525081019061091c9190611c8b565b5f6113438383610d2e565b156113a3575f8381526001602090815260408083206001600160a01b0386168085529252808320805460ff1916905551339286917ff6391f5c32d9c69d2a47ea670b442974b53935d1edc7fd64eb21e047a839171b9190a450600161068b565b505f61068b565b604051630a8e0d6f60e11b81526001600160a01b037f0000000000000000000000000000000000000000000000000000000000000000169063151c1ade906113f790600b90600401611c3c565b5f604051808303815f87803b15801561140e575f80fd5b505af1158015611420573d5f803e3d5ffd5b5050604051635c2bea4960e01b81526001600160a01b037f0000000000000000000000000000000000000000000000000000000000000000169250635c2bea4991506112f990600b9085905f9030908190600401611cad565b6040516001600160a01b0383811660248301526044820183905261091c91859182169063a9059cbb9060640161115d565b5f306001600160a01b03166301e1d1146040518163ffffffff1660e01b8152600401602060405180830381865afa1580156114e7573d5f803e3d5ffd5b505050506040513d601f19601f8201168201806040525081019061150b9190611bc0565b111561152a576040516373a075f360e01b815260040160405180910390fd5b50600280546001600160a01b0319169055565b5f5460408051630ccc574960e41b815290516001600160a01b03909216916391d1485491839163ccc57490916004808201926020929091908290030181865afa15801561158c573d5f803e3d5ffd5b505050506040513d601f19601f820116820180604052508101906115b09190611bc0565b6040516001600160e01b031960e084901b1681526004810191909152336024820152604401602060405180830381865afa1580156115f0573d5f803e3d5ffd5b505050506040513d601f19601f820116820180604052508101906116149190611ba1565b61163357604051630ea7d7ed60e21b815233600482015260240161084e565b6002546001600160a01b03161561165d5760405163d32184ed60e01b815260040160405180910390fd5b600280546001600160a01b0319166001600160a01b0392909216919091179055565b5f61168a8383610d2e565b6113a3575f8381526001602081815260408084206001600160a01b0387168086529252808420805460ff19169093179092559051339286917f2f8788117e7eff1d82e926ec794901d17c78024a50270940304540a733656f0d9190a450600161068b565b5f816116fa8486611ce9565b610a989190611d00565b5f6117186001600160a01b03841683611765565b905080515f1415801561173c57508080602001905181019061173a9190611ba1565b155b1561091c57604051635274afe760e01b81526001600160a01b038416600482015260240161084e565b6060610a9b83835f845f80856001600160a01b031684866040516117899190611d1f565b5f6040518083038185875af1925050503d805f81146117c3576040519150601f19603f3d011682016040523d82523d5f602084013e6117c8565b606091505b50915091506117d88683836117e2565b9695505050505050565b6060826117f7576117f28261183e565b610a9b565b815115801561180e57506001600160a01b0384163b155b1561183757604051639996b31560e01b81526001600160a01b038516600482015260240161084e565b5080610a9b565b80511561184e5780518082602001fd5b604051630a12f52160e11b815260040160405180910390fd5b5f60208284031215611877575f80fd5b81356001600160e01b031981168114610a9b575f80fd5b5f81518084528060208401602086015e5f602082860101526020601f19601f83011685010191505092915050565b602081525f610a9b602083018461188e565b5f602082840312156118de575f80fd5b5035919050565b6001600160a01b0381168114610a93575f80fd5b5f806040838503121561190a575f80fd5b82359150602083013561191c816118e5565b809150509250929050565b5f805f60408486031215611939575f80fd5b8335611944816118e5565b9250602084013567ffffffffffffffff81111561195f575f80fd5b8401601f8101861361196f575f80fd5b803567ffffffffffffffff811115611985575f80fd5b866020828401011115611996575f80fd5b939660209190910195509293505050565b6001600160a01b038881168252878116602083015286166040820152606081018590526080810184905260a0810183905260e060c082018190525f906119ef9083018461188e565b9998505050505050505050565b5f60208284031215611a0c575f80fd5b8135610a9b816118e5565b80516001600160801b0381168114611a2d575f80fd5b919050565b5f6060828403128015611a43575f80fd5b506040516060810167ffffffffffffffff81118282101715611a7357634e487b7160e01b5f52604160045260245ffd5b60405282518152611a8660208401611a17565b6020820152611a9760408401611a17565b60408201529392505050565b5f60c0828403128015611ab4575f80fd5b5060405160c0810167ffffffffffffffff81118282101715611ae457634e487b7160e01b5f52604160045260245ffd5b604052611af083611a17565b8152611afe60208401611a17565b6020820152611b0f60408401611a17565b6040820152611b2060608401611a17565b6060820152611b3160808401611a17565b6080820152611b4260a08401611a17565b60a08201529392505050565b600181811c90821680611b6257607f821691505b602082108103611b8057634e487b7160e01b5f52602260045260245ffd5b50919050565b5f60208284031215611b96575f80fd5b8151610a9b816118e5565b5f60208284031215611bb1575f80fd5b81518015158114610a9b575f80fd5b5f60208284031215611bd0575f80fd5b5051919050565b634e487b7160e01b5f52601160045260245ffd5b8082018082111561068b5761068b611bd7565b80546001600160a01b039081168352600182015481166020840152600282015481166040840152600382015416606083015260040154608090910152565b60a0810161068b8284611bfe565b611c548186611bfe565b60a081019390935260c08301919091526001600160a01b031660e082015261012061010082018190525f9082015261014001919050565b5f8060408385031215611c9c575f80fd5b505080516020909101519092909150565b6101208101611cbc8288611bfe565b60a082019590955260c08101939093526001600160a01b0391821660e08401521661010090910152919050565b808202811582820484141761068b5761068b611bd7565b5f82611d1a57634e487b7160e01b5f52601260045260245ffd5b500490565b5f82518060208501845e5f92019182525091905056fea2646970667358221220a61ca97e7fa1782edee120b831f7a54371559b2360d282dc2432933a6b9bb3c864736f6c634300081a0033","linkReferences":{}},"methodIdentifiers":{"DEFAULT_ADMIN_ROLE()":"a217fddf","MAX_UINT256()":"33a581d2","MORPHO()":"3acb5624","RAY()":"552033c4","SECONDS_PER_DAY()":"74f0314f","SECONDS_PER_YEAR()":"e6a69ab8","WAD()":"6a146024","WAD_TO_RAY()":"163c8381","board(uint256)":"28ed6e3f","commander()":"37270936","config()":"79502c55","depositCap()":"dbd5edc7","disembark(uint256)":"4dd47eba","getRoleAdmin(bytes32)":"248a9ca3","grantCommanderRole(address)":"9403e41f","grantRole(bytes32,address)":"2f2ff15d","harvest(address,bytes)":"7399bfe8","hasRole(bytes32,address)":"91d14854","manager()":"481c6a75","marketId()":"6ed71ede","marketParams()":"7b9e68f2","maxRebalanceInflow()":"ad5a356f","maxRebalanceOutflow()":"3194549e","move(uint256,address)":"d8a8e03a","name()":"06fdde03","poke()":"18178358","raft()":"117d8ae0","rate()":"2c4e722e","renounceRole(bytes32,address)":"36568abe","revokeCommanderRole(address)":"81d3ce26","revokeRole(bytes32,address)":"d547741f","setDepositCap(uint256)":"86651203","setMaxRebalanceInflow(uint256)":"92f5e832","setMaxRebalanceOutflow(uint256)":"61f5cd8b","supportsInterface(bytes4)":"01ffc9a7","token()":"fc0c546a","totalAssets()":"01e1d114"},"id":150}