{"abi":[{"type":"constructor","inputs":[{"name":"_rewardsToken","type":"address","internalType":"address"},{"name":"_accessManager","type":"address","internalType":"address"}],"stateMutability":"nonpayable"},{"type":"function","name":"ADMIRALS_QUARTERS_ROLE","inputs":[],"outputs":[{"name":"","type":"bytes32","internalType":"bytes32"}],"stateMutability":"view"},{"type":"function","name":"DECAY_CONTROLLER_ROLE","inputs":[],"outputs":[{"name":"","type":"bytes32","internalType":"bytes32"}],"stateMutability":"view"},{"type":"function","name":"GOVERNOR_ROLE","inputs":[],"outputs":[{"name":"","type":"bytes32","internalType":"bytes32"}],"stateMutability":"view"},{"type":"function","name":"GUARDIAN_ROLE","inputs":[],"outputs":[{"name":"","type":"bytes32","internalType":"bytes32"}],"stateMutability":"view"},{"type":"function","name":"SUPER_KEEPER_ROLE","inputs":[],"outputs":[{"name":"","type":"bytes32","internalType":"bytes32"}],"stateMutability":"view"},{"type":"function","name":"addRoot","inputs":[{"name":"index","type":"uint256","internalType":"uint256"},{"name":"root","type":"bytes32","internalType":"bytes32"}],"outputs":[],"stateMutability":"nonpayable"},{"type":"function","name":"canClaim","inputs":[{"name":"index","type":"uint256","internalType":"uint256"},{"name":"amount","type":"uint256","internalType":"uint256"},{"name":"proof","type":"bytes32[]","internalType":"bytes32[]"}],"outputs":[{"name":"","type":"bool","internalType":"bool"}],"stateMutability":"view"},{"type":"function","name":"claim","inputs":[{"name":"index","type":"uint256","internalType":"uint256"},{"name":"amount","type":"uint256","internalType":"uint256"},{"name":"proof","type":"bytes32[]","internalType":"bytes32[]"}],"outputs":[],"stateMutability":"nonpayable"},{"type":"function","name":"claimMultiple","inputs":[{"name":"indices","type":"uint256[]","internalType":"uint256[]"},{"name":"amounts","type":"uint256[]","internalType":"uint256[]"},{"name":"proofs","type":"bytes32[][]","internalType":"bytes32[][]"}],"outputs":[],"stateMutability":"nonpayable"},{"type":"function","name":"deployedAt","inputs":[],"outputs":[{"name":"","type":"uint256","internalType":"uint256"}],"stateMutability":"view"},{"type":"function","name":"emergencyWithdraw","inputs":[{"name":"token","type":"address","internalType":"address"},{"name":"to","type":"address","internalType":"address"},{"name":"amount","type":"uint256","internalType":"uint256"}],"outputs":[],"stateMutability":"nonpayable"},{"type":"function","name":"generateRole","inputs":[{"name":"roleName","type":"uint8","internalType":"enum ContractSpecificRoles"},{"name":"roleTargetContract","type":"address","internalType":"address"}],"outputs":[{"name":"","type":"bytes32","internalType":"bytes32"}],"stateMutability":"pure"},{"type":"function","name":"getRoot","inputs":[{"name":"index","type":"uint256","internalType":"uint256"}],"outputs":[{"name":"","type":"bytes32","internalType":"bytes32"}],"stateMutability":"view"},{"type":"function","name":"hasAdmiralsQuartersRole","inputs":[{"name":"account","type":"address","internalType":"address"}],"outputs":[{"name":"","type":"bool","internalType":"bool"}],"stateMutability":"view"},{"type":"function","name":"hasClaimed","inputs":[{"name":"user","type":"address","internalType":"address"},{"name":"index","type":"uint256","internalType":"uint256"}],"outputs":[{"name":"","type":"bool","internalType":"bool"}],"stateMutability":"view"},{"type":"function","name":"removeRoot","inputs":[{"name":"index","type":"uint256","internalType":"uint256"}],"outputs":[],"stateMutability":"nonpayable"},{"type":"function","name":"rewardsToken","inputs":[],"outputs":[{"name":"","type":"address","internalType":"contract IERC20"}],"stateMutability":"view"},{"type":"function","name":"roots","inputs":[{"name":"index","type":"uint256","internalType":"uint256"}],"outputs":[{"name":"rootHash","type":"bytes32","internalType":"bytes32"}],"stateMutability":"view"},{"type":"event","name":"Claimed","inputs":[{"name":"user","type":"address","indexed":true,"internalType":"address"},{"name":"index","type":"uint256","indexed":true,"internalType":"uint256"},{"name":"amount","type":"uint256","indexed":false,"internalType":"uint256"}],"anonymous":false},{"type":"event","name":"RootAdded","inputs":[{"name":"index","type":"uint256","indexed":true,"internalType":"uint256"},{"name":"root","type":"bytes32","indexed":false,"internalType":"bytes32"}],"anonymous":false},{"type":"event","name":"RootRemoved","inputs":[{"name":"index","type":"uint256","indexed":true,"internalType":"uint256"}],"anonymous":false},{"type":"error","name":"CallerIsNotAdmin","inputs":[{"name":"caller","type":"address","internalType":"address"}]},{"type":"error","name":"CallerIsNotAuthorizedToBoard","inputs":[{"name":"caller","type":"address","internalType":"address"}]},{"type":"error","name":"CallerIsNotCommander","inputs":[{"name":"caller","type":"address","internalType":"address"}]},{"type":"error","name":"CallerIsNotContractSpecificRole","inputs":[{"name":"caller","type":"address","internalType":"address"},{"name":"role","type":"bytes32","internalType":"bytes32"}]},{"type":"error","name":"CallerIsNotCurator","inputs":[{"name":"caller","type":"address","internalType":"address"}]},{"type":"error","name":"CallerIsNotDecayController","inputs":[{"name":"caller","type":"address","internalType":"address"}]},{"type":"error","name":"CallerIsNotGovernor","inputs":[{"name":"caller","type":"address","internalType":"address"}]},{"type":"error","name":"CallerIsNotGuardian","inputs":[{"name":"caller","type":"address","internalType":"address"}]},{"type":"error","name":"CallerIsNotGuardianOrGovernor","inputs":[{"name":"caller","type":"address","internalType":"address"}]},{"type":"error","name":"CallerIsNotKeeper","inputs":[{"name":"caller","type":"address","internalType":"address"}]},{"type":"error","name":"CallerIsNotRaft","inputs":[{"name":"caller","type":"address","internalType":"address"}]},{"type":"error","name":"CallerIsNotRaftOrCommander","inputs":[{"name":"caller","type":"address","internalType":"address"}]},{"type":"error","name":"CallerIsNotSuperKeeper","inputs":[{"name":"caller","type":"address","internalType":"address"}]},{"type":"error","name":"ClaimMultipleEmpty","inputs":[{"name":"indices","type":"uint256[]","internalType":"uint256[]"},{"name":"amounts","type":"uint256[]","internalType":"uint256[]"},{"name":"proofs","type":"bytes32[][]","internalType":"bytes32[][]"}]},{"type":"error","name":"ClaimMultipleLengthMismatch","inputs":[{"name":"indices","type":"uint256[]","internalType":"uint256[]"},{"name":"amounts","type":"uint256[]","internalType":"uint256[]"},{"name":"proofs","type":"bytes32[][]","internalType":"bytes32[][]"}]},{"type":"error","name":"DirectGrantIsDisabled","inputs":[{"name":"caller","type":"address","internalType":"address"}]},{"type":"error","name":"DirectRevokeIsDisabled","inputs":[{"name":"caller","type":"address","internalType":"address"}]},{"type":"error","name":"InvalidAccessManagerAddress","inputs":[{"name":"invalidAddress","type":"address","internalType":"address"}]},{"type":"error","name":"InvalidRewardsToken","inputs":[{"name":"token","type":"address","internalType":"address"}]},{"type":"error","name":"RootAlreadyAdded","inputs":[{"name":"index","type":"uint256","internalType":"uint256"},{"name":"root","type":"bytes32","internalType":"bytes32"}]},{"type":"error","name":"SafeERC20FailedOperation","inputs":[{"name":"token","type":"address","internalType":"address"}]},{"type":"error","name":"UserAlreadyClaimed","inputs":[{"name":"user","type":"address","internalType":"address"},{"name":"index","type":"uint256","internalType":"uint256"},{"name":"amount","type":"uint256","internalType":"uint256"},{"name":"proof","type":"bytes32[]","internalType":"bytes32[]"}]},{"type":"error","name":"UserCannotClaim","inputs":[{"name":"user","type":"address","internalType":"address"},{"name":"index","type":"uint256","internalType":"uint256"},{"name":"amount","type":"uint256","internalType":"uint256"},{"name":"proof","type":"bytes32[]","internalType":"bytes32[]"}]}],"bytecode":{"object":"0x60c060405234801561000f575f5ffd5b506040516113b33803806113b383398101604081905261002e9161015a565b806001600160a01b03811661005d576040516347bd7c1d60e01b81525f60048201526024015b60405180910390fd5b6040516301ffc9a760e01b815263cb695ef560e01b60048201526001600160a01b038216906301ffc9a790602401602060405180830381865afa1580156100a6573d5f5f3e3d5ffd5b505050506040513d601f19601f820116820180604052508101906100ca919061018b565b6100f2576040516347bd7c1d60e01b81526001600160a01b0382166004820152602401610054565b6001600160a01b03908116608052821661012a57604051632484d91d60e01b81526001600160a01b0383166004820152602401610054565b506001600160a01b031660a052425f556101b1565b80516001600160a01b0381168114610155575f5ffd5b919050565b5f5f6040838503121561016b575f5ffd5b6101748361013f565b91506101826020840161013f565b90509250929050565b5f6020828403121561019b575f5ffd5b815180151581146101aa575f5ffd5b9392505050565b60805160a0516111c56101ee5f395f81816102b20152610a3701525f81816103420152818161046c0152818161076001526108ad01526111c55ff3fe608060405234801561000f575f5ffd5b5060043610610111575f3560e01c8063b29310961161009e578063ccc574901161006e578063ccc5749014610299578063d1af0c7d146102ad578063e63ea408146102ec578063eae4c19f146102ff578063ebc136d014610307575f5ffd5b8063b29310961461022d578063c0b09e5b14610240578063c0b534c214610253578063c2b40ae41461027a575f5ffd5b8063731d829a116100e4578063731d829a1461019e5780639b24b3b0146101b1578063a89f38a3146101d0578063ad5c0ca9146101f7578063ae0b51df1461021a575f5ffd5b806324ea54f41461011557806338af30b01461014f57806366e943f11461016457806369b3054b1461018b575b5f5ffd5b61013c7f55435dd261a4b9b3364963f7738a7a662ad9c84396d64be3365284bb7f0a504181565b6040519081526020015b60405180910390f35b61016261015d366004610c08565b61031a565b005b61013c7f0d186688925976bbe6755ae984501c8e3e2b103a7af59fd803ab9c6d891ae7e081565b61013c610199366004610c3a565b610411565b6101626101ac366004610c70565b610444565b61013c6101bf366004610c08565b5f9081526001602052604090205490565b61013c7fb00be3d6a5434b97b328543d1486d56adcb7e74080170d1cdd7e0306c3d9ba3d81565b61020a610205366004610ca4565b610582565b6040519015158152602001610146565b610162610228366004610dc8565b6105a9565b61020a61023b366004610e17565b6105d5565b61016261024e366004610e3f565b61060e565b61013c7f025d8bbf3268be680d2605ebf6da15063b9915615bf1087dab336efc1bf970cb81565b61013c610288366004610c08565b60016020525f908152604090205481565b61013c5f5160206111705f395f51905f5281565b6102d47f000000000000000000000000000000000000000000000000000000000000000081565b6040516001600160a01b039091168152602001610146565b6101626102fa366004610ede565b610738565b61013c5f5481565b61020a610315366004610f18565b610866565b604051632474521560e21b81525f5160206111705f395f51905f5260048201523360248201527f00000000000000000000000000000000000000000000000000000000000000006001600160a01b0316906391d1485490604401602060405180830381865afa15801561038f573d5f5f3e3d5ffd5b505050506040513d601f19601f820116820180604052508101906103b39190610f31565b6103d757604051630ea7d7ed60e21b81523360048201526024015b60405180910390fd5b5f818152600160205260408082208290555182917f405489853c45b03e4598e22168171787ed885bb2adc17e43efa1f5b9b3dae06e91a250565b5f8282604051602001610425929190610f50565b6040516020818303038152906040528051906020012090505b92915050565b604051632474521560e21b81525f5160206111705f395f51905f5260048201523360248201527f00000000000000000000000000000000000000000000000000000000000000006001600160a01b0316906391d1485490604401602060405180830381865afa1580156104b9573d5f5f3e3d5ffd5b505050506040513d601f19601f820116820180604052508101906104dd9190610f31565b6104fc57604051630ea7d7ed60e21b81523360048201526024016103ce565b5f828152600160205260409020541561053257604051630ddce93f60e31b815260048101839052602481018290526044016103ce565b5f82815260016020526040908190208290555182907f47e13ec4cc37e31e3a4f25115640068ffbe4bee53b32f0953fa593388e69fc0f906105769084815260200190565b60405180910390a25050565b5f61058e848484610918565b80156105a1575061059f33856105d5565b155b949350505050565b335f9081526002602052604090206105c48585858585610991565b6105ce3385610a2a565b5050505050565b6001600160a01b0382165f908152600260209081526040808320600885901c8452909152812054600160ff84161b1615155b9392505050565b848314158061061d5750828114155b156106475785858585858560405163184e777360e11b81526004016103ce96959493929190610fc3565b5f8590036106745785858585858560405163d70ed69960e01b81526004016103ce96959493929190610fc3565b335f908152600260205260408120815b87811015610723576106eb8989838181106106a1576106a1611092565b905060200201358888848181106106ba576106ba611092565b905060200201358787858181106106d3576106d3611092565b90506020028101906106e591906110a6565b86610991565b8686828181106106fd576106fd611092565b905060200201358361070f91906110ec565b925061071c6001826110ec565b9050610684565b5061072e3383610a2a565b5050505050505050565b604051632474521560e21b81525f5160206111705f395f51905f5260048201523360248201527f00000000000000000000000000000000000000000000000000000000000000006001600160a01b0316906391d1485490604401602060405180830381865afa1580156107ad573d5f5f3e3d5ffd5b505050506040513d601f19601f820116820180604052508101906107d19190610f31565b6107f057604051630ea7d7ed60e21b81523360048201526024016103ce565b60405163a9059cbb60e01b81526001600160a01b0383811660048301526024820183905284169063a9059cbb906044016020604051808303815f875af115801561083c573d5f5f3e3d5ffd5b505050506040513d601f19601f820116820180604052508101906108609190610f31565b50505050565b604051632474521560e21b81527fb00be3d6a5434b97b328543d1486d56adcb7e74080170d1cdd7e0306c3d9ba3d60048201526001600160a01b0382811660248301525f917f0000000000000000000000000000000000000000000000000000000000000000909116906391d1485490604401602060405180830381865afa1580156108f4573d5f5f3e3d5ffd5b505050506040513d601f19601f8201168201806040525081019061043e9190610f31565b5f8033604080516001600160a01b039092166020830152810185905260600160408051601f19818403018152828252805160209182012090830152016040516020818303038152906040528051906020012090506109888360015f8881526020019081526020015f205483610a62565b95945050505050565b6109ce85858585808060200260200160405190810160405280939291908181526020018383602002808284375f92019190915250610a7792505050565b600885901c5f9081526020829052604090208054600160ff88161b179055604051848152859033907f987d620f307ff6b94d58743cb7a7509f24071586a77759b77c2d4e29f75a2f9a9060200160405180910390a35050505050565b610a5e6001600160a01b037f0000000000000000000000000000000000000000000000000000000000000000168383610adc565b5050565b5f82610a6e8584610b2e565b14949350505050565b610a82838383610918565b610aa7573383838360405163be612e7560e01b81526004016103ce949392919061110b565b610ab133846105d5565b15610ad75733838383604051638c9ce75160e01b81526004016103ce949392919061110b565b505050565b604080516001600160a01b038416602482015260448082018490528251808303909101815260649091019091526020810180516001600160e01b031663a9059cbb60e01b179052610ad7908490610b70565b5f81815b8451811015610b6857610b5e82868381518110610b5157610b51611092565b6020026020010151610bdc565b9150600101610b32565b509392505050565b5f5f60205f8451602086015f885af180610b8f576040513d5f823e3d81fd5b50505f513d91508115610ba6578060011415610bb3565b6001600160a01b0384163b155b1561086057604051635274afe760e01b81526001600160a01b03851660048201526024016103ce565b5f818310610bf6575f828152602084905260409020610607565b5f838152602083905260409020610607565b5f60208284031215610c18575f5ffd5b5035919050565b80356001600160a01b0381168114610c35575f5ffd5b919050565b5f5f60408385031215610c4b575f5ffd5b823560038110610c59575f5ffd5b9150610c6760208401610c1f565b90509250929050565b5f5f60408385031215610c81575f5ffd5b50508035926020909101359150565b634e487b7160e01b5f52604160045260245ffd5b5f5f5f60608486031215610cb6575f5ffd5b8335925060208401359150604084013567ffffffffffffffff811115610cda575f5ffd5b8401601f81018613610cea575f5ffd5b803567ffffffffffffffff811115610d0457610d04610c90565b8060051b604051601f19603f830116810181811067ffffffffffffffff82111715610d3157610d31610c90565b604052918252602081840181019290810189841115610d4e575f5ffd5b6020850194505b83851015610d7157843580825260209586019590935001610d55565b50809450505050509250925092565b5f5f83601f840112610d90575f5ffd5b50813567ffffffffffffffff811115610da7575f5ffd5b6020830191508360208260051b8501011115610dc1575f5ffd5b9250929050565b5f5f5f5f60608587031215610ddb575f5ffd5b8435935060208501359250604085013567ffffffffffffffff811115610dff575f5ffd5b610e0b87828801610d80565b95989497509550505050565b5f5f60408385031215610e28575f5ffd5b610e3183610c1f565b946020939093013593505050565b5f5f5f5f5f5f60608789031215610e54575f5ffd5b863567ffffffffffffffff811115610e6a575f5ffd5b610e7689828a01610d80565b909750955050602087013567ffffffffffffffff811115610e95575f5ffd5b610ea189828a01610d80565b909550935050604087013567ffffffffffffffff811115610ec0575f5ffd5b610ecc89828a01610d80565b979a9699509497509295939492505050565b5f5f5f60608486031215610ef0575f5ffd5b610ef984610c1f565b9250610f0760208501610c1f565b929592945050506040919091013590565b5f60208284031215610f28575f5ffd5b61060782610c1f565b5f60208284031215610f41575f5ffd5b81518015158114610607575f5ffd5b5f60038410610f6d57634e487b7160e01b5f52602160045260245ffd5b5060f89290921b825260601b6bffffffffffffffffffffffff1916600182015260150190565b8183525f6001600160fb1b03831115610faa575f5ffd5b8260051b80836020870137939093016020019392505050565b606081525f610fd660608301888a610f93565b8281036020840152610fe9818789610f93565b83810360408501528481529050602080820190600586901b830101865f36829003601e19015b8882101561108057858403601f19018552823581811261102d575f5ffd5b8a0160208101903567ffffffffffffffff811115611049575f5ffd5b8060051b360382131561105a575f5ffd5b611065868284610f93565b9550505060208301925060208501945060018201915061100f565b50919c9b505050505050505050505050565b634e487b7160e01b5f52603260045260245ffd5b5f5f8335601e198436030181126110bb575f5ffd5b83018035915067ffffffffffffffff8211156110d5575f5ffd5b6020019150600581901b3603821315610dc1575f5ffd5b8082018082111561043e57634e487b7160e01b5f52601160045260245ffd5b6001600160a01b038516815260208082018590526040820184905260806060830181905283519083018190525f9184019060a0840190835b81811015611161578351835260209384019390920191600101611143565b50909897505050505050505056fe7935bd0ae54bc31f548c14dba4d37c5c64b3f8ca900cb468fb8abd54d5894f55a26469706673582212203b7f749e2d55b6bb1aff825295088e66be5b788bd4c2d583d7f545f290631b5c64736f6c634300081c0033","linkReferences":{}},"methodIdentifiers":{"ADMIRALS_QUARTERS_ROLE()":"a89f38a3","DECAY_CONTROLLER_ROLE()":"c0b534c2","GOVERNOR_ROLE()":"ccc57490","GUARDIAN_ROLE()":"24ea54f4","SUPER_KEEPER_ROLE()":"66e943f1","addRoot(uint256,bytes32)":"731d829a","canClaim(uint256,uint256,bytes32[])":"ad5c0ca9","claim(uint256,uint256,bytes32[])":"ae0b51df","claimMultiple(uint256[],uint256[],bytes32[][])":"c0b09e5b","deployedAt()":"eae4c19f","emergencyWithdraw(address,address,uint256)":"e63ea408","generateRole(uint8,address)":"69b3054b","getRoot(uint256)":"9b24b3b0","hasAdmiralsQuartersRole(address)":"ebc136d0","hasClaimed(address,uint256)":"b2931096","removeRoot(uint256)":"38af30b0","rewardsToken()":"d1af0c7d","roots(uint256)":"c2b40ae4"},"id":87}