{"abi":[{"type":"constructor","inputs":[{"name":"_tipJar","type":"address","internalType":"address"},{"name":"_treasury","type":"address","internalType":"address"},{"name":"_raft","type":"address","internalType":"address"},{"name":"_harborCommand","type":"address","internalType":"address"}],"stateMutability":"nonpayable"},{"type":"function","name":"harborCommand","inputs":[],"outputs":[{"name":"","type":"address","internalType":"address"}],"stateMutability":"view"},{"type":"function","name":"initializeConfiguration","inputs":[{"name":"params","type":"tuple","internalType":"struct ConfigurationManagerParams","components":[{"name":"raft","type":"address","internalType":"address"},{"name":"tipJar","type":"address","internalType":"address"},{"name":"treasury","type":"address","internalType":"address"},{"name":"harborCommand","type":"address","internalType":"address"}]}],"outputs":[],"stateMutability":"nonpayable"},{"type":"function","name":"raft","inputs":[],"outputs":[{"name":"","type":"address","internalType":"address"}],"stateMutability":"view"},{"type":"function","name":"setHarborCommand","inputs":[{"name":"","type":"address","internalType":"address"}],"outputs":[],"stateMutability":"pure"},{"type":"function","name":"setRaft","inputs":[{"name":"","type":"address","internalType":"address"}],"outputs":[],"stateMutability":"pure"},{"type":"function","name":"setTipJar","inputs":[{"name":"newTipJar","type":"address","internalType":"address"}],"outputs":[],"stateMutability":"nonpayable"},{"type":"function","name":"setTipRate","inputs":[{"name":"","type":"uint8","internalType":"uint8"}],"outputs":[],"stateMutability":"pure"},{"type":"function","name":"setTreasury","inputs":[{"name":"","type":"address","internalType":"address"}],"outputs":[],"stateMutability":"pure"},{"type":"function","name":"test_","inputs":[],"outputs":[],"stateMutability":"nonpayable"},{"type":"function","name":"tipJar","inputs":[],"outputs":[{"name":"","type":"address","internalType":"address"}],"stateMutability":"view"},{"type":"function","name":"tipRate","inputs":[],"outputs":[{"name":"","type":"uint256","internalType":"uint256"}],"stateMutability":"view"},{"type":"function","name":"treasury","inputs":[],"outputs":[{"name":"","type":"address","internalType":"address"}],"stateMutability":"view"},{"type":"event","name":"HarborCommandUpdated","inputs":[{"name":"oldHarborCommand","type":"address","indexed":false,"internalType":"address"},{"name":"newHarborCommand","type":"address","indexed":false,"internalType":"address"}],"anonymous":false},{"type":"event","name":"RaftUpdated","inputs":[{"name":"oldRaft","type":"address","indexed":false,"internalType":"address"},{"name":"newRaft","type":"address","indexed":false,"internalType":"address"}],"anonymous":false},{"type":"event","name":"TipJarUpdated","inputs":[{"name":"oldTipJar","type":"address","indexed":false,"internalType":"address"},{"name":"newTipJar","type":"address","indexed":false,"internalType":"address"}],"anonymous":false},{"type":"event","name":"TipRateUpdated","inputs":[{"name":"oldTipRate","type":"uint8","indexed":false,"internalType":"uint8"},{"name":"newTipRate","type":"uint8","indexed":false,"internalType":"uint8"}],"anonymous":false},{"type":"event","name":"TreasuryUpdated","inputs":[{"name":"oldTreasury","type":"address","indexed":false,"internalType":"address"},{"name":"newTreasury","type":"address","indexed":false,"internalType":"address"}],"anonymous":false},{"type":"error","name":"AddressZero","inputs":[]},{"type":"error","name":"ConfigurationManagerAlreadyInitialized","inputs":[]},{"type":"error","name":"HarborCommandNotSet","inputs":[]},{"type":"error","name":"RaftNotSet","inputs":[]},{"type":"error","name":"TipJarNotSet","inputs":[]},{"type":"error","name":"TreasuryNotSet","inputs":[]},{"type":"error","name":"ZeroAddress","inputs":[]}],"bytecode":{"object":"0x6080604052348015600e575f5ffd5b50604051610397380380610397833981016040819052602b916096565b5f80546001600160a01b03199081166001600160a01b0396871617909155600180548216948616949094179093556002805484169285169290921790915560048054909216921691909117905560de565b80516001600160a01b03811681146091575f5ffd5b919050565b5f5f5f5f6080858703121560a8575f5ffd5b60af85607c565b935060bb60208601607c565b925060c760408601607c565b915060d360608601607c565b905092959194509250565b6102ac806100eb5f395ff3fe608060405234801561000f575f5ffd5b50600436106100b1575f3560e01c80635c66e3da1161006e5780635c66e3da1461013e57806361d027b31461016d578063643898cd146100f6578063788d8366146101065780637aaceb9514610180578063f0f4426014610106575f5ffd5b8063117d8ae0146100b5578063330c22f0146100e55780633b9b1786146100f857806344ee060514610106578063498e76a0146101145780635b0f83f31461012b575b5f5ffd5b6002546100c8906001600160a01b031681565b6040516001600160a01b0390911681526020015b60405180910390f35b6100f66100f33660046101ad565b50565b005b6100f66100f3366004610236565b6100f66100f336600461025d565b61011d60035481565b6040519081526020016100dc565b6004546100c8906001600160a01b031681565b6100f661014c36600461025d565b5f80546001600160a01b0319166001600160a01b0392909216919091179055565b6001546100c8906001600160a01b031681565b5f546100c8906001600160a01b031681565b80356001600160a01b03811681146101a8575f5ffd5b919050565b5f60808284031280156101be575f5ffd5b506040516080810167ffffffffffffffff811182821017156101ee57634e487b7160e01b5f52604160045260245ffd5b6040526101fa83610192565b815261020860208401610192565b602082015261021960408401610192565b604082015261022a60608401610192565b60608201529392505050565b5f60208284031215610246575f5ffd5b813560ff81168114610256575f5ffd5b9392505050565b5f6020828403121561026d575f5ffd5b6102568261019256fea2646970667358221220f8699f33652bf2538456ed4c7ba9183cdc54a314ade17d2a343778e3de43af1864736f6c634300081b0033","linkReferences":{}},"methodIdentifiers":{"harborCommand()":"5b0f83f3","initializeConfiguration((address,address,address,address))":"330c22f0","raft()":"117d8ae0","setHarborCommand(address)":"788d8366","setRaft(address)":"44ee0605","setTipJar(address)":"5c66e3da","setTipRate(uint8)":"3b9b1786","setTreasury(address)":"f0f44260","test_()":"643898cd","tipJar()":"7aaceb95","tipRate()":"498e76a0","treasury()":"61d027b3"},"id":281}