{"abi":[{"type":"constructor","inputs":[{"name":"_tipJar","type":"address","internalType":"address"},{"name":"_treasury","type":"address","internalType":"address"},{"name":"_raft","type":"address","internalType":"address"},{"name":"_harborCommand","type":"address","internalType":"address"},{"name":"_fleetCommanderRewardsManagerFactory","type":"address","internalType":"address"}],"stateMutability":"nonpayable"},{"type":"function","name":"fleetCommanderRewardsManagerFactory","inputs":[],"outputs":[{"name":"","type":"address","internalType":"address"}],"stateMutability":"view"},{"type":"function","name":"harborCommand","inputs":[],"outputs":[{"name":"","type":"address","internalType":"address"}],"stateMutability":"view"},{"type":"function","name":"initializeConfiguration","inputs":[{"name":"params","type":"tuple","internalType":"struct ConfigurationManagerParams","components":[{"name":"raft","type":"address","internalType":"address"},{"name":"tipJar","type":"address","internalType":"address"},{"name":"treasury","type":"address","internalType":"address"},{"name":"harborCommand","type":"address","internalType":"address"},{"name":"fleetCommanderRewardsManagerFactory","type":"address","internalType":"address"}]}],"outputs":[],"stateMutability":"nonpayable"},{"type":"function","name":"raft","inputs":[],"outputs":[{"name":"","type":"address","internalType":"address"}],"stateMutability":"view"},{"type":"function","name":"setFleetCommanderRewardsManagerFactory","inputs":[{"name":"","type":"address","internalType":"address"}],"outputs":[],"stateMutability":"pure"},{"type":"function","name":"setHarborCommand","inputs":[{"name":"","type":"address","internalType":"address"}],"outputs":[],"stateMutability":"pure"},{"type":"function","name":"setRaft","inputs":[{"name":"","type":"address","internalType":"address"}],"outputs":[],"stateMutability":"pure"},{"type":"function","name":"setTipJar","inputs":[{"name":"newTipJar","type":"address","internalType":"address"}],"outputs":[],"stateMutability":"nonpayable"},{"type":"function","name":"setTipRate","inputs":[{"name":"","type":"uint8","internalType":"uint8"}],"outputs":[],"stateMutability":"pure"},{"type":"function","name":"setTreasury","inputs":[{"name":"","type":"address","internalType":"address"}],"outputs":[],"stateMutability":"pure"},{"type":"function","name":"test_","inputs":[],"outputs":[],"stateMutability":"nonpayable"},{"type":"function","name":"tipJar","inputs":[],"outputs":[{"name":"","type":"address","internalType":"address"}],"stateMutability":"view"},{"type":"function","name":"tipRate","inputs":[],"outputs":[{"name":"","type":"uint256","internalType":"uint256"}],"stateMutability":"view"},{"type":"function","name":"treasury","inputs":[],"outputs":[{"name":"","type":"address","internalType":"address"}],"stateMutability":"view"},{"type":"event","name":"FleetCommanderRewardsManagerFactoryUpdated","inputs":[{"name":"oldFleetCommanderRewardsManagerFactory","type":"address","indexed":false,"internalType":"address"},{"name":"newFleetCommanderRewardsManagerFactory","type":"address","indexed":false,"internalType":"address"}],"anonymous":false},{"type":"event","name":"HarborCommandUpdated","inputs":[{"name":"oldHarborCommand","type":"address","indexed":false,"internalType":"address"},{"name":"newHarborCommand","type":"address","indexed":false,"internalType":"address"}],"anonymous":false},{"type":"event","name":"RaftUpdated","inputs":[{"name":"oldRaft","type":"address","indexed":false,"internalType":"address"},{"name":"newRaft","type":"address","indexed":false,"internalType":"address"}],"anonymous":false},{"type":"event","name":"TipJarUpdated","inputs":[{"name":"oldTipJar","type":"address","indexed":false,"internalType":"address"},{"name":"newTipJar","type":"address","indexed":false,"internalType":"address"}],"anonymous":false},{"type":"event","name":"TipRateUpdated","inputs":[{"name":"oldTipRate","type":"uint8","indexed":false,"internalType":"uint8"},{"name":"newTipRate","type":"uint8","indexed":false,"internalType":"uint8"}],"anonymous":false},{"type":"event","name":"TreasuryUpdated","inputs":[{"name":"oldTreasury","type":"address","indexed":false,"internalType":"address"},{"name":"newTreasury","type":"address","indexed":false,"internalType":"address"}],"anonymous":false},{"type":"error","name":"AddressZero","inputs":[]},{"type":"error","name":"ConfigurationManagerAlreadyInitialized","inputs":[]},{"type":"error","name":"HarborCommandNotSet","inputs":[]},{"type":"error","name":"RaftNotSet","inputs":[]},{"type":"error","name":"TipJarNotSet","inputs":[]},{"type":"error","name":"TreasuryNotSet","inputs":[]},{"type":"error","name":"ZeroAddress","inputs":[]}],"bytecode":{"object":"0x608060405234801561000f575f5ffd5b5060405161041c38038061041c83398101604081905261002e916100aa565b5f80546001600160a01b03199081166001600160a01b0397881617909155600180548216958716959095179094556002805485169386169390931790925560048054841691851691909117905560058054909216921691909117905561010b565b80516001600160a01b03811681146100a5575f5ffd5b919050565b5f5f5f5f5f60a086880312156100be575f5ffd5b6100c78661008f565b94506100d56020870161008f565b93506100e36040870161008f565b92506100f16060870161008f565b91506100ff6080870161008f565b90509295509295909350565b610304806101185f395ff3fe608060405234801561000f575f5ffd5b50600436106100e5575f3560e01c806361d027b3116100885780637aaceb95116100635780637aaceb95146101b4578063d6c953c61461013a578063f0f442601461013a578063f7e533ec146101c6575f5ffd5b806361d027b3146101a1578063643898cd1461012a578063788d83661461013a575f5ffd5b806344ee0605116100c357806344ee06051461013a578063498e76a0146101485780635b0f83f31461015f5780635c66e3da14610172575f5ffd5b8063117d8ae0146100e95780631fcb6ee6146101195780633b9b17861461012c575b5f5ffd5b6002546100fc906001600160a01b031681565b6040516001600160a01b0390911681526020015b60405180910390f35b61012a6101273660046101f4565b50565b005b61012a61012736600461028e565b61012a6101273660046102b5565b61015160035481565b604051908152602001610110565b6004546100fc906001600160a01b031681565b61012a6101803660046102b5565b5f80546001600160a01b0319166001600160a01b0392909216919091179055565b6001546100fc906001600160a01b031681565b5f546100fc906001600160a01b031681565b6005546100fc906001600160a01b031681565b80356001600160a01b03811681146101ef575f5ffd5b919050565b5f60a0828403128015610205575f5ffd5b5060405160a0810167ffffffffffffffff8111828210171561023557634e487b7160e01b5f52604160045260245ffd5b604052610241836101d9565b815261024f602084016101d9565b6020820152610260604084016101d9565b6040820152610271606084016101d9565b6060820152610282608084016101d9565b60808201529392505050565b5f6020828403121561029e575f5ffd5b813560ff811681146102ae575f5ffd5b9392505050565b5f602082840312156102c5575f5ffd5b6102ae826101d956fea2646970667358221220e59208f27d98bb94194e8726489dd11fced3862a5bdccb157576df79a9ca625d64736f6c634300081c0033","linkReferences":{}},"methodIdentifiers":{"fleetCommanderRewardsManagerFactory()":"f7e533ec","harborCommand()":"5b0f83f3","initializeConfiguration((address,address,address,address,address))":"1fcb6ee6","raft()":"117d8ae0","setFleetCommanderRewardsManagerFactory(address)":"d6c953c6","setHarborCommand(address)":"788d8366","setRaft(address)":"44ee0605","setTipJar(address)":"5c66e3da","setTipRate(uint8)":"3b9b1786","setTreasury(address)":"f0f44260","test_()":"643898cd","tipJar()":"7aaceb95","tipRate()":"498e76a0","treasury()":"61d027b3"},"id":321}