{"abi":[{"type":"constructor","inputs":[{"name":"_accessManager","type":"address","internalType":"address"},{"name":"_configurationManager","type":"address","internalType":"address"}],"stateMutability":"nonpayable"},{"type":"function","name":"addTipStream","inputs":[{"name":"tipStream","type":"tuple","internalType":"struct ITipJar.TipStream","components":[{"name":"recipient","type":"address","internalType":"address"},{"name":"allocation","type":"uint256","internalType":"Percentage"},{"name":"lockedUntilEpoch","type":"uint256","internalType":"uint256"}]}],"outputs":[{"name":"lockedUntilEpoch","type":"uint256","internalType":"uint256"}],"stateMutability":"nonpayable"},{"type":"function","name":"configurationManager","inputs":[],"outputs":[{"name":"","type":"address","internalType":"contract IConfigurationManager"}],"stateMutability":"view"},{"type":"function","name":"fleetCommanderRewardsManagerFactory","inputs":[],"outputs":[{"name":"","type":"address","internalType":"address"}],"stateMutability":"view"},{"type":"function","name":"generateRole","inputs":[{"name":"roleName","type":"uint8","internalType":"enum ContractSpecificRoles"},{"name":"roleTargetContract","type":"address","internalType":"address"}],"outputs":[{"name":"","type":"bytes32","internalType":"bytes32"}],"stateMutability":"pure"},{"type":"function","name":"getAllTipStreams","inputs":[],"outputs":[{"name":"allStreams","type":"tuple[]","internalType":"struct ITipJar.TipStream[]","components":[{"name":"recipient","type":"address","internalType":"address"},{"name":"allocation","type":"uint256","internalType":"Percentage"},{"name":"lockedUntilEpoch","type":"uint256","internalType":"uint256"}]}],"stateMutability":"view"},{"type":"function","name":"getTipStream","inputs":[{"name":"recipient","type":"address","internalType":"address"}],"outputs":[{"name":"","type":"tuple","internalType":"struct ITipJar.TipStream","components":[{"name":"recipient","type":"address","internalType":"address"},{"name":"allocation","type":"uint256","internalType":"Percentage"},{"name":"lockedUntilEpoch","type":"uint256","internalType":"uint256"}]}],"stateMutability":"view"},{"type":"function","name":"getTotalAllocation","inputs":[],"outputs":[{"name":"total","type":"uint256","internalType":"Percentage"}],"stateMutability":"view"},{"type":"function","name":"harborCommand","inputs":[],"outputs":[{"name":"","type":"address","internalType":"address"}],"stateMutability":"view"},{"type":"function","name":"pause","inputs":[],"outputs":[],"stateMutability":"nonpayable"},{"type":"function","name":"paused","inputs":[],"outputs":[{"name":"","type":"bool","internalType":"bool"}],"stateMutability":"view"},{"type":"function","name":"raft","inputs":[],"outputs":[{"name":"","type":"address","internalType":"address"}],"stateMutability":"view"},{"type":"function","name":"removeTipStream","inputs":[{"name":"recipient","type":"address","internalType":"address"}],"outputs":[],"stateMutability":"nonpayable"},{"type":"function","name":"shake","inputs":[{"name":"fleetCommander_","type":"address","internalType":"address"}],"outputs":[],"stateMutability":"nonpayable"},{"type":"function","name":"shakeAll","inputs":[],"outputs":[],"stateMutability":"nonpayable"},{"type":"function","name":"shakeMultiple","inputs":[{"name":"fleetCommanders","type":"address[]","internalType":"address[]"}],"outputs":[],"stateMutability":"nonpayable"},{"type":"function","name":"tipJar","inputs":[],"outputs":[{"name":"","type":"address","internalType":"address"}],"stateMutability":"view"},{"type":"function","name":"tipStreamRecipients","inputs":[{"name":"","type":"uint256","internalType":"uint256"}],"outputs":[{"name":"","type":"address","internalType":"address"}],"stateMutability":"view"},{"type":"function","name":"tipStreams","inputs":[{"name":"recipient","type":"address","internalType":"address"}],"outputs":[{"name":"recipient","type":"address","internalType":"address"},{"name":"allocation","type":"uint256","internalType":"Percentage"},{"name":"lockedUntilEpoch","type":"uint256","internalType":"uint256"}],"stateMutability":"view"},{"type":"function","name":"treasury","inputs":[],"outputs":[{"name":"","type":"address","internalType":"address"}],"stateMutability":"view"},{"type":"function","name":"unpause","inputs":[],"outputs":[],"stateMutability":"nonpayable"},{"type":"function","name":"updateTipStream","inputs":[{"name":"tipStream","type":"tuple","internalType":"struct ITipJar.TipStream","components":[{"name":"recipient","type":"address","internalType":"address"},{"name":"allocation","type":"uint256","internalType":"Percentage"},{"name":"lockedUntilEpoch","type":"uint256","internalType":"uint256"}]},{"name":"shakeAllFleetCommanders","type":"bool","internalType":"bool"}],"outputs":[],"stateMutability":"nonpayable"},{"type":"event","name":"Paused","inputs":[{"name":"account","type":"address","indexed":false,"internalType":"address"}],"anonymous":false},{"type":"event","name":"TipJarPaused","inputs":[{"name":"account","type":"address","indexed":true,"internalType":"address"}],"anonymous":false},{"type":"event","name":"TipJarShaken","inputs":[{"name":"fleetCommander","type":"address","indexed":true,"internalType":"address"},{"name":"totalDistributed","type":"uint256","indexed":false,"internalType":"uint256"}],"anonymous":false},{"type":"event","name":"TipJarUnpaused","inputs":[{"name":"account","type":"address","indexed":true,"internalType":"address"}],"anonymous":false},{"type":"event","name":"TipStreamAdded","inputs":[{"name":"tipStream","type":"tuple","indexed":false,"internalType":"struct ITipJar.TipStream","components":[{"name":"recipient","type":"address","internalType":"address"},{"name":"allocation","type":"uint256","internalType":"Percentage"},{"name":"lockedUntilEpoch","type":"uint256","internalType":"uint256"}]}],"anonymous":false},{"type":"event","name":"TipStreamRemoved","inputs":[{"name":"recipient","type":"address","indexed":true,"internalType":"address"}],"anonymous":false},{"type":"event","name":"TipStreamUpdated","inputs":[{"name":"oldTipStream","type":"tuple","indexed":false,"internalType":"struct ITipJar.TipStream","components":[{"name":"recipient","type":"address","internalType":"address"},{"name":"allocation","type":"uint256","internalType":"Percentage"},{"name":"lockedUntilEpoch","type":"uint256","internalType":"uint256"}]},{"name":"newTipStream","type":"tuple","indexed":false,"internalType":"struct ITipJar.TipStream","components":[{"name":"recipient","type":"address","internalType":"address"},{"name":"allocation","type":"uint256","internalType":"Percentage"},{"name":"lockedUntilEpoch","type":"uint256","internalType":"uint256"}]}],"anonymous":false},{"type":"event","name":"Unpaused","inputs":[{"name":"account","type":"address","indexed":false,"internalType":"address"}],"anonymous":false},{"type":"error","name":"CallerIsNotAdmin","inputs":[{"name":"caller","type":"address","internalType":"address"}]},{"type":"error","name":"CallerIsNotAuthorizedToBoard","inputs":[{"name":"caller","type":"address","internalType":"address"}]},{"type":"error","name":"CallerIsNotCommander","inputs":[{"name":"caller","type":"address","internalType":"address"}]},{"type":"error","name":"CallerIsNotContractSpecificRole","inputs":[{"name":"caller","type":"address","internalType":"address"},{"name":"role","type":"bytes32","internalType":"bytes32"}]},{"type":"error","name":"CallerIsNotCurator","inputs":[{"name":"caller","type":"address","internalType":"address"}]},{"type":"error","name":"CallerIsNotDecayController","inputs":[{"name":"caller","type":"address","internalType":"address"}]},{"type":"error","name":"CallerIsNotGovernor","inputs":[{"name":"caller","type":"address","internalType":"address"}]},{"type":"error","name":"CallerIsNotGuardian","inputs":[{"name":"caller","type":"address","internalType":"address"}]},{"type":"error","name":"CallerIsNotGuardianOrGovernor","inputs":[{"name":"caller","type":"address","internalType":"address"}]},{"type":"error","name":"CallerIsNotKeeper","inputs":[{"name":"caller","type":"address","internalType":"address"}]},{"type":"error","name":"CallerIsNotRaft","inputs":[{"name":"caller","type":"address","internalType":"address"}]},{"type":"error","name":"CallerIsNotRaftOrCommander","inputs":[{"name":"caller","type":"address","internalType":"address"}]},{"type":"error","name":"CallerIsNotSuperKeeper","inputs":[{"name":"caller","type":"address","internalType":"address"}]},{"type":"error","name":"ConfigurationManagerZeroAddress","inputs":[]},{"type":"error","name":"DirectGrantIsDisabled","inputs":[{"name":"caller","type":"address","internalType":"address"}]},{"type":"error","name":"DirectRevokeIsDisabled","inputs":[{"name":"caller","type":"address","internalType":"address"}]},{"type":"error","name":"EnforcedPause","inputs":[]},{"type":"error","name":"ExpectedPause","inputs":[]},{"type":"error","name":"InvalidAccessManagerAddress","inputs":[{"name":"invalidAddress","type":"address","internalType":"address"}]},{"type":"error","name":"InvalidFleetCommanderAddress","inputs":[]},{"type":"error","name":"InvalidRecipientAddress","inputs":[]},{"type":"error","name":"InvalidTipStreamAllocation","inputs":[{"name":"invalidAllocation","type":"uint256","internalType":"Percentage"}]},{"type":"error","name":"InvalidTreasuryAddress","inputs":[]},{"type":"error","name":"NoAssetsToDistribute","inputs":[]},{"type":"error","name":"NoSharesToRedeem","inputs":[]},{"type":"error","name":"TipStreamAlreadyExists","inputs":[{"name":"recipient","type":"address","internalType":"address"}]},{"type":"error","name":"TipStreamDoesNotExist","inputs":[{"name":"recipient","type":"address","internalType":"address"}]},{"type":"error","name":"TipStreamLocked","inputs":[{"name":"recipient","type":"address","internalType":"address"}]},{"type":"error","name":"TotalAllocationExceedsOneHundredPercent","inputs":[]}],"bytecode":{"object":"0x60a060405234801561000f575f5ffd5b50604051611f15380380611f1583398101604081905261002e91610167565b80826001600160a01b03811661005e576040516347bd7c1d60e01b81525f60048201526024015b60405180910390fd5b6040516301ffc9a760e01b8152639bd1803160e01b60048201526001600160a01b038216906301ffc9a790602401602060405180830381865afa1580156100a7573d5f5f3e3d5ffd5b505050506040513d601f19601f820116820180604052508101906100cb9190610198565b6100f3576040516347bd7c1d60e01b81526001600160a01b0382166004820152602401610055565b5f80546001600160a01b0319166001600160a01b03928316179055811661012d5760405163f1634df960e01b815260040160405180910390fd5b6001600160a01b031660805250505f805460ff60a01b191690556101be565b80516001600160a01b0381168114610162575f5ffd5b919050565b5f5f60408385031215610178575f5ffd5b6101818361014c565b915061018f6020840161014c565b90509250929050565b5f602082840312156101a8575f5ffd5b815180151581146101b7575f5ffd5b9392505050565b608051611d1c6101f95f395f81816102ac015281816103090152818161072d0152818161078a0152818161081a0152610ff20152611d1c5ff3fe608060405234801561000f575f5ffd5b5060043610610132575f3560e01c8063839b0885116100b4578063bf7c1cc111610079578063bf7c1cc114610294578063c9c667e3146102a7578063efffce61146102ce578063f5abfe5e146102e3578063f7e533ec146102f6578063fffa445e146102fe575f5ffd5b8063839b0885146101e85780638456cb59146101fb578063908cbdc614610203578063908fb02d14610223578063b2cdc7db14610236575f5ffd5b80635b0f83f3116100fa5780635b0f83f3146101a15780635c975abb146101a957806361d027b3146101c557806369b3054b146101cd5780637aaceb95146101e0575f5ffd5b8063117d8ae01461013657806315d3b5d81461015b57806319d8b41c146101715780633f4ba83a14610186578063407f25fb1461018e575b5f5ffd5b61013e610306565b6040516001600160a01b0390911681526020015b60405180910390f35b61016361038c565b604051908152602001610152565b61018461017f366004611862565b6103f8565b005b6101846105d8565b61013e61019c366004611898565b610702565b61013e61072a565b5f54600160a01b900460ff166040519015158152602001610152565b61013e610787565b6101636101db3660046118af565b6107e4565b61013e610817565b6101846101f63660046118de565b610874565b6101846108b3565b61021661021136600461194f565b6109dd565b604051610152919061198c565b61016361023136600461199a565b610a46565b61026f61024436600461194f565b600160208190525f91825260409091208054918101546002909101546001600160a01b039092169183565b604080516001600160a01b039094168452602084019290925290820152606001610152565b6101846102a236600461194f565b610c6c565b61013e7f000000000000000000000000000000000000000000000000000000000000000081565b6102d6610eca565b60405161015291906119b4565b6101846102f136600461194f565b610fdb565b61013e610fef565b61018461104c565b5f7f00000000000000000000000000000000000000000000000000000000000000006001600160a01b031663117d8ae06040518163ffffffff1660e01b8152600401602060405180830381865afa158015610363573d5f5f3e3d5ffd5b505050506040513d601f19601f820116820180604052508101906103879190611a01565b905090565b5f6103965f6110c1565b90505f5b6002548110156103f4576103ea8260015f600285815481106103be576103be611a1c565b5f9182526020808320909101546001600160a01b031683528201929092526040019020600101546110d8565b915060010161039a565b5090565b5f5460408051630ccc574960e41b815290516001600160a01b03909216916391d1485491839163ccc57490916004808201926020929091908290030181865afa158015610447573d5f5f3e3d5ffd5b505050506040513d601f19601f8201168201806040525081019061046b9190611a30565b6040516001600160e01b031960e084901b1681526004810191909152336024820152604401602060405180830381865afa1580156104ab573d5f5f3e3d5ffd5b505050506040513d601f19601f820116820180604052508101906104cf9190611a47565b6104f357604051630ea7d7ed60e21b81523360048201526024015b60405180910390fd5b81516104fe906110ea565b81516001600160a01b039081165f908152600160208181526040928390208351606081018552815490951685529182015484820181905260029092015492840192909252908401516105509082611172565b821561055e5761055e61104c565b60208085015185516001600160a01b039081165f90815260019384905260408082209094019290925582870151875190911682529082902060020155517ff98da2985cf0f5057e1736402dc428a8e3b5e75cbb807bfd12fc7a438e0c33e2906105ca9084908790611a62565b60405180910390a150505050565b5f5460408051630ccc574960e41b815290516001600160a01b03909216916391d1485491839163ccc57490916004808201926020929091908290030181865afa158015610627573d5f5f3e3d5ffd5b505050506040513d601f19601f8201168201806040525081019061064b9190611a30565b6040516001600160e01b031960e084901b1681526004810191909152336024820152604401602060405180830381865afa15801561068b573d5f5f3e3d5ffd5b505050506040513d601f19601f820116820180604052508101906106af9190611a47565b6106ce57604051630ea7d7ed60e21b81523360048201526024016104ea565b6106d66111f4565b60405133907fd57b21780f69067eafb3fc443fd50132e616575b1143938eb3e43a56047c8547905f90a2565b60028181548110610711575f80fd5b5f918252602090912001546001600160a01b0316905081565b5f7f00000000000000000000000000000000000000000000000000000000000000006001600160a01b0316635b0f83f36040518163ffffffff1660e01b8152600401602060405180830381865afa158015610363573d5f5f3e3d5ffd5b5f7f00000000000000000000000000000000000000000000000000000000000000006001600160a01b03166361d027b36040518163ffffffff1660e01b8152600401602060405180830381865afa158015610363573d5f5f3e3d5ffd5b5f82826040516020016107f8929190611a7d565b6040516020818303038152906040528051906020012090505b92915050565b5f7f00000000000000000000000000000000000000000000000000000000000000006001600160a01b0316637aaceb956040518163ffffffff1660e01b8152600401602060405180830381865afa158015610363573d5f5f3e3d5ffd5b6108af8282808060200260200160405190810160405280939291908181526020018383602002808284375f9201919091525061124892505050565b5050565b5f546040805163093a953d60e21b815290516001600160a01b03909216916391d148549183916324ea54f4916004808201926020929091908290030181865afa158015610902573d5f5f3e3d5ffd5b505050506040513d601f19601f820116820180604052508101906109269190611a30565b6040516001600160e01b031960e084901b1681526004810191909152336024820152604401602060405180830381865afa158015610966573d5f5f3e3d5ffd5b505050506040513d601f19601f8201168201806040525081019061098a9190611a47565b6109a957604051635560e16d60e01b81523360048201526024016104ea565b6109b161127d565b60405133907f14d52775fdf448adb1590a213d36c4b16e90211feebaace272ba2d196bd7c962905f90a2565b610a0760405180606001604052805f6001600160a01b031681526020015f81526020015f81525090565b506001600160a01b039081165f908152600160208181526040928390208351606081018552815490951685529182015490840152600201549082015290565b5f805460408051630ccc574960e41b815290516001600160a01b03909216916391d1485491839163ccc57490916004808201926020929091908290030181865afa158015610a96573d5f5f3e3d5ffd5b505050506040513d601f19601f82011682018060405250810190610aba9190611a30565b6040516001600160e01b031960e084901b1681526004810191909152336024820152604401602060405180830381865afa158015610afa573d5f5f3e3d5ffd5b505050506040513d601f19601f82011682018060405250810190610b1e9190611a47565b610b3d57604051630ea7d7ed60e21b81523360048201526024016104ea565b81516001600160a01b039081165f908152600160205260409020541615610b8557815160405163ca86ad5f60e01b81526001600160a01b0390911660048201526024016104ea565b60208083015183516001600160a01b03165f9081526001928390526040902090910154610bb29190611172565b81516001600160a01b039081165f9081526001602081815260408084208751815496166001600160a01b031996871681178255928801518185015581880151600291820155805493840181559093527f405787fa12a823e0f2b7631cc41b3ba8828b3321ca811111fa75cd3aa3bb5ace909101805490931617909155517fc74f22a7864325ef73181ac12dffdb2376c8c1ae1a55c09314bb85c3cb547e2c90610c5c90849061198c565b60405180910390a1506040015190565b5f5460408051630ccc574960e41b815290516001600160a01b03909216916391d1485491839163ccc57490916004808201926020929091908290030181865afa158015610cbb573d5f5f3e3d5ffd5b505050506040513d601f19601f82011682018060405250810190610cdf9190611a30565b6040516001600160e01b031960e084901b1681526004810191909152336024820152604401602060405180830381865afa158015610d1f573d5f5f3e3d5ffd5b505050506040513d601f19601f82011682018060405250810190610d439190611a47565b610d6257604051630ea7d7ed60e21b81523360048201526024016104ea565b610d6b816110ea565b6001600160a01b0381165f908152600160208190526040822080546001600160a01b03191681559081018290556002018190555b600254811015610e9357816001600160a01b031660028281548110610dc657610dc6611a1c565b5f918252602090912001546001600160a01b031603610e8b5760028054610def90600190611ad4565b81548110610dff57610dff611a1c565b5f91825260209091200154600280546001600160a01b039092169183908110610e2a57610e2a611a1c565b905f5260205f20015f6101000a8154816001600160a01b0302191690836001600160a01b031602179055506002805480610e6657610e66611ae7565b5f8281526020902081015f1990810180546001600160a01b0319169055019055610e93565b600101610d9f565b506040516001600160a01b038216907f27d83e91c23e8d23e65c7096fcf662b306a1b459d3f1f2451462ad9817449e98905f90a250565b60025460609067ffffffffffffffff811115610ee857610ee861179b565b604051908082528060200260200182016040528015610f4357816020015b610f3060405180606001604052805f6001600160a01b031681526020015f81526020015f81525090565b815260200190600190039081610f065790505b5090505f5b6002548110156103f45760015f60028381548110610f6857610f68611a1c565b5f9182526020808320909101546001600160a01b03908116845283820194909452604092830190912082516060810184528154909416845260018101549184019190915260020154908201528251839083908110610fc857610fc8611a1c565b6020908102919091010152600101610f48565b610fe36112bf565b610fec816112eb565b50565b5f7f00000000000000000000000000000000000000000000000000000000000000006001600160a01b031663f7e533ec6040518163ffffffff1660e01b8152600401602060405180830381865afa158015610363573d5f5f3e3d5ffd5b5f61105561072a565b6001600160a01b031663ab4ba0f76040518163ffffffff1660e01b81526004015f60405180830381865afa15801561108f573d5f5f3e3d5ffd5b505050506040513d5f823e601f3d908101601f191682016040526110b69190810190611afb565b9050610fec81611248565b5f6110ce6012600a611c92565b6108119083611c9d565b5f6110e38284611cb4565b9392505050565b6001600160a01b038181165f908152600160205260409020541661112c5760405163b295314d60e01b81526001600160a01b03821660048201526024016104ea565b6001600160a01b0381165f90815260016020526040902060020154421015610fec5760405163214b419b60e21b81526001600160a01b03821660048201526024016104ea565b6111838261117f5f6110c1565b1490565b8061119457506111928261171a565b155b156111b55760405163354436e360e01b8152600481018390526024016104ea565b6111d76111d26111cc6111c661038c565b856110d8565b8361173b565b61171a565b6108af5760405163b12ff28560e01b815260040160405180910390fd5b6111fc611746565b5f805460ff60a01b191690557f5db9ee0a495bf2e6ff9c91a7834c1ba4fdd244a5e8aa4e537bd38aeae4b073aa335b6040516001600160a01b03909116815260200160405180910390a1565b5f5b81518110156108af5761127582828151811061126857611268611a1c565b60200260200101516112eb565b60010161124a565b6112856112bf565b5f805460ff60a01b1916600160a01b1790557f62e78cea01bee320cd4e420270b5ea74000d11b0c9f74754ebdbfc544b05a25861122b3390565b5f54600160a01b900460ff16156112e95760405163d93c066560e01b815260040160405180910390fd5b565b6112f361072a565b6040516374e806ab60e11b81526001600160a01b038381166004830152919091169063e9d00d5690602401602060405180830381865afa158015611339573d5f5f3e3d5ffd5b505050506040513d601f19601f8201168201806040525081019061135d9190611a47565b61137a57604051635ec4fa1360e11b815260040160405180910390fd5b6040516370a0823160e01b815230600482015281905f906001600160a01b038316906370a0823190602401602060405180830381865afa1580156113c0573d5f5f3e3d5ffd5b505050506040513d601f19601f820116820180604052508101906113e49190611a30565b9050805f036114065760405163f10cc93760e01b815260040160405180910390fd5b604051635d043b2960e11b815260048101829052306024820181905260448201525f906001600160a01b0384169063ba087652906064016020604051808303815f875af1158015611459573d5f5f3e3d5ffd5b505050506040513d601f19601f8201168201806040525081019061147d9190611a30565b9050805f0361149f5760405163319f812560e21b815260040160405180910390fd5b5f836001600160a01b03166338d52e0f6040518163ffffffff1660e01b8152600401602060405180830381865afa1580156114dc573d5f5f3e3d5ffd5b505050506040513d601f19601f820116820180604052508101906115009190611a01565b90505f8061150d816110c1565b90505f5b600254811015611632575f6002828154811061152f5761152f611a1c565b5f9182526020808320909101546001600160a01b03168083526001918290526040909220015490915061156284826110d8565b93505f611580856115756012600a611c92565b61117f906064611c9d565b156115965761158f8689611ad4565b90506115a3565b6115a0888361176f565b90505b80156116275760405163a9059cbb60e01b81526001600160a01b0384811660048301526024820183905288169063a9059cbb906044016020604051808303815f875af11580156115f5573d5f5f3e3d5ffd5b505050506040513d601f19601f820116820180604052508101906116199190611a47565b506116248187611cb4565b95505b505050600101611511565b505f61163e8386611ad4565b905080156116cd57836001600160a01b031663a9059cbb61165d610787565b6040516001600160e01b031960e084901b1681526001600160a01b039091166004820152602481018490526044016020604051808303815f875af11580156116a7573d5f5f3e3d5ffd5b505050506040513d601f19601f820116820180604052508101906116cb9190611a47565b505b866001600160a01b03167fd3f5fdad4c895ab394f249ba2c358f247600664c003b17a0f4ee80309c41a3ae8660405161170891815260200190565b60405180910390a25050505050505050565b5f6108118261172b6012600a611c92565b611736906064611c9d565b101590565b5f6110e38284611ad4565b5f54600160a01b900460ff166112e957604051638dfc202b60e01b815260040160405180910390fd5b5f61177c6012600a611c92565b611787906064611c9d565b6117918385611c9d565b6110e39190611cc7565b634e487b7160e01b5f52604160045260245ffd5b604051601f8201601f1916810167ffffffffffffffff811182821017156117d8576117d861179b565b604052919050565b6001600160a01b0381168114610fec575f5ffd5b5f60608284031215611804575f5ffd5b6040516060810167ffffffffffffffff811182821017156118275761182761179b565b6040529050808235611838816117e0565b815260208381013590820152604092830135920191909152919050565b8015158114610fec575f5ffd5b5f5f60808385031215611873575f5ffd5b61187d84846117f4565b9150606083013561188d81611855565b809150509250929050565b5f602082840312156118a8575f5ffd5b5035919050565b5f5f604083850312156118c0575f5ffd5b8235600381106118ce575f5ffd5b9150602083013561188d816117e0565b5f5f602083850312156118ef575f5ffd5b823567ffffffffffffffff811115611905575f5ffd5b8301601f81018513611915575f5ffd5b803567ffffffffffffffff81111561192b575f5ffd5b8560208260051b840101111561193f575f5ffd5b6020919091019590945092505050565b5f6020828403121561195f575f5ffd5b81356110e3816117e0565b80516001600160a01b0316825260208082015190830152604090810151910152565b60608101610811828461196a565b5f606082840312156119aa575f5ffd5b6110e383836117f4565b602080825282518282018190525f918401906040840190835b818110156119f6576119e083855161196a565b60209390930192606092909201916001016119cd565b509095945050505050565b5f60208284031215611a11575f5ffd5b81516110e3816117e0565b634e487b7160e01b5f52603260045260245ffd5b5f60208284031215611a40575f5ffd5b5051919050565b5f60208284031215611a57575f5ffd5b81516110e381611855565b60c08101611a70828561196a565b6110e3606083018461196a565b5f60038410611a9a57634e487b7160e01b5f52602160045260245ffd5b5060f89290921b825260601b6bffffffffffffffffffffffff1916600182015260150190565b634e487b7160e01b5f52601160045260245ffd5b8181038181111561081157610811611ac0565b634e487b7160e01b5f52603160045260245ffd5b5f60208284031215611b0b575f5ffd5b815167ffffffffffffffff811115611b21575f5ffd5b8201601f81018413611b31575f5ffd5b805167ffffffffffffffff811115611b4b57611b4b61179b565b8060051b611b5b602082016117af565b91825260208184018101929081019087841115611b76575f5ffd5b6020850194505b83851015611ba45784519250611b92836117e0565b82825260209485019490910190611b7d565b979650505050505050565b6001815b6001841115611bea57808504811115611bce57611bce611ac0565b6001841615611bdc57908102905b60019390931c928002611bb3565b935093915050565b5f82611c0057506001610811565b81611c0c57505f610811565b8160018114611c225760028114611c2c57611c48565b6001915050610811565b60ff841115611c3d57611c3d611ac0565b50506001821b610811565b5060208310610133831016604e8410600b8410161715611c6b575081810a610811565b611c775f198484611baf565b805f1904821115611c8a57611c8a611ac0565b029392505050565b5f6110e38383611bf2565b808202811582820484141761081157610811611ac0565b8082018082111561081157610811611ac0565b5f82611ce157634e487b7160e01b5f52601260045260245ffd5b50049056fea26469706673582212205eb7fbacfd0d463fccdb65cddb1ed634101393810a9dfca23ad60fbdd09dc0c264736f6c634300081c0033","linkReferences":{}},"methodIdentifiers":{"addTipStream((address,uint256,uint256))":"908fb02d","configurationManager()":"c9c667e3","fleetCommanderRewardsManagerFactory()":"f7e533ec","generateRole(uint8,address)":"69b3054b","getAllTipStreams()":"efffce61","getTipStream(address)":"908cbdc6","getTotalAllocation()":"15d3b5d8","harborCommand()":"5b0f83f3","pause()":"8456cb59","paused()":"5c975abb","raft()":"117d8ae0","removeTipStream(address)":"bf7c1cc1","shake(address)":"f5abfe5e","shakeAll()":"fffa445e","shakeMultiple(address[])":"839b0885","tipJar()":"7aaceb95","tipStreamRecipients(uint256)":"407f25fb","tipStreams(address)":"b2cdc7db","treasury()":"61d027b3","unpause()":"3f4ba83a","updateTipStream((address,uint256,uint256),bool)":"19d8b41c"},"id":201}