{"abi":[{"type":"constructor","inputs":[{"name":"_accessManager","type":"address","internalType":"address"},{"name":"_configurationManager","type":"address","internalType":"address"}],"stateMutability":"nonpayable"},{"type":"function","name":"addTipStream","inputs":[{"name":"tipStream","type":"tuple","internalType":"struct ITipJar.TipStream","components":[{"name":"recipient","type":"address","internalType":"address"},{"name":"allocation","type":"uint256","internalType":"Percentage"},{"name":"lockedUntilEpoch","type":"uint256","internalType":"uint256"}]}],"outputs":[{"name":"lockedUntilEpoch","type":"uint256","internalType":"uint256"}],"stateMutability":"nonpayable"},{"type":"function","name":"configurationManager","inputs":[],"outputs":[{"name":"","type":"address","internalType":"contract IConfigurationManager"}],"stateMutability":"view"},{"type":"function","name":"generateRole","inputs":[{"name":"roleName","type":"uint8","internalType":"enum ContractSpecificRoles"},{"name":"roleTargetContract","type":"address","internalType":"address"}],"outputs":[{"name":"","type":"bytes32","internalType":"bytes32"}],"stateMutability":"pure"},{"type":"function","name":"getAllTipStreams","inputs":[],"outputs":[{"name":"","type":"tuple[]","internalType":"struct ITipJar.TipStream[]","components":[{"name":"recipient","type":"address","internalType":"address"},{"name":"allocation","type":"uint256","internalType":"Percentage"},{"name":"lockedUntilEpoch","type":"uint256","internalType":"uint256"}]}],"stateMutability":"view"},{"type":"function","name":"getTipStream","inputs":[{"name":"recipient","type":"address","internalType":"address"}],"outputs":[{"name":"","type":"tuple","internalType":"struct ITipJar.TipStream","components":[{"name":"recipient","type":"address","internalType":"address"},{"name":"allocation","type":"uint256","internalType":"Percentage"},{"name":"lockedUntilEpoch","type":"uint256","internalType":"uint256"}]}],"stateMutability":"view"},{"type":"function","name":"getTotalAllocation","inputs":[],"outputs":[{"name":"total","type":"uint256","internalType":"Percentage"}],"stateMutability":"view"},{"type":"function","name":"harborCommand","inputs":[],"outputs":[{"name":"","type":"address","internalType":"address"}],"stateMutability":"view"},{"type":"function","name":"raft","inputs":[],"outputs":[{"name":"","type":"address","internalType":"address"}],"stateMutability":"view"},{"type":"function","name":"removeTipStream","inputs":[{"name":"recipient","type":"address","internalType":"address"}],"outputs":[],"stateMutability":"nonpayable"},{"type":"function","name":"shake","inputs":[{"name":"fleetCommander_","type":"address","internalType":"address"}],"outputs":[],"stateMutability":"nonpayable"},{"type":"function","name":"shakeMultiple","inputs":[{"name":"fleetCommanders","type":"address[]","internalType":"address[]"}],"outputs":[],"stateMutability":"nonpayable"},{"type":"function","name":"tipJar","inputs":[],"outputs":[{"name":"","type":"address","internalType":"address"}],"stateMutability":"view"},{"type":"function","name":"tipStreamRecipients","inputs":[{"name":"","type":"uint256","internalType":"uint256"}],"outputs":[{"name":"","type":"address","internalType":"address"}],"stateMutability":"view"},{"type":"function","name":"tipStreams","inputs":[{"name":"recipient","type":"address","internalType":"address"}],"outputs":[{"name":"recipient","type":"address","internalType":"address"},{"name":"allocation","type":"uint256","internalType":"Percentage"},{"name":"lockedUntilEpoch","type":"uint256","internalType":"uint256"}],"stateMutability":"view"},{"type":"function","name":"treasury","inputs":[],"outputs":[{"name":"","type":"address","internalType":"address"}],"stateMutability":"view"},{"type":"function","name":"updateTipStream","inputs":[{"name":"tipStream","type":"tuple","internalType":"struct ITipJar.TipStream","components":[{"name":"recipient","type":"address","internalType":"address"},{"name":"allocation","type":"uint256","internalType":"Percentage"},{"name":"lockedUntilEpoch","type":"uint256","internalType":"uint256"}]}],"outputs":[],"stateMutability":"nonpayable"},{"type":"event","name":"TipJarShaken","inputs":[{"name":"fleetCommander","type":"address","indexed":true,"internalType":"address"},{"name":"totalDistributed","type":"uint256","indexed":false,"internalType":"uint256"}],"anonymous":false},{"type":"event","name":"TipStreamAdded","inputs":[{"name":"tipStream","type":"tuple","indexed":false,"internalType":"struct ITipJar.TipStream","components":[{"name":"recipient","type":"address","internalType":"address"},{"name":"allocation","type":"uint256","internalType":"Percentage"},{"name":"lockedUntilEpoch","type":"uint256","internalType":"uint256"}]}],"anonymous":false},{"type":"event","name":"TipStreamRemoved","inputs":[{"name":"recipient","type":"address","indexed":true,"internalType":"address"}],"anonymous":false},{"type":"event","name":"TipStreamUpdated","inputs":[{"name":"oldTipStream","type":"tuple","indexed":false,"internalType":"struct ITipJar.TipStream","components":[{"name":"recipient","type":"address","internalType":"address"},{"name":"allocation","type":"uint256","internalType":"Percentage"},{"name":"lockedUntilEpoch","type":"uint256","internalType":"uint256"}]},{"name":"newTipStream","type":"tuple","indexed":false,"internalType":"struct ITipJar.TipStream","components":[{"name":"recipient","type":"address","internalType":"address"},{"name":"allocation","type":"uint256","internalType":"Percentage"},{"name":"lockedUntilEpoch","type":"uint256","internalType":"uint256"}]}],"anonymous":false},{"type":"error","name":"CallerIsNotAdmin","inputs":[{"name":"caller","type":"address","internalType":"address"}]},{"type":"error","name":"CallerIsNotAuthorizedToBoard","inputs":[{"name":"caller","type":"address","internalType":"address"}]},{"type":"error","name":"CallerIsNotCommander","inputs":[{"name":"caller","type":"address","internalType":"address"}]},{"type":"error","name":"CallerIsNotContractSpecificRole","inputs":[{"name":"caller","type":"address","internalType":"address"},{"name":"role","type":"bytes32","internalType":"bytes32"}]},{"type":"error","name":"CallerIsNotCurator","inputs":[{"name":"caller","type":"address","internalType":"address"}]},{"type":"error","name":"CallerIsNotGovernor","inputs":[{"name":"caller","type":"address","internalType":"address"}]},{"type":"error","name":"CallerIsNotGuardian","inputs":[{"name":"caller","type":"address","internalType":"address"}]},{"type":"error","name":"CallerIsNotGuardianOrGovernor","inputs":[{"name":"caller","type":"address","internalType":"address"}]},{"type":"error","name":"CallerIsNotKeeper","inputs":[{"name":"caller","type":"address","internalType":"address"}]},{"type":"error","name":"CallerIsNotRaft","inputs":[{"name":"caller","type":"address","internalType":"address"}]},{"type":"error","name":"CallerIsNotRaftOrCommander","inputs":[{"name":"caller","type":"address","internalType":"address"}]},{"type":"error","name":"CallerIsNotSuperKeeper","inputs":[{"name":"caller","type":"address","internalType":"address"}]},{"type":"error","name":"ConfigurationManagerZeroAddress","inputs":[]},{"type":"error","name":"DirectGrantIsDisabled","inputs":[{"name":"caller","type":"address","internalType":"address"}]},{"type":"error","name":"DirectRevokeIsDisabled","inputs":[{"name":"caller","type":"address","internalType":"address"}]},{"type":"error","name":"InvalidAccessManagerAddress","inputs":[{"name":"invalidAddress","type":"address","internalType":"address"}]},{"type":"error","name":"InvalidFleetCommanderAddress","inputs":[]},{"type":"error","name":"InvalidRecipientAddress","inputs":[]},{"type":"error","name":"InvalidTipStreamAllocation","inputs":[{"name":"invalidAllocation","type":"uint256","internalType":"Percentage"}]},{"type":"error","name":"InvalidTreasuryAddress","inputs":[]},{"type":"error","name":"NoAssetsToDistribute","inputs":[]},{"type":"error","name":"NoSharesToRedeem","inputs":[]},{"type":"error","name":"TipStreamAlreadyExists","inputs":[{"name":"recipient","type":"address","internalType":"address"}]},{"type":"error","name":"TipStreamDoesNotExist","inputs":[{"name":"recipient","type":"address","internalType":"address"}]},{"type":"error","name":"TipStreamLocked","inputs":[{"name":"recipient","type":"address","internalType":"address"}]},{"type":"error","name":"TotalAllocationExceedsOneHundredPercent","inputs":[]}],"bytecode":{"object":"0x60a060405234801561000f575f5ffd5b5060405161191d38038061191d83398101604081905261002e9161015c565b80826001600160a01b03811661005e576040516347bd7c1d60e01b81525f60048201526024015b60405180910390fd5b6040516301ffc9a760e01b815263a237592160e01b60048201526001600160a01b038216906301ffc9a790602401602060405180830381865afa1580156100a7573d5f5f3e3d5ffd5b505050506040513d601f19601f820116820180604052508101906100cb919061018d565b6100f3576040516347bd7c1d60e01b81526001600160a01b0382166004820152602401610055565b5f80546001600160a01b0319166001600160a01b03928316179055811661012d5760405163f1634df960e01b815260040160405180910390fd5b6001600160a01b0316608052506101b39050565b80516001600160a01b0381168114610157575f5ffd5b919050565b5f5f6040838503121561016d575f5ffd5b61017683610141565b915061018460208401610141565b90509250929050565b5f6020828403121561019d575f5ffd5b815180151581146101ac575f5ffd5b9392505050565b6080516117366101e75f395f818161023601528181610296015281816103b00152818161040d015261049d01526117365ff3fe608060405234801561000f575f5ffd5b50600436106100fb575f3560e01c8063908cbdc611610093578063c9c667e311610063578063c9c667e314610231578063efffce6114610258578063f32617c91461026d578063f5abfe5e14610280575f5ffd5b8063908cbdc61461018d578063908fb02d146101ad578063b2cdc7db146101c0578063bf7c1cc11461021e575f5ffd5b806361d027b3116100ce57806361d027b31461015557806369b3054b1461015d5780637aaceb9514610170578063839b088514610178575f5ffd5b8063117d8ae0146100ff57806315d3b5d814610124578063407f25fb1461013a5780635b0f83f31461014d575b5f5ffd5b610107610293565b6040516001600160a01b0390911681526020015b60405180910390f35b61012c610319565b60405190815260200161011b565b6101076101483660046112db565b610385565b6101076103ad565b61010761040a565b61012c61016b366004611306565b610467565b61010761049a565b61018b610186366004611340565b6104f7565b005b6101a061019b3660046113b1565b61053d565b60405161011b91906113ee565b61012c6101bb366004611410565b6105a6565b6101f96101ce3660046113b1565b600160208190525f91825260409091208054918101546002909101546001600160a01b039092169183565b604080516001600160a01b03909416845260208401929092529082015260600161011b565b61018b61022c3660046113b1565b6107ce565b6101077f000000000000000000000000000000000000000000000000000000000000000081565b610260610a2c565b60405161011b919061147e565b61018b61027b366004611410565b610b45565b61018b61028e3660046113b1565b610d11565b5f7f00000000000000000000000000000000000000000000000000000000000000006001600160a01b031663117d8ae06040518163ffffffff1660e01b8152600401602060405180830381865afa1580156102f0573d5f5f3e3d5ffd5b505050506040513d601f19601f8201168201806040525081019061031491906114cb565b905090565b5f6103235f610d1d565b90505f5b600254811015610381576103778260015f6002858154811061034b5761034b6114e6565b5f9182526020808320909101546001600160a01b03168352820192909252604001902060010154610d34565b9150600101610327565b5090565b60028181548110610394575f80fd5b5f918252602090912001546001600160a01b0316905081565b5f7f00000000000000000000000000000000000000000000000000000000000000006001600160a01b0316635b0f83f36040518163ffffffff1660e01b8152600401602060405180830381865afa1580156102f0573d5f5f3e3d5ffd5b5f7f00000000000000000000000000000000000000000000000000000000000000006001600160a01b03166361d027b36040518163ffffffff1660e01b8152600401602060405180830381865afa1580156102f0573d5f5f3e3d5ffd5b5f828260405160200161047b9291906114fa565b6040516020818303038152906040528051906020012090505b92915050565b5f7f00000000000000000000000000000000000000000000000000000000000000006001600160a01b0316637aaceb956040518163ffffffff1660e01b8152600401602060405180830381865afa1580156102f0573d5f5f3e3d5ffd5b5f5b8181101561053857610530838383818110610516576105166114e6565b905060200201602081019061052b91906113b1565b610d46565b6001016104f9565b505050565b61056760405180606001604052805f6001600160a01b031681526020015f81526020015f81525090565b506001600160a01b039081165f908152600160208181526040928390208351606081018552815490951685529182015490840152600201549082015290565b5f805460408051630ccc574960e41b815290516001600160a01b03909216916391d1485491839163ccc57490916004808201926020929091908290030181865afa1580156105f6573d5f5f3e3d5ffd5b505050506040513d601f19601f8201168201806040525081019061061a919061153d565b6040516001600160e01b031960e084901b1681526004810191909152336024820152604401602060405180830381865afa15801561065a573d5f5f3e3d5ffd5b505050506040513d601f19601f8201168201806040525081019061067e9190611554565b6106a257604051630ea7d7ed60e21b81523360048201526024015b60405180910390fd5b81516001600160a01b039081165f9081526001602052604090205416156106ea57815160405163ca86ad5f60e01b81526001600160a01b039091166004820152602401610699565b60208083015183516001600160a01b03165f90815260019283905260409020909101546107179190611179565b81516001600160a01b039081165f9081526001602081815260408084208751815496166001600160a01b031996871681178255928801518185015581880151600291820155805493840181559093527f405787fa12a823e0f2b7631cc41b3ba8828b3321ca811111fa75cd3aa3bb5ace909101805490931617909155517fc74f22a7864325ef73181ac12dffdb2376c8c1ae1a55c09314bb85c3cb547e2c906107c19084906113ee565b60405180910390a1919050565b5f5460408051630ccc574960e41b815290516001600160a01b03909216916391d1485491839163ccc57490916004808201926020929091908290030181865afa15801561081d573d5f5f3e3d5ffd5b505050506040513d601f19601f82011682018060405250810190610841919061153d565b6040516001600160e01b031960e084901b1681526004810191909152336024820152604401602060405180830381865afa158015610881573d5f5f3e3d5ffd5b505050506040513d601f19601f820116820180604052508101906108a59190611554565b6108c457604051630ea7d7ed60e21b8152336004820152602401610699565b6108cd816111fb565b6001600160a01b0381165f908152600160208190526040822080546001600160a01b03191681559081018290556002018190555b6002548110156109f557816001600160a01b031660028281548110610928576109286114e6565b5f918252602090912001546001600160a01b0316036109ed576002805461095190600190611587565b81548110610961576109616114e6565b5f91825260209091200154600280546001600160a01b03909216918390811061098c5761098c6114e6565b905f5260205f20015f6101000a8154816001600160a01b0302191690836001600160a01b0316021790555060028054806109c8576109c861159a565b5f8281526020902081015f1990810180546001600160a01b03191690550190556109f5565b600101610901565b506040516001600160a01b038216907f27d83e91c23e8d23e65c7096fcf662b306a1b459d3f1f2451462ad9817449e98905f90a250565b6002546060905f9067ffffffffffffffff811115610a4c57610a4c6113fc565b604051908082528060200260200182016040528015610aa757816020015b610a9460405180606001604052805f6001600160a01b031681526020015f81526020015f81525090565b815260200190600190039081610a6a5790505b5090505f5b600254811015610b3f5760015f60028381548110610acc57610acc6114e6565b5f9182526020808320909101546001600160a01b03908116845283820194909452604092830190912082516060810184528154909416845260018101549184019190915260020154908201528251839083908110610b2c57610b2c6114e6565b6020908102919091010152600101610aac565b50919050565b5f5460408051630ccc574960e41b815290516001600160a01b03909216916391d1485491839163ccc57490916004808201926020929091908290030181865afa158015610b94573d5f5f3e3d5ffd5b505050506040513d601f19601f82011682018060405250810190610bb8919061153d565b6040516001600160e01b031960e084901b1681526004810191909152336024820152604401602060405180830381865afa158015610bf8573d5f5f3e3d5ffd5b505050506040513d601f19601f82011682018060405250810190610c1c9190611554565b610c3b57604051630ea7d7ed60e21b8152336004820152602401610699565b8051610c46906111fb565b80516001600160a01b039081165f90815260016020818152604092839020835160608101855281549095168552918201548482018190526002909201549284019290925290830151610c989082611179565b60208084015184516001600160a01b039081165f90815260019384905260408082209094019290925582860151865190911682529082902060020155517ff98da2985cf0f5057e1736402dc428a8e3b5e75cbb807bfd12fc7a438e0c33e290610d0490849086906115ae565b60405180910390a1505050565b610d1a81610d46565b50565b5f610d2a6012600a6116ac565b61049490836116b7565b5f610d3f82846116ce565b9392505050565b610d4e6103ad565b6040516374e806ab60e11b81526001600160a01b038381166004830152919091169063e9d00d5690602401602060405180830381865afa158015610d94573d5f5f3e3d5ffd5b505050506040513d601f19601f82011682018060405250810190610db89190611554565b610dd557604051635ec4fa1360e11b815260040160405180910390fd5b6040516370a0823160e01b815230600482015281905f906001600160a01b038316906370a0823190602401602060405180830381865afa158015610e1b573d5f5f3e3d5ffd5b505050506040513d601f19601f82011682018060405250810190610e3f919061153d565b9050805f03610e615760405163f10cc93760e01b815260040160405180910390fd5b604051635d043b2960e11b815260048101829052306024820181905260448201525f906001600160a01b0384169063ba087652906064016020604051808303815f875af1158015610eb4573d5f5f3e3d5ffd5b505050506040513d601f19601f82011682018060405250810190610ed8919061153d565b9050805f03610efa5760405163319f812560e21b815260040160405180910390fd5b5f836001600160a01b03166338d52e0f6040518163ffffffff1660e01b8152600401602060405180830381865afa158015610f37573d5f5f3e3d5ffd5b505050506040513d601f19601f82011682018060405250810190610f5b91906114cb565b90505f80610f6881610d1d565b90505f5b600254811015611091575f60028281548110610f8a57610f8a6114e6565b5f9182526020808320909101546001600160a01b031680835260019182905260409092200154909150610fbd8482610d34565b93505f610fdf85610fd06012600a6116ac565b610fdb9060646116b7565b1490565b15610ff557610fee8689611587565b9050611002565b610fff8883611283565b90505b80156110865760405163a9059cbb60e01b81526001600160a01b0384811660048301526024820183905288169063a9059cbb906044016020604051808303815f875af1158015611054573d5f5f3e3d5ffd5b505050506040513d601f19601f820116820180604052508101906110789190611554565b5061108381876116ce565b95505b505050600101610f6c565b505f61109d8386611587565b9050801561112c57836001600160a01b031663a9059cbb6110bc61040a565b6040516001600160e01b031960e084901b1681526001600160a01b039091166004820152602481018490526044016020604051808303815f875af1158015611106573d5f5f3e3d5ffd5b505050506040513d601f19601f8201168201806040525081019061112a9190611554565b505b866001600160a01b03167fd3f5fdad4c895ab394f249ba2c358f247600664c003b17a0f4ee80309c41a3ae8660405161116791815260200190565b60405180910390a25050505050505050565b61118682610fdb5f610d1d565b806111975750611195826112af565b155b156111b85760405163354436e360e01b815260048101839052602401610699565b6111da6111d56111cf6111c9610319565b85610d34565b836112d0565b6112af565b6111f75760405163b12ff28560e01b815260040160405180910390fd5b5050565b6001600160a01b038181165f908152600160205260409020541661123d5760405163b295314d60e01b81526001600160a01b0382166004820152602401610699565b6001600160a01b0381165f90815260016020526040902060020154421015610d1a5760405163214b419b60e21b81526001600160a01b0382166004820152602401610699565b5f6112906012600a6116ac565b61129b9060646116b7565b6112a583856116b7565b610d3f91906116e1565b5f610494826112c06012600a6116ac565b6112cb9060646116b7565b101590565b5f610d3f8284611587565b5f602082840312156112eb575f5ffd5b5035919050565b6001600160a01b0381168114610d1a575f5ffd5b5f5f60408385031215611317575f5ffd5b823560038110611325575f5ffd5b91506020830135611335816112f2565b809150509250929050565b5f5f60208385031215611351575f5ffd5b823567ffffffffffffffff811115611367575f5ffd5b8301601f81018513611377575f5ffd5b803567ffffffffffffffff81111561138d575f5ffd5b8560208260051b84010111156113a1575f5ffd5b6020919091019590945092505050565b5f602082840312156113c1575f5ffd5b8135610d3f816112f2565b80516001600160a01b0316825260208082015190830152604090810151910152565b6060810161049482846113cc565b634e487b7160e01b5f52604160045260245ffd5b5f6060828403128015611421575f5ffd5b506040516060810167ffffffffffffffff8111828210171561145157634e487b7160e01b5f52604160045260245ffd5b604052823561145f816112f2565b8152602083810135908201526040928301359281019290925250919050565b602080825282518282018190525f918401906040840190835b818110156114c0576114aa8385516113cc565b6020939093019260609290920191600101611497565b509095945050505050565b5f602082840312156114db575f5ffd5b8151610d3f816112f2565b634e487b7160e01b5f52603260045260245ffd5b5f6003841061151757634e487b7160e01b5f52602160045260245ffd5b5060f89290921b825260601b6bffffffffffffffffffffffff1916600182015260150190565b5f6020828403121561154d575f5ffd5b5051919050565b5f60208284031215611564575f5ffd5b81518015158114610d3f575f5ffd5b634e487b7160e01b5f52601160045260245ffd5b8181038181111561049457610494611573565b634e487b7160e01b5f52603160045260245ffd5b60c081016115bc82856113cc565b610d3f60608301846113cc565b6001815b6001841115611604578085048111156115e8576115e8611573565b60018416156115f657908102905b60019390931c9280026115cd565b935093915050565b5f8261161a57506001610494565b8161162657505f610494565b816001811461163c576002811461164657611662565b6001915050610494565b60ff84111561165757611657611573565b50506001821b610494565b5060208310610133831016604e8410600b8410161715611685575081810a610494565b6116915f1984846115c9565b805f19048211156116a4576116a4611573565b029392505050565b5f610d3f838361160c565b808202811582820484141761049457610494611573565b8082018082111561049457610494611573565b5f826116fb57634e487b7160e01b5f52601260045260245ffd5b50049056fea264697066735822122029f3a3e3023ccdc38a6bae8c654879f51ccf5b6e966a1abc1fdbd9217d634af464736f6c634300081b0033","linkReferences":{}},"methodIdentifiers":{"addTipStream((address,uint256,uint256))":"908fb02d","configurationManager()":"c9c667e3","generateRole(uint8,address)":"69b3054b","getAllTipStreams()":"efffce61","getTipStream(address)":"908cbdc6","getTotalAllocation()":"15d3b5d8","harborCommand()":"5b0f83f3","raft()":"117d8ae0","removeTipStream(address)":"bf7c1cc1","shake(address)":"f5abfe5e","shakeMultiple(address[])":"839b0885","tipJar()":"7aaceb95","tipStreamRecipients(uint256)":"407f25fb","tipStreams(address)":"b2cdc7db","treasury()":"61d027b3","updateTipStream((address,uint256,uint256))":"f32617c9"},"id":164}