{"abi":[{"type":"constructor","inputs":[{"name":"_accessManager","type":"address","internalType":"address"},{"name":"_configurationManager","type":"address","internalType":"address"}],"stateMutability":"nonpayable"},{"type":"function","name":"addTipStream","inputs":[{"name":"tipStream","type":"tuple","internalType":"struct ITipJar.TipStream","components":[{"name":"recipient","type":"address","internalType":"address"},{"name":"allocation","type":"uint256","internalType":"Percentage"},{"name":"lockedUntilEpoch","type":"uint256","internalType":"uint256"}]}],"outputs":[{"name":"lockedUntilEpoch","type":"uint256","internalType":"uint256"}],"stateMutability":"nonpayable"},{"type":"function","name":"configurationManager","inputs":[],"outputs":[{"name":"","type":"address","internalType":"contract IConfigurationManager"}],"stateMutability":"view"},{"type":"function","name":"generateRole","inputs":[{"name":"roleName","type":"uint8","internalType":"enum ContractSpecificRoles"},{"name":"roleTargetContract","type":"address","internalType":"address"}],"outputs":[{"name":"","type":"bytes32","internalType":"bytes32"}],"stateMutability":"pure"},{"type":"function","name":"getAllTipStreams","inputs":[],"outputs":[{"name":"allStreams","type":"tuple[]","internalType":"struct ITipJar.TipStream[]","components":[{"name":"recipient","type":"address","internalType":"address"},{"name":"allocation","type":"uint256","internalType":"Percentage"},{"name":"lockedUntilEpoch","type":"uint256","internalType":"uint256"}]}],"stateMutability":"view"},{"type":"function","name":"getTipStream","inputs":[{"name":"recipient","type":"address","internalType":"address"}],"outputs":[{"name":"","type":"tuple","internalType":"struct ITipJar.TipStream","components":[{"name":"recipient","type":"address","internalType":"address"},{"name":"allocation","type":"uint256","internalType":"Percentage"},{"name":"lockedUntilEpoch","type":"uint256","internalType":"uint256"}]}],"stateMutability":"view"},{"type":"function","name":"getTotalAllocation","inputs":[],"outputs":[{"name":"total","type":"uint256","internalType":"Percentage"}],"stateMutability":"view"},{"type":"function","name":"harborCommand","inputs":[],"outputs":[{"name":"","type":"address","internalType":"address"}],"stateMutability":"view"},{"type":"function","name":"pause","inputs":[],"outputs":[],"stateMutability":"nonpayable"},{"type":"function","name":"paused","inputs":[],"outputs":[{"name":"","type":"bool","internalType":"bool"}],"stateMutability":"view"},{"type":"function","name":"raft","inputs":[],"outputs":[{"name":"","type":"address","internalType":"address"}],"stateMutability":"view"},{"type":"function","name":"removeTipStream","inputs":[{"name":"recipient","type":"address","internalType":"address"}],"outputs":[],"stateMutability":"nonpayable"},{"type":"function","name":"shake","inputs":[{"name":"fleetCommander_","type":"address","internalType":"address"}],"outputs":[],"stateMutability":"nonpayable"},{"type":"function","name":"shakeAll","inputs":[],"outputs":[],"stateMutability":"nonpayable"},{"type":"function","name":"shakeMultiple","inputs":[{"name":"fleetCommanders","type":"address[]","internalType":"address[]"}],"outputs":[],"stateMutability":"nonpayable"},{"type":"function","name":"tipJar","inputs":[],"outputs":[{"name":"","type":"address","internalType":"address"}],"stateMutability":"view"},{"type":"function","name":"tipStreamRecipients","inputs":[{"name":"","type":"uint256","internalType":"uint256"}],"outputs":[{"name":"","type":"address","internalType":"address"}],"stateMutability":"view"},{"type":"function","name":"tipStreams","inputs":[{"name":"recipient","type":"address","internalType":"address"}],"outputs":[{"name":"recipient","type":"address","internalType":"address"},{"name":"allocation","type":"uint256","internalType":"Percentage"},{"name":"lockedUntilEpoch","type":"uint256","internalType":"uint256"}],"stateMutability":"view"},{"type":"function","name":"treasury","inputs":[],"outputs":[{"name":"","type":"address","internalType":"address"}],"stateMutability":"view"},{"type":"function","name":"unpause","inputs":[],"outputs":[],"stateMutability":"nonpayable"},{"type":"function","name":"updateTipStream","inputs":[{"name":"tipStream","type":"tuple","internalType":"struct ITipJar.TipStream","components":[{"name":"recipient","type":"address","internalType":"address"},{"name":"allocation","type":"uint256","internalType":"Percentage"},{"name":"lockedUntilEpoch","type":"uint256","internalType":"uint256"}]},{"name":"shakeAllFleetCommanders","type":"bool","internalType":"bool"}],"outputs":[],"stateMutability":"nonpayable"},{"type":"event","name":"Paused","inputs":[{"name":"account","type":"address","indexed":false,"internalType":"address"}],"anonymous":false},{"type":"event","name":"TipJarPaused","inputs":[{"name":"account","type":"address","indexed":true,"internalType":"address"}],"anonymous":false},{"type":"event","name":"TipJarShaken","inputs":[{"name":"fleetCommander","type":"address","indexed":true,"internalType":"address"},{"name":"totalDistributed","type":"uint256","indexed":false,"internalType":"uint256"}],"anonymous":false},{"type":"event","name":"TipJarUnpaused","inputs":[{"name":"account","type":"address","indexed":true,"internalType":"address"}],"anonymous":false},{"type":"event","name":"TipStreamAdded","inputs":[{"name":"tipStream","type":"tuple","indexed":false,"internalType":"struct ITipJar.TipStream","components":[{"name":"recipient","type":"address","internalType":"address"},{"name":"allocation","type":"uint256","internalType":"Percentage"},{"name":"lockedUntilEpoch","type":"uint256","internalType":"uint256"}]}],"anonymous":false},{"type":"event","name":"TipStreamRemoved","inputs":[{"name":"recipient","type":"address","indexed":true,"internalType":"address"}],"anonymous":false},{"type":"event","name":"TipStreamUpdated","inputs":[{"name":"oldTipStream","type":"tuple","indexed":false,"internalType":"struct ITipJar.TipStream","components":[{"name":"recipient","type":"address","internalType":"address"},{"name":"allocation","type":"uint256","internalType":"Percentage"},{"name":"lockedUntilEpoch","type":"uint256","internalType":"uint256"}]},{"name":"newTipStream","type":"tuple","indexed":false,"internalType":"struct ITipJar.TipStream","components":[{"name":"recipient","type":"address","internalType":"address"},{"name":"allocation","type":"uint256","internalType":"Percentage"},{"name":"lockedUntilEpoch","type":"uint256","internalType":"uint256"}]}],"anonymous":false},{"type":"event","name":"Unpaused","inputs":[{"name":"account","type":"address","indexed":false,"internalType":"address"}],"anonymous":false},{"type":"error","name":"CallerIsNotAdmin","inputs":[{"name":"caller","type":"address","internalType":"address"}]},{"type":"error","name":"CallerIsNotAuthorizedToBoard","inputs":[{"name":"caller","type":"address","internalType":"address"}]},{"type":"error","name":"CallerIsNotCommander","inputs":[{"name":"caller","type":"address","internalType":"address"}]},{"type":"error","name":"CallerIsNotContractSpecificRole","inputs":[{"name":"caller","type":"address","internalType":"address"},{"name":"role","type":"bytes32","internalType":"bytes32"}]},{"type":"error","name":"CallerIsNotCurator","inputs":[{"name":"caller","type":"address","internalType":"address"}]},{"type":"error","name":"CallerIsNotGovernor","inputs":[{"name":"caller","type":"address","internalType":"address"}]},{"type":"error","name":"CallerIsNotGuardian","inputs":[{"name":"caller","type":"address","internalType":"address"}]},{"type":"error","name":"CallerIsNotGuardianOrGovernor","inputs":[{"name":"caller","type":"address","internalType":"address"}]},{"type":"error","name":"CallerIsNotKeeper","inputs":[{"name":"caller","type":"address","internalType":"address"}]},{"type":"error","name":"CallerIsNotRaft","inputs":[{"name":"caller","type":"address","internalType":"address"}]},{"type":"error","name":"CallerIsNotRaftOrCommander","inputs":[{"name":"caller","type":"address","internalType":"address"}]},{"type":"error","name":"CallerIsNotSuperKeeper","inputs":[{"name":"caller","type":"address","internalType":"address"}]},{"type":"error","name":"ConfigurationManagerZeroAddress","inputs":[]},{"type":"error","name":"DirectGrantIsDisabled","inputs":[{"name":"caller","type":"address","internalType":"address"}]},{"type":"error","name":"DirectRevokeIsDisabled","inputs":[{"name":"caller","type":"address","internalType":"address"}]},{"type":"error","name":"EnforcedPause","inputs":[]},{"type":"error","name":"ExpectedPause","inputs":[]},{"type":"error","name":"InvalidAccessManagerAddress","inputs":[{"name":"invalidAddress","type":"address","internalType":"address"}]},{"type":"error","name":"InvalidFleetCommanderAddress","inputs":[]},{"type":"error","name":"InvalidRecipientAddress","inputs":[]},{"type":"error","name":"InvalidTipStreamAllocation","inputs":[{"name":"invalidAllocation","type":"uint256","internalType":"Percentage"}]},{"type":"error","name":"InvalidTreasuryAddress","inputs":[]},{"type":"error","name":"NoAssetsToDistribute","inputs":[]},{"type":"error","name":"NoSharesToRedeem","inputs":[]},{"type":"error","name":"TipStreamAlreadyExists","inputs":[{"name":"recipient","type":"address","internalType":"address"}]},{"type":"error","name":"TipStreamDoesNotExist","inputs":[{"name":"recipient","type":"address","internalType":"address"}]},{"type":"error","name":"TipStreamLocked","inputs":[{"name":"recipient","type":"address","internalType":"address"}]},{"type":"error","name":"TotalAllocationExceedsOneHundredPercent","inputs":[]}],"bytecode":{"object":"0x60a060405234801561000f575f5ffd5b50604051611e9e380380611e9e83398101604081905261002e91610167565b80826001600160a01b03811661005e576040516347bd7c1d60e01b81525f60048201526024015b60405180910390fd5b6040516301ffc9a760e01b815263fe1a291f60e01b60048201526001600160a01b038216906301ffc9a790602401602060405180830381865afa1580156100a7573d5f5f3e3d5ffd5b505050506040513d601f19601f820116820180604052508101906100cb9190610198565b6100f3576040516347bd7c1d60e01b81526001600160a01b0382166004820152602401610055565b5f80546001600160a01b0319166001600160a01b03928316179055811661012d5760405163f1634df960e01b815260040160405180910390fd5b6001600160a01b031660805250505f805460ff60a01b191690556101be565b80516001600160a01b0381168114610162575f5ffd5b919050565b5f5f60408385031215610178575f5ffd5b6101818361014c565b915061018f6020840161014c565b90509250929050565b5f602082840312156101a8575f5ffd5b815180151581146101b7575f5ffd5b9392505050565b608051611cac6101f25f395f81816102a1015281816102f60152818161071a0152818161077701526108070152611cac5ff3fe608060405234801561000f575f5ffd5b5060043610610127575f3560e01c8063839b0885116100a9578063bf7c1cc11161006e578063bf7c1cc114610289578063c9c667e31461029c578063efffce61146102c3578063f5abfe5e146102d8578063fffa445e146102eb575f5ffd5b8063839b0885146101dd5780638456cb59146101f0578063908cbdc6146101f8578063908fb02d14610218578063b2cdc7db1461022b575f5ffd5b80635b0f83f3116100ef5780635b0f83f3146101965780635c975abb1461019e57806361d027b3146101ba57806369b3054b146101c25780637aaceb95146101d5575f5ffd5b8063117d8ae01461012b57806315d3b5d81461015057806319d8b41c146101665780633f4ba83a1461017b578063407f25fb14610183575b5f5ffd5b6101336102f3565b6040516001600160a01b0390911681526020015b60405180910390f35b610158610379565b604051908152602001610147565b6101796101743660046117f2565b6103e5565b005b6101796105c5565b610133610191366004611828565b6106ef565b610133610717565b5f54600160a01b900460ff166040519015158152602001610147565b610133610774565b6101586101d036600461183f565b6107d1565b610133610804565b6101796101eb36600461186e565b610861565b6101796108a0565b61020b6102063660046118df565b6109ca565b604051610147919061191c565b61015861022636600461192a565b610a33565b6102646102393660046118df565b600160208190525f91825260409091208054918101546002909101546001600160a01b039092169183565b604080516001600160a01b039094168452602084019290925290820152606001610147565b6101796102973660046118df565b610c59565b6101337f000000000000000000000000000000000000000000000000000000000000000081565b6102cb610eb7565b6040516101479190611944565b6101796102e63660046118df565b610fc8565b610179610fdc565b5f7f00000000000000000000000000000000000000000000000000000000000000006001600160a01b031663117d8ae06040518163ffffffff1660e01b8152600401602060405180830381865afa158015610350573d5f5f3e3d5ffd5b505050506040513d601f19601f820116820180604052508101906103749190611991565b905090565b5f6103835f611051565b90505f5b6002548110156103e1576103d78260015f600285815481106103ab576103ab6119ac565b5f9182526020808320909101546001600160a01b03168352820192909252604001902060010154611068565b9150600101610387565b5090565b5f5460408051630ccc574960e41b815290516001600160a01b03909216916391d1485491839163ccc57490916004808201926020929091908290030181865afa158015610434573d5f5f3e3d5ffd5b505050506040513d601f19601f8201168201806040525081019061045891906119c0565b6040516001600160e01b031960e084901b1681526004810191909152336024820152604401602060405180830381865afa158015610498573d5f5f3e3d5ffd5b505050506040513d601f19601f820116820180604052508101906104bc91906119d7565b6104e057604051630ea7d7ed60e21b81523360048201526024015b60405180910390fd5b81516104eb9061107a565b81516001600160a01b039081165f9081526001602081815260409283902083516060810185528154909516855291820154848201819052600290920154928401929092529084015161053d9082611102565b821561054b5761054b610fdc565b60208085015185516001600160a01b039081165f90815260019384905260408082209094019290925582870151875190911682529082902060020155517ff98da2985cf0f5057e1736402dc428a8e3b5e75cbb807bfd12fc7a438e0c33e2906105b790849087906119f2565b60405180910390a150505050565b5f5460408051630ccc574960e41b815290516001600160a01b03909216916391d1485491839163ccc57490916004808201926020929091908290030181865afa158015610614573d5f5f3e3d5ffd5b505050506040513d601f19601f8201168201806040525081019061063891906119c0565b6040516001600160e01b031960e084901b1681526004810191909152336024820152604401602060405180830381865afa158015610678573d5f5f3e3d5ffd5b505050506040513d601f19601f8201168201806040525081019061069c91906119d7565b6106bb57604051630ea7d7ed60e21b81523360048201526024016104d7565b6106c3611184565b60405133907fd57b21780f69067eafb3fc443fd50132e616575b1143938eb3e43a56047c8547905f90a2565b600281815481106106fe575f80fd5b5f918252602090912001546001600160a01b0316905081565b5f7f00000000000000000000000000000000000000000000000000000000000000006001600160a01b0316635b0f83f36040518163ffffffff1660e01b8152600401602060405180830381865afa158015610350573d5f5f3e3d5ffd5b5f7f00000000000000000000000000000000000000000000000000000000000000006001600160a01b03166361d027b36040518163ffffffff1660e01b8152600401602060405180830381865afa158015610350573d5f5f3e3d5ffd5b5f82826040516020016107e5929190611a0d565b6040516020818303038152906040528051906020012090505b92915050565b5f7f00000000000000000000000000000000000000000000000000000000000000006001600160a01b0316637aaceb956040518163ffffffff1660e01b8152600401602060405180830381865afa158015610350573d5f5f3e3d5ffd5b61089c8282808060200260200160405190810160405280939291908181526020018383602002808284375f920191909152506111d892505050565b5050565b5f546040805163093a953d60e21b815290516001600160a01b03909216916391d148549183916324ea54f4916004808201926020929091908290030181865afa1580156108ef573d5f5f3e3d5ffd5b505050506040513d601f19601f8201168201806040525081019061091391906119c0565b6040516001600160e01b031960e084901b1681526004810191909152336024820152604401602060405180830381865afa158015610953573d5f5f3e3d5ffd5b505050506040513d601f19601f8201168201806040525081019061097791906119d7565b61099657604051635560e16d60e01b81523360048201526024016104d7565b61099e61120d565b60405133907f14d52775fdf448adb1590a213d36c4b16e90211feebaace272ba2d196bd7c962905f90a2565b6109f460405180606001604052805f6001600160a01b031681526020015f81526020015f81525090565b506001600160a01b039081165f908152600160208181526040928390208351606081018552815490951685529182015490840152600201549082015290565b5f805460408051630ccc574960e41b815290516001600160a01b03909216916391d1485491839163ccc57490916004808201926020929091908290030181865afa158015610a83573d5f5f3e3d5ffd5b505050506040513d601f19601f82011682018060405250810190610aa791906119c0565b6040516001600160e01b031960e084901b1681526004810191909152336024820152604401602060405180830381865afa158015610ae7573d5f5f3e3d5ffd5b505050506040513d601f19601f82011682018060405250810190610b0b91906119d7565b610b2a57604051630ea7d7ed60e21b81523360048201526024016104d7565b81516001600160a01b039081165f908152600160205260409020541615610b7257815160405163ca86ad5f60e01b81526001600160a01b0390911660048201526024016104d7565b60208083015183516001600160a01b03165f9081526001928390526040902090910154610b9f9190611102565b81516001600160a01b039081165f9081526001602081815260408084208751815496166001600160a01b031996871681178255928801518185015581880151600291820155805493840181559093527f405787fa12a823e0f2b7631cc41b3ba8828b3321ca811111fa75cd3aa3bb5ace909101805490931617909155517fc74f22a7864325ef73181ac12dffdb2376c8c1ae1a55c09314bb85c3cb547e2c90610c4990849061191c565b60405180910390a1506040015190565b5f5460408051630ccc574960e41b815290516001600160a01b03909216916391d1485491839163ccc57490916004808201926020929091908290030181865afa158015610ca8573d5f5f3e3d5ffd5b505050506040513d601f19601f82011682018060405250810190610ccc91906119c0565b6040516001600160e01b031960e084901b1681526004810191909152336024820152604401602060405180830381865afa158015610d0c573d5f5f3e3d5ffd5b505050506040513d601f19601f82011682018060405250810190610d3091906119d7565b610d4f57604051630ea7d7ed60e21b81523360048201526024016104d7565b610d588161107a565b6001600160a01b0381165f908152600160208190526040822080546001600160a01b03191681559081018290556002018190555b600254811015610e8057816001600160a01b031660028281548110610db357610db36119ac565b5f918252602090912001546001600160a01b031603610e785760028054610ddc90600190611a64565b81548110610dec57610dec6119ac565b5f91825260209091200154600280546001600160a01b039092169183908110610e1757610e176119ac565b905f5260205f20015f6101000a8154816001600160a01b0302191690836001600160a01b031602179055506002805480610e5357610e53611a77565b5f8281526020902081015f1990810180546001600160a01b0319169055019055610e80565b600101610d8c565b506040516001600160a01b038216907f27d83e91c23e8d23e65c7096fcf662b306a1b459d3f1f2451462ad9817449e98905f90a250565b60025460609067ffffffffffffffff811115610ed557610ed561172b565b604051908082528060200260200182016040528015610f3057816020015b610f1d60405180606001604052805f6001600160a01b031681526020015f81526020015f81525090565b815260200190600190039081610ef35790505b5090505f5b6002548110156103e15760015f60028381548110610f5557610f556119ac565b5f9182526020808320909101546001600160a01b03908116845283820194909452604092830190912082516060810184528154909416845260018101549184019190915260020154908201528251839083908110610fb557610fb56119ac565b6020908102919091010152600101610f35565b610fd061124f565b610fd98161127b565b50565b5f610fe5610717565b6001600160a01b031663ab4ba0f76040518163ffffffff1660e01b81526004015f60405180830381865afa15801561101f573d5f5f3e3d5ffd5b505050506040513d5f823e601f3d908101601f191682016040526110469190810190611a8b565b9050610fd9816111d8565b5f61105e6012600a611c22565b6107fe9083611c2d565b5f6110738284611c44565b9392505050565b6001600160a01b038181165f90815260016020526040902054166110bc5760405163b295314d60e01b81526001600160a01b03821660048201526024016104d7565b6001600160a01b0381165f90815260016020526040902060020154421015610fd95760405163214b419b60e21b81526001600160a01b03821660048201526024016104d7565b6111138261110f5f611051565b1490565b806111245750611122826116aa565b155b156111455760405163354436e360e01b8152600481018390526024016104d7565b61116761116261115c611156610379565b85611068565b836116cb565b6116aa565b61089c5760405163b12ff28560e01b815260040160405180910390fd5b61118c6116d6565b5f805460ff60a01b191690557f5db9ee0a495bf2e6ff9c91a7834c1ba4fdd244a5e8aa4e537bd38aeae4b073aa335b6040516001600160a01b03909116815260200160405180910390a1565b5f5b815181101561089c576112058282815181106111f8576111f86119ac565b602002602001015161127b565b6001016111da565b61121561124f565b5f805460ff60a01b1916600160a01b1790557f62e78cea01bee320cd4e420270b5ea74000d11b0c9f74754ebdbfc544b05a2586111bb3390565b5f54600160a01b900460ff16156112795760405163d93c066560e01b815260040160405180910390fd5b565b611283610717565b6040516374e806ab60e11b81526001600160a01b038381166004830152919091169063e9d00d5690602401602060405180830381865afa1580156112c9573d5f5f3e3d5ffd5b505050506040513d601f19601f820116820180604052508101906112ed91906119d7565b61130a57604051635ec4fa1360e11b815260040160405180910390fd5b6040516370a0823160e01b815230600482015281905f906001600160a01b038316906370a0823190602401602060405180830381865afa158015611350573d5f5f3e3d5ffd5b505050506040513d601f19601f8201168201806040525081019061137491906119c0565b9050805f036113965760405163f10cc93760e01b815260040160405180910390fd5b604051635d043b2960e11b815260048101829052306024820181905260448201525f906001600160a01b0384169063ba087652906064016020604051808303815f875af11580156113e9573d5f5f3e3d5ffd5b505050506040513d601f19601f8201168201806040525081019061140d91906119c0565b9050805f0361142f5760405163319f812560e21b815260040160405180910390fd5b5f836001600160a01b03166338d52e0f6040518163ffffffff1660e01b8152600401602060405180830381865afa15801561146c573d5f5f3e3d5ffd5b505050506040513d601f19601f820116820180604052508101906114909190611991565b90505f8061149d81611051565b90505f5b6002548110156115c2575f600282815481106114bf576114bf6119ac565b5f9182526020808320909101546001600160a01b0316808352600191829052604090922001549091506114f28482611068565b93505f611510856115056012600a611c22565b61110f906064611c2d565b156115265761151f8689611a64565b9050611533565b61153088836116ff565b90505b80156115b75760405163a9059cbb60e01b81526001600160a01b0384811660048301526024820183905288169063a9059cbb906044016020604051808303815f875af1158015611585573d5f5f3e3d5ffd5b505050506040513d601f19601f820116820180604052508101906115a991906119d7565b506115b48187611c44565b95505b5050506001016114a1565b505f6115ce8386611a64565b9050801561165d57836001600160a01b031663a9059cbb6115ed610774565b6040516001600160e01b031960e084901b1681526001600160a01b039091166004820152602481018490526044016020604051808303815f875af1158015611637573d5f5f3e3d5ffd5b505050506040513d601f19601f8201168201806040525081019061165b91906119d7565b505b866001600160a01b03167fd3f5fdad4c895ab394f249ba2c358f247600664c003b17a0f4ee80309c41a3ae8660405161169891815260200190565b60405180910390a25050505050505050565b5f6107fe826116bb6012600a611c22565b6116c6906064611c2d565b101590565b5f6110738284611a64565b5f54600160a01b900460ff1661127957604051638dfc202b60e01b815260040160405180910390fd5b5f61170c6012600a611c22565b611717906064611c2d565b6117218385611c2d565b6110739190611c57565b634e487b7160e01b5f52604160045260245ffd5b604051601f8201601f1916810167ffffffffffffffff811182821017156117685761176861172b565b604052919050565b6001600160a01b0381168114610fd9575f5ffd5b5f60608284031215611794575f5ffd5b6040516060810167ffffffffffffffff811182821017156117b7576117b761172b565b60405290508082356117c881611770565b815260208381013590820152604092830135920191909152919050565b8015158114610fd9575f5ffd5b5f5f60808385031215611803575f5ffd5b61180d8484611784565b9150606083013561181d816117e5565b809150509250929050565b5f60208284031215611838575f5ffd5b5035919050565b5f5f60408385031215611850575f5ffd5b82356003811061185e575f5ffd5b9150602083013561181d81611770565b5f5f6020838503121561187f575f5ffd5b823567ffffffffffffffff811115611895575f5ffd5b8301601f810185136118a5575f5ffd5b803567ffffffffffffffff8111156118bb575f5ffd5b8560208260051b84010111156118cf575f5ffd5b6020919091019590945092505050565b5f602082840312156118ef575f5ffd5b813561107381611770565b80516001600160a01b0316825260208082015190830152604090810151910152565b606081016107fe82846118fa565b5f6060828403121561193a575f5ffd5b6110738383611784565b602080825282518282018190525f918401906040840190835b81811015611986576119708385516118fa565b602093909301926060929092019160010161195d565b509095945050505050565b5f602082840312156119a1575f5ffd5b815161107381611770565b634e487b7160e01b5f52603260045260245ffd5b5f602082840312156119d0575f5ffd5b5051919050565b5f602082840312156119e7575f5ffd5b8151611073816117e5565b60c08101611a0082856118fa565b61107360608301846118fa565b5f60038410611a2a57634e487b7160e01b5f52602160045260245ffd5b5060f89290921b825260601b6bffffffffffffffffffffffff1916600182015260150190565b634e487b7160e01b5f52601160045260245ffd5b818103818111156107fe576107fe611a50565b634e487b7160e01b5f52603160045260245ffd5b5f60208284031215611a9b575f5ffd5b815167ffffffffffffffff811115611ab1575f5ffd5b8201601f81018413611ac1575f5ffd5b805167ffffffffffffffff811115611adb57611adb61172b565b8060051b611aeb6020820161173f565b91825260208184018101929081019087841115611b06575f5ffd5b6020850194505b83851015611b345784519250611b2283611770565b82825260209485019490910190611b0d565b979650505050505050565b6001815b6001841115611b7a57808504811115611b5e57611b5e611a50565b6001841615611b6c57908102905b60019390931c928002611b43565b935093915050565b5f82611b90575060016107fe565b81611b9c57505f6107fe565b8160018114611bb25760028114611bbc57611bd8565b60019150506107fe565b60ff841115611bcd57611bcd611a50565b50506001821b6107fe565b5060208310610133831016604e8410600b8410161715611bfb575081810a6107fe565b611c075f198484611b3f565b805f1904821115611c1a57611c1a611a50565b029392505050565b5f6110738383611b82565b80820281158282048414176107fe576107fe611a50565b808201808211156107fe576107fe611a50565b5f82611c7157634e487b7160e01b5f52601260045260245ffd5b50049056fea264697066735822122087f25bcd1593fcd1d925649e0c60131b5f928d478301a2470805a7740aaa9a7364736f6c634300081c0033","linkReferences":{}},"methodIdentifiers":{"addTipStream((address,uint256,uint256))":"908fb02d","configurationManager()":"c9c667e3","generateRole(uint8,address)":"69b3054b","getAllTipStreams()":"efffce61","getTipStream(address)":"908cbdc6","getTotalAllocation()":"15d3b5d8","harborCommand()":"5b0f83f3","pause()":"8456cb59","paused()":"5c975abb","raft()":"117d8ae0","removeTipStream(address)":"bf7c1cc1","shake(address)":"f5abfe5e","shakeAll()":"fffa445e","shakeMultiple(address[])":"839b0885","tipJar()":"7aaceb95","tipStreamRecipients(uint256)":"407f25fb","tipStreams(address)":"b2cdc7db","treasury()":"61d027b3","unpause()":"3f4ba83a","updateTipStream((address,uint256,uint256),bool)":"19d8b41c"},"id":196}