{"abi":[{"type":"constructor","inputs":[{"name":"accessManager","type":"address","internalType":"address"},{"name":"treasuryAddress_","type":"address","internalType":"address"}],"stateMutability":"nonpayable"},{"type":"function","name":"addTipStream","inputs":[{"name":"recipient","type":"address","internalType":"address"},{"name":"allocation","type":"uint256","internalType":"Percentage"},{"name":"lockedUntilEpoch","type":"uint256","internalType":"uint256"}],"outputs":[],"stateMutability":"nonpayable"},{"type":"function","name":"getAllTipStreams","inputs":[],"outputs":[{"name":"","type":"tuple[]","internalType":"struct ITipJar.TipStream[]","components":[{"name":"recipient","type":"address","internalType":"address"},{"name":"allocation","type":"uint256","internalType":"Percentage"},{"name":"lockedUntilEpoch","type":"uint256","internalType":"uint256"}]}],"stateMutability":"view"},{"type":"function","name":"getTipStream","inputs":[{"name":"recipient","type":"address","internalType":"address"}],"outputs":[{"name":"","type":"tuple","internalType":"struct ITipJar.TipStream","components":[{"name":"recipient","type":"address","internalType":"address"},{"name":"allocation","type":"uint256","internalType":"Percentage"},{"name":"lockedUntilEpoch","type":"uint256","internalType":"uint256"}]}],"stateMutability":"view"},{"type":"function","name":"getTotalAllocation","inputs":[],"outputs":[{"name":"total","type":"uint256","internalType":"Percentage"}],"stateMutability":"view"},{"type":"function","name":"removeTipStream","inputs":[{"name":"recipient","type":"address","internalType":"address"}],"outputs":[],"stateMutability":"nonpayable"},{"type":"function","name":"setTreasuryAddress","inputs":[{"name":"newTreasuryAddress","type":"address","internalType":"address"}],"outputs":[],"stateMutability":"nonpayable"},{"type":"function","name":"shake","inputs":[{"name":"fleetCommander_","type":"address","internalType":"address"}],"outputs":[],"stateMutability":"nonpayable"},{"type":"function","name":"shakeMultiple","inputs":[{"name":"fleetCommanders","type":"address[]","internalType":"address[]"}],"outputs":[],"stateMutability":"nonpayable"},{"type":"function","name":"tipStreamRecipients","inputs":[{"name":"","type":"uint256","internalType":"uint256"}],"outputs":[{"name":"","type":"address","internalType":"address"}],"stateMutability":"view"},{"type":"function","name":"tipStreams","inputs":[{"name":"","type":"address","internalType":"address"}],"outputs":[{"name":"recipient","type":"address","internalType":"address"},{"name":"allocation","type":"uint256","internalType":"Percentage"},{"name":"lockedUntilEpoch","type":"uint256","internalType":"uint256"}],"stateMutability":"view"},{"type":"function","name":"treasuryAddress","inputs":[],"outputs":[{"name":"","type":"address","internalType":"address"}],"stateMutability":"view"},{"type":"function","name":"updateTipStream","inputs":[{"name":"recipient","type":"address","internalType":"address"},{"name":"newAllocation","type":"uint256","internalType":"Percentage"},{"name":"newLockedUntilEpoch","type":"uint256","internalType":"uint256"}],"outputs":[],"stateMutability":"nonpayable"},{"type":"event","name":"TipJarShaken","inputs":[{"name":"fleetCommander","type":"address","indexed":true,"internalType":"address"},{"name":"totalDistributed","type":"uint256","indexed":false,"internalType":"uint256"}],"anonymous":false},{"type":"event","name":"TipStreamAdded","inputs":[{"name":"recipient","type":"address","indexed":true,"internalType":"address"},{"name":"allocation","type":"uint256","indexed":false,"internalType":"Percentage"},{"name":"lockedUntilEpoch","type":"uint256","indexed":false,"internalType":"uint256"}],"anonymous":false},{"type":"event","name":"TipStreamRemoved","inputs":[{"name":"recipient","type":"address","indexed":true,"internalType":"address"}],"anonymous":false},{"type":"event","name":"TipStreamUpdated","inputs":[{"name":"recipient","type":"address","indexed":true,"internalType":"address"},{"name":"newAllocation","type":"uint256","indexed":false,"internalType":"Percentage"},{"name":"newLockedUntilEpoch","type":"uint256","indexed":false,"internalType":"uint256"}],"anonymous":false},{"type":"error","name":"CallerIsNotGovernor","inputs":[{"name":"caller","type":"address","internalType":"address"}]},{"type":"error","name":"InvalidAccessManagerAddress","inputs":[{"name":"invalidAddress","type":"address","internalType":"address"}]},{"type":"error","name":"InvalidFleetCommanderAddress","inputs":[]},{"type":"error","name":"InvalidTipStreamAllocation","inputs":[{"name":"invalidAllocation","type":"uint256","internalType":"Percentage"}]},{"type":"error","name":"InvalidTreasuryAddress","inputs":[]},{"type":"error","name":"NoAssetsToDistribute","inputs":[]},{"type":"error","name":"NoSharesToRedeem","inputs":[]},{"type":"error","name":"TipStreamDoesNotExist","inputs":[{"name":"recipient","type":"address","internalType":"address"}]},{"type":"error","name":"TipStreamLocked","inputs":[{"name":"recipient","type":"address","internalType":"address"}]},{"type":"error","name":"TotalAllocationExceedsOneHundredPercent","inputs":[]}],"bytecode":{"object":"0x608060405234801561000f575f80fd5b506040516115c33803806115c383398101604081905261002e91610141565b816001600160a01b03811661005d576040516347bd7c1d60e01b81525f60048201526024015b60405180910390fd5b6040516301ffc9a760e01b815263f87138b560e01b60048201526001600160a01b038216906301ffc9a790602401602060405180830381865afa1580156100a6573d5f803e3d5ffd5b505050506040513d601f19601f820116820180604052508101906100ca9190610172565b6100f2576040516347bd7c1d60e01b81526001600160a01b0382166004820152602401610054565b5f80546001600160a01b039283166001600160a01b0319918216179091556003805493909216921691909117905550610198565b80516001600160a01b038116811461013c575f80fd5b919050565b5f8060408385031215610152575f80fd5b61015b83610126565b915061016960208401610126565b90509250929050565b5f60208284031215610182575f80fd5b81518015158114610191575f80fd5b9392505050565b61141e806101a55f395ff3fe608060405234801561000f575f80fd5b50600436106100b1575f3560e01c8063908cbdc61161006e578063908cbdc614610149578063b2cdc7db14610169578063bf7c1cc1146101c7578063c5f956af146101da578063efffce61146101ed578063f5abfe5e14610202575f80fd5b806315d3b5d8146100b55780631fd94d1b146100d057806332fddb97146100e5578063407f25fb146100f85780636605bfda14610123578063839b088514610136575b5f80fd5b6100bd610215565b6040519081526020015b60405180910390f35b6100e36100de366004611094565b610281565b005b6100e36100f3366004611094565b6103f3565b61010b6101063660046110c6565b6105b4565b6040516001600160a01b0390911681526020016100c7565b6100e36101313660046110dd565b6105dc565b6100e36101443660046110f8565b61071b565b61015c6101573660046110dd565b610761565b6040516100c79190611169565b6101a26101773660046110dd565b600160208190525f91825260409091208054918101546002909101546001600160a01b039092169183565b604080516001600160a01b0390941684526020840192909252908201526060016100c7565b6100e36101d53660046110dd565b6107ca565b60035461010b906001600160a01b031681565b6101f5610a28565b6040516100c79190611193565b6100e36102103660046110dd565b610b41565b5f61021f5f610b4d565b90505f5b60025481101561027d576102738260015f60028581548110610247576102476111fd565b5f9182526020808320909101546001600160a01b03168352820192909252604001902060010154610b6a565b9150600101610223565b5090565b5f5460408051630ccc574960e41b815290516001600160a01b03909216916391d1485491839163ccc57490916004808201926020929091908290030181865afa1580156102d0573d5f803e3d5ffd5b505050506040513d601f19601f820116820180604052508101906102f49190611211565b6040516001600160e01b031960e084901b1681526004810191909152336024820152604401602060405180830381865afa158015610334573d5f803e3d5ffd5b505050506040513d601f19601f820116820180604052508101906103589190611228565b61037c57604051630ea7d7ed60e21b81523360048201526024015b60405180910390fd5b61038583610b7c565b61038e82610c04565b6001600160a01b0383165f81815260016020818152604092839020918201869055600290910184905581518581529081018490527fb3851a462f8df3b63974e570f9621fcb08da131949d0210b9be65e8b13709a5a91015b60405180910390a2505050565b5f5460408051630ccc574960e41b815290516001600160a01b03909216916391d1485491839163ccc57490916004808201926020929091908290030181865afa158015610442573d5f803e3d5ffd5b505050506040513d601f19601f820116820180604052508101906104669190611211565b6040516001600160e01b031960e084901b1681526004810191909152336024820152604401602060405180830381865afa1580156104a6573d5f803e3d5ffd5b505050506040513d601f19601f820116820180604052508101906104ca9190611228565b6104e957604051630ea7d7ed60e21b8152336004820152602401610373565b6104f282610c04565b604080516060810182526001600160a01b0385811680835260208084018781528486018781525f84815260018085528882209751885497166001600160a01b0319978816178855925187840155905160029687015585549182018655949094527f405787fa12a823e0f2b7631cc41b3ba8828b3321ca811111fa75cd3aa3bb5ace909301805490921681179091558251858152918201849052917f767a82045008d553e274585d653248a6a3bc36648af46500061ae8924771fb7491016103e6565b600281815481106105c3575f80fd5b5f918252602090912001546001600160a01b0316905081565b5f5460408051630ccc574960e41b815290516001600160a01b03909216916391d1485491839163ccc57490916004808201926020929091908290030181865afa15801561062b573d5f803e3d5ffd5b505050506040513d601f19601f8201168201806040525081019061064f9190611211565b6040516001600160e01b031960e084901b1681526004810191909152336024820152604401602060405180830381865afa15801561068f573d5f803e3d5ffd5b505050506040513d601f19601f820116820180604052508101906106b39190611228565b6106d257604051630ea7d7ed60e21b8152336004820152602401610373565b6001600160a01b0381166106f95760405163cfe2ea6360e01b815260040160405180910390fd5b600380546001600160a01b0319166001600160a01b0392909216919091179055565b5f5b8181101561075c5761075483838381811061073a5761073a6111fd565b905060200201602081019061074f91906110dd565b610c7d565b60010161071d565b505050565b61078b60405180606001604052805f6001600160a01b031681526020015f81526020015f81525090565b506001600160a01b039081165f908152600160208181526040928390208351606081018552815490951685529182015490840152600201549082015290565b5f5460408051630ccc574960e41b815290516001600160a01b03909216916391d1485491839163ccc57490916004808201926020929091908290030181865afa158015610819573d5f803e3d5ffd5b505050506040513d601f19601f8201168201806040525081019061083d9190611211565b6040516001600160e01b031960e084901b1681526004810191909152336024820152604401602060405180830381865afa15801561087d573d5f803e3d5ffd5b505050506040513d601f19601f820116820180604052508101906108a19190611228565b6108c057604051630ea7d7ed60e21b8152336004820152602401610373565b6108c981610b7c565b6001600160a01b0381165f908152600160208190526040822080546001600160a01b03191681559081018290556002018190555b6002548110156109f157816001600160a01b031660028281548110610924576109246111fd565b5f918252602090912001546001600160a01b0316036109e9576002805461094d9060019061125b565b8154811061095d5761095d6111fd565b5f91825260209091200154600280546001600160a01b039092169183908110610988576109886111fd565b905f5260205f20015f6101000a8154816001600160a01b0302191690836001600160a01b0316021790555060028054806109c4576109c461126e565b5f8281526020902081015f1990810180546001600160a01b03191690550190556109f1565b6001016108fd565b506040516001600160a01b038216907f27d83e91c23e8d23e65c7096fcf662b306a1b459d3f1f2451462ad9817449e98905f90a250565b6002546060905f9067ffffffffffffffff811115610a4857610a48611282565b604051908082528060200260200182016040528015610aa357816020015b610a9060405180606001604052805f6001600160a01b031681526020015f81526020015f81525090565b815260200190600190039081610a665790505b5090505f5b600254811015610b3b5760015f60028381548110610ac857610ac86111fd565b5f9182526020808320909101546001600160a01b03908116845283820194909452604092830190912082516060810184528154909416845260018101549184019190915260020154908201528251839083908110610b2857610b286111fd565b6020908102919091010152600101610aa8565b50919050565b610b4a81610c7d565b50565b5f610b5a6012600a611379565b610b649083611384565b92915050565b5f610b75828461139b565b9392505050565b6001600160a01b038181165f9081526001602052604090205416610bbe5760405163b295314d60e01b81526001600160a01b0382166004820152602401610373565b6001600160a01b0381165f90815260016020526040902060020154421015610b4a5760405163214b419b60e21b81526001600160a01b0382166004820152602401610373565b610c1581610c115f610b4d565b1490565b80610c265750610c2481611033565b155b15610c475760405163354436e360e01b815260048101829052602401610373565b610c60610c5b610c55610215565b83610b6a565b611033565b610b4a5760405163b12ff28560e01b815260040160405180910390fd5b6001600160a01b038116610ca457604051635ec4fa1360e11b815260040160405180910390fd5b6040516370a0823160e01b815230600482015281905f906001600160a01b038316906370a0823190602401602060405180830381865afa158015610cea573d5f803e3d5ffd5b505050506040513d601f19601f82011682018060405250810190610d0e9190611211565b9050805f03610d305760405163f10cc93760e01b815260040160405180910390fd5b604051635d043b2960e11b815260048101829052306024820181905260448201525f906001600160a01b0384169063ba087652906064016020604051808303815f875af1158015610d83573d5f803e3d5ffd5b505050506040513d601f19601f82011682018060405250810190610da79190611211565b9050805f03610dc95760405163319f812560e21b815260040160405180910390fd5b5f836001600160a01b03166338d52e0f6040518163ffffffff1660e01b8152600401602060405180830381865afa158015610e06573d5f803e3d5ffd5b505050506040513d601f19601f82011682018060405250810190610e2a91906113ae565b90505f80610e375f610b4d565b90505f5b600254811015610f5c575f60028281548110610e5957610e596111fd565b5f9182526020808320909101546001600160a01b031680835260019182905260409092200154909150610e8c8482610b6a565b93505f610eaa85610e9f6012600a611379565b610c11906064611384565b15610ec057610eb9868961125b565b9050610ecd565b610eca8883611054565b90505b8015610f515760405163a9059cbb60e01b81526001600160a01b0384811660048301526024820183905288169063a9059cbb906044016020604051808303815f875af1158015610f1f573d5f803e3d5ffd5b505050506040513d601f19601f82011682018060405250810190610f439190611228565b50610f4e818761139b565b95505b505050600101610e3b565b505f610f68838661125b565b90508015610fe65760035460405163a9059cbb60e01b81526001600160a01b039182166004820152602481018390529085169063a9059cbb906044016020604051808303815f875af1158015610fc0573d5f803e3d5ffd5b505050506040513d601f19601f82011682018060405250810190610fe49190611228565b505b866001600160a01b03167fd3f5fdad4c895ab394f249ba2c358f247600664c003b17a0f4ee80309c41a3ae8660405161102191815260200190565b60405180910390a25050505050505050565b5f610b64826110446012600a611379565b61104f906064611384565b101590565b5f6110616012600a611379565b61106c906064611384565b6110768385611384565b610b7591906113c9565b6001600160a01b0381168114610b4a575f80fd5b5f805f606084860312156110a6575f80fd5b83356110b181611080565b95602085013595506040909401359392505050565b5f602082840312156110d6575f80fd5b5035919050565b5f602082840312156110ed575f80fd5b8135610b7581611080565b5f8060208385031215611109575f80fd5b823567ffffffffffffffff81111561111f575f80fd5b8301601f8101851361112f575f80fd5b803567ffffffffffffffff811115611145575f80fd5b8560208260051b8401011115611159575f80fd5b6020919091019590945092505050565b81516001600160a01b03168152602080830151908201526040808301519082015260608101610b64565b602080825282518282018190525f918401906040840190835b818110156111f2576111dc83855180516001600160a01b0316825260208082015190830152604090810151910152565b60209390930192606092909201916001016111ac565b509095945050505050565b634e487b7160e01b5f52603260045260245ffd5b5f60208284031215611221575f80fd5b5051919050565b5f60208284031215611238575f80fd5b81518015158114610b75575f80fd5b634e487b7160e01b5f52601160045260245ffd5b81810381811115610b6457610b64611247565b634e487b7160e01b5f52603160045260245ffd5b634e487b7160e01b5f52604160045260245ffd5b6001815b60018411156112d1578085048111156112b5576112b5611247565b60018416156112c357908102905b60019390931c92800261129a565b935093915050565b5f826112e757506001610b64565b816112f357505f610b64565b816001811461130957600281146113135761132f565b6001915050610b64565b60ff84111561132457611324611247565b50506001821b610b64565b5060208310610133831016604e8410600b8410161715611352575081810a610b64565b61135e5f198484611296565b805f190482111561137157611371611247565b029392505050565b5f610b7583836112d9565b8082028115828204841417610b6457610b64611247565b80820180821115610b6457610b64611247565b5f602082840312156113be575f80fd5b8151610b7581611080565b5f826113e357634e487b7160e01b5f52601260045260245ffd5b50049056fea264697066735822122041e12bf7b901aad5f0f374ab5f70259ab1730ac31f4f39b49d2c5b7771d6a44964736f6c634300081a0033","linkReferences":{}},"methodIdentifiers":{"addTipStream(address,uint256,uint256)":"32fddb97","getAllTipStreams()":"efffce61","getTipStream(address)":"908cbdc6","getTotalAllocation()":"15d3b5d8","removeTipStream(address)":"bf7c1cc1","setTreasuryAddress(address)":"6605bfda","shake(address)":"f5abfe5e","shakeMultiple(address[])":"839b0885","tipStreamRecipients(uint256)":"407f25fb","tipStreams(address)":"b2cdc7db","treasuryAddress()":"c5f956af","updateTipStream(address,uint256,uint256)":"1fd94d1b"},"id":66}